{
  "address": "0xB6E97174A4Bf43149f5b69fE917E692bC66ee5fE",
  "abi": [
    {
      "inputs": [
        {
          "internalType": "contract YieldBox",
          "name": "_yieldBox",
          "type": "address"
        },
        {
          "internalType": "contract IERC20",
          "name": "tapToken_",
          "type": "address"
        }
      ],
      "stateMutability": "nonpayable",
      "type": "constructor"
    },
    {
      "anonymous": false,
      "inputs": [
        {
          "indexed": false,
          "internalType": "address",
          "name": "newFeeTo",
          "type": "address"
        }
      ],
      "name": "FeeToUpdate",
      "type": "event"
    },
    {
      "anonymous": false,
      "inputs": [
        {
          "indexed": false,
          "internalType": "address",
          "name": "newFeeVeTap",
          "type": "address"
        }
      ],
      "name": "FeeVeTapUpdate",
      "type": "event"
    },
    {
      "anonymous": false,
      "inputs": [
        {
          "indexed": true,
          "internalType": "address",
          "name": "previousOwner",
          "type": "address"
        },
        {
          "indexed": true,
          "internalType": "address",
          "name": "newOwner",
          "type": "address"
        }
      ],
      "name": "OwnershipTransferred",
      "type": "event"
    },
    {
      "anonymous": false,
      "inputs": [
        {
          "indexed": false,
          "internalType": "address[]",
          "name": "markets",
          "type": "address[]"
        },
        {
          "indexed": false,
          "internalType": "uint256",
          "name": "timestamp",
          "type": "uint256"
        }
      ],
      "name": "ProtocolWithdrawal",
      "type": "event"
    },
    {
      "anonymous": false,
      "inputs": [
        {
          "indexed": false,
          "internalType": "address",
          "name": "location",
          "type": "address"
        },
        {
          "indexed": false,
          "internalType": "enum IBeachBar.ContractType",
          "name": "risk",
          "type": "uint8"
        }
      ],
      "name": "RegisterMasterContract",
      "type": "event"
    },
    {
      "anonymous": false,
      "inputs": [
        {
          "indexed": false,
          "internalType": "address",
          "name": "location",
          "type": "address"
        },
        {
          "indexed": false,
          "internalType": "address",
          "name": "masterContract",
          "type": "address"
        }
      ],
      "name": "RegisterSingularity",
      "type": "event"
    },
    {
      "anonymous": false,
      "inputs": [
        {
          "indexed": false,
          "internalType": "address",
          "name": "swapper",
          "type": "address"
        },
        {
          "indexed": false,
          "internalType": "bool",
          "name": "isRegistered",
          "type": "bool"
        }
      ],
      "name": "SwapperUpdate",
      "type": "event"
    },
    {
      "anonymous": false,
      "inputs": [
        {
          "indexed": true,
          "internalType": "address",
          "name": "usdoToken",
          "type": "address"
        },
        {
          "indexed": false,
          "internalType": "uint256",
          "name": "assetId",
          "type": "uint256"
        }
      ],
      "name": "UsdoTokenUpdated",
      "type": "event"
    },
    {
      "inputs": [],
      "name": "claimOwnership",
      "outputs": [],
      "stateMutability": "nonpayable",
      "type": "function"
    },
    {
      "inputs": [
        {
          "internalType": "address[]",
          "name": "mc",
          "type": "address[]"
        },
        {
          "internalType": "bytes[]",
          "name": "data",
          "type": "bytes[]"
        },
        {
          "internalType": "bool",
          "name": "forceSuccess",
          "type": "bool"
        }
      ],
      "name": "executeSingularityFn",
      "outputs": [
        {
          "internalType": "bool[]",
          "name": "success",
          "type": "bool[]"
        },
        {
          "internalType": "bytes[]",
          "name": "result",
          "type": "bytes[]"
        }
      ],
      "stateMutability": "nonpayable",
      "type": "function"
    },
    {
      "inputs": [],
      "name": "feeTo",
      "outputs": [
        {
          "internalType": "address",
          "name": "",
          "type": "address"
        }
      ],
      "stateMutability": "view",
      "type": "function"
    },
    {
      "inputs": [],
      "name": "feeVeTap",
      "outputs": [
        {
          "internalType": "address",
          "name": "",
          "type": "address"
        }
      ],
      "stateMutability": "view",
      "type": "function"
    },
    {
      "inputs": [],
      "name": "masterContractLength",
      "outputs": [
        {
          "internalType": "uint256",
          "name": "",
          "type": "uint256"
        }
      ],
      "stateMutability": "view",
      "type": "function"
    },
    {
      "inputs": [
        {
          "internalType": "uint256",
          "name": "",
          "type": "uint256"
        }
      ],
      "name": "masterContracts",
      "outputs": [
        {
          "internalType": "address",
          "name": "location",
          "type": "address"
        },
        {
          "internalType": "enum IBeachBar.ContractType",
          "name": "risk",
          "type": "uint8"
        }
      ],
      "stateMutability": "view",
      "type": "function"
    },
    {
      "inputs": [],
      "name": "owner",
      "outputs": [
        {
          "internalType": "address",
          "name": "",
          "type": "address"
        }
      ],
      "stateMutability": "view",
      "type": "function"
    },
    {
      "inputs": [],
      "name": "pendingOwner",
      "outputs": [
        {
          "internalType": "address",
          "name": "",
          "type": "address"
        }
      ],
      "stateMutability": "view",
      "type": "function"
    },
    {
      "inputs": [
        {
          "internalType": "address",
          "name": "mcAddress",
          "type": "address"
        },
        {
          "internalType": "enum IBeachBar.ContractType",
          "name": "contractType_",
          "type": "uint8"
        }
      ],
      "name": "registerMasterContract",
      "outputs": [],
      "stateMutability": "nonpayable",
      "type": "function"
    },
    {
      "inputs": [
        {
          "internalType": "address",
          "name": "mc",
          "type": "address"
        },
        {
          "internalType": "bytes",
          "name": "data",
          "type": "bytes"
        },
        {
          "internalType": "bool",
          "name": "useCreate2",
          "type": "bool"
        }
      ],
      "name": "registerSingularity",
      "outputs": [
        {
          "internalType": "address",
          "name": "_contract",
          "type": "address"
        }
      ],
      "stateMutability": "payable",
      "type": "function"
    },
    {
      "inputs": [
        {
          "internalType": "address",
          "name": "feeTo_",
          "type": "address"
        }
      ],
      "name": "setFeeTo",
      "outputs": [],
      "stateMutability": "nonpayable",
      "type": "function"
    },
    {
      "inputs": [
        {
          "internalType": "address",
          "name": "feeVeTap_",
          "type": "address"
        }
      ],
      "name": "setFeeVeTap",
      "outputs": [],
      "stateMutability": "nonpayable",
      "type": "function"
    },
    {
      "inputs": [
        {
          "internalType": "contract IMultiSwapper",
          "name": "swapper",
          "type": "address"
        },
        {
          "internalType": "bool",
          "name": "enable",
          "type": "bool"
        }
      ],
      "name": "setSwapper",
      "outputs": [],
      "stateMutability": "nonpayable",
      "type": "function"
    },
    {
      "inputs": [
        {
          "internalType": "address",
          "name": "_usdoToken",
          "type": "address"
        }
      ],
      "name": "setUsdoToken",
      "outputs": [],
      "stateMutability": "nonpayable",
      "type": "function"
    },
    {
      "inputs": [
        {
          "internalType": "contract IMultiSwapper",
          "name": "",
          "type": "address"
        }
      ],
      "name": "swappers",
      "outputs": [
        {
          "internalType": "bool",
          "name": "",
          "type": "bool"
        }
      ],
      "stateMutability": "view",
      "type": "function"
    },
    {
      "inputs": [],
      "name": "tapAssetId",
      "outputs": [
        {
          "internalType": "uint256",
          "name": "",
          "type": "uint256"
        }
      ],
      "stateMutability": "view",
      "type": "function"
    },
    {
      "inputs": [],
      "name": "tapToken",
      "outputs": [
        {
          "internalType": "contract IERC20",
          "name": "",
          "type": "address"
        }
      ],
      "stateMutability": "view",
      "type": "function"
    },
    {
      "inputs": [],
      "name": "tapiocaMarkets",
      "outputs": [
        {
          "internalType": "address[]",
          "name": "markets",
          "type": "address[]"
        }
      ],
      "stateMutability": "view",
      "type": "function"
    },
    {
      "inputs": [
        {
          "internalType": "address",
          "name": "newOwner",
          "type": "address"
        },
        {
          "internalType": "bool",
          "name": "direct",
          "type": "bool"
        },
        {
          "internalType": "bool",
          "name": "renounce",
          "type": "bool"
        }
      ],
      "name": "transferOwnership",
      "outputs": [],
      "stateMutability": "nonpayable",
      "type": "function"
    },
    {
      "inputs": [],
      "name": "usdoAssetId",
      "outputs": [
        {
          "internalType": "uint256",
          "name": "",
          "type": "uint256"
        }
      ],
      "stateMutability": "view",
      "type": "function"
    },
    {
      "inputs": [],
      "name": "usdoToken",
      "outputs": [
        {
          "internalType": "contract IUSD0",
          "name": "",
          "type": "address"
        }
      ],
      "stateMutability": "view",
      "type": "function"
    },
    {
      "inputs": [
        {
          "internalType": "contract IMultiSwapper[]",
          "name": "swappers_",
          "type": "address[]"
        },
        {
          "components": [
            {
              "internalType": "uint256",
              "name": "minAssetAmount",
              "type": "uint256"
            }
          ],
          "internalType": "struct IBeachBar.SwapData[]",
          "name": "swapData_",
          "type": "tuple[]"
        }
      ],
      "name": "withdrawAllProtocolFees",
      "outputs": [],
      "stateMutability": "nonpayable",
      "type": "function"
    },
    {
      "inputs": [],
      "name": "yieldBox",
      "outputs": [
        {
          "internalType": "contract YieldBox",
          "name": "",
          "type": "address"
        }
      ],
      "stateMutability": "view",
      "type": "function"
    }
  ],
  "transactionHash": "0xf81291bf70e79da16c78a066d2fff1a10caa5b5d9b243b62a042671bb9d6f348",
  "args": [
    "0x8ba3C4887C6B45ea256BcD4E3E1f6eb0131974CB",
    "0x4663B30afc168A6D1810fA6857a74d04bf632E54"
  ],
  "numDeployments": 1,
  "solcInputHash": "2612d1c2a88385f6d32eefa521bedfe0",
  "bytecode": "0x60e06040523480156200001157600080fd5b50604051620021c1380380620021c1833981016040819052620000349162000138565b600080546001600160a01b0319163390811782556040519091907f8be0079c531659141344cd1fd0a4f28419497f9722a3daafe3b4186f6b6457e0908290a36001600160a01b03808316608081905290821660a052604051632c1876e560e21b815263b061db9490620000b4906001908590600090819060040162000177565b602060405180830381600087803b158015620000cf57600080fd5b505af1158015620000e4573d6000803e3d6000fd5b505050506040513d601f19601f820116820180604052508101906200010a9190620001bd565b6001600160601b031660c05250620001d79050565b6001600160a01b03811681146200013557600080fd5b50565b600080604083850312156200014c57600080fd5b825162000159816200011f565b60208401519092506200016c816200011f565b809150509250929050565b60808101600586106200019a57634e487b7160e01b600052602160045260246000fd5b9481526001600160a01b0393841660208201529190921660408201526060015290565b600060208284031215620001d057600080fd5b5051919050565b60805160a05160c051611f906200023160003960006101f6015260006103f901526000818161047d01528181610c7301528181610e52015281816110e2015281816113cd01528181611565015261162d0152611f906000f3fe6080604052600436106101805760003560e01c806386c8e21d116100d6578063c7cee5321161007f578063de40657711610059578063de4065771461046b578063e30c39781461049f578063f46901ed146104bf57600080fd5b8063c7cee532146103e7578063cf7470fa1461041b578063d164c2411461044957600080fd5b80639488c4dc116100b05780639488c4dc14610386578063aedf427214610399578063b8bbd965146103b957600080fd5b806386c8e21d146103105780638cad7fbe146103265780638da5cb5b1461036657600080fd5b80632c76e7f8116101385780634eb51e29116101125780634eb51e29146102bb578063515104a8146102d05780636100ff14146102f057600080fd5b80632c76e7f8146102665780633f2617cb146102865780634e71e0c8146102a657600080fd5b80630e7ee227116101695780630e7ee227146101e45780630feb123d146102265780632324248e1461024657600080fd5b8063017e7e5814610185578063078dfbe7146101c2575b600080fd5b34801561019157600080fd5b506006546101a5906001600160a01b031681565b6040516001600160a01b0390911681526020015b60405180910390f35b3480156101ce57600080fd5b506101e26101dd366004611829565b6104df565b005b3480156101f057600080fd5b506102187f000000000000000000000000000000000000000000000000000000000000000081565b6040519081526020016101b9565b34801561023257600080fd5b506007546101a5906001600160a01b031681565b34801561025257600080fd5b506002546101a5906001600160a01b031681565b34801561027257600080fd5b506101e26102813660046118ba565b61062b565b34801561029257600080fd5b506101e26102a1366004611926565b61084d565b3480156102b257600080fd5b506101e261090a565b3480156102c757600080fd5b50600454610218565b3480156102dc57600080fd5b506101e26102eb36600461195b565b6109c7565b3480156102fc57600080fd5b506101e261030b366004611998565b610bd1565b34801561031c57600080fd5b5061021860035481565b34801561033257600080fd5b50610356610341366004611998565b60086020526000908152604090205460ff1681565b60405190151581526020016101b9565b34801561037257600080fd5b506000546101a5906001600160a01b031681565b6101a56103943660046119bc565b610d58565b3480156103a557600080fd5b506101e26103b4366004611998565b610f2e565b3480156103c557600080fd5b506103d96103d4366004611ac1565b610fdd565b6040516101b9929190611c50565b3480156103f357600080fd5b506101a57f000000000000000000000000000000000000000000000000000000000000000081565b34801561042757600080fd5b5061043b610436366004611cea565b611384565b6040516101b9929190611d19565b34801561045557600080fd5b5061045e6113b9565b6040516101b99190611d8a565b34801561047757600080fd5b506101a57f000000000000000000000000000000000000000000000000000000000000000081565b3480156104ab57600080fd5b506001546101a5906001600160a01b031681565b3480156104cb57600080fd5b506101e26104da366004611998565b6116ef565b6000546001600160a01b0316331461053e5760405162461bcd60e51b815260206004820181905260248201527f4f776e61626c653a2063616c6c6572206973206e6f7420746865206f776e657260448201526064015b60405180910390fd5b8115610609576001600160a01b0383161515806105585750805b6105a45760405162461bcd60e51b815260206004820152601560248201527f4f776e61626c653a207a65726f206164647265737300000000000000000000006044820152606401610535565b600080546040516001600160a01b03808716939216917f8be0079c531659141344cd1fd0a4f28419497f9722a3daafe3b4186f6b6457e091a3600080546001600160a01b0385166001600160a01b031991821617909155600180549091169055505050565b600180546001600160a01b0385166001600160a01b0319909116179055505050565b60008484828161063d5761063d611d9d565b90506020020160208101906106529190611998565b6001600160a01b031614156106a95760405162461bcd60e51b815260206004820152601660248201527f42656163684261723a207a65726f2061646472657373000000000000000000006044820152606401610535565b6004548381141560006106ba6113b9565b805190915060005b81811015610809578281815181106106dc576106dc611d9d565b60200260200101516001600160a01b0316630fde08e385610723578a8a8481811061070957610709611d9d565b905060200201602081019061071e9190611998565b61074b565b8a8a600081811061073657610736611d9d565b905060200201602081019061074b9190611998565b8661076d5789898581811061076257610762611d9d565b905060200201610787565b8989600081811061078057610780611d9d565b9050602002015b6040517fffffffff0000000000000000000000000000000000000000000000000000000060e085901b1681526001600160a01b039092166004830152356024820152604401600060405180830381600087803b1580156107e657600080fd5b505af11580156107fa573d6000803e3d6000fd5b505050508060010190506106c2565b507fdc0aec64e01514853db7bc1f49a7321726ef185b59f680c9bc9edcf499722bc7824260405161083b929190611db3565b60405180910390a15050505050505050565b6000546001600160a01b031633146108a75760405162461bcd60e51b815260206004820181905260248201527f4f776e61626c653a2063616c6c6572206973206e6f7420746865206f776e65726044820152606401610535565b6001600160a01b038216600081815260086020908152604091829020805460ff19168515159081179091558251938452908301527fa893ff5e6c8549e5f4e3d6bb1d38cbf1ede3443ef5726c0477f01c296f7eaf02910160405180910390a15050565b6001546001600160a01b03163381146109655760405162461bcd60e51b815260206004820181905260248201527f4f776e61626c653a2063616c6c657220213d2070656e64696e67206f776e65726044820152606401610535565b600080546040516001600160a01b03808516939216917f8be0079c531659141344cd1fd0a4f28419497f9722a3daafe3b4186f6b6457e091a3600080546001600160a01b039092166001600160a01b0319928316179055600180549091169055565b6000546001600160a01b03163314610a215760405162461bcd60e51b815260206004820181905260248201527f4f776e61626c653a2063616c6c6572206973206e6f7420746865206f776e65726044820152606401610535565b6001600160a01b03821660009081526005602052604090205460ff1615610a8a5760405162461bcd60e51b815260206004820152601760248201527f42656163684261723a204d4320726567697374657265640000000000000000006044820152606401610535565b604080518082019091526000602082019081526001600160a01b0384168252826002811115610abb57610abb611d03565b90816002811115610ace57610ace611d03565b9052506004805460018101825560009190915281517f8a35acfbc15ff81a39ae7d344fd709f28e8600b4aa8c65c6b64bfe7fe36bd19b90910180546001600160a01b039092166001600160a01b031983168117825560208401518493909183917fffffffffffffffffffffff0000000000000000000000000000000000000000001617600160a01b836002811115610b6857610b68611d03565b021790555050506001600160a01b03831660009081526005602052604090819020805460ff19166001179055517f1b171ff9e281f7033f8c4d90b0d08fa61c8ad18aba517793d5b6619a21d4c04c90610bc49085908590611d19565b60405180910390a1505050565b6000546001600160a01b03163314610c2b5760405162461bcd60e51b815260206004820181905260248201527f4f776e61626c653a2063616c6c6572206973206e6f7420746865206f776e65726044820152606401610535565b600280546001600160a01b0319166001600160a01b03838116919091179091556040517fb061db940000000000000000000000000000000000000000000000000000000081527f00000000000000000000000000000000000000000000000000000000000000009091169063b061db9490610cb29060019085906000908190600401611dd5565b602060405180830381600087803b158015610ccc57600080fd5b505af1158015610ce0573d6000803e3d6000fd5b505050506040513d601f19601f82011682018060405250810190610d049190611e0c565b6bffffffffffffffffffffffff1660038190556040519081526001600160a01b038216907fa8bcc850e0dd5734a654196b5949251a22dec7d076dcdde7c355a1a2d6006e069060200160405180910390a250565b600080546001600160a01b03163314610db35760405162461bcd60e51b815260206004820181905260248201527f4f776e61626c653a2063616c6c6572206973206e6f7420746865206f776e65726044820152606401610535565b6001600160a01b038516600090815260056020526040902054859060ff161515600114610e225760405162461bcd60e51b815260206004820152601b60248201527f42656163684261723a204d43206e6f74207265676973746572656400000000006044820152606401610535565b6040517f1f54245b0000000000000000000000000000000000000000000000000000000081526001600160a01b037f00000000000000000000000000000000000000000000000000000000000000001690631f54245b90610e8d908990899089908990600401611e25565b602060405180830381600087803b158015610ea757600080fd5b505af1158015610ebb573d6000803e3d6000fd5b505050506040513d601f19601f82011682018060405250810190610edf9190611e6e565b604080516001600160a01b038084168252891660208201529193507f1105050c403ad688afa33c2669a46bcffdf42221ee17dd625d05d09f1433cd67910160405180910390a150949350505050565b6000546001600160a01b03163314610f885760405162461bcd60e51b815260206004820181905260248201527f4f776e61626c653a2063616c6c6572206973206e6f7420746865206f776e65726044820152606401610535565b600780546001600160a01b0319166001600160a01b0383169081179091556040519081527fe8fb39e0250fa1bfc54b044703d7949c0630d364b2f315a8bb7b42f267faf349906020015b60405180910390a150565b60005460609081906001600160a01b0316331461103c5760405162461bcd60e51b815260206004820181905260248201527f4f776e61626c653a2063616c6c6572206973206e6f7420746865206f776e65726044820152606401610535565b848067ffffffffffffffff81111561105657611056611a52565b60405190808252806020026020018201604052801561107f578160200160208202803683370190505b5092508067ffffffffffffffff81111561109b5761109b611a52565b6040519080825280602002602001820160405280156110ce57816020015b60608152602001906001900390816110b95790505b50915060005b8181101561137957600560007f00000000000000000000000000000000000000000000000000000000000000006001600160a01b031663bafe4f148b8b8681811061112157611121611d9d565b90506020020160208101906111369190611998565b6040517fffffffff0000000000000000000000000000000000000000000000000000000060e084901b1681526001600160a01b03909116600482015260240160206040518083038186803b15801561118d57600080fd5b505afa1580156111a1573d6000803e3d6000fd5b505050506040513d601f19601f820116820180604052508101906111c59190611e6e565b6001600160a01b0316815260208101919091526040016000205460ff1661122e5760405162461bcd60e51b815260206004820152601b60248201527f42656163684261723a204d43206e6f74207265676973746572656400000000006044820152606401610535565b87878281811061124057611240611d9d565b90506020020160208101906112559190611998565b6001600160a01b031686828151811061127057611270611d9d565b60200260200101516040516112859190611e8b565b6000604051808303816000865af19150503d80600081146112c2576040519150601f19603f3d011682016040523d82523d6000602084013e6112c7565b606091505b508583815181106112da576112da611d9d565b602002602001018584815181106112f3576112f3611d9d565b602002602001018290528215151515815250505084156113695783818151811061131f5761131f611d9d565b602002602001015161134984838151811061133c5761133c611d9d565b6020026020010151611797565b906113675760405162461bcd60e51b81526004016105359190611ea7565b505b61137281611eba565b90506110d4565b505094509492505050565b6004818154811061139457600080fd5b6000918252602090912001546001600160a01b0381169150600160a01b900460ff1682565b6004546060906000805b828110156114b4577f00000000000000000000000000000000000000000000000000000000000000006001600160a01b031663fba96be86004838154811061140d5761140d611d9d565b60009182526020909120015460405160e083901b7fffffffff000000000000000000000000000000000000000000000000000000001681526001600160a01b03909116600482015260240160206040518083038186803b15801561147057600080fd5b505afa158015611484573d6000803e3d6000fd5b505050506040513d601f19601f820116820180604052508101906114a89190611e0c565b909101906001016113c3565b508067ffffffffffffffff8111156114ce576114ce611a52565b6040519080825280602002602001820160405280156114f7578160200160208202803683370190505b50925060008060005b848110156116e75760006004828154811061151d5761151d611d9d565b6000918252602090912001546040517ffba96be80000000000000000000000000000000000000000000000000000000081526001600160a01b039182166004820181905292507f00000000000000000000000000000000000000000000000000000000000000009091169063fba96be89060240160206040518083038186803b1580156115a957600080fd5b505afa1580156115bd573d6000803e3d6000fd5b505050506040513d601f19601f820116820180604052508101906115e19190611e0c565b925060005b838110156116dd576040517f8fd436540000000000000000000000000000000000000000000000000000000081526001600160a01b038381166004830152602482018390527f00000000000000000000000000000000000000000000000000000000000000001690638fd436549060440160206040518083038186803b15801561166f57600080fd5b505afa158015611683573d6000803e3d6000fd5b505050506040513d601f19601f820116820180604052508101906116a79190611e6e565b8886815181106116b9576116b9611d9d565b6001600160a01b0390921660209283029190910190910152600194850194016115e6565b5050600101611500565b505050505090565b6000546001600160a01b031633146117495760405162461bcd60e51b815260206004820181905260248201527f4f776e61626c653a2063616c6c6572206973206e6f7420746865206f776e65726044820152606401610535565b600680546001600160a01b0319166001600160a01b0383169081179091556040519081527f68953050a837881c7c6f52c422b0f82e1fd474e6931654ea29f569d19fcc42c290602001610fd2565b60606044825110156117dc57505060408051808201909152601381527f53474c3a206e6f2072657475726e206461746100000000000000000000000000602082015290565b600482019150818060200190518101906117f69190611ee3565b92915050565b6001600160a01b038116811461181157600080fd5b50565b8035801515811461182457600080fd5b919050565b60008060006060848603121561183e57600080fd5b8335611849816117fc565b925061185760208501611814565b915061186560408501611814565b90509250925092565b60008083601f84011261188057600080fd5b50813567ffffffffffffffff81111561189857600080fd5b6020830191508360208260051b85010111156118b357600080fd5b9250929050565b600080600080604085870312156118d057600080fd5b843567ffffffffffffffff808211156118e857600080fd5b6118f48883890161186e565b9096509450602087013591508082111561190d57600080fd5b5061191a8782880161186e565b95989497509550505050565b6000806040838503121561193957600080fd5b8235611944816117fc565b915061195260208401611814565b90509250929050565b6000806040838503121561196e57600080fd5b8235611979816117fc565b915060208301356003811061198d57600080fd5b809150509250929050565b6000602082840312156119aa57600080fd5b81356119b5816117fc565b9392505050565b600080600080606085870312156119d257600080fd5b84356119dd816117fc565b9350602085013567ffffffffffffffff808211156119fa57600080fd5b818701915087601f830112611a0e57600080fd5b813581811115611a1d57600080fd5b886020828501011115611a2f57600080fd5b602083019550809450505050611a4760408601611814565b905092959194509250565b634e487b7160e01b600052604160045260246000fd5b604051601f8201601f1916810167ffffffffffffffff81118282101715611a9157611a91611a52565b604052919050565b600067ffffffffffffffff821115611ab357611ab3611a52565b50601f01601f191660200190565b60008060008060608587031215611ad757600080fd5b843567ffffffffffffffff80821115611aef57600080fd5b611afb8883890161186e565b9096509450602091508682013581811115611b1557600080fd5b8701601f81018913611b2657600080fd5b803582811115611b3857611b38611a52565b8060051b611b47858201611a68565b918252828101850191858101908c841115611b6157600080fd5b86850192505b83831015611bde57823586811115611b7e57600080fd5b8501603f81018e13611b8f57600080fd5b87810135611ba4611b9f82611a99565b611a68565b8181528f6040838501011115611bba5760008081fd5b81604084018b83013760009181018a01919091528352509186019190860190611b67565b80985050505050505050611a4760408601611814565b60005b83811015611c0f578181015183820152602001611bf7565b83811115611c1e576000848401525b50505050565b60008151808452611c3c816020860160208601611bf4565b601f01601f19169290920160200192915050565b604080825283519082018190526000906020906060840190828701845b82811015611c8b578151151584529284019290840190600101611c6d565b50505083810382850152845180825282820190600581901b8301840187850160005b83811015611cdb57601f19868403018552611cc9838351611c24565b94870194925090860190600101611cad565b50909998505050505050505050565b600060208284031215611cfc57600080fd5b5035919050565b634e487b7160e01b600052602160045260246000fd5b6001600160a01b03831681526040810160038310611d3957611d39611d03565b8260208301529392505050565b600081518084526020808501945080840160005b83811015611d7f5781516001600160a01b031687529582019590820190600101611d5a565b509495945050505050565b6020815260006119b56020830184611d46565b634e487b7160e01b600052603260045260246000fd5b604081526000611dc66040830185611d46565b90508260208301529392505050565b6080810160058610611de957611de9611d03565b9481526001600160a01b0393841660208201529190921660408201526060015290565b600060208284031215611e1e57600080fd5b5051919050565b6001600160a01b0385168152606060208201528260608201528284608083013760008184016080908101919091529115156040820152601f909201601f19169091010192915050565b600060208284031215611e8057600080fd5b81516119b5816117fc565b60008251611e9d818460208701611bf4565b9190910192915050565b6020815260006119b56020830184611c24565b6000600019821415611edc57634e487b7160e01b600052601160045260246000fd5b5060010190565b600060208284031215611ef557600080fd5b815167ffffffffffffffff811115611f0c57600080fd5b8201601f81018413611f1d57600080fd5b8051611f2b611b9f82611a99565b818152856020838501011115611f4057600080fd5b611f51826020830160208601611bf4565b9594505050505056fea264697066735822122037f0ba99fe95439a41c7216189a734efef78543b3ff848c029a915d58651213b64736f6c63430008090033",
  "devdoc": {
    "kind": "dev",
    "methods": {
      "constructor": {
        "params": {
          "_yieldBox": "YieldBox contract address",
          "tapToken_": "TapOFT contract address"
        }
      },
      "registerMasterContract(address,uint8)": {
        "params": {
          "contractType_": "The risk type of the contract",
          "mcAddress": "The address of the contract"
        }
      },
      "registerSingularity(address,bytes,bool)": {
        "params": {
          "data": "The init data of the Singularity",
          "mc": "The address of the master contract which must be already registered",
          "useCreate2": "Whether to use create2 or not"
        }
      },
      "setSwapper(address,bool)": {
        "params": {
          "enable": "True to enable the swapper. To disable use False.",
          "swapper": "The address of the swapper contract that conforms to `ISwapper`."
        }
      },
      "setUsdoToken(address)": {
        "details": "sets usdoToken and usdoAssetId",
        "params": {
          "_usdoToken": "the USD0 token address"
        }
      },
      "tapiocaMarkets()": {
        "returns": {
          "markets": "list of available markets"
        }
      },
      "transferOwnership(address,bool,bool)": {
        "params": {
          "direct": "True if `newOwner` should be set immediately. False if `newOwner` needs to use `claimOwnership`.",
          "newOwner": "Address of the new owner.",
          "renounce": "Allows the `newOwner` to be `address(0)` if `direct` and `renounce` is True. Has no effect otherwise."
        }
      },
      "withdrawAllProtocolFees(address[],(uint256)[])": {
        "details": "`swappers_` can have one element that'll be used for all clones. Or one swapper per MasterContract.Fees are withdrawn in TAP and sent to the FeeDistributor contract",
        "params": {
          "swappers_": "One or more swappers to convert the asset to TAP."
        }
      }
    },
    "title": "Global market registry",
    "version": 1
  },
  "userdoc": {
    "kind": "user",
    "methods": {
      "claimOwnership()": {
        "notice": "Needs to be called by `pendingOwner` to claim ownership."
      },
      "constructor": {
        "notice": "creates a BeachBar contract"
      },
      "executeSingularityFn(address[],bytes[],bool)": {
        "notice": "Execute an only owner function inside of a Singularity market"
      },
      "feeTo()": {
        "notice": "protocol fees"
      },
      "feeVeTap()": {
        "notice": "TAP distributor fees"
      },
      "masterContractLength()": {
        "notice": "Get the length of `masterContracts`"
      },
      "masterContracts(uint256)": {
        "notice": "master contracts registered"
      },
      "registerMasterContract(address,uint8)": {
        "notice": "Register a master contract"
      },
      "registerSingularity(address,bytes,bool)": {
        "notice": "Registera a Singularity"
      },
      "setFeeTo(address)": {
        "notice": "Set protocol fees address"
      },
      "setFeeVeTap(address)": {
        "notice": "Set TAP distributors fees address"
      },
      "setSwapper(address,bool)": {
        "notice": "Used to register and enable or disable swapper contracts used in closed liquidations. MasterContract Only Admin function."
      },
      "setUsdoToken(address)": {
        "notice": "Used to set the USD0 token"
      },
      "swappers(address)": {
        "notice": "whitelisted swappers"
      },
      "tapAssetId()": {
        "notice": "returns TAP asset id registered in the YieldBox contract"
      },
      "tapToken()": {
        "notice": "returns the TAP contract"
      },
      "tapiocaMarkets()": {
        "notice": "Get all the Singularity contract addresses"
      },
      "transferOwnership(address,bool,bool)": {
        "notice": "Transfers ownership to `newOwner`. Either directly or claimable by the new pending owner. Can only be invoked by the current `owner`."
      },
      "usdoAssetId()": {
        "notice": "returns USD0 asset id registered in the YieldBox contract"
      },
      "usdoToken()": {
        "notice": "returns USD0 contract"
      },
      "withdrawAllProtocolFees(address[],(uint256)[])": {
        "notice": "Loop through the master contracts and call `depositFeesToYieldBox()` to each one of their clones."
      },
      "yieldBox()": {
        "notice": "returns the YieldBox contract"
      }
    },
    "notice": "+ asset registration? (toggle to renounce ownership so users can call)Singularity management",
    "version": 1
  },
  "storageLayout": {
    "storage": [
      {
        "astId": 233,
        "contract": "contracts/BeachBar.sol:BeachBar",
        "label": "owner",
        "offset": 0,
        "slot": "0",
        "type": "t_address"
      },
      {
        "astId": 235,
        "contract": "contracts/BeachBar.sol:BeachBar",
        "label": "pendingOwner",
        "offset": 0,
        "slot": "1",
        "type": "t_address"
      },
      {
        "astId": 2480,
        "contract": "contracts/BeachBar.sol:BeachBar",
        "label": "usdoToken",
        "offset": 0,
        "slot": "2",
        "type": "t_contract(IUSD0)18018"
      },
      {
        "astId": 2483,
        "contract": "contracts/BeachBar.sol:BeachBar",
        "label": "usdoAssetId",
        "offset": 0,
        "slot": "3",
        "type": "t_uint256"
      },
      {
        "astId": 2488,
        "contract": "contracts/BeachBar.sol:BeachBar",
        "label": "masterContracts",
        "offset": 0,
        "slot": "4",
        "type": "t_array(t_struct(MasterContract)3138_storage)dyn_storage"
      },
      {
        "astId": 2492,
        "contract": "contracts/BeachBar.sol:BeachBar",
        "label": "isMasterContractRegistered",
        "offset": 0,
        "slot": "5",
        "type": "t_mapping(t_address,t_bool)"
      },
      {
        "astId": 2495,
        "contract": "contracts/BeachBar.sol:BeachBar",
        "label": "feeTo",
        "offset": 0,
        "slot": "6",
        "type": "t_address"
      },
      {
        "astId": 2498,
        "contract": "contracts/BeachBar.sol:BeachBar",
        "label": "feeVeTap",
        "offset": 0,
        "slot": "7",
        "type": "t_address"
      },
      {
        "astId": 2504,
        "contract": "contracts/BeachBar.sol:BeachBar",
        "label": "swappers",
        "offset": 0,
        "slot": "8",
        "type": "t_mapping(t_contract(IMultiSwapper)17259,t_bool)"
      }
    ],
    "types": {
      "t_address": {
        "encoding": "inplace",
        "label": "address",
        "numberOfBytes": "20"
      },
      "t_array(t_struct(MasterContract)3138_storage)dyn_storage": {
        "base": "t_struct(MasterContract)3138_storage",
        "encoding": "dynamic_array",
        "label": "struct IBeachBar.MasterContract[]",
        "numberOfBytes": "32"
      },
      "t_bool": {
        "encoding": "inplace",
        "label": "bool",
        "numberOfBytes": "1"
      },
      "t_contract(IMultiSwapper)17259": {
        "encoding": "inplace",
        "label": "contract IMultiSwapper",
        "numberOfBytes": "20"
      },
      "t_contract(IUSD0)18018": {
        "encoding": "inplace",
        "label": "contract IUSD0",
        "numberOfBytes": "20"
      },
      "t_enum(ContractType)3132": {
        "encoding": "inplace",
        "label": "enum IBeachBar.ContractType",
        "numberOfBytes": "1"
      },
      "t_mapping(t_address,t_bool)": {
        "encoding": "mapping",
        "key": "t_address",
        "label": "mapping(address => bool)",
        "numberOfBytes": "32",
        "value": "t_bool"
      },
      "t_mapping(t_contract(IMultiSwapper)17259,t_bool)": {
        "encoding": "mapping",
        "key": "t_contract(IMultiSwapper)17259",
        "label": "mapping(contract IMultiSwapper => bool)",
        "numberOfBytes": "32",
        "value": "t_bool"
      },
      "t_struct(MasterContract)3138_storage": {
        "encoding": "inplace",
        "label": "struct IBeachBar.MasterContract",
        "members": [
          {
            "astId": 3134,
            "contract": "contracts/BeachBar.sol:BeachBar",
            "label": "location",
            "offset": 0,
            "slot": "0",
            "type": "t_address"
          },
          {
            "astId": 3137,
            "contract": "contracts/BeachBar.sol:BeachBar",
            "label": "risk",
            "offset": 20,
            "slot": "0",
            "type": "t_enum(ContractType)3132"
          }
        ],
        "numberOfBytes": "32"
      },
      "t_uint256": {
        "encoding": "inplace",
        "label": "uint256",
        "numberOfBytes": "32"
      }
    }
  }
}