{
  "address": "0xb72e878a9c806f975c8e0e916afa6a328a764359",
  "abi": [
    {
      "inputs": [
        {
          "internalType": "uint256",
          "name": "_initialAmount",
          "type": "uint256"
        }
      ],
      "stateMutability": "nonpayable",
      "type": "constructor"
    },
    {
      "anonymous": false,
      "inputs": [
        {
          "indexed": true,
          "internalType": "address",
          "name": "owner",
          "type": "address"
        },
        {
          "indexed": true,
          "internalType": "address",
          "name": "spender",
          "type": "address"
        },
        {
          "indexed": false,
          "internalType": "uint256",
          "name": "value",
          "type": "uint256"
        }
      ],
      "name": "Approval",
      "type": "event"
    },
    {
      "anonymous": false,
      "inputs": [
        {
          "indexed": true,
          "internalType": "address",
          "name": "from",
          "type": "address"
        },
        {
          "indexed": true,
          "internalType": "address",
          "name": "to",
          "type": "address"
        },
        {
          "indexed": false,
          "internalType": "uint256",
          "name": "value",
          "type": "uint256"
        }
      ],
      "name": "Transfer",
      "type": "event"
    },
    {
      "inputs": [],
      "name": "DOMAIN_SEPARATOR",
      "outputs": [
        {
          "internalType": "bytes32",
          "name": "",
          "type": "bytes32"
        }
      ],
      "stateMutability": "view",
      "type": "function"
    },
    {
      "inputs": [
        {
          "internalType": "address",
          "name": "",
          "type": "address"
        },
        {
          "internalType": "address",
          "name": "",
          "type": "address"
        }
      ],
      "name": "allowance",
      "outputs": [
        {
          "internalType": "uint256",
          "name": "",
          "type": "uint256"
        }
      ],
      "stateMutability": "view",
      "type": "function"
    },
    {
      "inputs": [
        {
          "internalType": "address",
          "name": "spender",
          "type": "address"
        },
        {
          "internalType": "uint256",
          "name": "amount",
          "type": "uint256"
        }
      ],
      "name": "approve",
      "outputs": [
        {
          "internalType": "bool",
          "name": "",
          "type": "bool"
        }
      ],
      "stateMutability": "nonpayable",
      "type": "function"
    },
    {
      "inputs": [
        {
          "internalType": "address",
          "name": "",
          "type": "address"
        }
      ],
      "name": "balanceOf",
      "outputs": [
        {
          "internalType": "uint256",
          "name": "",
          "type": "uint256"
        }
      ],
      "stateMutability": "view",
      "type": "function"
    },
    {
      "inputs": [],
      "name": "decimals",
      "outputs": [
        {
          "internalType": "uint8",
          "name": "",
          "type": "uint8"
        }
      ],
      "stateMutability": "view",
      "type": "function"
    },
    {
      "inputs": [
        {
          "internalType": "uint256",
          "name": "_val",
          "type": "uint256"
        }
      ],
      "name": "freeMint",
      "outputs": [],
      "stateMutability": "nonpayable",
      "type": "function"
    },
    {
      "inputs": [],
      "name": "name",
      "outputs": [
        {
          "internalType": "string",
          "name": "",
          "type": "string"
        }
      ],
      "stateMutability": "view",
      "type": "function"
    },
    {
      "inputs": [
        {
          "internalType": "address",
          "name": "",
          "type": "address"
        }
      ],
      "name": "nonces",
      "outputs": [
        {
          "internalType": "uint256",
          "name": "",
          "type": "uint256"
        }
      ],
      "stateMutability": "view",
      "type": "function"
    },
    {
      "inputs": [
        {
          "internalType": "address",
          "name": "owner_",
          "type": "address"
        },
        {
          "internalType": "address",
          "name": "spender",
          "type": "address"
        },
        {
          "internalType": "uint256",
          "name": "value",
          "type": "uint256"
        },
        {
          "internalType": "uint256",
          "name": "deadline",
          "type": "uint256"
        },
        {
          "internalType": "uint8",
          "name": "v",
          "type": "uint8"
        },
        {
          "internalType": "bytes32",
          "name": "r",
          "type": "bytes32"
        },
        {
          "internalType": "bytes32",
          "name": "s",
          "type": "bytes32"
        }
      ],
      "name": "permit",
      "outputs": [],
      "stateMutability": "nonpayable",
      "type": "function"
    },
    {
      "inputs": [],
      "name": "symbol",
      "outputs": [
        {
          "internalType": "string",
          "name": "",
          "type": "string"
        }
      ],
      "stateMutability": "view",
      "type": "function"
    },
    {
      "inputs": [],
      "name": "totalSupply",
      "outputs": [
        {
          "internalType": "uint256",
          "name": "",
          "type": "uint256"
        }
      ],
      "stateMutability": "view",
      "type": "function"
    },
    {
      "inputs": [
        {
          "internalType": "address",
          "name": "to",
          "type": "address"
        },
        {
          "internalType": "uint256",
          "name": "amount",
          "type": "uint256"
        }
      ],
      "name": "transfer",
      "outputs": [
        {
          "internalType": "bool",
          "name": "",
          "type": "bool"
        }
      ],
      "stateMutability": "nonpayable",
      "type": "function"
    },
    {
      "inputs": [
        {
          "internalType": "address",
          "name": "from",
          "type": "address"
        },
        {
          "internalType": "address",
          "name": "to",
          "type": "address"
        },
        {
          "internalType": "uint256",
          "name": "amount",
          "type": "uint256"
        }
      ],
      "name": "transferFrom",
      "outputs": [
        {
          "internalType": "bool",
          "name": "",
          "type": "bool"
        }
      ],
      "stateMutability": "nonpayable",
      "type": "function"
    }
  ],
  "transactionHash": "0xcf8e1dc855a387d3493e7b1a1efbf215f347188c81d5f00a8069dd2579615940",
  "args": [
    "10000000000000000000000000000"
  ],
  "numDeployments": 1,
  "solcInputHash": "2dd7811012a9b7226eed28d6d4ecf4a5",
  "bytecode": "0x610100604052600a60c0908152692a32b9ba102a37b5b2b760b11b60e0526004906200002c9082620001a8565b50604080518082019091526002815261151560f21b6020820152600590620000559082620001a8565b506006805460ff191660121790553480156200007057600080fd5b506040516200109238038062001092833981016040819052620000939162000274565b4660a0819052620000f790604080517f47e79534a245952e8b16893a336b85a3d9ea9fa8c573f3d803afb92a794692186020820152908101829052306060820152600090608001604051602081830303815290604052805190602001209050919050565b6080526003556200028e565b634e487b7160e01b600052604160045260246000fd5b600181811c908216806200012e57607f821691505b6020821081036200014f57634e487b7160e01b600052602260045260246000fd5b50919050565b601f821115620001a357600081815260208120601f850160051c810160208610156200017e5750805b601f850160051c820191505b818110156200019f578281556001016200018a565b5050505b505050565b81516001600160401b03811115620001c457620001c462000103565b620001dc81620001d5845462000119565b8462000155565b602080601f831160018114620002145760008415620001fb5750858301515b600019600386901b1c1916600185901b1785556200019f565b600085815260208120601f198616915b82811015620002455788860151825594840194600190910190840162000224565b5085821015620002645787850151600019600388901b60f8161c191681555b5050505050600190811b01905550565b6000602082840312156200028757600080fd5b5051919050565b60805160a051610dde620002b46000396000610943015260006109740152610dde6000f3fe608060405234801561001057600080fd5b50600436106100df5760003560e01c806370a082311161008c57806395d89b411161006657806395d89b41146101cb578063a9059cbb146101d3578063d505accf146101e6578063dd62ed3e146101f957600080fd5b806370a08231146101765780637c928fe9146101965780637ecebe00146101ab57600080fd5b806323b872dd116100bd57806323b872dd1461013c578063313ce5671461014f5780633644e5151461016e57600080fd5b806306fdde03146100e4578063095ea7b31461010257806318160ddd14610125575b600080fd5b6100ec610224565b6040516100f99190610b53565b60405180910390f35b610115610110366004610ba2565b6102b2565b60405190151581526020016100f9565b61012e60035481565b6040519081526020016100f9565b61011561014a366004610bcc565b61031e565b60065461015c9060ff1681565b60405160ff90911681526020016100f9565b61012e61054f565b61012e610184366004610c08565b60006020819052908152604090205481565b6101a96101a4366004610c2a565b61055e565b005b61012e6101b9366004610c08565b60026020526000908152604090205481565b6100ec61056b565b6101156101e1366004610ba2565b610578565b6101a96101f4366004610c43565b6106dd565b61012e610207366004610cb6565b600160209081526000928352604080842090915290825290205481565b6004805461023190610ce9565b80601f016020809104026020016040519081016040528092919081815260200182805461025d90610ce9565b80156102aa5780601f1061027f576101008083540402835291602001916102aa565b820191906000526020600020905b81548152906001019060200180831161028d57829003601f168201915b505050505081565b3360008181526001602090815260408083206001600160a01b038716808552925280832085905551919290917f8c5be1e5ebec7d5bd14f71427d1e84f3dd0314c0f7b2291e5b200ac8c7c3b9259061030d9086815260200190565b60405180910390a350600192915050565b600081156104f8576001600160a01b038416600090815260208190526040902054828110156103945760405162461bcd60e51b815260206004820152601660248201527f45524332303a2062616c616e636520746f6f206c6f770000000000000000000060448201526064015b60405180910390fd5b836001600160a01b0316856001600160a01b0316146104f6576001600160a01b03851660009081526001602090815260408083203384529091529020546000198114610459578381101561042a5760405162461bcd60e51b815260206004820152601860248201527f45524332303a20616c6c6f77616e636520746f6f206c6f770000000000000000604482015260640161038b565b6104348482610d39565b6001600160a01b03871660009081526001602090815260408083203384529091529020555b6001600160a01b0385166104af5760405162461bcd60e51b815260206004820152601660248201527f45524332303a206e6f207a65726f206164647265737300000000000000000000604482015260640161038b565b6104b98483610d39565b6001600160a01b0380881660009081526020819052604080822093909355908716815290812080548692906104ef908490610d50565b9091555050505b505b826001600160a01b0316846001600160a01b03167fddf252ad1be2c89b69c2b068fc378daa952ba7f163c4a11628f55a4df523b3ef8460405161053d91815260200190565b60405180910390a35060019392505050565b600061055961093f565b905090565b6105683382610996565b50565b6005805461023190610ce9565b6000811515806105905750336001600160a01b038416145b156106a05733600090815260208190526040902054828110156105f55760405162461bcd60e51b815260206004820152601660248201527f45524332303a2062616c616e636520746f6f206c6f7700000000000000000000604482015260640161038b565b336001600160a01b0385161461069e576001600160a01b03841661065b5760405162461bcd60e51b815260206004820152601660248201527f45524332303a206e6f207a65726f206164647265737300000000000000000000604482015260640161038b565b6106658382610d39565b33600090815260208190526040808220929092556001600160a01b03861681529081208054859290610698908490610d50565b90915550505b505b6040518281526001600160a01b0384169033907fddf252ad1be2c89b69c2b068fc378daa952ba7f163c4a11628f55a4df523b3ef9060200161030d565b6001600160a01b0387166107335760405162461bcd60e51b815260206004820152601860248201527f45524332303a204f776e65722063616e6e6f7420626520300000000000000000604482015260640161038b565b8342106107825760405162461bcd60e51b815260206004820152600e60248201527f45524332303a2045787069726564000000000000000000000000000000000000604482015260640161038b565b6001600160a01b0387166000818152600260205260408120805460019261082c927f6e71edae12b1b97f4d1f60370fef10105fa2faae0126114a169c64845d6126c9928d928d928d92916107d583610d68565b909155506040805160208101969096526001600160a01b0394851690860152929091166060840152608083015260a082015260c0810188905260e00160405160208183030381529060405280519060200120610a72565b6040805160008152602081018083529290925260ff871690820152606081018590526080810184905260a0016020604051602081039080840390855afa15801561087a573d6000803e3d6000fd5b505050602060405103516001600160a01b0316146108da5760405162461bcd60e51b815260206004820152601860248201527f45524332303a20496e76616c6964205369676e61747572650000000000000000604482015260640161038b565b6001600160a01b038781166000818152600160209081526040808320948b168084529482529182902089905590518881527f8c5be1e5ebec7d5bd14f71427d1e84f3dd0314c0f7b2291e5b200ac8c7c3b925910160405180910390a350505050505050565b60007f000000000000000000000000000000000000000000000000000000000000000046146109715761055946610ae2565b507f000000000000000000000000000000000000000000000000000000000000000090565b6000816003546109a69190610d50565b90506003548110156109fa5760405162461bcd60e51b815260206004820152600d60248201527f4d696e74206f766572666c6f7700000000000000000000000000000000000000604482015260640161038b565b60038190556001600160a01b03831660009081526020819052604081208054849290610a27908490610d50565b90915550506040518281526001600160a01b038416906000907fddf252ad1be2c89b69c2b068fc378daa952ba7f163c4a11628f55a4df523b3ef9060200160405180910390a3505050565b60006040518060400160405280600281526020017f1901000000000000000000000000000000000000000000000000000000000000815250610ab261093f565b83604051602001610ac593929190610d81565b604051602081830303815290604052805190602001209050919050565b604080517f47e79534a245952e8b16893a336b85a3d9ea9fa8c573f3d803afb92a794692186020820152908101829052306060820152600090608001610ac5565b60005b83811015610b3e578181015183820152602001610b26565b83811115610b4d576000848401525b50505050565b6020815260008251806020840152610b72816040850160208701610b23565b601f01601f19169190910160400192915050565b80356001600160a01b0381168114610b9d57600080fd5b919050565b60008060408385031215610bb557600080fd5b610bbe83610b86565b946020939093013593505050565b600080600060608486031215610be157600080fd5b610bea84610b86565b9250610bf860208501610b86565b9150604084013590509250925092565b600060208284031215610c1a57600080fd5b610c2382610b86565b9392505050565b600060208284031215610c3c57600080fd5b5035919050565b600080600080600080600060e0888a031215610c5e57600080fd5b610c6788610b86565b9650610c7560208901610b86565b95506040880135945060608801359350608088013560ff81168114610c9957600080fd5b9699959850939692959460a0840135945060c09093013592915050565b60008060408385031215610cc957600080fd5b610cd283610b86565b9150610ce060208401610b86565b90509250929050565b600181811c90821680610cfd57607f821691505b602082108103610d1d57634e487b7160e01b600052602260045260246000fd5b50919050565b634e487b7160e01b600052601160045260246000fd5b600082821015610d4b57610d4b610d23565b500390565b60008219821115610d6357610d63610d23565b500190565b600060018201610d7a57610d7a610d23565b5060010190565b60008451610d93818460208901610b23565b9190910192835250602082015260400191905056fea26469706673582212201ab6fe9ea1ec71952187f56baa9c69e7e636a82497bc2e132f208ebdbfa5e9ac64736f6c634300080f0033",
  "devdoc": {
    "kind": "dev",
    "methods": {
      "approve(address,uint256)": {
        "params": {
          "amount": "The maximum collective amount that `spender` can draw.",
          "spender": "Address of the party that can draw from msg.sender's account."
        },
        "returns": {
          "_0": "(bool) Returns True if approved."
        }
      },
      "permit(address,address,uint256,uint256,uint8,bytes32,bytes32)": {
        "params": {
          "deadline": "This permit must be redeemed before this deadline (UTC timestamp in seconds).",
          "owner_": "Address of the owner.",
          "spender": "The address of the spender that gets approved to draw from `owner_`.",
          "value": "The maximum collective amount that `spender` can draw."
        }
      },
      "transfer(address,uint256)": {
        "params": {
          "amount": "of the tokens to move.",
          "to": "The address to move the tokens."
        },
        "returns": {
          "_0": "(bool) Returns True if succeeded."
        }
      },
      "transferFrom(address,address,uint256)": {
        "params": {
          "amount": "The token amount to move.",
          "from": "Address to draw tokens from.",
          "to": "The address to move the tokens."
        },
        "returns": {
          "_0": "(bool) Returns True if succeeded."
        }
      }
    },
    "version": 1
  },
  "userdoc": {
    "kind": "user",
    "methods": {
      "allowance(address,address)": {
        "notice": "owner > spender > allowance mapping."
      },
      "approve(address,uint256)": {
        "notice": "Approves `amount` from sender to be spend by `spender`."
      },
      "balanceOf(address)": {
        "notice": "owner > balance mapping."
      },
      "nonces(address)": {
        "notice": "owner > nonce mapping. Used in `permit`."
      },
      "permit(address,address,uint256,uint256,uint8,bytes32,bytes32)": {
        "notice": "Approves `value` from `owner_` to be spend by `spender`."
      },
      "transfer(address,uint256)": {
        "notice": "Transfers `amount` tokens from `msg.sender` to `to`."
      },
      "transferFrom(address,address,uint256)": {
        "notice": "Transfers `amount` tokens from `from` to `to`. Caller needs approval for `from`."
      }
    },
    "version": 1
  },
  "storageLayout": {
    "storage": [
      {
        "astId": 478,
        "contract": "contracts/singularity/legacy/mocks/ERC20Mock.sol:ERC20Mock",
        "label": "balanceOf",
        "offset": 0,
        "slot": "0",
        "type": "t_mapping(t_address,t_uint256)"
      },
      {
        "astId": 486,
        "contract": "contracts/singularity/legacy/mocks/ERC20Mock.sol:ERC20Mock",
        "label": "allowance",
        "offset": 0,
        "slot": "1",
        "type": "t_mapping(t_address,t_mapping(t_address,t_uint256))"
      },
      {
        "astId": 491,
        "contract": "contracts/singularity/legacy/mocks/ERC20Mock.sol:ERC20Mock",
        "label": "nonces",
        "offset": 0,
        "slot": "2",
        "type": "t_mapping(t_address,t_uint256)"
      },
      {
        "astId": 799,
        "contract": "contracts/singularity/legacy/mocks/ERC20Mock.sol:ERC20Mock",
        "label": "totalSupply",
        "offset": 0,
        "slot": "3",
        "type": "t_uint256"
      },
      {
        "astId": 6905,
        "contract": "contracts/singularity/legacy/mocks/ERC20Mock.sol:ERC20Mock",
        "label": "name",
        "offset": 0,
        "slot": "4",
        "type": "t_string_storage"
      },
      {
        "astId": 6908,
        "contract": "contracts/singularity/legacy/mocks/ERC20Mock.sol:ERC20Mock",
        "label": "symbol",
        "offset": 0,
        "slot": "5",
        "type": "t_string_storage"
      },
      {
        "astId": 6911,
        "contract": "contracts/singularity/legacy/mocks/ERC20Mock.sol:ERC20Mock",
        "label": "decimals",
        "offset": 0,
        "slot": "6",
        "type": "t_uint8"
      }
    ],
    "types": {
      "t_address": {
        "encoding": "inplace",
        "label": "address",
        "numberOfBytes": "20"
      },
      "t_mapping(t_address,t_mapping(t_address,t_uint256))": {
        "encoding": "mapping",
        "key": "t_address",
        "label": "mapping(address => mapping(address => uint256))",
        "numberOfBytes": "32",
        "value": "t_mapping(t_address,t_uint256)"
      },
      "t_mapping(t_address,t_uint256)": {
        "encoding": "mapping",
        "key": "t_address",
        "label": "mapping(address => uint256)",
        "numberOfBytes": "32",
        "value": "t_uint256"
      },
      "t_string_storage": {
        "encoding": "bytes",
        "label": "string",
        "numberOfBytes": "32"
      },
      "t_uint256": {
        "encoding": "inplace",
        "label": "uint256",
        "numberOfBytes": "32"
      },
      "t_uint8": {
        "encoding": "inplace",
        "label": "uint8",
        "numberOfBytes": "1"
      }
    }
  }
}