{
  "address": "0x365b6FB3f37c8f963c8d9d8b815e9a8cF81Df594",
  "abi": [
    {
      "inputs": [
        {
          "internalType": "address",
          "name": "_from",
          "type": "address"
        },
        {
          "internalType": "address",
          "name": "_operator",
          "type": "address"
        }
      ],
      "name": "NotApproved",
      "type": "error"
    },
    {
      "anonymous": false,
      "inputs": [
        {
          "indexed": true,
          "internalType": "address",
          "name": "owner",
          "type": "address"
        },
        {
          "indexed": true,
          "internalType": "address",
          "name": "spender",
          "type": "address"
        },
        {
          "indexed": false,
          "internalType": "uint256",
          "name": "value",
          "type": "uint256"
        }
      ],
      "name": "Approval",
      "type": "event"
    },
    {
      "anonymous": false,
      "inputs": [
        {
          "indexed": false,
          "internalType": "uint256",
          "name": "accruedAmount",
          "type": "uint256"
        },
        {
          "indexed": false,
          "internalType": "uint256",
          "name": "feeFraction",
          "type": "uint256"
        },
        {
          "indexed": false,
          "internalType": "uint64",
          "name": "rate",
          "type": "uint64"
        },
        {
          "indexed": false,
          "internalType": "uint256",
          "name": "utilization",
          "type": "uint256"
        }
      ],
      "name": "LogAccrue",
      "type": "event"
    },
    {
      "anonymous": false,
      "inputs": [
        {
          "indexed": true,
          "internalType": "address",
          "name": "from",
          "type": "address"
        },
        {
          "indexed": true,
          "internalType": "address",
          "name": "to",
          "type": "address"
        },
        {
          "indexed": false,
          "internalType": "uint256",
          "name": "share",
          "type": "uint256"
        },
        {
          "indexed": false,
          "internalType": "uint256",
          "name": "fraction",
          "type": "uint256"
        }
      ],
      "name": "LogAddAsset",
      "type": "event"
    },
    {
      "anonymous": false,
      "inputs": [
        {
          "indexed": true,
          "internalType": "address",
          "name": "from",
          "type": "address"
        },
        {
          "indexed": true,
          "internalType": "address",
          "name": "to",
          "type": "address"
        },
        {
          "indexed": false,
          "internalType": "uint256",
          "name": "share",
          "type": "uint256"
        }
      ],
      "name": "LogAddCollateral",
      "type": "event"
    },
    {
      "anonymous": false,
      "inputs": [
        {
          "indexed": true,
          "internalType": "address",
          "name": "_from",
          "type": "address"
        },
        {
          "indexed": true,
          "internalType": "address",
          "name": "_operator",
          "type": "address"
        },
        {
          "indexed": false,
          "internalType": "bool",
          "name": "_approved",
          "type": "bool"
        }
      ],
      "name": "LogApprovalForAll",
      "type": "event"
    },
    {
      "anonymous": false,
      "inputs": [
        {
          "indexed": true,
          "internalType": "address",
          "name": "from",
          "type": "address"
        },
        {
          "indexed": true,
          "internalType": "address",
          "name": "to",
          "type": "address"
        },
        {
          "indexed": false,
          "internalType": "uint256",
          "name": "amount",
          "type": "uint256"
        },
        {
          "indexed": false,
          "internalType": "uint256",
          "name": "feeAmount",
          "type": "uint256"
        },
        {
          "indexed": false,
          "internalType": "uint256",
          "name": "part",
          "type": "uint256"
        }
      ],
      "name": "LogBorrow",
      "type": "event"
    },
    {
      "anonymous": false,
      "inputs": [
        {
          "indexed": false,
          "internalType": "uint256",
          "name": "_oldVal",
          "type": "uint256"
        },
        {
          "indexed": false,
          "internalType": "uint256",
          "name": "_newVal",
          "type": "uint256"
        }
      ],
      "name": "LogBorrowCapUpdated",
      "type": "event"
    },
    {
      "anonymous": false,
      "inputs": [
        {
          "indexed": false,
          "internalType": "uint256",
          "name": "rate",
          "type": "uint256"
        }
      ],
      "name": "LogExchangeRate",
      "type": "event"
    },
    {
      "anonymous": false,
      "inputs": [
        {
          "indexed": true,
          "internalType": "address",
          "name": "borrower",
          "type": "address"
        },
        {
          "indexed": false,
          "internalType": "uint256",
          "name": "amount",
          "type": "uint256"
        },
        {
          "indexed": false,
          "internalType": "uint256",
          "name": "feeAmount",
          "type": "uint256"
        },
        {
          "indexed": true,
          "internalType": "address",
          "name": "receiver",
          "type": "address"
        }
      ],
      "name": "LogFlashLoan",
      "type": "event"
    },
    {
      "anonymous": false,
      "inputs": [
        {
          "indexed": true,
          "internalType": "address",
          "name": "from",
          "type": "address"
        },
        {
          "indexed": true,
          "internalType": "address",
          "name": "to",
          "type": "address"
        },
        {
          "indexed": false,
          "internalType": "uint256",
          "name": "share",
          "type": "uint256"
        },
        {
          "indexed": false,
          "internalType": "uint256",
          "name": "fraction",
          "type": "uint256"
        }
      ],
      "name": "LogRemoveAsset",
      "type": "event"
    },
    {
      "anonymous": false,
      "inputs": [
        {
          "indexed": true,
          "internalType": "address",
          "name": "from",
          "type": "address"
        },
        {
          "indexed": true,
          "internalType": "address",
          "name": "to",
          "type": "address"
        },
        {
          "indexed": false,
          "internalType": "uint256",
          "name": "share",
          "type": "uint256"
        }
      ],
      "name": "LogRemoveCollateral",
      "type": "event"
    },
    {
      "anonymous": false,
      "inputs": [
        {
          "indexed": true,
          "internalType": "address",
          "name": "from",
          "type": "address"
        },
        {
          "indexed": true,
          "internalType": "address",
          "name": "to",
          "type": "address"
        },
        {
          "indexed": false,
          "internalType": "uint256",
          "name": "amount",
          "type": "uint256"
        },
        {
          "indexed": false,
          "internalType": "uint256",
          "name": "part",
          "type": "uint256"
        }
      ],
      "name": "LogRepay",
      "type": "event"
    },
    {
      "anonymous": false,
      "inputs": [
        {
          "indexed": true,
          "internalType": "address",
          "name": "feeTo",
          "type": "address"
        },
        {
          "indexed": false,
          "internalType": "uint256",
          "name": "feesEarnedFraction",
          "type": "uint256"
        }
      ],
      "name": "LogWithdrawFees",
      "type": "event"
    },
    {
      "anonymous": false,
      "inputs": [
        {
          "indexed": false,
          "internalType": "uint256",
          "name": "feeShares",
          "type": "uint256"
        },
        {
          "indexed": false,
          "internalType": "uint256",
          "name": "tapAmount",
          "type": "uint256"
        }
      ],
      "name": "LogYieldBoxFeesDeposit",
      "type": "event"
    },
    {
      "anonymous": false,
      "inputs": [
        {
          "indexed": true,
          "internalType": "address",
          "name": "previousOwner",
          "type": "address"
        },
        {
          "indexed": true,
          "internalType": "address",
          "name": "newOwner",
          "type": "address"
        }
      ],
      "name": "OwnershipTransferred",
      "type": "event"
    },
    {
      "anonymous": false,
      "inputs": [
        {
          "indexed": true,
          "internalType": "address",
          "name": "from",
          "type": "address"
        },
        {
          "indexed": true,
          "internalType": "address",
          "name": "to",
          "type": "address"
        },
        {
          "indexed": false,
          "internalType": "uint256",
          "name": "value",
          "type": "uint256"
        }
      ],
      "name": "Transfer",
      "type": "event"
    },
    {
      "inputs": [],
      "name": "DOMAIN_SEPARATOR",
      "outputs": [
        {
          "internalType": "bytes32",
          "name": "",
          "type": "bytes32"
        }
      ],
      "stateMutability": "view",
      "type": "function"
    },
    {
      "inputs": [],
      "name": "accrue",
      "outputs": [],
      "stateMutability": "nonpayable",
      "type": "function"
    },
    {
      "inputs": [],
      "name": "accrueInfo",
      "outputs": [
        {
          "internalType": "uint64",
          "name": "interestPerSecond",
          "type": "uint64"
        },
        {
          "internalType": "uint64",
          "name": "lastAccrued",
          "type": "uint64"
        },
        {
          "internalType": "uint128",
          "name": "feesEarnedFraction",
          "type": "uint128"
        }
      ],
      "stateMutability": "view",
      "type": "function"
    },
    {
      "inputs": [
        {
          "internalType": "address",
          "name": "from",
          "type": "address"
        },
        {
          "internalType": "address",
          "name": "to",
          "type": "address"
        },
        {
          "internalType": "bool",
          "name": "skim",
          "type": "bool"
        },
        {
          "internalType": "uint256",
          "name": "share",
          "type": "uint256"
        }
      ],
      "name": "addAsset",
      "outputs": [
        {
          "internalType": "uint256",
          "name": "fraction",
          "type": "uint256"
        }
      ],
      "stateMutability": "nonpayable",
      "type": "function"
    },
    {
      "inputs": [
        {
          "internalType": "address",
          "name": "from",
          "type": "address"
        },
        {
          "internalType": "address",
          "name": "to",
          "type": "address"
        },
        {
          "internalType": "bool",
          "name": "skim",
          "type": "bool"
        },
        {
          "internalType": "uint256",
          "name": "share",
          "type": "uint256"
        }
      ],
      "name": "addCollateral",
      "outputs": [],
      "stateMutability": "nonpayable",
      "type": "function"
    },
    {
      "inputs": [
        {
          "internalType": "address",
          "name": "",
          "type": "address"
        },
        {
          "internalType": "address",
          "name": "",
          "type": "address"
        }
      ],
      "name": "allowance",
      "outputs": [
        {
          "internalType": "uint256",
          "name": "",
          "type": "uint256"
        }
      ],
      "stateMutability": "view",
      "type": "function"
    },
    {
      "inputs": [
        {
          "internalType": "address",
          "name": "spender",
          "type": "address"
        },
        {
          "internalType": "uint256",
          "name": "amount",
          "type": "uint256"
        }
      ],
      "name": "approve",
      "outputs": [
        {
          "internalType": "bool",
          "name": "",
          "type": "bool"
        }
      ],
      "stateMutability": "nonpayable",
      "type": "function"
    },
    {
      "inputs": [],
      "name": "asset",
      "outputs": [
        {
          "internalType": "contract IERC20",
          "name": "",
          "type": "address"
        }
      ],
      "stateMutability": "view",
      "type": "function"
    },
    {
      "inputs": [],
      "name": "assetId",
      "outputs": [
        {
          "internalType": "uint256",
          "name": "",
          "type": "uint256"
        }
      ],
      "stateMutability": "view",
      "type": "function"
    },
    {
      "inputs": [
        {
          "internalType": "address",
          "name": "",
          "type": "address"
        }
      ],
      "name": "balanceOf",
      "outputs": [
        {
          "internalType": "uint256",
          "name": "",
          "type": "uint256"
        }
      ],
      "stateMutability": "view",
      "type": "function"
    },
    {
      "inputs": [],
      "name": "beachBar",
      "outputs": [
        {
          "internalType": "contract IBeachBar",
          "name": "",
          "type": "address"
        }
      ],
      "stateMutability": "view",
      "type": "function"
    },
    {
      "inputs": [
        {
          "internalType": "address",
          "name": "from",
          "type": "address"
        },
        {
          "internalType": "address",
          "name": "to",
          "type": "address"
        },
        {
          "internalType": "uint256",
          "name": "amount",
          "type": "uint256"
        }
      ],
      "name": "borrow",
      "outputs": [
        {
          "internalType": "uint256",
          "name": "part",
          "type": "uint256"
        },
        {
          "internalType": "uint256",
          "name": "share",
          "type": "uint256"
        }
      ],
      "stateMutability": "nonpayable",
      "type": "function"
    },
    {
      "inputs": [],
      "name": "claimOwnership",
      "outputs": [],
      "stateMutability": "nonpayable",
      "type": "function"
    },
    {
      "inputs": [],
      "name": "collateral",
      "outputs": [
        {
          "internalType": "contract IERC20",
          "name": "",
          "type": "address"
        }
      ],
      "stateMutability": "view",
      "type": "function"
    },
    {
      "inputs": [],
      "name": "collateralId",
      "outputs": [
        {
          "internalType": "uint256",
          "name": "",
          "type": "uint256"
        }
      ],
      "stateMutability": "view",
      "type": "function"
    },
    {
      "inputs": [
        {
          "internalType": "address",
          "name": "user",
          "type": "address"
        },
        {
          "internalType": "uint256",
          "name": "_exchangeRate",
          "type": "uint256"
        }
      ],
      "name": "computeAssetAmountToSolvency",
      "outputs": [
        {
          "internalType": "uint256",
          "name": "amountToSolvency",
          "type": "uint256"
        }
      ],
      "stateMutability": "view",
      "type": "function"
    },
    {
      "inputs": [],
      "name": "decimals",
      "outputs": [
        {
          "internalType": "uint8",
          "name": "",
          "type": "uint8"
        }
      ],
      "stateMutability": "view",
      "type": "function"
    },
    {
      "inputs": [
        {
          "internalType": "contract IMultiSwapper",
          "name": "swapper",
          "type": "address"
        },
        {
          "components": [
            {
              "internalType": "uint256",
              "name": "minAssetAmount",
              "type": "uint256"
            }
          ],
          "internalType": "struct IBeachBar.SwapData",
          "name": "swapData",
          "type": "tuple"
        }
      ],
      "name": "depositFeesToYieldBox",
      "outputs": [],
      "stateMutability": "nonpayable",
      "type": "function"
    },
    {
      "inputs": [],
      "name": "exchangeRate",
      "outputs": [
        {
          "internalType": "uint256",
          "name": "",
          "type": "uint256"
        }
      ],
      "stateMutability": "view",
      "type": "function"
    },
    {
      "inputs": [
        {
          "internalType": "bytes[]",
          "name": "calls",
          "type": "bytes[]"
        },
        {
          "internalType": "bool",
          "name": "revertOnFail",
          "type": "bool"
        }
      ],
      "name": "execute",
      "outputs": [
        {
          "internalType": "bool[]",
          "name": "successes",
          "type": "bool[]"
        },
        {
          "internalType": "string[]",
          "name": "results",
          "type": "string[]"
        }
      ],
      "stateMutability": "nonpayable",
      "type": "function"
    },
    {
      "inputs": [
        {
          "internalType": "contract IFlashBorrower",
          "name": "borrower",
          "type": "address"
        },
        {
          "internalType": "address",
          "name": "receiver",
          "type": "address"
        },
        {
          "internalType": "uint256",
          "name": "amount",
          "type": "uint256"
        },
        {
          "internalType": "bytes",
          "name": "data",
          "type": "bytes"
        }
      ],
      "name": "flashLoan",
      "outputs": [],
      "stateMutability": "nonpayable",
      "type": "function"
    },
    {
      "inputs": [
        {
          "internalType": "uint256",
          "name": "fraction",
          "type": "uint256"
        }
      ],
      "name": "getAmountForAssetFraction",
      "outputs": [
        {
          "internalType": "uint256",
          "name": "amount",
          "type": "uint256"
        }
      ],
      "stateMutability": "view",
      "type": "function"
    },
    {
      "inputs": [
        {
          "internalType": "uint256",
          "name": "borrowPart",
          "type": "uint256"
        }
      ],
      "name": "getAmountForBorrowPart",
      "outputs": [
        {
          "internalType": "uint256",
          "name": "amount",
          "type": "uint256"
        }
      ],
      "stateMutability": "view",
      "type": "function"
    },
    {
      "inputs": [
        {
          "internalType": "uint256",
          "name": "share",
          "type": "uint256"
        }
      ],
      "name": "getCollateralAmountForShare",
      "outputs": [
        {
          "internalType": "uint256",
          "name": "amount",
          "type": "uint256"
        }
      ],
      "stateMutability": "view",
      "type": "function"
    },
    {
      "inputs": [
        {
          "internalType": "uint256",
          "name": "borrowPart",
          "type": "uint256"
        }
      ],
      "name": "getCollateralSharesForBorrowPart",
      "outputs": [
        {
          "internalType": "uint256",
          "name": "collateralShares",
          "type": "uint256"
        }
      ],
      "stateMutability": "view",
      "type": "function"
    },
    {
      "inputs": [
        {
          "internalType": "bytes",
          "name": "data",
          "type": "bytes"
        }
      ],
      "name": "init",
      "outputs": [],
      "stateMutability": "nonpayable",
      "type": "function"
    },
    {
      "inputs": [
        {
          "internalType": "address",
          "name": "",
          "type": "address"
        },
        {
          "internalType": "address",
          "name": "",
          "type": "address"
        }
      ],
      "name": "isApprovedForAll",
      "outputs": [
        {
          "internalType": "bool",
          "name": "",
          "type": "bool"
        }
      ],
      "stateMutability": "view",
      "type": "function"
    },
    {
      "inputs": [],
      "name": "lendingBorrowingModule",
      "outputs": [
        {
          "internalType": "contract SGLLendingBorrowing",
          "name": "",
          "type": "address"
        }
      ],
      "stateMutability": "view",
      "type": "function"
    },
    {
      "inputs": [
        {
          "internalType": "address[]",
          "name": "users",
          "type": "address[]"
        },
        {
          "internalType": "uint256[]",
          "name": "maxBorrowParts",
          "type": "uint256[]"
        },
        {
          "internalType": "contract IMultiSwapper",
          "name": "swapper",
          "type": "address"
        },
        {
          "internalType": "bytes",
          "name": "collateralToAssetSwapData",
          "type": "bytes"
        },
        {
          "internalType": "bytes",
          "name": "usdoToBorrowedSwapData",
          "type": "bytes"
        }
      ],
      "name": "liquidate",
      "outputs": [],
      "stateMutability": "nonpayable",
      "type": "function"
    },
    {
      "inputs": [],
      "name": "liquidationModule",
      "outputs": [
        {
          "internalType": "contract SGLLiquidation",
          "name": "",
          "type": "address"
        }
      ],
      "stateMutability": "view",
      "type": "function"
    },
    {
      "inputs": [],
      "name": "liquidationQueue",
      "outputs": [
        {
          "internalType": "contract ILiquidationQueue",
          "name": "",
          "type": "address"
        }
      ],
      "stateMutability": "view",
      "type": "function"
    },
    {
      "inputs": [],
      "name": "name",
      "outputs": [
        {
          "internalType": "string",
          "name": "",
          "type": "string"
        }
      ],
      "stateMutability": "view",
      "type": "function"
    },
    {
      "inputs": [
        {
          "internalType": "address",
          "name": "",
          "type": "address"
        }
      ],
      "name": "nonces",
      "outputs": [
        {
          "internalType": "uint256",
          "name": "",
          "type": "uint256"
        }
      ],
      "stateMutability": "view",
      "type": "function"
    },
    {
      "inputs": [],
      "name": "oracle",
      "outputs": [
        {
          "internalType": "contract IOracle",
          "name": "",
          "type": "address"
        }
      ],
      "stateMutability": "view",
      "type": "function"
    },
    {
      "inputs": [],
      "name": "oracleData",
      "outputs": [
        {
          "internalType": "bytes",
          "name": "",
          "type": "bytes"
        }
      ],
      "stateMutability": "view",
      "type": "function"
    },
    {
      "inputs": [],
      "name": "owner",
      "outputs": [
        {
          "internalType": "address",
          "name": "",
          "type": "address"
        }
      ],
      "stateMutability": "view",
      "type": "function"
    },
    {
      "inputs": [],
      "name": "pendingOwner",
      "outputs": [
        {
          "internalType": "address",
          "name": "",
          "type": "address"
        }
      ],
      "stateMutability": "view",
      "type": "function"
    },
    {
      "inputs": [
        {
          "internalType": "address",
          "name": "owner_",
          "type": "address"
        },
        {
          "internalType": "address",
          "name": "spender",
          "type": "address"
        },
        {
          "internalType": "uint256",
          "name": "value",
          "type": "uint256"
        },
        {
          "internalType": "uint256",
          "name": "deadline",
          "type": "uint256"
        },
        {
          "internalType": "uint8",
          "name": "v",
          "type": "uint8"
        },
        {
          "internalType": "bytes32",
          "name": "r",
          "type": "bytes32"
        },
        {
          "internalType": "bytes32",
          "name": "s",
          "type": "bytes32"
        }
      ],
      "name": "permit",
      "outputs": [],
      "stateMutability": "nonpayable",
      "type": "function"
    },
    {
      "inputs": [
        {
          "internalType": "address",
          "name": "from",
          "type": "address"
        },
        {
          "internalType": "address",
          "name": "to",
          "type": "address"
        },
        {
          "internalType": "uint256",
          "name": "fraction",
          "type": "uint256"
        }
      ],
      "name": "removeAsset",
      "outputs": [
        {
          "internalType": "uint256",
          "name": "share",
          "type": "uint256"
        }
      ],
      "stateMutability": "nonpayable",
      "type": "function"
    },
    {
      "inputs": [
        {
          "internalType": "address",
          "name": "from",
          "type": "address"
        },
        {
          "internalType": "address",
          "name": "to",
          "type": "address"
        },
        {
          "internalType": "uint256",
          "name": "share",
          "type": "uint256"
        }
      ],
      "name": "removeCollateral",
      "outputs": [],
      "stateMutability": "nonpayable",
      "type": "function"
    },
    {
      "inputs": [
        {
          "internalType": "address",
          "name": "from",
          "type": "address"
        },
        {
          "internalType": "address",
          "name": "to",
          "type": "address"
        },
        {
          "internalType": "bool",
          "name": "skim",
          "type": "bool"
        },
        {
          "internalType": "uint256",
          "name": "part",
          "type": "uint256"
        }
      ],
      "name": "repay",
      "outputs": [
        {
          "internalType": "uint256",
          "name": "amount",
          "type": "uint256"
        }
      ],
      "stateMutability": "nonpayable",
      "type": "function"
    },
    {
      "inputs": [
        {
          "internalType": "uint256",
          "name": "_cap",
          "type": "uint256"
        }
      ],
      "name": "setBorrowCap",
      "outputs": [],
      "stateMutability": "nonpayable",
      "type": "function"
    },
    {
      "inputs": [
        {
          "internalType": "address[]",
          "name": "_collateralSwapPath",
          "type": "address[]"
        }
      ],
      "name": "setCollateralSwapPath",
      "outputs": [],
      "stateMutability": "nonpayable",
      "type": "function"
    },
    {
      "inputs": [
        {
          "internalType": "contract ILiquidationQueue",
          "name": "_liquidationQueue",
          "type": "address"
        }
      ],
      "name": "setLiquidationQueue",
      "outputs": [],
      "stateMutability": "nonpayable",
      "type": "function"
    },
    {
      "inputs": [
        {
          "internalType": "address[]",
          "name": "_tapSwapPath",
          "type": "address[]"
        }
      ],
      "name": "setTapSwapPath",
      "outputs": [],
      "stateMutability": "nonpayable",
      "type": "function"
    },
    {
      "inputs": [],
      "name": "symbol",
      "outputs": [
        {
          "internalType": "string",
          "name": "",
          "type": "string"
        }
      ],
      "stateMutability": "view",
      "type": "function"
    },
    {
      "inputs": [],
      "name": "totalAsset",
      "outputs": [
        {
          "internalType": "uint128",
          "name": "elastic",
          "type": "uint128"
        },
        {
          "internalType": "uint128",
          "name": "base",
          "type": "uint128"
        }
      ],
      "stateMutability": "view",
      "type": "function"
    },
    {
      "inputs": [],
      "name": "totalBorrow",
      "outputs": [
        {
          "internalType": "uint128",
          "name": "elastic",
          "type": "uint128"
        },
        {
          "internalType": "uint128",
          "name": "base",
          "type": "uint128"
        }
      ],
      "stateMutability": "view",
      "type": "function"
    },
    {
      "inputs": [],
      "name": "totalBorrowCap",
      "outputs": [
        {
          "internalType": "uint256",
          "name": "",
          "type": "uint256"
        }
      ],
      "stateMutability": "view",
      "type": "function"
    },
    {
      "inputs": [],
      "name": "totalCollateralShare",
      "outputs": [
        {
          "internalType": "uint256",
          "name": "",
          "type": "uint256"
        }
      ],
      "stateMutability": "view",
      "type": "function"
    },
    {
      "inputs": [],
      "name": "totalSupply",
      "outputs": [
        {
          "internalType": "uint256",
          "name": "",
          "type": "uint256"
        }
      ],
      "stateMutability": "view",
      "type": "function"
    },
    {
      "inputs": [
        {
          "internalType": "address",
          "name": "to",
          "type": "address"
        },
        {
          "internalType": "uint256",
          "name": "amount",
          "type": "uint256"
        }
      ],
      "name": "transfer",
      "outputs": [
        {
          "internalType": "bool",
          "name": "",
          "type": "bool"
        }
      ],
      "stateMutability": "nonpayable",
      "type": "function"
    },
    {
      "inputs": [
        {
          "internalType": "address",
          "name": "from",
          "type": "address"
        },
        {
          "internalType": "address",
          "name": "to",
          "type": "address"
        },
        {
          "internalType": "uint256",
          "name": "amount",
          "type": "uint256"
        }
      ],
      "name": "transferFrom",
      "outputs": [
        {
          "internalType": "bool",
          "name": "",
          "type": "bool"
        }
      ],
      "stateMutability": "nonpayable",
      "type": "function"
    },
    {
      "inputs": [
        {
          "internalType": "address",
          "name": "newOwner",
          "type": "address"
        },
        {
          "internalType": "bool",
          "name": "direct",
          "type": "bool"
        },
        {
          "internalType": "bool",
          "name": "renounce",
          "type": "bool"
        }
      ],
      "name": "transferOwnership",
      "outputs": [],
      "stateMutability": "nonpayable",
      "type": "function"
    },
    {
      "inputs": [],
      "name": "updateExchangeRate",
      "outputs": [
        {
          "internalType": "bool",
          "name": "updated",
          "type": "bool"
        },
        {
          "internalType": "uint256",
          "name": "rate",
          "type": "uint256"
        }
      ],
      "stateMutability": "nonpayable",
      "type": "function"
    },
    {
      "inputs": [
        {
          "internalType": "address",
          "name": "_swapper",
          "type": "address"
        }
      ],
      "name": "updateLQExecutionSwapper",
      "outputs": [],
      "stateMutability": "nonpayable",
      "type": "function"
    },
    {
      "inputs": [
        {
          "internalType": "address",
          "name": "_swapper",
          "type": "address"
        }
      ],
      "name": "updateLQUsdoSwapper",
      "outputs": [],
      "stateMutability": "nonpayable",
      "type": "function"
    },
    {
      "inputs": [
        {
          "internalType": "address",
          "name": "",
          "type": "address"
        }
      ],
      "name": "userBorrowPart",
      "outputs": [
        {
          "internalType": "uint256",
          "name": "",
          "type": "uint256"
        }
      ],
      "stateMutability": "view",
      "type": "function"
    },
    {
      "inputs": [
        {
          "internalType": "address",
          "name": "",
          "type": "address"
        }
      ],
      "name": "userCollateralShare",
      "outputs": [
        {
          "internalType": "uint256",
          "name": "",
          "type": "uint256"
        }
      ],
      "stateMutability": "view",
      "type": "function"
    },
    {
      "inputs": [],
      "name": "withdrawFeesEarned",
      "outputs": [],
      "stateMutability": "nonpayable",
      "type": "function"
    },
    {
      "inputs": [
        {
          "internalType": "uint16",
          "name": "dstChainId",
          "type": "uint16"
        },
        {
          "internalType": "bytes",
          "name": "receiver",
          "type": "bytes"
        },
        {
          "internalType": "uint256",
          "name": "amount",
          "type": "uint256"
        },
        {
          "internalType": "bytes",
          "name": "adapterParams",
          "type": "bytes"
        },
        {
          "internalType": "address payable",
          "name": "refundAddress",
          "type": "address"
        }
      ],
      "name": "withdrawTo",
      "outputs": [],
      "stateMutability": "payable",
      "type": "function"
    },
    {
      "inputs": [],
      "name": "yieldBox",
      "outputs": [
        {
          "internalType": "contract YieldBox",
          "name": "",
          "type": "address"
        }
      ],
      "stateMutability": "view",
      "type": "function"
    },
    {
      "inputs": [
        {
          "internalType": "address",
          "name": "_user",
          "type": "address"
        },
        {
          "internalType": "uint256",
          "name": "_assetId",
          "type": "uint256"
        }
      ],
      "name": "yieldBoxShares",
      "outputs": [
        {
          "internalType": "uint256",
          "name": "",
          "type": "uint256"
        }
      ],
      "stateMutability": "view",
      "type": "function"
    }
  ],
  "transactionHash": "0x037666381bd08e34c03d43dcf263c5495769ac87a308bf45f625c1f83ceed464",
  "args": [],
  "numDeployments": 1,
  "solcInputHash": "2612d1c2a88385f6d32eefa521bedfe0",
  "bytecode": "0x60c06040523480156200001157600080fd5b50600080546001600160a01b0319163390811782556040519091907f8be0079c531659141344cd1fd0a4f28419497f9722a3daafe3b4186f6b6457e0908290a34660a0819052620000b590604080517f47e79534a245952e8b16893a336b85a3d9ea9fa8c573f3d803afb92a794692186020820152908101829052306060820152600090608001604051602081830303815290604052805190602001209050919050565b60805260805160a0516156e4620000de6000396000613a6e01526000613a9f01526156e46000f3fe6080604052600436106103b85760003560e01c80636dbe21ff116101f2578063cce19f811161010d578063de406577116100a0578063f4d937531161006f578063f4d9375314610c08578063f80159fd14610c28578063f8ba4cff14610c48578063f9557ccb14610c5d57600080fd5b8063de40657714610b77578063e30c397814610b97578063e985e9c514610bb7578063eec0f42e14610bf257600080fd5b8063db8f3144116100dc578063db8f314414610aec578063dcb8b4cc14610b0c578063dd62ed3e14610b2c578063dd63b28a14610b6457600080fd5b8063cce19f8114610a6c578063cd0211eb14610a8c578063d505accf14610aac578063d8dfeb4514610acc57600080fd5b80638285ef4011610185578063aa7d966511610154578063aa7d96651461098a578063ae70702e146109b8578063b27c0e74146109d8578063c23ea21f14610a4c57600080fd5b80638285ef40146108ea5780638da5cb5b1461093557806395d89b4114610955578063a9059cbb1461096a57600080fd5b806374542881116101c1578063745428811461086857806374645ff3146108885780637dc0d1d01461089d5780637ecebe00146108bd57600080fd5b80636dbe21ff146107db57806370a08231146107fb578063717186d114610828578063737704e01461084857600080fd5b80633edb1789116102e25780634e71e0c8116102755780635cffe9de116102445780635cffe9de146107565780635d5f73ef146107765780636587adb81461079b5780636cfea434146107bb57600080fd5b80634e71e0c8146106cc5780635224372c146106e15780635906c270146107165780635b487f4a1461073657600080fd5b8063473e3ce7116102b1578063473e3ce71461064957806348e4163e1461065f5780634a50ed271461068c5780634ddf47d4146106ac57600080fd5b80633edb1789146105dd57806340626d8b146105fd578063423326261461061357806344de240a1461063357600080fd5b80631c9e379b1161035a578063320ec13e11610329578063320ec13e1461055a5780633644e5151461057a57806338d52e0f1461058f5780633ba0b9a9146105c757600080fd5b80631c9e379b146104c657806323b872dd146104f357806325be782414610513578063313ce5671461053357600080fd5b8063095ea7b311610396578063095ea7b3146104325780630fde08e31461046257806311a21b2c1461048257806318160ddd1461049757600080fd5b806302ce728f146103bd57806306fdde03146103ee578063078dfbe714610410575b600080fd5b3480156103c957600080fd5b506103d2610c88565b6040805192151583526020830191909152015b60405180910390f35b3480156103fa57600080fd5b50610403610d77565b6040516103e5919061471f565b34801561041c57600080fd5b5061043061042b366004614758565b610e68565b005b34801561043e57600080fd5b5061045261044d3660046147a3565b610fb3565b60405190151581526020016103e5565b34801561046e57600080fd5b5061043061047d3660046147cf565b61101f565b34801561048e57600080fd5b50610430611432565b3480156104a357600080fd5b50600e54600160801b90046001600160801b03165b6040519081526020016103e5565b3480156104d257600080fd5b506104b86104e1366004614810565b60126020526000908152604090205481565b3480156104ff57600080fd5b5061045261050e36600461482d565b61158e565b34801561051f57600080fd5b5061043061052e36600461486e565b6117bb565b34801561053f57600080fd5b5061054861184f565b60405160ff90911681526020016103e5565b34801561056657600080fd5b50610430610575366004614810565b61186c565b34801561058657600080fd5b506104b861193b565b34801561059b57600080fd5b50600a546105af906001600160a01b031681565b6040516001600160a01b0390911681526020016103e5565b3480156105d357600080fd5b506104b860155481565b3480156105e957600080fd5b506104306105f836600461494d565b611945565b34801561060957600080fd5b506104b860105481565b34801561061f57600080fd5b506104b861062e366004614a28565b61197f565b34801561063f57600080fd5b506104b8600c5481565b34801561065557600080fd5b506104b8600d5481565b34801561066b57600080fd5b506104b861067a366004614810565b60136020526000908152604090205481565b34801561069857600080fd5b506006546105af906001600160a01b031681565b3480156106b857600080fd5b506104306106c7366004614a41565b611990565b3480156106d857600080fd5b50610430611c46565b3480156106ed57600080fd5b506107016106fc36600461482d565b611d03565b604080519283526020830191909152016103e5565b34801561072257600080fd5b50610430610731366004614810565b611d7f565b34801561074257600080fd5b50610430610751366004614a83565b611e24565b34801561076257600080fd5b50610430610771366004614b7e565b611e8a565b34801561078257600080fd5b50601a546105af9061010090046001600160a01b031681565b3480156107a757600080fd5b506104b86107b636600461486e565b611eae565b3480156107c757600080fd5b50601b546105af906001600160a01b031681565b3480156107e757600080fd5b506104306107f6366004614a83565b611f42565b34801561080757600080fd5b506104b8610816366004614810565b60026020526000908152604090205481565b34801561083457600080fd5b50610430610843366004614a28565b611fa8565b34801561085457600080fd5b506104b8610863366004614a28565b612043565b34801561087457600080fd5b50610430610883366004614810565b61204e565b34801561089457600080fd5b50610403612187565b3480156108a957600080fd5b506016546105af906001600160a01b031681565b3480156108c957600080fd5b506104b86108d8366004614810565b60046020526000908152604090205481565b3480156108f657600080fd5b50600f54610915906001600160801b0380821691600160801b90041682565b604080516001600160801b039384168152929091166020830152016103e5565b34801561094157600080fd5b506000546105af906001600160a01b031681565b34801561096157600080fd5b50610403612215565b34801561097657600080fd5b506104526109853660046147a3565b6122f2565b34801561099657600080fd5b506109aa6109a5366004614bea565b612457565b6040516103e5929190614c36565b3480156109c457600080fd5b506104b86109d33660046147a3565b61260d565b3480156109e457600080fd5b50600554610a1c9067ffffffffffffffff8082169168010000000000000000810490911690600160801b90046001600160801b031683565b6040805167ffffffffffffffff94851681529390921660208401526001600160801b0316908201526060016103e5565b348015610a5857600080fd5b506008546105af906001600160a01b031681565b348015610a7857600080fd5b50610430610a8736600461482d565b6126b9565b348015610a9857600080fd5b506104b8610aa736600461486e565b612711565b348015610ab857600080fd5b50610430610ac7366004614cdf565b612786565b348015610ad857600080fd5b506009546105af906001600160a01b031681565b348015610af857600080fd5b506104b8610b073660046147a3565b6129e8565b348015610b1857600080fd5b506104b8610b27366004614a28565b612a77565b348015610b3857600080fd5b506104b8610b47366004614d50565b600360209081526000928352604080842090915290825290205481565b610430610b72366004614d94565b612a82565b348015610b8357600080fd5b506007546105af906001600160a01b031681565b348015610ba357600080fd5b506001546105af906001600160a01b031681565b348015610bc357600080fd5b50610452610bd2366004614d50565b601460209081526000928352604080842090915290825290205460ff1681565b348015610bfe57600080fd5b506104b8600b5481565b348015610c1457600080fd5b506104b8610c2336600461482d565b612daa565b348015610c3457600080fd5b506104b8610c43366004614a28565b612e3e565b348015610c5457600080fd5b50610430612e49565b348015610c6957600080fd5b50600e54610915906001600160801b0380821691600160801b90041682565b6016546040517fd6d7d52500000000000000000000000000000000000000000000000000000000815260009182916001600160a01b039091169063d6d7d52590610cd790601790600401614e6f565b6040805180830381600087803b158015610cf057600080fd5b505af1158015610d04573d6000803e3d6000fd5b505050506040513d601f19601f82011682018060405250810190610d289190614f17565b90925090508115610d6f5760158190556040518181527f9f9192b5edb17356c524e08d9e025c8e2f6307e6ea52fb7968faa3081f51c3c89060200160405180910390a19091565b506015549091565b600954606090610d8f906001600160a01b031661342b565b600a54610da4906001600160a01b031661342b565b6016546040517fd568866c0000000000000000000000000000000000000000000000000000000081526001600160a01b039091169063d568866c90610dee90601790600401614e6f565b60006040518083038186803b158015610e0657600080fd5b505afa158015610e1a573d6000803e3d6000fd5b505050506040513d6000823e601f3d908101601f19168201604052610e429190810190614f45565b604051602001610e5493929190614fb3565b604051602081830303815290604052905090565b6000546001600160a01b03163314610ec75760405162461bcd60e51b815260206004820181905260248201527f4f776e61626c653a2063616c6c6572206973206e6f7420746865206f776e657260448201526064015b60405180910390fd5b8115610f92576001600160a01b038316151580610ee15750805b610f2d5760405162461bcd60e51b815260206004820152601560248201527f4f776e61626c653a207a65726f206164647265737300000000000000000000006044820152606401610ebe565b600080546040516001600160a01b03808716939216917f8be0079c531659141344cd1fd0a4f28419497f9722a3daafe3b4186f6b6457e091a3600080546001600160a01b0385166001600160a01b031991821617909155600180549091169055505050565b600180546001600160a01b0319166001600160a01b0385161790555b505050565b3360008181526003602090815260408083206001600160a01b038716808552925280832085905551919290917f8c5be1e5ebec7d5bd14f71427d1e84f3dd0314c0f7b2291e5b200ac8c7c3b9259061100e9086815260200190565b60405180910390a350600192915050565b600554600160801b90046001600160801b03161561103f5761103f611432565b6006546040517f8cad7fbe0000000000000000000000000000000000000000000000000000000081526001600160a01b03848116600483015290911690638cad7fbe9060240160206040518083038186803b15801561109d57600080fd5b505afa1580156110b1573d6000803e3d6000fd5b505050506040513d601f19601f820116820180604052508101906110d5919061503b565b6111215760405162461bcd60e51b815260206004820152601360248201527f4d783a20496e76616c69642073776170706572000000000000000000000000006044820152606401610ebe565b60065460408051622fcfcb60e31b815290516000926001600160a01b03169163017e7e58916004808301926020929190829003018186803b15801561116557600080fd5b505afa158015611179573d6000803e3d6000fd5b505050506040513d601f19601f8201168201806040525081019061119d9190615058565b90506000600660009054906101000a90046001600160a01b03166001600160a01b0316630feb123d6040518163ffffffff1660e01b815260040160206040518083038186803b1580156111ef57600080fd5b505afa158015611203573d6000803e3d6000fd5b505050506040513d601f19601f820116820180604052508101906112279190615058565b6001600160a01b038316600090815260026020526040812054919250906112529084903090846134ff565b905080611260575050505050565b600754600c54604051630208d92960e11b81523060048201526001600160a01b038881166024830152604482019290925260648101849052911690630411b25290608401600060405180830381600087803b1580156112be57600080fd5b505af11580156112d2573d6000803e3d6000fd5b505050506000856001600160a01b031663ce58b200600c54600660009054906101000a90046001600160a01b03166001600160a01b0316630e7ee2276040518163ffffffff1660e01b815260040160206040518083038186803b15801561133857600080fd5b505afa15801561134c573d6000803e3d6000fd5b505050506040513d601f19601f820116820180604052508101906113709190615075565b6040516001600160e01b031960e085901b16815261139c9291908a359089906019908a9060040161508e565b6040805180830381600087803b1580156113b557600080fd5b505af11580156113c9573d6000803e3d6000fd5b505050506040513d601f19601f820116820180604052508101906113ed919061510c565b5060408051848152602081018390529192507fa4fef2aee55b8c5258b39e504f59d0fb9960865de9cc847e769cd282b6769363910160405180910390a1505050505050565b61143a612e49565b60065460408051622fcfcb60e31b815290516000926001600160a01b03169163017e7e58916004808301926020929190829003018186803b15801561147e57600080fd5b505afa158015611492573d6000803e3d6000fd5b505050506040513d601f19601f820116820180604052508101906114b69190615058565b6005546001600160a01b03821660009081526002602052604081208054939450600160801b9092046001600160801b031692839291906114f7908490615146565b90915550506040518181526001600160a01b038316906000907fddf252ad1be2c89b69c2b068fc378daa952ba7f163c4a11628f55a4df523b3ef9060200160405180910390a3600580546001600160801b031690556040518181526001600160a01b038316907fbe641c3ffc44b2d6c184f023fa4ed7bda4b6ffa71e03b3c98ae0c776da1f17e79060200160405180910390a25050565b60008115611763576001600160a01b038416600090815260026020526040902054828110156115ff5760405162461bcd60e51b815260206004820152601660248201527f45524332303a2062616c616e636520746f6f206c6f77000000000000000000006044820152606401610ebe565b836001600160a01b0316856001600160a01b031614611761576001600160a01b038516600090815260036020908152604080832033845290915290205460001981146116c457838110156116955760405162461bcd60e51b815260206004820152601860248201527f45524332303a20616c6c6f77616e636520746f6f206c6f7700000000000000006044820152606401610ebe565b61169f848261515e565b6001600160a01b03871660009081526003602090815260408083203384529091529020555b6001600160a01b03851661171a5760405162461bcd60e51b815260206004820152601660248201527f45524332303a206e6f207a65726f2061646472657373000000000000000000006044820152606401610ebe565b611724848361515e565b6001600160a01b03808816600090815260026020526040808220939093559087168152908120805486929061175a908490615146565b9091555050505b505b826001600160a01b0316846001600160a01b03167fddf252ad1be2c89b69c2b068fc378daa952ba7f163c4a11628f55a4df523b3ef846040516117a891815260200190565b60405180910390a35060015b9392505050565b6040516001600160a01b03808616602483015284166044820152821515606482015260848101829052611848906001907f25be7824000000000000000000000000000000000000000000000000000000009060a4015b60408051601f198184030181529190526020810180516001600160e01b03166001600160e01b031990931692909217909152613857565b5050505050565b600a54600090611867906001600160a01b0316613999565b905090565b6000546001600160a01b031633146118c65760405162461bcd60e51b815260206004820181905260248201527f4f776e61626c653a2063616c6c6572206973206e6f7420746865206f776e65726044820152606401610ebe565b6008546040517f575939f90000000000000000000000000000000000000000000000000000000081526001600160a01b0383811660048301529091169063575939f9906024015b600060405180830381600087803b15801561192757600080fd5b505af1158015611848573d6000803e3d6000fd5b6000611867613a6a565b6119736002633edb178960e01b8b8b8b8b8b8b8b8b8b6040516024016118119998979695949392919061519e565b50505050505050505050565b600061198a82613ac1565b92915050565b601a5460ff16156119e35760405162461bcd60e51b815260206004820152601060248201527f53474c3a20696e697469616c697a6564000000000000000000000000000000006044820152606401610ebe565b60008080808080808080806119fa8b8d018d61530f565b995099509950995099509950995099509950995089601a60016101000a8154816001600160a01b0302191690836001600160a01b0316021790555088601b60006101000a8154816001600160a01b0302191690836001600160a01b0316021790555087600660006101000a8154816001600160a01b0302191690836001600160a01b03160217905550876001600160a01b031663de4065776040518163ffffffff1660e01b815260040160206040518083038186803b158015611abc57600080fd5b505afa158015611ad0573d6000803e3d6000fd5b505050506040513d601f19601f82011682018060405250810190611af49190615058565b600780546001600160a01b039283166001600160a01b03199182161790915560065460008054909216908316179055851615801590611b3b57506001600160a01b03871615155b8015611b4f57506001600160a01b03831615155b611b9b5760405162461bcd60e51b815260206004820152600d60248201527f53474c3a206261642070616972000000000000000000000000000000000000006044820152606401610ebe565b600a80546001600160a01b03808a166001600160a01b03199283161790925560098054888416908316179055600c889055600b86905560168054928616929091169190911790558151611bf59060189060208501906145fa565b508051611c099060199060208401906145fa565b506005805467ffffffffffffffff19166312e687c0179055611c29610c88565b5050601a805460ff19166001179055505050505050505050505050565b6001546001600160a01b0316338114611ca15760405162461bcd60e51b815260206004820181905260248201527f4f776e61626c653a2063616c6c657220213d2070656e64696e67206f776e65726044820152606401610ebe565b600080546040516001600160a01b03808516939216917f8be0079c531659141344cd1fd0a4f28419497f9722a3daafe3b4186f6b6457e091a3600080546001600160a01b039092166001600160a01b0319928316179055600180549091169055565b6040516001600160a01b038085166024830152831660448201526064810182905260009081908190611d5c906001907f5224372c0000000000000000000000000000000000000000000000000000000090608401611811565b905080806020019051810190611d72919061510c565b9097909650945050505050565b6000546001600160a01b03163314611dd95760405162461bcd60e51b815260206004820181905260248201527f4f776e61626c653a2063616c6c6572206973206e6f7420746865206f776e65726044820152606401610ebe565b6008546040517f36252c900000000000000000000000000000000000000000000000000000000081526001600160a01b038381166004830152909116906336252c909060240161190d565b6000546001600160a01b03163314611e7e5760405162461bcd60e51b815260206004820181905260248201527f4f776e61626c653a2063616c6c6572206973206e6f7420746865206f776e65726044820152606401610ebe565b610fae6019838361465f565b6118486001635cffe9de60e01b8686868660405160240161181194939291906153ec565b6000846001600160a01b0381163314801590611ef557506001600160a01b038116600090815260026020908152604080832054600383528184203385529092529091205411155b15611f2457604051630ca03e9b60e11b81526001600160a01b0382166004820152336024820152604401610ebe565b611f2c612e49565b611f3886868686613b97565b9695505050505050565b6000546001600160a01b03163314611f9c5760405162461bcd60e51b815260206004820181905260248201527f4f776e61626c653a2063616c6c6572206973206e6f7420746865206f776e65726044820152606401610ebe565b610fae6018838361465f565b6000546001600160a01b031633146120025760405162461bcd60e51b815260206004820181905260248201527f4f776e61626c653a2063616c6c6572206973206e6f7420746865206f776e65726044820152606401610ebe565b60105460408051918252602082018390527fae6e0ab3b95f0a53ff9660a390ccedcbbf1f2355dce974a9841af106fddcfaba910160405180910390a1601055565b600061198a82613dec565b6000546001600160a01b031633146120a85760405162461bcd60e51b815260206004820181905260248201527f4f776e61626c653a2063616c6c6572206973206e6f7420746865206f776e65726044820152606401610ebe565b806001600160a01b03166307be4daf6040518163ffffffff1660e01b815260040160206040518083038186803b1580156120e157600080fd5b505afa1580156120f5573d6000803e3d6000fd5b505050506040513d601f19601f82011682018060405250810190612119919061503b565b6121655760405162461bcd60e51b815260206004820152601660248201527f53474c3a204c51206e6f7420696e6974616c697a6564000000000000000000006044820152606401610ebe565b600880546001600160a01b0319166001600160a01b0392909216919091179055565b6017805461219490614e34565b80601f01602080910402602001604051908101604052809291908181526020018280546121c090614e34565b801561220d5780601f106121e25761010080835404028352916020019161220d565b820191906000526020600020905b8154815290600101906020018083116121f057829003601f168201915b505050505081565b60095460609061222d906001600160a01b0316613e6c565b600a54612242906001600160a01b0316613e6c565b6016546040517fc699c4d60000000000000000000000000000000000000000000000000000000081526001600160a01b039091169063c699c4d69061228c90601790600401614e6f565b60006040518083038186803b1580156122a457600080fd5b505afa1580156122b8573d6000803e3d6000fd5b505050506040513d6000823e601f3d908101601f191682016040526122e09190810190614f45565b604051602001610e549392919061541e565b60008115158061230a5750336001600160a01b038416145b1561241a57336000908152600260205260409020548281101561236f5760405162461bcd60e51b815260206004820152601660248201527f45524332303a2062616c616e636520746f6f206c6f77000000000000000000006044820152606401610ebe565b336001600160a01b03851614612418576001600160a01b0384166123d55760405162461bcd60e51b815260206004820152601660248201527f45524332303a206e6f207a65726f2061646472657373000000000000000000006044820152606401610ebe565b6123df838261515e565b33600090815260026020526040808220929092556001600160a01b03861681529081208054859290612412908490615146565b90915550505b505b6040518281526001600160a01b0384169033907fddf252ad1be2c89b69c2b068fc378daa952ba7f163c4a11628f55a4df523b3ef9060200161100e565b6060808367ffffffffffffffff81111561247357612473614ab9565b60405190808252806020026020018201604052801561249c578160200160208202803683370190505b5091508367ffffffffffffffff8111156124b8576124b8614ab9565b6040519080825280602002602001820160405280156124eb57816020015b60608152602001906001900390816124d65790505b50905060005b84811015612604576000803088888581811061250f5761250f6154a6565b905060200281019061252191906154bc565b60405161252f929190615503565b600060405180830381855af49150503d806000811461256a576040519150601f19603f3d011682016040523d82523d6000602084013e61256f565b606091505b5091509150818061257e575085155b61258782613ecc565b906125a55760405162461bcd60e51b8152600401610ebe919061471f565b50818584815181106125b9576125b96154a6565b911515602092830291909101909101526125d281613ecc565b8484815181106125e4576125e46154a6565b6020026020010181905250505080806125fc90615513565b9150506124f1565b50935093915050565b6001600160a01b038281166000818152601160209081526040808320868452909152808220546007549151627eeac760e11b81526004810194909452602484018690529193919291169062fdd58e9060440160206040518083038186803b15801561267757600080fd5b505afa15801561268b573d6000803e3d6000fd5b505050506040513d601f19601f820116820180604052508101906126af9190615075565b6117b49190615146565b6040516001600160a01b038085166024830152831660448201526064810182905261270b906001907fcce19f810000000000000000000000000000000000000000000000000000000090608401611811565b50505050565b6040516001600160a01b038086166024830152841660448201528215156064820152608481018290526000908190612770906001907fcd0211eb000000000000000000000000000000000000000000000000000000009060a401611811565b905080806020019051810190611f389190615075565b6001600160a01b0387166127dc5760405162461bcd60e51b815260206004820152601860248201527f45524332303a204f776e65722063616e6e6f74206265203000000000000000006044820152606401610ebe565b83421061282b5760405162461bcd60e51b815260206004820152600e60248201527f45524332303a20457870697265640000000000000000000000000000000000006044820152606401610ebe565b6001600160a01b038716600081815260046020526040812080546001926128d5927f6e71edae12b1b97f4d1f60370fef10105fa2faae0126114a169c64845d6126c9928d928d928d929161287e83615513565b909155506040805160208101969096526001600160a01b0394851690860152929091166060840152608083015260a082015260c0810188905260e00160405160208183030381529060405280519060200120613f2b565b6040805160008152602081018083529290925260ff871690820152606081018590526080810184905260a0016020604051602081039080840390855afa158015612923573d6000803e3d6000fd5b505050602060405103516001600160a01b0316146129835760405162461bcd60e51b815260206004820152601860248201527f45524332303a20496e76616c6964205369676e617475726500000000000000006044820152606401610ebe565b6001600160a01b038781166000818152600360209081526040808320948b168084529482529182902089905590518881527f8c5be1e5ebec7d5bd14f71427d1e84f3dd0314c0f7b2291e5b200ac8c7c3b925910160405180910390a350505050505050565b604080516001600160a01b038416602482015260448082018490528251808303909101815260649091019091526020810180516001600160e01b03167fdb8f3144000000000000000000000000000000000000000000000000000000001790526000908190612a5990600290613f9b565b905080806020019051810190612a6f9190615075565b949350505050565b600061198a826140a4565b600a546040517f01ffc9a70000000000000000000000000000000000000000000000000000000081526328c82b1b60e11b60048201526001600160a01b03909116906301ffc9a79060240160206040518083038186803b158015612ae557600080fd5b505afa925050508015612b15575060408051601f3d908101601f19168201909252612b129181019061503b565b60015b612b1e57612da2565b50600754600c54604051627eeac760e11b8152336004820152602481018290526000926001600160a01b03169163442c159991839062fdd58e9060440160206040518083038186803b158015612b7357600080fd5b505afa158015612b87573d6000803e3d6000fd5b505050506040513d601f19601f82011682018060405250810190612bab9190615075565b6040516001600160e01b031960e085901b168152600481019290925260248201526000604482015260640160206040518083038186803b158015612bee57600080fd5b505afa158015612c02573d6000803e3d6000fd5b505050506040513d601f19601f82011682018060405250810190612c269190615075565b905084811015612c785760405162461bcd60e51b815260206004820152601260248201527f53474c3a206e6f7420617661696c61626c6500000000000000000000000000006044820152606401610ebe565b600754600c546040517f8d2e63b8000000000000000000000000000000000000000000000000000000008152600481019190915233602482015230604482015260648101879052600060848201526001600160a01b0390911690638d2e63b89060a4016040805180830381600087803b158015612cf457600080fd5b505af1158015612d08573d6000803e3d6000fd5b505050506040513d601f19601f82011682018060405250810190612d2c919061510c565b5050600a546040516328c82b1b60e11b81526001600160a01b03909116906351905636903490612d6e9030908c908c908c908a9033908e908e9060040161552e565b6000604051808303818588803b158015612d8757600080fd5b505af1158015612d9b573d6000803e3d6000fd5b5050505050505b505050505050565b6000836001600160a01b0381163314801590612df157506001600160a01b038116600090815260026020908152604080832054600383528184203385529092529091205411155b15612e2057604051630ca03e9b60e11b81526001600160a01b0382166004820152336024820152604401610ebe565b612e28612e49565b612e3585858560016134ff565b95945050505050565b600061198a826140da565b6040805160608101825260055467ffffffffffffffff80821683526801000000000000000082041660208301819052600160801b9091046001600160801b03169282019290925290600090612e9e904261515e565b905080612ea9575050565b67ffffffffffffffff421660208084019190915260408051808201909152600f546001600160801b038082168352600160801b9091041691810182905290612fb557825167ffffffffffffffff166312e687c014612f53576312e687c0808452604080516000808252602082018190529181019290925260608201527f33af5ce86e8438eff54589f85332916444457dfa8685493fbd579b809097026b9060800160405180910390a15b505080516005805460208401516040909401516001600160801b03908116600160801b0267ffffffffffffffff95861668010000000000000000026fffffffffffffffffffffffffffffffff1990931695909416949094171792909216179055565b60408051808201909152600e546001600160801b038082168352600160801b909104811660208301528451835160009384939092670de0b6b3a764000092889261300a9267ffffffffffffffff169116615584565b6130149190615584565b61301e91906155a3565b9250828460000181815161303291906155c5565b6001600160801b039081169091528551600754600c54855160405163442c159960e01b8152600481019290925284166024820152600060448201819052945091909216916001600160a01b03169063442c15999060640160206040518083038186803b1580156130a157600080fd5b505afa1580156130b5573d6000803e3d6000fd5b505050506040513d601f19601f820116820180604052508101906130d99190615075565b6130e39190615146565b90506000620186a06130f761271087615584565b61310191906155a3565b90508183602001516001600160801b03168261311d9190615584565b61312791906155a3565b9350838860400181815161313b91906155c5565b6001600160801b031690525060208301516131579085906155c5565b600e80546001600160801b03908116600160801b9382168402179091558751602089015190821691169091028117600f5560009083906131a090670de0b6b3a764000090615584565b6131aa91906155a3565b90506709b6e64a8ec600008110156132815760006709b6e64a8ec60000670de0b6b3a76400006131da848361515e565b6131e49190615584565b6131ee91906155a3565b90506000896131fd8380615584565b6132079190615584565b613222907054a2b63d65d79d094abb66880000000000615146565b9050807054a2b63d65d79d094abb668800000000008c6000015167ffffffffffffffff166132509190615584565b61325a91906155a3565b67ffffffffffffffff16808c526304b9a1f0111561327a576304b9a1f08b525b5050613370565b670b1a2bc2ec5000008111156133705760006132ad670b1a2bc2ec500000670de0b6b3a764000061515e565b670de0b6b3a76400006132c8670b1a2bc2ec5000008561515e565b6132d29190615584565b6132dc91906155a3565b90506000896132eb8380615584565b6132f59190615584565b613310907054a2b63d65d79d094abb66880000000000615146565b905060007054a2b63d65d79d094abb66880000000000828d6000015167ffffffffffffffff166133409190615584565b61334a91906155a3565b90506449d482460081111561336157506449d48246005b67ffffffffffffffff168b5250505b8851604080518881526020810188905267ffffffffffffffff9092168282015260608201839052517f33af5ce86e8438eff54589f85332916444457dfa8685493fbd579b809097026b9181900360800190a1505086516005805460208a01516040909a01516001600160801b03908116600160801b0267ffffffffffffffff9b8c1668010000000000000000026fffffffffffffffffffffffffffffffff199093169b9094169a909a17179890981617909655505050505050565b60408051600481526024810182526020810180516001600160e01b03167f06fdde0300000000000000000000000000000000000000000000000000000000179052905160609160009182916001600160a01b0386169161348b91906155f0565b600060405180830381855afa9150503d80600081146134c6576040519150601f19603f3d011682016040523d82523d6000602084013e6134cb565b606091505b5091509150816134f657604051806040016040528060038152602001623f3f3f60e81b815250612a6f565b612a6f81614169565b600e54600090600160801b90046001600160801b031661352157506000612a6f565b604080518082018252600e546001600160801b038082168352600160801b90910481166020830152600754600c54600f549451638eb22cdd60e01b815260048101919091529390911660248401526001604484015290916000916001600160a01b031690638eb22cdd9060640160206040518083038186803b1580156135a657600080fd5b505afa1580156135ba573d6000803e3d6000fd5b505050506040513d601f19601f820116820180604052508101906135de9190615075565b82516135f391906001600160801b0316615146565b60208301519091506001600160801b031661360e8287615584565b61361891906155a3565b6001600160a01b03881660009081526002602052604081208054929550879290919061364590849061515e565b90915550506040518581526000906001600160a01b038916907fddf252ad1be2c89b69c2b068fc378daa952ba7f163c4a11628f55a4df523b3ef9060200160405180910390a3828260000181815161369d919061560c565b6001600160801b03169052506020820180518691906136bd90839061560c565b6001600160801b0390811690915260208401516103e89116101590506137255760405162461bcd60e51b815260206004820152600e60248201527f53474c3a206d696e206c696d69740000000000000000000000000000000000006044820152606401610ebe565b815160208301516001600160801b03908116600160801b02911617600e556040516001600160a01b0380881691908916907f6e853a5fd6b51d773691f542ebac8513c9992a51380d4c342031056a641142289061378e9087908a90918252602082015260400190565b60405180910390a3600754600c54604051630208d92960e11b81523060048201526001600160a01b038981166024830152604482019290925260648101869052911690630411b25290608401600060405180830381600087803b1580156137f457600080fd5b505af1158015613808573d6000803e3d6000fd5b50505050831561384d576001600160a01b0387166000908152601160209081526040808320600c5484529091528120805485929061384790849061515e565b90915550505b5050949350505050565b6060600060018085600281111561387057613870615634565b141561388957601b546001600160a01b031691506138b7565b600285600281111561389d5761389d615634565b14156138b757601a5461010090046001600160a01b031691505b6001600160a01b03821661390d5760405162461bcd60e51b815260206004820152601360248201527f53474c3a206d6f64756c65206e6f7420736574000000000000000000000000006044820152606401610ebe565b816001600160a01b03168460405161392591906155f0565b600060405180830381855af49150503d8060008114613960576040519150601f19603f3d011682016040523d82523d6000602084013e613965565b606091505b5093509050806139915761397883613ecc565b60405162461bcd60e51b8152600401610ebe919061471f565b505092915050565b60408051600481526024810182526020810180516001600160e01b03167f313ce567000000000000000000000000000000000000000000000000000000001790529051600091829182916001600160a01b038616916139f891906155f0565b600060405180830381855afa9150503d8060008114613a33576040519150601f19603f3d011682016040523d82523d6000602084013e613a38565b606091505b5091509150818015613a4b575080516020145b613a56576012612a6f565b80806020019051810190612a6f919061564a565b60007f00000000000000000000000000000000000000000000000000000000000000004614613a9c5761186746614335565b507f000000000000000000000000000000000000000000000000000000000000000090565b60408051808201909152600e546001600160801b03808216808452600160801b9092041660208301819052600754600c54600094936001600160a01b039092169263442c159992613b129088615584565b613b1c91906155a3565b6040516001600160e01b031960e085901b168152600481019290925260248201526000604482015260640160206040518083038186803b158015613b5f57600080fd5b505afa158015613b73573d6000803e3d6000fd5b505050506040513d601f19601f820116820180604052508101906117b49190615075565b604080518082018252600e546001600160801b03808216808452600160801b90920481166020840152600754600c54600f549551638eb22cdd60e01b815260048101919091529490911660248501526001604485015260009384916001600160a01b031690638eb22cdd9060640160206040518083038186803b158015613c1d57600080fd5b505afa158015613c31573d6000803e3d6000fd5b505050506040513d601f19601f82011682018060405250810190613c559190615075565b8351613c6a91906001600160801b0316615146565b90508015613c9b578083602001516001600160801b031686613c8c9190615584565b613c9691906155a3565b613c9d565b845b93506103e8848460200151613cb291906155c5565b6001600160801b03161015613ccd5760009350505050612a6f565b613cd8838686614376565b80516020918201516001600160801b03908116600160801b02911617600e556001600160a01b03881660009081526002909152604081208054869290613d1f908490615146565b90915550506040518481526001600160a01b038816906000907fddf252ad1be2c89b69c2b068fc378daa952ba7f163c4a11628f55a4df523b3ef9060200160405180910390a3613d7488600c5487858a6143d0565b866001600160a01b031686613d895788613d96565b6007546001600160a01b03165b6001600160a01b03167f30a8c4f9ab5af7e1309ca87c32377d1a83366c5990472dbf9d262450eae14e388787604051613dd9929190918252602082015260400190565b60405180910390a3505050949350505050565b60408051808201909152600f546001600160801b038082168352600160801b9091041660208201526000908190613e24908483614566565b600754600b549192506001600160a01b031690638eb22cdd90613e52670de0b6b3a7640000620186a0615584565b601554613e626201b58087615584565b613b129190615584565b60408051600481526024810182526020810180516001600160e01b03167f95d89b4100000000000000000000000000000000000000000000000000000000179052905160609160009182916001600160a01b0386169161348b91906155f0565b6060604482511015613f1157505060408051808201909152601381527f53474c3a206e6f2072657475726e206461746100000000000000000000000000602082015290565b6004820191508180602001905181019061198a9190614f45565b60006040518060400160405280600281526020017f1901000000000000000000000000000000000000000000000000000000000000815250613f6b613a6a565b83604051602001613f7e93929190615667565b604051602081830303815290604052805190602001209050919050565b60606000600180856002811115613fb457613fb4615634565b1415613fcd57601b546001600160a01b03169150613ffb565b6002856002811115613fe157613fe1615634565b1415613ffb57601a5461010090046001600160a01b031691505b6001600160a01b0382166140515760405162461bcd60e51b815260206004820152601360248201527f53474c3a206d6f64756c65206e6f7420736574000000000000000000000000006044820152606401610ebe565b816001600160a01b03168460405161406991906155f0565b600060405180830381855afa9150503d8060008114613960576040519150601f19603f3d011682016040523d82523d6000602084013e613965565b60408051808201909152600f546001600160801b038082168352600160801b90910416602082015260009061198a908383614566565b600754600b5460405163442c159960e01b8152600481019190915260248101839052600060448201819052916001600160a01b03169063442c15999060640160206040518083038186803b15801561413157600080fd5b505afa158015614145573d6000803e3d6000fd5b505050506040513d601f19601f8201168201806040525081019061198a9190615075565b60606040825110614188578180602001905181019061198a9190614f45565b8151602014156143115760005b60208160ff161080156141e25750828160ff16815181106141b8576141b86154a6565b01602001517fff000000000000000000000000000000000000000000000000000000000000001615155b156141f957806141f18161568e565b915050614195565b60008160ff1667ffffffffffffffff81111561421757614217614ab9565b6040519080825280601f01601f191660200182016040528015614241576020820181803683370190505b509050600091505b60208260ff161080156142965750838260ff168151811061426c5761426c6154a6565b01602001517fff000000000000000000000000000000000000000000000000000000000000001615155b156117b457838260ff16815181106142b0576142b06154a6565b602001015160f81c60f81b818360ff16815181106142d0576142d06154a6565b60200101907effffffffffffffffffffffffffffffffffffffffffffffffffffffffffffff1916908160001a905350816143098161568e565b925050614249565b50506040805180820190915260038152623f3f3f60e81b602082015290565b919050565b604080517f47e79534a245952e8b16893a336b85a3d9ea9fa8c573f3d803afb92a794692186020820152908101829052306060820152600090608001613f7e565b6040805180820190915260008082526020820152828460000181815161439c91906155c5565b6001600160801b03169052506020840180518391906143bc9083906155c5565b6001600160801b0316905250929392505050565b6001600160a01b038516600090815260116020908152604080832087845290915281208054859290614403908490615146565b909155505080156144ec57600754604051627eeac760e11b81523060048201526024810186905283916001600160a01b03169062fdd58e9060440160206040518083038186803b15801561445657600080fd5b505afa15801561446a573d6000803e3d6000fd5b505050506040513d601f19601f8201168201806040525081019061448e9190615075565b614498919061515e565b8311156144e75760405162461bcd60e51b815260206004820152600d60248201527f53474c3a20746f6f206d756368000000000000000000000000000000000000006044820152606401610ebe565b611848565b600754604051630208d92960e11b81526001600160a01b038781166004830152306024830152604482018790526064820186905290911690630411b25290608401600060405180830381600087803b15801561454757600080fd5b505af115801561455b573d6000803e3d6000fd5b505050505050505050565b600083602001516001600160801b0316600014156145855750816117b4565b602084015184516001600160801b03918216916145a3911685615584565b6145ad91906155a3565b90508180156145eb57508284600001516001600160801b031685602001516001600160801b0316836145df9190615584565b6145e991906155a3565b105b156117b45780612e3581615513565b82805482825590600052602060002090810192821561464f579160200282015b8281111561464f57825182546001600160a01b0319166001600160a01b0390911617825560209092019160019091019061461a565b5061465b9291506146b2565b5090565b82805482825590600052602060002090810192821561464f579160200282015b8281111561464f5781546001600160a01b0319166001600160a01b0384351617825560209092019160019091019061467f565b5b8082111561465b57600081556001016146b3565b60005b838110156146e25781810151838201526020016146ca565b8381111561270b5750506000910152565b6000815180845261470b8160208601602086016146c7565b601f01601f19169290920160200192915050565b6020815260006117b460208301846146f3565b6001600160a01b038116811461474757600080fd5b50565b801515811461474757600080fd5b60008060006060848603121561476d57600080fd5b833561477881614732565b925060208401356147888161474a565b915060408401356147988161474a565b809150509250925092565b600080604083850312156147b657600080fd5b82356147c181614732565b946020939093013593505050565b60008082840360408112156147e357600080fd5b83356147ee81614732565b92506020601f198201121561480257600080fd5b506020830190509250929050565b60006020828403121561482257600080fd5b81356117b481614732565b60008060006060848603121561484257600080fd5b833561484d81614732565b9250602084013561485d81614732565b929592945050506040919091013590565b6000806000806080858703121561488457600080fd5b843561488f81614732565b9350602085013561489f81614732565b925060408501356148af8161474a565b9396929550929360600135925050565b60008083601f8401126148d157600080fd5b50813567ffffffffffffffff8111156148e957600080fd5b6020830191508360208260051b850101111561490457600080fd5b9250929050565b60008083601f84011261491d57600080fd5b50813567ffffffffffffffff81111561493557600080fd5b60208301915083602082850101111561490457600080fd5b600080600080600080600080600060a08a8c03121561496b57600080fd5b893567ffffffffffffffff8082111561498357600080fd5b61498f8d838e016148bf565b909b50995060208c01359150808211156149a857600080fd5b6149b48d838e016148bf565b909950975060408c013591506149c982614732565b90955060608b013590808211156149df57600080fd5b6149eb8d838e0161490b565b909650945060808c0135915080821115614a0457600080fd5b50614a118c828d0161490b565b915080935050809150509295985092959850929598565b600060208284031215614a3a57600080fd5b5035919050565b60008060208385031215614a5457600080fd5b823567ffffffffffffffff811115614a6b57600080fd5b614a778582860161490b565b90969095509350505050565b60008060208385031215614a9657600080fd5b823567ffffffffffffffff811115614aad57600080fd5b614a77858286016148bf565b634e487b7160e01b600052604160045260246000fd5b604051601f8201601f1916810167ffffffffffffffff81118282101715614af857614af8614ab9565b604052919050565b600067ffffffffffffffff821115614b1a57614b1a614ab9565b50601f01601f191660200190565b600082601f830112614b3957600080fd5b8135614b4c614b4782614b00565b614acf565b818152846020838601011115614b6157600080fd5b816020850160208301376000918101602001919091529392505050565b60008060008060808587031215614b9457600080fd5b8435614b9f81614732565b93506020850135614baf81614732565b925060408501359150606085013567ffffffffffffffff811115614bd257600080fd5b614bde87828801614b28565b91505092959194509250565b600080600060408486031215614bff57600080fd5b833567ffffffffffffffff811115614c1657600080fd5b614c22868287016148bf565b90945092505060208401356147988161474a565b604080825283519082018190526000906020906060840190828701845b82811015614c71578151151584529284019290840190600101614c53565b50505083810382850152845180825282820190600581901b8301840187850160005b83811015614cc157601f19868403018552614caf8383516146f3565b94870194925090860190600101614c93565b50909998505050505050505050565b60ff8116811461474757600080fd5b600080600080600080600060e0888a031215614cfa57600080fd5b8735614d0581614732565b96506020880135614d1581614732565b955060408801359450606088013593506080880135614d3381614cd0565b9699959850939692959460a0840135945060c09093013592915050565b60008060408385031215614d6357600080fd5b8235614d6e81614732565b91506020830135614d7e81614732565b809150509250929050565b803561433081614732565b60008060008060008060a08789031215614dad57600080fd5b863561ffff81168114614dbf57600080fd5b9550602087013567ffffffffffffffff80821115614ddc57600080fd5b614de88a838b01614b28565b9650604089013595506060890135915080821115614e0557600080fd5b50614e1289828a0161490b565b9094509250506080870135614e2681614732565b809150509295509295509295565b600181811c90821680614e4857607f821691505b60208210811415614e6957634e487b7160e01b600052602260045260246000fd5b50919050565b600060208083526000845481600182811c915080831680614e9157607f831692505b858310811415614eaf57634e487b7160e01b85526022600452602485fd5b878601838152602001818015614ecc5760018114614edd57614f08565b60ff19861682528782019650614f08565b60008b81526020902060005b86811015614f0257815484820152908501908901614ee9565b83019750505b50949998505050505050505050565b60008060408385031215614f2a57600080fd5b8251614f358161474a565b6020939093015192949293505050565b600060208284031215614f5757600080fd5b815167ffffffffffffffff811115614f6e57600080fd5b8201601f81018413614f7f57600080fd5b8051614f8d614b4782614b00565b818152856020838501011115614fa257600080fd5b612e358260208301602086016146c7565b7f546170696f63612053696e67756c617269747920000000000000000000000000815260008451614feb8160148501602089016146c7565b602f60f81b601491840191820152845161500c8160158401602089016146c7565b602d60f81b60159290910191820152835161502e8160168401602088016146c7565b0160160195945050505050565b60006020828403121561504d57600080fd5b81516117b48161474a565b60006020828403121561506a57600080fd5b81516117b481614732565b60006020828403121561508757600080fd5b5051919050565b600060c08201888352602088818501528760408501526001600160a01b03808816606086015260c0608086015282875480855260e0870191508860005283600020945060005b818110156150f25785548416835260019586019592850192016150d4565b5050809450505050508260a0830152979650505050505050565b6000806040838503121561511f57600080fd5b505080516020909101519092909150565b634e487b7160e01b600052601160045260246000fd5b6000821982111561515957615159615130565b500190565b60008282101561517057615170615130565b500390565b81835281816020850137506000828201602090810191909152601f909101601f19169091010190565b60a0808252810189905260008a60c08301825b8c8110156151e15782356151c481614732565b6001600160a01b03168252602092830192909101906001016151b1565b5083810360208501528981527f07ffffffffffffffffffffffffffffffffffffffffffffffffffffffffffffff8a111561521a57600080fd5b8960051b9150818b6020830137818101915050602081016000815261524a604085018a6001600160a01b03169052565b602084830301606085015261526081888a615175565b9150508281036080840152615276818587615175565b9c9b505050505050505050505050565b600082601f83011261529757600080fd5b8135602067ffffffffffffffff8211156152b3576152b3614ab9565b8160051b6152c2828201614acf565b92835284810182019282810190878511156152dc57600080fd5b83870192505b848310156153045782356152f581614732565b825291830191908301906152e2565b979650505050505050565b6000806000806000806000806000806101408b8d03121561532f57600080fd5b6153388b614d89565b995061534660208c01614d89565b985061535460408c01614d89565b975061536260608c01614d89565b965060808b0135955061537760a08c01614d89565b945060c08b0135935061538c60e08c01614d89565b92506101008b013567ffffffffffffffff808211156153aa57600080fd5b6153b68e838f01615286565b93506101208d01359150808211156153cd57600080fd5b506153da8d828e01615286565b9150509295989b9194979a5092959850565b60006001600160a01b03808716835280861660208401525083604083015260806060830152611f3860808301846146f3565b7f746d0000000000000000000000000000000000000000000000000000000000008152600084516154568160028501602089016146c7565b602f60f81b60029184019182015284516154778160038401602089016146c7565b602d60f81b6003929091019182015283516154998160048401602088016146c7565b0160040195945050505050565b634e487b7160e01b600052603260045260246000fd5b6000808335601e198436030181126154d357600080fd5b83018035915067ffffffffffffffff8211156154ee57600080fd5b60200191503681900382131561490457600080fd5b8183823760009101908152919050565b600060001982141561552757615527615130565b5060010190565b60006001600160a01b03808b16835261ffff8a16602084015260e0604084015261555b60e084018a6146f3565b886060850152818816608085015281871660a085015283810360c0850152615276818688615175565b600081600019048311821515161561559e5761559e615130565b500290565b6000826155c057634e487b7160e01b600052601260045260246000fd5b500490565b60006001600160801b038083168185168083038211156155e7576155e7615130565b01949350505050565b600082516156028184602087016146c7565b9190910192915050565b60006001600160801b038381169083168181101561562c5761562c615130565b039392505050565b634e487b7160e01b600052602160045260246000fd5b60006020828403121561565c57600080fd5b81516117b481614cd0565b600084516156798184602089016146c7565b91909101928352506020820152604001919050565b600060ff821660ff8114156156a5576156a5615130565b6001019291505056fea2646970667358221220882e1001ada5cf16ec18e8137f418661e2c372b1f5fbbdfb3f77d54cf15ca37564736f6c63430008090033",
  "devdoc": {
    "kind": "dev",
    "methods": {
      "addAsset(address,address,bool,uint256)": {
        "params": {
          "from": "Address to add asset from.",
          "share": "The amount of shares to add.",
          "skim": "True if the amount should be skimmed from the deposit balance of msg.sender. False if tokens from msg.sender in `yieldBox` should be transferred.",
          "to": "The address of the user to receive the assets."
        },
        "returns": {
          "fraction": "Total fractions added."
        }
      },
      "addCollateral(address,address,bool,uint256)": {
        "params": {
          "from": "Account to transfer shares from.",
          "share": "The amount of shares to add for `to`.",
          "skim": "True if the amount should be skimmed from the deposit balance of msg.sender. False if tokens from msg.sender in `yieldBox` should be transferred.",
          "to": "The receiver of the tokens."
        }
      },
      "approve(address,uint256)": {
        "params": {
          "amount": "The maximum collective amount that `spender` can draw.",
          "spender": "Address of the party that can draw from msg.sender's account."
        },
        "returns": {
          "_0": "(bool) Returns True if approved."
        }
      },
      "borrow(address,address,uint256)": {
        "params": {
          "amount": "Amount to borrow.",
          "from": "Account to borrow for.",
          "to": "The receiver of borrowed tokens."
        },
        "returns": {
          "part": "Total part of the debt held by borrowers.",
          "share": "Total amount in shares borrowed."
        }
      },
      "computeAssetAmountToSolvency(address,uint256)": {
        "details": "We use a `CLOSED_COLLATERIZATION_RATE` that is a safety buffer when making the user solvent again,      To prevent from being liquidated. This function is valid only if user is not solvent by `_isSolvent()`.",
        "params": {
          "_exchangeRate": "The exchange rate asset/collateral.",
          "user": "The user to check solvency."
        },
        "returns": {
          "amountToSolvency": "The amount of collateral to be solvent."
        }
      },
      "execute(bytes[],bool)": {
        "params": {
          "calls": "An array encoded call data.",
          "revertOnFail": "If True then reverts after a failed call and stops doing further calls."
        }
      },
      "flashLoan(address,address,uint256,bytes)": {
        "details": "The contract expect the `borrower` to have at the end of `onFlashLoan` `amount` + the incurred fees. The borrower is expected to `approve()` yieldBox for this number at the end of its `onFlashLoan()`.",
        "params": {
          "amount": "of the tokens to receive.",
          "borrower": "The address of the contract that implements and conforms to `IFlashBorrower` and handles the flashloan.",
          "data": "The calldata to pass to the `borrower` contract.",
          "receiver": "Address of the token receiver."
        }
      },
      "getAmountForAssetFraction(uint256)": {
        "params": {
          "fraction": "The fraction."
        },
        "returns": {
          "amount": "The amount."
        }
      },
      "getAmountForBorrowPart(uint256)": {
        "params": {
          "borrowPart": "The amount of borrow part to convert."
        },
        "returns": {
          "amount": "The equivalent of borrow part in asset amount."
        }
      },
      "getCollateralAmountForShare(uint256)": {
        "params": {
          "share": "The shares."
        },
        "returns": {
          "amount": "The amount."
        }
      },
      "getCollateralSharesForBorrowPart(uint256)": {
        "params": {
          "borrowPart": "The borrow part."
        },
        "returns": {
          "collateralShares": "The collateral shares."
        }
      },
      "liquidate(address[],uint256[],address,bytes,bytes)": {
        "details": "Will call `closedLiquidation()` if not LQ exists or no LQ bid avail exists. Otherwise use LQ.",
        "params": {
          "collateralToAssetSwapData": "Extra swap data        Ignore for `orderBookLiquidation()`",
          "maxBorrowParts": "A one-to-one mapping to `users`, contains maximum (partial) borrow amounts (to liquidate) of the respective user.        Ignore for `orderBookLiquidation()`",
          "swapper": "Contract address of the `MultiSwapper` implementation. See `setSwapper`.        Ignore for `orderBookLiquidation()`",
          "usdoToBorrowedSwapData": "Extra swap data        Ignore for `closedLiquidation()`",
          "users": "An array of user addresses."
        }
      },
      "permit(address,address,uint256,uint256,uint8,bytes32,bytes32)": {
        "params": {
          "deadline": "This permit must be redeemed before this deadline (UTC timestamp in seconds).",
          "owner_": "Address of the owner.",
          "spender": "The address of the spender that gets approved to draw from `owner_`.",
          "value": "The maximum collective amount that `spender` can draw."
        }
      },
      "removeAsset(address,address,uint256)": {
        "params": {
          "fraction": "The amount/fraction of assets held to remove.",
          "from": "Account to debit Assets from.",
          "to": "The user that receives the removed assets."
        },
        "returns": {
          "share": "The amount of shares transferred to `to`."
        }
      },
      "removeCollateral(address,address,uint256)": {
        "params": {
          "from": "Account to debit collateral from.",
          "share": "Amount of shares to remove.",
          "to": "The receiver of the shares."
        }
      },
      "repay(address,address,bool,uint256)": {
        "params": {
          "from": "Address to repay from.",
          "part": "The amount to repay. See `userBorrowPart`.",
          "skim": "True if the amount should be skimmed from the deposit balance of msg.sender. False if tokens from msg.sender in `yieldBox` should be transferred.",
          "to": "Address of the user this payment should go."
        },
        "returns": {
          "amount": "The total amount repayed."
        }
      },
      "setCollateralSwapPath(address[])": {
        "params": {
          "_collateralSwapPath": "The Uniswap path ."
        }
      },
      "setLiquidationQueue(address)": {
        "params": {
          "_liquidationQueue": "The address of the new LiquidationQueue contract."
        }
      },
      "setTapSwapPath(address[])": {
        "params": {
          "_tapSwapPath": "The Uniswap path ."
        }
      },
      "transfer(address,uint256)": {
        "params": {
          "amount": "of the tokens to move.",
          "to": "The address to move the tokens."
        },
        "returns": {
          "_0": "(bool) Returns True if succeeded."
        }
      },
      "transferFrom(address,address,uint256)": {
        "params": {
          "amount": "The token amount to move.",
          "from": "Address to draw tokens from.",
          "to": "The address to move the tokens."
        },
        "returns": {
          "_0": "(bool) Returns True if succeeded."
        }
      },
      "transferOwnership(address,bool,bool)": {
        "params": {
          "direct": "True if `newOwner` should be set immediately. False if `newOwner` needs to use `claimOwnership`.",
          "newOwner": "Address of the new owner.",
          "renounce": "Allows the `newOwner` to be `address(0)` if `direct` and `renounce` is True. Has no effect otherwise."
        }
      },
      "updateExchangeRate()": {
        "returns": {
          "rate": "The new exchange rate.",
          "updated": "True if `exchangeRate` was updated."
        }
      },
      "yieldBoxShares(address,uint256)": {
        "params": {
          "_assetId": "The asset id to check shares for",
          "_user": "The user to check shares for"
        }
      }
    },
    "title": "Tapioca market",
    "version": 1
  },
  "userdoc": {
    "kind": "user",
    "methods": {
      "accrue()": {
        "notice": "Accrues the interest on the borrowed tokens and handles the accumulation of fees."
      },
      "addAsset(address,address,bool,uint256)": {
        "notice": "Adds assets to the lending pair."
      },
      "addCollateral(address,address,bool,uint256)": {
        "notice": "Adds `collateral` from msg.sender to the account `to`."
      },
      "allowance(address,address)": {
        "notice": "owner > spender > allowance mapping."
      },
      "approve(address,uint256)": {
        "notice": "Approves `amount` from sender to be spend by `spender`."
      },
      "balanceOf(address)": {
        "notice": "owner > balance mapping."
      },
      "borrow(address,address,uint256)": {
        "notice": "Sender borrows `amount` and transfers it to `to`."
      },
      "claimOwnership()": {
        "notice": "Needs to be called by `pendingOwner` to claim ownership."
      },
      "computeAssetAmountToSolvency(address,uint256)": {
        "notice": "Return the amount of collateral for a `user` to be solvent. Returns 0 if user already solvent."
      },
      "depositFeesToYieldBox(address,(uint256))": {
        "notice": "Withdraw the balance of `feeTo`, swap asset into TAP and deposit it to yieldBox of `feeTo`"
      },
      "exchangeRate()": {
        "notice": "Exchange and interest rate tracking. This is 'cached' here because calls to Oracles can be very expensive. Asset -> collateral = assetAmount * exchangeRate."
      },
      "execute(bytes[],bool)": {
        "notice": "Allows batched call to Singularity."
      },
      "flashLoan(address,address,uint256,bytes)": {
        "notice": "Flashloan ability."
      },
      "getAmountForAssetFraction(uint256)": {
        "notice": "Compute the amount of `mixologist.assetId` from `fraction` `fraction` can be `mixologist.accrueInfo.feeFraction` or `mixologist.balanceOf`"
      },
      "getAmountForBorrowPart(uint256)": {
        "notice": "Return the equivalent of borrow part in asset amount."
      },
      "getCollateralAmountForShare(uint256)": {
        "notice": "Calculate the collateral amount off the shares."
      },
      "getCollateralSharesForBorrowPart(uint256)": {
        "notice": "Calculate the collateral shares that are needed for `borrowPart`, taking the current exchange rate into account."
      },
      "init(bytes)": {
        "notice": "The init function that acts as a constructor"
      },
      "lendingBorrowingModule()": {
        "notice": "returns the lending module"
      },
      "liquidate(address[],uint256[],address,bytes,bytes)": {
        "notice": "Entry point for liquidations."
      },
      "liquidationModule()": {
        "notice": "returns the liquidation module"
      },
      "nonces(address)": {
        "notice": "owner > nonce mapping. Used in `permit`."
      },
      "permit(address,address,uint256,uint256,uint8,bytes32,bytes32)": {
        "notice": "Approves `value` from `owner_` to be spend by `spender`."
      },
      "removeAsset(address,address,uint256)": {
        "notice": "Removes an asset from msg.sender and transfers it to `to`."
      },
      "removeCollateral(address,address,uint256)": {
        "notice": "Removes `share` amount of collateral and transfers it to `to`."
      },
      "repay(address,address,bool,uint256)": {
        "notice": "Repays a loan."
      },
      "setBorrowCap(uint256)": {
        "notice": "sets max borrowable amount"
      },
      "setCollateralSwapPath(address[])": {
        "notice": "Used to set the swap path of closed liquidations"
      },
      "setLiquidationQueue(address)": {
        "notice": "Set a new LiquidationQueue."
      },
      "setTapSwapPath(address[])": {
        "notice": "Used to set the swap path of Asset -> TAP"
      },
      "transfer(address,uint256)": {
        "notice": "Transfers `amount` tokens from `msg.sender` to `to`."
      },
      "transferFrom(address,address,uint256)": {
        "notice": "Transfers `amount` tokens from `from` to `to`. Caller needs approval for `from`."
      },
      "transferOwnership(address,bool,bool)": {
        "notice": "Transfers ownership to `newOwner`. Either directly or claimable by the new pending owner. Can only be invoked by the current `owner`."
      },
      "updateExchangeRate()": {
        "notice": "Gets the exchange rate. I.e how much collateral to buy 1e18 asset. This function is supposed to be invoked if needed because Oracle queries can be expensive."
      },
      "updateLQExecutionSwapper(address)": {
        "notice": "Execute an only owner function inside of the LiquidationQueue"
      },
      "updateLQUsdoSwapper(address)": {
        "notice": "Execute an only owner function inside of the LiquidationQueue"
      },
      "withdrawFeesEarned()": {
        "notice": "Withdraw the fees accumulated in `accrueInfo.feesEarnedFraction` to the balance of `feeTo`."
      },
      "withdrawTo(uint16,bytes,uint256,bytes,address)": {
        "notice": "Withdraw to another layer"
      },
      "yieldBoxShares(address,uint256)": {
        "notice": "returns Total yieldBox shares for user"
      }
    },
    "version": 1
  },
  "storageLayout": {
    "storage": [
      {
        "astId": 233,
        "contract": "contracts/singularity/Singularity.sol:Singularity",
        "label": "owner",
        "offset": 0,
        "slot": "0",
        "type": "t_address"
      },
      {
        "astId": 235,
        "contract": "contracts/singularity/Singularity.sol:Singularity",
        "label": "pendingOwner",
        "offset": 0,
        "slot": "1",
        "type": "t_address"
      },
      {
        "astId": 478,
        "contract": "contracts/singularity/Singularity.sol:Singularity",
        "label": "balanceOf",
        "offset": 0,
        "slot": "2",
        "type": "t_mapping(t_address,t_uint256)"
      },
      {
        "astId": 486,
        "contract": "contracts/singularity/Singularity.sol:Singularity",
        "label": "allowance",
        "offset": 0,
        "slot": "3",
        "type": "t_mapping(t_address,t_mapping(t_address,t_uint256))"
      },
      {
        "astId": 491,
        "contract": "contracts/singularity/Singularity.sol:Singularity",
        "label": "nonces",
        "offset": 0,
        "slot": "4",
        "type": "t_mapping(t_address,t_uint256)"
      },
      {
        "astId": 9916,
        "contract": "contracts/singularity/Singularity.sol:Singularity",
        "label": "accrueInfo",
        "offset": 0,
        "slot": "5",
        "type": "t_struct(AccrueInfo)12295_storage"
      },
      {
        "astId": 9919,
        "contract": "contracts/singularity/Singularity.sol:Singularity",
        "label": "beachBar",
        "offset": 0,
        "slot": "6",
        "type": "t_contract(IBeachBar)3182"
      },
      {
        "astId": 9922,
        "contract": "contracts/singularity/Singularity.sol:Singularity",
        "label": "yieldBox",
        "offset": 0,
        "slot": "7",
        "type": "t_contract(YieldBox)30249"
      },
      {
        "astId": 9925,
        "contract": "contracts/singularity/Singularity.sol:Singularity",
        "label": "liquidationQueue",
        "offset": 0,
        "slot": "8",
        "type": "t_contract(ILiquidationQueue)4189"
      },
      {
        "astId": 9928,
        "contract": "contracts/singularity/Singularity.sol:Singularity",
        "label": "collateral",
        "offset": 0,
        "slot": "9",
        "type": "t_contract(IERC20)1099"
      },
      {
        "astId": 9931,
        "contract": "contracts/singularity/Singularity.sol:Singularity",
        "label": "asset",
        "offset": 0,
        "slot": "10",
        "type": "t_contract(IERC20)1099"
      },
      {
        "astId": 9933,
        "contract": "contracts/singularity/Singularity.sol:Singularity",
        "label": "collateralId",
        "offset": 0,
        "slot": "11",
        "type": "t_uint256"
      },
      {
        "astId": 9935,
        "contract": "contracts/singularity/Singularity.sol:Singularity",
        "label": "assetId",
        "offset": 0,
        "slot": "12",
        "type": "t_uint256"
      },
      {
        "astId": 9937,
        "contract": "contracts/singularity/Singularity.sol:Singularity",
        "label": "totalCollateralShare",
        "offset": 0,
        "slot": "13",
        "type": "t_uint256"
      },
      {
        "astId": 9940,
        "contract": "contracts/singularity/Singularity.sol:Singularity",
        "label": "totalAsset",
        "offset": 0,
        "slot": "14",
        "type": "t_struct(Rebase)1874_storage"
      },
      {
        "astId": 9943,
        "contract": "contracts/singularity/Singularity.sol:Singularity",
        "label": "totalBorrow",
        "offset": 0,
        "slot": "15",
        "type": "t_struct(Rebase)1874_storage"
      },
      {
        "astId": 9945,
        "contract": "contracts/singularity/Singularity.sol:Singularity",
        "label": "totalBorrowCap",
        "offset": 0,
        "slot": "16",
        "type": "t_uint256"
      },
      {
        "astId": 9951,
        "contract": "contracts/singularity/Singularity.sol:Singularity",
        "label": "_yieldBoxShares",
        "offset": 0,
        "slot": "17",
        "type": "t_mapping(t_address,t_mapping(t_uint256,t_uint256))"
      },
      {
        "astId": 9955,
        "contract": "contracts/singularity/Singularity.sol:Singularity",
        "label": "userCollateralShare",
        "offset": 0,
        "slot": "18",
        "type": "t_mapping(t_address,t_uint256)"
      },
      {
        "astId": 9959,
        "contract": "contracts/singularity/Singularity.sol:Singularity",
        "label": "userBorrowPart",
        "offset": 0,
        "slot": "19",
        "type": "t_mapping(t_address,t_uint256)"
      },
      {
        "astId": 9965,
        "contract": "contracts/singularity/Singularity.sol:Singularity",
        "label": "isApprovedForAll",
        "offset": 0,
        "slot": "20",
        "type": "t_mapping(t_address,t_mapping(t_address,t_bool))"
      },
      {
        "astId": 9968,
        "contract": "contracts/singularity/Singularity.sol:Singularity",
        "label": "exchangeRate",
        "offset": 0,
        "slot": "21",
        "type": "t_uint256"
      },
      {
        "astId": 9971,
        "contract": "contracts/singularity/Singularity.sol:Singularity",
        "label": "oracle",
        "offset": 0,
        "slot": "22",
        "type": "t_contract(IOracle)12261"
      },
      {
        "astId": 9973,
        "contract": "contracts/singularity/Singularity.sol:Singularity",
        "label": "oracleData",
        "offset": 0,
        "slot": "23",
        "type": "t_bytes_storage"
      },
      {
        "astId": 9976,
        "contract": "contracts/singularity/Singularity.sol:Singularity",
        "label": "collateralSwapPath",
        "offset": 0,
        "slot": "24",
        "type": "t_array(t_address)dyn_storage"
      },
      {
        "astId": 9979,
        "contract": "contracts/singularity/Singularity.sol:Singularity",
        "label": "tapSwapPath",
        "offset": 0,
        "slot": "25",
        "type": "t_array(t_address)dyn_storage"
      },
      {
        "astId": 7728,
        "contract": "contracts/singularity/Singularity.sol:Singularity",
        "label": "initialized",
        "offset": 0,
        "slot": "26",
        "type": "t_bool"
      },
      {
        "astId": 10265,
        "contract": "contracts/singularity/Singularity.sol:Singularity",
        "label": "liquidationModule",
        "offset": 1,
        "slot": "26",
        "type": "t_contract(SGLLiquidation)9888"
      },
      {
        "astId": 10269,
        "contract": "contracts/singularity/Singularity.sol:Singularity",
        "label": "lendingBorrowingModule",
        "offset": 0,
        "slot": "27",
        "type": "t_contract(SGLLendingBorrowing)9104"
      }
    ],
    "types": {
      "t_address": {
        "encoding": "inplace",
        "label": "address",
        "numberOfBytes": "20"
      },
      "t_array(t_address)dyn_storage": {
        "base": "t_address",
        "encoding": "dynamic_array",
        "label": "address[]",
        "numberOfBytes": "32"
      },
      "t_bool": {
        "encoding": "inplace",
        "label": "bool",
        "numberOfBytes": "1"
      },
      "t_bytes_storage": {
        "encoding": "bytes",
        "label": "bytes",
        "numberOfBytes": "32"
      },
      "t_contract(IBeachBar)3182": {
        "encoding": "inplace",
        "label": "contract IBeachBar",
        "numberOfBytes": "20"
      },
      "t_contract(IERC20)1099": {
        "encoding": "inplace",
        "label": "contract IERC20",
        "numberOfBytes": "20"
      },
      "t_contract(ILiquidationQueue)4189": {
        "encoding": "inplace",
        "label": "contract ILiquidationQueue",
        "numberOfBytes": "20"
      },
      "t_contract(IOracle)12261": {
        "encoding": "inplace",
        "label": "contract IOracle",
        "numberOfBytes": "20"
      },
      "t_contract(SGLLendingBorrowing)9104": {
        "encoding": "inplace",
        "label": "contract SGLLendingBorrowing",
        "numberOfBytes": "20"
      },
      "t_contract(SGLLiquidation)9888": {
        "encoding": "inplace",
        "label": "contract SGLLiquidation",
        "numberOfBytes": "20"
      },
      "t_contract(YieldBox)30249": {
        "encoding": "inplace",
        "label": "contract YieldBox",
        "numberOfBytes": "20"
      },
      "t_mapping(t_address,t_bool)": {
        "encoding": "mapping",
        "key": "t_address",
        "label": "mapping(address => bool)",
        "numberOfBytes": "32",
        "value": "t_bool"
      },
      "t_mapping(t_address,t_mapping(t_address,t_bool))": {
        "encoding": "mapping",
        "key": "t_address",
        "label": "mapping(address => mapping(address => bool))",
        "numberOfBytes": "32",
        "value": "t_mapping(t_address,t_bool)"
      },
      "t_mapping(t_address,t_mapping(t_address,t_uint256))": {
        "encoding": "mapping",
        "key": "t_address",
        "label": "mapping(address => mapping(address => uint256))",
        "numberOfBytes": "32",
        "value": "t_mapping(t_address,t_uint256)"
      },
      "t_mapping(t_address,t_mapping(t_uint256,t_uint256))": {
        "encoding": "mapping",
        "key": "t_address",
        "label": "mapping(address => mapping(uint256 => uint256))",
        "numberOfBytes": "32",
        "value": "t_mapping(t_uint256,t_uint256)"
      },
      "t_mapping(t_address,t_uint256)": {
        "encoding": "mapping",
        "key": "t_address",
        "label": "mapping(address => uint256)",
        "numberOfBytes": "32",
        "value": "t_uint256"
      },
      "t_mapping(t_uint256,t_uint256)": {
        "encoding": "mapping",
        "key": "t_uint256",
        "label": "mapping(uint256 => uint256)",
        "numberOfBytes": "32",
        "value": "t_uint256"
      },
      "t_struct(AccrueInfo)12295_storage": {
        "encoding": "inplace",
        "label": "struct ISingularity.AccrueInfo",
        "members": [
          {
            "astId": 12290,
            "contract": "contracts/singularity/Singularity.sol:Singularity",
            "label": "interestPerSecond",
            "offset": 0,
            "slot": "0",
            "type": "t_uint64"
          },
          {
            "astId": 12292,
            "contract": "contracts/singularity/Singularity.sol:Singularity",
            "label": "lastAccrued",
            "offset": 8,
            "slot": "0",
            "type": "t_uint64"
          },
          {
            "astId": 12294,
            "contract": "contracts/singularity/Singularity.sol:Singularity",
            "label": "feesEarnedFraction",
            "offset": 16,
            "slot": "0",
            "type": "t_uint128"
          }
        ],
        "numberOfBytes": "32"
      },
      "t_struct(Rebase)1874_storage": {
        "encoding": "inplace",
        "label": "struct Rebase",
        "members": [
          {
            "astId": 1871,
            "contract": "contracts/singularity/Singularity.sol:Singularity",
            "label": "elastic",
            "offset": 0,
            "slot": "0",
            "type": "t_uint128"
          },
          {
            "astId": 1873,
            "contract": "contracts/singularity/Singularity.sol:Singularity",
            "label": "base",
            "offset": 16,
            "slot": "0",
            "type": "t_uint128"
          }
        ],
        "numberOfBytes": "32"
      },
      "t_uint128": {
        "encoding": "inplace",
        "label": "uint128",
        "numberOfBytes": "16"
      },
      "t_uint256": {
        "encoding": "inplace",
        "label": "uint256",
        "numberOfBytes": "32"
      },
      "t_uint64": {
        "encoding": "inplace",
        "label": "uint64",
        "numberOfBytes": "8"
      }
    }
  }
}