{
  "address": "0xf415243B79651F6bf15053fA1712Cbb67BEc5B87",
  "abi": [
    {
      "inputs": [
        {
          "internalType": "contract IBeachBar",
          "name": "tapiocaBar_",
          "type": "address"
        },
        {
          "internalType": "contract IERC20",
          "name": "_collateral",
          "type": "address"
        },
        {
          "internalType": "uint256",
          "name": "_collateralId",
          "type": "uint256"
        },
        {
          "internalType": "contract IOracle",
          "name": "_oracle",
          "type": "address"
        },
        {
          "internalType": "address[]",
          "name": "_tapSwapPath",
          "type": "address[]"
        },
        {
          "internalType": "address[]",
          "name": "_collateralSwapPath",
          "type": "address[]"
        }
      ],
      "stateMutability": "nonpayable",
      "type": "constructor"
    },
    {
      "inputs": [
        {
          "internalType": "address",
          "name": "_from",
          "type": "address"
        },
        {
          "internalType": "address",
          "name": "_operator",
          "type": "address"
        }
      ],
      "name": "NotApproved",
      "type": "error"
    },
    {
      "anonymous": false,
      "inputs": [
        {
          "indexed": false,
          "internalType": "uint256",
          "name": "accruedAmount",
          "type": "uint256"
        },
        {
          "indexed": false,
          "internalType": "uint64",
          "name": "rate",
          "type": "uint64"
        }
      ],
      "name": "LogAccrue",
      "type": "event"
    },
    {
      "anonymous": false,
      "inputs": [
        {
          "indexed": true,
          "internalType": "address",
          "name": "from",
          "type": "address"
        },
        {
          "indexed": true,
          "internalType": "address",
          "name": "to",
          "type": "address"
        },
        {
          "indexed": false,
          "internalType": "uint256",
          "name": "share",
          "type": "uint256"
        }
      ],
      "name": "LogAddCollateral",
      "type": "event"
    },
    {
      "anonymous": false,
      "inputs": [
        {
          "indexed": true,
          "internalType": "address",
          "name": "_from",
          "type": "address"
        },
        {
          "indexed": true,
          "internalType": "address",
          "name": "_operator",
          "type": "address"
        },
        {
          "indexed": false,
          "internalType": "bool",
          "name": "_approved",
          "type": "bool"
        }
      ],
      "name": "LogApprovalForAll",
      "type": "event"
    },
    {
      "anonymous": false,
      "inputs": [
        {
          "indexed": true,
          "internalType": "address",
          "name": "from",
          "type": "address"
        },
        {
          "indexed": true,
          "internalType": "address",
          "name": "to",
          "type": "address"
        },
        {
          "indexed": false,
          "internalType": "uint256",
          "name": "amount",
          "type": "uint256"
        },
        {
          "indexed": false,
          "internalType": "uint256",
          "name": "feeAmount",
          "type": "uint256"
        },
        {
          "indexed": false,
          "internalType": "uint256",
          "name": "part",
          "type": "uint256"
        }
      ],
      "name": "LogBorrow",
      "type": "event"
    },
    {
      "anonymous": false,
      "inputs": [
        {
          "indexed": false,
          "internalType": "uint256",
          "name": "_oldVal",
          "type": "uint256"
        },
        {
          "indexed": false,
          "internalType": "uint256",
          "name": "_newVal",
          "type": "uint256"
        }
      ],
      "name": "LogBorrowCapUpdated",
      "type": "event"
    },
    {
      "anonymous": false,
      "inputs": [
        {
          "indexed": false,
          "internalType": "uint256",
          "name": "_oldVal",
          "type": "uint256"
        },
        {
          "indexed": false,
          "internalType": "uint256",
          "name": "_newVal",
          "type": "uint256"
        }
      ],
      "name": "LogBorrowingFee",
      "type": "event"
    },
    {
      "anonymous": false,
      "inputs": [],
      "name": "LogCollateralSwapPath",
      "type": "event"
    },
    {
      "anonymous": false,
      "inputs": [
        {
          "indexed": false,
          "internalType": "uint256",
          "name": "rate",
          "type": "uint256"
        }
      ],
      "name": "LogExchangeRate",
      "type": "event"
    },
    {
      "anonymous": false,
      "inputs": [
        {
          "indexed": true,
          "internalType": "address",
          "name": "from",
          "type": "address"
        },
        {
          "indexed": true,
          "internalType": "address",
          "name": "to",
          "type": "address"
        },
        {
          "indexed": false,
          "internalType": "uint256",
          "name": "share",
          "type": "uint256"
        }
      ],
      "name": "LogRemoveCollateral",
      "type": "event"
    },
    {
      "anonymous": false,
      "inputs": [
        {
          "indexed": true,
          "internalType": "address",
          "name": "from",
          "type": "address"
        },
        {
          "indexed": true,
          "internalType": "address",
          "name": "to",
          "type": "address"
        },
        {
          "indexed": false,
          "internalType": "uint256",
          "name": "amount",
          "type": "uint256"
        },
        {
          "indexed": false,
          "internalType": "uint256",
          "name": "part",
          "type": "uint256"
        }
      ],
      "name": "LogRepay",
      "type": "event"
    },
    {
      "anonymous": false,
      "inputs": [
        {
          "indexed": false,
          "internalType": "uint256",
          "name": "_oldFee",
          "type": "uint256"
        },
        {
          "indexed": false,
          "internalType": "uint256",
          "name": "_newFee",
          "type": "uint256"
        }
      ],
      "name": "LogStabilityFee",
      "type": "event"
    },
    {
      "anonymous": false,
      "inputs": [],
      "name": "LogTapSwapPath",
      "type": "event"
    },
    {
      "anonymous": false,
      "inputs": [
        {
          "indexed": true,
          "internalType": "address",
          "name": "feeTo",
          "type": "address"
        },
        {
          "indexed": false,
          "internalType": "uint256",
          "name": "feesEarned",
          "type": "uint256"
        }
      ],
      "name": "LogWithdrawFees",
      "type": "event"
    },
    {
      "anonymous": false,
      "inputs": [
        {
          "indexed": false,
          "internalType": "uint256",
          "name": "feeShares",
          "type": "uint256"
        },
        {
          "indexed": false,
          "internalType": "uint256",
          "name": "tapAmount",
          "type": "uint256"
        }
      ],
      "name": "LogYieldBoxFeesDeposit",
      "type": "event"
    },
    {
      "anonymous": false,
      "inputs": [
        {
          "indexed": true,
          "internalType": "address",
          "name": "previousOwner",
          "type": "address"
        },
        {
          "indexed": true,
          "internalType": "address",
          "name": "newOwner",
          "type": "address"
        }
      ],
      "name": "OwnershipTransferred",
      "type": "event"
    },
    {
      "inputs": [],
      "name": "accrue",
      "outputs": [],
      "stateMutability": "nonpayable",
      "type": "function"
    },
    {
      "inputs": [],
      "name": "accrueInfo",
      "outputs": [
        {
          "internalType": "uint64",
          "name": "stabilityFee",
          "type": "uint64"
        },
        {
          "internalType": "uint64",
          "name": "lastAccrued",
          "type": "uint64"
        }
      ],
      "stateMutability": "view",
      "type": "function"
    },
    {
      "inputs": [
        {
          "internalType": "address",
          "name": "from",
          "type": "address"
        },
        {
          "internalType": "address",
          "name": "to",
          "type": "address"
        },
        {
          "internalType": "bool",
          "name": "skim",
          "type": "bool"
        },
        {
          "internalType": "uint256",
          "name": "share",
          "type": "uint256"
        }
      ],
      "name": "addCollateral",
      "outputs": [],
      "stateMutability": "nonpayable",
      "type": "function"
    },
    {
      "inputs": [],
      "name": "asset",
      "outputs": [
        {
          "internalType": "contract IUSD0",
          "name": "",
          "type": "address"
        }
      ],
      "stateMutability": "view",
      "type": "function"
    },
    {
      "inputs": [],
      "name": "assetId",
      "outputs": [
        {
          "internalType": "uint256",
          "name": "",
          "type": "uint256"
        }
      ],
      "stateMutability": "view",
      "type": "function"
    },
    {
      "inputs": [
        {
          "internalType": "address",
          "name": "",
          "type": "address"
        }
      ],
      "name": "balanceOf",
      "outputs": [
        {
          "internalType": "uint256",
          "name": "",
          "type": "uint256"
        }
      ],
      "stateMutability": "view",
      "type": "function"
    },
    {
      "inputs": [],
      "name": "beachBar",
      "outputs": [
        {
          "internalType": "contract IBeachBar",
          "name": "",
          "type": "address"
        }
      ],
      "stateMutability": "view",
      "type": "function"
    },
    {
      "inputs": [
        {
          "internalType": "address",
          "name": "from",
          "type": "address"
        },
        {
          "internalType": "address",
          "name": "to",
          "type": "address"
        },
        {
          "internalType": "uint256",
          "name": "amount",
          "type": "uint256"
        }
      ],
      "name": "borrow",
      "outputs": [
        {
          "internalType": "uint256",
          "name": "part",
          "type": "uint256"
        },
        {
          "internalType": "uint256",
          "name": "share",
          "type": "uint256"
        }
      ],
      "stateMutability": "nonpayable",
      "type": "function"
    },
    {
      "inputs": [],
      "name": "borrowingFee",
      "outputs": [
        {
          "internalType": "uint256",
          "name": "",
          "type": "uint256"
        }
      ],
      "stateMutability": "view",
      "type": "function"
    },
    {
      "inputs": [],
      "name": "claimOwnership",
      "outputs": [],
      "stateMutability": "nonpayable",
      "type": "function"
    },
    {
      "inputs": [],
      "name": "collateral",
      "outputs": [
        {
          "internalType": "contract IERC20",
          "name": "",
          "type": "address"
        }
      ],
      "stateMutability": "view",
      "type": "function"
    },
    {
      "inputs": [],
      "name": "collateralId",
      "outputs": [
        {
          "internalType": "uint256",
          "name": "",
          "type": "uint256"
        }
      ],
      "stateMutability": "view",
      "type": "function"
    },
    {
      "inputs": [
        {
          "internalType": "contract IMultiSwapper",
          "name": "swapper",
          "type": "address"
        },
        {
          "components": [
            {
              "internalType": "uint256",
              "name": "minAssetAmount",
              "type": "uint256"
            }
          ],
          "internalType": "struct IBeachBar.SwapData",
          "name": "swapData",
          "type": "tuple"
        }
      ],
      "name": "depositFeesToYieldBox",
      "outputs": [],
      "stateMutability": "nonpayable",
      "type": "function"
    },
    {
      "inputs": [],
      "name": "exchangeRate",
      "outputs": [
        {
          "internalType": "uint256",
          "name": "",
          "type": "uint256"
        }
      ],
      "stateMutability": "view",
      "type": "function"
    },
    {
      "inputs": [
        {
          "internalType": "address",
          "name": "",
          "type": "address"
        },
        {
          "internalType": "address",
          "name": "",
          "type": "address"
        }
      ],
      "name": "isApprovedForAll",
      "outputs": [
        {
          "internalType": "bool",
          "name": "",
          "type": "bool"
        }
      ],
      "stateMutability": "view",
      "type": "function"
    },
    {
      "inputs": [
        {
          "internalType": "address[]",
          "name": "users",
          "type": "address[]"
        },
        {
          "internalType": "uint256[]",
          "name": "maxBorrowParts",
          "type": "uint256[]"
        },
        {
          "internalType": "contract IMultiSwapper",
          "name": "swapper",
          "type": "address"
        },
        {
          "internalType": "bytes",
          "name": "collateralToAssetSwapData",
          "type": "bytes"
        }
      ],
      "name": "liquidate",
      "outputs": [],
      "stateMutability": "nonpayable",
      "type": "function"
    },
    {
      "inputs": [],
      "name": "owner",
      "outputs": [
        {
          "internalType": "address",
          "name": "",
          "type": "address"
        }
      ],
      "stateMutability": "view",
      "type": "function"
    },
    {
      "inputs": [],
      "name": "pendingOwner",
      "outputs": [
        {
          "internalType": "address",
          "name": "",
          "type": "address"
        }
      ],
      "stateMutability": "view",
      "type": "function"
    },
    {
      "inputs": [
        {
          "internalType": "address",
          "name": "from",
          "type": "address"
        },
        {
          "internalType": "address",
          "name": "to",
          "type": "address"
        },
        {
          "internalType": "uint256",
          "name": "share",
          "type": "uint256"
        }
      ],
      "name": "removeCollateral",
      "outputs": [],
      "stateMutability": "nonpayable",
      "type": "function"
    },
    {
      "inputs": [
        {
          "internalType": "address",
          "name": "from",
          "type": "address"
        },
        {
          "internalType": "address",
          "name": "to",
          "type": "address"
        },
        {
          "internalType": "uint256",
          "name": "part",
          "type": "uint256"
        }
      ],
      "name": "repay",
      "outputs": [
        {
          "internalType": "uint256",
          "name": "amount",
          "type": "uint256"
        }
      ],
      "stateMutability": "nonpayable",
      "type": "function"
    },
    {
      "inputs": [
        {
          "internalType": "uint256",
          "name": "_cap",
          "type": "uint256"
        }
      ],
      "name": "setBorrowCap",
      "outputs": [],
      "stateMutability": "nonpayable",
      "type": "function"
    },
    {
      "inputs": [
        {
          "internalType": "address[]",
          "name": "_collateralSwapPath",
          "type": "address[]"
        }
      ],
      "name": "setCollateralSwapPath",
      "outputs": [],
      "stateMutability": "nonpayable",
      "type": "function"
    },
    {
      "inputs": [
        {
          "internalType": "address[]",
          "name": "_tapSwapPath",
          "type": "address[]"
        }
      ],
      "name": "setTapSwapPath",
      "outputs": [],
      "stateMutability": "nonpayable",
      "type": "function"
    },
    {
      "inputs": [],
      "name": "totalBorrow",
      "outputs": [
        {
          "internalType": "uint128",
          "name": "elastic",
          "type": "uint128"
        },
        {
          "internalType": "uint128",
          "name": "base",
          "type": "uint128"
        }
      ],
      "stateMutability": "view",
      "type": "function"
    },
    {
      "inputs": [],
      "name": "totalBorrowCap",
      "outputs": [
        {
          "internalType": "uint256",
          "name": "",
          "type": "uint256"
        }
      ],
      "stateMutability": "view",
      "type": "function"
    },
    {
      "inputs": [],
      "name": "totalCollateralShare",
      "outputs": [
        {
          "internalType": "uint256",
          "name": "",
          "type": "uint256"
        }
      ],
      "stateMutability": "view",
      "type": "function"
    },
    {
      "inputs": [
        {
          "internalType": "address",
          "name": "newOwner",
          "type": "address"
        },
        {
          "internalType": "bool",
          "name": "direct",
          "type": "bool"
        },
        {
          "internalType": "bool",
          "name": "renounce",
          "type": "bool"
        }
      ],
      "name": "transferOwnership",
      "outputs": [],
      "stateMutability": "nonpayable",
      "type": "function"
    },
    {
      "inputs": [
        {
          "internalType": "uint256",
          "name": "_borrowingFee",
          "type": "uint256"
        }
      ],
      "name": "updateBorrowingFee",
      "outputs": [],
      "stateMutability": "nonpayable",
      "type": "function"
    },
    {
      "inputs": [],
      "name": "updateExchangeRate",
      "outputs": [
        {
          "internalType": "bool",
          "name": "updated",
          "type": "bool"
        },
        {
          "internalType": "uint256",
          "name": "rate",
          "type": "uint256"
        }
      ],
      "stateMutability": "nonpayable",
      "type": "function"
    },
    {
      "inputs": [
        {
          "internalType": "uint64",
          "name": "_stabilityFee",
          "type": "uint64"
        }
      ],
      "name": "updateStabilityFee",
      "outputs": [],
      "stateMutability": "nonpayable",
      "type": "function"
    },
    {
      "inputs": [
        {
          "internalType": "address",
          "name": "",
          "type": "address"
        }
      ],
      "name": "userBorrowPart",
      "outputs": [
        {
          "internalType": "uint256",
          "name": "",
          "type": "uint256"
        }
      ],
      "stateMutability": "view",
      "type": "function"
    },
    {
      "inputs": [
        {
          "internalType": "address",
          "name": "",
          "type": "address"
        }
      ],
      "name": "userCollateralShare",
      "outputs": [
        {
          "internalType": "uint256",
          "name": "",
          "type": "uint256"
        }
      ],
      "stateMutability": "view",
      "type": "function"
    },
    {
      "inputs": [],
      "name": "yieldBox",
      "outputs": [
        {
          "internalType": "contract YieldBox",
          "name": "",
          "type": "address"
        }
      ],
      "stateMutability": "view",
      "type": "function"
    }
  ],
  "transactionHash": "0x8983eab51ddd2b274775fe2c54de39ec7b2bdc2d0da5d76ffedd9e61c2c62c18",
  "args": [
    "0x25D9b60e7465C084E056E8c754aEe2708F0314Aa",
    "0x84C7dD519Ea924bf1Cf6613f9127F26D7aB801D0",
    "2",
    "0x41dC15C448aB9141254EEd98F562a407E915d3b1",
    [
      "0x9F737c63B04f8544A88b8Fb55Fa897252E79bED9",
      "0x4663B30afc168A6D1810fA6857a74d04bf632E54"
    ],
    [
      "0x84C7dD519Ea924bf1Cf6613f9127F26D7aB801D0",
      "0x9F737c63B04f8544A88b8Fb55Fa897252E79bED9"
    ]
  ],
  "numDeployments": 1,
  "solcInputHash": "12bed09d37b36bbc7317def4b1944122",
  "bytecode": "0x60806040523480156200001157600080fd5b5060405162003b3d38038062003b3d8339810160408190526200003491620005b6565b600080546001600160a01b0319163390811782556040519091907f8be0079c531659141344cd1fd0a4f28419497f9722a3daafe3b4186f6b6457e0908290a3600380546001600160a01b0319166001600160a01b0388169081179091556040805163de40657760e01b8152905163de40657791600480820192602092909190829003018186803b158015620000c857600080fd5b505afa158015620000dd573d6000803e3d6000fd5b505050506040513d601f19601f8201168201806040525081019062000103919062000669565b600480546001600160a01b03199081166001600160a01b03938416179091556003546000805491909316911617905581516200014790601390602085019062000447565b5080516200015d90601490602084019062000447565b5060035460408051631192124760e11b815290516000926001600160a01b031691632324248e916004808301926020929190829003018186803b158015620001a457600080fd5b505afa158015620001b9573d6000803e3d6000fd5b505050506040513d601f19601f82011682018060405250810190620001df919062000669565b90506001600160a01b038616158015906200020257506001600160a01b03811615155b80156200021757506001600160a01b03841615155b620002575760405162461bcd60e51b815260206004820152600c60248201526b26bc1d103130b2103830b4b960a11b604482015260640160405180910390fd5b600680546001600160a01b0319166001600160a01b0383811691909117909155600354604080516386c8e21d60e01b8152905191909216916386c8e21d916004808301926020929190829003018186803b158015620002b557600080fd5b505afa158015620002ca573d6000803e3d6000fd5b505050506040513d601f19601f82011682018060405250810190620002f0919062000690565b600855600580546001600160a01b038089166001600160a01b03199283161790925560078790556012805492871692909116919091179055600280546001600160401b0319166312e687c0179055620003486200036a565b5050600080546001600160a01b0319163317905550620006df95505050505050565b60125460405163d6d7d52560e01b8152602060048201526000602482018190529182916001600160a01b039091169063d6d7d525906044016040805180830381600087803b158015620003bc57600080fd5b505af1158015620003d1573d6000803e3d6000fd5b505050506040513d601f19601f82011682018060405250810190620003f79190620006aa565b909250905081156200043f5760108190556040518181527f9f9192b5edb17356c524e08d9e025c8e2f6307e6ea52fb7968faa3081f51c3c89060200160405180910390a19091565b506010549091565b8280548282559060005260206000209081019282156200049f579160200282015b828111156200049f57825182546001600160a01b0319166001600160a01b0390911617825560209092019160019091019062000468565b50620004ad929150620004b1565b5090565b5b80821115620004ad5760008155600101620004b2565b6001600160a01b0381168114620004de57600080fd5b50565b634e487b7160e01b600052604160045260246000fd5b80516200050481620004c8565b919050565b600082601f8301126200051b57600080fd5b815160206001600160401b03808311156200053a576200053a620004e1565b8260051b604051601f19603f83011681018181108482111715620005625762000562620004e1565b6040529384528581018301938381019250878511156200058157600080fd5b83870191505b84821015620005ab576200059b82620004f7565b8352918301919083019062000587565b979650505050505050565b60008060008060008060c08789031215620005d057600080fd5b8651620005dd81620004c8565b6020880151909650620005f081620004c8565b6040880151606089015191965094506200060a81620004c8565b60808801519093506001600160401b03808211156200062857600080fd5b620006368a838b0162000509565b935060a08901519150808211156200064d57600080fd5b506200065c89828a0162000509565b9150509295509295509295565b6000602082840312156200067c57600080fd5b81516200068981620004c8565b9392505050565b600060208284031215620006a357600080fd5b5051919050565b60008060408385031215620006be57600080fd5b82518015158114620006cf57600080fd5b6020939093015192949293505050565b61344e80620006ef6000396000f3fe608060405234801561001057600080fd5b506004361061020b5760003560e01c80635224372c1161012a5780638da5cb5b116100bd578063de4065771161008c578063e985e9c511610071578063e985e9c5146104df578063eec0f42e1461051d578063f8ba4cff1461052657600080fd5b8063de406577146104b9578063e30c3978146104cc57600080fd5b80638da5cb5b1461043b578063b27c0e741461044e578063cce19f8114610493578063d8dfeb45146104a657600080fd5b806370a08231116100f957806370a08231146103c1578063717186d1146103e15780638285ef40146103f45780638377be501461043257600080fd5b80635224372c146103605780635b487f4a14610388578063678b43211461039b5780636dbe21ff146103ae57600080fd5b806338d52e0f116101a2578063473e3ce711610171578063473e3ce71461031c57806348e4163e146103255780634a50ed27146103455780634e71e0c81461035857600080fd5b806338d52e0f146102d65780633ba0b9a91461030157806340626d8b1461030a57806344de240a1461031357600080fd5b80631da649cf116101de5780631da649cf1461028a578063224d763a1461029d57806325be7824146102b05780632cc2470d146102c357600080fd5b806302ce728f14610210578063078dfbe7146102345780630fde08e3146102495780631c9e379b1461025c575b600080fd5b61021861052e565b6040805192151583526020830191909152015b60405180910390f35b610247610242366004612eca565b61061f565b005b610247610257366004612f15565b610785565b61027c61026a366004612f56565b600d6020526000908152604090205481565b60405190815260200161022b565b61027c610298366004612f73565b610f69565b6102476102ab366004613000565b610ff4565b6102476102be3660046130dc565b611023565b6102476102d136600461312d565b61114a565b6006546102e9906001600160a01b031681565b6040516001600160a01b03909116815260200161022b565b61027c60105481565b61027c600b5481565b61027c60085481565b61027c60095481565b61027c610333366004612f56565b600e6020526000908152604090205481565b6003546102e9906001600160a01b031681565b610247611238565b61037361036e366004612f73565b611302565b6040805192835260208301919091520161022b565b610247610396366004613146565b6113df565b6102476103a9366004613188565b611473565b6102476103bc366004613146565b61159b565b61027c6103cf366004612f56565b600c6020526000908152604090205481565b6102476103ef36600461312d565b61162f565b600a54610412906001600160801b0380821691600160801b90041682565b604080516001600160801b0393841681529290911660208301520161022b565b61027c60115481565b6000546102e9906001600160a01b031681565b6002546104729067ffffffffffffffff808216916801000000000000000090041682565b6040805167ffffffffffffffff93841681529290911660208301520161022b565b6102476104a1366004612f73565b6116ca565b6005546102e9906001600160a01b031681565b6004546102e9906001600160a01b031681565b6001546102e9906001600160a01b031681565b61050d6104ed3660046131b2565b600f60209081526000928352604080842090915290825290205460ff1681565b604051901515815260200161022b565b61027c60075481565b61024761179a565b6012546040517fd6d7d525000000000000000000000000000000000000000000000000000000008152602060048201526000602482018190529182916001600160a01b039091169063d6d7d525906044016040805180830381600087803b15801561059857600080fd5b505af11580156105ac573d6000803e3d6000fd5b505050506040513d601f19601f820116820180604052508101906105d091906131eb565b909250905081156106175760108190556040518181527f9f9192b5edb17356c524e08d9e025c8e2f6307e6ea52fb7968faa3081f51c3c89060200160405180910390a19091565b506010549091565b6000546001600160a01b0316331461067e5760405162461bcd60e51b815260206004820181905260248201527f4f776e61626c653a2063616c6c6572206973206e6f7420746865206f776e657260448201526064015b60405180910390fd5b8115610756576001600160a01b0383161515806106985750805b6106e45760405162461bcd60e51b815260206004820152601560248201527f4f776e61626c653a207a65726f206164647265737300000000000000000000006044820152606401610675565b600080546040516001600160a01b03808716939216917f8be0079c531659141344cd1fd0a4f28419497f9722a3daafe3b4186f6b6457e091a3600080546001600160a01b03851673ffffffffffffffffffffffffffffffffffffffff1991821617909155600180549091169055505050565b600180546001600160a01b03851673ffffffffffffffffffffffffffffffffffffffff19909116179055505050565b600354604051634656bfdf60e11b81526001600160a01b03848116600483015290911690638cad7fbe9060240160206040518083038186803b1580156107ca57600080fd5b505afa1580156107de573d6000803e3d6000fd5b505050506040513d601f19601f820116820180604052508101906108029190613219565b61084e5760405162461bcd60e51b815260206004820152601360248201527f4d783a20496e76616c69642073776170706572000000000000000000000000006044820152606401610675565b6006546040517f70a082310000000000000000000000000000000000000000000000000000000081523060048201526000916001600160a01b0316906370a082319060240160206040518083038186803b1580156108ab57600080fd5b505afa1580156108bf573d6000803e3d6000fd5b505050506040513d601f19601f820116820180604052508101906108e39190613236565b905080600c6000600360009054906101000a90046001600160a01b03166001600160a01b031663017e7e586040518163ffffffff1660e01b815260040160206040518083038186803b15801561093857600080fd5b505afa15801561094c573d6000803e3d6000fd5b505050506040513d601f19601f82011682018060405250810190610970919061324f565b6001600160a01b03166001600160a01b03168152602001908152602001600020600082825461099f9190613282565b909155505060035460408051622fcfcb60e31b815290516001600160a01b039092169163017e7e5891600480820192602092909190829003018186803b1580156109e857600080fd5b505afa1580156109fc573d6000803e3d6000fd5b505050506040513d601f19601f82011682018060405250810190610a20919061324f565b6001600160a01b03167fbe641c3ffc44b2d6c184f023fa4ed7bda4b6ffa71e03b3c98ae0c776da1f17e782604051610a5a91815260200190565b60405180910390a260035460408051622fcfcb60e31b815290516000926001600160a01b03169163017e7e58916004808301926020929190829003018186803b158015610aa657600080fd5b505afa158015610aba573d6000803e3d6000fd5b505050506040513d601f19601f82011682018060405250810190610ade919061324f565b90506000600360009054906101000a90046001600160a01b03166001600160a01b0316630feb123d6040518163ffffffff1660e01b815260040160206040518083038186803b158015610b3057600080fd5b505afa158015610b44573d6000803e3d6000fd5b505050506040513d601f19601f82011682018060405250810190610b68919061324f565b6001600160a01b0383166000908152600c602052604090205490915015610f6257600480546008546001600160a01b038581166000908152600c6020526040808220549051638eb22cdd60e01b8152958601939093526024850192909252604484018290529092911690638eb22cdd9060640160206040518083038186803b158015610bf357600080fd5b505afa158015610c07573d6000803e3d6000fd5b505050506040513d601f19601f82011682018060405250810190610c2b9190613236565b600654600480546001600160a01b038781166000908152600c60205260409081902054905163095ea7b360e01b8152928216938301939093526024820192909252929350169063095ea7b390604401602060405180830381600087803b158015610c9457600080fd5b505af1158015610ca8573d6000803e3d6000fd5b505050506040513d601f19601f82011682018060405250810190610ccc9190613219565b50600480546008546001600160a01b038681166000908152600c6020526040808220549051634d4d7cbd60e11b81529586019390935230602486018190526044860152606485019290925260848401919091521690639a9af97a9060a4016040805180830381600087803b158015610d4357600080fd5b505af1158015610d57573d6000803e3d6000fd5b505050506040513d601f19601f82011682018060405250810190610d7b919061329a565b50506001600160a01b038381166000908152600c602052604080822091909155600480546008549251630208d92960e11b815230928101929092528984166024830152604482019290925260648101849052911690630411b25290608401600060405180830381600087803b158015610df357600080fd5b505af1158015610e07573d6000803e3d6000fd5b505050506000866001600160a01b031663ce58b200600854600360009054906101000a90046001600160a01b03166001600160a01b0316630e7ee2276040518163ffffffff1660e01b815260040160206040518083038186803b158015610e6d57600080fd5b505afa158015610e81573d6000803e3d6000fd5b505050506040513d601f19601f82011682018060405250810190610ea59190613236565b6040516001600160e01b031960e085901b168152610ed19291908b359089906013908a906004016132be565b6040805180830381600087803b158015610eea57600080fd5b505af1158015610efe573d6000803e3d6000fd5b505050506040513d601f19601f82011682018060405250810190610f22919061329a565b5060408051848152602081018390529192507fa4fef2aee55b8c5258b39e504f59d0fb9960865de9cc847e769cd282b6769363910160405180910390a150505b5050505050565b6000836001600160a01b0381163314801590610fa957506001600160a01b0381166000908152600f6020908152604080832033845290915290205460ff16155b15610fd857604051630ca03e9b60e11b81526001600160a01b0382166004820152336024820152604401610675565b610fe061179a565b610feb858585611921565b95945050505050565b6000610ffe61052e565b91505061100961179a565b6110198888888888868989611b5f565b5050505050505050565b836001600160a01b038116331480159061106157506001600160a01b0381166000908152600f6020908152604080832033845290915290205460ff16155b1561109057604051630ca03e9b60e11b81526001600160a01b0382166004820152336024820152604401610675565b6001600160a01b0384166000908152600d6020526040812080548492906110b8908490613282565b90915550506009546110ca8382613282565b6009556007546110de9087908584886124d2565b846001600160a01b0316846110f35786611100565b6004546001600160a01b03165b6001600160a01b03167f9ed03113de523cebfe5e49d5f8e12894b1c0d42ce805990461726444c90eab878560405161113a91815260200190565b60405180910390a3505050505050565b6000546001600160a01b031633146111a45760405162461bcd60e51b815260206004820181905260248201527f4f776e61626c653a2063616c6c6572206973206e6f7420746865206f776e65726044820152606401610675565b620138808111156111f75760405162461bcd60e51b815260206004820152601360248201527f4d783a2076616c7565206e6f742076616c6964000000000000000000000000006044820152606401610675565b60115460408051918252602082018390527fc353b09af857951dccce61b43a5854fc45beceed36c50e5d4cc2e71858a8e0df910160405180910390a1601155565b6001546001600160a01b03163381146112935760405162461bcd60e51b815260206004820181905260248201527f4f776e61626c653a2063616c6c657220213d2070656e64696e67206f776e65726044820152606401610675565b600080546040516001600160a01b03808516939216917f8be0079c531659141344cd1fd0a4f28419497f9722a3daafe3b4186f6b6457e091a3600080546001600160a01b0390921673ffffffffffffffffffffffffffffffffffffffff19928316179055600180549091169055565b60008084806001600160a01b038116331480159061134457506001600160a01b0381166000908152600f6020908152604080832033845290915290205460ff16155b1561137357604051630ca03e9b60e11b81526001600160a01b0382166004820152336024820152604401610675565b61137b61179a565b611386878787612637565b601054919550935061139a915082906129e2565b6113d65760405162461bcd60e51b815260206004820152600d60248201526c135e0e881a5b9cdbdb1d995b9d609a1b6044820152606401610675565b50935093915050565b6000546001600160a01b031633146114395760405162461bcd60e51b815260206004820181905260248201527f4f776e61626c653a2063616c6c6572206973206e6f7420746865206f776e65726044820152606401610675565b61144560138383612e1f565b506040517fde461cbb4d8705a5f1990f72cad419e082733b8287de2f8bad9172f1e6ab19d590600090a15050565b6000546001600160a01b031633146114cd5760405162461bcd60e51b815260206004820181905260248201527f4f776e61626c653a2063616c6c6572206973206e6f7420746865206f776e65726044820152606401610675565b670b1a2bc2ec5000008167ffffffffffffffff16111561152f5760405162461bcd60e51b815260206004820152601360248201527f4d783a2076616c7565206e6f742076616c6964000000000000000000000000006044820152606401610675565b6002546040805167ffffffffffffffff928316815291831660208301527fe3f402a6a81de53f360f6de77e18a3d547706f02f542d8faa56e80832dad95fc910160405180910390a16002805467ffffffffffffffff191667ffffffffffffffff92909216919091179055565b6000546001600160a01b031633146115f55760405162461bcd60e51b815260206004820181905260248201527f4f776e61626c653a2063616c6c6572206973206e6f7420746865206f776e65726044820152606401610675565b61160160148383612e1f565b506040517f3a358c2b91254f51dc2e51496b2fb716f30a767a4129cfcdf9cb2c5ef478eebf90600090a15050565b6000546001600160a01b031633146116895760405162461bcd60e51b815260206004820181905260248201527f4f776e61626c653a2063616c6c6572206973206e6f7420746865206f776e65726044820152606401610675565b600b5460408051918252602082018390527fae6e0ab3b95f0a53ff9660a390ccedcbbf1f2355dce974a9841af106fddcfaba910160405180910390a1600b55565b82806001600160a01b038116331480159061170957506001600160a01b0381166000908152600f6020908152604080832033845290915290205460ff16155b1561173857604051630ca03e9b60e11b81526001600160a01b0382166004820152336024820152604401610675565b61174061179a565b61174b858585612b41565b50611758816010546129e2565b6117945760405162461bcd60e51b815260206004820152600d60248201526c135e0e881a5b9cdbdb1d995b9d609a1b6044820152606401610675565b50505050565b6040805180820190915260025467ffffffffffffffff80821683526801000000000000000090910416602082018190526000906117d7904261333c565b9050806117e2575050565b67ffffffffffffffff42811660208085019190915260408051808201909152600a546001600160801b03808216808452600160801b909204169282019290925284519092600092670de0b6b3a764000092869261184192911690613353565b61184b9190613353565b6118559190613372565b905080826000018181516118699190613394565b6001600160801b0390811690915283516020808601518316600160801b029190921617600a558551600280549288015167ffffffffffffffff90811668010000000000000000026fffffffffffffffffffffffffffffffff199490941690831617929092179091556040517f7484db546dcd57af0104c73c8a6968dfbaf5767f047cee0dadd0499ad7df81a092506119139184825267ffffffffffffffff16602082015260400190565b60405180910390a150505050565b60408051808201909152600a546001600160801b038082168352600160801b90910416602082015260009061195890836001612c53565b81516020928301516001600160801b03908116600160801b02911617600a556001600160a01b0385166000908152600e909252604082208054919350849290916119a390849061333c565b90915550600090506119b5838361333c565b905060006119c3828461333c565b600480546008546040517f8d2e63b8000000000000000000000000000000000000000000000000000000008152928301526001600160a01b03898116602484015230604484015260648301879052600060848401529293509190911690638d2e63b89060a4016040805180830381600087803b158015611a4257600080fd5b505af1158015611a56573d6000803e3d6000fd5b505050506040513d601f19601f82011682018060405250810190611a7a919061329a565b50508015611b00576006546040517f9dc29fac000000000000000000000000000000000000000000000000000000008152306004820152602481018390526001600160a01b0390911690639dc29fac90604401600060405180830381600087803b158015611ae757600080fd5b505af1158015611afb573d6000803e3d6000fd5b505050505b846001600160a01b0316866001600160a01b03167fc8e512d8f188ca059984b5853d2bf653da902696b8512785b182b2c813789a6e8587604051611b4e929190918252602082015260400190565b60405180910390a350509392505050565b60408051808201909152600a546001600160801b038082168352600160801b90910416602082015260009081908190815b8b811015611e405760008d8d83818110611bac57611bac6133bf565b9050602002016020810190611bc19190612f56565b9050611bcd818a6129e2565b611e2d576001600160a01b0381166000908152600e6020526040812054808e8e86818110611bfd57611bfd6133bf565b9050602002013511611c27578d8d85818110611c1b57611c1b6133bf565b90506020020135611c29565b805b9150611c35828261333c565b6001600160a01b0384166000908152600e60205260408120919091559050611c5e858383612cbc565b6004546007549192506000916001600160a01b0390911690638eb22cdd90611c91670de0b6b3a7640000620186a0613353565b8f611c9f6201b58088613353565b611ca99190613353565b611cb39190613372565b6040516001600160e01b031960e085901b168152600481019290925260248201526000604482015260640160206040518083038186803b158015611cf657600080fd5b505afa158015611d0a573d6000803e3d6000fd5b505050506040513d601f19601f82011682018060405250810190611d2e9190613236565b6001600160a01b0385166000908152600d6020526040812080549293508392909190611d5b90849061333c565b925050819055508c6001600160a01b0316846001600160a01b03167f8ad4d3ff00da092c7ad9a573ea4f5f6a3dffc6712dc06d3f78f49b862297c40283604051611da791815260200190565b60405180910390a3836001600160a01b03168d6001600160a01b03167fc8e512d8f188ca059984b5853d2bf653da902696b8512785b182b2c813789a6e8486604051611dfd929190918252602082015260400190565b60405180910390a3611e0f818a613282565b9850611e1b8289613282565b9750611e278388613282565b96505050505b5080611e38816133d5565b915050611b90565b5082611e8e5760405162461bcd60e51b815260206004820152600b60248201527f4d783a20736f6c76656e740000000000000000000000000000000000000000006044820152606401610675565b8281600001818151611ea091906133f0565b6001600160801b0316905250602081018051839190611ec09083906133f0565b6001600160801b03908116909152825160208401518216600160801b02911617600a555060098054859190600090611ef990849061333c565b909155505060048054600854604051638eb22cdd60e01b81529283015260248201859052600160448301526000916001600160a01b0390911690638eb22cdd9060640160206040518083038186803b158015611f5457600080fd5b505afa158015611f68573d6000803e3d6000fd5b505050506040513d601f19601f82011682018060405250810190611f8c9190613236565b600354604051634656bfdf60e11b81526001600160a01b038c81166004830152929350911690638cad7fbe9060240160206040518083038186803b158015611fd357600080fd5b505afa158015611fe7573d6000803e3d6000fd5b505050506040513d601f19601f8201168201806040525081019061200b9190613219565b6120575760405162461bcd60e51b815260206004820152601360248201527f4d783a20496e76616c69642073776170706572000000000000000000000000006044820152606401610675565b60048054600754604051630208d92960e11b815230938101939093526001600160a01b038c811660248501526044840191909152606483018890521690630411b25290608401600060405180830381600087803b1580156120b757600080fd5b505af11580156120cb573d6000803e3d6000fd5b506000925050871590506120e8576120e58789018961312d565b90505b60048054600854604051627eeac760e11b8152309381019390935260248301526000916001600160a01b039091169062fdd58e9060440160206040518083038186803b15801561213757600080fd5b505afa15801561214b573d6000803e3d6000fd5b505050506040513d601f19601f8201168201806040525081019061216f9190613236565b6007546008546040517fce58b2000000000000000000000000000000000000000000000000000000000081529293506001600160a01b038e169263ce58b200926121c6929091879030906014908f906004016132be565b6040805180830381600087803b1580156121df57600080fd5b505af11580156121f3573d6000803e3d6000fd5b505050506040513d601f19601f82011682018060405250810190612217919061329a565b505060048054600854604051627eeac760e11b8152309381019390935260248301526000916001600160a01b039091169062fdd58e9060440160206040518083038186803b15801561226857600080fd5b505afa15801561227c573d6000803e3d6000fd5b505050506040513d601f19601f820116820180604052508101906122a09190613236565b905060006122ae838361333c565b905060006122bc868361333c565b90506000620186a06122d061271084613353565b6122da9190613372565b90506000620186a06122ef62015f9085613353565b6122f99190613372565b9050826123068284613282565b146123535760405162461bcd60e51b815260206004820152601860248201527f4d783a206665652076616c756573206e6f742076616c696400000000000000006044820152606401610675565b6004805460035460408051622fcfcb60e31b815290516001600160a01b0393841694630411b252943094169263017e7e589281830192602092829003018186803b1580156123a057600080fd5b505afa1580156123b4573d6000803e3d6000fd5b505050506040513d601f19601f820116820180604052508101906123d8919061324f565b6008546040516001600160e01b031960e086901b1681526001600160a01b039384166004820152929091166024830152604482015260648101859052608401600060405180830381600087803b15801561243157600080fd5b505af1158015612445573d6000803e3d6000fd5b505060048054600854604051630208d92960e11b815230938101939093523360248401526044830152606482018590526001600160a01b03169250630411b2529150608401600060405180830381600087803b1580156124a457600080fd5b505af11580156124b8573d6000803e3d6000fd5b505050505050505050505050505050505050505050505050565b80156125bb5760048054604051627eeac760e11b815230928101929092526024820186905283916001600160a01b039091169062fdd58e9060440160206040518083038186803b15801561252557600080fd5b505afa158015612539573d6000803e3d6000fd5b505050506040513d601f19601f8201168201806040525081019061255d9190613236565b612567919061333c565b8311156125b65760405162461bcd60e51b815260206004820152600c60248201527f4d783a20746f6f206d75636800000000000000000000000000000000000000006044820152606401610675565b610f62565b60048054604051630208d92960e11b81526001600160a01b03888116938201939093523060248201526044810187905260648101869052911690630411b25290608401600060405180830381600087803b15801561261857600080fd5b505af115801561262c573d6000803e3d6000fd5b505050505050505050565b6000806000620186a06011548561264e9190613353565b6126589190613372565b90506126976126678286613282565b60408051808201909152600a546001600160801b038082168352600160801b909104166020820152906001612d57565b81516020909201516001600160801b03908116600160801b02921691909117600a55600b5490935015806126df5750600b54600a54600160801b90046001600160801b031611155b61272b5760405162461bcd60e51b815260206004820152601660248201527f4d783a20626f72726f77206361702072656163686564000000000000000000006044820152606401610675565b6001600160a01b0386166000908152600e602052604081208054859290612753908490613282565b90915550506006546040517f40c10f19000000000000000000000000000000000000000000000000000000008152306004820152602481018690526001600160a01b03909116906340c10f1990604401600060405180830381600087803b1580156127bd57600080fd5b505af11580156127d1573d6000803e3d6000fd5b50506006546004805460405163095ea7b360e01b81526001600160a01b039182169281019290925260248201899052909116925063095ea7b39150604401602060405180830381600087803b15801561282957600080fd5b505af115801561283d573d6000803e3d6000fd5b505050506040513d601f19601f820116820180604052508101906128619190613219565b5060048054600854604051634d4d7cbd60e11b8152928301523060248301526001600160a01b03878116604484015260648301879052600060848401521690639a9af97a9060a4016040805180830381600087803b1580156128c257600080fd5b505af11580156128d6573d6000803e3d6000fd5b505050506040513d601f19601f820116820180604052508101906128fa919061329a565b505060048054600854604051638eb22cdd60e01b81529283015260248201869052600060448301526001600160a01b031690638eb22cdd9060640160206040518083038186803b15801561294d57600080fd5b505afa158015612961573d6000803e3d6000fd5b505050506040513d601f19601f820116820180604052508101906129859190613236565b60408051868152602081018490529081018590529092506001600160a01b0380871691908816907f3a5151e57d3bc9798e7853034ac52293d1a0e12a2b44725e75b03b21f86477a69060600160405180910390a350935093915050565b6001600160a01b0382166000908152600e602052604081205480612a0a576001915050612b3b565b6001600160a01b0384166000908152600d6020908152604091829020548251808401909352600a546001600160801b03808216808652600160801b90920416928401839052909291908690612a5f9086613353565b612a699190613353565b612a739190613372565b6004546007546001600160a01b039091169063442c159990620124f8612aa4620186a0670de0b6b3a7640000613372565b612aae9088613353565b612ab89190613353565b6040516001600160e01b031960e085901b168152600481019290925260248201526000604482015260640160206040518083038186803b158015612afb57600080fd5b505afa158015612b0f573d6000803e3d6000fd5b505050506040513d601f19601f82011682018060405250810190612b339190613236565b101593505050505b92915050565b6001600160a01b0383166000908152600d602052604081208054839290612b6990849061333c565b925050819055508060096000828254612b82919061333c565b92505081905550816001600160a01b0316836001600160a01b03167f8ad4d3ff00da092c7ad9a573ea4f5f6a3dffc6712dc06d3f78f49b862297c40283604051612bce91815260200190565b60405180910390a360048054600754604051630208d92960e11b815230938101939093526001600160a01b0385811660248501526044840191909152606483018490521690630411b25290608401600060405180830381600087803b158015612c3657600080fd5b505af1158015612c4a573d6000803e3d6000fd5b50505050505050565b60408051808201909152600080825260208201526000612c74858585612cbc565b90508085600001818151612c8891906133f0565b6001600160801b0316905250602085018051859190612ca89083906133f0565b6001600160801b0316905250939492505050565b600083602001516001600160801b031660001415612cdb575081612d50565b602084015184516001600160801b0391821691612cf9911685613353565b612d039190613372565b9050818015612d4157508284600001516001600160801b031685602001516001600160801b031683612d359190613353565b612d3f9190613372565b105b15612d505780610feb816133d5565b9392505050565b60408051808201909152600080825260208201526000612d78858585612dac565b90508385600001818151612d8c9190613394565b6001600160801b0316905250602085018051829190612ca8908390613394565b82516000906001600160801b0316612dc5575081612d50565b835160208501516001600160801b0391821691612de3911685613353565b612ded9190613372565b9050818015612d4157508284602001516001600160801b031685600001516001600160801b031683612d359190613353565b828054828255906000526020600020908101928215612e7f579160200282015b82811115612e7f57815473ffffffffffffffffffffffffffffffffffffffff19166001600160a01b03843516178255602090920191600190910190612e3f565b50612e8b929150612e8f565b5090565b5b80821115612e8b5760008155600101612e90565b6001600160a01b0381168114612eb957600080fd5b50565b8015158114612eb957600080fd5b600080600060608486031215612edf57600080fd5b8335612eea81612ea4565b92506020840135612efa81612ebc565b91506040840135612f0a81612ebc565b809150509250925092565b6000808284036040811215612f2957600080fd5b8335612f3481612ea4565b92506020601f1982011215612f4857600080fd5b506020830190509250929050565b600060208284031215612f6857600080fd5b8135612d5081612ea4565b600080600060608486031215612f8857600080fd5b8335612f9381612ea4565b92506020840135612fa381612ea4565b929592945050506040919091013590565b60008083601f840112612fc657600080fd5b50813567ffffffffffffffff811115612fde57600080fd5b6020830191508360208260051b8501011115612ff957600080fd5b9250929050565b60008060008060008060006080888a03121561301b57600080fd5b873567ffffffffffffffff8082111561303357600080fd5b61303f8b838c01612fb4565b909950975060208a013591508082111561305857600080fd5b6130648b838c01612fb4565b909750955060408a0135915061307982612ea4565b9093506060890135908082111561308f57600080fd5b818a0191508a601f8301126130a357600080fd5b8135818111156130b257600080fd5b8b60208285010111156130c457600080fd5b60208301945080935050505092959891949750929550565b600080600080608085870312156130f257600080fd5b84356130fd81612ea4565b9350602085013561310d81612ea4565b9250604085013561311d81612ebc565b9396929550929360600135925050565b60006020828403121561313f57600080fd5b5035919050565b6000806020838503121561315957600080fd5b823567ffffffffffffffff81111561317057600080fd5b61317c85828601612fb4565b90969095509350505050565b60006020828403121561319a57600080fd5b813567ffffffffffffffff81168114612d5057600080fd5b600080604083850312156131c557600080fd5b82356131d081612ea4565b915060208301356131e081612ea4565b809150509250929050565b600080604083850312156131fe57600080fd5b825161320981612ebc565b6020939093015192949293505050565b60006020828403121561322b57600080fd5b8151612d5081612ebc565b60006020828403121561324857600080fd5b5051919050565b60006020828403121561326157600080fd5b8151612d5081612ea4565b634e487b7160e01b600052601160045260246000fd5b600082198211156132955761329561326c565b500190565b600080604083850312156132ad57600080fd5b505080516020909101519092909150565b600060c08201888352602088818501528760408501526001600160a01b03808816606086015260c0608086015282875480855260e0870191508860005283600020945060005b81811015613322578554841683526001958601959285019201613304565b5050809450505050508260a0830152979650505050505050565b60008282101561334e5761334e61326c565b500390565b600081600019048311821515161561336d5761336d61326c565b500290565b60008261338f57634e487b7160e01b600052601260045260246000fd5b500490565b60006001600160801b038083168185168083038211156133b6576133b661326c565b01949350505050565b634e487b7160e01b600052603260045260246000fd5b60006000198214156133e9576133e961326c565b5060010190565b60006001600160801b03838116908316818110156134105761341061326c565b03939250505056fea26469706673582212202b5051dcede1e222a8137cd09f41e6f600283a24df9722c4d76d17df4cbb492264736f6c63430008090033",
  "devdoc": {
    "kind": "dev",
    "methods": {
      "addCollateral(address,address,bool,uint256)": {
        "params": {
          "from": "Account to transfer shares from.",
          "share": "The amount of shares to add for `to`.",
          "skim": "True if the amount should be skimmed from the deposit balance of msg.sender. False if tokens from msg.sender in `yieldBox` should be transferred.",
          "to": "The receiver of the tokens."
        }
      },
      "borrow(address,address,uint256)": {
        "params": {
          "amount": "Amount to borrow.",
          "from": "Account to borrow for.",
          "to": "The receiver of borrowed tokens."
        },
        "returns": {
          "part": "Total part of the debt held by borrowers.",
          "share": "Total amount in shares borrowed."
        }
      },
      "liquidate(address[],uint256[],address,bytes)": {
        "params": {
          "collateralToAssetSwapData": "Extra swap data",
          "maxBorrowParts": "A one-to-one mapping to `users`, contains maximum (partial) borrow amounts (to liquidate) of the respective user.",
          "swapper": "Contract address of the `MultiSwapper` implementation. See `setSwapper`.",
          "users": "An array of user addresses."
        }
      },
      "removeCollateral(address,address,uint256)": {
        "params": {
          "from": "Account to debit collateral from.",
          "share": "Amount of shares to remove.",
          "to": "The receiver of the shares."
        }
      },
      "repay(address,address,uint256)": {
        "params": {
          "from": "Address to repay from.",
          "part": "The amount to repay. See `userBorrowPart`.",
          "to": "Address of the user this payment should go."
        },
        "returns": {
          "amount": "The total amount repayed."
        }
      },
      "setCollateralSwapPath(address[])": {
        "params": {
          "_collateralSwapPath": "The Uniswap path ."
        }
      },
      "setTapSwapPath(address[])": {
        "params": {
          "_tapSwapPath": "The Uniswap path ."
        }
      },
      "transferOwnership(address,bool,bool)": {
        "params": {
          "direct": "True if `newOwner` should be set immediately. False if `newOwner` needs to use `claimOwnership`.",
          "newOwner": "Address of the new owner.",
          "renounce": "Allows the `newOwner` to be `address(0)` if `direct` and `renounce` is True. Has no effect otherwise."
        }
      },
      "updateBorrowingFee(uint256)": {
        "params": {
          "_borrowingFee": "the new value"
        }
      },
      "updateExchangeRate()": {
        "details": "This function is supposed to be invoked if needed because Oracle queries can be expensive.      Oracle should consider USD0 at 1$",
        "returns": {
          "rate": "The new exchange rate.",
          "updated": "True if `exchangeRate` was updated."
        }
      },
      "updateStabilityFee(uint64)": {
        "params": {
          "_stabilityFee": "the new value"
        }
      }
    },
    "version": 1
  },
  "userdoc": {
    "kind": "user",
    "methods": {
      "accrue()": {
        "notice": "Accrues the interest on the borrowed tokens and handles the accumulation of fees."
      },
      "addCollateral(address,address,bool,uint256)": {
        "notice": "Adds `collateral` from msg.sender to the account `to`."
      },
      "borrow(address,address,uint256)": {
        "notice": "Sender borrows `amount` and transfers it to `to`."
      },
      "claimOwnership()": {
        "notice": "Needs to be called by `pendingOwner` to claim ownership."
      },
      "constructor": {
        "notice": "Creates the MinterMixologist contract"
      },
      "depositFeesToYieldBox(address,(uint256))": {
        "notice": "Withdraw the balance of `feeTo`, swap asset into TAP and deposit it to yieldBox of `feeTo`"
      },
      "exchangeRate()": {
        "notice": "Exchange and interest rate tracking. This is 'cached' here because calls to Oracles can be very expensive. Asset -> collateral = assetAmount * exchangeRate."
      },
      "liquidate(address[],uint256[],address,bytes)": {
        "notice": "Entry point for liquidations."
      },
      "removeCollateral(address,address,uint256)": {
        "notice": "Removes `share` amount of collateral and transfers it to `to`."
      },
      "repay(address,address,uint256)": {
        "notice": "Repays a loan."
      },
      "setBorrowCap(uint256)": {
        "notice": "sets max borrowable amount"
      },
      "setCollateralSwapPath(address[])": {
        "notice": "Used to set the swap path of closed liquidations"
      },
      "setTapSwapPath(address[])": {
        "notice": "Used to set the swap path of Asset -> TAP"
      },
      "transferOwnership(address,bool,bool)": {
        "notice": "Transfers ownership to `newOwner`. Either directly or claimable by the new pending owner. Can only be invoked by the current `owner`."
      },
      "updateBorrowingFee(uint256)": {
        "notice": "Updates the borrowing fee"
      },
      "updateExchangeRate()": {
        "notice": "Gets the exchange rate. I.e how much collateral to buy 1e18 asset."
      },
      "updateStabilityFee(uint64)": {
        "notice": "Updates the stability fee"
      }
    },
    "version": 1
  },
  "storageLayout": {
    "storage": [
      {
        "astId": 233,
        "contract": "contracts/usd0/MinterMixologist.sol:MinterMixologist",
        "label": "owner",
        "offset": 0,
        "slot": "0",
        "type": "t_address"
      },
      {
        "astId": 235,
        "contract": "contracts/usd0/MinterMixologist.sol:MinterMixologist",
        "label": "pendingOwner",
        "offset": 0,
        "slot": "1",
        "type": "t_address"
      },
      {
        "astId": 13127,
        "contract": "contracts/usd0/MinterMixologist.sol:MinterMixologist",
        "label": "accrueInfo",
        "offset": 0,
        "slot": "2",
        "type": "t_struct(AccrueInfo)13124_storage"
      },
      {
        "astId": 13130,
        "contract": "contracts/usd0/MinterMixologist.sol:MinterMixologist",
        "label": "beachBar",
        "offset": 0,
        "slot": "3",
        "type": "t_contract(IBeachBar)3128"
      },
      {
        "astId": 13133,
        "contract": "contracts/usd0/MinterMixologist.sol:MinterMixologist",
        "label": "yieldBox",
        "offset": 0,
        "slot": "4",
        "type": "t_contract(YieldBox)17190"
      },
      {
        "astId": 13136,
        "contract": "contracts/usd0/MinterMixologist.sol:MinterMixologist",
        "label": "collateral",
        "offset": 0,
        "slot": "5",
        "type": "t_contract(IERC20)1099"
      },
      {
        "astId": 13139,
        "contract": "contracts/usd0/MinterMixologist.sol:MinterMixologist",
        "label": "asset",
        "offset": 0,
        "slot": "6",
        "type": "t_contract(IUSD0)13099"
      },
      {
        "astId": 13141,
        "contract": "contracts/usd0/MinterMixologist.sol:MinterMixologist",
        "label": "collateralId",
        "offset": 0,
        "slot": "7",
        "type": "t_uint256"
      },
      {
        "astId": 13143,
        "contract": "contracts/usd0/MinterMixologist.sol:MinterMixologist",
        "label": "assetId",
        "offset": 0,
        "slot": "8",
        "type": "t_uint256"
      },
      {
        "astId": 13145,
        "contract": "contracts/usd0/MinterMixologist.sol:MinterMixologist",
        "label": "totalCollateralShare",
        "offset": 0,
        "slot": "9",
        "type": "t_uint256"
      },
      {
        "astId": 13148,
        "contract": "contracts/usd0/MinterMixologist.sol:MinterMixologist",
        "label": "totalBorrow",
        "offset": 0,
        "slot": "10",
        "type": "t_struct(Rebase)1874_storage"
      },
      {
        "astId": 13150,
        "contract": "contracts/usd0/MinterMixologist.sol:MinterMixologist",
        "label": "totalBorrowCap",
        "offset": 0,
        "slot": "11",
        "type": "t_uint256"
      },
      {
        "astId": 13154,
        "contract": "contracts/usd0/MinterMixologist.sol:MinterMixologist",
        "label": "balanceOf",
        "offset": 0,
        "slot": "12",
        "type": "t_mapping(t_address,t_uint256)"
      },
      {
        "astId": 13158,
        "contract": "contracts/usd0/MinterMixologist.sol:MinterMixologist",
        "label": "userCollateralShare",
        "offset": 0,
        "slot": "13",
        "type": "t_mapping(t_address,t_uint256)"
      },
      {
        "astId": 13162,
        "contract": "contracts/usd0/MinterMixologist.sol:MinterMixologist",
        "label": "userBorrowPart",
        "offset": 0,
        "slot": "14",
        "type": "t_mapping(t_address,t_uint256)"
      },
      {
        "astId": 13168,
        "contract": "contracts/usd0/MinterMixologist.sol:MinterMixologist",
        "label": "isApprovedForAll",
        "offset": 0,
        "slot": "15",
        "type": "t_mapping(t_address,t_mapping(t_address,t_bool))"
      },
      {
        "astId": 13171,
        "contract": "contracts/usd0/MinterMixologist.sol:MinterMixologist",
        "label": "exchangeRate",
        "offset": 0,
        "slot": "16",
        "type": "t_uint256"
      },
      {
        "astId": 13173,
        "contract": "contracts/usd0/MinterMixologist.sol:MinterMixologist",
        "label": "borrowingFee",
        "offset": 0,
        "slot": "17",
        "type": "t_uint256"
      },
      {
        "astId": 13176,
        "contract": "contracts/usd0/MinterMixologist.sol:MinterMixologist",
        "label": "oracle",
        "offset": 0,
        "slot": "18",
        "type": "t_contract(IOracle)12167"
      },
      {
        "astId": 13179,
        "contract": "contracts/usd0/MinterMixologist.sol:MinterMixologist",
        "label": "tapSwapPath",
        "offset": 0,
        "slot": "19",
        "type": "t_array(t_address)dyn_storage"
      },
      {
        "astId": 13182,
        "contract": "contracts/usd0/MinterMixologist.sol:MinterMixologist",
        "label": "collateralSwapPath",
        "offset": 0,
        "slot": "20",
        "type": "t_array(t_address)dyn_storage"
      }
    ],
    "types": {
      "t_address": {
        "encoding": "inplace",
        "label": "address",
        "numberOfBytes": "20"
      },
      "t_array(t_address)dyn_storage": {
        "base": "t_address",
        "encoding": "dynamic_array",
        "label": "address[]",
        "numberOfBytes": "32"
      },
      "t_bool": {
        "encoding": "inplace",
        "label": "bool",
        "numberOfBytes": "1"
      },
      "t_contract(IBeachBar)3128": {
        "encoding": "inplace",
        "label": "contract IBeachBar",
        "numberOfBytes": "20"
      },
      "t_contract(IERC20)1099": {
        "encoding": "inplace",
        "label": "contract IERC20",
        "numberOfBytes": "20"
      },
      "t_contract(IOracle)12167": {
        "encoding": "inplace",
        "label": "contract IOracle",
        "numberOfBytes": "20"
      },
      "t_contract(IUSD0)13099": {
        "encoding": "inplace",
        "label": "contract IUSD0",
        "numberOfBytes": "20"
      },
      "t_contract(YieldBox)17190": {
        "encoding": "inplace",
        "label": "contract YieldBox",
        "numberOfBytes": "20"
      },
      "t_mapping(t_address,t_bool)": {
        "encoding": "mapping",
        "key": "t_address",
        "label": "mapping(address => bool)",
        "numberOfBytes": "32",
        "value": "t_bool"
      },
      "t_mapping(t_address,t_mapping(t_address,t_bool))": {
        "encoding": "mapping",
        "key": "t_address",
        "label": "mapping(address => mapping(address => bool))",
        "numberOfBytes": "32",
        "value": "t_mapping(t_address,t_bool)"
      },
      "t_mapping(t_address,t_uint256)": {
        "encoding": "mapping",
        "key": "t_address",
        "label": "mapping(address => uint256)",
        "numberOfBytes": "32",
        "value": "t_uint256"
      },
      "t_struct(AccrueInfo)13124_storage": {
        "encoding": "inplace",
        "label": "struct MinterMixologist.AccrueInfo",
        "members": [
          {
            "astId": 13121,
            "contract": "contracts/usd0/MinterMixologist.sol:MinterMixologist",
            "label": "stabilityFee",
            "offset": 0,
            "slot": "0",
            "type": "t_uint64"
          },
          {
            "astId": 13123,
            "contract": "contracts/usd0/MinterMixologist.sol:MinterMixologist",
            "label": "lastAccrued",
            "offset": 8,
            "slot": "0",
            "type": "t_uint64"
          }
        ],
        "numberOfBytes": "32"
      },
      "t_struct(Rebase)1874_storage": {
        "encoding": "inplace",
        "label": "struct Rebase",
        "members": [
          {
            "astId": 1871,
            "contract": "contracts/usd0/MinterMixologist.sol:MinterMixologist",
            "label": "elastic",
            "offset": 0,
            "slot": "0",
            "type": "t_uint128"
          },
          {
            "astId": 1873,
            "contract": "contracts/usd0/MinterMixologist.sol:MinterMixologist",
            "label": "base",
            "offset": 16,
            "slot": "0",
            "type": "t_uint128"
          }
        ],
        "numberOfBytes": "32"
      },
      "t_uint128": {
        "encoding": "inplace",
        "label": "uint128",
        "numberOfBytes": "16"
      },
      "t_uint256": {
        "encoding": "inplace",
        "label": "uint256",
        "numberOfBytes": "32"
      },
      "t_uint64": {
        "encoding": "inplace",
        "label": "uint64",
        "numberOfBytes": "8"
      }
    }
  }
}