{
  "address": "0x47AdfF1FB7102dC92a1A8bae6410d6F836cBeCF0",
  "abi": [
    {
      "inputs": [
        {
          "internalType": "contract IMixologist",
          "name": "mixologist",
          "type": "address"
        },
        {
          "internalType": "uint256",
          "name": "_collateralAmount",
          "type": "uint256"
        },
        {
          "internalType": "uint256",
          "name": "_borrowAmount",
          "type": "uint256"
        },
        {
          "internalType": "bool",
          "name": "_withdraw",
          "type": "bool"
        }
      ],
      "name": "depositAddCollateralAndBorrow",
      "outputs": [],
      "stateMutability": "nonpayable",
      "type": "function"
    },
    {
      "inputs": [
        {
          "internalType": "contract IMixologist",
          "name": "mixologist",
          "type": "address"
        },
        {
          "internalType": "uint256",
          "name": "_amount",
          "type": "uint256"
        }
      ],
      "name": "depositAndAddAsset",
      "outputs": [],
      "stateMutability": "nonpayable",
      "type": "function"
    },
    {
      "inputs": [
        {
          "internalType": "contract IMixologist",
          "name": "mixologist",
          "type": "address"
        },
        {
          "internalType": "uint256",
          "name": "_depositAmount",
          "type": "uint256"
        },
        {
          "internalType": "uint256",
          "name": "_repayAmount",
          "type": "uint256"
        }
      ],
      "name": "depositAndRepay",
      "outputs": [],
      "stateMutability": "nonpayable",
      "type": "function"
    },
    {
      "inputs": [
        {
          "internalType": "contract IMixologist",
          "name": "mixologist",
          "type": "address"
        },
        {
          "internalType": "uint256",
          "name": "_depositAmount",
          "type": "uint256"
        },
        {
          "internalType": "uint256",
          "name": "_repayAmount",
          "type": "uint256"
        },
        {
          "internalType": "uint256",
          "name": "_collateralAmount",
          "type": "uint256"
        },
        {
          "internalType": "bool",
          "name": "_withdraw",
          "type": "bool"
        }
      ],
      "name": "depositRepayAndRemoveCollateral",
      "outputs": [],
      "stateMutability": "nonpayable",
      "type": "function"
    }
  ],
  "transactionHash": "0x912f7574a06e1b91465e95d28b1549d66478799453f496e2420e9a99d9979c92",
  "args": [],
  "numDeployments": 1,
  "solcInputHash": "2b5f42a1265a0ef96dce6e6947e26261",
  "bytecode": "0x608060405234801561001057600080fd5b50611527806100206000396000f3fe608060405234801561001057600080fd5b506004361061004c5760003560e01c80630883cd78146100515780630f1ae0ab146100665780631e11e5e1146100795780636710e5dc1461008c575b600080fd5b61006461005f36600461131b565b61009f565b005b610064610074366004611365565b610635565b6100646100873660046113bb565b610997565b61006461009a3660046113f0565b610cdf565b6000846001600160a01b031663de4065776040518163ffffffff1660e01b815260040160206040518083038186803b1580156100da57600080fd5b505afa1580156100ee573d6000803e3d6000fd5b505050506040513d601f19601f82011682018060405250810190610112919061141c565b90506000856001600160a01b031663eec0f42e6040518163ffffffff1660e01b815260040160206040518083038186803b15801561014f57600080fd5b505afa158015610163573d6000803e3d6000fd5b505050506040513d601f19601f820116820180604052508101906101879190611440565b604051630cf35bdd60e41b8152600481018290529091506000906001600160a01b0384169063cf35bdd09060240160806040518083038186803b1580156101cd57600080fd5b505afa1580156101e1573d6000803e3d6000fd5b505050506040513d601f19601f820116820180604052508101906102059190611459565b5050915050610214818761105d565b604051638eb22cdd60e01b81526004810183905260248101879052600060448201819052906001600160a01b03851690638eb22cdd9060640160206040518083038186803b15801561026557600080fd5b505afa158015610279573d6000803e3d6000fd5b505050506040513d601f19601f8201168201806040525081019061029d9190611440565b60405163095ea7b360e01b81526001600160a01b038681166004830152602482018a90529192509083169063095ea7b390604401602060405180830381600087803b1580156102eb57600080fd5b505af11580156102ff573d6000803e3d6000fd5b505050506040513d601f19601f8201168201806040525081019061032391906114b0565b50604051634d4d7cbd60e11b8152600481018490523060248201819052604482015260006064820152608481018290526001600160a01b03851690639a9af97a9060a4016040805180830381600087803b15801561038057600080fd5b505af1158015610394573d6000803e3d6000fd5b505050506040513d601f19601f820116820180604052508101906103b891906114cd565b50506103c4888561116a565b6040517f25be782400000000000000000000000000000000000000000000000000000000815230600482015233602482015260006044820152606481018290526001600160a01b038916906325be782490608401600060405180830381600087803b15801561043257600080fd5b505af1158015610446573d6000803e3d6000fd5b505050506000856104575733610459565b305b6040517f5224372c0000000000000000000000000000000000000000000000000000000081523360048201526001600160a01b038083166024830152604482018a9052919250908a1690635224372c906064016040805180830381600087803b1580156104c557600080fd5b505af11580156104d9573d6000803e3d6000fd5b505050506040513d601f19601f820116820180604052508101906104fd91906114cd565b5050851561062a57846001600160a01b0316638d2e63b88a6001600160a01b03166344de240a6040518163ffffffff1660e01b815260040160206040518083038186803b15801561054d57600080fd5b505afa158015610561573d6000803e3d6000fd5b505050506040513d601f19601f820116820180604052508101906105859190611440565b6040517fffffffff0000000000000000000000000000000000000000000000000000000060e084901b1681526004810191909152306024820152336044820152606481018a90526000608482015260a4016040805180830381600087803b1580156105ef57600080fd5b505af1158015610603573d6000803e3d6000fd5b505050506040513d601f19601f8201168201806040525081019061062791906114cd565b50505b505050505050505050565b6000856001600160a01b031663de4065776040518163ffffffff1660e01b815260040160206040518083038186803b15801561067057600080fd5b505afa158015610684573d6000803e3d6000fd5b505050506040513d601f19601f820116820180604052508101906106a8919061141c565b90506106b5868686610997565b6000826106c257336106c4565b305b90506000826001600160a01b0316638eb22cdd896001600160a01b031663eec0f42e6040518163ffffffff1660e01b815260040160206040518083038186803b15801561071057600080fd5b505afa158015610724573d6000803e3d6000fd5b505050506040513d601f19601f820116820180604052508101906107489190611440565b6040517fffffffff0000000000000000000000000000000000000000000000000000000060e084901b1681526004810191909152602481018890526000604482015260640160206040518083038186803b1580156107a557600080fd5b505afa1580156107b9573d6000803e3d6000fd5b505050506040513d601f19601f820116820180604052508101906107dd9190611440565b6040517fcce19f810000000000000000000000000000000000000000000000000000000081523360048201526001600160a01b038481166024830152604482018390529192509089169063cce19f8190606401600060405180830381600087803b15801561084a57600080fd5b505af115801561085e573d6000803e3d6000fd5b50505050831561098d57826001600160a01b0316638d2e63b8896001600160a01b031663eec0f42e6040518163ffffffff1660e01b815260040160206040518083038186803b1580156108b057600080fd5b505afa1580156108c4573d6000803e3d6000fd5b505050506040513d601f19601f820116820180604052508101906108e89190611440565b6040517fffffffff0000000000000000000000000000000000000000000000000000000060e084901b1681526004810191909152306024820152336044820152606481018890526000608482015260a4016040805180830381600087803b15801561095257600080fd5b505af1158015610966573d6000803e3d6000fd5b505050506040513d601f19601f8201168201806040525081019061098a91906114cd565b50505b5050505050505050565b6000836001600160a01b03166344de240a6040518163ffffffff1660e01b815260040160206040518083038186803b1580156109d257600080fd5b505afa1580156109e6573d6000803e3d6000fd5b505050506040513d601f19601f82011682018060405250810190610a0a9190611440565b90506000846001600160a01b031663de4065776040518163ffffffff1660e01b815260040160206040518083038186803b158015610a4757600080fd5b505afa158015610a5b573d6000803e3d6000fd5b505050506040513d601f19601f82011682018060405250810190610a7f919061141c565b604051630cf35bdd60e41b8152600481018490529091506000906001600160a01b0383169063cf35bdd09060240160806040518083038186803b158015610ac557600080fd5b505afa158015610ad9573d6000803e3d6000fd5b505050506040513d601f19601f82011682018060405250810190610afd9190611459565b5050915050610b0c818661105d565b60405163095ea7b360e01b81526001600160a01b0383811660048301526024820187905282169063095ea7b390604401602060405180830381600087803b158015610b5657600080fd5b505af1158015610b6a573d6000803e3d6000fd5b505050506040513d601f19601f82011682018060405250810190610b8e91906114b0565b50604051634d4d7cbd60e11b8152600481018490523060248201819052604482015260648101869052600060848201526001600160a01b03831690639a9af97a9060a4016040805180830381600087803b158015610beb57600080fd5b505af1158015610bff573d6000803e3d6000fd5b505050506040513d601f19601f82011682018060405250810190610c2391906114cd565b5050610c2f868361116a565b6040517fcd0211eb00000000000000000000000000000000000000000000000000000000815230600482015233602482015260006044820152606481018590526001600160a01b0387169063cd0211eb906084015b602060405180830381600087803b158015610c9e57600080fd5b505af1158015610cb2573d6000803e3d6000fd5b505050506040513d601f19601f82011682018060405250810190610cd69190611440565b50505050505050565b6000826001600160a01b03166344de240a6040518163ffffffff1660e01b815260040160206040518083038186803b158015610d1a57600080fd5b505afa158015610d2e573d6000803e3d6000fd5b505050506040513d601f19601f82011682018060405250810190610d529190611440565b90506000836001600160a01b031663de4065776040518163ffffffff1660e01b815260040160206040518083038186803b158015610d8f57600080fd5b505afa158015610da3573d6000803e3d6000fd5b505050506040513d601f19601f82011682018060405250810190610dc7919061141c565b604051630cf35bdd60e41b8152600481018490529091506000906001600160a01b0383169063cf35bdd09060240160806040518083038186803b158015610e0d57600080fd5b505afa158015610e21573d6000803e3d6000fd5b505050506040513d601f19601f82011682018060405250810190610e459190611459565b5050915050610e54818561105d565b604051638eb22cdd60e01b81526004810184905260248101859052600060448201819052906001600160a01b03841690638eb22cdd9060640160206040518083038186803b158015610ea557600080fd5b505afa158015610eb9573d6000803e3d6000fd5b505050506040513d601f19601f82011682018060405250810190610edd9190611440565b60405163095ea7b360e01b81526001600160a01b038581166004830152602482018890529192509083169063095ea7b390604401602060405180830381600087803b158015610f2b57600080fd5b505af1158015610f3f573d6000803e3d6000fd5b505050506040513d601f19601f82011682018060405250810190610f6391906114b0565b50604051634d4d7cbd60e11b8152600481018590523060248201819052604482015260006064820152608481018290526001600160a01b03841690639a9af97a9060a4016040805180830381600087803b158015610fc057600080fd5b505af1158015610fd4573d6000803e3d6000fd5b505050506040513d601f19601f82011682018060405250810190610ff891906114cd565b5050611004868461116a565b6040517f6587adb800000000000000000000000000000000000000000000000000000000815230600482015233602482015260006044820152606481018290526001600160a01b03871690636587adb890608401610c84565b6040517f23b872dd000000000000000000000000000000000000000000000000000000008152336004820152306024820152604481018290526001600160a01b038316906323b872dd90606401602060405180830381600087803b1580156110c457600080fd5b505af11580156110d8573d6000803e3d6000fd5b505050506040513d601f19601f820116820180604052508101906110fc91906114b0565b611166576040517f08c379a000000000000000000000000000000000000000000000000000000000815260206004820152600f60248201527f7472616e73666572206661696c65640000000000000000000000000000000000604482015260640160405180910390fd5b5050565b60405163e985e9c560e01b81523060048201526001600160a01b0383811660248301526000919083169063e985e9c59060440160206040518083038186803b1580156111b557600080fd5b505afa1580156111c9573d6000803e3d6000fd5b505050506040513d601f19601f820116820180604052508101906111ed91906114b0565b905080611270576040517fa22cb4650000000000000000000000000000000000000000000000000000000081526001600160a01b0384811660048301526001602483015283169063a22cb46590604401600060405180830381600087803b15801561125757600080fd5b505af115801561126b573d6000803e3d6000fd5b505050505b60405163e985e9c560e01b81523060048201526001600160a01b03848116602483015283169063e985e9c59060440160206040518083038186803b1580156112b757600080fd5b505afa1580156112cb573d6000803e3d6000fd5b505050506040513d601f19601f820116820180604052508101906112ef91906114b0565b50505050565b6001600160a01b038116811461130a57600080fd5b50565b801515811461130a57600080fd5b6000806000806080858703121561133157600080fd5b843561133c816112f5565b93506020850135925060408501359150606085013561135a8161130d565b939692955090935050565b600080600080600060a0868803121561137d57600080fd5b8535611388816112f5565b945060208601359350604086013592506060860135915060808601356113ad8161130d565b809150509295509295909350565b6000806000606084860312156113d057600080fd5b83356113db816112f5565b95602085013595506040909401359392505050565b6000806040838503121561140357600080fd5b823561140e816112f5565b946020939093013593505050565b60006020828403121561142e57600080fd5b8151611439816112f5565b9392505050565b60006020828403121561145257600080fd5b5051919050565b6000806000806080858703121561146f57600080fd5b84516005811061147e57600080fd5b602086015190945061148f816112f5565b60408601519093506114a0816112f5565b6060959095015193969295505050565b6000602082840312156114c257600080fd5b81516114398161130d565b600080604083850312156114e057600080fd5b50508051602090910151909290915056fea26469706673582212202862e9b2324c624be4b0c8898d07fbb29871801bd54df4904ddc98123fd49aec64736f6c63430008090033",
  "devdoc": {
    "details": "This contract provides useful helper functions for `Mixologist`.",
    "kind": "dev",
    "methods": {
      "depositAddCollateralAndBorrow(address,uint256,uint256,bool)": {
        "params": {
          "_borrowAmount": "the amount to borrow",
          "_collateralAmount": "the collateral amount to add",
          "_withdraw": "if true, withdraws from YieldBox to `msg.sender`",
          "mixologist": "the mixologist address"
        }
      },
      "depositAndAddAsset(address,uint256)": {
        "params": {
          "_amount": "the amount to lend",
          "mixologist": "the mixologist address"
        }
      },
      "depositAndRepay(address,uint256,uint256)": {
        "params": {
          "_depositAmount": "the amount to repay",
          "mixologist": "the mixologist address"
        }
      }
    },
    "version": 1
  },
  "userdoc": {
    "kind": "user",
    "methods": {
      "depositAddCollateralAndBorrow(address,uint256,uint256,bool)": {
        "notice": "deposts collateral to YieldBox, adds collateral to Mixologist, borrows and can withdraw to personal address"
      },
      "depositAndAddAsset(address,uint256)": {
        "notice": "deposits asset to YieldBox and lends it to Mixologist"
      },
      "depositAndRepay(address,uint256,uint256)": {
        "notice": "deposits to YieldBox and repays borrowed amount"
      }
    },
    "version": 1
  },
  "storageLayout": {
    "storage": [],
    "types": null
  }
}