{
  "address": "0x41dC15C448aB9141254EEd98F562a407E915d3b1",
  "abi": [
    {
      "inputs": [],
      "stateMutability": "nonpayable",
      "type": "constructor"
    },
    {
      "inputs": [
        {
          "internalType": "bytes",
          "name": "",
          "type": "bytes"
        }
      ],
      "name": "get",
      "outputs": [
        {
          "internalType": "bool",
          "name": "",
          "type": "bool"
        },
        {
          "internalType": "uint256",
          "name": "",
          "type": "uint256"
        }
      ],
      "stateMutability": "view",
      "type": "function"
    },
    {
      "inputs": [],
      "name": "getDataParameter",
      "outputs": [
        {
          "internalType": "bytes",
          "name": "",
          "type": "bytes"
        }
      ],
      "stateMutability": "pure",
      "type": "function"
    },
    {
      "inputs": [
        {
          "internalType": "bytes",
          "name": "",
          "type": "bytes"
        }
      ],
      "name": "name",
      "outputs": [
        {
          "internalType": "string",
          "name": "",
          "type": "string"
        }
      ],
      "stateMutability": "pure",
      "type": "function"
    },
    {
      "inputs": [
        {
          "internalType": "bytes",
          "name": "",
          "type": "bytes"
        }
      ],
      "name": "peek",
      "outputs": [
        {
          "internalType": "bool",
          "name": "",
          "type": "bool"
        },
        {
          "internalType": "uint256",
          "name": "",
          "type": "uint256"
        }
      ],
      "stateMutability": "view",
      "type": "function"
    },
    {
      "inputs": [
        {
          "internalType": "bytes",
          "name": "",
          "type": "bytes"
        }
      ],
      "name": "peekSpot",
      "outputs": [
        {
          "internalType": "uint256",
          "name": "",
          "type": "uint256"
        }
      ],
      "stateMutability": "view",
      "type": "function"
    },
    {
      "inputs": [],
      "name": "rate",
      "outputs": [
        {
          "internalType": "uint256",
          "name": "",
          "type": "uint256"
        }
      ],
      "stateMutability": "view",
      "type": "function"
    },
    {
      "inputs": [
        {
          "internalType": "uint256",
          "name": "rate_",
          "type": "uint256"
        }
      ],
      "name": "set",
      "outputs": [],
      "stateMutability": "nonpayable",
      "type": "function"
    },
    {
      "inputs": [
        {
          "internalType": "bool",
          "name": "val",
          "type": "bool"
        }
      ],
      "name": "setSuccess",
      "outputs": [],
      "stateMutability": "nonpayable",
      "type": "function"
    },
    {
      "inputs": [],
      "name": "success",
      "outputs": [
        {
          "internalType": "bool",
          "name": "",
          "type": "bool"
        }
      ],
      "stateMutability": "view",
      "type": "function"
    },
    {
      "inputs": [
        {
          "internalType": "bytes",
          "name": "",
          "type": "bytes"
        }
      ],
      "name": "symbol",
      "outputs": [
        {
          "internalType": "string",
          "name": "",
          "type": "string"
        }
      ],
      "stateMutability": "pure",
      "type": "function"
    }
  ],
  "transactionHash": "0x652da376fc2e1f51e1f99ccd8fdfda1e34eab890f0bdb76062a7390fa6859280",
  "args": [],
  "numDeployments": 1,
  "solcInputHash": "b3258eb62c4af0711b9da84af2de4b8b",
  "bytecode": "0x608060405234801561001057600080fd5b506001805460ff1916811790556103c18061002c6000396000f3fe608060405234801561001057600080fd5b50600436106100be5760003560e01c8063c699c4d611610076578063d568866c1161005b578063d568866c146101a4578063d6d7d525146101eb578063eeb8a8d3146101eb57600080fd5b8063c699c4d614610147578063d39bbef01461018e57600080fd5b80632c4e722e116100a75780632c4e722e146100fa57806360fe47b1146101115780637bcc7f811461012657600080fd5b80630b93381b146100c35780632b39febd146100e5575b600080fd5b6001546100d09060ff1681565b60405190151581526020015b60405180910390f35b6100ed610220565b6040516100dc91906102c4565b61010360005481565b6040519081526020016100dc565b61012461011f3660046102de565b600055565b005b6101246101343660046102f7565b6001805460ff1916911515919091179055565b6100ed610155366004610319565b505060408051808201909152600481527f5445535400000000000000000000000000000000000000000000000000000000602082015290565b61010361019c366004610319565b505060005490565b6100ed6101b2366004610319565b505060408051808201909152600481527f5465737400000000000000000000000000000000000000000000000000000000602082015290565b6102096101f9366004610319565b505060015460005460ff90911691565b6040805192151583526020830191909152016100dc565b60606040516020016102639060208082526003908201527f3078300000000000000000000000000000000000000000000000000000000000604082015260600190565b604051602081830303815290604052905090565b6000815180845260005b8181101561029d57602081850181015186830182015201610281565b818111156102af576000602083870101525b50601f01601f19169290920160200192915050565b6020815260006102d76020830184610277565b9392505050565b6000602082840312156102f057600080fd5b5035919050565b60006020828403121561030957600080fd5b813580151581146102d757600080fd5b6000806020838503121561032c57600080fd5b823567ffffffffffffffff8082111561034457600080fd5b818501915085601f83011261035857600080fd5b81358181111561036757600080fd5b86602082850101111561037957600080fd5b6020929092019691955090935050505056fea2646970667358221220b9c564e6946fb4ca523f1cb1309877638eff5326e5b19124d0cf71ee7067596364736f6c634300080f0033",
  "devdoc": {
    "kind": "dev",
    "methods": {},
    "version": 1
  },
  "userdoc": {
    "kind": "user",
    "methods": {},
    "version": 1
  },
  "storageLayout": {
    "storage": [
      {
        "astId": 4411,
        "contract": "contracts/mixologist/legacy/mocks/OracleMock.sol:OracleMock",
        "label": "rate",
        "offset": 0,
        "slot": "0",
        "type": "t_uint256"
      },
      {
        "astId": 4413,
        "contract": "contracts/mixologist/legacy/mocks/OracleMock.sol:OracleMock",
        "label": "success",
        "offset": 0,
        "slot": "1",
        "type": "t_bool"
      }
    ],
    "types": {
      "t_bool": {
        "encoding": "inplace",
        "label": "bool",
        "numberOfBytes": "1"
      },
      "t_uint256": {
        "encoding": "inplace",
        "label": "uint256",
        "numberOfBytes": "32"
      }
    }
  }
}