{
  "address": "0x5d405f701fb11f749e2D8D5D73A70181Ef25d457",
  "abi": [
    {
      "inputs": [
        {
          "internalType": "address",
          "name": "_from",
          "type": "address"
        },
        {
          "internalType": "address",
          "name": "_operator",
          "type": "address"
        }
      ],
      "name": "NotApproved",
      "type": "error"
    },
    {
      "anonymous": false,
      "inputs": [
        {
          "indexed": true,
          "internalType": "address",
          "name": "owner",
          "type": "address"
        },
        {
          "indexed": true,
          "internalType": "address",
          "name": "spender",
          "type": "address"
        },
        {
          "indexed": false,
          "internalType": "uint256",
          "name": "value",
          "type": "uint256"
        }
      ],
      "name": "Approval",
      "type": "event"
    },
    {
      "anonymous": false,
      "inputs": [
        {
          "indexed": false,
          "internalType": "uint256",
          "name": "accruedAmount",
          "type": "uint256"
        },
        {
          "indexed": false,
          "internalType": "uint256",
          "name": "feeFraction",
          "type": "uint256"
        },
        {
          "indexed": false,
          "internalType": "uint64",
          "name": "rate",
          "type": "uint64"
        },
        {
          "indexed": false,
          "internalType": "uint256",
          "name": "utilization",
          "type": "uint256"
        }
      ],
      "name": "LogAccrue",
      "type": "event"
    },
    {
      "anonymous": false,
      "inputs": [
        {
          "indexed": true,
          "internalType": "address",
          "name": "from",
          "type": "address"
        },
        {
          "indexed": true,
          "internalType": "address",
          "name": "to",
          "type": "address"
        },
        {
          "indexed": false,
          "internalType": "uint256",
          "name": "share",
          "type": "uint256"
        },
        {
          "indexed": false,
          "internalType": "uint256",
          "name": "fraction",
          "type": "uint256"
        }
      ],
      "name": "LogAddAsset",
      "type": "event"
    },
    {
      "anonymous": false,
      "inputs": [
        {
          "indexed": true,
          "internalType": "address",
          "name": "from",
          "type": "address"
        },
        {
          "indexed": true,
          "internalType": "address",
          "name": "to",
          "type": "address"
        },
        {
          "indexed": false,
          "internalType": "uint256",
          "name": "share",
          "type": "uint256"
        }
      ],
      "name": "LogAddCollateral",
      "type": "event"
    },
    {
      "anonymous": false,
      "inputs": [
        {
          "indexed": true,
          "internalType": "address",
          "name": "_from",
          "type": "address"
        },
        {
          "indexed": true,
          "internalType": "address",
          "name": "_operator",
          "type": "address"
        },
        {
          "indexed": false,
          "internalType": "bool",
          "name": "_approved",
          "type": "bool"
        }
      ],
      "name": "LogApprovalForAll",
      "type": "event"
    },
    {
      "anonymous": false,
      "inputs": [
        {
          "indexed": true,
          "internalType": "address",
          "name": "from",
          "type": "address"
        },
        {
          "indexed": true,
          "internalType": "address",
          "name": "to",
          "type": "address"
        },
        {
          "indexed": false,
          "internalType": "uint256",
          "name": "amount",
          "type": "uint256"
        },
        {
          "indexed": false,
          "internalType": "uint256",
          "name": "feeAmount",
          "type": "uint256"
        },
        {
          "indexed": false,
          "internalType": "uint256",
          "name": "part",
          "type": "uint256"
        }
      ],
      "name": "LogBorrow",
      "type": "event"
    },
    {
      "anonymous": false,
      "inputs": [
        {
          "indexed": false,
          "internalType": "uint256",
          "name": "_oldVal",
          "type": "uint256"
        },
        {
          "indexed": false,
          "internalType": "uint256",
          "name": "_newVal",
          "type": "uint256"
        }
      ],
      "name": "LogBorrowCapUpdated",
      "type": "event"
    },
    {
      "anonymous": false,
      "inputs": [
        {
          "indexed": false,
          "internalType": "uint256",
          "name": "rate",
          "type": "uint256"
        }
      ],
      "name": "LogExchangeRate",
      "type": "event"
    },
    {
      "anonymous": false,
      "inputs": [
        {
          "indexed": true,
          "internalType": "address",
          "name": "borrower",
          "type": "address"
        },
        {
          "indexed": false,
          "internalType": "uint256",
          "name": "amount",
          "type": "uint256"
        },
        {
          "indexed": false,
          "internalType": "uint256",
          "name": "feeAmount",
          "type": "uint256"
        },
        {
          "indexed": true,
          "internalType": "address",
          "name": "receiver",
          "type": "address"
        }
      ],
      "name": "LogFlashLoan",
      "type": "event"
    },
    {
      "anonymous": false,
      "inputs": [
        {
          "indexed": true,
          "internalType": "address",
          "name": "from",
          "type": "address"
        },
        {
          "indexed": true,
          "internalType": "address",
          "name": "to",
          "type": "address"
        },
        {
          "indexed": false,
          "internalType": "uint256",
          "name": "share",
          "type": "uint256"
        },
        {
          "indexed": false,
          "internalType": "uint256",
          "name": "fraction",
          "type": "uint256"
        }
      ],
      "name": "LogRemoveAsset",
      "type": "event"
    },
    {
      "anonymous": false,
      "inputs": [
        {
          "indexed": true,
          "internalType": "address",
          "name": "from",
          "type": "address"
        },
        {
          "indexed": true,
          "internalType": "address",
          "name": "to",
          "type": "address"
        },
        {
          "indexed": false,
          "internalType": "uint256",
          "name": "share",
          "type": "uint256"
        }
      ],
      "name": "LogRemoveCollateral",
      "type": "event"
    },
    {
      "anonymous": false,
      "inputs": [
        {
          "indexed": true,
          "internalType": "address",
          "name": "from",
          "type": "address"
        },
        {
          "indexed": true,
          "internalType": "address",
          "name": "to",
          "type": "address"
        },
        {
          "indexed": false,
          "internalType": "uint256",
          "name": "amount",
          "type": "uint256"
        },
        {
          "indexed": false,
          "internalType": "uint256",
          "name": "part",
          "type": "uint256"
        }
      ],
      "name": "LogRepay",
      "type": "event"
    },
    {
      "anonymous": false,
      "inputs": [
        {
          "indexed": true,
          "internalType": "address",
          "name": "feeTo",
          "type": "address"
        },
        {
          "indexed": false,
          "internalType": "uint256",
          "name": "feesEarnedFraction",
          "type": "uint256"
        }
      ],
      "name": "LogWithdrawFees",
      "type": "event"
    },
    {
      "anonymous": false,
      "inputs": [
        {
          "indexed": false,
          "internalType": "uint256",
          "name": "feeShares",
          "type": "uint256"
        },
        {
          "indexed": false,
          "internalType": "uint256",
          "name": "tapAmount",
          "type": "uint256"
        }
      ],
      "name": "LogYieldBoxFeesDeposit",
      "type": "event"
    },
    {
      "anonymous": false,
      "inputs": [
        {
          "indexed": true,
          "internalType": "address",
          "name": "previousOwner",
          "type": "address"
        },
        {
          "indexed": true,
          "internalType": "address",
          "name": "newOwner",
          "type": "address"
        }
      ],
      "name": "OwnershipTransferred",
      "type": "event"
    },
    {
      "anonymous": false,
      "inputs": [
        {
          "indexed": true,
          "internalType": "address",
          "name": "from",
          "type": "address"
        },
        {
          "indexed": true,
          "internalType": "address",
          "name": "to",
          "type": "address"
        },
        {
          "indexed": false,
          "internalType": "uint256",
          "name": "value",
          "type": "uint256"
        }
      ],
      "name": "Transfer",
      "type": "event"
    },
    {
      "inputs": [],
      "name": "DOMAIN_SEPARATOR",
      "outputs": [
        {
          "internalType": "bytes32",
          "name": "",
          "type": "bytes32"
        }
      ],
      "stateMutability": "view",
      "type": "function"
    },
    {
      "inputs": [],
      "name": "accrue",
      "outputs": [],
      "stateMutability": "nonpayable",
      "type": "function"
    },
    {
      "inputs": [],
      "name": "accrueInfo",
      "outputs": [
        {
          "internalType": "uint64",
          "name": "interestPerSecond",
          "type": "uint64"
        },
        {
          "internalType": "uint64",
          "name": "lastAccrued",
          "type": "uint64"
        },
        {
          "internalType": "uint128",
          "name": "feesEarnedFraction",
          "type": "uint128"
        }
      ],
      "stateMutability": "view",
      "type": "function"
    },
    {
      "inputs": [
        {
          "internalType": "address",
          "name": "from",
          "type": "address"
        },
        {
          "internalType": "address",
          "name": "to",
          "type": "address"
        },
        {
          "internalType": "bool",
          "name": "skim",
          "type": "bool"
        },
        {
          "internalType": "uint256",
          "name": "share",
          "type": "uint256"
        }
      ],
      "name": "addAsset",
      "outputs": [
        {
          "internalType": "uint256",
          "name": "fraction",
          "type": "uint256"
        }
      ],
      "stateMutability": "nonpayable",
      "type": "function"
    },
    {
      "inputs": [
        {
          "internalType": "address",
          "name": "from",
          "type": "address"
        },
        {
          "internalType": "address",
          "name": "to",
          "type": "address"
        },
        {
          "internalType": "bool",
          "name": "skim",
          "type": "bool"
        },
        {
          "internalType": "uint256",
          "name": "share",
          "type": "uint256"
        }
      ],
      "name": "addCollateral",
      "outputs": [],
      "stateMutability": "nonpayable",
      "type": "function"
    },
    {
      "inputs": [
        {
          "internalType": "address",
          "name": "",
          "type": "address"
        },
        {
          "internalType": "address",
          "name": "",
          "type": "address"
        }
      ],
      "name": "allowance",
      "outputs": [
        {
          "internalType": "uint256",
          "name": "",
          "type": "uint256"
        }
      ],
      "stateMutability": "view",
      "type": "function"
    },
    {
      "inputs": [
        {
          "internalType": "address",
          "name": "spender",
          "type": "address"
        },
        {
          "internalType": "uint256",
          "name": "amount",
          "type": "uint256"
        }
      ],
      "name": "approve",
      "outputs": [
        {
          "internalType": "bool",
          "name": "",
          "type": "bool"
        }
      ],
      "stateMutability": "nonpayable",
      "type": "function"
    },
    {
      "inputs": [],
      "name": "asset",
      "outputs": [
        {
          "internalType": "contract IERC20",
          "name": "",
          "type": "address"
        }
      ],
      "stateMutability": "view",
      "type": "function"
    },
    {
      "inputs": [],
      "name": "assetId",
      "outputs": [
        {
          "internalType": "uint256",
          "name": "",
          "type": "uint256"
        }
      ],
      "stateMutability": "view",
      "type": "function"
    },
    {
      "inputs": [
        {
          "internalType": "address",
          "name": "",
          "type": "address"
        }
      ],
      "name": "balanceOf",
      "outputs": [
        {
          "internalType": "uint256",
          "name": "",
          "type": "uint256"
        }
      ],
      "stateMutability": "view",
      "type": "function"
    },
    {
      "inputs": [],
      "name": "beachBar",
      "outputs": [
        {
          "internalType": "contract IBeachBar",
          "name": "",
          "type": "address"
        }
      ],
      "stateMutability": "view",
      "type": "function"
    },
    {
      "inputs": [
        {
          "internalType": "address",
          "name": "from",
          "type": "address"
        },
        {
          "internalType": "address",
          "name": "to",
          "type": "address"
        },
        {
          "internalType": "uint256",
          "name": "amount",
          "type": "uint256"
        }
      ],
      "name": "borrow",
      "outputs": [
        {
          "internalType": "uint256",
          "name": "part",
          "type": "uint256"
        },
        {
          "internalType": "uint256",
          "name": "share",
          "type": "uint256"
        }
      ],
      "stateMutability": "nonpayable",
      "type": "function"
    },
    {
      "inputs": [],
      "name": "claimOwnership",
      "outputs": [],
      "stateMutability": "nonpayable",
      "type": "function"
    },
    {
      "inputs": [],
      "name": "collateral",
      "outputs": [
        {
          "internalType": "contract IERC20",
          "name": "",
          "type": "address"
        }
      ],
      "stateMutability": "view",
      "type": "function"
    },
    {
      "inputs": [],
      "name": "collateralId",
      "outputs": [
        {
          "internalType": "uint256",
          "name": "",
          "type": "uint256"
        }
      ],
      "stateMutability": "view",
      "type": "function"
    },
    {
      "inputs": [],
      "name": "decimals",
      "outputs": [
        {
          "internalType": "uint8",
          "name": "",
          "type": "uint8"
        }
      ],
      "stateMutability": "view",
      "type": "function"
    },
    {
      "inputs": [],
      "name": "exchangeRate",
      "outputs": [
        {
          "internalType": "uint256",
          "name": "",
          "type": "uint256"
        }
      ],
      "stateMutability": "view",
      "type": "function"
    },
    {
      "inputs": [
        {
          "internalType": "contract IFlashBorrower",
          "name": "borrower",
          "type": "address"
        },
        {
          "internalType": "address",
          "name": "receiver",
          "type": "address"
        },
        {
          "internalType": "uint256",
          "name": "amount",
          "type": "uint256"
        },
        {
          "internalType": "bytes",
          "name": "data",
          "type": "bytes"
        }
      ],
      "name": "flashLoan",
      "outputs": [],
      "stateMutability": "nonpayable",
      "type": "function"
    },
    {
      "inputs": [
        {
          "internalType": "address",
          "name": "",
          "type": "address"
        },
        {
          "internalType": "address",
          "name": "",
          "type": "address"
        }
      ],
      "name": "isApprovedForAll",
      "outputs": [
        {
          "internalType": "bool",
          "name": "",
          "type": "bool"
        }
      ],
      "stateMutability": "view",
      "type": "function"
    },
    {
      "inputs": [],
      "name": "liquidationQueue",
      "outputs": [
        {
          "internalType": "contract ILiquidationQueue",
          "name": "",
          "type": "address"
        }
      ],
      "stateMutability": "view",
      "type": "function"
    },
    {
      "inputs": [],
      "name": "name",
      "outputs": [
        {
          "internalType": "string",
          "name": "",
          "type": "string"
        }
      ],
      "stateMutability": "view",
      "type": "function"
    },
    {
      "inputs": [
        {
          "internalType": "address",
          "name": "",
          "type": "address"
        }
      ],
      "name": "nonces",
      "outputs": [
        {
          "internalType": "uint256",
          "name": "",
          "type": "uint256"
        }
      ],
      "stateMutability": "view",
      "type": "function"
    },
    {
      "inputs": [],
      "name": "oracle",
      "outputs": [
        {
          "internalType": "contract IOracle",
          "name": "",
          "type": "address"
        }
      ],
      "stateMutability": "view",
      "type": "function"
    },
    {
      "inputs": [],
      "name": "oracleData",
      "outputs": [
        {
          "internalType": "bytes",
          "name": "",
          "type": "bytes"
        }
      ],
      "stateMutability": "view",
      "type": "function"
    },
    {
      "inputs": [],
      "name": "owner",
      "outputs": [
        {
          "internalType": "address",
          "name": "",
          "type": "address"
        }
      ],
      "stateMutability": "view",
      "type": "function"
    },
    {
      "inputs": [],
      "name": "pendingOwner",
      "outputs": [
        {
          "internalType": "address",
          "name": "",
          "type": "address"
        }
      ],
      "stateMutability": "view",
      "type": "function"
    },
    {
      "inputs": [
        {
          "internalType": "address",
          "name": "owner_",
          "type": "address"
        },
        {
          "internalType": "address",
          "name": "spender",
          "type": "address"
        },
        {
          "internalType": "uint256",
          "name": "value",
          "type": "uint256"
        },
        {
          "internalType": "uint256",
          "name": "deadline",
          "type": "uint256"
        },
        {
          "internalType": "uint8",
          "name": "v",
          "type": "uint8"
        },
        {
          "internalType": "bytes32",
          "name": "r",
          "type": "bytes32"
        },
        {
          "internalType": "bytes32",
          "name": "s",
          "type": "bytes32"
        }
      ],
      "name": "permit",
      "outputs": [],
      "stateMutability": "nonpayable",
      "type": "function"
    },
    {
      "inputs": [
        {
          "internalType": "address",
          "name": "from",
          "type": "address"
        },
        {
          "internalType": "address",
          "name": "to",
          "type": "address"
        },
        {
          "internalType": "uint256",
          "name": "fraction",
          "type": "uint256"
        }
      ],
      "name": "removeAsset",
      "outputs": [
        {
          "internalType": "uint256",
          "name": "share",
          "type": "uint256"
        }
      ],
      "stateMutability": "nonpayable",
      "type": "function"
    },
    {
      "inputs": [
        {
          "internalType": "address",
          "name": "from",
          "type": "address"
        },
        {
          "internalType": "address",
          "name": "to",
          "type": "address"
        },
        {
          "internalType": "uint256",
          "name": "share",
          "type": "uint256"
        }
      ],
      "name": "removeCollateral",
      "outputs": [],
      "stateMutability": "nonpayable",
      "type": "function"
    },
    {
      "inputs": [
        {
          "internalType": "address",
          "name": "from",
          "type": "address"
        },
        {
          "internalType": "address",
          "name": "to",
          "type": "address"
        },
        {
          "internalType": "bool",
          "name": "skim",
          "type": "bool"
        },
        {
          "internalType": "uint256",
          "name": "part",
          "type": "uint256"
        }
      ],
      "name": "repay",
      "outputs": [
        {
          "internalType": "uint256",
          "name": "amount",
          "type": "uint256"
        }
      ],
      "stateMutability": "nonpayable",
      "type": "function"
    },
    {
      "inputs": [],
      "name": "symbol",
      "outputs": [
        {
          "internalType": "string",
          "name": "",
          "type": "string"
        }
      ],
      "stateMutability": "view",
      "type": "function"
    },
    {
      "inputs": [],
      "name": "totalAsset",
      "outputs": [
        {
          "internalType": "uint128",
          "name": "elastic",
          "type": "uint128"
        },
        {
          "internalType": "uint128",
          "name": "base",
          "type": "uint128"
        }
      ],
      "stateMutability": "view",
      "type": "function"
    },
    {
      "inputs": [],
      "name": "totalBorrow",
      "outputs": [
        {
          "internalType": "uint128",
          "name": "elastic",
          "type": "uint128"
        },
        {
          "internalType": "uint128",
          "name": "base",
          "type": "uint128"
        }
      ],
      "stateMutability": "view",
      "type": "function"
    },
    {
      "inputs": [],
      "name": "totalBorrowCap",
      "outputs": [
        {
          "internalType": "uint256",
          "name": "",
          "type": "uint256"
        }
      ],
      "stateMutability": "view",
      "type": "function"
    },
    {
      "inputs": [],
      "name": "totalCollateralShare",
      "outputs": [
        {
          "internalType": "uint256",
          "name": "",
          "type": "uint256"
        }
      ],
      "stateMutability": "view",
      "type": "function"
    },
    {
      "inputs": [],
      "name": "totalSupply",
      "outputs": [
        {
          "internalType": "uint256",
          "name": "",
          "type": "uint256"
        }
      ],
      "stateMutability": "view",
      "type": "function"
    },
    {
      "inputs": [
        {
          "internalType": "address",
          "name": "to",
          "type": "address"
        },
        {
          "internalType": "uint256",
          "name": "amount",
          "type": "uint256"
        }
      ],
      "name": "transfer",
      "outputs": [
        {
          "internalType": "bool",
          "name": "",
          "type": "bool"
        }
      ],
      "stateMutability": "nonpayable",
      "type": "function"
    },
    {
      "inputs": [
        {
          "internalType": "address",
          "name": "from",
          "type": "address"
        },
        {
          "internalType": "address",
          "name": "to",
          "type": "address"
        },
        {
          "internalType": "uint256",
          "name": "amount",
          "type": "uint256"
        }
      ],
      "name": "transferFrom",
      "outputs": [
        {
          "internalType": "bool",
          "name": "",
          "type": "bool"
        }
      ],
      "stateMutability": "nonpayable",
      "type": "function"
    },
    {
      "inputs": [
        {
          "internalType": "address",
          "name": "newOwner",
          "type": "address"
        },
        {
          "internalType": "bool",
          "name": "direct",
          "type": "bool"
        },
        {
          "internalType": "bool",
          "name": "renounce",
          "type": "bool"
        }
      ],
      "name": "transferOwnership",
      "outputs": [],
      "stateMutability": "nonpayable",
      "type": "function"
    },
    {
      "inputs": [],
      "name": "updateExchangeRate",
      "outputs": [
        {
          "internalType": "bool",
          "name": "updated",
          "type": "bool"
        },
        {
          "internalType": "uint256",
          "name": "rate",
          "type": "uint256"
        }
      ],
      "stateMutability": "nonpayable",
      "type": "function"
    },
    {
      "inputs": [
        {
          "internalType": "address",
          "name": "",
          "type": "address"
        }
      ],
      "name": "userBorrowPart",
      "outputs": [
        {
          "internalType": "uint256",
          "name": "",
          "type": "uint256"
        }
      ],
      "stateMutability": "view",
      "type": "function"
    },
    {
      "inputs": [
        {
          "internalType": "address",
          "name": "",
          "type": "address"
        }
      ],
      "name": "userCollateralShare",
      "outputs": [
        {
          "internalType": "uint256",
          "name": "",
          "type": "uint256"
        }
      ],
      "stateMutability": "view",
      "type": "function"
    },
    {
      "inputs": [],
      "name": "yieldBox",
      "outputs": [
        {
          "internalType": "contract YieldBox",
          "name": "",
          "type": "address"
        }
      ],
      "stateMutability": "view",
      "type": "function"
    }
  ],
  "transactionHash": "0x3f26f03822d040c31d24a4de8c7b061720082f2fb7e767438ef19c4c49e9a911",
  "args": [],
  "numDeployments": 1,
  "solcInputHash": "2612d1c2a88385f6d32eefa521bedfe0",
  "bytecode": "0x60c060405234801561001057600080fd5b50600080546001600160a01b0319163390811782556040519091907f8be0079c531659141344cd1fd0a4f28419497f9722a3daafe3b4186f6b6457e0908290a34660a08190526100b390604080517f47e79534a245952e8b16893a336b85a3d9ea9fa8c573f3d803afb92a794692186020820152908101829052306060820152600090608001604051602081830303815290604052805190602001209050919050565b60805260805160a051614027620000dc60003960006125140152600061254501526140276000f3fe608060405234801561001057600080fd5b50600436106102e95760003560e01c806370a0823111610191578063cd0211eb116100e3578063e30c397811610097578063f4d9375311610071578063f4d93753146106d6578063f8ba4cff146106e9578063f9557ccb146106f157600080fd5b8063e30c39781461068c578063e985e9c51461069f578063eec0f42e146106cd57600080fd5b8063d8dfeb45116100c8578063d8dfeb451461063b578063dd62ed3e1461064e578063de4065771461067957600080fd5b8063cd0211eb14610615578063d505accf1461062857600080fd5b80638da5cb5b11610145578063b27c0e741161011f578063b27c0e7414610588578063c23ea21f146105ef578063cce19f811461060257600080fd5b80638da5cb5b1461055a57806395d89b411461056d578063a9059cbb1461057557600080fd5b80637dc0d1d0116101765780637dc0d1d0146104e95780637ecebe00146104fc5780638285ef401461051c57600080fd5b806370a08231146104c157806374645ff3146104e157600080fd5b806338d52e0f1161024a57806348e4163e116101fe5780635224372c116101d85780635224372c146104735780635cffe9de1461049b5780636587adb8146104ae57600080fd5b806348e4163e146104385780634a50ed27146104585780634e71e0c81461046b57600080fd5b806340626d8b1161022f57806340626d8b1461041d57806344de240a14610426578063473e3ce71461042f57600080fd5b806338d52e0f146103e95780633ba0b9a91461041457600080fd5b80631c9e379b116102a157806325be78241161028657806325be7824146103b4578063313ce567146103c75780633644e515146103e157600080fd5b80631c9e379b1461038157806323b872dd146103a157600080fd5b8063078dfbe7116102d2578063078dfbe714610327578063095ea7b31461033c57806318160ddd1461035f57600080fd5b806302ce728f146102ee57806306fdde0314610312575b600080fd5b6102f661070f565b6040805192151583526020830191909152015b60405180910390f35b61031a6107fe565b6040516103099190613822565b61033a61033536600461385b565b6108ef565b005b61034f61034a3660046138a6565b610a55565b6040519015158152602001610309565b600e54600160801b90046001600160801b03165b604051908152602001610309565b61037361038f3660046138d2565b60126020526000908152604090205481565b61034f6103af3660046138ef565b610ac2565b61033a6103c2366004613930565b610cef565b6103cf610e1d565b60405160ff9091168152602001610309565b610373610e3a565b600a546103fc906001600160a01b031681565b6040516001600160a01b039091168152602001610309565b61037360155481565b61037360105481565b610373600c5481565b610373600d5481565b6103736104463660046138d2565b60136020526000908152604090205481565b6006546103fc906001600160a01b031681565b61033a610e44565b6104866104813660046138ef565b610f0e565b60408051928352602083019190915201610309565b61033a6104a93660046139f0565b610ffd565b6103736104bc366004613930565b6113fe565b6103736104cf3660046138d2565b60026020526000908152604090205481565b61031a611492565b6016546103fc906001600160a01b031681565b61037361050a3660046138d2565b60046020526000908152604090205481565b600f5461053a906001600160801b0380821691600160801b90041682565b604080516001600160801b03938416815292909116602083015201610309565b6000546103fc906001600160a01b031681565b61031a611520565b61034f6105833660046138a6565b6115fd565b6005546105bf9067ffffffffffffffff8082169168010000000000000000810490911690600160801b90046001600160801b031683565b6040805167ffffffffffffffff94851681529390921660208401526001600160801b031690820152606001610309565b6008546103fc906001600160a01b031681565b61033a6106103660046138ef565b611762565b610373610623366004613930565b61183a565b61033a610636366004613aae565b6118ce565b6009546103fc906001600160a01b031681565b61037361065c366004613b1f565b600360209081526000928352604080842090915290825290205481565b6007546103fc906001600160a01b031681565b6001546103fc906001600160a01b031681565b61034f6106ad366004613b1f565b601460209081526000928352604080842090915290825290205460ff1681565b610373600b5481565b6103736106e43660046138ef565b611b24565b61033a611bb8565b600e5461053a906001600160801b0380821691600160801b90041682565b6016546040517fd6d7d52500000000000000000000000000000000000000000000000000000000815260009182916001600160a01b039091169063d6d7d5259061075e90601790600401613b93565b6040805180830381600087803b15801561077757600080fd5b505af115801561078b573d6000803e3d6000fd5b505050506040513d601f19601f820116820180604052508101906107af9190613c3b565b909250905081156107f65760158190556040518181527f9f9192b5edb17356c524e08d9e025c8e2f6307e6ea52fb7968faa3081f51c3c89060200160405180910390a19091565b506015549091565b600954606090610816906001600160a01b03166121b3565b600a5461082b906001600160a01b03166121b3565b6016546040517fd568866c0000000000000000000000000000000000000000000000000000000081526001600160a01b039091169063d568866c9061087590601790600401613b93565b60006040518083038186803b15801561088d57600080fd5b505afa1580156108a1573d6000803e3d6000fd5b505050506040513d6000823e601f3d908101601f191682016040526108c99190810190613c69565b6040516020016108db93929190613cd7565b604051602081830303815290604052905090565b6000546001600160a01b0316331461094e5760405162461bcd60e51b815260206004820181905260248201527f4f776e61626c653a2063616c6c6572206973206e6f7420746865206f776e657260448201526064015b60405180910390fd5b8115610a26576001600160a01b0383161515806109685750805b6109b45760405162461bcd60e51b815260206004820152601560248201527f4f776e61626c653a207a65726f206164647265737300000000000000000000006044820152606401610945565b600080546040516001600160a01b03808716939216917f8be0079c531659141344cd1fd0a4f28419497f9722a3daafe3b4186f6b6457e091a3600080546001600160a01b03851673ffffffffffffffffffffffffffffffffffffffff1991821617909155600180549091169055505050565b600180546001600160a01b03851673ffffffffffffffffffffffffffffffffffffffff19909116179055505050565b3360008181526003602090815260408083206001600160a01b038716808552925280832085905551919290917f8c5be1e5ebec7d5bd14f71427d1e84f3dd0314c0f7b2291e5b200ac8c7c3b92590610ab09086815260200190565b60405180910390a35060015b92915050565b60008115610c97576001600160a01b03841660009081526002602052604090205482811015610b335760405162461bcd60e51b815260206004820152601660248201527f45524332303a2062616c616e636520746f6f206c6f77000000000000000000006044820152606401610945565b836001600160a01b0316856001600160a01b031614610c95576001600160a01b03851660009081526003602090815260408083203384529091529020546000198114610bf85783811015610bc95760405162461bcd60e51b815260206004820152601860248201527f45524332303a20616c6c6f77616e636520746f6f206c6f7700000000000000006044820152606401610945565b610bd38482613d75565b6001600160a01b03871660009081526003602090815260408083203384529091529020555b6001600160a01b038516610c4e5760405162461bcd60e51b815260206004820152601660248201527f45524332303a206e6f207a65726f2061646472657373000000000000000000006044820152606401610945565b610c588483613d75565b6001600160a01b038088166000908152600260205260408082209390935590871681529081208054869290610c8e908490613d8c565b9091555050505b505b826001600160a01b0316846001600160a01b03167fddf252ad1be2c89b69c2b068fc378daa952ba7f163c4a11628f55a4df523b3ef84604051610cdc91815260200190565b60405180910390a35060015b9392505050565b836001600160a01b0381163314801590610d3457506001600160a01b038116600090815260026020908152604080832054600383528184203385529092529091205411155b15610d6357604051630ca03e9b60e11b81526001600160a01b0382166004820152336024820152604401610945565b6001600160a01b03841660009081526012602052604081208054849290610d8b908490613d8c565b9091555050600d54610d9d8382613d8c565b600d55600b54610db190879085848861228f565b846001600160a01b031684610dc65786610dd3565b6007546001600160a01b03165b6001600160a01b03167f9ed03113de523cebfe5e49d5f8e12894b1c0d42ce805990461726444c90eab8785604051610e0d91815260200190565b60405180910390a3505050505050565b600a54600090610e35906001600160a01b031661243f565b905090565b6000610e35612510565b6001546001600160a01b0316338114610e9f5760405162461bcd60e51b815260206004820181905260248201527f4f776e61626c653a2063616c6c657220213d2070656e64696e67206f776e65726044820152606401610945565b600080546040516001600160a01b03808516939216917f8be0079c531659141344cd1fd0a4f28419497f9722a3daafe3b4186f6b6457e091a3600080546001600160a01b0390921673ffffffffffffffffffffffffffffffffffffffff19928316179055600180549091169055565b60008084806001600160a01b0381163314801590610f5757506001600160a01b038116600090815260026020908152604080832054600383528184203385529092529091205411155b15610f8657604051630ca03e9b60e11b81526001600160a01b0382166004820152336024820152604401610945565b610f8e611bb8565b610f9661070f565b5050610fa3878787612567565b6015549195509350610fb791508290612889565b610ff45760405162461bcd60e51b815260206004820152600e60248201526d14d1d30e881a5b9cdbdb1d995b9d60921b6044820152606401610945565b50935093915050565b60408051808201909152600e546001600160801b038082168352600160801b9091041660208201526000620186a0611036605a86613da4565b6110409190613dc3565b82516020840151600754600c54604051638eb22cdd60e01b81526004810191909152602481018590526000604482018190529495506001600160801b0393841693909216916001600160a01b0390911690638eb22cdd9060640160206040518083038186803b1580156110b257600080fd5b505afa1580156110c6573d6000803e3d6000fd5b505050506040513d601f19601f820116820180604052508101906110ea9190613de5565b6110f49190613da4565b6110fe9190613dc3565b600754600c546040517f8d2e63b800000000000000000000000000000000000000000000000000000000815260048101919091523060248201526001600160a01b0389811660448301526064820189905260006084830152929350911690638d2e63b89060a4016040805180830381600087803b15801561117e57600080fd5b505af1158015611192573d6000803e3d6000fd5b505050506040513d601f19601f820116820180604052508101906111b69190613dfe565b5050600a546040517f23e30c8b0000000000000000000000000000000000000000000000000000000081526001600160a01b03808a16926323e30c8b9261120992339216908a9088908b90600401613e22565b600060405180830381600087803b15801561122357600080fd5b505af1158015611237573d6000803e3d6000fd5b5050505081856112479190613d8c565b600754600c546040517f54317d1600000000000000000000000000000000000000000000000000000000815230600482015260248101919091526001600160a01b03909116906354317d169060440160206040518083038186803b1580156112ae57600080fd5b505afa1580156112c2573d6000803e3d6000fd5b505050506040513d601f19601f820116820180604052508101906112e69190613de5565b10156113345760405162461bcd60e51b815260206004820152601760248201527f53474c3a20696e73756666696369656e742066756e64730000000000000000006044820152606401610945565b8083602001516113449190613e65565b600e80546001600160801b03908116600160801b938216840217909155600580548493919260109261137b92869291900416613e65565b92506101000a8154816001600160801b0302191690836001600160801b03160217905550856001600160a01b0316876001600160a01b03167f2846a042bc39c76d5d54e6df0c69a95014c81bc24b006211e95a37b68dca6af087856040516113ed929190918252602082015260400190565b60405180910390a350505050505050565b6000846001600160a01b038116331480159061144557506001600160a01b038116600090815260026020908152604080832054600383528184203385529092529091205411155b1561147457604051630ca03e9b60e11b81526001600160a01b0382166004820152336024820152604401610945565b61147c611bb8565b61148886868686612a0a565b9695505050505050565b6017805461149f90613b58565b80601f01602080910402602001604051908101604052809291908181526020018280546114cb90613b58565b80156115185780601f106114ed57610100808354040283529160200191611518565b820191906000526020600020905b8154815290600101906020018083116114fb57829003601f168201915b505050505081565b600954606090611538906001600160a01b0316612c5f565b600a5461154d906001600160a01b0316612c5f565b6016546040517fc699c4d60000000000000000000000000000000000000000000000000000000081526001600160a01b039091169063c699c4d69061159790601790600401613b93565b60006040518083038186803b1580156115af57600080fd5b505afa1580156115c3573d6000803e3d6000fd5b505050506040513d6000823e601f3d908101601f191682016040526115eb9190810190613c69565b6040516020016108db93929190613e90565b6000811515806116155750336001600160a01b038416145b1561172557336000908152600260205260409020548281101561167a5760405162461bcd60e51b815260206004820152601660248201527f45524332303a2062616c616e636520746f6f206c6f77000000000000000000006044820152606401610945565b336001600160a01b03851614611723576001600160a01b0384166116e05760405162461bcd60e51b815260206004820152601660248201527f45524332303a206e6f207a65726f2061646472657373000000000000000000006044820152606401610945565b6116ea8382613d75565b33600090815260026020526040808220929092556001600160a01b0386168152908120805485929061171d908490613d8c565b90915550505b505b6040518281526001600160a01b0384169033907fddf252ad1be2c89b69c2b068fc378daa952ba7f163c4a11628f55a4df523b3ef90602001610ab0565b82806001600160a01b03811633148015906117a857506001600160a01b038116600090815260026020908152604080832054600383528184203385529092529091205411155b156117d757604051630ca03e9b60e11b81526001600160a01b0382166004820152336024820152604401610945565b6117df611bb8565b6117ea858585612cbf565b506117f781601554612889565b6118345760405162461bcd60e51b815260206004820152600e60248201526d14d1d30e881a5b9cdbdb1d995b9d60921b6044820152606401610945565b50505050565b6000846001600160a01b038116331480159061188157506001600160a01b038116600090815260026020908152604080832054600383528184203385529092529091205411155b156118b057604051630ca03e9b60e11b81526001600160a01b0382166004820152336024820152604401610945565b6118b8611bb8565b6118c061070f565b505061148886868686612e09565b6001600160a01b0387166119245760405162461bcd60e51b815260206004820152601860248201527f45524332303a204f776e65722063616e6e6f74206265203000000000000000006044820152606401610945565b8342106119735760405162461bcd60e51b815260206004820152600e60248201527f45524332303a20457870697265640000000000000000000000000000000000006044820152606401610945565b6001600160a01b03871660008181526004602052604081208054600192611a1d927f6e71edae12b1b97f4d1f60370fef10105fa2faae0126114a169c64845d6126c9928d928d928d92916119c683613f18565b909155506040805160208101969096526001600160a01b0394851690860152929091166060840152608083015260a082015260c0810188905260e00160405160208183030381529060405280519060200120612fea565b6040805160008152602081018083529290925260ff871690820152606081018590526080810184905260a0016020604051602081039080840390855afa158015611a6b573d6000803e3d6000fd5b505050602060405103516001600160a01b031614611acb5760405162461bcd60e51b815260206004820152601860248201527f45524332303a20496e76616c6964205369676e617475726500000000000000006044820152606401610945565b6001600160a01b038781166000818152600360209081526040808320948b168084529482529182902089905590518881527f8c5be1e5ebec7d5bd14f71427d1e84f3dd0314c0f7b2291e5b200ac8c7c3b92591016113ed565b6000836001600160a01b0381163314801590611b6b57506001600160a01b038116600090815260026020908152604080832054600383528184203385529092529091205411155b15611b9a57604051630ca03e9b60e11b81526001600160a01b0382166004820152336024820152604401610945565b611ba2611bb8565b611baf858585600161305a565b95945050505050565b6040805160608101825260055467ffffffffffffffff80821683526801000000000000000082041660208301819052600160801b9091046001600160801b03169282019290925290600090611c0d9042613d75565b905080611c18575050565b67ffffffffffffffff421660208084019190915260408051808201909152600f546001600160801b038082168352600160801b9091041691810182905290611d2457825167ffffffffffffffff166312e687c014611cc2576312e687c0808452604080516000808252602082018190529181019290925260608201527f33af5ce86e8438eff54589f85332916444457dfa8685493fbd579b809097026b9060800160405180910390a15b505080516005805460208401516040909401516001600160801b03908116600160801b0267ffffffffffffffff95861668010000000000000000026fffffffffffffffffffffffffffffffff1990931695909416949094171792909216179055565b60408051808201909152600e546001600160801b038082168352600160801b909104811660208301528451835160009384939092670de0b6b3a7640000928892611d799267ffffffffffffffff169116613da4565b611d839190613da4565b611d8d9190613dc3565b92508284600001818151611da19190613e65565b6001600160801b039081169091528551600754600c5485516040517f442c1599000000000000000000000000000000000000000000000000000000008152600481019290925284166024820152600060448201819052945091909216916001600160a01b03169063442c15999060640160206040518083038186803b158015611e2957600080fd5b505afa158015611e3d573d6000803e3d6000fd5b505050506040513d601f19601f82011682018060405250810190611e619190613de5565b611e6b9190613d8c565b90506000620186a0611e7f61271087613da4565b611e899190613dc3565b90508183602001516001600160801b031682611ea59190613da4565b611eaf9190613dc3565b93508388604001818151611ec39190613e65565b6001600160801b03169052506020830151611edf908590613e65565b600e80546001600160801b03908116600160801b9382168402179091558751602089015190821691169091028117600f556000908390611f2890670de0b6b3a764000090613da4565b611f329190613dc3565b90506709b6e64a8ec600008110156120095760006709b6e64a8ec60000670de0b6b3a7640000611f628483613d75565b611f6c9190613da4565b611f769190613dc3565b9050600089611f858380613da4565b611f8f9190613da4565b611faa907054a2b63d65d79d094abb66880000000000613d8c565b9050807054a2b63d65d79d094abb668800000000008c6000015167ffffffffffffffff16611fd89190613da4565b611fe29190613dc3565b67ffffffffffffffff16808c526304b9a1f01115612002576304b9a1f08b525b50506120f8565b670b1a2bc2ec5000008111156120f8576000612035670b1a2bc2ec500000670de0b6b3a7640000613d75565b670de0b6b3a7640000612050670b1a2bc2ec50000085613d75565b61205a9190613da4565b6120649190613dc3565b90506000896120738380613da4565b61207d9190613da4565b612098907054a2b63d65d79d094abb66880000000000613d8c565b905060007054a2b63d65d79d094abb66880000000000828d6000015167ffffffffffffffff166120c89190613da4565b6120d29190613dc3565b90506449d48246008111156120e957506449d48246005b67ffffffffffffffff168b5250505b8851604080518881526020810188905267ffffffffffffffff9092168282015260608201839052517f33af5ce86e8438eff54589f85332916444457dfa8685493fbd579b809097026b9181900360800190a1505086516005805460208a01516040909a01516001600160801b03908116600160801b0267ffffffffffffffff9b8c1668010000000000000000026fffffffffffffffffffffffffffffffff199093169b9094169a909a17179890981617909655505050505050565b60408051600481526024810182526020810180516001600160e01b03167f06fdde0300000000000000000000000000000000000000000000000000000000179052905160609160009182916001600160a01b038616916122139190613f33565b600060405180830381855afa9150503d806000811461224e576040519150601f19603f3d011682016040523d82523d6000602084013e612253565b606091505b50915091508161227e57604051806040016040528060038152602001623f3f3f60e81b815250612287565b612287816133a3565b949350505050565b6001600160a01b0385166000908152601160209081526040808320878452909152812080548592906122c2908490613d8c565b909155505080156123c4576007546040517efdd58e0000000000000000000000000000000000000000000000000000000081523060048201526024810186905283916001600160a01b03169062fdd58e9060440160206040518083038186803b15801561232e57600080fd5b505afa158015612342573d6000803e3d6000fd5b505050506040513d601f19601f820116820180604052508101906123669190613de5565b6123709190613d75565b8311156123bf5760405162461bcd60e51b815260206004820152600d60248201527f53474c3a20746f6f206d756368000000000000000000000000000000000000006044820152606401610945565b612438565b600754604051630208d92960e11b81526001600160a01b038781166004830152306024830152604482018790526064820186905290911690630411b25290608401600060405180830381600087803b15801561241f57600080fd5b505af1158015612433573d6000803e3d6000fd5b505050505b5050505050565b60408051600481526024810182526020810180516001600160e01b03167f313ce567000000000000000000000000000000000000000000000000000000001790529051600091829182916001600160a01b0386169161249e9190613f33565b600060405180830381855afa9150503d80600081146124d9576040519150601f19603f3d011682016040523d82523d6000602084013e6124de565b606091505b50915091508180156124f1575080516020145b6124fc576012612287565b808060200190518101906122879190613f4f565b60007f0000000000000000000000000000000000000000000000000000000000000000461461254257610e354661356a565b507f000000000000000000000000000000000000000000000000000000000000000090565b60008080620186a061257a603286613da4565b6125849190613dc3565b90506125c36125938286613d8c565b60408051808201909152600f546001600160801b038082168352600160801b9091041660208201529060016135ab565b81516020909201516001600160801b03908116600160801b02921691909117600f55601054909350158061260b5750601054600f54600160801b90046001600160801b031611155b6126575760405162461bcd60e51b815260206004820152601760248201527f53474c3a20626f72726f772063617020726561636865640000000000000000006044820152606401610945565b6001600160a01b0386166000908152601360205260408120805485929061267f908490613d8c565b909155505060408051858152602081018390529081018490526001600160a01b0380871691908816907f3a5151e57d3bc9798e7853034ac52293d1a0e12a2b44725e75b03b21f86477a69060600160405180910390a3600754600c54604051638eb22cdd60e01b8152600481019190915260248101869052600060448201526001600160a01b0390911690638eb22cdd9060640160206040518083038186803b15801561272b57600080fd5b505afa15801561273f573d6000803e3d6000fd5b505050506040513d601f19601f820116820180604052508101906127639190613de5565b60408051808201909152600e546001600160801b038082168352600160801b9091041660208201819052919350906103e811156127d35760405162461bcd60e51b815260206004820152600e60248201526d14d1d30e881b5a5b881b1a5b5a5d60921b6044820152606401610945565b82816000018181516127e59190613f6c565b6001600160801b03908116909152825160208401518216600160801b02911617600e5550600754600c54604051630208d92960e11b81523060048201526001600160a01b038981166024830152604482019290925260648101869052911690630411b25290608401600060405180830381600087803b15801561286757600080fd5b505af115801561287b573d6000803e3d6000fd5b505050505050935093915050565b6001600160a01b038216600090815260136020526040812054806128b1576001915050610abc565b6001600160a01b038416600090815260126020526040902054806128da57600092505050610abc565b60408051808201909152600f546001600160801b03808216808452600160801b90920416602083018190529086906129129086613da4565b61291c9190613da4565b6129269190613dc3565b600754600b546001600160a01b039091169063442c159990620124f8612957620186a0670de0b6b3a7640000613dc3565b6129619088613da4565b61296b9190613da4565b6040517fffffffff0000000000000000000000000000000000000000000000000000000060e085901b168152600481019290925260248201526000604482015260640160206040518083038186803b1580156129c657600080fd5b505afa1580156129da573d6000803e3d6000fd5b505050506040513d601f19601f820116820180604052508101906129fe9190613de5565b10159695505050505050565b604080518082018252600e546001600160801b03808216808452600160801b90920481166020840152600754600c54600f549551638eb22cdd60e01b815260048101919091529490911660248501526001604485015260009384916001600160a01b031690638eb22cdd9060640160206040518083038186803b158015612a9057600080fd5b505afa158015612aa4573d6000803e3d6000fd5b505050506040513d601f19601f82011682018060405250810190612ac89190613de5565b8351612add91906001600160801b0316613d8c565b90508015612b0e578083602001516001600160801b031686612aff9190613da4565b612b099190613dc3565b612b10565b845b93506103e8848460200151612b259190613e65565b6001600160801b03161015612b405760009350505050612287565b612b4b838686613614565b80516020918201516001600160801b03908116600160801b02911617600e556001600160a01b03881660009081526002909152604081208054869290612b92908490613d8c565b90915550506040518481526001600160a01b038816906000907fddf252ad1be2c89b69c2b068fc378daa952ba7f163c4a11628f55a4df523b3ef9060200160405180910390a3612be788600c5487858a61228f565b866001600160a01b031686612bfc5788612c09565b6007546001600160a01b03165b6001600160a01b03167f30a8c4f9ab5af7e1309ca87c32377d1a83366c5990472dbf9d262450eae14e388787604051612c4c929190918252602082015260400190565b60405180910390a3505050949350505050565b60408051600481526024810182526020810180516001600160e01b03167f95d89b4100000000000000000000000000000000000000000000000000000000179052905160609160009182916001600160a01b038616916122139190613f33565b6001600160a01b03831660009081526012602052604081208054839290612ce7908490613d75565b9250508190555080600d6000828254612d009190613d75565b92505081905550816001600160a01b0316836001600160a01b03167f8ad4d3ff00da092c7ad9a573ea4f5f6a3dffc6712dc06d3f78f49b862297c40283604051612d4c91815260200190565b60405180910390a3600754600b54604051630208d92960e11b81523060048201526001600160a01b038581166024830152604482019290925260648101849052911690630411b25290608401600060405180830381600087803b158015612db257600080fd5b505af1158015612dc6573d6000803e3d6000fd5b505050506001600160a01b0383166000908152601160209081526040808320600b54845290915281208054839290612dff908490613d75565b9091555050505050565b60408051808201909152600f546001600160801b038082168352600160801b909104166020820152600090612e409083600161366e565b81516020928301516001600160801b03908116600160801b02911617600f556001600160a01b0386166000908152601390925260408220805491935084929091612e8b908490613d75565b9091555050600754600c54604051638eb22cdd60e01b8152600481019190915260248101839052600160448201526000916001600160a01b031690638eb22cdd9060640160206040518083038186803b158015612ee757600080fd5b505afa158015612efb573d6000803e3d6000fd5b505050506040513d601f19601f82011682018060405250810190612f1f9190613de5565b600e54600c549192506001600160801b031690612f4090889084848961228f565b612f4a8282613e65565b600e80546fffffffffffffffffffffffffffffffff19166001600160801b03929092169190911790556001600160a01b03861685612f885787612f95565b6007546001600160a01b03165b6001600160a01b03167fc8e512d8f188ca059984b5853d2bf653da902696b8512785b182b2c813789a6e8587604051612fd8929190918252602082015260400190565b60405180910390a35050949350505050565b60006040518060400160405280600281526020017f190100000000000000000000000000000000000000000000000000000000000081525061302a612510565b8360405160200161303d93929190613f94565b604051602081830303815290604052805190602001209050919050565b600e54600090600160801b90046001600160801b031661307c57506000612287565b604080518082018252600e546001600160801b038082168352600160801b90910481166020830152600754600c54600f549451638eb22cdd60e01b815260048101919091529390911660248401526001604484015290916000916001600160a01b031690638eb22cdd9060640160206040518083038186803b15801561310157600080fd5b505afa158015613115573d6000803e3d6000fd5b505050506040513d601f19601f820116820180604052508101906131399190613de5565b825161314e91906001600160801b0316613d8c565b60208301519091506001600160801b03166131698287613da4565b6131739190613dc3565b6001600160a01b0388166000908152600260205260408120805492955087929091906131a0908490613d75565b90915550506040518581526000906001600160a01b038916907fddf252ad1be2c89b69c2b068fc378daa952ba7f163c4a11628f55a4df523b3ef9060200160405180910390a382826000018181516131f89190613f6c565b6001600160801b0316905250602082018051869190613218908390613f6c565b6001600160801b0390811690915260208401516103e89116101590506132715760405162461bcd60e51b815260206004820152600e60248201526d14d1d30e881b5a5b881b1a5b5a5d60921b6044820152606401610945565b815160208301516001600160801b03908116600160801b02911617600e556040516001600160a01b0380881691908916907f6e853a5fd6b51d773691f542ebac8513c9992a51380d4c342031056a64114228906132da9087908a90918252602082015260400190565b60405180910390a3600754600c54604051630208d92960e11b81523060048201526001600160a01b038981166024830152604482019290925260648101869052911690630411b25290608401600060405180830381600087803b15801561334057600080fd5b505af1158015613354573d6000803e3d6000fd5b505050508315613399576001600160a01b0387166000908152601160209081526040808320600c54845290915281208054859290613393908490613d75565b90915550505b5050949350505050565b606060408251106133c25781806020019051810190610abc9190613c69565b81516020141561354b5760005b60208160ff1610801561341c5750828160ff16815181106133f2576133f2613fbb565b01602001517fff000000000000000000000000000000000000000000000000000000000000001615155b15613433578061342b81613fd1565b9150506133cf565b60008160ff1667ffffffffffffffff81111561345157613451613981565b6040519080825280601f01601f19166020018201604052801561347b576020820181803683370190505b509050600091505b60208260ff161080156134d05750838260ff16815181106134a6576134a6613fbb565b01602001517fff000000000000000000000000000000000000000000000000000000000000001615155b15610ce857838260ff16815181106134ea576134ea613fbb565b602001015160f81c60f81b818360ff168151811061350a5761350a613fbb565b60200101907effffffffffffffffffffffffffffffffffffffffffffffffffffffffffffff1916908160001a9053508161354381613fd1565b925050613483565b50506040805180820190915260038152623f3f3f60e81b602082015290565b604080517f47e79534a245952e8b16893a336b85a3d9ea9fa8c573f3d803afb92a79469218602082015290810182905230606082015260009060800161303d565b604080518082019091526000808252602082015260006135cc8585856136c3565b905083856000018181516135e09190613e65565b6001600160801b0316905250602085018051829190613600908390613e65565b6001600160801b0316905250939492505050565b6040805180820190915260008082526020820152828460000181815161363a9190613e65565b6001600160801b031690525060208401805183919061365a908390613e65565b6001600160801b0316905250929392505050565b6040805180820190915260008082526020820152600061368f858585613751565b905080856000018181516136a39190613f6c565b6001600160801b0316905250602085018051859190613600908390613f6c565b82516000906001600160801b03166136dc575081610ce8565b835160208501516001600160801b03918216916136fa911685613da4565b6137049190613dc3565b905081801561374257508284602001516001600160801b031685600001516001600160801b0316836137369190613da4565b6137409190613dc3565b105b15610ce85780611baf81613f18565b600083602001516001600160801b031660001415613770575081610ce8565b602084015184516001600160801b039182169161378e911685613da4565b6137989190613dc3565b905081801561374257508284600001516001600160801b031685602001516001600160801b0316836137369190613da4565b60005b838110156137e55781810151838201526020016137cd565b838111156118345750506000910152565b6000815180845261380e8160208601602086016137ca565b601f01601f19169290920160200192915050565b602081526000610ce860208301846137f6565b6001600160a01b038116811461384a57600080fd5b50565b801515811461384a57600080fd5b60008060006060848603121561387057600080fd5b833561387b81613835565b9250602084013561388b8161384d565b9150604084013561389b8161384d565b809150509250925092565b600080604083850312156138b957600080fd5b82356138c481613835565b946020939093013593505050565b6000602082840312156138e457600080fd5b8135610ce881613835565b60008060006060848603121561390457600080fd5b833561390f81613835565b9250602084013561391f81613835565b929592945050506040919091013590565b6000806000806080858703121561394657600080fd5b843561395181613835565b9350602085013561396181613835565b925060408501356139718161384d565b9396929550929360600135925050565b634e487b7160e01b600052604160045260246000fd5b604051601f8201601f1916810167ffffffffffffffff811182821017156139c0576139c0613981565b604052919050565b600067ffffffffffffffff8211156139e2576139e2613981565b50601f01601f191660200190565b60008060008060808587031215613a0657600080fd5b8435613a1181613835565b93506020850135613a2181613835565b925060408501359150606085013567ffffffffffffffff811115613a4457600080fd5b8501601f81018713613a5557600080fd5b8035613a68613a63826139c8565b613997565b818152886020838501011115613a7d57600080fd5b8160208401602083013760006020838301015280935050505092959194509250565b60ff8116811461384a57600080fd5b600080600080600080600060e0888a031215613ac957600080fd5b8735613ad481613835565b96506020880135613ae481613835565b955060408801359450606088013593506080880135613b0281613a9f565b9699959850939692959460a0840135945060c09093013592915050565b60008060408385031215613b3257600080fd5b8235613b3d81613835565b91506020830135613b4d81613835565b809150509250929050565b600181811c90821680613b6c57607f821691505b60208210811415613b8d57634e487b7160e01b600052602260045260246000fd5b50919050565b600060208083526000845481600182811c915080831680613bb557607f831692505b858310811415613bd357634e487b7160e01b85526022600452602485fd5b878601838152602001818015613bf05760018114613c0157613c2c565b60ff19861682528782019650613c2c565b60008b81526020902060005b86811015613c2657815484820152908501908901613c0d565b83019750505b50949998505050505050505050565b60008060408385031215613c4e57600080fd5b8251613c598161384d565b6020939093015192949293505050565b600060208284031215613c7b57600080fd5b815167ffffffffffffffff811115613c9257600080fd5b8201601f81018413613ca357600080fd5b8051613cb1613a63826139c8565b818152856020838501011115613cc657600080fd5b611baf8260208301602086016137ca565b7f546170696f63612053696e67756c617269747920000000000000000000000000815260008451613d0f8160148501602089016137ca565b602f60f81b6014918401918201528451613d308160158401602089016137ca565b602d60f81b601592909101918201528351613d528160168401602088016137ca565b0160160195945050505050565b634e487b7160e01b600052601160045260246000fd5b600082821015613d8757613d87613d5f565b500390565b60008219821115613d9f57613d9f613d5f565b500190565b6000816000190483118215151615613dbe57613dbe613d5f565b500290565b600082613de057634e487b7160e01b600052601260045260246000fd5b500490565b600060208284031215613df757600080fd5b5051919050565b60008060408385031215613e1157600080fd5b505080516020909101519092909150565b60006001600160a01b03808816835280871660208401525084604083015283606083015260a06080830152613e5a60a08301846137f6565b979650505050505050565b60006001600160801b03808316818516808303821115613e8757613e87613d5f565b01949350505050565b7f746d000000000000000000000000000000000000000000000000000000000000815260008451613ec88160028501602089016137ca565b602f60f81b6002918401918201528451613ee98160038401602089016137ca565b602d60f81b600392909101918201528351613f0b8160048401602088016137ca565b0160040195945050505050565b6000600019821415613f2c57613f2c613d5f565b5060010190565b60008251613f458184602087016137ca565b9190910192915050565b600060208284031215613f6157600080fd5b8151610ce881613a9f565b60006001600160801b0383811690831681811015613f8c57613f8c613d5f565b039392505050565b60008451613fa68184602089016137ca565b91909101928352506020820152604001919050565b634e487b7160e01b600052603260045260246000fd5b600060ff821660ff811415613fe857613fe8613d5f565b6001019291505056fea26469706673582212204acb1625881fa9c8abb172ece3d84085b5fcf6cc07eb9677ddba637fa334e65464736f6c63430008090033",
  "devdoc": {
    "kind": "dev",
    "methods": {
      "addAsset(address,address,bool,uint256)": {
        "params": {
          "from": "Address to add asset from.",
          "share": "The amount of shares to add.",
          "skim": "True if the amount should be skimmed from the deposit balance of msg.sender. False if tokens from msg.sender in `yieldBox` should be transferred.",
          "to": "The address of the user to receive the assets."
        },
        "returns": {
          "fraction": "Total fractions added."
        }
      },
      "addCollateral(address,address,bool,uint256)": {
        "params": {
          "from": "Account to transfer shares from.",
          "share": "The amount of shares to add for `to`.",
          "skim": "True if the amount should be skimmed from the deposit balance of msg.sender. False if tokens from msg.sender in `yieldBox` should be transferred.",
          "to": "The receiver of the tokens."
        }
      },
      "approve(address,uint256)": {
        "params": {
          "amount": "The maximum collective amount that `spender` can draw.",
          "spender": "Address of the party that can draw from msg.sender's account."
        },
        "returns": {
          "_0": "(bool) Returns True if approved."
        }
      },
      "borrow(address,address,uint256)": {
        "params": {
          "amount": "Amount to borrow.",
          "from": "Account to borrow for.",
          "to": "The receiver of borrowed tokens."
        },
        "returns": {
          "part": "Total part of the debt held by borrowers.",
          "share": "Total amount in shares borrowed."
        }
      },
      "flashLoan(address,address,uint256,bytes)": {
        "details": "The contract expect the `borrower` to have at the end of `onFlashLoan` `amount` + the incurred fees. The borrower is expected to `approve()` yieldBox for this number at the end of its `onFlashLoan()`.",
        "params": {
          "amount": "of the tokens to receive.",
          "borrower": "The address of the contract that implements and conforms to `IFlashBorrower` and handles the flashloan.",
          "data": "The calldata to pass to the `borrower` contract.",
          "receiver": "Address of the token receiver."
        }
      },
      "permit(address,address,uint256,uint256,uint8,bytes32,bytes32)": {
        "params": {
          "deadline": "This permit must be redeemed before this deadline (UTC timestamp in seconds).",
          "owner_": "Address of the owner.",
          "spender": "The address of the spender that gets approved to draw from `owner_`.",
          "value": "The maximum collective amount that `spender` can draw."
        }
      },
      "removeAsset(address,address,uint256)": {
        "params": {
          "fraction": "The amount/fraction of assets held to remove.",
          "from": "Account to debit Assets from.",
          "to": "The user that receives the removed assets."
        },
        "returns": {
          "share": "The amount of shares transferred to `to`."
        }
      },
      "removeCollateral(address,address,uint256)": {
        "params": {
          "from": "Account to debit collateral from.",
          "share": "Amount of shares to remove.",
          "to": "The receiver of the shares."
        }
      },
      "repay(address,address,bool,uint256)": {
        "params": {
          "from": "Address to repay from.",
          "part": "The amount to repay. See `userBorrowPart`.",
          "skim": "True if the amount should be skimmed from the deposit balance of msg.sender. False if tokens from msg.sender in `yieldBox` should be transferred.",
          "to": "Address of the user this payment should go."
        },
        "returns": {
          "amount": "The total amount repayed."
        }
      },
      "transfer(address,uint256)": {
        "params": {
          "amount": "of the tokens to move.",
          "to": "The address to move the tokens."
        },
        "returns": {
          "_0": "(bool) Returns True if succeeded."
        }
      },
      "transferFrom(address,address,uint256)": {
        "params": {
          "amount": "The token amount to move.",
          "from": "Address to draw tokens from.",
          "to": "The address to move the tokens."
        },
        "returns": {
          "_0": "(bool) Returns True if succeeded."
        }
      },
      "transferOwnership(address,bool,bool)": {
        "params": {
          "direct": "True if `newOwner` should be set immediately. False if `newOwner` needs to use `claimOwnership`.",
          "newOwner": "Address of the new owner.",
          "renounce": "Allows the `newOwner` to be `address(0)` if `direct` and `renounce` is True. Has no effect otherwise."
        }
      },
      "updateExchangeRate()": {
        "returns": {
          "rate": "The new exchange rate.",
          "updated": "True if `exchangeRate` was updated."
        }
      }
    },
    "version": 1
  },
  "userdoc": {
    "kind": "user",
    "methods": {
      "accrue()": {
        "notice": "Accrues the interest on the borrowed tokens and handles the accumulation of fees."
      },
      "addAsset(address,address,bool,uint256)": {
        "notice": "Adds assets to the lending pair."
      },
      "addCollateral(address,address,bool,uint256)": {
        "notice": "Adds `collateral` from msg.sender to the account `to`."
      },
      "allowance(address,address)": {
        "notice": "owner > spender > allowance mapping."
      },
      "approve(address,uint256)": {
        "notice": "Approves `amount` from sender to be spend by `spender`."
      },
      "balanceOf(address)": {
        "notice": "owner > balance mapping."
      },
      "borrow(address,address,uint256)": {
        "notice": "Sender borrows `amount` and transfers it to `to`."
      },
      "claimOwnership()": {
        "notice": "Needs to be called by `pendingOwner` to claim ownership."
      },
      "exchangeRate()": {
        "notice": "Exchange and interest rate tracking. This is 'cached' here because calls to Oracles can be very expensive. Asset -> collateral = assetAmount * exchangeRate."
      },
      "flashLoan(address,address,uint256,bytes)": {
        "notice": "Flashloan ability."
      },
      "nonces(address)": {
        "notice": "owner > nonce mapping. Used in `permit`."
      },
      "permit(address,address,uint256,uint256,uint8,bytes32,bytes32)": {
        "notice": "Approves `value` from `owner_` to be spend by `spender`."
      },
      "removeAsset(address,address,uint256)": {
        "notice": "Removes an asset from msg.sender and transfers it to `to`."
      },
      "removeCollateral(address,address,uint256)": {
        "notice": "Removes `share` amount of collateral and transfers it to `to`."
      },
      "repay(address,address,bool,uint256)": {
        "notice": "Repays a loan."
      },
      "transfer(address,uint256)": {
        "notice": "Transfers `amount` tokens from `msg.sender` to `to`."
      },
      "transferFrom(address,address,uint256)": {
        "notice": "Transfers `amount` tokens from `from` to `to`. Caller needs approval for `from`."
      },
      "transferOwnership(address,bool,bool)": {
        "notice": "Transfers ownership to `newOwner`. Either directly or claimable by the new pending owner. Can only be invoked by the current `owner`."
      },
      "updateExchangeRate()": {
        "notice": "Gets the exchange rate. I.e how much collateral to buy 1e18 asset. This function is supposed to be invoked if needed because Oracle queries can be expensive."
      }
    },
    "version": 1
  },
  "storageLayout": {
    "storage": [
      {
        "astId": 233,
        "contract": "contracts/singularity/SGLLendingBorrowing.sol:SGLLendingBorrowing",
        "label": "owner",
        "offset": 0,
        "slot": "0",
        "type": "t_address"
      },
      {
        "astId": 235,
        "contract": "contracts/singularity/SGLLendingBorrowing.sol:SGLLendingBorrowing",
        "label": "pendingOwner",
        "offset": 0,
        "slot": "1",
        "type": "t_address"
      },
      {
        "astId": 478,
        "contract": "contracts/singularity/SGLLendingBorrowing.sol:SGLLendingBorrowing",
        "label": "balanceOf",
        "offset": 0,
        "slot": "2",
        "type": "t_mapping(t_address,t_uint256)"
      },
      {
        "astId": 486,
        "contract": "contracts/singularity/SGLLendingBorrowing.sol:SGLLendingBorrowing",
        "label": "allowance",
        "offset": 0,
        "slot": "3",
        "type": "t_mapping(t_address,t_mapping(t_address,t_uint256))"
      },
      {
        "astId": 491,
        "contract": "contracts/singularity/SGLLendingBorrowing.sol:SGLLendingBorrowing",
        "label": "nonces",
        "offset": 0,
        "slot": "4",
        "type": "t_mapping(t_address,t_uint256)"
      },
      {
        "astId": 9916,
        "contract": "contracts/singularity/SGLLendingBorrowing.sol:SGLLendingBorrowing",
        "label": "accrueInfo",
        "offset": 0,
        "slot": "5",
        "type": "t_struct(AccrueInfo)12295_storage"
      },
      {
        "astId": 9919,
        "contract": "contracts/singularity/SGLLendingBorrowing.sol:SGLLendingBorrowing",
        "label": "beachBar",
        "offset": 0,
        "slot": "6",
        "type": "t_contract(IBeachBar)3182"
      },
      {
        "astId": 9922,
        "contract": "contracts/singularity/SGLLendingBorrowing.sol:SGLLendingBorrowing",
        "label": "yieldBox",
        "offset": 0,
        "slot": "7",
        "type": "t_contract(YieldBox)30249"
      },
      {
        "astId": 9925,
        "contract": "contracts/singularity/SGLLendingBorrowing.sol:SGLLendingBorrowing",
        "label": "liquidationQueue",
        "offset": 0,
        "slot": "8",
        "type": "t_contract(ILiquidationQueue)4189"
      },
      {
        "astId": 9928,
        "contract": "contracts/singularity/SGLLendingBorrowing.sol:SGLLendingBorrowing",
        "label": "collateral",
        "offset": 0,
        "slot": "9",
        "type": "t_contract(IERC20)1099"
      },
      {
        "astId": 9931,
        "contract": "contracts/singularity/SGLLendingBorrowing.sol:SGLLendingBorrowing",
        "label": "asset",
        "offset": 0,
        "slot": "10",
        "type": "t_contract(IERC20)1099"
      },
      {
        "astId": 9933,
        "contract": "contracts/singularity/SGLLendingBorrowing.sol:SGLLendingBorrowing",
        "label": "collateralId",
        "offset": 0,
        "slot": "11",
        "type": "t_uint256"
      },
      {
        "astId": 9935,
        "contract": "contracts/singularity/SGLLendingBorrowing.sol:SGLLendingBorrowing",
        "label": "assetId",
        "offset": 0,
        "slot": "12",
        "type": "t_uint256"
      },
      {
        "astId": 9937,
        "contract": "contracts/singularity/SGLLendingBorrowing.sol:SGLLendingBorrowing",
        "label": "totalCollateralShare",
        "offset": 0,
        "slot": "13",
        "type": "t_uint256"
      },
      {
        "astId": 9940,
        "contract": "contracts/singularity/SGLLendingBorrowing.sol:SGLLendingBorrowing",
        "label": "totalAsset",
        "offset": 0,
        "slot": "14",
        "type": "t_struct(Rebase)1874_storage"
      },
      {
        "astId": 9943,
        "contract": "contracts/singularity/SGLLendingBorrowing.sol:SGLLendingBorrowing",
        "label": "totalBorrow",
        "offset": 0,
        "slot": "15",
        "type": "t_struct(Rebase)1874_storage"
      },
      {
        "astId": 9945,
        "contract": "contracts/singularity/SGLLendingBorrowing.sol:SGLLendingBorrowing",
        "label": "totalBorrowCap",
        "offset": 0,
        "slot": "16",
        "type": "t_uint256"
      },
      {
        "astId": 9951,
        "contract": "contracts/singularity/SGLLendingBorrowing.sol:SGLLendingBorrowing",
        "label": "_yieldBoxShares",
        "offset": 0,
        "slot": "17",
        "type": "t_mapping(t_address,t_mapping(t_uint256,t_uint256))"
      },
      {
        "astId": 9955,
        "contract": "contracts/singularity/SGLLendingBorrowing.sol:SGLLendingBorrowing",
        "label": "userCollateralShare",
        "offset": 0,
        "slot": "18",
        "type": "t_mapping(t_address,t_uint256)"
      },
      {
        "astId": 9959,
        "contract": "contracts/singularity/SGLLendingBorrowing.sol:SGLLendingBorrowing",
        "label": "userBorrowPart",
        "offset": 0,
        "slot": "19",
        "type": "t_mapping(t_address,t_uint256)"
      },
      {
        "astId": 9965,
        "contract": "contracts/singularity/SGLLendingBorrowing.sol:SGLLendingBorrowing",
        "label": "isApprovedForAll",
        "offset": 0,
        "slot": "20",
        "type": "t_mapping(t_address,t_mapping(t_address,t_bool))"
      },
      {
        "astId": 9968,
        "contract": "contracts/singularity/SGLLendingBorrowing.sol:SGLLendingBorrowing",
        "label": "exchangeRate",
        "offset": 0,
        "slot": "21",
        "type": "t_uint256"
      },
      {
        "astId": 9971,
        "contract": "contracts/singularity/SGLLendingBorrowing.sol:SGLLendingBorrowing",
        "label": "oracle",
        "offset": 0,
        "slot": "22",
        "type": "t_contract(IOracle)12261"
      },
      {
        "astId": 9973,
        "contract": "contracts/singularity/SGLLendingBorrowing.sol:SGLLendingBorrowing",
        "label": "oracleData",
        "offset": 0,
        "slot": "23",
        "type": "t_bytes_storage"
      },
      {
        "astId": 9976,
        "contract": "contracts/singularity/SGLLendingBorrowing.sol:SGLLendingBorrowing",
        "label": "collateralSwapPath",
        "offset": 0,
        "slot": "24",
        "type": "t_array(t_address)dyn_storage"
      },
      {
        "astId": 9979,
        "contract": "contracts/singularity/SGLLendingBorrowing.sol:SGLLendingBorrowing",
        "label": "tapSwapPath",
        "offset": 0,
        "slot": "25",
        "type": "t_array(t_address)dyn_storage"
      },
      {
        "astId": 7728,
        "contract": "contracts/singularity/SGLLendingBorrowing.sol:SGLLendingBorrowing",
        "label": "initialized",
        "offset": 0,
        "slot": "26",
        "type": "t_bool"
      }
    ],
    "types": {
      "t_address": {
        "encoding": "inplace",
        "label": "address",
        "numberOfBytes": "20"
      },
      "t_array(t_address)dyn_storage": {
        "base": "t_address",
        "encoding": "dynamic_array",
        "label": "address[]",
        "numberOfBytes": "32"
      },
      "t_bool": {
        "encoding": "inplace",
        "label": "bool",
        "numberOfBytes": "1"
      },
      "t_bytes_storage": {
        "encoding": "bytes",
        "label": "bytes",
        "numberOfBytes": "32"
      },
      "t_contract(IBeachBar)3182": {
        "encoding": "inplace",
        "label": "contract IBeachBar",
        "numberOfBytes": "20"
      },
      "t_contract(IERC20)1099": {
        "encoding": "inplace",
        "label": "contract IERC20",
        "numberOfBytes": "20"
      },
      "t_contract(ILiquidationQueue)4189": {
        "encoding": "inplace",
        "label": "contract ILiquidationQueue",
        "numberOfBytes": "20"
      },
      "t_contract(IOracle)12261": {
        "encoding": "inplace",
        "label": "contract IOracle",
        "numberOfBytes": "20"
      },
      "t_contract(YieldBox)30249": {
        "encoding": "inplace",
        "label": "contract YieldBox",
        "numberOfBytes": "20"
      },
      "t_mapping(t_address,t_bool)": {
        "encoding": "mapping",
        "key": "t_address",
        "label": "mapping(address => bool)",
        "numberOfBytes": "32",
        "value": "t_bool"
      },
      "t_mapping(t_address,t_mapping(t_address,t_bool))": {
        "encoding": "mapping",
        "key": "t_address",
        "label": "mapping(address => mapping(address => bool))",
        "numberOfBytes": "32",
        "value": "t_mapping(t_address,t_bool)"
      },
      "t_mapping(t_address,t_mapping(t_address,t_uint256))": {
        "encoding": "mapping",
        "key": "t_address",
        "label": "mapping(address => mapping(address => uint256))",
        "numberOfBytes": "32",
        "value": "t_mapping(t_address,t_uint256)"
      },
      "t_mapping(t_address,t_mapping(t_uint256,t_uint256))": {
        "encoding": "mapping",
        "key": "t_address",
        "label": "mapping(address => mapping(uint256 => uint256))",
        "numberOfBytes": "32",
        "value": "t_mapping(t_uint256,t_uint256)"
      },
      "t_mapping(t_address,t_uint256)": {
        "encoding": "mapping",
        "key": "t_address",
        "label": "mapping(address => uint256)",
        "numberOfBytes": "32",
        "value": "t_uint256"
      },
      "t_mapping(t_uint256,t_uint256)": {
        "encoding": "mapping",
        "key": "t_uint256",
        "label": "mapping(uint256 => uint256)",
        "numberOfBytes": "32",
        "value": "t_uint256"
      },
      "t_struct(AccrueInfo)12295_storage": {
        "encoding": "inplace",
        "label": "struct ISingularity.AccrueInfo",
        "members": [
          {
            "astId": 12290,
            "contract": "contracts/singularity/SGLLendingBorrowing.sol:SGLLendingBorrowing",
            "label": "interestPerSecond",
            "offset": 0,
            "slot": "0",
            "type": "t_uint64"
          },
          {
            "astId": 12292,
            "contract": "contracts/singularity/SGLLendingBorrowing.sol:SGLLendingBorrowing",
            "label": "lastAccrued",
            "offset": 8,
            "slot": "0",
            "type": "t_uint64"
          },
          {
            "astId": 12294,
            "contract": "contracts/singularity/SGLLendingBorrowing.sol:SGLLendingBorrowing",
            "label": "feesEarnedFraction",
            "offset": 16,
            "slot": "0",
            "type": "t_uint128"
          }
        ],
        "numberOfBytes": "32"
      },
      "t_struct(Rebase)1874_storage": {
        "encoding": "inplace",
        "label": "struct Rebase",
        "members": [
          {
            "astId": 1871,
            "contract": "contracts/singularity/SGLLendingBorrowing.sol:SGLLendingBorrowing",
            "label": "elastic",
            "offset": 0,
            "slot": "0",
            "type": "t_uint128"
          },
          {
            "astId": 1873,
            "contract": "contracts/singularity/SGLLendingBorrowing.sol:SGLLendingBorrowing",
            "label": "base",
            "offset": 16,
            "slot": "0",
            "type": "t_uint128"
          }
        ],
        "numberOfBytes": "32"
      },
      "t_uint128": {
        "encoding": "inplace",
        "label": "uint128",
        "numberOfBytes": "16"
      },
      "t_uint256": {
        "encoding": "inplace",
        "label": "uint256",
        "numberOfBytes": "32"
      },
      "t_uint64": {
        "encoding": "inplace",
        "label": "uint64",
        "numberOfBytes": "8"
      }
    }
  }
}