{
  "address": "0x37894A138e4f9Fd02BB3576be3f36f2A79c708B6",
  "abi": [
    {
      "inputs": [
        {
          "internalType": "address",
          "name": "_from",
          "type": "address"
        },
        {
          "internalType": "address",
          "name": "_operator",
          "type": "address"
        }
      ],
      "name": "NotApproved",
      "type": "error"
    },
    {
      "anonymous": false,
      "inputs": [
        {
          "indexed": true,
          "internalType": "address",
          "name": "owner",
          "type": "address"
        },
        {
          "indexed": true,
          "internalType": "address",
          "name": "spender",
          "type": "address"
        },
        {
          "indexed": false,
          "internalType": "uint256",
          "name": "value",
          "type": "uint256"
        }
      ],
      "name": "Approval",
      "type": "event"
    },
    {
      "anonymous": false,
      "inputs": [
        {
          "indexed": false,
          "internalType": "uint256",
          "name": "accruedAmount",
          "type": "uint256"
        },
        {
          "indexed": false,
          "internalType": "uint256",
          "name": "feeFraction",
          "type": "uint256"
        },
        {
          "indexed": false,
          "internalType": "uint64",
          "name": "rate",
          "type": "uint64"
        },
        {
          "indexed": false,
          "internalType": "uint256",
          "name": "utilization",
          "type": "uint256"
        }
      ],
      "name": "LogAccrue",
      "type": "event"
    },
    {
      "anonymous": false,
      "inputs": [
        {
          "indexed": true,
          "internalType": "address",
          "name": "from",
          "type": "address"
        },
        {
          "indexed": true,
          "internalType": "address",
          "name": "to",
          "type": "address"
        },
        {
          "indexed": false,
          "internalType": "uint256",
          "name": "share",
          "type": "uint256"
        },
        {
          "indexed": false,
          "internalType": "uint256",
          "name": "fraction",
          "type": "uint256"
        }
      ],
      "name": "LogAddAsset",
      "type": "event"
    },
    {
      "anonymous": false,
      "inputs": [
        {
          "indexed": true,
          "internalType": "address",
          "name": "from",
          "type": "address"
        },
        {
          "indexed": true,
          "internalType": "address",
          "name": "to",
          "type": "address"
        },
        {
          "indexed": false,
          "internalType": "uint256",
          "name": "share",
          "type": "uint256"
        }
      ],
      "name": "LogAddCollateral",
      "type": "event"
    },
    {
      "anonymous": false,
      "inputs": [
        {
          "indexed": true,
          "internalType": "address",
          "name": "_from",
          "type": "address"
        },
        {
          "indexed": true,
          "internalType": "address",
          "name": "_operator",
          "type": "address"
        },
        {
          "indexed": false,
          "internalType": "bool",
          "name": "_approved",
          "type": "bool"
        }
      ],
      "name": "LogApprovalForAll",
      "type": "event"
    },
    {
      "anonymous": false,
      "inputs": [
        {
          "indexed": true,
          "internalType": "address",
          "name": "from",
          "type": "address"
        },
        {
          "indexed": true,
          "internalType": "address",
          "name": "to",
          "type": "address"
        },
        {
          "indexed": false,
          "internalType": "uint256",
          "name": "amount",
          "type": "uint256"
        },
        {
          "indexed": false,
          "internalType": "uint256",
          "name": "feeAmount",
          "type": "uint256"
        },
        {
          "indexed": false,
          "internalType": "uint256",
          "name": "part",
          "type": "uint256"
        }
      ],
      "name": "LogBorrow",
      "type": "event"
    },
    {
      "anonymous": false,
      "inputs": [
        {
          "indexed": false,
          "internalType": "uint256",
          "name": "_oldVal",
          "type": "uint256"
        },
        {
          "indexed": false,
          "internalType": "uint256",
          "name": "_newVal",
          "type": "uint256"
        }
      ],
      "name": "LogBorrowCapUpdated",
      "type": "event"
    },
    {
      "anonymous": false,
      "inputs": [
        {
          "indexed": false,
          "internalType": "uint256",
          "name": "rate",
          "type": "uint256"
        }
      ],
      "name": "LogExchangeRate",
      "type": "event"
    },
    {
      "anonymous": false,
      "inputs": [
        {
          "indexed": true,
          "internalType": "address",
          "name": "borrower",
          "type": "address"
        },
        {
          "indexed": false,
          "internalType": "uint256",
          "name": "amount",
          "type": "uint256"
        },
        {
          "indexed": false,
          "internalType": "uint256",
          "name": "feeAmount",
          "type": "uint256"
        },
        {
          "indexed": true,
          "internalType": "address",
          "name": "receiver",
          "type": "address"
        }
      ],
      "name": "LogFlashLoan",
      "type": "event"
    },
    {
      "anonymous": false,
      "inputs": [
        {
          "indexed": true,
          "internalType": "address",
          "name": "from",
          "type": "address"
        },
        {
          "indexed": true,
          "internalType": "address",
          "name": "to",
          "type": "address"
        },
        {
          "indexed": false,
          "internalType": "uint256",
          "name": "share",
          "type": "uint256"
        },
        {
          "indexed": false,
          "internalType": "uint256",
          "name": "fraction",
          "type": "uint256"
        }
      ],
      "name": "LogRemoveAsset",
      "type": "event"
    },
    {
      "anonymous": false,
      "inputs": [
        {
          "indexed": true,
          "internalType": "address",
          "name": "from",
          "type": "address"
        },
        {
          "indexed": true,
          "internalType": "address",
          "name": "to",
          "type": "address"
        },
        {
          "indexed": false,
          "internalType": "uint256",
          "name": "share",
          "type": "uint256"
        }
      ],
      "name": "LogRemoveCollateral",
      "type": "event"
    },
    {
      "anonymous": false,
      "inputs": [
        {
          "indexed": true,
          "internalType": "address",
          "name": "from",
          "type": "address"
        },
        {
          "indexed": true,
          "internalType": "address",
          "name": "to",
          "type": "address"
        },
        {
          "indexed": false,
          "internalType": "uint256",
          "name": "amount",
          "type": "uint256"
        },
        {
          "indexed": false,
          "internalType": "uint256",
          "name": "part",
          "type": "uint256"
        }
      ],
      "name": "LogRepay",
      "type": "event"
    },
    {
      "anonymous": false,
      "inputs": [
        {
          "indexed": true,
          "internalType": "address",
          "name": "feeTo",
          "type": "address"
        },
        {
          "indexed": false,
          "internalType": "uint256",
          "name": "feesEarnedFraction",
          "type": "uint256"
        }
      ],
      "name": "LogWithdrawFees",
      "type": "event"
    },
    {
      "anonymous": false,
      "inputs": [
        {
          "indexed": false,
          "internalType": "uint256",
          "name": "feeShares",
          "type": "uint256"
        },
        {
          "indexed": false,
          "internalType": "uint256",
          "name": "tapAmount",
          "type": "uint256"
        }
      ],
      "name": "LogYieldBoxFeesDeposit",
      "type": "event"
    },
    {
      "anonymous": false,
      "inputs": [
        {
          "indexed": true,
          "internalType": "address",
          "name": "previousOwner",
          "type": "address"
        },
        {
          "indexed": true,
          "internalType": "address",
          "name": "newOwner",
          "type": "address"
        }
      ],
      "name": "OwnershipTransferred",
      "type": "event"
    },
    {
      "anonymous": false,
      "inputs": [
        {
          "indexed": true,
          "internalType": "address",
          "name": "from",
          "type": "address"
        },
        {
          "indexed": true,
          "internalType": "address",
          "name": "to",
          "type": "address"
        },
        {
          "indexed": false,
          "internalType": "uint256",
          "name": "value",
          "type": "uint256"
        }
      ],
      "name": "Transfer",
      "type": "event"
    },
    {
      "inputs": [],
      "name": "DOMAIN_SEPARATOR",
      "outputs": [
        {
          "internalType": "bytes32",
          "name": "",
          "type": "bytes32"
        }
      ],
      "stateMutability": "view",
      "type": "function"
    },
    {
      "inputs": [],
      "name": "accrue",
      "outputs": [],
      "stateMutability": "nonpayable",
      "type": "function"
    },
    {
      "inputs": [],
      "name": "accrueInfo",
      "outputs": [
        {
          "internalType": "uint64",
          "name": "interestPerSecond",
          "type": "uint64"
        },
        {
          "internalType": "uint64",
          "name": "lastAccrued",
          "type": "uint64"
        },
        {
          "internalType": "uint128",
          "name": "feesEarnedFraction",
          "type": "uint128"
        }
      ],
      "stateMutability": "view",
      "type": "function"
    },
    {
      "inputs": [
        {
          "internalType": "address",
          "name": "from",
          "type": "address"
        },
        {
          "internalType": "address",
          "name": "to",
          "type": "address"
        },
        {
          "internalType": "bool",
          "name": "skim",
          "type": "bool"
        },
        {
          "internalType": "uint256",
          "name": "share",
          "type": "uint256"
        }
      ],
      "name": "addAsset",
      "outputs": [
        {
          "internalType": "uint256",
          "name": "fraction",
          "type": "uint256"
        }
      ],
      "stateMutability": "nonpayable",
      "type": "function"
    },
    {
      "inputs": [
        {
          "internalType": "address",
          "name": "",
          "type": "address"
        },
        {
          "internalType": "address",
          "name": "",
          "type": "address"
        }
      ],
      "name": "allowance",
      "outputs": [
        {
          "internalType": "uint256",
          "name": "",
          "type": "uint256"
        }
      ],
      "stateMutability": "view",
      "type": "function"
    },
    {
      "inputs": [
        {
          "internalType": "address",
          "name": "spender",
          "type": "address"
        },
        {
          "internalType": "uint256",
          "name": "amount",
          "type": "uint256"
        }
      ],
      "name": "approve",
      "outputs": [
        {
          "internalType": "bool",
          "name": "",
          "type": "bool"
        }
      ],
      "stateMutability": "nonpayable",
      "type": "function"
    },
    {
      "inputs": [],
      "name": "asset",
      "outputs": [
        {
          "internalType": "contract IERC20",
          "name": "",
          "type": "address"
        }
      ],
      "stateMutability": "view",
      "type": "function"
    },
    {
      "inputs": [],
      "name": "assetId",
      "outputs": [
        {
          "internalType": "uint256",
          "name": "",
          "type": "uint256"
        }
      ],
      "stateMutability": "view",
      "type": "function"
    },
    {
      "inputs": [
        {
          "internalType": "address",
          "name": "",
          "type": "address"
        }
      ],
      "name": "balanceOf",
      "outputs": [
        {
          "internalType": "uint256",
          "name": "",
          "type": "uint256"
        }
      ],
      "stateMutability": "view",
      "type": "function"
    },
    {
      "inputs": [],
      "name": "beachBar",
      "outputs": [
        {
          "internalType": "contract IBeachBar",
          "name": "",
          "type": "address"
        }
      ],
      "stateMutability": "view",
      "type": "function"
    },
    {
      "inputs": [],
      "name": "claimOwnership",
      "outputs": [],
      "stateMutability": "nonpayable",
      "type": "function"
    },
    {
      "inputs": [],
      "name": "collateral",
      "outputs": [
        {
          "internalType": "contract IERC20",
          "name": "",
          "type": "address"
        }
      ],
      "stateMutability": "view",
      "type": "function"
    },
    {
      "inputs": [],
      "name": "collateralId",
      "outputs": [
        {
          "internalType": "uint256",
          "name": "",
          "type": "uint256"
        }
      ],
      "stateMutability": "view",
      "type": "function"
    },
    {
      "inputs": [
        {
          "internalType": "address",
          "name": "user",
          "type": "address"
        },
        {
          "internalType": "uint256",
          "name": "_exchangeRate",
          "type": "uint256"
        }
      ],
      "name": "computeAssetAmountToSolvency",
      "outputs": [
        {
          "internalType": "uint256",
          "name": "",
          "type": "uint256"
        }
      ],
      "stateMutability": "view",
      "type": "function"
    },
    {
      "inputs": [],
      "name": "decimals",
      "outputs": [
        {
          "internalType": "uint8",
          "name": "",
          "type": "uint8"
        }
      ],
      "stateMutability": "view",
      "type": "function"
    },
    {
      "inputs": [],
      "name": "exchangeRate",
      "outputs": [
        {
          "internalType": "uint256",
          "name": "",
          "type": "uint256"
        }
      ],
      "stateMutability": "view",
      "type": "function"
    },
    {
      "inputs": [
        {
          "internalType": "address",
          "name": "",
          "type": "address"
        },
        {
          "internalType": "address",
          "name": "",
          "type": "address"
        }
      ],
      "name": "isApprovedForAll",
      "outputs": [
        {
          "internalType": "bool",
          "name": "",
          "type": "bool"
        }
      ],
      "stateMutability": "view",
      "type": "function"
    },
    {
      "inputs": [
        {
          "internalType": "address[]",
          "name": "users",
          "type": "address[]"
        },
        {
          "internalType": "uint256[]",
          "name": "maxBorrowParts",
          "type": "uint256[]"
        },
        {
          "internalType": "contract IMultiSwapper",
          "name": "swapper",
          "type": "address"
        },
        {
          "internalType": "bytes",
          "name": "collateralToAssetSwapData",
          "type": "bytes"
        },
        {
          "internalType": "bytes",
          "name": "usdoToBorrowedSwapData",
          "type": "bytes"
        }
      ],
      "name": "liquidate",
      "outputs": [],
      "stateMutability": "nonpayable",
      "type": "function"
    },
    {
      "inputs": [],
      "name": "liquidationQueue",
      "outputs": [
        {
          "internalType": "contract ILiquidationQueue",
          "name": "",
          "type": "address"
        }
      ],
      "stateMutability": "view",
      "type": "function"
    },
    {
      "inputs": [],
      "name": "name",
      "outputs": [
        {
          "internalType": "string",
          "name": "",
          "type": "string"
        }
      ],
      "stateMutability": "view",
      "type": "function"
    },
    {
      "inputs": [
        {
          "internalType": "address",
          "name": "",
          "type": "address"
        }
      ],
      "name": "nonces",
      "outputs": [
        {
          "internalType": "uint256",
          "name": "",
          "type": "uint256"
        }
      ],
      "stateMutability": "view",
      "type": "function"
    },
    {
      "inputs": [],
      "name": "oracle",
      "outputs": [
        {
          "internalType": "contract IOracle",
          "name": "",
          "type": "address"
        }
      ],
      "stateMutability": "view",
      "type": "function"
    },
    {
      "inputs": [],
      "name": "oracleData",
      "outputs": [
        {
          "internalType": "bytes",
          "name": "",
          "type": "bytes"
        }
      ],
      "stateMutability": "view",
      "type": "function"
    },
    {
      "inputs": [],
      "name": "owner",
      "outputs": [
        {
          "internalType": "address",
          "name": "",
          "type": "address"
        }
      ],
      "stateMutability": "view",
      "type": "function"
    },
    {
      "inputs": [],
      "name": "pendingOwner",
      "outputs": [
        {
          "internalType": "address",
          "name": "",
          "type": "address"
        }
      ],
      "stateMutability": "view",
      "type": "function"
    },
    {
      "inputs": [
        {
          "internalType": "address",
          "name": "owner_",
          "type": "address"
        },
        {
          "internalType": "address",
          "name": "spender",
          "type": "address"
        },
        {
          "internalType": "uint256",
          "name": "value",
          "type": "uint256"
        },
        {
          "internalType": "uint256",
          "name": "deadline",
          "type": "uint256"
        },
        {
          "internalType": "uint8",
          "name": "v",
          "type": "uint8"
        },
        {
          "internalType": "bytes32",
          "name": "r",
          "type": "bytes32"
        },
        {
          "internalType": "bytes32",
          "name": "s",
          "type": "bytes32"
        }
      ],
      "name": "permit",
      "outputs": [],
      "stateMutability": "nonpayable",
      "type": "function"
    },
    {
      "inputs": [
        {
          "internalType": "address",
          "name": "from",
          "type": "address"
        },
        {
          "internalType": "address",
          "name": "to",
          "type": "address"
        },
        {
          "internalType": "uint256",
          "name": "fraction",
          "type": "uint256"
        }
      ],
      "name": "removeAsset",
      "outputs": [
        {
          "internalType": "uint256",
          "name": "share",
          "type": "uint256"
        }
      ],
      "stateMutability": "nonpayable",
      "type": "function"
    },
    {
      "inputs": [],
      "name": "symbol",
      "outputs": [
        {
          "internalType": "string",
          "name": "",
          "type": "string"
        }
      ],
      "stateMutability": "view",
      "type": "function"
    },
    {
      "inputs": [],
      "name": "totalAsset",
      "outputs": [
        {
          "internalType": "uint128",
          "name": "elastic",
          "type": "uint128"
        },
        {
          "internalType": "uint128",
          "name": "base",
          "type": "uint128"
        }
      ],
      "stateMutability": "view",
      "type": "function"
    },
    {
      "inputs": [],
      "name": "totalBorrow",
      "outputs": [
        {
          "internalType": "uint128",
          "name": "elastic",
          "type": "uint128"
        },
        {
          "internalType": "uint128",
          "name": "base",
          "type": "uint128"
        }
      ],
      "stateMutability": "view",
      "type": "function"
    },
    {
      "inputs": [],
      "name": "totalBorrowCap",
      "outputs": [
        {
          "internalType": "uint256",
          "name": "",
          "type": "uint256"
        }
      ],
      "stateMutability": "view",
      "type": "function"
    },
    {
      "inputs": [],
      "name": "totalCollateralShare",
      "outputs": [
        {
          "internalType": "uint256",
          "name": "",
          "type": "uint256"
        }
      ],
      "stateMutability": "view",
      "type": "function"
    },
    {
      "inputs": [],
      "name": "totalSupply",
      "outputs": [
        {
          "internalType": "uint256",
          "name": "",
          "type": "uint256"
        }
      ],
      "stateMutability": "view",
      "type": "function"
    },
    {
      "inputs": [
        {
          "internalType": "address",
          "name": "to",
          "type": "address"
        },
        {
          "internalType": "uint256",
          "name": "amount",
          "type": "uint256"
        }
      ],
      "name": "transfer",
      "outputs": [
        {
          "internalType": "bool",
          "name": "",
          "type": "bool"
        }
      ],
      "stateMutability": "nonpayable",
      "type": "function"
    },
    {
      "inputs": [
        {
          "internalType": "address",
          "name": "from",
          "type": "address"
        },
        {
          "internalType": "address",
          "name": "to",
          "type": "address"
        },
        {
          "internalType": "uint256",
          "name": "amount",
          "type": "uint256"
        }
      ],
      "name": "transferFrom",
      "outputs": [
        {
          "internalType": "bool",
          "name": "",
          "type": "bool"
        }
      ],
      "stateMutability": "nonpayable",
      "type": "function"
    },
    {
      "inputs": [
        {
          "internalType": "address",
          "name": "newOwner",
          "type": "address"
        },
        {
          "internalType": "bool",
          "name": "direct",
          "type": "bool"
        },
        {
          "internalType": "bool",
          "name": "renounce",
          "type": "bool"
        }
      ],
      "name": "transferOwnership",
      "outputs": [],
      "stateMutability": "nonpayable",
      "type": "function"
    },
    {
      "inputs": [],
      "name": "updateExchangeRate",
      "outputs": [
        {
          "internalType": "bool",
          "name": "updated",
          "type": "bool"
        },
        {
          "internalType": "uint256",
          "name": "rate",
          "type": "uint256"
        }
      ],
      "stateMutability": "nonpayable",
      "type": "function"
    },
    {
      "inputs": [
        {
          "internalType": "address",
          "name": "",
          "type": "address"
        }
      ],
      "name": "userBorrowPart",
      "outputs": [
        {
          "internalType": "uint256",
          "name": "",
          "type": "uint256"
        }
      ],
      "stateMutability": "view",
      "type": "function"
    },
    {
      "inputs": [
        {
          "internalType": "address",
          "name": "",
          "type": "address"
        }
      ],
      "name": "userCollateralShare",
      "outputs": [
        {
          "internalType": "uint256",
          "name": "",
          "type": "uint256"
        }
      ],
      "stateMutability": "view",
      "type": "function"
    },
    {
      "inputs": [],
      "name": "yieldBox",
      "outputs": [
        {
          "internalType": "contract YieldBox",
          "name": "",
          "type": "address"
        }
      ],
      "stateMutability": "view",
      "type": "function"
    }
  ],
  "transactionHash": "0xc2dfe57e116e9d99d16924511eab25f2b6409702947282c8243da4bb8f28d9cf",
  "args": [],
  "numDeployments": 1,
  "solcInputHash": "2612d1c2a88385f6d32eefa521bedfe0",
  "bytecode": "0x60c060405234801561001057600080fd5b50600080546001600160a01b0319163390811782556040519091907f8be0079c531659141344cd1fd0a4f28419497f9722a3daafe3b4186f6b6457e0908290a34660a08190526100b390604080517f47e79534a245952e8b16893a336b85a3d9ea9fa8c573f3d803afb92a794692186020820152908101829052306060820152600090608001604051602081830303815290604052805190602001209050919050565b60805260805160a0516145c2620000dc6000396000611e1601526000611e4701526145c26000f3fe608060405234801561001057600080fd5b50600436106102c85760003560e01c806374645ff31161017b578063d8dfeb45116100d8578063e985e9c51161008c578063f4d9375311610071578063f4d9375314610667578063f8ba4cff1461067a578063f9557ccb1461068257600080fd5b8063e985e9c514610630578063eec0f42e1461065e57600080fd5b8063dd62ed3e116100bd578063dd62ed3e146105df578063de4065771461060a578063e30c39781461061d57600080fd5b8063d8dfeb45146105b9578063db8f3144146105cc57600080fd5b806395d89b411161012f578063b27c0e7411610114578063b27c0e741461052c578063c23ea21f14610593578063d505accf146105a657600080fd5b806395d89b4114610511578063a9059cbb1461051957600080fd5b80637ecebe00116101605780637ecebe00146104a05780638285ef40146104c05780638da5cb5b146104fe57600080fd5b806374645ff3146104855780637dc0d1d01461048d57600080fd5b80633ba0b9a91161022957806348e4163e116101dd5780634e71e0c8116101c25780634e71e0c81461044a5780636587adb81461045257806370a082311461046557600080fd5b806348e4163e146104175780634a50ed271461043757600080fd5b806340626d8b1161020e57806340626d8b146103fc57806344de240a14610405578063473e3ce71461040e57600080fd5b80633ba0b9a9146103e05780633edb1789146103e957600080fd5b80631c9e379b11610280578063313ce56711610265578063313ce567146103935780633644e515146103ad57806338d52e0f146103b557600080fd5b80631c9e379b1461036057806323b872dd1461038057600080fd5b8063078dfbe7116102b1578063078dfbe714610306578063095ea7b31461031b57806318160ddd1461033e57600080fd5b806302ce728f146102cd57806306fdde03146102f1575b600080fd5b6102d56106a0565b6040805192151583526020830191909152015b60405180910390f35b6102f961078f565b6040516102e89190613c5c565b610319610314366004613c95565b610880565b005b61032e610329366004613ce0565b6109e6565b60405190151581526020016102e8565b600e54600160801b90046001600160801b03165b6040519081526020016102e8565b61035261036e366004613d0c565b60126020526000908152604090205481565b61032e61038e366004613d29565b610a53565b61039b610c80565b60405160ff90911681526020016102e8565b610352610c9d565b600a546103c8906001600160a01b031681565b6040516001600160a01b0390911681526020016102e8565b61035260155481565b6103196103f7366004613df8565b610ca7565b61035260105481565b610352600c5481565b610352600d5481565b610352610425366004613d0c565b60136020526000908152604090205481565b6006546103c8906001600160a01b031681565b610319610dd0565b610352610460366004613ed3565b610e9a565b610352610473366004613d0c565b60026020526000908152604090205481565b6102f9610f2e565b6016546103c8906001600160a01b031681565b6103526104ae366004613d0c565b60046020526000908152604090205481565b600f546104de906001600160801b0380821691600160801b90041682565b604080516001600160801b039384168152929091166020830152016102e8565b6000546103c8906001600160a01b031681565b6102f9610fbc565b61032e610527366004613ce0565b611099565b6005546105639067ffffffffffffffff8082169168010000000000000000810490911690600160801b90046001600160801b031683565b6040805167ffffffffffffffff94851681529390921660208401526001600160801b0316908201526060016102e8565b6008546103c8906001600160a01b031681565b6103196105b4366004613f33565b6111fe565b6009546103c8906001600160a01b031681565b6103526105da366004613ce0565b611460565b6103526105ed366004613fa4565b600360209081526000928352604080842090915290825290205481565b6007546103c8906001600160a01b031681565b6001546103c8906001600160a01b031681565b61032e61063e366004613fa4565b601460209081526000928352604080842090915290825290205460ff1681565b610352600b5481565b610352610675366004613d29565b6115ef565b610319611683565b600e546104de906001600160801b0380821691600160801b90041682565b6016546040517fd6d7d52500000000000000000000000000000000000000000000000000000000815260009182916001600160a01b039091169063d6d7d525906106ef90601790600401614018565b6040805180830381600087803b15801561070857600080fd5b505af115801561071c573d6000803e3d6000fd5b505050506040513d601f19601f8201168201806040525081019061074091906140c0565b909250905081156107875760158190556040518181527f9f9192b5edb17356c524e08d9e025c8e2f6307e6ea52fb7968faa3081f51c3c89060200160405180910390a19091565b506015549091565b6009546060906107a7906001600160a01b0316611c65565b600a546107bc906001600160a01b0316611c65565b6016546040517fd568866c0000000000000000000000000000000000000000000000000000000081526001600160a01b039091169063d568866c9061080690601790600401614018565b60006040518083038186803b15801561081e57600080fd5b505afa158015610832573d6000803e3d6000fd5b505050506040513d6000823e601f3d908101601f1916820160405261085a9190810190614104565b60405160200161086c939291906141a6565b604051602081830303815290604052905090565b6000546001600160a01b031633146108df5760405162461bcd60e51b815260206004820181905260248201527f4f776e61626c653a2063616c6c6572206973206e6f7420746865206f776e657260448201526064015b60405180910390fd5b81156109b7576001600160a01b0383161515806108f95750805b6109455760405162461bcd60e51b815260206004820152601560248201527f4f776e61626c653a207a65726f2061646472657373000000000000000000000060448201526064016108d6565b600080546040516001600160a01b03808716939216917f8be0079c531659141344cd1fd0a4f28419497f9722a3daafe3b4186f6b6457e091a3600080546001600160a01b03851673ffffffffffffffffffffffffffffffffffffffff1991821617909155600180549091169055505050565b600180546001600160a01b03851673ffffffffffffffffffffffffffffffffffffffff19909116179055505050565b3360008181526003602090815260408083206001600160a01b038716808552925280832085905551919290917f8c5be1e5ebec7d5bd14f71427d1e84f3dd0314c0f7b2291e5b200ac8c7c3b92590610a419086815260200190565b60405180910390a35060015b92915050565b60008115610c28576001600160a01b03841660009081526002602052604090205482811015610ac45760405162461bcd60e51b815260206004820152601660248201527f45524332303a2062616c616e636520746f6f206c6f770000000000000000000060448201526064016108d6565b836001600160a01b0316856001600160a01b031614610c26576001600160a01b03851660009081526003602090815260408083203384529091529020546000198114610b895783811015610b5a5760405162461bcd60e51b815260206004820152601860248201527f45524332303a20616c6c6f77616e636520746f6f206c6f77000000000000000060448201526064016108d6565b610b648482614244565b6001600160a01b03871660009081526003602090815260408083203384529091529020555b6001600160a01b038516610bdf5760405162461bcd60e51b815260206004820152601660248201527f45524332303a206e6f207a65726f20616464726573730000000000000000000060448201526064016108d6565b610be98483614244565b6001600160a01b038088166000908152600260205260408082209390935590871681529081208054869290610c1f90849061425b565b9091555050505b505b826001600160a01b0316846001600160a01b03167fddf252ad1be2c89b69c2b068fc378daa952ba7f163c4a11628f55a4df523b3ef84604051610c6d91815260200190565b60405180910390a35060015b9392505050565b600a54600090610c98906001600160a01b0316611d41565b905090565b6000610c98611e12565b6000610cb16106a0565b915050610cbc611683565b6008546001600160a01b031615610db357600854604080517f7c8be05b00000000000000000000000000000000000000000000000000000000815281516000936001600160a01b031692637c8be05b9260048082019391829003018186803b158015610d2757600080fd5b505afa158015610d3b573d6000803e3d6000fd5b505050506040513d601f19601f82011682018060405250810190610d5f9190614273565b9150508015610db157610daa8b8b8487878080601f016020809104026020016040519081016040528093929190818152602001838380828437600092019190915250611e6992505050565b5050610dc5565b505b610dc38a8a8a8a8a868b8b6125ac565b505b505050505050505050565b6001546001600160a01b0316338114610e2b5760405162461bcd60e51b815260206004820181905260248201527f4f776e61626c653a2063616c6c657220213d2070656e64696e67206f776e657260448201526064016108d6565b600080546040516001600160a01b03808516939216917f8be0079c531659141344cd1fd0a4f28419497f9722a3daafe3b4186f6b6457e091a3600080546001600160a01b0390921673ffffffffffffffffffffffffffffffffffffffff19928316179055600180549091169055565b6000846001600160a01b0381163314801590610ee157506001600160a01b038116600090815260026020908152604080832054600383528184203385529092529091205411155b15610f1057604051630ca03e9b60e11b81526001600160a01b03821660048201523360248201526044016108d6565b610f18611683565b610f2486868686612f1f565b9695505050505050565b60178054610f3b90613fdd565b80601f0160208091040260200160405190810160405280929190818152602001828054610f6790613fdd565b8015610fb45780601f10610f8957610100808354040283529160200191610fb4565b820191906000526020600020905b815481529060010190602001808311610f9757829003601f168201915b505050505081565b600954606090610fd4906001600160a01b0316613174565b600a54610fe9906001600160a01b0316613174565b6016546040517fc699c4d60000000000000000000000000000000000000000000000000000000081526001600160a01b039091169063c699c4d69061103390601790600401614018565b60006040518083038186803b15801561104b57600080fd5b505afa15801561105f573d6000803e3d6000fd5b505050506040513d6000823e601f3d908101601f191682016040526110879190810190614104565b60405160200161086c93929190614298565b6000811515806110b15750336001600160a01b038416145b156111c15733600090815260026020526040902054828110156111165760405162461bcd60e51b815260206004820152601660248201527f45524332303a2062616c616e636520746f6f206c6f770000000000000000000060448201526064016108d6565b336001600160a01b038516146111bf576001600160a01b03841661117c5760405162461bcd60e51b815260206004820152601660248201527f45524332303a206e6f207a65726f20616464726573730000000000000000000060448201526064016108d6565b6111868382614244565b33600090815260026020526040808220929092556001600160a01b038616815290812080548592906111b990849061425b565b90915550505b505b6040518281526001600160a01b0384169033907fddf252ad1be2c89b69c2b068fc378daa952ba7f163c4a11628f55a4df523b3ef90602001610a41565b6001600160a01b0387166112545760405162461bcd60e51b815260206004820152601860248201527f45524332303a204f776e65722063616e6e6f742062652030000000000000000060448201526064016108d6565b8342106112a35760405162461bcd60e51b815260206004820152600e60248201527f45524332303a204578706972656400000000000000000000000000000000000060448201526064016108d6565b6001600160a01b0387166000818152600460205260408120805460019261134d927f6e71edae12b1b97f4d1f60370fef10105fa2faae0126114a169c64845d6126c9928d928d928d92916112f683614320565b909155506040805160208101969096526001600160a01b0394851690860152929091166060840152608083015260a082015260c0810188905260e001604051602081830303815290604052805190602001206131d4565b6040805160008152602081018083529290925260ff871690820152606081018590526080810184905260a0016020604051602081039080840390855afa15801561139b573d6000803e3d6000fd5b505050602060405103516001600160a01b0316146113fb5760405162461bcd60e51b815260206004820152601860248201527f45524332303a20496e76616c6964205369676e6174757265000000000000000060448201526064016108d6565b6001600160a01b038781166000818152600360209081526040808320948b168084529482529182902089905590518881527f8c5be1e5ebec7d5bd14f71427d1e84f3dd0314c0f7b2291e5b200ac8c7c3b925910160405180910390a350505050505050565b6001600160a01b03821660009081526013602052604081205480611488576000915050610a4d565b6001600160a01b038085166000908152601260209081526040808320548151808301909252600f546001600160801b038082168452600160801b9091041692820192909252600754600b5492949193928892919091169063442c1599906161a86114fd620186a0670de0b6b3a764000061433b565b611507908961435d565b611511919061435d565b6040516001600160e01b031960e085901b168152600481019290925260248201526000604482015260640160206040518083038186803b15801561155457600080fd5b505afa158015611568573d6000803e3d6000fd5b505050506040513d601f19601f8201168201806040525081019061158c919061437c565b611596919061433b565b905081602001516001600160801b031682600001516001600160801b0316856115bf919061435d565b6115c9919061433b565b9350808410156115da5760006115e4565b6115e48185614244565b979650505050505050565b6000836001600160a01b038116331480159061163657506001600160a01b038116600090815260026020908152604080832054600383528184203385529092529091205411155b1561166557604051630ca03e9b60e11b81526001600160a01b03821660048201523360248201526044016108d6565b61166d611683565b61167a8585856001613244565b95945050505050565b6040805160608101825260055467ffffffffffffffff80821683526801000000000000000082041660208301819052600160801b9091046001600160801b031692820192909252906000906116d89042614244565b9050806116e3575050565b67ffffffffffffffff421660208084019190915260408051808201909152600f546001600160801b038082168352600160801b90910416918101829052906117ef57825167ffffffffffffffff166312e687c01461178d576312e687c0808452604080516000808252602082018190529181019290925260608201527f33af5ce86e8438eff54589f85332916444457dfa8685493fbd579b809097026b9060800160405180910390a15b505080516005805460208401516040909401516001600160801b03908116600160801b0267ffffffffffffffff95861668010000000000000000026fffffffffffffffffffffffffffffffff1990931695909416949094171792909216179055565b60408051808201909152600e546001600160801b038082168352600160801b909104811660208301528451835160009384939092670de0b6b3a76400009288926118449267ffffffffffffffff16911661435d565b61184e919061435d565b611858919061433b565b9250828460000181815161186c9190614395565b6001600160801b039081169091528551600754600c54855160405163442c159960e01b8152600481019290925284166024820152600060448201819052945091909216916001600160a01b03169063442c15999060640160206040518083038186803b1580156118db57600080fd5b505afa1580156118ef573d6000803e3d6000fd5b505050506040513d601f19601f82011682018060405250810190611913919061437c565b61191d919061425b565b90506000620186a06119316127108761435d565b61193b919061433b565b90508183602001516001600160801b031682611957919061435d565b611961919061433b565b935083886040018181516119759190614395565b6001600160801b03169052506020830151611991908590614395565b600e80546001600160801b03908116600160801b9382168402179091558751602089015190821691169091028117600f5560009083906119da90670de0b6b3a76400009061435d565b6119e4919061433b565b90506709b6e64a8ec60000811015611abb5760006709b6e64a8ec60000670de0b6b3a7640000611a148483614244565b611a1e919061435d565b611a28919061433b565b9050600089611a37838061435d565b611a41919061435d565b611a5c907054a2b63d65d79d094abb6688000000000061425b565b9050807054a2b63d65d79d094abb668800000000008c6000015167ffffffffffffffff16611a8a919061435d565b611a94919061433b565b67ffffffffffffffff16808c526304b9a1f01115611ab4576304b9a1f08b525b5050611baa565b670b1a2bc2ec500000811115611baa576000611ae7670b1a2bc2ec500000670de0b6b3a7640000614244565b670de0b6b3a7640000611b02670b1a2bc2ec50000085614244565b611b0c919061435d565b611b16919061433b565b9050600089611b25838061435d565b611b2f919061435d565b611b4a907054a2b63d65d79d094abb6688000000000061425b565b905060007054a2b63d65d79d094abb66880000000000828d6000015167ffffffffffffffff16611b7a919061435d565b611b84919061433b565b90506449d4824600811115611b9b57506449d48246005b67ffffffffffffffff168b5250505b8851604080518881526020810188905267ffffffffffffffff9092168282015260608201839052517f33af5ce86e8438eff54589f85332916444457dfa8685493fbd579b809097026b9181900360800190a1505086516005805460208a01516040909a01516001600160801b03908116600160801b0267ffffffffffffffff9b8c1668010000000000000000026fffffffffffffffffffffffffffffffff199093169b9094169a909a17179890981617909655505050505050565b60408051600481526024810182526020810180516001600160e01b03167f06fdde0300000000000000000000000000000000000000000000000000000000179052905160609160009182916001600160a01b03861691611cc591906143c0565b600060405180830381855afa9150503d8060008114611d00576040519150601f19603f3d011682016040523d82523d6000602084013e611d05565b606091505b509150915081611d3057604051806040016040528060038152602001623f3f3f60e81b815250611d39565b611d398161359c565b949350505050565b60408051600481526024810182526020810180516001600160e01b03167f313ce567000000000000000000000000000000000000000000000000000000001790529051600091829182916001600160a01b03861691611da091906143c0565b600060405180830381855afa9150503d8060008114611ddb576040519150601f19603f3d011682016040523d82523d6000602084013e611de0565b606091505b5091509150818015611df3575080516020145b611dfe576012611d39565b80806020019051810190611d3991906143dc565b60007f00000000000000000000000000000000000000000000000000000000000000004614611e4457610c9846613763565b507f000000000000000000000000000000000000000000000000000000000000000090565b60408051808201909152600f546001600160801b038082168352600160801b90910416602082015260009081908190815b87811015612104576000898983818110611eb657611eb66143f9565b9050602002016020810190611ecb9190613d0c565b9050611ed781896137a4565b6120f0576000611ee7828a611460565b905080611ef55750506120f2565b6001600160a01b038216600090815260136020526040812054611f1986848461390d565b9150611f258282614244565b6001600160a01b03808616600090815260136020526040812092909255600754600b549293501690638eb22cdd90611f68620186a0670de0b6b3a764000061435d565b6201b5808f88611f78919061435d565b611f82919061435d565b611f8c919061433b565b6040516001600160e01b031960e085901b168152600481019290925260248201526000604482015260640160206040518083038186803b158015611fcf57600080fd5b505afa158015611fe3573d6000803e3d6000fd5b505050506040513d601f19601f82011682018060405250810190612007919061437c565b6001600160a01b038516600090815260126020526040812080549293508392909190612034908490614244565b90915550506008546040518281526001600160a01b03918216918616907f8ad4d3ff00da092c7ad9a573ea4f5f6a3dffc6712dc06d3f78f49b862297c4029060200160405180910390a360085460408051858152602081018590526001600160a01b038781169316917fc8e512d8f188ca059984b5853d2bf653da902696b8512785b182b2c813789a6e910160405180910390a36120d2818a61425b565b98506120de838961425b565b97506120ea828861425b565b96505050505b505b806120fc81614320565b915050611e9a565b50826121415760405162461bcd60e51b815260206004820152600c60248201526b14d1d30e881cdbdb1d995b9d60a21b60448201526064016108d6565b8281600001818151612153919061440f565b6001600160801b031690525060208101805183919061217390839061440f565b6001600160801b03908116909152825160208401518216600160801b02911617600f5550600d80548591906000906121ac908490614244565b9091555050600754600c54604051638eb22cdd60e01b8152600481019190915260248101859052600160448201526000916001600160a01b031690638eb22cdd9060640160206040518083038186803b15801561220857600080fd5b505afa15801561221c573d6000803e3d6000fd5b505050506040513d601f19601f82011682018060405250810190612240919061437c565b600754600854600b54604051630208d92960e11b81523060048201526001600160a01b0392831660248201526044810191909152606481018990529293501690630411b25290608401600060405180830381600087803b1580156122a357600080fd5b505af11580156122b7573d6000803e3d6000fd5b5050600854600754600b5460405163442c159960e01b81526004810191909152602481018a9052600160448201526001600160a01b039283169450633965907b935091169063442c15999060640160206040518083038186803b15801561231d57600080fd5b505afa158015612331573d6000803e3d6000fd5b505050506040513d601f19601f82011682018060405250810190612355919061437c565b886040518363ffffffff1660e01b8152600401612373929190614437565b6040805180830381600087803b15801561238c57600080fd5b505af11580156123a0573d6000803e3d6000fd5b505050506040513d601f19601f820116820180604052508101906123c49190614450565b5050600e54600754600c54604051627eeac760e11b815230600482015260248101919091526000926001600160801b0316916001600160a01b03169062fdd58e9060440160206040518083038186803b15801561242057600080fd5b505afa158015612434573d6000803e3d6000fd5b505050506040513d601f19601f82011682018060405250810190612458919061437c565b6124629190614244565b905060006124708383614244565b90506000620186a06124846103e88461435d565b61248e919061433b565b600754600c54604051630208d92960e11b81523060048201523360248201526044810191909152606481018390529192506001600160a01b031690630411b25290608401600060405180830381600087803b1580156124ec57600080fd5b505af1158015612500573d6000803e3d6000fd5b5050505080836125109190614244565b600e805460009061252b9084906001600160801b0316614395565b82546001600160801b039182166101009390930a92830291909202199091161790555060085430906001600160a01b03167f30a8c4f9ab5af7e1309ca87c32377d1a83366c5990472dbf9d262450eae14e386125878487614244565b60408051918252600060208301520160405180910390a3505050505050505050505050565b60408051808201909152600f546001600160801b038082168352600160801b90910416602082015260009081908190815b8b81101561288d5760008d8d838181106125f9576125f96143f9565b905060200201602081019061260e9190613d0c565b905061261a818a6137a4565b61287a576001600160a01b038116600090815260136020526040812054808e8e8681811061264a5761264a6143f9565b9050602002013511612674578d8d85818110612668576126686143f9565b90506020020135612676565b805b91506126828282614244565b6001600160a01b03841660009081526013602052604081209190915590506126ab85838361399b565b600754600b549192506000916001600160a01b0390911690638eb22cdd906126de670de0b6b3a7640000620186a061435d565b8f6126ec6201b5808861435d565b6126f6919061435d565b612700919061433b565b6040516001600160e01b031960e085901b168152600481019290925260248201526000604482015260640160206040518083038186803b15801561274357600080fd5b505afa158015612757573d6000803e3d6000fd5b505050506040513d601f19601f8201168201806040525081019061277b919061437c565b6001600160a01b0385166000908152601260205260408120805492935083929091906127a8908490614244565b925050819055508c6001600160a01b0316846001600160a01b03167f8ad4d3ff00da092c7ad9a573ea4f5f6a3dffc6712dc06d3f78f49b862297c402836040516127f491815260200190565b60405180910390a3836001600160a01b03168d6001600160a01b03167fc8e512d8f188ca059984b5853d2bf653da902696b8512785b182b2c813789a6e848660405161284a929190918252602082015260400190565b60405180910390a361285c818a61425b565b9850612868828961425b565b9750612874838861425b565b96505050505b508061288581614320565b9150506125dd565b50826128ca5760405162461bcd60e51b815260206004820152600c60248201526b14d1d30e881cdbdb1d995b9d60a21b60448201526064016108d6565b82816000018181516128dc919061440f565b6001600160801b03169052506020810180518391906128fc90839061440f565b6001600160801b03908116909152825160208401518216600160801b02911617600f5550600d8054859190600090612935908490614244565b9091555050600754600c54604051638eb22cdd60e01b8152600481019190915260248101859052600160448201526000916001600160a01b031690638eb22cdd9060640160206040518083038186803b15801561299157600080fd5b505afa1580156129a5573d6000803e3d6000fd5b505050506040513d601f19601f820116820180604052508101906129c9919061437c565b6006546040517f8cad7fbe0000000000000000000000000000000000000000000000000000000081526001600160a01b038c81166004830152929350911690638cad7fbe9060240160206040518083038186803b158015612a2957600080fd5b505afa158015612a3d573d6000803e3d6000fd5b505050506040513d601f19601f82011682018060405250810190612a619190614474565b612aad5760405162461bcd60e51b815260206004820152601460248201527f53474c3a20496e76616c6964207377617070657200000000000000000000000060448201526064016108d6565b600754600b54604051630208d92960e11b81523060048201526001600160a01b038c81166024830152604482019290925260648101889052911690630411b25290608401600060405180830381600087803b158015612b0b57600080fd5b505af1158015612b1f573d6000803e3d6000fd5b50600092505087159050612b3c57612b3987890189614491565b90505b600b54600c546040517fce58b2000000000000000000000000000000000000000000000000000000000081526001600160a01b038d169263ce58b20092612b8e92869030906018908e906004016144aa565b6040805180830381600087803b158015612ba757600080fd5b505af1158015612bbb573d6000803e3d6000fd5b505050506040513d601f19601f82011682018060405250810190612bdf9190614450565b5050600e54600754600c54604051627eeac760e11b815230600482015260248101919091526000926001600160801b0316916001600160a01b03169062fdd58e9060440160206040518083038186803b158015612c3b57600080fd5b505afa158015612c4f573d6000803e3d6000fd5b505050506040513d601f19601f82011682018060405250810190612c73919061437c565b612c7d9190614244565b90506000612c8b8483614244565b90506000620186a0612c9f6127108461435d565b612ca9919061433b565b90506000620186a0612cbd6103e88561435d565b612cc7919061433b565b600754600654604080517f017e7e5800000000000000000000000000000000000000000000000000000000815290519394506001600160a01b0392831693630411b252933093169163017e7e58916004808301926020929190829003018186803b158015612d3457600080fd5b505afa158015612d48573d6000803e3d6000fd5b505050506040513d601f19601f82011682018060405250810190612d6c9190614528565b600c546040516001600160e01b031960e086901b1681526001600160a01b039384166004820152929091166024830152604482015260648101859052608401600060405180830381600087803b158015612dc557600080fd5b505af1158015612dd9573d6000803e3d6000fd5b5050600754600c54604051630208d92960e11b81523060048201523360248201526044810191909152606481018590526001600160a01b039091169250630411b2529150608401600060405180830381600087803b158015612e3a57600080fd5b505af1158015612e4e573d6000803e3d6000fd5b50505050808285612e5f9190614244565b612e699190614244565b600e8054600090612e849084906001600160801b0316614395565b92506101000a8154816001600160801b0302191690836001600160801b03160217905550306001600160a01b03168e6001600160a01b03167f30a8c4f9ab5af7e1309ca87c32377d1a83366c5990472dbf9d262450eae14e38838587612eea9190614244565b612ef49190614244565b60408051918252600060208301520160405180910390a3505050505050505050505050505050505050565b604080518082018252600e546001600160801b03808216808452600160801b90920481166020840152600754600c54600f549551638eb22cdd60e01b815260048101919091529490911660248501526001604485015260009384916001600160a01b031690638eb22cdd9060640160206040518083038186803b158015612fa557600080fd5b505afa158015612fb9573d6000803e3d6000fd5b505050506040513d601f19601f82011682018060405250810190612fdd919061437c565b8351612ff291906001600160801b031661425b565b90508015613023578083602001516001600160801b031686613014919061435d565b61301e919061433b565b613025565b845b93506103e884846020015161303a9190614395565b6001600160801b031610156130555760009350505050611d39565b613060838686613a14565b80516020918201516001600160801b03908116600160801b02911617600e556001600160a01b038816600090815260029091526040812080548692906130a790849061425b565b90915550506040518481526001600160a01b038816906000907fddf252ad1be2c89b69c2b068fc378daa952ba7f163c4a11628f55a4df523b3ef9060200160405180910390a36130fc88600c5487858a613a6e565b866001600160a01b031686613111578861311e565b6007546001600160a01b03165b6001600160a01b03167f30a8c4f9ab5af7e1309ca87c32377d1a83366c5990472dbf9d262450eae14e388787604051613161929190918252602082015260400190565b60405180910390a3505050949350505050565b60408051600481526024810182526020810180516001600160e01b03167f95d89b4100000000000000000000000000000000000000000000000000000000179052905160609160009182916001600160a01b03861691611cc591906143c0565b60006040518060400160405280600281526020017f1901000000000000000000000000000000000000000000000000000000000000815250613214611e12565b8360405160200161322793929190614545565b604051602081830303815290604052805190602001209050919050565b600e54600090600160801b90046001600160801b031661326657506000611d39565b604080518082018252600e546001600160801b038082168352600160801b90910481166020830152600754600c54600f549451638eb22cdd60e01b815260048101919091529390911660248401526001604484015290916000916001600160a01b031690638eb22cdd9060640160206040518083038186803b1580156132eb57600080fd5b505afa1580156132ff573d6000803e3d6000fd5b505050506040513d601f19601f82011682018060405250810190613323919061437c565b825161333891906001600160801b031661425b565b60208301519091506001600160801b0316613353828761435d565b61335d919061433b565b6001600160a01b03881660009081526002602052604081208054929550879290919061338a908490614244565b90915550506040518581526000906001600160a01b038916907fddf252ad1be2c89b69c2b068fc378daa952ba7f163c4a11628f55a4df523b3ef9060200160405180910390a382826000018181516133e2919061440f565b6001600160801b031690525060208201805186919061340290839061440f565b6001600160801b0390811690915260208401516103e891161015905061346a5760405162461bcd60e51b815260206004820152600e60248201527f53474c3a206d696e206c696d697400000000000000000000000000000000000060448201526064016108d6565b815160208301516001600160801b03908116600160801b02911617600e556040516001600160a01b0380881691908916907f6e853a5fd6b51d773691f542ebac8513c9992a51380d4c342031056a64114228906134d39087908a90918252602082015260400190565b60405180910390a3600754600c54604051630208d92960e11b81523060048201526001600160a01b038981166024830152604482019290925260648101869052911690630411b25290608401600060405180830381600087803b15801561353957600080fd5b505af115801561354d573d6000803e3d6000fd5b505050508315613592576001600160a01b0387166000908152601160209081526040808320600c5484529091528120805485929061358c908490614244565b90915550505b5050949350505050565b606060408251106135bb5781806020019051810190610a4d9190614104565b8151602014156137445760005b60208160ff161080156136155750828160ff16815181106135eb576135eb6143f9565b01602001517fff000000000000000000000000000000000000000000000000000000000000001615155b1561362c57806136248161456c565b9150506135c8565b60008160ff1667ffffffffffffffff81111561364a5761364a6140ee565b6040519080825280601f01601f191660200182016040528015613674576020820181803683370190505b509050600091505b60208260ff161080156136c95750838260ff168151811061369f5761369f6143f9565b01602001517fff000000000000000000000000000000000000000000000000000000000000001615155b15610c7957838260ff16815181106136e3576136e36143f9565b602001015160f81c60f81b818360ff1681518110613703576137036143f9565b60200101907effffffffffffffffffffffffffffffffffffffffffffffffffffffffffffff1916908160001a9053508161373c8161456c565b92505061367c565b50506040805180820190915260038152623f3f3f60e81b602082015290565b604080517f47e79534a245952e8b16893a336b85a3d9ea9fa8c573f3d803afb92a794692186020820152908101829052306060820152600090608001613227565b6001600160a01b038216600090815260136020526040812054806137cc576001915050610a4d565b6001600160a01b038416600090815260126020526040902054806137f557600092505050610a4d565b60408051808201909152600f546001600160801b03808216808452600160801b909204166020830181905290869061382d908661435d565b613837919061435d565b613841919061433b565b600754600b546001600160a01b039091169063442c159990620124f8613872620186a0670de0b6b3a764000061433b565b61387c908861435d565b613886919061435d565b6040516001600160e01b031960e085901b168152600481019290925260248201526000604482015260640160206040518083038186803b1580156138c957600080fd5b505afa1580156138dd573d6000803e3d6000fd5b505050506040513d601f19601f82011682018060405250810190613901919061437c565b10159695505050505050565b82516000906001600160801b0316613926575081610c79565b835160208501516001600160801b039182169161394491168561435d565b61394e919061433b565b905081801561398c57508284602001516001600160801b031685600001516001600160801b031683613980919061435d565b61398a919061433b565b105b15610c79578061167a81614320565b600083602001516001600160801b0316600014156139ba575081610c79565b602084015184516001600160801b03918216916139d891168561435d565b6139e2919061433b565b905081801561398c57508284600001516001600160801b031685602001516001600160801b031683613980919061435d565b60408051808201909152600080825260208201528284600001818151613a3a9190614395565b6001600160801b0316905250602084018051839190613a5a908390614395565b6001600160801b0316905250929392505050565b6001600160a01b038516600090815260116020908152604080832087845290915281208054859290613aa190849061425b565b90915550508015613b8a57600754604051627eeac760e11b81523060048201526024810186905283916001600160a01b03169062fdd58e9060440160206040518083038186803b158015613af457600080fd5b505afa158015613b08573d6000803e3d6000fd5b505050506040513d601f19601f82011682018060405250810190613b2c919061437c565b613b369190614244565b831115613b855760405162461bcd60e51b815260206004820152600d60248201527f53474c3a20746f6f206d7563680000000000000000000000000000000000000060448201526064016108d6565b613bf9565b600754604051630208d92960e11b81526001600160a01b038781166004830152306024830152604482018790526064820186905290911690630411b25290608401600060405180830381600087803b158015613be557600080fd5b505af1158015610dc5573d6000803e3d6000fd5b5050505050565b60005b83811015613c1b578181015183820152602001613c03565b83811115613c2a576000848401525b50505050565b60008151808452613c48816020860160208601613c00565b601f01601f19169290920160200192915050565b602081526000610c796020830184613c30565b6001600160a01b0381168114613c8457600080fd5b50565b8015158114613c8457600080fd5b600080600060608486031215613caa57600080fd5b8335613cb581613c6f565b92506020840135613cc581613c87565b91506040840135613cd581613c87565b809150509250925092565b60008060408385031215613cf357600080fd5b8235613cfe81613c6f565b946020939093013593505050565b600060208284031215613d1e57600080fd5b8135610c7981613c6f565b600080600060608486031215613d3e57600080fd5b8335613d4981613c6f565b92506020840135613d5981613c6f565b929592945050506040919091013590565b60008083601f840112613d7c57600080fd5b50813567ffffffffffffffff811115613d9457600080fd5b6020830191508360208260051b8501011115613daf57600080fd5b9250929050565b60008083601f840112613dc857600080fd5b50813567ffffffffffffffff811115613de057600080fd5b602083019150836020828501011115613daf57600080fd5b600080600080600080600080600060a08a8c031215613e1657600080fd5b893567ffffffffffffffff80821115613e2e57600080fd5b613e3a8d838e01613d6a565b909b50995060208c0135915080821115613e5357600080fd5b613e5f8d838e01613d6a565b909950975060408c01359150613e7482613c6f565b90955060608b01359080821115613e8a57600080fd5b613e968d838e01613db6565b909650945060808c0135915080821115613eaf57600080fd5b50613ebc8c828d01613db6565b915080935050809150509295985092959850929598565b60008060008060808587031215613ee957600080fd5b8435613ef481613c6f565b93506020850135613f0481613c6f565b92506040850135613f1481613c87565b9396929550929360600135925050565b60ff81168114613c8457600080fd5b600080600080600080600060e0888a031215613f4e57600080fd5b8735613f5981613c6f565b96506020880135613f6981613c6f565b955060408801359450606088013593506080880135613f8781613f24565b9699959850939692959460a0840135945060c09093013592915050565b60008060408385031215613fb757600080fd5b8235613fc281613c6f565b91506020830135613fd281613c6f565b809150509250929050565b600181811c90821680613ff157607f821691505b6020821081141561401257634e487b7160e01b600052602260045260246000fd5b50919050565b600060208083526000845481600182811c91508083168061403a57607f831692505b85831081141561405857634e487b7160e01b85526022600452602485fd5b8786018381526020018180156140755760018114614086576140b1565b60ff198616825287820196506140b1565b60008b81526020902060005b868110156140ab57815484820152908501908901614092565b83019750505b50949998505050505050505050565b600080604083850312156140d357600080fd5b82516140de81613c87565b6020939093015192949293505050565b634e487b7160e01b600052604160045260246000fd5b60006020828403121561411657600080fd5b815167ffffffffffffffff8082111561412e57600080fd5b818401915084601f83011261414257600080fd5b815181811115614154576141546140ee565b604051601f8201601f19908116603f0116810190838211818310171561417c5761417c6140ee565b8160405282815287602084870101111561419557600080fd5b6115e4836020830160208801613c00565b7f546170696f63612053696e67756c6172697479200000000000000000000000008152600084516141de816014850160208901613c00565b602f60f81b60149184019182015284516141ff816015840160208901613c00565b602d60f81b601592909101918201528351614221816016840160208801613c00565b0160160195945050505050565b634e487b7160e01b600052601160045260246000fd5b6000828210156142565761425661422e565b500390565b6000821982111561426e5761426e61422e565b500190565b6000806040838503121561428657600080fd5b825191506020830151613fd281613c87565b7f746d0000000000000000000000000000000000000000000000000000000000008152600084516142d0816002850160208901613c00565b602f60f81b60029184019182015284516142f1816003840160208901613c00565b602d60f81b600392909101918201528351614313816004840160208801613c00565b0160040195945050505050565b60006000198214156143345761433461422e565b5060010190565b60008261435857634e487b7160e01b600052601260045260246000fd5b500490565b60008160001904831182151516156143775761437761422e565b500290565b60006020828403121561438e57600080fd5b5051919050565b60006001600160801b038083168185168083038211156143b7576143b761422e565b01949350505050565b600082516143d2818460208701613c00565b9190910192915050565b6000602082840312156143ee57600080fd5b8151610c7981613f24565b634e487b7160e01b600052603260045260246000fd5b60006001600160801b038381169083168181101561442f5761442f61422e565b039392505050565b828152604060208201526000611d396040830184613c30565b6000806040838503121561446357600080fd5b505080516020909101519092909150565b60006020828403121561448657600080fd5b8151610c7981613c87565b6000602082840312156144a357600080fd5b5035919050565b600060c08201888352602088818501528760408501526001600160a01b03808816606086015260c0608086015282875480855260e0870191508860005283600020945060005b8181101561450e5785548416835260019586019592850192016144f0565b5050809450505050508260a0830152979650505050505050565b60006020828403121561453a57600080fd5b8151610c7981613c6f565b60008451614557818460208901613c00565b91909101928352506020820152604001919050565b600060ff821660ff8114156145835761458361422e565b6001019291505056fea2646970667358221220fe8ad3b5c8e92bc9501f0f86cb36cd162e8f2463b1de61bb8323cda46931a2b064736f6c63430008090033",
  "devdoc": {
    "kind": "dev",
    "methods": {
      "addAsset(address,address,bool,uint256)": {
        "params": {
          "from": "Address to add asset from.",
          "share": "The amount of shares to add.",
          "skim": "True if the amount should be skimmed from the deposit balance of msg.sender. False if tokens from msg.sender in `yieldBox` should be transferred.",
          "to": "The address of the user to receive the assets."
        },
        "returns": {
          "fraction": "Total fractions added."
        }
      },
      "approve(address,uint256)": {
        "params": {
          "amount": "The maximum collective amount that `spender` can draw.",
          "spender": "Address of the party that can draw from msg.sender's account."
        },
        "returns": {
          "_0": "(bool) Returns True if approved."
        }
      },
      "computeAssetAmountToSolvency(address,uint256)": {
        "details": "We use a `CLOSED_COLLATERIZATION_RATE` that is a safety buffer when making the user solvent again,      To prevent from being liquidated. This function is valid only if user is not solvent by `_isSolvent()`.",
        "params": {
          "_exchangeRate": "The exchange rate asset/collateral.",
          "user": "The user to check solvency."
        },
        "returns": {
          "_0": "The amount of collateral to be solvent."
        }
      },
      "liquidate(address[],uint256[],address,bytes,bytes)": {
        "details": "Will call `closedLiquidation()` if not LQ exists or no LQ bid avail exists. Otherwise use LQ.",
        "params": {
          "collateralToAssetSwapData": "Extra swap data        Ignore for `orderBookLiquidation()`",
          "maxBorrowParts": "A one-to-one mapping to `users`, contains maximum (partial) borrow amounts (to liquidate) of the respective user.        Ignore for `orderBookLiquidation()`",
          "swapper": "Contract address of the `MultiSwapper` implementation. See `setSwapper`.        Ignore for `orderBookLiquidation()`",
          "usdoToBorrowedSwapData": "Extra swap data        Ignore for `closedLiquidation()`",
          "users": "An array of user addresses."
        }
      },
      "permit(address,address,uint256,uint256,uint8,bytes32,bytes32)": {
        "params": {
          "deadline": "This permit must be redeemed before this deadline (UTC timestamp in seconds).",
          "owner_": "Address of the owner.",
          "spender": "The address of the spender that gets approved to draw from `owner_`.",
          "value": "The maximum collective amount that `spender` can draw."
        }
      },
      "removeAsset(address,address,uint256)": {
        "params": {
          "fraction": "The amount/fraction of assets held to remove.",
          "from": "Account to debit Assets from.",
          "to": "The user that receives the removed assets."
        },
        "returns": {
          "share": "The amount of shares transferred to `to`."
        }
      },
      "transfer(address,uint256)": {
        "params": {
          "amount": "of the tokens to move.",
          "to": "The address to move the tokens."
        },
        "returns": {
          "_0": "(bool) Returns True if succeeded."
        }
      },
      "transferFrom(address,address,uint256)": {
        "params": {
          "amount": "The token amount to move.",
          "from": "Address to draw tokens from.",
          "to": "The address to move the tokens."
        },
        "returns": {
          "_0": "(bool) Returns True if succeeded."
        }
      },
      "transferOwnership(address,bool,bool)": {
        "params": {
          "direct": "True if `newOwner` should be set immediately. False if `newOwner` needs to use `claimOwnership`.",
          "newOwner": "Address of the new owner.",
          "renounce": "Allows the `newOwner` to be `address(0)` if `direct` and `renounce` is True. Has no effect otherwise."
        }
      },
      "updateExchangeRate()": {
        "returns": {
          "rate": "The new exchange rate.",
          "updated": "True if `exchangeRate` was updated."
        }
      }
    },
    "version": 1
  },
  "userdoc": {
    "kind": "user",
    "methods": {
      "accrue()": {
        "notice": "Accrues the interest on the borrowed tokens and handles the accumulation of fees."
      },
      "addAsset(address,address,bool,uint256)": {
        "notice": "Adds assets to the lending pair."
      },
      "allowance(address,address)": {
        "notice": "owner > spender > allowance mapping."
      },
      "approve(address,uint256)": {
        "notice": "Approves `amount` from sender to be spend by `spender`."
      },
      "balanceOf(address)": {
        "notice": "owner > balance mapping."
      },
      "claimOwnership()": {
        "notice": "Needs to be called by `pendingOwner` to claim ownership."
      },
      "computeAssetAmountToSolvency(address,uint256)": {
        "notice": "Return the amount of collateral for a `user` to be solvent. Returns 0 if user already solvent."
      },
      "exchangeRate()": {
        "notice": "Exchange and interest rate tracking. This is 'cached' here because calls to Oracles can be very expensive. Asset -> collateral = assetAmount * exchangeRate."
      },
      "liquidate(address[],uint256[],address,bytes,bytes)": {
        "notice": "Entry point for liquidations."
      },
      "nonces(address)": {
        "notice": "owner > nonce mapping. Used in `permit`."
      },
      "permit(address,address,uint256,uint256,uint8,bytes32,bytes32)": {
        "notice": "Approves `value` from `owner_` to be spend by `spender`."
      },
      "removeAsset(address,address,uint256)": {
        "notice": "Removes an asset from msg.sender and transfers it to `to`."
      },
      "transfer(address,uint256)": {
        "notice": "Transfers `amount` tokens from `msg.sender` to `to`."
      },
      "transferFrom(address,address,uint256)": {
        "notice": "Transfers `amount` tokens from `from` to `to`. Caller needs approval for `from`."
      },
      "transferOwnership(address,bool,bool)": {
        "notice": "Transfers ownership to `newOwner`. Either directly or claimable by the new pending owner. Can only be invoked by the current `owner`."
      },
      "updateExchangeRate()": {
        "notice": "Gets the exchange rate. I.e how much collateral to buy 1e18 asset. This function is supposed to be invoked if needed because Oracle queries can be expensive."
      }
    },
    "version": 1
  },
  "storageLayout": {
    "storage": [
      {
        "astId": 233,
        "contract": "contracts/singularity/SGLLiquidation.sol:SGLLiquidation",
        "label": "owner",
        "offset": 0,
        "slot": "0",
        "type": "t_address"
      },
      {
        "astId": 235,
        "contract": "contracts/singularity/SGLLiquidation.sol:SGLLiquidation",
        "label": "pendingOwner",
        "offset": 0,
        "slot": "1",
        "type": "t_address"
      },
      {
        "astId": 478,
        "contract": "contracts/singularity/SGLLiquidation.sol:SGLLiquidation",
        "label": "balanceOf",
        "offset": 0,
        "slot": "2",
        "type": "t_mapping(t_address,t_uint256)"
      },
      {
        "astId": 486,
        "contract": "contracts/singularity/SGLLiquidation.sol:SGLLiquidation",
        "label": "allowance",
        "offset": 0,
        "slot": "3",
        "type": "t_mapping(t_address,t_mapping(t_address,t_uint256))"
      },
      {
        "astId": 491,
        "contract": "contracts/singularity/SGLLiquidation.sol:SGLLiquidation",
        "label": "nonces",
        "offset": 0,
        "slot": "4",
        "type": "t_mapping(t_address,t_uint256)"
      },
      {
        "astId": 9916,
        "contract": "contracts/singularity/SGLLiquidation.sol:SGLLiquidation",
        "label": "accrueInfo",
        "offset": 0,
        "slot": "5",
        "type": "t_struct(AccrueInfo)12295_storage"
      },
      {
        "astId": 9919,
        "contract": "contracts/singularity/SGLLiquidation.sol:SGLLiquidation",
        "label": "beachBar",
        "offset": 0,
        "slot": "6",
        "type": "t_contract(IBeachBar)3182"
      },
      {
        "astId": 9922,
        "contract": "contracts/singularity/SGLLiquidation.sol:SGLLiquidation",
        "label": "yieldBox",
        "offset": 0,
        "slot": "7",
        "type": "t_contract(YieldBox)30249"
      },
      {
        "astId": 9925,
        "contract": "contracts/singularity/SGLLiquidation.sol:SGLLiquidation",
        "label": "liquidationQueue",
        "offset": 0,
        "slot": "8",
        "type": "t_contract(ILiquidationQueue)4189"
      },
      {
        "astId": 9928,
        "contract": "contracts/singularity/SGLLiquidation.sol:SGLLiquidation",
        "label": "collateral",
        "offset": 0,
        "slot": "9",
        "type": "t_contract(IERC20)1099"
      },
      {
        "astId": 9931,
        "contract": "contracts/singularity/SGLLiquidation.sol:SGLLiquidation",
        "label": "asset",
        "offset": 0,
        "slot": "10",
        "type": "t_contract(IERC20)1099"
      },
      {
        "astId": 9933,
        "contract": "contracts/singularity/SGLLiquidation.sol:SGLLiquidation",
        "label": "collateralId",
        "offset": 0,
        "slot": "11",
        "type": "t_uint256"
      },
      {
        "astId": 9935,
        "contract": "contracts/singularity/SGLLiquidation.sol:SGLLiquidation",
        "label": "assetId",
        "offset": 0,
        "slot": "12",
        "type": "t_uint256"
      },
      {
        "astId": 9937,
        "contract": "contracts/singularity/SGLLiquidation.sol:SGLLiquidation",
        "label": "totalCollateralShare",
        "offset": 0,
        "slot": "13",
        "type": "t_uint256"
      },
      {
        "astId": 9940,
        "contract": "contracts/singularity/SGLLiquidation.sol:SGLLiquidation",
        "label": "totalAsset",
        "offset": 0,
        "slot": "14",
        "type": "t_struct(Rebase)1874_storage"
      },
      {
        "astId": 9943,
        "contract": "contracts/singularity/SGLLiquidation.sol:SGLLiquidation",
        "label": "totalBorrow",
        "offset": 0,
        "slot": "15",
        "type": "t_struct(Rebase)1874_storage"
      },
      {
        "astId": 9945,
        "contract": "contracts/singularity/SGLLiquidation.sol:SGLLiquidation",
        "label": "totalBorrowCap",
        "offset": 0,
        "slot": "16",
        "type": "t_uint256"
      },
      {
        "astId": 9951,
        "contract": "contracts/singularity/SGLLiquidation.sol:SGLLiquidation",
        "label": "_yieldBoxShares",
        "offset": 0,
        "slot": "17",
        "type": "t_mapping(t_address,t_mapping(t_uint256,t_uint256))"
      },
      {
        "astId": 9955,
        "contract": "contracts/singularity/SGLLiquidation.sol:SGLLiquidation",
        "label": "userCollateralShare",
        "offset": 0,
        "slot": "18",
        "type": "t_mapping(t_address,t_uint256)"
      },
      {
        "astId": 9959,
        "contract": "contracts/singularity/SGLLiquidation.sol:SGLLiquidation",
        "label": "userBorrowPart",
        "offset": 0,
        "slot": "19",
        "type": "t_mapping(t_address,t_uint256)"
      },
      {
        "astId": 9965,
        "contract": "contracts/singularity/SGLLiquidation.sol:SGLLiquidation",
        "label": "isApprovedForAll",
        "offset": 0,
        "slot": "20",
        "type": "t_mapping(t_address,t_mapping(t_address,t_bool))"
      },
      {
        "astId": 9968,
        "contract": "contracts/singularity/SGLLiquidation.sol:SGLLiquidation",
        "label": "exchangeRate",
        "offset": 0,
        "slot": "21",
        "type": "t_uint256"
      },
      {
        "astId": 9971,
        "contract": "contracts/singularity/SGLLiquidation.sol:SGLLiquidation",
        "label": "oracle",
        "offset": 0,
        "slot": "22",
        "type": "t_contract(IOracle)12261"
      },
      {
        "astId": 9973,
        "contract": "contracts/singularity/SGLLiquidation.sol:SGLLiquidation",
        "label": "oracleData",
        "offset": 0,
        "slot": "23",
        "type": "t_bytes_storage"
      },
      {
        "astId": 9976,
        "contract": "contracts/singularity/SGLLiquidation.sol:SGLLiquidation",
        "label": "collateralSwapPath",
        "offset": 0,
        "slot": "24",
        "type": "t_array(t_address)dyn_storage"
      },
      {
        "astId": 9979,
        "contract": "contracts/singularity/SGLLiquidation.sol:SGLLiquidation",
        "label": "tapSwapPath",
        "offset": 0,
        "slot": "25",
        "type": "t_array(t_address)dyn_storage"
      },
      {
        "astId": 7728,
        "contract": "contracts/singularity/SGLLiquidation.sol:SGLLiquidation",
        "label": "initialized",
        "offset": 0,
        "slot": "26",
        "type": "t_bool"
      }
    ],
    "types": {
      "t_address": {
        "encoding": "inplace",
        "label": "address",
        "numberOfBytes": "20"
      },
      "t_array(t_address)dyn_storage": {
        "base": "t_address",
        "encoding": "dynamic_array",
        "label": "address[]",
        "numberOfBytes": "32"
      },
      "t_bool": {
        "encoding": "inplace",
        "label": "bool",
        "numberOfBytes": "1"
      },
      "t_bytes_storage": {
        "encoding": "bytes",
        "label": "bytes",
        "numberOfBytes": "32"
      },
      "t_contract(IBeachBar)3182": {
        "encoding": "inplace",
        "label": "contract IBeachBar",
        "numberOfBytes": "20"
      },
      "t_contract(IERC20)1099": {
        "encoding": "inplace",
        "label": "contract IERC20",
        "numberOfBytes": "20"
      },
      "t_contract(ILiquidationQueue)4189": {
        "encoding": "inplace",
        "label": "contract ILiquidationQueue",
        "numberOfBytes": "20"
      },
      "t_contract(IOracle)12261": {
        "encoding": "inplace",
        "label": "contract IOracle",
        "numberOfBytes": "20"
      },
      "t_contract(YieldBox)30249": {
        "encoding": "inplace",
        "label": "contract YieldBox",
        "numberOfBytes": "20"
      },
      "t_mapping(t_address,t_bool)": {
        "encoding": "mapping",
        "key": "t_address",
        "label": "mapping(address => bool)",
        "numberOfBytes": "32",
        "value": "t_bool"
      },
      "t_mapping(t_address,t_mapping(t_address,t_bool))": {
        "encoding": "mapping",
        "key": "t_address",
        "label": "mapping(address => mapping(address => bool))",
        "numberOfBytes": "32",
        "value": "t_mapping(t_address,t_bool)"
      },
      "t_mapping(t_address,t_mapping(t_address,t_uint256))": {
        "encoding": "mapping",
        "key": "t_address",
        "label": "mapping(address => mapping(address => uint256))",
        "numberOfBytes": "32",
        "value": "t_mapping(t_address,t_uint256)"
      },
      "t_mapping(t_address,t_mapping(t_uint256,t_uint256))": {
        "encoding": "mapping",
        "key": "t_address",
        "label": "mapping(address => mapping(uint256 => uint256))",
        "numberOfBytes": "32",
        "value": "t_mapping(t_uint256,t_uint256)"
      },
      "t_mapping(t_address,t_uint256)": {
        "encoding": "mapping",
        "key": "t_address",
        "label": "mapping(address => uint256)",
        "numberOfBytes": "32",
        "value": "t_uint256"
      },
      "t_mapping(t_uint256,t_uint256)": {
        "encoding": "mapping",
        "key": "t_uint256",
        "label": "mapping(uint256 => uint256)",
        "numberOfBytes": "32",
        "value": "t_uint256"
      },
      "t_struct(AccrueInfo)12295_storage": {
        "encoding": "inplace",
        "label": "struct ISingularity.AccrueInfo",
        "members": [
          {
            "astId": 12290,
            "contract": "contracts/singularity/SGLLiquidation.sol:SGLLiquidation",
            "label": "interestPerSecond",
            "offset": 0,
            "slot": "0",
            "type": "t_uint64"
          },
          {
            "astId": 12292,
            "contract": "contracts/singularity/SGLLiquidation.sol:SGLLiquidation",
            "label": "lastAccrued",
            "offset": 8,
            "slot": "0",
            "type": "t_uint64"
          },
          {
            "astId": 12294,
            "contract": "contracts/singularity/SGLLiquidation.sol:SGLLiquidation",
            "label": "feesEarnedFraction",
            "offset": 16,
            "slot": "0",
            "type": "t_uint128"
          }
        ],
        "numberOfBytes": "32"
      },
      "t_struct(Rebase)1874_storage": {
        "encoding": "inplace",
        "label": "struct Rebase",
        "members": [
          {
            "astId": 1871,
            "contract": "contracts/singularity/SGLLiquidation.sol:SGLLiquidation",
            "label": "elastic",
            "offset": 0,
            "slot": "0",
            "type": "t_uint128"
          },
          {
            "astId": 1873,
            "contract": "contracts/singularity/SGLLiquidation.sol:SGLLiquidation",
            "label": "base",
            "offset": 16,
            "slot": "0",
            "type": "t_uint128"
          }
        ],
        "numberOfBytes": "32"
      },
      "t_uint128": {
        "encoding": "inplace",
        "label": "uint128",
        "numberOfBytes": "16"
      },
      "t_uint256": {
        "encoding": "inplace",
        "label": "uint256",
        "numberOfBytes": "32"
      },
      "t_uint64": {
        "encoding": "inplace",
        "label": "uint64",
        "numberOfBytes": "8"
      }
    }
  }
}