{
  "address": "0xA24eaCCd49f0dFB8Eb8629CB7E8Ee956173A4293",
  "abi": [
    {
      "inputs": [
        {
          "internalType": "contract IWrappedNative",
          "name": "wrappedNative_",
          "type": "address"
        },
        {
          "internalType": "contract YieldBoxURIBuilder",
          "name": "uriBuilder_",
          "type": "address"
        }
      ],
      "stateMutability": "nonpayable",
      "type": "constructor"
    },
    {
      "inputs": [
        {
          "internalType": "bytes",
          "name": "innerError",
          "type": "bytes"
        }
      ],
      "name": "BatchError",
      "type": "error"
    },
    {
      "anonymous": false,
      "inputs": [
        {
          "indexed": true,
          "internalType": "address",
          "name": "_owner",
          "type": "address"
        },
        {
          "indexed": true,
          "internalType": "address",
          "name": "_operator",
          "type": "address"
        },
        {
          "indexed": false,
          "internalType": "bool",
          "name": "_approved",
          "type": "bool"
        }
      ],
      "name": "ApprovalForAll",
      "type": "event"
    },
    {
      "anonymous": false,
      "inputs": [
        {
          "indexed": true,
          "internalType": "enum TokenType",
          "name": "tokenType",
          "type": "uint8"
        },
        {
          "indexed": true,
          "internalType": "address",
          "name": "contractAddress",
          "type": "address"
        },
        {
          "indexed": false,
          "internalType": "contract IStrategy",
          "name": "strategy",
          "type": "address"
        },
        {
          "indexed": true,
          "internalType": "uint256",
          "name": "tokenId",
          "type": "uint256"
        },
        {
          "indexed": false,
          "internalType": "uint256",
          "name": "assetId",
          "type": "uint256"
        }
      ],
      "name": "AssetRegistered",
      "type": "event"
    },
    {
      "anonymous": false,
      "inputs": [
        {
          "indexed": true,
          "internalType": "uint256",
          "name": "tokenId",
          "type": "uint256"
        },
        {
          "indexed": true,
          "internalType": "address",
          "name": "previousOwner",
          "type": "address"
        },
        {
          "indexed": true,
          "internalType": "address",
          "name": "newOwner",
          "type": "address"
        }
      ],
      "name": "OwnershipTransferred",
      "type": "event"
    },
    {
      "anonymous": false,
      "inputs": [
        {
          "indexed": true,
          "internalType": "address",
          "name": "creator",
          "type": "address"
        },
        {
          "indexed": false,
          "internalType": "string",
          "name": "name",
          "type": "string"
        },
        {
          "indexed": false,
          "internalType": "string",
          "name": "symbol",
          "type": "string"
        },
        {
          "indexed": false,
          "internalType": "uint8",
          "name": "decimals",
          "type": "uint8"
        },
        {
          "indexed": false,
          "internalType": "uint256",
          "name": "tokenId",
          "type": "uint256"
        }
      ],
      "name": "TokenCreated",
      "type": "event"
    },
    {
      "anonymous": false,
      "inputs": [
        {
          "indexed": true,
          "internalType": "address",
          "name": "_operator",
          "type": "address"
        },
        {
          "indexed": true,
          "internalType": "address",
          "name": "_from",
          "type": "address"
        },
        {
          "indexed": true,
          "internalType": "address",
          "name": "_to",
          "type": "address"
        },
        {
          "indexed": false,
          "internalType": "uint256[]",
          "name": "_ids",
          "type": "uint256[]"
        },
        {
          "indexed": false,
          "internalType": "uint256[]",
          "name": "_values",
          "type": "uint256[]"
        }
      ],
      "name": "TransferBatch",
      "type": "event"
    },
    {
      "anonymous": false,
      "inputs": [
        {
          "indexed": true,
          "internalType": "address",
          "name": "_operator",
          "type": "address"
        },
        {
          "indexed": true,
          "internalType": "address",
          "name": "_from",
          "type": "address"
        },
        {
          "indexed": true,
          "internalType": "address",
          "name": "_to",
          "type": "address"
        },
        {
          "indexed": false,
          "internalType": "uint256",
          "name": "_id",
          "type": "uint256"
        },
        {
          "indexed": false,
          "internalType": "uint256",
          "name": "_value",
          "type": "uint256"
        }
      ],
      "name": "TransferSingle",
      "type": "event"
    },
    {
      "anonymous": false,
      "inputs": [
        {
          "indexed": false,
          "internalType": "string",
          "name": "_value",
          "type": "string"
        },
        {
          "indexed": true,
          "internalType": "uint256",
          "name": "_id",
          "type": "uint256"
        }
      ],
      "name": "URI",
      "type": "event"
    },
    {
      "inputs": [
        {
          "internalType": "address",
          "name": "user",
          "type": "address"
        },
        {
          "internalType": "uint256",
          "name": "assetId",
          "type": "uint256"
        }
      ],
      "name": "amountOf",
      "outputs": [
        {
          "internalType": "uint256",
          "name": "amount",
          "type": "uint256"
        }
      ],
      "stateMutability": "view",
      "type": "function"
    },
    {
      "inputs": [],
      "name": "assetCount",
      "outputs": [
        {
          "internalType": "uint256",
          "name": "",
          "type": "uint256"
        }
      ],
      "stateMutability": "view",
      "type": "function"
    },
    {
      "inputs": [
        {
          "internalType": "uint256",
          "name": "assetId",
          "type": "uint256"
        }
      ],
      "name": "assetTotals",
      "outputs": [
        {
          "internalType": "uint256",
          "name": "totalShare",
          "type": "uint256"
        },
        {
          "internalType": "uint256",
          "name": "totalAmount",
          "type": "uint256"
        }
      ],
      "stateMutability": "view",
      "type": "function"
    },
    {
      "inputs": [
        {
          "internalType": "uint256",
          "name": "",
          "type": "uint256"
        }
      ],
      "name": "assets",
      "outputs": [
        {
          "internalType": "enum TokenType",
          "name": "tokenType",
          "type": "uint8"
        },
        {
          "internalType": "address",
          "name": "contractAddress",
          "type": "address"
        },
        {
          "internalType": "contract IStrategy",
          "name": "strategy",
          "type": "address"
        },
        {
          "internalType": "uint256",
          "name": "tokenId",
          "type": "uint256"
        }
      ],
      "stateMutability": "view",
      "type": "function"
    },
    {
      "inputs": [
        {
          "internalType": "address",
          "name": "",
          "type": "address"
        },
        {
          "internalType": "uint256",
          "name": "",
          "type": "uint256"
        }
      ],
      "name": "balanceOf",
      "outputs": [
        {
          "internalType": "uint256",
          "name": "",
          "type": "uint256"
        }
      ],
      "stateMutability": "view",
      "type": "function"
    },
    {
      "inputs": [
        {
          "internalType": "address[]",
          "name": "owners",
          "type": "address[]"
        },
        {
          "internalType": "uint256[]",
          "name": "ids",
          "type": "uint256[]"
        }
      ],
      "name": "balanceOfBatch",
      "outputs": [
        {
          "internalType": "uint256[]",
          "name": "balances",
          "type": "uint256[]"
        }
      ],
      "stateMutability": "view",
      "type": "function"
    },
    {
      "inputs": [
        {
          "internalType": "bytes[]",
          "name": "calls",
          "type": "bytes[]"
        },
        {
          "internalType": "bool",
          "name": "revertOnFail",
          "type": "bool"
        }
      ],
      "name": "batch",
      "outputs": [],
      "stateMutability": "payable",
      "type": "function"
    },
    {
      "inputs": [
        {
          "internalType": "uint256",
          "name": "tokenId",
          "type": "uint256"
        },
        {
          "internalType": "address[]",
          "name": "froms",
          "type": "address[]"
        },
        {
          "internalType": "uint256[]",
          "name": "amounts",
          "type": "uint256[]"
        }
      ],
      "name": "batchBurn",
      "outputs": [],
      "stateMutability": "nonpayable",
      "type": "function"
    },
    {
      "inputs": [
        {
          "internalType": "uint256",
          "name": "tokenId",
          "type": "uint256"
        },
        {
          "internalType": "address[]",
          "name": "tos",
          "type": "address[]"
        },
        {
          "internalType": "uint256[]",
          "name": "amounts",
          "type": "uint256[]"
        }
      ],
      "name": "batchMint",
      "outputs": [],
      "stateMutability": "nonpayable",
      "type": "function"
    },
    {
      "inputs": [
        {
          "internalType": "address",
          "name": "from",
          "type": "address"
        },
        {
          "internalType": "address",
          "name": "to",
          "type": "address"
        },
        {
          "internalType": "uint256[]",
          "name": "assetIds_",
          "type": "uint256[]"
        },
        {
          "internalType": "uint256[]",
          "name": "shares_",
          "type": "uint256[]"
        }
      ],
      "name": "batchTransfer",
      "outputs": [],
      "stateMutability": "nonpayable",
      "type": "function"
    },
    {
      "inputs": [
        {
          "internalType": "uint256",
          "name": "tokenId",
          "type": "uint256"
        },
        {
          "internalType": "address",
          "name": "from",
          "type": "address"
        },
        {
          "internalType": "uint256",
          "name": "amount",
          "type": "uint256"
        }
      ],
      "name": "burn",
      "outputs": [],
      "stateMutability": "nonpayable",
      "type": "function"
    },
    {
      "inputs": [
        {
          "internalType": "uint256",
          "name": "tokenId",
          "type": "uint256"
        }
      ],
      "name": "claimOwnership",
      "outputs": [],
      "stateMutability": "nonpayable",
      "type": "function"
    },
    {
      "inputs": [
        {
          "internalType": "string",
          "name": "name",
          "type": "string"
        },
        {
          "internalType": "string",
          "name": "symbol",
          "type": "string"
        },
        {
          "internalType": "uint8",
          "name": "decimals",
          "type": "uint8"
        },
        {
          "internalType": "string",
          "name": "uri",
          "type": "string"
        }
      ],
      "name": "createToken",
      "outputs": [
        {
          "internalType": "uint32",
          "name": "tokenId",
          "type": "uint32"
        }
      ],
      "stateMutability": "nonpayable",
      "type": "function"
    },
    {
      "inputs": [
        {
          "internalType": "uint256",
          "name": "assetId",
          "type": "uint256"
        }
      ],
      "name": "decimals",
      "outputs": [
        {
          "internalType": "uint8",
          "name": "",
          "type": "uint8"
        }
      ],
      "stateMutability": "view",
      "type": "function"
    },
    {
      "inputs": [
        {
          "internalType": "enum TokenType",
          "name": "tokenType",
          "type": "uint8"
        },
        {
          "internalType": "address",
          "name": "contractAddress",
          "type": "address"
        },
        {
          "internalType": "contract IStrategy",
          "name": "strategy",
          "type": "address"
        },
        {
          "internalType": "uint256",
          "name": "tokenId",
          "type": "uint256"
        },
        {
          "internalType": "address",
          "name": "from",
          "type": "address"
        },
        {
          "internalType": "address",
          "name": "to",
          "type": "address"
        },
        {
          "internalType": "uint256",
          "name": "amount",
          "type": "uint256"
        },
        {
          "internalType": "uint256",
          "name": "share",
          "type": "uint256"
        }
      ],
      "name": "deposit",
      "outputs": [
        {
          "internalType": "uint256",
          "name": "amountOut",
          "type": "uint256"
        },
        {
          "internalType": "uint256",
          "name": "shareOut",
          "type": "uint256"
        }
      ],
      "stateMutability": "nonpayable",
      "type": "function"
    },
    {
      "inputs": [
        {
          "internalType": "uint256",
          "name": "assetId",
          "type": "uint256"
        },
        {
          "internalType": "address",
          "name": "from",
          "type": "address"
        },
        {
          "internalType": "address",
          "name": "to",
          "type": "address"
        },
        {
          "internalType": "uint256",
          "name": "amount",
          "type": "uint256"
        },
        {
          "internalType": "uint256",
          "name": "share",
          "type": "uint256"
        }
      ],
      "name": "depositAsset",
      "outputs": [
        {
          "internalType": "uint256",
          "name": "amountOut",
          "type": "uint256"
        },
        {
          "internalType": "uint256",
          "name": "shareOut",
          "type": "uint256"
        }
      ],
      "stateMutability": "nonpayable",
      "type": "function"
    },
    {
      "inputs": [
        {
          "internalType": "contract IStrategy",
          "name": "strategy",
          "type": "address"
        },
        {
          "internalType": "address",
          "name": "to",
          "type": "address"
        },
        {
          "internalType": "uint256",
          "name": "amount",
          "type": "uint256"
        }
      ],
      "name": "depositETH",
      "outputs": [
        {
          "internalType": "uint256",
          "name": "amountOut",
          "type": "uint256"
        },
        {
          "internalType": "uint256",
          "name": "shareOut",
          "type": "uint256"
        }
      ],
      "stateMutability": "payable",
      "type": "function"
    },
    {
      "inputs": [
        {
          "internalType": "uint256",
          "name": "assetId",
          "type": "uint256"
        },
        {
          "internalType": "address",
          "name": "to",
          "type": "address"
        },
        {
          "internalType": "uint256",
          "name": "amount",
          "type": "uint256"
        }
      ],
      "name": "depositETHAsset",
      "outputs": [
        {
          "internalType": "uint256",
          "name": "amountOut",
          "type": "uint256"
        },
        {
          "internalType": "uint256",
          "name": "shareOut",
          "type": "uint256"
        }
      ],
      "stateMutability": "payable",
      "type": "function"
    },
    {
      "inputs": [
        {
          "internalType": "uint256",
          "name": "assetId",
          "type": "uint256"
        },
        {
          "internalType": "address",
          "name": "from",
          "type": "address"
        },
        {
          "internalType": "address",
          "name": "to",
          "type": "address"
        }
      ],
      "name": "depositNFTAsset",
      "outputs": [
        {
          "internalType": "uint256",
          "name": "amountOut",
          "type": "uint256"
        },
        {
          "internalType": "uint256",
          "name": "shareOut",
          "type": "uint256"
        }
      ],
      "stateMutability": "nonpayable",
      "type": "function"
    },
    {
      "inputs": [
        {
          "internalType": "enum TokenType",
          "name": "",
          "type": "uint8"
        },
        {
          "internalType": "address",
          "name": "",
          "type": "address"
        },
        {
          "internalType": "contract IStrategy",
          "name": "",
          "type": "address"
        },
        {
          "internalType": "uint256",
          "name": "",
          "type": "uint256"
        }
      ],
      "name": "ids",
      "outputs": [
        {
          "internalType": "uint256",
          "name": "",
          "type": "uint256"
        }
      ],
      "stateMutability": "view",
      "type": "function"
    },
    {
      "inputs": [
        {
          "internalType": "address",
          "name": "",
          "type": "address"
        },
        {
          "internalType": "address",
          "name": "",
          "type": "address"
        }
      ],
      "name": "isApprovedForAll",
      "outputs": [
        {
          "internalType": "bool",
          "name": "",
          "type": "bool"
        }
      ],
      "stateMutability": "view",
      "type": "function"
    },
    {
      "inputs": [
        {
          "internalType": "uint256",
          "name": "tokenId",
          "type": "uint256"
        },
        {
          "internalType": "address",
          "name": "to",
          "type": "address"
        },
        {
          "internalType": "uint256",
          "name": "amount",
          "type": "uint256"
        }
      ],
      "name": "mint",
      "outputs": [],
      "stateMutability": "nonpayable",
      "type": "function"
    },
    {
      "inputs": [
        {
          "internalType": "uint256",
          "name": "assetId",
          "type": "uint256"
        }
      ],
      "name": "name",
      "outputs": [
        {
          "internalType": "string",
          "name": "",
          "type": "string"
        }
      ],
      "stateMutability": "view",
      "type": "function"
    },
    {
      "inputs": [
        {
          "internalType": "uint256",
          "name": "",
          "type": "uint256"
        }
      ],
      "name": "nativeTokens",
      "outputs": [
        {
          "internalType": "string",
          "name": "name",
          "type": "string"
        },
        {
          "internalType": "string",
          "name": "symbol",
          "type": "string"
        },
        {
          "internalType": "uint8",
          "name": "decimals",
          "type": "uint8"
        },
        {
          "internalType": "string",
          "name": "uri",
          "type": "string"
        }
      ],
      "stateMutability": "view",
      "type": "function"
    },
    {
      "inputs": [
        {
          "internalType": "address",
          "name": "",
          "type": "address"
        },
        {
          "internalType": "address",
          "name": "",
          "type": "address"
        },
        {
          "internalType": "uint256[]",
          "name": "",
          "type": "uint256[]"
        },
        {
          "internalType": "uint256[]",
          "name": "",
          "type": "uint256[]"
        },
        {
          "internalType": "bytes",
          "name": "",
          "type": "bytes"
        }
      ],
      "name": "onERC1155BatchReceived",
      "outputs": [
        {
          "internalType": "bytes4",
          "name": "",
          "type": "bytes4"
        }
      ],
      "stateMutability": "pure",
      "type": "function"
    },
    {
      "inputs": [
        {
          "internalType": "address",
          "name": "",
          "type": "address"
        },
        {
          "internalType": "address",
          "name": "",
          "type": "address"
        },
        {
          "internalType": "uint256",
          "name": "",
          "type": "uint256"
        },
        {
          "internalType": "uint256",
          "name": "",
          "type": "uint256"
        },
        {
          "internalType": "bytes",
          "name": "",
          "type": "bytes"
        }
      ],
      "name": "onERC1155Received",
      "outputs": [
        {
          "internalType": "bytes4",
          "name": "",
          "type": "bytes4"
        }
      ],
      "stateMutability": "pure",
      "type": "function"
    },
    {
      "inputs": [
        {
          "internalType": "address",
          "name": "",
          "type": "address"
        },
        {
          "internalType": "address",
          "name": "",
          "type": "address"
        },
        {
          "internalType": "uint256",
          "name": "",
          "type": "uint256"
        },
        {
          "internalType": "bytes",
          "name": "",
          "type": "bytes"
        }
      ],
      "name": "onERC721Received",
      "outputs": [
        {
          "internalType": "bytes4",
          "name": "",
          "type": "bytes4"
        }
      ],
      "stateMutability": "pure",
      "type": "function"
    },
    {
      "inputs": [
        {
          "internalType": "uint256",
          "name": "",
          "type": "uint256"
        }
      ],
      "name": "owner",
      "outputs": [
        {
          "internalType": "address",
          "name": "",
          "type": "address"
        }
      ],
      "stateMutability": "view",
      "type": "function"
    },
    {
      "inputs": [
        {
          "internalType": "uint256",
          "name": "",
          "type": "uint256"
        }
      ],
      "name": "pendingOwner",
      "outputs": [
        {
          "internalType": "address",
          "name": "",
          "type": "address"
        }
      ],
      "stateMutability": "view",
      "type": "function"
    },
    {
      "inputs": [
        {
          "internalType": "contract IERC20",
          "name": "token",
          "type": "address"
        },
        {
          "internalType": "address",
          "name": "from",
          "type": "address"
        },
        {
          "internalType": "address",
          "name": "to",
          "type": "address"
        },
        {
          "internalType": "uint256",
          "name": "amount",
          "type": "uint256"
        },
        {
          "internalType": "uint256",
          "name": "deadline",
          "type": "uint256"
        },
        {
          "internalType": "uint8",
          "name": "v",
          "type": "uint8"
        },
        {
          "internalType": "bytes32",
          "name": "r",
          "type": "bytes32"
        },
        {
          "internalType": "bytes32",
          "name": "s",
          "type": "bytes32"
        }
      ],
      "name": "permitToken",
      "outputs": [],
      "stateMutability": "nonpayable",
      "type": "function"
    },
    {
      "inputs": [
        {
          "internalType": "enum TokenType",
          "name": "tokenType",
          "type": "uint8"
        },
        {
          "internalType": "address",
          "name": "contractAddress",
          "type": "address"
        },
        {
          "internalType": "contract IStrategy",
          "name": "strategy",
          "type": "address"
        },
        {
          "internalType": "uint256",
          "name": "tokenId",
          "type": "uint256"
        }
      ],
      "name": "registerAsset",
      "outputs": [
        {
          "internalType": "uint256",
          "name": "assetId",
          "type": "uint256"
        }
      ],
      "stateMutability": "nonpayable",
      "type": "function"
    },
    {
      "inputs": [
        {
          "internalType": "address",
          "name": "from",
          "type": "address"
        },
        {
          "internalType": "address",
          "name": "to",
          "type": "address"
        },
        {
          "internalType": "uint256[]",
          "name": "ids",
          "type": "uint256[]"
        },
        {
          "internalType": "uint256[]",
          "name": "values",
          "type": "uint256[]"
        },
        {
          "internalType": "bytes",
          "name": "data",
          "type": "bytes"
        }
      ],
      "name": "safeBatchTransferFrom",
      "outputs": [],
      "stateMutability": "nonpayable",
      "type": "function"
    },
    {
      "inputs": [
        {
          "internalType": "address",
          "name": "from",
          "type": "address"
        },
        {
          "internalType": "address",
          "name": "to",
          "type": "address"
        },
        {
          "internalType": "uint256",
          "name": "id",
          "type": "uint256"
        },
        {
          "internalType": "uint256",
          "name": "value",
          "type": "uint256"
        },
        {
          "internalType": "bytes",
          "name": "data",
          "type": "bytes"
        }
      ],
      "name": "safeTransferFrom",
      "outputs": [],
      "stateMutability": "nonpayable",
      "type": "function"
    },
    {
      "inputs": [
        {
          "internalType": "address",
          "name": "operator",
          "type": "address"
        },
        {
          "internalType": "bool",
          "name": "approved",
          "type": "bool"
        }
      ],
      "name": "setApprovalForAll",
      "outputs": [],
      "stateMutability": "nonpayable",
      "type": "function"
    },
    {
      "inputs": [
        {
          "internalType": "bytes4",
          "name": "interfaceID",
          "type": "bytes4"
        }
      ],
      "name": "supportsInterface",
      "outputs": [
        {
          "internalType": "bool",
          "name": "",
          "type": "bool"
        }
      ],
      "stateMutability": "pure",
      "type": "function"
    },
    {
      "inputs": [
        {
          "internalType": "uint256",
          "name": "assetId",
          "type": "uint256"
        }
      ],
      "name": "symbol",
      "outputs": [
        {
          "internalType": "string",
          "name": "",
          "type": "string"
        }
      ],
      "stateMutability": "view",
      "type": "function"
    },
    {
      "inputs": [
        {
          "internalType": "uint256",
          "name": "assetId",
          "type": "uint256"
        },
        {
          "internalType": "uint256",
          "name": "share",
          "type": "uint256"
        },
        {
          "internalType": "bool",
          "name": "roundUp",
          "type": "bool"
        }
      ],
      "name": "toAmount",
      "outputs": [
        {
          "internalType": "uint256",
          "name": "amount",
          "type": "uint256"
        }
      ],
      "stateMutability": "view",
      "type": "function"
    },
    {
      "inputs": [
        {
          "internalType": "uint256",
          "name": "assetId",
          "type": "uint256"
        },
        {
          "internalType": "uint256",
          "name": "amount",
          "type": "uint256"
        },
        {
          "internalType": "bool",
          "name": "roundUp",
          "type": "bool"
        }
      ],
      "name": "toShare",
      "outputs": [
        {
          "internalType": "uint256",
          "name": "share",
          "type": "uint256"
        }
      ],
      "stateMutability": "view",
      "type": "function"
    },
    {
      "inputs": [
        {
          "internalType": "uint256",
          "name": "",
          "type": "uint256"
        }
      ],
      "name": "totalSupply",
      "outputs": [
        {
          "internalType": "uint256",
          "name": "",
          "type": "uint256"
        }
      ],
      "stateMutability": "view",
      "type": "function"
    },
    {
      "inputs": [
        {
          "internalType": "address",
          "name": "from",
          "type": "address"
        },
        {
          "internalType": "address",
          "name": "to",
          "type": "address"
        },
        {
          "internalType": "uint256",
          "name": "assetId",
          "type": "uint256"
        },
        {
          "internalType": "uint256",
          "name": "share",
          "type": "uint256"
        }
      ],
      "name": "transfer",
      "outputs": [],
      "stateMutability": "nonpayable",
      "type": "function"
    },
    {
      "inputs": [
        {
          "internalType": "address",
          "name": "from",
          "type": "address"
        },
        {
          "internalType": "address[]",
          "name": "tos",
          "type": "address[]"
        },
        {
          "internalType": "uint256",
          "name": "assetId",
          "type": "uint256"
        },
        {
          "internalType": "uint256[]",
          "name": "shares",
          "type": "uint256[]"
        }
      ],
      "name": "transferMultiple",
      "outputs": [],
      "stateMutability": "nonpayable",
      "type": "function"
    },
    {
      "inputs": [
        {
          "internalType": "uint256",
          "name": "tokenId",
          "type": "uint256"
        },
        {
          "internalType": "address",
          "name": "newOwner",
          "type": "address"
        },
        {
          "internalType": "bool",
          "name": "direct",
          "type": "bool"
        },
        {
          "internalType": "bool",
          "name": "renounce",
          "type": "bool"
        }
      ],
      "name": "transferOwnership",
      "outputs": [],
      "stateMutability": "nonpayable",
      "type": "function"
    },
    {
      "inputs": [
        {
          "internalType": "uint256",
          "name": "assetId",
          "type": "uint256"
        }
      ],
      "name": "uri",
      "outputs": [
        {
          "internalType": "string",
          "name": "",
          "type": "string"
        }
      ],
      "stateMutability": "view",
      "type": "function"
    },
    {
      "inputs": [],
      "name": "uriBuilder",
      "outputs": [
        {
          "internalType": "contract YieldBoxURIBuilder",
          "name": "",
          "type": "address"
        }
      ],
      "stateMutability": "view",
      "type": "function"
    },
    {
      "inputs": [
        {
          "internalType": "uint256",
          "name": "assetId",
          "type": "uint256"
        },
        {
          "internalType": "address",
          "name": "from",
          "type": "address"
        },
        {
          "internalType": "address",
          "name": "to",
          "type": "address"
        },
        {
          "internalType": "uint256",
          "name": "amount",
          "type": "uint256"
        },
        {
          "internalType": "uint256",
          "name": "share",
          "type": "uint256"
        }
      ],
      "name": "withdraw",
      "outputs": [
        {
          "internalType": "uint256",
          "name": "amountOut",
          "type": "uint256"
        },
        {
          "internalType": "uint256",
          "name": "shareOut",
          "type": "uint256"
        }
      ],
      "stateMutability": "nonpayable",
      "type": "function"
    },
    {
      "inputs": [],
      "name": "wrappedNative",
      "outputs": [
        {
          "internalType": "contract IWrappedNative",
          "name": "",
          "type": "address"
        }
      ],
      "stateMutability": "view",
      "type": "function"
    }
  ],
  "transactionHash": "0x683ab5a5f9cf6e244d45168e854a736dd9e86a0a1234378ab5c123587660fdb6",
  "args": [
    "0x0000000000000000000000000000000000000000",
    "0x2CCFd66f76E73EEF0Ac76D7C03d0E367a03B7B2e"
  ],
  "numDeployments": 1,
  "solcInputHash": "4edb817caab940a6aa59caf5827edb4a",
  "bytecode": "0x60c06040523480156200001157600080fd5b5060405162004ae338038062004ae383398101604081905262000034916200012f565b6040805160808101825260048082526000602083018190529282018390526060820183905280546001808201835593829052825160039091027f8a35acfbc15ff81a39ae7d344fd709f28e8600b4aa8c65c6b64bfe7fe36bd19b018054939490939192849260ff191691908490811115620000b357620000b36200016e565b021790555060208201518154610100600160a81b0319166101006001600160a01b039283160217825560408301516001830180546001600160a01b0319169183169190911790556060909201516002909101559182166080521660a05262000184565b6001600160a01b03811681146200012c57600080fd5b50565b600080604083850312156200014357600080fd5b8251620001508162000116565b6020840151909250620001638162000116565b809150509250929050565b634e487b7160e01b600052602160045260246000fd5b60805160a051614901620001e26000396000818161099c015281816109c201528181610c29015281816114ae01526117e301526000818161091b01528181611b5c01528181611c1001528181611c9501526125d201526149016000f3fe60806040526004361061027b5760003560e01c8063753380791161014f578063bc197c81116100c1578063e985e9c51161007a578063e985e9c5146108bc578063eafe7a74146108f4578063eb6d3a1114610909578063f23a6e611461093d578063f242432a1461096a578063fd330d431461098a57600080fd5b8063bc197c81146107dd578063bd85b0391461080c578063ce7f271414610839578063cf35bdd014610859578063d2423b5114610889578063daf210b11461089c57600080fd5b80639a9af97a116101135780639a9af97a146107145780639eea5f6614610734578063a123c33e14610754578063a22cb4651461078a578063a3823ac0146107aa578063b061db94146107bd57600080fd5b806375338079146106745780637c516e9414610694578063836a1040146106b45780638d2e63b8146106d45780638eb22cdd146106f457600080fd5b80632b800e3b116101f35780634e1273f4116101ac5780634e1273f4146105b45780634e41a1fb146105e157806354317d16146106015780635ba4d64e146106215780636cd570311461064157806370400fbe1461066157600080fd5b80632b800e3b146104785780632d4e1d52146104c65780632eb2c2d61461050d5780633f47e6621461052d578063442c15991461055f5780634956d1581461057f57600080fd5b80630e89341c116102455780630e89341c1461036e578063150b7a021461038e5780631dbeeb4e146103d35780631f0ee4c3146103f3578063215b595a146104235780632482ee271461044357600080fd5b8062ad800c14610280578062fdd58e146102b657806301e1e3b1146102fc57806301ffc9a71461031e5780630411b2521461034e575b600080fd5b34801561028c57600080fd5b506102a061029b3660046137cd565b6109be565b6040516102ad919061383e565b60405180910390f35b3480156102c257600080fd5b506102ee6102d1366004613866565b600160209081526000928352604080842090915290825290205481565b6040519081526020016102ad565b34801561030857600080fd5b5061031c6103173660046138dd565b610a9d565b005b34801561032a57600080fd5b5061033e61033936600461396c565b610bba565b60405190151581526020016102ad565b34801561035a57600080fd5b5061031c610369366004613989565b610c08565b34801561037a57600080fd5b506102a06103893660046137cd565b610c25565b34801561039a57600080fd5b506103ba6103a9366004613a10565b630a85bd0160e11b95945050505050565b6040516001600160e01b031990911681526020016102ad565b3480156103df57600080fd5b5061031c6103ee3660046138dd565b610cc7565b3480156103ff57600080fd5b5061041361040e3660046137cd565b610d70565b6040516102ad9493929190613a71565b34801561042f57600080fd5b5061031c61043e366004613abe565b610f39565b34801561044f57600080fd5b5061046361045e366004613b58565b61111c565b60405163ffffffff90911681526020016102ad565b34801561048457600080fd5b506104ae6104933660046137cd565b6007602052600090815260409020546001600160a01b031681565b6040516001600160a01b0390911681526020016102ad565b3480156104d257600080fd5b506102ee6104e1366004613c13565b600360209081526000948552604080862082529385528385208152918452828420909152825290205481565b34801561051957600080fd5b5061031c610528366004613c64565b61135f565b34801561053957600080fd5b5061054d6105483660046137cd565b6114aa565b60405160ff90911681526020016102ad565b34801561056b57600080fd5b506102ee61057a366004613d30565b611586565b34801561058b57600080fd5b5061059f61059a3660046137cd565b611663565b604080519283526020830191909152016102ad565b3480156105c057600080fd5b506105d46105cf366004613d69565b611695565b6040516102ad9190613dd4565b3480156105ed57600080fd5b506102a06105fc3660046137cd565b6117df565b34801561060d57600080fd5b506102ee61061c366004613866565b611864565b34801561062d57600080fd5b5061031c61063c366004613e18565b61196a565b34801561064d57600080fd5b5061059f61065c366004613e6b565b611ab4565b61059f61066f366004613ef7565b611b0e565b34801561068057600080fd5b5061059f61068f366004613f2f565b611d2b565b3480156106a057600080fd5b5061031c6106af366004613f66565b611eb2565b3480156106c057600080fd5b5061031c6106cf366004613ef7565b611f44565b3480156106e057600080fd5b5061059f6106ef366004613fcc565b611f8d565b34801561070057600080fd5b506102ee61070f366004613d30565b6120fe565b34801561072057600080fd5b5061059f61072f366004613fcc565b6121be565b34801561074057600080fd5b5061031c61074f366004613ef7565b61241e565b34801561076057600080fd5b506104ae61076f3660046137cd565b6006602052600090815260409020546001600160a01b031681565b34801561079657600080fd5b5061031c6107a536600461401e565b6124ac565b61059f6107b8366004614057565b6125c5565b3480156107c957600080fd5b506102ee6107d8366004613c13565b61260c565b3480156107e957600080fd5b506103ba6107f8366004613c64565b63bc197c8160e01b98975050505050505050565b34801561081857600080fd5b506102ee6108273660046137cd565b60026020526000908152604090205481565b34801561084557600080fd5b5061031c6108543660046137cd565b6126bc565b34801561086557600080fd5b506108796108743660046137cd565b6127a8565b6040516102ad94939291906140bf565b61031c6108973660046140f4565b6127f2565b3480156108a857600080fd5b5061031c6108b736600461413f565b6128a6565b3480156108c857600080fd5b5061033e6108d73660046141b4565b600060208181529281526040808220909352908152205460ff1681565b34801561090057600080fd5b506004546102ee565b34801561091557600080fd5b506104ae7f000000000000000000000000000000000000000000000000000000000000000081565b34801561094957600080fd5b506103ba6109583660046141e2565b63f23a6e6160e01b9695505050505050565b34801561097657600080fd5b5061031c6109853660046141e2565b6128be565b34801561099657600080fd5b506104ae7f000000000000000000000000000000000000000000000000000000000000000081565b60607f00000000000000000000000000000000000000000000000000000000000000006001600160a01b031663aa1163b960048481548110610a0257610a0261424b565b9060005260206000209060030201600560008681526020019081526020016000206000016040518363ffffffff1660e01b8152600401610a43929190614376565b60006040518083038186803b158015610a5b57600080fd5b505afa158015610a6f573d6000803e3d6000fd5b505050506040513d6000823e601f3d908101601f19168201604052610a9791908101906143ac565b92915050565b600060048681548110610ab257610ab261424b565b600091825260209091206003909102015460ff166004811115610ad757610ad7614087565b14610b1b5760405162461bcd60e51b815260206004820152600f60248201526e4e54463a204e6f74206e617469766560881b60448201526064015b60405180910390fd5b8260005b81811015610bb157610b56868683818110610b3c57610b3c61424b565b9050602002016020810190610b51919061444d565b6129c1565b610b9f868683818110610b6b57610b6b61424b565b9050602002016020810190610b80919061444d565b88868685818110610b9357610b9361424b565b90506020020135612a44565b80610ba981614480565b915050610b1f565b50505050505050565b60006001600160e01b031982166301ffc9a760e01b1480610beb5750636cdb3d1360e11b6001600160e01b03198316145b80610a975750506001600160e01b0319166303a24d0760e21b1490565b83610c12816129c1565b610c1e85858585612b02565b5050505050565b60607f00000000000000000000000000000000000000000000000000000000000000006001600160a01b0316635c6d843560048481548110610c6957610c6961424b565b6000918252602080832087845260058252604080852060028452818620546006909452948190205490516001600160e01b031960e088901b168152610a439560039095029092019392916001600160a01b039091169060040161449b565b60008581526006602052604090205485906001600160a01b03163314610cff5760405162461bcd60e51b8152600401610b1290614529565b8360005b81811015610d6657610d54878783818110610d2057610d2061424b565b9050602002016020810190610d35919061444d565b89878785818110610d4857610d4861424b565b90506020020135612bd7565b80610d5e81614480565b915050610d03565b5050505050505050565b600560205260009081526040902080548190610d8b9061429a565b80601f0160208091040260200160405190810160405280929190818152602001828054610db79061429a565b8015610e045780601f10610dd957610100808354040283529160200191610e04565b820191906000526020600020905b815481529060010190602001808311610de757829003601f168201915b505050505090806001018054610e199061429a565b80601f0160208091040260200160405190810160405280929190818152602001828054610e459061429a565b8015610e925780601f10610e6757610100808354040283529160200191610e92565b820191906000526020600020905b815481529060010190602001808311610e7557829003601f168201915b5050506002840154600385018054949560ff909216949193509150610eb69061429a565b80601f0160208091040260200160405190810160405280929190818152602001828054610ee29061429a565b8015610f2f5780601f10610f0457610100808354040283529160200191610f2f565b820191906000526020600020905b815481529060010190602001808311610f1257829003601f168201915b5050505050905084565b85610f43816129c1565b8460005b81811015610fd8576000888883818110610f6357610f6361424b565b9050602002016020810190610f78919061444d565b6001600160a01b03161415610fc65760405162461bcd60e51b8152602060048201526014602482015273165a595b19109bde0e881d1bc81b9bdd081cd95d60621b6044820152606401610b12565b80610fd081614480565b915050610f47565b506000805b828110156110d8576000898983818110610ff957610ff961424b565b905060200201602081019061100e919061444d565b905060008787848181106110245761102461424b565b6001600160a01b03851660009081526001602090815260408083208f845282528220805493909102949094013594508493925090611063908490614560565b9091555061107390508185614560565b9350816001600160a01b03168c6001600160a01b0316336001600160a01b03166000805160206148ac8339815191528c856040516110bb929190918252602082015260400190565b60405180910390a4505080806110d090614480565b915050610fdd565b506001600160a01b03891660009081526001602090815260408083208984529091528120805483929061110c908490614578565b9091555050505050505050505050565b60045460009061112b90612c8c565b905061114160008060008463ffffffff16612ce6565b50604051806080016040528089898080601f016020809104026020016040519081016040528093929190818152602001838380828437600092019190915250505090825250604080516020601f8a018190048102820181019092528881529181019190899089908190840183828082843760009201919091525050509082525060ff861660208083019190915260408051601f87018390048302810183018252868152920191908690869081908401838280828437600092018290525093909452505063ffffffff841681526005602090815260409091208351805191935061122e92849291019061373d565b506020828101518051611247926001850192019061373d565b50604082015160028201805460ff191660ff9092169190911790556060820151805161127d91600384019160209091019061373d565b50505063ffffffff81166000908152600660205260409081902080546001600160a01b0319163390811790915590517f0b0bcdebd2813328a89a9ed5971e5863201ed78fc4e0e2b271cceddb9ce90510906112e3908b908b908b908b908b9089906145b8565b60405180910390a26040805163ffffffff8316815260006020820181905291829133916000805160206148ac833981519152910160405180910390a4604051339060009063ffffffff8416907f16b85f49bf01212961345d3016c9a531894accf62eb7680f2045d79185cc0ec0908390a4979650505050505050565b8483146113a95760405162461bcd60e51b815260206004820152601860248201527708aa48662626a6a744098cadccee8d040dad2e6dac2e8c6d60431b6044820152606401610b12565b6113b2886129c1565b6113c0888888888888613220565b6001600160a01b0387163b15610d665760405163bc197c8160e01b808252906001600160a01b0389169063bc197c819061140c9033908d908c908c908c908c908c908c90600401614638565b602060405180830381600087803b15801561142657600080fd5b505af115801561143a573d6000803e3d6000fd5b505050506040513d601f19601f8201168201806040525081019061145e919061469c565b6001600160e01b03191614610d665760405162461bcd60e51b815260206004820152601260248201527157726f6e672072657475726e2076616c756560701b6044820152606401610b12565b60007f00000000000000000000000000000000000000000000000000000000000000006001600160a01b0316636d7cd037600484815481106114ee576114ee61424b565b6000918252602080832087845260059091526040928390206002015492516001600160e01b031960e086901b1681526115369360039093029091019160ff16906004016146b9565b60206040518083038186803b15801561154e57600080fd5b505afa158015611562573d6000803e3d6000fd5b505050506040513d601f19601f82011682018060405250810190610a9791906146d7565b6000806004858154811061159c5761159c61424b565b600091825260209091206003909102015460ff1660048111156115c1576115c1614087565b148061160457506002600485815481106115dd576115dd61424b565b600091825260209091206003909102015460ff16600481111561160257611602614087565b145b1561161057508161165c565b61165960026000868152602001908152602001600020546116506004878154811061163d5761163d61424b565b906000526020600020906003020161337b565b859190856133fa565b90505b9392505050565b6000818152600260205260408120546004805491929161168e91908590811061163d5761163d61424b565b9050915091565b6060838281146116e25760405162461bcd60e51b815260206004820152601860248201527708aa48662626a6a744098cadccee8d040dad2e6dac2e8c6d60431b6044820152606401610b12565b806001600160401b038111156116fa576116fa614396565b604051908082528060200260200182016040528015611723578160200160208202803683370190505b50915060005b818110156117d557600160008888848181106117475761174761424b565b905060200201602081019061175c919061444d565b6001600160a01b03166001600160a01b0316815260200190815260200160002060008686848181106117905761179061424b565b905060200201358152602001908152602001600020548382815181106117b8576117b861424b565b6020908102919091010152806117cd81614480565b915050611729565b5050949350505050565b60607f00000000000000000000000000000000000000000000000000000000000000006001600160a01b03166384b1017d600484815481106118235761182361424b565b9060005260206000209060030201600560008681526020019081526020016000206001016040518363ffffffff1660e01b8152600401610a43929190614376565b6000806004838154811061187a5761187a61424b565b600091825260209091206003909102015460ff16600481111561189f5761189f614087565b14806118e257506002600483815481106118bb576118bb61424b565b600091825260209091206003909102015460ff1660048111156118e0576118e0614087565b145b1561191157506001600160a01b0382166000908152600160209081526040808320848452909152902054610a97565b61165c600260008481526020019081526020016000205461193e6004858154811061163d5761163d61424b565b6001600160a01b03861660009081526001602090815260408083208884529091528120549291906133fa565b60008481526006602052604090205484906001600160a01b031633146119a25760405162461bcd60e51b8152600401610b1290614529565b8215611a84576001600160a01b0384161515806119bc5750815b6119fc5760405162461bcd60e51b81526020600482015260116024820152704e54463a207a65726f206164647265737360781b6044820152606401610b12565b6000858152600660205260408082205490516001600160a01b038088169392169188917f16b85f49bf01212961345d3016c9a531894accf62eb7680f2045d79185cc0ec09190a4600085815260066020908152604080832080546001600160a01b0389166001600160a01b031991821617909155600790925290912080549091169055610c1e565b600085815260076020526040902080546001600160a01b0386166001600160a01b03199091161790555050505050565b600080808a6004811115611aca57611aca614087565b1415611af257611ae9611ae06003308b8b61260c565b878787876121be565b91509150611b01565b611ae9611ae08b8b8b8b61260c565b9850989650505050505050565b600080600060048681548110611b2657611b2661424b565b6000918252602090912060039091020190506001815460ff166004811115611b5057611b50614087565b148015611b8f575080547f00000000000000000000000000000000000000000000000000000000000000006001600160a01b0390811661010090920416145b611bdb5760405162461bcd60e51b815260206004820152601b60248201527f5969656c64426f783a206e6f7420777261707065644e617469766500000000006044820152606401610b12565b600086815260026020526040812054611c0190611bf78461337b565b879190600061346a565b9050611c0e868883612bd7565b7f00000000000000000000000000000000000000000000000000000000000000006001600160a01b031663d0e30db0866040518263ffffffff1660e01b81526004016000604051808303818588803b158015611c6957600080fd5b505af1158015611c7d573d6000803e3d6000fd5b505050506001830154611cbe91506001600160a01b037f000000000000000000000000000000000000000000000000000000000000000081169116876134b5565b60018201546040516357d48e6360e11b8152600481018790526001600160a01b039091169063afa91cc690602401600060405180830381600087803b158015611d0657600080fd5b505af1158015611d1a573d6000803e3d6000fd5b509699929850919650505050505050565b60008083611d38816129c1565b600060048781548110611d4d57611d4d61424b565b6000918252602090912060039091020190506002815460ff166004811115611d7757611d77614087565b14611dbb5760405162461bcd60e51b81526020600482015260146024820152735969656c64426f783a206e6f742045524337323160601b6044820152606401610b12565b611dc785886001612bd7565b805460018201546002830154604051632142170760e11b81526001600160a01b038a811660048301529283166024820152604481019190915261010090920416906342842e0e90606401600060405180830381600087803b158015611e2b57600080fd5b505af1158015611e3f573d6000803e3d6000fd5b505050506001818101546040516357d48e6360e11b815260048101929092526001600160a01b03169063afa91cc690602401600060405180830381600087803b158015611e8b57600080fd5b505af1158015611e9f573d6000803e3d6000fd5b5060019a8b9a5098505050505050505050565b60405163d505accf60e01b81526001600160a01b0388811660048301528781166024830152604482018790526064820186905260ff8516608483015260a4820184905260c4820183905289169063d505accf9060e401600060405180830381600087803b158015611f2257600080fd5b505af1158015611f36573d6000803e3d6000fd5b505050505050505050505050565b60008381526006602052604090205483906001600160a01b03163314611f7c5760405162461bcd60e51b8152600401610b1290614529565b611f87838584612bd7565b50505050565b60008085611f9a816129c1565b600060048981548110611faf57611faf61424b565b6000918252602082206003909102019150815460ff166004811115611fd657611fd6614087565b14156120245760405162461bcd60e51b815260206004820152601f60248201527f5969656c64426f783a2063616e2774207769746864726177204e6174697665006044820152606401610b12565b600061202f8261337b565b90508561205a5760008a81526002602052604090205461205390889083600161346a565b955061207a565b60008a8152600260205260408120546120779188919084906133fa565b96505b612085898b88612a44565b600182015460405163f3fef3a360e01b81526001600160a01b038a81166004830152602482018a90529091169063f3fef3a3906044015b600060405180830381600087803b1580156120d657600080fd5b505af11580156120ea573d6000803e3d6000fd5b50989c979b50969950505050505050505050565b600080600485815481106121145761211461424b565b600091825260209091206003909102015460ff16600481111561213957612139614087565b148061217c57506002600485815481106121555761215561424b565b600091825260209091206003909102015460ff16600481111561217a5761217a614087565b145b1561218857508161165c565b61165960026000868152602001908152602001600020546121b56004878154811061163d5761163d61424b565b8591908561346a565b600080856121cb816129c1565b6000600489815481106121e0576121e061424b565b6000918252602082206003909102019150815460ff16600481111561220757612207614087565b1415801561222b57506002815460ff16600481111561222857612228614087565b14155b6122775760405162461bcd60e51b815260206004820152601c60248201527f5969656c64426f783a2063616e2774206465706f7369742074797065000000006044820152606401610b12565b60006122828261337b565b9050856122ad5760008a8152600260205260408120546122a691899190849061346a565b95506122cd565b60008a8152600260205260409020546122ca9087908360016133fa565b96505b6122d8888b88612bd7565b6001825460ff1660048111156122f0576122f0614087565b1415612320576001820154825461231b916001600160a01b036101009092048216918c91168a6135c9565b6123eb565b815461010090046001600160a01b0316301415612359576001820154600283015461231b918b916001600160a01b03909116908a612b02565b815460018301546002840154604051637921219560e11b81526001600160a01b038d8116600483015292831660248201526044810191909152606481018a905260a06084820152600060a4820152610100909204169063f242432a9060c401600060405180830381600087803b1580156123d257600080fd5b505af11580156123e6573d6000803e3d6000fd5b505050505b60018201546040516357d48e6360e11b8152600481018990526001600160a01b039091169063afa91cc6906024016120bc565b81612428816129c1565b60006004858154811061243d5761243d61424b565b600091825260209091206003909102015460ff16600481111561246257612462614087565b146124a15760405162461bcd60e51b815260206004820152600f60248201526e4e54463a204e6f74206e617469766560881b6044820152606401610b12565b611f87838584612a44565b6001600160a01b0382166125025760405162461bcd60e51b815260206004820152601a60248201527f5969656c64426f783a206f70657261746f72206e6f74207365740000000000006044820152606401610b12565b6001600160a01b03821630141561255b5760405162461bcd60e51b815260206004820181905260248201527f5969656c64426f783a2063616e277420617070726f7665207969656c64426f786044820152606401610b12565b336000818152602081815260408083206001600160a01b03871680855290835292819020805460ff191686151590811790915590519081529192917f17307eab39ab6107e8899845ad3d59bd9653f200f220920489ca2b5937696c31910160405180910390a35050565b6000806126006125f960017f000000000000000000000000000000000000000000000000000000000000000088600061260c565b8585611b0e565b91509150935093915050565b6000600185600481111561262257612622614087565b148061263f5750600285600481111561263d5761263d614087565b145b8061265b5750600385600481111561265957612659614087565b145b6126a75760405162461bcd60e51b815260206004820152601f60248201527f41737365744d616e616765723a2063616e6e6f7420616464204e6174697665006044820152606401610b12565b6126b385858585612ce6565b95945050505050565b6000818152600760205260409020546001600160a01b03163381146127235760405162461bcd60e51b815260206004820152601c60248201527f4e54463a2063616c6c657220213d2070656e64696e67206f776e6572000000006044820152606401610b12565b6000828152600660205260408082205490516001600160a01b038085169392169185917f16b85f49bf01212961345d3016c9a531894accf62eb7680f2045d79185cc0ec09190a4600091825260066020908152604080842080546001600160a01b039094166001600160a01b0319948516179055600790915290912080549091169055565b600481815481106127b857600080fd5b600091825260209091206003909102018054600182015460029092015460ff821693506101009091046001600160a01b0390811692169084565b60005b82811015611f8757600080308686858181106128135761281361424b565b905060200281019061282591906146f4565b60405161283392919061473a565b600060405180830381855af49150503d806000811461286e576040519150601f19603f3d011682016040523d82523d6000602084013e612873565b606091505b5091509150811580156128835750835b1561289157612891816136e5565b5050808061289e90614480565b9150506127f5565b856128b0816129c1565b610bb1878787878787613220565b6128c7866129c1565b6128d386868686612b02565b6001600160a01b0385163b156129b95760405163f23a6e6160e01b808252906001600160a01b0387169063f23a6e619061291b9033908b908a908a908a908a9060040161474a565b602060405180830381600087803b15801561293557600080fd5b505af1158015612949573d6000803e3d6000fd5b505050506040513d601f19601f8201168201806040525081019061296d919061469c565b6001600160e01b031916146129b95760405162461bcd60e51b815260206004820152601260248201527157726f6e672072657475726e2076616c756560701b6044820152606401610b12565b505050505050565b6001600160a01b0381163314806129fe57506001600160a01b03811660009081526020818152604080832033845290915290205460ff1615156001145b612a415760405162461bcd60e51b8152602060048201526014602482015273151c985b9cd9995c881b9bdd08185b1b1bddd95960621b6044820152606401610b12565b50565b6001600160a01b038316612a6a5760405162461bcd60e51b8152600401610b1290614791565b6001600160a01b038316600090815260016020908152604080832085845290915281208054839290612a9d908490614578565b909155505060008281526002602052604081208054839290612ac0908490614578565b909155505060408051838152602081018390526000916001600160a01b0386169133916000805160206148ac83398151915291015b60405180910390a4505050565b6001600160a01b038316612b285760405162461bcd60e51b8152600401610b1290614791565b6001600160a01b038416600090815260016020908152604080832085845290915281208054839290612b5b908490614578565b90915550506001600160a01b038316600090815260016020908152604080832085845290915281208054839290612b93908490614560565b909155505060408051838152602081018390526001600160a01b03808616929087169133916000805160206148ac833981519152910160405180910390a450505050565b6001600160a01b038316612bfd5760405162461bcd60e51b8152600401610b1290614791565b6001600160a01b038316600090815260016020908152604080832085845290915281208054839290612c30908490614560565b909155505060008281526002602052604081208054839290612c53908490614560565b909155505060408051838152602081018390526001600160a01b0385169160009133916000805160206148ac8339815191529101612af5565b600063ffffffff821115612ce25760405162461bcd60e51b815260206004820152601b60248201527f426f72696e674d6174683a2075696e743332204f766572666c6f7700000000006044820152606401610b12565b5090565b600060036000866004811115612cfe57612cfe614087565b6004811115612d0f57612d0f614087565b8152602080820192909252604090810160009081206001600160a01b0380891683529084528282209087168252835281812085825290925290205490508061321857811580612d7057506001856004811115612d6d57612d6d614087565b14155b612dbc5760405162461bcd60e51b815260206004820152601e60248201527f5969656c64426f783a204e6f20746f6b656e496420666f7220455243323000006044820152606401610b12565b6000856004811115612dd057612dd0614087565b1480612f745750826001600160a01b03166330fa738c6040518163ffffffff1660e01b815260040160206040518083038186803b158015612e1057600080fd5b505afa158015612e24573d6000803e3d6000fd5b505050506040513d601f19601f82011682018060405250810190612e4891906147b7565b6004811115612e5957612e59614087565b856004811115612e6b57612e6b614087565b148015612ef95750826001600160a01b031663f6b4dfb46040518163ffffffff1660e01b815260040160206040518083038186803b158015612eac57600080fd5b505afa158015612ec0573d6000803e3d6000fd5b505050506040513d601f19601f82011682018060405250810190612ee491906147d4565b6001600160a01b0316846001600160a01b0316145b8015612f745750826001600160a01b03166317d70f7c6040518163ffffffff1660e01b815260040160206040518083038186803b158015612f3957600080fd5b505afa158015612f4d573d6000803e3d6000fd5b505050506040513d601f19601f82011682018060405250810190612f7191906147f1565b82145b612fc05760405162461bcd60e51b815260206004820152601b60248201527f5969656c64426f783a205374726174656779206d69736d6174636800000000006044820152606401610b12565b6000856004811115612fd457612fd4614087565b148015612fe857506001600160a01b038416155b80612ffc57506001600160a01b0384163b15155b6130405760405162461bcd60e51b81526020600482015260156024820152742cb4b2b6322137bc1d102737ba1030903a37b5b2b760591b6044820152606401610b12565b60048054905090506004604051806080016040528087600481111561306757613067614087565b81526001600160a01b038088166020808401919091529087166040830152606090910185905282546001818101855560009485529190932082516003909402018054929390929091839160ff1916908360048111156130c8576130c8614087565b021790555060208201518154610100600160a81b0319166101006001600160a01b039283160217825560408301516001830180546001600160a01b03191691909216179055606090910151600290910155806003600087600481111561313057613130614087565b600481111561314157613141614087565b8152602080820192909252604090810160009081206001600160a01b0389811683529084528282209088168252835281812086825283528181209390935580518281529182019290925282917f6bb7ff708619ba0610cba295a58592e0451dee2622938c8755667688daf3529b910160405180910390a281846001600160a01b03168660048111156131d5576131d5614087565b604080516001600160a01b0388168152602081018690527f30605d4cd099421ed12ca1ba642a1ea2659f679b5cdd0ccd032586640eeaff43910160405180910390a45b949350505050565b6001600160a01b0385166132465760405162461bcd60e51b8152600401610b1290614791565b8260005b818110156133165760008686838181106132665761326661424b565b90506020020135905060008585848181106132835761328361424b565b6001600160a01b038d166000908152600160209081526040808320888452825282208054939091029490940135945084939250906132c2908490614578565b90915550506001600160a01b0389166000908152600160209081526040808320858452909152812080548392906132fa908490614560565b925050819055505050808061330e90614480565b91505061324a565b50856001600160a01b0316876001600160a01b0316336001600160a01b03167f4a39dc06d4c0dbc64b70af90fd698a233a518aa5d07e595d983b8c0526c8f7fb8888888860405161336a949392919061480a565b60405180910390a450505050505050565b60018101546040805163ce845d1d60e01b815290516000926001600160a01b03169163ce845d1d916004808301926020929190829003018186803b1580156133c257600080fd5b505afa1580156133d6573d6000803e3d6000fd5b505050506040513d601f19601f82011682018060405250810190610a9791906147f1565b60008261340681614480565b935061341890506305f5e10085614560565b9350836134258487614831565b61342f9190614850565b9050818015613451575084836134458684614831565b61344f9190614850565b105b15613218578061346081614480565b9695505050505050565b60008261347681614480565b935061348890506305f5e10085614560565b9350826134958587614831565b61349f9190614850565b9050818015613451575084846134458584614831565b604080516001600160a01b038481166024830152604480830185905283518084039091018152606490920183526020820180516001600160e01b031663a9059cbb60e01b17905291516000928392908716916135119190614872565b6000604051808303816000865af19150503d806000811461354e576040519150601f19603f3d011682016040523d82523d6000602084013e613553565b606091505b509150915081801561357d57508051158061357d57508080602001905181019061357d919061488e565b610c1e5760405162461bcd60e51b815260206004820152601c60248201527f426f72696e6745524332303a205472616e73666572206661696c6564000000006044820152606401610b12565b604080516001600160a01b0385811660248301528481166044830152606480830185905283518084039091018152608490920183526020820180516001600160e01b03166323b872dd60e01b179052915160009283929088169161362d9190614872565b6000604051808303816000865af19150503d806000811461366a576040519150601f19603f3d011682016040523d82523d6000602084013e61366f565b606091505b5091509150818015613699575080511580613699575080806020019051810190613699919061488e565b6129b95760405162461bcd60e51b815260206004820181905260248201527f426f72696e6745524332303a205472616e7366657246726f6d206661696c65646044820152606401610b12565b60448151101561370a578060405163d935448560e01b8152600401610b12919061383e565b6004810190508080602001905181019061372491906143ac565b60405162461bcd60e51b8152600401610b12919061383e565b8280546137499061429a565b90600052602060002090601f01602090048101928261376b57600085556137b1565b82601f1061378457805160ff19168380011785556137b1565b828001600101855582156137b1579182015b828111156137b1578251825591602001919060010190613796565b50612ce29291505b80821115612ce257600081556001016137b9565b6000602082840312156137df57600080fd5b5035919050565b60005b838110156138015781810151838201526020016137e9565b83811115611f875750506000910152565b6000815180845261382a8160208601602086016137e6565b601f01601f19169290920160200192915050565b60208152600061165c6020830184613812565b6001600160a01b0381168114612a4157600080fd5b6000806040838503121561387957600080fd5b823561388481613851565b946020939093013593505050565b60008083601f8401126138a457600080fd5b5081356001600160401b038111156138bb57600080fd5b6020830191508360208260051b85010111156138d657600080fd5b9250929050565b6000806000806000606086880312156138f557600080fd5b8535945060208601356001600160401b038082111561391357600080fd5b61391f89838a01613892565b9096509450604088013591508082111561393857600080fd5b5061394588828901613892565b969995985093965092949392505050565b6001600160e01b031981168114612a4157600080fd5b60006020828403121561397e57600080fd5b813561165c81613956565b6000806000806080858703121561399f57600080fd5b84356139aa81613851565b935060208501356139ba81613851565b93969395505050506040820135916060013590565b60008083601f8401126139e157600080fd5b5081356001600160401b038111156139f857600080fd5b6020830191508360208285010111156138d657600080fd5b600080600080600060808688031215613a2857600080fd5b8535613a3381613851565b94506020860135613a4381613851565b93506040860135925060608601356001600160401b03811115613a6557600080fd5b613945888289016139cf565b608081526000613a846080830187613812565b8281036020840152613a968187613812565b905060ff851660408401528281036060840152613ab38185613812565b979650505050505050565b60008060008060008060808789031215613ad757600080fd5b8635613ae281613851565b955060208701356001600160401b0380821115613afe57600080fd5b613b0a8a838b01613892565b9097509550604089013594506060890135915080821115613b2a57600080fd5b50613b3789828a01613892565b979a9699509497509295939492505050565b60ff81168114612a4157600080fd5b60008060008060008060006080888a031215613b7357600080fd5b87356001600160401b0380821115613b8a57600080fd5b613b968b838c016139cf565b909950975060208a0135915080821115613baf57600080fd5b613bbb8b838c016139cf565b909750955060408a01359150613bd082613b49565b90935060608901359080821115613be657600080fd5b50613bf38a828b016139cf565b989b979a50959850939692959293505050565b60058110612a4157600080fd5b60008060008060808587031215613c2957600080fd5b8435613c3481613c06565b93506020850135613c4481613851565b92506040850135613c5481613851565b9396929550929360600135925050565b60008060008060008060008060a0898b031215613c8057600080fd5b8835613c8b81613851565b97506020890135613c9b81613851565b965060408901356001600160401b0380821115613cb757600080fd5b613cc38c838d01613892565b909850965060608b0135915080821115613cdc57600080fd5b613ce88c838d01613892565b909650945060808b0135915080821115613d0157600080fd5b50613d0e8b828c016139cf565b999c989b5096995094979396929594505050565b8015158114612a4157600080fd5b600080600060608486031215613d4557600080fd5b83359250602084013591506040840135613d5e81613d22565b809150509250925092565b60008060008060408587031215613d7f57600080fd5b84356001600160401b0380821115613d9657600080fd5b613da288838901613892565b90965094506020870135915080821115613dbb57600080fd5b50613dc887828801613892565b95989497509550505050565b6020808252825182820181905260009190848201906040850190845b81811015613e0c57835183529284019291840191600101613df0565b50909695505050505050565b60008060008060808587031215613e2e57600080fd5b843593506020850135613e4081613851565b92506040850135613e5081613d22565b91506060850135613e6081613d22565b939692955090935050565b600080600080600080600080610100898b031215613e8857600080fd5b8835613e9381613c06565b97506020890135613ea381613851565b96506040890135613eb381613851565b9550606089013594506080890135613eca81613851565b935060a0890135613eda81613851565b979a969950949793969295929450505060c08201359160e0013590565b600080600060608486031215613f0c57600080fd5b833592506020840135613f1e81613851565b929592945050506040919091013590565b600080600060608486031215613f4457600080fd5b833592506020840135613f5681613851565b91506040840135613d5e81613851565b600080600080600080600080610100898b031215613f8357600080fd5b8835613f8e81613851565b97506020890135613f9e81613851565b96506040890135613fae81613851565b9550606089013594506080890135935060a0890135613eda81613b49565b600080600080600060a08688031215613fe457600080fd5b853594506020860135613ff681613851565b9350604086013561400681613851565b94979396509394606081013594506080013592915050565b6000806040838503121561403157600080fd5b823561403c81613851565b9150602083013561404c81613d22565b809150509250929050565b60008060006060848603121561406c57600080fd5b833561407781613851565b92506020840135613f1e81613851565b634e487b7160e01b600052602160045260246000fd5b600581106140bb57634e487b7160e01b600052602160045260246000fd5b9052565b608081016140cd828761409d565b6001600160a01b039485166020830152929093166040840152606090920191909152919050565b60008060006040848603121561410957600080fd5b83356001600160401b0381111561411f57600080fd5b61412b86828701613892565b9094509250506020840135613d5e81613d22565b6000806000806000806080878903121561415857600080fd5b863561416381613851565b9550602087013561417381613851565b945060408701356001600160401b038082111561418f57600080fd5b61419b8a838b01613892565b90965094506060890135915080821115613b2a57600080fd5b600080604083850312156141c757600080fd5b82356141d281613851565b9150602083013561404c81613851565b60008060008060008060a087890312156141fb57600080fd5b863561420681613851565b9550602087013561421681613851565b9450604087013593506060870135925060808701356001600160401b0381111561423f57600080fd5b613b3789828a016139cf565b634e487b7160e01b600052603260045260246000fd5b80546142708360ff831661409d565b60081c6001600160a01b039081166020840152600182015416604083015260020154606090910152565b600181811c908216806142ae57607f821691505b602082108114156142cf57634e487b7160e01b600052602260045260246000fd5b50919050565b8054600090600181811c90808316806142ef57607f831692505b602080841082141561431157634e487b7160e01b600052602260045260246000fd5b838852818015614328576001811461433c5761436a565b60ff1986168983015260408901965061436a565b876000528160002060005b868110156143625781548b8201850152908501908301614347565b8a0183019750505b50505050505092915050565b6143808184614261565b60a06080820152600061165960a08301846142d5565b634e487b7160e01b600052604160045260246000fd5b6000602082840312156143be57600080fd5b81516001600160401b03808211156143d557600080fd5b818401915084601f8301126143e957600080fd5b8151818111156143fb576143fb614396565b604051601f8201601f19908116603f0116810190838211818310171561442357614423614396565b8160405282815287602084870101111561443c57600080fd5b613ab38360208301602088016137e6565b60006020828403121561445f57600080fd5b813561165c81613851565b634e487b7160e01b600052601160045260246000fd5b60006000198214156144945761449461446a565b5060010190565b6144a58186614261565b60e06080820152608060e082015260006144c36101608301866142d5565b60df1980848303016101008501526144de82600189016142d5565b915060ff60028801541661012085015280848303016101408501525061450781600388016142d5565b60a084019590955250506001600160a01b039190911660c09091015292915050565b6020808252601c908201527f4e54463a2063616c6c6572206973206e6f7420746865206f776e657200000000604082015260600190565b600082198211156145735761457361446a565b500190565b60008282101561458a5761458a61446a565b500390565b81835281816020850137506000828201602090810191909152601f909101601f19169091010190565b6080815260006145cc60808301888a61458f565b82810360208401526145df81878961458f565b91505060ff8416604083015263ffffffff83166060830152979650505050505050565b81835260006001600160fb1b0383111561461b57600080fd5b8260051b8083602087013760009401602001938452509192915050565b6001600160a01b0389811682528816602082015260a060408201819052600090614665908301888a614602565b8281036060840152614678818789614602565b9050828103608084015261468d81858761458f565b9b9a5050505050505050505050565b6000602082840312156146ae57600080fd5b815161165c81613956565b60a081016146c78285614261565b60ff831660808301529392505050565b6000602082840312156146e957600080fd5b815161165c81613b49565b6000808335601e1984360301811261470b57600080fd5b8301803591506001600160401b0382111561472557600080fd5b6020019150368190038213156138d657600080fd5b8183823760009101908152919050565b6001600160a01b03878116825286166020820152604081018590526060810184905260a060808201819052600090614785908301848661458f565b98975050505050505050565b6020808252600c908201526b4e6f2030206164647265737360a01b604082015260600190565b6000602082840312156147c957600080fd5b815161165c81613c06565b6000602082840312156147e657600080fd5b815161165c81613851565b60006020828403121561480357600080fd5b5051919050565b60408152600061481e604083018688614602565b8281036020840152613ab3818587614602565b600081600019048311821515161561484b5761484b61446a565b500290565b60008261486d57634e487b7160e01b600052601260045260246000fd5b500490565b600082516148848184602087016137e6565b9190910192915050565b6000602082840312156148a057600080fd5b815161165c81613d2256fec3d58168c5ae7397731d063d5bbf3d657854427343f4c083240f7aacaa2d0f62a2646970667358221220bc96377dcdad67cea02dbbae886902c9f91c739c40bb2c5de403a54e13b0c97064736f6c63430008090033",
  "devdoc": {
    "author": "BoringCrypto, Keno",
    "kind": "dev",
    "methods": {
      "amountOf(address,uint256)": {
        "details": "Helper function represent the balance in `token` amount for a `user` for an `asset`.",
        "params": {
          "assetId": "The id of the asset.",
          "user": "The `user` to get the amount for."
        }
      },
      "batch(bytes[],bool)": {
        "params": {
          "calls": "An array of inputs for each call.",
          "revertOnFail": "If True then reverts after a failed call and stops doing further calls."
        }
      },
      "batchBurn(uint256,address[],uint256[])": {
        "params": {
          "amounts": "The amounts of tokens to burn.",
          "froms": "The accounts to burn tokens from.",
          "tokenId": "The token to be burned."
        }
      },
      "batchMint(uint256,address[],uint256[])": {
        "details": "If the tos array is longer than the amounts array there will be an out of bounds error. If the amounts array is longer, the extra amounts are simply ignored.For security reasons, operators are not allowed to mint. Only the actual owner can do this. Of course the owner can be a contract.",
        "params": {
          "amounts": "The amounts of tokens to mint.",
          "tokenId": "The token to be minted.",
          "tos": "The accounts to transfer the minted tokens to."
        }
      },
      "burn(uint256,address,uint256)": {
        "params": {
          "amount": "The amount of tokens to burn.",
          "tokenId": "The token to be burned."
        }
      },
      "claimOwnership(uint256)": {
        "params": {
          "tokenId": "The `tokenId` of the token that ownership is claimed for."
        }
      },
      "createToken(string,string,uint8,string)": {
        "params": {
          "decimals": "The number of decimals of the token (this is just for display purposes). Should be set to 18 in normal cases.",
          "name": "The name of the token.",
          "symbol": "The symbol of the token."
        }
      },
      "depositAsset(uint256,address,address,uint256,uint256)": {
        "params": {
          "amount": "Token amount in native representation to deposit.",
          "assetId": "The id of the asset.",
          "from": "which account to pull the tokens.",
          "share": "Token amount represented in shares to deposit. Takes precedence over `amount`.",
          "to": "which account to push the tokens."
        },
        "returns": {
          "amountOut": "The amount deposited.",
          "shareOut": "The deposited amount repesented in shares."
        }
      },
      "depositNFTAsset(uint256,address,address)": {
        "params": {
          "assetId": "The id of the asset.",
          "from": "which account to pull the tokens.",
          "to": "which account to push the tokens."
        },
        "returns": {
          "amountOut": "The amount deposited.",
          "shareOut": "The deposited amount repesented in shares."
        }
      },
      "mint(uint256,address,uint256)": {
        "details": "For security reasons, operators are not allowed to mint. Only the actual owner can do this. Of course the owner can be a contract.",
        "params": {
          "amount": "The amount of tokens to mint.",
          "to": "The account to transfer the minted tokens to.",
          "tokenId": "The token to be minted."
        }
      },
      "toAmount(uint256,uint256,bool)": {
        "details": "Helper function represent shares back into the `token` amount.",
        "params": {
          "assetId": "The id of the asset.",
          "roundUp": "If the result should be rounded up.",
          "share": "The amount of shares."
        },
        "returns": {
          "amount": "The share amount back into native representation."
        }
      },
      "toShare(uint256,uint256,bool)": {
        "details": "Helper function to represent an `amount` of `token` in shares.",
        "params": {
          "amount": "The `token` amount.",
          "assetId": "The id of the asset.",
          "roundUp": "If the result `share` should be rounded up."
        },
        "returns": {
          "share": "The token amount represented in shares."
        }
      },
      "transfer(address,address,uint256,uint256)": {
        "params": {
          "assetId": "The id of the asset.",
          "from": "which user to pull the tokens.",
          "share": "The amount of `token` in shares.",
          "to": "which user to push the tokens."
        }
      },
      "transferMultiple(address,address[],uint256,uint256[])": {
        "params": {
          "assetId": "The id of the asset.",
          "from": "which user to pull the tokens.",
          "shares": "The amount of `token` in shares for each receiver in `tos`.",
          "tos": "The receivers of the tokens."
        }
      },
      "transferOwnership(uint256,address,bool,bool)": {
        "params": {
          "direct": "True if `newOwner` should be set immediately. False if `newOwner` needs to use `claimOwnership`.",
          "newOwner": "Address of the new owner.",
          "renounce": "Allows the `newOwner` to be `address(0)` if `direct` and `renounce` is True. Has no effect otherwise.",
          "tokenId": "The `tokenId` of the token that ownership whose ownership will be transferred/renounced."
        }
      },
      "withdraw(uint256,address,address,uint256,uint256)": {
        "params": {
          "amount": "of tokens. Either one of `amount` or `share` needs to be supplied.",
          "assetId": "The id of the asset.",
          "from": "which user to pull the tokens.",
          "share": "Like above, but `share` takes precedence over `amount`.",
          "to": "which user to push the tokens."
        }
      }
    },
    "title": "YieldBox",
    "version": 1
  },
  "userdoc": {
    "kind": "user",
    "methods": {
      "batch(bytes[],bool)": {
        "notice": "Allows batched call to self (this contract)."
      },
      "batchBurn(uint256,address[],uint256[])": {
        "notice": "Burns tokens. This is only useful to be used by an operator."
      },
      "batchMint(uint256,address[],uint256[])": {
        "notice": "The `owner` can mint tokens. If a fixed supply is needed, the `owner` should mint the totalSupply and renounce ownership."
      },
      "burn(uint256,address,uint256)": {
        "notice": "Burns tokens. Only the holder of tokens can burn them or an approved operator."
      },
      "claimOwnership(uint256)": {
        "notice": "Needs to be called by `pendingOwner` to claim ownership."
      },
      "createToken(string,string,uint8,string)": {
        "notice": "Create a new native token. This will be an ERC1155 token. If later it's needed as an ERC20 token it can be wrapped into an ERC20 token. Native support for ERC1155 tokens is growing though."
      },
      "depositAsset(uint256,address,address,uint256,uint256)": {
        "notice": "Deposit an amount of `token` represented in either `amount` or `share`."
      },
      "depositNFTAsset(uint256,address,address)": {
        "notice": "Deposit an NFT asset"
      },
      "mint(uint256,address,uint256)": {
        "notice": "The `owner` can mint tokens. If a fixed supply is needed, the `owner` should mint the totalSupply and renounce ownership."
      },
      "permitToken(address,address,address,uint256,uint256,uint8,bytes32,bytes32)": {
        "notice": "Call wrapper that performs `ERC20.permit` on `token`. Lookup `IERC20.permit`."
      },
      "transfer(address,address,uint256,uint256)": {
        "notice": "Transfer shares from a user account to another one."
      },
      "transferMultiple(address,address[],uint256,uint256[])": {
        "notice": "Transfer shares from a user account to multiple other ones."
      },
      "transferOwnership(uint256,address,bool,bool)": {
        "notice": "Transfers ownership to `newOwner`. Either directly or claimable by the new pending owner. Can only be invoked by the current `owner`."
      },
      "withdraw(uint256,address,address,uint256,uint256)": {
        "notice": "Withdraws an amount of `token` from a user account."
      }
    },
    "notice": "The YieldBox is a vault for tokens. The stored tokens can assigned to strategies. Yield from this will go to the token depositors. Any funds transfered directly onto the YieldBox will be lost, use the deposit function instead.",
    "version": 1
  },
  "storageLayout": {
    "storage": [
      {
        "astId": 25716,
        "contract": "yieldbox/contracts/YieldBox.sol:YieldBox",
        "label": "isApprovedForAll",
        "offset": 0,
        "slot": "0",
        "type": "t_mapping(t_address,t_mapping(t_address,t_bool))"
      },
      {
        "astId": 25723,
        "contract": "yieldbox/contracts/YieldBox.sol:YieldBox",
        "label": "balanceOf",
        "offset": 0,
        "slot": "1",
        "type": "t_mapping(t_address,t_mapping(t_uint256,t_uint256))"
      },
      {
        "astId": 25727,
        "contract": "yieldbox/contracts/YieldBox.sol:YieldBox",
        "label": "totalSupply",
        "offset": 0,
        "slot": "2",
        "type": "t_mapping(t_uint256,t_uint256)"
      },
      {
        "astId": 25371,
        "contract": "yieldbox/contracts/YieldBox.sol:YieldBox",
        "label": "ids",
        "offset": 0,
        "slot": "3",
        "type": "t_mapping(t_enum(TokenType)28355,t_mapping(t_address,t_mapping(t_contract(IStrategy)28431,t_mapping(t_uint256,t_uint256))))"
      },
      {
        "astId": 25375,
        "contract": "yieldbox/contracts/YieldBox.sol:YieldBox",
        "label": "assets",
        "offset": 0,
        "slot": "4",
        "type": "t_array(t_struct(Asset)25340_storage)dyn_storage"
      },
      {
        "astId": 26297,
        "contract": "yieldbox/contracts/YieldBox.sol:YieldBox",
        "label": "nativeTokens",
        "offset": 0,
        "slot": "5",
        "type": "t_mapping(t_uint256,t_struct(NativeToken)26286_storage)"
      },
      {
        "astId": 26301,
        "contract": "yieldbox/contracts/YieldBox.sol:YieldBox",
        "label": "owner",
        "offset": 0,
        "slot": "6",
        "type": "t_mapping(t_uint256,t_address)"
      },
      {
        "astId": 26305,
        "contract": "yieldbox/contracts/YieldBox.sol:YieldBox",
        "label": "pendingOwner",
        "offset": 0,
        "slot": "7",
        "type": "t_mapping(t_uint256,t_address)"
      }
    ],
    "types": {
      "t_address": {
        "encoding": "inplace",
        "label": "address",
        "numberOfBytes": "20"
      },
      "t_array(t_struct(Asset)25340_storage)dyn_storage": {
        "base": "t_struct(Asset)25340_storage",
        "encoding": "dynamic_array",
        "label": "struct Asset[]",
        "numberOfBytes": "32"
      },
      "t_bool": {
        "encoding": "inplace",
        "label": "bool",
        "numberOfBytes": "1"
      },
      "t_contract(IStrategy)28431": {
        "encoding": "inplace",
        "label": "contract IStrategy",
        "numberOfBytes": "20"
      },
      "t_enum(TokenType)28355": {
        "encoding": "inplace",
        "label": "enum TokenType",
        "numberOfBytes": "1"
      },
      "t_mapping(t_address,t_bool)": {
        "encoding": "mapping",
        "key": "t_address",
        "label": "mapping(address => bool)",
        "numberOfBytes": "32",
        "value": "t_bool"
      },
      "t_mapping(t_address,t_mapping(t_address,t_bool))": {
        "encoding": "mapping",
        "key": "t_address",
        "label": "mapping(address => mapping(address => bool))",
        "numberOfBytes": "32",
        "value": "t_mapping(t_address,t_bool)"
      },
      "t_mapping(t_address,t_mapping(t_contract(IStrategy)28431,t_mapping(t_uint256,t_uint256)))": {
        "encoding": "mapping",
        "key": "t_address",
        "label": "mapping(address => mapping(contract IStrategy => mapping(uint256 => uint256)))",
        "numberOfBytes": "32",
        "value": "t_mapping(t_contract(IStrategy)28431,t_mapping(t_uint256,t_uint256))"
      },
      "t_mapping(t_address,t_mapping(t_uint256,t_uint256))": {
        "encoding": "mapping",
        "key": "t_address",
        "label": "mapping(address => mapping(uint256 => uint256))",
        "numberOfBytes": "32",
        "value": "t_mapping(t_uint256,t_uint256)"
      },
      "t_mapping(t_contract(IStrategy)28431,t_mapping(t_uint256,t_uint256))": {
        "encoding": "mapping",
        "key": "t_contract(IStrategy)28431",
        "label": "mapping(contract IStrategy => mapping(uint256 => uint256))",
        "numberOfBytes": "32",
        "value": "t_mapping(t_uint256,t_uint256)"
      },
      "t_mapping(t_enum(TokenType)28355,t_mapping(t_address,t_mapping(t_contract(IStrategy)28431,t_mapping(t_uint256,t_uint256))))": {
        "encoding": "mapping",
        "key": "t_enum(TokenType)28355",
        "label": "mapping(enum TokenType => mapping(address => mapping(contract IStrategy => mapping(uint256 => uint256))))",
        "numberOfBytes": "32",
        "value": "t_mapping(t_address,t_mapping(t_contract(IStrategy)28431,t_mapping(t_uint256,t_uint256)))"
      },
      "t_mapping(t_uint256,t_address)": {
        "encoding": "mapping",
        "key": "t_uint256",
        "label": "mapping(uint256 => address)",
        "numberOfBytes": "32",
        "value": "t_address"
      },
      "t_mapping(t_uint256,t_struct(NativeToken)26286_storage)": {
        "encoding": "mapping",
        "key": "t_uint256",
        "label": "mapping(uint256 => struct NativeToken)",
        "numberOfBytes": "32",
        "value": "t_struct(NativeToken)26286_storage"
      },
      "t_mapping(t_uint256,t_uint256)": {
        "encoding": "mapping",
        "key": "t_uint256",
        "label": "mapping(uint256 => uint256)",
        "numberOfBytes": "32",
        "value": "t_uint256"
      },
      "t_string_storage": {
        "encoding": "bytes",
        "label": "string",
        "numberOfBytes": "32"
      },
      "t_struct(Asset)25340_storage": {
        "encoding": "inplace",
        "label": "struct Asset",
        "members": [
          {
            "astId": 25332,
            "contract": "yieldbox/contracts/YieldBox.sol:YieldBox",
            "label": "tokenType",
            "offset": 0,
            "slot": "0",
            "type": "t_enum(TokenType)28355"
          },
          {
            "astId": 25334,
            "contract": "yieldbox/contracts/YieldBox.sol:YieldBox",
            "label": "contractAddress",
            "offset": 1,
            "slot": "0",
            "type": "t_address"
          },
          {
            "astId": 25337,
            "contract": "yieldbox/contracts/YieldBox.sol:YieldBox",
            "label": "strategy",
            "offset": 0,
            "slot": "1",
            "type": "t_contract(IStrategy)28431"
          },
          {
            "astId": 25339,
            "contract": "yieldbox/contracts/YieldBox.sol:YieldBox",
            "label": "tokenId",
            "offset": 0,
            "slot": "2",
            "type": "t_uint256"
          }
        ],
        "numberOfBytes": "96"
      },
      "t_struct(NativeToken)26286_storage": {
        "encoding": "inplace",
        "label": "struct NativeToken",
        "members": [
          {
            "astId": 26279,
            "contract": "yieldbox/contracts/YieldBox.sol:YieldBox",
            "label": "name",
            "offset": 0,
            "slot": "0",
            "type": "t_string_storage"
          },
          {
            "astId": 26281,
            "contract": "yieldbox/contracts/YieldBox.sol:YieldBox",
            "label": "symbol",
            "offset": 0,
            "slot": "1",
            "type": "t_string_storage"
          },
          {
            "astId": 26283,
            "contract": "yieldbox/contracts/YieldBox.sol:YieldBox",
            "label": "decimals",
            "offset": 0,
            "slot": "2",
            "type": "t_uint8"
          },
          {
            "astId": 26285,
            "contract": "yieldbox/contracts/YieldBox.sol:YieldBox",
            "label": "uri",
            "offset": 0,
            "slot": "3",
            "type": "t_string_storage"
          }
        ],
        "numberOfBytes": "128"
      },
      "t_uint256": {
        "encoding": "inplace",
        "label": "uint256",
        "numberOfBytes": "32"
      },
      "t_uint8": {
        "encoding": "inplace",
        "label": "uint8",
        "numberOfBytes": "1"
      }
    }
  }
}