{
  "address": "0xC4007F1A61A76A241d01f141112d805eBF07E640",
  "abi": [
    {
      "inputs": [
        {
          "internalType": "contract IYieldBox",
          "name": "_yieldBox",
          "type": "address"
        },
        {
          "internalType": "contract IERC20",
          "name": "token",
          "type": "address"
        }
      ],
      "stateMutability": "nonpayable",
      "type": "constructor"
    },
    {
      "inputs": [],
      "name": "cheapWithdrawable",
      "outputs": [
        {
          "internalType": "uint256",
          "name": "amount",
          "type": "uint256"
        }
      ],
      "stateMutability": "view",
      "type": "function"
    },
    {
      "inputs": [],
      "name": "contractAddress",
      "outputs": [
        {
          "internalType": "address",
          "name": "",
          "type": "address"
        }
      ],
      "stateMutability": "view",
      "type": "function"
    },
    {
      "inputs": [],
      "name": "currentBalance",
      "outputs": [
        {
          "internalType": "uint256",
          "name": "amount",
          "type": "uint256"
        }
      ],
      "stateMutability": "view",
      "type": "function"
    },
    {
      "inputs": [
        {
          "internalType": "uint256",
          "name": "amount",
          "type": "uint256"
        }
      ],
      "name": "deposited",
      "outputs": [],
      "stateMutability": "nonpayable",
      "type": "function"
    },
    {
      "inputs": [],
      "name": "description",
      "outputs": [
        {
          "internalType": "string",
          "name": "",
          "type": "string"
        }
      ],
      "stateMutability": "view",
      "type": "function"
    },
    {
      "inputs": [],
      "name": "name",
      "outputs": [
        {
          "internalType": "string",
          "name": "",
          "type": "string"
        }
      ],
      "stateMutability": "view",
      "type": "function"
    },
    {
      "inputs": [],
      "name": "tokenId",
      "outputs": [
        {
          "internalType": "uint256",
          "name": "",
          "type": "uint256"
        }
      ],
      "stateMutability": "view",
      "type": "function"
    },
    {
      "inputs": [],
      "name": "tokenType",
      "outputs": [
        {
          "internalType": "enum TokenType",
          "name": "",
          "type": "uint8"
        }
      ],
      "stateMutability": "view",
      "type": "function"
    },
    {
      "inputs": [
        {
          "internalType": "address",
          "name": "to",
          "type": "address"
        },
        {
          "internalType": "uint256",
          "name": "amount",
          "type": "uint256"
        }
      ],
      "name": "withdraw",
      "outputs": [],
      "stateMutability": "nonpayable",
      "type": "function"
    },
    {
      "inputs": [],
      "name": "withdrawable",
      "outputs": [
        {
          "internalType": "uint256",
          "name": "amount",
          "type": "uint256"
        }
      ],
      "stateMutability": "view",
      "type": "function"
    },
    {
      "inputs": [],
      "name": "yieldBox",
      "outputs": [
        {
          "internalType": "contract IYieldBox",
          "name": "",
          "type": "address"
        }
      ],
      "stateMutability": "view",
      "type": "function"
    }
  ],
  "transactionHash": "0x821f877583f094bc6deca4e8d33d2273ebfafbf8f32cc2493175fed528d603c4",
  "args": [
    "0x538c2189ea266069031622e70441bc73A613e9Ed",
    "0xc6B03Ba05Fb5E693D8b3533aa676FB4AFDd7DDc7"
  ],
  "numDeployments": 4,
  "solcInputHash": "45bcf35b4fb3bca7169fc66314197a4a",
  "bytecode": "0x60c060405234801561001057600080fd5b5060405161078638038061078683398101604081905261002f9161005e565b6001600160a01b039182166080521660a052610098565b6001600160a01b038116811461005b57600080fd5b50565b6000806040838503121561007157600080fd5b825161007c81610046565b602084015190925061008d81610046565b809150509250929050565b60805160a0516106ad6100d96000396000818161018d015281816102b101526102e401526000818161013b015281816101c9015261023801526106ad6000f3fe608060405234801561001057600080fd5b50600436106100a95760003560e01c8063afa91cc611610071578063afa91cc614610121578063ce845d1d14610119578063de40657714610136578063e3575f0514610119578063f3fef3a314610175578063f6b4dfb41461018857600080fd5b806306fdde03146100ae57806317d70f7c146100ee57806330fa738c1461010457806350188301146101195780637284e416146100ae575b600080fd5b6100d86040518060400160405280600b81526020016a4e6f20737472617465677960a81b81525081565b6040516100e5919061056d565b60405180910390f35b6100f6600081565b6040519081526020016100e5565b61010c600181565b6040516100e591906105a0565b6100f66101af565b61013461012f3660046105c8565b6101be565b005b61015d7f000000000000000000000000000000000000000000000000000000000000000081565b6040516001600160a01b0390911681526020016100e5565b6101346101833660046105e1565b61022d565b61015d7f000000000000000000000000000000000000000000000000000000000000000081565b60006101b96102a2565b905090565b336001600160a01b037f0000000000000000000000000000000000000000000000000000000000000000161461022a5760405162461bcd60e51b815260206004820152600c60248201526b09cdee840b2d2cad8c884def60a31b60448201526064015b60405180910390fd5b50565b336001600160a01b037f000000000000000000000000000000000000000000000000000000000000000016146102945760405162461bcd60e51b815260206004820152600c60248201526b09cdee840b2d2cad8c884def60a31b6044820152606401610221565b61029e82826102d7565b5050565b60006101b96001600160a01b037f0000000000000000000000000000000000000000000000000000000000000000163061030b565b61029e6001600160a01b037f0000000000000000000000000000000000000000000000000000000000000000168383610422565b604080516001600160a01b0383811660248084019190915283518084039091018152604490920183526020820180516001600160e01b03166370a0823160e01b179052915160009283928392918716916103659190610619565b600060405180830381855afa9150503d80600081146103a0576040519150601f19603f3d011682016040523d82523d6000602084013e6103a5565b606091505b50915091508180156103b957506020815110155b6104055760405162461bcd60e51b815260206004820152601d60248201527f426f72696e6745524332303a2042616c616e63654f66206661696c65640000006044820152606401610221565b808060200190518101906104199190610635565b95945050505050565b604080516001600160a01b038481166024830152604480830185905283518084039091018152606490920183526020820180516001600160e01b031663a9059cbb60e01b179052915160009283929087169161047e9190610619565b6000604051808303816000865af19150503d80600081146104bb576040519150601f19603f3d011682016040523d82523d6000602084013e6104c0565b606091505b50915091508180156104ea5750805115806104ea5750808060200190518101906104ea919061064e565b6105365760405162461bcd60e51b815260206004820152601c60248201527f426f72696e6745524332303a205472616e73666572206661696c6564000000006044820152606401610221565b5050505050565b60005b83811015610558578181015183820152602001610540565b83811115610567576000848401525b50505050565b602081526000825180602084015261058c81604085016020870161053d565b601f01601f19169190910160400192915050565b60208101600583106105c257634e487b7160e01b600052602160045260246000fd5b91905290565b6000602082840312156105da57600080fd5b5035919050565b600080604083850312156105f457600080fd5b82356001600160a01b038116811461060b57600080fd5b946020939093013593505050565b6000825161062b81846020870161053d565b9190910192915050565b60006020828403121561064757600080fd5b5051919050565b60006020828403121561066057600080fd5b8151801515811461067057600080fd5b939250505056fea2646970667358221220c4cc4b4d8db1663546a10fde32886bced7172ccded619adffa1c908e6b8c534a64736f6c63430008090033",
  "devdoc": {
    "kind": "dev",
    "methods": {},
    "version": 1
  },
  "userdoc": {
    "kind": "user",
    "methods": {
      "cheapWithdrawable()": {
        "notice": "Returns the maximum amount that can be withdrawn for a low gas fee When more than this amount is withdrawn it will trigger divesting from the actual strategy which will incur higher gas costs"
      },
      "contractAddress()": {
        "notice": "Returns the contract address that this strategy works with"
      },
      "currentBalance()": {
        "notice": "Returns the total value the strategy holds (principle + gain) expressed in asset token amount. This should be cheap in gas to retrieve. Can return a bit less than the actual, but MUST NOT return more. The gas cost of this function will be paid on any deposit or withdrawal onto and out of the YieldBox that uses this strategy. Also, anytime a protocol converts between shares and amount, this gets called."
      },
      "deposited(uint256)": {
        "notice": "Is called by YieldBox to signal funds have been added, the strategy may choose to act on this When a large enough deposit is made, this should trigger the strategy to invest into the actual strategy. This function should normally NOT be used to invest on each call as that would be costly for small deposits. If the strategy handles native tokens (ETH) it will receive it directly (not wrapped). It will be up to the strategy to wrap it if needed. Only accept this call from the YieldBox"
      },
      "description()": {
        "notice": "Returns a description for this strategy"
      },
      "name()": {
        "notice": "Returns a name for this strategy"
      },
      "tokenId()": {
        "notice": "Returns the tokenId that this strategy works with (for EIP1155) This is always 0 for EIP20 tokens"
      },
      "tokenType()": {
        "notice": "Returns the standard that this strategy works with"
      },
      "withdraw(address,uint256)": {
        "notice": "Is called by the YieldBox to ask the strategy to withdraw to the user When a strategy keeps a little reserve for cheap withdrawals and the requested withdrawal goes over this amount, the strategy should divest enough from the strategy to complete the withdrawal and rebalance the reserve. If the strategy handles native tokens (ETH) it should send this, not a wrapped version. With some strategies it might be hard to withdraw exactly the correct amount. Only accept this call from the YieldBox"
      },
      "withdrawable()": {
        "notice": "Returns the maximum amount that can be withdrawn"
      },
      "yieldBox()": {
        "notice": "Returns the address of the yieldBox that this strategy is for"
      }
    },
    "version": 1
  },
  "storageLayout": {
    "storage": [],
    "types": null
  }
}