{
  "address": "0x6A0fd324D64a5353E3543b9C2115Fc1F1246ecF7",
  "abi": [
    {
      "inputs": [
        {
          "internalType": "address",
          "name": "_lzEndpoint",
          "type": "address"
        },
        {
          "internalType": "address",
          "name": "_owner",
          "type": "address"
        }
      ],
      "stateMutability": "nonpayable",
      "type": "constructor"
    },
    {
      "anonymous": false,
      "inputs": [
        {
          "indexed": true,
          "internalType": "address",
          "name": "singularity",
          "type": "address"
        },
        {
          "indexed": false,
          "internalType": "bool",
          "name": "status",
          "type": "bool"
        }
      ],
      "name": "LogMarketStatus",
      "type": "event"
    },
    {
      "anonymous": false,
      "inputs": [
        {
          "indexed": false,
          "internalType": "uint16",
          "name": "_srcChainId",
          "type": "uint16"
        },
        {
          "indexed": false,
          "internalType": "bytes",
          "name": "_srcAddress",
          "type": "bytes"
        },
        {
          "indexed": false,
          "internalType": "uint64",
          "name": "_nonce",
          "type": "uint64"
        },
        {
          "indexed": false,
          "internalType": "bytes",
          "name": "_payload",
          "type": "bytes"
        },
        {
          "indexed": false,
          "internalType": "bytes",
          "name": "_reason",
          "type": "bytes"
        }
      ],
      "name": "MessageFailed",
      "type": "event"
    },
    {
      "anonymous": false,
      "inputs": [
        {
          "indexed": true,
          "internalType": "address",
          "name": "previousOwner",
          "type": "address"
        },
        {
          "indexed": true,
          "internalType": "address",
          "name": "newOwner",
          "type": "address"
        }
      ],
      "name": "OwnershipTransferred",
      "type": "event"
    },
    {
      "anonymous": false,
      "inputs": [
        {
          "indexed": true,
          "internalType": "uint16",
          "name": "_srcChainId",
          "type": "uint16"
        },
        {
          "indexed": true,
          "internalType": "address",
          "name": "_dstSingularity",
          "type": "address"
        },
        {
          "indexed": false,
          "internalType": "bytes",
          "name": "_sglPayload",
          "type": "bytes"
        }
      ],
      "name": "ReceiveFromChain",
      "type": "event"
    },
    {
      "anonymous": false,
      "inputs": [
        {
          "indexed": false,
          "internalType": "uint16",
          "name": "_srcChainId",
          "type": "uint16"
        },
        {
          "indexed": false,
          "internalType": "bytes",
          "name": "_srcAddress",
          "type": "bytes"
        },
        {
          "indexed": false,
          "internalType": "uint64",
          "name": "_nonce",
          "type": "uint64"
        },
        {
          "indexed": false,
          "internalType": "bytes32",
          "name": "_payloadHash",
          "type": "bytes32"
        }
      ],
      "name": "RetryMessageSuccess",
      "type": "event"
    },
    {
      "anonymous": false,
      "inputs": [
        {
          "indexed": true,
          "internalType": "uint16",
          "name": "_srcChainId",
          "type": "uint16"
        },
        {
          "indexed": true,
          "internalType": "address",
          "name": "_srcAddress",
          "type": "address"
        },
        {
          "indexed": false,
          "internalType": "bytes",
          "name": "_sglPayload",
          "type": "bytes"
        }
      ],
      "name": "SendToChain",
      "type": "event"
    },
    {
      "anonymous": false,
      "inputs": [
        {
          "indexed": false,
          "internalType": "uint16",
          "name": "_dstChainId",
          "type": "uint16"
        },
        {
          "indexed": false,
          "internalType": "uint16",
          "name": "_type",
          "type": "uint16"
        },
        {
          "indexed": false,
          "internalType": "uint256",
          "name": "_minDstGas",
          "type": "uint256"
        }
      ],
      "name": "SetMinDstGas",
      "type": "event"
    },
    {
      "anonymous": false,
      "inputs": [
        {
          "indexed": false,
          "internalType": "address",
          "name": "precrime",
          "type": "address"
        }
      ],
      "name": "SetPrecrime",
      "type": "event"
    },
    {
      "anonymous": false,
      "inputs": [
        {
          "indexed": false,
          "internalType": "uint16",
          "name": "_remoteChainId",
          "type": "uint16"
        },
        {
          "indexed": false,
          "internalType": "bytes",
          "name": "_path",
          "type": "bytes"
        }
      ],
      "name": "SetTrustedRemote",
      "type": "event"
    },
    {
      "anonymous": false,
      "inputs": [
        {
          "indexed": false,
          "internalType": "uint16",
          "name": "_remoteChainId",
          "type": "uint16"
        },
        {
          "indexed": false,
          "internalType": "bytes",
          "name": "_remoteAddress",
          "type": "bytes"
        }
      ],
      "name": "SetTrustedRemoteAddress",
      "type": "event"
    },
    {
      "anonymous": false,
      "inputs": [
        {
          "indexed": false,
          "internalType": "bool",
          "name": "_useCustomAdapterParams",
          "type": "bool"
        }
      ],
      "name": "SetUseCustomAdapterParams",
      "type": "event"
    },
    {
      "inputs": [],
      "name": "DEFAULT_PAYLOAD_SIZE_LIMIT",
      "outputs": [
        {
          "internalType": "uint256",
          "name": "",
          "type": "uint256"
        }
      ],
      "stateMutability": "view",
      "type": "function"
    },
    {
      "inputs": [],
      "name": "FUNCTION_TYPE_SEND",
      "outputs": [
        {
          "internalType": "uint256",
          "name": "",
          "type": "uint256"
        }
      ],
      "stateMutability": "view",
      "type": "function"
    },
    {
      "inputs": [],
      "name": "NO_EXTRA_GAS",
      "outputs": [
        {
          "internalType": "uint256",
          "name": "",
          "type": "uint256"
        }
      ],
      "stateMutability": "view",
      "type": "function"
    },
    {
      "inputs": [
        {
          "internalType": "uint16",
          "name": "_dstChainId",
          "type": "uint16"
        },
        {
          "internalType": "bytes",
          "name": "_marketDstAddress",
          "type": "bytes"
        },
        {
          "internalType": "bytes[]",
          "name": "_marketCalls",
          "type": "bytes[]"
        },
        {
          "internalType": "bytes",
          "name": "_adapterParams",
          "type": "bytes"
        }
      ],
      "name": "executeOnChain",
      "outputs": [],
      "stateMutability": "payable",
      "type": "function"
    },
    {
      "inputs": [
        {
          "internalType": "uint16",
          "name": "",
          "type": "uint16"
        },
        {
          "internalType": "bytes",
          "name": "",
          "type": "bytes"
        },
        {
          "internalType": "uint64",
          "name": "",
          "type": "uint64"
        }
      ],
      "name": "failedMessages",
      "outputs": [
        {
          "internalType": "bytes32",
          "name": "",
          "type": "bytes32"
        }
      ],
      "stateMutability": "view",
      "type": "function"
    },
    {
      "inputs": [
        {
          "internalType": "uint16",
          "name": "_srcChainId",
          "type": "uint16"
        },
        {
          "internalType": "bytes",
          "name": "_srcAddress",
          "type": "bytes"
        }
      ],
      "name": "forceResumeReceive",
      "outputs": [],
      "stateMutability": "nonpayable",
      "type": "function"
    },
    {
      "inputs": [
        {
          "internalType": "uint16",
          "name": "_version",
          "type": "uint16"
        },
        {
          "internalType": "uint16",
          "name": "_chainId",
          "type": "uint16"
        },
        {
          "internalType": "address",
          "name": "",
          "type": "address"
        },
        {
          "internalType": "uint256",
          "name": "_configType",
          "type": "uint256"
        }
      ],
      "name": "getConfig",
      "outputs": [
        {
          "internalType": "bytes",
          "name": "",
          "type": "bytes"
        }
      ],
      "stateMutability": "view",
      "type": "function"
    },
    {
      "inputs": [
        {
          "internalType": "uint16",
          "name": "_remoteChainId",
          "type": "uint16"
        }
      ],
      "name": "getTrustedRemoteAddress",
      "outputs": [
        {
          "internalType": "bytes",
          "name": "",
          "type": "bytes"
        }
      ],
      "stateMutability": "view",
      "type": "function"
    },
    {
      "inputs": [
        {
          "internalType": "uint16",
          "name": "_srcChainId",
          "type": "uint16"
        },
        {
          "internalType": "bytes",
          "name": "_srcAddress",
          "type": "bytes"
        }
      ],
      "name": "isTrustedRemote",
      "outputs": [
        {
          "internalType": "bool",
          "name": "",
          "type": "bool"
        }
      ],
      "stateMutability": "view",
      "type": "function"
    },
    {
      "inputs": [],
      "name": "lzEndpoint",
      "outputs": [
        {
          "internalType": "contract ILayerZeroEndpoint",
          "name": "",
          "type": "address"
        }
      ],
      "stateMutability": "view",
      "type": "function"
    },
    {
      "inputs": [
        {
          "internalType": "uint16",
          "name": "_srcChainId",
          "type": "uint16"
        },
        {
          "internalType": "bytes",
          "name": "_srcAddress",
          "type": "bytes"
        },
        {
          "internalType": "uint64",
          "name": "_nonce",
          "type": "uint64"
        },
        {
          "internalType": "bytes",
          "name": "_payload",
          "type": "bytes"
        }
      ],
      "name": "lzReceive",
      "outputs": [],
      "stateMutability": "nonpayable",
      "type": "function"
    },
    {
      "inputs": [
        {
          "internalType": "address",
          "name": "",
          "type": "address"
        }
      ],
      "name": "markets",
      "outputs": [
        {
          "internalType": "bool",
          "name": "",
          "type": "bool"
        }
      ],
      "stateMutability": "view",
      "type": "function"
    },
    {
      "inputs": [
        {
          "internalType": "uint16",
          "name": "",
          "type": "uint16"
        },
        {
          "internalType": "uint16",
          "name": "",
          "type": "uint16"
        }
      ],
      "name": "minDstGasLookup",
      "outputs": [
        {
          "internalType": "uint256",
          "name": "",
          "type": "uint256"
        }
      ],
      "stateMutability": "view",
      "type": "function"
    },
    {
      "inputs": [
        {
          "internalType": "uint16",
          "name": "_srcChainId",
          "type": "uint16"
        },
        {
          "internalType": "bytes",
          "name": "_srcAddress",
          "type": "bytes"
        },
        {
          "internalType": "uint64",
          "name": "_nonce",
          "type": "uint64"
        },
        {
          "internalType": "bytes",
          "name": "_payload",
          "type": "bytes"
        }
      ],
      "name": "nonblockingLzReceive",
      "outputs": [],
      "stateMutability": "nonpayable",
      "type": "function"
    },
    {
      "inputs": [],
      "name": "owner",
      "outputs": [
        {
          "internalType": "address",
          "name": "",
          "type": "address"
        }
      ],
      "stateMutability": "view",
      "type": "function"
    },
    {
      "inputs": [
        {
          "internalType": "uint16",
          "name": "",
          "type": "uint16"
        }
      ],
      "name": "payloadSizeLimitLookup",
      "outputs": [
        {
          "internalType": "uint256",
          "name": "",
          "type": "uint256"
        }
      ],
      "stateMutability": "view",
      "type": "function"
    },
    {
      "inputs": [],
      "name": "precrime",
      "outputs": [
        {
          "internalType": "address",
          "name": "",
          "type": "address"
        }
      ],
      "stateMutability": "view",
      "type": "function"
    },
    {
      "inputs": [],
      "name": "renounceOwnership",
      "outputs": [],
      "stateMutability": "nonpayable",
      "type": "function"
    },
    {
      "inputs": [
        {
          "internalType": "uint16",
          "name": "_srcChainId",
          "type": "uint16"
        },
        {
          "internalType": "bytes",
          "name": "_srcAddress",
          "type": "bytes"
        },
        {
          "internalType": "uint64",
          "name": "_nonce",
          "type": "uint64"
        },
        {
          "internalType": "bytes",
          "name": "_payload",
          "type": "bytes"
        }
      ],
      "name": "retryMessage",
      "outputs": [],
      "stateMutability": "payable",
      "type": "function"
    },
    {
      "inputs": [
        {
          "internalType": "uint16",
          "name": "_version",
          "type": "uint16"
        },
        {
          "internalType": "uint16",
          "name": "_chainId",
          "type": "uint16"
        },
        {
          "internalType": "uint256",
          "name": "_configType",
          "type": "uint256"
        },
        {
          "internalType": "bytes",
          "name": "_config",
          "type": "bytes"
        }
      ],
      "name": "setConfig",
      "outputs": [],
      "stateMutability": "nonpayable",
      "type": "function"
    },
    {
      "inputs": [
        {
          "internalType": "uint16",
          "name": "_dstChainId",
          "type": "uint16"
        },
        {
          "internalType": "uint16",
          "name": "_packetType",
          "type": "uint16"
        },
        {
          "internalType": "uint256",
          "name": "_minGas",
          "type": "uint256"
        }
      ],
      "name": "setMinDstGas",
      "outputs": [],
      "stateMutability": "nonpayable",
      "type": "function"
    },
    {
      "inputs": [
        {
          "internalType": "uint16",
          "name": "_dstChainId",
          "type": "uint16"
        },
        {
          "internalType": "uint256",
          "name": "_size",
          "type": "uint256"
        }
      ],
      "name": "setPayloadSizeLimit",
      "outputs": [],
      "stateMutability": "nonpayable",
      "type": "function"
    },
    {
      "inputs": [
        {
          "internalType": "address",
          "name": "_precrime",
          "type": "address"
        }
      ],
      "name": "setPrecrime",
      "outputs": [],
      "stateMutability": "nonpayable",
      "type": "function"
    },
    {
      "inputs": [
        {
          "internalType": "uint16",
          "name": "_version",
          "type": "uint16"
        }
      ],
      "name": "setReceiveVersion",
      "outputs": [],
      "stateMutability": "nonpayable",
      "type": "function"
    },
    {
      "inputs": [
        {
          "internalType": "uint16",
          "name": "_version",
          "type": "uint16"
        }
      ],
      "name": "setSendVersion",
      "outputs": [],
      "stateMutability": "nonpayable",
      "type": "function"
    },
    {
      "inputs": [
        {
          "internalType": "uint16",
          "name": "_srcChainId",
          "type": "uint16"
        },
        {
          "internalType": "bytes",
          "name": "_path",
          "type": "bytes"
        }
      ],
      "name": "setTrustedRemote",
      "outputs": [],
      "stateMutability": "nonpayable",
      "type": "function"
    },
    {
      "inputs": [
        {
          "internalType": "uint16",
          "name": "_remoteChainId",
          "type": "uint16"
        },
        {
          "internalType": "bytes",
          "name": "_remoteAddress",
          "type": "bytes"
        }
      ],
      "name": "setTrustedRemoteAddress",
      "outputs": [],
      "stateMutability": "nonpayable",
      "type": "function"
    },
    {
      "inputs": [
        {
          "internalType": "bool",
          "name": "_useCustomAdapterParams",
          "type": "bool"
        }
      ],
      "name": "setUseCustomAdapterParams",
      "outputs": [],
      "stateMutability": "nonpayable",
      "type": "function"
    },
    {
      "inputs": [
        {
          "internalType": "address",
          "name": "newOwner",
          "type": "address"
        }
      ],
      "name": "transferOwnership",
      "outputs": [],
      "stateMutability": "nonpayable",
      "type": "function"
    },
    {
      "inputs": [
        {
          "internalType": "uint16",
          "name": "",
          "type": "uint16"
        }
      ],
      "name": "trustedRemoteLookup",
      "outputs": [
        {
          "internalType": "bytes",
          "name": "",
          "type": "bytes"
        }
      ],
      "stateMutability": "view",
      "type": "function"
    },
    {
      "inputs": [
        {
          "internalType": "address",
          "name": "_market",
          "type": "address"
        },
        {
          "internalType": "bool",
          "name": "_status",
          "type": "bool"
        }
      ],
      "name": "updateMarketStatus",
      "outputs": [],
      "stateMutability": "nonpayable",
      "type": "function"
    },
    {
      "inputs": [],
      "name": "useCustomAdapterParams",
      "outputs": [
        {
          "internalType": "bool",
          "name": "",
          "type": "bool"
        }
      ],
      "stateMutability": "view",
      "type": "function"
    }
  ],
  "transactionHash": "0x82eb66bc8061e2db4b7573d7d3b89a2c0368bf49c3264d880cc6f35a8c0b0d95",
  "args": [
    "0x93f54D755A063cE7bB9e6Ac47Eccc8e33411d706",
    "0x40282d3Cf4890D9806BC1853e97a59C93D813653"
  ],
  "numDeployments": 1,
  "solcInputHash": "039b996a42873abe6a641c9458179de8",
  "bytecode": "0x60a06040523480156200001157600080fd5b5060405162002ddc38038062002ddc8339810160408190526200003491620000ce565b8180620000413362000061565b6001600160a01b031660805250620000598162000061565b505062000106565b600080546001600160a01b038381166001600160a01b0319831681178455604051919092169283917f8be0079c531659141344cd1fd0a4f28419497f9722a3daafe3b4186f6b6457e09190a35050565b80516001600160a01b0381168114620000c957600080fd5b919050565b60008060408385031215620000e257600080fd5b620000ed83620000b1565b9150620000fd60208401620000b1565b90509250929050565b608051612c826200015a600039600081816104f30152818161065b015281816108aa0152818161095201528181610a7501528181610d7901528181610f67015281816114590152611cc20152612c826000f3fe6080604052600436106101e25760003560e01c80639f38369a11610102578063d1deba1f11610095578063ed629c5c11610064578063ed629c5c146105de578063f2fde38b146105f8578063f3264a2d14610618578063f5ecbdbc1461063857600080fd5b8063d1deba1f1461056b578063df2a5b3b1461057e578063eab45d9c1461059e578063eb8d72b7146105be57600080fd5b8063b353aaa7116100d1578063b353aaa7146104e1578063baf3292d14610515578063c446183414610535578063cbed8b9c1461054b57600080fd5b80639f38369a146104795780639f980b8014610499578063a6c3d165146104ac578063af3fb21c146104cc57600080fd5b80635b8c41e61161017a5780638cfd8f5c116101495780638cfd8f5c146103bf5780638da5cb5b146103f75780638e8f294b14610429578063950c8a741461045957600080fd5b80635b8c41e61461030e57806366ad5c8a1461035d578063715018a61461037d5780637533d7881461039257600080fd5b80633d8b38f6116101b65780633d8b38f6146102695780633f1f4fa41461029e57806342d65a8d146102d957806344770515146102f957600080fd5b80621d3567146101e757806307e0db17146102095780630df374831461022957806310ddb13714610249575b600080fd5b3480156101f357600080fd5b50610207610202366004611e84565b610658565b005b34801561021557600080fd5b50610207610224366004611f19565b610889565b34801561023557600080fd5b50610207610244366004611f36565b610912565b34801561025557600080fd5b50610207610264366004611f19565b610931565b34801561027557600080fd5b50610289610284366004611f62565b610989565b60405190151581526020015b60405180910390f35b3480156102aa57600080fd5b506102cb6102b9366004611f19565b60036020526000908152604090205481565b604051908152602001610295565b3480156102e557600080fd5b506102076102f4366004611f62565b610a56565b34801561030557600080fd5b506102cb600081565b34801561031a57600080fd5b506102cb610329366004612079565b6005602090815260009384526040808520845180860184018051928152908401958401959095209452929052825290205481565b34801561036957600080fd5b50610207610378366004611e84565b610adc565b34801561038957600080fd5b50610207610bb8565b34801561039e57600080fd5b506103b26103ad366004611f19565b610bcc565b6040516102959190612134565b3480156103cb57600080fd5b506102cb6103da366004612147565b600260209081526000928352604080842090915290825290205481565b34801561040357600080fd5b506000546001600160a01b03165b6040516001600160a01b039091168152602001610295565b34801561043557600080fd5b50610289610444366004612197565b60076020526000908152604090205460ff1681565b34801561046557600080fd5b50600454610411906001600160a01b031681565b34801561048557600080fd5b506103b2610494366004611f19565b610c66565b6102076104a73660046121d5565b610d75565b3480156104b857600080fd5b506102076104c7366004611f62565b610e62565b3480156104d857600080fd5b506102cb600181565b3480156104ed57600080fd5b506104117f000000000000000000000000000000000000000000000000000000000000000081565b34801561052157600080fd5b50610207610530366004612197565b610eeb565b34801561054157600080fd5b506102cb61271081565b34801561055757600080fd5b506102076105663660046122e1565b610f48565b610207610579366004611e84565b610fdd565b34801561058a57600080fd5b50610207610599366004612353565b6111f3565b3480156105aa57600080fd5b506102076105b93660046123a2565b6112a5565b3480156105ca57600080fd5b506102076105d9366004611f62565b6112ee565b3480156105ea57600080fd5b506006546102899060ff1681565b34801561060457600080fd5b50610207610613366004612197565b611348565b34801561062457600080fd5b506102076106333660046123bf565b6113c1565b34801561064457600080fd5b506103b26106533660046123eb565b611428565b337f00000000000000000000000000000000000000000000000000000000000000006001600160a01b0316146106d55760405162461bcd60e51b815260206004820152601e60248201527f4c7a4170703a20696e76616c696420656e64706f696e742063616c6c6572000060448201526064015b60405180910390fd5b61ffff8616600090815260016020526040812080546106f39061243a565b80601f016020809104026020016040519081016040528092919081815260200182805461071f9061243a565b801561076c5780601f106107415761010080835404028352916020019161076c565b820191906000526020600020905b81548152906001019060200180831161074f57829003601f168201915b50505050509050805186869050148015610787575060008151115b80156107af5750805160208201206040516107a59088908890612474565b6040518091039020145b61080a5760405162461bcd60e51b815260206004820152602660248201527f4c7a4170703a20696e76616c696420736f757263652073656e64696e6720636f6044820152651b9d1c9858dd60d21b60648201526084016106cc565b6108808787878080601f01602080910402602001604051908101604052809392919081815260200183838082843760009201919091525050604080516020601f8a018190048102820181019092528881528a9350915088908890819084018382808284376000920191909152506114d992505050565b50505050505050565b610891611552565b6040516307e0db1760e01b815261ffff821660048201527f00000000000000000000000000000000000000000000000000000000000000006001600160a01b0316906307e0db17906024015b600060405180830381600087803b1580156108f757600080fd5b505af115801561090b573d6000803e3d6000fd5b5050505050565b61091a611552565b61ffff909116600090815260036020526040902055565b610939611552565b6040516310ddb13760e01b815261ffff821660048201527f00000000000000000000000000000000000000000000000000000000000000006001600160a01b0316906310ddb137906024016108dd565b61ffff8316600090815260016020526040812080548291906109aa9061243a565b80601f01602080910402602001604051908101604052809291908181526020018280546109d69061243a565b8015610a235780601f106109f857610100808354040283529160200191610a23565b820191906000526020600020905b815481529060010190602001808311610a0657829003601f168201915b505050505090508383604051610a3a929190612474565b60405180910390208180519060200120149150505b9392505050565b610a5e611552565b6040516342d65a8d60e01b81526001600160a01b037f000000000000000000000000000000000000000000000000000000000000000016906342d65a8d90610aae908690869086906004016124ad565b600060405180830381600087803b158015610ac857600080fd5b505af1158015610880573d6000803e3d6000fd5b333014610b3a5760405162461bcd60e51b815260206004820152602660248201527f4e6f6e626c6f636b696e674c7a4170703a2063616c6c6572206d7573742062656044820152650204c7a4170760d41b60648201526084016106cc565b610bb08686868080601f01602080910402602001604051908101604052809392919081815260200183838082843760009201919091525050604080516020601f8901819004810282018101909252878152899350915087908790819084018382808284376000920191909152506115ac92505050565b505050505050565b610bc0611552565b610bca600061170a565b565b60016020526000908152604090208054610be59061243a565b80601f0160208091040260200160405190810160405280929190818152602001828054610c119061243a565b8015610c5e5780601f10610c3357610100808354040283529160200191610c5e565b820191906000526020600020905b815481529060010190602001808311610c4157829003601f168201915b505050505081565b61ffff8116600090815260016020526040812080546060929190610c899061243a565b80601f0160208091040260200160405190810160405280929190818152602001828054610cb59061243a565b8015610d025780601f10610cd757610100808354040283529160200191610d02565b820191906000526020600020905b815481529060010190602001808311610ce557829003601f168201915b505050505090508051600003610d5a5760405162461bcd60e51b815260206004820152601d60248201527f4c7a4170703a206e6f20747275737465642070617468207265636f726400000060448201526064016106cc565b610a4f600060148351610d6d91906124e1565b83919061175a565b60007f00000000000000000000000000000000000000000000000000000000000000006001600160a01b0316633408e4706040518163ffffffff1660e01b8152600401602060405180830381865afa158015610dd5573d6000803e3d6000fd5b505050506040513d601f19601f82011682018060405250810190610df991906124f8565b61ffff1690508461ffff168103610e525760405162461bcd60e51b815260206004820152601d60248201527f4d61726b65747350726f78793a20636861696e206e6f742076616c696400000060448201526064016106cc565b61090b3386868633600088611867565b610e6a611552565b818130604051602001610e7f93929190612515565b60408051601f1981840301815291815261ffff8516600090815260016020522090610eaa9082612581565b507f8c0400cfe2d1199b1a725c78960bcc2a344d869b80590d0f2bd005db15a572ce838383604051610ede939291906124ad565b60405180910390a1505050565b610ef3611552565b600480546001600160a01b0319166001600160a01b0383169081179091556040519081527f5db758e995a17ec1ad84bdef7e8c3293a0bd6179bcce400dff5d4c3d87db726b906020015b60405180910390a150565b610f50611552565b6040516332fb62e760e21b81526001600160a01b037f0000000000000000000000000000000000000000000000000000000000000000169063cbed8b9c90610fa49088908890889088908890600401612640565b600060405180830381600087803b158015610fbe57600080fd5b505af1158015610fd2573d6000803e3d6000fd5b505050505050505050565b61ffff861660009081526005602052604080822090516110009088908890612474565b90815260408051602092819003830190206001600160401b038716600090815292529020549050806110805760405162461bcd60e51b815260206004820152602360248201527f4e6f6e626c6f636b696e674c7a4170703a206e6f2073746f726564206d65737360448201526261676560e81b60648201526084016106cc565b808383604051611091929190612474565b6040518091039020146110f05760405162461bcd60e51b815260206004820152602160248201527f4e6f6e626c6f636b696e674c7a4170703a20696e76616c6964207061796c6f616044820152601960fa1b60648201526084016106cc565b61ffff871660009081526005602052604080822090516111139089908990612474565b90815260408051602092819003830181206001600160401b038916600090815290845282902093909355601f880182900482028301820190528682526111ab918991899089908190840183828082843760009201919091525050604080516020601f8a018190048102820181019092528881528a9350915088908890819084018382808284376000920191909152506115ac92505050565b7fc264d91f3adc5588250e1551f547752ca0cfa8f6b530d243b9f9f4cab10ea8e587878787856040516111e2959493929190612679565b60405180910390a150505050505050565b6111fb611552565b600081116112435760405162461bcd60e51b81526020600482015260156024820152744c7a4170703a20696e76616c6964206d696e47617360581b60448201526064016106cc565b61ffff83811660008181526002602090815260408083209487168084529482529182902085905581519283528201929092529081018290527f9d5c7c0b934da8fefa9c7760c98383778a12dfbfc0c3b3106518f43fb9508ac090606001610ede565b6112ad611552565b6006805460ff19168215159081179091556040519081527f1584ad594a70cbe1e6515592e1272a987d922b097ead875069cebe8b40c004a490602001610f3d565b6112f6611552565b61ffff831660009081526001602052604090206113148284836126b4565b507ffa41487ad5d6728f0b19276fa1eddc16558578f5109fc39d2dc33c3230470dab838383604051610ede939291906124ad565b611350611552565b6001600160a01b0381166113b55760405162461bcd60e51b815260206004820152602660248201527f4f776e61626c653a206e6577206f776e657220697320746865207a65726f206160448201526564647265737360d01b60648201526084016106cc565b6113be8161170a565b50565b6113c9611552565b6001600160a01b038216600081815260076020908152604091829020805460ff191685151590811790915591519182527f1bc0fc0d4d10627d4504555c200a4f8c7c6470c31b305764e9f1372161078a8d910160405180910390a25050565b604051633d7b2f6f60e21b815261ffff808616600483015284166024820152306044820152606481018290526060907f00000000000000000000000000000000000000000000000000000000000000006001600160a01b03169063f5ecbdbc90608401600060405180830381865afa1580156114a8573d6000803e3d6000fd5b505050506040513d6000823e601f3d908101601f191682016040526114d091908101906127c3565b95945050505050565b60008061153c5a60966366ad5c8a60e01b8989898960405160240161150194939291906127ff565b60408051601f198184030181529190526020810180516001600160e01b03166001600160e01b03199093169290921790915230929190611993565b9150915081610bb057610bb08686868685611a1d565b6000546001600160a01b03163314610bca5760405162461bcd60e51b815260206004820181905260248201527f4f776e61626c653a2063616c6c6572206973206e6f7420746865206f776e657260448201526064016106cc565b6000806000838060200190518101906115c5919061283d565b601480840151908301516001600160a01b0381166000908152600760205260409020549497509295509093509160ff166116415760405162461bcd60e51b815260206004820152601e60248201527f4d61726b65747350726f78793a206d61726b6574206e6f742076616c6964000060448201526064016106cc565b60405163aa7d966560e01b81526001600160a01b0382169063aa7d966590611670908690600190600401612989565b6000604051808303816000875af115801561168f573d6000803e3d6000fd5b505050506040513d6000823e601f3d908101601f191682016040526116b79190810190612a4c565b5050806001600160a01b03168961ffff167fe56f9bcb2a90b3dc97f0814c287246469fc5c7050a6022ad21b2fe9058129c81886040516116f79190612134565b60405180910390a3505050505050505050565b600080546001600160a01b038381166001600160a01b0319831681178455604051919092169283917f8be0079c531659141344cd1fd0a4f28419497f9722a3daafe3b4186f6b6457e09190a35050565b60608161176881601f612b10565b10156117a75760405162461bcd60e51b815260206004820152600e60248201526d736c6963655f6f766572666c6f7760901b60448201526064016106cc565b6117b18284612b10565b845110156117f55760405162461bcd60e51b8152602060048201526011602482015270736c6963655f6f75744f66426f756e647360781b60448201526064016106cc565b606082158015611814576040519150600082526020820160405261185e565b6040519150601f8416801560200281840101858101878315602002848b0101015b8183101561184d578051835260209283019201611835565b5050858452601f01601f1916604052505b50949350505050565b6040516bffffffffffffffffffffffff193060601b16602082015260009060340160408051601f19818403018152908290526118a99188908890602001612b28565b60408051601f1981840301815291905260065490915060ff16156118da576118d5876001846000611aba565b611935565b8151156119355760405162461bcd60e51b8152602060048201526024808201527f4c7a4170703a205f61646170746572506172616d73206d75737420626520656d604482015263383a3c9760e11b60648201526084016106cc565b611943878286868634611b99565b876001600160a01b03168761ffff167fd3b01b57b25c5a506ceef68a2e5ce63cf91fe09d5270a8bb49839a64d5b1b1f7836040516119819190612134565b60405180910390a35050505050505050565b6000606060008060008661ffff166001600160401b038111156119b8576119b8611fb6565b6040519080825280601f01601f1916602001820160405280156119e2576020820181803683370190505b50905060008087516020890160008d8df191503d925086831115611a04578692505b828152826000602083013e909890975095505050505050565b8180519060200120600560008761ffff1661ffff16815260200190815260200160002085604051611a4e9190612b6b565b9081526040805191829003602090810183206001600160401b0388166000908152915220919091557fe183f33de2837795525b4792ca4cd60535bd77c53b7e7030060bfcf5734d6b0c90611aab9087908790879087908790612b87565b60405180910390a15050505050565b6000611ac583611d3e565b61ffff808716600090815260026020908152604080832093891683529290529081205491925090611af7908490612b10565b905060008111611b495760405162461bcd60e51b815260206004820152601a60248201527f4c7a4170703a206d696e4761734c696d6974206e6f742073657400000000000060448201526064016106cc565b80821015610bb05760405162461bcd60e51b815260206004820152601b60248201527f4c7a4170703a20676173206c696d697420697320746f6f206c6f77000000000060448201526064016106cc565b61ffff861660009081526001602052604081208054611bb79061243a565b80601f0160208091040260200160405190810160405280929190818152602001828054611be39061243a565b8015611c305780601f10611c0557610100808354040283529160200191611c30565b820191906000526020600020905b815481529060010190602001808311611c1357829003601f168201915b505050505090508051600003611ca15760405162461bcd60e51b815260206004820152603060248201527f4c7a4170703a2064657374696e6174696f6e20636861696e206973206e6f742060448201526f61207472757374656420736f7572636560801b60648201526084016106cc565b611cac878751611d9a565b60405162c5803160e81b81526001600160a01b037f0000000000000000000000000000000000000000000000000000000000000000169063c5803100908490611d03908b9086908c908c908c908c90600401612be5565b6000604051808303818588803b158015611d1c57600080fd5b505af1158015611d30573d6000803e3d6000fd5b505050505050505050505050565b6000602282511015611d925760405162461bcd60e51b815260206004820152601c60248201527f4c7a4170703a20696e76616c69642061646170746572506172616d730000000060448201526064016106cc565b506022015190565b61ffff821660009081526003602052604081205490819003611dbb57506127105b80821115611e0b5760405162461bcd60e51b815260206004820181905260248201527f4c7a4170703a207061796c6f61642073697a6520697320746f6f206c6172676560448201526064016106cc565b505050565b61ffff811681146113be57600080fd5b60008083601f840112611e3257600080fd5b5081356001600160401b03811115611e4957600080fd5b602083019150836020828501011115611e6157600080fd5b9250929050565b80356001600160401b0381168114611e7f57600080fd5b919050565b60008060008060008060808789031215611e9d57600080fd5b8635611ea881611e10565b955060208701356001600160401b0380821115611ec457600080fd5b611ed08a838b01611e20565b9097509550859150611ee460408a01611e68565b94506060890135915080821115611efa57600080fd5b50611f0789828a01611e20565b979a9699509497509295939492505050565b600060208284031215611f2b57600080fd5b8135610a4f81611e10565b60008060408385031215611f4957600080fd5b8235611f5481611e10565b946020939093013593505050565b600080600060408486031215611f7757600080fd5b8335611f8281611e10565b925060208401356001600160401b03811115611f9d57600080fd5b611fa986828701611e20565b9497909650939450505050565b634e487b7160e01b600052604160045260246000fd5b604051601f8201601f191681016001600160401b0381118282101715611ff457611ff4611fb6565b604052919050565b60006001600160401b0382111561201557612015611fb6565b50601f01601f191660200190565b600082601f83011261203457600080fd5b813561204761204282611ffc565b611fcc565b81815284602083860101111561205c57600080fd5b816020850160208301376000918101602001919091529392505050565b60008060006060848603121561208e57600080fd5b833561209981611e10565b925060208401356001600160401b038111156120b457600080fd5b6120c086828701612023565b9250506120cf60408501611e68565b90509250925092565b60005b838110156120f35781810151838201526020016120db565b83811115612102576000848401525b50505050565b600081518084526121208160208601602086016120d8565b601f01601f19169290920160200192915050565b602081526000610a4f6020830184612108565b6000806040838503121561215a57600080fd5b823561216581611e10565b9150602083013561217581611e10565b809150509250929050565b80356001600160a01b0381168114611e7f57600080fd5b6000602082840312156121a957600080fd5b610a4f82612180565b60006001600160401b038211156121cb576121cb611fb6565b5060051b60200190565b600080600080608085870312156121eb57600080fd5b84356121f681611e10565b93506020858101356001600160401b038082111561221357600080fd5b61221f89838a01612023565b9550604088013591508082111561223557600080fd5b818801915088601f83011261224957600080fd5b8135612257612042826121b2565b81815260059190911b8301840190848101908b83111561227657600080fd5b8585015b838110156122ae578035858111156122925760008081fd5b6122a08e89838a0101612023565b84525091860191860161227a565b509650505060608801359250808311156122c757600080fd5b50506122d587828801612023565b91505092959194509250565b6000806000806000608086880312156122f957600080fd5b853561230481611e10565b9450602086013561231481611e10565b93506040860135925060608601356001600160401b0381111561233657600080fd5b61234288828901611e20565b969995985093965092949392505050565b60008060006060848603121561236857600080fd5b833561237381611e10565b9250602084013561238381611e10565b929592945050506040919091013590565b80151581146113be57600080fd5b6000602082840312156123b457600080fd5b8135610a4f81612394565b600080604083850312156123d257600080fd5b6123db83612180565b9150602083013561217581612394565b6000806000806080858703121561240157600080fd5b843561240c81611e10565b9350602085013561241c81611e10565b925061242a60408601612180565b9396929550929360600135925050565b600181811c9082168061244e57607f821691505b60208210810361246e57634e487b7160e01b600052602260045260246000fd5b50919050565b8183823760009101908152919050565b81835281816020850137506000828201602090810191909152601f909101601f19169091010190565b61ffff841681526040602082015260006114d0604083018486612484565b634e487b7160e01b600052601160045260246000fd5b6000828210156124f3576124f36124cb565b500390565b60006020828403121561250a57600080fd5b8151610a4f81611e10565b8284823760609190911b6bffffffffffffffffffffffff19169101908152601401919050565b601f821115611e0b57600081815260208120601f850160051c810160208610156125625750805b601f850160051c820191505b81811015610bb05782815560010161256e565b81516001600160401b0381111561259a5761259a611fb6565b6125ae816125a8845461243a565b8461253b565b602080601f8311600181146125e357600084156125cb5750858301515b600019600386901b1c1916600185901b178555610bb0565b600085815260208120601f198616915b82811015612612578886015182559484019460019091019084016125f3565b50858210156126305787850151600019600388901b60f8161c191681555b5050505050600190811b01905550565b600061ffff80881683528087166020840152508460408301526080606083015261266e608083018486612484565b979650505050505050565b61ffff86168152608060208201526000612697608083018688612484565b6001600160401b0394909416604083015250606001529392505050565b6001600160401b038311156126cb576126cb611fb6565b6126df836126d9835461243a565b8361253b565b6000601f84116001811461271357600085156126fb5750838201355b600019600387901b1c1916600186901b17835561090b565b600083815260209020601f19861690835b828110156127445786850135825560209485019460019092019101612724565b50868210156127615760001960f88860031b161c19848701351681555b505060018560011b0183555050505050565b600061278161204284611ffc565b905082815283838301111561279557600080fd5b610a4f8360208301846120d8565b600082601f8301126127b457600080fd5b610a4f83835160208501612773565b6000602082840312156127d557600080fd5b81516001600160401b038111156127eb57600080fd5b6127f7848285016127a3565b949350505050565b61ffff8516815260806020820152600061281c6080830186612108565b6001600160401b0385166040840152828103606084015261266e8185612108565b60008060006060848603121561285257600080fd5b83516001600160401b038082111561286957600080fd5b612875878388016127a3565b945060209150818601518181111561288c57600080fd5b612898888289016127a3565b9450506040860151818111156128ad57600080fd5b8601601f810188136128be57600080fd5b80516128cc612042826121b2565b81815260059190911b8201840190848101908a8311156128eb57600080fd5b8584015b83811015612923578051868111156129075760008081fd5b6129158d89838901016127a3565b8452509186019186016128ef565b508096505050505050509250925092565b600081518084526020808501808196508360051b8101915082860160005b8581101561297c57828403895261296a848351612108565b98850198935090840190600101612952565b5091979650505050505050565b60408152600061299c6040830185612934565b905082151560208301529392505050565b600082601f8301126129be57600080fd5b815160206129ce612042836121b2565b82815260059290921b840181019181810190868411156129ed57600080fd5b8286015b84811015612a415780516001600160401b03811115612a105760008081fd5b8701603f81018913612a225760008081fd5b612a33898683015160408401612773565b8452509183019183016129f1565b509695505050505050565b60008060408385031215612a5f57600080fd5b82516001600160401b0380821115612a7657600080fd5b818501915085601f830112612a8a57600080fd5b81516020612a9a612042836121b2565b82815260059290921b84018101918181019089841115612ab957600080fd5b948201945b83861015612ae0578551612ad181612394565b82529482019490820190612abe565b91880151919650909350505080821115612af957600080fd5b50612b06858286016129ad565b9150509250929050565b60008219821115612b2357612b236124cb565b500190565b606081526000612b3b6060830186612108565b8281036020840152612b4d8186612108565b90508281036040840152612b618185612934565b9695505050505050565b60008251612b7d8184602087016120d8565b9190910192915050565b61ffff8616815260a060208201526000612ba460a0830187612108565b6001600160401b03861660408401528281036060840152612bc58186612108565b90508281036080840152612bd98185612108565b98975050505050505050565b61ffff8716815260c060208201526000612c0260c0830188612108565b8281036040840152612c148188612108565b6001600160a01b0387811660608601528616608085015283810360a08501529050612c3f8185612108565b999850505050505050505056fea26469706673582212206dc9e444c28ceecad2c59627694d8642cdef754e4f746c06ca8d6a1e8b5a127864736f6c634300080f0033",
  "devdoc": {
    "kind": "dev",
    "methods": {
      "constructor": {
        "params": {
          "_lzEndpoint": "LayerZero endpoint address",
          "_owner": "contract's owner address"
        }
      },
      "executeOnChain(uint16,bytes,bytes[],bytes)": {
        "params": {
          "_adapterParams": "custom adapters",
          "_dstChainId": "te LayerZero destination chain id",
          "_marketCalls": "Market calls",
          "_marketDstAddress": "destination Market address"
        }
      },
      "owner()": {
        "details": "Returns the address of the current owner."
      },
      "renounceOwnership()": {
        "details": "Leaves the contract without owner. It will not be possible to call `onlyOwner` functions anymore. Can only be called by the current owner. NOTE: Renouncing ownership will leave the contract without an owner, thereby removing any functionality that is only available to the owner."
      },
      "setUseCustomAdapterParams(bool)": {
        "params": {
          "_useCustomAdapterParams": "true/false"
        }
      },
      "transferOwnership(address)": {
        "details": "Transfers ownership of the contract to a new account (`newOwner`). Can only be called by the current owner."
      },
      "updateMarketStatus(address,bool)": {
        "details": "callable by owner",
        "params": {
          "_market": "the market address",
          "_status": "whitelisted/not"
        }
      }
    },
    "title": "Omnichain proxy for Singularity",
    "version": 1
  },
  "userdoc": {
    "kind": "user",
    "methods": {
      "constructor": {
        "notice": "creates a new SGLProxy contract"
      },
      "executeOnChain(uint16,bytes,bytes[],bytes)": {
        "notice": "execute Singularity methods on another chain"
      },
      "setUseCustomAdapterParams(bool)": {
        "notice": "set custom adapter usage status"
      },
      "updateMarketStatus(address,bool)": {
        "notice": "set whitelist status for market"
      }
    },
    "version": 1
  },
  "storageLayout": {
    "storage": [
      {
        "astId": 2214,
        "contract": "contracts/MarketsProxy.sol:MarketsProxy",
        "label": "_owner",
        "offset": 0,
        "slot": "0",
        "type": "t_address"
      },
      {
        "astId": 21790,
        "contract": "contracts/MarketsProxy.sol:MarketsProxy",
        "label": "trustedRemoteLookup",
        "offset": 0,
        "slot": "1",
        "type": "t_mapping(t_uint16,t_bytes_storage)"
      },
      {
        "astId": 21796,
        "contract": "contracts/MarketsProxy.sol:MarketsProxy",
        "label": "minDstGasLookup",
        "offset": 0,
        "slot": "2",
        "type": "t_mapping(t_uint16,t_mapping(t_uint16,t_uint256))"
      },
      {
        "astId": 21800,
        "contract": "contracts/MarketsProxy.sol:MarketsProxy",
        "label": "payloadSizeLimitLookup",
        "offset": 0,
        "slot": "3",
        "type": "t_mapping(t_uint16,t_uint256)"
      },
      {
        "astId": 21802,
        "contract": "contracts/MarketsProxy.sol:MarketsProxy",
        "label": "precrime",
        "offset": 0,
        "slot": "4",
        "type": "t_address"
      },
      {
        "astId": 22339,
        "contract": "contracts/MarketsProxy.sol:MarketsProxy",
        "label": "failedMessages",
        "offset": 0,
        "slot": "5",
        "type": "t_mapping(t_uint16,t_mapping(t_bytes_memory_ptr,t_mapping(t_uint64,t_bytes32)))"
      },
      {
        "astId": 4817,
        "contract": "contracts/MarketsProxy.sol:MarketsProxy",
        "label": "useCustomAdapterParams",
        "offset": 0,
        "slot": "6",
        "type": "t_bool"
      },
      {
        "astId": 4821,
        "contract": "contracts/MarketsProxy.sol:MarketsProxy",
        "label": "markets",
        "offset": 0,
        "slot": "7",
        "type": "t_mapping(t_address,t_bool)"
      }
    ],
    "types": {
      "t_address": {
        "encoding": "inplace",
        "label": "address",
        "numberOfBytes": "20"
      },
      "t_bool": {
        "encoding": "inplace",
        "label": "bool",
        "numberOfBytes": "1"
      },
      "t_bytes32": {
        "encoding": "inplace",
        "label": "bytes32",
        "numberOfBytes": "32"
      },
      "t_bytes_memory_ptr": {
        "encoding": "bytes",
        "label": "bytes",
        "numberOfBytes": "32"
      },
      "t_bytes_storage": {
        "encoding": "bytes",
        "label": "bytes",
        "numberOfBytes": "32"
      },
      "t_mapping(t_address,t_bool)": {
        "encoding": "mapping",
        "key": "t_address",
        "label": "mapping(address => bool)",
        "numberOfBytes": "32",
        "value": "t_bool"
      },
      "t_mapping(t_bytes_memory_ptr,t_mapping(t_uint64,t_bytes32))": {
        "encoding": "mapping",
        "key": "t_bytes_memory_ptr",
        "label": "mapping(bytes => mapping(uint64 => bytes32))",
        "numberOfBytes": "32",
        "value": "t_mapping(t_uint64,t_bytes32)"
      },
      "t_mapping(t_uint16,t_bytes_storage)": {
        "encoding": "mapping",
        "key": "t_uint16",
        "label": "mapping(uint16 => bytes)",
        "numberOfBytes": "32",
        "value": "t_bytes_storage"
      },
      "t_mapping(t_uint16,t_mapping(t_bytes_memory_ptr,t_mapping(t_uint64,t_bytes32)))": {
        "encoding": "mapping",
        "key": "t_uint16",
        "label": "mapping(uint16 => mapping(bytes => mapping(uint64 => bytes32)))",
        "numberOfBytes": "32",
        "value": "t_mapping(t_bytes_memory_ptr,t_mapping(t_uint64,t_bytes32))"
      },
      "t_mapping(t_uint16,t_mapping(t_uint16,t_uint256))": {
        "encoding": "mapping",
        "key": "t_uint16",
        "label": "mapping(uint16 => mapping(uint16 => uint256))",
        "numberOfBytes": "32",
        "value": "t_mapping(t_uint16,t_uint256)"
      },
      "t_mapping(t_uint16,t_uint256)": {
        "encoding": "mapping",
        "key": "t_uint16",
        "label": "mapping(uint16 => uint256)",
        "numberOfBytes": "32",
        "value": "t_uint256"
      },
      "t_mapping(t_uint64,t_bytes32)": {
        "encoding": "mapping",
        "key": "t_uint64",
        "label": "mapping(uint64 => bytes32)",
        "numberOfBytes": "32",
        "value": "t_bytes32"
      },
      "t_uint16": {
        "encoding": "inplace",
        "label": "uint16",
        "numberOfBytes": "2"
      },
      "t_uint256": {
        "encoding": "inplace",
        "label": "uint256",
        "numberOfBytes": "32"
      },
      "t_uint64": {
        "encoding": "inplace",
        "label": "uint64",
        "numberOfBytes": "8"
      }
    }
  }
}