{
  "address": "0x4da7E36B2A1E51409526Cc1E63C67cAA93f4fD13",
  "abi": [
    {
      "inputs": [],
      "name": "deployOracle",
      "outputs": [],
      "stateMutability": "nonpayable",
      "type": "function"
    },
    {
      "inputs": [],
      "name": "last",
      "outputs": [
        {
          "internalType": "address",
          "name": "",
          "type": "address"
        }
      ],
      "stateMutability": "view",
      "type": "function"
    }
  ],
  "transactionHash": "0xbd3b7a16773f3f0e86cb540b3be0e915365aa59430ad0c177608869d40b58d93",
  "args": [],
  "numDeployments": 1,
  "solcInputHash": "5decfb4dc807171a059d0ca429347eac",
  "bytecode": "0x608060405234801561001057600080fd5b50610486806100206000396000f3fe608060405234801561001057600080fd5b50600436106100365760003560e01c806347799da81461003b5780638efb0e781461006a575b600080fd5b60005461004e906001600160a01b031681565b6040516001600160a01b03909116815260200160405180910390f35b610072610074565b005b6000604051610082906100c2565b604051809103906000f08015801561009e573d6000803e3d6000fd5b50600080546001600160a01b0319166001600160a01b039290921691909117905550565b610381806100d08339019056fe608060405234801561001057600080fd5b506001805460ff1916811790556103558061002c6000396000f3fe608060405234801561001057600080fd5b506004361061009e5760003560e01c8063c699c4d611610066578063c699c4d614610127578063d39bbef014610155578063d568866c1461016b578063d6d7d52514610199578063eeb8a8d31461019957600080fd5b80630b93381b146100a35780632b39febd146100c55780632c4e722e146100da57806360fe47b1146100f15780637bcc7f8114610106575b600080fd5b6001546100b09060ff1681565b60405190151581526020015b60405180910390f35b6100cd6101ce565b6040516100bc9190610258565b6100e360005481565b6040519081526020016100bc565b6101046100ff366004610272565b600055565b005b61010461011436600461028b565b6001805460ff1916911515919091179055565b6100cd6101353660046102ad565b5050604080518082019091526004815263151154d560e21b602082015290565b6100e36101633660046102ad565b505060005490565b6100cd6101793660046102ad565b505060408051808201909152600481526315195cdd60e21b602082015290565b6101b76101a73660046102ad565b505060015460005460ff90911691565b6040805192151583526020830191909152016100bc565b60606040516020016101f79060208082526003908201526203078360ec1b604082015260600190565b604051602081830303815290604052905090565b6000815180845260005b8181101561023157602081850181015186830182015201610215565b81811115610243576000602083870101525b50601f01601f19169290920160200192915050565b60208152600061026b602083018461020b565b9392505050565b60006020828403121561028457600080fd5b5035919050565b60006020828403121561029d57600080fd5b8135801515811461026b57600080fd5b600080602083850312156102c057600080fd5b823567ffffffffffffffff808211156102d857600080fd5b818501915085601f8301126102ec57600080fd5b8135818111156102fb57600080fd5b86602082850101111561030d57600080fd5b6020929092019691955090935050505056fea2646970667358221220e64a4f29ec26bb017512df855e4b7a12fd2ac9b9173f7f863ddd7650e5e0c04c64736f6c634300080f0033a264697066735822122009ce9094e4d543ee5a280b7c7f9f5df0748937decadb40b4bc1f5659c2646bfd64736f6c634300080f0033",
  "devdoc": {
    "kind": "dev",
    "methods": {},
    "version": 1
  },
  "userdoc": {
    "kind": "user",
    "methods": {},
    "version": 1
  },
  "storageLayout": {
    "storage": [
      {
        "astId": 8455,
        "contract": "contracts/singularity/legacy/mocks/OracleMock.sol:OracleMockFactory",
        "label": "last",
        "offset": 0,
        "slot": "0",
        "type": "t_address"
      }
    ],
    "types": {
      "t_address": {
        "encoding": "inplace",
        "label": "address",
        "numberOfBytes": "20"
      }
    }
  }
}