{
  "address": "0x68EcA2cd0d7557e61eaf6B6831B892B842e38D65",
  "abi": [
    {
      "inputs": [
        {
          "internalType": "address",
          "name": "_lzEndpoint",
          "type": "address"
        },
        {
          "internalType": "address",
          "name": "_owner",
          "type": "address"
        }
      ],
      "stateMutability": "nonpayable",
      "type": "constructor"
    },
    {
      "anonymous": false,
      "inputs": [
        {
          "indexed": false,
          "internalType": "bool",
          "name": "_old",
          "type": "bool"
        },
        {
          "indexed": false,
          "internalType": "bool",
          "name": "_new",
          "type": "bool"
        }
      ],
      "name": "LogEnforce",
      "type": "event"
    },
    {
      "anonymous": false,
      "inputs": [
        {
          "indexed": true,
          "internalType": "address",
          "name": "singularity",
          "type": "address"
        },
        {
          "indexed": false,
          "internalType": "bool",
          "name": "status",
          "type": "bool"
        }
      ],
      "name": "LogSingularityStatus",
      "type": "event"
    },
    {
      "anonymous": false,
      "inputs": [
        {
          "indexed": false,
          "internalType": "uint16",
          "name": "_srcChainId",
          "type": "uint16"
        },
        {
          "indexed": false,
          "internalType": "bytes",
          "name": "_srcAddress",
          "type": "bytes"
        },
        {
          "indexed": false,
          "internalType": "uint64",
          "name": "_nonce",
          "type": "uint64"
        },
        {
          "indexed": false,
          "internalType": "bytes",
          "name": "_payload",
          "type": "bytes"
        },
        {
          "indexed": false,
          "internalType": "bytes",
          "name": "_reason",
          "type": "bytes"
        }
      ],
      "name": "MessageFailed",
      "type": "event"
    },
    {
      "anonymous": false,
      "inputs": [
        {
          "indexed": true,
          "internalType": "address",
          "name": "previousOwner",
          "type": "address"
        },
        {
          "indexed": true,
          "internalType": "address",
          "name": "newOwner",
          "type": "address"
        }
      ],
      "name": "OwnershipTransferred",
      "type": "event"
    },
    {
      "anonymous": false,
      "inputs": [
        {
          "indexed": true,
          "internalType": "uint16",
          "name": "_srcChainId",
          "type": "uint16"
        },
        {
          "indexed": true,
          "internalType": "address",
          "name": "_dstSingularity",
          "type": "address"
        },
        {
          "indexed": false,
          "internalType": "bytes",
          "name": "_sglPayload",
          "type": "bytes"
        }
      ],
      "name": "ReceiveFromChain",
      "type": "event"
    },
    {
      "anonymous": false,
      "inputs": [
        {
          "indexed": false,
          "internalType": "uint16",
          "name": "_srcChainId",
          "type": "uint16"
        },
        {
          "indexed": false,
          "internalType": "bytes",
          "name": "_srcAddress",
          "type": "bytes"
        },
        {
          "indexed": false,
          "internalType": "uint64",
          "name": "_nonce",
          "type": "uint64"
        },
        {
          "indexed": false,
          "internalType": "bytes32",
          "name": "_payloadHash",
          "type": "bytes32"
        }
      ],
      "name": "RetryMessageSuccess",
      "type": "event"
    },
    {
      "anonymous": false,
      "inputs": [
        {
          "indexed": true,
          "internalType": "uint16",
          "name": "_srcChainId",
          "type": "uint16"
        },
        {
          "indexed": true,
          "internalType": "address",
          "name": "_srcAddress",
          "type": "address"
        },
        {
          "indexed": false,
          "internalType": "bytes",
          "name": "_sglPayload",
          "type": "bytes"
        }
      ],
      "name": "SendToChain",
      "type": "event"
    },
    {
      "anonymous": false,
      "inputs": [
        {
          "indexed": false,
          "internalType": "uint16",
          "name": "_dstChainId",
          "type": "uint16"
        },
        {
          "indexed": false,
          "internalType": "uint16",
          "name": "_type",
          "type": "uint16"
        },
        {
          "indexed": false,
          "internalType": "uint256",
          "name": "_minDstGas",
          "type": "uint256"
        }
      ],
      "name": "SetMinDstGas",
      "type": "event"
    },
    {
      "anonymous": false,
      "inputs": [
        {
          "indexed": false,
          "internalType": "address",
          "name": "precrime",
          "type": "address"
        }
      ],
      "name": "SetPrecrime",
      "type": "event"
    },
    {
      "anonymous": false,
      "inputs": [
        {
          "indexed": false,
          "internalType": "uint16",
          "name": "_remoteChainId",
          "type": "uint16"
        },
        {
          "indexed": false,
          "internalType": "bytes",
          "name": "_path",
          "type": "bytes"
        }
      ],
      "name": "SetTrustedRemote",
      "type": "event"
    },
    {
      "anonymous": false,
      "inputs": [
        {
          "indexed": false,
          "internalType": "uint16",
          "name": "_remoteChainId",
          "type": "uint16"
        },
        {
          "indexed": false,
          "internalType": "bytes",
          "name": "_remoteAddress",
          "type": "bytes"
        }
      ],
      "name": "SetTrustedRemoteAddress",
      "type": "event"
    },
    {
      "anonymous": false,
      "inputs": [
        {
          "indexed": false,
          "internalType": "bool",
          "name": "_useCustomAdapterParams",
          "type": "bool"
        }
      ],
      "name": "SetUseCustomAdapterParams",
      "type": "event"
    },
    {
      "inputs": [],
      "name": "FUNCTION_TYPE_SEND",
      "outputs": [
        {
          "internalType": "uint256",
          "name": "",
          "type": "uint256"
        }
      ],
      "stateMutability": "view",
      "type": "function"
    },
    {
      "inputs": [],
      "name": "NO_EXTRA_GAS",
      "outputs": [
        {
          "internalType": "uint256",
          "name": "",
          "type": "uint256"
        }
      ],
      "stateMutability": "view",
      "type": "function"
    },
    {
      "inputs": [],
      "name": "enforceSameAddress",
      "outputs": [
        {
          "internalType": "bool",
          "name": "",
          "type": "bool"
        }
      ],
      "stateMutability": "view",
      "type": "function"
    },
    {
      "inputs": [
        {
          "internalType": "uint16",
          "name": "_dstChainId",
          "type": "uint16"
        },
        {
          "internalType": "bytes",
          "name": "_mixologistDstAddress",
          "type": "bytes"
        },
        {
          "internalType": "bytes[]",
          "name": "_sglCalls",
          "type": "bytes[]"
        },
        {
          "internalType": "bytes",
          "name": "_adapterParams",
          "type": "bytes"
        }
      ],
      "name": "executeOnChain",
      "outputs": [],
      "stateMutability": "payable",
      "type": "function"
    },
    {
      "inputs": [
        {
          "internalType": "uint16",
          "name": "",
          "type": "uint16"
        },
        {
          "internalType": "bytes",
          "name": "",
          "type": "bytes"
        },
        {
          "internalType": "uint64",
          "name": "",
          "type": "uint64"
        }
      ],
      "name": "failedMessages",
      "outputs": [
        {
          "internalType": "bytes32",
          "name": "",
          "type": "bytes32"
        }
      ],
      "stateMutability": "view",
      "type": "function"
    },
    {
      "inputs": [
        {
          "internalType": "uint16",
          "name": "_srcChainId",
          "type": "uint16"
        },
        {
          "internalType": "bytes",
          "name": "_srcAddress",
          "type": "bytes"
        }
      ],
      "name": "forceResumeReceive",
      "outputs": [],
      "stateMutability": "nonpayable",
      "type": "function"
    },
    {
      "inputs": [
        {
          "internalType": "uint16",
          "name": "_version",
          "type": "uint16"
        },
        {
          "internalType": "uint16",
          "name": "_chainId",
          "type": "uint16"
        },
        {
          "internalType": "address",
          "name": "",
          "type": "address"
        },
        {
          "internalType": "uint256",
          "name": "_configType",
          "type": "uint256"
        }
      ],
      "name": "getConfig",
      "outputs": [
        {
          "internalType": "bytes",
          "name": "",
          "type": "bytes"
        }
      ],
      "stateMutability": "view",
      "type": "function"
    },
    {
      "inputs": [
        {
          "internalType": "uint16",
          "name": "_remoteChainId",
          "type": "uint16"
        }
      ],
      "name": "getTrustedRemoteAddress",
      "outputs": [
        {
          "internalType": "bytes",
          "name": "",
          "type": "bytes"
        }
      ],
      "stateMutability": "view",
      "type": "function"
    },
    {
      "inputs": [
        {
          "internalType": "uint16",
          "name": "_srcChainId",
          "type": "uint16"
        },
        {
          "internalType": "bytes",
          "name": "_srcAddress",
          "type": "bytes"
        }
      ],
      "name": "isTrustedRemote",
      "outputs": [
        {
          "internalType": "bool",
          "name": "",
          "type": "bool"
        }
      ],
      "stateMutability": "view",
      "type": "function"
    },
    {
      "inputs": [],
      "name": "lzEndpoint",
      "outputs": [
        {
          "internalType": "contract ILayerZeroEndpoint",
          "name": "",
          "type": "address"
        }
      ],
      "stateMutability": "view",
      "type": "function"
    },
    {
      "inputs": [
        {
          "internalType": "uint16",
          "name": "_srcChainId",
          "type": "uint16"
        },
        {
          "internalType": "bytes",
          "name": "_srcAddress",
          "type": "bytes"
        },
        {
          "internalType": "uint64",
          "name": "_nonce",
          "type": "uint64"
        },
        {
          "internalType": "bytes",
          "name": "_payload",
          "type": "bytes"
        }
      ],
      "name": "lzReceive",
      "outputs": [],
      "stateMutability": "nonpayable",
      "type": "function"
    },
    {
      "inputs": [
        {
          "internalType": "uint16",
          "name": "",
          "type": "uint16"
        },
        {
          "internalType": "uint16",
          "name": "",
          "type": "uint16"
        }
      ],
      "name": "minDstGasLookup",
      "outputs": [
        {
          "internalType": "uint256",
          "name": "",
          "type": "uint256"
        }
      ],
      "stateMutability": "view",
      "type": "function"
    },
    {
      "inputs": [
        {
          "internalType": "uint16",
          "name": "_srcChainId",
          "type": "uint16"
        },
        {
          "internalType": "bytes",
          "name": "_srcAddress",
          "type": "bytes"
        },
        {
          "internalType": "uint64",
          "name": "_nonce",
          "type": "uint64"
        },
        {
          "internalType": "bytes",
          "name": "_payload",
          "type": "bytes"
        }
      ],
      "name": "nonblockingLzReceive",
      "outputs": [],
      "stateMutability": "nonpayable",
      "type": "function"
    },
    {
      "inputs": [],
      "name": "owner",
      "outputs": [
        {
          "internalType": "address",
          "name": "",
          "type": "address"
        }
      ],
      "stateMutability": "view",
      "type": "function"
    },
    {
      "inputs": [],
      "name": "precrime",
      "outputs": [
        {
          "internalType": "address",
          "name": "",
          "type": "address"
        }
      ],
      "stateMutability": "view",
      "type": "function"
    },
    {
      "inputs": [],
      "name": "renounceOwnership",
      "outputs": [],
      "stateMutability": "nonpayable",
      "type": "function"
    },
    {
      "inputs": [
        {
          "internalType": "uint16",
          "name": "_srcChainId",
          "type": "uint16"
        },
        {
          "internalType": "bytes",
          "name": "_srcAddress",
          "type": "bytes"
        },
        {
          "internalType": "uint64",
          "name": "_nonce",
          "type": "uint64"
        },
        {
          "internalType": "bytes",
          "name": "_payload",
          "type": "bytes"
        }
      ],
      "name": "retryMessage",
      "outputs": [],
      "stateMutability": "payable",
      "type": "function"
    },
    {
      "inputs": [
        {
          "internalType": "uint16",
          "name": "_version",
          "type": "uint16"
        },
        {
          "internalType": "uint16",
          "name": "_chainId",
          "type": "uint16"
        },
        {
          "internalType": "uint256",
          "name": "_configType",
          "type": "uint256"
        },
        {
          "internalType": "bytes",
          "name": "_config",
          "type": "bytes"
        }
      ],
      "name": "setConfig",
      "outputs": [],
      "stateMutability": "nonpayable",
      "type": "function"
    },
    {
      "inputs": [
        {
          "internalType": "bool",
          "name": "_val",
          "type": "bool"
        }
      ],
      "name": "setEnforceSameAddress",
      "outputs": [],
      "stateMutability": "nonpayable",
      "type": "function"
    },
    {
      "inputs": [
        {
          "internalType": "uint16",
          "name": "_dstChainId",
          "type": "uint16"
        },
        {
          "internalType": "uint16",
          "name": "_packetType",
          "type": "uint16"
        },
        {
          "internalType": "uint256",
          "name": "_minGas",
          "type": "uint256"
        }
      ],
      "name": "setMinDstGas",
      "outputs": [],
      "stateMutability": "nonpayable",
      "type": "function"
    },
    {
      "inputs": [
        {
          "internalType": "address",
          "name": "_precrime",
          "type": "address"
        }
      ],
      "name": "setPrecrime",
      "outputs": [],
      "stateMutability": "nonpayable",
      "type": "function"
    },
    {
      "inputs": [
        {
          "internalType": "uint16",
          "name": "_version",
          "type": "uint16"
        }
      ],
      "name": "setReceiveVersion",
      "outputs": [],
      "stateMutability": "nonpayable",
      "type": "function"
    },
    {
      "inputs": [
        {
          "internalType": "uint16",
          "name": "_version",
          "type": "uint16"
        }
      ],
      "name": "setSendVersion",
      "outputs": [],
      "stateMutability": "nonpayable",
      "type": "function"
    },
    {
      "inputs": [
        {
          "internalType": "uint16",
          "name": "_srcChainId",
          "type": "uint16"
        },
        {
          "internalType": "bytes",
          "name": "_path",
          "type": "bytes"
        }
      ],
      "name": "setTrustedRemote",
      "outputs": [],
      "stateMutability": "nonpayable",
      "type": "function"
    },
    {
      "inputs": [
        {
          "internalType": "uint16",
          "name": "_remoteChainId",
          "type": "uint16"
        },
        {
          "internalType": "bytes",
          "name": "_remoteAddress",
          "type": "bytes"
        }
      ],
      "name": "setTrustedRemoteAddress",
      "outputs": [],
      "stateMutability": "nonpayable",
      "type": "function"
    },
    {
      "inputs": [
        {
          "internalType": "bool",
          "name": "_useCustomAdapterParams",
          "type": "bool"
        }
      ],
      "name": "setUseCustomAdapterParams",
      "outputs": [],
      "stateMutability": "nonpayable",
      "type": "function"
    },
    {
      "inputs": [
        {
          "internalType": "address",
          "name": "",
          "type": "address"
        }
      ],
      "name": "singularities",
      "outputs": [
        {
          "internalType": "bool",
          "name": "",
          "type": "bool"
        }
      ],
      "stateMutability": "view",
      "type": "function"
    },
    {
      "inputs": [
        {
          "internalType": "address",
          "name": "newOwner",
          "type": "address"
        }
      ],
      "name": "transferOwnership",
      "outputs": [],
      "stateMutability": "nonpayable",
      "type": "function"
    },
    {
      "inputs": [
        {
          "internalType": "uint16",
          "name": "",
          "type": "uint16"
        }
      ],
      "name": "trustedRemoteLookup",
      "outputs": [
        {
          "internalType": "bytes",
          "name": "",
          "type": "bytes"
        }
      ],
      "stateMutability": "view",
      "type": "function"
    },
    {
      "inputs": [
        {
          "internalType": "address",
          "name": "_mixologist",
          "type": "address"
        },
        {
          "internalType": "bool",
          "name": "_status",
          "type": "bool"
        }
      ],
      "name": "updateSingularityStatus",
      "outputs": [],
      "stateMutability": "nonpayable",
      "type": "function"
    },
    {
      "inputs": [],
      "name": "useCustomAdapterParams",
      "outputs": [
        {
          "internalType": "bool",
          "name": "",
          "type": "bool"
        }
      ],
      "stateMutability": "view",
      "type": "function"
    }
  ],
  "transactionHash": "0x258785b6bcec7542de3d0eebe47e0063a49e59bcbf4106e5f40ff491ea14c790",
  "args": [
    "0x93f54D755A063cE7bB9e6Ac47Eccc8e33411d706",
    "0x40282d3Cf4890D9806BC1853e97a59C93D813653"
  ],
  "numDeployments": 1,
  "solcInputHash": "f1584bf828118577c55a8972c79a09f8",
  "bytecode": "0x60a06040523480156200001157600080fd5b5060405162002dbb38038062002dbb8339810160408190526200003491620000dd565b8180620000413362000070565b6001600160a01b031660805250620000598162000070565b50506005805461ff00191661010017905562000115565b600080546001600160a01b038381166001600160a01b0319831681178455604051919092169283917f8be0079c531659141344cd1fd0a4f28419497f9722a3daafe3b4186f6b6457e09190a35050565b80516001600160a01b0381168114620000d857600080fd5b919050565b60008060408385031215620000f157600080fd5b620000fc83620000c0565b91506200010c60208401620000c0565b90509250929050565b608051612c5262000169600039600081816104ca0152818161062c0152818161087b0152818161096b01528181610a8e01528181610dfb01528181610fe9015281816114740152611d2f0152612c526000f3fe6080604052600436106101d75760003560e01c8063950c8a7411610102578063cbed8b9c11610095578063eb8d72b711610064578063eb8d72b7146105af578063ed629c5c146105cf578063f2fde38b146105e9578063f5ecbdbc1461060957600080fd5b8063cbed8b9c1461053c578063d1deba1f1461055c578063df2a5b3b1461056f578063eab45d9c1461058f57600080fd5b8063af3fb21c116100d1578063af3fb21c146104a3578063b353aaa7146104b8578063baf3292d146104ec578063c0d4e3241461050c57600080fd5b8063950c8a74146104305780639f38369a146104505780639f980b8014610470578063a6c3d1651461048357600080fd5b80635b8c41e61161017a5780637533d788116101495780637533d788146103795780637f377aed146103a65780638cfd8f5c146103c65780638da5cb5b146103fe57600080fd5b80635b8c41e6146102d657806366ad5c8a146103255780636e9cbc8614610345578063715018a61461036457600080fd5b806310ddb137116101b657806310ddb1371461023e5780633d8b38f61461025e57806342d65a8d1461029357806344770515146102b357600080fd5b80621d3567146101dc57806307e0db17146101fe578063097847821461021e575b600080fd5b3480156101e857600080fd5b506101fc6101f7366004611e7b565b610629565b005b34801561020a57600080fd5b506101fc610219366004611f10565b61085a565b34801561022a57600080fd5b506101fc610239366004611f52565b6108e3565b34801561024a57600080fd5b506101fc610259366004611f10565b61094a565b34801561026a57600080fd5b5061027e610279366004611f89565b6109a2565b60405190151581526020015b60405180910390f35b34801561029f57600080fd5b506101fc6102ae366004611f89565b610a6f565b3480156102bf57600080fd5b506102c8600081565b60405190815260200161028a565b3480156102e257600080fd5b506102c86102f13660046120a0565b6004602090815260009384526040808520845180860184018051928152908401958401959095209452929052825290205481565b34801561033157600080fd5b506101fc610340366004611e7b565b610af5565b34801561035157600080fd5b5060055461027e90610100900460ff1681565b34801561037057600080fd5b506101fc610bd1565b34801561038557600080fd5b50610399610394366004611f10565b610be5565b60405161028a919061215b565b3480156103b257600080fd5b506101fc6103c136600461216e565b610c7f565b3480156103d257600080fd5b506102c86103e136600461218b565b600260209081526000928352604080842090915290825290205481565b34801561040a57600080fd5b506000546001600160a01b03165b6040516001600160a01b03909116815260200161028a565b34801561043c57600080fd5b50600354610418906001600160a01b031681565b34801561045c57600080fd5b5061039961046b366004611f10565b610ce8565b6101fc61047e3660046121dc565b610df7565b34801561048f57600080fd5b506101fc61049e366004611f89565b610ee4565b3480156104af57600080fd5b506102c8600181565b3480156104c457600080fd5b506104187f000000000000000000000000000000000000000000000000000000000000000081565b3480156104f857600080fd5b506101fc6105073660046122e8565b610f6d565b34801561051857600080fd5b5061027e6105273660046122e8565b60066020526000908152604090205460ff1681565b34801561054857600080fd5b506101fc610557366004612303565b610fca565b6101fc61056a366004611e7b565b61105f565b34801561057b57600080fd5b506101fc61058a366004612375565b611275565b34801561059b57600080fd5b506101fc6105aa36600461216e565b611327565b3480156105bb57600080fd5b506101fc6105ca366004611f89565b611370565b3480156105db57600080fd5b5060055461027e9060ff1681565b3480156105f557600080fd5b506101fc6106043660046122e8565b6113ca565b34801561061557600080fd5b506103996106243660046123b6565b611443565b337f00000000000000000000000000000000000000000000000000000000000000006001600160a01b0316146106a65760405162461bcd60e51b815260206004820152601e60248201527f4c7a4170703a20696e76616c696420656e64706f696e742063616c6c6572000060448201526064015b60405180910390fd5b61ffff8616600090815260016020526040812080546106c490612405565b80601f01602080910402602001604051908101604052809291908181526020018280546106f090612405565b801561073d5780601f106107125761010080835404028352916020019161073d565b820191906000526020600020905b81548152906001019060200180831161072057829003601f168201915b50505050509050805186869050148015610758575060008151115b8015610780575080516020820120604051610776908890889061243f565b6040518091039020145b6107db5760405162461bcd60e51b815260206004820152602660248201527f4c7a4170703a20696e76616c696420736f757263652073656e64696e6720636f6044820152651b9d1c9858dd60d21b606482015260840161069d565b6108518787878080601f01602080910402602001604051908101604052809392919081815260200183838082843760009201919091525050604080516020601f8a018190048102820181019092528881528a9350915088908890819084018382808284376000920191909152506114f492505050565b50505050505050565b61086261156d565b6040516307e0db1760e01b815261ffff821660048201527f00000000000000000000000000000000000000000000000000000000000000006001600160a01b0316906307e0db17906024015b600060405180830381600087803b1580156108c857600080fd5b505af11580156108dc573d6000803e3d6000fd5b5050505050565b6108eb61156d565b6001600160a01b038216600081815260066020908152604091829020805460ff191685151590811790915591519182527fd27d7d1acad2036ae6abd569d0fe50a81b4675a1d12a9b181018760f49476c24910160405180910390a25050565b61095261156d565b6040516310ddb13760e01b815261ffff821660048201527f00000000000000000000000000000000000000000000000000000000000000006001600160a01b0316906310ddb137906024016108ae565b61ffff8316600090815260016020526040812080548291906109c390612405565b80601f01602080910402602001604051908101604052809291908181526020018280546109ef90612405565b8015610a3c5780601f10610a1157610100808354040283529160200191610a3c565b820191906000526020600020905b815481529060010190602001808311610a1f57829003601f168201915b505050505090508383604051610a5392919061243f565b60405180910390208180519060200120149150505b9392505050565b610a7761156d565b6040516342d65a8d60e01b81526001600160a01b037f000000000000000000000000000000000000000000000000000000000000000016906342d65a8d90610ac790869086908690600401612478565b600060405180830381600087803b158015610ae157600080fd5b505af1158015610851573d6000803e3d6000fd5b333014610b535760405162461bcd60e51b815260206004820152602660248201527f4e6f6e626c6f636b696e674c7a4170703a2063616c6c6572206d7573742062656044820152650204c7a4170760d41b606482015260840161069d565b610bc98686868080601f01602080910402602001604051908101604052809392919081815260200183838082843760009201919091525050604080516020601f8901819004810282018101909252878152899350915087908790819084018382808284376000920191909152506115c792505050565b505050505050565b610bd961156d565b610be36000611782565b565b60016020526000908152604090208054610bfe90612405565b80601f0160208091040260200160405190810160405280929190818152602001828054610c2a90612405565b8015610c775780601f10610c4c57610100808354040283529160200191610c77565b820191906000526020600020905b815481529060010190602001808311610c5a57829003601f168201915b505050505081565b610c8761156d565b6005546040805161010090920460ff161515825282151560208301527f93cc0321a0bc88c6711b0c3cbbd280643823d12208bc958e2deafbbebc8f4ee2910160405180910390a1600580549115156101000261ff0019909216919091179055565b61ffff8116600090815260016020526040812080546060929190610d0b90612405565b80601f0160208091040260200160405190810160405280929190818152602001828054610d3790612405565b8015610d845780601f10610d5957610100808354040283529160200191610d84565b820191906000526020600020905b815481529060010190602001808311610d6757829003601f168201915b505050505090508051600003610ddc5760405162461bcd60e51b815260206004820152601d60248201527f4c7a4170703a206e6f20747275737465642070617468207265636f7264000000604482015260640161069d565b610a68600060148351610def91906124ac565b8391906117d2565b60007f00000000000000000000000000000000000000000000000000000000000000006001600160a01b0316633408e4706040518163ffffffff1660e01b8152600401602060405180830381865afa158015610e57573d6000803e3d6000fd5b505050506040513d601f19601f82011682018060405250810190610e7b91906124c3565b61ffff1690508461ffff168103610ed45760405162461bcd60e51b815260206004820152601960248201527f53474c50726f78793a20436861696e206e6f742076616c696400000000000000604482015260640161069d565b6108dc33868686336000886118df565b610eec61156d565b818130604051602001610f01939291906124e0565b60408051601f1981840301815291815261ffff8516600090815260016020522090610f2c9082612551565b507f8c0400cfe2d1199b1a725c78960bcc2a344d869b80590d0f2bd005db15a572ce838383604051610f6093929190612478565b60405180910390a1505050565b610f7561156d565b600380546001600160a01b0319166001600160a01b0383169081179091556040519081527f5db758e995a17ec1ad84bdef7e8c3293a0bd6179bcce400dff5d4c3d87db726b906020015b60405180910390a150565b610fd261156d565b6040516332fb62e760e21b81526001600160a01b037f0000000000000000000000000000000000000000000000000000000000000000169063cbed8b9c906110269088908890889088908890600401612610565b600060405180830381600087803b15801561104057600080fd5b505af1158015611054573d6000803e3d6000fd5b505050505050505050565b61ffff86166000908152600460205260408082209051611082908890889061243f565b90815260408051602092819003830190206001600160401b038716600090815292529020549050806111025760405162461bcd60e51b815260206004820152602360248201527f4e6f6e626c6f636b696e674c7a4170703a206e6f2073746f726564206d65737360448201526261676560e81b606482015260840161069d565b80838360405161111392919061243f565b6040518091039020146111725760405162461bcd60e51b815260206004820152602160248201527f4e6f6e626c6f636b696e674c7a4170703a20696e76616c6964207061796c6f616044820152601960fa1b606482015260840161069d565b61ffff87166000908152600460205260408082209051611195908990899061243f565b90815260408051602092819003830181206001600160401b038916600090815290845282902093909355601f8801829004820283018201905286825261122d918991899089908190840183828082843760009201919091525050604080516020601f8a018190048102820181019092528881528a9350915088908890819084018382808284376000920191909152506115c792505050565b7fc264d91f3adc5588250e1551f547752ca0cfa8f6b530d243b9f9f4cab10ea8e58787878785604051611264959493929190612649565b60405180910390a150505050505050565b61127d61156d565b600081116112c55760405162461bcd60e51b81526020600482015260156024820152744c7a4170703a20696e76616c6964206d696e47617360581b604482015260640161069d565b61ffff83811660008181526002602090815260408083209487168084529482529182902085905581519283528201929092529081018290527f9d5c7c0b934da8fefa9c7760c98383778a12dfbfc0c3b3106518f43fb9508ac090606001610f60565b61132f61156d565b6005805460ff19168215159081179091556040519081527f1584ad594a70cbe1e6515592e1272a987d922b097ead875069cebe8b40c004a490602001610fbf565b61137861156d565b61ffff83166000908152600160205260409020611396828483612684565b507ffa41487ad5d6728f0b19276fa1eddc16558578f5109fc39d2dc33c3230470dab838383604051610f6093929190612478565b6113d261156d565b6001600160a01b0381166114375760405162461bcd60e51b815260206004820152602660248201527f4f776e61626c653a206e6577206f776e657220697320746865207a65726f206160448201526564647265737360d01b606482015260840161069d565b61144081611782565b50565b604051633d7b2f6f60e21b815261ffff808616600483015284166024820152306044820152606481018290526060907f00000000000000000000000000000000000000000000000000000000000000006001600160a01b03169063f5ecbdbc90608401600060405180830381865afa1580156114c3573d6000803e3d6000fd5b505050506040513d6000823e601f3d908101601f191682016040526114eb9190810190612793565b95945050505050565b6000806115575a60966366ad5c8a60e01b8989898960405160240161151c94939291906127cf565b60408051601f198184030181529190526020810180516001600160e01b03166001600160e01b03199093169290921790915230929190611a0b565b9150915081610bc957610bc98686868685611a95565b6000546001600160a01b03163314610be35760405162461bcd60e51b815260206004820181905260248201527f4f776e61626c653a2063616c6c6572206973206e6f7420746865206f776e6572604482015260640161069d565b6000806000838060200190518101906115e0919061280d565b6014830151600554939650919450925090610100900460ff161561164c576001600160a01b038116301461164c5760405162461bcd60e51b815260206004820152601360248201527253474c50726f78793a206e6f742070726f787960681b604482015260640161069d565b60148301516001600160a01b03811660009081526006602052604090205460ff166116b95760405162461bcd60e51b815260206004820152601d60248201527f53474c50726f78793a20496e76616c69642053696e67756c6172697479000000604482015260640161069d565b60405163aa7d966560e01b81526001600160a01b0382169063aa7d9665906116e8908690600190600401612959565b6000604051808303816000875af1158015611707573d6000803e3d6000fd5b505050506040513d6000823e601f3d908101601f1916820160405261172f9190810190612a1c565b5050806001600160a01b03168961ffff167fe56f9bcb2a90b3dc97f0814c287246469fc5c7050a6022ad21b2fe9058129c818860405161176f919061215b565b60405180910390a3505050505050505050565b600080546001600160a01b038381166001600160a01b0319831681178455604051919092169283917f8be0079c531659141344cd1fd0a4f28419497f9722a3daafe3b4186f6b6457e09190a35050565b6060816117e081601f612ae0565b101561181f5760405162461bcd60e51b815260206004820152600e60248201526d736c6963655f6f766572666c6f7760901b604482015260640161069d565b6118298284612ae0565b8451101561186d5760405162461bcd60e51b8152602060048201526011602482015270736c6963655f6f75744f66426f756e647360781b604482015260640161069d565b60608215801561188c57604051915060008252602082016040526118d6565b6040519150601f8416801560200281840101858101878315602002848b0101015b818310156118c55780518352602092830192016118ad565b5050858452601f01601f1916604052505b50949350505050565b6040516bffffffffffffffffffffffff193060601b16602082015260009060340160408051601f19818403018152908290526119219188908890602001612af8565b60408051601f1981840301815291905260055490915060ff16156119525761194d876001846000611b32565b6119ad565b8151156119ad5760405162461bcd60e51b8152602060048201526024808201527f4c7a4170703a205f61646170746572506172616d73206d75737420626520656d604482015263383a3c9760e11b606482015260840161069d565b6119bb878286868634611c11565b876001600160a01b03168761ffff167fd3b01b57b25c5a506ceef68a2e5ce63cf91fe09d5270a8bb49839a64d5b1b1f7836040516119f9919061215b565b60405180910390a35050505050505050565b6000606060008060008661ffff166001600160401b03811115611a3057611a30611fdd565b6040519080825280601f01601f191660200182016040528015611a5a576020820181803683370190505b50905060008087516020890160008d8df191503d925086831115611a7c578692505b828152826000602083013e909890975095505050505050565b8180519060200120600460008761ffff1661ffff16815260200190815260200160002085604051611ac69190612b3b565b9081526040805191829003602090810183206001600160401b0388166000908152915220919091557fe183f33de2837795525b4792ca4cd60535bd77c53b7e7030060bfcf5734d6b0c90611b239087908790879087908790612b57565b60405180910390a15050505050565b6000611b3d83611dab565b61ffff808716600090815260026020908152604080832093891683529290529081205491925090611b6f908490612ae0565b905060008111611bc15760405162461bcd60e51b815260206004820152601a60248201527f4c7a4170703a206d696e4761734c696d6974206e6f7420736574000000000000604482015260640161069d565b80821015610bc95760405162461bcd60e51b815260206004820152601b60248201527f4c7a4170703a20676173206c696d697420697320746f6f206c6f770000000000604482015260640161069d565b61ffff861660009081526001602052604081208054611c2f90612405565b80601f0160208091040260200160405190810160405280929190818152602001828054611c5b90612405565b8015611ca85780601f10611c7d57610100808354040283529160200191611ca8565b820191906000526020600020905b815481529060010190602001808311611c8b57829003601f168201915b505050505090508051600003611d195760405162461bcd60e51b815260206004820152603060248201527f4c7a4170703a2064657374696e6174696f6e20636861696e206973206e6f742060448201526f61207472757374656420736f7572636560801b606482015260840161069d565b60405162c5803160e81b81526001600160a01b037f0000000000000000000000000000000000000000000000000000000000000000169063c5803100908490611d70908b9086908c908c908c908c90600401612bb5565b6000604051808303818588803b158015611d8957600080fd5b505af1158015611d9d573d6000803e3d6000fd5b505050505050505050505050565b6000602282511015611dff5760405162461bcd60e51b815260206004820152601c60248201527f4c7a4170703a20696e76616c69642061646170746572506172616d7300000000604482015260640161069d565b506022015190565b61ffff8116811461144057600080fd5b60008083601f840112611e2957600080fd5b5081356001600160401b03811115611e4057600080fd5b602083019150836020828501011115611e5857600080fd5b9250929050565b80356001600160401b0381168114611e7657600080fd5b919050565b60008060008060008060808789031215611e9457600080fd5b8635611e9f81611e07565b955060208701356001600160401b0380821115611ebb57600080fd5b611ec78a838b01611e17565b9097509550859150611edb60408a01611e5f565b94506060890135915080821115611ef157600080fd5b50611efe89828a01611e17565b979a9699509497509295939492505050565b600060208284031215611f2257600080fd5b8135610a6881611e07565b80356001600160a01b0381168114611e7657600080fd5b801515811461144057600080fd5b60008060408385031215611f6557600080fd5b611f6e83611f2d565b91506020830135611f7e81611f44565b809150509250929050565b600080600060408486031215611f9e57600080fd5b8335611fa981611e07565b925060208401356001600160401b03811115611fc457600080fd5b611fd086828701611e17565b9497909650939450505050565b634e487b7160e01b600052604160045260246000fd5b604051601f8201601f191681016001600160401b038111828210171561201b5761201b611fdd565b604052919050565b60006001600160401b0382111561203c5761203c611fdd565b50601f01601f191660200190565b600082601f83011261205b57600080fd5b813561206e61206982612023565b611ff3565b81815284602083860101111561208357600080fd5b816020850160208301376000918101602001919091529392505050565b6000806000606084860312156120b557600080fd5b83356120c081611e07565b925060208401356001600160401b038111156120db57600080fd5b6120e78682870161204a565b9250506120f660408501611e5f565b90509250925092565b60005b8381101561211a578181015183820152602001612102565b83811115612129576000848401525b50505050565b600081518084526121478160208601602086016120ff565b601f01601f19169290920160200192915050565b602081526000610a68602083018461212f565b60006020828403121561218057600080fd5b8135610a6881611f44565b6000806040838503121561219e57600080fd5b82356121a981611e07565b91506020830135611f7e81611e07565b60006001600160401b038211156121d2576121d2611fdd565b5060051b60200190565b600080600080608085870312156121f257600080fd5b84356121fd81611e07565b93506020858101356001600160401b038082111561221a57600080fd5b61222689838a0161204a565b9550604088013591508082111561223c57600080fd5b818801915088601f83011261225057600080fd5b813561225e612069826121b9565b81815260059190911b8301840190848101908b83111561227d57600080fd5b8585015b838110156122b5578035858111156122995760008081fd5b6122a78e89838a010161204a565b845250918601918601612281565b509650505060608801359250808311156122ce57600080fd5b50506122dc8782880161204a565b91505092959194509250565b6000602082840312156122fa57600080fd5b610a6882611f2d565b60008060008060006080868803121561231b57600080fd5b853561232681611e07565b9450602086013561233681611e07565b93506040860135925060608601356001600160401b0381111561235857600080fd5b61236488828901611e17565b969995985093965092949392505050565b60008060006060848603121561238a57600080fd5b833561239581611e07565b925060208401356123a581611e07565b929592945050506040919091013590565b600080600080608085870312156123cc57600080fd5b84356123d781611e07565b935060208501356123e781611e07565b92506123f560408601611f2d565b9396929550929360600135925050565b600181811c9082168061241957607f821691505b60208210810361243957634e487b7160e01b600052602260045260246000fd5b50919050565b8183823760009101908152919050565b81835281816020850137506000828201602090810191909152601f909101601f19169091010190565b61ffff841681526040602082015260006114eb60408301848661244f565b634e487b7160e01b600052601160045260246000fd5b6000828210156124be576124be612496565b500390565b6000602082840312156124d557600080fd5b8151610a6881611e07565b8284823760609190911b6bffffffffffffffffffffffff19169101908152601401919050565b601f82111561254c57600081815260208120601f850160051c8101602086101561252d5750805b601f850160051c820191505b81811015610bc957828155600101612539565b505050565b81516001600160401b0381111561256a5761256a611fdd565b61257e816125788454612405565b84612506565b602080601f8311600181146125b3576000841561259b5750858301515b600019600386901b1c1916600185901b178555610bc9565b600085815260208120601f198616915b828110156125e2578886015182559484019460019091019084016125c3565b50858210156126005787850151600019600388901b60f8161c191681555b5050505050600190811b01905550565b600061ffff80881683528087166020840152508460408301526080606083015261263e60808301848661244f565b979650505050505050565b61ffff8616815260806020820152600061266760808301868861244f565b6001600160401b0394909416604083015250606001529392505050565b6001600160401b0383111561269b5761269b611fdd565b6126af836126a98354612405565b83612506565b6000601f8411600181146126e357600085156126cb5750838201355b600019600387901b1c1916600186901b1783556108dc565b600083815260209020601f19861690835b8281101561271457868501358255602094850194600190920191016126f4565b50868210156127315760001960f88860031b161c19848701351681555b505060018560011b0183555050505050565b600061275161206984612023565b905082815283838301111561276557600080fd5b610a688360208301846120ff565b600082601f83011261278457600080fd5b610a6883835160208501612743565b6000602082840312156127a557600080fd5b81516001600160401b038111156127bb57600080fd5b6127c784828501612773565b949350505050565b61ffff851681526080602082015260006127ec608083018661212f565b6001600160401b0385166040840152828103606084015261263e818561212f565b60008060006060848603121561282257600080fd5b83516001600160401b038082111561283957600080fd5b61284587838801612773565b945060209150818601518181111561285c57600080fd5b61286888828901612773565b94505060408601518181111561287d57600080fd5b8601601f8101881361288e57600080fd5b805161289c612069826121b9565b81815260059190911b8201840190848101908a8311156128bb57600080fd5b8584015b838110156128f3578051868111156128d75760008081fd5b6128e58d8983890101612773565b8452509186019186016128bf565b508096505050505050509250925092565b600081518084526020808501808196508360051b8101915082860160005b8581101561294c57828403895261293a84835161212f565b98850198935090840190600101612922565b5091979650505050505050565b60408152600061296c6040830185612904565b905082151560208301529392505050565b600082601f83011261298e57600080fd5b8151602061299e612069836121b9565b82815260059290921b840181019181810190868411156129bd57600080fd5b8286015b84811015612a115780516001600160401b038111156129e05760008081fd5b8701603f810189136129f25760008081fd5b612a03898683015160408401612743565b8452509183019183016129c1565b509695505050505050565b60008060408385031215612a2f57600080fd5b82516001600160401b0380821115612a4657600080fd5b818501915085601f830112612a5a57600080fd5b81516020612a6a612069836121b9565b82815260059290921b84018101918181019089841115612a8957600080fd5b948201945b83861015612ab0578551612aa181611f44565b82529482019490820190612a8e565b91880151919650909350505080821115612ac957600080fd5b50612ad68582860161297d565b9150509250929050565b60008219821115612af357612af3612496565b500190565b606081526000612b0b606083018661212f565b8281036020840152612b1d818661212f565b90508281036040840152612b318185612904565b9695505050505050565b60008251612b4d8184602087016120ff565b9190910192915050565b61ffff8616815260a060208201526000612b7460a083018761212f565b6001600160401b03861660408401528281036060840152612b95818661212f565b90508281036080840152612ba9818561212f565b98975050505050505050565b61ffff8716815260c060208201526000612bd260c083018861212f565b8281036040840152612be4818861212f565b6001600160a01b0387811660608601528616608085015283810360a08501529050612c0f818561212f565b999850505050505050505056fea264697066735822122028f65928572f5fe3c670c82f620c0b25f12cf5388a288efab33e3860d40c956f64736f6c634300080f0033",
  "devdoc": {
    "kind": "dev",
    "methods": {
      "constructor": {
        "params": {
          "_lzEndpoint": "LayerZero endpoint address",
          "_owner": "contract's owner address"
        }
      },
      "executeOnChain(uint16,bytes,bytes[],bytes)": {
        "params": {
          "_adapterParams": "custom adapters",
          "_dstChainId": "te LayerZero destination chain id",
          "_mixologistDstAddress": "destination Singularity address",
          "_sglCalls": "Singularity calls"
        }
      },
      "owner()": {
        "details": "Returns the address of the current owner."
      },
      "renounceOwnership()": {
        "details": "Leaves the contract without owner. It will not be possible to call `onlyOwner` functions anymore. Can only be called by the current owner. NOTE: Renouncing ownership will leave the contract without an owner, thereby removing any functionality that is only available to the owner."
      },
      "setEnforceSameAddress(bool)": {
        "params": {
          "_val": "true/false"
        }
      },
      "setUseCustomAdapterParams(bool)": {
        "params": {
          "_useCustomAdapterParams": "true/false"
        }
      },
      "transferOwnership(address)": {
        "details": "Transfers ownership of the contract to a new account (`newOwner`). Can only be called by the current owner."
      },
      "updateSingularityStatus(address,bool)": {
        "details": "callable by owner",
        "params": {
          "_mixologist": "the Singularity address",
          "_status": "whitelisted/not"
        }
      }
    },
    "title": "Omnichain proxy for Singularity",
    "version": 1
  },
  "userdoc": {
    "kind": "user",
    "methods": {
      "constructor": {
        "notice": "creates a new SGLProxy contract"
      },
      "executeOnChain(uint16,bytes,bytes[],bytes)": {
        "notice": "execute Singularity methods on another chain"
      },
      "setEnforceSameAddress(bool)": {
        "notice": "enforces CREATE2 proxies"
      },
      "setUseCustomAdapterParams(bool)": {
        "notice": "set custom adapter usage status"
      },
      "updateSingularityStatus(address,bool)": {
        "notice": "set whitelist status for Singularity"
      }
    },
    "version": 1
  },
  "storageLayout": {
    "storage": [
      {
        "astId": 2198,
        "contract": "contracts/singularity/SGLProxy.sol:SGLProxy",
        "label": "_owner",
        "offset": 0,
        "slot": "0",
        "type": "t_address"
      },
      {
        "astId": 21631,
        "contract": "contracts/singularity/SGLProxy.sol:SGLProxy",
        "label": "trustedRemoteLookup",
        "offset": 0,
        "slot": "1",
        "type": "t_mapping(t_uint16,t_bytes_storage)"
      },
      {
        "astId": 21637,
        "contract": "contracts/singularity/SGLProxy.sol:SGLProxy",
        "label": "minDstGasLookup",
        "offset": 0,
        "slot": "2",
        "type": "t_mapping(t_uint16,t_mapping(t_uint16,t_uint256))"
      },
      {
        "astId": 21639,
        "contract": "contracts/singularity/SGLProxy.sol:SGLProxy",
        "label": "precrime",
        "offset": 0,
        "slot": "3",
        "type": "t_address"
      },
      {
        "astId": 22124,
        "contract": "contracts/singularity/SGLProxy.sol:SGLProxy",
        "label": "failedMessages",
        "offset": 0,
        "slot": "4",
        "type": "t_mapping(t_uint16,t_mapping(t_bytes_memory_ptr,t_mapping(t_uint64,t_bytes32)))"
      },
      {
        "astId": 7528,
        "contract": "contracts/singularity/SGLProxy.sol:SGLProxy",
        "label": "useCustomAdapterParams",
        "offset": 0,
        "slot": "5",
        "type": "t_bool"
      },
      {
        "astId": 7530,
        "contract": "contracts/singularity/SGLProxy.sol:SGLProxy",
        "label": "enforceSameAddress",
        "offset": 1,
        "slot": "5",
        "type": "t_bool"
      },
      {
        "astId": 7534,
        "contract": "contracts/singularity/SGLProxy.sol:SGLProxy",
        "label": "singularities",
        "offset": 0,
        "slot": "6",
        "type": "t_mapping(t_address,t_bool)"
      }
    ],
    "types": {
      "t_address": {
        "encoding": "inplace",
        "label": "address",
        "numberOfBytes": "20"
      },
      "t_bool": {
        "encoding": "inplace",
        "label": "bool",
        "numberOfBytes": "1"
      },
      "t_bytes32": {
        "encoding": "inplace",
        "label": "bytes32",
        "numberOfBytes": "32"
      },
      "t_bytes_memory_ptr": {
        "encoding": "bytes",
        "label": "bytes",
        "numberOfBytes": "32"
      },
      "t_bytes_storage": {
        "encoding": "bytes",
        "label": "bytes",
        "numberOfBytes": "32"
      },
      "t_mapping(t_address,t_bool)": {
        "encoding": "mapping",
        "key": "t_address",
        "label": "mapping(address => bool)",
        "numberOfBytes": "32",
        "value": "t_bool"
      },
      "t_mapping(t_bytes_memory_ptr,t_mapping(t_uint64,t_bytes32))": {
        "encoding": "mapping",
        "key": "t_bytes_memory_ptr",
        "label": "mapping(bytes => mapping(uint64 => bytes32))",
        "numberOfBytes": "32",
        "value": "t_mapping(t_uint64,t_bytes32)"
      },
      "t_mapping(t_uint16,t_bytes_storage)": {
        "encoding": "mapping",
        "key": "t_uint16",
        "label": "mapping(uint16 => bytes)",
        "numberOfBytes": "32",
        "value": "t_bytes_storage"
      },
      "t_mapping(t_uint16,t_mapping(t_bytes_memory_ptr,t_mapping(t_uint64,t_bytes32)))": {
        "encoding": "mapping",
        "key": "t_uint16",
        "label": "mapping(uint16 => mapping(bytes => mapping(uint64 => bytes32)))",
        "numberOfBytes": "32",
        "value": "t_mapping(t_bytes_memory_ptr,t_mapping(t_uint64,t_bytes32))"
      },
      "t_mapping(t_uint16,t_mapping(t_uint16,t_uint256))": {
        "encoding": "mapping",
        "key": "t_uint16",
        "label": "mapping(uint16 => mapping(uint16 => uint256))",
        "numberOfBytes": "32",
        "value": "t_mapping(t_uint16,t_uint256)"
      },
      "t_mapping(t_uint16,t_uint256)": {
        "encoding": "mapping",
        "key": "t_uint16",
        "label": "mapping(uint16 => uint256)",
        "numberOfBytes": "32",
        "value": "t_uint256"
      },
      "t_mapping(t_uint64,t_bytes32)": {
        "encoding": "mapping",
        "key": "t_uint64",
        "label": "mapping(uint64 => bytes32)",
        "numberOfBytes": "32",
        "value": "t_bytes32"
      },
      "t_uint16": {
        "encoding": "inplace",
        "label": "uint16",
        "numberOfBytes": "2"
      },
      "t_uint256": {
        "encoding": "inplace",
        "label": "uint256",
        "numberOfBytes": "32"
      },
      "t_uint64": {
        "encoding": "inplace",
        "label": "uint64",
        "numberOfBytes": "8"
      }
    }
  }
}