{
  "address": "0x63aC63063dE8255E92f9a9f8E81254104Ec20785",
  "abi": [
    {
      "inputs": [
        {
          "components": [
            {
              "internalType": "enum TokenType",
              "name": "tokenType",
              "type": "uint8"
            },
            {
              "internalType": "address",
              "name": "contractAddress",
              "type": "address"
            },
            {
              "internalType": "contract IStrategy",
              "name": "strategy",
              "type": "address"
            },
            {
              "internalType": "uint256",
              "name": "tokenId",
              "type": "uint256"
            }
          ],
          "internalType": "struct Asset",
          "name": "asset",
          "type": "tuple"
        },
        {
          "internalType": "uint8",
          "name": "nativeDecimals",
          "type": "uint8"
        }
      ],
      "name": "decimals",
      "outputs": [
        {
          "internalType": "uint8",
          "name": "",
          "type": "uint8"
        }
      ],
      "stateMutability": "view",
      "type": "function"
    },
    {
      "inputs": [
        {
          "components": [
            {
              "internalType": "enum TokenType",
              "name": "tokenType",
              "type": "uint8"
            },
            {
              "internalType": "address",
              "name": "contractAddress",
              "type": "address"
            },
            {
              "internalType": "contract IStrategy",
              "name": "strategy",
              "type": "address"
            },
            {
              "internalType": "uint256",
              "name": "tokenId",
              "type": "uint256"
            }
          ],
          "internalType": "struct Asset",
          "name": "asset",
          "type": "tuple"
        },
        {
          "internalType": "string",
          "name": "nativeName",
          "type": "string"
        }
      ],
      "name": "name",
      "outputs": [
        {
          "internalType": "string",
          "name": "",
          "type": "string"
        }
      ],
      "stateMutability": "view",
      "type": "function"
    },
    {
      "inputs": [
        {
          "components": [
            {
              "internalType": "enum TokenType",
              "name": "tokenType",
              "type": "uint8"
            },
            {
              "internalType": "address",
              "name": "contractAddress",
              "type": "address"
            },
            {
              "internalType": "contract IStrategy",
              "name": "strategy",
              "type": "address"
            },
            {
              "internalType": "uint256",
              "name": "tokenId",
              "type": "uint256"
            }
          ],
          "internalType": "struct Asset",
          "name": "asset",
          "type": "tuple"
        },
        {
          "internalType": "string",
          "name": "nativeSymbol",
          "type": "string"
        }
      ],
      "name": "symbol",
      "outputs": [
        {
          "internalType": "string",
          "name": "",
          "type": "string"
        }
      ],
      "stateMutability": "view",
      "type": "function"
    },
    {
      "inputs": [
        {
          "components": [
            {
              "internalType": "enum TokenType",
              "name": "tokenType",
              "type": "uint8"
            },
            {
              "internalType": "address",
              "name": "contractAddress",
              "type": "address"
            },
            {
              "internalType": "contract IStrategy",
              "name": "strategy",
              "type": "address"
            },
            {
              "internalType": "uint256",
              "name": "tokenId",
              "type": "uint256"
            }
          ],
          "internalType": "struct Asset",
          "name": "asset",
          "type": "tuple"
        },
        {
          "components": [
            {
              "internalType": "string",
              "name": "name",
              "type": "string"
            },
            {
              "internalType": "string",
              "name": "symbol",
              "type": "string"
            },
            {
              "internalType": "uint8",
              "name": "decimals",
              "type": "uint8"
            },
            {
              "internalType": "string",
              "name": "uri",
              "type": "string"
            }
          ],
          "internalType": "struct NativeToken",
          "name": "nativeToken",
          "type": "tuple"
        },
        {
          "internalType": "uint256",
          "name": "totalSupply",
          "type": "uint256"
        },
        {
          "internalType": "address",
          "name": "owner",
          "type": "address"
        }
      ],
      "name": "uri",
      "outputs": [
        {
          "internalType": "string",
          "name": "",
          "type": "string"
        }
      ],
      "stateMutability": "view",
      "type": "function"
    }
  ],
  "transactionHash": "0x0175e9e4502b4ffb41c7927e135ad7d0db62d5065408e14ee05331b06cc39fa0",
  "args": [],
  "numDeployments": 1,
  "solcInputHash": "45bcf35b4fb3bca7169fc66314197a4a",
  "bytecode": "0x608060405234801561001057600080fd5b50611a89806100206000396000f3fe608060405234801561001057600080fd5b506004361061004c5760003560e01c80635c6d8435146100515780636d7cd0371461007a57806384b1017d1461009f578063aa1163b9146100b2575b600080fd5b61006461005f36600461121b565b6100c5565b60405161007191906112b6565b60405180910390f35b61008d6100883660046112f8565b6105a6565b60405160ff9091168152602001610071565b6100646100ad366004611330565b610633565b6100646100c0366004611330565b6108fb565b60606100f26040518060800160405280606081526020016060815260200160608152602001600081525090565b600361010160208801886113ca565b6004811115610112576101126113b4565b14156101bc5760408051808201825260078152664552433131353560c81b60208083019190915290835261016091601491610151918a01908a016113eb565b6001600160a01b031690610aa6565b61016d8760600135610c46565b60405160200161017e929190611424565b60408051601f198184030181529181526020838101929092528051808201825260078152664552433131353560c81b92810192909252820152610335565b60016101cb60208801886113ca565b60048111156101dc576101dc6113b4565b141561026d5760006101f460408801602089016113eb565b6040805160c0810190915260056080820190815264045524332360dc1b60a08301528152909150602081016102316001600160a01b038416610d4c565b8152602001610248836001600160a01b0316610e07565b815260200161025f836001600160a01b0316610e4e565b60ff16815250915050610335565b6040805180820190915260068152654e617469766560d01b602082015281526102968580611474565b8080601f0160208091040260200160405190810160405280939291908181526020018383808284376000920191909152505050506020808301919091526102df90860186611474565b8080601f01602080910402602001604051908101604052809392919081815260200183838082843760009201919091525050505060408083019190915261032c90606087019087016114c2565b60ff1660608201525b60008061034560208901896113ca565b6004811115610356576103566113b4565b14156103da5761036585610c46565b6001600160a01b03851615610397576040518060400160405280600581526020016466616c736560d81b8152506103b5565b604051806040016040528060048152602001637472756560e01b8152505b6040516020016103c69291906114df565b60405160208183030381529060405261040f565b6103ef601461015160408a0160208b016113eb565b6040516020016103ff9190611545565b6040516020818303038152906040525b6020830151604084015191925061057b91600361042f60208c018c6113ca565b6004811115610440576104406113b4565b1461046f576040518060400160405280600c81526020016b16113232b1b4b6b0b639911d60a11b815250610480565b604051806020016040528060008152505b600361048f60208d018d6113ca565b60048111156104a0576104a06113b4565b146104b7576104b28660600151610c46565b6104c8565b604051806020016040528060008152505b6104e060148d604001602081019061015191906113eb565b87518760038f60000160208101906104f891906113ca565b6004811115610509576105096113b4565b146105235760405180602001604052806000815250610550565b6105308f60600135610c46565b604051602001610540919061158a565b6040516020818303038152906040525b6040516020016105679897969594939291906115be565b604051602081830303815290604052610f06565b60405160200161058b91906116f5565b60405160208183030381529060405292505050949350505050565b600060036105b760208501856113ca565b60048111156105c8576105c86113b4565b14156105d65750600061062d565b60016105e560208501856113ca565b60048111156105f6576105f66113b4565b141561062a57600061060e60408501602086016113eb565b9050610622816001600160a01b0316610e4e565b91505061062d565b50805b92915050565b60606000610646858301604087016113eb565b6001600160a01b031614156106945782828080601f0160208091040260200160405190810160405280939291908181526020018383808284376000920191909152509293506108f492505050565b60016106a360208601866113ca565b60048111156106b4576106b46113b4565b141561078c5760006106cc60408601602087016113eb565b90506106e0816001600160a01b0316610e07565b6106f060608701604088016113eb565b6001600160a01b03166306fdde036040518163ffffffff1660e01b815260040160006040518083038186803b15801561072857600080fd5b505afa15801561073c573d6000803e3d6000fd5b505050506040513d6000823e601f3d908101601f191682016040526107649190810190611750565b6040516020016107759291906117fd565b6040516020818303038152906040529150506108f4565b600361079b60208601866113ca565b60048111156107ac576107ac6113b4565b141561085c576107c260608501604086016113eb565b6001600160a01b03166306fdde036040518163ffffffff1660e01b815260040160006040518083038186803b1580156107fa57600080fd5b505afa15801561080e573d6000803e3d6000fd5b505050506040513d6000823e601f3d908101601f191682016040526108369190810190611750565b6040516020016108469190611848565b60405160208183030381529060405290506108f4565b828261086e60608701604088016113eb565b6001600160a01b03166306fdde036040518163ffffffff1660e01b815260040160006040518083038186803b1580156108a657600080fd5b505afa1580156108ba573d6000803e3d6000fd5b505050506040513d6000823e601f3d908101601f191682016040526108e29190810190611750565b6040516020016108469392919061188d565b9392505050565b6060600061090e858301604087016113eb565b6001600160a01b0316141561095c5782828080601f0160208091040260200160405190810160405280939291908181526020018383808284376000920191909152509293506108f492505050565b600161096b60208601866113ca565b600481111561097c5761097c6113b4565b14156109a857600061099460408601602087016113eb565b90506106e0816001600160a01b0316610d4c565b60036109b760208601866113ca565b60048111156109c8576109c86113b4565b141561085c576109e3601461015160408701602088016113eb565b6109f08560600135610c46565b604051602001610a01929190611424565b60408051601f19818403018152918152610a2190606087019087016113eb565b6001600160a01b03166306fdde036040518163ffffffff1660e01b815260040160006040518083038186803b158015610a5957600080fd5b505afa158015610a6d573d6000803e3d6000fd5b505050506040513d6000823e601f3d908101601f19168201604052610a959190810190611750565b6040516020016108469291906117fd565b60606000610ab58360026118e6565b610ac0906002611905565b67ffffffffffffffff811115610ad857610ad861173a565b6040519080825280601f01601f191660200182016040528015610b02576020820181803683370190505b509050600360fc1b81600081518110610b1d57610b1d61191d565b60200101906001600160f81b031916908160001a905350600f60fb1b81600181518110610b4c57610b4c61191d565b60200101906001600160f81b031916908160001a9053506000610b708460026118e6565b610b7b906001611905565b90505b6001811115610bf3576f181899199a1a9b1b9c1cb0b131b232b360811b85600f1660108110610baf57610baf61191d565b1a60f81b828281518110610bc557610bc561191d565b60200101906001600160f81b031916908160001a90535060049490941c93610bec81611933565b9050610b7e565b5083156108f45760405162461bcd60e51b815260206004820181905260248201527f537472696e67733a20686578206c656e67746820696e73756666696369656e74604482015260640160405180910390fd5b606081610c6a5750506040805180820190915260018152600360fc1b602082015290565b8160005b8115610c945780610c7e8161194a565b9150610c8d9050600a8361197b565b9150610c6e565b60008167ffffffffffffffff811115610caf57610caf61173a565b6040519080825280601f01601f191660200182016040528015610cd9576020820181803683370190505b5090505b8415610d4457610cee60018361198f565b9150610cfb600a866119a6565b610d06906030611905565b60f81b818381518110610d1b57610d1b61191d565b60200101906001600160f81b031916908160001a905350610d3d600a8661197b565b9450610cdd565b949350505050565b60408051600481526024810182526020810180516001600160e01b03166306fdde0360e01b179052905160609160009182916001600160a01b03861691610d9391906119ba565b600060405180830381855afa9150503d8060008114610dce576040519150601f19603f3d011682016040523d82523d6000602084013e610dd3565b606091505b509150915081610dfe57604051806040016040528060038152602001623f3f3f60e81b815250610d44565b610d448161106c565b60408051600481526024810182526020810180516001600160e01b03166395d89b4160e01b179052905160609160009182916001600160a01b03861691610d9391906119ba565b60408051600481526024810182526020810180516001600160e01b031663313ce56760e01b1790529051600091829182916001600160a01b03861691610e9491906119ba565b600060405180830381855afa9150503d8060008114610ecf576040519150601f19603f3d011682016040523d82523d6000602084013e610ed4565b606091505b5091509150818015610ee7575080516020145b610ef2576012610d44565b80806020019051810190610d4491906119d6565b6060815160001415610f2657505060408051602081019091526000815290565b6000604051806060016040528060408152602001611a146040913990506000600384516002610f559190611905565b610f5f919061197b565b610f6a9060046118e6565b90506000610f79826020611905565b67ffffffffffffffff811115610f9157610f9161173a565b6040519080825280601f01601f191660200182016040528015610fbb576020820181803683370190505b509050818152600183018586518101602084015b81831015611027576003830192508251603f8160121c168501518253600182019150603f81600c1c168501518253600182019150603f8160061c168501518253600182019150603f8116850151825350600101610fcf565b60038951066001811461104157600281146110525761105e565b613d3d60f01b60011983015261105e565b603d60f81b6000198301525b509398975050505050505050565b6060604082511061108b578180602001905181019061062d9190611750565b8151602014156111cc5760005b60208160ff161080156110cd5750828160ff16815181106110bb576110bb61191d565b01602001516001600160f81b03191615155b156110e457806110dc816119f3565b915050611098565b60008160ff1667ffffffffffffffff8111156111025761110261173a565b6040519080825280601f01601f19166020018201604052801561112c576020820181803683370190505b509050600091505b60208260ff161080156111695750838260ff16815181106111575761115761191d565b01602001516001600160f81b03191615155b156108f457838260ff16815181106111835761118361191d565b602001015160f81c60f81b818360ff16815181106111a3576111a361191d565b60200101906001600160f81b031916908160001a905350816111c4816119f3565b925050611134565b50506040805180820190915260038152623f3f3f60e81b602082015290565b6000608082840312156111fd57600080fd5b50919050565b6001600160a01b038116811461121857600080fd5b50565b60008060008060e0858703121561123157600080fd5b61123b86866111eb565b9350608085013567ffffffffffffffff81111561125757600080fd5b611263878288016111eb565b93505060a0850135915060c085013561127b81611203565b939692955090935050565b60005b838110156112a1578181015183820152602001611289565b838111156112b0576000848401525b50505050565b60208152600082518060208401526112d5816040850160208701611286565b601f01601f19169190910160400192915050565b60ff8116811461121857600080fd5b60008060a0838503121561130b57600080fd5b61131584846111eb565b91506080830135611325816112e9565b809150509250929050565b600080600060a0848603121561134557600080fd5b61134f85856111eb565b9250608084013567ffffffffffffffff8082111561136c57600080fd5b818601915086601f83011261138057600080fd5b81358181111561138f57600080fd5b8760208285010111156113a157600080fd5b6020830194508093505050509250925092565b634e487b7160e01b600052602160045260246000fd5b6000602082840312156113dc57600080fd5b8135600581106108f457600080fd5b6000602082840312156113fd57600080fd5b81356108f481611203565b6000815161141a818560208601611286565b9290920192915050565b6722a92198989a9a9d60c11b815260008351611447816008850160208801611286565b602f60f81b6008918401918201528351611468816009840160208801611286565b01600901949350505050565b6000808335601e1984360301811261148b57600080fd5b83018035915067ffffffffffffffff8211156114a657600080fd5b6020019150368190038213156114bb57600080fd5b9250929050565b6000602082840312156114d457600080fd5b81356108f4816112e9565b6e16113a37ba30b629bab838363c911d60891b8152825160009061150a81600f850160208801611286565b6e16113334bc32b229bab838363c911d60891b600f91840191820152835161153981601e840160208801611286565b01601e01949350505050565b7016113a37b5b2b720b2323932b9b9911d1160791b81528151600090611572816011850160208701611286565b601160f91b6011939091019283015250601201919050565b6a16113a37b5b2b724b2111d60a91b815281516000906115b181600b850160208701611286565b91909101600b0192915050565b683d913730b6b2911d1160b91b815288516000906115e3816009850160208e01611286565b6b11161139bcb6b137b6111d1160a11b600991840191820152895161160f816015840160208e01611286565b601160f91b601592909101918201528851611631816016840160208d01611286565b8851910190611647816016840160208c01611286565b7f2c2270726f70657274696573223a7b227374726174656779223a220000000000601692909101918201528651611685816031840160208b01611286565b6116e56116d76116d16116cb6116be6116b86031878901016e1116113a37b5b2b72a3cb832911d1160891b8152600f0190565b8c611408565b601160f91b815260010190565b89611408565b87611408565b617d7d60f01b815260020190565b9c9b505050505050505050505050565b7f646174613a6170706c69636174696f6e2f6a736f6e3b6261736536342c00000081526000825161172d81601d850160208701611286565b91909101601d0192915050565b634e487b7160e01b600052604160045260246000fd5b60006020828403121561176257600080fd5b815167ffffffffffffffff8082111561177a57600080fd5b818401915084601f83011261178e57600080fd5b8151818111156117a0576117a061173a565b604051601f8201601f19908116603f011681019083821181831017156117c8576117c861173a565b816040528281528760208487010111156117e157600080fd5b6117f2836020830160208801611286565b979650505050505050565b6000835161180f818460208801611286565b61040560f31b908301908152835161182e816002840160208801611286565b602960f81b60029290910191820152600301949350505050565b664552433131353560c81b815261040560f31b600782015260008251611875816009850160208701611286565b602960f81b6009939091019283015250600a01919050565b8284823760008382016000815261040560f31b815283516118b5816002840160208801611286565b602960f81b6002929091019182015260030195945050505050565b634e487b7160e01b600052601160045260246000fd5b6000816000190483118215151615611900576119006118d0565b500290565b60008219821115611918576119186118d0565b500190565b634e487b7160e01b600052603260045260246000fd5b600081611942576119426118d0565b506000190190565b600060001982141561195e5761195e6118d0565b5060010190565b634e487b7160e01b600052601260045260246000fd5b60008261198a5761198a611965565b500490565b6000828210156119a1576119a16118d0565b500390565b6000826119b5576119b5611965565b500690565b600082516119cc818460208701611286565b9190910192915050565b6000602082840312156119e857600080fd5b81516108f4816112e9565b600060ff821660ff811415611a0a57611a0a6118d0565b6001019291505056fe4142434445464748494a4b4c4d4e4f505152535455565758595a6162636465666768696a6b6c6d6e6f707172737475767778797a303132333435363738392b2fa264697066735822122019ba9813a1c40fdfb0a7f043e7b18c712fad0ed64af3d35cbba44808aff76b1064736f6c63430008090033",
  "devdoc": {
    "kind": "dev",
    "methods": {},
    "version": 1
  },
  "userdoc": {
    "kind": "user",
    "methods": {},
    "version": 1
  },
  "storageLayout": {
    "storage": [],
    "types": null
  }
}