{
  "address": "0x2CCFd66f76E73EEF0Ac76D7C03d0E367a03B7B2e",
  "abi": [
    {
      "inputs": [
        {
          "internalType": "address",
          "name": "_from",
          "type": "address"
        },
        {
          "internalType": "address",
          "name": "_operator",
          "type": "address"
        }
      ],
      "name": "NotApproved",
      "type": "error"
    },
    {
      "anonymous": false,
      "inputs": [
        {
          "indexed": true,
          "internalType": "address",
          "name": "old",
          "type": "address"
        },
        {
          "indexed": true,
          "internalType": "address",
          "name": "_new",
          "type": "address"
        }
      ],
      "name": "ConservatorUpdated",
      "type": "event"
    },
    {
      "anonymous": false,
      "inputs": [
        {
          "indexed": false,
          "internalType": "uint256",
          "name": "accruedAmount",
          "type": "uint256"
        },
        {
          "indexed": false,
          "internalType": "uint64",
          "name": "rate",
          "type": "uint64"
        }
      ],
      "name": "LogAccrue",
      "type": "event"
    },
    {
      "anonymous": false,
      "inputs": [
        {
          "indexed": true,
          "internalType": "address",
          "name": "from",
          "type": "address"
        },
        {
          "indexed": true,
          "internalType": "address",
          "name": "to",
          "type": "address"
        },
        {
          "indexed": false,
          "internalType": "uint256",
          "name": "share",
          "type": "uint256"
        }
      ],
      "name": "LogAddCollateral",
      "type": "event"
    },
    {
      "anonymous": false,
      "inputs": [
        {
          "indexed": true,
          "internalType": "address",
          "name": "_from",
          "type": "address"
        },
        {
          "indexed": true,
          "internalType": "address",
          "name": "_operator",
          "type": "address"
        },
        {
          "indexed": false,
          "internalType": "bool",
          "name": "_approved",
          "type": "bool"
        }
      ],
      "name": "LogApprovalForAll",
      "type": "event"
    },
    {
      "anonymous": false,
      "inputs": [
        {
          "indexed": true,
          "internalType": "address",
          "name": "from",
          "type": "address"
        },
        {
          "indexed": true,
          "internalType": "address",
          "name": "to",
          "type": "address"
        },
        {
          "indexed": false,
          "internalType": "uint256",
          "name": "amount",
          "type": "uint256"
        },
        {
          "indexed": false,
          "internalType": "uint256",
          "name": "feeAmount",
          "type": "uint256"
        },
        {
          "indexed": false,
          "internalType": "uint256",
          "name": "part",
          "type": "uint256"
        }
      ],
      "name": "LogBorrow",
      "type": "event"
    },
    {
      "anonymous": false,
      "inputs": [
        {
          "indexed": false,
          "internalType": "uint256",
          "name": "_oldVal",
          "type": "uint256"
        },
        {
          "indexed": false,
          "internalType": "uint256",
          "name": "_newVal",
          "type": "uint256"
        }
      ],
      "name": "LogBorrowCapUpdated",
      "type": "event"
    },
    {
      "anonymous": false,
      "inputs": [
        {
          "indexed": false,
          "internalType": "uint256",
          "name": "_oldVal",
          "type": "uint256"
        },
        {
          "indexed": false,
          "internalType": "uint256",
          "name": "_newVal",
          "type": "uint256"
        }
      ],
      "name": "LogBorrowingFee",
      "type": "event"
    },
    {
      "anonymous": false,
      "inputs": [
        {
          "indexed": false,
          "internalType": "uint256",
          "name": "rate",
          "type": "uint256"
        }
      ],
      "name": "LogExchangeRate",
      "type": "event"
    },
    {
      "anonymous": false,
      "inputs": [
        {
          "indexed": true,
          "internalType": "address",
          "name": "from",
          "type": "address"
        },
        {
          "indexed": true,
          "internalType": "address",
          "name": "to",
          "type": "address"
        },
        {
          "indexed": false,
          "internalType": "uint256",
          "name": "share",
          "type": "uint256"
        }
      ],
      "name": "LogRemoveCollateral",
      "type": "event"
    },
    {
      "anonymous": false,
      "inputs": [
        {
          "indexed": true,
          "internalType": "address",
          "name": "from",
          "type": "address"
        },
        {
          "indexed": true,
          "internalType": "address",
          "name": "to",
          "type": "address"
        },
        {
          "indexed": false,
          "internalType": "uint256",
          "name": "amount",
          "type": "uint256"
        },
        {
          "indexed": false,
          "internalType": "uint256",
          "name": "part",
          "type": "uint256"
        }
      ],
      "name": "LogRepay",
      "type": "event"
    },
    {
      "anonymous": false,
      "inputs": [
        {
          "indexed": false,
          "internalType": "uint256",
          "name": "_oldFee",
          "type": "uint256"
        },
        {
          "indexed": false,
          "internalType": "uint256",
          "name": "_newFee",
          "type": "uint256"
        }
      ],
      "name": "LogStabilityFee",
      "type": "event"
    },
    {
      "anonymous": false,
      "inputs": [
        {
          "indexed": true,
          "internalType": "address",
          "name": "feeTo",
          "type": "address"
        },
        {
          "indexed": false,
          "internalType": "uint256",
          "name": "feesEarned",
          "type": "uint256"
        }
      ],
      "name": "LogWithdrawFees",
      "type": "event"
    },
    {
      "anonymous": false,
      "inputs": [
        {
          "indexed": false,
          "internalType": "uint256",
          "name": "feeShares",
          "type": "uint256"
        },
        {
          "indexed": false,
          "internalType": "uint256",
          "name": "tapAmount",
          "type": "uint256"
        }
      ],
      "name": "LogYieldBoxFeesDeposit",
      "type": "event"
    },
    {
      "anonymous": false,
      "inputs": [
        {
          "indexed": true,
          "internalType": "address",
          "name": "previousOwner",
          "type": "address"
        },
        {
          "indexed": true,
          "internalType": "address",
          "name": "newOwner",
          "type": "address"
        }
      ],
      "name": "OwnershipTransferred",
      "type": "event"
    },
    {
      "anonymous": false,
      "inputs": [
        {
          "indexed": false,
          "internalType": "bool",
          "name": "oldState",
          "type": "bool"
        },
        {
          "indexed": false,
          "internalType": "bool",
          "name": "newState",
          "type": "bool"
        }
      ],
      "name": "PausedUpdated",
      "type": "event"
    },
    {
      "inputs": [],
      "name": "accrue",
      "outputs": [],
      "stateMutability": "nonpayable",
      "type": "function"
    },
    {
      "inputs": [],
      "name": "accrueInfo",
      "outputs": [
        {
          "internalType": "uint64",
          "name": "debtRate",
          "type": "uint64"
        },
        {
          "internalType": "uint64",
          "name": "lastAccrued",
          "type": "uint64"
        }
      ],
      "stateMutability": "view",
      "type": "function"
    },
    {
      "inputs": [
        {
          "internalType": "address",
          "name": "from",
          "type": "address"
        },
        {
          "internalType": "address",
          "name": "to",
          "type": "address"
        },
        {
          "internalType": "bool",
          "name": "skim",
          "type": "bool"
        },
        {
          "internalType": "uint256",
          "name": "share",
          "type": "uint256"
        }
      ],
      "name": "addCollateral",
      "outputs": [],
      "stateMutability": "nonpayable",
      "type": "function"
    },
    {
      "inputs": [],
      "name": "asset",
      "outputs": [
        {
          "internalType": "contract IUSD0",
          "name": "",
          "type": "address"
        }
      ],
      "stateMutability": "view",
      "type": "function"
    },
    {
      "inputs": [],
      "name": "assetId",
      "outputs": [
        {
          "internalType": "uint256",
          "name": "",
          "type": "uint256"
        }
      ],
      "stateMutability": "view",
      "type": "function"
    },
    {
      "inputs": [
        {
          "internalType": "address",
          "name": "from",
          "type": "address"
        },
        {
          "internalType": "address",
          "name": "to",
          "type": "address"
        },
        {
          "internalType": "uint256",
          "name": "amount",
          "type": "uint256"
        }
      ],
      "name": "borrow",
      "outputs": [
        {
          "internalType": "uint256",
          "name": "part",
          "type": "uint256"
        },
        {
          "internalType": "uint256",
          "name": "share",
          "type": "uint256"
        }
      ],
      "stateMutability": "nonpayable",
      "type": "function"
    },
    {
      "inputs": [],
      "name": "borrowingFee",
      "outputs": [
        {
          "internalType": "uint256",
          "name": "",
          "type": "uint256"
        }
      ],
      "stateMutability": "view",
      "type": "function"
    },
    {
      "inputs": [],
      "name": "callerFee",
      "outputs": [
        {
          "internalType": "uint256",
          "name": "",
          "type": "uint256"
        }
      ],
      "stateMutability": "view",
      "type": "function"
    },
    {
      "inputs": [],
      "name": "claimOwnership",
      "outputs": [],
      "stateMutability": "nonpayable",
      "type": "function"
    },
    {
      "inputs": [],
      "name": "collateral",
      "outputs": [
        {
          "internalType": "contract IERC20",
          "name": "",
          "type": "address"
        }
      ],
      "stateMutability": "view",
      "type": "function"
    },
    {
      "inputs": [],
      "name": "collateralId",
      "outputs": [
        {
          "internalType": "uint256",
          "name": "",
          "type": "uint256"
        }
      ],
      "stateMutability": "view",
      "type": "function"
    },
    {
      "inputs": [],
      "name": "collateralizationRate",
      "outputs": [
        {
          "internalType": "uint256",
          "name": "",
          "type": "uint256"
        }
      ],
      "stateMutability": "view",
      "type": "function"
    },
    {
      "inputs": [],
      "name": "conservator",
      "outputs": [
        {
          "internalType": "address",
          "name": "",
          "type": "address"
        }
      ],
      "stateMutability": "view",
      "type": "function"
    },
    {
      "inputs": [],
      "name": "debtRateAgainstEthMarket",
      "outputs": [
        {
          "internalType": "uint256",
          "name": "",
          "type": "uint256"
        }
      ],
      "stateMutability": "view",
      "type": "function"
    },
    {
      "inputs": [],
      "name": "debtStartPoint",
      "outputs": [
        {
          "internalType": "uint256",
          "name": "",
          "type": "uint256"
        }
      ],
      "stateMutability": "view",
      "type": "function"
    },
    {
      "inputs": [
        {
          "internalType": "contract ISwapper",
          "name": "swapper",
          "type": "address"
        },
        {
          "components": [
            {
              "internalType": "uint256",
              "name": "minAssetAmount",
              "type": "uint256"
            }
          ],
          "internalType": "struct IPenrose.SwapData",
          "name": "swapData",
          "type": "tuple"
        }
      ],
      "name": "depositFeesToYieldBox",
      "outputs": [],
      "stateMutability": "nonpayable",
      "type": "function"
    },
    {
      "inputs": [],
      "name": "exchangeRate",
      "outputs": [
        {
          "internalType": "uint256",
          "name": "",
          "type": "uint256"
        }
      ],
      "stateMutability": "view",
      "type": "function"
    },
    {
      "inputs": [],
      "name": "getDebtRate",
      "outputs": [
        {
          "internalType": "uint256",
          "name": "",
          "type": "uint256"
        }
      ],
      "stateMutability": "view",
      "type": "function"
    },
    {
      "inputs": [],
      "name": "getTotalDebt",
      "outputs": [
        {
          "internalType": "uint256",
          "name": "",
          "type": "uint256"
        }
      ],
      "stateMutability": "view",
      "type": "function"
    },
    {
      "inputs": [
        {
          "internalType": "bytes",
          "name": "data",
          "type": "bytes"
        }
      ],
      "name": "init",
      "outputs": [],
      "stateMutability": "nonpayable",
      "type": "function"
    },
    {
      "inputs": [
        {
          "internalType": "address",
          "name": "",
          "type": "address"
        },
        {
          "internalType": "address",
          "name": "",
          "type": "address"
        }
      ],
      "name": "isApprovedForAll",
      "outputs": [
        {
          "internalType": "bool",
          "name": "",
          "type": "bool"
        }
      ],
      "stateMutability": "view",
      "type": "function"
    },
    {
      "inputs": [
        {
          "internalType": "address[]",
          "name": "users",
          "type": "address[]"
        },
        {
          "internalType": "uint256[]",
          "name": "maxBorrowParts",
          "type": "uint256[]"
        },
        {
          "internalType": "contract ISwapper",
          "name": "swapper",
          "type": "address"
        },
        {
          "internalType": "bytes",
          "name": "collateralToAssetSwapData",
          "type": "bytes"
        }
      ],
      "name": "liquidate",
      "outputs": [],
      "stateMutability": "nonpayable",
      "type": "function"
    },
    {
      "inputs": [],
      "name": "maxDebtRate",
      "outputs": [
        {
          "internalType": "uint256",
          "name": "",
          "type": "uint256"
        }
      ],
      "stateMutability": "view",
      "type": "function"
    },
    {
      "inputs": [],
      "name": "minDebtRate",
      "outputs": [
        {
          "internalType": "uint256",
          "name": "",
          "type": "uint256"
        }
      ],
      "stateMutability": "view",
      "type": "function"
    },
    {
      "inputs": [
        {
          "internalType": "address",
          "name": "",
          "type": "address"
        },
        {
          "internalType": "address",
          "name": "",
          "type": "address"
        }
      ],
      "name": "operators",
      "outputs": [
        {
          "internalType": "bool",
          "name": "",
          "type": "bool"
        }
      ],
      "stateMutability": "view",
      "type": "function"
    },
    {
      "inputs": [],
      "name": "oracleData",
      "outputs": [
        {
          "internalType": "bytes",
          "name": "",
          "type": "bytes"
        }
      ],
      "stateMutability": "view",
      "type": "function"
    },
    {
      "inputs": [],
      "name": "owner",
      "outputs": [
        {
          "internalType": "address",
          "name": "",
          "type": "address"
        }
      ],
      "stateMutability": "view",
      "type": "function"
    },
    {
      "inputs": [],
      "name": "paused",
      "outputs": [
        {
          "internalType": "bool",
          "name": "",
          "type": "bool"
        }
      ],
      "stateMutability": "view",
      "type": "function"
    },
    {
      "inputs": [],
      "name": "pendingOwner",
      "outputs": [
        {
          "internalType": "address",
          "name": "",
          "type": "address"
        }
      ],
      "stateMutability": "view",
      "type": "function"
    },
    {
      "inputs": [],
      "name": "penrose",
      "outputs": [
        {
          "internalType": "contract IPenrose",
          "name": "",
          "type": "address"
        }
      ],
      "stateMutability": "view",
      "type": "function"
    },
    {
      "inputs": [],
      "name": "protocolFee",
      "outputs": [
        {
          "internalType": "uint256",
          "name": "",
          "type": "uint256"
        }
      ],
      "stateMutability": "view",
      "type": "function"
    },
    {
      "inputs": [
        {
          "internalType": "address",
          "name": "from",
          "type": "address"
        },
        {
          "internalType": "address",
          "name": "to",
          "type": "address"
        },
        {
          "internalType": "uint256",
          "name": "share",
          "type": "uint256"
        }
      ],
      "name": "removeCollateral",
      "outputs": [],
      "stateMutability": "nonpayable",
      "type": "function"
    },
    {
      "inputs": [
        {
          "internalType": "address",
          "name": "from",
          "type": "address"
        },
        {
          "internalType": "address",
          "name": "to",
          "type": "address"
        },
        {
          "internalType": "uint256",
          "name": "part",
          "type": "uint256"
        }
      ],
      "name": "repay",
      "outputs": [
        {
          "internalType": "uint256",
          "name": "amount",
          "type": "uint256"
        }
      ],
      "stateMutability": "nonpayable",
      "type": "function"
    },
    {
      "inputs": [
        {
          "internalType": "uint256",
          "name": "_cap",
          "type": "uint256"
        }
      ],
      "name": "setBorrowCap",
      "outputs": [],
      "stateMutability": "nonpayable",
      "type": "function"
    },
    {
      "inputs": [
        {
          "internalType": "uint256",
          "name": "_val",
          "type": "uint256"
        }
      ],
      "name": "setCallerFee",
      "outputs": [],
      "stateMutability": "nonpayable",
      "type": "function"
    },
    {
      "inputs": [
        {
          "internalType": "uint256",
          "name": "_val",
          "type": "uint256"
        }
      ],
      "name": "setCollateralizationRate",
      "outputs": [],
      "stateMutability": "nonpayable",
      "type": "function"
    },
    {
      "inputs": [
        {
          "internalType": "address",
          "name": "_conservator",
          "type": "address"
        }
      ],
      "name": "setConservator",
      "outputs": [],
      "stateMutability": "nonpayable",
      "type": "function"
    },
    {
      "inputs": [
        {
          "internalType": "uint256",
          "name": "_val",
          "type": "uint256"
        }
      ],
      "name": "setProtocolFee",
      "outputs": [],
      "stateMutability": "nonpayable",
      "type": "function"
    },
    {
      "inputs": [],
      "name": "totalBorrow",
      "outputs": [
        {
          "internalType": "uint128",
          "name": "elastic",
          "type": "uint128"
        },
        {
          "internalType": "uint128",
          "name": "base",
          "type": "uint128"
        }
      ],
      "stateMutability": "view",
      "type": "function"
    },
    {
      "inputs": [],
      "name": "totalBorrowCap",
      "outputs": [
        {
          "internalType": "uint256",
          "name": "",
          "type": "uint256"
        }
      ],
      "stateMutability": "view",
      "type": "function"
    },
    {
      "inputs": [],
      "name": "totalCollateralShare",
      "outputs": [
        {
          "internalType": "uint256",
          "name": "",
          "type": "uint256"
        }
      ],
      "stateMutability": "view",
      "type": "function"
    },
    {
      "inputs": [],
      "name": "totalFees",
      "outputs": [
        {
          "internalType": "uint256",
          "name": "",
          "type": "uint256"
        }
      ],
      "stateMutability": "view",
      "type": "function"
    },
    {
      "inputs": [
        {
          "internalType": "address",
          "name": "newOwner",
          "type": "address"
        },
        {
          "internalType": "bool",
          "name": "direct",
          "type": "bool"
        },
        {
          "internalType": "bool",
          "name": "renounce",
          "type": "bool"
        }
      ],
      "name": "transferOwnership",
      "outputs": [],
      "stateMutability": "nonpayable",
      "type": "function"
    },
    {
      "inputs": [
        {
          "internalType": "uint256",
          "name": "_borrowingFee",
          "type": "uint256"
        }
      ],
      "name": "updateBorrowingFee",
      "outputs": [],
      "stateMutability": "nonpayable",
      "type": "function"
    },
    {
      "inputs": [],
      "name": "updateExchangeRate",
      "outputs": [
        {
          "internalType": "bool",
          "name": "updated",
          "type": "bool"
        },
        {
          "internalType": "uint256",
          "name": "rate",
          "type": "uint256"
        }
      ],
      "stateMutability": "nonpayable",
      "type": "function"
    },
    {
      "inputs": [
        {
          "internalType": "address",
          "name": "operator",
          "type": "address"
        },
        {
          "internalType": "bool",
          "name": "status",
          "type": "bool"
        }
      ],
      "name": "updateOperator",
      "outputs": [],
      "stateMutability": "nonpayable",
      "type": "function"
    },
    {
      "inputs": [
        {
          "internalType": "bool",
          "name": "val",
          "type": "bool"
        }
      ],
      "name": "updatePause",
      "outputs": [],
      "stateMutability": "nonpayable",
      "type": "function"
    },
    {
      "inputs": [
        {
          "internalType": "address",
          "name": "",
          "type": "address"
        }
      ],
      "name": "userBorrowPart",
      "outputs": [
        {
          "internalType": "uint256",
          "name": "",
          "type": "uint256"
        }
      ],
      "stateMutability": "view",
      "type": "function"
    },
    {
      "inputs": [
        {
          "internalType": "address",
          "name": "",
          "type": "address"
        }
      ],
      "name": "userCollateralShare",
      "outputs": [
        {
          "internalType": "uint256",
          "name": "",
          "type": "uint256"
        }
      ],
      "stateMutability": "view",
      "type": "function"
    },
    {
      "inputs": [
        {
          "internalType": "uint16",
          "name": "dstChainId",
          "type": "uint16"
        },
        {
          "internalType": "bytes",
          "name": "receiver",
          "type": "bytes"
        },
        {
          "internalType": "uint256",
          "name": "amount",
          "type": "uint256"
        },
        {
          "internalType": "bytes",
          "name": "adapterParams",
          "type": "bytes"
        },
        {
          "internalType": "address payable",
          "name": "refundAddress",
          "type": "address"
        }
      ],
      "name": "withdrawTo",
      "outputs": [],
      "stateMutability": "payable",
      "type": "function"
    },
    {
      "inputs": [],
      "name": "yieldBox",
      "outputs": [
        {
          "internalType": "contract YieldBox",
          "name": "",
          "type": "address"
        }
      ],
      "stateMutability": "view",
      "type": "function"
    }
  ],
  "transactionHash": "0xe9728705c3b55c6e3f6d4c9c8f3331161cae19d99ac96b77474042791d44d071",
  "args": [],
  "numDeployments": 1,
  "solcInputHash": "00159a693e7dec675ccf3b4367e7c901",
  "bytecode": "0x608060405234801561001057600080fd5b50600080546001600160a01b0319163390811782556040519091907f8be0079c531659141344cd1fd0a4f28419497f9722a3daafe3b4186f6b6457e0908290a361460f8061005f6000396000f3fe6080604052600436106102e45760003560e01c80636b19ad1611610190578063c1ad5c8d116100dc578063e30c397811610095578063f791395d1161006f578063f791395d1461095c578063f8974de014610972578063f8ba4cff14610992578063fa74f0b5146109a757600080fd5b8063e30c3978146108eb578063e985e9c51461090b578063eec0f42e1461094657600080fd5b8063c1ad5c8d1461083e578063cce19f8114610853578063ce8849ed14610873578063d8dfeb4514610898578063dd63b28a146108b8578063de406577146108cb57600080fd5b80638285ef4011610149578063b0e21e8a11610123578063b0e21e8a146107af578063b27c0e74146107c5578063bb4cfe3b14610812578063bde39c5d1461082857600080fd5b80638285ef401461072e5780638377be50146107795780638da5cb5b1461078f57600080fd5b80636b19ad16146106435780636c3d8b8f146106595780636d44a3b214610679578063717186d1146106cc57806374645ff3146106ec578063787dce3d1461070e57600080fd5b806334ce998a1161024f578063473e3ce7116102085780634e71e0c8116101e25780634e71e0c8146105bf5780635224372c146105d457806353aa7dcd146106095780635c975abb1461062957600080fd5b8063473e3ce71461055c57806348e4163e146105725780634ddf47d41461059f57600080fd5b806334ce998a146104ae57806334d441d0146104cc57806338d52e0f146104e25780633ba0b9a91461051a57806340626d8b1461053057806344de240a1461054657600080fd5b80631e35078e116102a15780631e35078e146103cd5780631fb8f81a146103ed578063224d763a1461040357806325be7824146104235780632637588e146104435780632cc2470d1461048e57600080fd5b806302ce728f146102e9578063078dfbe71461031a5780630fde08e31461033c57806313114a9d1461035c5780631c9e379b146103805780631da649cf146103ad575b600080fd5b3480156102f557600080fd5b506102fe6109c7565b6040805192151583526020830191909152015b60405180910390f35b34801561032657600080fd5b5061033a610335366004613c93565b610a9f565b005b34801561034857600080fd5b5061033a610357366004613cde565b610bb7565b34801561036857600080fd5b5061037260175481565b604051908152602001610311565b34801561038c57600080fd5b5061037261039b366004613d1f565b600d6020526000908152604090205481565b3480156103b957600080fd5b506103726103c8366004613d3c565b61121d565b3480156103d957600080fd5b5061033a6103e8366004613d7d565b6112d6565b3480156103f957600080fd5b50610372601c5481565b34801561040f57600080fd5b5061033a61041e366004613e24565b611328565b34801561042f57600080fd5b5061033a61043e366004613ed3565b61137a565b34801561044f57600080fd5b5061047e61045e366004613f24565b600260209081526000928352604080842090915290825290205460ff1681565b6040519015158152602001610311565b34801561049a57600080fd5b5061033a6104a9366004613d7d565b6114c4565b3480156104ba57600080fd5b50600b546001600160801b0316610372565b3480156104d857600080fd5b5061037260145481565b3480156104ee57600080fd5b50600754610502906001600160a01b031681565b6040516001600160a01b039091168152602001610311565b34801561052657600080fd5b5061037260105481565b34801561053c57600080fd5b50610372600c5481565b34801561055257600080fd5b5061037260095481565b34801561056857600080fd5b50610372600a5481565b34801561057e57600080fd5b5061037261058d366004613d1f565b600e6020526000908152604090205481565b3480156105ab57600080fd5b5061033a6105ba366004613f5d565b611582565b3480156105cb57600080fd5b5061033a611963565b3480156105e057600080fd5b506105f46105ef366004613d3c565b611a20565b60408051928352602083019190915201610311565b34801561061557600080fd5b5061033a610624366004613d7d565b611b31565b34801561063557600080fd5b5060185461047e9060ff1681565b34801561064f57600080fd5b5061037260195481565b34801561066557600080fd5b50600454610502906001600160a01b031681565b34801561068557600080fd5b5061033a610694366004613f9f565b3360009081526002602090815260408083206001600160a01b0395909516835293905291909120805460ff1916911515919091179055565b3480156106d857600080fd5b5061033a6106e7366004613d7d565b611b83565b3480156106f857600080fd5b50610701611c11565b604051610311919061401a565b34801561071a57600080fd5b5061033a610729366004613d7d565b611c9f565b34801561073a57600080fd5b50600b54610759906001600160801b0380821691600160801b90041682565b604080516001600160801b03938416815292909116602083015201610311565b34801561078557600080fd5b5061037260115481565b34801561079b57600080fd5b50600054610502906001600160a01b031681565b3480156107bb57600080fd5b5061037260155481565b3480156107d157600080fd5b506003546107f19067ffffffffffffffff80821691600160401b90041682565b6040805167ffffffffffffffff938416815292909116602083015201610311565b34801561081e57600080fd5b5061037260165481565b34801561083457600080fd5b50610372601b5481565b34801561084a57600080fd5b50610372611cf1565b34801561085f57600080fd5b5061033a61086e366004613d3c565b611f60565b34801561087f57600080fd5b506018546105029061010090046001600160a01b031681565b3480156108a457600080fd5b50600654610502906001600160a01b031681565b61033a6108c6366004614053565b61205c565b3480156108d757600080fd5b50600554610502906001600160a01b031681565b3480156108f757600080fd5b50600154610502906001600160a01b031681565b34801561091757600080fd5b5061047e610926366004613f24565b600f60209081526000928352604080842090915290825290205460ff1681565b34801561095257600080fd5b5061037260085481565b34801561096857600080fd5b50610372601a5481565b34801561097e57600080fd5b5061033a61098d366004614162565b61233b565b34801561099e57600080fd5b5061033a612437565b3480156109b357600080fd5b5061033a6109c2366004613d1f565b6125d4565b60125460405163d6d7d52560e01b8152602060048201526000602482018190529182916001600160a01b039091169063d6d7d525906044016040805180830381600087803b158015610a1857600080fd5b505af1158015610a2c573d6000803e3d6000fd5b505050506040513d601f19601f82011682018060405250810190610a50919061417f565b90925090508115610a975760108190556040518181527f9f9192b5edb17356c524e08d9e025c8e2f6307e6ea52fb7968faa3081f51c3c89060200160405180910390a19091565b506010549091565b6000546001600160a01b03163314610ad25760405162461bcd60e51b8152600401610ac9906141ad565b60405180910390fd5b8115610b95576001600160a01b038316151580610aec5750805b610b305760405162461bcd60e51b81526020600482015260156024820152744f776e61626c653a207a65726f206164647265737360581b6044820152606401610ac9565b600080546040516001600160a01b03808716939216917f8be0079c531659141344cd1fd0a4f28419497f9722a3daafe3b4186f6b6457e091a3600080546001600160a01b0385166001600160a01b031991821617909155600180549091169055505050565b600180546001600160a01b0385166001600160a01b0319909116179055505050565b60185460ff1615610bda5760405162461bcd60e51b8152600401610ac9906141e2565b60048054604051634656bfdf60e11b81526001600160a01b0385811693820193909352911690638cad7fbe9060240160206040518083038186803b158015610c2157600080fd5b505afa158015610c35573d6000803e3d6000fd5b505050506040513d601f19601f82011682018060405250810190610c59919061420b565b610ca05760405162461bcd60e51b81526020600482015260186024820152772134b3a130b7339d1024b73b30b634b21039bbb0b83832b960411b6044820152606401610ac9565b6007546040516370a0823160e01b81523060048201526000916001600160a01b0316906370a082319060240160206040518083038186803b158015610ce457600080fd5b505afa158015610cf8573d6000803e3d6000fd5b505050506040513d601f19601f82011682018060405250810190610d1c9190614228565b90508060176000828254610d309190614257565b90915550506004805460408051622fcfcb60e31b815290516001600160a01b039092169263017e7e58928282019260209290829003018186803b158015610d7657600080fd5b505afa158015610d8a573d6000803e3d6000fd5b505050506040513d601f19601f82011682018060405250810190610dae919061426f565b6001600160a01b03167fbe641c3ffc44b2d6c184f023fa4ed7bda4b6ffa71e03b3c98ae0c776da1f17e782604051610de891815260200190565b60405180910390a26000600460009054906101000a90046001600160a01b03166001600160a01b031663017e7e586040518163ffffffff1660e01b815260040160206040518083038186803b158015610e4057600080fd5b505afa158015610e54573d6000803e3d6000fd5b505050506040513d601f19601f82011682018060405250810190610e78919061426f565b6017549091501561121757600554600954601754604051638eb22cdd60e01b815260048101929092526024820152600060448201819052916001600160a01b031690638eb22cdd9060640160206040518083038186803b158015610edb57600080fd5b505afa158015610eef573d6000803e3d6000fd5b505050506040513d601f19601f82011682018060405250810190610f139190614228565b60075460055460175460405163095ea7b360e01b81526001600160a01b0392831660048201526024810191909152929350169063095ea7b390604401602060405180830381600087803b158015610f6957600080fd5b505af1158015610f7d573d6000803e3d6000fd5b505050506040513d601f19601f82011682018060405250810190610fa1919061420b565b50600554600954601754604051634d4d7cbd60e11b81526001600160a01b0390931692639a9af97a92610fdf9290913091829160009060040161428c565b6040805180830381600087803b158015610ff857600080fd5b505af115801561100c573d6000803e3d6000fd5b505050506040513d601f19601f8201168201806040525081019061103091906142bb565b50506000601755600554600954604051630208d92960e11b81526001600160a01b0390921691630411b2529161106e9130918a9187906004016142df565b600060405180830381600087803b15801561108857600080fd5b505af115801561109c573d6000803e3d6000fd5b505050506000856001600160a01b03166355a68e10600954600460009054906101000a90046001600160a01b03166001600160a01b03166302f5d1a26040518163ffffffff1660e01b815260040160206040518083038186803b15801561110257600080fd5b505afa158015611116573d6000803e3d6000fd5b505050506040513d601f19601f8201168201806040525081019061113a9190614228565b85878a356111466126bb565b6040516020016111569190614308565b6040516020818303038152906040526040518763ffffffff1660e01b815260040161118696959493929190614355565b6040805180830381600087803b15801561119f57600080fd5b505af11580156111b3573d6000803e3d6000fd5b505050506040513d601f19601f820116820180604052508101906111d791906142bb565b5060408051848152602081018390529192507fa4fef2aee55b8c5258b39e504f59d0fb9960865de9cc847e769cd282b6769363910160405180910390a150505b50505050565b60185460009060ff16156112435760405162461bcd60e51b8152600401610ac9906141e2565b836001600160a01b038116331480159061128157506001600160a01b038116600090815260026020908152604080832033845290915290205460ff16155b156112b057604051630ca03e9b60e11b81526001600160a01b0382166004820152336024820152604401610ac9565b6112b86109c7565b50506112c2612437565b6112cd8585856127d7565b95945050505050565b6000546001600160a01b031633146113005760405162461bcd60e51b8152600401610ac9906141ad565b620186a08111156113235760405162461bcd60e51b8152600401610ac99061439a565b601655565b60185460ff161561134b5760405162461bcd60e51b8152600401610ac9906141e2565b60006113556109c7565b915050611360612437565b61137088888888888689896129d3565b5050505050505050565b60185460ff161561139d5760405162461bcd60e51b8152600401610ac9906141e2565b836001600160a01b03811633148015906113db57506001600160a01b038116600090815260026020908152604080832033845290915290205460ff16155b1561140a57604051630ca03e9b60e11b81526001600160a01b0382166004820152336024820152604401610ac9565b6001600160a01b0384166000908152600d602052604081208054849290611432908490614257565b9091555050600a546114448382614257565b600a5560085461145890879085848861330a565b846001600160a01b03168461146d578661147a565b6005546001600160a01b03165b6001600160a01b03167f9ed03113de523cebfe5e49d5f8e12894b1c0d42ce805990461726444c90eab87856040516114b491815260200190565b60405180910390a3505050505050565b6000546001600160a01b031633146114ee5760405162461bcd60e51b8152600401610ac9906141ad565b620138808111156115415760405162461bcd60e51b815260206004820152601860248201527f42696742616e673a2076616c7565206e6f742076616c696400000000000000006044820152606401610ac9565b60115460408051918252602082018390527fc353b09af857951dccce61b43a5854fc45beceed36c50e5d4cc2e71858a8e0df910160405180910390a1601155565b601e5460ff16156115cc5760405162461bcd60e51b8152602060048201526014602482015273109a59d0985b99ce881a5b9a5d1a585b1a5e995960621b6044820152606401610ac9565b600080808080808080806115e28a8c018c6143c6565b98509850985098509850985098509850985088600460006101000a8154816001600160a01b0302191690836001600160a01b03160217905550886001600160a01b031663de4065776040518163ffffffff1660e01b815260040160206040518083038186803b15801561165457600080fd5b505afa158015611668573d6000803e3d6000fd5b505050506040513d601f19601f8201168201806040525081019061168c919061426f565b600580546001600160a01b03199081166001600160a01b039384161790915560048054600080549190941692168217835560408051631192124760e11b81529051632324248e92828101926020929190829003018186803b1580156116f057600080fd5b505afa158015611704573d6000803e3d6000fd5b505050506040513d601f19601f82011682018060405250810190611728919061426f565b90506001600160a01b0389161580159061174a57506001600160a01b03811615155b801561175e57506001600160a01b03871615155b61179e5760405162461bcd60e51b81526020600482015260116024820152702134b3a130b7339d103130b2103830b4b960791b6044820152606401610ac9565b600780546001600160a01b0319166001600160a01b038381169190911790915560048054604080516386c8e21d60e01b8152905191909316926386c8e21d9281810192602092909190829003018186803b1580156117fb57600080fd5b505afa15801561180f573d6000803e3d6000fd5b505050506040513d601f19601f820116820180604052508101906118339190614228565b600955600680546001600160a01b03808c166001600160a01b03199283161790925560088a905560128054928a16929091169190911790556118736109c7565b505062015f90601455612710601555620124f8601655601d869055600480546040805163017ae8d160e11b815290516001600160a01b03909216926302f5d1a2928282019260209290829003018186803b1580156118d057600080fd5b505afa1580156118e4573d6000803e3d6000fd5b505050506040513d601f19601f820116820180604052508101906119089190614228565b60085460188054600160a81b93909214830260ff60a81b1990921691909117908190550460ff1661194857601b8590556019839055601a849055601c8290555b5050601e805460ff1916600117905550505050505050505050565b6001546001600160a01b03163381146119be5760405162461bcd60e51b815260206004820181905260248201527f4f776e61626c653a2063616c6c657220213d2070656e64696e67206f776e65726044820152606401610ac9565b600080546040516001600160a01b03808516939216917f8be0079c531659141344cd1fd0a4f28419497f9722a3daafe3b4186f6b6457e091a3600080546001600160a01b039092166001600160a01b0319928316179055600180549091169055565b601854600090819060ff1615611a485760405162461bcd60e51b8152600401610ac9906141e2565b84806001600160a01b0381163314801590611a8757506001600160a01b038116600090815260026020908152604080832033845290915290205460ff16155b15611ab657604051630ca03e9b60e11b81526001600160a01b0382166004820152336024820152604401610ac9565b611abe6109c7565b5050611ac8612437565b611ad3878787613452565b6010549195509350611ae7915082906137d1565b611b285760405162461bcd60e51b8152602060048201526012602482015271109a59d0985b99ce881a5b9cdbdb1d995b9d60721b6044820152606401610ac9565b50935093915050565b6000546001600160a01b03163314611b5b5760405162461bcd60e51b8152600401610ac9906141ad565b620186a0811115611b7e5760405162461bcd60e51b8152600401610ac99061439a565b601455565b6000546001600160a01b03163314611bad5760405162461bcd60e51b8152600401610ac9906141ad565b60185460ff1615611bd05760405162461bcd60e51b8152600401610ac9906141e2565b600c5460408051918252602082018390527fae6e0ab3b95f0a53ff9660a390ccedcbbf1f2355dce974a9841af106fddcfaba910160405180910390a1600c55565b60138054611c1e90614447565b80601f0160208091040260200160405190810160405280929190818152602001828054611c4a90614447565b8015611c975780601f10611c6c57610100808354040283529160200191611c97565b820191906000526020600020905b815481529060010190602001808311611c7a57829003601f168201915b505050505081565b6000546001600160a01b03163314611cc95760405162461bcd60e51b8152600401610ac9906141ad565b620186a0811115611cec5760405162461bcd60e51b8152600401610ac99061439a565b601555565b601854600090600160a81b900460ff1615611d8557600480546040805163e6abad4960e01b815290516001600160a01b039092169263e6abad49928282019260209290829003018186803b158015611d4857600080fd5b505afa158015611d5c573d6000803e3d6000fd5b505050506040513d601f19601f82011682018060405250810190611d809190614228565b905090565b600b546001600160801b0316611d9c5750601a5490565b6000600460009054906101000a90046001600160a01b03166001600160a01b031663c24795f86040518163ffffffff1660e01b815260040160206040518083038186803b158015611dec57600080fd5b505afa158015611e00573d6000803e3d6000fd5b505050506040513d601f19601f82011682018060405250810190611e24919061426f565b6001600160a01b03166334ce998a6040518163ffffffff1660e01b815260040160206040518083038186803b158015611e5c57600080fd5b505afa158015611e70573d6000803e3d6000fd5b505050506040513d601f19601f82011682018060405250810190611e949190614228565b600b54601b549192506001600160801b031690600090670de0b6b3a764000090611ebe9085614482565b611ec891906144a1565b9050808210611edc57601954935050505090565b6000601c5482611eec91906144c3565b670de0b6b3a7640000601c5485611f0391906144c3565b611f0d9190614482565b611f1791906144a1565b90506000601a54670de0b6b3a764000083601a54601954611f3891906144c3565b611f429190614482565b611f4c91906144a1565b611f569190614257565b9695505050505050565b60185460ff1615611f835760405162461bcd60e51b8152600401610ac9906141e2565b82806001600160a01b0381163314801590611fc257506001600160a01b038116600090815260026020908152604080832033845290915290205460ff16155b15611ff157604051630ca03e9b60e11b81526001600160a01b0382166004820152336024820152604401610ac9565b611ff96109c7565b5050612003612437565b61200e85858561392d565b5061201b816010546137d1565b6112175760405162461bcd60e51b8152602060048201526012602482015271109a59d0985b99ce881a5b9cdbdb1d995b9d60721b6044820152606401610ac9565b6007546040516301ffc9a760e01b81526328c82b1b60e11b60048201526001600160a01b03909116906301ffc9a79060240160206040518083038186803b1580156120a657600080fd5b505afa9250505080156120d6575060408051601f3d908101601f191682019092526120d39181019061420b565b60015b6120df57612333565b50600554600954604051627eeac760e11b8152336004820152602481018290526000926001600160a01b03169163442c159991839062fdd58e9060440160206040518083038186803b15801561213457600080fd5b505afa158015612148573d6000803e3d6000fd5b505050506040513d601f19601f8201168201806040525081019061216c9190614228565b6040516001600160e01b031960e085901b168152600481019290925260248201526000604482015260640160206040518083038186803b1580156121af57600080fd5b505afa1580156121c3573d6000803e3d6000fd5b505050506040513d601f19601f820116820180604052508101906121e79190614228565b9050848110156122325760405162461bcd60e51b815260206004820152601660248201527542696742616e673a206e6f7420617661696c61626c6560501b6044820152606401610ac9565b6005546009546040516311a5cc7760e31b81526001600160a01b0390921691638d2e63b89161226c91339030908b9060009060040161428c565b6040805180830381600087803b15801561228557600080fd5b505af1158015612299573d6000803e3d6000fd5b505050506040513d601f19601f820116820180604052508101906122bd91906142bb565b50506007546040516328c82b1b60e11b81526001600160a01b039091169063519056369034906122ff9030908c908c908c908a9033908e908e906004016144da565b6000604051808303818588803b15801561231857600080fd5b505af115801561232c573d6000803e3d6000fd5b5050505050505b505050505050565b60185461010090046001600160a01b031633146123925760405162461bcd60e51b8152602060048201526015602482015274109a59d0985b99ce881d5b985d5d1a1bdc9a5e9959605a1b6044820152606401610ac9565b60185460ff16151581151514156123e15760405162461bcd60e51b815260206004820152601360248201527242696742616e673a2073616d6520737461746560681b6044820152606401610ac9565b6018546040805160ff9092161515825282151560208301527f9c13c5f6c628c1c82eb2b3fd8714da5c2857dbd0ad8ab6b2074abcf81015d396910160405180910390a16018805460ff1916911515919091179055565b6040805180820190915260035467ffffffffffffffff8082168352600160401b909104166020820181905260009061246f90426144c3565b90508061247a575050565b6000612484611cf1565b90506124946301e13380826144a1565b67ffffffffffffffff908116845242811660208086019190915260408051808201909152600b546001600160801b03808216808452600160801b909204169282019290925285519092600092670de0b6b3a76400009287926124f892911690614482565b6125029190614482565b61250c91906144a1565b905080826000018181516125209190614555565b6001600160801b0390811690915283516020808601518316600160801b029190921617600b558651600380549289015167ffffffffffffffff908116600160401b026fffffffffffffffffffffffffffffffff199490941690831617929092179091556040517f7484db546dcd57af0104c73c8a6968dfbaf5767f047cee0dadd0499ad7df81a092506125c59184825267ffffffffffffffff16602082015260400190565b60405180910390a15050505050565b6000546001600160a01b031633146125fe5760405162461bcd60e51b8152600401610ac9906141ad565b6001600160a01b0381166126545760405162461bcd60e51b815260206004820152601a60248201527f42696742616e673a2061646472657373206e6f742076616c69640000000000006044820152606401610ac9565b6018546040516001600160a01b0380841692610100900416907f5a62d22209e370e38eea92cfddcd228e656e6ec139243392a760a7769f5877fd90600090a3601880546001600160a01b0390921661010002610100600160a81b0319909216919091179055565b6040805160028082526060808301845292602083019080368337505060075482519293506001600160a01b0316918391506000906126fb576126fb614580565b60200260200101906001600160a01b031690816001600160a01b031681525050600460009054906101000a90046001600160a01b03166001600160a01b0316634b57b0be6040518163ffffffff1660e01b815260040160206040518083038186803b15801561276957600080fd5b505afa15801561277d573d6000803e3d6000fd5b505050506040513d601f19601f820116820180604052508101906127a1919061426f565b816001815181106127b4576127b4614580565b60200260200101906001600160a01b031690816001600160a01b03168152505090565b60408051808201909152600b546001600160801b038082168352600160801b90910416602082015260009061280e90836001613a30565b81516020928301516001600160801b03908116600160801b02911617600b556001600160a01b0385166000908152600e909252604082208054919350849290916128599084906144c3565b909155506000905061286b83836144c3565b9050600061287982846144c3565b6005546009546040516311a5cc7760e31b81529293506001600160a01b0390911691638d2e63b8916128b6918a903090899060009060040161428c565b6040805180830381600087803b1580156128cf57600080fd5b505af11580156128e3573d6000803e3d6000fd5b505050506040513d601f19601f8201168201806040525081019061290791906142bb565b5050801561297457600754604051632770a7eb60e21b8152306004820152602481018390526001600160a01b0390911690639dc29fac90604401600060405180830381600087803b15801561295b57600080fd5b505af115801561296f573d6000803e3d6000fd5b505050505b846001600160a01b0316866001600160a01b03167fc8e512d8f188ca059984b5853d2bf653da902696b8512785b182b2c813789a6e85876040516129c2929190918252602082015260400190565b60405180910390a350509392505050565b60408051808201909152600b546001600160801b038082168352600160801b90910416602082015260009081908190815b8b811015612cb05760008d8d83818110612a2057612a20614580565b9050602002016020810190612a359190613d1f565b9050612a41818a6137d1565b612c9d576001600160a01b0381166000908152600e6020526040812054808e8e86818110612a7157612a71614580565b9050602002013511612a9b578d8d85818110612a8f57612a8f614580565b90506020020135612a9d565b805b9150612aa982826144c3565b6001600160a01b0384166000908152600e60205260408120919091559050612ad2858383613a99565b600554600854601d549293506000926001600160a01b0390921691638eb22cdd9190612b0190620186a0614482565b8f612b0f6201b58088614482565b612b199190614482565b612b2391906144a1565b6040516001600160e01b031960e085901b168152600481019290925260248201526000604482015260640160206040518083038186803b158015612b6657600080fd5b505afa158015612b7a573d6000803e3d6000fd5b505050506040513d601f19601f82011682018060405250810190612b9e9190614228565b6001600160a01b0385166000908152600d6020526040812080549293508392909190612bcb9084906144c3565b925050819055508c6001600160a01b0316846001600160a01b03167f8ad4d3ff00da092c7ad9a573ea4f5f6a3dffc6712dc06d3f78f49b862297c40283604051612c1791815260200190565b60405180910390a3836001600160a01b03168d6001600160a01b03167fc8e512d8f188ca059984b5853d2bf653da902696b8512785b182b2c813789a6e8486604051612c6d929190918252602082015260400190565b60405180910390a3612c7f818a614257565b9850612c8b8289614257565b9750612c978388614257565b96505050505b5080612ca881614596565b915050612a04565b5082612cf15760405162461bcd60e51b815260206004820152601060248201526f109a59d0985b99ce881cdbdb1d995b9d60821b6044820152606401610ac9565b8281600001818151612d0391906145b1565b6001600160801b0316905250602081018051839190612d239083906145b1565b6001600160801b03908116909152825160208401518216600160801b02911617600b5550600a8054859190600090612d5c9084906144c3565b9091555050600554600954604051638eb22cdd60e01b8152600481019190915260248101859052600160448201526000916001600160a01b031690638eb22cdd9060640160206040518083038186803b158015612db857600080fd5b505afa158015612dcc573d6000803e3d6000fd5b505050506040513d601f19601f82011682018060405250810190612df09190614228565b60048054604051634656bfdf60e11b81526001600160a01b038d8116938201939093529293501690638cad7fbe9060240160206040518083038186803b158015612e3957600080fd5b505afa158015612e4d573d6000803e3d6000fd5b505050506040513d601f19601f82011682018060405250810190612e71919061420b565b612eb85760405162461bcd60e51b81526020600482015260186024820152772134b3a130b7339d1024b73b30b634b21039bbb0b83832b960411b6044820152606401610ac9565b600554600854604051630208d92960e11b81526001600160a01b0390921691630411b25291612eef9130918e918b906004016142df565b600060405180830381600087803b158015612f0957600080fd5b505af1158015612f1d573d6000803e3d6000fd5b50600092505087159050612f3a57612f3787890189613d7d565b90505b600554600954604051627eeac760e11b815230600482015260248101919091526000916001600160a01b03169062fdd58e9060440160206040518083038186803b158015612f8757600080fd5b505afa158015612f9b573d6000803e3d6000fd5b505050506040513d601f19601f82011682018060405250810190612fbf9190614228565b90508a6001600160a01b03166355a68e106008546009548a3087612fe1613b34565b604051602001612ff19190614308565b6040516020818303038152906040526040518763ffffffff1660e01b815260040161302196959493929190614355565b6040805180830381600087803b15801561303a57600080fd5b505af115801561304e573d6000803e3d6000fd5b505050506040513d601f19601f8201168201806040525081019061307291906142bb565b5050600554600954604051627eeac760e11b815230600482015260248101919091526000916001600160a01b03169062fdd58e9060440160206040518083038186803b1580156130c157600080fd5b505afa1580156130d5573d6000803e3d6000fd5b505050506040513d601f19601f820116820180604052508101906130f99190614228565b9050600061310783836144c3565b9050600061311586836144c3565b90506000620186a06015548361312b9190614482565b61313591906144a1565b90506000620186a06014548461314b9190614482565b61315591906144a1565b9050826131628284614257565b146131af5760405162461bcd60e51b815260206004820152601d60248201527f42696742616e673a206665652076616c756573206e6f742076616c69640000006044820152606401610ac9565b6005546004805460408051622fcfcb60e31b815290516001600160a01b0394851694630411b2529430949091169263017e7e589281830192602092829003018186803b1580156131fe57600080fd5b505afa158015613212573d6000803e3d6000fd5b505050506040513d601f19601f82011682018060405250810190613236919061426f565b600954866040518563ffffffff1660e01b815260040161325994939291906142df565b600060405180830381600087803b15801561327357600080fd5b505af1158015613287573d6000803e3d6000fd5b5050600554600954604051630208d92960e11b81526001600160a01b039092169350630411b25292506132c2913091339187906004016142df565b600060405180830381600087803b1580156132dc57600080fd5b505af11580156132f0573d6000803e3d6000fd5b505050505050505050505050505050505050505050505050565b80156133e257600554604051627eeac760e11b81523060048201526024810186905283916001600160a01b03169062fdd58e9060440160206040518083038186803b15801561335857600080fd5b505afa15801561336c573d6000803e3d6000fd5b505050506040513d601f19601f820116820180604052508101906133909190614228565b61339a91906144c3565b8311156133dd5760405162461bcd60e51b8152602060048201526011602482015270084d2ce84c2dcce7440e8dede40daeac6d607b1b6044820152606401610ac9565b61344b565b600554604051630208d92960e11b81526001600160a01b0390911690630411b252906134189088903090899089906004016142df565b600060405180830381600087803b15801561343257600080fd5b505af1158015613446573d6000803e3d6000fd5b505050505b5050505050565b6000806000620186a0601154856134699190614482565b61347391906144a1565b90506134b26134828286614257565b60408051808201909152600b546001600160801b038082168352600160801b909104166020820152906001613ba5565b81516020909201516001600160801b03908116600160801b02921691909117600b55600c5490935015806134f35750600c54600b546001600160801b031611155b61353f5760405162461bcd60e51b815260206004820152601b60248201527f42696742616e673a20626f72726f7720636170207265616368656400000000006044820152606401610ac9565b6001600160a01b0386166000908152600e602052604081208054859290613567908490614257565b90915550506007546040516340c10f1960e01b8152306004820152602481018690526001600160a01b03909116906340c10f1990604401600060405180830381600087803b1580156135b857600080fd5b505af11580156135cc573d6000803e3d6000fd5b505060075460055460405163095ea7b360e01b81526001600160a01b039182166004820152602481018990529116925063095ea7b39150604401602060405180830381600087803b15801561362057600080fd5b505af1158015613634573d6000803e3d6000fd5b505050506040513d601f19601f82011682018060405250810190613658919061420b565b50600554600954604051634d4d7cbd60e11b81526001600160a01b0390921691639a9af97a916136939130908a908a9060009060040161428c565b6040805180830381600087803b1580156136ac57600080fd5b505af11580156136c0573d6000803e3d6000fd5b505050506040513d601f19601f820116820180604052508101906136e491906142bb565b5050600554600954604051638eb22cdd60e01b8152600481019190915260248101869052600060448201526001600160a01b0390911690638eb22cdd9060640160206040518083038186803b15801561373c57600080fd5b505afa158015613750573d6000803e3d6000fd5b505050506040513d601f19601f820116820180604052508101906137749190614228565b60408051868152602081018490529081018590529092506001600160a01b0380871691908816907f3a5151e57d3bc9798e7853034ac52293d1a0e12a2b44725e75b03b21f86477a69060600160405180910390a350935093915050565b6001600160a01b0382166000908152600e6020526040812054806137f9576001915050613927565b6001600160a01b0384166000908152600d6020908152604091829020548251808401909352600b546001600160801b03808216808652600160801b9092041692840183905290929190869061384e9086614482565b6138589190614482565b61386291906144a1565b600554600854601654601d546001600160a01b039093169263442c159992919061389090620186a0906144a1565b61389a9088614482565b6138a49190614482565b6040516001600160e01b031960e085901b168152600481019290925260248201526000604482015260640160206040518083038186803b1580156138e757600080fd5b505afa1580156138fb573d6000803e3d6000fd5b505050506040513d601f19601f8201168201806040525081019061391f9190614228565b101593505050505b92915050565b6001600160a01b0383166000908152600d6020526040812080548392906139559084906144c3565b9250508190555080600a600082825461396e91906144c3565b92505081905550816001600160a01b0316836001600160a01b03167f8ad4d3ff00da092c7ad9a573ea4f5f6a3dffc6712dc06d3f78f49b862297c402836040516139ba91815260200190565b60405180910390a3600554600854604051630208d92960e11b81526001600160a01b0390921691630411b252916139f9913091879187906004016142df565b600060405180830381600087803b158015613a1357600080fd5b505af1158015613a27573d6000803e3d6000fd5b50505050505050565b60408051808201909152600080825260208201526000613a51858585613a99565b90508085600001818151613a6591906145b1565b6001600160801b0316905250602085018051859190613a859083906145b1565b6001600160801b0316905250939492505050565b600083602001516001600160801b031660001415613ab8575081613b2d565b602084015184516001600160801b0391821691613ad6911685614482565b613ae091906144a1565b9050818015613b1e57508284600001516001600160801b031685602001516001600160801b031683613b129190614482565b613b1c91906144a1565b105b15613b2d57806112cd81614596565b9392505050565b6040805160028082526060808301845292602083019080368337505060065482519293506001600160a01b031691839150600090613b7457613b74614580565b6001600160a01b0392831660209182029290920101526007548251911690829060019081106127b4576127b4614580565b60408051808201909152600080825260208201526000613bc6858585613bfa565b90508385600001818151613bda9190614555565b6001600160801b0316905250602085018051829190613a85908390614555565b82516000906001600160801b0316613c13575081613b2d565b835160208501516001600160801b0391821691613c31911685614482565b613c3b91906144a1565b9050818015613b1e57508284602001516001600160801b031685600001516001600160801b031683613b129190614482565b6001600160a01b0381168114613c8257600080fd5b50565b8015158114613c8257600080fd5b600080600060608486031215613ca857600080fd5b8335613cb381613c6d565b92506020840135613cc381613c85565b91506040840135613cd381613c85565b809150509250925092565b6000808284036040811215613cf257600080fd5b8335613cfd81613c6d565b92506020601f1982011215613d1157600080fd5b506020830190509250929050565b600060208284031215613d3157600080fd5b8135613b2d81613c6d565b600080600060608486031215613d5157600080fd5b8335613d5c81613c6d565b92506020840135613d6c81613c6d565b929592945050506040919091013590565b600060208284031215613d8f57600080fd5b5035919050565b60008083601f840112613da857600080fd5b50813567ffffffffffffffff811115613dc057600080fd5b6020830191508360208260051b8501011115613ddb57600080fd5b9250929050565b60008083601f840112613df457600080fd5b50813567ffffffffffffffff811115613e0c57600080fd5b602083019150836020828501011115613ddb57600080fd5b60008060008060008060006080888a031215613e3f57600080fd5b873567ffffffffffffffff80821115613e5757600080fd5b613e638b838c01613d96565b909950975060208a0135915080821115613e7c57600080fd5b613e888b838c01613d96565b909750955060408a01359150613e9d82613c6d565b90935060608901359080821115613eb357600080fd5b50613ec08a828b01613de2565b989b979a50959850939692959293505050565b60008060008060808587031215613ee957600080fd5b8435613ef481613c6d565b93506020850135613f0481613c6d565b92506040850135613f1481613c85565b9396929550929360600135925050565b60008060408385031215613f3757600080fd5b8235613f4281613c6d565b91506020830135613f5281613c6d565b809150509250929050565b60008060208385031215613f7057600080fd5b823567ffffffffffffffff811115613f8757600080fd5b613f9385828601613de2565b90969095509350505050565b60008060408385031215613fb257600080fd5b8235613fbd81613c6d565b91506020830135613f5281613c85565b6000815180845260005b81811015613ff357602081850181015186830182015201613fd7565b81811115614005576000602083870101525b50601f01601f19169290920160200192915050565b602081526000613b2d6020830184613fcd565b634e487b7160e01b600052604160045260246000fd5b803561404e81613c6d565b919050565b60008060008060008060a0878903121561406c57600080fd5b863561ffff8116811461407e57600080fd5b9550602087013567ffffffffffffffff8082111561409b57600080fd5b818901915089601f8301126140af57600080fd5b8135818111156140c1576140c161402d565b604051601f8201601f19908116603f011681019083821181831017156140e9576140e961402d565b816040528281528c602084870101111561410257600080fd5b8260208601602083013760006020848301015280995050505060408901359550606089013591508082111561413657600080fd5b5061414389828a01613de2565b9094509250614156905060808801614043565b90509295509295509295565b60006020828403121561417457600080fd5b8135613b2d81613c85565b6000806040838503121561419257600080fd5b825161419d81613c85565b6020939093015192949293505050565b6020808252818101527f4f776e61626c653a2063616c6c6572206973206e6f7420746865206f776e6572604082015260600190565b6020808252600f908201526e109a59d0985b99ce881c185d5cd959608a1b604082015260600190565b60006020828403121561421d57600080fd5b8151613b2d81613c85565b60006020828403121561423a57600080fd5b5051919050565b634e487b7160e01b600052601160045260246000fd5b6000821982111561426a5761426a614241565b500190565b60006020828403121561428157600080fd5b8151613b2d81613c6d565b9485526001600160a01b0393841660208601529190921660408401526060830191909152608082015260a00190565b600080604083850312156142ce57600080fd5b505080516020909101519092909150565b6001600160a01b0394851681529290931660208301526040820152606081019190915260800190565b6020808252825182820181905260009190848201906040850190845b818110156143495783516001600160a01b031683529284019291840191600101614324565b50909695505050505050565b86815285602082015284604082015260018060a01b038416606082015282608082015260c060a0820152600061438e60c0830184613fcd565b98975050505050505050565b602080825260129082015271109a59d0985b99ce881b9bdd081d985b1a5960721b604082015260600190565b60008060008060008060008060006101208a8c0312156143e557600080fd5b89356143f081613c6d565b985060208a013561440081613c6d565b975060408a0135965060608a013561441781613c6d565b989b979a50959860808101359760a0820135975060c0820135965060e08201359550610100909101359350915050565b600181811c9082168061445b57607f821691505b6020821081141561447c57634e487b7160e01b600052602260045260246000fd5b50919050565b600081600019048311821515161561449c5761449c614241565b500290565b6000826144be57634e487b7160e01b600052601260045260246000fd5b500490565b6000828210156144d5576144d5614241565b500390565b600060018060a01b03808b16835261ffff8a16602084015260e0604084015261450660e084018a613fcd565b886060850152818816608085015281871660a085015283810360c0850152848152848660208301376000602086830101526020601f19601f870116820101925050509998505050505050505050565b60006001600160801b0380831681851680830382111561457757614577614241565b01949350505050565b634e487b7160e01b600052603260045260246000fd5b60006000198214156145aa576145aa614241565b5060010190565b60006001600160801b03838116908316818110156145d1576145d1614241565b03939250505056fea2646970667358221220ab06eca6c3094289029fca6e75185b64f2f38178b5faf958753a148f0bf78b1164736f6c63430008090033",
  "devdoc": {
    "kind": "dev",
    "methods": {
      "addCollateral(address,address,bool,uint256)": {
        "params": {
          "from": "Account to transfer shares from.",
          "share": "The amount of shares to add for `to`.",
          "skim": "True if the amount should be skimmed from the deposit balance of msg.sender. False if tokens from msg.sender in `yieldBox` should be transferred.",
          "to": "The receiver of the tokens."
        }
      },
      "borrow(address,address,uint256)": {
        "params": {
          "amount": "Amount to borrow.",
          "from": "Account to borrow for.",
          "to": "The receiver of borrowed tokens."
        },
        "returns": {
          "part": "Total part of the debt held by borrowers.",
          "share": "Total amount in shares borrowed."
        }
      },
      "liquidate(address[],uint256[],address,bytes)": {
        "params": {
          "collateralToAssetSwapData": "Extra swap data",
          "maxBorrowParts": "A one-to-one mapping to `users`, contains maximum (partial) borrow amounts (to liquidate) of the respective user.",
          "swapper": "Contract address of the `MultiSwapper` implementation. See `setSwapper`.",
          "users": "An array of user addresses."
        }
      },
      "removeCollateral(address,address,uint256)": {
        "params": {
          "from": "Account to debit collateral from.",
          "share": "Amount of shares to remove.",
          "to": "The receiver of the shares."
        }
      },
      "repay(address,address,uint256)": {
        "params": {
          "from": "Address to repay from.",
          "part": "The amount to repay. See `userBorrowPart`.",
          "to": "Address of the user this payment should go."
        },
        "returns": {
          "amount": "The total amount repayed."
        }
      },
      "setCallerFee(uint256)": {
        "details": "can only be called by the owner",
        "params": {
          "_val": "the new value"
        }
      },
      "setCollateralizationRate(uint256)": {
        "details": "can only be called by the owner",
        "params": {
          "_val": "the new value"
        }
      },
      "setConservator(address)": {
        "details": "Conservator can pause the contract",
        "params": {
          "_conservator": "The new address"
        }
      },
      "setProtocolFee(uint256)": {
        "details": "can only be called by the owner",
        "params": {
          "_val": "the new value"
        }
      },
      "transferOwnership(address,bool,bool)": {
        "params": {
          "direct": "True if `newOwner` should be set immediately. False if `newOwner` needs to use `claimOwnership`.",
          "newOwner": "Address of the new owner.",
          "renounce": "Allows the `newOwner` to be `address(0)` if `direct` and `renounce` is True. Has no effect otherwise."
        }
      },
      "updateBorrowingFee(uint256)": {
        "params": {
          "_borrowingFee": "the new value"
        }
      },
      "updateExchangeRate()": {
        "details": "This function is supposed to be invoked if needed because Oracle queries can be expensive.      Oracle should consider USD0 at 1$",
        "returns": {
          "rate": "The new exchange rate.",
          "updated": "True if `exchangeRate` was updated."
        }
      },
      "updateOperator(address,bool)": {
        "params": {
          "status": "true/false"
        }
      },
      "updatePause(bool)": {
        "params": {
          "val": "the new value"
        }
      }
    },
    "version": 1
  },
  "userdoc": {
    "kind": "user",
    "methods": {
      "accrue()": {
        "notice": "Accrues the interest on the borrowed tokens and handles the accumulation of fees."
      },
      "addCollateral(address,address,bool,uint256)": {
        "notice": "Adds `collateral` from msg.sender to the account `to`."
      },
      "borrow(address,address,uint256)": {
        "notice": "Sender borrows `amount` and transfers it to `to`."
      },
      "claimOwnership()": {
        "notice": "Needs to be called by `pendingOwner` to claim ownership."
      },
      "depositFeesToYieldBox(address,(uint256))": {
        "notice": "Withdraw the balance of `feeTo`, swap asset into TAP and deposit it to yieldBox of `feeTo`"
      },
      "exchangeRate()": {
        "notice": "Exchange and interest rate tracking. This is 'cached' here because calls to Oracles can be very expensive. Asset -> collateral = assetAmount * exchangeRate."
      },
      "getDebtRate()": {
        "notice": "returns the current debt rate"
      },
      "getTotalDebt()": {
        "notice": "returns total market debt"
      },
      "init(bytes)": {
        "notice": "The init function that acts as a constructor"
      },
      "liquidate(address[],uint256[],address,bytes)": {
        "notice": "Entry point for liquidations."
      },
      "removeCollateral(address,address,uint256)": {
        "notice": "Removes `share` amount of collateral and transfers it to `to`."
      },
      "repay(address,address,uint256)": {
        "notice": "Repays a loan."
      },
      "setBorrowCap(uint256)": {
        "notice": "sets max borrowable amount"
      },
      "setCallerFee(uint256)": {
        "notice": "sets the caller fee"
      },
      "setCollateralizationRate(uint256)": {
        "notice": "sets the collateralization rate"
      },
      "setConservator(address)": {
        "notice": "Set the Conservator address"
      },
      "setProtocolFee(uint256)": {
        "notice": "sets the protocol fee"
      },
      "transferOwnership(address,bool,bool)": {
        "notice": "Transfers ownership to `newOwner`. Either directly or claimable by the new pending owner. Can only be invoked by the current `owner`."
      },
      "updateBorrowingFee(uint256)": {
        "notice": "Updates the borrowing fee"
      },
      "updateExchangeRate()": {
        "notice": "Gets the exchange rate. I.e how much collateral to buy 1e18 asset."
      },
      "updateOperator(address,bool)": {
        "notice": "allows 'operator' to act on behalf of the sender"
      },
      "updatePause(bool)": {
        "notice": "updates the pause state of the contract"
      },
      "withdrawTo(uint16,bytes,uint256,bytes,address)": {
        "notice": "Withdraw to another layer"
      }
    },
    "version": 1
  },
  "storageLayout": {
    "storage": [
      {
        "astId": 233,
        "contract": "contracts/usd0/BigBang.sol:BigBang",
        "label": "owner",
        "offset": 0,
        "slot": "0",
        "type": "t_address"
      },
      {
        "astId": 235,
        "contract": "contracts/usd0/BigBang.sol:BigBang",
        "label": "pendingOwner",
        "offset": 0,
        "slot": "1",
        "type": "t_address"
      },
      {
        "astId": 17969,
        "contract": "contracts/usd0/BigBang.sol:BigBang",
        "label": "operators",
        "offset": 0,
        "slot": "2",
        "type": "t_mapping(t_address,t_mapping(t_address,t_bool))"
      },
      {
        "astId": 17972,
        "contract": "contracts/usd0/BigBang.sol:BigBang",
        "label": "accrueInfo",
        "offset": 0,
        "slot": "3",
        "type": "t_struct(AccrueInfo)20007_storage"
      },
      {
        "astId": 17975,
        "contract": "contracts/usd0/BigBang.sol:BigBang",
        "label": "penrose",
        "offset": 0,
        "slot": "4",
        "type": "t_contract(IPenrose)5938"
      },
      {
        "astId": 17978,
        "contract": "contracts/usd0/BigBang.sol:BigBang",
        "label": "yieldBox",
        "offset": 0,
        "slot": "5",
        "type": "t_contract(YieldBox)30583"
      },
      {
        "astId": 17981,
        "contract": "contracts/usd0/BigBang.sol:BigBang",
        "label": "collateral",
        "offset": 0,
        "slot": "6",
        "type": "t_contract(IERC20)1099"
      },
      {
        "astId": 17984,
        "contract": "contracts/usd0/BigBang.sol:BigBang",
        "label": "asset",
        "offset": 0,
        "slot": "7",
        "type": "t_contract(IUSD0)20000"
      },
      {
        "astId": 17986,
        "contract": "contracts/usd0/BigBang.sol:BigBang",
        "label": "collateralId",
        "offset": 0,
        "slot": "8",
        "type": "t_uint256"
      },
      {
        "astId": 17988,
        "contract": "contracts/usd0/BigBang.sol:BigBang",
        "label": "assetId",
        "offset": 0,
        "slot": "9",
        "type": "t_uint256"
      },
      {
        "astId": 17990,
        "contract": "contracts/usd0/BigBang.sol:BigBang",
        "label": "totalCollateralShare",
        "offset": 0,
        "slot": "10",
        "type": "t_uint256"
      },
      {
        "astId": 17993,
        "contract": "contracts/usd0/BigBang.sol:BigBang",
        "label": "totalBorrow",
        "offset": 0,
        "slot": "11",
        "type": "t_struct(Rebase)1874_storage"
      },
      {
        "astId": 17995,
        "contract": "contracts/usd0/BigBang.sol:BigBang",
        "label": "totalBorrowCap",
        "offset": 0,
        "slot": "12",
        "type": "t_uint256"
      },
      {
        "astId": 17999,
        "contract": "contracts/usd0/BigBang.sol:BigBang",
        "label": "userCollateralShare",
        "offset": 0,
        "slot": "13",
        "type": "t_mapping(t_address,t_uint256)"
      },
      {
        "astId": 18003,
        "contract": "contracts/usd0/BigBang.sol:BigBang",
        "label": "userBorrowPart",
        "offset": 0,
        "slot": "14",
        "type": "t_mapping(t_address,t_uint256)"
      },
      {
        "astId": 18009,
        "contract": "contracts/usd0/BigBang.sol:BigBang",
        "label": "isApprovedForAll",
        "offset": 0,
        "slot": "15",
        "type": "t_mapping(t_address,t_mapping(t_address,t_bool))"
      },
      {
        "astId": 18012,
        "contract": "contracts/usd0/BigBang.sol:BigBang",
        "label": "exchangeRate",
        "offset": 0,
        "slot": "16",
        "type": "t_uint256"
      },
      {
        "astId": 18014,
        "contract": "contracts/usd0/BigBang.sol:BigBang",
        "label": "borrowingFee",
        "offset": 0,
        "slot": "17",
        "type": "t_uint256"
      },
      {
        "astId": 18017,
        "contract": "contracts/usd0/BigBang.sol:BigBang",
        "label": "oracle",
        "offset": 0,
        "slot": "18",
        "type": "t_contract(IOracle)5862"
      },
      {
        "astId": 18019,
        "contract": "contracts/usd0/BigBang.sol:BigBang",
        "label": "oracleData",
        "offset": 0,
        "slot": "19",
        "type": "t_bytes_storage"
      },
      {
        "astId": 18021,
        "contract": "contracts/usd0/BigBang.sol:BigBang",
        "label": "callerFee",
        "offset": 0,
        "slot": "20",
        "type": "t_uint256"
      },
      {
        "astId": 18023,
        "contract": "contracts/usd0/BigBang.sol:BigBang",
        "label": "protocolFee",
        "offset": 0,
        "slot": "21",
        "type": "t_uint256"
      },
      {
        "astId": 18025,
        "contract": "contracts/usd0/BigBang.sol:BigBang",
        "label": "collateralizationRate",
        "offset": 0,
        "slot": "22",
        "type": "t_uint256"
      },
      {
        "astId": 18027,
        "contract": "contracts/usd0/BigBang.sol:BigBang",
        "label": "totalFees",
        "offset": 0,
        "slot": "23",
        "type": "t_uint256"
      },
      {
        "astId": 18029,
        "contract": "contracts/usd0/BigBang.sol:BigBang",
        "label": "paused",
        "offset": 0,
        "slot": "24",
        "type": "t_bool"
      },
      {
        "astId": 18031,
        "contract": "contracts/usd0/BigBang.sol:BigBang",
        "label": "conservator",
        "offset": 1,
        "slot": "24",
        "type": "t_address"
      },
      {
        "astId": 18033,
        "contract": "contracts/usd0/BigBang.sol:BigBang",
        "label": "_isEthMarket",
        "offset": 21,
        "slot": "24",
        "type": "t_bool"
      },
      {
        "astId": 18035,
        "contract": "contracts/usd0/BigBang.sol:BigBang",
        "label": "maxDebtRate",
        "offset": 0,
        "slot": "25",
        "type": "t_uint256"
      },
      {
        "astId": 18037,
        "contract": "contracts/usd0/BigBang.sol:BigBang",
        "label": "minDebtRate",
        "offset": 0,
        "slot": "26",
        "type": "t_uint256"
      },
      {
        "astId": 18039,
        "contract": "contracts/usd0/BigBang.sol:BigBang",
        "label": "debtRateAgainstEthMarket",
        "offset": 0,
        "slot": "27",
        "type": "t_uint256"
      },
      {
        "astId": 18041,
        "contract": "contracts/usd0/BigBang.sol:BigBang",
        "label": "debtStartPoint",
        "offset": 0,
        "slot": "28",
        "type": "t_uint256"
      },
      {
        "astId": 18162,
        "contract": "contracts/usd0/BigBang.sol:BigBang",
        "label": "EXCHANGE_RATE_PRECISION",
        "offset": 0,
        "slot": "29",
        "type": "t_uint256"
      },
      {
        "astId": 18222,
        "contract": "contracts/usd0/BigBang.sol:BigBang",
        "label": "initialized",
        "offset": 0,
        "slot": "30",
        "type": "t_bool"
      }
    ],
    "types": {
      "t_address": {
        "encoding": "inplace",
        "label": "address",
        "numberOfBytes": "20"
      },
      "t_bool": {
        "encoding": "inplace",
        "label": "bool",
        "numberOfBytes": "1"
      },
      "t_bytes_storage": {
        "encoding": "bytes",
        "label": "bytes",
        "numberOfBytes": "32"
      },
      "t_contract(IERC20)1099": {
        "encoding": "inplace",
        "label": "contract IERC20",
        "numberOfBytes": "20"
      },
      "t_contract(IOracle)5862": {
        "encoding": "inplace",
        "label": "contract IOracle",
        "numberOfBytes": "20"
      },
      "t_contract(IPenrose)5938": {
        "encoding": "inplace",
        "label": "contract IPenrose",
        "numberOfBytes": "20"
      },
      "t_contract(IUSD0)20000": {
        "encoding": "inplace",
        "label": "contract IUSD0",
        "numberOfBytes": "20"
      },
      "t_contract(YieldBox)30583": {
        "encoding": "inplace",
        "label": "contract YieldBox",
        "numberOfBytes": "20"
      },
      "t_mapping(t_address,t_bool)": {
        "encoding": "mapping",
        "key": "t_address",
        "label": "mapping(address => bool)",
        "numberOfBytes": "32",
        "value": "t_bool"
      },
      "t_mapping(t_address,t_mapping(t_address,t_bool))": {
        "encoding": "mapping",
        "key": "t_address",
        "label": "mapping(address => mapping(address => bool))",
        "numberOfBytes": "32",
        "value": "t_mapping(t_address,t_bool)"
      },
      "t_mapping(t_address,t_uint256)": {
        "encoding": "mapping",
        "key": "t_address",
        "label": "mapping(address => uint256)",
        "numberOfBytes": "32",
        "value": "t_uint256"
      },
      "t_struct(AccrueInfo)20007_storage": {
        "encoding": "inplace",
        "label": "struct IBigBang.AccrueInfo",
        "members": [
          {
            "astId": 20004,
            "contract": "contracts/usd0/BigBang.sol:BigBang",
            "label": "debtRate",
            "offset": 0,
            "slot": "0",
            "type": "t_uint64"
          },
          {
            "astId": 20006,
            "contract": "contracts/usd0/BigBang.sol:BigBang",
            "label": "lastAccrued",
            "offset": 8,
            "slot": "0",
            "type": "t_uint64"
          }
        ],
        "numberOfBytes": "32"
      },
      "t_struct(Rebase)1874_storage": {
        "encoding": "inplace",
        "label": "struct Rebase",
        "members": [
          {
            "astId": 1871,
            "contract": "contracts/usd0/BigBang.sol:BigBang",
            "label": "elastic",
            "offset": 0,
            "slot": "0",
            "type": "t_uint128"
          },
          {
            "astId": 1873,
            "contract": "contracts/usd0/BigBang.sol:BigBang",
            "label": "base",
            "offset": 16,
            "slot": "0",
            "type": "t_uint128"
          }
        ],
        "numberOfBytes": "32"
      },
      "t_uint128": {
        "encoding": "inplace",
        "label": "uint128",
        "numberOfBytes": "16"
      },
      "t_uint256": {
        "encoding": "inplace",
        "label": "uint256",
        "numberOfBytes": "32"
      },
      "t_uint64": {
        "encoding": "inplace",
        "label": "uint64",
        "numberOfBytes": "8"
      }
    }
  }
}