{
  "address": "0x1A316567bEBB66CB7ACe819c4B1e31b20519D54B",
  "abi": [
    {
      "inputs": [
        {
          "internalType": "address",
          "name": "_from",
          "type": "address"
        },
        {
          "internalType": "address",
          "name": "_operator",
          "type": "address"
        }
      ],
      "name": "NotApproved",
      "type": "error"
    },
    {
      "anonymous": false,
      "inputs": [
        {
          "indexed": true,
          "internalType": "address",
          "name": "old",
          "type": "address"
        },
        {
          "indexed": true,
          "internalType": "address",
          "name": "_new",
          "type": "address"
        }
      ],
      "name": "ConservatorUpdated",
      "type": "event"
    },
    {
      "anonymous": false,
      "inputs": [
        {
          "indexed": false,
          "internalType": "uint256",
          "name": "accruedAmount",
          "type": "uint256"
        },
        {
          "indexed": false,
          "internalType": "uint64",
          "name": "rate",
          "type": "uint64"
        }
      ],
      "name": "LogAccrue",
      "type": "event"
    },
    {
      "anonymous": false,
      "inputs": [
        {
          "indexed": true,
          "internalType": "address",
          "name": "from",
          "type": "address"
        },
        {
          "indexed": true,
          "internalType": "address",
          "name": "to",
          "type": "address"
        },
        {
          "indexed": false,
          "internalType": "uint256",
          "name": "share",
          "type": "uint256"
        }
      ],
      "name": "LogAddCollateral",
      "type": "event"
    },
    {
      "anonymous": false,
      "inputs": [
        {
          "indexed": true,
          "internalType": "address",
          "name": "_from",
          "type": "address"
        },
        {
          "indexed": true,
          "internalType": "address",
          "name": "_operator",
          "type": "address"
        },
        {
          "indexed": false,
          "internalType": "bool",
          "name": "_approved",
          "type": "bool"
        }
      ],
      "name": "LogApprovalForAll",
      "type": "event"
    },
    {
      "anonymous": false,
      "inputs": [
        {
          "indexed": true,
          "internalType": "address",
          "name": "from",
          "type": "address"
        },
        {
          "indexed": true,
          "internalType": "address",
          "name": "to",
          "type": "address"
        },
        {
          "indexed": false,
          "internalType": "uint256",
          "name": "amount",
          "type": "uint256"
        },
        {
          "indexed": false,
          "internalType": "uint256",
          "name": "feeAmount",
          "type": "uint256"
        },
        {
          "indexed": false,
          "internalType": "uint256",
          "name": "part",
          "type": "uint256"
        }
      ],
      "name": "LogBorrow",
      "type": "event"
    },
    {
      "anonymous": false,
      "inputs": [
        {
          "indexed": false,
          "internalType": "uint256",
          "name": "_oldVal",
          "type": "uint256"
        },
        {
          "indexed": false,
          "internalType": "uint256",
          "name": "_newVal",
          "type": "uint256"
        }
      ],
      "name": "LogBorrowCapUpdated",
      "type": "event"
    },
    {
      "anonymous": false,
      "inputs": [
        {
          "indexed": false,
          "internalType": "uint256",
          "name": "_oldVal",
          "type": "uint256"
        },
        {
          "indexed": false,
          "internalType": "uint256",
          "name": "_newVal",
          "type": "uint256"
        }
      ],
      "name": "LogBorrowingFee",
      "type": "event"
    },
    {
      "anonymous": false,
      "inputs": [
        {
          "indexed": false,
          "internalType": "uint256",
          "name": "rate",
          "type": "uint256"
        }
      ],
      "name": "LogExchangeRate",
      "type": "event"
    },
    {
      "anonymous": false,
      "inputs": [
        {
          "indexed": true,
          "internalType": "address",
          "name": "from",
          "type": "address"
        },
        {
          "indexed": true,
          "internalType": "address",
          "name": "to",
          "type": "address"
        },
        {
          "indexed": false,
          "internalType": "uint256",
          "name": "share",
          "type": "uint256"
        }
      ],
      "name": "LogRemoveCollateral",
      "type": "event"
    },
    {
      "anonymous": false,
      "inputs": [
        {
          "indexed": true,
          "internalType": "address",
          "name": "from",
          "type": "address"
        },
        {
          "indexed": true,
          "internalType": "address",
          "name": "to",
          "type": "address"
        },
        {
          "indexed": false,
          "internalType": "uint256",
          "name": "amount",
          "type": "uint256"
        },
        {
          "indexed": false,
          "internalType": "uint256",
          "name": "part",
          "type": "uint256"
        }
      ],
      "name": "LogRepay",
      "type": "event"
    },
    {
      "anonymous": false,
      "inputs": [
        {
          "indexed": false,
          "internalType": "uint256",
          "name": "_oldFee",
          "type": "uint256"
        },
        {
          "indexed": false,
          "internalType": "uint256",
          "name": "_newFee",
          "type": "uint256"
        }
      ],
      "name": "LogStabilityFee",
      "type": "event"
    },
    {
      "anonymous": false,
      "inputs": [
        {
          "indexed": true,
          "internalType": "address",
          "name": "feeTo",
          "type": "address"
        },
        {
          "indexed": false,
          "internalType": "uint256",
          "name": "feesEarned",
          "type": "uint256"
        }
      ],
      "name": "LogWithdrawFees",
      "type": "event"
    },
    {
      "anonymous": false,
      "inputs": [
        {
          "indexed": false,
          "internalType": "uint256",
          "name": "feeShares",
          "type": "uint256"
        },
        {
          "indexed": false,
          "internalType": "uint256",
          "name": "tapAmount",
          "type": "uint256"
        }
      ],
      "name": "LogYieldBoxFeesDeposit",
      "type": "event"
    },
    {
      "anonymous": false,
      "inputs": [
        {
          "indexed": true,
          "internalType": "address",
          "name": "previousOwner",
          "type": "address"
        },
        {
          "indexed": true,
          "internalType": "address",
          "name": "newOwner",
          "type": "address"
        }
      ],
      "name": "OwnershipTransferred",
      "type": "event"
    },
    {
      "anonymous": false,
      "inputs": [
        {
          "indexed": false,
          "internalType": "bool",
          "name": "oldState",
          "type": "bool"
        },
        {
          "indexed": false,
          "internalType": "bool",
          "name": "newState",
          "type": "bool"
        }
      ],
      "name": "PausedUpdated",
      "type": "event"
    },
    {
      "inputs": [],
      "name": "accrue",
      "outputs": [],
      "stateMutability": "nonpayable",
      "type": "function"
    },
    {
      "inputs": [],
      "name": "accrueInfo",
      "outputs": [
        {
          "internalType": "uint64",
          "name": "debtRate",
          "type": "uint64"
        },
        {
          "internalType": "uint64",
          "name": "lastAccrued",
          "type": "uint64"
        }
      ],
      "stateMutability": "view",
      "type": "function"
    },
    {
      "inputs": [
        {
          "internalType": "address",
          "name": "from",
          "type": "address"
        },
        {
          "internalType": "address",
          "name": "to",
          "type": "address"
        },
        {
          "internalType": "bool",
          "name": "skim",
          "type": "bool"
        },
        {
          "internalType": "uint256",
          "name": "share",
          "type": "uint256"
        }
      ],
      "name": "addCollateral",
      "outputs": [],
      "stateMutability": "nonpayable",
      "type": "function"
    },
    {
      "inputs": [],
      "name": "asset",
      "outputs": [
        {
          "internalType": "contract IUSD0",
          "name": "",
          "type": "address"
        }
      ],
      "stateMutability": "view",
      "type": "function"
    },
    {
      "inputs": [],
      "name": "assetId",
      "outputs": [
        {
          "internalType": "uint256",
          "name": "",
          "type": "uint256"
        }
      ],
      "stateMutability": "view",
      "type": "function"
    },
    {
      "inputs": [
        {
          "internalType": "address",
          "name": "from",
          "type": "address"
        },
        {
          "internalType": "address",
          "name": "to",
          "type": "address"
        },
        {
          "internalType": "uint256",
          "name": "amount",
          "type": "uint256"
        }
      ],
      "name": "borrow",
      "outputs": [
        {
          "internalType": "uint256",
          "name": "part",
          "type": "uint256"
        },
        {
          "internalType": "uint256",
          "name": "share",
          "type": "uint256"
        }
      ],
      "stateMutability": "nonpayable",
      "type": "function"
    },
    {
      "inputs": [],
      "name": "borrowingFee",
      "outputs": [
        {
          "internalType": "uint256",
          "name": "",
          "type": "uint256"
        }
      ],
      "stateMutability": "view",
      "type": "function"
    },
    {
      "inputs": [],
      "name": "callerFee",
      "outputs": [
        {
          "internalType": "uint256",
          "name": "",
          "type": "uint256"
        }
      ],
      "stateMutability": "view",
      "type": "function"
    },
    {
      "inputs": [],
      "name": "claimOwnership",
      "outputs": [],
      "stateMutability": "nonpayable",
      "type": "function"
    },
    {
      "inputs": [],
      "name": "collateral",
      "outputs": [
        {
          "internalType": "contract IERC20",
          "name": "",
          "type": "address"
        }
      ],
      "stateMutability": "view",
      "type": "function"
    },
    {
      "inputs": [],
      "name": "collateralId",
      "outputs": [
        {
          "internalType": "uint256",
          "name": "",
          "type": "uint256"
        }
      ],
      "stateMutability": "view",
      "type": "function"
    },
    {
      "inputs": [],
      "name": "collateralizationRate",
      "outputs": [
        {
          "internalType": "uint256",
          "name": "",
          "type": "uint256"
        }
      ],
      "stateMutability": "view",
      "type": "function"
    },
    {
      "inputs": [
        {
          "internalType": "address",
          "name": "user",
          "type": "address"
        },
        {
          "internalType": "uint256",
          "name": "_exchangeRate",
          "type": "uint256"
        }
      ],
      "name": "computeClosingFactor",
      "outputs": [
        {
          "internalType": "uint256",
          "name": "",
          "type": "uint256"
        }
      ],
      "stateMutability": "view",
      "type": "function"
    },
    {
      "inputs": [
        {
          "internalType": "address",
          "name": "user",
          "type": "address"
        },
        {
          "internalType": "uint256",
          "name": "_exchangeRate",
          "type": "uint256"
        }
      ],
      "name": "computeLiquidatorReward",
      "outputs": [
        {
          "internalType": "uint256",
          "name": "",
          "type": "uint256"
        }
      ],
      "stateMutability": "view",
      "type": "function"
    },
    {
      "inputs": [
        {
          "internalType": "address",
          "name": "user",
          "type": "address"
        },
        {
          "internalType": "uint256",
          "name": "_exchangeRate",
          "type": "uint256"
        }
      ],
      "name": "computeTVLInfo",
      "outputs": [
        {
          "internalType": "uint256",
          "name": "amountToSolvency",
          "type": "uint256"
        },
        {
          "internalType": "uint256",
          "name": "minTVL",
          "type": "uint256"
        },
        {
          "internalType": "uint256",
          "name": "maxTVL",
          "type": "uint256"
        }
      ],
      "stateMutability": "view",
      "type": "function"
    },
    {
      "inputs": [],
      "name": "conservator",
      "outputs": [
        {
          "internalType": "address",
          "name": "",
          "type": "address"
        }
      ],
      "stateMutability": "view",
      "type": "function"
    },
    {
      "inputs": [],
      "name": "debtRateAgainstEthMarket",
      "outputs": [
        {
          "internalType": "uint256",
          "name": "",
          "type": "uint256"
        }
      ],
      "stateMutability": "view",
      "type": "function"
    },
    {
      "inputs": [],
      "name": "debtStartPoint",
      "outputs": [
        {
          "internalType": "uint256",
          "name": "",
          "type": "uint256"
        }
      ],
      "stateMutability": "view",
      "type": "function"
    },
    {
      "inputs": [
        {
          "internalType": "contract ISwapper",
          "name": "swapper",
          "type": "address"
        },
        {
          "components": [
            {
              "internalType": "uint256",
              "name": "minAssetAmount",
              "type": "uint256"
            }
          ],
          "internalType": "struct IPenrose.SwapData",
          "name": "swapData",
          "type": "tuple"
        }
      ],
      "name": "depositFeesToYieldBox",
      "outputs": [],
      "stateMutability": "nonpayable",
      "type": "function"
    },
    {
      "inputs": [],
      "name": "exchangeRate",
      "outputs": [
        {
          "internalType": "uint256",
          "name": "",
          "type": "uint256"
        }
      ],
      "stateMutability": "view",
      "type": "function"
    },
    {
      "inputs": [
        {
          "internalType": "bytes[]",
          "name": "calls",
          "type": "bytes[]"
        },
        {
          "internalType": "bool",
          "name": "revertOnFail",
          "type": "bool"
        }
      ],
      "name": "execute",
      "outputs": [
        {
          "internalType": "bool[]",
          "name": "successes",
          "type": "bool[]"
        },
        {
          "internalType": "string[]",
          "name": "results",
          "type": "string[]"
        }
      ],
      "stateMutability": "nonpayable",
      "type": "function"
    },
    {
      "inputs": [],
      "name": "getDebtRate",
      "outputs": [
        {
          "internalType": "uint256",
          "name": "",
          "type": "uint256"
        }
      ],
      "stateMutability": "view",
      "type": "function"
    },
    {
      "inputs": [],
      "name": "getTotalDebt",
      "outputs": [
        {
          "internalType": "uint256",
          "name": "",
          "type": "uint256"
        }
      ],
      "stateMutability": "view",
      "type": "function"
    },
    {
      "inputs": [
        {
          "internalType": "bytes",
          "name": "data",
          "type": "bytes"
        }
      ],
      "name": "init",
      "outputs": [],
      "stateMutability": "nonpayable",
      "type": "function"
    },
    {
      "inputs": [
        {
          "internalType": "address",
          "name": "",
          "type": "address"
        },
        {
          "internalType": "address",
          "name": "",
          "type": "address"
        }
      ],
      "name": "isApprovedForAll",
      "outputs": [
        {
          "internalType": "bool",
          "name": "",
          "type": "bool"
        }
      ],
      "stateMutability": "view",
      "type": "function"
    },
    {
      "inputs": [
        {
          "internalType": "address[]",
          "name": "users",
          "type": "address[]"
        },
        {
          "internalType": "uint256[]",
          "name": "maxBorrowParts",
          "type": "uint256[]"
        },
        {
          "internalType": "contract ISwapper",
          "name": "swapper",
          "type": "address"
        },
        {
          "internalType": "bytes",
          "name": "collateralToAssetSwapData",
          "type": "bytes"
        }
      ],
      "name": "liquidate",
      "outputs": [],
      "stateMutability": "nonpayable",
      "type": "function"
    },
    {
      "inputs": [],
      "name": "liquidationBonusAmount",
      "outputs": [
        {
          "internalType": "uint256",
          "name": "",
          "type": "uint256"
        }
      ],
      "stateMutability": "view",
      "type": "function"
    },
    {
      "inputs": [],
      "name": "maxDebtRate",
      "outputs": [
        {
          "internalType": "uint256",
          "name": "",
          "type": "uint256"
        }
      ],
      "stateMutability": "view",
      "type": "function"
    },
    {
      "inputs": [],
      "name": "maxLiquidatorReward",
      "outputs": [
        {
          "internalType": "uint256",
          "name": "",
          "type": "uint256"
        }
      ],
      "stateMutability": "view",
      "type": "function"
    },
    {
      "inputs": [],
      "name": "minDebtRate",
      "outputs": [
        {
          "internalType": "uint256",
          "name": "",
          "type": "uint256"
        }
      ],
      "stateMutability": "view",
      "type": "function"
    },
    {
      "inputs": [],
      "name": "minLiquidatorReward",
      "outputs": [
        {
          "internalType": "uint256",
          "name": "",
          "type": "uint256"
        }
      ],
      "stateMutability": "view",
      "type": "function"
    },
    {
      "inputs": [
        {
          "internalType": "address",
          "name": "",
          "type": "address"
        },
        {
          "internalType": "address",
          "name": "",
          "type": "address"
        }
      ],
      "name": "operators",
      "outputs": [
        {
          "internalType": "bool",
          "name": "",
          "type": "bool"
        }
      ],
      "stateMutability": "view",
      "type": "function"
    },
    {
      "inputs": [],
      "name": "oracleData",
      "outputs": [
        {
          "internalType": "bytes",
          "name": "",
          "type": "bytes"
        }
      ],
      "stateMutability": "view",
      "type": "function"
    },
    {
      "inputs": [],
      "name": "owner",
      "outputs": [
        {
          "internalType": "address",
          "name": "",
          "type": "address"
        }
      ],
      "stateMutability": "view",
      "type": "function"
    },
    {
      "inputs": [],
      "name": "paused",
      "outputs": [
        {
          "internalType": "bool",
          "name": "",
          "type": "bool"
        }
      ],
      "stateMutability": "view",
      "type": "function"
    },
    {
      "inputs": [],
      "name": "pendingOwner",
      "outputs": [
        {
          "internalType": "address",
          "name": "",
          "type": "address"
        }
      ],
      "stateMutability": "view",
      "type": "function"
    },
    {
      "inputs": [],
      "name": "penrose",
      "outputs": [
        {
          "internalType": "contract IPenrose",
          "name": "",
          "type": "address"
        }
      ],
      "stateMutability": "view",
      "type": "function"
    },
    {
      "inputs": [],
      "name": "protocolFee",
      "outputs": [
        {
          "internalType": "uint256",
          "name": "",
          "type": "uint256"
        }
      ],
      "stateMutability": "view",
      "type": "function"
    },
    {
      "inputs": [
        {
          "internalType": "address",
          "name": "from",
          "type": "address"
        },
        {
          "internalType": "address",
          "name": "to",
          "type": "address"
        },
        {
          "internalType": "uint256",
          "name": "share",
          "type": "uint256"
        }
      ],
      "name": "removeCollateral",
      "outputs": [],
      "stateMutability": "nonpayable",
      "type": "function"
    },
    {
      "inputs": [
        {
          "internalType": "address",
          "name": "from",
          "type": "address"
        },
        {
          "internalType": "address",
          "name": "to",
          "type": "address"
        },
        {
          "internalType": "bool",
          "name": "",
          "type": "bool"
        },
        {
          "internalType": "uint256",
          "name": "part",
          "type": "uint256"
        }
      ],
      "name": "repay",
      "outputs": [
        {
          "internalType": "uint256",
          "name": "amount",
          "type": "uint256"
        }
      ],
      "stateMutability": "nonpayable",
      "type": "function"
    },
    {
      "inputs": [
        {
          "internalType": "uint256",
          "name": "_cap",
          "type": "uint256"
        }
      ],
      "name": "setBorrowCap",
      "outputs": [],
      "stateMutability": "nonpayable",
      "type": "function"
    },
    {
      "inputs": [
        {
          "internalType": "uint256",
          "name": "_val",
          "type": "uint256"
        }
      ],
      "name": "setCallerFee",
      "outputs": [],
      "stateMutability": "nonpayable",
      "type": "function"
    },
    {
      "inputs": [
        {
          "internalType": "uint256",
          "name": "_val",
          "type": "uint256"
        }
      ],
      "name": "setCollateralizationRate",
      "outputs": [],
      "stateMutability": "nonpayable",
      "type": "function"
    },
    {
      "inputs": [
        {
          "internalType": "address",
          "name": "_conservator",
          "type": "address"
        }
      ],
      "name": "setConservator",
      "outputs": [],
      "stateMutability": "nonpayable",
      "type": "function"
    },
    {
      "inputs": [
        {
          "internalType": "uint256",
          "name": "_val",
          "type": "uint256"
        }
      ],
      "name": "setLiquidationBonusAmount",
      "outputs": [],
      "stateMutability": "nonpayable",
      "type": "function"
    },
    {
      "inputs": [
        {
          "internalType": "uint256",
          "name": "_val",
          "type": "uint256"
        }
      ],
      "name": "setMaxLiquidatorReward",
      "outputs": [],
      "stateMutability": "nonpayable",
      "type": "function"
    },
    {
      "inputs": [
        {
          "internalType": "uint256",
          "name": "_val",
          "type": "uint256"
        }
      ],
      "name": "setMinLiquidatorReward",
      "outputs": [],
      "stateMutability": "nonpayable",
      "type": "function"
    },
    {
      "inputs": [
        {
          "internalType": "uint256",
          "name": "_val",
          "type": "uint256"
        }
      ],
      "name": "setProtocolFee",
      "outputs": [],
      "stateMutability": "nonpayable",
      "type": "function"
    },
    {
      "inputs": [],
      "name": "totalBorrow",
      "outputs": [
        {
          "internalType": "uint128",
          "name": "elastic",
          "type": "uint128"
        },
        {
          "internalType": "uint128",
          "name": "base",
          "type": "uint128"
        }
      ],
      "stateMutability": "view",
      "type": "function"
    },
    {
      "inputs": [],
      "name": "totalBorrowCap",
      "outputs": [
        {
          "internalType": "uint256",
          "name": "",
          "type": "uint256"
        }
      ],
      "stateMutability": "view",
      "type": "function"
    },
    {
      "inputs": [],
      "name": "totalCollateralShare",
      "outputs": [
        {
          "internalType": "uint256",
          "name": "",
          "type": "uint256"
        }
      ],
      "stateMutability": "view",
      "type": "function"
    },
    {
      "inputs": [],
      "name": "totalFees",
      "outputs": [
        {
          "internalType": "uint256",
          "name": "",
          "type": "uint256"
        }
      ],
      "stateMutability": "view",
      "type": "function"
    },
    {
      "inputs": [
        {
          "internalType": "address",
          "name": "newOwner",
          "type": "address"
        },
        {
          "internalType": "bool",
          "name": "direct",
          "type": "bool"
        },
        {
          "internalType": "bool",
          "name": "renounce",
          "type": "bool"
        }
      ],
      "name": "transferOwnership",
      "outputs": [],
      "stateMutability": "nonpayable",
      "type": "function"
    },
    {
      "inputs": [
        {
          "internalType": "uint256",
          "name": "_borrowingFee",
          "type": "uint256"
        }
      ],
      "name": "updateBorrowingFee",
      "outputs": [],
      "stateMutability": "nonpayable",
      "type": "function"
    },
    {
      "inputs": [],
      "name": "updateExchangeRate",
      "outputs": [
        {
          "internalType": "bool",
          "name": "updated",
          "type": "bool"
        },
        {
          "internalType": "uint256",
          "name": "rate",
          "type": "uint256"
        }
      ],
      "stateMutability": "nonpayable",
      "type": "function"
    },
    {
      "inputs": [
        {
          "internalType": "address",
          "name": "operator",
          "type": "address"
        },
        {
          "internalType": "bool",
          "name": "status",
          "type": "bool"
        }
      ],
      "name": "updateOperator",
      "outputs": [],
      "stateMutability": "nonpayable",
      "type": "function"
    },
    {
      "inputs": [
        {
          "internalType": "bool",
          "name": "val",
          "type": "bool"
        }
      ],
      "name": "updatePause",
      "outputs": [],
      "stateMutability": "nonpayable",
      "type": "function"
    },
    {
      "inputs": [
        {
          "internalType": "address",
          "name": "",
          "type": "address"
        }
      ],
      "name": "userBorrowPart",
      "outputs": [
        {
          "internalType": "uint256",
          "name": "",
          "type": "uint256"
        }
      ],
      "stateMutability": "view",
      "type": "function"
    },
    {
      "inputs": [
        {
          "internalType": "address",
          "name": "",
          "type": "address"
        }
      ],
      "name": "userCollateralShare",
      "outputs": [
        {
          "internalType": "uint256",
          "name": "",
          "type": "uint256"
        }
      ],
      "stateMutability": "view",
      "type": "function"
    },
    {
      "inputs": [
        {
          "internalType": "uint16",
          "name": "dstChainId",
          "type": "uint16"
        },
        {
          "internalType": "bytes32",
          "name": "receiver",
          "type": "bytes32"
        },
        {
          "internalType": "uint256",
          "name": "amount",
          "type": "uint256"
        },
        {
          "internalType": "bytes",
          "name": "adapterParams",
          "type": "bytes"
        },
        {
          "internalType": "address payable",
          "name": "refundAddress",
          "type": "address"
        }
      ],
      "name": "withdrawTo",
      "outputs": [],
      "stateMutability": "payable",
      "type": "function"
    },
    {
      "inputs": [],
      "name": "yieldBox",
      "outputs": [
        {
          "internalType": "contract YieldBox",
          "name": "",
          "type": "address"
        }
      ],
      "stateMutability": "view",
      "type": "function"
    }
  ],
  "transactionHash": "0x7db6aced30352bd56e4e4f0d18412e53bde2b0b1d08fef2ad737e92e00c58844",
  "args": [],
  "numDeployments": 1,
  "solcInputHash": "c119914891fc265cca39336c119b4e24",
  "bytecode": "0x60806040526103e8601d55612710601e55612710601f5534801561002257600080fd5b50600080546001600160a01b0319163390811782556040519091907f8be0079c531659141344cd1fd0a4f28419497f9722a3daafe3b4186f6b6457e0908290a36152ee806100716000396000f3fe6080604052600436106103a25760003560e01c806374645ff3116101e7578063c1ad5c8d1161010d578063e0996cb6116100a0578063f791395d1161006f578063f791395d14610b63578063f8974de014610b79578063f8ba4cff14610b99578063fa74f0b514610bae57600080fd5b8063e0996cb614610adc578063e30c397814610af2578063e985e9c514610b12578063eec0f42e14610b4d57600080fd5b8063d272bd09116100dc578063d272bd0914610a69578063d300bb7f14610a89578063d8dfeb4514610a9c578063de40657714610abc57600080fd5b8063c1ad5c8d146109ef578063cce19f8114610a04578063cd0211eb14610a24578063ce8849ed14610a4457600080fd5b806399a9702811610185578063b27c0e7411610154578063b27c0e7414610958578063b6b113d8146109a3578063bb4cfe3b146109c3578063bde39c5d146109d957600080fd5b806399a97028146108b95780639e15e89f146108d9578063aa7d966514610914578063b0e21e8a1461094257600080fd5b80638285ef40116101c15780638285ef40146108225780638377be501461086d5780638c5d0ed3146108835780638da5cb5b1461089957600080fd5b806374645ff3146107c0578063787dce3d146107e25780637a4d973b1461080257600080fd5b80633ba0b9a9116102cc5780635224372c1161026a5780636b19ad16116102395780636b19ad16146107175780636c3d8b8f1461072d5780636d44a3b21461074d578063717186d1146107a057600080fd5b80635224372c1461069257806353aa7dcd146106c757806357935462146106e75780635c975abb146106fd57600080fd5b8063473e3ce7116102a6578063473e3ce71461061a57806348e4163e146106305780634ddf47d41461065d5780634e71e0c81461067d57600080fd5b80633ba0b9a9146105d857806340626d8b146105ee57806344de240a1461060457600080fd5b8063224d763a116103445780632cc2470d116103135780632cc2470d1461054c57806334ce998a1461056c57806334d441d01461058a57806338d52e0f146105a057600080fd5b8063224d763a146104a157806325be7824146104c15780632637588e146104e15780632a685acd1461052c57600080fd5b806313114a9d1161038057806313114a9d1461041a5780631c9e379b1461043e5780631e35078e1461046b5780631fb8f81a1461048b57600080fd5b806302ce728f146103a7578063078dfbe7146103d85780630fde08e3146103fa575b600080fd5b3480156103b357600080fd5b506103bc610bce565b6040805192151583526020830191909152015b60405180910390f35b3480156103e457600080fd5b506103f86103f33660046146da565b610ca6565b005b34801561040657600080fd5b506103f8610415366004614725565b610dbe565b34801561042657600080fd5b5061043060175481565b6040519081526020016103cf565b34801561044a57600080fd5b50610430610459366004614766565b600d6020526000908152604090205481565b34801561047757600080fd5b506103f8610486366004614783565b611424565b34801561049757600080fd5b50610430601c5481565b3480156104ad57600080fd5b506103f86104bc366004614828565b611476565b3480156104cd57600080fd5b506103f86104dc3660046148d6565b6114c8565b3480156104ed57600080fd5b5061051c6104fc366004614927565b600260209081526000928352604080842090915290825290205460ff1681565b60405190151581526020016103cf565b34801561053857600080fd5b506103f8610547366004614783565b611612565b34801561055857600080fd5b506103f8610567366004614783565b611684565b34801561057857600080fd5b50600b546001600160801b0316610430565b34801561059657600080fd5b5061043060145481565b3480156105ac57600080fd5b506007546105c0906001600160a01b031681565b6040516001600160a01b0390911681526020016103cf565b3480156105e457600080fd5b5061043060105481565b3480156105fa57600080fd5b50610430600c5481565b34801561061057600080fd5b5061043060095481565b34801561062657600080fd5b50610430600a5481565b34801561063c57600080fd5b5061043061064b366004614766565b600e6020526000908152604090205481565b34801561066957600080fd5b506103f8610678366004614960565b611742565b34801561068957600080fd5b506103f8611b32565b34801561069e57600080fd5b506106b26106ad3660046149a1565b611bef565b604080519283526020830191909152016103cf565b3480156106d357600080fd5b506103f86106e2366004614783565b611d00565b3480156106f357600080fd5b50610430601e5481565b34801561070957600080fd5b5060185461051c9060ff1681565b34801561072357600080fd5b5061043060195481565b34801561073957600080fd5b506004546105c0906001600160a01b031681565b34801561075957600080fd5b506103f86107683660046149e2565b3360009081526002602090815260408083206001600160a01b0395909516835293905291909120805460ff1916911515919091179055565b3480156107ac57600080fd5b506103f86107bb366004614783565b611d52565b3480156107cc57600080fd5b506107d5611de0565b6040516103cf9190614a68565b3480156107ee57600080fd5b506103f86107fd366004614783565b611e6e565b34801561080e57600080fd5b506103f861081d366004614783565b611ec0565b34801561082e57600080fd5b50600b5461084d906001600160801b0380821691600160801b90041682565b604080516001600160801b039384168152929091166020830152016103cf565b34801561087957600080fd5b5061043060115481565b34801561088f57600080fd5b50610430601d5481565b3480156108a557600080fd5b506000546105c0906001600160a01b031681565b3480156108c557600080fd5b506104306108d4366004614a7b565b611f32565b3480156108e557600080fd5b506108f96108f4366004614a7b565b611f8d565b604080519384526020840192909252908201526060016103cf565b34801561092057600080fd5b5061093461092f366004614aa7565b612132565b6040516103cf929190614af2565b34801561094e57600080fd5b5061043060155481565b34801561096457600080fd5b50600354610983906001600160401b0380821691600160401b90041682565b604080516001600160401b039384168152929091166020830152016103cf565b3480156109af57600080fd5b506104306109be366004614a7b565b6122dd565b3480156109cf57600080fd5b5061043060165481565b3480156109e557600080fd5b50610430601b5481565b3480156109fb57600080fd5b50610430612363565b348015610a1057600080fd5b506103f8610a1f3660046149a1565b6125c8565b348015610a3057600080fd5b50610430610a3f3660046148d6565b6126c4565b348015610a5057600080fd5b506018546105c09061010090046001600160a01b031681565b348015610a7557600080fd5b506103f8610a84366004614783565b612774565b6103f8610a97366004614b8c565b6127c5565b348015610aa857600080fd5b506006546105c0906001600160a01b031681565b348015610ac857600080fd5b506005546105c0906001600160a01b031681565b348015610ae857600080fd5b50610430601f5481565b348015610afe57600080fd5b506001546105c0906001600160a01b031681565b348015610b1e57600080fd5b5061051c610b2d366004614927565b600f60209081526000928352604080842090915290825290205460ff1681565b348015610b5957600080fd5b5061043060085481565b348015610b6f57600080fd5b50610430601a5481565b348015610b8557600080fd5b506103f8610b94366004614c0e565b612b04565b348015610ba557600080fd5b506103f8612c00565b348015610bba57600080fd5b506103f8610bc9366004614766565b612d99565b60125460405163d6d7d52560e01b8152602060048201526000602482018190529182916001600160a01b039091169063d6d7d525906044016040805180830381600087803b158015610c1f57600080fd5b505af1158015610c33573d6000803e3d6000fd5b505050506040513d601f19601f82011682018060405250810190610c579190614c2b565b90925090508115610c9e5760108190556040518181527f9f9192b5edb17356c524e08d9e025c8e2f6307e6ea52fb7968faa3081f51c3c89060200160405180910390a19091565b506010549091565b6000546001600160a01b03163314610cd95760405162461bcd60e51b8152600401610cd090614c59565b60405180910390fd5b8115610d9c576001600160a01b038316151580610cf35750805b610d375760405162461bcd60e51b81526020600482015260156024820152744f776e61626c653a207a65726f206164647265737360581b6044820152606401610cd0565b600080546040516001600160a01b03808716939216917f8be0079c531659141344cd1fd0a4f28419497f9722a3daafe3b4186f6b6457e091a3600080546001600160a01b0385166001600160a01b031991821617909155600180549091169055505050565b600180546001600160a01b0385166001600160a01b0319909116179055505050565b60185460ff1615610de15760405162461bcd60e51b8152600401610cd090614c8e565b60048054604051634656bfdf60e11b81526001600160a01b0385811693820193909352911690638cad7fbe9060240160206040518083038186803b158015610e2857600080fd5b505afa158015610e3c573d6000803e3d6000fd5b505050506040513d601f19601f82011682018060405250810190610e609190614cb7565b610ea75760405162461bcd60e51b81526020600482015260186024820152772134b3a130b7339d1024b73b30b634b21039bbb0b83832b960411b6044820152606401610cd0565b6007546040516370a0823160e01b81523060048201526000916001600160a01b0316906370a082319060240160206040518083038186803b158015610eeb57600080fd5b505afa158015610eff573d6000803e3d6000fd5b505050506040513d601f19601f82011682018060405250810190610f239190614cd4565b90508060176000828254610f379190614d03565b90915550506004805460408051622fcfcb60e31b815290516001600160a01b039092169263017e7e58928282019260209290829003018186803b158015610f7d57600080fd5b505afa158015610f91573d6000803e3d6000fd5b505050506040513d601f19601f82011682018060405250810190610fb59190614d1b565b6001600160a01b03167fbe641c3ffc44b2d6c184f023fa4ed7bda4b6ffa71e03b3c98ae0c776da1f17e782604051610fef91815260200190565b60405180910390a26000600460009054906101000a90046001600160a01b03166001600160a01b031663017e7e586040518163ffffffff1660e01b815260040160206040518083038186803b15801561104757600080fd5b505afa15801561105b573d6000803e3d6000fd5b505050506040513d601f19601f8201168201806040525081019061107f9190614d1b565b6017549091501561141e57600554600954601754604051638eb22cdd60e01b815260048101929092526024820152600060448201819052916001600160a01b031690638eb22cdd9060640160206040518083038186803b1580156110e257600080fd5b505afa1580156110f6573d6000803e3d6000fd5b505050506040513d601f19601f8201168201806040525081019061111a9190614cd4565b60075460055460175460405163095ea7b360e01b81526001600160a01b0392831660048201526024810191909152929350169063095ea7b390604401602060405180830381600087803b15801561117057600080fd5b505af1158015611184573d6000803e3d6000fd5b505050506040513d601f19601f820116820180604052508101906111a89190614cb7565b50600554600954601754604051634d4d7cbd60e11b81526001600160a01b0390931692639a9af97a926111e692909130918291600090600401614d38565b6040805180830381600087803b1580156111ff57600080fd5b505af1158015611213573d6000803e3d6000fd5b505050506040513d601f19601f820116820180604052508101906112379190614d67565b50506000601755600554600954604051630208d92960e11b81526001600160a01b0390921691630411b252916112759130918a918790600401614d8b565b600060405180830381600087803b15801561128f57600080fd5b505af11580156112a3573d6000803e3d6000fd5b505050506000856001600160a01b03166355a68e10600954600460009054906101000a90046001600160a01b03166001600160a01b03166302f5d1a26040518163ffffffff1660e01b815260040160206040518083038186803b15801561130957600080fd5b505afa15801561131d573d6000803e3d6000fd5b505050506040513d601f19601f820116820180604052508101906113419190614cd4565b85878a3561134d612e80565b60405160200161135d9190614db4565b6040516020818303038152906040526040518763ffffffff1660e01b815260040161138d96959493929190614e01565b6040805180830381600087803b1580156113a657600080fd5b505af11580156113ba573d6000803e3d6000fd5b505050506040513d601f19601f820116820180604052508101906113de9190614d67565b5060408051848152602081018390529192507fa4fef2aee55b8c5258b39e504f59d0fb9960865de9cc847e769cd282b6769363910160405180910390a150505b50505050565b6000546001600160a01b0316331461144e5760405162461bcd60e51b8152600401610cd090614c59565b620186a08111156114715760405162461bcd60e51b8152600401610cd090614e46565b601655565b60185460ff16156114995760405162461bcd60e51b8152600401610cd090614c8e565b60006114a3610bce565b9150506114ae612c00565b6114be8888888888868989612f9c565b5050505050505050565b60185460ff16156114eb5760405162461bcd60e51b8152600401610cd090614c8e565b836001600160a01b038116331480159061152957506001600160a01b038116600090815260026020908152604080832033845290915290205460ff16155b1561155857604051630ca03e9b60e11b81526001600160a01b0382166004820152336024820152604401610cd0565b6001600160a01b0384166000908152600d602052604081208054849290611580908490614d03565b9091555050600a546115928382614d03565b600a556008546115a6908790858488613079565b846001600160a01b0316846115bb57866115c8565b6005546001600160a01b03165b6001600160a01b03167f9ed03113de523cebfe5e49d5f8e12894b1c0d42ce805990461726444c90eab878560405161160291815260200190565b60405180910390a3505050505050565b6000546001600160a01b0316331461163c5760405162461bcd60e51b8152600401610cd090614c59565b620186a0811061165e5760405162461bcd60e51b8152600401610cd090614e46565b601d54811161167f5760405162461bcd60e51b8152600401610cd090614e46565b601e55565b6000546001600160a01b031633146116ae5760405162461bcd60e51b8152600401610cd090614c59565b620138808111156117015760405162461bcd60e51b815260206004820152601860248201527f42696742616e673a2076616c7565206e6f742076616c696400000000000000006044820152606401610cd0565b60115460408051918252602082018390527fc353b09af857951dccce61b43a5854fc45beceed36c50e5d4cc2e71858a8e0df910160405180910390a1601155565b60215460ff161561178c5760405162461bcd60e51b8152602060048201526014602482015273109a59d0985b99ce881a5b9a5d1a585b1a5e995960621b6044820152606401610cd0565b600080808080808080806117a28a8c018c614e72565b98509850985098509850985098509850985088600460006101000a8154816001600160a01b0302191690836001600160a01b03160217905550886001600160a01b031663de4065776040518163ffffffff1660e01b815260040160206040518083038186803b15801561181457600080fd5b505afa158015611828573d6000803e3d6000fd5b505050506040513d601f19601f8201168201806040525081019061184c9190614d1b565b600580546001600160a01b03199081166001600160a01b039384161790915560048054600080549190941692168217835560408051631192124760e11b81529051632324248e92828101926020929190829003018186803b1580156118b057600080fd5b505afa1580156118c4573d6000803e3d6000fd5b505050506040513d601f19601f820116820180604052508101906118e89190614d1b565b90506001600160a01b0389161580159061190a57506001600160a01b03811615155b801561191e57506001600160a01b03871615155b61195e5760405162461bcd60e51b81526020600482015260116024820152702134b3a130b7339d103130b2103830b4b960791b6044820152606401610cd0565b600780546001600160a01b0319166001600160a01b038381169190911790915560048054604080516386c8e21d60e01b8152905191909316926386c8e21d9281810192602092909190829003018186803b1580156119bb57600080fd5b505afa1580156119cf573d6000803e3d6000fd5b505050506040513d601f19601f820116820180604052508101906119f39190614cd4565b600955600680546001600160a01b03808c166001600160a01b03199283161790925560088a905560128054928a1692909116919091179055611a33610bce565b505062015f90601455612710601555620124f86016556020868155600480546040805163017ae8d160e11b815290516001600160a01b03909216936302f5d1a293828101939192829003018186803b158015611a8e57600080fd5b505afa158015611aa2573d6000803e3d6000fd5b505050506040513d601f19601f82011682018060405250810190611ac69190614cd4565b60085460188054600160a81b93909214830260ff60a81b1990921691909117908190550460ff16611b0657601b8590556019839055601a849055601c8290555b50506103e8601d555050612710601e819055601f5550506021805460ff19166001179055505050505050565b6001546001600160a01b0316338114611b8d5760405162461bcd60e51b815260206004820181905260248201527f4f776e61626c653a2063616c6c657220213d2070656e64696e67206f776e65726044820152606401610cd0565b600080546040516001600160a01b03808516939216917f8be0079c531659141344cd1fd0a4f28419497f9722a3daafe3b4186f6b6457e091a3600080546001600160a01b039092166001600160a01b0319928316179055600180549091169055565b601854600090819060ff1615611c175760405162461bcd60e51b8152600401610cd090614c8e565b84806001600160a01b0381163314801590611c5657506001600160a01b038116600090815260026020908152604080832033845290915290205460ff16155b15611c8557604051630ca03e9b60e11b81526001600160a01b0382166004820152336024820152604401610cd0565b611c8d610bce565b5050611c97612c00565b611ca28787876131bc565b6010549195509350611cb69150829061353b565b611cf75760405162461bcd60e51b8152602060048201526012602482015271109a59d0985b99ce881a5b9cdbdb1d995b9d60721b6044820152606401610cd0565b50935093915050565b6000546001600160a01b03163314611d2a5760405162461bcd60e51b8152600401610cd090614c59565b620186a0811115611d4d5760405162461bcd60e51b8152600401610cd090614e46565b601455565b6000546001600160a01b03163314611d7c5760405162461bcd60e51b8152600401610cd090614c59565b60185460ff1615611d9f5760405162461bcd60e51b8152600401610cd090614c8e565b600c5460408051918252602082018390527fae6e0ab3b95f0a53ff9660a390ccedcbbf1f2355dce974a9841af106fddcfaba910160405180910390a1600c55565b60138054611ded90614ef3565b80601f0160208091040260200160405190810160405280929190818152602001828054611e1990614ef3565b8015611e665780601f10611e3b57610100808354040283529160200191611e66565b820191906000526020600020905b815481529060010190602001808311611e4957829003601f168201915b505050505081565b6000546001600160a01b03163314611e985760405162461bcd60e51b8152600401610cd090614c59565b620186a0811115611ebb5760405162461bcd60e51b8152600401610cd090614e46565b601555565b6000546001600160a01b03163314611eea5760405162461bcd60e51b8152600401610cd090614c59565b620186a08110611f0c5760405162461bcd60e51b8152600401610cd090614e46565b601e548110611f2d5760405162461bcd60e51b8152600401610cd090614e46565b601d55565b6001600160a01b0382166000908152600d602052604081205481908190611f599085613695565b6001600160a01b0387166000908152600e60205260409020549193509150611f8290838361376b565b925050505b92915050565b6001600160a01b0382166000908152600e60205260408120548190819080611fc05760008060009350935093505061212b565b6001600160a01b038087166000908152600d60209081526040808320548151808301909252600b546001600160801b038082168452600160801b9091041682840152600554600854601654945492969395948c94929092169263442c1599929061202e90620186a090614f44565b6120389089614f58565b6120429190614f58565b6040516001600160e01b031960e085901b168152600481019290925260248201526000604482015260640160206040518083038186803b15801561208557600080fd5b505afa158015612099573d6000803e3d6000fd5b505050506040513d601f19601f820116820180604052508101906120bd9190614cd4565b6120c79190614f44565b905081602001516001600160801b031682600001516001600160801b0316856120f09190614f58565b6120fa9190614f44565b93508084101561210b576000612115565b6121158185614f77565b96506121218389613695565b9096509450505050505b9250925092565b606080836001600160401b0381111561214d5761214d614f8e565b604051908082528060200260200182016040528015612176578160200160208202803683370190505b509150836001600160401b0381111561219157612191614f8e565b6040519080825280602002602001820160405280156121c457816020015b60608152602001906001900390816121af5790505b50905060005b84811015611cf757600080308888858181106121e8576121e8614fa4565b90506020028101906121fa9190614fba565b604051612208929190615000565b600060405180830381855af49150503d8060008114612243576040519150601f19603f3d011682016040523d82523d6000602084013e612248565b606091505b50915091508180612257575085155b61226082613821565b9061227e5760405162461bcd60e51b8152600401610cd09190614a68565b508185848151811061229257612292614fa4565b911515602092830291909101909101526122ab81613821565b8484815181106122bd576122bd614fa4565b6020026020010181905250505080806122d590615010565b9150506121ca565b60006122e9838361353b565b156122f657506000611f87565b6000806123038585611f8d565b6001600160a01b0388166000908152600e6020526040902054929450925050818110612333579250611f87915050565b620186a081601f546123459190614f58565b61234f9190614f44565b6123599084614d03565b9695505050505050565b601854600090600160a81b900460ff16156123f757600480546040805163e6abad4960e01b815290516001600160a01b039092169263e6abad49928282019260209290829003018186803b1580156123ba57600080fd5b505afa1580156123ce573d6000803e3d6000fd5b505050506040513d601f19601f820116820180604052508101906123f29190614cd4565b905090565b600b546001600160801b031661240e5750601a5490565b6000600460009054906101000a90046001600160a01b03166001600160a01b031663c24795f86040518163ffffffff1660e01b815260040160206040518083038186803b15801561245e57600080fd5b505afa158015612472573d6000803e3d6000fd5b505050506040513d601f19601f820116820180604052508101906124969190614d1b565b6001600160a01b03166334ce998a6040518163ffffffff1660e01b815260040160206040518083038186803b1580156124ce57600080fd5b505afa1580156124e2573d6000803e3d6000fd5b505050506040513d601f19601f820116820180604052508101906125069190614cd4565b600b54601b549192506001600160801b031690600090670de0b6b3a7640000906125309085614f58565b61253a9190614f44565b905080821061254e57601954935050505090565b6000601c548261255e9190614f77565b670de0b6b3a7640000601c54856125759190614f77565b61257f9190614f58565b6125899190614f44565b90506000601a54670de0b6b3a764000083601a546019546125aa9190614f77565b6125b49190614f58565b6125be9190614f44565b6123599190614d03565b60185460ff16156125eb5760405162461bcd60e51b8152600401610cd090614c8e565b82806001600160a01b038116331480159061262a57506001600160a01b038116600090815260026020908152604080832033845290915290205460ff16155b1561265957604051630ca03e9b60e11b81526001600160a01b0382166004820152336024820152604401610cd0565b612661610bce565b505061266b612c00565b612676858585613880565b506126838160105461353b565b61141e5760405162461bcd60e51b8152602060048201526012602482015271109a59d0985b99ce881a5b9cdbdb1d995b9d60721b6044820152606401610cd0565b60185460009060ff16156126ea5760405162461bcd60e51b8152600401610cd090614c8e565b846001600160a01b038116331480159061272857506001600160a01b038116600090815260026020908152604080832033845290915290205460ff16155b1561275757604051630ca03e9b60e11b81526001600160a01b0382166004820152336024820152604401610cd0565b61275f610bce565b5050612769612c00565b612359868685613983565b6000546001600160a01b0316331461279e5760405162461bcd60e51b8152600401610cd090614c59565b620186a081106127c05760405162461bcd60e51b8152600401610cd090614e46565b601f55565b6007546040516301ffc9a760e01b815263695ef6bf60e01b60048201526001600160a01b03909116906301ffc9a79060240160206040518083038186803b15801561280f57600080fd5b505afa92505050801561283f575060408051601f3d908101601f1916820190925261283c91810190614cb7565b60015b61284857612afc565b50600554600954604051627eeac760e11b8152336004820152602481018290526000926001600160a01b03169163442c159991839062fdd58e9060440160206040518083038186803b15801561289d57600080fd5b505afa1580156128b1573d6000803e3d6000fd5b505050506040513d601f19601f820116820180604052508101906128d59190614cd4565b6040516001600160e01b031960e085901b168152600481019290925260248201526000604482015260640160206040518083038186803b15801561291857600080fd5b505afa15801561292c573d6000803e3d6000fd5b505050506040513d601f19601f820116820180604052508101906129509190614cd4565b90508481101561299b5760405162461bcd60e51b815260206004820152601660248201527542696742616e673a206e6f7420617661696c61626c6560501b6044820152606401610cd0565b6005546009546040516311a5cc7760e31b81526001600160a01b0390921691638d2e63b8916129d591339030908b90600090600401614d38565b6040805180830381600087803b1580156129ee57600080fd5b505af1158015612a02573d6000803e3d6000fd5b505050506040513d601f19601f82011682018060405250810190612a269190614d67565b505060006040518060600160405280846001600160a01b0316815260200160006001600160a01b0316815260200186868080601f016020809104026020016040519081016040528093929190818152602001838380828437600092019190915250505091525060075460405163695ef6bf60e01b81529192506001600160a01b03169063695ef6bf903490612ac79030908d908d908d90899060040161502b565b6000604051808303818588803b158015612ae057600080fd5b505af1158015612af4573d6000803e3d6000fd5b505050505050505b505050505050565b60185461010090046001600160a01b03163314612b5b5760405162461bcd60e51b8152602060048201526015602482015274109a59d0985b99ce881d5b985d5d1a1bdc9a5e9959605a1b6044820152606401610cd0565b60185460ff1615158115151415612baa5760405162461bcd60e51b815260206004820152601360248201527242696742616e673a2073616d6520737461746560681b6044820152606401610cd0565b6018546040805160ff9092161515825282151560208301527f9c13c5f6c628c1c82eb2b3fd8714da5c2857dbd0ad8ab6b2074abcf81015d396910160405180910390a16018805460ff1916911515919091179055565b604080518082019091526003546001600160401b038082168352600160401b9091041660208201819052600090612c379042614f77565b905080612c42575050565b6000612c4c612363565b9050612c5c6301e1338082614f44565b6001600160401b03908116845242811660208086019190915260408051808201909152600b546001600160801b03808216808452600160801b909204169282019290925285519092600092670de0b6b3a7640000928792612cbf92911690614f58565b612cc99190614f58565b612cd39190614f44565b90508082600001818151612ce79190615086565b6001600160801b0390811690915283516020808601518316600160801b029190921617600b55865160038054928901516001600160401b03908116600160401b026fffffffffffffffffffffffffffffffff199490941690831617929092179091556040517f7484db546dcd57af0104c73c8a6968dfbaf5767f047cee0dadd0499ad7df81a09250612d8a918482526001600160401b0316602082015260400190565b60405180910390a15050505050565b6000546001600160a01b03163314612dc35760405162461bcd60e51b8152600401610cd090614c59565b6001600160a01b038116612e195760405162461bcd60e51b815260206004820152601a60248201527f42696742616e673a2061646472657373206e6f742076616c69640000000000006044820152606401610cd0565b6018546040516001600160a01b0380841692610100900416907f5a62d22209e370e38eea92cfddcd228e656e6ec139243392a760a7769f5877fd90600090a3601880546001600160a01b0390921661010002610100600160a81b0319909216919091179055565b6040805160028082526060808301845292602083019080368337505060075482519293506001600160a01b031691839150600090612ec057612ec0614fa4565b60200260200101906001600160a01b031690816001600160a01b031681525050600460009054906101000a90046001600160a01b03166001600160a01b0316634b57b0be6040518163ffffffff1660e01b815260040160206040518083038186803b158015612f2e57600080fd5b505afa158015612f42573d6000803e3d6000fd5b505050506040513d601f19601f82011682018060405250810190612f669190614d1b565b81600181518110612f7957612f79614fa4565b60200260200101906001600160a01b031690816001600160a01b03168152505090565b6000805b888110156130275760008a8a83818110612fbc57612fbc614fa4565b9050602002016020810190612fd19190614766565b9050612fdd818761353b565b6130145782612feb81615010565b935050613014818a8a8581811061300457613004614fa4565b9050602002013589898989613b7f565b508061301f81615010565b915050612fa0565b506000811161306e5760405162461bcd60e51b815260206004820152601360248201527214d1d30e881b9bc81d5cd95c9cc8199bdd5b99606a1b6044820152606401610cd0565b505050505050505050565b801561315157600554604051627eeac760e11b81523060048201526024810186905283916001600160a01b03169062fdd58e9060440160206040518083038186803b1580156130c757600080fd5b505afa1580156130db573d6000803e3d6000fd5b505050506040513d601f19601f820116820180604052508101906130ff9190614cd4565b6131099190614f77565b83111561314c5760405162461bcd60e51b8152602060048201526011602482015270084d2ce84c2dcce7440e8dede40daeac6d607b1b6044820152606401610cd0565b6131b5565b600554604051630208d92960e11b81526001600160a01b0390911690630411b25290613187908890309089908990600401614d8b565b600060405180830381600087803b1580156131a157600080fd5b505af115801561306e573d6000803e3d6000fd5b5050505050565b6000806000620186a0601154856131d39190614f58565b6131dd9190614f44565b905061321c6131ec8286614d03565b60408051808201909152600b546001600160801b038082168352600160801b909104166020820152906001614076565b81516020909201516001600160801b03908116600160801b02921691909117600b55600c54909350158061325d5750600c54600b546001600160801b031611155b6132a95760405162461bcd60e51b815260206004820152601b60248201527f42696742616e673a20626f72726f7720636170207265616368656400000000006044820152606401610cd0565b6001600160a01b0386166000908152600e6020526040812080548592906132d1908490614d03565b90915550506007546040516340c10f1960e01b8152306004820152602481018690526001600160a01b03909116906340c10f1990604401600060405180830381600087803b15801561332257600080fd5b505af1158015613336573d6000803e3d6000fd5b505060075460055460405163095ea7b360e01b81526001600160a01b039182166004820152602481018990529116925063095ea7b39150604401602060405180830381600087803b15801561338a57600080fd5b505af115801561339e573d6000803e3d6000fd5b505050506040513d601f19601f820116820180604052508101906133c29190614cb7565b50600554600954604051634d4d7cbd60e11b81526001600160a01b0390921691639a9af97a916133fd9130908a908a90600090600401614d38565b6040805180830381600087803b15801561341657600080fd5b505af115801561342a573d6000803e3d6000fd5b505050506040513d601f19601f8201168201806040525081019061344e9190614d67565b5050600554600954604051638eb22cdd60e01b8152600481019190915260248101869052600060448201526001600160a01b0390911690638eb22cdd9060640160206040518083038186803b1580156134a657600080fd5b505afa1580156134ba573d6000803e3d6000fd5b505050506040513d601f19601f820116820180604052508101906134de9190614cd4565b60408051868152602081018490529081018590529092506001600160a01b0380871691908816907f3a5151e57d3bc9798e7853034ac52293d1a0e12a2b44725e75b03b21f86477a69060600160405180910390a350935093915050565b6001600160a01b0382166000908152600e602052604081205480613563576001915050611f87565b6001600160a01b0384166000908152600d6020908152604091829020548251808401909352600b546001600160801b03808216808652600160801b909204169284018390529092919086906135b89086614f58565b6135c29190614f58565b6135cc9190614f44565b6005546008546016546020546001600160a01b039093169263442c15999291906135fa90620186a090614f44565b6136049088614f58565b61360e9190614f58565b6040516001600160e01b031960e085901b168152600481019290925260248201526000604482015260640160206040518083038186803b15801561365157600080fd5b505afa158015613665573d6000803e3d6000fd5b505050506040513d601f19601f820116820180604052508101906136899190614cd4565b10159695505050505050565b60055460085460405163442c159960e01b815260048101919091526024810184905260006044820181905291829182916001600160a01b03169063442c15999060640160206040518083038186803b1580156136f057600080fd5b505afa158015613704573d6000803e3d6000fd5b505050506040513d601f19601f820116820180604052508101906137289190614cd4565b905083602054826137399190614f58565b6137439190614f44565b9150620186a0601654836137579190614f58565b6137619190614f44565b9250509250929050565b60008361377a5750600061381a565b826137875750600061381a565b828410156137975750600061381a565b8184106137a75750601d5461381a565b60006137b38484614f77565b620186a06137c18688614f77565b6137cb9190614f58565b6137d59190614f44565b90506000601e54601d546137e991906150b1565b90506000601e54620186a0848461380091906150f0565b61380a9190615175565b61381491906151a3565b93505050505b9392505050565b606060448251101561386657505060408051808201909152601881527f42696e6742616e673a206e6f2072657475726e20646174610000000000000000602082015290565b60048201915081806020019051810190611f8791906151e4565b6001600160a01b0383166000908152600d6020526040812080548392906138a8908490614f77565b9250508190555080600a60008282546138c19190614f77565b92505081905550816001600160a01b0316836001600160a01b03167f8ad4d3ff00da092c7ad9a573ea4f5f6a3dffc6712dc06d3f78f49b862297c4028360405161390d91815260200190565b60405180910390a3600554600854604051630208d92960e11b81526001600160a01b0390921691630411b2529161394c91309187918790600401614d8b565b600060405180830381600087803b15801561396657600080fd5b505af115801561397a573d6000803e3d6000fd5b50505050505050565b60408051808201909152600b546001600160801b038082168352600160801b9091041660208201526000906139ba908360016140df565b81516020928301516001600160801b03908116600160801b02911617600b556001600160a01b0385166000908152600e90925260408220805491935084929091613a05908490614f77565b9091555060009050613a178383614f77565b90506000613a258284614f77565b6005546009546040516311a5cc7760e31b81529293506001600160a01b0390911691638d2e63b891613a62918a9030908990600090600401614d38565b6040805180830381600087803b158015613a7b57600080fd5b505af1158015613a8f573d6000803e3d6000fd5b505050506040513d601f19601f82011682018060405250810190613ab39190614d67565b50508015613b2057600754604051632770a7eb60e21b8152306004820152602481018390526001600160a01b0390911690639dc29fac90604401600060405180830381600087803b158015613b0757600080fd5b505af1158015613b1b573d6000803e3d6000fd5b505050505b846001600160a01b0316866001600160a01b03167fc8e512d8f188ca059984b5853d2bf653da902696b8512785b182b2c813789a6e8587604051613b6e929190918252602082015260400190565b60405180910390a350509392505050565b613b89868461353b565b15613b9357612afc565b6001600160a01b0386166000908152600d60205260408120548190613bb89086613695565b6001600160a01b038a166000908152600e602052604081205492945090925090613be390848461376b565b90506000806000613bf58c8c8b614134565b925092509250896001600160a01b03168c6001600160a01b03167f8ad4d3ff00da092c7ad9a573ea4f5f6a3dffc6712dc06d3f78f49b862297c40283604051613c4091815260200190565b60405180910390a38b6001600160a01b03168a6001600160a01b03167fc8e512d8f188ca059984b5853d2bf653da902696b8512785b182b2c813789a6e8585604051613c96929190918252602082015260400190565b60405180910390a3600554600954604051638eb22cdd60e01b8152600481019190915260248101859052600160448201526000916001600160a01b031690638eb22cdd9060640160206040518083038186803b158015613cf557600080fd5b505afa158015613d09573d6000803e3d6000fd5b505050506040513d601f19601f82011682018060405250810190613d2d9190614cd4565b60048054604051634656bfdf60e11b81526001600160a01b038f8116938201939093529293501690638cad7fbe9060240160206040518083038186803b158015613d7657600080fd5b505afa158015613d8a573d6000803e3d6000fd5b505050506040513d601f19601f82011682018060405250810190613dae9190614cb7565b613df55760405162461bcd60e51b81526020600482015260186024820152772134b3a130b7339d1024b73b30b634b21039bbb0b83832b960411b6044820152606401610cd0565b600560009054906101000a90046001600160a01b03166001600160a01b0316630411b252308d600854866040518563ffffffff1660e01b8152600401613e3e9493929190614d8b565b600060405180830381600087803b158015613e5857600080fd5b505af1158015613e6c573d6000803e3d6000fd5b50600092505089159050613e8957613e86898b018b614783565b90505b600554600954604051627eeac760e11b815230600482015260248101919091526000916001600160a01b03169062fdd58e9060440160206040518083038186803b158015613ed657600080fd5b505afa158015613eea573d6000803e3d6000fd5b505050506040513d601f19601f82011682018060405250810190613f0e9190614cd4565b90508c6001600160a01b03166355a68e10600854600954873087613f3061439a565b604051602001613f409190614db4565b6040516020818303038152906040526040518763ffffffff1660e01b8152600401613f7096959493929190614e01565b6040805180830381600087803b158015613f8957600080fd5b505af1158015613f9d573d6000803e3d6000fd5b505050506040513d601f19601f82011682018060405250810190613fc19190614d67565b5050600554600954604051627eeac760e11b815230600482015260248101919091526000916001600160a01b03169062fdd58e9060440160206040518083038186803b15801561401057600080fd5b505afa158015614024573d6000803e3d6000fd5b505050506040513d601f19601f820116820180604052508101906140489190614cd4565b905060006140568383614f77565b905061406381868b61440b565b5050505050505050505050505050505050565b604080518082019091526000808252602082015260006140978585856145a4565b905083856000018181516140ab9190615086565b6001600160801b03169052506020850180518291906140cb908390615086565b6001600160801b0316905250939492505050565b6040805180820190915260008082526020820152600061410085858561463b565b905080856000018181516141149190615290565b6001600160801b03169052506020850180518591906140cb908390615290565b60008060008061414487866122dd565b90508086116141535785614155565b805b6001600160a01b0388166000908152600e602052604090205490935061417c908490614f77565b6001600160a01b0388166000908152600e60209081526040808320939093558251808401909352600b546001600160801b038082168552600160801b90910416908301526141cc9190859061463b565b6005546008546020549296506001600160a01b0390911691638eb22cdd91906141f890620186a0614f58565b886142066201b5808a614f58565b6142109190614f58565b61421a9190614f44565b6040516001600160e01b031960e085901b168152600481019290925260248201526000604482015260640160206040518083038186803b15801561425d57600080fd5b505afa158015614271573d6000803e3d6000fd5b505050506040513d601f19601f820116820180604052508101906142959190614cd4565b6001600160a01b0388166000908152600d60205260408120805492945084929091906142c2908490614f77565b9091555050836143035760405162461bcd60e51b815260206004820152600c60248201526b14d1d30e881cdbdb1d995b9d60a21b6044820152606401610cd0565b600b80548591906000906143219084906001600160801b0316615290565b92506101000a8154816001600160801b0302191690836001600160801b0316021790555082600b60000160108282829054906101000a90046001600160801b031661436c9190615290565b92506101000a8154816001600160801b0302191690836001600160801b031602179055505093509350939050565b6040805160028082526060808301845292602083019080368337505060065482519293506001600160a01b0316918391506000906143da576143da614fa4565b6001600160a01b039283166020918202929092010152600754825191169082906001908110612f7957612f79614fa4565b60006144178385614f77565b90506000620186a06015548361442d9190614f58565b6144379190614f44565b90506000620186a06144498585614f58565b6144539190614f44565b6005546004805460408051622fcfcb60e31b815290519495506001600160a01b0393841694630411b25294309493169263017e7e5892808201926020929091829003018186803b1580156144a657600080fd5b505afa1580156144ba573d6000803e3d6000fd5b505050506040513d601f19601f820116820180604052508101906144de9190614d1b565b600954866040518563ffffffff1660e01b81526004016145019493929190614d8b565b600060405180830381600087803b15801561451b57600080fd5b505af115801561452f573d6000803e3d6000fd5b5050600554600954604051630208d92960e11b81526001600160a01b039092169350630411b252925061456a91309133918790600401614d8b565b600060405180830381600087803b15801561458457600080fd5b505af1158015614598573d6000803e3d6000fd5b50505050505050505050565b82516000906001600160801b03166145bd57508161381a565b835160208501516001600160801b03918216916145db911685614f58565b6145e59190614f44565b905081801561462357508284602001516001600160801b031685600001516001600160801b0316836146179190614f58565b6146219190614f44565b105b1561381a578061463281615010565b95945050505050565b600083602001516001600160801b03166000141561465a57508161381a565b602084015184516001600160801b0391821691614678911685614f58565b6146829190614f44565b905081801561462357508284600001516001600160801b031685602001516001600160801b0316836146179190614f58565b6001600160a01b03811681146146c957600080fd5b50565b80151581146146c957600080fd5b6000806000606084860312156146ef57600080fd5b83356146fa816146b4565b9250602084013561470a816146cc565b9150604084013561471a816146cc565b809150509250925092565b600080828403604081121561473957600080fd5b8335614744816146b4565b92506020601f198201121561475857600080fd5b506020830190509250929050565b60006020828403121561477857600080fd5b813561381a816146b4565b60006020828403121561479557600080fd5b5035919050565b60008083601f8401126147ae57600080fd5b5081356001600160401b038111156147c557600080fd5b6020830191508360208260051b85010111156147e057600080fd5b9250929050565b60008083601f8401126147f957600080fd5b5081356001600160401b0381111561481057600080fd5b6020830191508360208285010111156147e057600080fd5b60008060008060008060006080888a03121561484357600080fd5b87356001600160401b038082111561485a57600080fd5b6148668b838c0161479c565b909950975060208a013591508082111561487f57600080fd5b61488b8b838c0161479c565b909750955060408a013591506148a0826146b4565b909350606089013590808211156148b657600080fd5b506148c38a828b016147e7565b989b979a50959850939692959293505050565b600080600080608085870312156148ec57600080fd5b84356148f7816146b4565b93506020850135614907816146b4565b92506040850135614917816146cc565b9396929550929360600135925050565b6000806040838503121561493a57600080fd5b8235614945816146b4565b91506020830135614955816146b4565b809150509250929050565b6000806020838503121561497357600080fd5b82356001600160401b0381111561498957600080fd5b614995858286016147e7565b90969095509350505050565b6000806000606084860312156149b657600080fd5b83356149c1816146b4565b925060208401356149d1816146b4565b929592945050506040919091013590565b600080604083850312156149f557600080fd5b8235614a00816146b4565b91506020830135614955816146cc565b60005b83811015614a2b578181015183820152602001614a13565b8381111561141e5750506000910152565b60008151808452614a54816020860160208601614a10565b601f01601f19169290920160200192915050565b60208152600061381a6020830184614a3c565b60008060408385031215614a8e57600080fd5b8235614a99816146b4565b946020939093013593505050565b600080600060408486031215614abc57600080fd5b83356001600160401b03811115614ad257600080fd5b614ade8682870161479c565b909450925050602084013561471a816146cc565b604080825283519082018190526000906020906060840190828701845b82811015614b2d578151151584529284019290840190600101614b0f565b50505083810382850152845180825282820190600581901b8301840187850160005b83811015614b7d57601f19868403018552614b6b838351614a3c565b94870194925090860190600101614b4f565b50909998505050505050505050565b60008060008060008060a08789031215614ba557600080fd5b863561ffff81168114614bb757600080fd5b9550602087013594506040870135935060608701356001600160401b03811115614be057600080fd5b614bec89828a016147e7565b9094509250506080870135614c00816146b4565b809150509295509295509295565b600060208284031215614c2057600080fd5b813561381a816146cc565b60008060408385031215614c3e57600080fd5b8251614c49816146cc565b6020939093015192949293505050565b6020808252818101527f4f776e61626c653a2063616c6c6572206973206e6f7420746865206f776e6572604082015260600190565b6020808252600f908201526e109a59d0985b99ce881c185d5cd959608a1b604082015260600190565b600060208284031215614cc957600080fd5b815161381a816146cc565b600060208284031215614ce657600080fd5b5051919050565b634e487b7160e01b600052601160045260246000fd5b60008219821115614d1657614d16614ced565b500190565b600060208284031215614d2d57600080fd5b815161381a816146b4565b9485526001600160a01b0393841660208601529190921660408401526060830191909152608082015260a00190565b60008060408385031215614d7a57600080fd5b505080516020909101519092909150565b6001600160a01b0394851681529290931660208301526040820152606081019190915260800190565b6020808252825182820181905260009190848201906040850190845b81811015614df55783516001600160a01b031683529284019291840191600101614dd0565b50909695505050505050565b86815285602082015284604082015260018060a01b038416606082015282608082015260c060a08201526000614e3a60c0830184614a3c565b98975050505050505050565b602080825260129082015271109a59d0985b99ce881b9bdd081d985b1a5960721b604082015260600190565b60008060008060008060008060006101208a8c031215614e9157600080fd5b8935614e9c816146b4565b985060208a0135614eac816146b4565b975060408a0135965060608a0135614ec3816146b4565b989b979a50959860808101359760a0820135975060c0820135965060e08201359550610100909101359350915050565b600181811c90821680614f0757607f821691505b60208210811415614f2857634e487b7160e01b600052602260045260246000fd5b50919050565b634e487b7160e01b600052601260045260246000fd5b600082614f5357614f53614f2e565b500490565b6000816000190483118215151615614f7257614f72614ced565b500290565b600082821015614f8957614f89614ced565b500390565b634e487b7160e01b600052604160045260246000fd5b634e487b7160e01b600052603260045260246000fd5b6000808335601e19843603018112614fd157600080fd5b8301803591506001600160401b03821115614feb57600080fd5b6020019150368190038213156147e057600080fd5b8183823760009101908152919050565b600060001982141561502457615024614ced565b5060010190565b600060018060a01b03808816835261ffff8716602084015285604084015284606084015260a060808401528084511660a08401528060208501511660c0840152506040830151606060e0840152614e3a610100840182614a3c565b60006001600160801b038083168185168083038211156150a8576150a8614ced565b01949350505050565b60008083128015600160ff1b8501841216156150cf576150cf614ced565b6001600160ff1b03840183138116156150ea576150ea614ced565b50500390565b60006001600160ff1b038184138284138082168684048611161561511657615116614ced565b600160ff1b600087128281168783058912161561513557615135614ced565b6000871292508782058712848416161561515157615151614ced565b8785058712818416161561516757615167614ced565b505050929093029392505050565b60008261518457615184614f2e565b600160ff1b82146000198414161561519e5761519e614ced565b500590565b600080821280156001600160ff1b03849003851316156151c5576151c5614ced565b600160ff1b83900384128116156151de576151de614ced565b50500190565b6000602082840312156151f657600080fd5b81516001600160401b038082111561520d57600080fd5b818401915084601f83011261522157600080fd5b81518181111561523357615233614f8e565b604051601f8201601f19908116603f0116810190838211818310171561525b5761525b614f8e565b8160405282815287602084870101111561527457600080fd5b615285836020830160208801614a10565b979650505050505050565b60006001600160801b03838116908316818110156152b0576152b0614ced565b03939250505056fea264697066735822122000badb3a69134e8bf57f852d98685bdda475ac799bb1a6b13c86138c8779daf564736f6c63430008090033",
  "devdoc": {
    "kind": "dev",
    "methods": {
      "addCollateral(address,address,bool,uint256)": {
        "params": {
          "from": "Account to transfer shares from.",
          "share": "The amount of shares to add for `to`.",
          "skim": "True if the amount should be skimmed from the deposit balance of msg.sender. False if tokens from msg.sender in `yieldBox` should be transferred.",
          "to": "The receiver of the tokens."
        }
      },
      "borrow(address,address,uint256)": {
        "params": {
          "amount": "Amount to borrow.",
          "from": "Account to borrow for.",
          "to": "The receiver of borrowed tokens."
        },
        "returns": {
          "part": "Total part of the debt held by borrowers.",
          "share": "Total amount in shares borrowed."
        }
      },
      "computeTVLInfo(address,uint256)": {
        "details": "We use a `CLOSED_COLLATERIZATION_RATE` that is a safety buffer when making the user solvent again,      To prevent from being liquidated. This function is valid only if user is not solvent by `_isSolvent()`.",
        "params": {
          "_exchangeRate": "The exchange rate asset/collateral.",
          "user": "The user to check solvency."
        },
        "returns": {
          "amountToSolvency": "The amount of collateral to be solvent."
        }
      },
      "execute(bytes[],bool)": {
        "params": {
          "calls": "An array encoded call data.",
          "revertOnFail": "If True then reverts after a failed call and stops doing further calls."
        }
      },
      "liquidate(address[],uint256[],address,bytes)": {
        "params": {
          "collateralToAssetSwapData": "Extra swap data",
          "maxBorrowParts": "A one-to-one mapping to `users`, contains maximum (partial) borrow amounts (to liquidate) of the respective user.",
          "swapper": "Contract address of the `MultiSwapper` implementation. See `setSwapper`.",
          "users": "An array of user addresses."
        }
      },
      "removeCollateral(address,address,uint256)": {
        "params": {
          "from": "Account to debit collateral from.",
          "share": "Amount of shares to remove.",
          "to": "The receiver of the shares."
        }
      },
      "repay(address,address,bool,uint256)": {
        "details": "The bool param is not used but we added it to respect the ISingularity interface for MarketsHelper compatibility",
        "params": {
          "from": "Address to repay from.",
          "part": "The amount to repay. See `userBorrowPart`.",
          "to": "Address of the user this payment should go."
        },
        "returns": {
          "amount": "The total amount repayed."
        }
      },
      "setCallerFee(uint256)": {
        "details": "can only be called by the owner",
        "params": {
          "_val": "the new value"
        }
      },
      "setCollateralizationRate(uint256)": {
        "details": "can only be called by the owner",
        "params": {
          "_val": "the new value"
        }
      },
      "setConservator(address)": {
        "details": "Conservator can pause the contract",
        "params": {
          "_conservator": "The new address"
        }
      },
      "setLiquidationBonusAmount(uint256)": {
        "params": {
          "_val": "the new value"
        }
      },
      "setMaxLiquidatorReward(uint256)": {
        "params": {
          "_val": "the new value"
        }
      },
      "setMinLiquidatorReward(uint256)": {
        "params": {
          "_val": "the new value"
        }
      },
      "setProtocolFee(uint256)": {
        "details": "can only be called by the owner",
        "params": {
          "_val": "the new value"
        }
      },
      "transferOwnership(address,bool,bool)": {
        "params": {
          "direct": "True if `newOwner` should be set immediately. False if `newOwner` needs to use `claimOwnership`.",
          "newOwner": "Address of the new owner.",
          "renounce": "Allows the `newOwner` to be `address(0)` if `direct` and `renounce` is True. Has no effect otherwise."
        }
      },
      "updateBorrowingFee(uint256)": {
        "params": {
          "_borrowingFee": "the new value"
        }
      },
      "updateExchangeRate()": {
        "details": "This function is supposed to be invoked if needed because Oracle queries can be expensive.      Oracle should consider USD0 at 1$",
        "returns": {
          "rate": "The new exchange rate.",
          "updated": "True if `exchangeRate` was updated."
        }
      },
      "updateOperator(address,bool)": {
        "params": {
          "status": "true/false"
        }
      },
      "updatePause(bool)": {
        "params": {
          "val": "the new value"
        }
      }
    },
    "version": 1
  },
  "userdoc": {
    "kind": "user",
    "methods": {
      "accrue()": {
        "notice": "Accrues the interest on the borrowed tokens and handles the accumulation of fees."
      },
      "addCollateral(address,address,bool,uint256)": {
        "notice": "Adds `collateral` from msg.sender to the account `to`."
      },
      "borrow(address,address,uint256)": {
        "notice": "Sender borrows `amount` and transfers it to `to`."
      },
      "claimOwnership()": {
        "notice": "Needs to be called by `pendingOwner` to claim ownership."
      },
      "computeClosingFactor(address,uint256)": {
        "notice": "Return the maximum liquidatable amount for user"
      },
      "computeTVLInfo(address,uint256)": {
        "notice": "Return the amount of collateral for a `user` to be solvent, min TVL and max TVL. Returns 0 if user already solvent."
      },
      "depositFeesToYieldBox(address,(uint256))": {
        "notice": "Withdraw the balance of `feeTo`, swap asset into TAP and deposit it to yieldBox of `feeTo`"
      },
      "exchangeRate()": {
        "notice": "Exchange and interest rate tracking. This is 'cached' here because calls to Oracles can be very expensive. Asset -> collateral = assetAmount * exchangeRate."
      },
      "execute(bytes[],bool)": {
        "notice": "Allows batched call to BingBang."
      },
      "getDebtRate()": {
        "notice": "returns the current debt rate"
      },
      "getTotalDebt()": {
        "notice": "returns total market debt"
      },
      "init(bytes)": {
        "notice": "The init function that acts as a constructor"
      },
      "liquidate(address[],uint256[],address,bytes)": {
        "notice": "Entry point for liquidations."
      },
      "removeCollateral(address,address,uint256)": {
        "notice": "Removes `share` amount of collateral and transfers it to `to`."
      },
      "repay(address,address,bool,uint256)": {
        "notice": "Repays a loan."
      },
      "setBorrowCap(uint256)": {
        "notice": "sets max borrowable amount"
      },
      "setCallerFee(uint256)": {
        "notice": "sets the caller fee"
      },
      "setCollateralizationRate(uint256)": {
        "notice": "sets the collateralization rate"
      },
      "setConservator(address)": {
        "notice": "Set the Conservator address"
      },
      "setLiquidationBonusAmount(uint256)": {
        "notice": "Set the bonus amount a liquidator can make use of, on top of the amount needed to make the user solvent"
      },
      "setMaxLiquidatorReward(uint256)": {
        "notice": "Set the liquidator max reward"
      },
      "setMinLiquidatorReward(uint256)": {
        "notice": "Set the liquidator min reward"
      },
      "setProtocolFee(uint256)": {
        "notice": "sets the protocol fee"
      },
      "transferOwnership(address,bool,bool)": {
        "notice": "Transfers ownership to `newOwner`. Either directly or claimable by the new pending owner. Can only be invoked by the current `owner`."
      },
      "updateBorrowingFee(uint256)": {
        "notice": "Updates the borrowing fee"
      },
      "updateExchangeRate()": {
        "notice": "Gets the exchange rate. I.e how much collateral to buy 1e18 asset."
      },
      "updateOperator(address,bool)": {
        "notice": "allows 'operator' to act on behalf of the sender"
      },
      "updatePause(bool)": {
        "notice": "updates the pause state of the contract"
      },
      "withdrawTo(uint16,bytes32,uint256,bytes,address)": {
        "notice": "Withdraw to another layer"
      }
    },
    "version": 1
  },
  "storageLayout": {
    "storage": [
      {
        "astId": 233,
        "contract": "contracts/usd0/BigBang.sol:BigBang",
        "label": "owner",
        "offset": 0,
        "slot": "0",
        "type": "t_address"
      },
      {
        "astId": 235,
        "contract": "contracts/usd0/BigBang.sol:BigBang",
        "label": "pendingOwner",
        "offset": 0,
        "slot": "1",
        "type": "t_address"
      },
      {
        "astId": 17818,
        "contract": "contracts/usd0/BigBang.sol:BigBang",
        "label": "operators",
        "offset": 0,
        "slot": "2",
        "type": "t_mapping(t_address,t_mapping(t_address,t_bool))"
      },
      {
        "astId": 17821,
        "contract": "contracts/usd0/BigBang.sol:BigBang",
        "label": "accrueInfo",
        "offset": 0,
        "slot": "3",
        "type": "t_struct(AccrueInfo)20433_storage"
      },
      {
        "astId": 17824,
        "contract": "contracts/usd0/BigBang.sol:BigBang",
        "label": "penrose",
        "offset": 0,
        "slot": "4",
        "type": "t_contract(IPenrose)6365"
      },
      {
        "astId": 17827,
        "contract": "contracts/usd0/BigBang.sol:BigBang",
        "label": "yieldBox",
        "offset": 0,
        "slot": "5",
        "type": "t_contract(YieldBox)30913"
      },
      {
        "astId": 17830,
        "contract": "contracts/usd0/BigBang.sol:BigBang",
        "label": "collateral",
        "offset": 0,
        "slot": "6",
        "type": "t_contract(IERC20)1099"
      },
      {
        "astId": 17833,
        "contract": "contracts/usd0/BigBang.sol:BigBang",
        "label": "asset",
        "offset": 0,
        "slot": "7",
        "type": "t_contract(IUSD0)20426"
      },
      {
        "astId": 17835,
        "contract": "contracts/usd0/BigBang.sol:BigBang",
        "label": "collateralId",
        "offset": 0,
        "slot": "8",
        "type": "t_uint256"
      },
      {
        "astId": 17837,
        "contract": "contracts/usd0/BigBang.sol:BigBang",
        "label": "assetId",
        "offset": 0,
        "slot": "9",
        "type": "t_uint256"
      },
      {
        "astId": 17839,
        "contract": "contracts/usd0/BigBang.sol:BigBang",
        "label": "totalCollateralShare",
        "offset": 0,
        "slot": "10",
        "type": "t_uint256"
      },
      {
        "astId": 17842,
        "contract": "contracts/usd0/BigBang.sol:BigBang",
        "label": "totalBorrow",
        "offset": 0,
        "slot": "11",
        "type": "t_struct(Rebase)1890_storage"
      },
      {
        "astId": 17844,
        "contract": "contracts/usd0/BigBang.sol:BigBang",
        "label": "totalBorrowCap",
        "offset": 0,
        "slot": "12",
        "type": "t_uint256"
      },
      {
        "astId": 17848,
        "contract": "contracts/usd0/BigBang.sol:BigBang",
        "label": "userCollateralShare",
        "offset": 0,
        "slot": "13",
        "type": "t_mapping(t_address,t_uint256)"
      },
      {
        "astId": 17852,
        "contract": "contracts/usd0/BigBang.sol:BigBang",
        "label": "userBorrowPart",
        "offset": 0,
        "slot": "14",
        "type": "t_mapping(t_address,t_uint256)"
      },
      {
        "astId": 17858,
        "contract": "contracts/usd0/BigBang.sol:BigBang",
        "label": "isApprovedForAll",
        "offset": 0,
        "slot": "15",
        "type": "t_mapping(t_address,t_mapping(t_address,t_bool))"
      },
      {
        "astId": 17861,
        "contract": "contracts/usd0/BigBang.sol:BigBang",
        "label": "exchangeRate",
        "offset": 0,
        "slot": "16",
        "type": "t_uint256"
      },
      {
        "astId": 17863,
        "contract": "contracts/usd0/BigBang.sol:BigBang",
        "label": "borrowingFee",
        "offset": 0,
        "slot": "17",
        "type": "t_uint256"
      },
      {
        "astId": 17866,
        "contract": "contracts/usd0/BigBang.sol:BigBang",
        "label": "oracle",
        "offset": 0,
        "slot": "18",
        "type": "t_contract(IOracle)6289"
      },
      {
        "astId": 17868,
        "contract": "contracts/usd0/BigBang.sol:BigBang",
        "label": "oracleData",
        "offset": 0,
        "slot": "19",
        "type": "t_bytes_storage"
      },
      {
        "astId": 17870,
        "contract": "contracts/usd0/BigBang.sol:BigBang",
        "label": "callerFee",
        "offset": 0,
        "slot": "20",
        "type": "t_uint256"
      },
      {
        "astId": 17872,
        "contract": "contracts/usd0/BigBang.sol:BigBang",
        "label": "protocolFee",
        "offset": 0,
        "slot": "21",
        "type": "t_uint256"
      },
      {
        "astId": 17874,
        "contract": "contracts/usd0/BigBang.sol:BigBang",
        "label": "collateralizationRate",
        "offset": 0,
        "slot": "22",
        "type": "t_uint256"
      },
      {
        "astId": 17876,
        "contract": "contracts/usd0/BigBang.sol:BigBang",
        "label": "totalFees",
        "offset": 0,
        "slot": "23",
        "type": "t_uint256"
      },
      {
        "astId": 17878,
        "contract": "contracts/usd0/BigBang.sol:BigBang",
        "label": "paused",
        "offset": 0,
        "slot": "24",
        "type": "t_bool"
      },
      {
        "astId": 17880,
        "contract": "contracts/usd0/BigBang.sol:BigBang",
        "label": "conservator",
        "offset": 1,
        "slot": "24",
        "type": "t_address"
      },
      {
        "astId": 17882,
        "contract": "contracts/usd0/BigBang.sol:BigBang",
        "label": "_isEthMarket",
        "offset": 21,
        "slot": "24",
        "type": "t_bool"
      },
      {
        "astId": 17884,
        "contract": "contracts/usd0/BigBang.sol:BigBang",
        "label": "maxDebtRate",
        "offset": 0,
        "slot": "25",
        "type": "t_uint256"
      },
      {
        "astId": 17886,
        "contract": "contracts/usd0/BigBang.sol:BigBang",
        "label": "minDebtRate",
        "offset": 0,
        "slot": "26",
        "type": "t_uint256"
      },
      {
        "astId": 17888,
        "contract": "contracts/usd0/BigBang.sol:BigBang",
        "label": "debtRateAgainstEthMarket",
        "offset": 0,
        "slot": "27",
        "type": "t_uint256"
      },
      {
        "astId": 17890,
        "contract": "contracts/usd0/BigBang.sol:BigBang",
        "label": "debtStartPoint",
        "offset": 0,
        "slot": "28",
        "type": "t_uint256"
      },
      {
        "astId": 17896,
        "contract": "contracts/usd0/BigBang.sol:BigBang",
        "label": "minLiquidatorReward",
        "offset": 0,
        "slot": "29",
        "type": "t_uint256"
      },
      {
        "astId": 17899,
        "contract": "contracts/usd0/BigBang.sol:BigBang",
        "label": "maxLiquidatorReward",
        "offset": 0,
        "slot": "30",
        "type": "t_uint256"
      },
      {
        "astId": 17902,
        "contract": "contracts/usd0/BigBang.sol:BigBang",
        "label": "liquidationBonusAmount",
        "offset": 0,
        "slot": "31",
        "type": "t_uint256"
      },
      {
        "astId": 18020,
        "contract": "contracts/usd0/BigBang.sol:BigBang",
        "label": "EXCHANGE_RATE_PRECISION",
        "offset": 0,
        "slot": "32",
        "type": "t_uint256"
      },
      {
        "astId": 18080,
        "contract": "contracts/usd0/BigBang.sol:BigBang",
        "label": "initialized",
        "offset": 0,
        "slot": "33",
        "type": "t_bool"
      }
    ],
    "types": {
      "t_address": {
        "encoding": "inplace",
        "label": "address",
        "numberOfBytes": "20"
      },
      "t_bool": {
        "encoding": "inplace",
        "label": "bool",
        "numberOfBytes": "1"
      },
      "t_bytes_storage": {
        "encoding": "bytes",
        "label": "bytes",
        "numberOfBytes": "32"
      },
      "t_contract(IERC20)1099": {
        "encoding": "inplace",
        "label": "contract IERC20",
        "numberOfBytes": "20"
      },
      "t_contract(IOracle)6289": {
        "encoding": "inplace",
        "label": "contract IOracle",
        "numberOfBytes": "20"
      },
      "t_contract(IPenrose)6365": {
        "encoding": "inplace",
        "label": "contract IPenrose",
        "numberOfBytes": "20"
      },
      "t_contract(IUSD0)20426": {
        "encoding": "inplace",
        "label": "contract IUSD0",
        "numberOfBytes": "20"
      },
      "t_contract(YieldBox)30913": {
        "encoding": "inplace",
        "label": "contract YieldBox",
        "numberOfBytes": "20"
      },
      "t_mapping(t_address,t_bool)": {
        "encoding": "mapping",
        "key": "t_address",
        "label": "mapping(address => bool)",
        "numberOfBytes": "32",
        "value": "t_bool"
      },
      "t_mapping(t_address,t_mapping(t_address,t_bool))": {
        "encoding": "mapping",
        "key": "t_address",
        "label": "mapping(address => mapping(address => bool))",
        "numberOfBytes": "32",
        "value": "t_mapping(t_address,t_bool)"
      },
      "t_mapping(t_address,t_uint256)": {
        "encoding": "mapping",
        "key": "t_address",
        "label": "mapping(address => uint256)",
        "numberOfBytes": "32",
        "value": "t_uint256"
      },
      "t_struct(AccrueInfo)20433_storage": {
        "encoding": "inplace",
        "label": "struct IBigBang.AccrueInfo",
        "members": [
          {
            "astId": 20430,
            "contract": "contracts/usd0/BigBang.sol:BigBang",
            "label": "debtRate",
            "offset": 0,
            "slot": "0",
            "type": "t_uint64"
          },
          {
            "astId": 20432,
            "contract": "contracts/usd0/BigBang.sol:BigBang",
            "label": "lastAccrued",
            "offset": 8,
            "slot": "0",
            "type": "t_uint64"
          }
        ],
        "numberOfBytes": "32"
      },
      "t_struct(Rebase)1890_storage": {
        "encoding": "inplace",
        "label": "struct Rebase",
        "members": [
          {
            "astId": 1887,
            "contract": "contracts/usd0/BigBang.sol:BigBang",
            "label": "elastic",
            "offset": 0,
            "slot": "0",
            "type": "t_uint128"
          },
          {
            "astId": 1889,
            "contract": "contracts/usd0/BigBang.sol:BigBang",
            "label": "base",
            "offset": 16,
            "slot": "0",
            "type": "t_uint128"
          }
        ],
        "numberOfBytes": "32"
      },
      "t_uint128": {
        "encoding": "inplace",
        "label": "uint128",
        "numberOfBytes": "16"
      },
      "t_uint256": {
        "encoding": "inplace",
        "label": "uint256",
        "numberOfBytes": "32"
      },
      "t_uint64": {
        "encoding": "inplace",
        "label": "uint64",
        "numberOfBytes": "8"
      }
    }
  }
}