{
  "address": "0x5c568be396BD2c3b5ae95C407d393B0F0bd24cBf",
  "abi": [
    {
      "inputs": [
        {
          "internalType": "contract ISwapper",
          "name": "curveSwapper_",
          "type": "address"
        },
        {
          "internalType": "uint256",
          "name": "curvePoolAssetCount_",
          "type": "uint256"
        }
      ],
      "stateMutability": "nonpayable",
      "type": "constructor"
    },
    {
      "anonymous": false,
      "inputs": [
        {
          "indexed": true,
          "internalType": "address",
          "name": "_old",
          "type": "address"
        },
        {
          "indexed": true,
          "internalType": "address",
          "name": "_new",
          "type": "address"
        }
      ],
      "name": "CurveSwapperUpdated",
      "type": "event"
    },
    {
      "anonymous": false,
      "inputs": [
        {
          "indexed": true,
          "internalType": "address",
          "name": "previousOwner",
          "type": "address"
        },
        {
          "indexed": true,
          "internalType": "address",
          "name": "newOwner",
          "type": "address"
        }
      ],
      "name": "OwnershipTransferred",
      "type": "event"
    },
    {
      "inputs": [],
      "name": "claimOwnership",
      "outputs": [],
      "stateMutability": "nonpayable",
      "type": "function"
    },
    {
      "inputs": [],
      "name": "curveSwapper",
      "outputs": [
        {
          "internalType": "contract ISwapper",
          "name": "",
          "type": "address"
        }
      ],
      "stateMutability": "view",
      "type": "function"
    },
    {
      "inputs": [
        {
          "internalType": "contract ISingularity",
          "name": "singularity",
          "type": "address"
        },
        {
          "internalType": "uint256",
          "name": "tokenInId",
          "type": "uint256"
        },
        {
          "internalType": "uint256",
          "name": "amountOut",
          "type": "uint256"
        },
        {
          "internalType": "bytes",
          "name": "",
          "type": "bytes"
        }
      ],
      "name": "getInputAmount",
      "outputs": [
        {
          "internalType": "uint256",
          "name": "",
          "type": "uint256"
        }
      ],
      "stateMutability": "view",
      "type": "function"
    },
    {
      "inputs": [
        {
          "internalType": "contract ISingularity",
          "name": "singularity",
          "type": "address"
        },
        {
          "internalType": "uint256",
          "name": "tokenInId",
          "type": "uint256"
        },
        {
          "internalType": "uint256",
          "name": "amountIn",
          "type": "uint256"
        },
        {
          "internalType": "bytes",
          "name": "",
          "type": "bytes"
        }
      ],
      "name": "getOutputAmount",
      "outputs": [
        {
          "internalType": "uint256",
          "name": "",
          "type": "uint256"
        }
      ],
      "stateMutability": "view",
      "type": "function"
    },
    {
      "inputs": [],
      "name": "name",
      "outputs": [
        {
          "internalType": "string",
          "name": "",
          "type": "string"
        }
      ],
      "stateMutability": "pure",
      "type": "function"
    },
    {
      "inputs": [],
      "name": "owner",
      "outputs": [
        {
          "internalType": "address",
          "name": "",
          "type": "address"
        }
      ],
      "stateMutability": "view",
      "type": "function"
    },
    {
      "inputs": [],
      "name": "pendingOwner",
      "outputs": [
        {
          "internalType": "address",
          "name": "",
          "type": "address"
        }
      ],
      "stateMutability": "view",
      "type": "function"
    },
    {
      "inputs": [
        {
          "internalType": "contract ISwapper",
          "name": "_swapper",
          "type": "address"
        }
      ],
      "name": "setCurveSwapper",
      "outputs": [],
      "stateMutability": "nonpayable",
      "type": "function"
    },
    {
      "inputs": [
        {
          "internalType": "contract ISingularity",
          "name": "singularity",
          "type": "address"
        },
        {
          "internalType": "uint256",
          "name": "tokenInId",
          "type": "uint256"
        },
        {
          "internalType": "uint256",
          "name": "amountIn",
          "type": "uint256"
        },
        {
          "internalType": "bytes",
          "name": "data",
          "type": "bytes"
        }
      ],
      "name": "swap",
      "outputs": [
        {
          "internalType": "uint256",
          "name": "",
          "type": "uint256"
        }
      ],
      "stateMutability": "nonpayable",
      "type": "function"
    },
    {
      "inputs": [
        {
          "internalType": "address",
          "name": "newOwner",
          "type": "address"
        },
        {
          "internalType": "bool",
          "name": "direct",
          "type": "bool"
        },
        {
          "internalType": "bool",
          "name": "renounce",
          "type": "bool"
        }
      ],
      "name": "transferOwnership",
      "outputs": [],
      "stateMutability": "nonpayable",
      "type": "function"
    }
  ],
  "transactionHash": "0x0584ae387ed3bc84e44559bb390c69f2da4c8479831090d256da8b08850b7072",
  "args": [
    "0x2966E7c576492Bd4e2e06CC3A40b1d01ccf63D69",
    "4"
  ],
  "numDeployments": 1,
  "solcInputHash": "00159a693e7dec675ccf3b4367e7c901",
  "bytecode": "0x608060405234801561001057600080fd5b50604051611a91380380611a9183398101604081905261002f91610097565b600080546001600160a01b0319163390811782556040519091907f8be0079c531659141344cd1fd0a4f28419497f9722a3daafe3b4186f6b6457e0908290a3600280546001600160a01b0319166001600160a01b0393909316929092179091556003556100d1565b600080604083850312156100aa57600080fd5b82516001600160a01b03811681146100c157600080fd5b6020939093015192949293505050565b6119b1806100e06000396000f3fe608060405234801561001057600080fd5b506004361061009e5760003560e01c80638da5cb5b116100665780638da5cb5b1461013c578063b691d78c14610167578063e30c39781461017a578063e91f99611461018d578063fef744fa146101a057600080fd5b806306fdde03146100a3578063078dfbe7146100eb5780634e71e0c8146101005780635810e7ec146101085780635dd82b361461011b575b600080fd5b604080518082018252601a81527f737461626c65202d3e20555344302028334372762b5553443029000000000000602082015290516100e2919061166c565b60405180910390f35b6100fe6100f93660046116ac565b6101b3565b005b6100fe6102f7565b6100fe6101163660046116f1565b6103b4565b61012e61012936600461170e565b61046a565b6040519081526020016100e2565b60005461014f906001600160a01b031681565b6040516001600160a01b0390911681526020016100e2565b61012e61017536600461170e565b6106fd565b60015461014f906001600160a01b031681565b60025461014f906001600160a01b031681565b61012e6101ae36600461170e565b610c6e565b6000546001600160a01b031633146102125760405162461bcd60e51b815260206004820181905260248201527f4f776e61626c653a2063616c6c6572206973206e6f7420746865206f776e657260448201526064015b60405180910390fd5b81156102d5576001600160a01b03831615158061022c5750805b6102705760405162461bcd60e51b81526020600482015260156024820152744f776e61626c653a207a65726f206164647265737360581b6044820152606401610209565b600080546040516001600160a01b03808716939216917f8be0079c531659141344cd1fd0a4f28419497f9722a3daafe3b4186f6b6457e091a3600080546001600160a01b0385166001600160a01b031991821617909155600180549091169055505050565b600180546001600160a01b0385166001600160a01b0319909116179055505050565b6001546001600160a01b03163381146103525760405162461bcd60e51b815260206004820181905260248201527f4f776e61626c653a2063616c6c657220213d2070656e64696e67206f776e65726044820152606401610209565b600080546040516001600160a01b03808516939216917f8be0079c531659141344cd1fd0a4f28419497f9722a3daafe3b4186f6b6457e091a3600080546001600160a01b039092166001600160a01b0319928316179055600180549091169055565b6000546001600160a01b0316331461040e5760405162461bcd60e51b815260206004820181905260248201527f4f776e61626c653a2063616c6c6572206973206e6f7420746865206f776e65726044820152606401610209565b6002546040516001600160a01b038084169216907faa9eb2cf6e6a7bce28901c01eb97556feb7824a5a9b13df2c67580509a62633f90600090a3600280546001600160a01b0319166001600160a01b0392909216919091179055565b6000806001600160a01b0316866001600160a01b0316636c3d8b8f6040518163ffffffff1660e01b815260040160206040518083038186803b1580156104af57600080fd5b505afa1580156104c3573d6000803e3d6000fd5b505050506040513d601f19601f820116820180604052508101906104e791906117a4565b6001600160a01b0316632324248e6040518163ffffffff1660e01b815260040160206040518083038186803b15801561051f57600080fd5b505afa158015610533573d6000803e3d6000fd5b505050506040513d601f19601f8201168201806040525081019061055791906117a4565b6001600160a01b0316141561057e5760405162461bcd60e51b8152600401610209906117c1565b6000866001600160a01b0316636c3d8b8f6040518163ffffffff1660e01b815260040160206040518083038186803b1580156105b957600080fd5b505afa1580156105cd573d6000803e3d6000fd5b505050506040513d601f19601f820116820180604052508101906105f191906117a4565b6001600160a01b03166386c8e21d6040518163ffffffff1660e01b815260040160206040518083038186803b15801561062957600080fd5b505afa15801561063d573d6000803e3d6000fd5b505050506040513d601f19601f8201168201806040525081019061066191906117e7565b90508086141561067457849150506106f4565b6106f0876001600160a01b031663de4065776040518163ffffffff1660e01b815260040160206040518083038186803b1580156106b057600080fd5b505afa1580156106c4573d6000803e3d6000fd5b505050506040513d601f19601f820116820180604052508101906106e891906117a4565b878388610ef0565b9150505b95945050505050565b6000806001600160a01b0316866001600160a01b0316636c3d8b8f6040518163ffffffff1660e01b815260040160206040518083038186803b15801561074257600080fd5b505afa158015610756573d6000803e3d6000fd5b505050506040513d601f19601f8201168201806040525081019061077a91906117a4565b6001600160a01b0316632324248e6040518163ffffffff1660e01b815260040160206040518083038186803b1580156107b257600080fd5b505afa1580156107c6573d6000803e3d6000fd5b505050506040513d601f19601f820116820180604052508101906107ea91906117a4565b6001600160a01b031614156108115760405162461bcd60e51b8152600401610209906117c1565b6000866001600160a01b031663de4065776040518163ffffffff1660e01b815260040160206040518083038186803b15801561084c57600080fd5b505afa158015610860573d6000803e3d6000fd5b505050506040513d601f19601f8201168201806040525081019061088491906117a4565b90506000876001600160a01b031663c23ea21f6040518163ffffffff1660e01b815260040160206040518083038186803b1580156108c157600080fd5b505afa1580156108d5573d6000803e3d6000fd5b505050506040513d601f19601f820116820180604052508101906108f991906117a4565b90506000886001600160a01b0316636c3d8b8f6040518163ffffffff1660e01b815260040160206040518083038186803b15801561093657600080fd5b505afa15801561094a573d6000803e3d6000fd5b505050506040513d601f19601f8201168201806040525081019061096e91906117a4565b6001600160a01b03166386c8e21d6040518163ffffffff1660e01b815260040160206040518083038186803b1580156109a657600080fd5b505afa1580156109ba573d6000803e3d6000fd5b505050506040513d601f19601f820116820180604052508101906109de91906117e7565b9050336001600160a01b03831614610a225760405162461bcd60e51b81526020600482015260076024820152666f6e6c79204c5160c81b6044820152606401610209565b80881415610b3557604051638eb22cdd60e01b81526004810189905260248101889052600060448201526001600160a01b03841690630411b25290309085908c908590638eb22cdd9060640160206040518083038186803b158015610a8657600080fd5b505afa158015610a9a573d6000803e3d6000fd5b505050506040513d601f19601f82011682018060405250810190610abe91906117e7565b6040516001600160e01b031960e087901b1681526001600160a01b03948516600482015293909216602484015260448301526064820152608401600060405180830381600087803b158015610b1257600080fd5b505af1158015610b26573d6000803e3d6000fd5b505050508693505050506106f4565b60008515610b4c57610b4986880188611800565b90505b600254604051638eb22cdd60e01b8152600481018b9052602481018a9052600060448201526001600160a01b0386811692630411b252923092909116908d908590638eb22cdd9060640160206040518083038186803b158015610bae57600080fd5b505afa158015610bc2573d6000803e3d6000fd5b505050506040513d601f19601f82011682018060405250810190610be691906117e7565b6040516001600160e01b031960e087901b1681526001600160a01b03948516600482015293909216602484015260448301526064820152608401600060405180830381600087803b158015610c3a57600080fd5b505af1158015610c4e573d6000803e3d6000fd5b50505050610c60848a848b85886111b0565b9a9950505050505050505050565b6000806001600160a01b0316866001600160a01b0316636c3d8b8f6040518163ffffffff1660e01b815260040160206040518083038186803b158015610cb357600080fd5b505afa158015610cc7573d6000803e3d6000fd5b505050506040513d601f19601f82011682018060405250810190610ceb91906117a4565b6001600160a01b0316632324248e6040518163ffffffff1660e01b815260040160206040518083038186803b158015610d2357600080fd5b505afa158015610d37573d6000803e3d6000fd5b505050506040513d601f19601f82011682018060405250810190610d5b91906117a4565b6001600160a01b03161415610d825760405162461bcd60e51b8152600401610209906117c1565b6000866001600160a01b0316636c3d8b8f6040518163ffffffff1660e01b815260040160206040518083038186803b158015610dbd57600080fd5b505afa158015610dd1573d6000803e3d6000fd5b505050506040513d601f19601f82011682018060405250810190610df591906117a4565b6001600160a01b03166386c8e21d6040518163ffffffff1660e01b815260040160206040518083038186803b158015610e2d57600080fd5b505afa158015610e41573d6000803e3d6000fd5b505050506040513d601f19601f82011682018060405250810190610e6591906117e7565b905080861415610e7857849150506106f4565b6106f0876001600160a01b031663de4065776040518163ffffffff1660e01b815260040160206040518083038186803b158015610eb457600080fd5b505afa158015610ec8573d6000803e3d6000fd5b505050506040513d601f19601f82011682018060405250810190610eec91906117a4565b8288885b604051630cf35bdd60e41b81526004810184905260009081906001600160a01b0387169063cf35bdd09060240160806040518083038186803b158015610f3557600080fd5b505afa158015610f49573d6000803e3d6000fd5b505050506040513d601f19601f82011682018060405250810190610f6d9190611819565b5050604051630cf35bdd60e41b815260048101879052909250600091506001600160a01b0388169063cf35bdd09060240160806040518083038186803b158015610fb657600080fd5b505afa158015610fca573d6000803e3d6000fd5b505050506040513d601f19601f82011682018060405250810190610fee9190611819565b50509150506000610ffe8361148b565b9050600061100b8361148b565b6040805160028082526060820183529293506000929091602083019080368337019050509050828160008151811061104557611045611870565b602002602001018181525050818160018151811061106557611065611870565b6020908102919091010152604051638eb22cdd60e01b8152600481018a905260248101889052600060448201819052906001600160a01b038c1690638eb22cdd9060640160206040518083038186803b1580156110c157600080fd5b505afa1580156110d5573d6000803e3d6000fd5b505050506040513d601f19601f820116820180604052508101906110f991906117e7565b6002546040519192506001600160a01b03169063532bb192908c908490611124908790602001611886565b6040516020818303038152906040526040518463ffffffff1660e01b8152600401611151939291906118ca565b60206040518083038186803b15801561116957600080fd5b505afa15801561117d573d6000803e3d6000fd5b505050506040513d601f19601f820116820180604052508101906111a191906117e7565b9b9a5050505050505050505050565b604051630cf35bdd60e41b81526004810186905260009081906001600160a01b0389169063cf35bdd09060240160806040518083038186803b1580156111f557600080fd5b505afa158015611209573d6000803e3d6000fd5b505050506040513d601f19601f8201168201806040525081019061122d9190611819565b5050604051630cf35bdd60e41b815260048101899052909250600091506001600160a01b038a169063cf35bdd09060240160806040518083038186803b15801561127657600080fd5b505afa15801561128a573d6000803e3d6000fd5b505050506040513d601f19601f820116820180604052508101906112ae9190611819565b505091505060006112be8361148b565b905060006112cb8361148b565b6040805160028082526060820183529293506000929091602083019080368337019050509050828160008151811061130557611305611870565b602002602001018181525050818160018151811061132557611325611870565b6020908102919091010152604051638eb22cdd60e01b8152600481018c9052602481018a9052600060448201819052906001600160a01b038e1690638eb22cdd9060640160206040518083038186803b15801561138157600080fd5b505afa158015611395573d6000803e3d6000fd5b505050506040513d601f19601f820116820180604052508101906113b991906117e7565b90506000600260009054906101000a90046001600160a01b03166001600160a01b03166355a68e108e8e858d8f896040516020016113f79190611886565b6040516020818303038152906040526040518763ffffffff1660e01b8152600401611427969594939291906118e9565b6040805180830381600087803b15801561144057600080fd5b505af1158015611454573d6000803e3d6000fd5b505050506040513d601f19601f82011682018060405250810190611478919061192e565b509e9d5050505050505050505050505050565b600080600260009054906101000a90046001600160a01b03166001600160a01b031663218751b26040518163ffffffff1660e01b815260040160206040518083038186803b1580156114dc57600080fd5b505afa1580156114f0573d6000803e3d6000fd5b505050506040513d601f19601f8201168201806040525081019061151491906117a4565b905060001960005b6003548110156115d45760405163c661065760e01b8152600481018290526000906001600160a01b0385169063c66106579060240160206040518083038186803b15801561156957600080fd5b505afa15801561157d573d6000803e3d6000fd5b505050506040513d601f19601f820116820180604052508101906115a191906117a4565b9050856001600160a01b0316816001600160a01b031614156115c1578192505b50806115cc81611952565b91505061151c565b5060001981136116185760405162461bcd60e51b815260206004820152600f60248201526e185cdcd95d081b9bdd08199bdd5b99608a1b6044820152606401610209565b9392505050565b6000815180845260005b8181101561164557602081850181015186830182015201611629565b81811115611657576000602083870101525b50601f01601f19169290920160200192915050565b602081526000611618602083018461161f565b6001600160a01b038116811461169457600080fd5b50565b803580151581146116a757600080fd5b919050565b6000806000606084860312156116c157600080fd5b83356116cc8161167f565b92506116da60208501611697565b91506116e860408501611697565b90509250925092565b60006020828403121561170357600080fd5b81356116188161167f565b60008060008060006080868803121561172657600080fd5b85356117318161167f565b94506020860135935060408601359250606086013567ffffffffffffffff8082111561175c57600080fd5b818801915088601f83011261177057600080fd5b81358181111561177f57600080fd5b89602082850101111561179157600080fd5b9699959850939650602001949392505050565b6000602082840312156117b657600080fd5b81516116188161167f565b6020808252600c908201526b1554d10c081b9bdd081cd95d60a21b604082015260600190565b6000602082840312156117f957600080fd5b5051919050565b60006020828403121561181257600080fd5b5035919050565b6000806000806080858703121561182f57600080fd5b84516005811061183e57600080fd5b602086015190945061184f8161167f565b60408601519093506118608161167f565b6060959095015193969295505050565b634e487b7160e01b600052603260045260246000fd5b6020808252825182820181905260009190848201906040850190845b818110156118be578351835292840192918401916001016118a2565b50909695505050505050565b8381528260208201526060604082015260006106f4606083018461161f565b86815285602082015284604082015260018060a01b038416606082015282608082015260c060a0820152600061192260c083018461161f565b98975050505050505050565b6000806040838503121561194157600080fd5b505080516020909101519092909150565b600060001982141561197457634e487b7160e01b600052601160045260246000fd5b506001019056fea26469706673582212200c3c08522b77e1ce6b4383fb1fcf5cd32bf86de6b8cbd2a95019b2ed64286edb64736f6c63430008090033",
  "devdoc": {
    "details": "Performs a swap operation between stable and USD0 through 3CRV+USD0 pool",
    "kind": "dev",
    "methods": {
      "constructor": {
        "params": {
          "curvePoolAssetCount_": "Curve pool assets number",
          "curveSwapper_": "CurveSwapper address"
        }
      },
      "getInputAmount(address,uint256,uint256,bytes)": {
        "params": {
          "amountOut": "Token out amount",
          "tokenInId": "Token in asset id"
        }
      },
      "getOutputAmount(address,uint256,uint256,bytes)": {
        "params": {
          "amountIn": "Stablecoin amount"
        }
      },
      "setCurveSwapper(address)": {
        "details": "used for USD0 to WETH swap",
        "params": {
          "_swapper": "The curve pool swapper address"
        }
      },
      "swap(address,uint256,uint256,bytes)": {
        "params": {
          "amountIn": "Stablecoin amount",
          "data": "extra data used for the swap operation",
          "tokenInId": "Stablecoin asset id"
        }
      },
      "transferOwnership(address,bool,bool)": {
        "params": {
          "direct": "True if `newOwner` should be set immediately. False if `newOwner` needs to use `claimOwnership`.",
          "newOwner": "Address of the new owner.",
          "renounce": "Allows the `newOwner` to be `address(0)` if `direct` and `renounce` is True. Has no effect otherwise."
        }
      }
    },
    "title": "Swaps Stable to USD0 through Curve",
    "version": 1
  },
  "userdoc": {
    "kind": "user",
    "methods": {
      "claimOwnership()": {
        "notice": "Needs to be called by `pendingOwner` to claim ownership."
      },
      "constructor": {
        "notice": "creates a new CurveStableToUsdoBidder"
      },
      "curveSwapper()": {
        "notice": "3Crv+USD0 swapper"
      },
      "getInputAmount(address,uint256,uint256,bytes)": {
        "notice": "returns token tokenIn amount based on tokenOut amount"
      },
      "getOutputAmount(address,uint256,uint256,bytes)": {
        "notice": "returns the amount of collateral"
      },
      "name()": {
        "notice": "returns the unique name"
      },
      "setCurveSwapper(address)": {
        "notice": "sets the Curve swapper"
      },
      "swap(address,uint256,uint256,bytes)": {
        "notice": "swaps stable to collateral"
      },
      "transferOwnership(address,bool,bool)": {
        "notice": "Transfers ownership to `newOwner`. Either directly or claimable by the new pending owner. Can only be invoked by the current `owner`."
      }
    },
    "version": 1
  },
  "storageLayout": {
    "storage": [
      {
        "astId": 233,
        "contract": "contracts/liquidationQueue/bidders/CurveStableToUsdoBidder.sol:CurveStableToUsdoBidder",
        "label": "owner",
        "offset": 0,
        "slot": "0",
        "type": "t_address"
      },
      {
        "astId": 235,
        "contract": "contracts/liquidationQueue/bidders/CurveStableToUsdoBidder.sol:CurveStableToUsdoBidder",
        "label": "pendingOwner",
        "offset": 0,
        "slot": "1",
        "type": "t_address"
      },
      {
        "astId": 9049,
        "contract": "contracts/liquidationQueue/bidders/CurveStableToUsdoBidder.sol:CurveStableToUsdoBidder",
        "label": "curveSwapper",
        "offset": 0,
        "slot": "2",
        "type": "t_contract(ISwapper)15804"
      },
      {
        "astId": 9052,
        "contract": "contracts/liquidationQueue/bidders/CurveStableToUsdoBidder.sol:CurveStableToUsdoBidder",
        "label": "curveAssetsLength",
        "offset": 0,
        "slot": "3",
        "type": "t_uint256"
      }
    ],
    "types": {
      "t_address": {
        "encoding": "inplace",
        "label": "address",
        "numberOfBytes": "20"
      },
      "t_contract(ISwapper)15804": {
        "encoding": "inplace",
        "label": "contract ISwapper",
        "numberOfBytes": "20"
      },
      "t_uint256": {
        "encoding": "inplace",
        "label": "uint256",
        "numberOfBytes": "32"
      }
    }
  }
}