{
  "address": "0x5DD466Ffa26F2F038FD958648Df0C52015cAce31",
  "abi": [
    {
      "inputs": [
        {
          "internalType": "contract ICurvePool",
          "name": "_curvePool",
          "type": "address"
        },
        {
          "internalType": "contract IPenrose",
          "name": "_bar",
          "type": "address"
        }
      ],
      "stateMutability": "nonpayable",
      "type": "constructor"
    },
    {
      "inputs": [],
      "name": "curvePool",
      "outputs": [
        {
          "internalType": "contract ICurvePool",
          "name": "",
          "type": "address"
        }
      ],
      "stateMutability": "view",
      "type": "function"
    },
    {
      "inputs": [
        {
          "internalType": "uint256",
          "name": "",
          "type": "uint256"
        },
        {
          "internalType": "uint256",
          "name": "",
          "type": "uint256"
        },
        {
          "internalType": "bytes",
          "name": "",
          "type": "bytes"
        }
      ],
      "name": "getInputAmount",
      "outputs": [
        {
          "internalType": "uint256",
          "name": "",
          "type": "uint256"
        }
      ],
      "stateMutability": "pure",
      "type": "function"
    },
    {
      "inputs": [
        {
          "internalType": "uint256",
          "name": "tokenInId",
          "type": "uint256"
        },
        {
          "internalType": "uint256",
          "name": "shareIn",
          "type": "uint256"
        },
        {
          "internalType": "bytes",
          "name": "dexData",
          "type": "bytes"
        }
      ],
      "name": "getOutputAmount",
      "outputs": [
        {
          "internalType": "uint256",
          "name": "amountOut",
          "type": "uint256"
        }
      ],
      "stateMutability": "view",
      "type": "function"
    },
    {
      "inputs": [
        {
          "internalType": "uint256",
          "name": "tokenInId",
          "type": "uint256"
        },
        {
          "internalType": "uint256",
          "name": "tokenOutId",
          "type": "uint256"
        },
        {
          "internalType": "uint256",
          "name": "shareIn",
          "type": "uint256"
        },
        {
          "internalType": "address",
          "name": "to",
          "type": "address"
        },
        {
          "internalType": "uint256",
          "name": "amountOutMin",
          "type": "uint256"
        },
        {
          "internalType": "bytes",
          "name": "dexData",
          "type": "bytes"
        }
      ],
      "name": "swap",
      "outputs": [
        {
          "internalType": "uint256",
          "name": "amountOut",
          "type": "uint256"
        },
        {
          "internalType": "uint256",
          "name": "shareOut",
          "type": "uint256"
        }
      ],
      "stateMutability": "nonpayable",
      "type": "function"
    }
  ],
  "transactionHash": "0x6298933f9888c4e34c0f10774a8991978e32bdac065e022d9ec6856b8c93e1cd",
  "args": [
    "0x803147a1f65f9b838e7be39bac1a4f51e6d29a18",
    "0x8d0AbE838d85F14E93C51bd04b26A6dCCcc88584"
  ],
  "numDeployments": 1,
  "solcInputHash": "c119914891fc265cca39336c119b4e24",
  "bytecode": "0x60a060405234801561001057600080fd5b50604051610dda380380610dda83398101604081905261002f916100f2565b816000806101000a8154816001600160a01b0302191690836001600160a01b03160217905550806001600160a01b031663de4065776040518163ffffffff1660e01b815260040160206040518083038186803b15801561008e57600080fd5b505afa1580156100a2573d6000803e3d6000fd5b505050506040513d601f19601f820116820180604052508101906100c6919061012c565b6001600160a01b0316608052506101509050565b6001600160a01b03811681146100ef57600080fd5b50565b6000806040838503121561010557600080fd5b8251610110816100da565b6020840151909250610121816100da565b809150509250929050565b60006020828403121561013e57600080fd5b8151610149816100da565b9392505050565b608051610c536101876000396000818161011d015281816102bc0152818161039e0152818161043101526104fc0152610c536000f3fe608060405234801561001057600080fd5b506004361061004c5760003560e01c8063218751b214610051578063532bb1921461008157806355a68e10146100a2578063c6fe9549146100ca575b600080fd5b600054610064906001600160a01b031681565b6040516001600160a01b0390911681526020015b60405180910390f35b61009461008f36600461094c565b6100dd565b604051908152602001610078565b6100b56100b03660046109b7565b61026e565b60408051928352602083019190915201610078565b6100946100d836600461094c565b61058b565b6000806100ec83850185610a4a565b60405163442c159960e01b815260048101889052602481018790526000604482018190529192506001600160a01b037f0000000000000000000000000000000000000000000000000000000000000000169063442c15999060640160206040518083038186803b15801561015f57600080fd5b505afa158015610173573d6000803e3d6000fd5b505050506040513d601f19601f820116820180604052508101906101979190610b08565b6000805484519293506001600160a01b031691635e0d443f9185916101be576101be610b21565b6020026020010151846001815181106101d9576101d9610b21565b60209081029190910101516040516001600160e01b031960e085901b168152600f92830b6004820152910b60248201526044810184905260640160206040518083038186803b15801561022b57600080fd5b505afa15801561023f573d6000803e3d6000fd5b505050506040513d601f19601f820116820180604052508101906102639190610b08565b979650505050505050565b6000808061027e84860186610a4a565b6040516311a5cc7760e31b8152600481018c905230602482018190526044820152600060648201819052608482018b90529192506001600160a01b037f00000000000000000000000000000000000000000000000000000000000000001690638d2e63b89060a4016040805180830381600087803b1580156102ff57600080fd5b505af1158015610313573d6000803e3d6000fd5b505050506040513d601f19601f820116820180604052508101906103379190610b37565b50905061037a8260008151811061035057610350610b21565b60200260200101518360018151811061036b5761036b610b21565b6020026020010151838a6105cd565b604051630cf35bdd60e41b8152600481018c90529094506000906001600160a01b037f0000000000000000000000000000000000000000000000000000000000000000169063cf35bdd09060240160806040518083038186803b1580156103e057600080fd5b505afa1580156103f4573d6000803e3d6000fd5b505050506040513d601f19601f820116820180604052508101906104189190610b5b565b505060405163095ea7b360e01b81526001600160a01b037f00000000000000000000000000000000000000000000000000000000000000008116600483015260248201899052919350908316915063095ea7b390604401602060405180830381600087803b15801561048957600080fd5b505af115801561049d573d6000803e3d6000fd5b505050506040513d601f19601f820116820180604052508101906104c19190610bb2565b50604051634d4d7cbd60e11b8152600481018c90523060248201526001600160a01b038a8116604483015260648201879052600060848301527f00000000000000000000000000000000000000000000000000000000000000001690639a9af97a9060a4016040805180830381600087803b15801561053f57600080fd5b505af1158015610553573d6000803e3d6000fd5b505050506040513d601f19601f820116820180604052508101906105779190610b37565b959d959c50949a5050505050505050505050565b60405162461bcd60e51b815260206004820152600f60248201526e139bdd081a5b5c1b195b595b9d1959608a1b60448201526000906064015b60405180910390fd5b6000805460405163c661065760e01b81526fffffffffffffffffffffffffffffffff8616600482015282916001600160a01b03169063c66106579060240160206040518083038186803b15801561062357600080fd5b505afa158015610637573d6000803e3d6000fd5b505050506040513d601f19601f8201168201806040525081019061065b9190610bdb565b60008054604051635e0d443f60e01b8152600f8a810b600483015289900b60248201526044810188905292935090916001600160a01b0390911690635e0d443f9060640160206040518083038186803b1580156106b757600080fd5b505afa1580156106cb573d6000803e3d6000fd5b505050506040513d601f19601f820116820180604052508101906106ef9190610b08565b9050838110156107415760405162461bcd60e51b815260206004820152601760248201527f696e73756666696369656e742d616d6f756e742d6f757400000000000000000060448201526064016105c4565b6040516370a0823160e01b81523060048201526000906001600160a01b038416906370a082319060240160206040518083038186803b15801561078357600080fd5b505afa158015610797573d6000803e3d6000fd5b505050506040513d601f19601f820116820180604052508101906107bb9190610b08565b600054604051630f7c084960e21b8152600f8b810b60048301528a900b602482015260448101899052606481018890529192506001600160a01b031690633df0212490608401600060405180830381600087803b15801561081b57600080fd5b505af115801561082f573d6000803e3d6000fd5b50506040516370a0823160e01b8152306004820152600092506001600160a01b03861691506370a082319060240160206040518083038186803b15801561087557600080fd5b505afa158015610889573d6000803e3d6000fd5b505050506040513d601f19601f820116820180604052508101906108ad9190610b08565b90508181116108ec5760405162461bcd60e51b815260206004820152600b60248201526a1cddd85c0819985a5b195960aa1b60448201526064016105c4565b6108f68282610bf8565b9998505050505050505050565b60008083601f84011261091557600080fd5b50813567ffffffffffffffff81111561092d57600080fd5b60208301915083602082850101111561094557600080fd5b9250929050565b6000806000806060858703121561096257600080fd5b8435935060208501359250604085013567ffffffffffffffff81111561098757600080fd5b61099387828801610903565b95989497509550505050565b6001600160a01b03811681146109b457600080fd5b50565b600080600080600080600060c0888a0312156109d257600080fd5b87359650602088013595506040880135945060608801356109f28161099f565b93506080880135925060a088013567ffffffffffffffff811115610a1557600080fd5b610a218a828b01610903565b989b979a50959850939692959293505050565b634e487b7160e01b600052604160045260246000fd5b60006020808385031215610a5d57600080fd5b823567ffffffffffffffff80821115610a7557600080fd5b818501915085601f830112610a8957600080fd5b813581811115610a9b57610a9b610a34565b8060051b604051601f19603f83011681018181108582111715610ac057610ac0610a34565b604052918252848201925083810185019188831115610ade57600080fd5b938501935b82851015610afc57843584529385019392850192610ae3565b98975050505050505050565b600060208284031215610b1a57600080fd5b5051919050565b634e487b7160e01b600052603260045260246000fd5b60008060408385031215610b4a57600080fd5b505080516020909101519092909150565b60008060008060808587031215610b7157600080fd5b845160058110610b8057600080fd5b6020860151909450610b918161099f565b6040860151909350610ba28161099f565b6060959095015193969295505050565b600060208284031215610bc457600080fd5b81518015158114610bd457600080fd5b9392505050565b600060208284031215610bed57600080fd5b8151610bd48161099f565b600082821015610c1857634e487b7160e01b600052601160045260246000fd5b50039056fea26469706673582212202e9457a91d3cd4a5fd613ac7339d56966657577ea58c0e5d29f9dc0316d4e77c64736f6c63430008090033",
  "devdoc": {
    "kind": "dev",
    "methods": {
      "constructor": {
        "params": {
          "_bar": "Penrose address",
          "_curvePool": "CurvePool address"
        }
      },
      "getOutputAmount(uint256,uint256,bytes)": {
        "params": {
          "dexData": "Custom DEX data for query execution",
          "shareIn": "Shares to get the amount for",
          "tokenInId": "YieldBox asset id"
        }
      },
      "swap(uint256,uint256,uint256,address,uint256,bytes)": {
        "details": "returns both amount and sharesdexData examples:     - for UniV2, it should contain address[] swapPath     - for Curve, it should contain uint256[] tokenIndexes",
        "params": {
          "amountOutMin": "Minimum amount to be received",
          "dexData": "Custom DEX data for query execution",
          "shareIn": "Shares to be swapped",
          "to": "Receiver address",
          "tokenInId": "YieldBox asset id",
          "tokenOutId": "YieldBox asset id"
        }
      }
    },
    "title": "Curve pool swapper",
    "version": 1
  },
  "userdoc": {
    "kind": "user",
    "methods": {
      "constructor": {
        "notice": "creates a new CurveSwapper contract"
      },
      "getOutputAmount(uint256,uint256,bytes)": {
        "notice": "returns the possible output amount for input share"
      },
      "swap(uint256,uint256,uint256,address,uint256,bytes)": {
        "notice": "swaps token in with token out"
      }
    },
    "version": 1
  },
  "storageLayout": {
    "storage": [
      {
        "astId": 15303,
        "contract": "contracts/swappers/CurveSwapper.sol:CurveSwapper",
        "label": "curvePool",
        "offset": 0,
        "slot": "0",
        "type": "t_contract(ICurvePool)6423"
      }
    ],
    "types": {
      "t_contract(ICurvePool)6423": {
        "encoding": "inplace",
        "label": "contract ICurvePool",
        "numberOfBytes": "20"
      }
    }
  }
}