{
  "address": "0x2AF85871Fcc93baAC1E53ccAce1f9937118C25b7",
  "abi": [
    {
      "inputs": [
        {
          "internalType": "uint256",
          "name": "_supply",
          "type": "uint256"
        },
        {
          "internalType": "uint8",
          "name": "_decimals",
          "type": "uint8"
        },
        {
          "internalType": "uint256",
          "name": "_mintLimit",
          "type": "uint256"
        }
      ],
      "name": "deployToken",
      "outputs": [],
      "stateMutability": "nonpayable",
      "type": "function"
    },
    {
      "inputs": [],
      "name": "last",
      "outputs": [
        {
          "internalType": "contract ERC20Mock",
          "name": "",
          "type": "address"
        }
      ],
      "stateMutability": "view",
      "type": "function"
    }
  ],
  "transactionHash": "0xe4ec6b595e138aa118b3076b69658dae6c5053e40876791377ddd62f0ba15065",
  "args": [],
  "numDeployments": 1,
  "solcInputHash": "51c859375c422407fa9a8851d95ba9e9",
  "bytecode": "0x608060405234801561001057600080fd5b506112f6806100206000396000f3fe608060405234801561001057600080fd5b50600436106100365760003560e01c806321b19c541461003b57806347799da814610050575b600080fd5b61004e6100493660046100f5565b61007f565b005b600054610063906001600160a01b031681565b6040516001600160a01b03909116815260200160405180910390f35b6000838383604051610090906100e8565b92835260ff90911660208301526040820152606001604051809103906000f0801580156100c1573d6000803e3d6000fd5b50600080546001600160a01b0319166001600160a01b039290921691909117905550505050565b61118d8061013483390190565b60008060006060848603121561010a57600080fd5b83359250602084013560ff8116811461012257600080fd5b92959294505050604091909101359056fe610100604052600a60c0908152692a32b9ba102a37b5b2b760b11b60e0526004906200002c9082620001b5565b50604080518082019091526002815261151560f21b6020820152600590620000559082620001b5565b503480156200006357600080fd5b506040516200118d3803806200118d833981016040819052620000869162000281565b4660a0819052620000ea90604080517f47e79534a245952e8b16893a336b85a3d9ea9fa8c573f3d803afb92a794692186020820152908101829052306060820152600090608001604051602081830303815290604052805190602001209050919050565b6080526003929092556006805460ff191660ff92909216919091179055600855620002c2565b634e487b7160e01b600052604160045260246000fd5b600181811c908216806200013b57607f821691505b6020821081036200015c57634e487b7160e01b600052602260045260246000fd5b50919050565b601f821115620001b057600081815260208120601f850160051c810160208610156200018b5750805b601f850160051c820191505b81811015620001ac5782815560010162000197565b5050505b505050565b81516001600160401b03811115620001d157620001d162000110565b620001e981620001e2845462000126565b8462000162565b602080601f831160018114620002215760008415620002085750858301515b600019600386901b1c1916600185901b178555620001ac565b600085815260208120601f198616915b82811015620002525788860151825594840194600190910190840162000231565b5085821015620002715787850151600019600388901b60f8161c191681555b5050505050600190811b01905550565b6000806000606084860312156200029757600080fd5b83519250602084015160ff81168114620002b057600080fd5b80925050604084015190509250925092565b60805160a051610ea5620002e86000396000610a3501526000610a660152610ea56000f3fe608060405234801561001057600080fd5b50600436106101005760003560e01c806370a0823111610097578063996517cf11610066578063996517cf1461021e578063a9059cbb14610227578063d505accf1461023a578063dd62ed3e1461024d57600080fd5b806370a08231146101c15780637c928fe9146101e15780637ecebe00146101f657806395d89b411461021657600080fd5b806322ae81af116100d357806322ae81af1461017d57806323b872dd14610187578063313ce5671461019a5780633644e515146101b957600080fd5b806306fdde0314610105578063095ea7b31461012357806318160ddd1461014657806321442ec91461015d575b600080fd5b61010d610278565b60405161011a9190610c1a565b60405180910390f35b610136610131366004610c69565b610306565b604051901515815260200161011a565b61014f60035481565b60405190815260200161011a565b61014f61016b366004610c93565b60076020526000908152604090205481565b61014f6201518081565b610136610195366004610cb5565b610372565b6006546101a79060ff1681565b60405160ff909116815260200161011a565b61014f610595565b61014f6101cf366004610c93565b60006020819052908152604090205481565b6101f46101ef366004610cf1565b6105a4565b005b61014f610204366004610c93565b60026020526000908152604090205481565b61010d61067a565b61014f60085481565b610136610235366004610c69565b610687565b6101f4610248366004610d0a565b6107de565b61014f61025b366004610d7d565b600160209081526000928352604080842090915290825290205481565b6004805461028590610db0565b80601f01602080910402602001604051908101604052809291908181526020018280546102b190610db0565b80156102fe5780601f106102d3576101008083540402835291602001916102fe565b820191906000526020600020905b8154815290600101906020018083116102e157829003601f168201915b505050505081565b3360008181526001602090815260408083206001600160a01b038716808552925280832085905551919290917f8c5be1e5ebec7d5bd14f71427d1e84f3dd0314c0f7b2291e5b200ac8c7c3b925906103619086815260200190565b60405180910390a350600192915050565b6000811561053e576001600160a01b038416600090815260208190526040902054828110156103e15760405162461bcd60e51b815260206004820152601660248201527545524332303a2062616c616e636520746f6f206c6f7760501b60448201526064015b60405180910390fd5b836001600160a01b0316856001600160a01b03161461053c576001600160a01b038516600090815260016020908152604080832033845290915290205460001981146104a657838110156104775760405162461bcd60e51b815260206004820152601860248201527f45524332303a20616c6c6f77616e636520746f6f206c6f77000000000000000060448201526064016103d8565b6104818482610e00565b6001600160a01b03871660009081526001602090815260408083203384529091529020555b6001600160a01b0385166104f55760405162461bcd60e51b815260206004820152601660248201527545524332303a206e6f207a65726f206164647265737360501b60448201526064016103d8565b6104ff8483610e00565b6001600160a01b038088166000908152602081905260408082209390935590871681529081208054869290610535908490610e17565b9091555050505b505b826001600160a01b0316846001600160a01b03167fddf252ad1be2c89b69c2b068fc378daa952ba7f163c4a11628f55a4df523b3ef8460405161058391815260200190565b60405180910390a35060019392505050565b600061059f610a31565b905090565b6008548111156105f65760405162461bcd60e51b815260206004820152601960248201527f45524332304d6f636b3a20616d6f756e7420746f6f206269670000000000000060448201526064016103d8565b336000908152600760205260409020544290610616906201518090610e17565b111561065b5760405162461bcd60e51b815260206004820152601460248201527345524332304d6f636b3a20746f6f206561726c7960601b60448201526064016103d8565b3360008181526007602052604090204290556106779082610a88565b50565b6005805461028590610db0565b60008115158061069f5750336001600160a01b038416145b156107a15733600090815260208190526040902054828110156106fd5760405162461bcd60e51b815260206004820152601660248201527545524332303a2062616c616e636520746f6f206c6f7760501b60448201526064016103d8565b336001600160a01b0385161461079f576001600160a01b03841661075c5760405162461bcd60e51b815260206004820152601660248201527545524332303a206e6f207a65726f206164647265737360501b60448201526064016103d8565b6107668382610e00565b33600090815260208190526040808220929092556001600160a01b03861681529081208054859290610799908490610e17565b90915550505b505b6040518281526001600160a01b0384169033907fddf252ad1be2c89b69c2b068fc378daa952ba7f163c4a11628f55a4df523b3ef90602001610361565b6001600160a01b0387166108345760405162461bcd60e51b815260206004820152601860248201527f45524332303a204f776e65722063616e6e6f742062652030000000000000000060448201526064016103d8565b8342106108745760405162461bcd60e51b815260206004820152600e60248201526d115490cc8c0e88115e1c1a5c995960921b60448201526064016103d8565b6001600160a01b0387166000818152600260205260408120805460019261091e927f6e71edae12b1b97f4d1f60370fef10105fa2faae0126114a169c64845d6126c9928d928d928d92916108c783610e2f565b909155506040805160208101969096526001600160a01b0394851690860152929091166060840152608083015260a082015260c0810188905260e00160405160208183030381529060405280519060200120610b54565b6040805160008152602081018083529290925260ff871690820152606081018590526080810184905260a0016020604051602081039080840390855afa15801561096c573d6000803e3d6000fd5b505050602060405103516001600160a01b0316146109cc5760405162461bcd60e51b815260206004820152601860248201527f45524332303a20496e76616c6964205369676e6174757265000000000000000060448201526064016103d8565b6001600160a01b038781166000818152600160209081526040808320948b168084529482529182902089905590518881527f8c5be1e5ebec7d5bd14f71427d1e84f3dd0314c0f7b2291e5b200ac8c7c3b925910160405180910390a350505050505050565b60007f00000000000000000000000000000000000000000000000000000000000000004614610a635761059f46610ba9565b507f000000000000000000000000000000000000000000000000000000000000000090565b600081600354610a989190610e17565b9050600354811015610adc5760405162461bcd60e51b815260206004820152600d60248201526c4d696e74206f766572666c6f7760981b60448201526064016103d8565b60038190556001600160a01b03831660009081526020819052604081208054849290610b09908490610e17565b90915550506040518281526001600160a01b038416906000907fddf252ad1be2c89b69c2b068fc378daa952ba7f163c4a11628f55a4df523b3ef9060200160405180910390a3505050565b600060405180604001604052806002815260200161190160f01b815250610b79610a31565b83604051602001610b8c93929190610e48565b604051602081830303815290604052805190602001209050919050565b604080517f47e79534a245952e8b16893a336b85a3d9ea9fa8c573f3d803afb92a794692186020820152908101829052306060820152600090608001610b8c565b60005b83811015610c05578181015183820152602001610bed565b83811115610c14576000848401525b50505050565b6020815260008251806020840152610c39816040850160208701610bea565b601f01601f19169190910160400192915050565b80356001600160a01b0381168114610c6457600080fd5b919050565b60008060408385031215610c7c57600080fd5b610c8583610c4d565b946020939093013593505050565b600060208284031215610ca557600080fd5b610cae82610c4d565b9392505050565b600080600060608486031215610cca57600080fd5b610cd384610c4d565b9250610ce160208501610c4d565b9150604084013590509250925092565b600060208284031215610d0357600080fd5b5035919050565b600080600080600080600060e0888a031215610d2557600080fd5b610d2e88610c4d565b9650610d3c60208901610c4d565b95506040880135945060608801359350608088013560ff81168114610d6057600080fd5b9699959850939692959460a0840135945060c09093013592915050565b60008060408385031215610d9057600080fd5b610d9983610c4d565b9150610da760208401610c4d565b90509250929050565b600181811c90821680610dc457607f821691505b602082108103610de457634e487b7160e01b600052602260045260246000fd5b50919050565b634e487b7160e01b600052601160045260246000fd5b600082821015610e1257610e12610dea565b500390565b60008219821115610e2a57610e2a610dea565b500190565b600060018201610e4157610e41610dea565b5060010190565b60008451610e5a818460208901610bea565b9190910192835250602082015260400191905056fea26469706673582212208d34496bca805b8b03b19e547a897f82d8d6bd91a477d16b9bafdfefaad4ef6064736f6c634300080f0033a2646970667358221220f1472cc4868be36701402a83e537a3cc192cfb2557f76ad94798382775469b0f64736f6c634300080f0033",
  "devdoc": {
    "kind": "dev",
    "methods": {},
    "version": 1
  },
  "userdoc": {
    "kind": "user",
    "methods": {},
    "version": 1
  },
  "storageLayout": {
    "storage": [
      {
        "astId": 8314,
        "contract": "contracts/singularity/legacy/mocks/ERC20FactoryMock.sol:ERC20FactoryMock",
        "label": "last",
        "offset": 0,
        "slot": "0",
        "type": "t_contract(ERC20Mock)8426"
      }
    ],
    "types": {
      "t_contract(ERC20Mock)8426": {
        "encoding": "inplace",
        "label": "contract ERC20Mock",
        "numberOfBytes": "20"
      }
    }
  }
}