{
  "address": "0xF2A1c1e3D04944Df7590135c691E2E7De14af36e",
  "abi": [
    {
      "anonymous": false,
      "inputs": [
        {
          "indexed": true,
          "internalType": "address",
          "name": "caller",
          "type": "address"
        },
        {
          "indexed": true,
          "internalType": "address",
          "name": "bidder",
          "type": "address"
        },
        {
          "indexed": true,
          "internalType": "uint256",
          "name": "pool",
          "type": "uint256"
        },
        {
          "indexed": false,
          "internalType": "uint256",
          "name": "usdoAmount",
          "type": "uint256"
        },
        {
          "indexed": false,
          "internalType": "uint256",
          "name": "liquidatedAssetAmount",
          "type": "uint256"
        },
        {
          "indexed": false,
          "internalType": "uint256",
          "name": "collateralValue",
          "type": "uint256"
        },
        {
          "indexed": false,
          "internalType": "uint256",
          "name": "timestamp",
          "type": "uint256"
        }
      ],
      "name": "ActivateBid",
      "type": "event"
    },
    {
      "anonymous": false,
      "inputs": [
        {
          "indexed": true,
          "internalType": "address",
          "name": "caller",
          "type": "address"
        },
        {
          "indexed": true,
          "internalType": "address",
          "name": "bidder",
          "type": "address"
        },
        {
          "indexed": true,
          "internalType": "uint256",
          "name": "pool",
          "type": "uint256"
        },
        {
          "indexed": false,
          "internalType": "uint256",
          "name": "usdoAmount",
          "type": "uint256"
        },
        {
          "indexed": false,
          "internalType": "uint256",
          "name": "liquidatedAssetAmount",
          "type": "uint256"
        },
        {
          "indexed": false,
          "internalType": "uint256",
          "name": "timestamp",
          "type": "uint256"
        }
      ],
      "name": "Bid",
      "type": "event"
    },
    {
      "anonymous": false,
      "inputs": [
        {
          "indexed": true,
          "internalType": "contract IBidder",
          "name": "_old",
          "type": "address"
        },
        {
          "indexed": true,
          "internalType": "address",
          "name": "_new",
          "type": "address"
        }
      ],
      "name": "BidSwapperUpdated",
      "type": "event"
    },
    {
      "anonymous": false,
      "inputs": [
        {
          "indexed": true,
          "internalType": "address",
          "name": "caller",
          "type": "address"
        },
        {
          "indexed": true,
          "internalType": "uint256",
          "name": "pool",
          "type": "uint256"
        },
        {
          "indexed": false,
          "internalType": "uint256",
          "name": "usdoAmountExecuted",
          "type": "uint256"
        },
        {
          "indexed": false,
          "internalType": "uint256",
          "name": "liquidatedAssetAmountExecuted",
          "type": "uint256"
        },
        {
          "indexed": false,
          "internalType": "uint256",
          "name": "collateralLiquidated",
          "type": "uint256"
        },
        {
          "indexed": false,
          "internalType": "uint256",
          "name": "timestamp",
          "type": "uint256"
        }
      ],
      "name": "ExecuteBids",
      "type": "event"
    },
    {
      "anonymous": false,
      "inputs": [
        {
          "indexed": true,
          "internalType": "address",
          "name": "redeemer",
          "type": "address"
        },
        {
          "indexed": true,
          "internalType": "address",
          "name": "to",
          "type": "address"
        },
        {
          "indexed": false,
          "internalType": "uint256",
          "name": "amount",
          "type": "uint256"
        }
      ],
      "name": "Redeem",
      "type": "event"
    },
    {
      "anonymous": false,
      "inputs": [
        {
          "indexed": true,
          "internalType": "address",
          "name": "caller",
          "type": "address"
        },
        {
          "indexed": true,
          "internalType": "address",
          "name": "bidder",
          "type": "address"
        },
        {
          "indexed": true,
          "internalType": "uint256",
          "name": "pool",
          "type": "uint256"
        },
        {
          "indexed": false,
          "internalType": "uint256",
          "name": "usdoAmount",
          "type": "uint256"
        },
        {
          "indexed": false,
          "internalType": "uint256",
          "name": "liquidatedAssetAmount",
          "type": "uint256"
        },
        {
          "indexed": false,
          "internalType": "uint256",
          "name": "collateralValue",
          "type": "uint256"
        },
        {
          "indexed": false,
          "internalType": "uint256",
          "name": "timestamp",
          "type": "uint256"
        }
      ],
      "name": "RemoveBid",
      "type": "event"
    },
    {
      "anonymous": false,
      "inputs": [
        {
          "indexed": true,
          "internalType": "contract IBidder",
          "name": "_old",
          "type": "address"
        },
        {
          "indexed": true,
          "internalType": "address",
          "name": "_new",
          "type": "address"
        }
      ],
      "name": "UsdoSwapperUpdated",
      "type": "event"
    },
    {
      "inputs": [
        {
          "internalType": "address",
          "name": "user",
          "type": "address"
        },
        {
          "internalType": "uint256",
          "name": "pool",
          "type": "uint256"
        }
      ],
      "name": "activateBid",
      "outputs": [],
      "stateMutability": "nonpayable",
      "type": "function"
    },
    {
      "inputs": [
        {
          "internalType": "address",
          "name": "",
          "type": "address"
        }
      ],
      "name": "balancesDue",
      "outputs": [
        {
          "internalType": "uint256",
          "name": "",
          "type": "uint256"
        }
      ],
      "stateMutability": "view",
      "type": "function"
    },
    {
      "inputs": [
        {
          "internalType": "address",
          "name": "user",
          "type": "address"
        },
        {
          "internalType": "uint256",
          "name": "pool",
          "type": "uint256"
        },
        {
          "internalType": "uint256",
          "name": "amount",
          "type": "uint256"
        }
      ],
      "name": "bid",
      "outputs": [],
      "stateMutability": "nonpayable",
      "type": "function"
    },
    {
      "inputs": [
        {
          "internalType": "uint256",
          "name": "",
          "type": "uint256"
        }
      ],
      "name": "bidPools",
      "outputs": [
        {
          "internalType": "uint256",
          "name": "totalAmount",
          "type": "uint256"
        }
      ],
      "stateMutability": "view",
      "type": "function"
    },
    {
      "inputs": [
        {
          "internalType": "address",
          "name": "user",
          "type": "address"
        },
        {
          "internalType": "uint256",
          "name": "pool",
          "type": "uint256"
        },
        {
          "internalType": "uint256",
          "name": "stableAssetId",
          "type": "uint256"
        },
        {
          "internalType": "uint256",
          "name": "amountIn",
          "type": "uint256"
        },
        {
          "internalType": "bytes",
          "name": "data",
          "type": "bytes"
        }
      ],
      "name": "bidWithStable",
      "outputs": [],
      "stateMutability": "nonpayable",
      "type": "function"
    },
    {
      "inputs": [
        {
          "internalType": "uint256",
          "name": "collateralAmountToLiquidate",
          "type": "uint256"
        },
        {
          "internalType": "bytes",
          "name": "swapData",
          "type": "bytes"
        }
      ],
      "name": "executeBids",
      "outputs": [
        {
          "internalType": "uint256",
          "name": "totalAmountExecuted",
          "type": "uint256"
        },
        {
          "internalType": "uint256",
          "name": "totalCollateralLiquidated",
          "type": "uint256"
        }
      ],
      "stateMutability": "nonpayable",
      "type": "function"
    },
    {
      "inputs": [
        {
          "internalType": "uint256",
          "name": "pool",
          "type": "uint256"
        },
        {
          "internalType": "address",
          "name": "user",
          "type": "address"
        }
      ],
      "name": "getBidPoolUserInfo",
      "outputs": [
        {
          "components": [
            {
              "internalType": "bool",
              "name": "isUsdo",
              "type": "bool"
            },
            {
              "internalType": "bool",
              "name": "swapOnExecute",
              "type": "bool"
            },
            {
              "internalType": "uint256",
              "name": "usdoAmount",
              "type": "uint256"
            },
            {
              "internalType": "uint256",
              "name": "liquidatedAssetAmount",
              "type": "uint256"
            },
            {
              "internalType": "uint256",
              "name": "timestamp",
              "type": "uint256"
            }
          ],
          "internalType": "struct ILiquidationQueue.Bidder",
          "name": "",
          "type": "tuple"
        }
      ],
      "stateMutability": "view",
      "type": "function"
    },
    {
      "inputs": [],
      "name": "getNextAvailBidPool",
      "outputs": [
        {
          "internalType": "uint256",
          "name": "i",
          "type": "uint256"
        },
        {
          "internalType": "bool",
          "name": "available",
          "type": "bool"
        },
        {
          "internalType": "uint256",
          "name": "totalAmount",
          "type": "uint256"
        }
      ],
      "stateMutability": "view",
      "type": "function"
    },
    {
      "inputs": [
        {
          "internalType": "uint256",
          "name": "pool",
          "type": "uint256"
        }
      ],
      "name": "getOrderBookPoolEntries",
      "outputs": [
        {
          "components": [
            {
              "internalType": "address",
              "name": "bidder",
              "type": "address"
            },
            {
              "components": [
                {
                  "internalType": "bool",
                  "name": "isUsdo",
                  "type": "bool"
                },
                {
                  "internalType": "bool",
                  "name": "swapOnExecute",
                  "type": "bool"
                },
                {
                  "internalType": "uint256",
                  "name": "usdoAmount",
                  "type": "uint256"
                },
                {
                  "internalType": "uint256",
                  "name": "liquidatedAssetAmount",
                  "type": "uint256"
                },
                {
                  "internalType": "uint256",
                  "name": "timestamp",
                  "type": "uint256"
                }
              ],
              "internalType": "struct ILiquidationQueue.Bidder",
              "name": "bidInfo",
              "type": "tuple"
            }
          ],
          "internalType": "struct ILiquidationQueue.OrderBookPoolEntry[]",
          "name": "x",
          "type": "tuple[]"
        }
      ],
      "stateMutability": "view",
      "type": "function"
    },
    {
      "inputs": [
        {
          "internalType": "uint256",
          "name": "pool",
          "type": "uint256"
        }
      ],
      "name": "getOrderBookSize",
      "outputs": [
        {
          "internalType": "uint256",
          "name": "size",
          "type": "uint256"
        }
      ],
      "stateMutability": "view",
      "type": "function"
    },
    {
      "inputs": [
        {
          "components": [
            {
              "internalType": "uint256",
              "name": "activationTime",
              "type": "uint256"
            },
            {
              "internalType": "uint256",
              "name": "minBidAmount",
              "type": "uint256"
            },
            {
              "internalType": "address",
              "name": "feeCollector",
              "type": "address"
            },
            {
              "internalType": "contract IBidder",
              "name": "bidExecutionSwapper",
              "type": "address"
            },
            {
              "internalType": "contract IBidder",
              "name": "usdoSwapper",
              "type": "address"
            }
          ],
          "internalType": "struct ILiquidationQueue.LiquidationQueueMeta",
          "name": "_liquidationQueueMeta",
          "type": "tuple"
        },
        {
          "internalType": "address",
          "name": "_mixologist",
          "type": "address"
        }
      ],
      "name": "init",
      "outputs": [],
      "stateMutability": "nonpayable",
      "type": "function"
    },
    {
      "inputs": [],
      "name": "liquidatedAssetId",
      "outputs": [
        {
          "internalType": "uint256",
          "name": "",
          "type": "uint256"
        }
      ],
      "stateMutability": "view",
      "type": "function"
    },
    {
      "inputs": [],
      "name": "liquidationQueueMeta",
      "outputs": [
        {
          "internalType": "uint256",
          "name": "activationTime",
          "type": "uint256"
        },
        {
          "internalType": "uint256",
          "name": "minBidAmount",
          "type": "uint256"
        },
        {
          "internalType": "address",
          "name": "feeCollector",
          "type": "address"
        },
        {
          "internalType": "contract IBidder",
          "name": "bidExecutionSwapper",
          "type": "address"
        },
        {
          "internalType": "contract IBidder",
          "name": "usdoSwapper",
          "type": "address"
        }
      ],
      "stateMutability": "view",
      "type": "function"
    },
    {
      "inputs": [],
      "name": "lqAssetId",
      "outputs": [
        {
          "internalType": "uint256",
          "name": "",
          "type": "uint256"
        }
      ],
      "stateMutability": "view",
      "type": "function"
    },
    {
      "inputs": [],
      "name": "market",
      "outputs": [
        {
          "internalType": "string",
          "name": "",
          "type": "string"
        }
      ],
      "stateMutability": "view",
      "type": "function"
    },
    {
      "inputs": [],
      "name": "marketAssetId",
      "outputs": [
        {
          "internalType": "uint256",
          "name": "",
          "type": "uint256"
        }
      ],
      "stateMutability": "view",
      "type": "function"
    },
    {
      "inputs": [],
      "name": "onlyOnce",
      "outputs": [
        {
          "internalType": "bool",
          "name": "",
          "type": "bool"
        }
      ],
      "stateMutability": "view",
      "type": "function"
    },
    {
      "inputs": [
        {
          "internalType": "uint256",
          "name": "",
          "type": "uint256"
        },
        {
          "internalType": "uint256",
          "name": "",
          "type": "uint256"
        }
      ],
      "name": "orderBookEntries",
      "outputs": [
        {
          "internalType": "address",
          "name": "bidder",
          "type": "address"
        },
        {
          "components": [
            {
              "internalType": "bool",
              "name": "isUsdo",
              "type": "bool"
            },
            {
              "internalType": "bool",
              "name": "swapOnExecute",
              "type": "bool"
            },
            {
              "internalType": "uint256",
              "name": "usdoAmount",
              "type": "uint256"
            },
            {
              "internalType": "uint256",
              "name": "liquidatedAssetAmount",
              "type": "uint256"
            },
            {
              "internalType": "uint256",
              "name": "timestamp",
              "type": "uint256"
            }
          ],
          "internalType": "struct ILiquidationQueue.Bidder",
          "name": "bidInfo",
          "type": "tuple"
        }
      ],
      "stateMutability": "view",
      "type": "function"
    },
    {
      "inputs": [
        {
          "internalType": "uint256",
          "name": "",
          "type": "uint256"
        }
      ],
      "name": "orderBookInfos",
      "outputs": [
        {
          "internalType": "uint32",
          "name": "poolId",
          "type": "uint32"
        },
        {
          "internalType": "uint32",
          "name": "nextBidPull",
          "type": "uint32"
        },
        {
          "internalType": "uint32",
          "name": "nextBidPush",
          "type": "uint32"
        }
      ],
      "stateMutability": "view",
      "type": "function"
    },
    {
      "inputs": [],
      "name": "penrose",
      "outputs": [
        {
          "internalType": "contract IPenrose",
          "name": "",
          "type": "address"
        }
      ],
      "stateMutability": "view",
      "type": "function"
    },
    {
      "inputs": [
        {
          "internalType": "address",
          "name": "to",
          "type": "address"
        }
      ],
      "name": "redeem",
      "outputs": [],
      "stateMutability": "nonpayable",
      "type": "function"
    },
    {
      "inputs": [
        {
          "internalType": "address",
          "name": "user",
          "type": "address"
        },
        {
          "internalType": "uint256",
          "name": "pool",
          "type": "uint256"
        }
      ],
      "name": "removeBid",
      "outputs": [
        {
          "internalType": "uint256",
          "name": "amountRemoved",
          "type": "uint256"
        }
      ],
      "stateMutability": "nonpayable",
      "type": "function"
    },
    {
      "inputs": [
        {
          "internalType": "address",
          "name": "_swapper",
          "type": "address"
        }
      ],
      "name": "setBidExecutionSwapper",
      "outputs": [],
      "stateMutability": "nonpayable",
      "type": "function"
    },
    {
      "inputs": [
        {
          "internalType": "address",
          "name": "_swapper",
          "type": "address"
        }
      ],
      "name": "setUsdoSwapper",
      "outputs": [],
      "stateMutability": "nonpayable",
      "type": "function"
    },
    {
      "inputs": [],
      "name": "singularity",
      "outputs": [
        {
          "internalType": "contract ISingularity",
          "name": "",
          "type": "address"
        }
      ],
      "stateMutability": "view",
      "type": "function"
    },
    {
      "inputs": [
        {
          "internalType": "address",
          "name": "user",
          "type": "address"
        },
        {
          "internalType": "uint256",
          "name": "pool",
          "type": "uint256"
        }
      ],
      "name": "userBidIndexLength",
      "outputs": [
        {
          "internalType": "uint256",
          "name": "len",
          "type": "uint256"
        }
      ],
      "stateMutability": "view",
      "type": "function"
    },
    {
      "inputs": [
        {
          "internalType": "address",
          "name": "",
          "type": "address"
        },
        {
          "internalType": "uint256",
          "name": "",
          "type": "uint256"
        },
        {
          "internalType": "uint256",
          "name": "",
          "type": "uint256"
        }
      ],
      "name": "userBidIndexes",
      "outputs": [
        {
          "internalType": "uint256",
          "name": "",
          "type": "uint256"
        }
      ],
      "stateMutability": "view",
      "type": "function"
    },
    {
      "inputs": [],
      "name": "yieldBox",
      "outputs": [
        {
          "internalType": "contract YieldBox",
          "name": "",
          "type": "address"
        }
      ],
      "stateMutability": "view",
      "type": "function"
    }
  ],
  "transactionHash": "0x33d881047d31f8aaf96cc08a8e96d7236ad4fcdb005cf87650500c9d84e43144",
  "args": [],
  "numDeployments": 2,
  "solcInputHash": "2cdf25a28d8ba88ce4f21299ef199688",
  "bytecode": "0x608060405234801561001057600080fd5b50613b2f806100206000396000f3fe608060405234801561001057600080fd5b50600436106101c45760003560e01c80636aef9a67116100f9578063a39e6a1711610097578063d844f0c011610071578063d844f0c01461050a578063de4065771461051d578063f50f78cd14610530578063fa8e84791461054357600080fd5b8063a39e6a17146104c4578063a5dca464146104d7578063bd2f6f83146104ea57600080fd5b80637d98726b116100d35780637d98726b146103af57806380f556051461041257806395a2251f14610427578063966b583c1461043a57600080fd5b80636aef9a671461034e5780636c3d8b8f146103615780637c8be05b1461038c57600080fd5b806336252c901161016657806346a7d7d91161014057806346a7d7d914610302578063575939f9146103155780635c3a33931461032857806365d387c91461033b57600080fd5b806336252c90146102be5780633965907b146102d157806345baf8af146102f957600080fd5b80631259c1a1116101a25780631259c1a114610217578063149c59c5146102375780632cfbe6ba146102575780632e020d1f146102b557600080fd5b806307be4daf146101c95780630ed4f3e9146101eb5780630f41ba4b14610202575b600080fd5b600b546101d69060ff1681565b60405190151581526020015b60405180910390f35b6101f4600a5481565b6040519081526020016101e2565b6102156102103660046133e4565b610563565b005b6101f4610225366004613419565b60106020526000908152604090205481565b61024a610245366004613436565b61073c565b6040516101e2919061349a565b60005460015460025460035460045461027f9493926001600160a01b03908116928116911685565b6040805195865260208601949094526001600160a01b03928316938501939093528116606084015216608082015260a0016101e2565b6101f460095481565b6102156102cc366004613419565b6107b4565b6102e46102df3660046134f1565b610859565b604080519283526020830191909152016101e2565b6101f460085481565b6101f461031036600461353d565b611052565b610215610323366004613419565b61109d565b6101f4610336366004613556565b611142565b610215610349366004613556565b61124d565b6101f461035c366004613556565b6116ba565b600654610374906001600160a01b031681565b6040516001600160a01b0390911681526020016101e2565b610394611b04565b604080519384529115156020840152908201526060016101e2565b6103eb6103bd36600461353d565b600e6020526000908152604090205463ffffffff80821691600160201b8104821691600160401b9091041683565b6040805163ffffffff948516815292841660208401529216918101919091526060016101e2565b61041a611b4c565b6040516101e291906135de565b610215610435366004613419565b611bd2565b6104b66104483660046135f1565b600d6020908152600092835260408084208252918352918190208054825160a081018452600183015460ff8082161515835261010090910416151594810194909452600282015492840192909252600381015460608401526004015460808301526001600160a01b03169082565b6040516101e2929190613613565b6101f46104d23660046133e4565b611dca565b600554610374906001600160a01b031681565b6104fd6104f836600461353d565b611e08565b6040516101e29190613630565b610215610518366004613692565b611f8d565b600754610374906001600160a01b031681565b61021561053e366004613705565b61237a565b6101f461055136600461353d565b600c6020526000908152604090205481565b600b5460ff166105b05760405162461bcd60e51b815260206004820152601360248201527213144e88139bdd081a5b9a5d1a585b1a5e9959606a1b60448201526064015b60405180910390fd5b600a8211156105f85760405162461bcd60e51b8152602060048201526014602482015273098a27440e0e4cadad2eada40e8dede40d0d2ced60631b60448201526064016105a7565b60015481101561063c5760405162461bcd60e51b815260206004820152600f60248201526e4c513a2062696420746f6f206c6f7760881b60448201526064016105a7565b600854600754604051638eb22cdd60e01b81526004810183905260248101849052600060448201526001600160a01b0390911690630411b252903390309085908590638eb22cdd9060640160206040518083038186803b15801561069f57600080fd5b505afa1580156106b3573d6000803e3d6000fd5b505050506040513d601f19601f820116820180604052508101906106d79190613739565b6040518563ffffffff1660e01b81526004016106f69493929190613752565b600060405180830381600087803b15801561071057600080fd5b505af1158015610724573d6000803e3d6000fd5b505050506107358484846000612810565b5050505050565b6107446132fb565b506000828152600c602090815260408083206001600160a01b03851684526001908101835292819020815160a081018352815460ff808216151583526101009091041615159381019390935292830154908201526002820154606082015260039091015460808201525b92915050565b6005546001600160a01b031633146107fd5760405162461bcd60e51b815260206004820152600c60248201526b1d5b985d5d1a1bdc9a5e995960a21b60448201526064016105a7565b6004546040516001600160a01b038084169216907f4df4d1118ddbedb1b0f3889ec88ab4d3108097b9b3dd236c2cc5c8e2e9f7269590600090a3600480546001600160a01b0319166001600160a01b0392909216919091179055565b60055460009081906001600160a01b031633146108af5760405162461bcd60e51b81526020600482015260146024820152734c513a204f6e6c792053696e67756c617269747960601b60448201526064016105a7565b6108b761332e565b6108bf611b04565b50151560208084019190915290825260055460408051633ba0b9a960e01b815290516001600160a01b0390921692633ba0b9a992600480840193829003018186803b15801561090d57600080fd5b505afa158015610921573d6000803e3d6000fd5b505050506040513d601f19601f820116820180604052508101906109459190613739565b6101008201525b60008611801561095d575080602001515b15610f085780516000908152600e602090815260408083208151606081018352905463ffffffff8082168352600160201b8204811694830194909452600160401b90049092168282015283015260a0820181905260c08201525b6000861180156109e3575080604001516040015163ffffffff1681604001516020015163ffffffff1614155b15610de95780516000908152600d602090815260408083208185015183015163ffffffff1684528252918290208251808401845281546001600160a01b03168152835160a081018552600183015460ff80821615158352610100918290041615158286015260028401549582019590955260038301546060808301919091526004909301546080808301919091529382019081529185018190529184019190915251908201518251610a96929190612ad3565b6101208201819052861015610c4957600080610afc8360800151602001518985610100015186600001518b8b8080601f016020809104026020016040519081016040528093929190818152602001838380828437600092019190915250612c2592505050565b6080850151516001600160a01b0316600090815260106020526040812080549395509193508a92610b2e908490613791565b909155505060608301516020015151610b635781836060015160200151606001818151610b5b91906137a9565b905250610b81565b80836060015160200151604001818151610b7d91906137a9565b9052505b818360a001818151610b939190613791565b90525060c083018051899190610baa908390613791565b90525060e08301805160009950829190610bc5908390613791565b905250505060608082015160209081015183516000908152600d835260408082208187015185015163ffffffff16835284529081902082516001820180549585015115156101000261ff00199215159290921661ffff19909616959095171790935581015160028301559182015160038201556080909101516004909101556109b7565b6000806000610ca784608001516020015185610120015186610100015187600001518c8c8080601f016020809104026020016040519081016040528093929190818152602001838380828437600092019190915250612f2e92505050565b6080870151516001600160a01b0316600090815260106020526040812080549497509295509093508492610cdc908490613791565b90915550506060808501805160209081015160006040909101819052915101519091015260e084018051829190610d14908390613791565b90525060a084018051849190610d2b908390613791565b90525060c084018051839190610d42908390613791565b905250610d4f828a6137a9565b60608086015160209081015187516000908152600d83526040808220818b01805186015163ffffffff908116855291865292829020845160018083018054888a015115156101000261ff00199415159490941661ffff19909116179290921790915592850151600282015595840151600387015560809093015160049095019490945551909101805190920116905298506109b792505050565b60a0810151610df89084613791565b92508060c0015182610e0a9190613791565b60408083015183516000908152600e6020908152908390208251815492840151939094015163ffffffff908116600160401b0263ffffffff60401b19948216600160201b0267ffffffffffffffff19909416919095161791909117919091169190911790559150610e79611b04565b5015156020808401919091528183526000918252600c9052604081208054859290610ea59084906137a9565b9091555050805160e082015160a083015160c08401516040805193845260208401929092529082015242606082015233907fcf16521da024444891495eb0ed8e5e97ab0b013ee419d71046494d94e02390a29060800160405180910390a361094c565b6007546008546040516311a5cc7760e31b8152600481019190915230602482018190526044820152606481018590526000608482015284916001600160a01b031690638d2e63b89060a4016040805180830381600087803b158015610f6c57600080fd5b505af1158015610f80573d6000803e3d6000fd5b505050506040513d601f19601f82011682018060405250810190610fa491906137c0565b5050600754600954600554604051634d4d7cbd60e11b815260048101929092523060248301526001600160a01b039081166044830152606482018490526000608483015290911690639a9af97a9060a4016040805180830381600087803b15801561100e57600080fd5b505af1158015611022573d6000803e3d6000fd5b505050506040513d601f19601f8201168201806040525081019061104691906137c0565b50505050935093915050565b6000908152600e60209081526040918290208251606081018452905463ffffffff8082168352600160201b82048116938301849052600160401b909104811691909301819052031690565b6005546001600160a01b031633146110e65760405162461bcd60e51b815260206004820152600c60248201526b1d5b985d5d1a1bdc9a5e995960a21b60448201526064016105a7565b6003546040516001600160a01b038084169216907fe0ae31f6fff797b33b039284b11690980155ca2c61a831617b6943199e6fce8b90600090a3600380546001600160a01b0319166001600160a01b0392909216919091179055565b6001600160a01b0382166000908152600f602090815260408083208484528252808320805482518185028101850190935280835284938301828280156111a757602002820191906000526020600020905b815481526020019060010190808311611193575b505083516000888152600e602090815260408083208151606081018352905463ffffffff8082168352600160201b8204811694830194909452600160401b900490921690820152959650909493509150505b8281101561124157816020015163ffffffff1684828151811061121e5761121e6137e4565b6020026020010151106112395782611235816137fa565b9350505b6001016111f9565b50509051949350505050565b6000818152600c602090815260408083206001600160a01b03861684526001908101835292819020815160a081018352815460ff8082161515835261010090910416151593810193909352928301549082015260028201546060820152600390910154608082018190526112fb5760405162461bcd60e51b81526020600482015260156024820152744c513a20626964206e6f7420617661696c61626c6560581b60448201526064016105a7565b600054608082015161130d9190613791565b42101561134b5760405162461bcd60e51b815260206004820152600c60248201526b26289d103a37b79039b7b7b760a11b60448201526064016105a7565b6000828152600e60209081526040918290208251606081018452905463ffffffff8082168352600160201b8204811693830193909352600160401b90049091169181019190915261139a6133a4565b6001600160a01b0380861680835260208084018681526000888152600d83526040808220888201805163ffffffff90811685529186528284208951815499166001600160a01b0319909916989098178855845180516001808b018054848b015115156101000261ff00199415159490941661ffff1991821617939093179055828601516002808d019190915560608401516003808e01919091556080909401516004909c019b909b558e8752600c895285872099875298890188528486208054909116815580890186905598890185905597909701839055600f85528183208b84528552818320875181548089018355918552868520908316910155865190950185168652898252600e84528120875181549489015196518616600160401b0263ffffffff60401b19978716600160201b0267ffffffffffffffff199096169190961617939093179490941692909217905551516115005781602001516060015161150a565b8160200151604001515b905060008260200151602001516115215781611625565b600354600554600654604080516386c8e21d60e01b815290516001600160a01b0394851694635dd82b369481169316916386c8e21d916004808301926020929190829003018186803b15801561157657600080fd5b505afa15801561158a573d6000803e3d6000fd5b505050506040513d601f19601f820116820180604052508101906115ae9190613739565b8660200151604001516040518463ffffffff1660e01b81526004016115d593929190613811565b60206040518083038186803b1580156115ed57600080fd5b505afa158015611601573d6000803e3d6000fd5b505050506040513d601f19601f820116820180604052508101906116259190613739565b6000878152600c6020526040812080549293508392909190611648908490613791565b90915550506020808401516040808201516060928301518251918252938101939093528201839052429082015286906001600160a01b0389169033907fd3537325843bd046c81dbdae840896c9ad0a4e5ea737ac537f65167df96921c29060800160405180910390a450505050505050565b6000818152600c6020908152604080832033845260010190915281205460ff1680611704576000838152600c60209081526040808320338452600101909152902060020154611726565b6000838152600c60209081526040808320338452600190810190925290912001545b9150600082116117705760405162461bcd60e51b81526020600482015260156024820152744c513a20626964206e6f7420617661696c61626c6560581b60448201526064016105a7565b6000838152600c6020908152604080832033845260019081019092528220805461ffff191680825591810183905560028101839055600301919091558290610100900460ff16156118ba57600354600554600654604080516386c8e21d60e01b815290516001600160a01b0394851694635dd82b369481169316916386c8e21d916004808301926020929190829003018186803b15801561181057600080fd5b505afa158015611824573d6000803e3d6000fd5b505050506040513d601f19601f820116820180604052508101906118489190613739565b866040518463ffffffff1660e01b815260040161186793929190613811565b60206040518083038186803b15801561187f57600080fd5b505afa158015611893573d6000803e3d6000fd5b505050506040513d601f19601f820116820180604052508101906118b79190613739565b90505b6001548110156119055760405162461bcd60e51b815260206004820152601660248201527513144e88189a5908191bd95cc81b9bdd08195e1a5cdd60521b60448201526064016105a7565b6000826119145760085461199a565b600660009054906101000a90046001600160a01b03166001600160a01b03166386c8e21d6040518163ffffffff1660e01b815260040160206040518083038186803b15801561196257600080fd5b505afa158015611976573d6000803e3d6000fd5b505050506040513d601f19601f8201168201806040525081019061199a9190613739565b600754604051638eb22cdd60e01b81526004810183905260248101879052600060448201529192506001600160a01b031690630411b252903090899085908590638eb22cdd9060640160206040518083038186803b1580156119fb57600080fd5b505afa158015611a0f573d6000803e3d6000fd5b505050506040513d601f19601f82011682018060405250810190611a339190613739565b6040518563ffffffff1660e01b8152600401611a529493929190613752565b600060405180830381600087803b158015611a6c57600080fd5b505af1158015611a80573d6000803e3d6000fd5b5050505084866001600160a01b0316336001600160a01b03167f2f413fefb30b9c037ba435fc106ac59646343aafb657db7057b5b4ba42d5643786611ac6576000611ac8565b875b87611ad35788611ad6565b60005b604080519283526020830191909152810187905242606082015260800160405180910390a450505092915050565b60008060005b600a8311611b4757611b1b83611052565b15611b375750506000818152600c602052604090205460019192565b611b4083613841565b9250611b0a565b909192565b600554604080516306fdde0360e01b815290516060926001600160a01b0316916306fdde03916004808301926000929190829003018186803b158015611b9157600080fd5b505afa158015611ba5573d6000803e3d6000fd5b505050506040513d6000823e601f3d908101601f19168201604052611bcd9190810190613872565b905090565b33600090815260106020526040902054611c235760405162461bcd60e51b81526020600482015260126024820152714c513a204e6f2062616c616e63652064756560701b60448201526064016105a7565b3360009081526010602052604081205490612710611c4260328461391f565b611c4c919061393e565b90506000611c5a82846137a9565b336000908152601060205260408082208290556002546001600160a01b03168252812080549293508492909190611c92908490613791565b9091555050600a54600754604051638eb22cdd60e01b81526004810183905260248101849052600060448201526001600160a01b0390911690630411b252903090889085908590638eb22cdd9060640160206040518083038186803b158015611cfa57600080fd5b505afa158015611d0e573d6000803e3d6000fd5b505050506040513d601f19601f82011682018060405250810190611d329190613739565b6040518563ffffffff1660e01b8152600401611d519493929190613752565b600060405180830381600087803b158015611d6b57600080fd5b505af1158015611d7f573d6000803e3d6000fd5b50506040518481526001600160a01b03881692503391507fd12200efa34901b99367694174c3b0d32c99585fdf37c7c26892136ddd0836d99060200160405180910390a35050505050565b600f6020528260005260406000206020528160005260406000208181548110611df257600080fd5b9060005260206000200160009250925050505481565b6000818152600e60209081526040808320815160608181018452915463ffffffff8082168352600160201b82048116958301869052600160401b90910416928101839052909390929091611e5c9190613960565b63ffffffff1690508067ffffffffffffffff811115611e7d57611e7d61385c565b604051908082528060200260200182016040528015611eb657816020015b611ea36133a4565b815260200190600190039081611e9b5790505b506000858152600d602090815260408220908501519295509163ffffffff16905b846040015163ffffffff16821015611f8357600082815260208481526040918290208251808401845281546001600160a01b03168152835160a081018552600183015460ff8082161515835261010090910416151581850152600283015494810194909452600382015460608501526004909101546080840152908101919091528651879083908110611f6c57611f6c6137e4565b602090810291909101015260019182019101611ed7565b5050505050919050565b600b5460ff16611fd55760405162461bcd60e51b815260206004820152601360248201527213144e88139bdd081a5b9a5d1a585b1a5e9959606a1b60448201526064016105a7565b600a85111561201d5760405162461bcd60e51b8152602060048201526014602482015273098a27440e0e4cadad2eada40e8dede40d0d2ced60631b60448201526064016105a7565b6004546001600160a01b03166120755760405162461bcd60e51b815260206004820152601860248201527f4c513a20555344302073776170706572206e6f7420736574000000000000000060448201526064016105a7565b600654604080516386c8e21d60e01b815290516000926001600160a01b0316916386c8e21d916004808301926020929190829003018186803b1580156120ba57600080fd5b505afa1580156120ce573d6000803e3d6000fd5b505050506040513d601f19601f820116820180604052508101906120f29190613739565b60075460048054604051638eb22cdd60e01b815291820189905260248201889052600060448301529293506001600160a01b0391821692630411b25292339291169089908590638eb22cdd9060640160206040518083038186803b15801561215957600080fd5b505afa15801561216d573d6000803e3d6000fd5b505050506040513d601f19601f820116820180604052508101906121919190613739565b6040518563ffffffff1660e01b81526004016121b09493929190613752565b600060405180830381600087803b1580156121ca57600080fd5b505af11580156121de573d6000803e3d6000fd5b505060048054600554604051632da475e360e21b8152600095506001600160a01b03928316945063b691d78c9361222193909216918b918b918b918b9101613985565b602060405180830381600087803b15801561223b57600080fd5b505af115801561224f573d6000803e3d6000fd5b505050506040513d601f19601f820116820180604052508101906122739190613739565b905060006122848989846001612810565b90506000816020015161229b578160400151612327565b600354600554604051632eec159b60e11b81526001600160a01b0392831692635dd82b36926122d792911690889088908c908c90600401613985565b60206040518083038186803b1580156122ef57600080fd5b505afa158015612303573d6000803e3d6000fd5b505050506040513d601f19601f820116820180604052508101906123279190613739565b60015490915081101561236e5760405162461bcd60e51b815260206004820152600f60248201526e4c513a2062696420746f6f206c6f7760881b60448201526064016105a7565b50505050505050505050565b600b5460ff16156123bf5760405162461bcd60e51b815260206004820152600f60248201526e13144e88125b9a5d1a585b1a5e9959608a1b60448201526064016105a7565b8160006123cc82826139f1565b5050600580546001600160a01b0319166001600160a01b038316908117909155604080516377607a1760e11b8152905163eec0f42e91600480820192602092909190829003018186803b15801561242257600080fd5b505afa158015612436573d6000803e3d6000fd5b505050506040513d601f19601f8201168201806040525081019061245a9190613739565b600a556005546040805163226f120560e11b815290516001600160a01b03909216916344de240a91600480820192602092909190829003018186803b1580156124a257600080fd5b505afa1580156124b6573d6000803e3d6000fd5b505050506040513d601f19601f820116820180604052508101906124da9190613739565b60095560055460408051636c3d8b8f60e01b815290516001600160a01b0390921691636c3d8b8f91600480820192602092909190829003018186803b15801561252257600080fd5b505afa158015612536573d6000803e3d6000fd5b505050506040513d601f19601f8201168201806040525081019061255a9190613a57565b600680546001600160a01b0319166001600160a01b039283161790556005546040805163de40657760e01b81529051919092169163de406577916004808301926020929190829003018186803b1580156125b357600080fd5b505afa1580156125c7573d6000803e3d6000fd5b505050506040513d601f19601f820116820180604052508101906125eb9190613a57565b600780546001600160a01b0319166001600160a01b03928316179055600954600855600554604080516338d52e0f60e01b8152905191909216916338d52e0f916004808301926020929190829003018186803b15801561264a57600080fd5b505afa15801561265e573d6000803e3d6000fd5b505050506040513d601f19601f820116820180604052508101906126829190613a57565b60075460405163095ea7b360e01b81526001600160a01b039182166004820152600019602482015291169063095ea7b390604401602060405180830381600087803b1580156126d057600080fd5b505af11580156126e4573d6000803e3d6000fd5b505050506040513d601f19601f820116820180604052508101906127089190613a74565b5060075460055460405163a22cb46560e01b81526001600160a01b0391821660048201526001602482015291169063a22cb46590604401600060405180830381600087803b15801561275957600080fd5b505af115801561276d573d6000803e3d6000fd5b5050505060005b600a81116127fe57604080516060810182526000602080830182815283850183815263ffffffff8088168652878552600e9093529490922092518354925194518216600160401b0263ffffffff60401b19958316600160201b0267ffffffffffffffff19909416919092161791909117929092169190911790556127f781613841565b9050612774565b5050600b805460ff1916600117905550565b6128186132fb565b81612824576000612826565b825b6040820152816128365782612839565b60005b606082015242608082015281158015825282906128dd5750600660009054906101000a90046001600160a01b03166001600160a01b03166386c8e21d6040518163ffffffff1660e01b815260040160206040518083038186803b15801561289f57600080fd5b505afa1580156128b3573d6000803e3d6000fd5b505050506040513d601f19601f820116820180604052508101906128d79190613739565b60085414155b151560208281019182526000868152600c825260408082206001600160a01b038a1680845260019182019094529181902085518154955161ffff1990961690151561ff0019161761010095151595909502949094178455840151908301556060830151600283015560808301516003909201919091558490337fbaa682830cade78a3affa9fa3c417095d0edb57605b0ac6fb487ce2068204ce985612983576000612985565b865b866129905787612993565b60005b604080519283526020830191909152429082015260600160405180910390a46001600160a01b0385166000908152600f6020908152604080832087845282528083208054600e84528285208351606081018552905463ffffffff8082168352600160201b8204811696830196909652600160401b900490941692840192909252929091905b82811015612ac757816020015163ffffffff16848281548110612a3d57612a3d6137e4565b906000526020600020015410612abf578354925083612a5d6001856137a9565b81548110612a6d57612a6d6137e4565b9060005260206000200154848281548110612a8a57612a8a6137e4565b906000526020600020018190555083805480612aa857612aa8613a96565b600190038181906000526020600020016000905590555b600101612a18565b50505050949350505050565b6000808460000151612ae9578460600151612aef565b84604001515b905060008560200151612b025781612c02565b600354600554600654604080516386c8e21d60e01b815290516001600160a01b0394851694635dd82b369481169316916386c8e21d916004808301926020929190829003018186803b158015612b5757600080fd5b505afa158015612b6b573d6000803e3d6000fd5b505050506040513d601f19601f82011682018060405250810190612b8f9190613739565b89604001516040518463ffffffff1660e01b8152600401612bb293929190613811565b60206040518083038186803b158015612bca57600080fd5b505afa158015612bde573d6000803e3d6000fd5b505050506040513d601f19601f82011682018060405250810190612c029190613739565b9050612c19612c118287613264565b856000613283565b925050505b9392505050565b600080612c3d612c3587876132e6565b856001613283565b91506000600660009054906101000a90046001600160a01b03166001600160a01b03166386c8e21d6040518163ffffffff1660e01b815260040160206040518083038186803b158015612c8f57600080fd5b505afa158015612ca3573d6000803e3d6000fd5b505050506040513d601f19601f82011682018060405250810190612cc79190613739565b9050876020015115612f2357600354600554604051637f7ba27d60e11b81526001600160a01b039283169263fef744fa92612d0b9291169085908890600401613811565b60206040518083038186803b158015612d2357600080fd5b505afa158015612d37573d6000803e3d6000fd5b505050506040513d601f19601f82011682018060405250810190612d5b9190613739565b600754600354604051638eb22cdd60e01b81526004810185905260248101849052600060448201529294506001600160a01b0391821692630411b252923092169085908590638eb22cdd9060640160206040518083038186803b158015612dc157600080fd5b505afa158015612dd5573d6000803e3d6000fd5b505050506040513d601f19601f82011682018060405250810190612df99190613739565b6040518563ffffffff1660e01b8152600401612e189493929190613752565b600060405180830381600087803b158015612e3257600080fd5b505af1158015612e46573d6000803e3d6000fd5b5050600354600554604051632da475e360e21b8152600094506001600160a01b03928316935063b691d78c92612e86921690869088908b90600401613aac565b602060405180830381600087803b158015612ea057600080fd5b505af1158015612eb4573d6000803e3d6000fd5b505050506040513d601f19601f82011682018060405250810190612ed89190613739565b905083811015612f215760405162461bcd60e51b81526020600482015260146024820152731b9959590b5b5bdc994b58dbdb1b185d195c985b60621b60448201526064016105a7565b505b509550959350505050565b6060850151604086015160208701518691901561325957600754600354600654604080516386c8e21d60e01b815290516001600160a01b0394851694630411b252943094908216939116916386c8e21d91600480820192602092909190829003018186803b158015612f9f57600080fd5b505afa158015612fb3573d6000803e3d6000fd5b505050506040513d601f19601f82011682018060405250810190612fd79190613739565b600754600654604080516386c8e21d60e01b815290516001600160a01b0393841693638eb22cdd9316916386c8e21d916004808301926020929190829003018186803b15801561302657600080fd5b505afa15801561303a573d6000803e3d6000fd5b505050506040513d601f19601f8201168201806040525081019061305e9190613739565b8f6040015160006040518463ffffffff1660e01b81526004016130969392919092835260208301919091521515604082015260600190565b60206040518083038186803b1580156130ae57600080fd5b505afa1580156130c2573d6000803e3d6000fd5b505050506040513d601f19601f820116820180604052508101906130e69190613739565b6040518563ffffffff1660e01b81526004016131059493929190613752565b600060405180830381600087803b15801561311f57600080fd5b505af1158015613133573d6000803e3d6000fd5b5050600354600554600654604080516386c8e21d60e01b815290516001600160a01b03948516965063b691d78c955092841693909116916386c8e21d91600480820192602092909190829003018186803b15801561319057600080fd5b505afa1580156131a4573d6000803e3d6000fd5b505050506040513d601f19601f820116820180604052508101906131c89190613739565b8b60400151886040518563ffffffff1660e01b81526004016131ed9493929190613aac565b602060405180830381600087803b15801561320757600080fd5b505af115801561321b573d6000803e3d6000fd5b505050506040513d601f19601f8201168201806040525081019061323f9190613739565b925061325661324e8488613264565b866000613283565b91505b955095509592505050565b6000670de0b6b3a7640000613279838561391f565b612c1e919061393e565b6000806127106064613295868861391f565b61329f919061391f565b6132a9919061393e565b905060008360018111156132bf576132bf613ae3565b146132d3576132ce81866137a9565b6132dd565b6132dd8186613791565b95945050505050565b600081613279670de0b6b3a76400008561391f565b6040518060a001604052806000151581526020016000151581526020016000815260200160008152602001600081525090565b604080516101408101825260008082526020808301829052835160608082018652838252918101839052808501929092529282015290810161336e6133a4565b815260200161337b6133a4565b815260200160008152602001600081526020016000815260200160008152602001600081525090565b604051806040016040528060006001600160a01b031681526020016133c76132fb565b905290565b6001600160a01b03811681146133e157600080fd5b50565b6000806000606084860312156133f957600080fd5b8335613404816133cc565b95602085013595506040909401359392505050565b60006020828403121561342b57600080fd5b8135612c1e816133cc565b6000806040838503121561344957600080fd5b82359150602083013561345b816133cc565b809150509250929050565b8051151582526020810151151560208301526040810151604083015260608101516060830152608081015160808301525050565b60a081016107ae8284613466565b60008083601f8401126134ba57600080fd5b50813567ffffffffffffffff8111156134d257600080fd5b6020830191508360208285010111156134ea57600080fd5b9250929050565b60008060006040848603121561350657600080fd5b83359250602084013567ffffffffffffffff81111561352457600080fd5b613530868287016134a8565b9497909650939450505050565b60006020828403121561354f57600080fd5b5035919050565b6000806040838503121561356957600080fd5b8235613574816133cc565b946020939093013593505050565b60005b8381101561359d578181015183820152602001613585565b838111156135ac576000848401525b50505050565b600081518084526135ca816020860160208601613582565b601f01601f19169290920160200192915050565b602081526000612c1e60208301846135b2565b6000806040838503121561360457600080fd5b50508035926020909101359150565b6001600160a01b038316815260c08101612c1e6020830184613466565b6020808252825182820181905260009190848201906040850190845b8181101561368657835180516001600160a01b0316845285015161367286850182613466565b509284019260c0929092019160010161364c565b50909695505050505050565b60008060008060008060a087890312156136ab57600080fd5b86356136b6816133cc565b9550602087013594506040870135935060608701359250608087013567ffffffffffffffff8111156136e757600080fd5b6136f389828a016134a8565b979a9699509497509295939492505050565b60008082840360c081121561371957600080fd5b60a081121561372757600080fd5b5082915060a083013561345b816133cc565b60006020828403121561374b57600080fd5b5051919050565b6001600160a01b0394851681529290931660208301526040820152606081019190915260800190565b634e487b7160e01b600052601160045260246000fd5b600082198211156137a4576137a461377b565b500190565b6000828210156137bb576137bb61377b565b500390565b600080604083850312156137d357600080fd5b505080516020909101519092909150565b634e487b7160e01b600052603260045260246000fd5b6000816138095761380961377b565b506000190190565b6001600160a01b039390931683526020830191909152604082015260806060820181905260009082015260a00190565b60006000198214156138555761385561377b565b5060010190565b634e487b7160e01b600052604160045260246000fd5b60006020828403121561388457600080fd5b815167ffffffffffffffff8082111561389c57600080fd5b818401915084601f8301126138b057600080fd5b8151818111156138c2576138c261385c565b604051601f8201601f19908116603f011681019083821181831017156138ea576138ea61385c565b8160405282815287602084870101111561390357600080fd5b613914836020830160208801613582565b979650505050505050565b60008160001904831182151516156139395761393961377b565b500290565b60008261395b57634e487b7160e01b600052601260045260246000fd5b500490565b600063ffffffff8381169083168181101561397d5761397d61377b565b039392505050565b60018060a01b038616815284602082015283604082015260806060820152816080820152818360a0830137600081830160a090810191909152601f909201601f19160101949350505050565b80546001600160a01b0319166001600160a01b0392909216919091179055565b81358155602082013560018201556040820135613a0d816133cc565b613a1a81600284016139d1565b506060820135613a29816133cc565b613a3681600384016139d1565b506080820135613a45816133cc565b613a5281600484016139d1565b505050565b600060208284031215613a6957600080fd5b8151612c1e816133cc565b600060208284031215613a8657600080fd5b81518015158114612c1e57600080fd5b634e487b7160e01b600052603160045260246000fd5b60018060a01b0385168152836020820152826040820152608060608201526000613ad960808301846135b2565b9695505050505050565b634e487b7160e01b600052602160045260246000fdfea2646970667358221220967b673cc0381eae288278aaca49df9286068b3bb31edb883bfce8e70fa266ee64736f6c63430008090033",
  "devdoc": {
    "author": "@0xRektora, TapiocaDAO",
    "kind": "dev",
    "methods": {
      "activateBid(address,uint256)": {
        "details": "Create an entry in `orderBook` and remove it from `bidPools`.Spam vector attack is mitigated the min amount req., 10min CD + activation fees.",
        "params": {
          "pool": "The target pool.",
          "user": "The user to activate the bid for."
        }
      },
      "bid(address,uint256,uint256)": {
        "details": "Create an entry in `bidPools`.      Clean the userBidIndex here instead of the `executeBids()` function to save on gas.",
        "params": {
          "amount": "The amount in asset to bid.",
          "pool": "To which pool the bid should go.",
          "user": "The bidder."
        }
      },
      "bidWithStable(address,uint256,uint256,uint256,bytes)": {
        "details": "Works the same way as `bid` but performs a swap from the stablecoin to USDO      - if stableAssetId == usdoAssetId, no swap is performed",
        "params": {
          "amountIn": "Stablecoin amount",
          "data": "Extra data for swap operations",
          "pool": "To which pool the bid should go",
          "stableAssetId": "Stablecoin YieldBox asset id",
          "user": "The bidder"
        }
      },
      "executeBids(uint256,bytes)": {
        "details": "Should only be called from Singularity.      Singularity should send the `collateralAmountToLiquidate` to this contract before calling this function. Tx will fail if it can't transfer allowed Penrose asset from Singularity.",
        "params": {
          "collateralAmountToLiquidate": "The amount of collateral to liquidate.",
          "swapData": "Swap data necessary for swapping USD0 to market asset; necessary only if bidder added USD0"
        },
        "returns": {
          "totalAmountExecuted": "The amount of asset that was executed.",
          "totalCollateralLiquidated": "The amount of collateral that was liquidated."
        }
      },
      "getBidPoolUserInfo(uint256,address)": {
        "params": {
          "pool": "the pool identifier",
          "user": "the user identifier"
        }
      },
      "getNextAvailBidPool()": {
        "returns": {
          "available": "True if there is at least 1 bid available across all the order books.",
          "i": "The bid pool id.",
          "totalAmount": "Total available liquidated asset amount."
        }
      },
      "init((uint256,uint256,address,address,address),address)": {
        "params": {
          "_liquidationQueueMeta": "Info about the liquidations."
        }
      },
      "redeem(address)": {
        "details": "`msg.sender` is used as the redeemer.",
        "params": {
          "to": "The address to redeem to."
        }
      },
      "removeBid(address,uint256)": {
        "details": "Remove `msg.sender` funds.",
        "params": {
          "pool": "The pool to remove the bid from.",
          "user": "The user to send the funds to."
        },
        "returns": {
          "amountRemoved": "The amount of the bid."
        }
      },
      "setBidExecutionSwapper(address)": {
        "params": {
          "_swapper": "thew new ICollateralSwaper contract address"
        }
      },
      "setUsdoSwapper(address)": {
        "params": {
          "_swapper": "thew new ICollateralSwaper contract address"
        }
      }
    },
    "stateVariables": {
      "balancesDue": {
        "details": "user => amountDue."
      },
      "bidPools": {
        "details": "x% premium => bid pool      0 ... 30 range      poolId => totalAmount      poolId => userAddress => userBidInfo."
      },
      "orderBookEntries": {
        "details": "poolId => bidIndex => bidEntry)."
      },
      "orderBookInfos": {
        "details": "poolId => poolInfo."
      },
      "userBidIndexes": {
        "details": "user => orderBookEntries[poolId][bidIndex]"
      }
    },
    "title": "LiquidationQueue",
    "version": 1
  },
  "userdoc": {
    "kind": "user",
    "methods": {
      "activateBid(address,uint256)": {
        "notice": "Activate a bid by putting it in the order book."
      },
      "balancesDue(address)": {
        "notice": "Due balance of users"
      },
      "bid(address,uint256,uint256)": {
        "notice": "Add a bid to a bid pool."
      },
      "bidPools(uint256)": {
        "notice": "Bid pools"
      },
      "bidWithStable(address,uint256,uint256,uint256,bytes)": {
        "notice": "Add a bid to a bid pool using stablecoins."
      },
      "executeBids(uint256,bytes)": {
        "notice": "Execute the liquidation call by executing the bids placed in the pools in ASC order."
      },
      "getBidPoolUserInfo(uint256,address)": {
        "notice": "returns user data for an existing bid pool"
      },
      "getNextAvailBidPool()": {
        "notice": "Get the next not empty bid pool in ASC order."
      },
      "getOrderBookPoolEntries(uint256)": {
        "notice": "returns an array of 'OrderBookPoolEntry' for a pool"
      },
      "getOrderBookSize(uint256)": {
        "notice": "returns order book size"
      },
      "init((uint256,uint256,address,address,address),address)": {
        "notice": "Acts as a 'constructor', should be called by a Singularity market."
      },
      "liquidatedAssetId()": {
        "notice": "asset that is being liquidated"
      },
      "liquidationQueueMeta()": {
        "notice": "returns metadata information"
      },
      "lqAssetId()": {
        "notice": "liquidation queue Penrose asset id"
      },
      "market()": {
        "notice": "returns targeted market"
      },
      "marketAssetId()": {
        "notice": "singularity asset id"
      },
      "onlyOnce()": {
        "notice": "initialization status"
      },
      "orderBookEntries(uint256,uint256)": {
        "notice": "The actual order book. Entries are stored only once a bid has been activated"
      },
      "orderBookInfos(uint256)": {
        "notice": "Meta-data about the order book pool"
      },
      "penrose()": {
        "notice": "Penrose addres"
      },
      "redeem(address)": {
        "notice": "Redeem a balance."
      },
      "removeBid(address,uint256)": {
        "notice": "Remove a not yet activated bid from the bid pool."
      },
      "setBidExecutionSwapper(address)": {
        "notice": "updates the bid swapper address"
      },
      "setUsdoSwapper(address)": {
        "notice": "updates the bid swapper address"
      },
      "singularity()": {
        "notice": "targeted market"
      },
      "userBidIndexLength(address,uint256)": {
        "notice": "returns number of pool bids for user"
      },
      "userBidIndexes(address,uint256,uint256)": {
        "notice": "User current bids"
      },
      "yieldBox()": {
        "notice": "YieldBox address"
      }
    },
    "version": 1
  },
  "storageLayout": {
    "storage": [
      {
        "astId": 7425,
        "contract": "contracts/liquidationQueue/LiquidationQueue.sol:LiquidationQueue",
        "label": "liquidationQueueMeta",
        "offset": 0,
        "slot": "0",
        "type": "t_struct(LiquidationQueueMeta)7340_storage"
      },
      {
        "astId": 7429,
        "contract": "contracts/liquidationQueue/LiquidationQueue.sol:LiquidationQueue",
        "label": "singularity",
        "offset": 0,
        "slot": "5",
        "type": "t_contract(ISingularity)15286"
      },
      {
        "astId": 7433,
        "contract": "contracts/liquidationQueue/LiquidationQueue.sol:LiquidationQueue",
        "label": "penrose",
        "offset": 0,
        "slot": "6",
        "type": "t_contract(IPenrose)6365"
      },
      {
        "astId": 7437,
        "contract": "contracts/liquidationQueue/LiquidationQueue.sol:LiquidationQueue",
        "label": "yieldBox",
        "offset": 0,
        "slot": "7",
        "type": "t_contract(YieldBox)30909"
      },
      {
        "astId": 7440,
        "contract": "contracts/liquidationQueue/LiquidationQueue.sol:LiquidationQueue",
        "label": "lqAssetId",
        "offset": 0,
        "slot": "8",
        "type": "t_uint256"
      },
      {
        "astId": 7443,
        "contract": "contracts/liquidationQueue/LiquidationQueue.sol:LiquidationQueue",
        "label": "marketAssetId",
        "offset": 0,
        "slot": "9",
        "type": "t_uint256"
      },
      {
        "astId": 7446,
        "contract": "contracts/liquidationQueue/LiquidationQueue.sol:LiquidationQueue",
        "label": "liquidatedAssetId",
        "offset": 0,
        "slot": "10",
        "type": "t_uint256"
      },
      {
        "astId": 7449,
        "contract": "contracts/liquidationQueue/LiquidationQueue.sol:LiquidationQueue",
        "label": "onlyOnce",
        "offset": 0,
        "slot": "11",
        "type": "t_bool"
      },
      {
        "astId": 7455,
        "contract": "contracts/liquidationQueue/LiquidationQueue.sol:LiquidationQueue",
        "label": "bidPools",
        "offset": 0,
        "slot": "12",
        "type": "t_mapping(t_uint256,t_struct(PoolInfo)7303_storage)"
      },
      {
        "astId": 7463,
        "contract": "contracts/liquidationQueue/LiquidationQueue.sol:LiquidationQueue",
        "label": "orderBookEntries",
        "offset": 0,
        "slot": "13",
        "type": "t_mapping(t_uint256,t_mapping(t_uint256,t_struct(OrderBookPoolEntry)7320_storage))"
      },
      {
        "astId": 7469,
        "contract": "contracts/liquidationQueue/LiquidationQueue.sol:LiquidationQueue",
        "label": "orderBookInfos",
        "offset": 0,
        "slot": "14",
        "type": "t_mapping(t_uint256,t_struct(OrderBookPoolInfo)7327_storage)"
      },
      {
        "astId": 7477,
        "contract": "contracts/liquidationQueue/LiquidationQueue.sol:LiquidationQueue",
        "label": "userBidIndexes",
        "offset": 0,
        "slot": "15",
        "type": "t_mapping(t_address,t_mapping(t_uint256,t_array(t_uint256)dyn_storage))"
      },
      {
        "astId": 7482,
        "contract": "contracts/liquidationQueue/LiquidationQueue.sol:LiquidationQueue",
        "label": "balancesDue",
        "offset": 0,
        "slot": "16",
        "type": "t_mapping(t_address,t_uint256)"
      }
    ],
    "types": {
      "t_address": {
        "encoding": "inplace",
        "label": "address",
        "numberOfBytes": "20"
      },
      "t_array(t_uint256)dyn_storage": {
        "base": "t_uint256",
        "encoding": "dynamic_array",
        "label": "uint256[]",
        "numberOfBytes": "32"
      },
      "t_bool": {
        "encoding": "inplace",
        "label": "bool",
        "numberOfBytes": "1"
      },
      "t_contract(IBidder)10084": {
        "encoding": "inplace",
        "label": "contract IBidder",
        "numberOfBytes": "20"
      },
      "t_contract(IPenrose)6365": {
        "encoding": "inplace",
        "label": "contract IPenrose",
        "numberOfBytes": "20"
      },
      "t_contract(ISingularity)15286": {
        "encoding": "inplace",
        "label": "contract ISingularity",
        "numberOfBytes": "20"
      },
      "t_contract(YieldBox)30909": {
        "encoding": "inplace",
        "label": "contract YieldBox",
        "numberOfBytes": "20"
      },
      "t_mapping(t_address,t_mapping(t_uint256,t_array(t_uint256)dyn_storage))": {
        "encoding": "mapping",
        "key": "t_address",
        "label": "mapping(address => mapping(uint256 => uint256[]))",
        "numberOfBytes": "32",
        "value": "t_mapping(t_uint256,t_array(t_uint256)dyn_storage)"
      },
      "t_mapping(t_address,t_struct(Bidder)7314_storage)": {
        "encoding": "mapping",
        "key": "t_address",
        "label": "mapping(address => struct ILiquidationQueue.Bidder)",
        "numberOfBytes": "32",
        "value": "t_struct(Bidder)7314_storage"
      },
      "t_mapping(t_address,t_uint256)": {
        "encoding": "mapping",
        "key": "t_address",
        "label": "mapping(address => uint256)",
        "numberOfBytes": "32",
        "value": "t_uint256"
      },
      "t_mapping(t_uint256,t_array(t_uint256)dyn_storage)": {
        "encoding": "mapping",
        "key": "t_uint256",
        "label": "mapping(uint256 => uint256[])",
        "numberOfBytes": "32",
        "value": "t_array(t_uint256)dyn_storage"
      },
      "t_mapping(t_uint256,t_mapping(t_uint256,t_struct(OrderBookPoolEntry)7320_storage))": {
        "encoding": "mapping",
        "key": "t_uint256",
        "label": "mapping(uint256 => mapping(uint256 => struct ILiquidationQueue.OrderBookPoolEntry))",
        "numberOfBytes": "32",
        "value": "t_mapping(t_uint256,t_struct(OrderBookPoolEntry)7320_storage)"
      },
      "t_mapping(t_uint256,t_struct(OrderBookPoolEntry)7320_storage)": {
        "encoding": "mapping",
        "key": "t_uint256",
        "label": "mapping(uint256 => struct ILiquidationQueue.OrderBookPoolEntry)",
        "numberOfBytes": "32",
        "value": "t_struct(OrderBookPoolEntry)7320_storage"
      },
      "t_mapping(t_uint256,t_struct(OrderBookPoolInfo)7327_storage)": {
        "encoding": "mapping",
        "key": "t_uint256",
        "label": "mapping(uint256 => struct ILiquidationQueue.OrderBookPoolInfo)",
        "numberOfBytes": "32",
        "value": "t_struct(OrderBookPoolInfo)7327_storage"
      },
      "t_mapping(t_uint256,t_struct(PoolInfo)7303_storage)": {
        "encoding": "mapping",
        "key": "t_uint256",
        "label": "mapping(uint256 => struct ILiquidationQueue.PoolInfo)",
        "numberOfBytes": "32",
        "value": "t_struct(PoolInfo)7303_storage"
      },
      "t_struct(Bidder)7314_storage": {
        "encoding": "inplace",
        "label": "struct ILiquidationQueue.Bidder",
        "members": [
          {
            "astId": 7305,
            "contract": "contracts/liquidationQueue/LiquidationQueue.sol:LiquidationQueue",
            "label": "isUsdo",
            "offset": 0,
            "slot": "0",
            "type": "t_bool"
          },
          {
            "astId": 7307,
            "contract": "contracts/liquidationQueue/LiquidationQueue.sol:LiquidationQueue",
            "label": "swapOnExecute",
            "offset": 1,
            "slot": "0",
            "type": "t_bool"
          },
          {
            "astId": 7309,
            "contract": "contracts/liquidationQueue/LiquidationQueue.sol:LiquidationQueue",
            "label": "usdoAmount",
            "offset": 0,
            "slot": "1",
            "type": "t_uint256"
          },
          {
            "astId": 7311,
            "contract": "contracts/liquidationQueue/LiquidationQueue.sol:LiquidationQueue",
            "label": "liquidatedAssetAmount",
            "offset": 0,
            "slot": "2",
            "type": "t_uint256"
          },
          {
            "astId": 7313,
            "contract": "contracts/liquidationQueue/LiquidationQueue.sol:LiquidationQueue",
            "label": "timestamp",
            "offset": 0,
            "slot": "3",
            "type": "t_uint256"
          }
        ],
        "numberOfBytes": "128"
      },
      "t_struct(LiquidationQueueMeta)7340_storage": {
        "encoding": "inplace",
        "label": "struct ILiquidationQueue.LiquidationQueueMeta",
        "members": [
          {
            "astId": 7329,
            "contract": "contracts/liquidationQueue/LiquidationQueue.sol:LiquidationQueue",
            "label": "activationTime",
            "offset": 0,
            "slot": "0",
            "type": "t_uint256"
          },
          {
            "astId": 7331,
            "contract": "contracts/liquidationQueue/LiquidationQueue.sol:LiquidationQueue",
            "label": "minBidAmount",
            "offset": 0,
            "slot": "1",
            "type": "t_uint256"
          },
          {
            "astId": 7333,
            "contract": "contracts/liquidationQueue/LiquidationQueue.sol:LiquidationQueue",
            "label": "feeCollector",
            "offset": 0,
            "slot": "2",
            "type": "t_address"
          },
          {
            "astId": 7336,
            "contract": "contracts/liquidationQueue/LiquidationQueue.sol:LiquidationQueue",
            "label": "bidExecutionSwapper",
            "offset": 0,
            "slot": "3",
            "type": "t_contract(IBidder)10084"
          },
          {
            "astId": 7339,
            "contract": "contracts/liquidationQueue/LiquidationQueue.sol:LiquidationQueue",
            "label": "usdoSwapper",
            "offset": 0,
            "slot": "4",
            "type": "t_contract(IBidder)10084"
          }
        ],
        "numberOfBytes": "160"
      },
      "t_struct(OrderBookPoolEntry)7320_storage": {
        "encoding": "inplace",
        "label": "struct ILiquidationQueue.OrderBookPoolEntry",
        "members": [
          {
            "astId": 7316,
            "contract": "contracts/liquidationQueue/LiquidationQueue.sol:LiquidationQueue",
            "label": "bidder",
            "offset": 0,
            "slot": "0",
            "type": "t_address"
          },
          {
            "astId": 7319,
            "contract": "contracts/liquidationQueue/LiquidationQueue.sol:LiquidationQueue",
            "label": "bidInfo",
            "offset": 0,
            "slot": "1",
            "type": "t_struct(Bidder)7314_storage"
          }
        ],
        "numberOfBytes": "160"
      },
      "t_struct(OrderBookPoolInfo)7327_storage": {
        "encoding": "inplace",
        "label": "struct ILiquidationQueue.OrderBookPoolInfo",
        "members": [
          {
            "astId": 7322,
            "contract": "contracts/liquidationQueue/LiquidationQueue.sol:LiquidationQueue",
            "label": "poolId",
            "offset": 0,
            "slot": "0",
            "type": "t_uint32"
          },
          {
            "astId": 7324,
            "contract": "contracts/liquidationQueue/LiquidationQueue.sol:LiquidationQueue",
            "label": "nextBidPull",
            "offset": 4,
            "slot": "0",
            "type": "t_uint32"
          },
          {
            "astId": 7326,
            "contract": "contracts/liquidationQueue/LiquidationQueue.sol:LiquidationQueue",
            "label": "nextBidPush",
            "offset": 8,
            "slot": "0",
            "type": "t_uint32"
          }
        ],
        "numberOfBytes": "32"
      },
      "t_struct(PoolInfo)7303_storage": {
        "encoding": "inplace",
        "label": "struct ILiquidationQueue.PoolInfo",
        "members": [
          {
            "astId": 7297,
            "contract": "contracts/liquidationQueue/LiquidationQueue.sol:LiquidationQueue",
            "label": "totalAmount",
            "offset": 0,
            "slot": "0",
            "type": "t_uint256"
          },
          {
            "astId": 7302,
            "contract": "contracts/liquidationQueue/LiquidationQueue.sol:LiquidationQueue",
            "label": "users",
            "offset": 0,
            "slot": "1",
            "type": "t_mapping(t_address,t_struct(Bidder)7314_storage)"
          }
        ],
        "numberOfBytes": "64"
      },
      "t_uint256": {
        "encoding": "inplace",
        "label": "uint256",
        "numberOfBytes": "32"
      },
      "t_uint32": {
        "encoding": "inplace",
        "label": "uint32",
        "numberOfBytes": "4"
      }
    }
  }
}