{
  "address": "0x678488290Fa0240160cB159c3Dda2748d5413a5D",
  "abi": [
    {
      "inputs": [
        {
          "internalType": "address",
          "name": "who",
          "type": "address"
        },
        {
          "internalType": "contract IBigBang[]",
          "name": "markets",
          "type": "address[]"
        }
      ],
      "name": "bigBangMarketInfo",
      "outputs": [
        {
          "components": [
            {
              "components": [
                {
                  "internalType": "address",
                  "name": "collateral",
                  "type": "address"
                },
                {
                  "internalType": "uint256",
                  "name": "collateralId",
                  "type": "uint256"
                },
                {
                  "internalType": "address",
                  "name": "asset",
                  "type": "address"
                },
                {
                  "internalType": "uint256",
                  "name": "assetId",
                  "type": "uint256"
                },
                {
                  "internalType": "contract IOracle",
                  "name": "oracle",
                  "type": "address"
                },
                {
                  "internalType": "bytes",
                  "name": "oracleData",
                  "type": "bytes"
                },
                {
                  "internalType": "uint256",
                  "name": "totalCollateralShare",
                  "type": "uint256"
                },
                {
                  "internalType": "uint256",
                  "name": "userCollateralShare",
                  "type": "uint256"
                },
                {
                  "components": [
                    {
                      "internalType": "uint128",
                      "name": "elastic",
                      "type": "uint128"
                    },
                    {
                      "internalType": "uint128",
                      "name": "base",
                      "type": "uint128"
                    }
                  ],
                  "internalType": "struct Rebase",
                  "name": "totalBorrow",
                  "type": "tuple"
                },
                {
                  "internalType": "uint256",
                  "name": "userBorrowPart",
                  "type": "uint256"
                },
                {
                  "internalType": "uint256",
                  "name": "currentExchangeRate",
                  "type": "uint256"
                },
                {
                  "internalType": "uint256",
                  "name": "spotExchangeRate",
                  "type": "uint256"
                },
                {
                  "internalType": "uint256",
                  "name": "oracleExchangeRate",
                  "type": "uint256"
                },
                {
                  "internalType": "uint256",
                  "name": "totalBorrowCap",
                  "type": "uint256"
                }
              ],
              "internalType": "struct MarketsHelper.MarketInfo",
              "name": "market",
              "type": "tuple"
            },
            {
              "components": [
                {
                  "internalType": "uint64",
                  "name": "debtRate",
                  "type": "uint64"
                },
                {
                  "internalType": "uint64",
                  "name": "lastAccrued",
                  "type": "uint64"
                }
              ],
              "internalType": "struct IBigBang.AccrueInfo",
              "name": "accrueInfo",
              "type": "tuple"
            }
          ],
          "internalType": "struct MarketsHelper.BigBangInfo[]",
          "name": "",
          "type": "tuple[]"
        }
      ],
      "stateMutability": "view",
      "type": "function"
    },
    {
      "inputs": [
        {
          "internalType": "contract IMarket",
          "name": "market",
          "type": "address"
        },
        {
          "internalType": "uint256",
          "name": "_collateralAmount",
          "type": "uint256"
        },
        {
          "internalType": "uint256",
          "name": "_borrowAmount",
          "type": "uint256"
        },
        {
          "internalType": "bool",
          "name": "deposit_",
          "type": "bool"
        },
        {
          "internalType": "bool",
          "name": "withdraw_",
          "type": "bool"
        },
        {
          "internalType": "bytes",
          "name": "_withdrawData",
          "type": "bytes"
        }
      ],
      "name": "depositAddCollateralAndBorrow",
      "outputs": [],
      "stateMutability": "payable",
      "type": "function"
    },
    {
      "inputs": [
        {
          "internalType": "contract ISingularity",
          "name": "singularity",
          "type": "address"
        },
        {
          "internalType": "uint256",
          "name": "_amount",
          "type": "uint256"
        },
        {
          "internalType": "bool",
          "name": "deposit_",
          "type": "bool"
        }
      ],
      "name": "depositAndAddAsset",
      "outputs": [],
      "stateMutability": "nonpayable",
      "type": "function"
    },
    {
      "inputs": [
        {
          "internalType": "contract IMarket",
          "name": "market",
          "type": "address"
        },
        {
          "internalType": "uint256",
          "name": "_depositAmount",
          "type": "uint256"
        },
        {
          "internalType": "uint256",
          "name": "_repayAmount",
          "type": "uint256"
        },
        {
          "internalType": "bool",
          "name": "deposit_",
          "type": "bool"
        }
      ],
      "name": "depositAndRepay",
      "outputs": [],
      "stateMutability": "nonpayable",
      "type": "function"
    },
    {
      "inputs": [
        {
          "internalType": "contract IMarket",
          "name": "market",
          "type": "address"
        },
        {
          "internalType": "uint256",
          "name": "_depositAmount",
          "type": "uint256"
        },
        {
          "internalType": "uint256",
          "name": "_repayAmount",
          "type": "uint256"
        },
        {
          "internalType": "uint256",
          "name": "_collateralAmount",
          "type": "uint256"
        },
        {
          "internalType": "bool",
          "name": "deposit_",
          "type": "bool"
        },
        {
          "internalType": "bool",
          "name": "withdraw_",
          "type": "bool"
        }
      ],
      "name": "depositRepayAndRemoveCollateral",
      "outputs": [],
      "stateMutability": "nonpayable",
      "type": "function"
    },
    {
      "inputs": [
        {
          "internalType": "contract ISingularity",
          "name": "singularity",
          "type": "address"
        },
        {
          "internalType": "uint256",
          "name": "fraction",
          "type": "uint256"
        }
      ],
      "name": "getAmountForAssetFraction",
      "outputs": [
        {
          "internalType": "uint256",
          "name": "amount",
          "type": "uint256"
        }
      ],
      "stateMutability": "view",
      "type": "function"
    },
    {
      "inputs": [
        {
          "internalType": "contract IMarket",
          "name": "market",
          "type": "address"
        },
        {
          "internalType": "uint256",
          "name": "borrowPart",
          "type": "uint256"
        }
      ],
      "name": "getAmountForBorrowPart",
      "outputs": [
        {
          "internalType": "uint256",
          "name": "amount",
          "type": "uint256"
        }
      ],
      "stateMutability": "view",
      "type": "function"
    },
    {
      "inputs": [
        {
          "internalType": "contract IMarket",
          "name": "market",
          "type": "address"
        },
        {
          "internalType": "uint256",
          "name": "share",
          "type": "uint256"
        }
      ],
      "name": "getCollateralAmountForShare",
      "outputs": [
        {
          "internalType": "uint256",
          "name": "amount",
          "type": "uint256"
        }
      ],
      "stateMutability": "view",
      "type": "function"
    },
    {
      "inputs": [
        {
          "internalType": "contract IMarket",
          "name": "market",
          "type": "address"
        },
        {
          "internalType": "uint256",
          "name": "borrowPart",
          "type": "uint256"
        },
        {
          "internalType": "uint256",
          "name": "liquidationMultiplierPrecision",
          "type": "uint256"
        },
        {
          "internalType": "uint256",
          "name": "exchangeRatePrecision",
          "type": "uint256"
        }
      ],
      "name": "getCollateralSharesForBorrowPart",
      "outputs": [
        {
          "internalType": "uint256",
          "name": "collateralShares",
          "type": "uint256"
        }
      ],
      "stateMutability": "view",
      "type": "function"
    },
    {
      "inputs": [
        {
          "internalType": "contract ISingularity",
          "name": "singularity",
          "type": "address"
        },
        {
          "internalType": "contract IMarket",
          "name": "bingBang",
          "type": "address"
        },
        {
          "internalType": "uint256",
          "name": "_collateralAmount",
          "type": "uint256"
        },
        {
          "internalType": "uint256",
          "name": "_borrowAmount",
          "type": "uint256"
        },
        {
          "internalType": "bool",
          "name": "deposit_",
          "type": "bool"
        }
      ],
      "name": "mintAndLend",
      "outputs": [],
      "stateMutability": "nonpayable",
      "type": "function"
    },
    {
      "inputs": [
        {
          "internalType": "contract ISingularity",
          "name": "singularity",
          "type": "address"
        },
        {
          "internalType": "contract IMarket",
          "name": "bingBang",
          "type": "address"
        },
        {
          "internalType": "uint256",
          "name": "_removeShare",
          "type": "uint256"
        },
        {
          "internalType": "uint256",
          "name": "_repayAmount",
          "type": "uint256"
        },
        {
          "internalType": "uint256",
          "name": "_collateralShare",
          "type": "uint256"
        },
        {
          "internalType": "bool",
          "name": "withdraw_",
          "type": "bool"
        },
        {
          "internalType": "bytes",
          "name": "withdrawData_",
          "type": "bytes"
        }
      ],
      "name": "removeAssetAndRepay",
      "outputs": [],
      "stateMutability": "nonpayable",
      "type": "function"
    },
    {
      "inputs": [
        {
          "internalType": "address",
          "name": "who",
          "type": "address"
        },
        {
          "internalType": "contract ISingularity[]",
          "name": "markets",
          "type": "address[]"
        }
      ],
      "name": "singularityMarketInfo",
      "outputs": [
        {
          "components": [
            {
              "components": [
                {
                  "internalType": "address",
                  "name": "collateral",
                  "type": "address"
                },
                {
                  "internalType": "uint256",
                  "name": "collateralId",
                  "type": "uint256"
                },
                {
                  "internalType": "address",
                  "name": "asset",
                  "type": "address"
                },
                {
                  "internalType": "uint256",
                  "name": "assetId",
                  "type": "uint256"
                },
                {
                  "internalType": "contract IOracle",
                  "name": "oracle",
                  "type": "address"
                },
                {
                  "internalType": "bytes",
                  "name": "oracleData",
                  "type": "bytes"
                },
                {
                  "internalType": "uint256",
                  "name": "totalCollateralShare",
                  "type": "uint256"
                },
                {
                  "internalType": "uint256",
                  "name": "userCollateralShare",
                  "type": "uint256"
                },
                {
                  "components": [
                    {
                      "internalType": "uint128",
                      "name": "elastic",
                      "type": "uint128"
                    },
                    {
                      "internalType": "uint128",
                      "name": "base",
                      "type": "uint128"
                    }
                  ],
                  "internalType": "struct Rebase",
                  "name": "totalBorrow",
                  "type": "tuple"
                },
                {
                  "internalType": "uint256",
                  "name": "userBorrowPart",
                  "type": "uint256"
                },
                {
                  "internalType": "uint256",
                  "name": "currentExchangeRate",
                  "type": "uint256"
                },
                {
                  "internalType": "uint256",
                  "name": "spotExchangeRate",
                  "type": "uint256"
                },
                {
                  "internalType": "uint256",
                  "name": "oracleExchangeRate",
                  "type": "uint256"
                },
                {
                  "internalType": "uint256",
                  "name": "totalBorrowCap",
                  "type": "uint256"
                }
              ],
              "internalType": "struct MarketsHelper.MarketInfo",
              "name": "market",
              "type": "tuple"
            },
            {
              "components": [
                {
                  "internalType": "uint128",
                  "name": "elastic",
                  "type": "uint128"
                },
                {
                  "internalType": "uint128",
                  "name": "base",
                  "type": "uint128"
                }
              ],
              "internalType": "struct Rebase",
              "name": "totalAsset",
              "type": "tuple"
            },
            {
              "internalType": "uint256",
              "name": "userAssetFraction",
              "type": "uint256"
            },
            {
              "components": [
                {
                  "internalType": "uint64",
                  "name": "interestPerSecond",
                  "type": "uint64"
                },
                {
                  "internalType": "uint64",
                  "name": "lastAccrued",
                  "type": "uint64"
                },
                {
                  "internalType": "uint128",
                  "name": "feesEarnedFraction",
                  "type": "uint128"
                }
              ],
              "internalType": "struct ISingularity.AccrueInfo",
              "name": "accrueInfo",
              "type": "tuple"
            }
          ],
          "internalType": "struct MarketsHelper.SingularityInfo[]",
          "name": "",
          "type": "tuple[]"
        }
      ],
      "stateMutability": "view",
      "type": "function"
    }
  ],
  "transactionHash": "0x7259d62343995b6ad2002b6faf270ee866b7802e0c14a4611d595b002743d3c4",
  "args": [],
  "numDeployments": 1,
  "solcInputHash": "c119914891fc265cca39336c119b4e24",
  "bytecode": "0x608060405234801561001057600080fd5b5061423c806100206000396000f3fe6080604052600436106100a75760003560e01c8063700ea12411610064578063700ea12414610181578063a306dfd5146101a1578063b75a5a59146101c1578063e4e802e8146101e1578063e552cb411461020e578063ea881c181461022e57600080fd5b80630f20088d146100ac57806314ecf5a8146100c157806326dd79a6146100f4578063443c73a7146101145780634b96e571146101345780636dd55c0b14610154575b600080fd5b6100bf6100ba366004613624565b61024e565b005b3480156100cd57600080fd5b506100e16100dc3660046136b2565b610697565b6040519081526020015b60405180910390f35b34801561010057600080fd5b506100bf61010f3660046136de565b6108b3565b34801561012057600080fd5b506100e161012f366004613775565b610cce565b34801561014057600080fd5b506100bf61014f3660046137b0565b611021565b34801561016057600080fd5b5061017461016f366004613878565b6115bd565b6040516100eb9190613a82565b34801561018d57600080fd5b506100bf61019c366004613b11565b611764565b3480156101ad57600080fd5b506100e16101bc3660046136b2565b611a64565b3480156101cd57600080fd5b506100bf6101dc366004613b78565b611b24565b3480156101ed57600080fd5b506102016101fc366004613bba565b611ed1565b6040516100eb9190613c59565b34801561021a57600080fd5b506100bf610229366004613d22565b61220c565b34801561023a57600080fd5b506100e16102493660046136b2565b6124dc565b6000876001600160a01b031663de4065776040518163ffffffff1660e01b815260040160206040518083038186803b15801561028957600080fd5b505afa15801561029d573d6000803e3d6000fd5b505050506040513d601f19601f820116820180604052508101906102c19190613d6c565b90506000886001600160a01b031663eec0f42e6040518163ffffffff1660e01b815260040160206040518083038186803b1580156102fe57600080fd5b505afa158015610312573d6000803e3d6000fd5b505050506040513d601f19601f820116820180604052508101906103369190613d89565b604051630cf35bdd60e41b8152600481018290529091506000906001600160a01b0384169063cf35bdd09060240160806040518083038186803b15801561037c57600080fd5b505afa158015610390573d6000803e3d6000fd5b505050506040513d601f19601f820116820180604052508101906103b49190613da2565b5050604051638eb22cdd60e01b815260048101859052602481018c90526000604482018190529193509091506001600160a01b03851690638eb22cdd9060640160206040518083038186803b15801561040c57600080fd5b505afa158015610420573d6000803e3d6000fd5b505050506040513d601f19601f820116820180604052508101906104449190613d89565b9050871561056257610456828b612657565b60405163095ea7b360e01b81526001600160a01b038581166004830152602482018c905283169063095ea7b390604401602060405180830381600087803b1580156104a057600080fd5b505af11580156104b4573d6000803e3d6000fd5b505050506040513d601f19601f820116820180604052508101906104d89190613df9565b50604051634d4d7cbd60e11b81526001600160a01b03851690639a9af97a9061050e908690309081906000908890600401613e16565b6040805180830381600087803b15801561052757600080fd5b505af115801561053b573d6000803e3d6000fd5b505050506040513d601f19601f8201168201806040525081019061055f9190613e45565b50505b61056c8b8561271f565b8a6001600160a01b03166325be7824896105865733610588565b305b336000856040518563ffffffff1660e01b81526004016105ab9493929190613e69565b600060405180830381600087803b1580156105c557600080fd5b505af11580156105d9573d6000803e3d6000fd5b505050506000876105ea57336105ec565b305b6040516314890dcb60e21b81529091506001600160a01b038d1690635224372c9061061f90339085908f90600401613e94565b6040805180830381600087803b15801561063857600080fd5b505af115801561064c573d6000803e3d6000fd5b505050506040513d601f19601f820116820180604052508101906106709190613e45565b50508715610689576106898188888f898f600080612891565b505050505050505050505050565b6000806000846001600160a01b031663f9557ccb6040518163ffffffff1660e01b8152600401604080518083038186803b1580156106d457600080fd5b505afa1580156106e8573d6000803e3d6000fd5b505050506040513d601f19601f8201168201806040525081019061070c9190613ed4565b915091506000856001600160a01b031663de4065776040518163ffffffff1660e01b815260040160206040518083038186803b15801561074b57600080fd5b505afa15801561075f573d6000803e3d6000fd5b505050506040513d601f19601f820116820180604052508101906107839190613d6c565b9050806001600160a01b031663442c1599876001600160a01b03166344de240a6040518163ffffffff1660e01b815260040160206040518083038186803b1580156107cd57600080fd5b505afa1580156107e1573d6000803e3d6000fd5b505050506040513d601f19601f820116820180604052508101906108059190613d89565b846001600160801b0316866001600160801b0316896108249190613f1d565b61082e9190613f3c565b6040516001600160e01b031960e085901b168152600481019290925260248201526000604482015260640160206040518083038186803b15801561087157600080fd5b505afa158015610885573d6000803e3d6000fd5b505050506040513d601f19601f820116820180604052508101906108a99190613d89565b9695505050505050565b6000886001600160a01b031663de4065776040518163ffffffff1660e01b815260040160206040518083038186803b1580156108ee57600080fd5b505afa158015610902573d6000803e3d6000fd5b505050506040513d601f19601f820116820180604052508101906109269190613d6c565b90506000886001600160a01b03166344de240a6040518163ffffffff1660e01b815260040160206040518083038186803b15801561096357600080fd5b505afa158015610977573d6000803e3d6000fd5b505050506040513d601f19601f8201168201806040525081019061099b9190613d89565b60405163442c159960e01b815260048101829052602481018a90526000604482018190529192506001600160a01b0384169063442c15999060640160206040518083038186803b1580156109ee57600080fd5b505afa158015610a02573d6000803e3d6000fd5b505050506040513d601f19601f82011682018060405250810190610a269190613d89565b60405163f4d9375360e01b81529091506001600160a01b038c169063f4d9375390610a5990339030908e90600401613e94565b602060405180830381600087803b158015610a7357600080fd5b505af1158015610a87573d6000803e3d6000fd5b505050506040513d601f19601f82011682018060405250810190610aab9190613d89565b5060405163cd0211eb60e01b81526000906001600160a01b038c169063cd0211eb90610ae1903090339086908f90600401613e69565b602060405180830381600087803b158015610afb57600080fd5b505af1158015610b0f573d6000803e3d6000fd5b505050506040513d601f19601f82011682018060405250810190610b339190613d89565b905081811015610c48576001600160a01b038416630411b25230338684638eb22cdd82610b60898b613f5e565b6040516001600160e01b031960e085901b168152600481019290925260248201526000604482015260640160206040518083038186803b158015610ba357600080fd5b505afa158015610bb7573d6000803e3d6000fd5b505050506040513d601f19601f82011682018060405250810190610bdb9190613d89565b6040516001600160e01b031960e087901b1681526001600160a01b03948516600482015293909216602484015260448301526064820152608401600060405180830381600087803b158015610c2f57600080fd5b505af1158015610c43573d6000803e3d6000fd5b505050505b8a6001600160a01b031663cce19f813389610c635733610c65565b305b8b6040518463ffffffff1660e01b8152600401610c8493929190613e94565b600060405180830381600087803b158015610c9e57600080fd5b505af1158015610cb2573d6000803e3d6000fd5b505050508615610689576106893087878f8860008e6001612891565b6000610cea604080518082019091526000808252602082015290565b600080876001600160a01b0316638285ef406040518163ffffffff1660e01b8152600401604080518083038186803b158015610d2557600080fd5b505afa158015610d39573d6000803e3d6000fd5b505050506040513d601f19601f82011682018060405250810190610d5d9190613ed4565b915091506040518060400160405280836001600160801b03168152602001826001600160801b031681525092506000886001600160a01b031663de4065776040518163ffffffff1660e01b815260040160206040518083038186803b158015610dc557600080fd5b505afa158015610dd9573d6000803e3d6000fd5b505050506040513d601f19601f82011682018060405250810190610dfd9190613d6c565b90506000610e0c858a83612aab565b9050816001600160a01b0316638eb22cdd8b6001600160a01b031663eec0f42e6040518163ffffffff1660e01b815260040160206040518083038186803b158015610e5657600080fd5b505afa158015610e6a573d6000803e3d6000fd5b505050506040513d601f19601f82011682018060405250810190610e8e9190613d89565b610e988a8c613f1d565b8d6001600160a01b0316633ba0b9a96040518163ffffffff1660e01b815260040160206040518083038186803b158015610ed157600080fd5b505afa158015610ee5573d6000803e3d6000fd5b505050506040513d601f19601f82011682018060405250810190610f099190613d89565b8e6001600160a01b031663529898f26040518163ffffffff1660e01b815260040160206040518083038186803b158015610f4257600080fd5b505afa158015610f56573d6000803e3d6000fd5b505050506040513d601f19601f82011682018060405250810190610f7a9190613d89565b610f849087613f1d565b610f8e9190613f1d565b610f989190613f3c565b6040516001600160e01b031960e085901b168152600481019290925260248201526000604482015260640160206040518083038186803b158015610fdb57600080fd5b505afa158015610fef573d6000803e3d6000fd5b505050506040513d601f19601f820116820180604052508101906110139190613d89565b9a9950505050505050505050565b6000846001600160a01b031663eec0f42e6040518163ffffffff1660e01b815260040160206040518083038186803b15801561105c57600080fd5b505afa158015611070573d6000803e3d6000fd5b505050506040513d601f19601f820116820180604052508101906110949190613d89565b90506000866001600160a01b031663de4065776040518163ffffffff1660e01b815260040160206040518083038186803b1580156110d157600080fd5b505afa1580156110e5573d6000803e3d6000fd5b505050506040513d601f19601f820116820180604052508101906111099190613d6c565b604051630cf35bdd60e41b8152600481018490529091506000906001600160a01b0383169063cf35bdd09060240160806040518083038186803b15801561114f57600080fd5b505afa158015611163573d6000803e3d6000fd5b505050506040513d601f19601f820116820180604052508101906111879190613da2565b5050604051638eb22cdd60e01b815260048101869052602481018990526000604482018190529193509091506001600160a01b03841690638eb22cdd9060640160206040518083038186803b1580156111df57600080fd5b505afa1580156111f3573d6000803e3d6000fd5b505050506040513d601f19601f820116820180604052508101906112179190613d89565b90508415611335576112298288612657565b60405163095ea7b360e01b81526001600160a01b0384811660048301526024820189905283169063095ea7b390604401602060405180830381600087803b15801561127357600080fd5b505af1158015611287573d6000803e3d6000fd5b505050506040513d601f19601f820116820180604052508101906112ab9190613df9565b50604051634d4d7cbd60e11b81526001600160a01b03841690639a9af97a906112e1908790309081906000908890600401613e16565b6040805180830381600087803b1580156112fa57600080fd5b505af115801561130e573d6000803e3d6000fd5b505050506040513d601f19601f820116820180604052508101906113329190613e45565b50505b86156113ab57611345888461271f565b60405163096f9e0960e21b81526001600160a01b038916906325be78249061137890309033906000908790600401613e69565b600060405180830381600087803b15801561139257600080fd5b505af11580156113a6573d6000803e3d6000fd5b505050505b6040516314890dcb60e21b81526001600160a01b03891690635224372c906113db90339081908b90600401613e94565b6040805180830381600087803b1580156113f457600080fd5b505af1158015611408573d6000803e3d6000fd5b505050506040513d601f19601f8201168201806040525081019061142c9190613e45565b50506000896001600160a01b03166344de240a6040518163ffffffff1660e01b815260040160206040518083038186803b15801561146957600080fd5b505afa15801561147d573d6000803e3d6000fd5b505050506040513d601f19601f820116820180604052508101906114a19190613d89565b604051638eb22cdd60e01b815260048101829052602481018990526000604482018190529192506001600160a01b03861690638eb22cdd9060640160206040518083038186803b1580156114f457600080fd5b505afa158015611508573d6000803e3d6000fd5b505050506040513d601f19601f8201168201806040525081019061152c9190613d89565b90506115388b8661271f565b604051630cb0f5b760e31b81526001600160a01b038c1690636587adb89061156b90339081906000908790600401613e69565b602060405180830381600087803b15801561158557600080fd5b505af1158015611599573d6000803e3d6000fd5b505050506040513d601f19601f820116820180604052508101906106899190613d89565b80516060906000816001600160401b038111156115dc576115dc61380f565b60405190808252806020026020018201604052801561161557816020015b611602613467565b8152602001906001900390816115fa5790505b50604080518082019091526000808252602082015290915060005b8381101561175957600086828151811061164c5761164c613f75565b602002602001015190506116608882612b4a565b84838151811061167257611672613f75565b602002602001015160000181905250600080826001600160a01b031663b27c0e746040518163ffffffff1660e01b8152600401604080518083038186803b1580156116bc57600080fd5b505afa1580156116d0573d6000803e3d6000fd5b505050506040513d601f19601f820116820180604052508101906116f49190613fa2565b915091506040518060400160405280836001600160401b03168152602001826001600160401b031681525094508486858151811061173457611734613f75565b602002602001015160200181905250505050808061175190613fcc565b915050611630565b509095945050505050565b6000866001600160a01b031663de4065776040518163ffffffff1660e01b815260040160206040518083038186803b15801561179f57600080fd5b505afa1580156117b3573d6000803e3d6000fd5b505050506040513d601f19601f820116820180604052508101906117d79190613d6c565b90506117e58787878661220c565b6000826117f257336117f4565b305b90506000826001600160a01b0316638eb22cdd8a6001600160a01b031663eec0f42e6040518163ffffffff1660e01b815260040160206040518083038186803b15801561184057600080fd5b505afa158015611854573d6000803e3d6000fd5b505050506040513d601f19601f820116820180604052508101906118789190613d89565b6040516001600160e01b031960e084901b1681526004810191909152602481018990526000604482015260640160206040518083038186803b1580156118bd57600080fd5b505afa1580156118d1573d6000803e3d6000fd5b505050506040513d601f19601f820116820180604052508101906118f59190613d89565b60405163cce19f8160e01b81529091506001600160a01b038a169063cce19f819061192890339086908690600401613e94565b600060405180830381600087803b15801561194257600080fd5b505af1158015611956573d6000803e3d6000fd5b505050508315611a5957826001600160a01b0316638d2e63b88a6001600160a01b031663eec0f42e6040518163ffffffff1660e01b815260040160206040518083038186803b1580156119a857600080fd5b505afa1580156119bc573d6000803e3d6000fd5b505050506040513d601f19601f820116820180604052508101906119e09190613d89565b30338a60006040518663ffffffff1660e01b8152600401611a05959493929190613e16565b6040805180830381600087803b158015611a1e57600080fd5b505af1158015611a32573d6000803e3d6000fd5b505050506040513d601f19601f82011682018060405250810190611a569190613e45565b50505b505050505050505050565b6000611a80604080518082019091526000808252602082015290565b600080856001600160a01b0316638285ef406040518163ffffffff1660e01b8152600401604080518083038186803b158015611abb57600080fd5b505afa158015611acf573d6000803e3d6000fd5b505050506040513d601f19601f82011682018060405250810190611af39190613ed4565b604080518082019091526001600160801b03808416825282166020820152945090925090506108a983866000612aab565b6000836001600160a01b03166344de240a6040518163ffffffff1660e01b815260040160206040518083038186803b158015611b5f57600080fd5b505afa158015611b73573d6000803e3d6000fd5b505050506040513d601f19601f82011682018060405250810190611b979190613d89565b90506000846001600160a01b031663de4065776040518163ffffffff1660e01b815260040160206040518083038186803b158015611bd457600080fd5b505afa158015611be8573d6000803e3d6000fd5b505050506040513d601f19601f82011682018060405250810190611c0c9190613d6c565b604051630cf35bdd60e41b8152600481018490529091506000906001600160a01b0383169063cf35bdd09060240160806040518083038186803b158015611c5257600080fd5b505afa158015611c66573d6000803e3d6000fd5b505050506040513d601f19601f82011682018060405250810190611c8a9190613da2565b5050604051638eb22cdd60e01b815260048101869052602481018890526000604482018190529193509091506001600160a01b03841690638eb22cdd9060640160206040518083038186803b158015611ce257600080fd5b505afa158015611cf6573d6000803e3d6000fd5b505050506040513d601f19601f82011682018060405250810190611d1a9190613d89565b90508415611e3857611d2c8287612657565b60405163095ea7b360e01b81526001600160a01b0384811660048301526024820188905283169063095ea7b390604401602060405180830381600087803b158015611d7657600080fd5b505af1158015611d8a573d6000803e3d6000fd5b505050506040513d601f19601f82011682018060405250810190611dae9190613df9565b50604051634d4d7cbd60e11b81526001600160a01b03841690639a9af97a90611de4908790309081906000908890600401613e16565b6040805180830381600087803b158015611dfd57600080fd5b505af1158015611e11573d6000803e3d6000fd5b505050506040513d601f19601f82011682018060405250810190611e359190613e45565b50505b611e42878461271f565b604051630cb0f5b760e31b81526001600160a01b03881690636587adb890611e7590309033906000908790600401613e69565b602060405180830381600087803b158015611e8f57600080fd5b505af1158015611ea3573d6000803e3d6000fd5b505050506040513d601f19601f82011682018060405250810190611ec79190613d89565b5050505050505050565b80516060906000816001600160401b03811115611ef057611ef061380f565b604051908082528060200260200182016040528015611f2957816020015b611f166134b3565b815260200190600190039081611f0e5790505b509050611f46604080518082019091526000808252602082015290565b60408051606081018252600080825260208201819052918101829052905b84811015612200576000878281518110611f8057611f80613f75565b60200260200101519050611f948982612b4a565b858381518110611fa657611fa6613f75565b602002602001015160000181905250600080826001600160a01b031663f9557ccb6040518163ffffffff1660e01b8152600401604080518083038186803b158015611ff057600080fd5b505afa158015612004573d6000803e3d6000fd5b505050506040513d601f19601f820116820180604052508101906120289190613ed4565b915091506040518060400160405280836001600160801b03168152602001826001600160801b031681525095508587858151811061206857612068613f75565b60209081029190910181015101526040516370a0823160e01b81526001600160a01b038c811660048301528416906370a082319060240160206040518083038186803b1580156120b757600080fd5b505afa1580156120cb573d6000803e3d6000fd5b505050506040513d601f19601f820116820180604052508101906120ef9190613d89565b87858151811061210157612101613f75565b602002602001015160400181815250506000806000856001600160a01b031663b27c0e746040518163ffffffff1660e01b815260040160606040518083038186803b15801561214f57600080fd5b505afa158015612163573d6000803e3d6000fd5b505050506040513d601f19601f820116820180604052508101906121879190613fe7565b9250925092506040518060600160405280846001600160401b03168152602001836001600160401b03168152602001826001600160801b03168152509750878a88815181106121d8576121d8613f75565b60200260200101516060018190525050505050505080806121f890613fcc565b915050611f64565b50919695505050505050565b6000846001600160a01b03166344de240a6040518163ffffffff1660e01b815260040160206040518083038186803b15801561224757600080fd5b505afa15801561225b573d6000803e3d6000fd5b505050506040513d601f19601f8201168201806040525081019061227f9190613d89565b90506000856001600160a01b031663de4065776040518163ffffffff1660e01b815260040160206040518083038186803b1580156122bc57600080fd5b505afa1580156122d0573d6000803e3d6000fd5b505050506040513d601f19601f820116820180604052508101906122f49190613d6c565b604051630cf35bdd60e41b8152600481018490529091506000906001600160a01b0383169063cf35bdd09060240160806040518083038186803b15801561233a57600080fd5b505afa15801561234e573d6000803e3d6000fd5b505050506040513d601f19601f820116820180604052508101906123729190613da2565b50509150508315612493576123878187612657565b60405163095ea7b360e01b81526001600160a01b0383811660048301526024820188905282169063095ea7b390604401602060405180830381600087803b1580156123d157600080fd5b505af11580156123e5573d6000803e3d6000fd5b505050506040513d601f19601f820116820180604052508101906124099190613df9565b50604051634d4d7cbd60e11b81526001600160a01b03831690639a9af97a9061243f908690309081908c90600090600401613e16565b6040805180830381600087803b15801561245857600080fd5b505af115801561246c573d6000803e3d6000fd5b505050506040513d601f19601f820116820180604052508101906124909190613e45565b50505b61249d878361271f565b866001600160a01b031663cd0211eb856124b757336124b9565b305b336000896040518563ffffffff1660e01b8152600401611e759493929190613e69565b600080836001600160a01b031663de4065776040518163ffffffff1660e01b815260040160206040518083038186803b15801561251857600080fd5b505afa15801561252c573d6000803e3d6000fd5b505050506040513d601f19601f820116820180604052508101906125509190613d6c565b9050806001600160a01b031663442c1599856001600160a01b031663eec0f42e6040518163ffffffff1660e01b815260040160206040518083038186803b15801561259a57600080fd5b505afa1580156125ae573d6000803e3d6000fd5b505050506040513d601f19601f820116820180604052508101906125d29190613d89565b6040516001600160e01b031960e084901b1681526004810191909152602481018690526000604482015260640160206040518083038186803b15801561261757600080fd5b505afa15801561262b573d6000803e3d6000fd5b505050506040513d601f19601f8201168201806040525081019061264f9190613d89565b949350505050565b6040516323b872dd60e01b81526001600160a01b038316906323b872dd9061268790339030908690600401613e94565b602060405180830381600087803b1580156126a157600080fd5b505af11580156126b5573d6000803e3d6000fd5b505050506040513d601f19601f820116820180604052508101906126d99190613df9565b61271b5760405162461bcd60e51b815260206004820152600f60248201526e1d1c985b9cd9995c8819985a5b1959608a1b604482015260640160405180910390fd5b5050565b60405163e985e9c560e01b81523060048201526001600160a01b0383811660248301526000919083169063e985e9c59060440160206040518083038186803b15801561276a57600080fd5b505afa15801561277e573d6000803e3d6000fd5b505050506040513d601f19601f820116820180604052508101906127a29190613df9565b90508061280c5760405163a22cb46560e01b81526001600160a01b0384811660048301526001602483015283169063a22cb46590604401600060405180830381600087803b1580156127f357600080fd5b505af1158015612807573d6000803e3d6000fd5b505050505b60405163e985e9c560e01b81523060048201526001600160a01b03848116602483015283169063e985e9c59060440160206040518083038186803b15801561285357600080fd5b505afa158015612867573d6000803e3d6000fd5b505050506040513d601f19601f8201168201806040525081019061288b9190613df9565b50505050565b60008080606089156128b4576128a98a8c018c614051565b929650909450925090505b83612a3457876001600160a01b0316638d2e63b886612943578a6001600160a01b03166344de240a6040518163ffffffff1660e01b815260040160206040518083038186803b15801561290657600080fd5b505afa15801561291a573d6000803e3d6000fd5b505050506040513d601f19601f8201168201806040525081019061293e9190613d89565b6129b4565b8a6001600160a01b031663eec0f42e6040518163ffffffff1660e01b815260040160206040518083038186803b15801561297c57600080fd5b505afa158015612990573d6000803e3d6000fd5b505050506040513d601f19601f820116820180604052508101906129b49190613d89565b30338b8b6040518663ffffffff1660e01b81526004016129d8959493929190613e16565b6040805180830381600087803b1580156129f157600080fd5b505af1158015612a05573d6000803e3d6000fd5b505050506040513d601f19601f82011682018060405250810190612a299190613e45565b505050505050611ec7565b886001600160a01b0316631f9dbf04348e86868c87336040518863ffffffff1660e01b8152600401612a6b96959493929190614101565b6000604051808303818588803b158015612a8457600080fd5b505af1158015612a98573d6000803e3d6000fd5b5050505050505050505050505050505050565b600083602001516001600160801b031660001415612aca575081612b43565b602084015184516001600160801b0391821691612ae8911685613f1d565b612af29190613f3c565b9050818015612b3057508284600001516001600160801b031685602001516001600160801b031683612b249190613f1d565b612b2e9190613f3c565b105b15612b435780612b3f81613fcc565b9150505b9392505050565b612b52613514565b6040805180820190915260008082526020820152612b6e613514565b836001600160a01b031663d8dfeb456040518163ffffffff1660e01b815260040160206040518083038186803b158015612ba757600080fd5b505afa158015612bbb573d6000803e3d6000fd5b505050506040513d601f19601f82011682018060405250810190612bdf9190613d6c565b6001600160a01b039081168252604080516338d52e0f60e01b81529051918616916338d52e0f91600480820192602092909190829003018186803b158015612c2657600080fd5b505afa158015612c3a573d6000803e3d6000fd5b505050506040513d601f19601f82011682018060405250810190612c5e9190613d6c565b81604001906001600160a01b031690816001600160a01b031681525050836001600160a01b0316637dc0d1d06040518163ffffffff1660e01b815260040160206040518083038186803b158015612cb457600080fd5b505afa158015612cc8573d6000803e3d6000fd5b505050506040513d601f19601f82011682018060405250810190612cec9190613d6c565b81608001906001600160a01b031690816001600160a01b031681525050836001600160a01b03166374645ff36040518163ffffffff1660e01b815260040160006040518083038186803b158015612d4257600080fd5b505afa158015612d56573d6000803e3d6000fd5b505050506040513d6000823e601f3d908101601f19168201604052612d7e919081019061414f565b8160a00181905250836001600160a01b031663473e3ce76040518163ffffffff1660e01b815260040160206040518083038186803b158015612dbf57600080fd5b505afa158015612dd3573d6000803e3d6000fd5b505050506040513d601f19601f82011682018060405250810190612df79190613d89565b60c0820152604051631c9e379b60e01b81526001600160a01b038681166004830152851690631c9e379b9060240160206040518083038186803b158015612e3d57600080fd5b505afa158015612e51573d6000803e3d6000fd5b505050506040513d601f19601f82011682018060405250810190612e759190613d89565b8160e0018181525050600080856001600160a01b0316638285ef406040518163ffffffff1660e01b8152600401604080518083038186803b158015612eb957600080fd5b505afa158015612ecd573d6000803e3d6000fd5b505050506040513d601f19601f82011682018060405250810190612ef19190613ed4565b6040805180820182526001600160801b03848116825283166020820152610100870181905290516324720b1f60e11b81526001600160a01b038b811660048301529197509294509092508716906348e4163e9060240160206040518083038186803b158015612f5f57600080fd5b505afa158015612f73573d6000803e3d6000fd5b505050506040513d601f19601f82011682018060405250810190612f979190613d89565b83610120018181525050856001600160a01b0316633ba0b9a96040518163ffffffff1660e01b815260040160206040518083038186803b158015612fda57600080fd5b505afa158015612fee573d6000803e3d6000fd5b505050506040513d601f19601f820116820180604052508101906130129190613d89565b83610140018181525050856001600160a01b0316637dc0d1d06040518163ffffffff1660e01b815260040160206040518083038186803b15801561305557600080fd5b505afa158015613069573d6000803e3d6000fd5b505050506040513d601f19601f8201168201806040525081019061308d9190613d6c565b6001600160a01b031663eeb8a8d3876001600160a01b03166374645ff36040518163ffffffff1660e01b815260040160006040518083038186803b1580156130d457600080fd5b505afa1580156130e8573d6000803e3d6000fd5b505050506040513d6000823e601f3d908101601f19168201604052613110919081019061414f565b6040518263ffffffff1660e01b815260040161312c91906141c5565b604080518083038186803b15801561314357600080fd5b505afa158015613157573d6000803e3d6000fd5b505050506040513d601f19601f8201168201806040525081019061317b91906141d8565b905083610180018181525050856001600160a01b0316637dc0d1d06040518163ffffffff1660e01b815260040160206040518083038186803b1580156131c057600080fd5b505afa1580156131d4573d6000803e3d6000fd5b505050506040513d601f19601f820116820180604052508101906131f89190613d6c565b6001600160a01b031663d39bbef0876001600160a01b03166374645ff36040518163ffffffff1660e01b815260040160006040518083038186803b15801561323f57600080fd5b505afa158015613253573d6000803e3d6000fd5b505050506040513d6000823e601f3d908101601f1916820160405261327b919081019061414f565b6040518263ffffffff1660e01b815260040161329791906141c5565b60206040518083038186803b1580156132af57600080fd5b505afa1580156132c3573d6000803e3d6000fd5b505050506040513d601f19601f820116820180604052508101906132e79190613d89565b83610160018181525050856001600160a01b03166340626d8b6040518163ffffffff1660e01b815260040160206040518083038186803b15801561332a57600080fd5b505afa15801561333e573d6000803e3d6000fd5b505050506040513d601f19601f820116820180604052508101906133629190613d89565b836101a0018181525050856001600160a01b03166344de240a6040518163ffffffff1660e01b815260040160206040518083038186803b1580156133a557600080fd5b505afa1580156133b9573d6000803e3d6000fd5b505050506040513d601f19601f820116820180604052508101906133dd9190613d89565b836060018181525050856001600160a01b031663eec0f42e6040518163ffffffff1660e01b815260040160206040518083038186803b15801561341f57600080fd5b505afa158015613433573d6000803e3d6000fd5b505050506040513d601f19601f820116820180604052508101906134579190613d89565b6020840152509095945050505050565b604051806040016040528061347a613514565b81526020016134ae604051806040016040528060006001600160401b0316815260200160006001600160401b031681525090565b905290565b60405180608001604052806134c6613514565b81526020016134e5604080518082019091526000808252602082015290565b8152602001600081526020016134ae604080516060810182526000808252602082018190529181019190915290565b604051806101c0016040528060006001600160a01b031681526020016000815260200160006001600160a01b031681526020016000815260200160006001600160a01b0316815260200160608152602001600081526020016000815260200161358d604080518082019091526000808252602082015290565b815260200160008152602001600081526020016000815260200160008152602001600081525090565b6001600160a01b03811681146135cb57600080fd5b50565b80151581146135cb57600080fd5b60008083601f8401126135ee57600080fd5b5081356001600160401b0381111561360557600080fd5b60208301915083602082850101111561361d57600080fd5b9250929050565b600080600080600080600060c0888a03121561363f57600080fd5b873561364a816135b6565b965060208801359550604088013594506060880135613668816135ce565b93506080880135613678816135ce565b925060a08801356001600160401b0381111561369357600080fd5b61369f8a828b016135dc565b989b979a50959850939692959293505050565b600080604083850312156136c557600080fd5b82356136d0816135b6565b946020939093013593505050565b60008060008060008060008060e0898b0312156136fa57600080fd5b8835613705816135b6565b97506020890135613715816135b6565b965060408901359550606089013594506080890135935060a089013561373a816135ce565b925060c08901356001600160401b0381111561375557600080fd5b6137618b828c016135dc565b999c989b5096995094979396929594505050565b6000806000806080858703121561378b57600080fd5b8435613796816135b6565b966020860135965060408601359560600135945092505050565b600080600080600060a086880312156137c857600080fd5b85356137d3816135b6565b945060208601356137e3816135b6565b935060408601359250606086013591506080860135613801816135ce565b809150509295509295909350565b634e487b7160e01b600052604160045260246000fd5b604051601f8201601f191681016001600160401b038111828210171561384d5761384d61380f565b604052919050565b60006001600160401b0382111561386e5761386e61380f565b5060051b60200190565b6000806040838503121561388b57600080fd5b8235613896816135b6565b91506020838101356001600160401b038111156138b257600080fd5b8401601f810186136138c357600080fd5b80356138d66138d182613855565b613825565b81815260059190911b820183019083810190888311156138f557600080fd5b928401925b8284101561391c57833561390d816135b6565b825292840192908401906138fa565b80955050505050509250929050565b60005b8381101561394657818101518382015260200161392e565b8381111561288b5750506000910152565b6000815180845261396f81602086016020860161392b565b601f01601f19169290920160200192915050565b80516001600160a01b0316825260006101e06020830151602085015260408301516139b960408601826001600160a01b03169052565b506060830151606085015260808301516139de60808601826001600160a01b03169052565b5060a08301518160a08601526139f682860182613957565b91505060c083015160c085015260e083015160e085015261010080840151613a368287018280516001600160801b03908116835260209182015116910152565b50506101208301516101408581019190915283015161016080860191909152830151610180808601919091528301516101a080860191909152909201516101c090930192909252919050565b60006020808301818452808551808352604092508286019150828160051b87010184880160005b83811015613b0357603f19898403018552815160608151818652613acf82870182613983565b928a015180516001600160401b03908116888d0152908b015116958901959095525094870194925090860190600101613aa9565b509098975050505050505050565b60008060008060008060c08789031215613b2a57600080fd5b8635613b35816135b6565b95506020870135945060408701359350606087013592506080870135613b5a816135ce565b915060a0870135613b6a816135ce565b809150509295509295509295565b600080600060608486031215613b8d57600080fd5b8335613b98816135b6565b9250602084013591506040840135613baf816135ce565b809150509250925092565b60008060408385031215613bcd57600080fd5b8235613bd8816135b6565b91506020838101356001600160401b03811115613bf457600080fd5b8401601f81018613613c0557600080fd5b8035613c136138d182613855565b81815260059190911b82018301908381019088831115613c3257600080fd5b928401925b8284101561391c578335613c4a816135b6565b82529284019290840190613c37565b60006020808301818452808551808352604092508286019150828160051b87010184880160005b83811015613b0357603f19898403018552815160e08151818652613ca682870182613983565b91505088820151613ccf8a87018280516001600160801b03908116835260209182015116910152565b50818801516060868101919091529091015180516001600160401b039081166080870152898201511660a08601528701516001600160801b031660c0909401939093529386019390860190600101613c80565b60008060008060808587031215613d3857600080fd5b8435613d43816135b6565b935060208501359250604085013591506060850135613d61816135ce565b939692955090935050565b600060208284031215613d7e57600080fd5b8151612b43816135b6565b600060208284031215613d9b57600080fd5b5051919050565b60008060008060808587031215613db857600080fd5b845160058110613dc757600080fd5b6020860151909450613dd8816135b6565b6040860151909350613de9816135b6565b6060959095015193969295505050565b600060208284031215613e0b57600080fd5b8151612b43816135ce565b9485526001600160a01b0393841660208601529190921660408401526060830191909152608082015260a00190565b60008060408385031215613e5857600080fd5b505080516020909101519092909150565b6001600160a01b03948516815292909316602083015215156040820152606081019190915260800190565b6001600160a01b039384168152919092166020820152604081019190915260600190565b80516001600160801b0381168114613ecf57600080fd5b919050565b60008060408385031215613ee757600080fd5b613ef083613eb8565b9150613efe60208401613eb8565b90509250929050565b634e487b7160e01b600052601160045260246000fd5b6000816000190483118215151615613f3757613f37613f07565b500290565b600082613f5957634e487b7160e01b600052601260045260246000fd5b500490565b600082821015613f7057613f70613f07565b500390565b634e487b7160e01b600052603260045260246000fd5b80516001600160401b0381168114613ecf57600080fd5b60008060408385031215613fb557600080fd5b613fbe83613f8b565b9150613efe60208401613f8b565b6000600019821415613fe057613fe0613f07565b5060010190565b600080600060608486031215613ffc57600080fd5b61400584613f8b565b925061401360208501613f8b565b915061402160408501613eb8565b90509250925092565b60006001600160401b038211156140435761404361380f565b50601f01601f191660200190565b6000806000806080858703121561406757600080fd5b8435614072816135ce565b9350602085013561ffff8116811461408957600080fd5b92506040850135915060608501356001600160401b038111156140ab57600080fd5b8501601f810187136140bc57600080fd5b80356140ca6138d18261402a565b8181528860208385010111156140df57600080fd5b8160208401602083013760006020838301015280935050505092959194509250565b600060018060a01b03808916835261ffff8816602084015286604084015285606084015260c0608084015261413960c0840186613957565b915080841660a084015250979650505050505050565b60006020828403121561416157600080fd5b81516001600160401b0381111561417757600080fd5b8201601f8101841361418857600080fd5b80516141966138d18261402a565b8181528560208385010111156141ab57600080fd5b6141bc82602083016020860161392b565b95945050505050565b602081526000612b436020830184613957565b600080604083850312156141eb57600080fd5b82516141f6816135ce565b602093909301519294929350505056fea26469706673582212208ce348d18d30a6df3fad04a2e72dda2558c41e8b73e21323302a10afe7cabe6564736f6c63430008090033",
  "devdoc": {
    "kind": "dev",
    "methods": {
      "depositAddCollateralAndBorrow(address,uint256,uint256,bool,bool,bytes)": {
        "params": {
          "_borrowAmount": "the amount to borrow",
          "_collateralAmount": "the collateral amount to add",
          "_withdrawData": "custom withdraw data; ignore if you need to withdraw on the same chain",
          "deposit_": "if true, deposits to YieldBox from `msg.sender`",
          "market": "the Singularity or BigBang address",
          "withdraw_": "if true, withdraws from YieldBox to `msg.sender`"
        }
      },
      "depositAndAddAsset(address,uint256,bool)": {
        "params": {
          "_amount": "the amount to lend",
          "singularity": "the singularity address"
        }
      },
      "depositAndRepay(address,uint256,uint256,bool)": {
        "params": {
          "_depositAmount": "the amount to deposit",
          "_repayAmount": "the amount to be repayed",
          "market": "the Singularity or BigBang address"
        }
      },
      "depositRepayAndRemoveCollateral(address,uint256,uint256,uint256,bool,bool)": {
        "params": {
          "_collateralAmount": "collateral amount to be removed",
          "_depositAmount": "the amount to deposit",
          "_repayAmount": "the amount to be repayed",
          "deposit_": "if true deposits to YieldBox",
          "market": "the Singularity or BigBang address",
          "withdraw_": "if true withdraws to sender address"
        }
      },
      "getAmountForAssetFraction(address,uint256)": {
        "params": {
          "fraction": "The fraction.",
          "singularity": "the singularity address"
        },
        "returns": {
          "amount": "The amount."
        }
      },
      "getAmountForBorrowPart(address,uint256)": {
        "params": {
          "borrowPart": "The amount of borrow part to convert.",
          "market": "the Singularity or BigBang address"
        },
        "returns": {
          "amount": "The equivalent of borrow part in asset amount."
        }
      },
      "getCollateralAmountForShare(address,uint256)": {
        "params": {
          "market": "the Singularity or BigBang address",
          "share": "The shares."
        },
        "returns": {
          "amount": "The amount."
        }
      },
      "getCollateralSharesForBorrowPart(address,uint256,uint256,uint256)": {
        "params": {
          "borrowPart": "The borrow part.",
          "market": "the Singularity or BigBang address"
        },
        "returns": {
          "collateralShares": "The collateral shares."
        }
      },
      "mintAndLend(address,address,uint256,uint256,bool)": {
        "params": {
          "_borrowAmount": "the borrowed amount from BingBang",
          "_collateralAmount": "the amount added to BingBang as collateral",
          "bingBang": "the BingBang address",
          "deposit_": "if true deposits to YieldBox",
          "singularity": "the Singularity address"
        }
      }
    },
    "title": "Useful helper functions for `Singularity` and `BingBang`",
    "version": 1
  },
  "userdoc": {
    "kind": "user",
    "methods": {
      "depositAddCollateralAndBorrow(address,uint256,uint256,bool,bool,bytes)": {
        "notice": "deposts collateral to YieldBox, adds collateral to Singularity, borrows and can withdraw to personal address"
      },
      "depositAndAddAsset(address,uint256,bool)": {
        "notice": "deposits asset to YieldBox and lends it to Singularity"
      },
      "depositAndRepay(address,uint256,uint256,bool)": {
        "notice": "deposits to YieldBox and repays borrowed amount"
      },
      "depositRepayAndRemoveCollateral(address,uint256,uint256,uint256,bool,bool)": {
        "notice": "deposits to YieldBox, repays borrowed amount and removes collateral"
      },
      "getAmountForAssetFraction(address,uint256)": {
        "notice": "Compute the amount of `singularity.assetId` from `fraction` `fraction` can be `singularity.accrueInfo.feeFraction` or `singularity.balanceOf`"
      },
      "getAmountForBorrowPart(address,uint256)": {
        "notice": "Return the equivalent of borrow part in asset amount."
      },
      "getCollateralAmountForShare(address,uint256)": {
        "notice": "Calculate the collateral amount off the shares."
      },
      "getCollateralSharesForBorrowPart(address,uint256,uint256,uint256)": {
        "notice": "Calculate the collateral shares that are needed for `borrowPart`, taking the current exchange rate into account."
      },
      "mintAndLend(address,address,uint256,uint256,bool)": {
        "notice": "deposits asset to YieldBox, mints USD0 and lends it to Singularity"
      }
    },
    "version": 1
  },
  "storageLayout": {
    "storage": [],
    "types": null
  }
}