{
  "address": "0xD441B51FeBEB9633831947547fbdfb5b662617FF",
  "abi": [
    {
      "inputs": [
        {
          "internalType": "address",
          "name": "_lzEndpoint",
          "type": "address"
        },
        {
          "internalType": "address",
          "name": "_owner",
          "type": "address"
        }
      ],
      "stateMutability": "nonpayable",
      "type": "constructor"
    },
    {
      "anonymous": false,
      "inputs": [
        {
          "indexed": true,
          "internalType": "address",
          "name": "singularity",
          "type": "address"
        },
        {
          "indexed": false,
          "internalType": "bool",
          "name": "status",
          "type": "bool"
        }
      ],
      "name": "LogMarketStatus",
      "type": "event"
    },
    {
      "anonymous": false,
      "inputs": [
        {
          "indexed": false,
          "internalType": "uint16",
          "name": "_srcChainId",
          "type": "uint16"
        },
        {
          "indexed": false,
          "internalType": "bytes",
          "name": "_srcAddress",
          "type": "bytes"
        },
        {
          "indexed": false,
          "internalType": "uint64",
          "name": "_nonce",
          "type": "uint64"
        },
        {
          "indexed": false,
          "internalType": "bytes",
          "name": "_payload",
          "type": "bytes"
        },
        {
          "indexed": false,
          "internalType": "bytes",
          "name": "_reason",
          "type": "bytes"
        }
      ],
      "name": "MessageFailed",
      "type": "event"
    },
    {
      "anonymous": false,
      "inputs": [
        {
          "indexed": true,
          "internalType": "address",
          "name": "previousOwner",
          "type": "address"
        },
        {
          "indexed": true,
          "internalType": "address",
          "name": "newOwner",
          "type": "address"
        }
      ],
      "name": "OwnershipTransferred",
      "type": "event"
    },
    {
      "anonymous": false,
      "inputs": [
        {
          "indexed": true,
          "internalType": "uint16",
          "name": "_srcChainId",
          "type": "uint16"
        },
        {
          "indexed": true,
          "internalType": "address",
          "name": "_dstSingularity",
          "type": "address"
        },
        {
          "indexed": false,
          "internalType": "bytes",
          "name": "_sglPayload",
          "type": "bytes"
        }
      ],
      "name": "ReceiveFromChain",
      "type": "event"
    },
    {
      "anonymous": false,
      "inputs": [
        {
          "indexed": false,
          "internalType": "uint16",
          "name": "_srcChainId",
          "type": "uint16"
        },
        {
          "indexed": false,
          "internalType": "bytes",
          "name": "_srcAddress",
          "type": "bytes"
        },
        {
          "indexed": false,
          "internalType": "uint64",
          "name": "_nonce",
          "type": "uint64"
        },
        {
          "indexed": false,
          "internalType": "bytes32",
          "name": "_payloadHash",
          "type": "bytes32"
        }
      ],
      "name": "RetryMessageSuccess",
      "type": "event"
    },
    {
      "anonymous": false,
      "inputs": [
        {
          "indexed": true,
          "internalType": "uint16",
          "name": "_srcChainId",
          "type": "uint16"
        },
        {
          "indexed": true,
          "internalType": "address",
          "name": "_srcAddress",
          "type": "address"
        },
        {
          "indexed": false,
          "internalType": "bytes",
          "name": "_sglPayload",
          "type": "bytes"
        }
      ],
      "name": "SendToChain",
      "type": "event"
    },
    {
      "anonymous": false,
      "inputs": [
        {
          "indexed": false,
          "internalType": "uint16",
          "name": "_dstChainId",
          "type": "uint16"
        },
        {
          "indexed": false,
          "internalType": "uint16",
          "name": "_type",
          "type": "uint16"
        },
        {
          "indexed": false,
          "internalType": "uint256",
          "name": "_minDstGas",
          "type": "uint256"
        }
      ],
      "name": "SetMinDstGas",
      "type": "event"
    },
    {
      "anonymous": false,
      "inputs": [
        {
          "indexed": false,
          "internalType": "address",
          "name": "precrime",
          "type": "address"
        }
      ],
      "name": "SetPrecrime",
      "type": "event"
    },
    {
      "anonymous": false,
      "inputs": [
        {
          "indexed": false,
          "internalType": "uint16",
          "name": "_remoteChainId",
          "type": "uint16"
        },
        {
          "indexed": false,
          "internalType": "bytes",
          "name": "_path",
          "type": "bytes"
        }
      ],
      "name": "SetTrustedRemote",
      "type": "event"
    },
    {
      "anonymous": false,
      "inputs": [
        {
          "indexed": false,
          "internalType": "uint16",
          "name": "_remoteChainId",
          "type": "uint16"
        },
        {
          "indexed": false,
          "internalType": "bytes",
          "name": "_remoteAddress",
          "type": "bytes"
        }
      ],
      "name": "SetTrustedRemoteAddress",
      "type": "event"
    },
    {
      "anonymous": false,
      "inputs": [
        {
          "indexed": false,
          "internalType": "bool",
          "name": "_useCustomAdapterParams",
          "type": "bool"
        }
      ],
      "name": "SetUseCustomAdapterParams",
      "type": "event"
    },
    {
      "inputs": [],
      "name": "DEFAULT_PAYLOAD_SIZE_LIMIT",
      "outputs": [
        {
          "internalType": "uint256",
          "name": "",
          "type": "uint256"
        }
      ],
      "stateMutability": "view",
      "type": "function"
    },
    {
      "inputs": [],
      "name": "FUNCTION_TYPE_SEND",
      "outputs": [
        {
          "internalType": "uint256",
          "name": "",
          "type": "uint256"
        }
      ],
      "stateMutability": "view",
      "type": "function"
    },
    {
      "inputs": [],
      "name": "NO_EXTRA_GAS",
      "outputs": [
        {
          "internalType": "uint256",
          "name": "",
          "type": "uint256"
        }
      ],
      "stateMutability": "view",
      "type": "function"
    },
    {
      "inputs": [
        {
          "internalType": "uint16",
          "name": "_dstChainId",
          "type": "uint16"
        },
        {
          "internalType": "address",
          "name": "_marketDstAddress",
          "type": "address"
        },
        {
          "internalType": "bytes[]",
          "name": "_marketCalls",
          "type": "bytes[]"
        },
        {
          "internalType": "bytes",
          "name": "_adapterParams",
          "type": "bytes"
        }
      ],
      "name": "executeOnChain",
      "outputs": [],
      "stateMutability": "payable",
      "type": "function"
    },
    {
      "inputs": [
        {
          "internalType": "uint16",
          "name": "",
          "type": "uint16"
        },
        {
          "internalType": "bytes",
          "name": "",
          "type": "bytes"
        },
        {
          "internalType": "uint64",
          "name": "",
          "type": "uint64"
        }
      ],
      "name": "failedMessages",
      "outputs": [
        {
          "internalType": "bytes32",
          "name": "",
          "type": "bytes32"
        }
      ],
      "stateMutability": "view",
      "type": "function"
    },
    {
      "inputs": [
        {
          "internalType": "uint16",
          "name": "_srcChainId",
          "type": "uint16"
        },
        {
          "internalType": "bytes",
          "name": "_srcAddress",
          "type": "bytes"
        }
      ],
      "name": "forceResumeReceive",
      "outputs": [],
      "stateMutability": "nonpayable",
      "type": "function"
    },
    {
      "inputs": [
        {
          "internalType": "uint16",
          "name": "_version",
          "type": "uint16"
        },
        {
          "internalType": "uint16",
          "name": "_chainId",
          "type": "uint16"
        },
        {
          "internalType": "address",
          "name": "",
          "type": "address"
        },
        {
          "internalType": "uint256",
          "name": "_configType",
          "type": "uint256"
        }
      ],
      "name": "getConfig",
      "outputs": [
        {
          "internalType": "bytes",
          "name": "",
          "type": "bytes"
        }
      ],
      "stateMutability": "view",
      "type": "function"
    },
    {
      "inputs": [
        {
          "internalType": "uint16",
          "name": "_remoteChainId",
          "type": "uint16"
        }
      ],
      "name": "getTrustedRemoteAddress",
      "outputs": [
        {
          "internalType": "bytes",
          "name": "",
          "type": "bytes"
        }
      ],
      "stateMutability": "view",
      "type": "function"
    },
    {
      "inputs": [
        {
          "internalType": "uint16",
          "name": "_srcChainId",
          "type": "uint16"
        },
        {
          "internalType": "bytes",
          "name": "_srcAddress",
          "type": "bytes"
        }
      ],
      "name": "isTrustedRemote",
      "outputs": [
        {
          "internalType": "bool",
          "name": "",
          "type": "bool"
        }
      ],
      "stateMutability": "view",
      "type": "function"
    },
    {
      "inputs": [],
      "name": "lzEndpoint",
      "outputs": [
        {
          "internalType": "contract ILayerZeroEndpoint",
          "name": "",
          "type": "address"
        }
      ],
      "stateMutability": "view",
      "type": "function"
    },
    {
      "inputs": [
        {
          "internalType": "uint16",
          "name": "_srcChainId",
          "type": "uint16"
        },
        {
          "internalType": "bytes",
          "name": "_srcAddress",
          "type": "bytes"
        },
        {
          "internalType": "uint64",
          "name": "_nonce",
          "type": "uint64"
        },
        {
          "internalType": "bytes",
          "name": "_payload",
          "type": "bytes"
        }
      ],
      "name": "lzReceive",
      "outputs": [],
      "stateMutability": "nonpayable",
      "type": "function"
    },
    {
      "inputs": [
        {
          "internalType": "address",
          "name": "",
          "type": "address"
        }
      ],
      "name": "markets",
      "outputs": [
        {
          "internalType": "bool",
          "name": "",
          "type": "bool"
        }
      ],
      "stateMutability": "view",
      "type": "function"
    },
    {
      "inputs": [
        {
          "internalType": "uint16",
          "name": "",
          "type": "uint16"
        },
        {
          "internalType": "uint16",
          "name": "",
          "type": "uint16"
        }
      ],
      "name": "minDstGasLookup",
      "outputs": [
        {
          "internalType": "uint256",
          "name": "",
          "type": "uint256"
        }
      ],
      "stateMutability": "view",
      "type": "function"
    },
    {
      "inputs": [
        {
          "internalType": "uint16",
          "name": "_srcChainId",
          "type": "uint16"
        },
        {
          "internalType": "bytes",
          "name": "_srcAddress",
          "type": "bytes"
        },
        {
          "internalType": "uint64",
          "name": "_nonce",
          "type": "uint64"
        },
        {
          "internalType": "bytes",
          "name": "_payload",
          "type": "bytes"
        }
      ],
      "name": "nonblockingLzReceive",
      "outputs": [],
      "stateMutability": "nonpayable",
      "type": "function"
    },
    {
      "inputs": [],
      "name": "owner",
      "outputs": [
        {
          "internalType": "address",
          "name": "",
          "type": "address"
        }
      ],
      "stateMutability": "view",
      "type": "function"
    },
    {
      "inputs": [
        {
          "internalType": "uint16",
          "name": "",
          "type": "uint16"
        }
      ],
      "name": "payloadSizeLimitLookup",
      "outputs": [
        {
          "internalType": "uint256",
          "name": "",
          "type": "uint256"
        }
      ],
      "stateMutability": "view",
      "type": "function"
    },
    {
      "inputs": [],
      "name": "precrime",
      "outputs": [
        {
          "internalType": "address",
          "name": "",
          "type": "address"
        }
      ],
      "stateMutability": "view",
      "type": "function"
    },
    {
      "inputs": [],
      "name": "renounceOwnership",
      "outputs": [],
      "stateMutability": "nonpayable",
      "type": "function"
    },
    {
      "inputs": [
        {
          "internalType": "uint16",
          "name": "_srcChainId",
          "type": "uint16"
        },
        {
          "internalType": "bytes",
          "name": "_srcAddress",
          "type": "bytes"
        },
        {
          "internalType": "uint64",
          "name": "_nonce",
          "type": "uint64"
        },
        {
          "internalType": "bytes",
          "name": "_payload",
          "type": "bytes"
        }
      ],
      "name": "retryMessage",
      "outputs": [],
      "stateMutability": "payable",
      "type": "function"
    },
    {
      "inputs": [
        {
          "internalType": "uint16",
          "name": "_version",
          "type": "uint16"
        },
        {
          "internalType": "uint16",
          "name": "_chainId",
          "type": "uint16"
        },
        {
          "internalType": "uint256",
          "name": "_configType",
          "type": "uint256"
        },
        {
          "internalType": "bytes",
          "name": "_config",
          "type": "bytes"
        }
      ],
      "name": "setConfig",
      "outputs": [],
      "stateMutability": "nonpayable",
      "type": "function"
    },
    {
      "inputs": [
        {
          "internalType": "uint16",
          "name": "_dstChainId",
          "type": "uint16"
        },
        {
          "internalType": "uint16",
          "name": "_packetType",
          "type": "uint16"
        },
        {
          "internalType": "uint256",
          "name": "_minGas",
          "type": "uint256"
        }
      ],
      "name": "setMinDstGas",
      "outputs": [],
      "stateMutability": "nonpayable",
      "type": "function"
    },
    {
      "inputs": [
        {
          "internalType": "uint16",
          "name": "_dstChainId",
          "type": "uint16"
        },
        {
          "internalType": "uint256",
          "name": "_size",
          "type": "uint256"
        }
      ],
      "name": "setPayloadSizeLimit",
      "outputs": [],
      "stateMutability": "nonpayable",
      "type": "function"
    },
    {
      "inputs": [
        {
          "internalType": "address",
          "name": "_precrime",
          "type": "address"
        }
      ],
      "name": "setPrecrime",
      "outputs": [],
      "stateMutability": "nonpayable",
      "type": "function"
    },
    {
      "inputs": [
        {
          "internalType": "uint16",
          "name": "_version",
          "type": "uint16"
        }
      ],
      "name": "setReceiveVersion",
      "outputs": [],
      "stateMutability": "nonpayable",
      "type": "function"
    },
    {
      "inputs": [
        {
          "internalType": "uint16",
          "name": "_version",
          "type": "uint16"
        }
      ],
      "name": "setSendVersion",
      "outputs": [],
      "stateMutability": "nonpayable",
      "type": "function"
    },
    {
      "inputs": [
        {
          "internalType": "uint16",
          "name": "_srcChainId",
          "type": "uint16"
        },
        {
          "internalType": "bytes",
          "name": "_path",
          "type": "bytes"
        }
      ],
      "name": "setTrustedRemote",
      "outputs": [],
      "stateMutability": "nonpayable",
      "type": "function"
    },
    {
      "inputs": [
        {
          "internalType": "uint16",
          "name": "_remoteChainId",
          "type": "uint16"
        },
        {
          "internalType": "bytes",
          "name": "_remoteAddress",
          "type": "bytes"
        }
      ],
      "name": "setTrustedRemoteAddress",
      "outputs": [],
      "stateMutability": "nonpayable",
      "type": "function"
    },
    {
      "inputs": [
        {
          "internalType": "bool",
          "name": "_useCustomAdapterParams",
          "type": "bool"
        }
      ],
      "name": "setUseCustomAdapterParams",
      "outputs": [],
      "stateMutability": "nonpayable",
      "type": "function"
    },
    {
      "inputs": [
        {
          "internalType": "address",
          "name": "newOwner",
          "type": "address"
        }
      ],
      "name": "transferOwnership",
      "outputs": [],
      "stateMutability": "nonpayable",
      "type": "function"
    },
    {
      "inputs": [
        {
          "internalType": "uint16",
          "name": "",
          "type": "uint16"
        }
      ],
      "name": "trustedRemoteLookup",
      "outputs": [
        {
          "internalType": "bytes",
          "name": "",
          "type": "bytes"
        }
      ],
      "stateMutability": "view",
      "type": "function"
    },
    {
      "inputs": [
        {
          "internalType": "address",
          "name": "_market",
          "type": "address"
        },
        {
          "internalType": "bool",
          "name": "_status",
          "type": "bool"
        }
      ],
      "name": "updateMarketStatus",
      "outputs": [],
      "stateMutability": "nonpayable",
      "type": "function"
    },
    {
      "inputs": [],
      "name": "useCustomAdapterParams",
      "outputs": [
        {
          "internalType": "bool",
          "name": "",
          "type": "bool"
        }
      ],
      "stateMutability": "view",
      "type": "function"
    }
  ],
  "transactionHash": "0xe5961170260a965337b768a2f498b66ff1d6db1926ab7a289960a9395c359e9a",
  "args": [
    "0x6aB5Ae6822647046626e83ee6dB8187151E1d5ab",
    "0x40282d3Cf4890D9806BC1853e97a59C93D813653"
  ],
  "numDeployments": 1,
  "solcInputHash": "3c1211aa0116175131f08ea61f910b35",
  "bytecode": "0x60a06040523480156200001157600080fd5b5060405162002d8f38038062002d8f8339810160408190526200003491620000ce565b8180620000413362000061565b6001600160a01b031660805250620000598162000061565b505062000106565b600080546001600160a01b038381166001600160a01b0319831681178455604051919092169283917f8be0079c531659141344cd1fd0a4f28419497f9722a3daafe3b4186f6b6457e09190a35050565b80516001600160a01b0381168114620000c957600080fd5b919050565b60008060408385031215620000e257600080fd5b620000ed83620000b1565b9150620000fd60208401620000b1565b90509250929050565b608051612c356200015a600039600081816104e00152818161065b015281816108aa0152818161095201528181610a7501528181610e7a0152818161136c015281816113f00152611cb00152612c356000f3fe6080604052600436106101e25760003560e01c80639f38369a11610102578063df2a5b3b11610095578063f2fde38b11610064578063f2fde38b146105e5578063f3264a2d14610605578063f5ecbdbc14610625578063f86a4ab31461064557600080fd5b8063df2a5b3b1461056b578063eab45d9c1461058b578063eb8d72b7146105ab578063ed629c5c146105cb57600080fd5b8063baf3292d116100d1578063baf3292d14610502578063c446183414610522578063cbed8b9c14610538578063d1deba1f1461055857600080fd5b80639f38369a14610479578063a6c3d16514610499578063af3fb21c146104b9578063b353aaa7146104ce57600080fd5b80635b8c41e61161017a5780638cfd8f5c116101495780638cfd8f5c146103bf5780638da5cb5b146103f75780638e8f294b14610429578063950c8a741461045957600080fd5b80635b8c41e61461030e57806366ad5c8a1461035d578063715018a61461037d5780637533d7881461039257600080fd5b80633d8b38f6116101b65780633d8b38f6146102695780633f1f4fa41461029e57806342d65a8d146102d957806344770515146102f957600080fd5b80621d3567146101e757806307e0db17146102095780630df374831461022957806310ddb13714610249575b600080fd5b3480156101f357600080fd5b50610207610202366004611e72565b610658565b005b34801561021557600080fd5b50610207610224366004611f07565b610889565b34801561023557600080fd5b50610207610244366004611f24565b610912565b34801561025557600080fd5b50610207610264366004611f07565b610931565b34801561027557600080fd5b50610289610284366004611f50565b610989565b60405190151581526020015b60405180910390f35b3480156102aa57600080fd5b506102cb6102b9366004611f07565b60036020526000908152604090205481565b604051908152602001610295565b3480156102e557600080fd5b506102076102f4366004611f50565b610a56565b34801561030557600080fd5b506102cb600081565b34801561031a57600080fd5b506102cb610329366004612067565b6005602090815260009384526040808520845180860184018051928152908401958401959095209452929052825290205481565b34801561036957600080fd5b50610207610378366004611e72565b610adc565b34801561038957600080fd5b50610207610bb8565b34801561039e57600080fd5b506103b26103ad366004611f07565b610bcc565b6040516102959190612122565b3480156103cb57600080fd5b506102cb6103da366004612135565b600260209081526000928352604080842090915290825290205481565b34801561040357600080fd5b506000546001600160a01b03165b6040516001600160a01b039091168152602001610295565b34801561043557600080fd5b50610289610444366004612183565b60076020526000908152604090205460ff1681565b34801561046557600080fd5b50600454610411906001600160a01b031681565b34801561048557600080fd5b506103b2610494366004611f07565b610c66565b3480156104a557600080fd5b506102076104b4366004611f50565b610d75565b3480156104c557600080fd5b506102cb600181565b3480156104da57600080fd5b506104117f000000000000000000000000000000000000000000000000000000000000000081565b34801561050e57600080fd5b5061020761051d366004612183565b610dfe565b34801561052e57600080fd5b506102cb61271081565b34801561054457600080fd5b506102076105533660046121a0565b610e5b565b610207610566366004611e72565b610ef0565b34801561057757600080fd5b50610207610586366004612212565b611106565b34801561059757600080fd5b506102076105a6366004612261565b6111b8565b3480156105b757600080fd5b506102076105c6366004611f50565b611201565b3480156105d757600080fd5b506006546102899060ff1681565b3480156105f157600080fd5b50610207610600366004612183565b61125b565b34801561061157600080fd5b5061020761062036600461227e565b6112d4565b34801561063157600080fd5b506103b26106403660046122ac565b61133b565b610207610653366004612320565b6113ec565b337f00000000000000000000000000000000000000000000000000000000000000006001600160a01b0316146106d55760405162461bcd60e51b815260206004820152601e60248201527f4c7a4170703a20696e76616c696420656e64706f696e742063616c6c6572000060448201526064015b60405180910390fd5b61ffff8616600090815260016020526040812080546106f39061241a565b80601f016020809104026020016040519081016040528092919081815260200182805461071f9061241a565b801561076c5780601f106107415761010080835404028352916020019161076c565b820191906000526020600020905b81548152906001019060200180831161074f57829003601f168201915b50505050509050805186869050148015610787575060008151115b80156107af5750805160208201206040516107a59088908890612454565b6040518091039020145b61080a5760405162461bcd60e51b815260206004820152602660248201527f4c7a4170703a20696e76616c696420736f757263652073656e64696e6720636f6044820152651b9d1c9858dd60d21b60648201526084016106cc565b6108808787878080601f01602080910402602001604051908101604052809392919081815260200183838082843760009201919091525050604080516020601f8a018190048102820181019092528881528a9350915088908890819084018382808284376000920191909152506114d992505050565b50505050505050565b610891611552565b6040516307e0db1760e01b815261ffff821660048201527f00000000000000000000000000000000000000000000000000000000000000006001600160a01b0316906307e0db17906024015b600060405180830381600087803b1580156108f757600080fd5b505af115801561090b573d6000803e3d6000fd5b5050505050565b61091a611552565b61ffff909116600090815260036020526040902055565b610939611552565b6040516310ddb13760e01b815261ffff821660048201527f00000000000000000000000000000000000000000000000000000000000000006001600160a01b0316906310ddb137906024016108dd565b61ffff8316600090815260016020526040812080548291906109aa9061241a565b80601f01602080910402602001604051908101604052809291908181526020018280546109d69061241a565b8015610a235780601f106109f857610100808354040283529160200191610a23565b820191906000526020600020905b815481529060010190602001808311610a0657829003601f168201915b505050505090508383604051610a3a929190612454565b60405180910390208180519060200120149150505b9392505050565b610a5e611552565b6040516342d65a8d60e01b81526001600160a01b037f000000000000000000000000000000000000000000000000000000000000000016906342d65a8d90610aae9086908690869060040161248d565b600060405180830381600087803b158015610ac857600080fd5b505af1158015610880573d6000803e3d6000fd5b333014610b3a5760405162461bcd60e51b815260206004820152602660248201527f4e6f6e626c6f636b696e674c7a4170703a2063616c6c6572206d7573742062656044820152650204c7a4170760d41b60648201526084016106cc565b610bb08686868080601f01602080910402602001604051908101604052809392919081815260200183838082843760009201919091525050604080516020601f8901819004810282018101909252878152899350915087908790819084018382808284376000920191909152506115ac92505050565b505050505050565b610bc0611552565b610bca60006116f8565b565b60016020526000908152604090208054610be59061241a565b80601f0160208091040260200160405190810160405280929190818152602001828054610c119061241a565b8015610c5e5780601f10610c3357610100808354040283529160200191610c5e565b820191906000526020600020905b815481529060010190602001808311610c4157829003601f168201915b505050505081565b61ffff8116600090815260016020526040812080546060929190610c899061241a565b80601f0160208091040260200160405190810160405280929190818152602001828054610cb59061241a565b8015610d025780601f10610cd757610100808354040283529160200191610d02565b820191906000526020600020905b815481529060010190602001808311610ce557829003601f168201915b505050505090508051600003610d5a5760405162461bcd60e51b815260206004820152601d60248201527f4c7a4170703a206e6f20747275737465642070617468207265636f726400000060448201526064016106cc565b610a4f600060148351610d6d91906124c1565b839190611748565b610d7d611552565b818130604051602001610d92939291906124d8565b60408051601f1981840301815291815261ffff8516600090815260016020522090610dbd9082612544565b507f8c0400cfe2d1199b1a725c78960bcc2a344d869b80590d0f2bd005db15a572ce838383604051610df19392919061248d565b60405180910390a1505050565b610e06611552565b600480546001600160a01b0319166001600160a01b0383169081179091556040519081527f5db758e995a17ec1ad84bdef7e8c3293a0bd6179bcce400dff5d4c3d87db726b906020015b60405180910390a150565b610e63611552565b6040516332fb62e760e21b81526001600160a01b037f0000000000000000000000000000000000000000000000000000000000000000169063cbed8b9c90610eb79088908890889088908890600401612603565b600060405180830381600087803b158015610ed157600080fd5b505af1158015610ee5573d6000803e3d6000fd5b505050505050505050565b61ffff86166000908152600560205260408082209051610f139088908890612454565b90815260408051602092819003830190206001600160401b03871660009081529252902054905080610f935760405162461bcd60e51b815260206004820152602360248201527f4e6f6e626c6f636b696e674c7a4170703a206e6f2073746f726564206d65737360448201526261676560e81b60648201526084016106cc565b808383604051610fa4929190612454565b6040518091039020146110035760405162461bcd60e51b815260206004820152602160248201527f4e6f6e626c6f636b696e674c7a4170703a20696e76616c6964207061796c6f616044820152601960fa1b60648201526084016106cc565b61ffff871660009081526005602052604080822090516110269089908990612454565b90815260408051602092819003830181206001600160401b038916600090815290845282902093909355601f880182900482028301820190528682526110be918991899089908190840183828082843760009201919091525050604080516020601f8a018190048102820181019092528881528a9350915088908890819084018382808284376000920191909152506115ac92505050565b7fc264d91f3adc5588250e1551f547752ca0cfa8f6b530d243b9f9f4cab10ea8e587878787856040516110f595949392919061263c565b60405180910390a150505050505050565b61110e611552565b600081116111565760405162461bcd60e51b81526020600482015260156024820152744c7a4170703a20696e76616c6964206d696e47617360581b60448201526064016106cc565b61ffff83811660008181526002602090815260408083209487168084529482529182902085905581519283528201929092529081018290527f9d5c7c0b934da8fefa9c7760c98383778a12dfbfc0c3b3106518f43fb9508ac090606001610df1565b6111c0611552565b6006805460ff19168215159081179091556040519081527f1584ad594a70cbe1e6515592e1272a987d922b097ead875069cebe8b40c004a490602001610e50565b611209611552565b61ffff83166000908152600160205260409020611227828483612677565b507ffa41487ad5d6728f0b19276fa1eddc16558578f5109fc39d2dc33c3230470dab838383604051610df19392919061248d565b611263611552565b6001600160a01b0381166112c85760405162461bcd60e51b815260206004820152602660248201527f4f776e61626c653a206e6577206f776e657220697320746865207a65726f206160448201526564647265737360d01b60648201526084016106cc565b6112d1816116f8565b50565b6112dc611552565b6001600160a01b038216600081815260076020908152604091829020805460ff191685151590811790915591519182527f1bc0fc0d4d10627d4504555c200a4f8c7c6470c31b305764e9f1372161078a8d910160405180910390a25050565b604051633d7b2f6f60e21b815261ffff808616600483015284166024820152306044820152606481018290526060907f00000000000000000000000000000000000000000000000000000000000000006001600160a01b03169063f5ecbdbc90608401600060405180830381865afa1580156113bb573d6000803e3d6000fd5b505050506040513d6000823e601f3d908101601f191682016040526113e39190810190612786565b95945050505050565b60007f00000000000000000000000000000000000000000000000000000000000000006001600160a01b0316633408e4706040518163ffffffff1660e01b8152600401602060405180830381865afa15801561144c573d6000803e3d6000fd5b505050506040513d601f19601f8201168201806040525081019061147091906127c2565b61ffff1690508461ffff1681036114c95760405162461bcd60e51b815260206004820152601d60248201527f4d61726b65747350726f78793a20636861696e206e6f742076616c696400000060448201526064016106cc565b61090b3386868633600088611855565b60008061153c5a60966366ad5c8a60e01b8989898960405160240161150194939291906127df565b60408051601f198184030181529190526020810180516001600160e01b03166001600160e01b03199093169290921790915230929190611981565b9150915081610bb057610bb08686868685611a0b565b6000546001600160a01b03163314610bca5760405162461bcd60e51b815260206004820181905260248201527f4f776e61626c653a2063616c6c6572206973206e6f7420746865206f776e657260448201526064016106cc565b600080828060200190518101906115c3919061281d565b6001600160a01b038216600090815260076020526040902054919450925060ff1690506116325760405162461bcd60e51b815260206004820152601e60248201527f4d61726b65747350726f78793a206d61726b6574206e6f742076616c6964000060448201526064016106cc565b60405163aa7d966560e01b81526001600160a01b0383169063aa7d966590611661908490600190600401612941565b6000604051808303816000875af1158015611680573d6000803e3d6000fd5b505050506040513d6000823e601f3d908101601f191682016040526116a89190810190612a04565b5050816001600160a01b03168661ffff167fe56f9bcb2a90b3dc97f0814c287246469fc5c7050a6022ad21b2fe9058129c81856040516116e89190612122565b60405180910390a3505050505050565b600080546001600160a01b038381166001600160a01b0319831681178455604051919092169283917f8be0079c531659141344cd1fd0a4f28419497f9722a3daafe3b4186f6b6457e09190a35050565b60608161175681601f612ac8565b10156117955760405162461bcd60e51b815260206004820152600e60248201526d736c6963655f6f766572666c6f7760901b60448201526064016106cc565b61179f8284612ac8565b845110156117e35760405162461bcd60e51b8152602060048201526011602482015270736c6963655f6f75744f66426f756e647360781b60448201526064016106cc565b606082158015611802576040519150600082526020820160405261184c565b6040519150601f8416801560200281840101858101878315602002848b0101015b8183101561183b578051835260209283019201611823565b5050858452601f01601f1916604052505b50949350505050565b6040516bffffffffffffffffffffffff193060601b16602082015260009060340160408051601f19818403018152908290526118979188908890602001612ae0565b60408051601f1981840301815291905260065490915060ff16156118c8576118c3876001846000611aa8565b611923565b8151156119235760405162461bcd60e51b8152602060048201526024808201527f4c7a4170703a205f61646170746572506172616d73206d75737420626520656d604482015263383a3c9760e11b60648201526084016106cc565b611931878286868634611b87565b876001600160a01b03168761ffff167fd3b01b57b25c5a506ceef68a2e5ce63cf91fe09d5270a8bb49839a64d5b1b1f78360405161196f9190612122565b60405180910390a35050505050505050565b6000606060008060008661ffff166001600160401b038111156119a6576119a6611fa4565b6040519080825280601f01601f1916602001820160405280156119d0576020820181803683370190505b50905060008087516020890160008d8df191503d9250868311156119f2578692505b828152826000602083013e909890975095505050505050565b8180519060200120600560008761ffff1661ffff16815260200190815260200160002085604051611a3c9190612b1e565b9081526040805191829003602090810183206001600160401b0388166000908152915220919091557fe183f33de2837795525b4792ca4cd60535bd77c53b7e7030060bfcf5734d6b0c90611a999087908790879087908790612b3a565b60405180910390a15050505050565b6000611ab383611d2c565b61ffff808716600090815260026020908152604080832093891683529290529081205491925090611ae5908490612ac8565b905060008111611b375760405162461bcd60e51b815260206004820152601a60248201527f4c7a4170703a206d696e4761734c696d6974206e6f742073657400000000000060448201526064016106cc565b80821015610bb05760405162461bcd60e51b815260206004820152601b60248201527f4c7a4170703a20676173206c696d697420697320746f6f206c6f77000000000060448201526064016106cc565b61ffff861660009081526001602052604081208054611ba59061241a565b80601f0160208091040260200160405190810160405280929190818152602001828054611bd19061241a565b8015611c1e5780601f10611bf357610100808354040283529160200191611c1e565b820191906000526020600020905b815481529060010190602001808311611c0157829003601f168201915b505050505090508051600003611c8f5760405162461bcd60e51b815260206004820152603060248201527f4c7a4170703a2064657374696e6174696f6e20636861696e206973206e6f742060448201526f61207472757374656420736f7572636560801b60648201526084016106cc565b611c9a878751611d88565b60405162c5803160e81b81526001600160a01b037f0000000000000000000000000000000000000000000000000000000000000000169063c5803100908490611cf1908b9086908c908c908c908c90600401612b98565b6000604051808303818588803b158015611d0a57600080fd5b505af1158015611d1e573d6000803e3d6000fd5b505050505050505050505050565b6000602282511015611d805760405162461bcd60e51b815260206004820152601c60248201527f4c7a4170703a20696e76616c69642061646170746572506172616d730000000060448201526064016106cc565b506022015190565b61ffff821660009081526003602052604081205490819003611da957506127105b80821115611df95760405162461bcd60e51b815260206004820181905260248201527f4c7a4170703a207061796c6f61642073697a6520697320746f6f206c6172676560448201526064016106cc565b505050565b61ffff811681146112d157600080fd5b60008083601f840112611e2057600080fd5b5081356001600160401b03811115611e3757600080fd5b602083019150836020828501011115611e4f57600080fd5b9250929050565b80356001600160401b0381168114611e6d57600080fd5b919050565b60008060008060008060808789031215611e8b57600080fd5b8635611e9681611dfe565b955060208701356001600160401b0380821115611eb257600080fd5b611ebe8a838b01611e0e565b9097509550859150611ed260408a01611e56565b94506060890135915080821115611ee857600080fd5b50611ef589828a01611e0e565b979a9699509497509295939492505050565b600060208284031215611f1957600080fd5b8135610a4f81611dfe565b60008060408385031215611f3757600080fd5b8235611f4281611dfe565b946020939093013593505050565b600080600060408486031215611f6557600080fd5b8335611f7081611dfe565b925060208401356001600160401b03811115611f8b57600080fd5b611f9786828701611e0e565b9497909650939450505050565b634e487b7160e01b600052604160045260246000fd5b604051601f8201601f191681016001600160401b0381118282101715611fe257611fe2611fa4565b604052919050565b60006001600160401b0382111561200357612003611fa4565b50601f01601f191660200190565b600082601f83011261202257600080fd5b813561203561203082611fea565b611fba565b81815284602083860101111561204a57600080fd5b816020850160208301376000918101602001919091529392505050565b60008060006060848603121561207c57600080fd5b833561208781611dfe565b925060208401356001600160401b038111156120a257600080fd5b6120ae86828701612011565b9250506120bd60408501611e56565b90509250925092565b60005b838110156120e15781810151838201526020016120c9565b838111156120f0576000848401525b50505050565b6000815180845261210e8160208601602086016120c6565b601f01601f19169290920160200192915050565b602081526000610a4f60208301846120f6565b6000806040838503121561214857600080fd5b823561215381611dfe565b9150602083013561216381611dfe565b809150509250929050565b6001600160a01b03811681146112d157600080fd5b60006020828403121561219557600080fd5b8135610a4f8161216e565b6000806000806000608086880312156121b857600080fd5b85356121c381611dfe565b945060208601356121d381611dfe565b93506040860135925060608601356001600160401b038111156121f557600080fd5b61220188828901611e0e565b969995985093965092949392505050565b60008060006060848603121561222757600080fd5b833561223281611dfe565b9250602084013561224281611dfe565b929592945050506040919091013590565b80151581146112d157600080fd5b60006020828403121561227357600080fd5b8135610a4f81612253565b6000806040838503121561229157600080fd5b823561229c8161216e565b9150602083013561216381612253565b600080600080608085870312156122c257600080fd5b84356122cd81611dfe565b935060208501356122dd81611dfe565b925060408501356122ed8161216e565b9396929550929360600135925050565b60006001600160401b0382111561231657612316611fa4565b5060051b60200190565b6000806000806080858703121561233657600080fd5b843561234181611dfe565b93506020858101356123528161216e565b935060408601356001600160401b038082111561236e57600080fd5b818801915088601f83011261238257600080fd5b8135612390612030826122fd565b81815260059190911b8301840190848101908b8311156123af57600080fd5b8585015b838110156123e7578035858111156123cb5760008081fd5b6123d98e89838a0101612011565b8452509186019186016123b3565b5096505050606088013592508083111561240057600080fd5b505061240e87828801612011565b91505092959194509250565b600181811c9082168061242e57607f821691505b60208210810361244e57634e487b7160e01b600052602260045260246000fd5b50919050565b8183823760009101908152919050565b81835281816020850137506000828201602090810191909152601f909101601f19169091010190565b61ffff841681526040602082015260006113e3604083018486612464565b634e487b7160e01b600052601160045260246000fd5b6000828210156124d3576124d36124ab565b500390565b8284823760609190911b6bffffffffffffffffffffffff19169101908152601401919050565b601f821115611df957600081815260208120601f850160051c810160208610156125255750805b601f850160051c820191505b81811015610bb057828155600101612531565b81516001600160401b0381111561255d5761255d611fa4565b6125718161256b845461241a565b846124fe565b602080601f8311600181146125a6576000841561258e5750858301515b600019600386901b1c1916600185901b178555610bb0565b600085815260208120601f198616915b828110156125d5578886015182559484019460019091019084016125b6565b50858210156125f35787850151600019600388901b60f8161c191681555b5050505050600190811b01905550565b600061ffff808816835280871660208401525084604083015260806060830152612631608083018486612464565b979650505050505050565b61ffff8616815260806020820152600061265a608083018688612464565b6001600160401b0394909416604083015250606001529392505050565b6001600160401b0383111561268e5761268e611fa4565b6126a28361269c835461241a565b836124fe565b6000601f8411600181146126d657600085156126be5750838201355b600019600387901b1c1916600186901b17835561090b565b600083815260209020601f19861690835b8281101561270757868501358255602094850194600190920191016126e7565b50868210156127245760001960f88860031b161c19848701351681555b505060018560011b0183555050505050565b600061274461203084611fea565b905082815283838301111561275857600080fd5b610a4f8360208301846120c6565b600082601f83011261277757600080fd5b610a4f83835160208501612736565b60006020828403121561279857600080fd5b81516001600160401b038111156127ae57600080fd5b6127ba84828501612766565b949350505050565b6000602082840312156127d457600080fd5b8151610a4f81611dfe565b61ffff851681526080602082015260006127fc60808301866120f6565b6001600160401b0385166040840152828103606084015261263181856120f6565b60008060006060848603121561283257600080fd5b835192506020808501516128458161216e565b60408601519093506001600160401b038082111561286257600080fd5b818701915087601f83011261287657600080fd5b8151612884612030826122fd565b81815260059190911b8301840190848101908a8311156128a357600080fd5b8585015b838110156128db578051858111156128bf5760008081fd5b6128cd8d89838a0101612766565b8452509186019186016128a7565b508096505050505050509250925092565b600081518084526020808501808196508360051b8101915082860160005b858110156129345782840389526129228483516120f6565b9885019893509084019060010161290a565b5091979650505050505050565b60408152600061295460408301856128ec565b905082151560208301529392505050565b600082601f83011261297657600080fd5b81516020612986612030836122fd565b82815260059290921b840181019181810190868411156129a557600080fd5b8286015b848110156129f95780516001600160401b038111156129c85760008081fd5b8701603f810189136129da5760008081fd5b6129eb898683015160408401612736565b8452509183019183016129a9565b509695505050505050565b60008060408385031215612a1757600080fd5b82516001600160401b0380821115612a2e57600080fd5b818501915085601f830112612a4257600080fd5b81516020612a52612030836122fd565b82815260059290921b84018101918181019089841115612a7157600080fd5b948201945b83861015612a98578551612a8981612253565b82529482019490820190612a76565b91880151919650909350505080821115612ab157600080fd5b50612abe85828601612965565b9150509250929050565b60008219821115612adb57612adb6124ab565b500190565b606081526000612af360608301866120f6565b6001600160a01b03851660208401528281036040840152612b1481856128ec565b9695505050505050565b60008251612b308184602087016120c6565b9190910192915050565b61ffff8616815260a060208201526000612b5760a08301876120f6565b6001600160401b03861660408401528281036060840152612b7881866120f6565b90508281036080840152612b8c81856120f6565b98975050505050505050565b61ffff8716815260c060208201526000612bb560c08301886120f6565b8281036040840152612bc781886120f6565b6001600160a01b0387811660608601528616608085015283810360a08501529050612bf281856120f6565b999850505050505050505056fea26469706673582212207dc20a4112383f07fa85580e80012933e5c2ac5138c7b80203e8aacce43d5d3264736f6c634300080f0033",
  "devdoc": {
    "kind": "dev",
    "methods": {
      "constructor": {
        "params": {
          "_lzEndpoint": "LayerZero endpoint address",
          "_owner": "contract's owner address"
        }
      },
      "executeOnChain(uint16,address,bytes[],bytes)": {
        "params": {
          "_adapterParams": "custom adapters",
          "_dstChainId": "te LayerZero destination chain id",
          "_marketCalls": "Market calls",
          "_marketDstAddress": "destination Market address"
        }
      },
      "owner()": {
        "details": "Returns the address of the current owner."
      },
      "renounceOwnership()": {
        "details": "Leaves the contract without owner. It will not be possible to call `onlyOwner` functions anymore. Can only be called by the current owner. NOTE: Renouncing ownership will leave the contract without an owner, thereby removing any functionality that is only available to the owner."
      },
      "setUseCustomAdapterParams(bool)": {
        "params": {
          "_useCustomAdapterParams": "true/false"
        }
      },
      "transferOwnership(address)": {
        "details": "Transfers ownership of the contract to a new account (`newOwner`). Can only be called by the current owner."
      },
      "updateMarketStatus(address,bool)": {
        "details": "callable by owner",
        "params": {
          "_market": "the market address",
          "_status": "whitelisted/not"
        }
      }
    },
    "title": "Omnichain proxy for Singularity",
    "version": 1
  },
  "userdoc": {
    "kind": "user",
    "methods": {
      "constructor": {
        "notice": "creates a new SGLProxy contract"
      },
      "executeOnChain(uint16,address,bytes[],bytes)": {
        "notice": "execute Singularity methods on another chain"
      },
      "setUseCustomAdapterParams(bool)": {
        "notice": "set custom adapter usage status"
      },
      "updateMarketStatus(address,bool)": {
        "notice": "set whitelist status for market"
      }
    },
    "version": 1
  },
  "storageLayout": {
    "storage": [
      {
        "astId": 583,
        "contract": "contracts/MarketsProxy.sol:MarketsProxy",
        "label": "_owner",
        "offset": 0,
        "slot": "0",
        "type": "t_address"
      },
      {
        "astId": 1482,
        "contract": "contracts/MarketsProxy.sol:MarketsProxy",
        "label": "trustedRemoteLookup",
        "offset": 0,
        "slot": "1",
        "type": "t_mapping(t_uint16,t_bytes_storage)"
      },
      {
        "astId": 1488,
        "contract": "contracts/MarketsProxy.sol:MarketsProxy",
        "label": "minDstGasLookup",
        "offset": 0,
        "slot": "2",
        "type": "t_mapping(t_uint16,t_mapping(t_uint16,t_uint256))"
      },
      {
        "astId": 1492,
        "contract": "contracts/MarketsProxy.sol:MarketsProxy",
        "label": "payloadSizeLimitLookup",
        "offset": 0,
        "slot": "3",
        "type": "t_mapping(t_uint16,t_uint256)"
      },
      {
        "astId": 1494,
        "contract": "contracts/MarketsProxy.sol:MarketsProxy",
        "label": "precrime",
        "offset": 0,
        "slot": "4",
        "type": "t_address"
      },
      {
        "astId": 2031,
        "contract": "contracts/MarketsProxy.sol:MarketsProxy",
        "label": "failedMessages",
        "offset": 0,
        "slot": "5",
        "type": "t_mapping(t_uint16,t_mapping(t_bytes_memory_ptr,t_mapping(t_uint64,t_bytes32)))"
      },
      {
        "astId": 720,
        "contract": "contracts/MarketsProxy.sol:MarketsProxy",
        "label": "useCustomAdapterParams",
        "offset": 0,
        "slot": "6",
        "type": "t_bool"
      },
      {
        "astId": 724,
        "contract": "contracts/MarketsProxy.sol:MarketsProxy",
        "label": "markets",
        "offset": 0,
        "slot": "7",
        "type": "t_mapping(t_address,t_bool)"
      }
    ],
    "types": {
      "t_address": {
        "encoding": "inplace",
        "label": "address",
        "numberOfBytes": "20"
      },
      "t_bool": {
        "encoding": "inplace",
        "label": "bool",
        "numberOfBytes": "1"
      },
      "t_bytes32": {
        "encoding": "inplace",
        "label": "bytes32",
        "numberOfBytes": "32"
      },
      "t_bytes_memory_ptr": {
        "encoding": "bytes",
        "label": "bytes",
        "numberOfBytes": "32"
      },
      "t_bytes_storage": {
        "encoding": "bytes",
        "label": "bytes",
        "numberOfBytes": "32"
      },
      "t_mapping(t_address,t_bool)": {
        "encoding": "mapping",
        "key": "t_address",
        "label": "mapping(address => bool)",
        "numberOfBytes": "32",
        "value": "t_bool"
      },
      "t_mapping(t_bytes_memory_ptr,t_mapping(t_uint64,t_bytes32))": {
        "encoding": "mapping",
        "key": "t_bytes_memory_ptr",
        "label": "mapping(bytes => mapping(uint64 => bytes32))",
        "numberOfBytes": "32",
        "value": "t_mapping(t_uint64,t_bytes32)"
      },
      "t_mapping(t_uint16,t_bytes_storage)": {
        "encoding": "mapping",
        "key": "t_uint16",
        "label": "mapping(uint16 => bytes)",
        "numberOfBytes": "32",
        "value": "t_bytes_storage"
      },
      "t_mapping(t_uint16,t_mapping(t_bytes_memory_ptr,t_mapping(t_uint64,t_bytes32)))": {
        "encoding": "mapping",
        "key": "t_uint16",
        "label": "mapping(uint16 => mapping(bytes => mapping(uint64 => bytes32)))",
        "numberOfBytes": "32",
        "value": "t_mapping(t_bytes_memory_ptr,t_mapping(t_uint64,t_bytes32))"
      },
      "t_mapping(t_uint16,t_mapping(t_uint16,t_uint256))": {
        "encoding": "mapping",
        "key": "t_uint16",
        "label": "mapping(uint16 => mapping(uint16 => uint256))",
        "numberOfBytes": "32",
        "value": "t_mapping(t_uint16,t_uint256)"
      },
      "t_mapping(t_uint16,t_uint256)": {
        "encoding": "mapping",
        "key": "t_uint16",
        "label": "mapping(uint16 => uint256)",
        "numberOfBytes": "32",
        "value": "t_uint256"
      },
      "t_mapping(t_uint64,t_bytes32)": {
        "encoding": "mapping",
        "key": "t_uint64",
        "label": "mapping(uint64 => bytes32)",
        "numberOfBytes": "32",
        "value": "t_bytes32"
      },
      "t_uint16": {
        "encoding": "inplace",
        "label": "uint16",
        "numberOfBytes": "2"
      },
      "t_uint256": {
        "encoding": "inplace",
        "label": "uint256",
        "numberOfBytes": "32"
      },
      "t_uint64": {
        "encoding": "inplace",
        "label": "uint64",
        "numberOfBytes": "8"
      }
    }
  }
}