{
  "address": "0x0A817fC40C3457Ce64Db4907500eF6cC701EF19B",
  "abi": [
    {
      "inputs": [
        {
          "internalType": "address",
          "name": "_from",
          "type": "address"
        },
        {
          "internalType": "address",
          "name": "_operator",
          "type": "address"
        }
      ],
      "name": "NotApproved",
      "type": "error"
    },
    {
      "anonymous": false,
      "inputs": [
        {
          "indexed": true,
          "internalType": "address",
          "name": "owner",
          "type": "address"
        },
        {
          "indexed": true,
          "internalType": "address",
          "name": "spender",
          "type": "address"
        },
        {
          "indexed": false,
          "internalType": "uint256",
          "name": "value",
          "type": "uint256"
        }
      ],
      "name": "Approval",
      "type": "event"
    },
    {
      "anonymous": false,
      "inputs": [
        {
          "indexed": true,
          "internalType": "address",
          "name": "old",
          "type": "address"
        },
        {
          "indexed": true,
          "internalType": "address",
          "name": "_new",
          "type": "address"
        }
      ],
      "name": "ConservatorUpdated",
      "type": "event"
    },
    {
      "anonymous": false,
      "inputs": [
        {
          "indexed": false,
          "internalType": "uint256",
          "name": "accruedAmount",
          "type": "uint256"
        },
        {
          "indexed": false,
          "internalType": "uint256",
          "name": "feeFraction",
          "type": "uint256"
        },
        {
          "indexed": false,
          "internalType": "uint64",
          "name": "rate",
          "type": "uint64"
        },
        {
          "indexed": false,
          "internalType": "uint256",
          "name": "utilization",
          "type": "uint256"
        }
      ],
      "name": "LogAccrue",
      "type": "event"
    },
    {
      "anonymous": false,
      "inputs": [
        {
          "indexed": true,
          "internalType": "address",
          "name": "from",
          "type": "address"
        },
        {
          "indexed": true,
          "internalType": "address",
          "name": "to",
          "type": "address"
        },
        {
          "indexed": false,
          "internalType": "uint256",
          "name": "share",
          "type": "uint256"
        },
        {
          "indexed": false,
          "internalType": "uint256",
          "name": "fraction",
          "type": "uint256"
        }
      ],
      "name": "LogAddAsset",
      "type": "event"
    },
    {
      "anonymous": false,
      "inputs": [
        {
          "indexed": true,
          "internalType": "address",
          "name": "from",
          "type": "address"
        },
        {
          "indexed": true,
          "internalType": "address",
          "name": "to",
          "type": "address"
        },
        {
          "indexed": false,
          "internalType": "uint256",
          "name": "share",
          "type": "uint256"
        }
      ],
      "name": "LogAddCollateral",
      "type": "event"
    },
    {
      "anonymous": false,
      "inputs": [
        {
          "indexed": true,
          "internalType": "address",
          "name": "_from",
          "type": "address"
        },
        {
          "indexed": true,
          "internalType": "address",
          "name": "_operator",
          "type": "address"
        },
        {
          "indexed": false,
          "internalType": "bool",
          "name": "_approved",
          "type": "bool"
        }
      ],
      "name": "LogApprovalForAll",
      "type": "event"
    },
    {
      "anonymous": false,
      "inputs": [
        {
          "indexed": true,
          "internalType": "address",
          "name": "from",
          "type": "address"
        },
        {
          "indexed": true,
          "internalType": "address",
          "name": "to",
          "type": "address"
        },
        {
          "indexed": false,
          "internalType": "uint256",
          "name": "amount",
          "type": "uint256"
        },
        {
          "indexed": false,
          "internalType": "uint256",
          "name": "feeAmount",
          "type": "uint256"
        },
        {
          "indexed": false,
          "internalType": "uint256",
          "name": "part",
          "type": "uint256"
        }
      ],
      "name": "LogBorrow",
      "type": "event"
    },
    {
      "anonymous": false,
      "inputs": [
        {
          "indexed": false,
          "internalType": "uint256",
          "name": "_oldVal",
          "type": "uint256"
        },
        {
          "indexed": false,
          "internalType": "uint256",
          "name": "_newVal",
          "type": "uint256"
        }
      ],
      "name": "LogBorrowCapUpdated",
      "type": "event"
    },
    {
      "anonymous": false,
      "inputs": [
        {
          "indexed": false,
          "internalType": "uint256",
          "name": "rate",
          "type": "uint256"
        }
      ],
      "name": "LogExchangeRate",
      "type": "event"
    },
    {
      "anonymous": false,
      "inputs": [
        {
          "indexed": true,
          "internalType": "address",
          "name": "from",
          "type": "address"
        },
        {
          "indexed": true,
          "internalType": "address",
          "name": "to",
          "type": "address"
        },
        {
          "indexed": false,
          "internalType": "uint256",
          "name": "share",
          "type": "uint256"
        },
        {
          "indexed": false,
          "internalType": "uint256",
          "name": "fraction",
          "type": "uint256"
        }
      ],
      "name": "LogRemoveAsset",
      "type": "event"
    },
    {
      "anonymous": false,
      "inputs": [
        {
          "indexed": true,
          "internalType": "address",
          "name": "from",
          "type": "address"
        },
        {
          "indexed": true,
          "internalType": "address",
          "name": "to",
          "type": "address"
        },
        {
          "indexed": false,
          "internalType": "uint256",
          "name": "share",
          "type": "uint256"
        }
      ],
      "name": "LogRemoveCollateral",
      "type": "event"
    },
    {
      "anonymous": false,
      "inputs": [
        {
          "indexed": true,
          "internalType": "address",
          "name": "from",
          "type": "address"
        },
        {
          "indexed": true,
          "internalType": "address",
          "name": "to",
          "type": "address"
        },
        {
          "indexed": false,
          "internalType": "uint256",
          "name": "amount",
          "type": "uint256"
        },
        {
          "indexed": false,
          "internalType": "uint256",
          "name": "part",
          "type": "uint256"
        }
      ],
      "name": "LogRepay",
      "type": "event"
    },
    {
      "anonymous": false,
      "inputs": [
        {
          "indexed": true,
          "internalType": "address",
          "name": "feeTo",
          "type": "address"
        },
        {
          "indexed": false,
          "internalType": "uint256",
          "name": "feesEarnedFraction",
          "type": "uint256"
        }
      ],
      "name": "LogWithdrawFees",
      "type": "event"
    },
    {
      "anonymous": false,
      "inputs": [
        {
          "indexed": false,
          "internalType": "uint256",
          "name": "feeShares",
          "type": "uint256"
        },
        {
          "indexed": false,
          "internalType": "uint256",
          "name": "ethAmount",
          "type": "uint256"
        }
      ],
      "name": "LogYieldBoxFeesDeposit",
      "type": "event"
    },
    {
      "anonymous": false,
      "inputs": [
        {
          "indexed": true,
          "internalType": "address",
          "name": "previousOwner",
          "type": "address"
        },
        {
          "indexed": true,
          "internalType": "address",
          "name": "newOwner",
          "type": "address"
        }
      ],
      "name": "OwnershipTransferred",
      "type": "event"
    },
    {
      "anonymous": false,
      "inputs": [
        {
          "indexed": false,
          "internalType": "bool",
          "name": "oldState",
          "type": "bool"
        },
        {
          "indexed": false,
          "internalType": "bool",
          "name": "newState",
          "type": "bool"
        }
      ],
      "name": "PausedUpdated",
      "type": "event"
    },
    {
      "anonymous": false,
      "inputs": [
        {
          "indexed": true,
          "internalType": "address",
          "name": "from",
          "type": "address"
        },
        {
          "indexed": true,
          "internalType": "address",
          "name": "to",
          "type": "address"
        },
        {
          "indexed": false,
          "internalType": "uint256",
          "name": "value",
          "type": "uint256"
        }
      ],
      "name": "Transfer",
      "type": "event"
    },
    {
      "inputs": [],
      "name": "DOMAIN_SEPARATOR",
      "outputs": [
        {
          "internalType": "bytes32",
          "name": "",
          "type": "bytes32"
        }
      ],
      "stateMutability": "view",
      "type": "function"
    },
    {
      "inputs": [],
      "name": "accrue",
      "outputs": [],
      "stateMutability": "nonpayable",
      "type": "function"
    },
    {
      "inputs": [],
      "name": "accrueInfo",
      "outputs": [
        {
          "internalType": "uint64",
          "name": "interestPerSecond",
          "type": "uint64"
        },
        {
          "internalType": "uint64",
          "name": "lastAccrued",
          "type": "uint64"
        },
        {
          "internalType": "uint128",
          "name": "feesEarnedFraction",
          "type": "uint128"
        }
      ],
      "stateMutability": "view",
      "type": "function"
    },
    {
      "inputs": [
        {
          "internalType": "address",
          "name": "from",
          "type": "address"
        },
        {
          "internalType": "address",
          "name": "to",
          "type": "address"
        },
        {
          "internalType": "bool",
          "name": "skim",
          "type": "bool"
        },
        {
          "internalType": "uint256",
          "name": "share",
          "type": "uint256"
        }
      ],
      "name": "addAsset",
      "outputs": [
        {
          "internalType": "uint256",
          "name": "fraction",
          "type": "uint256"
        }
      ],
      "stateMutability": "nonpayable",
      "type": "function"
    },
    {
      "inputs": [
        {
          "internalType": "address",
          "name": "from",
          "type": "address"
        },
        {
          "internalType": "address",
          "name": "to",
          "type": "address"
        },
        {
          "internalType": "bool",
          "name": "skim",
          "type": "bool"
        },
        {
          "internalType": "uint256",
          "name": "share",
          "type": "uint256"
        }
      ],
      "name": "addCollateral",
      "outputs": [],
      "stateMutability": "nonpayable",
      "type": "function"
    },
    {
      "inputs": [
        {
          "internalType": "address",
          "name": "",
          "type": "address"
        },
        {
          "internalType": "address",
          "name": "",
          "type": "address"
        }
      ],
      "name": "allowance",
      "outputs": [
        {
          "internalType": "uint256",
          "name": "",
          "type": "uint256"
        }
      ],
      "stateMutability": "view",
      "type": "function"
    },
    {
      "inputs": [
        {
          "internalType": "address",
          "name": "spender",
          "type": "address"
        },
        {
          "internalType": "uint256",
          "name": "amount",
          "type": "uint256"
        }
      ],
      "name": "approve",
      "outputs": [
        {
          "internalType": "bool",
          "name": "",
          "type": "bool"
        }
      ],
      "stateMutability": "nonpayable",
      "type": "function"
    },
    {
      "inputs": [],
      "name": "asset",
      "outputs": [
        {
          "internalType": "contract IERC20",
          "name": "",
          "type": "address"
        }
      ],
      "stateMutability": "view",
      "type": "function"
    },
    {
      "inputs": [],
      "name": "assetId",
      "outputs": [
        {
          "internalType": "uint256",
          "name": "",
          "type": "uint256"
        }
      ],
      "stateMutability": "view",
      "type": "function"
    },
    {
      "inputs": [
        {
          "internalType": "address",
          "name": "",
          "type": "address"
        }
      ],
      "name": "balanceOf",
      "outputs": [
        {
          "internalType": "uint256",
          "name": "",
          "type": "uint256"
        }
      ],
      "stateMutability": "view",
      "type": "function"
    },
    {
      "inputs": [
        {
          "internalType": "address",
          "name": "from",
          "type": "address"
        },
        {
          "internalType": "address",
          "name": "to",
          "type": "address"
        },
        {
          "internalType": "uint256",
          "name": "amount",
          "type": "uint256"
        }
      ],
      "name": "borrow",
      "outputs": [
        {
          "internalType": "uint256",
          "name": "part",
          "type": "uint256"
        },
        {
          "internalType": "uint256",
          "name": "share",
          "type": "uint256"
        }
      ],
      "stateMutability": "nonpayable",
      "type": "function"
    },
    {
      "inputs": [],
      "name": "borrowOpeningFee",
      "outputs": [
        {
          "internalType": "uint256",
          "name": "",
          "type": "uint256"
        }
      ],
      "stateMutability": "view",
      "type": "function"
    },
    {
      "inputs": [],
      "name": "callerFee",
      "outputs": [
        {
          "internalType": "uint256",
          "name": "",
          "type": "uint256"
        }
      ],
      "stateMutability": "view",
      "type": "function"
    },
    {
      "inputs": [],
      "name": "claimOwnership",
      "outputs": [],
      "stateMutability": "nonpayable",
      "type": "function"
    },
    {
      "inputs": [],
      "name": "closedCollateralizationRate",
      "outputs": [
        {
          "internalType": "uint256",
          "name": "",
          "type": "uint256"
        }
      ],
      "stateMutability": "view",
      "type": "function"
    },
    {
      "inputs": [],
      "name": "collateral",
      "outputs": [
        {
          "internalType": "contract IERC20",
          "name": "",
          "type": "address"
        }
      ],
      "stateMutability": "view",
      "type": "function"
    },
    {
      "inputs": [],
      "name": "collateralId",
      "outputs": [
        {
          "internalType": "uint256",
          "name": "",
          "type": "uint256"
        }
      ],
      "stateMutability": "view",
      "type": "function"
    },
    {
      "inputs": [
        {
          "internalType": "address",
          "name": "user",
          "type": "address"
        },
        {
          "internalType": "uint256",
          "name": "_exchangeRate",
          "type": "uint256"
        }
      ],
      "name": "computeClosingFactor",
      "outputs": [
        {
          "internalType": "uint256",
          "name": "",
          "type": "uint256"
        }
      ],
      "stateMutability": "view",
      "type": "function"
    },
    {
      "inputs": [
        {
          "internalType": "address",
          "name": "user",
          "type": "address"
        },
        {
          "internalType": "uint256",
          "name": "_exchangeRate",
          "type": "uint256"
        }
      ],
      "name": "computeLiquidatorReward",
      "outputs": [
        {
          "internalType": "uint256",
          "name": "",
          "type": "uint256"
        }
      ],
      "stateMutability": "view",
      "type": "function"
    },
    {
      "inputs": [
        {
          "internalType": "address",
          "name": "user",
          "type": "address"
        },
        {
          "internalType": "uint256",
          "name": "_exchangeRate",
          "type": "uint256"
        }
      ],
      "name": "computeTVLInfo",
      "outputs": [
        {
          "internalType": "uint256",
          "name": "amountToSolvency",
          "type": "uint256"
        },
        {
          "internalType": "uint256",
          "name": "minTVL",
          "type": "uint256"
        },
        {
          "internalType": "uint256",
          "name": "maxTVL",
          "type": "uint256"
        }
      ],
      "stateMutability": "view",
      "type": "function"
    },
    {
      "inputs": [],
      "name": "conservator",
      "outputs": [
        {
          "internalType": "address",
          "name": "",
          "type": "address"
        }
      ],
      "stateMutability": "view",
      "type": "function"
    },
    {
      "inputs": [],
      "name": "decimals",
      "outputs": [
        {
          "internalType": "uint8",
          "name": "",
          "type": "uint8"
        }
      ],
      "stateMutability": "view",
      "type": "function"
    },
    {
      "inputs": [
        {
          "internalType": "contract ISwapper",
          "name": "swapper",
          "type": "address"
        },
        {
          "components": [
            {
              "internalType": "uint256",
              "name": "minAssetAmount",
              "type": "uint256"
            }
          ],
          "internalType": "struct IPenrose.SwapData",
          "name": "swapData",
          "type": "tuple"
        }
      ],
      "name": "depositFeesToYieldBox",
      "outputs": [],
      "stateMutability": "nonpayable",
      "type": "function"
    },
    {
      "inputs": [],
      "name": "exchangeRate",
      "outputs": [
        {
          "internalType": "uint256",
          "name": "",
          "type": "uint256"
        }
      ],
      "stateMutability": "view",
      "type": "function"
    },
    {
      "inputs": [
        {
          "internalType": "bytes[]",
          "name": "calls",
          "type": "bytes[]"
        },
        {
          "internalType": "bool",
          "name": "revertOnFail",
          "type": "bool"
        }
      ],
      "name": "execute",
      "outputs": [
        {
          "internalType": "bool[]",
          "name": "successes",
          "type": "bool[]"
        },
        {
          "internalType": "string[]",
          "name": "results",
          "type": "string[]"
        }
      ],
      "stateMutability": "nonpayable",
      "type": "function"
    },
    {
      "inputs": [
        {
          "internalType": "bytes",
          "name": "data",
          "type": "bytes"
        }
      ],
      "name": "init",
      "outputs": [],
      "stateMutability": "nonpayable",
      "type": "function"
    },
    {
      "inputs": [
        {
          "internalType": "address",
          "name": "",
          "type": "address"
        },
        {
          "internalType": "address",
          "name": "",
          "type": "address"
        }
      ],
      "name": "isApprovedForAll",
      "outputs": [
        {
          "internalType": "bool",
          "name": "",
          "type": "bool"
        }
      ],
      "stateMutability": "view",
      "type": "function"
    },
    {
      "inputs": [],
      "name": "lendingBorrowingModule",
      "outputs": [
        {
          "internalType": "contract SGLLendingBorrowing",
          "name": "",
          "type": "address"
        }
      ],
      "stateMutability": "view",
      "type": "function"
    },
    {
      "inputs": [
        {
          "internalType": "address[]",
          "name": "users",
          "type": "address[]"
        },
        {
          "internalType": "uint256[]",
          "name": "maxBorrowParts",
          "type": "uint256[]"
        },
        {
          "internalType": "contract ISwapper",
          "name": "swapper",
          "type": "address"
        },
        {
          "internalType": "bytes",
          "name": "collateralToAssetSwapData",
          "type": "bytes"
        },
        {
          "internalType": "bytes",
          "name": "usdoToBorrowedSwapData",
          "type": "bytes"
        }
      ],
      "name": "liquidate",
      "outputs": [],
      "stateMutability": "nonpayable",
      "type": "function"
    },
    {
      "inputs": [],
      "name": "liquidationBonusAmount",
      "outputs": [
        {
          "internalType": "uint256",
          "name": "",
          "type": "uint256"
        }
      ],
      "stateMutability": "view",
      "type": "function"
    },
    {
      "inputs": [],
      "name": "liquidationModule",
      "outputs": [
        {
          "internalType": "contract SGLLiquidation",
          "name": "",
          "type": "address"
        }
      ],
      "stateMutability": "view",
      "type": "function"
    },
    {
      "inputs": [],
      "name": "liquidationMultiplier",
      "outputs": [
        {
          "internalType": "uint256",
          "name": "",
          "type": "uint256"
        }
      ],
      "stateMutability": "view",
      "type": "function"
    },
    {
      "inputs": [],
      "name": "liquidationQueue",
      "outputs": [
        {
          "internalType": "contract ILiquidationQueue",
          "name": "",
          "type": "address"
        }
      ],
      "stateMutability": "view",
      "type": "function"
    },
    {
      "inputs": [],
      "name": "lqCollateralizationRate",
      "outputs": [
        {
          "internalType": "uint256",
          "name": "",
          "type": "uint256"
        }
      ],
      "stateMutability": "view",
      "type": "function"
    },
    {
      "inputs": [],
      "name": "maxLiquidatorReward",
      "outputs": [
        {
          "internalType": "uint256",
          "name": "",
          "type": "uint256"
        }
      ],
      "stateMutability": "view",
      "type": "function"
    },
    {
      "inputs": [],
      "name": "minLiquidatorReward",
      "outputs": [
        {
          "internalType": "uint256",
          "name": "",
          "type": "uint256"
        }
      ],
      "stateMutability": "view",
      "type": "function"
    },
    {
      "inputs": [],
      "name": "name",
      "outputs": [
        {
          "internalType": "string",
          "name": "",
          "type": "string"
        }
      ],
      "stateMutability": "view",
      "type": "function"
    },
    {
      "inputs": [
        {
          "internalType": "address",
          "name": "",
          "type": "address"
        }
      ],
      "name": "nonces",
      "outputs": [
        {
          "internalType": "uint256",
          "name": "",
          "type": "uint256"
        }
      ],
      "stateMutability": "view",
      "type": "function"
    },
    {
      "inputs": [],
      "name": "oracle",
      "outputs": [
        {
          "internalType": "contract IOracle",
          "name": "",
          "type": "address"
        }
      ],
      "stateMutability": "view",
      "type": "function"
    },
    {
      "inputs": [],
      "name": "oracleData",
      "outputs": [
        {
          "internalType": "bytes",
          "name": "",
          "type": "bytes"
        }
      ],
      "stateMutability": "view",
      "type": "function"
    },
    {
      "inputs": [],
      "name": "orderBookLiquidationMultiplier",
      "outputs": [
        {
          "internalType": "uint256",
          "name": "",
          "type": "uint256"
        }
      ],
      "stateMutability": "view",
      "type": "function"
    },
    {
      "inputs": [],
      "name": "owner",
      "outputs": [
        {
          "internalType": "address",
          "name": "",
          "type": "address"
        }
      ],
      "stateMutability": "view",
      "type": "function"
    },
    {
      "inputs": [],
      "name": "paused",
      "outputs": [
        {
          "internalType": "bool",
          "name": "",
          "type": "bool"
        }
      ],
      "stateMutability": "view",
      "type": "function"
    },
    {
      "inputs": [],
      "name": "pendingOwner",
      "outputs": [
        {
          "internalType": "address",
          "name": "",
          "type": "address"
        }
      ],
      "stateMutability": "view",
      "type": "function"
    },
    {
      "inputs": [],
      "name": "penrose",
      "outputs": [
        {
          "internalType": "contract IPenrose",
          "name": "",
          "type": "address"
        }
      ],
      "stateMutability": "view",
      "type": "function"
    },
    {
      "inputs": [
        {
          "internalType": "address",
          "name": "owner_",
          "type": "address"
        },
        {
          "internalType": "address",
          "name": "spender",
          "type": "address"
        },
        {
          "internalType": "uint256",
          "name": "value",
          "type": "uint256"
        },
        {
          "internalType": "uint256",
          "name": "deadline",
          "type": "uint256"
        },
        {
          "internalType": "uint8",
          "name": "v",
          "type": "uint8"
        },
        {
          "internalType": "bytes32",
          "name": "r",
          "type": "bytes32"
        },
        {
          "internalType": "bytes32",
          "name": "s",
          "type": "bytes32"
        }
      ],
      "name": "permit",
      "outputs": [],
      "stateMutability": "nonpayable",
      "type": "function"
    },
    {
      "inputs": [],
      "name": "protocolFee",
      "outputs": [
        {
          "internalType": "uint256",
          "name": "",
          "type": "uint256"
        }
      ],
      "stateMutability": "view",
      "type": "function"
    },
    {
      "inputs": [
        {
          "internalType": "address",
          "name": "from",
          "type": "address"
        },
        {
          "internalType": "address",
          "name": "to",
          "type": "address"
        },
        {
          "internalType": "uint256",
          "name": "fraction",
          "type": "uint256"
        }
      ],
      "name": "removeAsset",
      "outputs": [
        {
          "internalType": "uint256",
          "name": "share",
          "type": "uint256"
        }
      ],
      "stateMutability": "nonpayable",
      "type": "function"
    },
    {
      "inputs": [
        {
          "internalType": "address",
          "name": "from",
          "type": "address"
        },
        {
          "internalType": "address",
          "name": "to",
          "type": "address"
        },
        {
          "internalType": "uint256",
          "name": "share",
          "type": "uint256"
        }
      ],
      "name": "removeCollateral",
      "outputs": [],
      "stateMutability": "nonpayable",
      "type": "function"
    },
    {
      "inputs": [
        {
          "internalType": "address",
          "name": "from",
          "type": "address"
        },
        {
          "internalType": "address",
          "name": "to",
          "type": "address"
        },
        {
          "internalType": "bool",
          "name": "skim",
          "type": "bool"
        },
        {
          "internalType": "uint256",
          "name": "part",
          "type": "uint256"
        }
      ],
      "name": "repay",
      "outputs": [
        {
          "internalType": "uint256",
          "name": "amount",
          "type": "uint256"
        }
      ],
      "stateMutability": "nonpayable",
      "type": "function"
    },
    {
      "inputs": [
        {
          "internalType": "uint256",
          "name": "_cap",
          "type": "uint256"
        }
      ],
      "name": "setBorrowCap",
      "outputs": [],
      "stateMutability": "nonpayable",
      "type": "function"
    },
    {
      "inputs": [
        {
          "internalType": "uint256",
          "name": "_val",
          "type": "uint256"
        }
      ],
      "name": "setBorrowOpeningFee",
      "outputs": [],
      "stateMutability": "nonpayable",
      "type": "function"
    },
    {
      "inputs": [
        {
          "internalType": "uint256",
          "name": "_val",
          "type": "uint256"
        }
      ],
      "name": "setCallerFee",
      "outputs": [],
      "stateMutability": "nonpayable",
      "type": "function"
    },
    {
      "inputs": [
        {
          "internalType": "uint256",
          "name": "_val",
          "type": "uint256"
        }
      ],
      "name": "setClosedCollateralizationRate",
      "outputs": [],
      "stateMutability": "nonpayable",
      "type": "function"
    },
    {
      "inputs": [
        {
          "internalType": "address",
          "name": "_conservator",
          "type": "address"
        }
      ],
      "name": "setConservator",
      "outputs": [],
      "stateMutability": "nonpayable",
      "type": "function"
    },
    {
      "inputs": [
        {
          "internalType": "uint256",
          "name": "_val",
          "type": "uint256"
        }
      ],
      "name": "setLiquidationBonusAmount",
      "outputs": [],
      "stateMutability": "nonpayable",
      "type": "function"
    },
    {
      "inputs": [
        {
          "internalType": "uint256",
          "name": "_val",
          "type": "uint256"
        }
      ],
      "name": "setLiquidationMultiplier",
      "outputs": [],
      "stateMutability": "nonpayable",
      "type": "function"
    },
    {
      "inputs": [
        {
          "internalType": "contract ILiquidationQueue",
          "name": "_liquidationQueue",
          "type": "address"
        }
      ],
      "name": "setLiquidationQueue",
      "outputs": [],
      "stateMutability": "nonpayable",
      "type": "function"
    },
    {
      "inputs": [
        {
          "internalType": "uint256",
          "name": "_val",
          "type": "uint256"
        }
      ],
      "name": "setLqCollateralizationRate",
      "outputs": [],
      "stateMutability": "nonpayable",
      "type": "function"
    },
    {
      "inputs": [
        {
          "internalType": "uint256",
          "name": "_val",
          "type": "uint256"
        }
      ],
      "name": "setMaxLiquidatorReward",
      "outputs": [],
      "stateMutability": "nonpayable",
      "type": "function"
    },
    {
      "inputs": [
        {
          "internalType": "uint256",
          "name": "_val",
          "type": "uint256"
        }
      ],
      "name": "setMinLiquidatorReward",
      "outputs": [],
      "stateMutability": "nonpayable",
      "type": "function"
    },
    {
      "inputs": [
        {
          "internalType": "uint256",
          "name": "_val",
          "type": "uint256"
        }
      ],
      "name": "setOrderBookLiquidationMultiplier",
      "outputs": [],
      "stateMutability": "nonpayable",
      "type": "function"
    },
    {
      "inputs": [
        {
          "internalType": "uint256",
          "name": "_val",
          "type": "uint256"
        }
      ],
      "name": "setProtocolFee",
      "outputs": [],
      "stateMutability": "nonpayable",
      "type": "function"
    },
    {
      "inputs": [],
      "name": "symbol",
      "outputs": [
        {
          "internalType": "string",
          "name": "",
          "type": "string"
        }
      ],
      "stateMutability": "view",
      "type": "function"
    },
    {
      "inputs": [],
      "name": "totalAsset",
      "outputs": [
        {
          "internalType": "uint128",
          "name": "elastic",
          "type": "uint128"
        },
        {
          "internalType": "uint128",
          "name": "base",
          "type": "uint128"
        }
      ],
      "stateMutability": "view",
      "type": "function"
    },
    {
      "inputs": [],
      "name": "totalBorrow",
      "outputs": [
        {
          "internalType": "uint128",
          "name": "elastic",
          "type": "uint128"
        },
        {
          "internalType": "uint128",
          "name": "base",
          "type": "uint128"
        }
      ],
      "stateMutability": "view",
      "type": "function"
    },
    {
      "inputs": [],
      "name": "totalBorrowCap",
      "outputs": [
        {
          "internalType": "uint256",
          "name": "",
          "type": "uint256"
        }
      ],
      "stateMutability": "view",
      "type": "function"
    },
    {
      "inputs": [],
      "name": "totalCollateralShare",
      "outputs": [
        {
          "internalType": "uint256",
          "name": "",
          "type": "uint256"
        }
      ],
      "stateMutability": "view",
      "type": "function"
    },
    {
      "inputs": [],
      "name": "totalSupply",
      "outputs": [
        {
          "internalType": "uint256",
          "name": "",
          "type": "uint256"
        }
      ],
      "stateMutability": "view",
      "type": "function"
    },
    {
      "inputs": [
        {
          "internalType": "address",
          "name": "to",
          "type": "address"
        },
        {
          "internalType": "uint256",
          "name": "amount",
          "type": "uint256"
        }
      ],
      "name": "transfer",
      "outputs": [
        {
          "internalType": "bool",
          "name": "",
          "type": "bool"
        }
      ],
      "stateMutability": "nonpayable",
      "type": "function"
    },
    {
      "inputs": [
        {
          "internalType": "address",
          "name": "from",
          "type": "address"
        },
        {
          "internalType": "address",
          "name": "to",
          "type": "address"
        },
        {
          "internalType": "uint256",
          "name": "amount",
          "type": "uint256"
        }
      ],
      "name": "transferFrom",
      "outputs": [
        {
          "internalType": "bool",
          "name": "",
          "type": "bool"
        }
      ],
      "stateMutability": "nonpayable",
      "type": "function"
    },
    {
      "inputs": [
        {
          "internalType": "address",
          "name": "newOwner",
          "type": "address"
        },
        {
          "internalType": "bool",
          "name": "direct",
          "type": "bool"
        },
        {
          "internalType": "bool",
          "name": "renounce",
          "type": "bool"
        }
      ],
      "name": "transferOwnership",
      "outputs": [],
      "stateMutability": "nonpayable",
      "type": "function"
    },
    {
      "inputs": [],
      "name": "updateExchangeRate",
      "outputs": [
        {
          "internalType": "bool",
          "name": "updated",
          "type": "bool"
        },
        {
          "internalType": "uint256",
          "name": "rate",
          "type": "uint256"
        }
      ],
      "stateMutability": "nonpayable",
      "type": "function"
    },
    {
      "inputs": [
        {
          "internalType": "address",
          "name": "_swapper",
          "type": "address"
        }
      ],
      "name": "updateLQExecutionSwapper",
      "outputs": [],
      "stateMutability": "nonpayable",
      "type": "function"
    },
    {
      "inputs": [
        {
          "internalType": "address",
          "name": "_swapper",
          "type": "address"
        }
      ],
      "name": "updateLQUsdoSwapper",
      "outputs": [],
      "stateMutability": "nonpayable",
      "type": "function"
    },
    {
      "inputs": [
        {
          "internalType": "bool",
          "name": "val",
          "type": "bool"
        }
      ],
      "name": "updatePause",
      "outputs": [],
      "stateMutability": "nonpayable",
      "type": "function"
    },
    {
      "inputs": [
        {
          "internalType": "address",
          "name": "",
          "type": "address"
        }
      ],
      "name": "userBorrowPart",
      "outputs": [
        {
          "internalType": "uint256",
          "name": "",
          "type": "uint256"
        }
      ],
      "stateMutability": "view",
      "type": "function"
    },
    {
      "inputs": [
        {
          "internalType": "address",
          "name": "",
          "type": "address"
        }
      ],
      "name": "userCollateralShare",
      "outputs": [
        {
          "internalType": "uint256",
          "name": "",
          "type": "uint256"
        }
      ],
      "stateMutability": "view",
      "type": "function"
    },
    {
      "inputs": [],
      "name": "withdrawFeesEarned",
      "outputs": [],
      "stateMutability": "nonpayable",
      "type": "function"
    },
    {
      "inputs": [
        {
          "internalType": "address",
          "name": "from",
          "type": "address"
        },
        {
          "internalType": "uint16",
          "name": "dstChainId",
          "type": "uint16"
        },
        {
          "internalType": "bytes32",
          "name": "receiver",
          "type": "bytes32"
        },
        {
          "internalType": "uint256",
          "name": "amount",
          "type": "uint256"
        },
        {
          "internalType": "bytes",
          "name": "adapterParams",
          "type": "bytes"
        },
        {
          "internalType": "address payable",
          "name": "refundAddress",
          "type": "address"
        }
      ],
      "name": "withdrawTo",
      "outputs": [],
      "stateMutability": "payable",
      "type": "function"
    },
    {
      "inputs": [],
      "name": "yieldBox",
      "outputs": [
        {
          "internalType": "contract YieldBox",
          "name": "",
          "type": "address"
        }
      ],
      "stateMutability": "view",
      "type": "function"
    },
    {
      "inputs": [
        {
          "internalType": "address",
          "name": "_user",
          "type": "address"
        },
        {
          "internalType": "uint256",
          "name": "_assetId",
          "type": "uint256"
        }
      ],
      "name": "yieldBoxShares",
      "outputs": [
        {
          "internalType": "uint256",
          "name": "",
          "type": "uint256"
        }
      ],
      "stateMutability": "view",
      "type": "function"
    },
    {
      "stateMutability": "payable",
      "type": "receive"
    }
  ],
  "transactionHash": "0x16c42db5440f78674bd055947dcdd2982ad9be792fc040699b7aa29409ccb314",
  "args": [],
  "numDeployments": 2,
  "solcInputHash": "2edf7e8d82ec8219946817241cdda818",
  "bytecode": "0x60c06040526103e8601955612710601a556032601b556201b580601c556201f018601d55620124f8601e556161a8601f556103e8602055612710602155612710602255670de0b6b3a76400006023553480156200005b57600080fd5b50600080546001600160a01b0319163390811782556040519091907f8be0079c531659141344cd1fd0a4f28419497f9722a3daafe3b4186f6b6457e0908290a34660a0819052620000ff90604080517f47e79534a245952e8b16893a336b85a3d9ea9fa8c573f3d803afb92a794692186020820152908101829052306060820152600090608001604051602081830303815290604052805190602001209050919050565b60805260805160a051615dee62000128600039600061434f015260006143800152615dee6000f3fe60806040526004361061048d5760003560e01c80637454288111610255578063bfddb11911610144578063de406577116100c1578063eec0f42e11610085578063eec0f42e14610ebd578063f4d9375314610ed3578063f8974de014610ef3578063f8ba4cff14610f13578063f9557ccb14610f28578063fa74f0b514610f5357600080fd5b8063de40657714610e0c578063e0996cb614610e2c578063e30c397814610e42578063e985e9c514610e62578063ec7eb7e914610e9d57600080fd5b8063ce8849ed11610108578063ce8849ed14610d4f578063d272bd0914610d74578063d505accf14610d94578063d8dfeb4514610db4578063dd62ed3e14610dd457600080fd5b8063bfddb11914610cb9578063c23ea21f14610cd9578063c9621f3b14610cf9578063cce19f8114610d0f578063cd0211eb14610d2f57600080fd5b806395d89b41116101d2578063abec5f1d11610196578063abec5f1d14610bd6578063ae70702e14610bf6578063b0e21e8a14610c16578063b27c0e7414610c2c578063b6b113d814610c9957600080fd5b806395d89b4114610b1857806399a9702814610b2d5780639e15e89f14610b4d578063a9059cbb14610b88578063aa7d966514610ba857600080fd5b80637ecebe00116102195780637ecebe0014610a545780638285ef4014610a815780638c5d0ed314610acc5780638da5cb5b14610ae2578063959916dc14610b0257600080fd5b806374542881146109bf57806374645ff3146109df578063787dce3d146109f45780637a4d973b14610a145780637dc0d1d014610a3457600080fd5b806340626d8b1161037c57806353aa7dcd116102f95780636587adb8116102bd5780636587adb8146108f25780636c3d8b8f146109125780636cfea4341461093257806370a0823114610952578063717186d11461097f578063735312e51461099f57600080fd5b806353aa7dcd1461085d578063579354621461087d5780635906c270146108935780635c975abb146108b35780635d5f73ef146108cd57600080fd5b80634ddf47d4116103405780634ddf47d4146107bd5780634e71e0c8146107dd5780635100b567146107f25780635224372c14610812578063529898f21461084757600080fd5b806340626d8b1461073857806344de240a1461074e578063473e3ce71461076457806348e4163e1461077a5780634d7f2a34146107a757600080fd5b806323b872dd1161040a57806334d441d0116103ce57806334d441d01461069f5780633644e515146106b557806338d52e0f146106ca5780633ba0b9a9146107025780633edb17891461071857600080fd5b806323b872dd146105f857806325be7824146106185780632a685acd14610638578063313ce56714610658578063320ec13e1461067f57600080fd5b806311a21b2c1161045157806311a21b2c1461055e57806318160ddd146105735780631c9e379b146105a25780631e7ce448146105cf5780631f9dbf04146105e557600080fd5b806302ce728f1461049957806306fdde03146104ca578063078dfbe7146104ec578063095ea7b31461050e5780630fde08e31461053e57600080fd5b3661049457005b600080fd5b3480156104a557600080fd5b506104ae610f73565b6040805192151583526020830191909152015b60405180910390f35b3480156104d657600080fd5b506104df611049565b6040516104c19190614e5a565b3480156104f857600080fd5b5061050c610507366004614e93565b611121565b005b34801561051a57600080fd5b5061052e610529366004614ede565b611239565b60405190151581526020016104c1565b34801561054a57600080fd5b5061050c610559366004614f0a565b6112a6565b34801561056a57600080fd5b5061050c611715565b34801561057f57600080fd5b50600f54600160801b90046001600160801b03165b6040519081526020016104c1565b3480156105ae57600080fd5b506105946105bd366004614f4b565b60136020526000908152604090205481565b3480156105db57600080fd5b50610594601d5481565b61050c6105f3366004614fb0565b61185f565b34801561060457600080fd5b5061052e610613366004615046565b611cf6565b34801561062457600080fd5b5061050c610633366004615087565b611f03565b34801561064457600080fd5b5061050c6106533660046150d8565b611f7e565b34801561066457600080fd5b5061066d611ff0565b60405160ff90911681526020016104c1565b34801561068b57600080fd5b5061050c61069a366004614f4b565b61200d565b3480156106ab57600080fd5b5061059460195481565b3480156106c157600080fd5b50610594612093565b3480156106d657600080fd5b50600a546106ea906001600160a01b031681565b6040516001600160a01b0390911681526020016104c1565b34801561070e57600080fd5b5061059460165481565b34801561072457600080fd5b5061050c610733366004615135565b61209d565b34801561074457600080fd5b5061059460115481565b34801561075a57600080fd5b50610594600c5481565b34801561077057600080fd5b50610594600e5481565b34801561078657600080fd5b50610594610795366004614f4b565b60146020526000908152604090205481565b3480156107b357600080fd5b50610594601f5481565b3480156107c957600080fd5b5061050c6107d836600461520f565b6120d7565b3480156107e957600080fd5b5061050c612399565b3480156107fe57600080fd5b5061050c61080d3660046150d8565b612456565b34801561081e57600080fd5b5061083261082d366004615046565b6124a8565b604080519283526020830191909152016104c1565b34801561085357600080fd5b50610594601c5481565b34801561086957600080fd5b5061050c6108783660046150d8565b61250b565b34801561088957600080fd5b5061059460215481565b34801561089f57600080fd5b5061050c6108ae366004614f4b565b61255d565b3480156108bf57600080fd5b50600d5461052e9060ff1681565b3480156108d957600080fd5b506024546106ea9061010090046001600160a01b031681565b3480156108fe57600080fd5b5061059461090d366004615087565b6125b9565b34801561091e57600080fd5b506006546106ea906001600160a01b031681565b34801561093e57600080fd5b506025546106ea906001600160a01b031681565b34801561095e57600080fd5b5061059461096d366004614f4b565b60026020526000908152604090205481565b34801561098b57600080fd5b5061050c61099a3660046150d8565b612671565b3480156109ab57600080fd5b5061050c6109ba3660046150d8565b6126ff565b3480156109cb57600080fd5b5061050c6109da366004614f4b565b612751565b3480156109eb57600080fd5b506104df612853565b348015610a0057600080fd5b5061050c610a0f3660046150d8565b6128e1565b348015610a2057600080fd5b5061050c610a2f3660046150d8565b612933565b348015610a4057600080fd5b506017546106ea906001600160a01b031681565b348015610a6057600080fd5b50610594610a6f366004614f4b565b60046020526000908152604090205481565b348015610a8d57600080fd5b50601054610aac906001600160801b0380821691600160801b90041682565b604080516001600160801b039384168152929091166020830152016104c1565b348015610ad857600080fd5b5061059460205481565b348015610aee57600080fd5b506000546106ea906001600160a01b031681565b348015610b0e57600080fd5b50610594601b5481565b348015610b2457600080fd5b506104df6129a5565b348015610b3957600080fd5b50610594610b48366004614ede565b612a69565b348015610b5957600080fd5b50610b6d610b68366004614ede565b612ac2565b604080519384526020840192909252908201526060016104c1565b348015610b9457600080fd5b5061052e610ba3366004614ede565b612c6c565b348015610bb457600080fd5b50610bc8610bc3366004615250565b612db1565b6040516104c192919061529b565b348015610be257600080fd5b5061050c610bf13660046150d8565b612f65565b348015610c0257600080fd5b50610594610c11366004614ede565b612fb7565b348015610c2257600080fd5b50610594601a5481565b348015610c3857600080fd5b50600554610c6a906001600160401b0380821691600160401b810490911690600160801b90046001600160801b031683565b604080516001600160401b0394851681529390921660208401526001600160801b0316908201526060016104c1565b348015610ca557600080fd5b50610594610cb4366004614ede565b613063565b348015610cc557600080fd5b5061050c610cd43660046150d8565b6130df565b348015610ce557600080fd5b506008546106ea906001600160a01b031681565b348015610d0557600080fd5b50610594601e5481565b348015610d1b57600080fd5b5061050c610d2a366004615046565b61310e565b348015610d3b57600080fd5b50610594610d4a366004615087565b61314d565b348015610d5b57600080fd5b50600d546106ea9061010090046001600160a01b031681565b348015610d8057600080fd5b5061050c610d8f3660046150d8565b6131a9565b348015610da057600080fd5b5061050c610daf366004615344565b6131fa565b348015610dc057600080fd5b506009546106ea906001600160a01b031681565b348015610de057600080fd5b50610594610def3660046153b5565b600360209081526000928352604080842090915290825290205481565b348015610e1857600080fd5b506007546106ea906001600160a01b031681565b348015610e3857600080fd5b5061059460225481565b348015610e4e57600080fd5b506001546106ea906001600160a01b031681565b348015610e6e57600080fd5b5061052e610e7d3660046153b5565b601560209081526000928352604080842090915290825290205460ff1681565b348015610ea957600080fd5b5061050c610eb83660046150d8565b61344d565b348015610ec957600080fd5b50610594600b5481565b348015610edf57600080fd5b50610594610eee366004615046565b61347c565b348015610eff57600080fd5b5061050c610f0e3660046153ee565b61352b565b348015610f1f57600080fd5b5061050c61361f565b348015610f3457600080fd5b50600f54610aac906001600160801b0380821691600160801b90041682565b348015610f5f57600080fd5b5061050c610f6e366004614f4b565b613bcf565b60175460405163d6d7d52560e01b815260009182916001600160a01b039091169063d6d7d52590610fa990601890600401615446565b6040805180830381600087803b158015610fc257600080fd5b505af1158015610fd6573d6000803e3d6000fd5b505050506040513d601f19601f82011682018060405250810190610ffa91906154ee565b909250905081156110415760168190556040518181527f9f9192b5edb17356c524e08d9e025c8e2f6307e6ea52fb7968faa3081f51c3c89060200160405180910390a19091565b506016549091565b600954606090611061906001600160a01b0316613caf565b600a54611076906001600160a01b0316613caf565b60175460405163355a219b60e21b81526001600160a01b039091169063d568866c906110a790601890600401615446565b60006040518083038186803b1580156110bf57600080fd5b505afa1580156110d3573d6000803e3d6000fd5b505050506040513d6000823e601f3d908101601f191682016040526110fb9190810190615532565b60405160200161110d939291906155d3565b604051602081830303815290604052905090565b6000546001600160a01b031633146111545760405162461bcd60e51b815260040161114b90615652565b60405180910390fd5b8115611217576001600160a01b03831615158061116e5750805b6111b25760405162461bcd60e51b81526020600482015260156024820152744f776e61626c653a207a65726f206164647265737360581b604482015260640161114b565b600080546040516001600160a01b03808716939216917f8be0079c531659141344cd1fd0a4f28419497f9722a3daafe3b4186f6b6457e091a3600080546001600160a01b0385166001600160a01b031991821617909155600180549091169055505050565b600180546001600160a01b0385166001600160a01b0319909116179055505050565b3360008181526003602090815260408083206001600160a01b038716808552925280832085905551919290917f8c5be1e5ebec7d5bd14f71427d1e84f3dd0314c0f7b2291e5b200ac8c7c3b925906112949086815260200190565b60405180910390a35060015b92915050565b600554600160801b90046001600160801b0316156112c6576112c6611715565b600654604051634656bfdf60e11b81526001600160a01b03848116600483015290911690638cad7fbe9060240160206040518083038186803b15801561130b57600080fd5b505afa15801561131f573d6000803e3d6000fd5b505050506040513d601f19601f820116820180604052508101906113439190615687565b6113865760405162461bcd60e51b815260206004820152601460248201527329a3a61d1024b73b30b634b21039bbb0b83832b960611b604482015260640161114b565b60065460408051622fcfcb60e31b815290516000926001600160a01b03169163017e7e58916004808301926020929190829003018186803b1580156113ca57600080fd5b505afa1580156113de573d6000803e3d6000fd5b505050506040513d601f19601f8201168201806040525081019061140291906156a4565b6001600160a01b0381166000908152600260205260408120549192509061142d908390309084613d72565b90508061143a5750505050565b6006546040805163017ae8d160e11b815290516000926001600160a01b0316916302f5d1a2916004808301926020929190829003018186803b15801561147f57600080fd5b505afa158015611493573d6000803e3d6000fd5b505050506040513d601f19601f820116820180604052508101906114b791906156c1565b9050600081600c541461166a57600754600c54604051630208d92960e11b81526001600160a01b0390921691630411b252916114fb9130918b9189906004016156da565b600060405180830381600087803b15801561151557600080fd5b505af1158015611529573d6000803e3d6000fd5b50505050856001600160a01b03166355a68e10600c54600660009054906101000a90046001600160a01b03166001600160a01b03166302f5d1a26040518163ffffffff1660e01b815260040160206040518083038186803b15801561158d57600080fd5b505afa1580156115a1573d6000803e3d6000fd5b505050506040513d601f19601f820116820180604052508101906115c591906156c1565b86888a356115d16140f4565b6040516020016115e19190615703565b6040516020818303038152906040526040518763ffffffff1660e01b815260040161161196959493929190615750565b6040805180830381600087803b15801561162a57600080fd5b505af115801561163e573d6000803e3d6000fd5b505050506040513d601f19601f820116820180604052508101906116629190615795565b5090506116d4565b600754600c54604051630208d92960e11b81526001600160a01b0390921691630411b252916116a1913091899189906004016156da565b600060405180830381600087803b1580156116bb57600080fd5b505af11580156116cf573d6000803e3d6000fd5b505050505b60408051848152602081018390527fa4fef2aee55b8c5258b39e504f59d0fb9960865de9cc847e769cd282b6769363910160405180910390a1505050505050565b61171d61361f565b60065460408051622fcfcb60e31b815290516000926001600160a01b03169163017e7e58916004808301926020929190829003018186803b15801561176157600080fd5b505afa158015611775573d6000803e3d6000fd5b505050506040513d601f19601f8201168201806040525081019061179991906156a4565b6005546001600160a01b03821660009081526002602052604081208054939450600160801b9092046001600160801b031692839291906117da9084906157cf565b90915550506040518181526001600160a01b03831690600090600080516020615d998339815191529060200160405180910390a3600580546001600160801b031690556040518181526001600160a01b038316907fbe641c3ffc44b2d6c184f023fa4ed7bda4b6ffa71e03b3c98ae0c776da1f17e79060200160405180910390a25050565b866001600160a01b03811633148015906118a457506001600160a01b038116600090815260026020908152604080832054600383528184203385529092529091205411155b156118d357604051630ca03e9b60e11b81526001600160a01b038216600482015233602482015260440161114b565b61ffff871661199157600754600c546001600160a01b0390911690638d2e63b8908a896040516001600160e01b031960e086901b16815260048101939093526001600160a01b039182166024840152166044820152606481018890526000608482015260a4016040805180830381600087803b15801561195257600080fd5b505af1158015611966573d6000803e3d6000fd5b505050506040513d601f19601f8201168201806040525081019061198a9190615795565b5050611cec565b600a546040516301ffc9a760e01b815263695ef6bf60e01b60048201526001600160a01b03909116906301ffc9a79060240160206040518083038186803b1580156119db57600080fd5b505afa925050508015611a0b575060408051601f3d908101601f19168201909252611a0891810190615687565b60015b611a1457611cec565b50600754600c54604051627eeac760e11b81526001600160a01b038b81166004830152602482018390528893169163442c159991839062fdd58e9060440160206040518083038186803b158015611a6a57600080fd5b505afa158015611a7e573d6000803e3d6000fd5b505050506040513d601f19601f82011682018060405250810190611aa291906156c1565b6040516001600160e01b031960e085901b168152600481019290925260248201526000604482015260640160206040518083038186803b158015611ae557600080fd5b505afa158015611af9573d6000803e3d6000fd5b505050506040513d601f19601f82011682018060405250810190611b1d91906156c1565b1015611b605760405162461bcd60e51b815260206004820152601260248201527153474c3a206e6f7420617661696c61626c6560701b604482015260640161114b565b600754600c546040516311a5cc7760e31b815260048101919091526001600160a01b038a81166024830152306044830152606482018890526000608483015290911690638d2e63b89060a4016040805180830381600087803b158015611bc557600080fd5b505af1158015611bd9573d6000803e3d6000fd5b505050506040513d601f19601f82011682018060405250810190611bfd9190615795565b50506000604051806060016040528060003411611c1a5730611c1c565b845b6001600160a01b0316815260200160006001600160a01b0316815260200186868080601f0160208091040260200160405190810160405280939291908181526020018383808284376000920191909152505050915250600a549091506001600160a01b031663695ef6bf34611c915747611c93565b345b308b8b8b876040518763ffffffff1660e01b8152600401611cb89594939291906157e7565b6000604051808303818588803b158015611cd157600080fd5b505af1158015611ce5573d6000803e3d6000fd5b5050505050505b5050505050505050565b60008115611ebd576001600160a01b03841660009081526002602052604090205482811015611d605760405162461bcd60e51b815260206004820152601660248201527545524332303a2062616c616e636520746f6f206c6f7760501b604482015260640161114b565b836001600160a01b0316856001600160a01b031614611ebb576001600160a01b03851660009081526003602090815260408083203384529091529020546000198114611e255783811015611df65760405162461bcd60e51b815260206004820152601860248201527f45524332303a20616c6c6f77616e636520746f6f206c6f770000000000000000604482015260640161114b565b611e008482615842565b6001600160a01b03871660009081526003602090815260408083203384529091529020555b6001600160a01b038516611e745760405162461bcd60e51b815260206004820152601660248201527545524332303a206e6f207a65726f206164647265737360501b604482015260640161114b565b611e7e8483615842565b6001600160a01b038088166000908152600260205260408082209390935590871681529081208054869290611eb49084906157cf565b9091555050505b505b826001600160a01b0316846001600160a01b0316600080516020615d9983398151915284604051611ef091815260200190565b60405180910390a35060015b9392505050565b6040516001600160a01b03808616602483015284166044820152821515606482015260848101829052611f779060019063096f9e0960e21b9060a4015b60408051601f198184030181529190526020810180516001600160e01b03166001600160e01b0319909316929092179091526141f6565b5050505050565b6000546001600160a01b03163314611fa85760405162461bcd60e51b815260040161114b90615652565b620186a08110611fca5760405162461bcd60e51b815260040161114b90615859565b6020548111611feb5760405162461bcd60e51b815260040161114b90615859565b602155565b600a54600090612008906001600160a01b0316614293565b905090565b6000546001600160a01b031633146120375760405162461bcd60e51b815260040161114b90615652565b60085460405163575939f960e01b81526001600160a01b0383811660048301529091169063575939f9906024015b600060405180830381600087803b15801561207f57600080fd5b505af1158015611f77573d6000803e3d6000fd5b600061200861434b565b6120cb6002633edb178960e01b8b8b8b8b8b8b8b8b8b604051602401611f40999897969594939291906158aa565b50505050505050505050565b60245460ff161561211d5760405162461bcd60e51b815260206004820152601060248201526f14d1d30e881a5b9a5d1a585b1a5e995960821b604482015260640161114b565b600080808080808080806121338a8c018c615979565b98509850985098509850985098509850985088602460016101000a8154816001600160a01b0302191690836001600160a01b0316021790555087602560006101000a8154816001600160a01b0302191690836001600160a01b0316021790555086600660006101000a8154816001600160a01b0302191690836001600160a01b03160217905550866001600160a01b031663de4065776040518163ffffffff1660e01b815260040160206040518083038186803b1580156121f357600080fd5b505afa158015612207573d6000803e3d6000fd5b505050506040513d601f19601f8201168201806040525081019061222b91906156a4565b600780546001600160a01b039283166001600160a01b0319918216179091556006546000805490921690831617905584161580159061227257506001600160a01b03861615155b801561228657506001600160a01b03821615155b6122c25760405162461bcd60e51b815260206004820152600d60248201526c29a3a61d103130b2103830b4b960991b604482015260640161114b565b600a80546001600160a01b038089166001600160a01b03199283161790925560098054878416908316179055600c879055600b85905560178054928516929091169190911790556005805467ffffffffffffffff19166312e687c0179055612328610f73565b50506103e8601955612710601a556032601b556201b580601c556201f018601d55620124f8601e556161a8601f558061236957670de0b6b3a764000061236b565b805b60235550506103e86020555050612710602181905560225550506024805460ff191660011790555050505050565b6001546001600160a01b03163381146123f45760405162461bcd60e51b815260206004820181905260248201527f4f776e61626c653a2063616c6c657220213d2070656e64696e67206f776e6572604482015260640161114b565b600080546040516001600160a01b03808516939216917f8be0079c531659141344cd1fd0a4f28419497f9722a3daafe3b4186f6b6457e091a3600080546001600160a01b039092166001600160a01b0319928316179055600180549091169055565b6000546001600160a01b031633146124805760405162461bcd60e51b815260040161114b90615652565b620186a08111156124a35760405162461bcd60e51b815260040161114b90615859565b601b55565b6040516001600160a01b0380851660248301528316604482015260648101829052600090819081906124e8906001906314890dcb60e21b90608401611f40565b9050808060200190518101906124fe9190615795565b9097909650945050505050565b6000546001600160a01b031633146125355760405162461bcd60e51b815260040161114b90615652565b620186a08111156125585760405162461bcd60e51b815260040161114b90615859565b601955565b6000546001600160a01b031633146125875760405162461bcd60e51b815260040161114b90615652565b60085460405163036252c960e41b81526001600160a01b038381166004830152909116906336252c9090602401612065565b600d5460009060ff16156125df5760405162461bcd60e51b815260040161114b90615a1a565b846001600160a01b038116331480159061262457506001600160a01b038116600090815260026020908152604080832054600383528184203385529092529091205411155b1561265357604051630ca03e9b60e11b81526001600160a01b038216600482015233602482015260440161114b565b61265b61361f565b612667868686866143a2565b9695505050505050565b600d5460ff16156126945760405162461bcd60e51b815260040161114b90615a1a565b6000546001600160a01b031633146126be5760405162461bcd60e51b815260040161114b90615652565b60115460408051918252602082018390527fae6e0ab3b95f0a53ff9660a390ccedcbbf1f2355dce974a9841af106fddcfaba910160405180910390a1601155565b6000546001600160a01b031633146127295760405162461bcd60e51b815260040161114b90615652565b620186a081111561274c5760405162461bcd60e51b815260040161114b90615859565b601f55565b6000546001600160a01b0316331461277b5760405162461bcd60e51b815260040161114b90615652565b806001600160a01b03166307be4daf6040518163ffffffff1660e01b815260040160206040518083038186803b1580156127b457600080fd5b505afa1580156127c8573d6000803e3d6000fd5b505050506040513d601f19601f820116820180604052508101906127ec9190615687565b6128315760405162461bcd60e51b815260206004820152601660248201527514d1d30e881314481b9bdd081a5b9a5d185b1a5e995960521b604482015260640161114b565b600880546001600160a01b0319166001600160a01b0392909216919091179055565b601880546128609061540b565b80601f016020809104026020016040519081016040528092919081815260200182805461288c9061540b565b80156128d95780601f106128ae576101008083540402835291602001916128d9565b820191906000526020600020905b8154815290600101906020018083116128bc57829003601f168201915b505050505081565b6000546001600160a01b0316331461290b5760405162461bcd60e51b815260040161114b90615652565b620186a081111561292e5760405162461bcd60e51b815260040161114b90615859565b601a55565b6000546001600160a01b0316331461295d5760405162461bcd60e51b815260040161114b90615652565b620186a0811061297f5760405162461bcd60e51b815260040161114b90615859565b60215481106129a05760405162461bcd60e51b815260040161114b90615859565b602055565b6009546060906129bd906001600160a01b03166145e5565b600a546129d2906001600160a01b03166145e5565b60175460405163634ce26b60e11b81526001600160a01b039091169063c699c4d690612a0390601890600401615446565b60006040518083038186803b158015612a1b57600080fd5b505afa158015612a2f573d6000803e3d6000fd5b505050506040513d6000823e601f3d908101601f19168201604052612a579190810190615532565b60405160200161110d93929190615a3f565b6001600160a01b03821660009081526013602052604081205481908190612a90908561462c565b6001600160a01b0387166000908152601460205260409020549193509150612ab9908383614702565b95945050505050565b6001600160a01b0382166000908152601460205260408120548190819080612af557600080600093509350935050612c65565b6001600160a01b0380871660009081526013602090815260408083205481518083019092526010546001600160801b038082168452600160801b9091041692820192909252600754600b54601f5460235494969395948c94939093169263442c1599929190612b6890620186a090615ac2565b612b729089615ad6565b612b7c9190615ad6565b6040516001600160e01b031960e085901b168152600481019290925260248201526000604482015260640160206040518083038186803b158015612bbf57600080fd5b505afa158015612bd3573d6000803e3d6000fd5b505050506040513d601f19601f82011682018060405250810190612bf791906156c1565b612c019190615ac2565b905081602001516001600160801b031682600001516001600160801b031685612c2a9190615ad6565b612c349190615ac2565b935080841015612c45576000612c4f565b612c4f8185615842565b9650612c5b838961462c565b9096509450505050505b9250925092565b600081151580612c845750336001600160a01b038416145b15612d86573360009081526002602052604090205482811015612ce25760405162461bcd60e51b815260206004820152601660248201527545524332303a2062616c616e636520746f6f206c6f7760501b604482015260640161114b565b336001600160a01b03851614612d84576001600160a01b038416612d415760405162461bcd60e51b815260206004820152601660248201527545524332303a206e6f207a65726f206164647265737360501b604482015260640161114b565b612d4b8382615842565b33600090815260026020526040808220929092556001600160a01b03861681529081208054859290612d7e9084906157cf565b90915550505b505b6040518281526001600160a01b038416903390600080516020615d9983398151915290602001611294565b606080836001600160401b03811115612dcc57612dcc61551c565b604051908082528060200260200182016040528015612df5578160200160208202803683370190505b509150836001600160401b03811115612e1057612e1061551c565b604051908082528060200260200182016040528015612e4357816020015b6060815260200190600190039081612e2e5790505b50905060005b84811015612f5c5760008030888885818110612e6757612e67615af5565b9050602002810190612e799190615b0b565b604051612e87929190615b51565b600060405180830381855af49150503d8060008114612ec2576040519150601f19603f3d011682016040523d82523d6000602084013e612ec7565b606091505b50915091508180612ed6575085155b612edf826147b6565b90612efd5760405162461bcd60e51b815260040161114b9190614e5a565b5081858481518110612f1157612f11615af5565b91151560209283029190910190910152612f2a816147b6565b848481518110612f3c57612f3c615af5565b602002602001018190525050508080612f5490615b61565b915050612e49565b50935093915050565b6000546001600160a01b03163314612f8f5760405162461bcd60e51b815260040161114b90615652565b620186a0811115612fb25760405162461bcd60e51b815260040161114b90615859565b601e55565b6001600160a01b038281166000818152601260209081526040808320868452909152808220546007549151627eeac760e11b81526004810194909452602484018690529193919291169062fdd58e9060440160206040518083038186803b15801561302157600080fd5b505afa158015613035573d6000803e3d6000fd5b505050506040513d601f19601f8201168201806040525081019061305991906156c1565b611efc91906157cf565b600061306f838361480b565b1561307c575060006112a0565b6000806130898585612ac2565b6001600160a01b0388166000908152601460205260409020549294509250508181106130b95792506112a0915050565b620186a0816022546130cb9190615ad6565b6130d59190615ac2565b61266790846157cf565b6000546001600160a01b031633146131095760405162461bcd60e51b815260040161114b90615652565b601d55565b6040516001600160a01b03808516602483015283166044820152606481018290526131479060019063cce19f8160e01b90608401611f40565b50505050565b6040516001600160a01b0380861660248301528416604482015282151560648201526084810182905260009081906131939060019063cd0211eb60e01b9060a401611f40565b90508080602001905181019061266791906156c1565b6000546001600160a01b031633146131d35760405162461bcd60e51b815260040161114b90615652565b620186a081106131f55760405162461bcd60e51b815260040161114b90615859565b602255565b6001600160a01b0387166132505760405162461bcd60e51b815260206004820152601860248201527f45524332303a204f776e65722063616e6e6f7420626520300000000000000000604482015260640161114b565b8342106132905760405162461bcd60e51b815260206004820152600e60248201526d115490cc8c0e88115e1c1a5c995960921b604482015260640161114b565b6001600160a01b0387166000818152600460205260408120805460019261333a927f6e71edae12b1b97f4d1f60370fef10105fa2faae0126114a169c64845d6126c9928d928d928d92916132e383615b61565b909155506040805160208101969096526001600160a01b0394851690860152929091166060840152608083015260a082015260c0810188905260e00160405160208183030381529060405280519060200120614971565b6040805160008152602081018083529290925260ff871690820152606081018590526080810184905260a0016020604051602081039080840390855afa158015613388573d6000803e3d6000fd5b505050602060405103516001600160a01b0316146133e85760405162461bcd60e51b815260206004820152601860248201527f45524332303a20496e76616c6964205369676e61747572650000000000000000604482015260640161114b565b6001600160a01b038781166000818152600360209081526040808320948b168084529482529182902089905590518881527f8c5be1e5ebec7d5bd14f71427d1e84f3dd0314c0f7b2291e5b200ac8c7c3b925910160405180910390a350505050505050565b6000546001600160a01b031633146134775760405162461bcd60e51b815260040161114b90615652565b601c55565b600d5460009060ff16156134a25760405162461bcd60e51b815260040161114b90615a1a565b836001600160a01b03811633148015906134e757506001600160a01b038116600090815260026020908152604080832054600383528184203385529092529091205411155b1561351657604051630ca03e9b60e11b81526001600160a01b038216600482015233602482015260440161114b565b61351e61361f565b612ab98585856001613d72565b600d5461010090046001600160a01b0316331461357e5760405162461bcd60e51b815260206004820152601160248201527014d1d30e881d5b985d5d1a1bdc9a5e9959607a1b604482015260640161114b565b600d5460ff16151581151514156135c95760405162461bcd60e51b815260206004820152600f60248201526e53474c3a2073616d6520737461746560881b604482015260640161114b565b600d546040805160ff9092161515825282151560208301527f9c13c5f6c628c1c82eb2b3fd8714da5c2857dbd0ad8ab6b2074abcf81015d396910160405180910390a1600d805460ff1916911515919091179055565b604080516060810182526005546001600160401b038082168352600160401b82041660208301819052600160801b9091046001600160801b0316928201929092529060009061366e9042615842565b905080613679575050565b6001600160401b034216602080840191909152604080518082019091526010546001600160801b038082168352600160801b90910416918101829052906137745782516001600160401b03166312e687c014613721576312e687c0808452604080516000808252602082018190529181019290925260608201527f33af5ce86e8438eff54589f85332916444457dfa8685493fbd579b809097026b9060800160405180910390a15b505080516005805460208401516040909401516001600160801b03908116600160801b026001600160401b03958616600160401b026001600160801b031990931695909416949094171792909216179055565b60408051808201909152600f546001600160801b038082168352600160801b909104811660208301528451835160009384939092670de0b6b3a76400009288926137c8926001600160401b03169116615ad6565b6137d29190615ad6565b6137dc9190615ac2565b925082846000018181516137f09190615b7c565b6001600160801b039081169091528551600754600c54855160405163442c159960e01b8152600481019290925284166024820152600060448201819052945091909216916001600160a01b03169063442c15999060640160206040518083038186803b15801561385f57600080fd5b505afa158015613873573d6000803e3d6000fd5b505050506040513d601f19601f8201168201806040525081019061389791906156c1565b6138a191906157cf565b90506000620186a0601a54866138b79190615ad6565b6138c19190615ac2565b90508183602001516001600160801b0316826138dd9190615ad6565b6138e79190615ac2565b935083886040018181516138fb9190615b7c565b6001600160801b03169052506020830151613917908590615b7c565b600f80546001600160801b03908116600160801b9382168402179091558751602089015190821691169091028117601055600090839061396090670de0b6b3a764000090615ad6565b61396a9190615ac2565b90506709b6e64a8ec60000811015613a3b5760006709b6e64a8ec60000670de0b6b3a764000061399a8483615842565b6139a49190615ad6565b6139ae9190615ac2565b90506000896139bd8380615ad6565b6139c79190615ad6565b6139e0906b0a9456c7acbaf3a129576cd1602b1b6157cf565b9050806b0a9456c7acbaf3a129576cd1602b1b8c600001516001600160401b0316613a0b9190615ad6565b613a159190615ac2565b6001600160401b0316808c526304b9a1f01115613a34576304b9a1f08b525b5050613b24565b670b1a2bc2ec500000811115613b24576000613a67670b1a2bc2ec500000670de0b6b3a7640000615842565b670de0b6b3a7640000613a82670b1a2bc2ec50000085615842565b613a8c9190615ad6565b613a969190615ac2565b9050600089613aa58380615ad6565b613aaf9190615ad6565b613ac8906b0a9456c7acbaf3a129576cd1602b1b6157cf565b905060006b0a9456c7acbaf3a129576cd1602b1b828d600001516001600160401b0316613af59190615ad6565b613aff9190615ac2565b90506449d4824600811115613b1657506449d48246005b6001600160401b03168b5250505b885160408051888152602081018890526001600160401b039092168282015260608201839052517f33af5ce86e8438eff54589f85332916444457dfa8685493fbd579b809097026b9181900360800190a1505086516005805460208a01516040909a01516001600160801b03908116600160801b026001600160401b039b8c16600160401b026001600160801b03199093169b9094169a909a17179890981617909655505050505050565b6000546001600160a01b03163314613bf95760405162461bcd60e51b815260040161114b90615652565b6001600160a01b038116613c485760405162461bcd60e51b815260206004820152601660248201527514d1d30e881859191c995cdcc81b9bdd081d985b1a5960521b604482015260640161114b565b600d546040516001600160a01b0380841692610100900416907f5a62d22209e370e38eea92cfddcd228e656e6ec139243392a760a7769f5877fd90600090a3600d80546001600160a01b0390921661010002610100600160a81b0319909216919091179055565b60408051600481526024810182526020810180516001600160e01b03166306fdde0360e01b179052905160609160009182916001600160a01b03861691613cf69190615ba7565b600060405180830381855afa9150503d8060008114613d31576040519150601f19603f3d011682016040523d82523d6000602084013e613d36565b606091505b509150915081613d6157604051806040016040528060038152602001623f3f3f60e81b815250613d6a565b613d6a816149c6565b949350505050565b600f54600090600160801b90046001600160801b0316613d9457506000613d6a565b604080518082018252600f546001600160801b038082168352600160801b90910481166020830152600754600c546010549451638eb22cdd60e01b815260048101919091529390911660248401526001604484015290916000916001600160a01b031690638eb22cdd9060640160206040518083038186803b158015613e1957600080fd5b505afa158015613e2d573d6000803e3d6000fd5b505050506040513d601f19601f82011682018060405250810190613e5191906156c1565b8251613e6691906001600160801b03166157cf565b60208301519091506001600160801b0316613e818287615ad6565b613e8b9190615ac2565b6001600160a01b038816600090815260026020526040812080549295508792909190613eb8908490615842565b90915550506040518581526000906001600160a01b03891690600080516020615d998339815191529060200160405180910390a38282600001818151613efe9190615bc3565b6001600160801b0316905250602082018051869190613f1e908390615bc3565b6001600160801b0390811690915260208401516103e8911610159050613f775760405162461bcd60e51b815260206004820152600e60248201526d14d1d30e881b5a5b881b1a5b5a5d60921b604482015260640161114b565b815160208301516001600160801b03908116600160801b02911617600f556040516001600160a01b0380881691908916907f6e853a5fd6b51d773691f542ebac8513c9992a51380d4c342031056a6411422890613fe09087908a90918252602082015260400190565b60405180910390a3600754600c54604051630208d92960e11b81526001600160a01b0390921691630411b2529161401f9130918b9189906004016156da565b600060405180830381600087803b15801561403957600080fd5b505af115801561404d573d6000803e3d6000fd5b5050505083156140ea576001600160a01b0387166000908152601260209081526040808320600c5484529091529020548311156140af576001600160a01b0387166000908152601260209081526040808320600c5484529091528120556140ea565b6001600160a01b0387166000908152601260209081526040808320600c548452909152812080548592906140e4908490615842565b90915550505b5050949350505050565b60408051600280825260608083018452926020830190803683375050600a5482519293506001600160a01b03169183915060009061413457614134615af5565b6001600160a01b03928316602091820292909201810191909152600654604080516325abd85f60e11b815290519190931692634b57b0be926004808301939192829003018186803b15801561418857600080fd5b505afa15801561419c573d6000803e3d6000fd5b505050506040513d601f19601f820116820180604052508101906141c091906156a4565b816001815181106141d3576141d3615af5565b60200260200101906001600160a01b031690816001600160a01b03168152505090565b60606001600061420585614b44565b9050806001600160a01b03168460405161421f9190615ba7565b600060405180830381855af49150503d806000811461425a576040519150601f19603f3d011682016040523d82523d6000602084013e61425f565b606091505b50935091508161428b57614272836147b6565b60405162461bcd60e51b815260040161114b9190614e5a565b505092915050565b60408051600481526024810182526020810180516001600160e01b031663313ce56760e01b1790529051600091829182916001600160a01b038616916142d99190615ba7565b600060405180830381855afa9150503d8060008114614314576040519150601f19603f3d011682016040523d82523d6000602084013e614319565b606091505b509150915081801561432c575080516020145b614337576012613d6a565b80806020019051810190613d6a9190615beb565b60007f0000000000000000000000000000000000000000000000000000000000000000461461437d5761200846614bec565b507f000000000000000000000000000000000000000000000000000000000000000090565b604080518082018252600f546001600160801b03808216808452600160801b90920481166020840152600754600c546010549551638eb22cdd60e01b815260048101919091529490911660248501526001604485015260009384916001600160a01b031690638eb22cdd9060640160206040518083038186803b15801561442857600080fd5b505afa15801561443c573d6000803e3d6000fd5b505050506040513d601f19601f8201168201806040525081019061446091906156c1565b835161447591906001600160801b03166157cf565b905080156144a6578083602001516001600160801b0316866144979190615ad6565b6144a19190615ac2565b6144a8565b845b93506103e88484602001516144bd9190615b7c565b6001600160801b031610156144d85760009350505050613d6a565b6144e3838686614c2d565b80516020918201516001600160801b03908116600160801b02911617600f556001600160a01b0388166000908152600290915260408120805486929061452a9084906157cf565b90915550506040518481526001600160a01b03881690600090600080516020615d998339815191529060200160405180910390a361456d88600c5487858a614c87565b866001600160a01b031686614582578861458f565b6007546001600160a01b03165b6001600160a01b03167f30a8c4f9ab5af7e1309ca87c32377d1a83366c5990472dbf9d262450eae14e3887876040516145d2929190918252602082015260400190565b60405180910390a3505050949350505050565b60408051600481526024810182526020810180516001600160e01b03166395d89b4160e01b179052905160609160009182916001600160a01b03861691613cf69190615ba7565b600754600b5460405163442c159960e01b815260048101919091526024810184905260006044820181905291829182916001600160a01b03169063442c15999060640160206040518083038186803b15801561468757600080fd5b505afa15801561469b573d6000803e3d6000fd5b505050506040513d601f19601f820116820180604052508101906146bf91906156c1565b905083602354826146d09190615ad6565b6146da9190615ac2565b9150620186a0601e54836146ee9190615ad6565b6146f89190615ac2565b9250509250929050565b60008361471157506000611efc565b8261471e57506000611efc565b8284101561472e57506000611efc565b81841061473e5750602054611efc565b600061474a8484615842565b620186a06147588688615842565b6147629190615ad6565b61476c9190615ac2565b905060006021546020546147809190615c08565b90506000602154620186a084846147979190615c47565b6147a19190615ccc565b6147ab9190615cfa565b979650505050505050565b60606044825110156147f157505060408051808201909152601381527253474c3a206e6f2072657475726e206461746160681b602082015290565b600482019150818060200190518101906112a09190615532565b6001600160a01b038216600090815260146020526040812054806148335760019150506112a0565b6001600160a01b0384166000908152601360205260409020548061485c576000925050506112a0565b604080518082019091526010546001600160801b03808216808452600160801b90920416602083018190529086906148949086615ad6565b61489e9190615ad6565b6148a89190615ac2565b600754600b54601e546023546001600160a01b039093169263442c15999291906148d690620186a090615ac2565b6148e09088615ad6565b6148ea9190615ad6565b6040516001600160e01b031960e085901b168152600481019290925260248201526000604482015260640160206040518083038186803b15801561492d57600080fd5b505afa158015614941573d6000803e3d6000fd5b505050506040513d601f19601f8201168201806040525081019061496591906156c1565b10159695505050505050565b600060405180604001604052806002815260200161190160f01b81525061499661434b565b836040516020016149a993929190615d3b565b604051602081830303815290604052805190602001209050919050565b606060408251106149e557818060200190518101906112a09190615532565b815160201415614b255760005b60208160ff16108015614a275750828160ff1681518110614a1557614a15615af5565b01602001516001600160f81b03191615155b15614a3e5780614a3681615d62565b9150506149f2565b60008160ff166001600160401b03811115614a5b57614a5b61551c565b6040519080825280601f01601f191660200182016040528015614a85576020820181803683370190505b509050600091505b60208260ff16108015614ac25750838260ff1681518110614ab057614ab0615af5565b01602001516001600160f81b03191615155b15611efc57838260ff1681518110614adc57614adc615af5565b602001015160f81c60f81b818360ff1681518110614afc57614afc615af5565b60200101906001600160f81b031916908160001a90535081614b1d81615d62565b925050614a8d565b50506040805180820190915260038152623f3f3f60e81b602082015290565b6000806001836002811115614b5b57614b5b615d82565b1415614b7357506025546001600160a01b0316614ba0565b6002836002811115614b8757614b87615d82565b1415614ba0575060245461010090046001600160a01b03165b6001600160a01b0381166112a05760405162461bcd60e51b815260206004820152601360248201527214d1d30e881b5bd91d5b19481b9bdd081cd95d606a1b604482015260640161114b565b604080517f47e79534a245952e8b16893a336b85a3d9ea9fa8c573f3d803afb92a7946921860208201529081018290523060608201526000906080016149a9565b60408051808201909152600080825260208201528284600001818151614c539190615b7c565b6001600160801b0316905250602084018051839190614c73908390615b7c565b6001600160801b0316905250929392505050565b6001600160a01b038516600090815260126020908152604080832087845290915281208054859290614cba9084906157cf565b90915550508015614d9357600754604051627eeac760e11b81523060048201526024810186905283916001600160a01b03169062fdd58e9060440160206040518083038186803b158015614d0d57600080fd5b505afa158015614d21573d6000803e3d6000fd5b505050506040513d601f19601f82011682018060405250810190614d4591906156c1565b614d4f9190615842565b831115614d8e5760405162461bcd60e51b815260206004820152600d60248201526c0a68e987440e8dede40daeac6d609b1b604482015260640161114b565b611f77565b600754604051630208d92960e11b81526001600160a01b0390911690630411b25290614dc99088903090899089906004016156da565b600060405180830381600087803b158015614de357600080fd5b505af1158015614df7573d6000803e3d6000fd5b505050505050505050565b60005b83811015614e1d578181015183820152602001614e05565b838111156131475750506000910152565b60008151808452614e46816020860160208601614e02565b601f01601f19169290920160200192915050565b602081526000611efc6020830184614e2e565b6001600160a01b0381168114614e8257600080fd5b50565b8015158114614e8257600080fd5b600080600060608486031215614ea857600080fd5b8335614eb381614e6d565b92506020840135614ec381614e85565b91506040840135614ed381614e85565b809150509250925092565b60008060408385031215614ef157600080fd5b8235614efc81614e6d565b946020939093013593505050565b6000808284036040811215614f1e57600080fd5b8335614f2981614e6d565b92506020601f1982011215614f3d57600080fd5b506020830190509250929050565b600060208284031215614f5d57600080fd5b8135611efc81614e6d565b60008083601f840112614f7a57600080fd5b5081356001600160401b03811115614f9157600080fd5b602083019150836020828501011115614fa957600080fd5b9250929050565b600080600080600080600060c0888a031215614fcb57600080fd5b8735614fd681614e6d565b9650602088013561ffff81168114614fed57600080fd5b9550604088013594506060880135935060808801356001600160401b0381111561501657600080fd5b6150228a828b01614f68565b90945092505060a088013561503681614e6d565b8091505092959891949750929550565b60008060006060848603121561505b57600080fd5b833561506681614e6d565b9250602084013561507681614e6d565b929592945050506040919091013590565b6000806000806080858703121561509d57600080fd5b84356150a881614e6d565b935060208501356150b881614e6d565b925060408501356150c881614e85565b9396929550929360600135925050565b6000602082840312156150ea57600080fd5b5035919050565b60008083601f84011261510357600080fd5b5081356001600160401b0381111561511a57600080fd5b6020830191508360208260051b8501011115614fa957600080fd5b600080600080600080600080600060a08a8c03121561515357600080fd5b89356001600160401b038082111561516a57600080fd5b6151768d838e016150f1565b909b50995060208c013591508082111561518f57600080fd5b61519b8d838e016150f1565b909950975060408c013591506151b082614e6d565b90955060608b013590808211156151c657600080fd5b6151d28d838e01614f68565b909650945060808c01359150808211156151eb57600080fd5b506151f88c828d01614f68565b915080935050809150509295985092959850929598565b6000806020838503121561522257600080fd5b82356001600160401b0381111561523857600080fd5b61524485828601614f68565b90969095509350505050565b60008060006040848603121561526557600080fd5b83356001600160401b0381111561527b57600080fd5b615287868287016150f1565b9094509250506020840135614ed381614e85565b604080825283519082018190526000906020906060840190828701845b828110156152d65781511515845292840192908401906001016152b8565b50505083810382850152845180825282820190600581901b8301840187850160005b8381101561532657601f19868403018552615314838351614e2e565b948701949250908601906001016152f8565b50909998505050505050505050565b60ff81168114614e8257600080fd5b600080600080600080600060e0888a03121561535f57600080fd5b873561536a81614e6d565b9650602088013561537a81614e6d565b95506040880135945060608801359350608088013561539881615335565b9699959850939692959460a0840135945060c09093013592915050565b600080604083850312156153c857600080fd5b82356153d381614e6d565b915060208301356153e381614e6d565b809150509250929050565b60006020828403121561540057600080fd5b8135611efc81614e85565b600181811c9082168061541f57607f821691505b6020821081141561544057634e487b7160e01b600052602260045260246000fd5b50919050565b600060208083526000845481600182811c91508083168061546857607f831692505b85831081141561548657634e487b7160e01b85526022600452602485fd5b8786018381526020018180156154a357600181146154b4576154df565b60ff198616825287820196506154df565b60008b81526020902060005b868110156154d9578154848201529085019089016154c0565b83019750505b50949998505050505050505050565b6000806040838503121561550157600080fd5b825161550c81614e85565b6020939093015192949293505050565b634e487b7160e01b600052604160045260246000fd5b60006020828403121561554457600080fd5b81516001600160401b038082111561555b57600080fd5b818401915084601f83011261556f57600080fd5b8151818111156155815761558161551c565b604051601f8201601f19908116603f011681019083821181831017156155a9576155a961551c565b816040528281528760208487010111156155c257600080fd5b6147ab836020830160208801614e02565b7302a30b834b7b1b09029b4b733bab630b934ba3c960651b815260008451615602816014850160208901614e02565b602f60f81b6014918401918201528451615623816015840160208901614e02565b602d60f81b601592909101918201528351615645816016840160208801614e02565b0160160195945050505050565b6020808252818101527f4f776e61626c653a2063616c6c6572206973206e6f7420746865206f776e6572604082015260600190565b60006020828403121561569957600080fd5b8151611efc81614e85565b6000602082840312156156b657600080fd5b8151611efc81614e6d565b6000602082840312156156d357600080fd5b5051919050565b6001600160a01b0394851681529290931660208301526040820152606081019190915260800190565b6020808252825182820181905260009190848201906040850190845b818110156157445783516001600160a01b03168352928401929184019160010161571f565b50909695505050505050565b86815285602082015284604082015260018060a01b038416606082015282608082015260c060a0820152600061578960c0830184614e2e565b98975050505050505050565b600080604083850312156157a857600080fd5b505080516020909101519092909150565b634e487b7160e01b600052601160045260246000fd5b600082198211156157e2576157e26157b9565b500190565b600060018060a01b03808816835261ffff8716602084015285604084015284606084015260a060808401528084511660a08401528060208501511660c0840152506040830151606060e0840152615789610100840182614e2e565b600082821015615854576158546157b9565b500390565b6020808252600e908201526d14d1d30e881b9bdd081d985b1a5960921b604082015260600190565b81835281816020850137506000828201602090810191909152601f909101601f19169091010190565b60a0808252810189905260008a60c08301825b8c8110156158ed5782356158d081614e6d565b6001600160a01b03168252602092830192909101906001016158bd565b5083810360208501528981526001600160fb1b038a111561590d57600080fd5b8960051b9150818b6020830137818101915050602081016000815261593d604085018a6001600160a01b03169052565b602084830301606085015261595381888a615881565b9150508281036080840152615969818587615881565b9c9b505050505050505050505050565b60008060008060008060008060006101208a8c03121561599857600080fd5b89356159a381614e6d565b985060208a01356159b381614e6d565b975060408a01356159c381614e6d565b965060608a01356159d381614e6d565b955060808a0135945060a08a01356159ea81614e6d565b935060c08a0135925060e08a0135615a0181614e6d565b809250506101008a013590509295985092959850929598565b6020808252600b908201526a14d1d30e881c185d5cd95960aa1b604082015260600190565b61746d60f01b815260008451615a5c816002850160208901614e02565b602f60f81b6002918401918201528451615a7d816003840160208901614e02565b602d60f81b600392909101918201528351615a9f816004840160208801614e02565b0160040195945050505050565b634e487b7160e01b600052601260045260246000fd5b600082615ad157615ad1615aac565b500490565b6000816000190483118215151615615af057615af06157b9565b500290565b634e487b7160e01b600052603260045260246000fd5b6000808335601e19843603018112615b2257600080fd5b8301803591506001600160401b03821115615b3c57600080fd5b602001915036819003821315614fa957600080fd5b8183823760009101908152919050565b6000600019821415615b7557615b756157b9565b5060010190565b60006001600160801b03808316818516808303821115615b9e57615b9e6157b9565b01949350505050565b60008251615bb9818460208701614e02565b9190910192915050565b60006001600160801b0383811690831681811015615be357615be36157b9565b039392505050565b600060208284031215615bfd57600080fd5b8151611efc81615335565b60008083128015600160ff1b850184121615615c2657615c266157b9565b6001600160ff1b0384018313811615615c4157615c416157b9565b50500390565b60006001600160ff1b0381841382841380821686840486111615615c6d57615c6d6157b9565b600160ff1b6000871282811687830589121615615c8c57615c8c6157b9565b60008712925087820587128484161615615ca857615ca86157b9565b87850587128184161615615cbe57615cbe6157b9565b505050929093029392505050565b600082615cdb57615cdb615aac565b600160ff1b821460001984141615615cf557615cf56157b9565b500590565b600080821280156001600160ff1b0384900385131615615d1c57615d1c6157b9565b600160ff1b8390038412811615615d3557615d356157b9565b50500190565b60008451615d4d818460208901614e02565b91909101928352506020820152604001919050565b600060ff821660ff811415615d7957615d796157b9565b60010192915050565b634e487b7160e01b600052602160045260246000fdfeddf252ad1be2c89b69c2b068fc378daa952ba7f163c4a11628f55a4df523b3efa2646970667358221220cf70fdf3b1c8a622aef0c4e422bd3d3e6064124c012e14abb5785dd4e147a54264736f6c63430008090033",
  "devdoc": {
    "kind": "dev",
    "methods": {
      "addAsset(address,address,bool,uint256)": {
        "params": {
          "from": "Address to add asset from.",
          "share": "The amount of shares to add.",
          "skim": "True if the amount should be skimmed from the deposit balance of msg.sender. False if tokens from msg.sender in `yieldBox` should be transferred.",
          "to": "The address of the user to receive the assets."
        },
        "returns": {
          "fraction": "Total fractions added."
        }
      },
      "addCollateral(address,address,bool,uint256)": {
        "params": {
          "from": "Account to transfer shares from.",
          "share": "The amount of shares to add for `to`.",
          "skim": "True if the amount should be skimmed from the deposit balance of msg.sender. False if tokens from msg.sender in `yieldBox` should be transferred.",
          "to": "The receiver of the tokens."
        }
      },
      "approve(address,uint256)": {
        "params": {
          "amount": "The maximum collective amount that `spender` can draw.",
          "spender": "Address of the party that can draw from msg.sender's account."
        },
        "returns": {
          "_0": "(bool) Returns True if approved."
        }
      },
      "borrow(address,address,uint256)": {
        "params": {
          "amount": "Amount to borrow.",
          "from": "Account to borrow for.",
          "to": "The receiver of borrowed tokens."
        },
        "returns": {
          "part": "Total part of the debt held by borrowers.",
          "share": "Total amount in shares borrowed."
        }
      },
      "computeTVLInfo(address,uint256)": {
        "details": "We use a `CLOSED_COLLATERIZATION_RATE` that is a safety buffer when making the user solvent again,      To prevent from being liquidated. This function is valid only if user is not solvent by `_isSolvent()`.",
        "params": {
          "_exchangeRate": "The exchange rate asset/collateral.",
          "user": "The user to check solvency."
        },
        "returns": {
          "amountToSolvency": "The amount of collateral to be solvent."
        }
      },
      "execute(bytes[],bool)": {
        "params": {
          "calls": "An array encoded call data.",
          "revertOnFail": "If True then reverts after a failed call and stops doing further calls."
        }
      },
      "liquidate(address[],uint256[],address,bytes,bytes)": {
        "details": "Will call `closedLiquidation()` if not LQ exists or no LQ bid avail exists. Otherwise use LQ.",
        "params": {
          "collateralToAssetSwapData": "Extra swap data        Ignore for `orderBookLiquidation()`",
          "maxBorrowParts": "A one-to-one mapping to `users`, contains maximum (partial) borrow amounts (to liquidate) of the respective user.        Ignore for `orderBookLiquidation()`",
          "swapper": "Contract address of the `MultiSwapper` implementation. See `setSwapper`.        Ignore for `orderBookLiquidation()`",
          "usdoToBorrowedSwapData": "Extra swap data        Ignore for `closedLiquidation()`",
          "users": "An array of user addresses."
        }
      },
      "permit(address,address,uint256,uint256,uint8,bytes32,bytes32)": {
        "params": {
          "deadline": "This permit must be redeemed before this deadline (UTC timestamp in seconds).",
          "owner_": "Address of the owner.",
          "spender": "The address of the spender that gets approved to draw from `owner_`.",
          "value": "The maximum collective amount that `spender` can draw."
        }
      },
      "removeAsset(address,address,uint256)": {
        "params": {
          "fraction": "The amount/fraction of assets held to remove.",
          "from": "Account to debit Assets from.",
          "to": "The user that receives the removed assets."
        },
        "returns": {
          "share": "The amount of shares transferred to `to`."
        }
      },
      "removeCollateral(address,address,uint256)": {
        "params": {
          "from": "Account to debit collateral from.",
          "share": "Amount of shares to remove.",
          "to": "The receiver of the shares."
        }
      },
      "repay(address,address,bool,uint256)": {
        "params": {
          "from": "Address to repay from.",
          "part": "The amount to repay. See `userBorrowPart`.",
          "skim": "True if the amount should be skimmed from the deposit balance of msg.sender. False if tokens from msg.sender in `yieldBox` should be transferred.",
          "to": "Address of the user this payment should go."
        },
        "returns": {
          "amount": "The total amount repayed."
        }
      },
      "setBorrowOpeningFee(uint256)": {
        "details": "can only be called by the owner",
        "params": {
          "_val": "the new value"
        }
      },
      "setCallerFee(uint256)": {
        "details": "can only be called by the owner",
        "params": {
          "_val": "the new value"
        }
      },
      "setClosedCollateralizationRate(uint256)": {
        "details": "can only be called by the owner",
        "params": {
          "_val": "the new value"
        }
      },
      "setConservator(address)": {
        "details": "Conservator can pause the contract",
        "params": {
          "_conservator": "The new address"
        }
      },
      "setLiquidationBonusAmount(uint256)": {
        "params": {
          "_val": "the new value"
        }
      },
      "setLiquidationMultiplier(uint256)": {
        "details": "can only be called by the owner",
        "params": {
          "_val": "the new value"
        }
      },
      "setLiquidationQueue(address)": {
        "params": {
          "_liquidationQueue": "The address of the new LiquidationQueue contract."
        }
      },
      "setLqCollateralizationRate(uint256)": {
        "details": "can only be called by the owner",
        "params": {
          "_val": "the new value"
        }
      },
      "setMaxLiquidatorReward(uint256)": {
        "params": {
          "_val": "the new value"
        }
      },
      "setMinLiquidatorReward(uint256)": {
        "params": {
          "_val": "the new value"
        }
      },
      "setOrderBookLiquidationMultiplier(uint256)": {
        "details": "can only be called by the owner",
        "params": {
          "_val": "the new value"
        }
      },
      "setProtocolFee(uint256)": {
        "details": "can only be called by the owner",
        "params": {
          "_val": "the new value"
        }
      },
      "transfer(address,uint256)": {
        "params": {
          "amount": "of the tokens to move.",
          "to": "The address to move the tokens."
        },
        "returns": {
          "_0": "(bool) Returns True if succeeded."
        }
      },
      "transferFrom(address,address,uint256)": {
        "params": {
          "amount": "The token amount to move.",
          "from": "Address to draw tokens from.",
          "to": "The address to move the tokens."
        },
        "returns": {
          "_0": "(bool) Returns True if succeeded."
        }
      },
      "transferOwnership(address,bool,bool)": {
        "params": {
          "direct": "True if `newOwner` should be set immediately. False if `newOwner` needs to use `claimOwnership`.",
          "newOwner": "Address of the new owner.",
          "renounce": "Allows the `newOwner` to be `address(0)` if `direct` and `renounce` is True. Has no effect otherwise."
        }
      },
      "updateExchangeRate()": {
        "returns": {
          "rate": "The new exchange rate.",
          "updated": "True if `exchangeRate` was updated."
        }
      },
      "updatePause(bool)": {
        "params": {
          "val": "the new value"
        }
      },
      "withdrawTo(address,uint16,bytes32,uint256,bytes,address)": {
        "details": "if `dstChainId` is 0, withdraw happens on the same chain"
      },
      "yieldBoxShares(address,uint256)": {
        "params": {
          "_assetId": "The asset id to check shares for",
          "_user": "The user to check shares for"
        }
      }
    },
    "title": "Tapioca market",
    "version": 1
  },
  "userdoc": {
    "kind": "user",
    "methods": {
      "accrue()": {
        "notice": "Accrues the interest on the borrowed tokens and handles the accumulation of fees."
      },
      "addAsset(address,address,bool,uint256)": {
        "notice": "Adds assets to the lending pair."
      },
      "addCollateral(address,address,bool,uint256)": {
        "notice": "Adds `collateral` from msg.sender to the account `to`."
      },
      "allowance(address,address)": {
        "notice": "owner > spender > allowance mapping."
      },
      "approve(address,uint256)": {
        "notice": "Approves `amount` from sender to be spend by `spender`."
      },
      "balanceOf(address)": {
        "notice": "owner > balance mapping."
      },
      "borrow(address,address,uint256)": {
        "notice": "Sender borrows `amount` and transfers it to `to`."
      },
      "claimOwnership()": {
        "notice": "Needs to be called by `pendingOwner` to claim ownership."
      },
      "computeClosingFactor(address,uint256)": {
        "notice": "Return the maximum liquidatable amount for user"
      },
      "computeTVLInfo(address,uint256)": {
        "notice": "Return the amount of collateral for a `user` to be solvent, min TVL and max TVL. Returns 0 if user already solvent."
      },
      "depositFeesToYieldBox(address,(uint256))": {
        "notice": "Withdraw the balance of `feeTo`, swap asset into TAP and deposit it to yieldBox of `feeTo`"
      },
      "exchangeRate()": {
        "notice": "Exchange and interest rate tracking. This is 'cached' here because calls to Oracles can be very expensive. Asset -> collateral = assetAmount * exchangeRate."
      },
      "execute(bytes[],bool)": {
        "notice": "Allows batched call to Singularity."
      },
      "init(bytes)": {
        "notice": "The init function that acts as a constructor"
      },
      "lendingBorrowingModule()": {
        "notice": "returns the lending module"
      },
      "liquidate(address[],uint256[],address,bytes,bytes)": {
        "notice": "Entry point for liquidations."
      },
      "liquidationModule()": {
        "notice": "returns the liquidation module"
      },
      "nonces(address)": {
        "notice": "owner > nonce mapping. Used in `permit`."
      },
      "permit(address,address,uint256,uint256,uint8,bytes32,bytes32)": {
        "notice": "Approves `value` from `owner_` to be spend by `spender`."
      },
      "removeAsset(address,address,uint256)": {
        "notice": "Removes an asset from msg.sender and transfers it to `to`."
      },
      "removeCollateral(address,address,uint256)": {
        "notice": "Removes `share` amount of collateral and transfers it to `to`."
      },
      "repay(address,address,bool,uint256)": {
        "notice": "Repays a loan."
      },
      "setBorrowCap(uint256)": {
        "notice": "sets max borrowable amount"
      },
      "setBorrowOpeningFee(uint256)": {
        "notice": "sets the borrowing opening fee"
      },
      "setCallerFee(uint256)": {
        "notice": "sets the liquidator fee"
      },
      "setClosedCollateralizationRate(uint256)": {
        "notice": "sets closed collateralization rate"
      },
      "setConservator(address)": {
        "notice": "Set the Conservator address"
      },
      "setLiquidationBonusAmount(uint256)": {
        "notice": "Set the bonus amount a liquidator can make use of, on top of the amount needed to make the user solvent"
      },
      "setLiquidationMultiplier(uint256)": {
        "notice": "sets the liquidation multiplier"
      },
      "setLiquidationQueue(address)": {
        "notice": "Set a new LiquidationQueue."
      },
      "setLqCollateralizationRate(uint256)": {
        "notice": "sets the collateralization rate used for LiquidationQueue type liquidations"
      },
      "setMaxLiquidatorReward(uint256)": {
        "notice": "Set the liquidator max reward"
      },
      "setMinLiquidatorReward(uint256)": {
        "notice": "Set the liquidator min reward"
      },
      "setOrderBookLiquidationMultiplier(uint256)": {
        "notice": "sets the order book multiplier"
      },
      "setProtocolFee(uint256)": {
        "notice": "sets the protocol fee"
      },
      "transfer(address,uint256)": {
        "notice": "Transfers `amount` tokens from `msg.sender` to `to`."
      },
      "transferFrom(address,address,uint256)": {
        "notice": "Transfers `amount` tokens from `from` to `to`. Caller needs approval for `from`."
      },
      "transferOwnership(address,bool,bool)": {
        "notice": "Transfers ownership to `newOwner`. Either directly or claimable by the new pending owner. Can only be invoked by the current `owner`."
      },
      "updateExchangeRate()": {
        "notice": "Gets the exchange rate. I.e how much collateral to buy 1e18 asset. This function is supposed to be invoked if needed because Oracle queries can be expensive."
      },
      "updateLQExecutionSwapper(address)": {
        "notice": "Execute an only owner function inside of the LiquidationQueue"
      },
      "updateLQUsdoSwapper(address)": {
        "notice": "Execute an only owner function inside of the LiquidationQueue"
      },
      "updatePause(bool)": {
        "notice": "updates the pause state of the contract"
      },
      "withdrawFeesEarned()": {
        "notice": "Withdraw the fees accumulated in `accrueInfo.feesEarnedFraction` to the balance of `feeTo`."
      },
      "withdrawTo(address,uint16,bytes32,uint256,bytes,address)": {
        "notice": "Withdraw to another layer"
      },
      "yieldBoxShares(address,uint256)": {
        "notice": "returns Total yieldBox shares for user"
      }
    },
    "version": 1
  },
  "storageLayout": {
    "storage": [
      {
        "astId": 233,
        "contract": "contracts/singularity/Singularity.sol:Singularity",
        "label": "owner",
        "offset": 0,
        "slot": "0",
        "type": "t_address"
      },
      {
        "astId": 235,
        "contract": "contracts/singularity/Singularity.sol:Singularity",
        "label": "pendingOwner",
        "offset": 0,
        "slot": "1",
        "type": "t_address"
      },
      {
        "astId": 478,
        "contract": "contracts/singularity/Singularity.sol:Singularity",
        "label": "balanceOf",
        "offset": 0,
        "slot": "2",
        "type": "t_mapping(t_address,t_uint256)"
      },
      {
        "astId": 486,
        "contract": "contracts/singularity/Singularity.sol:Singularity",
        "label": "allowance",
        "offset": 0,
        "slot": "3",
        "type": "t_mapping(t_address,t_mapping(t_address,t_uint256))"
      },
      {
        "astId": 491,
        "contract": "contracts/singularity/Singularity.sol:Singularity",
        "label": "nonces",
        "offset": 0,
        "slot": "4",
        "type": "t_mapping(t_address,t_uint256)"
      },
      {
        "astId": 5504,
        "contract": "contracts/singularity/Singularity.sol:Singularity",
        "label": "accrueInfo",
        "offset": 0,
        "slot": "5",
        "type": "t_struct(AccrueInfo)7145_storage"
      },
      {
        "astId": 5507,
        "contract": "contracts/singularity/Singularity.sol:Singularity",
        "label": "penrose",
        "offset": 0,
        "slot": "6",
        "type": "t_contract(IPenrose)2725"
      },
      {
        "astId": 5510,
        "contract": "contracts/singularity/Singularity.sol:Singularity",
        "label": "yieldBox",
        "offset": 0,
        "slot": "7",
        "type": "t_contract(YieldBox)18356"
      },
      {
        "astId": 5513,
        "contract": "contracts/singularity/Singularity.sol:Singularity",
        "label": "liquidationQueue",
        "offset": 0,
        "slot": "8",
        "type": "t_contract(ILiquidationQueue)2870"
      },
      {
        "astId": 5516,
        "contract": "contracts/singularity/Singularity.sol:Singularity",
        "label": "collateral",
        "offset": 0,
        "slot": "9",
        "type": "t_contract(IERC20)1099"
      },
      {
        "astId": 5519,
        "contract": "contracts/singularity/Singularity.sol:Singularity",
        "label": "asset",
        "offset": 0,
        "slot": "10",
        "type": "t_contract(IERC20)1099"
      },
      {
        "astId": 5521,
        "contract": "contracts/singularity/Singularity.sol:Singularity",
        "label": "collateralId",
        "offset": 0,
        "slot": "11",
        "type": "t_uint256"
      },
      {
        "astId": 5523,
        "contract": "contracts/singularity/Singularity.sol:Singularity",
        "label": "assetId",
        "offset": 0,
        "slot": "12",
        "type": "t_uint256"
      },
      {
        "astId": 5525,
        "contract": "contracts/singularity/Singularity.sol:Singularity",
        "label": "paused",
        "offset": 0,
        "slot": "13",
        "type": "t_bool"
      },
      {
        "astId": 5527,
        "contract": "contracts/singularity/Singularity.sol:Singularity",
        "label": "conservator",
        "offset": 1,
        "slot": "13",
        "type": "t_address"
      },
      {
        "astId": 5529,
        "contract": "contracts/singularity/Singularity.sol:Singularity",
        "label": "totalCollateralShare",
        "offset": 0,
        "slot": "14",
        "type": "t_uint256"
      },
      {
        "astId": 5532,
        "contract": "contracts/singularity/Singularity.sol:Singularity",
        "label": "totalAsset",
        "offset": 0,
        "slot": "15",
        "type": "t_struct(Rebase)1890_storage"
      },
      {
        "astId": 5535,
        "contract": "contracts/singularity/Singularity.sol:Singularity",
        "label": "totalBorrow",
        "offset": 0,
        "slot": "16",
        "type": "t_struct(Rebase)1890_storage"
      },
      {
        "astId": 5537,
        "contract": "contracts/singularity/Singularity.sol:Singularity",
        "label": "totalBorrowCap",
        "offset": 0,
        "slot": "17",
        "type": "t_uint256"
      },
      {
        "astId": 5543,
        "contract": "contracts/singularity/Singularity.sol:Singularity",
        "label": "_yieldBoxShares",
        "offset": 0,
        "slot": "18",
        "type": "t_mapping(t_address,t_mapping(t_uint256,t_uint256))"
      },
      {
        "astId": 5547,
        "contract": "contracts/singularity/Singularity.sol:Singularity",
        "label": "userCollateralShare",
        "offset": 0,
        "slot": "19",
        "type": "t_mapping(t_address,t_uint256)"
      },
      {
        "astId": 5551,
        "contract": "contracts/singularity/Singularity.sol:Singularity",
        "label": "userBorrowPart",
        "offset": 0,
        "slot": "20",
        "type": "t_mapping(t_address,t_uint256)"
      },
      {
        "astId": 5557,
        "contract": "contracts/singularity/Singularity.sol:Singularity",
        "label": "isApprovedForAll",
        "offset": 0,
        "slot": "21",
        "type": "t_mapping(t_address,t_mapping(t_address,t_bool))"
      },
      {
        "astId": 5560,
        "contract": "contracts/singularity/Singularity.sol:Singularity",
        "label": "exchangeRate",
        "offset": 0,
        "slot": "22",
        "type": "t_uint256"
      },
      {
        "astId": 5563,
        "contract": "contracts/singularity/Singularity.sol:Singularity",
        "label": "oracle",
        "offset": 0,
        "slot": "23",
        "type": "t_contract(IOracle)2649"
      },
      {
        "astId": 5565,
        "contract": "contracts/singularity/Singularity.sol:Singularity",
        "label": "oracleData",
        "offset": 0,
        "slot": "24",
        "type": "t_bytes_storage"
      },
      {
        "astId": 5568,
        "contract": "contracts/singularity/Singularity.sol:Singularity",
        "label": "callerFee",
        "offset": 0,
        "slot": "25",
        "type": "t_uint256"
      },
      {
        "astId": 5571,
        "contract": "contracts/singularity/Singularity.sol:Singularity",
        "label": "protocolFee",
        "offset": 0,
        "slot": "26",
        "type": "t_uint256"
      },
      {
        "astId": 5574,
        "contract": "contracts/singularity/Singularity.sol:Singularity",
        "label": "borrowOpeningFee",
        "offset": 0,
        "slot": "27",
        "type": "t_uint256"
      },
      {
        "astId": 5577,
        "contract": "contracts/singularity/Singularity.sol:Singularity",
        "label": "liquidationMultiplier",
        "offset": 0,
        "slot": "28",
        "type": "t_uint256"
      },
      {
        "astId": 5580,
        "contract": "contracts/singularity/Singularity.sol:Singularity",
        "label": "orderBookLiquidationMultiplier",
        "offset": 0,
        "slot": "29",
        "type": "t_uint256"
      },
      {
        "astId": 5583,
        "contract": "contracts/singularity/Singularity.sol:Singularity",
        "label": "closedCollateralizationRate",
        "offset": 0,
        "slot": "30",
        "type": "t_uint256"
      },
      {
        "astId": 5586,
        "contract": "contracts/singularity/Singularity.sol:Singularity",
        "label": "lqCollateralizationRate",
        "offset": 0,
        "slot": "31",
        "type": "t_uint256"
      },
      {
        "astId": 5589,
        "contract": "contracts/singularity/Singularity.sol:Singularity",
        "label": "minLiquidatorReward",
        "offset": 0,
        "slot": "32",
        "type": "t_uint256"
      },
      {
        "astId": 5592,
        "contract": "contracts/singularity/Singularity.sol:Singularity",
        "label": "maxLiquidatorReward",
        "offset": 0,
        "slot": "33",
        "type": "t_uint256"
      },
      {
        "astId": 5595,
        "contract": "contracts/singularity/Singularity.sol:Singularity",
        "label": "liquidationBonusAmount",
        "offset": 0,
        "slot": "34",
        "type": "t_uint256"
      },
      {
        "astId": 5749,
        "contract": "contracts/singularity/Singularity.sol:Singularity",
        "label": "EXCHANGE_RATE_PRECISION",
        "offset": 0,
        "slot": "35",
        "type": "t_uint256"
      },
      {
        "astId": 2989,
        "contract": "contracts/singularity/Singularity.sol:Singularity",
        "label": "initialized",
        "offset": 0,
        "slot": "36",
        "type": "t_bool"
      },
      {
        "astId": 5850,
        "contract": "contracts/singularity/Singularity.sol:Singularity",
        "label": "liquidationModule",
        "offset": 1,
        "slot": "36",
        "type": "t_contract(SGLLiquidation)5477"
      },
      {
        "astId": 5854,
        "contract": "contracts/singularity/Singularity.sol:Singularity",
        "label": "lendingBorrowingModule",
        "offset": 0,
        "slot": "37",
        "type": "t_contract(SGLLendingBorrowing)4587"
      }
    ],
    "types": {
      "t_address": {
        "encoding": "inplace",
        "label": "address",
        "numberOfBytes": "20"
      },
      "t_bool": {
        "encoding": "inplace",
        "label": "bool",
        "numberOfBytes": "1"
      },
      "t_bytes_storage": {
        "encoding": "bytes",
        "label": "bytes",
        "numberOfBytes": "32"
      },
      "t_contract(IERC20)1099": {
        "encoding": "inplace",
        "label": "contract IERC20",
        "numberOfBytes": "20"
      },
      "t_contract(ILiquidationQueue)2870": {
        "encoding": "inplace",
        "label": "contract ILiquidationQueue",
        "numberOfBytes": "20"
      },
      "t_contract(IOracle)2649": {
        "encoding": "inplace",
        "label": "contract IOracle",
        "numberOfBytes": "20"
      },
      "t_contract(IPenrose)2725": {
        "encoding": "inplace",
        "label": "contract IPenrose",
        "numberOfBytes": "20"
      },
      "t_contract(SGLLendingBorrowing)4587": {
        "encoding": "inplace",
        "label": "contract SGLLendingBorrowing",
        "numberOfBytes": "20"
      },
      "t_contract(SGLLiquidation)5477": {
        "encoding": "inplace",
        "label": "contract SGLLiquidation",
        "numberOfBytes": "20"
      },
      "t_contract(YieldBox)18356": {
        "encoding": "inplace",
        "label": "contract YieldBox",
        "numberOfBytes": "20"
      },
      "t_mapping(t_address,t_bool)": {
        "encoding": "mapping",
        "key": "t_address",
        "label": "mapping(address => bool)",
        "numberOfBytes": "32",
        "value": "t_bool"
      },
      "t_mapping(t_address,t_mapping(t_address,t_bool))": {
        "encoding": "mapping",
        "key": "t_address",
        "label": "mapping(address => mapping(address => bool))",
        "numberOfBytes": "32",
        "value": "t_mapping(t_address,t_bool)"
      },
      "t_mapping(t_address,t_mapping(t_address,t_uint256))": {
        "encoding": "mapping",
        "key": "t_address",
        "label": "mapping(address => mapping(address => uint256))",
        "numberOfBytes": "32",
        "value": "t_mapping(t_address,t_uint256)"
      },
      "t_mapping(t_address,t_mapping(t_uint256,t_uint256))": {
        "encoding": "mapping",
        "key": "t_address",
        "label": "mapping(address => mapping(uint256 => uint256))",
        "numberOfBytes": "32",
        "value": "t_mapping(t_uint256,t_uint256)"
      },
      "t_mapping(t_address,t_uint256)": {
        "encoding": "mapping",
        "key": "t_address",
        "label": "mapping(address => uint256)",
        "numberOfBytes": "32",
        "value": "t_uint256"
      },
      "t_mapping(t_uint256,t_uint256)": {
        "encoding": "mapping",
        "key": "t_uint256",
        "label": "mapping(uint256 => uint256)",
        "numberOfBytes": "32",
        "value": "t_uint256"
      },
      "t_struct(AccrueInfo)7145_storage": {
        "encoding": "inplace",
        "label": "struct ISingularity.AccrueInfo",
        "members": [
          {
            "astId": 7140,
            "contract": "contracts/singularity/Singularity.sol:Singularity",
            "label": "interestPerSecond",
            "offset": 0,
            "slot": "0",
            "type": "t_uint64"
          },
          {
            "astId": 7142,
            "contract": "contracts/singularity/Singularity.sol:Singularity",
            "label": "lastAccrued",
            "offset": 8,
            "slot": "0",
            "type": "t_uint64"
          },
          {
            "astId": 7144,
            "contract": "contracts/singularity/Singularity.sol:Singularity",
            "label": "feesEarnedFraction",
            "offset": 16,
            "slot": "0",
            "type": "t_uint128"
          }
        ],
        "numberOfBytes": "32"
      },
      "t_struct(Rebase)1890_storage": {
        "encoding": "inplace",
        "label": "struct Rebase",
        "members": [
          {
            "astId": 1887,
            "contract": "contracts/singularity/Singularity.sol:Singularity",
            "label": "elastic",
            "offset": 0,
            "slot": "0",
            "type": "t_uint128"
          },
          {
            "astId": 1889,
            "contract": "contracts/singularity/Singularity.sol:Singularity",
            "label": "base",
            "offset": 16,
            "slot": "0",
            "type": "t_uint128"
          }
        ],
        "numberOfBytes": "32"
      },
      "t_uint128": {
        "encoding": "inplace",
        "label": "uint128",
        "numberOfBytes": "16"
      },
      "t_uint256": {
        "encoding": "inplace",
        "label": "uint256",
        "numberOfBytes": "32"
      },
      "t_uint64": {
        "encoding": "inplace",
        "label": "uint64",
        "numberOfBytes": "8"
      }
    }
  }
}