{
  "address": "0xd9da4265fa5957a119c4fC8c36a36b5e50eDc33B",
  "abi": [
    {
      "inputs": [
        {
          "internalType": "address",
          "name": "_from",
          "type": "address"
        },
        {
          "internalType": "address",
          "name": "_operator",
          "type": "address"
        }
      ],
      "name": "NotApproved",
      "type": "error"
    },
    {
      "anonymous": false,
      "inputs": [
        {
          "indexed": true,
          "internalType": "address",
          "name": "owner",
          "type": "address"
        },
        {
          "indexed": true,
          "internalType": "address",
          "name": "spender",
          "type": "address"
        },
        {
          "indexed": false,
          "internalType": "uint256",
          "name": "value",
          "type": "uint256"
        }
      ],
      "name": "Approval",
      "type": "event"
    },
    {
      "anonymous": false,
      "inputs": [
        {
          "indexed": true,
          "internalType": "address",
          "name": "old",
          "type": "address"
        },
        {
          "indexed": true,
          "internalType": "address",
          "name": "_new",
          "type": "address"
        }
      ],
      "name": "ConservatorUpdated",
      "type": "event"
    },
    {
      "anonymous": false,
      "inputs": [
        {
          "indexed": false,
          "internalType": "uint256",
          "name": "accruedAmount",
          "type": "uint256"
        },
        {
          "indexed": false,
          "internalType": "uint256",
          "name": "feeFraction",
          "type": "uint256"
        },
        {
          "indexed": false,
          "internalType": "uint64",
          "name": "rate",
          "type": "uint64"
        },
        {
          "indexed": false,
          "internalType": "uint256",
          "name": "utilization",
          "type": "uint256"
        }
      ],
      "name": "LogAccrue",
      "type": "event"
    },
    {
      "anonymous": false,
      "inputs": [
        {
          "indexed": true,
          "internalType": "address",
          "name": "from",
          "type": "address"
        },
        {
          "indexed": true,
          "internalType": "address",
          "name": "to",
          "type": "address"
        },
        {
          "indexed": false,
          "internalType": "uint256",
          "name": "share",
          "type": "uint256"
        },
        {
          "indexed": false,
          "internalType": "uint256",
          "name": "fraction",
          "type": "uint256"
        }
      ],
      "name": "LogAddAsset",
      "type": "event"
    },
    {
      "anonymous": false,
      "inputs": [
        {
          "indexed": true,
          "internalType": "address",
          "name": "from",
          "type": "address"
        },
        {
          "indexed": true,
          "internalType": "address",
          "name": "to",
          "type": "address"
        },
        {
          "indexed": false,
          "internalType": "uint256",
          "name": "share",
          "type": "uint256"
        }
      ],
      "name": "LogAddCollateral",
      "type": "event"
    },
    {
      "anonymous": false,
      "inputs": [
        {
          "indexed": true,
          "internalType": "address",
          "name": "_from",
          "type": "address"
        },
        {
          "indexed": true,
          "internalType": "address",
          "name": "_operator",
          "type": "address"
        },
        {
          "indexed": false,
          "internalType": "bool",
          "name": "_approved",
          "type": "bool"
        }
      ],
      "name": "LogApprovalForAll",
      "type": "event"
    },
    {
      "anonymous": false,
      "inputs": [
        {
          "indexed": true,
          "internalType": "address",
          "name": "from",
          "type": "address"
        },
        {
          "indexed": true,
          "internalType": "address",
          "name": "to",
          "type": "address"
        },
        {
          "indexed": false,
          "internalType": "uint256",
          "name": "amount",
          "type": "uint256"
        },
        {
          "indexed": false,
          "internalType": "uint256",
          "name": "feeAmount",
          "type": "uint256"
        },
        {
          "indexed": false,
          "internalType": "uint256",
          "name": "part",
          "type": "uint256"
        }
      ],
      "name": "LogBorrow",
      "type": "event"
    },
    {
      "anonymous": false,
      "inputs": [
        {
          "indexed": false,
          "internalType": "uint256",
          "name": "_oldVal",
          "type": "uint256"
        },
        {
          "indexed": false,
          "internalType": "uint256",
          "name": "_newVal",
          "type": "uint256"
        }
      ],
      "name": "LogBorrowCapUpdated",
      "type": "event"
    },
    {
      "anonymous": false,
      "inputs": [
        {
          "indexed": false,
          "internalType": "uint256",
          "name": "rate",
          "type": "uint256"
        }
      ],
      "name": "LogExchangeRate",
      "type": "event"
    },
    {
      "anonymous": false,
      "inputs": [
        {
          "indexed": true,
          "internalType": "address",
          "name": "from",
          "type": "address"
        },
        {
          "indexed": true,
          "internalType": "address",
          "name": "to",
          "type": "address"
        },
        {
          "indexed": false,
          "internalType": "uint256",
          "name": "share",
          "type": "uint256"
        },
        {
          "indexed": false,
          "internalType": "uint256",
          "name": "fraction",
          "type": "uint256"
        }
      ],
      "name": "LogRemoveAsset",
      "type": "event"
    },
    {
      "anonymous": false,
      "inputs": [
        {
          "indexed": true,
          "internalType": "address",
          "name": "from",
          "type": "address"
        },
        {
          "indexed": true,
          "internalType": "address",
          "name": "to",
          "type": "address"
        },
        {
          "indexed": false,
          "internalType": "uint256",
          "name": "share",
          "type": "uint256"
        }
      ],
      "name": "LogRemoveCollateral",
      "type": "event"
    },
    {
      "anonymous": false,
      "inputs": [
        {
          "indexed": true,
          "internalType": "address",
          "name": "from",
          "type": "address"
        },
        {
          "indexed": true,
          "internalType": "address",
          "name": "to",
          "type": "address"
        },
        {
          "indexed": false,
          "internalType": "uint256",
          "name": "amount",
          "type": "uint256"
        },
        {
          "indexed": false,
          "internalType": "uint256",
          "name": "part",
          "type": "uint256"
        }
      ],
      "name": "LogRepay",
      "type": "event"
    },
    {
      "anonymous": false,
      "inputs": [
        {
          "indexed": true,
          "internalType": "address",
          "name": "feeTo",
          "type": "address"
        },
        {
          "indexed": false,
          "internalType": "uint256",
          "name": "feesEarnedFraction",
          "type": "uint256"
        }
      ],
      "name": "LogWithdrawFees",
      "type": "event"
    },
    {
      "anonymous": false,
      "inputs": [
        {
          "indexed": false,
          "internalType": "uint256",
          "name": "feeShares",
          "type": "uint256"
        },
        {
          "indexed": false,
          "internalType": "uint256",
          "name": "ethAmount",
          "type": "uint256"
        }
      ],
      "name": "LogYieldBoxFeesDeposit",
      "type": "event"
    },
    {
      "anonymous": false,
      "inputs": [
        {
          "indexed": true,
          "internalType": "address",
          "name": "previousOwner",
          "type": "address"
        },
        {
          "indexed": true,
          "internalType": "address",
          "name": "newOwner",
          "type": "address"
        }
      ],
      "name": "OwnershipTransferred",
      "type": "event"
    },
    {
      "anonymous": false,
      "inputs": [
        {
          "indexed": false,
          "internalType": "bool",
          "name": "oldState",
          "type": "bool"
        },
        {
          "indexed": false,
          "internalType": "bool",
          "name": "newState",
          "type": "bool"
        }
      ],
      "name": "PausedUpdated",
      "type": "event"
    },
    {
      "anonymous": false,
      "inputs": [
        {
          "indexed": true,
          "internalType": "address",
          "name": "from",
          "type": "address"
        },
        {
          "indexed": true,
          "internalType": "address",
          "name": "to",
          "type": "address"
        },
        {
          "indexed": false,
          "internalType": "uint256",
          "name": "value",
          "type": "uint256"
        }
      ],
      "name": "Transfer",
      "type": "event"
    },
    {
      "inputs": [],
      "name": "DOMAIN_SEPARATOR",
      "outputs": [
        {
          "internalType": "bytes32",
          "name": "",
          "type": "bytes32"
        }
      ],
      "stateMutability": "view",
      "type": "function"
    },
    {
      "inputs": [],
      "name": "accrue",
      "outputs": [],
      "stateMutability": "nonpayable",
      "type": "function"
    },
    {
      "inputs": [],
      "name": "accrueInfo",
      "outputs": [
        {
          "internalType": "uint64",
          "name": "interestPerSecond",
          "type": "uint64"
        },
        {
          "internalType": "uint64",
          "name": "lastAccrued",
          "type": "uint64"
        },
        {
          "internalType": "uint128",
          "name": "feesEarnedFraction",
          "type": "uint128"
        }
      ],
      "stateMutability": "view",
      "type": "function"
    },
    {
      "inputs": [
        {
          "internalType": "address",
          "name": "from",
          "type": "address"
        },
        {
          "internalType": "address",
          "name": "to",
          "type": "address"
        },
        {
          "internalType": "bool",
          "name": "skim",
          "type": "bool"
        },
        {
          "internalType": "uint256",
          "name": "share",
          "type": "uint256"
        }
      ],
      "name": "addAsset",
      "outputs": [
        {
          "internalType": "uint256",
          "name": "fraction",
          "type": "uint256"
        }
      ],
      "stateMutability": "nonpayable",
      "type": "function"
    },
    {
      "inputs": [
        {
          "internalType": "address",
          "name": "from",
          "type": "address"
        },
        {
          "internalType": "address",
          "name": "to",
          "type": "address"
        },
        {
          "internalType": "bool",
          "name": "skim",
          "type": "bool"
        },
        {
          "internalType": "uint256",
          "name": "share",
          "type": "uint256"
        }
      ],
      "name": "addCollateral",
      "outputs": [],
      "stateMutability": "nonpayable",
      "type": "function"
    },
    {
      "inputs": [
        {
          "internalType": "address",
          "name": "",
          "type": "address"
        },
        {
          "internalType": "address",
          "name": "",
          "type": "address"
        }
      ],
      "name": "allowance",
      "outputs": [
        {
          "internalType": "uint256",
          "name": "",
          "type": "uint256"
        }
      ],
      "stateMutability": "view",
      "type": "function"
    },
    {
      "inputs": [
        {
          "internalType": "address",
          "name": "spender",
          "type": "address"
        },
        {
          "internalType": "uint256",
          "name": "amount",
          "type": "uint256"
        }
      ],
      "name": "approve",
      "outputs": [
        {
          "internalType": "bool",
          "name": "",
          "type": "bool"
        }
      ],
      "stateMutability": "nonpayable",
      "type": "function"
    },
    {
      "inputs": [],
      "name": "asset",
      "outputs": [
        {
          "internalType": "contract IERC20",
          "name": "",
          "type": "address"
        }
      ],
      "stateMutability": "view",
      "type": "function"
    },
    {
      "inputs": [],
      "name": "assetId",
      "outputs": [
        {
          "internalType": "uint256",
          "name": "",
          "type": "uint256"
        }
      ],
      "stateMutability": "view",
      "type": "function"
    },
    {
      "inputs": [
        {
          "internalType": "address",
          "name": "",
          "type": "address"
        }
      ],
      "name": "balanceOf",
      "outputs": [
        {
          "internalType": "uint256",
          "name": "",
          "type": "uint256"
        }
      ],
      "stateMutability": "view",
      "type": "function"
    },
    {
      "inputs": [
        {
          "internalType": "address",
          "name": "from",
          "type": "address"
        },
        {
          "internalType": "address",
          "name": "to",
          "type": "address"
        },
        {
          "internalType": "uint256",
          "name": "amount",
          "type": "uint256"
        }
      ],
      "name": "borrow",
      "outputs": [
        {
          "internalType": "uint256",
          "name": "part",
          "type": "uint256"
        },
        {
          "internalType": "uint256",
          "name": "share",
          "type": "uint256"
        }
      ],
      "stateMutability": "nonpayable",
      "type": "function"
    },
    {
      "inputs": [],
      "name": "borrowOpeningFee",
      "outputs": [
        {
          "internalType": "uint256",
          "name": "",
          "type": "uint256"
        }
      ],
      "stateMutability": "view",
      "type": "function"
    },
    {
      "inputs": [],
      "name": "callerFee",
      "outputs": [
        {
          "internalType": "uint256",
          "name": "",
          "type": "uint256"
        }
      ],
      "stateMutability": "view",
      "type": "function"
    },
    {
      "inputs": [],
      "name": "claimOwnership",
      "outputs": [],
      "stateMutability": "nonpayable",
      "type": "function"
    },
    {
      "inputs": [],
      "name": "closedCollateralizationRate",
      "outputs": [
        {
          "internalType": "uint256",
          "name": "",
          "type": "uint256"
        }
      ],
      "stateMutability": "view",
      "type": "function"
    },
    {
      "inputs": [],
      "name": "collateral",
      "outputs": [
        {
          "internalType": "contract IERC20",
          "name": "",
          "type": "address"
        }
      ],
      "stateMutability": "view",
      "type": "function"
    },
    {
      "inputs": [],
      "name": "collateralId",
      "outputs": [
        {
          "internalType": "uint256",
          "name": "",
          "type": "uint256"
        }
      ],
      "stateMutability": "view",
      "type": "function"
    },
    {
      "inputs": [
        {
          "internalType": "address",
          "name": "user",
          "type": "address"
        },
        {
          "internalType": "uint256",
          "name": "_exchangeRate",
          "type": "uint256"
        }
      ],
      "name": "computeAssetAmountToSolvency",
      "outputs": [
        {
          "internalType": "uint256",
          "name": "amountToSolvency",
          "type": "uint256"
        }
      ],
      "stateMutability": "view",
      "type": "function"
    },
    {
      "inputs": [],
      "name": "conservator",
      "outputs": [
        {
          "internalType": "address",
          "name": "",
          "type": "address"
        }
      ],
      "stateMutability": "view",
      "type": "function"
    },
    {
      "inputs": [],
      "name": "decimals",
      "outputs": [
        {
          "internalType": "uint8",
          "name": "",
          "type": "uint8"
        }
      ],
      "stateMutability": "view",
      "type": "function"
    },
    {
      "inputs": [
        {
          "internalType": "contract ISwapper",
          "name": "swapper",
          "type": "address"
        },
        {
          "components": [
            {
              "internalType": "uint256",
              "name": "minAssetAmount",
              "type": "uint256"
            }
          ],
          "internalType": "struct IPenrose.SwapData",
          "name": "swapData",
          "type": "tuple"
        }
      ],
      "name": "depositFeesToYieldBox",
      "outputs": [],
      "stateMutability": "nonpayable",
      "type": "function"
    },
    {
      "inputs": [],
      "name": "exchangeRate",
      "outputs": [
        {
          "internalType": "uint256",
          "name": "",
          "type": "uint256"
        }
      ],
      "stateMutability": "view",
      "type": "function"
    },
    {
      "inputs": [
        {
          "internalType": "bytes[]",
          "name": "calls",
          "type": "bytes[]"
        },
        {
          "internalType": "bool",
          "name": "revertOnFail",
          "type": "bool"
        }
      ],
      "name": "execute",
      "outputs": [
        {
          "internalType": "bool[]",
          "name": "successes",
          "type": "bool[]"
        },
        {
          "internalType": "string[]",
          "name": "results",
          "type": "string[]"
        }
      ],
      "stateMutability": "nonpayable",
      "type": "function"
    },
    {
      "inputs": [
        {
          "internalType": "bytes",
          "name": "data",
          "type": "bytes"
        }
      ],
      "name": "init",
      "outputs": [],
      "stateMutability": "nonpayable",
      "type": "function"
    },
    {
      "inputs": [
        {
          "internalType": "address",
          "name": "",
          "type": "address"
        },
        {
          "internalType": "address",
          "name": "",
          "type": "address"
        }
      ],
      "name": "isApprovedForAll",
      "outputs": [
        {
          "internalType": "bool",
          "name": "",
          "type": "bool"
        }
      ],
      "stateMutability": "view",
      "type": "function"
    },
    {
      "inputs": [],
      "name": "lendingBorrowingModule",
      "outputs": [
        {
          "internalType": "contract SGLLendingBorrowing",
          "name": "",
          "type": "address"
        }
      ],
      "stateMutability": "view",
      "type": "function"
    },
    {
      "inputs": [
        {
          "internalType": "address[]",
          "name": "users",
          "type": "address[]"
        },
        {
          "internalType": "uint256[]",
          "name": "maxBorrowParts",
          "type": "uint256[]"
        },
        {
          "internalType": "contract ISwapper",
          "name": "swapper",
          "type": "address"
        },
        {
          "internalType": "bytes",
          "name": "collateralToAssetSwapData",
          "type": "bytes"
        },
        {
          "internalType": "bytes",
          "name": "usdoToBorrowedSwapData",
          "type": "bytes"
        }
      ],
      "name": "liquidate",
      "outputs": [],
      "stateMutability": "nonpayable",
      "type": "function"
    },
    {
      "inputs": [],
      "name": "liquidationModule",
      "outputs": [
        {
          "internalType": "contract SGLLiquidation",
          "name": "",
          "type": "address"
        }
      ],
      "stateMutability": "view",
      "type": "function"
    },
    {
      "inputs": [],
      "name": "liquidationMultiplier",
      "outputs": [
        {
          "internalType": "uint256",
          "name": "",
          "type": "uint256"
        }
      ],
      "stateMutability": "view",
      "type": "function"
    },
    {
      "inputs": [],
      "name": "liquidationQueue",
      "outputs": [
        {
          "internalType": "contract ILiquidationQueue",
          "name": "",
          "type": "address"
        }
      ],
      "stateMutability": "view",
      "type": "function"
    },
    {
      "inputs": [],
      "name": "lqCollateralizationRate",
      "outputs": [
        {
          "internalType": "uint256",
          "name": "",
          "type": "uint256"
        }
      ],
      "stateMutability": "view",
      "type": "function"
    },
    {
      "inputs": [],
      "name": "name",
      "outputs": [
        {
          "internalType": "string",
          "name": "",
          "type": "string"
        }
      ],
      "stateMutability": "view",
      "type": "function"
    },
    {
      "inputs": [
        {
          "internalType": "address",
          "name": "",
          "type": "address"
        }
      ],
      "name": "nonces",
      "outputs": [
        {
          "internalType": "uint256",
          "name": "",
          "type": "uint256"
        }
      ],
      "stateMutability": "view",
      "type": "function"
    },
    {
      "inputs": [],
      "name": "oracle",
      "outputs": [
        {
          "internalType": "contract IOracle",
          "name": "",
          "type": "address"
        }
      ],
      "stateMutability": "view",
      "type": "function"
    },
    {
      "inputs": [],
      "name": "oracleData",
      "outputs": [
        {
          "internalType": "bytes",
          "name": "",
          "type": "bytes"
        }
      ],
      "stateMutability": "view",
      "type": "function"
    },
    {
      "inputs": [],
      "name": "orderBookLiquidationMultiplier",
      "outputs": [
        {
          "internalType": "uint256",
          "name": "",
          "type": "uint256"
        }
      ],
      "stateMutability": "view",
      "type": "function"
    },
    {
      "inputs": [],
      "name": "owner",
      "outputs": [
        {
          "internalType": "address",
          "name": "",
          "type": "address"
        }
      ],
      "stateMutability": "view",
      "type": "function"
    },
    {
      "inputs": [],
      "name": "paused",
      "outputs": [
        {
          "internalType": "bool",
          "name": "",
          "type": "bool"
        }
      ],
      "stateMutability": "view",
      "type": "function"
    },
    {
      "inputs": [],
      "name": "pendingOwner",
      "outputs": [
        {
          "internalType": "address",
          "name": "",
          "type": "address"
        }
      ],
      "stateMutability": "view",
      "type": "function"
    },
    {
      "inputs": [],
      "name": "penrose",
      "outputs": [
        {
          "internalType": "contract IPenrose",
          "name": "",
          "type": "address"
        }
      ],
      "stateMutability": "view",
      "type": "function"
    },
    {
      "inputs": [
        {
          "internalType": "address",
          "name": "owner_",
          "type": "address"
        },
        {
          "internalType": "address",
          "name": "spender",
          "type": "address"
        },
        {
          "internalType": "uint256",
          "name": "value",
          "type": "uint256"
        },
        {
          "internalType": "uint256",
          "name": "deadline",
          "type": "uint256"
        },
        {
          "internalType": "uint8",
          "name": "v",
          "type": "uint8"
        },
        {
          "internalType": "bytes32",
          "name": "r",
          "type": "bytes32"
        },
        {
          "internalType": "bytes32",
          "name": "s",
          "type": "bytes32"
        }
      ],
      "name": "permit",
      "outputs": [],
      "stateMutability": "nonpayable",
      "type": "function"
    },
    {
      "inputs": [],
      "name": "protocolFee",
      "outputs": [
        {
          "internalType": "uint256",
          "name": "",
          "type": "uint256"
        }
      ],
      "stateMutability": "view",
      "type": "function"
    },
    {
      "inputs": [
        {
          "internalType": "address",
          "name": "from",
          "type": "address"
        },
        {
          "internalType": "address",
          "name": "to",
          "type": "address"
        },
        {
          "internalType": "uint256",
          "name": "fraction",
          "type": "uint256"
        }
      ],
      "name": "removeAsset",
      "outputs": [
        {
          "internalType": "uint256",
          "name": "share",
          "type": "uint256"
        }
      ],
      "stateMutability": "nonpayable",
      "type": "function"
    },
    {
      "inputs": [
        {
          "internalType": "address",
          "name": "from",
          "type": "address"
        },
        {
          "internalType": "address",
          "name": "to",
          "type": "address"
        },
        {
          "internalType": "uint256",
          "name": "share",
          "type": "uint256"
        }
      ],
      "name": "removeCollateral",
      "outputs": [],
      "stateMutability": "nonpayable",
      "type": "function"
    },
    {
      "inputs": [
        {
          "internalType": "address",
          "name": "from",
          "type": "address"
        },
        {
          "internalType": "address",
          "name": "to",
          "type": "address"
        },
        {
          "internalType": "bool",
          "name": "skim",
          "type": "bool"
        },
        {
          "internalType": "uint256",
          "name": "part",
          "type": "uint256"
        }
      ],
      "name": "repay",
      "outputs": [
        {
          "internalType": "uint256",
          "name": "amount",
          "type": "uint256"
        }
      ],
      "stateMutability": "nonpayable",
      "type": "function"
    },
    {
      "inputs": [
        {
          "internalType": "uint256",
          "name": "_cap",
          "type": "uint256"
        }
      ],
      "name": "setBorrowCap",
      "outputs": [],
      "stateMutability": "nonpayable",
      "type": "function"
    },
    {
      "inputs": [
        {
          "internalType": "uint256",
          "name": "_val",
          "type": "uint256"
        }
      ],
      "name": "setBorrowOpeningFee",
      "outputs": [],
      "stateMutability": "nonpayable",
      "type": "function"
    },
    {
      "inputs": [
        {
          "internalType": "uint256",
          "name": "_val",
          "type": "uint256"
        }
      ],
      "name": "setCallerFee",
      "outputs": [],
      "stateMutability": "nonpayable",
      "type": "function"
    },
    {
      "inputs": [
        {
          "internalType": "uint256",
          "name": "_val",
          "type": "uint256"
        }
      ],
      "name": "setClosedCollateralizationRate",
      "outputs": [],
      "stateMutability": "nonpayable",
      "type": "function"
    },
    {
      "inputs": [
        {
          "internalType": "address",
          "name": "_conservator",
          "type": "address"
        }
      ],
      "name": "setConservator",
      "outputs": [],
      "stateMutability": "nonpayable",
      "type": "function"
    },
    {
      "inputs": [
        {
          "internalType": "uint256",
          "name": "_val",
          "type": "uint256"
        }
      ],
      "name": "setLiquidationMultiplier",
      "outputs": [],
      "stateMutability": "nonpayable",
      "type": "function"
    },
    {
      "inputs": [
        {
          "internalType": "contract ILiquidationQueue",
          "name": "_liquidationQueue",
          "type": "address"
        }
      ],
      "name": "setLiquidationQueue",
      "outputs": [],
      "stateMutability": "nonpayable",
      "type": "function"
    },
    {
      "inputs": [
        {
          "internalType": "uint256",
          "name": "_val",
          "type": "uint256"
        }
      ],
      "name": "setLqCollateralizationRate",
      "outputs": [],
      "stateMutability": "nonpayable",
      "type": "function"
    },
    {
      "inputs": [
        {
          "internalType": "uint256",
          "name": "_val",
          "type": "uint256"
        }
      ],
      "name": "setOrderBookLiquidationMultiplier",
      "outputs": [],
      "stateMutability": "nonpayable",
      "type": "function"
    },
    {
      "inputs": [
        {
          "internalType": "uint256",
          "name": "_val",
          "type": "uint256"
        }
      ],
      "name": "setProtocolFee",
      "outputs": [],
      "stateMutability": "nonpayable",
      "type": "function"
    },
    {
      "inputs": [],
      "name": "symbol",
      "outputs": [
        {
          "internalType": "string",
          "name": "",
          "type": "string"
        }
      ],
      "stateMutability": "view",
      "type": "function"
    },
    {
      "inputs": [],
      "name": "totalAsset",
      "outputs": [
        {
          "internalType": "uint128",
          "name": "elastic",
          "type": "uint128"
        },
        {
          "internalType": "uint128",
          "name": "base",
          "type": "uint128"
        }
      ],
      "stateMutability": "view",
      "type": "function"
    },
    {
      "inputs": [],
      "name": "totalBorrow",
      "outputs": [
        {
          "internalType": "uint128",
          "name": "elastic",
          "type": "uint128"
        },
        {
          "internalType": "uint128",
          "name": "base",
          "type": "uint128"
        }
      ],
      "stateMutability": "view",
      "type": "function"
    },
    {
      "inputs": [],
      "name": "totalBorrowCap",
      "outputs": [
        {
          "internalType": "uint256",
          "name": "",
          "type": "uint256"
        }
      ],
      "stateMutability": "view",
      "type": "function"
    },
    {
      "inputs": [],
      "name": "totalCollateralShare",
      "outputs": [
        {
          "internalType": "uint256",
          "name": "",
          "type": "uint256"
        }
      ],
      "stateMutability": "view",
      "type": "function"
    },
    {
      "inputs": [],
      "name": "totalSupply",
      "outputs": [
        {
          "internalType": "uint256",
          "name": "",
          "type": "uint256"
        }
      ],
      "stateMutability": "view",
      "type": "function"
    },
    {
      "inputs": [
        {
          "internalType": "address",
          "name": "to",
          "type": "address"
        },
        {
          "internalType": "uint256",
          "name": "amount",
          "type": "uint256"
        }
      ],
      "name": "transfer",
      "outputs": [
        {
          "internalType": "bool",
          "name": "",
          "type": "bool"
        }
      ],
      "stateMutability": "nonpayable",
      "type": "function"
    },
    {
      "inputs": [
        {
          "internalType": "address",
          "name": "from",
          "type": "address"
        },
        {
          "internalType": "address",
          "name": "to",
          "type": "address"
        },
        {
          "internalType": "uint256",
          "name": "amount",
          "type": "uint256"
        }
      ],
      "name": "transferFrom",
      "outputs": [
        {
          "internalType": "bool",
          "name": "",
          "type": "bool"
        }
      ],
      "stateMutability": "nonpayable",
      "type": "function"
    },
    {
      "inputs": [
        {
          "internalType": "address",
          "name": "newOwner",
          "type": "address"
        },
        {
          "internalType": "bool",
          "name": "direct",
          "type": "bool"
        },
        {
          "internalType": "bool",
          "name": "renounce",
          "type": "bool"
        }
      ],
      "name": "transferOwnership",
      "outputs": [],
      "stateMutability": "nonpayable",
      "type": "function"
    },
    {
      "inputs": [],
      "name": "updateExchangeRate",
      "outputs": [
        {
          "internalType": "bool",
          "name": "updated",
          "type": "bool"
        },
        {
          "internalType": "uint256",
          "name": "rate",
          "type": "uint256"
        }
      ],
      "stateMutability": "nonpayable",
      "type": "function"
    },
    {
      "inputs": [
        {
          "internalType": "address",
          "name": "_swapper",
          "type": "address"
        }
      ],
      "name": "updateLQExecutionSwapper",
      "outputs": [],
      "stateMutability": "nonpayable",
      "type": "function"
    },
    {
      "inputs": [
        {
          "internalType": "address",
          "name": "_swapper",
          "type": "address"
        }
      ],
      "name": "updateLQUsdoSwapper",
      "outputs": [],
      "stateMutability": "nonpayable",
      "type": "function"
    },
    {
      "inputs": [
        {
          "internalType": "bool",
          "name": "val",
          "type": "bool"
        }
      ],
      "name": "updatePause",
      "outputs": [],
      "stateMutability": "nonpayable",
      "type": "function"
    },
    {
      "inputs": [
        {
          "internalType": "address",
          "name": "",
          "type": "address"
        }
      ],
      "name": "userBorrowPart",
      "outputs": [
        {
          "internalType": "uint256",
          "name": "",
          "type": "uint256"
        }
      ],
      "stateMutability": "view",
      "type": "function"
    },
    {
      "inputs": [
        {
          "internalType": "address",
          "name": "",
          "type": "address"
        }
      ],
      "name": "userCollateralShare",
      "outputs": [
        {
          "internalType": "uint256",
          "name": "",
          "type": "uint256"
        }
      ],
      "stateMutability": "view",
      "type": "function"
    },
    {
      "inputs": [],
      "name": "withdrawFeesEarned",
      "outputs": [],
      "stateMutability": "nonpayable",
      "type": "function"
    },
    {
      "inputs": [
        {
          "internalType": "uint16",
          "name": "dstChainId",
          "type": "uint16"
        },
        {
          "internalType": "bytes",
          "name": "receiver",
          "type": "bytes"
        },
        {
          "internalType": "uint256",
          "name": "amount",
          "type": "uint256"
        },
        {
          "internalType": "bytes",
          "name": "adapterParams",
          "type": "bytes"
        },
        {
          "internalType": "address payable",
          "name": "refundAddress",
          "type": "address"
        }
      ],
      "name": "withdrawTo",
      "outputs": [],
      "stateMutability": "payable",
      "type": "function"
    },
    {
      "inputs": [],
      "name": "yieldBox",
      "outputs": [
        {
          "internalType": "contract YieldBox",
          "name": "",
          "type": "address"
        }
      ],
      "stateMutability": "view",
      "type": "function"
    },
    {
      "inputs": [
        {
          "internalType": "address",
          "name": "_user",
          "type": "address"
        },
        {
          "internalType": "uint256",
          "name": "_assetId",
          "type": "uint256"
        }
      ],
      "name": "yieldBoxShares",
      "outputs": [
        {
          "internalType": "uint256",
          "name": "",
          "type": "uint256"
        }
      ],
      "stateMutability": "view",
      "type": "function"
    }
  ],
  "transactionHash": "0x35dd27de207e9a1ab35d46da06e8cfca6ed8301a9319c22c01855695b3eb5432",
  "args": [],
  "numDeployments": 1,
  "solcInputHash": "00159a693e7dec675ccf3b4367e7c901",
  "bytecode": "0x60c060405234801561001057600080fd5b50600080546001600160a01b0319163390811782556040519091907f8be0079c531659141344cd1fd0a4f28419497f9722a3daafe3b4186f6b6457e0908290a34660a08190526100b390604080517f47e79534a245952e8b16893a336b85a3d9ea9fa8c573f3d803afb92a794692186020820152908101829052306060820152600090608001604051602081830303815290604052805190602001209050919050565b60805260805160a051615451620000dc6000396000613cfa01526000613d2b01526154516000f3fe6080604052600436106104315760003560e01c8063735312e511610229578063c9621f3b1161012e578063de406577116100b6578063f4d937531161007a578063f4d9375314610d73578063f8974de014610d93578063f8ba4cff14610db3578063f9557ccb14610dc8578063fa74f0b514610df357600080fd5b8063de40657714610cc2578063e30c397814610ce2578063e985e9c514610d02578063ec7eb7e914610d3d578063eec0f42e14610d5d57600080fd5b8063d505accf116100fd578063d505accf14610c17578063d8dfeb4514610c37578063db8f314414610c57578063dd62ed3e14610c77578063dd63b28a14610caf57600080fd5b8063c9621f3b14610b9c578063cce19f8114610bb2578063cd0211eb14610bd2578063ce8849ed14610bf257600080fd5b806395d89b41116101b1578063ae70702e11610180578063ae70702e14610ab9578063b0e21e8a14610ad9578063b27c0e7414610aef578063bfddb11914610b5c578063c23ea21f14610b7c57600080fd5b806395d89b4114610a36578063a9059cbb14610a4b578063aa7d966514610a6b578063abec5f1d14610a9957600080fd5b80637dc0d1d0116101f85780637dc0d1d0146109685780637ecebe00146109885780638285ef40146109b55780638da5cb5b14610a00578063959916dc14610a2057600080fd5b8063735312e5146108f3578063745428811461091357806374645ff314610933578063787dce3d1461094857600080fd5b806340626d8b1161033a578063529898f2116102c25780636587adb8116102865780636587adb8146108465780636c3d8b8f146108665780636cfea4341461088657806370a08231146108a6578063717186d1146108d357600080fd5b8063529898f2146107b157806353aa7dcd146107c75780635906c270146107e75780635c975abb146108075780635d5f73ef1461082157600080fd5b80634d7f2a34116103095780634d7f2a34146107115780634ddf47d4146107275780634e71e0c8146107475780635100b5671461075c5780635224372c1461077c57600080fd5b806340626d8b146106a257806344de240a146106b8578063473e3ce7146106ce57806348e4163e146106e457600080fd5b806323b872dd116103bd57806334d441d01161038c57806334d441d0146106095780633644e5151461061f57806338d52e0f146106345780633ba0b9a91461066c5780633edb17891461068257600080fd5b806323b872dd1461058257806325be7824146105a2578063313ce567146105c2578063320ec13e146105e957600080fd5b80630fde08e3116104045780630fde08e3146104db57806311a21b2c146104fb57806318160ddd146105105780631c9e379b1461053f5780631e7ce4481461056c57600080fd5b806302ce728f1461043657806306fdde0314610467578063078dfbe714610489578063095ea7b3146104ab575b600080fd5b34801561044257600080fd5b5061044b610e13565b6040805192151583526020830191909152015b60405180910390f35b34801561047357600080fd5b5061047c610ee9565b60405161045e9190614584565b34801561049557600080fd5b506104a96104a43660046145bd565b610fc1565b005b3480156104b757600080fd5b506104cb6104c6366004614608565b6110d9565b604051901515815260200161045e565b3480156104e757600080fd5b506104a96104f6366004614634565b611145565b34801561050757600080fd5b506104a96115b4565b34801561051c57600080fd5b50600f54600160801b90046001600160801b03165b60405190815260200161045e565b34801561054b57600080fd5b5061053161055a366004614675565b60136020526000908152604090205481565b34801561057857600080fd5b50610531601d5481565b34801561058e57600080fd5b506104cb61059d366004614692565b6116fe565b3480156105ae57600080fd5b506104a96105bd3660046146d3565b61190a565b3480156105ce57600080fd5b506105d7611985565b60405160ff909116815260200161045e565b3480156105f557600080fd5b506104a9610604366004614675565b6119a2565b34801561061557600080fd5b5061053160195481565b34801561062b57600080fd5b50610531611a28565b34801561064057600080fd5b50600a54610654906001600160a01b031681565b6040516001600160a01b03909116815260200161045e565b34801561067857600080fd5b5061053160165481565b34801561068e57600080fd5b506104a961069d3660046147b0565b611a32565b3480156106ae57600080fd5b5061053160115481565b3480156106c457600080fd5b50610531600c5481565b3480156106da57600080fd5b50610531600e5481565b3480156106f057600080fd5b506105316106ff366004614675565b60146020526000908152604090205481565b34801561071d57600080fd5b50610531601f5481565b34801561073357600080fd5b506104a961074236600461488a565b611a6c565b34801561075357600080fd5b506104a9611d1d565b34801561076857600080fd5b506104a96107773660046148cb565b611dda565b34801561078857600080fd5b5061079c610797366004614692565b611e2c565b6040805192835260208301919091520161045e565b3480156107bd57600080fd5b50610531601c5481565b3480156107d357600080fd5b506104a96107e23660046148cb565b611e8f565b3480156107f357600080fd5b506104a9610802366004614675565b611ee1565b34801561081357600080fd5b50600d546104cb9060ff1681565b34801561082d57600080fd5b506021546106549061010090046001600160a01b031681565b34801561085257600080fd5b506105316108613660046146d3565b611f3d565b34801561087257600080fd5b50600654610654906001600160a01b031681565b34801561089257600080fd5b50602254610654906001600160a01b031681565b3480156108b257600080fd5b506105316108c1366004614675565b60026020526000908152604090205481565b3480156108df57600080fd5b506104a96108ee3660046148cb565b611ff5565b3480156108ff57600080fd5b506104a961090e3660046148cb565b612083565b34801561091f57600080fd5b506104a961092e366004614675565b6120d5565b34801561093f57600080fd5b5061047c6121d7565b34801561095457600080fd5b506104a96109633660046148cb565b612265565b34801561097457600080fd5b50601754610654906001600160a01b031681565b34801561099457600080fd5b506105316109a3366004614675565b60046020526000908152604090205481565b3480156109c157600080fd5b506010546109e0906001600160801b0380821691600160801b90041682565b604080516001600160801b0393841681529290911660208301520161045e565b348015610a0c57600080fd5b50600054610654906001600160a01b031681565b348015610a2c57600080fd5b50610531601b5481565b348015610a4257600080fd5b5061047c6122b7565b348015610a5757600080fd5b506104cb610a66366004614608565b61237b565b348015610a7757600080fd5b50610a8b610a863660046148e4565b6124c0565b60405161045e92919061492f565b348015610aa557600080fd5b506104a9610ab43660046148cb565b612674565b348015610ac557600080fd5b50610531610ad4366004614608565b6126c6565b348015610ae557600080fd5b50610531601a5481565b348015610afb57600080fd5b50600554610b2d906001600160401b0380821691600160401b810490911690600160801b90046001600160801b031683565b604080516001600160401b0394851681529390921660208401526001600160801b03169082015260600161045e565b348015610b6857600080fd5b506104a9610b773660046148cb565b612779565b348015610b8857600080fd5b50600854610654906001600160a01b031681565b348015610ba857600080fd5b50610531601e5481565b348015610bbe57600080fd5b506104a9610bcd366004614692565b6127a8565b348015610bde57600080fd5b50610531610bed3660046146d3565b6127e7565b348015610bfe57600080fd5b50600d546106549061010090046001600160a01b031681565b348015610c2357600080fd5b506104a9610c323660046149d8565b612843565b348015610c4357600080fd5b50600954610654906001600160a01b031681565b348015610c6357600080fd5b50610531610c72366004614608565b612a96565b348015610c8357600080fd5b50610531610c92366004614a49565b600360209081526000928352604080842090915290825290205481565b6104a9610cbd366004614afa565b612b0c565b348015610cce57600080fd5b50600754610654906001600160a01b031681565b348015610cee57600080fd5b50600154610654906001600160a01b031681565b348015610d0e57600080fd5b506104cb610d1d366004614a49565b601560209081526000928352604080842090915290825290205460ff1681565b348015610d4957600080fd5b506104a9610d583660046148cb565b612df7565b348015610d6957600080fd5b50610531600b5481565b348015610d7f57600080fd5b50610531610d8e366004614692565b612e26565b348015610d9f57600080fd5b506104a9610dae366004614bdc565b612ede565b348015610dbf57600080fd5b506104a9612fd2565b348015610dd457600080fd5b50600f546109e0906001600160801b0380821691600160801b90041682565b348015610dff57600080fd5b506104a9610e0e366004614675565b613582565b60175460405163d6d7d52560e01b815260009182916001600160a01b039091169063d6d7d52590610e4990601890600401614c34565b6040805180830381600087803b158015610e6257600080fd5b505af1158015610e76573d6000803e3d6000fd5b505050506040513d601f19601f82011682018060405250810190610e9a9190614cdc565b90925090508115610ee15760168190556040518181527f9f9192b5edb17356c524e08d9e025c8e2f6307e6ea52fb7968faa3081f51c3c89060200160405180910390a19091565b506016549091565b600954606090610f01906001600160a01b0316613662565b600a54610f16906001600160a01b0316613662565b60175460405163355a219b60e21b81526001600160a01b039091169063d568866c90610f4790601890600401614c34565b60006040518083038186803b158015610f5f57600080fd5b505afa158015610f73573d6000803e3d6000fd5b505050506040513d6000823e601f3d908101601f19168201604052610f9b9190810190614d0a565b604051602001610fad93929190614d77565b604051602081830303815290604052905090565b6000546001600160a01b03163314610ff45760405162461bcd60e51b8152600401610feb90614df6565b60405180910390fd5b81156110b7576001600160a01b03831615158061100e5750805b6110525760405162461bcd60e51b81526020600482015260156024820152744f776e61626c653a207a65726f206164647265737360581b6044820152606401610feb565b600080546040516001600160a01b03808716939216917f8be0079c531659141344cd1fd0a4f28419497f9722a3daafe3b4186f6b6457e091a3600080546001600160a01b0385166001600160a01b031991821617909155600180549091169055505050565b600180546001600160a01b0385166001600160a01b0319909116179055505050565b3360008181526003602090815260408083206001600160a01b038716808552925280832085905551919290917f8c5be1e5ebec7d5bd14f71427d1e84f3dd0314c0f7b2291e5b200ac8c7c3b925906111349086815260200190565b60405180910390a350600192915050565b600554600160801b90046001600160801b031615611165576111656115b4565b600654604051634656bfdf60e11b81526001600160a01b03848116600483015290911690638cad7fbe9060240160206040518083038186803b1580156111aa57600080fd5b505afa1580156111be573d6000803e3d6000fd5b505050506040513d601f19601f820116820180604052508101906111e29190614e2b565b6112255760405162461bcd60e51b815260206004820152601460248201527329a3a61d1024b73b30b634b21039bbb0b83832b960611b6044820152606401610feb565b60065460408051622fcfcb60e31b815290516000926001600160a01b03169163017e7e58916004808301926020929190829003018186803b15801561126957600080fd5b505afa15801561127d573d6000803e3d6000fd5b505050506040513d601f19601f820116820180604052508101906112a19190614e48565b6001600160a01b038116600090815260026020526040812054919250906112cc90839030908461371d565b9050806112d95750505050565b6006546040805163017ae8d160e11b815290516000926001600160a01b0316916302f5d1a2916004808301926020929190829003018186803b15801561131e57600080fd5b505afa158015611332573d6000803e3d6000fd5b505050506040513d601f19601f820116820180604052508101906113569190614e65565b9050600081600c541461150957600754600c54604051630208d92960e11b81526001600160a01b0390921691630411b2529161139a9130918b918990600401614e7e565b600060405180830381600087803b1580156113b457600080fd5b505af11580156113c8573d6000803e3d6000fd5b50505050856001600160a01b03166355a68e10600c54600660009054906101000a90046001600160a01b03166001600160a01b03166302f5d1a26040518163ffffffff1660e01b815260040160206040518083038186803b15801561142c57600080fd5b505afa158015611440573d6000803e3d6000fd5b505050506040513d601f19601f820116820180604052508101906114649190614e65565b86888a35611470613a9f565b6040516020016114809190614ea7565b6040516020818303038152906040526040518763ffffffff1660e01b81526004016114b096959493929190614ef4565b6040805180830381600087803b1580156114c957600080fd5b505af11580156114dd573d6000803e3d6000fd5b505050506040513d601f19601f820116820180604052508101906115019190614f39565b509050611573565b600754600c54604051630208d92960e11b81526001600160a01b0390921691630411b2529161154091309189918990600401614e7e565b600060405180830381600087803b15801561155a57600080fd5b505af115801561156e573d6000803e3d6000fd5b505050505b60408051848152602081018390527fa4fef2aee55b8c5258b39e504f59d0fb9960865de9cc847e769cd282b6769363910160405180910390a1505050505050565b6115bc612fd2565b60065460408051622fcfcb60e31b815290516000926001600160a01b03169163017e7e58916004808301926020929190829003018186803b15801561160057600080fd5b505afa158015611614573d6000803e3d6000fd5b505050506040513d601f19601f820116820180604052508101906116389190614e48565b6005546001600160a01b03821660009081526002602052604081208054939450600160801b9092046001600160801b03169283929190611679908490614f73565b90915550506040518181526001600160a01b038316906000906000805160206153fc8339815191529060200160405180910390a3600580546001600160801b031690556040518181526001600160a01b038316907fbe641c3ffc44b2d6c184f023fa4ed7bda4b6ffa71e03b3c98ae0c776da1f17e79060200160405180910390a25050565b600081156118c5576001600160a01b038416600090815260026020526040902054828110156117685760405162461bcd60e51b815260206004820152601660248201527545524332303a2062616c616e636520746f6f206c6f7760501b6044820152606401610feb565b836001600160a01b0316856001600160a01b0316146118c3576001600160a01b0385166000908152600360209081526040808320338452909152902054600019811461182d57838110156117fe5760405162461bcd60e51b815260206004820152601860248201527f45524332303a20616c6c6f77616e636520746f6f206c6f7700000000000000006044820152606401610feb565b6118088482614f8b565b6001600160a01b03871660009081526003602090815260408083203384529091529020555b6001600160a01b03851661187c5760405162461bcd60e51b815260206004820152601660248201527545524332303a206e6f207a65726f206164647265737360501b6044820152606401610feb565b6118868483614f8b565b6001600160a01b0380881660009081526002602052604080822093909355908716815290812080548692906118bc908490614f73565b9091555050505b505b826001600160a01b0316846001600160a01b03166000805160206153fc833981519152846040516118f891815260200190565b60405180910390a35060019392505050565b6040516001600160a01b0380861660248301528416604482015282151560648201526084810182905261197e9060019063096f9e0960e21b9060a4015b60408051601f198184030181529190526020810180516001600160e01b03166001600160e01b031990931692909217909152613ba1565b5050505050565b600a5460009061199d906001600160a01b0316613c3e565b905090565b6000546001600160a01b031633146119cc5760405162461bcd60e51b8152600401610feb90614df6565b60085460405163575939f960e01b81526001600160a01b0383811660048301529091169063575939f9906024015b600060405180830381600087803b158015611a1457600080fd5b505af115801561197e573d6000803e3d6000fd5b600061199d613cf6565b611a606002633edb178960e01b8b8b8b8b8b8b8b8b8b60405160240161194799989796959493929190614fcb565b50505050505050505050565b60215460ff1615611ab25760405162461bcd60e51b815260206004820152601060248201526f14d1d30e881a5b9a5d1a585b1a5e995960821b6044820152606401610feb565b60008080808080808080611ac88a8c018c61509a565b98509850985098509850985098509850985088602160016101000a8154816001600160a01b0302191690836001600160a01b0316021790555087602260006101000a8154816001600160a01b0302191690836001600160a01b0316021790555086600660006101000a8154816001600160a01b0302191690836001600160a01b03160217905550866001600160a01b031663de4065776040518163ffffffff1660e01b815260040160206040518083038186803b158015611b8857600080fd5b505afa158015611b9c573d6000803e3d6000fd5b505050506040513d601f19601f82011682018060405250810190611bc09190614e48565b600780546001600160a01b039283166001600160a01b03199182161790915560065460008054909216908316179055841615801590611c0757506001600160a01b03861615155b8015611c1b57506001600160a01b03821615155b611c575760405162461bcd60e51b815260206004820152600d60248201526c29a3a61d103130b2103830b4b960991b6044820152606401610feb565b600a80546001600160a01b038089166001600160a01b03199283161790925560098054878416908316179055600c879055600b85905560178054928516929091169190911790556005805467ffffffffffffffff19166312e687c0179055611cbd610e13565b50506103e8601955612710601a556032601b556201b580601c556201f018601d55620124f8601e556161a8601f5580611cfe57670de0b6b3a7640000611d00565b805b60205550506021805460ff19166001179055505050505050505050565b6001546001600160a01b0316338114611d785760405162461bcd60e51b815260206004820181905260248201527f4f776e61626c653a2063616c6c657220213d2070656e64696e67206f776e65726044820152606401610feb565b600080546040516001600160a01b03808516939216917f8be0079c531659141344cd1fd0a4f28419497f9722a3daafe3b4186f6b6457e091a3600080546001600160a01b039092166001600160a01b0319928316179055600180549091169055565b6000546001600160a01b03163314611e045760405162461bcd60e51b8152600401610feb90614df6565b620186a0811115611e275760405162461bcd60e51b8152600401610feb9061513b565b601b55565b6040516001600160a01b038085166024830152831660448201526064810182905260009081908190611e6c906001906314890dcb60e21b90608401611947565b905080806020019051810190611e829190614f39565b9097909650945050505050565b6000546001600160a01b03163314611eb95760405162461bcd60e51b8152600401610feb90614df6565b620186a0811115611edc5760405162461bcd60e51b8152600401610feb9061513b565b601955565b6000546001600160a01b03163314611f0b5760405162461bcd60e51b8152600401610feb90614df6565b60085460405163036252c960e41b81526001600160a01b038381166004830152909116906336252c90906024016119fa565b600d5460009060ff1615611f635760405162461bcd60e51b8152600401610feb90615163565b846001600160a01b0381163314801590611fa857506001600160a01b038116600090815260026020908152604080832054600383528184203385529092529091205411155b15611fd757604051630ca03e9b60e11b81526001600160a01b0382166004820152336024820152604401610feb565b611fdf612fd2565b611feb86868686613d4d565b9695505050505050565b600d5460ff16156120185760405162461bcd60e51b8152600401610feb90615163565b6000546001600160a01b031633146120425760405162461bcd60e51b8152600401610feb90614df6565b60115460408051918252602082018390527fae6e0ab3b95f0a53ff9660a390ccedcbbf1f2355dce974a9841af106fddcfaba910160405180910390a1601155565b6000546001600160a01b031633146120ad5760405162461bcd60e51b8152600401610feb90614df6565b620186a08111156120d05760405162461bcd60e51b8152600401610feb9061513b565b601f55565b6000546001600160a01b031633146120ff5760405162461bcd60e51b8152600401610feb90614df6565b806001600160a01b03166307be4daf6040518163ffffffff1660e01b815260040160206040518083038186803b15801561213857600080fd5b505afa15801561214c573d6000803e3d6000fd5b505050506040513d601f19601f820116820180604052508101906121709190614e2b565b6121b55760405162461bcd60e51b815260206004820152601660248201527514d1d30e881314481b9bdd081a5b9a5d185b1a5e995960521b6044820152606401610feb565b600880546001600160a01b0319166001600160a01b0392909216919091179055565b601880546121e490614bf9565b80601f016020809104026020016040519081016040528092919081815260200182805461221090614bf9565b801561225d5780601f106122325761010080835404028352916020019161225d565b820191906000526020600020905b81548152906001019060200180831161224057829003601f168201915b505050505081565b6000546001600160a01b0316331461228f5760405162461bcd60e51b8152600401610feb90614df6565b620186a08111156122b25760405162461bcd60e51b8152600401610feb9061513b565b601a55565b6009546060906122cf906001600160a01b0316613f90565b600a546122e4906001600160a01b0316613f90565b60175460405163634ce26b60e11b81526001600160a01b039091169063c699c4d69061231590601890600401614c34565b60006040518083038186803b15801561232d57600080fd5b505afa158015612341573d6000803e3d6000fd5b505050506040513d6000823e601f3d908101601f191682016040526123699190810190614d0a565b604051602001610fad93929190615188565b6000811515806123935750336001600160a01b038416145b156124955733600090815260026020526040902054828110156123f15760405162461bcd60e51b815260206004820152601660248201527545524332303a2062616c616e636520746f6f206c6f7760501b6044820152606401610feb565b336001600160a01b03851614612493576001600160a01b0384166124505760405162461bcd60e51b815260206004820152601660248201527545524332303a206e6f207a65726f206164647265737360501b6044820152606401610feb565b61245a8382614f8b565b33600090815260026020526040808220929092556001600160a01b0386168152908120805485929061248d908490614f73565b90915550505b505b6040518281526001600160a01b0384169033906000805160206153fc83398151915290602001611134565b606080836001600160401b038111156124db576124db614a82565b604051908082528060200260200182016040528015612504578160200160208202803683370190505b509150836001600160401b0381111561251f5761251f614a82565b60405190808252806020026020018201604052801561255257816020015b606081526020019060019003908161253d5790505b50905060005b8481101561266b5760008030888885818110612576576125766151f5565b9050602002810190612588919061520b565b604051612596929190615251565b600060405180830381855af49150503d80600081146125d1576040519150601f19603f3d011682016040523d82523d6000602084013e6125d6565b606091505b509150915081806125e5575085155b6125ee82613fd7565b9061260c5760405162461bcd60e51b8152600401610feb9190614584565b5081858481518110612620576126206151f5565b9115156020928302919091019091015261263981613fd7565b84848151811061264b5761264b6151f5565b60200260200101819052505050808061266390615261565b915050612558565b50935093915050565b6000546001600160a01b0316331461269e5760405162461bcd60e51b8152600401610feb90614df6565b620186a08111156126c15760405162461bcd60e51b8152600401610feb9061513b565b601e55565b6001600160a01b038281166000818152601260209081526040808320868452909152808220546007549151627eeac760e11b81526004810194909452602484018690529193919291169062fdd58e9060440160206040518083038186803b15801561273057600080fd5b505afa158015612744573d6000803e3d6000fd5b505050506040513d601f19601f820116820180604052508101906127689190614e65565b6127729190614f73565b9392505050565b6000546001600160a01b031633146127a35760405162461bcd60e51b8152600401610feb90614df6565b601d55565b6040516001600160a01b03808516602483015283166044820152606481018290526127e19060019063cce19f8160e01b90608401611947565b50505050565b6040516001600160a01b03808616602483015284166044820152821515606482015260848101829052600090819061282d9060019063cd0211eb60e01b9060a401611947565b905080806020019051810190611feb9190614e65565b6001600160a01b0387166128995760405162461bcd60e51b815260206004820152601860248201527f45524332303a204f776e65722063616e6e6f74206265203000000000000000006044820152606401610feb565b8342106128d95760405162461bcd60e51b815260206004820152600e60248201526d115490cc8c0e88115e1c1a5c995960921b6044820152606401610feb565b6001600160a01b03871660008181526004602052604081208054600192612983927f6e71edae12b1b97f4d1f60370fef10105fa2faae0126114a169c64845d6126c9928d928d928d929161292c83615261565b909155506040805160208101969096526001600160a01b0394851690860152929091166060840152608083015260a082015260c0810188905260e00160405160208183030381529060405280519060200120614032565b6040805160008152602081018083529290925260ff871690820152606081018590526080810184905260a0016020604051602081039080840390855afa1580156129d1573d6000803e3d6000fd5b505050602060405103516001600160a01b031614612a315760405162461bcd60e51b815260206004820152601860248201527f45524332303a20496e76616c6964205369676e617475726500000000000000006044820152606401610feb565b6001600160a01b038781166000818152600360209081526040808320948b168084529482529182902089905590518881527f8c5be1e5ebec7d5bd14f71427d1e84f3dd0314c0f7b2291e5b200ac8c7c3b925910160405180910390a350505050505050565b604080516001600160a01b038416602482015260448082018490528251808303909101815260649091019091526020810180516001600160e01b03166336e3cc5160e21b1790526000908190612aee90600290614087565b905080806020019051810190612b049190614e65565b949350505050565b600a546040516301ffc9a760e01b81526328c82b1b60e11b60048201526001600160a01b03909116906301ffc9a79060240160206040518083038186803b158015612b5657600080fd5b505afa925050508015612b86575060408051601f3d908101601f19168201909252612b8391810190614e2b565b60015b612b8f57612def565b50600754600c54604051627eeac760e11b8152336004820152602481018290526000926001600160a01b03169163442c159991839062fdd58e9060440160206040518083038186803b158015612be457600080fd5b505afa158015612bf8573d6000803e3d6000fd5b505050506040513d601f19601f82011682018060405250810190612c1c9190614e65565b6040516001600160e01b031960e085901b168152600481019290925260248201526000604482015260640160206040518083038186803b158015612c5f57600080fd5b505afa158015612c73573d6000803e3d6000fd5b505050506040513d601f19601f82011682018060405250810190612c979190614e65565b905084811015612cde5760405162461bcd60e51b815260206004820152601260248201527153474c3a206e6f7420617661696c61626c6560701b6044820152606401610feb565b600754600c546040516311a5cc7760e31b8152600481019190915233602482015230604482015260648101879052600060848201526001600160a01b0390911690638d2e63b89060a4016040805180830381600087803b158015612d4157600080fd5b505af1158015612d55573d6000803e3d6000fd5b505050506040513d601f19601f82011682018060405250810190612d799190614f39565b5050600a546040516328c82b1b60e11b81526001600160a01b03909116906351905636903490612dbb9030908c908c908c908a9033908e908e9060040161527c565b6000604051808303818588803b158015612dd457600080fd5b505af1158015612de8573d6000803e3d6000fd5b5050505050505b505050505050565b6000546001600160a01b03163314612e215760405162461bcd60e51b8152600401610feb90614df6565b601c55565b600d5460009060ff1615612e4c5760405162461bcd60e51b8152600401610feb90615163565b836001600160a01b0381163314801590612e9157506001600160a01b038116600090815260026020908152604080832054600383528184203385529092529091205411155b15612ec057604051630ca03e9b60e11b81526001600160a01b0382166004820152336024820152604401610feb565b612ec8612fd2565b612ed5858585600161371d565b95945050505050565b600d5461010090046001600160a01b03163314612f315760405162461bcd60e51b815260206004820152601160248201527014d1d30e881d5b985d5d1a1bdc9a5e9959607a1b6044820152606401610feb565b600d5460ff1615158115151415612f7c5760405162461bcd60e51b815260206004820152600f60248201526e53474c3a2073616d6520737461746560881b6044820152606401610feb565b600d546040805160ff9092161515825282151560208301527f9c13c5f6c628c1c82eb2b3fd8714da5c2857dbd0ad8ab6b2074abcf81015d396910160405180910390a1600d805460ff1916911515919091179055565b604080516060810182526005546001600160401b038082168352600160401b82041660208301819052600160801b9091046001600160801b031692820192909252906000906130219042614f8b565b90508061302c575050565b6001600160401b034216602080840191909152604080518082019091526010546001600160801b038082168352600160801b90910416918101829052906131275782516001600160401b03166312e687c0146130d4576312e687c0808452604080516000808252602082018190529181019290925260608201527f33af5ce86e8438eff54589f85332916444457dfa8685493fbd579b809097026b9060800160405180910390a15b505080516005805460208401516040909401516001600160801b03908116600160801b026001600160401b03958616600160401b026001600160801b031990931695909416949094171792909216179055565b60408051808201909152600f546001600160801b038082168352600160801b909104811660208301528451835160009384939092670de0b6b3a764000092889261317b926001600160401b031691166152d1565b61318591906152d1565b61318f91906152f0565b925082846000018181516131a39190615312565b6001600160801b039081169091528551600754600c54855160405163442c159960e01b8152600481019290925284166024820152600060448201819052945091909216916001600160a01b03169063442c15999060640160206040518083038186803b15801561321257600080fd5b505afa158015613226573d6000803e3d6000fd5b505050506040513d601f19601f8201168201806040525081019061324a9190614e65565b6132549190614f73565b90506000620186a0601a548661326a91906152d1565b61327491906152f0565b90508183602001516001600160801b03168261329091906152d1565b61329a91906152f0565b935083886040018181516132ae9190615312565b6001600160801b031690525060208301516132ca908590615312565b600f80546001600160801b03908116600160801b9382168402179091558751602089015190821691169091028117601055600090839061331390670de0b6b3a7640000906152d1565b61331d91906152f0565b90506709b6e64a8ec600008110156133ee5760006709b6e64a8ec60000670de0b6b3a764000061334d8483614f8b565b61335791906152d1565b61336191906152f0565b905060008961337083806152d1565b61337a91906152d1565b613393906b0a9456c7acbaf3a129576cd1602b1b614f73565b9050806b0a9456c7acbaf3a129576cd1602b1b8c600001516001600160401b03166133be91906152d1565b6133c891906152f0565b6001600160401b0316808c526304b9a1f011156133e7576304b9a1f08b525b50506134d7565b670b1a2bc2ec5000008111156134d757600061341a670b1a2bc2ec500000670de0b6b3a7640000614f8b565b670de0b6b3a7640000613435670b1a2bc2ec50000085614f8b565b61343f91906152d1565b61344991906152f0565b905060008961345883806152d1565b61346291906152d1565b61347b906b0a9456c7acbaf3a129576cd1602b1b614f73565b905060006b0a9456c7acbaf3a129576cd1602b1b828d600001516001600160401b03166134a891906152d1565b6134b291906152f0565b90506449d48246008111156134c957506449d48246005b6001600160401b03168b5250505b885160408051888152602081018890526001600160401b039092168282015260608201839052517f33af5ce86e8438eff54589f85332916444457dfa8685493fbd579b809097026b9181900360800190a1505086516005805460208a01516040909a01516001600160801b03908116600160801b026001600160401b039b8c16600160401b026001600160801b03199093169b9094169a909a17179890981617909655505050505050565b6000546001600160a01b031633146135ac5760405162461bcd60e51b8152600401610feb90614df6565b6001600160a01b0381166135fb5760405162461bcd60e51b815260206004820152601660248201527514d1d30e881859191c995cdcc81b9bdd081d985b1a5960521b6044820152606401610feb565b600d546040516001600160a01b0380841692610100900416907f5a62d22209e370e38eea92cfddcd228e656e6ec139243392a760a7769f5877fd90600090a3600d80546001600160a01b0390921661010002610100600160a81b0319909216919091179055565b60408051600481526024810182526020810180516001600160e01b03166306fdde0360e01b179052905160609160009182916001600160a01b038616916136a9919061533d565b600060405180830381855afa9150503d80600081146136e4576040519150601f19603f3d011682016040523d82523d6000602084013e6136e9565b606091505b50915091508161371457604051806040016040528060038152602001623f3f3f60e81b815250612b04565b612b04816140eb565b600f54600090600160801b90046001600160801b031661373f57506000612b04565b604080518082018252600f546001600160801b038082168352600160801b90910481166020830152600754600c546010549451638eb22cdd60e01b815260048101919091529390911660248401526001604484015290916000916001600160a01b031690638eb22cdd9060640160206040518083038186803b1580156137c457600080fd5b505afa1580156137d8573d6000803e3d6000fd5b505050506040513d601f19601f820116820180604052508101906137fc9190614e65565b825161381191906001600160801b0316614f73565b60208301519091506001600160801b031661382c82876152d1565b61383691906152f0565b6001600160a01b038816600090815260026020526040812080549295508792909190613863908490614f8b565b90915550506040518581526000906001600160a01b038916906000805160206153fc8339815191529060200160405180910390a382826000018181516138a99190615359565b6001600160801b03169052506020820180518691906138c9908390615359565b6001600160801b0390811690915260208401516103e89116101590506139225760405162461bcd60e51b815260206004820152600e60248201526d14d1d30e881b5a5b881b1a5b5a5d60921b6044820152606401610feb565b815160208301516001600160801b03908116600160801b02911617600f556040516001600160a01b0380881691908916907f6e853a5fd6b51d773691f542ebac8513c9992a51380d4c342031056a641142289061398b9087908a90918252602082015260400190565b60405180910390a3600754600c54604051630208d92960e11b81526001600160a01b0390921691630411b252916139ca9130918b918990600401614e7e565b600060405180830381600087803b1580156139e457600080fd5b505af11580156139f8573d6000803e3d6000fd5b505050508315613a95576001600160a01b0387166000908152601260209081526040808320600c548452909152902054831115613a5a576001600160a01b0387166000908152601260209081526040808320600c548452909152812055613a95565b6001600160a01b0387166000908152601260209081526040808320600c54845290915281208054859290613a8f908490614f8b565b90915550505b5050949350505050565b60408051600280825260608083018452926020830190803683375050600a5482519293506001600160a01b031691839150600090613adf57613adf6151f5565b6001600160a01b03928316602091820292909201810191909152600654604080516325abd85f60e11b815290519190931692634b57b0be926004808301939192829003018186803b158015613b3357600080fd5b505afa158015613b47573d6000803e3d6000fd5b505050506040513d601f19601f82011682018060405250810190613b6b9190614e48565b81600181518110613b7e57613b7e6151f5565b60200260200101906001600160a01b031690816001600160a01b03168152505090565b606060016000613bb08561426e565b9050806001600160a01b031684604051613bca919061533d565b600060405180830381855af49150503d8060008114613c05576040519150601f19603f3d011682016040523d82523d6000602084013e613c0a565b606091505b509350915081613c3657613c1d83613fd7565b60405162461bcd60e51b8152600401610feb9190614584565b505092915050565b60408051600481526024810182526020810180516001600160e01b031663313ce56760e01b1790529051600091829182916001600160a01b03861691613c84919061533d565b600060405180830381855afa9150503d8060008114613cbf576040519150601f19603f3d011682016040523d82523d6000602084013e613cc4565b606091505b5091509150818015613cd7575080516020145b613ce2576012612b04565b80806020019051810190612b049190615381565b60007f00000000000000000000000000000000000000000000000000000000000000004614613d285761199d46614316565b507f000000000000000000000000000000000000000000000000000000000000000090565b604080518082018252600f546001600160801b03808216808452600160801b90920481166020840152600754600c546010549551638eb22cdd60e01b815260048101919091529490911660248501526001604485015260009384916001600160a01b031690638eb22cdd9060640160206040518083038186803b158015613dd357600080fd5b505afa158015613de7573d6000803e3d6000fd5b505050506040513d601f19601f82011682018060405250810190613e0b9190614e65565b8351613e2091906001600160801b0316614f73565b90508015613e51578083602001516001600160801b031686613e4291906152d1565b613e4c91906152f0565b613e53565b845b93506103e8848460200151613e689190615312565b6001600160801b03161015613e835760009350505050612b04565b613e8e838686614357565b80516020918201516001600160801b03908116600160801b02911617600f556001600160a01b03881660009081526002909152604081208054869290613ed5908490614f73565b90915550506040518481526001600160a01b038816906000906000805160206153fc8339815191529060200160405180910390a3613f1888600c5487858a6143b1565b866001600160a01b031686613f2d5788613f3a565b6007546001600160a01b03165b6001600160a01b03167f30a8c4f9ab5af7e1309ca87c32377d1a83366c5990472dbf9d262450eae14e388787604051613f7d929190918252602082015260400190565b60405180910390a3505050949350505050565b60408051600481526024810182526020810180516001600160e01b03166395d89b4160e01b179052905160609160009182916001600160a01b038616916136a9919061533d565b606060448251101561401257505060408051808201909152601381527253474c3a206e6f2072657475726e206461746160681b602082015290565b6004820191508180602001905181019061402c9190614d0a565b92915050565b600060405180604001604052806002815260200161190160f01b815250614057613cf6565b8360405160200161406a9392919061539e565b604051602081830303815290604052805190602001209050919050565b6060600160006140968561426e565b9050806001600160a01b0316846040516140b0919061533d565b600060405180830381855afa9150503d8060008114613c05576040519150601f19603f3d011682016040523d82523d6000602084013e613c0a565b6060604082511061410a578180602001905181019061402c9190614d0a565b81516020141561424a5760005b60208160ff1610801561414c5750828160ff168151811061413a5761413a6151f5565b01602001516001600160f81b03191615155b15614163578061415b816153c5565b915050614117565b60008160ff166001600160401b0381111561418057614180614a82565b6040519080825280601f01601f1916602001820160405280156141aa576020820181803683370190505b509050600091505b60208260ff161080156141e75750838260ff16815181106141d5576141d56151f5565b01602001516001600160f81b03191615155b1561277257838260ff1681518110614201576142016151f5565b602001015160f81c60f81b818360ff1681518110614221576142216151f5565b60200101906001600160f81b031916908160001a90535081614242816153c5565b9250506141b2565b50506040805180820190915260038152623f3f3f60e81b602082015290565b919050565b6000806001836002811115614285576142856153e5565b141561429d57506022546001600160a01b03166142ca565b60028360028111156142b1576142b16153e5565b14156142ca575060215461010090046001600160a01b03165b6001600160a01b03811661402c5760405162461bcd60e51b815260206004820152601360248201527214d1d30e881b5bd91d5b19481b9bdd081cd95d606a1b6044820152606401610feb565b604080517f47e79534a245952e8b16893a336b85a3d9ea9fa8c573f3d803afb92a79469218602082015290810182905230606082015260009060800161406a565b6040805180820190915260008082526020820152828460000181815161437d9190615312565b6001600160801b031690525060208401805183919061439d908390615312565b6001600160801b0316905250929392505050565b6001600160a01b0385166000908152601260209081526040808320878452909152812080548592906143e4908490614f73565b909155505080156144bd57600754604051627eeac760e11b81523060048201526024810186905283916001600160a01b03169062fdd58e9060440160206040518083038186803b15801561443757600080fd5b505afa15801561444b573d6000803e3d6000fd5b505050506040513d601f19601f8201168201806040525081019061446f9190614e65565b6144799190614f8b565b8311156144b85760405162461bcd60e51b815260206004820152600d60248201526c0a68e987440e8dede40daeac6d609b1b6044820152606401610feb565b61197e565b600754604051630208d92960e11b81526001600160a01b0390911690630411b252906144f3908890309089908990600401614e7e565b600060405180830381600087803b15801561450d57600080fd5b505af1158015614521573d6000803e3d6000fd5b505050505050505050565b60005b8381101561454757818101518382015260200161452f565b838111156127e15750506000910152565b6000815180845261457081602086016020860161452c565b601f01601f19169290920160200192915050565b6020815260006127726020830184614558565b6001600160a01b03811681146145ac57600080fd5b50565b80151581146145ac57600080fd5b6000806000606084860312156145d257600080fd5b83356145dd81614597565b925060208401356145ed816145af565b915060408401356145fd816145af565b809150509250925092565b6000806040838503121561461b57600080fd5b823561462681614597565b946020939093013593505050565b600080828403604081121561464857600080fd5b833561465381614597565b92506020601f198201121561466757600080fd5b506020830190509250929050565b60006020828403121561468757600080fd5b813561277281614597565b6000806000606084860312156146a757600080fd5b83356146b281614597565b925060208401356146c281614597565b929592945050506040919091013590565b600080600080608085870312156146e957600080fd5b84356146f481614597565b9350602085013561470481614597565b92506040850135614714816145af565b9396929550929360600135925050565b60008083601f84011261473657600080fd5b5081356001600160401b0381111561474d57600080fd5b6020830191508360208260051b850101111561476857600080fd5b9250929050565b60008083601f84011261478157600080fd5b5081356001600160401b0381111561479857600080fd5b60208301915083602082850101111561476857600080fd5b600080600080600080600080600060a08a8c0312156147ce57600080fd5b89356001600160401b03808211156147e557600080fd5b6147f18d838e01614724565b909b50995060208c013591508082111561480a57600080fd5b6148168d838e01614724565b909950975060408c0135915061482b82614597565b90955060608b0135908082111561484157600080fd5b61484d8d838e0161476f565b909650945060808c013591508082111561486657600080fd5b506148738c828d0161476f565b915080935050809150509295985092959850929598565b6000806020838503121561489d57600080fd5b82356001600160401b038111156148b357600080fd5b6148bf8582860161476f565b90969095509350505050565b6000602082840312156148dd57600080fd5b5035919050565b6000806000604084860312156148f957600080fd5b83356001600160401b0381111561490f57600080fd5b61491b86828701614724565b90945092505060208401356145fd816145af565b604080825283519082018190526000906020906060840190828701845b8281101561496a57815115158452928401929084019060010161494c565b50505083810382850152845180825282820190600581901b8301840187850160005b838110156149ba57601f198684030185526149a8838351614558565b9487019492509086019060010161498c565b50909998505050505050505050565b60ff811681146145ac57600080fd5b600080600080600080600060e0888a0312156149f357600080fd5b87356149fe81614597565b96506020880135614a0e81614597565b955060408801359450606088013593506080880135614a2c816149c9565b9699959850939692959460a0840135945060c09093013592915050565b60008060408385031215614a5c57600080fd5b8235614a6781614597565b91506020830135614a7781614597565b809150509250929050565b634e487b7160e01b600052604160045260246000fd5b604051601f8201601f191681016001600160401b0381118282101715614ac057614ac0614a82565b604052919050565b60006001600160401b03821115614ae157614ae1614a82565b50601f01601f191660200190565b803561426981614597565b60008060008060008060a08789031215614b1357600080fd5b863561ffff81168114614b2557600080fd5b955060208701356001600160401b0380821115614b4157600080fd5b818901915089601f830112614b5557600080fd5b8135614b68614b6382614ac8565b614a98565b8181528b6020838601011115614b7d57600080fd5b816020850160208301376000602083830101528098505050604089013595506060890135915080821115614bb057600080fd5b50614bbd89828a0161476f565b9094509250614bd0905060808801614aef565b90509295509295509295565b600060208284031215614bee57600080fd5b8135612772816145af565b600181811c90821680614c0d57607f821691505b60208210811415614c2e57634e487b7160e01b600052602260045260246000fd5b50919050565b600060208083526000845481600182811c915080831680614c5657607f831692505b858310811415614c7457634e487b7160e01b85526022600452602485fd5b878601838152602001818015614c915760018114614ca257614ccd565b60ff19861682528782019650614ccd565b60008b81526020902060005b86811015614cc757815484820152908501908901614cae565b83019750505b50949998505050505050505050565b60008060408385031215614cef57600080fd5b8251614cfa816145af565b6020939093015192949293505050565b600060208284031215614d1c57600080fd5b81516001600160401b03811115614d3257600080fd5b8201601f81018413614d4357600080fd5b8051614d51614b6382614ac8565b818152856020838501011115614d6657600080fd5b612ed582602083016020860161452c565b7302a30b834b7b1b09029b4b733bab630b934ba3c960651b815260008451614da681601485016020890161452c565b602f60f81b6014918401918201528451614dc781601584016020890161452c565b602d60f81b601592909101918201528351614de981601684016020880161452c565b0160160195945050505050565b6020808252818101527f4f776e61626c653a2063616c6c6572206973206e6f7420746865206f776e6572604082015260600190565b600060208284031215614e3d57600080fd5b8151612772816145af565b600060208284031215614e5a57600080fd5b815161277281614597565b600060208284031215614e7757600080fd5b5051919050565b6001600160a01b0394851681529290931660208301526040820152606081019190915260800190565b6020808252825182820181905260009190848201906040850190845b81811015614ee85783516001600160a01b031683529284019291840191600101614ec3565b50909695505050505050565b86815285602082015284604082015260018060a01b038416606082015282608082015260c060a08201526000614f2d60c0830184614558565b98975050505050505050565b60008060408385031215614f4c57600080fd5b505080516020909101519092909150565b634e487b7160e01b600052601160045260246000fd5b60008219821115614f8657614f86614f5d565b500190565b600082821015614f9d57614f9d614f5d565b500390565b81835281816020850137506000828201602090810191909152601f909101601f19169091010190565b60a0808252810189905260008a60c08301825b8c81101561500e578235614ff181614597565b6001600160a01b0316825260209283019290910190600101614fde565b5083810360208501528981526001600160fb1b038a111561502e57600080fd5b8960051b9150818b6020830137818101915050602081016000815261505e604085018a6001600160a01b03169052565b602084830301606085015261507481888a614fa2565b915050828103608084015261508a818587614fa2565b9c9b505050505050505050505050565b60008060008060008060008060006101208a8c0312156150b957600080fd5b89356150c481614597565b985060208a01356150d481614597565b975060408a01356150e481614597565b965060608a01356150f481614597565b955060808a0135945060a08a013561510b81614597565b935060c08a0135925060e08a013561512281614597565b809250506101008a013590509295985092959850929598565b6020808252600e908201526d14d1d30e881b9bdd081d985b1a5960921b604082015260600190565b6020808252600b908201526a14d1d30e881c185d5cd95960aa1b604082015260600190565b61746d60f01b8152600084516151a581600285016020890161452c565b602f60f81b60029184019182015284516151c681600384016020890161452c565b602d60f81b6003929091019182015283516151e881600484016020880161452c565b0160040195945050505050565b634e487b7160e01b600052603260045260246000fd5b6000808335601e1984360301811261522257600080fd5b8301803591506001600160401b0382111561523c57600080fd5b60200191503681900382131561476857600080fd5b8183823760009101908152919050565b600060001982141561527557615275614f5d565b5060010190565b600060018060a01b03808b16835261ffff8a16602084015260e060408401526152a860e084018a614558565b886060850152818816608085015281871660a085015283810360c085015261508a818688614fa2565b60008160001904831182151516156152eb576152eb614f5d565b500290565b60008261530d57634e487b7160e01b600052601260045260246000fd5b500490565b60006001600160801b0380831681851680830382111561533457615334614f5d565b01949350505050565b6000825161534f81846020870161452c565b9190910192915050565b60006001600160801b038381169083168181101561537957615379614f5d565b039392505050565b60006020828403121561539357600080fd5b8151612772816149c9565b600084516153b081846020890161452c565b91909101928352506020820152604001919050565b600060ff821660ff8114156153dc576153dc614f5d565b60010192915050565b634e487b7160e01b600052602160045260246000fdfeddf252ad1be2c89b69c2b068fc378daa952ba7f163c4a11628f55a4df523b3efa2646970667358221220794d9191d549322b92a19b78b48040ed13453d41c50e3966467b53f861cde27c64736f6c63430008090033",
  "devdoc": {
    "kind": "dev",
    "methods": {
      "addAsset(address,address,bool,uint256)": {
        "params": {
          "from": "Address to add asset from.",
          "share": "The amount of shares to add.",
          "skim": "True if the amount should be skimmed from the deposit balance of msg.sender. False if tokens from msg.sender in `yieldBox` should be transferred.",
          "to": "The address of the user to receive the assets."
        },
        "returns": {
          "fraction": "Total fractions added."
        }
      },
      "addCollateral(address,address,bool,uint256)": {
        "params": {
          "from": "Account to transfer shares from.",
          "share": "The amount of shares to add for `to`.",
          "skim": "True if the amount should be skimmed from the deposit balance of msg.sender. False if tokens from msg.sender in `yieldBox` should be transferred.",
          "to": "The receiver of the tokens."
        }
      },
      "approve(address,uint256)": {
        "params": {
          "amount": "The maximum collective amount that `spender` can draw.",
          "spender": "Address of the party that can draw from msg.sender's account."
        },
        "returns": {
          "_0": "(bool) Returns True if approved."
        }
      },
      "borrow(address,address,uint256)": {
        "params": {
          "amount": "Amount to borrow.",
          "from": "Account to borrow for.",
          "to": "The receiver of borrowed tokens."
        },
        "returns": {
          "part": "Total part of the debt held by borrowers.",
          "share": "Total amount in shares borrowed."
        }
      },
      "computeAssetAmountToSolvency(address,uint256)": {
        "details": "We use a `CLOSED_COLLATERIZATION_RATE` that is a safety buffer when making the user solvent again,      To prevent from being liquidated. This function is valid only if user is not solvent by `_isSolvent()`.",
        "params": {
          "_exchangeRate": "The exchange rate asset/collateral.",
          "user": "The user to check solvency."
        },
        "returns": {
          "amountToSolvency": "The amount of collateral to be solvent."
        }
      },
      "execute(bytes[],bool)": {
        "params": {
          "calls": "An array encoded call data.",
          "revertOnFail": "If True then reverts after a failed call and stops doing further calls."
        }
      },
      "liquidate(address[],uint256[],address,bytes,bytes)": {
        "details": "Will call `closedLiquidation()` if not LQ exists or no LQ bid avail exists. Otherwise use LQ.",
        "params": {
          "collateralToAssetSwapData": "Extra swap data        Ignore for `orderBookLiquidation()`",
          "maxBorrowParts": "A one-to-one mapping to `users`, contains maximum (partial) borrow amounts (to liquidate) of the respective user.        Ignore for `orderBookLiquidation()`",
          "swapper": "Contract address of the `MultiSwapper` implementation. See `setSwapper`.        Ignore for `orderBookLiquidation()`",
          "usdoToBorrowedSwapData": "Extra swap data        Ignore for `closedLiquidation()`",
          "users": "An array of user addresses."
        }
      },
      "permit(address,address,uint256,uint256,uint8,bytes32,bytes32)": {
        "params": {
          "deadline": "This permit must be redeemed before this deadline (UTC timestamp in seconds).",
          "owner_": "Address of the owner.",
          "spender": "The address of the spender that gets approved to draw from `owner_`.",
          "value": "The maximum collective amount that `spender` can draw."
        }
      },
      "removeAsset(address,address,uint256)": {
        "params": {
          "fraction": "The amount/fraction of assets held to remove.",
          "from": "Account to debit Assets from.",
          "to": "The user that receives the removed assets."
        },
        "returns": {
          "share": "The amount of shares transferred to `to`."
        }
      },
      "removeCollateral(address,address,uint256)": {
        "params": {
          "from": "Account to debit collateral from.",
          "share": "Amount of shares to remove.",
          "to": "The receiver of the shares."
        }
      },
      "repay(address,address,bool,uint256)": {
        "params": {
          "from": "Address to repay from.",
          "part": "The amount to repay. See `userBorrowPart`.",
          "skim": "True if the amount should be skimmed from the deposit balance of msg.sender. False if tokens from msg.sender in `yieldBox` should be transferred.",
          "to": "Address of the user this payment should go."
        },
        "returns": {
          "amount": "The total amount repayed."
        }
      },
      "setBorrowOpeningFee(uint256)": {
        "details": "can only be called by the owner",
        "params": {
          "_val": "the new value"
        }
      },
      "setCallerFee(uint256)": {
        "details": "can only be called by the owner",
        "params": {
          "_val": "the new value"
        }
      },
      "setClosedCollateralizationRate(uint256)": {
        "details": "can only be called by the owner",
        "params": {
          "_val": "the new value"
        }
      },
      "setConservator(address)": {
        "details": "Conservator can pause the contract",
        "params": {
          "_conservator": "The new address"
        }
      },
      "setLiquidationMultiplier(uint256)": {
        "details": "can only be called by the owner",
        "params": {
          "_val": "the new value"
        }
      },
      "setLiquidationQueue(address)": {
        "params": {
          "_liquidationQueue": "The address of the new LiquidationQueue contract."
        }
      },
      "setLqCollateralizationRate(uint256)": {
        "details": "can only be called by the owner",
        "params": {
          "_val": "the new value"
        }
      },
      "setOrderBookLiquidationMultiplier(uint256)": {
        "details": "can only be called by the owner",
        "params": {
          "_val": "the new value"
        }
      },
      "setProtocolFee(uint256)": {
        "details": "can only be called by the owner",
        "params": {
          "_val": "the new value"
        }
      },
      "transfer(address,uint256)": {
        "params": {
          "amount": "of the tokens to move.",
          "to": "The address to move the tokens."
        },
        "returns": {
          "_0": "(bool) Returns True if succeeded."
        }
      },
      "transferFrom(address,address,uint256)": {
        "params": {
          "amount": "The token amount to move.",
          "from": "Address to draw tokens from.",
          "to": "The address to move the tokens."
        },
        "returns": {
          "_0": "(bool) Returns True if succeeded."
        }
      },
      "transferOwnership(address,bool,bool)": {
        "params": {
          "direct": "True if `newOwner` should be set immediately. False if `newOwner` needs to use `claimOwnership`.",
          "newOwner": "Address of the new owner.",
          "renounce": "Allows the `newOwner` to be `address(0)` if `direct` and `renounce` is True. Has no effect otherwise."
        }
      },
      "updateExchangeRate()": {
        "returns": {
          "rate": "The new exchange rate.",
          "updated": "True if `exchangeRate` was updated."
        }
      },
      "updatePause(bool)": {
        "params": {
          "val": "the new value"
        }
      },
      "yieldBoxShares(address,uint256)": {
        "params": {
          "_assetId": "The asset id to check shares for",
          "_user": "The user to check shares for"
        }
      }
    },
    "title": "Tapioca market",
    "version": 1
  },
  "userdoc": {
    "kind": "user",
    "methods": {
      "accrue()": {
        "notice": "Accrues the interest on the borrowed tokens and handles the accumulation of fees."
      },
      "addAsset(address,address,bool,uint256)": {
        "notice": "Adds assets to the lending pair."
      },
      "addCollateral(address,address,bool,uint256)": {
        "notice": "Adds `collateral` from msg.sender to the account `to`."
      },
      "allowance(address,address)": {
        "notice": "owner > spender > allowance mapping."
      },
      "approve(address,uint256)": {
        "notice": "Approves `amount` from sender to be spend by `spender`."
      },
      "balanceOf(address)": {
        "notice": "owner > balance mapping."
      },
      "borrow(address,address,uint256)": {
        "notice": "Sender borrows `amount` and transfers it to `to`."
      },
      "claimOwnership()": {
        "notice": "Needs to be called by `pendingOwner` to claim ownership."
      },
      "computeAssetAmountToSolvency(address,uint256)": {
        "notice": "Return the amount of collateral for a `user` to be solvent. Returns 0 if user already solvent."
      },
      "depositFeesToYieldBox(address,(uint256))": {
        "notice": "Withdraw the balance of `feeTo`, swap asset into TAP and deposit it to yieldBox of `feeTo`"
      },
      "exchangeRate()": {
        "notice": "Exchange and interest rate tracking. This is 'cached' here because calls to Oracles can be very expensive. Asset -> collateral = assetAmount * exchangeRate."
      },
      "execute(bytes[],bool)": {
        "notice": "Allows batched call to Singularity."
      },
      "init(bytes)": {
        "notice": "The init function that acts as a constructor"
      },
      "lendingBorrowingModule()": {
        "notice": "returns the lending module"
      },
      "liquidate(address[],uint256[],address,bytes,bytes)": {
        "notice": "Entry point for liquidations."
      },
      "liquidationModule()": {
        "notice": "returns the liquidation module"
      },
      "nonces(address)": {
        "notice": "owner > nonce mapping. Used in `permit`."
      },
      "permit(address,address,uint256,uint256,uint8,bytes32,bytes32)": {
        "notice": "Approves `value` from `owner_` to be spend by `spender`."
      },
      "removeAsset(address,address,uint256)": {
        "notice": "Removes an asset from msg.sender and transfers it to `to`."
      },
      "removeCollateral(address,address,uint256)": {
        "notice": "Removes `share` amount of collateral and transfers it to `to`."
      },
      "repay(address,address,bool,uint256)": {
        "notice": "Repays a loan."
      },
      "setBorrowCap(uint256)": {
        "notice": "sets max borrowable amount"
      },
      "setBorrowOpeningFee(uint256)": {
        "notice": "sets the borrowing opening fee"
      },
      "setCallerFee(uint256)": {
        "notice": "sets the liquidator fee"
      },
      "setClosedCollateralizationRate(uint256)": {
        "notice": "sets closed collateralization rate"
      },
      "setConservator(address)": {
        "notice": "Set the Conservator address"
      },
      "setLiquidationMultiplier(uint256)": {
        "notice": "sets the liquidation multiplier"
      },
      "setLiquidationQueue(address)": {
        "notice": "Set a new LiquidationQueue."
      },
      "setLqCollateralizationRate(uint256)": {
        "notice": "sets the collateralization rate used for LiquidationQueue type liquidations"
      },
      "setOrderBookLiquidationMultiplier(uint256)": {
        "notice": "sets the order book multiplier"
      },
      "setProtocolFee(uint256)": {
        "notice": "sets the protocol fee"
      },
      "transfer(address,uint256)": {
        "notice": "Transfers `amount` tokens from `msg.sender` to `to`."
      },
      "transferFrom(address,address,uint256)": {
        "notice": "Transfers `amount` tokens from `from` to `to`. Caller needs approval for `from`."
      },
      "transferOwnership(address,bool,bool)": {
        "notice": "Transfers ownership to `newOwner`. Either directly or claimable by the new pending owner. Can only be invoked by the current `owner`."
      },
      "updateExchangeRate()": {
        "notice": "Gets the exchange rate. I.e how much collateral to buy 1e18 asset. This function is supposed to be invoked if needed because Oracle queries can be expensive."
      },
      "updateLQExecutionSwapper(address)": {
        "notice": "Execute an only owner function inside of the LiquidationQueue"
      },
      "updateLQUsdoSwapper(address)": {
        "notice": "Execute an only owner function inside of the LiquidationQueue"
      },
      "updatePause(bool)": {
        "notice": "updates the pause state of the contract"
      },
      "withdrawFeesEarned()": {
        "notice": "Withdraw the fees accumulated in `accrueInfo.feesEarnedFraction` to the balance of `feeTo`."
      },
      "withdrawTo(uint16,bytes,uint256,bytes,address)": {
        "notice": "Withdraw to another layer"
      },
      "yieldBoxShares(address,uint256)": {
        "notice": "returns Total yieldBox shares for user"
      }
    },
    "version": 1
  },
  "storageLayout": {
    "storage": [
      {
        "astId": 233,
        "contract": "contracts/singularity/Singularity.sol:Singularity",
        "label": "owner",
        "offset": 0,
        "slot": "0",
        "type": "t_address"
      },
      {
        "astId": 235,
        "contract": "contracts/singularity/Singularity.sol:Singularity",
        "label": "pendingOwner",
        "offset": 0,
        "slot": "1",
        "type": "t_address"
      },
      {
        "astId": 478,
        "contract": "contracts/singularity/Singularity.sol:Singularity",
        "label": "balanceOf",
        "offset": 0,
        "slot": "2",
        "type": "t_mapping(t_address,t_uint256)"
      },
      {
        "astId": 486,
        "contract": "contracts/singularity/Singularity.sol:Singularity",
        "label": "allowance",
        "offset": 0,
        "slot": "3",
        "type": "t_mapping(t_address,t_mapping(t_address,t_uint256))"
      },
      {
        "astId": 491,
        "contract": "contracts/singularity/Singularity.sol:Singularity",
        "label": "nonces",
        "offset": 0,
        "slot": "4",
        "type": "t_mapping(t_address,t_uint256)"
      },
      {
        "astId": 12443,
        "contract": "contracts/singularity/Singularity.sol:Singularity",
        "label": "accrueInfo",
        "offset": 0,
        "slot": "5",
        "type": "t_struct(AccrueInfo)14991_storage"
      },
      {
        "astId": 12446,
        "contract": "contracts/singularity/Singularity.sol:Singularity",
        "label": "penrose",
        "offset": 0,
        "slot": "6",
        "type": "t_contract(IPenrose)5938"
      },
      {
        "astId": 12449,
        "contract": "contracts/singularity/Singularity.sol:Singularity",
        "label": "yieldBox",
        "offset": 0,
        "slot": "7",
        "type": "t_contract(YieldBox)30583"
      },
      {
        "astId": 12452,
        "contract": "contracts/singularity/Singularity.sol:Singularity",
        "label": "liquidationQueue",
        "offset": 0,
        "slot": "8",
        "type": "t_contract(ILiquidationQueue)6977"
      },
      {
        "astId": 12455,
        "contract": "contracts/singularity/Singularity.sol:Singularity",
        "label": "collateral",
        "offset": 0,
        "slot": "9",
        "type": "t_contract(IERC20)1099"
      },
      {
        "astId": 12458,
        "contract": "contracts/singularity/Singularity.sol:Singularity",
        "label": "asset",
        "offset": 0,
        "slot": "10",
        "type": "t_contract(IERC20)1099"
      },
      {
        "astId": 12460,
        "contract": "contracts/singularity/Singularity.sol:Singularity",
        "label": "collateralId",
        "offset": 0,
        "slot": "11",
        "type": "t_uint256"
      },
      {
        "astId": 12462,
        "contract": "contracts/singularity/Singularity.sol:Singularity",
        "label": "assetId",
        "offset": 0,
        "slot": "12",
        "type": "t_uint256"
      },
      {
        "astId": 12464,
        "contract": "contracts/singularity/Singularity.sol:Singularity",
        "label": "paused",
        "offset": 0,
        "slot": "13",
        "type": "t_bool"
      },
      {
        "astId": 12466,
        "contract": "contracts/singularity/Singularity.sol:Singularity",
        "label": "conservator",
        "offset": 1,
        "slot": "13",
        "type": "t_address"
      },
      {
        "astId": 12468,
        "contract": "contracts/singularity/Singularity.sol:Singularity",
        "label": "totalCollateralShare",
        "offset": 0,
        "slot": "14",
        "type": "t_uint256"
      },
      {
        "astId": 12471,
        "contract": "contracts/singularity/Singularity.sol:Singularity",
        "label": "totalAsset",
        "offset": 0,
        "slot": "15",
        "type": "t_struct(Rebase)1874_storage"
      },
      {
        "astId": 12474,
        "contract": "contracts/singularity/Singularity.sol:Singularity",
        "label": "totalBorrow",
        "offset": 0,
        "slot": "16",
        "type": "t_struct(Rebase)1874_storage"
      },
      {
        "astId": 12476,
        "contract": "contracts/singularity/Singularity.sol:Singularity",
        "label": "totalBorrowCap",
        "offset": 0,
        "slot": "17",
        "type": "t_uint256"
      },
      {
        "astId": 12482,
        "contract": "contracts/singularity/Singularity.sol:Singularity",
        "label": "_yieldBoxShares",
        "offset": 0,
        "slot": "18",
        "type": "t_mapping(t_address,t_mapping(t_uint256,t_uint256))"
      },
      {
        "astId": 12486,
        "contract": "contracts/singularity/Singularity.sol:Singularity",
        "label": "userCollateralShare",
        "offset": 0,
        "slot": "19",
        "type": "t_mapping(t_address,t_uint256)"
      },
      {
        "astId": 12490,
        "contract": "contracts/singularity/Singularity.sol:Singularity",
        "label": "userBorrowPart",
        "offset": 0,
        "slot": "20",
        "type": "t_mapping(t_address,t_uint256)"
      },
      {
        "astId": 12496,
        "contract": "contracts/singularity/Singularity.sol:Singularity",
        "label": "isApprovedForAll",
        "offset": 0,
        "slot": "21",
        "type": "t_mapping(t_address,t_mapping(t_address,t_bool))"
      },
      {
        "astId": 12499,
        "contract": "contracts/singularity/Singularity.sol:Singularity",
        "label": "exchangeRate",
        "offset": 0,
        "slot": "22",
        "type": "t_uint256"
      },
      {
        "astId": 12502,
        "contract": "contracts/singularity/Singularity.sol:Singularity",
        "label": "oracle",
        "offset": 0,
        "slot": "23",
        "type": "t_contract(IOracle)5862"
      },
      {
        "astId": 12504,
        "contract": "contracts/singularity/Singularity.sol:Singularity",
        "label": "oracleData",
        "offset": 0,
        "slot": "24",
        "type": "t_bytes_storage"
      },
      {
        "astId": 12506,
        "contract": "contracts/singularity/Singularity.sol:Singularity",
        "label": "callerFee",
        "offset": 0,
        "slot": "25",
        "type": "t_uint256"
      },
      {
        "astId": 12508,
        "contract": "contracts/singularity/Singularity.sol:Singularity",
        "label": "protocolFee",
        "offset": 0,
        "slot": "26",
        "type": "t_uint256"
      },
      {
        "astId": 12510,
        "contract": "contracts/singularity/Singularity.sol:Singularity",
        "label": "borrowOpeningFee",
        "offset": 0,
        "slot": "27",
        "type": "t_uint256"
      },
      {
        "astId": 12512,
        "contract": "contracts/singularity/Singularity.sol:Singularity",
        "label": "liquidationMultiplier",
        "offset": 0,
        "slot": "28",
        "type": "t_uint256"
      },
      {
        "astId": 12514,
        "contract": "contracts/singularity/Singularity.sol:Singularity",
        "label": "orderBookLiquidationMultiplier",
        "offset": 0,
        "slot": "29",
        "type": "t_uint256"
      },
      {
        "astId": 12516,
        "contract": "contracts/singularity/Singularity.sol:Singularity",
        "label": "closedCollateralizationRate",
        "offset": 0,
        "slot": "30",
        "type": "t_uint256"
      },
      {
        "astId": 12518,
        "contract": "contracts/singularity/Singularity.sol:Singularity",
        "label": "lqCollateralizationRate",
        "offset": 0,
        "slot": "31",
        "type": "t_uint256"
      },
      {
        "astId": 12671,
        "contract": "contracts/singularity/Singularity.sol:Singularity",
        "label": "EXCHANGE_RATE_PRECISION",
        "offset": 0,
        "slot": "32",
        "type": "t_uint256"
      },
      {
        "astId": 10295,
        "contract": "contracts/singularity/Singularity.sol:Singularity",
        "label": "initialized",
        "offset": 0,
        "slot": "33",
        "type": "t_bool"
      },
      {
        "astId": 12771,
        "contract": "contracts/singularity/Singularity.sol:Singularity",
        "label": "liquidationModule",
        "offset": 1,
        "slot": "33",
        "type": "t_contract(SGLLiquidation)12416"
      },
      {
        "astId": 12775,
        "contract": "contracts/singularity/Singularity.sol:Singularity",
        "label": "lendingBorrowingModule",
        "offset": 0,
        "slot": "34",
        "type": "t_contract(SGLLendingBorrowing)11596"
      }
    ],
    "types": {
      "t_address": {
        "encoding": "inplace",
        "label": "address",
        "numberOfBytes": "20"
      },
      "t_bool": {
        "encoding": "inplace",
        "label": "bool",
        "numberOfBytes": "1"
      },
      "t_bytes_storage": {
        "encoding": "bytes",
        "label": "bytes",
        "numberOfBytes": "32"
      },
      "t_contract(IERC20)1099": {
        "encoding": "inplace",
        "label": "contract IERC20",
        "numberOfBytes": "20"
      },
      "t_contract(ILiquidationQueue)6977": {
        "encoding": "inplace",
        "label": "contract ILiquidationQueue",
        "numberOfBytes": "20"
      },
      "t_contract(IOracle)5862": {
        "encoding": "inplace",
        "label": "contract IOracle",
        "numberOfBytes": "20"
      },
      "t_contract(IPenrose)5938": {
        "encoding": "inplace",
        "label": "contract IPenrose",
        "numberOfBytes": "20"
      },
      "t_contract(SGLLendingBorrowing)11596": {
        "encoding": "inplace",
        "label": "contract SGLLendingBorrowing",
        "numberOfBytes": "20"
      },
      "t_contract(SGLLiquidation)12416": {
        "encoding": "inplace",
        "label": "contract SGLLiquidation",
        "numberOfBytes": "20"
      },
      "t_contract(YieldBox)30583": {
        "encoding": "inplace",
        "label": "contract YieldBox",
        "numberOfBytes": "20"
      },
      "t_mapping(t_address,t_bool)": {
        "encoding": "mapping",
        "key": "t_address",
        "label": "mapping(address => bool)",
        "numberOfBytes": "32",
        "value": "t_bool"
      },
      "t_mapping(t_address,t_mapping(t_address,t_bool))": {
        "encoding": "mapping",
        "key": "t_address",
        "label": "mapping(address => mapping(address => bool))",
        "numberOfBytes": "32",
        "value": "t_mapping(t_address,t_bool)"
      },
      "t_mapping(t_address,t_mapping(t_address,t_uint256))": {
        "encoding": "mapping",
        "key": "t_address",
        "label": "mapping(address => mapping(address => uint256))",
        "numberOfBytes": "32",
        "value": "t_mapping(t_address,t_uint256)"
      },
      "t_mapping(t_address,t_mapping(t_uint256,t_uint256))": {
        "encoding": "mapping",
        "key": "t_address",
        "label": "mapping(address => mapping(uint256 => uint256))",
        "numberOfBytes": "32",
        "value": "t_mapping(t_uint256,t_uint256)"
      },
      "t_mapping(t_address,t_uint256)": {
        "encoding": "mapping",
        "key": "t_address",
        "label": "mapping(address => uint256)",
        "numberOfBytes": "32",
        "value": "t_uint256"
      },
      "t_mapping(t_uint256,t_uint256)": {
        "encoding": "mapping",
        "key": "t_uint256",
        "label": "mapping(uint256 => uint256)",
        "numberOfBytes": "32",
        "value": "t_uint256"
      },
      "t_struct(AccrueInfo)14991_storage": {
        "encoding": "inplace",
        "label": "struct ISingularity.AccrueInfo",
        "members": [
          {
            "astId": 14986,
            "contract": "contracts/singularity/Singularity.sol:Singularity",
            "label": "interestPerSecond",
            "offset": 0,
            "slot": "0",
            "type": "t_uint64"
          },
          {
            "astId": 14988,
            "contract": "contracts/singularity/Singularity.sol:Singularity",
            "label": "lastAccrued",
            "offset": 8,
            "slot": "0",
            "type": "t_uint64"
          },
          {
            "astId": 14990,
            "contract": "contracts/singularity/Singularity.sol:Singularity",
            "label": "feesEarnedFraction",
            "offset": 16,
            "slot": "0",
            "type": "t_uint128"
          }
        ],
        "numberOfBytes": "32"
      },
      "t_struct(Rebase)1874_storage": {
        "encoding": "inplace",
        "label": "struct Rebase",
        "members": [
          {
            "astId": 1871,
            "contract": "contracts/singularity/Singularity.sol:Singularity",
            "label": "elastic",
            "offset": 0,
            "slot": "0",
            "type": "t_uint128"
          },
          {
            "astId": 1873,
            "contract": "contracts/singularity/Singularity.sol:Singularity",
            "label": "base",
            "offset": 16,
            "slot": "0",
            "type": "t_uint128"
          }
        ],
        "numberOfBytes": "32"
      },
      "t_uint128": {
        "encoding": "inplace",
        "label": "uint128",
        "numberOfBytes": "16"
      },
      "t_uint256": {
        "encoding": "inplace",
        "label": "uint256",
        "numberOfBytes": "32"
      },
      "t_uint64": {
        "encoding": "inplace",
        "label": "uint64",
        "numberOfBytes": "8"
      }
    }
  }
}