{
  "address": "0x5A5a5bcc184c71aB743CB312653715f527111e6D",
  "abi": [
    {
      "inputs": [
        {
          "internalType": "address",
          "name": "_factory",
          "type": "address"
        },
        {
          "internalType": "contract IPenrose",
          "name": "_tapiocaBar",
          "type": "address"
        },
        {
          "internalType": "bytes32",
          "name": "_pairCodeHash",
          "type": "bytes32"
        }
      ],
      "stateMutability": "nonpayable",
      "type": "constructor"
    },
    {
      "inputs": [
        {
          "internalType": "uint256",
          "name": "tokenOutId",
          "type": "uint256"
        },
        {
          "internalType": "uint256",
          "name": "shareOut",
          "type": "uint256"
        },
        {
          "internalType": "bytes",
          "name": "dexData",
          "type": "bytes"
        }
      ],
      "name": "getInputAmount",
      "outputs": [
        {
          "internalType": "uint256",
          "name": "amountIn",
          "type": "uint256"
        }
      ],
      "stateMutability": "view",
      "type": "function"
    },
    {
      "inputs": [
        {
          "internalType": "uint256",
          "name": "tokenInId",
          "type": "uint256"
        },
        {
          "internalType": "uint256",
          "name": "shareIn",
          "type": "uint256"
        },
        {
          "internalType": "bytes",
          "name": "dexData",
          "type": "bytes"
        }
      ],
      "name": "getOutputAmount",
      "outputs": [
        {
          "internalType": "uint256",
          "name": "amountOut",
          "type": "uint256"
        }
      ],
      "stateMutability": "view",
      "type": "function"
    },
    {
      "inputs": [
        {
          "internalType": "uint256",
          "name": "tokenInId",
          "type": "uint256"
        },
        {
          "internalType": "uint256",
          "name": "tokenOutId",
          "type": "uint256"
        },
        {
          "internalType": "uint256",
          "name": "shareIn",
          "type": "uint256"
        },
        {
          "internalType": "address",
          "name": "to",
          "type": "address"
        },
        {
          "internalType": "uint256",
          "name": "amountOutMin",
          "type": "uint256"
        },
        {
          "internalType": "bytes",
          "name": "dexData",
          "type": "bytes"
        }
      ],
      "name": "swap",
      "outputs": [
        {
          "internalType": "uint256",
          "name": "amountOut",
          "type": "uint256"
        },
        {
          "internalType": "uint256",
          "name": "shareOut",
          "type": "uint256"
        }
      ],
      "stateMutability": "nonpayable",
      "type": "function"
    }
  ],
  "transactionHash": "0xc7ebc8d109030a0ecdcb27d8b54ec62d5e790b208217753d492f073fd82d26dd",
  "args": [
    "0x5C69bEe701ef814a2B6a3EDD4B1652CB9cc5aA6f",
    "0x95c7E83D6d44F3d81cb60FB4e5472dC5C0415571",
    "0x68ddfd89d43db94fbd68a4abd2861ebcbfea56c0fd36334bbb95f0661c3171a2"
  ],
  "numDeployments": 1,
  "solcInputHash": "00159a693e7dec675ccf3b4367e7c901",
  "bytecode": "0x60e06040523480156200001157600080fd5b5060405162001951380380620019518339810160408190526200003491620000f4565b826001600160a01b03166080816001600160a01b031681525050816001600160a01b031663de4065776040518163ffffffff1660e01b815260040160206040518083038186803b1580156200008857600080fd5b505afa1580156200009d573d6000803e3d6000fd5b505050506040513d601f19601f82011682018060405250810190620000c391906200013c565b6001600160a01b031660a05260c05250620001639050565b6001600160a01b0381168114620000f157600080fd5b50565b6000806000606084860312156200010a57600080fd5b83516200011781620000db565b60208501519093506200012a81620000db565b80925050604084015190509250925092565b6000602082840312156200014f57600080fd5b81516200015c81620000db565b9392505050565b60805160a05160c051611764620001ed6000396000818161018d0152818161053d01528181610733015281816108310152610ef001526000818160e70152818161023501528181610302015281816103c9015261049701526000818161016a0152818161051a01528181610710015281816107da01528181610e8a0152610ecd01526117646000f3fe608060405234801561001057600080fd5b50600436106100415760003560e01c8063532bb1921461004657806355a68e101461006c578063c6fe954914610094575b600080fd5b6100596100543660046112ee565b6100a7565b6040519081526020015b60405180910390f35b61007f61007a36600461135d565b6101e7565b60408051928352602083019190915201610063565b6100596100a23660046112ee565b610457565b6000806100b6838501856113ee565b60405163442c159960e01b815260048101889052602481018790526000604482018190529192506001600160a01b037f0000000000000000000000000000000000000000000000000000000000000000169063442c15999060640160206040518083038186803b15801561012957600080fd5b505afa15801561013d573d6000803e3d6000fd5b505050506040513d601f19601f8201168201806040525081019061016191906114b3565b905060006101b17f000000000000000000000000000000000000000000000000000000000000000083857f0000000000000000000000000000000000000000000000000000000000000000610576565b905080600182516101c291906114e2565b815181106101d2576101d26114f9565b60200260200101519350505050949350505050565b600080806101f7848601866113ee565b6040516311a5cc7760e31b8152600481018c905230602482018190526044820152600060648201819052608482018b90529192506001600160a01b037f00000000000000000000000000000000000000000000000000000000000000001690638d2e63b89060a4016040805180830381600087803b15801561027857600080fd5b505af115801561028c573d6000803e3d6000fd5b505050506040513d601f19601f820116820180604052508101906102b0919061150f565b5090506102bf81888430610708565b935081600183516102d091906114e2565b815181106102e0576102e06114f9565b602090810291909101015160405163095ea7b360e01b81526001600160a01b037f000000000000000000000000000000000000000000000000000000000000000081166004830152602482018790529091169063095ea7b390604401602060405180830381600087803b15801561035657600080fd5b505af115801561036a573d6000803e3d6000fd5b505050506040513d601f19601f8201168201806040525081019061038e9190611533565b50604051634d4d7cbd60e11b8152600481018b90523060248201526001600160a01b03898116604483015260648201869052600060848301527f00000000000000000000000000000000000000000000000000000000000000001690639a9af97a9060a4016040805180830381600087803b15801561040c57600080fd5b505af1158015610420573d6000803e3d6000fd5b505050506040513d601f19601f82011682018060405250810190610444919061150f565b949c949b50939950505050505050505050565b600080610466838501856113ee565b60405163442c159960e01b815260048101889052602481018790526000604482018190529192506001600160a01b037f0000000000000000000000000000000000000000000000000000000000000000169063442c15999060640160206040518083038186803b1580156104d957600080fd5b505afa1580156104ed573d6000803e3d6000fd5b505050506040513d601f19601f8201168201806040525081019061051191906114b3565b905060006105617f000000000000000000000000000000000000000000000000000000000000000083857f0000000000000000000000000000000000000000000000000000000000000000610894565b9050806000815181106101d2576101d26114f9565b60606002835110156105cf5760405162461bcd60e51b815260206004820152601e60248201527f556e697377617056324c6962726172793a20494e56414c49445f50415448000060448201526064015b60405180910390fd5b825167ffffffffffffffff8111156105e9576105e96113d8565b604051908082528060200260200182016040528015610612578160200160208202803683370190505b5090508381600081518110610629576106296114f9565b60200260200101818152505060005b6001845161064691906114e2565b8110156106ff5760008061069a88878581518110610666576106666114f9565b60200260200101518886600161067c919061155c565b8151811061068c5761068c6114f9565b602002602001015188610a15565b915091506106c28484815181106106b3576106b36114f9565b60200260200101518383610af0565b846106ce85600161155c565b815181106106de576106de6114f9565b602002602001018181525050505080806106f790611574565b915050610638565b50949350505050565b6000806107577f000000000000000000000000000000000000000000000000000000000000000087867f0000000000000000000000000000000000000000000000000000000000000000610576565b9050806001825161076891906114e2565b81518110610778576107786114f9565b60200260200101519150848210156107d25760405162461bcd60e51b815260206004820152601760248201527f696e73756666696369656e742d616d6f756e742d6f757400000000000000000060448201526064016105c6565b6108896108557f00000000000000000000000000000000000000000000000000000000000000008660008151811061080c5761080c6114f9565b602002602001015187600181518110610827576108276114f9565b60200260200101517f0000000000000000000000000000000000000000000000000000000000000000610bce565b8786600081518110610869576108696114f9565b60200260200101516001600160a01b0316610c8c9092919063ffffffff16565b6106ff818585610da7565b60606002835110156108e85760405162461bcd60e51b815260206004820152601e60248201527f556e697377617056324c6962726172793a20494e56414c49445f50415448000060448201526064016105c6565b825167ffffffffffffffff811115610902576109026113d8565b60405190808252806020026020018201604052801561092b578160200160208202803683370190505b50905083816001835161093e91906114e2565b8151811061094e5761094e6114f9565b60200260200101818152505060006001845161096a91906114e2565b90505b80156106ff576000806109b088876109866001876114e2565b81518110610996576109966114f9565b602002602001015188868151811061068c5761068c6114f9565b915091506109d88484815181106109c9576109c96114f9565b60200260200101518383610fc3565b846109e46001866114e2565b815181106109f4576109f46114f9565b60200260200101818152505050508080610a0d9061158f565b91505061096d565b6000806000610a24868661109c565b509050600080610a3689898989610bce565b6001600160a01b0316630902f1ac6040518163ffffffff1660e01b815260040160606040518083038186803b158015610a6e57600080fd5b505afa158015610a82573d6000803e3d6000fd5b505050506040513d601f19601f82011682018060405250810190610aa691906115bd565b506001600160701b031691506001600160701b03169150826001600160a01b0316886001600160a01b031614610add578082610ae0565b81815b909a909950975050505050505050565b6000808411610b555760405162461bcd60e51b815260206004820152602b60248201527f556e697377617056324c6962726172793a20494e53554646494349454e545f4960448201526a1394155517d05353d5539560aa1b60648201526084016105c6565b600083118015610b655750600082115b610b815760405162461bcd60e51b81526004016105c69061160d565b6000610b8f856103e5611194565b90506000610b9d8285611194565b90506000610bb783610bb1886103e8611194565b90611201565b9050610bc38183611655565b979650505050505050565b6000806000610bdd868661109c565b6040516bffffffffffffffffffffffff19606084811b8216602084015283901b166034820152919350915087906048016040516020818303038152906040528051906020012085604051602001610c69939291906001600160f81b0319815260609390931b6bffffffffffffffffffffffff191660018401526015830191909152603582015260550190565b60408051601f198184030181529190528051602090910120979650505050505050565b604080516001600160a01b038481166024830152604480830185905283518084039091018152606490920183526020820180516001600160e01b031663a9059cbb60e01b1790529151600092839290871691610ce891906116a3565b6000604051808303816000865af19150503d8060008114610d25576040519150601f19603f3d011682016040523d82523d6000602084013e610d2a565b606091505b5091509150818015610d54575080511580610d54575080806020019051810190610d549190611533565b610da05760405162461bcd60e51b815260206004820152601c60248201527f426f72696e6745524332303a205472616e73666572206661696c65640000000060448201526064016105c6565b5050505050565b60005b60018351610db891906114e2565b811015610fbd57600080848381518110610dd457610dd46114f9565b602002602001015185846001610dea919061155c565b81518110610dfa57610dfa6114f9565b6020026020010151915091506000610e12838361109c565b509050600087610e2386600161155c565b81518110610e3357610e336114f9565b60200260200101519050600080836001600160a01b0316866001600160a01b031614610e6157826000610e65565b6000835b91509150600060028a51610e7991906114e2565b8810610e855788610ec6565b610ec67f0000000000000000000000000000000000000000000000000000000000000000878c610eb68c600261155c565b81518110610827576108276114f9565b9050610f147f000000000000000000000000000000000000000000000000000000000000000088887f0000000000000000000000000000000000000000000000000000000000000000610bce565b6001600160a01b031663022c0d9f84848460006040519080825280601f01601f191660200182016040528015610f51576020820181803683370190505b506040518563ffffffff1660e01b8152600401610f7194939291906116bf565b600060405180830381600087803b158015610f8b57600080fd5b505af1158015610f9f573d6000803e3d6000fd5b50505050505050505050508080610fb590611574565b915050610daa565b50505050565b60008084116110295760405162461bcd60e51b815260206004820152602c60248201527f556e697377617056324c6962726172793a20494e53554646494349454e545f4f60448201526b155514155517d05353d5539560a21b60648201526084016105c6565b6000831180156110395750600082115b6110555760405162461bcd60e51b81526004016105c69061160d565b600061106d6103e86110678688611194565b90611194565b905060006110816103e56110678689611256565b90506110926001610bb18385611655565b9695505050505050565b600080826001600160a01b0316846001600160a01b0316141561110f5760405162461bcd60e51b815260206004820152602560248201527f556e697377617056324c6962726172793a204944454e544943414c5f41444452604482015264455353455360d81b60648201526084016105c6565b826001600160a01b0316846001600160a01b03161061112f578284611132565b83835b90925090506001600160a01b03821661118d5760405162461bcd60e51b815260206004820152601e60248201527f556e697377617056324c6962726172793a205a45524f5f41444452455353000060448201526064016105c6565b9250929050565b60008115806111b8575082826111aa818361170f565b92506111b69083611655565b145b6111fb5760405162461bcd60e51b815260206004820152601460248201527364732d6d6174682d6d756c2d6f766572666c6f7760601b60448201526064016105c6565b92915050565b60008261120e838261155c565b91508110156111fb5760405162461bcd60e51b815260206004820152601460248201527364732d6d6174682d6164642d6f766572666c6f7760601b60448201526064016105c6565b60008261126383826114e2565b91508111156111fb5760405162461bcd60e51b815260206004820152601560248201527464732d6d6174682d7375622d756e646572666c6f7760581b60448201526064016105c6565b60008083601f8401126112be57600080fd5b50813567ffffffffffffffff8111156112d657600080fd5b60208301915083602082850101111561118d57600080fd5b6000806000806060858703121561130457600080fd5b8435935060208501359250604085013567ffffffffffffffff81111561132957600080fd5b611335878288016112ac565b95989497509550505050565b80356001600160a01b038116811461135857600080fd5b919050565b600080600080600080600060c0888a03121561137857600080fd5b87359650602088013595506040880135945061139660608901611341565b93506080880135925060a088013567ffffffffffffffff8111156113b957600080fd5b6113c58a828b016112ac565b989b979a50959850939692959293505050565b634e487b7160e01b600052604160045260246000fd5b6000602080838503121561140157600080fd5b823567ffffffffffffffff8082111561141957600080fd5b818501915085601f83011261142d57600080fd5b81358181111561143f5761143f6113d8565b8060051b604051601f19603f83011681018181108582111715611464576114646113d8565b60405291825284820192508381018501918883111561148257600080fd5b938501935b828510156114a75761149885611341565b84529385019392850192611487565b98975050505050505050565b6000602082840312156114c557600080fd5b5051919050565b634e487b7160e01b600052601160045260246000fd5b6000828210156114f4576114f46114cc565b500390565b634e487b7160e01b600052603260045260246000fd5b6000806040838503121561152257600080fd5b505080516020909101519092909150565b60006020828403121561154557600080fd5b8151801515811461155557600080fd5b9392505050565b6000821982111561156f5761156f6114cc565b500190565b6000600019821415611588576115886114cc565b5060010190565b60008161159e5761159e6114cc565b506000190190565b80516001600160701b038116811461135857600080fd5b6000806000606084860312156115d257600080fd5b6115db846115a6565b92506115e9602085016115a6565b9150604084015163ffffffff8116811461160257600080fd5b809150509250925092565b60208082526028908201527f556e697377617056324c6962726172793a20494e53554646494349454e545f4c604082015267495155494449545960c01b606082015260800190565b60008261167257634e487b7160e01b600052601260045260246000fd5b500490565b60005b8381101561169257818101518382015260200161167a565b83811115610fbd5750506000910152565b600082516116b5818460208701611677565b9190910192915050565b84815283602082015260018060a01b038316604082015260806060820152600082518060808401526116f88160a0850160208701611677565b601f01601f19169190910160a00195945050505050565b6000816000190483118215151615611729576117296114cc565b50029056fea26469706673582212206e55bb26b36c5ce7c602431eb7ad1625a52c7a0f698615a7d1054cdb23988fb064736f6c63430008090033",
  "devdoc": {
    "kind": "dev",
    "methods": {
      "constructor": {
        "params": {
          "_factory": "UniswapV2Factory address",
          "_pairCodeHash": "UniswapV2 pair code hash",
          "_tapiocaBar": "Penrose address"
        }
      },
      "getInputAmount(uint256,uint256,bytes)": {
        "details": "dexData examples:     - for UniV2, it should contain address[] swapPath",
        "params": {
          "dexData": "Custom DEX data for query execution",
          "shareOut": "Shares out to compute the amount for",
          "tokenOutId": "YieldBox asset id"
        }
      },
      "getOutputAmount(uint256,uint256,bytes)": {
        "details": "dexData examples:     - for UniV2, it should contain address[] swapPath",
        "params": {
          "dexData": "Custom DEX data for query execution",
          "shareIn": "Shares to get the amount for",
          "tokenInId": "YieldBox asset id"
        }
      },
      "swap(uint256,uint256,uint256,address,uint256,bytes)": {
        "details": "returns both amount and sharesdexData examples:     - for UniV2, it should contain address[] swapPath",
        "params": {
          "amountOutMin": "Minimum amount to be received",
          "dexData": "Custom DEX data for query execution",
          "shareIn": "Shares to be swapped",
          "to": "Receiver address",
          "tokenInId": "YieldBox asset id",
          "tokenOutId": "YieldBox asset id"
        }
      }
    },
    "version": 1
  },
  "userdoc": {
    "kind": "user",
    "methods": {
      "constructor": {
        "notice": "creates a new MultiSwapper contract"
      },
      "getInputAmount(uint256,uint256,bytes)": {
        "notice": "returns necessary input amount for a fixed output amount"
      },
      "getOutputAmount(uint256,uint256,bytes)": {
        "notice": "returns the possible output amount for input share"
      },
      "swap(uint256,uint256,uint256,address,uint256,bytes)": {
        "notice": "swaps token in with token out"
      }
    },
    "notice": "Modified from https://github.com/sushiswap/kashi-lending/blob/master/contracts/swappers/SushiSwapMultiSwapper.sol",
    "version": 1
  },
  "storageLayout": {
    "storage": [],
    "types": null
  }
}