{
  "address": "0x968d2E029688b23712E482D814e7EC58e0b9Edae",
  "abi": [
    {
      "inputs": [
        {
          "internalType": "contract YieldBox",
          "name": "_yieldBox",
          "type": "address"
        },
        {
          "internalType": "contract IERC20",
          "name": "tapToken_",
          "type": "address"
        },
        {
          "internalType": "contract IERC20",
          "name": "wethToken_",
          "type": "address"
        }
      ],
      "stateMutability": "nonpayable",
      "type": "constructor"
    },
    {
      "anonymous": false,
      "inputs": [
        {
          "indexed": false,
          "internalType": "uint256",
          "name": "_rate",
          "type": "uint256"
        }
      ],
      "name": "BigBangEthMarketDebtRate",
      "type": "event"
    },
    {
      "anonymous": false,
      "inputs": [
        {
          "indexed": true,
          "internalType": "address",
          "name": "_newAddress",
          "type": "address"
        }
      ],
      "name": "BigBangEthMarketSet",
      "type": "event"
    },
    {
      "anonymous": false,
      "inputs": [
        {
          "indexed": true,
          "internalType": "address",
          "name": "old",
          "type": "address"
        },
        {
          "indexed": true,
          "internalType": "address",
          "name": "_new",
          "type": "address"
        }
      ],
      "name": "ConservatorUpdated",
      "type": "event"
    },
    {
      "anonymous": false,
      "inputs": [
        {
          "indexed": false,
          "internalType": "address",
          "name": "newFeeTo",
          "type": "address"
        }
      ],
      "name": "FeeToUpdate",
      "type": "event"
    },
    {
      "anonymous": false,
      "inputs": [
        {
          "indexed": false,
          "internalType": "address",
          "name": "newFeeVeTap",
          "type": "address"
        }
      ],
      "name": "FeeVeTapUpdate",
      "type": "event"
    },
    {
      "anonymous": false,
      "inputs": [
        {
          "indexed": true,
          "internalType": "address",
          "name": "previousOwner",
          "type": "address"
        },
        {
          "indexed": true,
          "internalType": "address",
          "name": "newOwner",
          "type": "address"
        }
      ],
      "name": "OwnershipTransferred",
      "type": "event"
    },
    {
      "anonymous": false,
      "inputs": [
        {
          "indexed": false,
          "internalType": "bool",
          "name": "oldState",
          "type": "bool"
        },
        {
          "indexed": false,
          "internalType": "bool",
          "name": "newState",
          "type": "bool"
        }
      ],
      "name": "PausedUpdated",
      "type": "event"
    },
    {
      "anonymous": false,
      "inputs": [
        {
          "indexed": false,
          "internalType": "contract IFee[]",
          "name": "markets",
          "type": "address[]"
        },
        {
          "indexed": false,
          "internalType": "uint256",
          "name": "timestamp",
          "type": "uint256"
        }
      ],
      "name": "ProtocolWithdrawal",
      "type": "event"
    },
    {
      "anonymous": false,
      "inputs": [
        {
          "indexed": false,
          "internalType": "address",
          "name": "location",
          "type": "address"
        },
        {
          "indexed": false,
          "internalType": "address",
          "name": "masterContract",
          "type": "address"
        }
      ],
      "name": "RegisterBigBang",
      "type": "event"
    },
    {
      "anonymous": false,
      "inputs": [
        {
          "indexed": false,
          "internalType": "address",
          "name": "location",
          "type": "address"
        },
        {
          "indexed": false,
          "internalType": "enum IPenrose.ContractType",
          "name": "risk",
          "type": "uint8"
        }
      ],
      "name": "RegisterBigBangMasterContract",
      "type": "event"
    },
    {
      "anonymous": false,
      "inputs": [
        {
          "indexed": false,
          "internalType": "address",
          "name": "location",
          "type": "address"
        },
        {
          "indexed": false,
          "internalType": "address",
          "name": "masterContract",
          "type": "address"
        }
      ],
      "name": "RegisterSingularity",
      "type": "event"
    },
    {
      "anonymous": false,
      "inputs": [
        {
          "indexed": false,
          "internalType": "address",
          "name": "location",
          "type": "address"
        },
        {
          "indexed": false,
          "internalType": "enum IPenrose.ContractType",
          "name": "risk",
          "type": "uint8"
        }
      ],
      "name": "RegisterSingularityMasterContract",
      "type": "event"
    },
    {
      "anonymous": false,
      "inputs": [
        {
          "indexed": false,
          "internalType": "address",
          "name": "swapper",
          "type": "address"
        },
        {
          "indexed": false,
          "internalType": "bool",
          "name": "isRegistered",
          "type": "bool"
        }
      ],
      "name": "SwapperUpdate",
      "type": "event"
    },
    {
      "anonymous": false,
      "inputs": [
        {
          "indexed": true,
          "internalType": "address",
          "name": "usdoToken",
          "type": "address"
        },
        {
          "indexed": false,
          "internalType": "uint256",
          "name": "assetId",
          "type": "uint256"
        }
      ],
      "name": "UsdoTokenUpdated",
      "type": "event"
    },
    {
      "inputs": [
        {
          "components": [
            {
              "internalType": "address",
              "name": "location",
              "type": "address"
            },
            {
              "internalType": "enum IPenrose.ContractType",
              "name": "risk",
              "type": "uint8"
            }
          ],
          "internalType": "struct IPenrose.MasterContract[]",
          "name": "array",
          "type": "tuple[]"
        }
      ],
      "name": "_getMasterContractLength",
      "outputs": [
        {
          "internalType": "address[]",
          "name": "markets",
          "type": "address[]"
        }
      ],
      "stateMutability": "view",
      "type": "function"
    },
    {
      "inputs": [],
      "name": "bigBangEthDebtRate",
      "outputs": [
        {
          "internalType": "uint256",
          "name": "",
          "type": "uint256"
        }
      ],
      "stateMutability": "view",
      "type": "function"
    },
    {
      "inputs": [],
      "name": "bigBangEthMarket",
      "outputs": [
        {
          "internalType": "address",
          "name": "",
          "type": "address"
        }
      ],
      "stateMutability": "view",
      "type": "function"
    },
    {
      "inputs": [],
      "name": "bigBangMarkets",
      "outputs": [
        {
          "internalType": "address[]",
          "name": "markets",
          "type": "address[]"
        }
      ],
      "stateMutability": "view",
      "type": "function"
    },
    {
      "inputs": [],
      "name": "bigBangMasterContractLength",
      "outputs": [
        {
          "internalType": "uint256",
          "name": "",
          "type": "uint256"
        }
      ],
      "stateMutability": "view",
      "type": "function"
    },
    {
      "inputs": [
        {
          "internalType": "uint256",
          "name": "",
          "type": "uint256"
        }
      ],
      "name": "bigbangMasterContracts",
      "outputs": [
        {
          "internalType": "address",
          "name": "location",
          "type": "address"
        },
        {
          "internalType": "enum IPenrose.ContractType",
          "name": "risk",
          "type": "uint8"
        }
      ],
      "stateMutability": "view",
      "type": "function"
    },
    {
      "inputs": [],
      "name": "claimOwnership",
      "outputs": [],
      "stateMutability": "nonpayable",
      "type": "function"
    },
    {
      "inputs": [],
      "name": "conservator",
      "outputs": [
        {
          "internalType": "address",
          "name": "",
          "type": "address"
        }
      ],
      "stateMutability": "view",
      "type": "function"
    },
    {
      "inputs": [
        {
          "internalType": "address[]",
          "name": "mc",
          "type": "address[]"
        },
        {
          "internalType": "bytes[]",
          "name": "data",
          "type": "bytes[]"
        },
        {
          "internalType": "bool",
          "name": "forceSuccess",
          "type": "bool"
        }
      ],
      "name": "executeMarketFn",
      "outputs": [
        {
          "internalType": "bool[]",
          "name": "success",
          "type": "bool[]"
        },
        {
          "internalType": "bytes[]",
          "name": "result",
          "type": "bytes[]"
        }
      ],
      "stateMutability": "nonpayable",
      "type": "function"
    },
    {
      "inputs": [],
      "name": "feeTo",
      "outputs": [
        {
          "internalType": "address",
          "name": "",
          "type": "address"
        }
      ],
      "stateMutability": "view",
      "type": "function"
    },
    {
      "inputs": [],
      "name": "owner",
      "outputs": [
        {
          "internalType": "address",
          "name": "",
          "type": "address"
        }
      ],
      "stateMutability": "view",
      "type": "function"
    },
    {
      "inputs": [],
      "name": "paused",
      "outputs": [
        {
          "internalType": "bool",
          "name": "",
          "type": "bool"
        }
      ],
      "stateMutability": "view",
      "type": "function"
    },
    {
      "inputs": [],
      "name": "pendingOwner",
      "outputs": [
        {
          "internalType": "address",
          "name": "",
          "type": "address"
        }
      ],
      "stateMutability": "view",
      "type": "function"
    },
    {
      "inputs": [
        {
          "internalType": "address",
          "name": "mc",
          "type": "address"
        },
        {
          "internalType": "bytes",
          "name": "data",
          "type": "bytes"
        },
        {
          "internalType": "bool",
          "name": "useCreate2",
          "type": "bool"
        }
      ],
      "name": "registerBigBang",
      "outputs": [
        {
          "internalType": "address",
          "name": "_contract",
          "type": "address"
        }
      ],
      "stateMutability": "payable",
      "type": "function"
    },
    {
      "inputs": [
        {
          "internalType": "address",
          "name": "mcAddress",
          "type": "address"
        },
        {
          "internalType": "enum IPenrose.ContractType",
          "name": "contractType_",
          "type": "uint8"
        }
      ],
      "name": "registerBigBangMasterContract",
      "outputs": [],
      "stateMutability": "nonpayable",
      "type": "function"
    },
    {
      "inputs": [
        {
          "internalType": "address",
          "name": "mc",
          "type": "address"
        },
        {
          "internalType": "bytes",
          "name": "data",
          "type": "bytes"
        },
        {
          "internalType": "bool",
          "name": "useCreate2",
          "type": "bool"
        }
      ],
      "name": "registerSingularity",
      "outputs": [
        {
          "internalType": "address",
          "name": "_contract",
          "type": "address"
        }
      ],
      "stateMutability": "payable",
      "type": "function"
    },
    {
      "inputs": [
        {
          "internalType": "address",
          "name": "mcAddress",
          "type": "address"
        },
        {
          "internalType": "enum IPenrose.ContractType",
          "name": "contractType_",
          "type": "uint8"
        }
      ],
      "name": "registerSingularityMasterContract",
      "outputs": [],
      "stateMutability": "nonpayable",
      "type": "function"
    },
    {
      "inputs": [
        {
          "internalType": "address",
          "name": "_market",
          "type": "address"
        }
      ],
      "name": "setBigBangEthMarket",
      "outputs": [],
      "stateMutability": "nonpayable",
      "type": "function"
    },
    {
      "inputs": [
        {
          "internalType": "uint256",
          "name": "_rate",
          "type": "uint256"
        }
      ],
      "name": "setBigBangEthMarketDebtRate",
      "outputs": [],
      "stateMutability": "nonpayable",
      "type": "function"
    },
    {
      "inputs": [
        {
          "internalType": "address",
          "name": "_conservator",
          "type": "address"
        }
      ],
      "name": "setConservator",
      "outputs": [],
      "stateMutability": "nonpayable",
      "type": "function"
    },
    {
      "inputs": [
        {
          "internalType": "address",
          "name": "feeTo_",
          "type": "address"
        }
      ],
      "name": "setFeeTo",
      "outputs": [],
      "stateMutability": "nonpayable",
      "type": "function"
    },
    {
      "inputs": [
        {
          "internalType": "contract ISwapper",
          "name": "swapper",
          "type": "address"
        },
        {
          "internalType": "bool",
          "name": "enable",
          "type": "bool"
        }
      ],
      "name": "setSwapper",
      "outputs": [],
      "stateMutability": "nonpayable",
      "type": "function"
    },
    {
      "inputs": [
        {
          "internalType": "address",
          "name": "_usdoToken",
          "type": "address"
        }
      ],
      "name": "setUsdoToken",
      "outputs": [],
      "stateMutability": "nonpayable",
      "type": "function"
    },
    {
      "inputs": [],
      "name": "singularityMarkets",
      "outputs": [
        {
          "internalType": "address[]",
          "name": "markets",
          "type": "address[]"
        }
      ],
      "stateMutability": "view",
      "type": "function"
    },
    {
      "inputs": [],
      "name": "singularityMasterContractLength",
      "outputs": [
        {
          "internalType": "uint256",
          "name": "",
          "type": "uint256"
        }
      ],
      "stateMutability": "view",
      "type": "function"
    },
    {
      "inputs": [
        {
          "internalType": "uint256",
          "name": "",
          "type": "uint256"
        }
      ],
      "name": "singularityMasterContracts",
      "outputs": [
        {
          "internalType": "address",
          "name": "location",
          "type": "address"
        },
        {
          "internalType": "enum IPenrose.ContractType",
          "name": "risk",
          "type": "uint8"
        }
      ],
      "stateMutability": "view",
      "type": "function"
    },
    {
      "inputs": [
        {
          "internalType": "contract ISwapper",
          "name": "",
          "type": "address"
        }
      ],
      "name": "swappers",
      "outputs": [
        {
          "internalType": "bool",
          "name": "",
          "type": "bool"
        }
      ],
      "stateMutability": "view",
      "type": "function"
    },
    {
      "inputs": [],
      "name": "tapAssetId",
      "outputs": [
        {
          "internalType": "uint256",
          "name": "",
          "type": "uint256"
        }
      ],
      "stateMutability": "view",
      "type": "function"
    },
    {
      "inputs": [],
      "name": "tapToken",
      "outputs": [
        {
          "internalType": "contract IERC20",
          "name": "",
          "type": "address"
        }
      ],
      "stateMutability": "view",
      "type": "function"
    },
    {
      "inputs": [
        {
          "internalType": "address",
          "name": "newOwner",
          "type": "address"
        },
        {
          "internalType": "bool",
          "name": "direct",
          "type": "bool"
        },
        {
          "internalType": "bool",
          "name": "renounce",
          "type": "bool"
        }
      ],
      "name": "transferOwnership",
      "outputs": [],
      "stateMutability": "nonpayable",
      "type": "function"
    },
    {
      "inputs": [
        {
          "internalType": "bool",
          "name": "val",
          "type": "bool"
        }
      ],
      "name": "updatePause",
      "outputs": [],
      "stateMutability": "nonpayable",
      "type": "function"
    },
    {
      "inputs": [],
      "name": "usdoAssetId",
      "outputs": [
        {
          "internalType": "uint256",
          "name": "",
          "type": "uint256"
        }
      ],
      "stateMutability": "view",
      "type": "function"
    },
    {
      "inputs": [],
      "name": "usdoToken",
      "outputs": [
        {
          "internalType": "contract IUSD0",
          "name": "",
          "type": "address"
        }
      ],
      "stateMutability": "view",
      "type": "function"
    },
    {
      "inputs": [],
      "name": "wethAssetId",
      "outputs": [
        {
          "internalType": "uint256",
          "name": "",
          "type": "uint256"
        }
      ],
      "stateMutability": "view",
      "type": "function"
    },
    {
      "inputs": [],
      "name": "wethToken",
      "outputs": [
        {
          "internalType": "contract IERC20",
          "name": "",
          "type": "address"
        }
      ],
      "stateMutability": "view",
      "type": "function"
    },
    {
      "inputs": [
        {
          "internalType": "contract IFee[]",
          "name": "markets_",
          "type": "address[]"
        },
        {
          "internalType": "contract ISwapper[]",
          "name": "swappers_",
          "type": "address[]"
        },
        {
          "components": [
            {
              "internalType": "uint256",
              "name": "minAssetAmount",
              "type": "uint256"
            }
          ],
          "internalType": "struct IPenrose.SwapData[]",
          "name": "swapData_",
          "type": "tuple[]"
        }
      ],
      "name": "withdrawAllBigBangFees",
      "outputs": [],
      "stateMutability": "nonpayable",
      "type": "function"
    },
    {
      "inputs": [
        {
          "internalType": "contract IFee[]",
          "name": "markets_",
          "type": "address[]"
        },
        {
          "internalType": "contract ISwapper[]",
          "name": "swappers_",
          "type": "address[]"
        },
        {
          "components": [
            {
              "internalType": "uint256",
              "name": "minAssetAmount",
              "type": "uint256"
            }
          ],
          "internalType": "struct IPenrose.SwapData[]",
          "name": "swapData_",
          "type": "tuple[]"
        }
      ],
      "name": "withdrawAllSingularityFees",
      "outputs": [],
      "stateMutability": "nonpayable",
      "type": "function"
    },
    {
      "inputs": [],
      "name": "yieldBox",
      "outputs": [
        {
          "internalType": "contract YieldBox",
          "name": "",
          "type": "address"
        }
      ],
      "stateMutability": "view",
      "type": "function"
    }
  ],
  "transactionHash": "0x51590914cd96252e6c832a77c87fd99aaa1495b2fc6eb1062e470d696547d004",
  "args": [
    "0xFCdE8366705e8A9c1eDE4C56D716c9e7564CE50D",
    "0xC27F48670cDae9Eee92156209642d47Ea1B85a35",
    "0xd428690148436dA9c7422698eEe15F51C8cec871"
  ],
  "numDeployments": 1,
  "solcInputHash": "00159a693e7dec675ccf3b4367e7c901",
  "bytecode": "0x6101206040523480156200001257600080fd5b5060405162002d8338038062002d838339810160408190526200003591620001e4565b600080546001600160a01b0319163390811782556040519091907f8be0079c531659141344cd1fd0a4f28419497f9722a3daafe3b4186f6b6457e0908290a36001600160a01b03808416608081905290831660a052604051632c1876e560e21b815263b061db9490620000b5906001908690600090819060040162000238565b602060405180830381600087803b158015620000d057600080fd5b505af1158015620000e5573d6000803e3d6000fd5b505050506040513d601f19601f820116820180604052508101906200010b91906200027e565b6001600160601b031660c0526001600160a01b0380821660e052604051632c1876e560e21b81529084169063b061db949062000154906001908590600090819060040162000238565b602060405180830381600087803b1580156200016f57600080fd5b505af115801562000184573d6000803e3d6000fd5b505050506040513d601f19601f82011682018060405250810190620001aa91906200027e565b6001600160601b03166101005250506611c37937e08000600c555062000298565b6001600160a01b0381168114620001e157600080fd5b50565b600080600060608486031215620001fa57600080fd5b83516200020781620001cb565b60208501519093506200021a81620001cb565b60408501519092506200022d81620001cb565b809150509250925092565b60808101600586106200025b57634e487b7160e01b600052602160045260246000fd5b9481526001600160a01b0393841660208201529190921660408201526060015290565b6000602082840312156200029157600080fd5b5051919050565b60805160a05160c05160e05161010051612a6e62000315600039600061029b0152600061045701526000610340015260006105df015260008181610673015281816109e901528181610add01528181610efe0152818161136c0152818161156e0152818161189d01528181611a000152611aaf0152612a6e6000f3fe6080604052600436106102255760003560e01c806386c8e21d11610123578063ce8849ed116100ab578063f07794c51161006f578063f07794c5146106cb578063f189e10f146106eb578063f46901ed14610700578063f8974de014610720578063fa74f0b51461074057600080fd5b8063ce8849ed14610621578063d5089cf614610641578063de40657714610661578063e30c397814610695578063e6abad49146106b557600080fd5b8063972c1616116100f2578063972c16161461056d578063c24795f81461058d578063c6d9ce34146105ad578063c7cee532146105cd578063c9f5f54e1461060157600080fd5b806386c8e21d146104f45780638cad7fbe1461050a5780638da5cb5b1461053a5780639488c4dc1461055a57600080fd5b80632a68ecfa116101b15780634b57b0be116101755780634b57b0be146104455780634e71e0c8146104795780635c975abb1461048e5780636100ff14146104bf578063761b3a51146104df57600080fd5b80632a68ecfa146103a457806333a4eebe146103d257806339e02851146103f25780633dd5a89f146104055780633f2617cb1461042557600080fd5b806307bd3e20116101f857806307bd3e20146102eb578063099bfe4c146103005780630e7ee2271461032e578063170f4e8d146103625780632324248e1461038457600080fd5b8063017e7e581461022a57806301da1fd71461026757806302f5d1a214610289578063078dfbe7146102cb575b600080fd5b34801561023657600080fd5b5060095461024a906001600160a01b031681565b6040516001600160a01b0390911681526020015b60405180910390f35b34801561027357600080fd5b506102876102823660046120f3565b610760565b005b34801561029557600080fd5b506102bd7f000000000000000000000000000000000000000000000000000000000000000081565b60405190815260200161025e565b3480156102d757600080fd5b506102876102e636600461212c565b6107dd565b3480156102f757600080fd5b506006546102bd565b34801561030c57600080fd5b5061032061031b366004612274565b6108ec565b60405161025e9291906123fb565b34801561033a57600080fd5b506102bd7f000000000000000000000000000000000000000000000000000000000000000081565b34801561036e57600080fd5b50610377610d38565b60405161025e9190612495565b34801561039057600080fd5b5060035461024a906001600160a01b031681565b3480156103b057600080fd5b506103c46103bf3660046124e2565b610de2565b60405161025e929190612511565b3480156103de57600080fd5b506102876103ed3660046124e2565b610e17565b61024a61040036600461253e565b610e7d565b34801561041157600080fd5b506102876104203660046125c8565b610fdb565b34801561043157600080fd5b50610287610440366004612661565b6111c9565b34801561045157600080fd5b5061024a7f000000000000000000000000000000000000000000000000000000000000000081565b34801561048557600080fd5b50610287611256565b34801561049a57600080fd5b506002546104af90600160a01b900460ff1681565b604051901515815260200161025e565b3480156104cb57600080fd5b506102876104da3660046120f3565b611313565b3480156104eb57600080fd5b50610377611451565b34801561050057600080fd5b506102bd60045481565b34801561051657600080fd5b506104af6105253660046120f3565b600a6020526000908152604090205460ff1681565b34801561054657600080fd5b5060005461024a906001600160a01b031681565b61024a61056836600461253e565b6114ed565b34801561057957600080fd5b506102876105883660046125c8565b61163e565b34801561059957600080fd5b50600b5461024a906001600160a01b031681565b3480156105b957600080fd5b506102876105c83660046126a5565b6116cf565b3480156105d957600080fd5b5061024a7f000000000000000000000000000000000000000000000000000000000000000081565b34801561060d57600080fd5b5061037761061c3660046126d1565b61188a565b34801561062d57600080fd5b5060025461024a906001600160a01b031681565b34801561064d57600080fd5b5061028761065c3660046126a5565b611b73565b34801561066d57600080fd5b5061024a7f000000000000000000000000000000000000000000000000000000000000000081565b3480156106a157600080fd5b5060015461024a906001600160a01b031681565b3480156106c157600080fd5b506102bd600c5481565b3480156106d757600080fd5b506103c46106e63660046124e2565b611d21565b3480156106f757600080fd5b506005546102bd565b34801561070c57600080fd5b5061028761071b3660046120f3565b611d31565b34801561072c57600080fd5b5061028761073b366004612797565b611da9565b34801561074c57600080fd5b5061028761075b3660046120f3565b611ebb565b6000546001600160a01b031633146107935760405162461bcd60e51b815260040161078a906127b2565b60405180910390fd5b600b80546001600160a01b0319166001600160a01b0383169081179091556040517f05a3bc54d597552ff0a566bf5b517f1b7594fde92cf27d354e8a5b56cc26ade790600090a250565b6000546001600160a01b031633146108075760405162461bcd60e51b815260040161078a906127b2565b81156108ca576001600160a01b0383161515806108215750805b6108655760405162461bcd60e51b81526020600482015260156024820152744f776e61626c653a207a65726f206164647265737360581b604482015260640161078a565b600080546040516001600160a01b03808716939216917f8be0079c531659141344cd1fd0a4f28419497f9722a3daafe3b4186f6b6457e091a3600080546001600160a01b0385166001600160a01b031991821617909155600180549091169055505050565b600180546001600160a01b0385166001600160a01b0319909116179055505050565b60005460609081906001600160a01b0316331461091b5760405162461bcd60e51b815260040161078a906127b2565b600254600160a01b900460ff16156109455760405162461bcd60e51b815260040161078a906127e7565b84806001600160401b0381111561095e5761095e6121bc565b604051908082528060200260200182016040528015610987578160200160208202803683370190505b509250806001600160401b038111156109a2576109a26121bc565b6040519080825280602002602001820160405280156109d557816020015b60608152602001906001900390816109c05790505b50915060005b81811015610d2d57600760007f00000000000000000000000000000000000000000000000000000000000000006001600160a01b031663bafe4f148b8b86818110610a2857610a28612810565b9050602002016020810190610a3d91906120f3565b6040516001600160e01b031960e084901b1681526001600160a01b03909116600482015260240160206040518083038186803b158015610a7c57600080fd5b505afa158015610a90573d6000803e3d6000fd5b505050506040513d601f19601f82011682018060405250810190610ab49190612826565b6001600160a01b0316815260208101919091526040016000205460ff1680610bc65750600860007f00000000000000000000000000000000000000000000000000000000000000006001600160a01b031663bafe4f148b8b86818110610b1c57610b1c612810565b9050602002016020810190610b3191906120f3565b6040516001600160e01b031960e084901b1681526001600160a01b03909116600482015260240160206040518083038186803b158015610b7057600080fd5b505afa158015610b84573d6000803e3d6000fd5b505050506040513d601f19601f82011682018060405250810190610ba89190612826565b6001600160a01b0316815260208101919091526040016000205460ff165b610be25760405162461bcd60e51b815260040161078a90612843565b878782818110610bf457610bf4612810565b9050602002016020810190610c0991906120f3565b6001600160a01b0316868281518110610c2457610c24612810565b6020026020010151604051610c39919061287a565b6000604051808303816000865af19150503d8060008114610c76576040519150601f19603f3d011682016040523d82523d6000602084013e610c7b565b606091505b50858381518110610c8e57610c8e612810565b60200260200101858481518110610ca757610ca7612810565b60200260200101829052821515151581525050508415610d1d57838181518110610cd357610cd3612810565b6020026020010151610cfd848381518110610cf057610cf0612810565b6020026020010151611f97565b90610d1b5760405162461bcd60e51b815260040161078a9190612896565b505b610d26816128a9565b90506109db565b505094509492505050565b6060610ddd6006805480602002602001604051908101604052809291908181526020016000905b82821015610dd45760008481526020908190206040805180820190915290840180546001600160a01b03811683529192909190830190600160a01b900460ff166002811115610db057610db06124fb565b6002811115610dc157610dc16124fb565b8152505081526020019060010190610d5f565b5050505061188a565b905090565b60058181548110610df257600080fd5b6000918252602090912001546001600160a01b0381169150600160a01b900460ff1682565b6000546001600160a01b03163314610e415760405162461bcd60e51b815260040161078a906127b2565b600c8190556040518181527fc6a0012625ed6d4deeafb5c9c0cb3bfb6eb4d39f37aea3e5ca964dc29a421454906020015b60405180910390a150565b600080546001600160a01b03163314610ea85760405162461bcd60e51b815260040161078a906127b2565b6001600160a01b038516600090815260086020526040902054859060ff161515600114610ee75760405162461bcd60e51b815260040161078a90612843565b604051631f54245b60e01b81526001600160a01b037f00000000000000000000000000000000000000000000000000000000000000001690631f54245b90610f399089908990899089906004016128d2565b602060405180830381600087803b158015610f5357600080fd5b505af1158015610f67573d6000803e3d6000fd5b505050506040513d601f19601f82011682018060405250810190610f8b9190612826565b604080516001600160a01b038084168252891660208201529193507f4e9173da15b3f07367dc29002c27568aceeaadc25679cc0fffedeb40e13d094291015b60405180910390a150949350505050565b600254600160a01b900460ff16156110055760405162461bcd60e51b815260040161078a906127e7565b848314801561101357508281145b61105a5760405162461bcd60e51b81526020600482015260186024820152770a0cadce4dee6ca7440d8cadccee8d040dad2e6dac2e8c6d60431b604482015260640161078a565b60008484828161106c5761106c612810565b905060200201602081019061108191906120f3565b6001600160a01b031614156110d05760405162461bcd60e51b815260206004820152601560248201527450656e726f73653a207a65726f206164647265737360581b604482015260640161078a565b6000868682816110e2576110e2612810565b90506020020160208101906110f791906120f3565b6001600160a01b031614156111465760405162461bcd60e51b815260206004820152601560248201527450656e726f73653a207a65726f206164647265737360581b604482015260640161078a565b611186848484848a8a80806020026020016040519081016040528093929190818152602001838360200280828437600092019190915250611ff292505050565b7fdc0aec64e01514853db7bc1f49a7321726ef185b59f680c9bc9edcf499722bc78686426040516111b99392919061291c565b60405180910390a1505050505050565b6000546001600160a01b031633146111f35760405162461bcd60e51b815260040161078a906127b2565b6001600160a01b0382166000818152600a6020908152604091829020805460ff19168515159081179091558251938452908301527fa893ff5e6c8549e5f4e3d6bb1d38cbf1ede3443ef5726c0477f01c296f7eaf02910160405180910390a15050565b6001546001600160a01b03163381146112b15760405162461bcd60e51b815260206004820181905260248201527f4f776e61626c653a2063616c6c657220213d2070656e64696e67206f776e6572604482015260640161078a565b600080546040516001600160a01b03808516939216917f8be0079c531659141344cd1fd0a4f28419497f9722a3daafe3b4186f6b6457e091a3600080546001600160a01b039092166001600160a01b0319928316179055600180549091169055565b6000546001600160a01b0316331461133d5760405162461bcd60e51b815260040161078a906127b2565b600380546001600160a01b0319166001600160a01b0383811691909117909155604051632c1876e560e21b81527f00000000000000000000000000000000000000000000000000000000000000009091169063b061db94906113ab9060019085906000908190600401612972565b602060405180830381600087803b1580156113c557600080fd5b505af11580156113d9573d6000803e3d6000fd5b505050506040513d601f19601f820116820180604052508101906113fd91906129a9565b6bffffffffffffffffffffffff1660048190556040519081526001600160a01b038216907fa8bcc850e0dd5734a654196b5949251a22dec7d076dcdde7c355a1a2d6006e069060200160405180910390a250565b6060610ddd6005805480602002602001604051908101604052809291908181526020016000905b82821015610dd45760008481526020908190206040805180820190915290840180546001600160a01b03811683529192909190830190600160a01b900460ff1660028111156114c9576114c96124fb565b60028111156114da576114da6124fb565b8152505081526020019060010190611478565b600080546001600160a01b031633146115185760405162461bcd60e51b815260040161078a906127b2565b6001600160a01b038516600090815260076020526040902054859060ff1615156001146115575760405162461bcd60e51b815260040161078a90612843565b604051631f54245b60e01b81526001600160a01b037f00000000000000000000000000000000000000000000000000000000000000001690631f54245b906115a99089908990899089906004016128d2565b602060405180830381600087803b1580156115c357600080fd5b505af11580156115d7573d6000803e3d6000fd5b505050506040513d601f19601f820116820180604052508101906115fb9190612826565b604080516001600160a01b038084168252891660208201529193507f1105050c403ad688afa33c2669a46bcffdf42221ee17dd625d05d09f1433cd679101610fca565b600254600160a01b900460ff16156116685760405162461bcd60e51b815260040161078a906127e7565b848314801561167657508281145b6116bd5760405162461bcd60e51b81526020600482015260186024820152770a0cadce4dee6ca7440d8cadccee8d040dad2e6dac2e8c6d60431b604482015260640161078a565b6000848482816110e2576110e2612810565b6000546001600160a01b031633146116f95760405162461bcd60e51b815260040161078a906127b2565b6001600160a01b03821660009081526008602052604090205460ff161561175b5760405162461bcd60e51b815260206004820152601660248201527514195b9c9bdcd94e881350c81c9959da5cdd195c995960521b604482015260640161078a565b604080518082019091526000602082019081526001600160a01b038416825282600281111561178c5761178c6124fb565b9081600281111561179f5761179f6124fb565b9052506006805460018101825560009190915281517ff652222313e28459528d920b65115c16c04f3efc82aaedc97be59f3f377c0d3f90910180546001600160a01b039092166001600160a01b031983168117825560208401518493909183916001600160a81b03191617600160a01b836002811115611821576118216124fb565b021790555050506001600160a01b03831660009081526008602052604090819020805460ff19166001179055517f1626e61c1c5b523bd0070836aceda378b0077e870f824f71892f67f05a8a5bed9061187d9085908590612511565b60405180910390a1505050565b80516060906000805b8281101561196b577f00000000000000000000000000000000000000000000000000000000000000006001600160a01b031663fba96be88683815181106118dc576118dc612810565b6020908102919091010151516040516001600160e01b031960e084901b1681526001600160a01b03909116600482015260240160206040518083038186803b15801561192757600080fd5b505afa15801561193b573d6000803e3d6000fd5b505050506040513d601f19601f8201168201806040525081019061195f91906129a9565b90910190600101611893565b50806001600160401b03811115611984576119846121bc565b6040519080825280602002602001820160405280156119ad578160200160208202803683370190505b50925060008060005b84811015611b695760008782815181106119d2576119d2612810565b602090810291909101015151604051631f752d7d60e31b81526001600160a01b0380831660048301529192507f00000000000000000000000000000000000000000000000000000000000000009091169063fba96be89060240160206040518083038186803b158015611a4457600080fd5b505afa158015611a58573d6000803e3d6000fd5b505050506040513d601f19601f82011682018060405250810190611a7c91906129a9565b925060005b83811015611b5f576040516323f50d9560e21b81526001600160a01b038381166004830152602482018390527f00000000000000000000000000000000000000000000000000000000000000001690638fd436549060440160206040518083038186803b158015611af157600080fd5b505afa158015611b05573d6000803e3d6000fd5b505050506040513d601f19601f82011682018060405250810190611b299190612826565b888681518110611b3b57611b3b612810565b6001600160a01b039092166020928302919091019091015260019485019401611a81565b50506001016119b6565b5050505050919050565b6000546001600160a01b03163314611b9d5760405162461bcd60e51b815260040161078a906127b2565b6001600160a01b03821660009081526007602052604090205460ff1615611bff5760405162461bcd60e51b815260206004820152601660248201527514195b9c9bdcd94e881350c81c9959da5cdd195c995960521b604482015260640161078a565b604080518082019091526000602082019081526001600160a01b0384168252826002811115611c3057611c306124fb565b90816002811115611c4357611c436124fb565b9052506005805460018101825560009190915281517f036b6384b5eca791c62761152d0c79bb0604c104a5fb6f4eb0703f3154bb3db090910180546001600160a01b039092166001600160a01b031983168117825560208401518493909183916001600160a81b03191617600160a01b836002811115611cc557611cc56124fb565b021790555050506001600160a01b03831660009081526007602052604090819020805460ff19166001179055517faad6359463cbbce500bced475975ef17452bdc8cbc6cf5d6bd8080c20d2f7f9f9061187d9085908590612511565b60068181548110610df257600080fd5b6000546001600160a01b03163314611d5b5760405162461bcd60e51b815260040161078a906127b2565b600980546001600160a01b0319166001600160a01b0383169081179091556040519081527f68953050a837881c7c6f52c422b0f82e1fd474e6931654ea29f569d19fcc42c290602001610e72565b6002546001600160a01b03163314611dfb5760405162461bcd60e51b815260206004820152601560248201527414195b9c9bdcd94e881d5b985d5d1a1bdc9a5e9959605a1b604482015260640161078a565b600260149054906101000a900460ff1615158115151415611e545760405162461bcd60e51b815260206004820152601360248201527250656e726f73653a2073616d6520737461746560681b604482015260640161078a565b60025460408051600160a01b90920460ff161515825282151560208301527f9c13c5f6c628c1c82eb2b3fd8714da5c2857dbd0ad8ab6b2074abcf81015d396910160405180910390a160028054911515600160a01b0260ff60a01b19909216919091179055565b6000546001600160a01b03163314611ee55760405162461bcd60e51b815260040161078a906127b2565b6001600160a01b038116611f3b5760405162461bcd60e51b815260206004820152601a60248201527f50656e726f73653a2061646472657373206e6f742076616c6964000000000000604482015260640161078a565b6002546040516001600160a01b038084169216907f5a62d22209e370e38eea92cfddcd228e656e6ec139243392a760a7769f5877fd90600090a3600280546001600160a01b0319166001600160a01b0392909216919091179055565b6060604482511015611fd257505060408051808201909152601381527253474c3a206e6f2072657475726e206461746160681b602082015290565b60048201915081806020019051810190611fec91906129c2565b92915050565b805160005b818110156120d25782818151811061201157612011612810565b60200260200101516001600160a01b0316630fde08e388888481811061203957612039612810565b905060200201602081019061204e91906120f3565b87878581811061206057612060612810565b6040516001600160e01b031960e087901b1681526001600160a01b0390941660048501526020029190910135602483015250604401600060405180830381600087803b1580156120af57600080fd5b505af11580156120c3573d6000803e3d6000fd5b50505050806001019050611ff7565b50505050505050565b6001600160a01b03811681146120f057600080fd5b50565b60006020828403121561210557600080fd5b8135612110816120db565b9392505050565b8035801515811461212757600080fd5b919050565b60008060006060848603121561214157600080fd5b833561214c816120db565b925061215a60208501612117565b915061216860408501612117565b90509250925092565b60008083601f84011261218357600080fd5b5081356001600160401b0381111561219a57600080fd5b6020830191508360208260051b85010111156121b557600080fd5b9250929050565b634e487b7160e01b600052604160045260246000fd5b604080519081016001600160401b03811182821017156121f4576121f46121bc565b60405290565b604051601f8201601f191681016001600160401b0381118282101715612222576122226121bc565b604052919050565b60006001600160401b03821115612243576122436121bc565b5060051b60200190565b60006001600160401b03821115612266576122666121bc565b50601f01601f191660200190565b6000806000806060858703121561228a57600080fd5b84356001600160401b03808211156122a157600080fd5b6122ad88838901612171565b90965094506020915086820135818111156122c757600080fd5b8701601f810189136122d857600080fd5b80356122eb6122e68261222a565b6121fa565b81815260059190911b8201840190848101908b83111561230a57600080fd5b8584015b8381101561237e5780358681111561232557600080fd5b8501603f81018e1361233657600080fd5b878101356123466122e68261224d565b8181528f604083850101111561235c5760008081fd5b81604084018b83013760009181018a019190915284525091860191860161230e565b5080975050505050505061239460408601612117565b905092959194509250565b60005b838110156123ba5781810151838201526020016123a2565b838111156123c9576000848401525b50505050565b600081518084526123e781602086016020860161239f565b601f01601f19169290920160200192915050565b604080825283519082018190526000906020906060840190828701845b82811015612436578151151584529284019290840190600101612418565b50505083810382850152845180825282820190600581901b8301840187850160005b8381101561248657601f198684030185526124748383516123cf565b94870194925090860190600101612458565b50909998505050505050505050565b6020808252825182820181905260009190848201906040850190845b818110156124d65783516001600160a01b0316835292840192918401916001016124b1565b50909695505050505050565b6000602082840312156124f457600080fd5b5035919050565b634e487b7160e01b600052602160045260246000fd5b6001600160a01b03831681526040810160038310612531576125316124fb565b8260208301529392505050565b6000806000806060858703121561255457600080fd5b843561255f816120db565b935060208501356001600160401b038082111561257b57600080fd5b818701915087601f83011261258f57600080fd5b81358181111561259e57600080fd5b8860208285010111156125b057600080fd5b60208301955080945050505061239460408601612117565b600080600080600080606087890312156125e157600080fd5b86356001600160401b03808211156125f857600080fd5b6126048a838b01612171565b9098509650602089013591508082111561261d57600080fd5b6126298a838b01612171565b9096509450604089013591508082111561264257600080fd5b5061264f89828a01612171565b979a9699509497509295939492505050565b6000806040838503121561267457600080fd5b823561267f816120db565b915061268d60208401612117565b90509250929050565b80356003811061212757600080fd5b600080604083850312156126b857600080fd5b82356126c3816120db565b915061268d60208401612696565b600060208083850312156126e457600080fd5b82356001600160401b038111156126fa57600080fd5b8301601f8101851361270b57600080fd5b80356127196122e68261222a565b81815260069190911b8201830190838101908783111561273857600080fd5b928401925b8284101561278c57604084890312156127565760008081fd5b61275e6121d2565b8435612769816120db565b8152612776858701612696565b818701528252604093909301929084019061273d565b979650505050505050565b6000602082840312156127a957600080fd5b61211082612117565b6020808252818101527f4f776e61626c653a2063616c6c6572206973206e6f7420746865206f776e6572604082015260600190565b6020808252600f908201526e14195b9c9bdcd94e881c185d5cd959608a1b604082015260600190565b634e487b7160e01b600052603260045260246000fd5b60006020828403121561283857600080fd5b8151612110816120db565b6020808252601a908201527f50656e726f73653a204d43206e6f742072656769737465726564000000000000604082015260600190565b6000825161288c81846020870161239f565b9190910192915050565b60208152600061211060208301846123cf565b60006000198214156128cb57634e487b7160e01b600052601160045260246000fd5b5060010190565b6001600160a01b038516815260606020820181905281018390528284608083013760008184016080908101919091529115156040820152601f909201601f19169091010192915050565b6040808252810183905260008460608301825b8681101561295f578235612942816120db565b6001600160a01b031682526020928301929091019060010161292f565b5060209390930193909352509392505050565b6080810160058610612986576129866124fb565b9481526001600160a01b0393841660208201529190921660408201526060015290565b6000602082840312156129bb57600080fd5b5051919050565b6000602082840312156129d457600080fd5b81516001600160401b038111156129ea57600080fd5b8201601f810184136129fb57600080fd5b8051612a096122e68261224d565b818152856020838501011115612a1e57600080fd5b612a2f82602083016020860161239f565b9594505050505056fea26469706673582212206822a67df276b7f4cd9f99294902369eca688c0da8f7a1d7aa127c765a515ed464736f6c63430008090033",
  "devdoc": {
    "kind": "dev",
    "methods": {
      "bigBangMarkets()": {
        "returns": {
          "markets": "list of available markets"
        }
      },
      "constructor": {
        "params": {
          "_yieldBox": "YieldBox contract address",
          "tapToken_": "TapOFT contract address"
        }
      },
      "registerBigBang(address,bytes,bool)": {
        "params": {
          "data": "The init data of the BigBang contract",
          "mc": "The address of the master contract which must be already registered",
          "useCreate2": "Whether to use create2 or not"
        }
      },
      "registerBigBangMasterContract(address,uint8)": {
        "params": {
          "contractType_": "The risk type of the contract",
          "mcAddress": "The address of the contract"
        }
      },
      "registerSingularity(address,bytes,bool)": {
        "params": {
          "data": "The init data of the Singularity",
          "mc": "The address of the master contract which must be already registered",
          "useCreate2": "Whether to use create2 or not"
        }
      },
      "registerSingularityMasterContract(address,uint8)": {
        "params": {
          "contractType_": "The risk type of the contract",
          "mcAddress": "The address of the contract"
        }
      },
      "setBigBangEthMarket(address)": {
        "details": "needed for the variable debt computation"
      },
      "setBigBangEthMarketDebtRate(uint256)": {
        "params": {
          "_rate": "the new rate "
        }
      },
      "setConservator(address)": {
        "details": "Conservator can pause the contract",
        "params": {
          "_conservator": "The new address"
        }
      },
      "setSwapper(address,bool)": {
        "params": {
          "enable": "True to enable the swapper. To disable use False.",
          "swapper": "The address of the swapper contract that conforms to `ISwapper`."
        }
      },
      "setUsdoToken(address)": {
        "details": "sets usdoToken and usdoAssetId",
        "params": {
          "_usdoToken": "the USD0 token address"
        }
      },
      "singularityMarkets()": {
        "returns": {
          "markets": "list of available markets"
        }
      },
      "transferOwnership(address,bool,bool)": {
        "params": {
          "direct": "True if `newOwner` should be set immediately. False if `newOwner` needs to use `claimOwnership`.",
          "newOwner": "Address of the new owner.",
          "renounce": "Allows the `newOwner` to be `address(0)` if `direct` and `renounce` is True. Has no effect otherwise."
        }
      },
      "updatePause(bool)": {
        "params": {
          "val": "the new value"
        }
      },
      "withdrawAllBigBangFees(address[],address[],(uint256)[])": {
        "details": "`swappers_` can have one element that'll be used for all clones. Or one swapper per MasterContract.Fees are withdrawn in TAP and sent to the FeeDistributor contract",
        "params": {
          "swappers_": "One or more swappers to convert the asset to TAP."
        }
      },
      "withdrawAllSingularityFees(address[],address[],(uint256)[])": {
        "details": "`swappers_` can have one element that'll be used for all clones. Or one swapper per MasterContract.Fees are withdrawn in TAP and sent to the FeeDistributor contract",
        "params": {
          "swappers_": "One or more swappers to convert the asset to TAP."
        }
      }
    },
    "title": "Global market registry",
    "version": 1
  },
  "userdoc": {
    "kind": "user",
    "methods": {
      "bigBangMarkets()": {
        "notice": "Get all the BigBang contract addresses"
      },
      "bigBangMasterContractLength()": {
        "notice": "Get the length of `bigbangMasterContracts`"
      },
      "claimOwnership()": {
        "notice": "Needs to be called by `pendingOwner` to claim ownership."
      },
      "conservator()": {
        "notice": "returns the Conservator address"
      },
      "constructor": {
        "notice": "creates a Penrose contract"
      },
      "executeMarketFn(address[],bytes[],bool)": {
        "notice": "Execute an only owner function inside of a Singularity or a BigBang market"
      },
      "feeTo()": {
        "notice": "protocol fees"
      },
      "paused()": {
        "notice": "returns the pause state of the contract"
      },
      "registerBigBang(address,bytes,bool)": {
        "notice": "Registers a BigBang market"
      },
      "registerBigBangMasterContract(address,uint8)": {
        "notice": "Register a BigBang master contract"
      },
      "registerSingularity(address,bytes,bool)": {
        "notice": "Registers a Singularity market"
      },
      "registerSingularityMasterContract(address,uint8)": {
        "notice": "Register a Singularity master contract"
      },
      "setBigBangEthMarket(address)": {
        "notice": "sets the main BigBang market"
      },
      "setBigBangEthMarketDebtRate(uint256)": {
        "notice": "sets the main BigBang market debt rate"
      },
      "setConservator(address)": {
        "notice": "Set the Conservator address"
      },
      "setFeeTo(address)": {
        "notice": "Set protocol fees address"
      },
      "setSwapper(address,bool)": {
        "notice": "Used to register and enable or disable swapper contracts used in closed liquidations. MasterContract Only Admin function."
      },
      "setUsdoToken(address)": {
        "notice": "Set the USD0 token"
      },
      "singularityMarkets()": {
        "notice": "Get all the Singularity contract addresses"
      },
      "singularityMasterContractLength()": {
        "notice": "Get the length of `singularityMasterContracts`"
      },
      "singularityMasterContracts(uint256)": {
        "notice": "master contracts registered"
      },
      "swappers(address)": {
        "notice": "whitelisted swappers"
      },
      "tapAssetId()": {
        "notice": "returns TAP asset id registered in the YieldBox contract"
      },
      "tapToken()": {
        "notice": "returns the TAP contract"
      },
      "transferOwnership(address,bool,bool)": {
        "notice": "Transfers ownership to `newOwner`. Either directly or claimable by the new pending owner. Can only be invoked by the current `owner`."
      },
      "updatePause(bool)": {
        "notice": "updates the pause state of the contract"
      },
      "usdoAssetId()": {
        "notice": "returns USD0 asset id registered in the YieldBox contract"
      },
      "usdoToken()": {
        "notice": "returns USD0 contract"
      },
      "wethAssetId()": {
        "notice": "returns WETH asset id registered in the YieldBox contract"
      },
      "wethToken()": {
        "notice": "returns the WETH contract"
      },
      "withdrawAllBigBangFees(address[],address[],(uint256)[])": {
        "notice": "Loop through the master contracts and call `depositFeesToYieldBox()` to each one of their clones."
      },
      "withdrawAllSingularityFees(address[],address[],(uint256)[])": {
        "notice": "Loop through the master contracts and call `depositFeesToYieldBox()` to each one of their clones."
      },
      "yieldBox()": {
        "notice": "returns the YieldBox contract"
      }
    },
    "notice": "+ asset registration? (toggle to renounce ownership so users can call)Singularity management",
    "version": 1
  },
  "storageLayout": {
    "storage": [
      {
        "astId": 233,
        "contract": "contracts/Penrose.sol:Penrose",
        "label": "owner",
        "offset": 0,
        "slot": "0",
        "type": "t_address"
      },
      {
        "astId": 235,
        "contract": "contracts/Penrose.sol:Penrose",
        "label": "pendingOwner",
        "offset": 0,
        "slot": "1",
        "type": "t_address"
      },
      {
        "astId": 4596,
        "contract": "contracts/Penrose.sol:Penrose",
        "label": "conservator",
        "offset": 0,
        "slot": "2",
        "type": "t_address"
      },
      {
        "astId": 4599,
        "contract": "contracts/Penrose.sol:Penrose",
        "label": "paused",
        "offset": 20,
        "slot": "2",
        "type": "t_bool"
      },
      {
        "astId": 4614,
        "contract": "contracts/Penrose.sol:Penrose",
        "label": "usdoToken",
        "offset": 0,
        "slot": "3",
        "type": "t_contract(IUSD0)20000"
      },
      {
        "astId": 4617,
        "contract": "contracts/Penrose.sol:Penrose",
        "label": "usdoAssetId",
        "offset": 0,
        "slot": "4",
        "type": "t_uint256"
      },
      {
        "astId": 4629,
        "contract": "contracts/Penrose.sol:Penrose",
        "label": "singularityMasterContracts",
        "offset": 0,
        "slot": "5",
        "type": "t_array(t_struct(MasterContract)5879_storage)dyn_storage"
      },
      {
        "astId": 4633,
        "contract": "contracts/Penrose.sol:Penrose",
        "label": "bigbangMasterContracts",
        "offset": 0,
        "slot": "6",
        "type": "t_array(t_struct(MasterContract)5879_storage)dyn_storage"
      },
      {
        "astId": 4637,
        "contract": "contracts/Penrose.sol:Penrose",
        "label": "isSingularityMasterContractRegistered",
        "offset": 0,
        "slot": "7",
        "type": "t_mapping(t_address,t_bool)"
      },
      {
        "astId": 4641,
        "contract": "contracts/Penrose.sol:Penrose",
        "label": "isBigBangMasterContractRegistered",
        "offset": 0,
        "slot": "8",
        "type": "t_mapping(t_address,t_bool)"
      },
      {
        "astId": 4644,
        "contract": "contracts/Penrose.sol:Penrose",
        "label": "feeTo",
        "offset": 0,
        "slot": "9",
        "type": "t_address"
      },
      {
        "astId": 4650,
        "contract": "contracts/Penrose.sol:Penrose",
        "label": "swappers",
        "offset": 0,
        "slot": "10",
        "type": "t_mapping(t_contract(ISwapper)15804,t_bool)"
      },
      {
        "astId": 4652,
        "contract": "contracts/Penrose.sol:Penrose",
        "label": "bigBangEthMarket",
        "offset": 0,
        "slot": "11",
        "type": "t_address"
      },
      {
        "astId": 4654,
        "contract": "contracts/Penrose.sol:Penrose",
        "label": "bigBangEthDebtRate",
        "offset": 0,
        "slot": "12",
        "type": "t_uint256"
      }
    ],
    "types": {
      "t_address": {
        "encoding": "inplace",
        "label": "address",
        "numberOfBytes": "20"
      },
      "t_array(t_struct(MasterContract)5879_storage)dyn_storage": {
        "base": "t_struct(MasterContract)5879_storage",
        "encoding": "dynamic_array",
        "label": "struct IPenrose.MasterContract[]",
        "numberOfBytes": "32"
      },
      "t_bool": {
        "encoding": "inplace",
        "label": "bool",
        "numberOfBytes": "1"
      },
      "t_contract(ISwapper)15804": {
        "encoding": "inplace",
        "label": "contract ISwapper",
        "numberOfBytes": "20"
      },
      "t_contract(IUSD0)20000": {
        "encoding": "inplace",
        "label": "contract IUSD0",
        "numberOfBytes": "20"
      },
      "t_enum(ContractType)5873": {
        "encoding": "inplace",
        "label": "enum IPenrose.ContractType",
        "numberOfBytes": "1"
      },
      "t_mapping(t_address,t_bool)": {
        "encoding": "mapping",
        "key": "t_address",
        "label": "mapping(address => bool)",
        "numberOfBytes": "32",
        "value": "t_bool"
      },
      "t_mapping(t_contract(ISwapper)15804,t_bool)": {
        "encoding": "mapping",
        "key": "t_contract(ISwapper)15804",
        "label": "mapping(contract ISwapper => bool)",
        "numberOfBytes": "32",
        "value": "t_bool"
      },
      "t_struct(MasterContract)5879_storage": {
        "encoding": "inplace",
        "label": "struct IPenrose.MasterContract",
        "members": [
          {
            "astId": 5875,
            "contract": "contracts/Penrose.sol:Penrose",
            "label": "location",
            "offset": 0,
            "slot": "0",
            "type": "t_address"
          },
          {
            "astId": 5878,
            "contract": "contracts/Penrose.sol:Penrose",
            "label": "risk",
            "offset": 20,
            "slot": "0",
            "type": "t_enum(ContractType)5873"
          }
        ],
        "numberOfBytes": "32"
      },
      "t_uint256": {
        "encoding": "inplace",
        "label": "uint256",
        "numberOfBytes": "32"
      }
    }
  }
}