{
  "address": "0x8d0AbE838d85F14E93C51bd04b26A6dCCcc88584",
  "abi": [
    {
      "inputs": [
        {
          "internalType": "contract YieldBox",
          "name": "_yieldBox",
          "type": "address"
        },
        {
          "internalType": "contract IERC20",
          "name": "tapToken_",
          "type": "address"
        },
        {
          "internalType": "contract IERC20",
          "name": "wethToken_",
          "type": "address"
        }
      ],
      "stateMutability": "nonpayable",
      "type": "constructor"
    },
    {
      "anonymous": false,
      "inputs": [
        {
          "indexed": false,
          "internalType": "uint256",
          "name": "_rate",
          "type": "uint256"
        }
      ],
      "name": "BigBangEthMarketDebtRate",
      "type": "event"
    },
    {
      "anonymous": false,
      "inputs": [
        {
          "indexed": true,
          "internalType": "address",
          "name": "_newAddress",
          "type": "address"
        }
      ],
      "name": "BigBangEthMarketSet",
      "type": "event"
    },
    {
      "anonymous": false,
      "inputs": [
        {
          "indexed": true,
          "internalType": "address",
          "name": "old",
          "type": "address"
        },
        {
          "indexed": true,
          "internalType": "address",
          "name": "_new",
          "type": "address"
        }
      ],
      "name": "ConservatorUpdated",
      "type": "event"
    },
    {
      "anonymous": false,
      "inputs": [
        {
          "indexed": false,
          "internalType": "address",
          "name": "newFeeTo",
          "type": "address"
        }
      ],
      "name": "FeeToUpdate",
      "type": "event"
    },
    {
      "anonymous": false,
      "inputs": [
        {
          "indexed": false,
          "internalType": "address",
          "name": "newFeeVeTap",
          "type": "address"
        }
      ],
      "name": "FeeVeTapUpdate",
      "type": "event"
    },
    {
      "anonymous": false,
      "inputs": [
        {
          "indexed": true,
          "internalType": "address",
          "name": "masterContract",
          "type": "address"
        },
        {
          "indexed": false,
          "internalType": "bytes",
          "name": "data",
          "type": "bytes"
        },
        {
          "indexed": true,
          "internalType": "address",
          "name": "cloneAddress",
          "type": "address"
        }
      ],
      "name": "LogDeploy",
      "type": "event"
    },
    {
      "anonymous": false,
      "inputs": [
        {
          "indexed": true,
          "internalType": "address",
          "name": "previousOwner",
          "type": "address"
        },
        {
          "indexed": true,
          "internalType": "address",
          "name": "newOwner",
          "type": "address"
        }
      ],
      "name": "OwnershipTransferred",
      "type": "event"
    },
    {
      "anonymous": false,
      "inputs": [
        {
          "indexed": false,
          "internalType": "bool",
          "name": "oldState",
          "type": "bool"
        },
        {
          "indexed": false,
          "internalType": "bool",
          "name": "newState",
          "type": "bool"
        }
      ],
      "name": "PausedUpdated",
      "type": "event"
    },
    {
      "anonymous": false,
      "inputs": [
        {
          "indexed": false,
          "internalType": "contract IFee[]",
          "name": "markets",
          "type": "address[]"
        },
        {
          "indexed": false,
          "internalType": "uint256",
          "name": "timestamp",
          "type": "uint256"
        }
      ],
      "name": "ProtocolWithdrawal",
      "type": "event"
    },
    {
      "anonymous": false,
      "inputs": [
        {
          "indexed": false,
          "internalType": "address",
          "name": "location",
          "type": "address"
        },
        {
          "indexed": false,
          "internalType": "address",
          "name": "masterContract",
          "type": "address"
        }
      ],
      "name": "RegisterBigBang",
      "type": "event"
    },
    {
      "anonymous": false,
      "inputs": [
        {
          "indexed": false,
          "internalType": "address",
          "name": "location",
          "type": "address"
        },
        {
          "indexed": false,
          "internalType": "enum IPenrose.ContractType",
          "name": "risk",
          "type": "uint8"
        }
      ],
      "name": "RegisterBigBangMasterContract",
      "type": "event"
    },
    {
      "anonymous": false,
      "inputs": [
        {
          "indexed": false,
          "internalType": "address",
          "name": "location",
          "type": "address"
        },
        {
          "indexed": false,
          "internalType": "address",
          "name": "masterContract",
          "type": "address"
        }
      ],
      "name": "RegisterSingularity",
      "type": "event"
    },
    {
      "anonymous": false,
      "inputs": [
        {
          "indexed": false,
          "internalType": "address",
          "name": "location",
          "type": "address"
        },
        {
          "indexed": false,
          "internalType": "enum IPenrose.ContractType",
          "name": "risk",
          "type": "uint8"
        }
      ],
      "name": "RegisterSingularityMasterContract",
      "type": "event"
    },
    {
      "anonymous": false,
      "inputs": [
        {
          "indexed": false,
          "internalType": "address",
          "name": "swapper",
          "type": "address"
        },
        {
          "indexed": false,
          "internalType": "bool",
          "name": "isRegistered",
          "type": "bool"
        }
      ],
      "name": "SwapperUpdate",
      "type": "event"
    },
    {
      "anonymous": false,
      "inputs": [
        {
          "indexed": true,
          "internalType": "address",
          "name": "usdoToken",
          "type": "address"
        },
        {
          "indexed": false,
          "internalType": "uint256",
          "name": "assetId",
          "type": "uint256"
        }
      ],
      "name": "UsdoTokenUpdated",
      "type": "event"
    },
    {
      "inputs": [
        {
          "components": [
            {
              "internalType": "address",
              "name": "location",
              "type": "address"
            },
            {
              "internalType": "enum IPenrose.ContractType",
              "name": "risk",
              "type": "uint8"
            }
          ],
          "internalType": "struct IPenrose.MasterContract[]",
          "name": "array",
          "type": "tuple[]"
        }
      ],
      "name": "_getMasterContractLength",
      "outputs": [
        {
          "internalType": "address[]",
          "name": "markets",
          "type": "address[]"
        }
      ],
      "stateMutability": "view",
      "type": "function"
    },
    {
      "inputs": [],
      "name": "bigBangEthDebtRate",
      "outputs": [
        {
          "internalType": "uint256",
          "name": "",
          "type": "uint256"
        }
      ],
      "stateMutability": "view",
      "type": "function"
    },
    {
      "inputs": [],
      "name": "bigBangEthMarket",
      "outputs": [
        {
          "internalType": "address",
          "name": "",
          "type": "address"
        }
      ],
      "stateMutability": "view",
      "type": "function"
    },
    {
      "inputs": [],
      "name": "bigBangMarkets",
      "outputs": [
        {
          "internalType": "address[]",
          "name": "markets",
          "type": "address[]"
        }
      ],
      "stateMutability": "view",
      "type": "function"
    },
    {
      "inputs": [],
      "name": "bigBangMasterContractLength",
      "outputs": [
        {
          "internalType": "uint256",
          "name": "",
          "type": "uint256"
        }
      ],
      "stateMutability": "view",
      "type": "function"
    },
    {
      "inputs": [
        {
          "internalType": "uint256",
          "name": "",
          "type": "uint256"
        }
      ],
      "name": "bigbangMasterContracts",
      "outputs": [
        {
          "internalType": "address",
          "name": "location",
          "type": "address"
        },
        {
          "internalType": "enum IPenrose.ContractType",
          "name": "risk",
          "type": "uint8"
        }
      ],
      "stateMutability": "view",
      "type": "function"
    },
    {
      "inputs": [],
      "name": "claimOwnership",
      "outputs": [],
      "stateMutability": "nonpayable",
      "type": "function"
    },
    {
      "inputs": [
        {
          "internalType": "address",
          "name": "",
          "type": "address"
        },
        {
          "internalType": "uint256",
          "name": "",
          "type": "uint256"
        }
      ],
      "name": "clonesOf",
      "outputs": [
        {
          "internalType": "address",
          "name": "",
          "type": "address"
        }
      ],
      "stateMutability": "view",
      "type": "function"
    },
    {
      "inputs": [
        {
          "internalType": "address",
          "name": "masterContract",
          "type": "address"
        }
      ],
      "name": "clonesOfCount",
      "outputs": [
        {
          "internalType": "uint256",
          "name": "cloneCount",
          "type": "uint256"
        }
      ],
      "stateMutability": "view",
      "type": "function"
    },
    {
      "inputs": [],
      "name": "conservator",
      "outputs": [
        {
          "internalType": "address",
          "name": "",
          "type": "address"
        }
      ],
      "stateMutability": "view",
      "type": "function"
    },
    {
      "inputs": [
        {
          "internalType": "address",
          "name": "masterContract",
          "type": "address"
        },
        {
          "internalType": "bytes",
          "name": "data",
          "type": "bytes"
        },
        {
          "internalType": "bool",
          "name": "useCreate2",
          "type": "bool"
        }
      ],
      "name": "deploy",
      "outputs": [
        {
          "internalType": "address",
          "name": "cloneAddress",
          "type": "address"
        }
      ],
      "stateMutability": "payable",
      "type": "function"
    },
    {
      "inputs": [
        {
          "internalType": "address",
          "name": "",
          "type": "address"
        }
      ],
      "name": "emptyStrategies",
      "outputs": [
        {
          "internalType": "contract IStrategy",
          "name": "",
          "type": "address"
        }
      ],
      "stateMutability": "view",
      "type": "function"
    },
    {
      "inputs": [
        {
          "internalType": "address[]",
          "name": "mc",
          "type": "address[]"
        },
        {
          "internalType": "bytes[]",
          "name": "data",
          "type": "bytes[]"
        },
        {
          "internalType": "bool",
          "name": "forceSuccess",
          "type": "bool"
        }
      ],
      "name": "executeMarketFn",
      "outputs": [
        {
          "internalType": "bool[]",
          "name": "success",
          "type": "bool[]"
        },
        {
          "internalType": "bytes[]",
          "name": "result",
          "type": "bytes[]"
        }
      ],
      "stateMutability": "nonpayable",
      "type": "function"
    },
    {
      "inputs": [],
      "name": "feeTo",
      "outputs": [
        {
          "internalType": "address",
          "name": "",
          "type": "address"
        }
      ],
      "stateMutability": "view",
      "type": "function"
    },
    {
      "inputs": [
        {
          "internalType": "address",
          "name": "",
          "type": "address"
        }
      ],
      "name": "masterContractOf",
      "outputs": [
        {
          "internalType": "address",
          "name": "",
          "type": "address"
        }
      ],
      "stateMutability": "view",
      "type": "function"
    },
    {
      "inputs": [],
      "name": "owner",
      "outputs": [
        {
          "internalType": "address",
          "name": "",
          "type": "address"
        }
      ],
      "stateMutability": "view",
      "type": "function"
    },
    {
      "inputs": [],
      "name": "paused",
      "outputs": [
        {
          "internalType": "bool",
          "name": "",
          "type": "bool"
        }
      ],
      "stateMutability": "view",
      "type": "function"
    },
    {
      "inputs": [],
      "name": "pendingOwner",
      "outputs": [
        {
          "internalType": "address",
          "name": "",
          "type": "address"
        }
      ],
      "stateMutability": "view",
      "type": "function"
    },
    {
      "inputs": [
        {
          "internalType": "address",
          "name": "mc",
          "type": "address"
        },
        {
          "internalType": "bytes",
          "name": "data",
          "type": "bytes"
        },
        {
          "internalType": "bool",
          "name": "useCreate2",
          "type": "bool"
        }
      ],
      "name": "registerBigBang",
      "outputs": [
        {
          "internalType": "address",
          "name": "_contract",
          "type": "address"
        }
      ],
      "stateMutability": "payable",
      "type": "function"
    },
    {
      "inputs": [
        {
          "internalType": "address",
          "name": "mcAddress",
          "type": "address"
        },
        {
          "internalType": "enum IPenrose.ContractType",
          "name": "contractType_",
          "type": "uint8"
        }
      ],
      "name": "registerBigBangMasterContract",
      "outputs": [],
      "stateMutability": "nonpayable",
      "type": "function"
    },
    {
      "inputs": [
        {
          "internalType": "address",
          "name": "mc",
          "type": "address"
        },
        {
          "internalType": "bytes",
          "name": "data",
          "type": "bytes"
        },
        {
          "internalType": "bool",
          "name": "useCreate2",
          "type": "bool"
        }
      ],
      "name": "registerSingularity",
      "outputs": [
        {
          "internalType": "address",
          "name": "_contract",
          "type": "address"
        }
      ],
      "stateMutability": "payable",
      "type": "function"
    },
    {
      "inputs": [
        {
          "internalType": "address",
          "name": "mcAddress",
          "type": "address"
        },
        {
          "internalType": "enum IPenrose.ContractType",
          "name": "contractType_",
          "type": "uint8"
        }
      ],
      "name": "registerSingularityMasterContract",
      "outputs": [],
      "stateMutability": "nonpayable",
      "type": "function"
    },
    {
      "inputs": [
        {
          "internalType": "address",
          "name": "_market",
          "type": "address"
        }
      ],
      "name": "setBigBangEthMarket",
      "outputs": [],
      "stateMutability": "nonpayable",
      "type": "function"
    },
    {
      "inputs": [
        {
          "internalType": "uint256",
          "name": "_rate",
          "type": "uint256"
        }
      ],
      "name": "setBigBangEthMarketDebtRate",
      "outputs": [],
      "stateMutability": "nonpayable",
      "type": "function"
    },
    {
      "inputs": [
        {
          "internalType": "address",
          "name": "_conservator",
          "type": "address"
        }
      ],
      "name": "setConservator",
      "outputs": [],
      "stateMutability": "nonpayable",
      "type": "function"
    },
    {
      "inputs": [
        {
          "internalType": "address",
          "name": "feeTo_",
          "type": "address"
        }
      ],
      "name": "setFeeTo",
      "outputs": [],
      "stateMutability": "nonpayable",
      "type": "function"
    },
    {
      "inputs": [
        {
          "internalType": "contract ISwapper",
          "name": "swapper",
          "type": "address"
        },
        {
          "internalType": "bool",
          "name": "enable",
          "type": "bool"
        }
      ],
      "name": "setSwapper",
      "outputs": [],
      "stateMutability": "nonpayable",
      "type": "function"
    },
    {
      "inputs": [
        {
          "internalType": "address",
          "name": "_usdoToken",
          "type": "address"
        }
      ],
      "name": "setUsdoToken",
      "outputs": [],
      "stateMutability": "nonpayable",
      "type": "function"
    },
    {
      "inputs": [],
      "name": "singularityMarkets",
      "outputs": [
        {
          "internalType": "address[]",
          "name": "markets",
          "type": "address[]"
        }
      ],
      "stateMutability": "view",
      "type": "function"
    },
    {
      "inputs": [],
      "name": "singularityMasterContractLength",
      "outputs": [
        {
          "internalType": "uint256",
          "name": "",
          "type": "uint256"
        }
      ],
      "stateMutability": "view",
      "type": "function"
    },
    {
      "inputs": [
        {
          "internalType": "uint256",
          "name": "",
          "type": "uint256"
        }
      ],
      "name": "singularityMasterContracts",
      "outputs": [
        {
          "internalType": "address",
          "name": "location",
          "type": "address"
        },
        {
          "internalType": "enum IPenrose.ContractType",
          "name": "risk",
          "type": "uint8"
        }
      ],
      "stateMutability": "view",
      "type": "function"
    },
    {
      "inputs": [
        {
          "internalType": "contract ISwapper",
          "name": "",
          "type": "address"
        }
      ],
      "name": "swappers",
      "outputs": [
        {
          "internalType": "bool",
          "name": "",
          "type": "bool"
        }
      ],
      "stateMutability": "view",
      "type": "function"
    },
    {
      "inputs": [],
      "name": "tapAssetId",
      "outputs": [
        {
          "internalType": "uint256",
          "name": "",
          "type": "uint256"
        }
      ],
      "stateMutability": "view",
      "type": "function"
    },
    {
      "inputs": [],
      "name": "tapToken",
      "outputs": [
        {
          "internalType": "contract IERC20",
          "name": "",
          "type": "address"
        }
      ],
      "stateMutability": "view",
      "type": "function"
    },
    {
      "inputs": [
        {
          "internalType": "address",
          "name": "newOwner",
          "type": "address"
        },
        {
          "internalType": "bool",
          "name": "direct",
          "type": "bool"
        },
        {
          "internalType": "bool",
          "name": "renounce",
          "type": "bool"
        }
      ],
      "name": "transferOwnership",
      "outputs": [],
      "stateMutability": "nonpayable",
      "type": "function"
    },
    {
      "inputs": [
        {
          "internalType": "bool",
          "name": "val",
          "type": "bool"
        }
      ],
      "name": "updatePause",
      "outputs": [],
      "stateMutability": "nonpayable",
      "type": "function"
    },
    {
      "inputs": [],
      "name": "usdoAssetId",
      "outputs": [
        {
          "internalType": "uint256",
          "name": "",
          "type": "uint256"
        }
      ],
      "stateMutability": "view",
      "type": "function"
    },
    {
      "inputs": [],
      "name": "usdoToken",
      "outputs": [
        {
          "internalType": "contract IUSD0",
          "name": "",
          "type": "address"
        }
      ],
      "stateMutability": "view",
      "type": "function"
    },
    {
      "inputs": [],
      "name": "wethAssetId",
      "outputs": [
        {
          "internalType": "uint256",
          "name": "",
          "type": "uint256"
        }
      ],
      "stateMutability": "view",
      "type": "function"
    },
    {
      "inputs": [],
      "name": "wethToken",
      "outputs": [
        {
          "internalType": "contract IERC20",
          "name": "",
          "type": "address"
        }
      ],
      "stateMutability": "view",
      "type": "function"
    },
    {
      "inputs": [
        {
          "internalType": "contract IFee[]",
          "name": "markets_",
          "type": "address[]"
        },
        {
          "internalType": "contract ISwapper[]",
          "name": "swappers_",
          "type": "address[]"
        },
        {
          "components": [
            {
              "internalType": "uint256",
              "name": "minAssetAmount",
              "type": "uint256"
            }
          ],
          "internalType": "struct IPenrose.SwapData[]",
          "name": "swapData_",
          "type": "tuple[]"
        }
      ],
      "name": "withdrawAllBigBangFees",
      "outputs": [],
      "stateMutability": "nonpayable",
      "type": "function"
    },
    {
      "inputs": [
        {
          "internalType": "contract IFee[]",
          "name": "markets_",
          "type": "address[]"
        },
        {
          "internalType": "contract ISwapper[]",
          "name": "swappers_",
          "type": "address[]"
        },
        {
          "components": [
            {
              "internalType": "uint256",
              "name": "minAssetAmount",
              "type": "uint256"
            }
          ],
          "internalType": "struct IPenrose.SwapData[]",
          "name": "swapData_",
          "type": "tuple[]"
        }
      ],
      "name": "withdrawAllSingularityFees",
      "outputs": [],
      "stateMutability": "nonpayable",
      "type": "function"
    },
    {
      "inputs": [],
      "name": "yieldBox",
      "outputs": [
        {
          "internalType": "contract YieldBox",
          "name": "",
          "type": "address"
        }
      ],
      "stateMutability": "view",
      "type": "function"
    }
  ],
  "transactionHash": "0xae175c49787d9c47e4dd7e7b9250dc78beda663f4fc6c78191b537a3bc2d4871",
  "args": [
    "0x93cF32C5fF98c0758b32dF9F6DB9e4f4faaCe736",
    "0x31dA039c8Cf6eDC95fAFECb7B3E70a308128b7E0",
    "0xd428690148436dA9c7422698eEe15F51C8cec871"
  ],
  "numDeployments": 1,
  "solcInputHash": "3c0704323dfb7406e080ba924d4f048b",
  "bytecode": "0x6101206040523480156200001257600080fd5b506040516200400b3803806200400b8339810160408190526200003591620002d4565b600080546001600160a01b0319163390811782556040519091907f8be0079c531659141344cd1fd0a4f28419497f9722a3daafe3b4186f6b6457e0908290a36001600160a01b03808416608052821660a052604051839083906200009990620002ad565b6001600160a01b03928316815291166020820152604001604051809103906000f080158015620000cd573d6000803e3d6000fd5b506001600160a01b038381166000908152600f602052604080822080546001600160a01b031916948416948517905551632c1876e560e21b81529186169263b061db94926200012792600192889290919060040162000328565b602060405180830381600087803b1580156200014257600080fd5b505af115801562000157573d6000803e3d6000fd5b505050506040513d601f19601f820116820180604052508101906200017d91906200036e565b6001600160601b031660c0526001600160a01b03811660e05260405183908290620001a890620002ad565b6001600160a01b03928316815291166020820152604001604051809103906000f080158015620001dc573d6000803e3d6000fd5b506001600160a01b038281166000908152600f602052604080822080546001600160a01b031916948416948517905551632c1876e560e21b81529186169263b061db94926200023692600192879290919060040162000328565b602060405180830381600087803b1580156200025157600080fd5b505af115801562000266573d6000803e3d6000fd5b505050506040513d601f19601f820116820180604052508101906200028c91906200036e565b6001600160601b03166101005250506611c37937e08000600e555062000388565b610786806200388583390190565b6001600160a01b0381168114620002d157600080fd5b50565b600080600060608486031215620002ea57600080fd5b8351620002f781620002bb565b60208501519093506200030a81620002bb565b60408501519092506200031d81620002bb565b809150509250925092565b60808101600586106200034b57634e487b7160e01b600052602160045260246000fd5b9481526001600160a01b0393841660208201529190921660408201526060015290565b6000602082840312156200038157600080fd5b5051919050565b60805160a05160c05160e051610100516134aa620003db600039600061030e01526000610515015260006103c4015260006107240152600081816108000152818161162d01526116ca01526134aa6000f3fe6080604052600436106200028f5760003560e01c80638cad7fbe116200015f578063ce8849ed11620000c5578063f07794c51162000084578063f07794c5146200085c578063f189e10f1462000881578063f46901ed1462000898578063f8974de014620008bd578063fa74f0b514620008e2578063fba96be8146200090757600080fd5b8063ce8849ed14620007a5578063d5089cf614620007c7578063de40657714620007ec578063e30c39781462000822578063e6abad49146200084457600080fd5b8063bafe4f14116200011e578063bafe4f14146200068f578063c24795f814620006c9578063c6d9ce3414620006eb578063c7cee5321462000710578063c9f5f54e1462000746578063cd9792e5146200076b57600080fd5b80638cad7fbe14620005d85780638da5cb5b146200060c5780638fd43654146200062e5780639488c4dc1462000653578063972c1616146200066a57600080fd5b80632a68ecfa11620002055780634b57b0be11620001c45780634b57b0be14620005015780634e71e0c814620005375780635c975abb146200054f5780636100ff141462000583578063761b3a5114620005a857806386c8e21d14620005c057600080fd5b80632a68ecfa146200044657806333a4eebe146200047b57806339e0285114620004a05780633dd5a89f14620004b75780633f2617cb14620004dc57600080fd5b8063099bfe4c1162000252578063099bfe4c146200037b5780630e7ee22714620003b0578063170f4e8d14620003e65780631f54245b146200040d5780632324248e146200042457600080fd5b8063017e7e58146200029457806301da1fd714620002d357806302f5d1a214620002fa578063078dfbe7146200033f57806307bd3e201462000364575b600080fd5b348015620002a157600080fd5b50600b54620002b6906001600160a01b031681565b6040516001600160a01b0390911681526020015b60405180910390f35b348015620002e057600080fd5b50620002f8620002f23660046200231b565b62000941565b005b3480156200030757600080fd5b50620003307f000000000000000000000000000000000000000000000000000000000000000081565b604051908152602001620002ca565b3480156200034c57600080fd5b50620002f86200035e36600462002358565b620009c1565b3480156200037157600080fd5b5060085462000330565b3480156200038857600080fd5b50620003a06200039a366004620024b6565b62000ad7565b604051620002ca92919062002657565b348015620003bd57600080fd5b50620003307f000000000000000000000000000000000000000000000000000000000000000081565b348015620003f357600080fd5b50620003fe62000e4e565b604051620002ca9190620026f7565b620002b66200041e36600462002746565b62000f02565b3480156200043157600080fd5b50600554620002b6906001600160a01b031681565b3480156200045357600080fd5b506200046b62000465366004620027d9565b6200111e565b604051620002ca92919062002809565b3480156200048857600080fd5b50620002f86200049a366004620027d9565b62001154565b620002b6620004b136600462002746565b620011bd565b348015620004c457600080fd5b50620002f8620004d636600462002839565b6200128b565b348015620004e957600080fd5b50620002f8620004fb366004620028dc565b62001491565b3480156200050e57600080fd5b50620002b67f000000000000000000000000000000000000000000000000000000000000000081565b3480156200054457600080fd5b50620002f862001521565b3480156200055c57600080fd5b506004546200057290600160a01b900460ff1681565b6040519015158152602001620002ca565b3480156200059057600080fd5b50620002f8620005a23660046200231b565b620015e0565b348015620005b557600080fd5b50620003fe620017b3565b348015620005cd57600080fd5b506200033060065481565b348015620005e557600080fd5b5062000572620005f73660046200231b565b600c6020526000908152604090205460ff1681565b3480156200061957600080fd5b50600054620002b6906001600160a01b031681565b3480156200063b57600080fd5b50620002b66200064d36600462002916565b62001858565b620002b66200066436600462002746565b62001891565b3480156200067757600080fd5b50620002f86200068936600462002839565b62001953565b3480156200069c57600080fd5b50620002b6620006ae3660046200231b565b6002602052600090815260409020546001600160a01b031681565b348015620006d657600080fd5b50600d54620002b6906001600160a01b031681565b348015620006f857600080fd5b50620002f86200070a36600462002955565b620019ed565b3480156200071d57600080fd5b50620002b67f000000000000000000000000000000000000000000000000000000000000000081565b3480156200075357600080fd5b50620003fe6200076536600462002986565b62001bb8565b3480156200077857600080fd5b50620002b66200078a3660046200231b565b600f602052600090815260409020546001600160a01b031681565b348015620007b257600080fd5b50600454620002b6906001600160a01b031681565b348015620007d457600080fd5b50620002f8620007e636600462002955565b62001d5c565b348015620007f957600080fd5b50620002b67f000000000000000000000000000000000000000000000000000000000000000081565b3480156200082f57600080fd5b50600154620002b6906001600160a01b031681565b3480156200085157600080fd5b5062000330600e5481565b3480156200086957600080fd5b506200046b6200087b366004620027d9565b62001f1a565b3480156200088e57600080fd5b5060075462000330565b348015620008a557600080fd5b50620002f8620008b73660046200231b565b62001f2b565b348015620008ca57600080fd5b50620002f8620008dc36600462002a5c565b62001fa7565b348015620008ef57600080fd5b50620002f8620009013660046200231b565b620020bd565b3480156200091457600080fd5b5062000330620009263660046200231b565b6001600160a01b031660009081526003602052604090205490565b6000546001600160a01b03163314620009775760405162461bcd60e51b81526004016200096e9062002a7a565b60405180910390fd5b600d80546001600160a01b0319166001600160a01b0383169081179091556040517f05a3bc54d597552ff0a566bf5b517f1b7594fde92cf27d354e8a5b56cc26ade790600090a250565b6000546001600160a01b03163314620009ee5760405162461bcd60e51b81526004016200096e9062002a7a565b811562000ab5576001600160a01b03831615158062000a0a5750805b62000a505760405162461bcd60e51b81526020600482015260156024820152744f776e61626c653a207a65726f206164647265737360581b60448201526064016200096e565b600080546040516001600160a01b03808716939216917f8be0079c531659141344cd1fd0a4f28419497f9722a3daafe3b4186f6b6457e091a3600080546001600160a01b0385166001600160a01b031991821617909155600180549091169055505050565b600180546001600160a01b0385166001600160a01b0319909116179055505050565b60005460609081906001600160a01b0316331462000b095760405162461bcd60e51b81526004016200096e9062002a7a565b600454600160a01b900460ff161562000b365760405162461bcd60e51b81526004016200096e9062002aaf565b84806001600160401b0381111562000b525762000b52620023f2565b60405190808252806020026020018201604052801562000b7c578160200160208202803683370190505b509250806001600160401b0381111562000b9a5762000b9a620023f2565b60405190808252806020026020018201604052801562000bcf57816020015b606081526020019060019003908162000bb95790505b50915060005b8181101562000e435760096000600260008b8b8681811062000bfb5762000bfb62002ad8565b905060200201602081019062000c1291906200231b565b6001600160a01b0390811682526020808301939093526040918201600090812054909116845291830193909352910190205460ff168062000cb85750600a6000600260008b8b8681811062000c6b5762000c6b62002ad8565b905060200201602081019062000c8291906200231b565b6001600160a01b0390811682526020808301939093526040918201600090812054909116845291830193909352910190205460ff165b62000cd75760405162461bcd60e51b81526004016200096e9062002aee565b87878281811062000cec5762000cec62002ad8565b905060200201602081019062000d0391906200231b565b6001600160a01b031686828151811062000d215762000d2162002ad8565b602002602001015160405162000d38919062002b25565b6000604051808303816000865af19150503d806000811462000d77576040519150601f19603f3d011682016040523d82523d6000602084013e62000d7c565b606091505b5085838151811062000d925762000d9262002ad8565b6020026020010185848151811062000dae5762000dae62002ad8565b6020026020010182905282151515158152505050841562000e305783818151811062000dde5762000dde62002ad8565b602002602001015162000e0d84838151811062000dff5762000dff62002ad8565b60200260200101516200219e565b9062000e2e5760405162461bcd60e51b81526004016200096e919062002b43565b505b62000e3b8162002b58565b905062000bd5565b505094509492505050565b606062000efd6008805480602002602001604051908101604052809291908181526020016000905b8282101562000ef35760008481526020908190206040805180820190915290840180546001600160a01b03811683529192909190830190600160a01b900460ff16600281111562000ecb5762000ecb620027f3565b600281111562000edf5762000edf620027f3565b815250508152602001906001019062000e76565b5050505062001bb8565b905090565b60006001600160a01b03851662000f5c5760405162461bcd60e51b815260206004820181905260248201527f426f72696e67466163746f72793a204e6f206d6173746572436f6e747261637460448201526064016200096e565b606085901b821562000fd2576000858560405162000f7c92919062002b82565b60405180910390209050604051733d602d80600a3d3981f3363d3d373d3d3d363d7360601b81528260148201526e5af43d82803e903d91602b57fd5bf360881b6028820152816037826000f59350505062001017565b604051733d602d80600a3d3981f3363d3d373d3d3d363d7360601b81528160148201526e5af43d82803e903d91602b57fd5bf360881b60288201526037816000f09250505b6001600160a01b0380831660008181526002602090815260408083208054958c166001600160a01b0319968716811790915583526003825280832080546001810182559084529190922001805490931682179092559051631377d1f560e21b8152634ddf47d490349062001092908990899060040162002b92565b6000604051808303818588803b158015620010ac57600080fd5b505af1158015620010c1573d6000803e3d6000fd5b5050505050816001600160a01b0316866001600160a01b03167fd62166f3c2149208e51788b1401cc356bf5da1fc6c7886a32e18570f57d88b3b87876040516200110d92919062002b92565b60405180910390a350949350505050565b600781815481106200112f57600080fd5b6000918252602090912001546001600160a01b0381169150600160a01b900460ff1682565b6000546001600160a01b03163314620011815760405162461bcd60e51b81526004016200096e9062002a7a565b600e8190556040518181527fc6a0012625ed6d4deeafb5c9c0cb3bfb6eb4d39f37aea3e5ca964dc29a421454906020015b60405180910390a150565b600080546001600160a01b03163314620011eb5760405162461bcd60e51b81526004016200096e9062002a7a565b6001600160a01b0385166000908152600a6020526040902054859060ff1615156001146200122d5760405162461bcd60e51b81526004016200096e9062002aee565b6200123b8686868662000f02565b604080516001600160a01b038084168252891660208201529193507f4e9173da15b3f07367dc29002c27568aceeaadc25679cc0fffedeb40e13d094291015b60405180910390a150949350505050565b600454600160a01b900460ff1615620012b85760405162461bcd60e51b81526004016200096e9062002aaf565b8483148015620012c757508281145b620013105760405162461bcd60e51b81526020600482015260186024820152770a0cadce4dee6ca7440d8cadccee8d040dad2e6dac2e8c6d60431b60448201526064016200096e565b60008484828162001325576200132562002ad8565b90506020020160208101906200133c91906200231b565b6001600160a01b031614156200138d5760405162461bcd60e51b815260206004820152601560248201527450656e726f73653a207a65726f206164647265737360581b60448201526064016200096e565b600086868281620013a257620013a262002ad8565b9050602002016020810190620013b991906200231b565b6001600160a01b031614156200140a5760405162461bcd60e51b815260206004820152601560248201527450656e726f73653a207a65726f206164647265737360581b60448201526064016200096e565b6200144c848484848a8a80806020026020016040519081016040528093929190818152602001838360200280828437600092019190915250620021fc92505050565b7fdc0aec64e01514853db7bc1f49a7321726ef185b59f680c9bc9edcf499722bc7868642604051620014819392919062002bc1565b60405180910390a1505050505050565b6000546001600160a01b03163314620014be5760405162461bcd60e51b81526004016200096e9062002a7a565b6001600160a01b0382166000818152600c6020908152604091829020805460ff19168515159081179091558251938452908301527fa893ff5e6c8549e5f4e3d6bb1d38cbf1ede3443ef5726c0477f01c296f7eaf02910160405180910390a15050565b6001546001600160a01b03163381146200157e5760405162461bcd60e51b815260206004820181905260248201527f4f776e61626c653a2063616c6c657220213d2070656e64696e67206f776e657260448201526064016200096e565b600080546040516001600160a01b03808516939216917f8be0079c531659141344cd1fd0a4f28419497f9722a3daafe3b4186f6b6457e091a3600080546001600160a01b039092166001600160a01b0319928316179055600180549091169055565b6000546001600160a01b031633146200160d5760405162461bcd60e51b81526004016200096e9062002a7a565b600580546001600160a01b0319166001600160a01b0383161790556040517f00000000000000000000000000000000000000000000000000000000000000009082906200165a90620022f4565b6001600160a01b03928316815291166020820152604001604051809103906000f0801580156200168e573d6000803e3d6000fd5b506001600160a01b038281166000908152600f602052604080822080546001600160a01b031916948416948517905551632c1876e560e21b81527f00000000000000000000000000000000000000000000000000000000000000009092169263b061db94926200170992600192879290919060040162002c1b565b602060405180830381600087803b1580156200172457600080fd5b505af115801562001739573d6000803e3d6000fd5b505050506040513d601f19601f820116820180604052508101906200175f919062002c55565b6bffffffffffffffffffffffff1660068190556040519081526001600160a01b038216907fa8bcc850e0dd5734a654196b5949251a22dec7d076dcdde7c355a1a2d6006e069060200160405180910390a250565b606062000efd6007805480602002602001604051908101604052809291908181526020016000905b8282101562000ef35760008481526020908190206040805180820190915290840180546001600160a01b03811683529192909190830190600160a01b900460ff166002811115620018305762001830620027f3565b6002811115620018445762001844620027f3565b8152505081526020019060010190620017db565b600360205281600052604060002081815481106200187557600080fd5b6000918252602090912001546001600160a01b03169150829050565b600080546001600160a01b03163314620018bf5760405162461bcd60e51b81526004016200096e9062002a7a565b6001600160a01b038516600090815260096020526040902054859060ff161515600114620019015760405162461bcd60e51b81526004016200096e9062002aee565b6200190f8686868662000f02565b604080516001600160a01b038084168252891660208201529193507f1105050c403ad688afa33c2669a46bcffdf42221ee17dd625d05d09f1433cd6791016200127a565b600454600160a01b900460ff1615620019805760405162461bcd60e51b81526004016200096e9062002aaf565b84831480156200198f57508281145b620019d85760405162461bcd60e51b81526020600482015260186024820152770a0cadce4dee6ca7440d8cadccee8d040dad2e6dac2e8c6d60431b60448201526064016200096e565b600084848281620013a257620013a262002ad8565b6000546001600160a01b0316331462001a1a5760405162461bcd60e51b81526004016200096e9062002a7a565b6001600160a01b0382166000908152600a602052604090205460ff161562001a7e5760405162461bcd60e51b815260206004820152601660248201527514195b9c9bdcd94e881350c81c9959da5cdd195c995960521b60448201526064016200096e565b604080518082019091526000602082019081526001600160a01b038416825282600281111562001ab25762001ab2620027f3565b9081600281111562001ac85762001ac8620027f3565b9052506008805460018101825560009190915281517ff3f7a9fe364faab93b216da50a3214154f22a0a2b415b23a84c8169e8b636ee390910180546001600160a01b039092166001600160a01b031983168117825560208401518493909183916001600160a81b03191617600160a01b83600281111562001b4d5762001b4d620027f3565b021790555050506001600160a01b0383166000908152600a602052604090819020805460ff19166001179055517f1626e61c1c5b523bd0070836aceda378b0077e870f824f71892f67f05a8a5bed9062001bab908590859062002809565b60405180910390a1505050565b80516060906000805b8281101562001c175762001c0a85828151811062001be35762001be362002ad8565b6020026020010151600001516001600160a01b031660009081526003602052604090205490565b9091019060010162001bc1565b50806001600160401b0381111562001c335762001c33620023f2565b60405190808252806020026020018201604052801562001c5d578160200160208202803683370190505b50925060008060005b8481101562001d5257600087828151811062001c865762001c8662002ad8565b602002602001015160000151905062001cb4816001600160a01b031660009081526003602052604090205490565b925060005b8381101562001d47576001600160a01b038216600090815260036020526040902080548290811062001cef5762001cef62002ad8565b9060005260206000200160009054906101000a90046001600160a01b031688868151811062001d225762001d2262002ad8565b6001600160a01b03909216602092830291909101909101526001948501940162001cb9565b505060010162001c66565b5050505050919050565b6000546001600160a01b0316331462001d895760405162461bcd60e51b81526004016200096e9062002a7a565b6001600160a01b03821660009081526009602052604090205460ff161562001ded5760405162461bcd60e51b815260206004820152601660248201527514195b9c9bdcd94e881350c81c9959da5cdd195c995960521b60448201526064016200096e565b604080518082019091526000602082019081526001600160a01b038416825282600281111562001e215762001e21620027f3565b9081600281111562001e375762001e37620027f3565b9052506007805460018101825560009190915281517fa66cc928b5edb82af9bd49922954155ab7b0942694bea4ce44661d9a8736c68890910180546001600160a01b039092166001600160a01b031983168117825560208401518493909183916001600160a81b03191617600160a01b83600281111562001ebc5762001ebc620027f3565b021790555050506001600160a01b03831660009081526009602052604090819020805460ff19166001179055517faad6359463cbbce500bced475975ef17452bdc8cbc6cf5d6bd8080c20d2f7f9f9062001bab908590859062002809565b600881815481106200112f57600080fd5b6000546001600160a01b0316331462001f585760405162461bcd60e51b81526004016200096e9062002a7a565b600b80546001600160a01b0319166001600160a01b0383169081179091556040519081527f68953050a837881c7c6f52c422b0f82e1fd474e6931654ea29f569d19fcc42c290602001620011b2565b6004546001600160a01b0316331462001ffb5760405162461bcd60e51b815260206004820152601560248201527414195b9c9bdcd94e881d5b985d5d1a1bdc9a5e9959605a1b60448201526064016200096e565b600460149054906101000a900460ff1615158115151415620020565760405162461bcd60e51b815260206004820152601360248201527250656e726f73653a2073616d6520737461746560681b60448201526064016200096e565b60045460408051600160a01b90920460ff161515825282151560208301527f9c13c5f6c628c1c82eb2b3fd8714da5c2857dbd0ad8ab6b2074abcf81015d396910160405180910390a160048054911515600160a01b0260ff60a01b19909216919091179055565b6000546001600160a01b03163314620020ea5760405162461bcd60e51b81526004016200096e9062002a7a565b6001600160a01b038116620021425760405162461bcd60e51b815260206004820152601a60248201527f50656e726f73653a2061646472657373206e6f742076616c696400000000000060448201526064016200096e565b6004546040516001600160a01b038084169216907f5a62d22209e370e38eea92cfddcd228e656e6ec139243392a760a7769f5877fd90600090a3600480546001600160a01b0319166001600160a01b0392909216919091179055565b6060604482511015620021da57505060408051808201909152601381527253474c3a206e6f2072657475726e206461746160681b602082015290565b60048201915081806020019051810190620021f6919062002c6f565b92915050565b805160005b81811015620022eb578281815181106200221f576200221f62002ad8565b60200260200101516001600160a01b0316630fde08e38888848181106200224a576200224a62002ad8565b90506020020160208101906200226191906200231b565b87878581811062002276576200227662002ad8565b6040516001600160e01b031960e087901b1681526001600160a01b0390941660048501526020029190910135602483015250604401600060405180830381600087803b158015620022c657600080fd5b505af1158015620022db573d6000803e3d6000fd5b5050505080600101905062002201565b50505050505050565b6107868062002cef83390190565b6001600160a01b03811681146200231857600080fd5b50565b6000602082840312156200232e57600080fd5b81356200233b8162002302565b9392505050565b803580151581146200235357600080fd5b919050565b6000806000606084860312156200236e57600080fd5b83356200237b8162002302565b92506200238b6020850162002342565b91506200239b6040850162002342565b90509250925092565b60008083601f840112620023b757600080fd5b5081356001600160401b03811115620023cf57600080fd5b6020830191508360208260051b8501011115620023eb57600080fd5b9250929050565b634e487b7160e01b600052604160045260246000fd5b604080519081016001600160401b03811182821017156200242d576200242d620023f2565b60405290565b604051601f8201601f191681016001600160401b03811182821017156200245e576200245e620023f2565b604052919050565b60006001600160401b03821115620024825762002482620023f2565b5060051b60200190565b60006001600160401b03821115620024a857620024a8620023f2565b50601f01601f191660200190565b60008060008060608587031215620024cd57600080fd5b84356001600160401b0380821115620024e557600080fd5b620024f388838901620023a4565b90965094506020915086820135818111156200250e57600080fd5b8701601f810189136200252057600080fd5b803562002537620025318262002466565b62002433565b81815260059190911b8201840190848101908b8311156200255757600080fd5b8584015b83811015620025d3578035868111156200257457600080fd5b8501603f81018e136200258657600080fd5b878101356200259962002531826200248c565b8181528f6040838501011115620025b05760008081fd5b81604084018b83013760009181018a01919091528452509186019186016200255b565b50809750505050505050620025eb6040860162002342565b905092959194509250565b60005b8381101562002613578181015183820152602001620025f9565b8381111562002623576000848401525b50505050565b6000815180845262002643816020860160208601620025f6565b601f01601f19169290920160200192915050565b604080825283519082018190526000906020906060840190828701845b828110156200269457815115158452928401929084019060010162002674565b50505083810382850152845180825282820190600581901b8301840187850160005b83811015620026e857601f19868403018552620026d583835162002629565b94870194925090860190600101620026b6565b50909998505050505050505050565b6020808252825182820181905260009190848201906040850190845b818110156200273a5783516001600160a01b03168352928401929184019160010162002713565b50909695505050505050565b600080600080606085870312156200275d57600080fd5b84356200276a8162002302565b935060208501356001600160401b03808211156200278757600080fd5b818701915087601f8301126200279c57600080fd5b813581811115620027ac57600080fd5b886020828501011115620027bf57600080fd5b602083019550809450505050620025eb6040860162002342565b600060208284031215620027ec57600080fd5b5035919050565b634e487b7160e01b600052602160045260246000fd5b6001600160a01b038316815260408101600383106200282c576200282c620027f3565b8260208301529392505050565b600080600080600080606087890312156200285357600080fd5b86356001600160401b03808211156200286b57600080fd5b620028798a838b01620023a4565b909850965060208901359150808211156200289357600080fd5b620028a18a838b01620023a4565b90965094506040890135915080821115620028bb57600080fd5b50620028ca89828a01620023a4565b979a9699509497509295939492505050565b60008060408385031215620028f057600080fd5b8235620028fd8162002302565b91506200290d6020840162002342565b90509250929050565b600080604083850312156200292a57600080fd5b8235620029378162002302565b946020939093013593505050565b8035600381106200235357600080fd5b600080604083850312156200296957600080fd5b8235620029768162002302565b91506200290d6020840162002945565b600060208083850312156200299a57600080fd5b82356001600160401b03811115620029b157600080fd5b8301601f81018513620029c357600080fd5b8035620029d4620025318262002466565b81815260069190911b82018301908381019087831115620029f457600080fd5b928401925b8284101562002a51576040848903121562002a145760008081fd5b62002a1e62002408565b843562002a2b8162002302565b815262002a3a85870162002945565b8187015282526040939093019290840190620029f9565b979650505050505050565b60006020828403121562002a6f57600080fd5b6200233b8262002342565b6020808252818101527f4f776e61626c653a2063616c6c6572206973206e6f7420746865206f776e6572604082015260600190565b6020808252600f908201526e14195b9c9bdcd94e881c185d5cd959608a1b604082015260600190565b634e487b7160e01b600052603260045260246000fd5b6020808252601a908201527f50656e726f73653a204d43206e6f742072656769737465726564000000000000604082015260600190565b6000825162002b39818460208701620025f6565b9190910192915050565b6020815260006200233b602083018462002629565b600060001982141562002b7b57634e487b7160e01b600052601160045260246000fd5b5060010190565b8183823760009101908152919050565b60208152816020820152818360408301376000818301604090810191909152601f909201601f19160101919050565b6040808252810183905260008460608301825b8681101562002c0857823562002bea8162002302565b6001600160a01b031682526020928301929091019060010162002bd4565b5060209390930193909352509392505050565b608081016005861062002c325762002c32620027f3565b9481526001600160a01b0393841660208201529190921660408201526060015290565b60006020828403121562002c6857600080fd5b5051919050565b60006020828403121562002c8257600080fd5b81516001600160401b0381111562002c9957600080fd5b8201601f8101841362002cab57600080fd5b805162002cbc62002531826200248c565b81815285602083850101111562002cd257600080fd5b62002ce5826020830160208601620025f6565b9594505050505056fe60c060405234801561001057600080fd5b5060405161078638038061078683398101604081905261002f9161005e565b6001600160a01b039182166080521660a052610098565b6001600160a01b038116811461005b57600080fd5b50565b6000806040838503121561007157600080fd5b825161007c81610046565b602084015190925061008d81610046565b809150509250929050565b60805160a0516106ad6100d96000396000818161018d015281816102b101526102e401526000818161013b015281816101c9015261023801526106ad6000f3fe608060405234801561001057600080fd5b50600436106100a95760003560e01c8063afa91cc611610071578063afa91cc614610121578063ce845d1d14610119578063de40657714610136578063e3575f0514610119578063f3fef3a314610175578063f6b4dfb41461018857600080fd5b806306fdde03146100ae57806317d70f7c146100ee57806330fa738c1461010457806350188301146101195780637284e416146100ae575b600080fd5b6100d86040518060400160405280600b81526020016a4e6f20737472617465677960a81b81525081565b6040516100e5919061056d565b60405180910390f35b6100f6600081565b6040519081526020016100e5565b61010c600181565b6040516100e591906105a0565b6100f66101af565b61013461012f3660046105c8565b6101be565b005b61015d7f000000000000000000000000000000000000000000000000000000000000000081565b6040516001600160a01b0390911681526020016100e5565b6101346101833660046105e1565b61022d565b61015d7f000000000000000000000000000000000000000000000000000000000000000081565b60006101b96102a2565b905090565b336001600160a01b037f0000000000000000000000000000000000000000000000000000000000000000161461022a5760405162461bcd60e51b815260206004820152600c60248201526b09cdee840b2d2cad8c884def60a31b60448201526064015b60405180910390fd5b50565b336001600160a01b037f000000000000000000000000000000000000000000000000000000000000000016146102945760405162461bcd60e51b815260206004820152600c60248201526b09cdee840b2d2cad8c884def60a31b6044820152606401610221565b61029e82826102d7565b5050565b60006101b96001600160a01b037f0000000000000000000000000000000000000000000000000000000000000000163061030b565b61029e6001600160a01b037f0000000000000000000000000000000000000000000000000000000000000000168383610422565b604080516001600160a01b0383811660248084019190915283518084039091018152604490920183526020820180516001600160e01b03166370a0823160e01b179052915160009283928392918716916103659190610619565b600060405180830381855afa9150503d80600081146103a0576040519150601f19603f3d011682016040523d82523d6000602084013e6103a5565b606091505b50915091508180156103b957506020815110155b6104055760405162461bcd60e51b815260206004820152601d60248201527f426f72696e6745524332303a2042616c616e63654f66206661696c65640000006044820152606401610221565b808060200190518101906104199190610635565b95945050505050565b604080516001600160a01b038481166024830152604480830185905283518084039091018152606490920183526020820180516001600160e01b031663a9059cbb60e01b179052915160009283929087169161047e9190610619565b6000604051808303816000865af19150503d80600081146104bb576040519150601f19603f3d011682016040523d82523d6000602084013e6104c0565b606091505b50915091508180156104ea5750805115806104ea5750808060200190518101906104ea919061064e565b6105365760405162461bcd60e51b815260206004820152601c60248201527f426f72696e6745524332303a205472616e73666572206661696c6564000000006044820152606401610221565b5050505050565b60005b83811015610558578181015183820152602001610540565b83811115610567576000848401525b50505050565b602081526000825180602084015261058c81604085016020870161053d565b601f01601f19169190910160400192915050565b60208101600583106105c257634e487b7160e01b600052602160045260246000fd5b91905290565b6000602082840312156105da57600080fd5b5035919050565b600080604083850312156105f457600080fd5b82356001600160a01b038116811461060b57600080fd5b946020939093013593505050565b6000825161062b81846020870161053d565b9190910192915050565b60006020828403121561064757600080fd5b5051919050565b60006020828403121561066057600080fd5b8151801515811461067057600080fd5b939250505056fea2646970667358221220c4cc4b4d8db1663546a10fde32886bced7172ccded619adffa1c908e6b8c534a64736f6c63430008090033a2646970667358221220f7519c7ca5783e84519c42f5f941ffb901b660712b4207be9116e4e5bf4312d664736f6c6343000809003360c060405234801561001057600080fd5b5060405161078638038061078683398101604081905261002f9161005e565b6001600160a01b039182166080521660a052610098565b6001600160a01b038116811461005b57600080fd5b50565b6000806040838503121561007157600080fd5b825161007c81610046565b602084015190925061008d81610046565b809150509250929050565b60805160a0516106ad6100d96000396000818161018d015281816102b101526102e401526000818161013b015281816101c9015261023801526106ad6000f3fe608060405234801561001057600080fd5b50600436106100a95760003560e01c8063afa91cc611610071578063afa91cc614610121578063ce845d1d14610119578063de40657714610136578063e3575f0514610119578063f3fef3a314610175578063f6b4dfb41461018857600080fd5b806306fdde03146100ae57806317d70f7c146100ee57806330fa738c1461010457806350188301146101195780637284e416146100ae575b600080fd5b6100d86040518060400160405280600b81526020016a4e6f20737472617465677960a81b81525081565b6040516100e5919061056d565b60405180910390f35b6100f6600081565b6040519081526020016100e5565b61010c600181565b6040516100e591906105a0565b6100f66101af565b61013461012f3660046105c8565b6101be565b005b61015d7f000000000000000000000000000000000000000000000000000000000000000081565b6040516001600160a01b0390911681526020016100e5565b6101346101833660046105e1565b61022d565b61015d7f000000000000000000000000000000000000000000000000000000000000000081565b60006101b96102a2565b905090565b336001600160a01b037f0000000000000000000000000000000000000000000000000000000000000000161461022a5760405162461bcd60e51b815260206004820152600c60248201526b09cdee840b2d2cad8c884def60a31b60448201526064015b60405180910390fd5b50565b336001600160a01b037f000000000000000000000000000000000000000000000000000000000000000016146102945760405162461bcd60e51b815260206004820152600c60248201526b09cdee840b2d2cad8c884def60a31b6044820152606401610221565b61029e82826102d7565b5050565b60006101b96001600160a01b037f0000000000000000000000000000000000000000000000000000000000000000163061030b565b61029e6001600160a01b037f0000000000000000000000000000000000000000000000000000000000000000168383610422565b604080516001600160a01b0383811660248084019190915283518084039091018152604490920183526020820180516001600160e01b03166370a0823160e01b179052915160009283928392918716916103659190610619565b600060405180830381855afa9150503d80600081146103a0576040519150601f19603f3d011682016040523d82523d6000602084013e6103a5565b606091505b50915091508180156103b957506020815110155b6104055760405162461bcd60e51b815260206004820152601d60248201527f426f72696e6745524332303a2042616c616e63654f66206661696c65640000006044820152606401610221565b808060200190518101906104199190610635565b95945050505050565b604080516001600160a01b038481166024830152604480830185905283518084039091018152606490920183526020820180516001600160e01b031663a9059cbb60e01b179052915160009283929087169161047e9190610619565b6000604051808303816000865af19150503d80600081146104bb576040519150601f19603f3d011682016040523d82523d6000602084013e6104c0565b606091505b50915091508180156104ea5750805115806104ea5750808060200190518101906104ea919061064e565b6105365760405162461bcd60e51b815260206004820152601c60248201527f426f72696e6745524332303a205472616e73666572206661696c6564000000006044820152606401610221565b5050505050565b60005b83811015610558578181015183820152602001610540565b83811115610567576000848401525b50505050565b602081526000825180602084015261058c81604085016020870161053d565b601f01601f19169190910160400192915050565b60208101600583106105c257634e487b7160e01b600052602160045260246000fd5b91905290565b6000602082840312156105da57600080fd5b5035919050565b600080604083850312156105f457600080fd5b82356001600160a01b038116811461060b57600080fd5b946020939093013593505050565b6000825161062b81846020870161053d565b9190910192915050565b60006020828403121561064757600080fd5b5051919050565b60006020828403121561066057600080fd5b8151801515811461067057600080fd5b939250505056fea2646970667358221220c4cc4b4d8db1663546a10fde32886bced7172ccded619adffa1c908e6b8c534a64736f6c63430008090033",
  "devdoc": {
    "kind": "dev",
    "methods": {
      "bigBangMarkets()": {
        "returns": {
          "markets": "list of available markets"
        }
      },
      "clonesOfCount(address)": {
        "params": {
          "masterContract": "The address of the master contract."
        },
        "returns": {
          "cloneCount": "total number of clones for the masterContract."
        }
      },
      "constructor": {
        "params": {
          "_yieldBox": "YieldBox contract address",
          "tapToken_": "TapOFT contract address"
        }
      },
      "deploy(address,bytes,bool)": {
        "params": {
          "data": "Additional abi encoded calldata that is passed to the new clone via `IMasterContract.init`.",
          "masterContract": "The address of the contract to clone.",
          "useCreate2": "Creates the clone by using the CREATE2 opcode, in this case `data` will be used as salt."
        },
        "returns": {
          "cloneAddress": "Address of the created clone contract."
        }
      },
      "registerBigBang(address,bytes,bool)": {
        "params": {
          "data": "The init data of the BigBang contract",
          "mc": "The address of the master contract which must be already registered",
          "useCreate2": "Whether to use create2 or not"
        }
      },
      "registerBigBangMasterContract(address,uint8)": {
        "params": {
          "contractType_": "The risk type of the contract",
          "mcAddress": "The address of the contract"
        }
      },
      "registerSingularity(address,bytes,bool)": {
        "params": {
          "data": "The init data of the Singularity",
          "mc": "The address of the master contract which must be already registered",
          "useCreate2": "Whether to use create2 or not"
        }
      },
      "registerSingularityMasterContract(address,uint8)": {
        "params": {
          "contractType_": "The risk type of the contract",
          "mcAddress": "The address of the contract"
        }
      },
      "setBigBangEthMarket(address)": {
        "details": "needed for the variable debt computation"
      },
      "setBigBangEthMarketDebtRate(uint256)": {
        "params": {
          "_rate": "the new rate"
        }
      },
      "setConservator(address)": {
        "details": "Conservator can pause the contract",
        "params": {
          "_conservator": "The new address"
        }
      },
      "setSwapper(address,bool)": {
        "params": {
          "enable": "True to enable the swapper. To disable use False.",
          "swapper": "The address of the swapper contract that conforms to `ISwapper`."
        }
      },
      "setUsdoToken(address)": {
        "details": "sets usdoToken and usdoAssetId",
        "params": {
          "_usdoToken": "the USD0 token address"
        }
      },
      "singularityMarkets()": {
        "returns": {
          "markets": "list of available markets"
        }
      },
      "transferOwnership(address,bool,bool)": {
        "params": {
          "direct": "True if `newOwner` should be set immediately. False if `newOwner` needs to use `claimOwnership`.",
          "newOwner": "Address of the new owner.",
          "renounce": "Allows the `newOwner` to be `address(0)` if `direct` and `renounce` is True. Has no effect otherwise."
        }
      },
      "updatePause(bool)": {
        "params": {
          "val": "the new value"
        }
      },
      "withdrawAllBigBangFees(address[],address[],(uint256)[])": {
        "details": "`swappers_` can have one element that'll be used for all clones. Or one swapper per MasterContract.Fees are withdrawn in TAP and sent to the FeeDistributor contract",
        "params": {
          "swappers_": "One or more swappers to convert the asset to TAP."
        }
      },
      "withdrawAllSingularityFees(address[],address[],(uint256)[])": {
        "details": "`swappers_` can have one element that'll be used for all clones. Or one swapper per MasterContract.Fees are withdrawn in TAP and sent to the FeeDistributor contract",
        "params": {
          "swappers_": "One or more swappers to convert the asset to TAP."
        }
      }
    },
    "title": "Global market registry",
    "version": 1
  },
  "userdoc": {
    "kind": "user",
    "methods": {
      "bigBangMarkets()": {
        "notice": "Get all the BigBang contract addresses"
      },
      "bigBangMasterContractLength()": {
        "notice": "Get the length of `bigbangMasterContracts`"
      },
      "claimOwnership()": {
        "notice": "Needs to be called by `pendingOwner` to claim ownership."
      },
      "clonesOf(address,uint256)": {
        "notice": "Mapping from masterContract to an array of all clones On mainnet events can be used to get this list, but events aren't always easy to retrieve and barely work on sidechains. While this adds gas, it makes enumerating all clones much easier."
      },
      "clonesOfCount(address)": {
        "notice": "Returns the count of clones that exists for a specific masterContract"
      },
      "conservator()": {
        "notice": "returns the Conservator address"
      },
      "constructor": {
        "notice": "creates a Penrose contract"
      },
      "deploy(address,bytes,bool)": {
        "notice": "Deploys a given master Contract as a clone. Any ETH transferred with this call is forwarded to the new clone. Emits `LogDeploy`."
      },
      "executeMarketFn(address[],bytes[],bool)": {
        "notice": "Execute an only owner function inside of a Singularity or a BigBang market"
      },
      "feeTo()": {
        "notice": "protocol fees"
      },
      "masterContractOf(address)": {
        "notice": "Mapping from clone contracts to their masterContract."
      },
      "paused()": {
        "notice": "returns the pause state of the contract"
      },
      "registerBigBang(address,bytes,bool)": {
        "notice": "Registers a BigBang market"
      },
      "registerBigBangMasterContract(address,uint8)": {
        "notice": "Register a BigBang master contract"
      },
      "registerSingularity(address,bytes,bool)": {
        "notice": "Registers a Singularity market"
      },
      "registerSingularityMasterContract(address,uint8)": {
        "notice": "Register a Singularity master contract"
      },
      "setBigBangEthMarket(address)": {
        "notice": "sets the main BigBang market"
      },
      "setBigBangEthMarketDebtRate(uint256)": {
        "notice": "sets the main BigBang market debt rate"
      },
      "setConservator(address)": {
        "notice": "Set the Conservator address"
      },
      "setFeeTo(address)": {
        "notice": "Set protocol fees address"
      },
      "setSwapper(address,bool)": {
        "notice": "Used to register and enable or disable swapper contracts used in closed liquidations. MasterContract Only Admin function."
      },
      "setUsdoToken(address)": {
        "notice": "Set the USD0 token"
      },
      "singularityMarkets()": {
        "notice": "Get all the Singularity contract addresses"
      },
      "singularityMasterContractLength()": {
        "notice": "Get the length of `singularityMasterContracts`"
      },
      "singularityMasterContracts(uint256)": {
        "notice": "master contracts registered"
      },
      "swappers(address)": {
        "notice": "whitelisted swappers"
      },
      "tapAssetId()": {
        "notice": "returns TAP asset id registered in the YieldBox contract"
      },
      "tapToken()": {
        "notice": "returns the TAP contract"
      },
      "transferOwnership(address,bool,bool)": {
        "notice": "Transfers ownership to `newOwner`. Either directly or claimable by the new pending owner. Can only be invoked by the current `owner`."
      },
      "updatePause(bool)": {
        "notice": "updates the pause state of the contract"
      },
      "usdoAssetId()": {
        "notice": "returns USD0 asset id registered in the YieldBox contract"
      },
      "usdoToken()": {
        "notice": "returns USD0 contract"
      },
      "wethAssetId()": {
        "notice": "returns WETH asset id registered in the YieldBox contract"
      },
      "wethToken()": {
        "notice": "returns the WETH contract"
      },
      "withdrawAllBigBangFees(address[],address[],(uint256)[])": {
        "notice": "Loop through the master contracts and call `depositFeesToYieldBox()` to each one of their clones."
      },
      "withdrawAllSingularityFees(address[],address[],(uint256)[])": {
        "notice": "Loop through the master contracts and call `depositFeesToYieldBox()` to each one of their clones."
      },
      "yieldBox()": {
        "notice": "returns the YieldBox contract"
      }
    },
    "notice": "+ asset registration? (toggle to renounce ownership so users can call)Singularity management",
    "version": 1
  },
  "storageLayout": {
    "storage": [
      {
        "astId": 233,
        "contract": "contracts/Penrose.sol:Penrose",
        "label": "owner",
        "offset": 0,
        "slot": "0",
        "type": "t_address"
      },
      {
        "astId": 235,
        "contract": "contracts/Penrose.sol:Penrose",
        "label": "pendingOwner",
        "offset": 0,
        "slot": "1",
        "type": "t_address"
      },
      {
        "astId": 135,
        "contract": "contracts/Penrose.sol:Penrose",
        "label": "masterContractOf",
        "offset": 0,
        "slot": "2",
        "type": "t_mapping(t_address,t_address)"
      },
      {
        "astId": 141,
        "contract": "contracts/Penrose.sol:Penrose",
        "label": "clonesOf",
        "offset": 0,
        "slot": "3",
        "type": "t_mapping(t_address,t_array(t_address)dyn_storage)"
      },
      {
        "astId": 3954,
        "contract": "contracts/Penrose.sol:Penrose",
        "label": "conservator",
        "offset": 0,
        "slot": "4",
        "type": "t_address"
      },
      {
        "astId": 3957,
        "contract": "contracts/Penrose.sol:Penrose",
        "label": "paused",
        "offset": 20,
        "slot": "4",
        "type": "t_bool"
      },
      {
        "astId": 3972,
        "contract": "contracts/Penrose.sol:Penrose",
        "label": "usdoToken",
        "offset": 0,
        "slot": "5",
        "type": "t_contract(IUSD0)13826"
      },
      {
        "astId": 3975,
        "contract": "contracts/Penrose.sol:Penrose",
        "label": "usdoAssetId",
        "offset": 0,
        "slot": "6",
        "type": "t_uint256"
      },
      {
        "astId": 3987,
        "contract": "contracts/Penrose.sol:Penrose",
        "label": "singularityMasterContracts",
        "offset": 0,
        "slot": "7",
        "type": "t_array(t_struct(MasterContract)5325_storage)dyn_storage"
      },
      {
        "astId": 3991,
        "contract": "contracts/Penrose.sol:Penrose",
        "label": "bigbangMasterContracts",
        "offset": 0,
        "slot": "8",
        "type": "t_array(t_struct(MasterContract)5325_storage)dyn_storage"
      },
      {
        "astId": 3995,
        "contract": "contracts/Penrose.sol:Penrose",
        "label": "isSingularityMasterContractRegistered",
        "offset": 0,
        "slot": "9",
        "type": "t_mapping(t_address,t_bool)"
      },
      {
        "astId": 3999,
        "contract": "contracts/Penrose.sol:Penrose",
        "label": "isBigBangMasterContractRegistered",
        "offset": 0,
        "slot": "10",
        "type": "t_mapping(t_address,t_bool)"
      },
      {
        "astId": 4002,
        "contract": "contracts/Penrose.sol:Penrose",
        "label": "feeTo",
        "offset": 0,
        "slot": "11",
        "type": "t_address"
      },
      {
        "astId": 4008,
        "contract": "contracts/Penrose.sol:Penrose",
        "label": "swappers",
        "offset": 0,
        "slot": "12",
        "type": "t_mapping(t_contract(ISwapper)13806,t_bool)"
      },
      {
        "astId": 4010,
        "contract": "contracts/Penrose.sol:Penrose",
        "label": "bigBangEthMarket",
        "offset": 0,
        "slot": "13",
        "type": "t_address"
      },
      {
        "astId": 4012,
        "contract": "contracts/Penrose.sol:Penrose",
        "label": "bigBangEthDebtRate",
        "offset": 0,
        "slot": "14",
        "type": "t_uint256"
      },
      {
        "astId": 4017,
        "contract": "contracts/Penrose.sol:Penrose",
        "label": "emptyStrategies",
        "offset": 0,
        "slot": "15",
        "type": "t_mapping(t_address,t_contract(IStrategy)25016)"
      }
    ],
    "types": {
      "t_address": {
        "encoding": "inplace",
        "label": "address",
        "numberOfBytes": "20"
      },
      "t_array(t_address)dyn_storage": {
        "base": "t_address",
        "encoding": "dynamic_array",
        "label": "address[]",
        "numberOfBytes": "32"
      },
      "t_array(t_struct(MasterContract)5325_storage)dyn_storage": {
        "base": "t_struct(MasterContract)5325_storage",
        "encoding": "dynamic_array",
        "label": "struct IPenrose.MasterContract[]",
        "numberOfBytes": "32"
      },
      "t_bool": {
        "encoding": "inplace",
        "label": "bool",
        "numberOfBytes": "1"
      },
      "t_contract(IStrategy)25016": {
        "encoding": "inplace",
        "label": "contract IStrategy",
        "numberOfBytes": "20"
      },
      "t_contract(ISwapper)13806": {
        "encoding": "inplace",
        "label": "contract ISwapper",
        "numberOfBytes": "20"
      },
      "t_contract(IUSD0)13826": {
        "encoding": "inplace",
        "label": "contract IUSD0",
        "numberOfBytes": "20"
      },
      "t_enum(ContractType)5319": {
        "encoding": "inplace",
        "label": "enum IPenrose.ContractType",
        "numberOfBytes": "1"
      },
      "t_mapping(t_address,t_address)": {
        "encoding": "mapping",
        "key": "t_address",
        "label": "mapping(address => address)",
        "numberOfBytes": "32",
        "value": "t_address"
      },
      "t_mapping(t_address,t_array(t_address)dyn_storage)": {
        "encoding": "mapping",
        "key": "t_address",
        "label": "mapping(address => address[])",
        "numberOfBytes": "32",
        "value": "t_array(t_address)dyn_storage"
      },
      "t_mapping(t_address,t_bool)": {
        "encoding": "mapping",
        "key": "t_address",
        "label": "mapping(address => bool)",
        "numberOfBytes": "32",
        "value": "t_bool"
      },
      "t_mapping(t_address,t_contract(IStrategy)25016)": {
        "encoding": "mapping",
        "key": "t_address",
        "label": "mapping(address => contract IStrategy)",
        "numberOfBytes": "32",
        "value": "t_contract(IStrategy)25016"
      },
      "t_mapping(t_contract(ISwapper)13806,t_bool)": {
        "encoding": "mapping",
        "key": "t_contract(ISwapper)13806",
        "label": "mapping(contract ISwapper => bool)",
        "numberOfBytes": "32",
        "value": "t_bool"
      },
      "t_struct(MasterContract)5325_storage": {
        "encoding": "inplace",
        "label": "struct IPenrose.MasterContract",
        "members": [
          {
            "astId": 5321,
            "contract": "contracts/Penrose.sol:Penrose",
            "label": "location",
            "offset": 0,
            "slot": "0",
            "type": "t_address"
          },
          {
            "astId": 5324,
            "contract": "contracts/Penrose.sol:Penrose",
            "label": "risk",
            "offset": 20,
            "slot": "0",
            "type": "t_enum(ContractType)5319"
          }
        ],
        "numberOfBytes": "32"
      },
      "t_uint256": {
        "encoding": "inplace",
        "label": "uint256",
        "numberOfBytes": "32"
      }
    }
  }
}