{
  "address": "0x950e9724B631d9D8C1f35aE36C7E68f5D67486dd",
  "abi": [
    {
      "inputs": [
        {
          "internalType": "address",
          "name": "_from",
          "type": "address"
        },
        {
          "internalType": "address",
          "name": "_operator",
          "type": "address"
        }
      ],
      "name": "NotApproved",
      "type": "error"
    },
    {
      "anonymous": false,
      "inputs": [
        {
          "indexed": true,
          "internalType": "address",
          "name": "owner",
          "type": "address"
        },
        {
          "indexed": true,
          "internalType": "address",
          "name": "spender",
          "type": "address"
        },
        {
          "indexed": false,
          "internalType": "uint256",
          "name": "value",
          "type": "uint256"
        }
      ],
      "name": "Approval",
      "type": "event"
    },
    {
      "anonymous": false,
      "inputs": [
        {
          "indexed": true,
          "internalType": "address",
          "name": "old",
          "type": "address"
        },
        {
          "indexed": true,
          "internalType": "address",
          "name": "_new",
          "type": "address"
        }
      ],
      "name": "ConservatorUpdated",
      "type": "event"
    },
    {
      "anonymous": false,
      "inputs": [
        {
          "indexed": false,
          "internalType": "uint256",
          "name": "accruedAmount",
          "type": "uint256"
        },
        {
          "indexed": false,
          "internalType": "uint256",
          "name": "feeFraction",
          "type": "uint256"
        },
        {
          "indexed": false,
          "internalType": "uint64",
          "name": "rate",
          "type": "uint64"
        },
        {
          "indexed": false,
          "internalType": "uint256",
          "name": "utilization",
          "type": "uint256"
        }
      ],
      "name": "LogAccrue",
      "type": "event"
    },
    {
      "anonymous": false,
      "inputs": [
        {
          "indexed": true,
          "internalType": "address",
          "name": "from",
          "type": "address"
        },
        {
          "indexed": true,
          "internalType": "address",
          "name": "to",
          "type": "address"
        },
        {
          "indexed": false,
          "internalType": "uint256",
          "name": "share",
          "type": "uint256"
        },
        {
          "indexed": false,
          "internalType": "uint256",
          "name": "fraction",
          "type": "uint256"
        }
      ],
      "name": "LogAddAsset",
      "type": "event"
    },
    {
      "anonymous": false,
      "inputs": [
        {
          "indexed": true,
          "internalType": "address",
          "name": "from",
          "type": "address"
        },
        {
          "indexed": true,
          "internalType": "address",
          "name": "to",
          "type": "address"
        },
        {
          "indexed": false,
          "internalType": "uint256",
          "name": "share",
          "type": "uint256"
        }
      ],
      "name": "LogAddCollateral",
      "type": "event"
    },
    {
      "anonymous": false,
      "inputs": [
        {
          "indexed": true,
          "internalType": "address",
          "name": "_from",
          "type": "address"
        },
        {
          "indexed": true,
          "internalType": "address",
          "name": "_operator",
          "type": "address"
        },
        {
          "indexed": false,
          "internalType": "bool",
          "name": "_approved",
          "type": "bool"
        }
      ],
      "name": "LogApprovalForAll",
      "type": "event"
    },
    {
      "anonymous": false,
      "inputs": [
        {
          "indexed": true,
          "internalType": "address",
          "name": "from",
          "type": "address"
        },
        {
          "indexed": true,
          "internalType": "address",
          "name": "to",
          "type": "address"
        },
        {
          "indexed": false,
          "internalType": "uint256",
          "name": "amount",
          "type": "uint256"
        },
        {
          "indexed": false,
          "internalType": "uint256",
          "name": "feeAmount",
          "type": "uint256"
        },
        {
          "indexed": false,
          "internalType": "uint256",
          "name": "part",
          "type": "uint256"
        }
      ],
      "name": "LogBorrow",
      "type": "event"
    },
    {
      "anonymous": false,
      "inputs": [
        {
          "indexed": false,
          "internalType": "uint256",
          "name": "_oldVal",
          "type": "uint256"
        },
        {
          "indexed": false,
          "internalType": "uint256",
          "name": "_newVal",
          "type": "uint256"
        }
      ],
      "name": "LogBorrowCapUpdated",
      "type": "event"
    },
    {
      "anonymous": false,
      "inputs": [
        {
          "indexed": false,
          "internalType": "uint256",
          "name": "rate",
          "type": "uint256"
        }
      ],
      "name": "LogExchangeRate",
      "type": "event"
    },
    {
      "anonymous": false,
      "inputs": [
        {
          "indexed": true,
          "internalType": "address",
          "name": "from",
          "type": "address"
        },
        {
          "indexed": true,
          "internalType": "address",
          "name": "to",
          "type": "address"
        },
        {
          "indexed": false,
          "internalType": "uint256",
          "name": "share",
          "type": "uint256"
        },
        {
          "indexed": false,
          "internalType": "uint256",
          "name": "fraction",
          "type": "uint256"
        }
      ],
      "name": "LogRemoveAsset",
      "type": "event"
    },
    {
      "anonymous": false,
      "inputs": [
        {
          "indexed": true,
          "internalType": "address",
          "name": "from",
          "type": "address"
        },
        {
          "indexed": true,
          "internalType": "address",
          "name": "to",
          "type": "address"
        },
        {
          "indexed": false,
          "internalType": "uint256",
          "name": "share",
          "type": "uint256"
        }
      ],
      "name": "LogRemoveCollateral",
      "type": "event"
    },
    {
      "anonymous": false,
      "inputs": [
        {
          "indexed": true,
          "internalType": "address",
          "name": "from",
          "type": "address"
        },
        {
          "indexed": true,
          "internalType": "address",
          "name": "to",
          "type": "address"
        },
        {
          "indexed": false,
          "internalType": "uint256",
          "name": "amount",
          "type": "uint256"
        },
        {
          "indexed": false,
          "internalType": "uint256",
          "name": "part",
          "type": "uint256"
        }
      ],
      "name": "LogRepay",
      "type": "event"
    },
    {
      "anonymous": false,
      "inputs": [
        {
          "indexed": true,
          "internalType": "address",
          "name": "feeTo",
          "type": "address"
        },
        {
          "indexed": false,
          "internalType": "uint256",
          "name": "feesEarnedFraction",
          "type": "uint256"
        }
      ],
      "name": "LogWithdrawFees",
      "type": "event"
    },
    {
      "anonymous": false,
      "inputs": [
        {
          "indexed": false,
          "internalType": "uint256",
          "name": "feeShares",
          "type": "uint256"
        },
        {
          "indexed": false,
          "internalType": "uint256",
          "name": "ethAmount",
          "type": "uint256"
        }
      ],
      "name": "LogYieldBoxFeesDeposit",
      "type": "event"
    },
    {
      "anonymous": false,
      "inputs": [
        {
          "indexed": true,
          "internalType": "address",
          "name": "previousOwner",
          "type": "address"
        },
        {
          "indexed": true,
          "internalType": "address",
          "name": "newOwner",
          "type": "address"
        }
      ],
      "name": "OwnershipTransferred",
      "type": "event"
    },
    {
      "anonymous": false,
      "inputs": [
        {
          "indexed": false,
          "internalType": "bool",
          "name": "oldState",
          "type": "bool"
        },
        {
          "indexed": false,
          "internalType": "bool",
          "name": "newState",
          "type": "bool"
        }
      ],
      "name": "PausedUpdated",
      "type": "event"
    },
    {
      "anonymous": false,
      "inputs": [
        {
          "indexed": true,
          "internalType": "address",
          "name": "from",
          "type": "address"
        },
        {
          "indexed": true,
          "internalType": "address",
          "name": "to",
          "type": "address"
        },
        {
          "indexed": false,
          "internalType": "uint256",
          "name": "value",
          "type": "uint256"
        }
      ],
      "name": "Transfer",
      "type": "event"
    },
    {
      "inputs": [],
      "name": "DOMAIN_SEPARATOR",
      "outputs": [
        {
          "internalType": "bytes32",
          "name": "",
          "type": "bytes32"
        }
      ],
      "stateMutability": "view",
      "type": "function"
    },
    {
      "inputs": [],
      "name": "accrue",
      "outputs": [],
      "stateMutability": "nonpayable",
      "type": "function"
    },
    {
      "inputs": [],
      "name": "accrueInfo",
      "outputs": [
        {
          "internalType": "uint64",
          "name": "interestPerSecond",
          "type": "uint64"
        },
        {
          "internalType": "uint64",
          "name": "lastAccrued",
          "type": "uint64"
        },
        {
          "internalType": "uint128",
          "name": "feesEarnedFraction",
          "type": "uint128"
        }
      ],
      "stateMutability": "view",
      "type": "function"
    },
    {
      "inputs": [
        {
          "internalType": "address",
          "name": "from",
          "type": "address"
        },
        {
          "internalType": "address",
          "name": "to",
          "type": "address"
        },
        {
          "internalType": "bool",
          "name": "skim",
          "type": "bool"
        },
        {
          "internalType": "uint256",
          "name": "share",
          "type": "uint256"
        }
      ],
      "name": "addAsset",
      "outputs": [
        {
          "internalType": "uint256",
          "name": "fraction",
          "type": "uint256"
        }
      ],
      "stateMutability": "nonpayable",
      "type": "function"
    },
    {
      "inputs": [
        {
          "internalType": "address",
          "name": "from",
          "type": "address"
        },
        {
          "internalType": "address",
          "name": "to",
          "type": "address"
        },
        {
          "internalType": "bool",
          "name": "skim",
          "type": "bool"
        },
        {
          "internalType": "uint256",
          "name": "share",
          "type": "uint256"
        }
      ],
      "name": "addCollateral",
      "outputs": [],
      "stateMutability": "nonpayable",
      "type": "function"
    },
    {
      "inputs": [
        {
          "internalType": "address",
          "name": "",
          "type": "address"
        },
        {
          "internalType": "address",
          "name": "",
          "type": "address"
        }
      ],
      "name": "allowance",
      "outputs": [
        {
          "internalType": "uint256",
          "name": "",
          "type": "uint256"
        }
      ],
      "stateMutability": "view",
      "type": "function"
    },
    {
      "inputs": [
        {
          "internalType": "address",
          "name": "spender",
          "type": "address"
        },
        {
          "internalType": "uint256",
          "name": "amount",
          "type": "uint256"
        }
      ],
      "name": "approve",
      "outputs": [
        {
          "internalType": "bool",
          "name": "",
          "type": "bool"
        }
      ],
      "stateMutability": "nonpayable",
      "type": "function"
    },
    {
      "inputs": [],
      "name": "asset",
      "outputs": [
        {
          "internalType": "contract IERC20",
          "name": "",
          "type": "address"
        }
      ],
      "stateMutability": "view",
      "type": "function"
    },
    {
      "inputs": [],
      "name": "assetId",
      "outputs": [
        {
          "internalType": "uint256",
          "name": "",
          "type": "uint256"
        }
      ],
      "stateMutability": "view",
      "type": "function"
    },
    {
      "inputs": [
        {
          "internalType": "address",
          "name": "",
          "type": "address"
        }
      ],
      "name": "balanceOf",
      "outputs": [
        {
          "internalType": "uint256",
          "name": "",
          "type": "uint256"
        }
      ],
      "stateMutability": "view",
      "type": "function"
    },
    {
      "inputs": [
        {
          "internalType": "address",
          "name": "from",
          "type": "address"
        },
        {
          "internalType": "address",
          "name": "to",
          "type": "address"
        },
        {
          "internalType": "uint256",
          "name": "amount",
          "type": "uint256"
        }
      ],
      "name": "borrow",
      "outputs": [
        {
          "internalType": "uint256",
          "name": "part",
          "type": "uint256"
        },
        {
          "internalType": "uint256",
          "name": "share",
          "type": "uint256"
        }
      ],
      "stateMutability": "nonpayable",
      "type": "function"
    },
    {
      "inputs": [],
      "name": "borrowOpeningFee",
      "outputs": [
        {
          "internalType": "uint256",
          "name": "",
          "type": "uint256"
        }
      ],
      "stateMutability": "view",
      "type": "function"
    },
    {
      "inputs": [],
      "name": "callerFee",
      "outputs": [
        {
          "internalType": "uint256",
          "name": "",
          "type": "uint256"
        }
      ],
      "stateMutability": "view",
      "type": "function"
    },
    {
      "inputs": [],
      "name": "claimOwnership",
      "outputs": [],
      "stateMutability": "nonpayable",
      "type": "function"
    },
    {
      "inputs": [],
      "name": "closedCollateralizationRate",
      "outputs": [
        {
          "internalType": "uint256",
          "name": "",
          "type": "uint256"
        }
      ],
      "stateMutability": "view",
      "type": "function"
    },
    {
      "inputs": [],
      "name": "collateral",
      "outputs": [
        {
          "internalType": "contract IERC20",
          "name": "",
          "type": "address"
        }
      ],
      "stateMutability": "view",
      "type": "function"
    },
    {
      "inputs": [],
      "name": "collateralId",
      "outputs": [
        {
          "internalType": "uint256",
          "name": "",
          "type": "uint256"
        }
      ],
      "stateMutability": "view",
      "type": "function"
    },
    {
      "inputs": [],
      "name": "conservator",
      "outputs": [
        {
          "internalType": "address",
          "name": "",
          "type": "address"
        }
      ],
      "stateMutability": "view",
      "type": "function"
    },
    {
      "inputs": [],
      "name": "decimals",
      "outputs": [
        {
          "internalType": "uint8",
          "name": "",
          "type": "uint8"
        }
      ],
      "stateMutability": "view",
      "type": "function"
    },
    {
      "inputs": [],
      "name": "exchangeRate",
      "outputs": [
        {
          "internalType": "uint256",
          "name": "",
          "type": "uint256"
        }
      ],
      "stateMutability": "view",
      "type": "function"
    },
    {
      "inputs": [
        {
          "internalType": "address",
          "name": "",
          "type": "address"
        },
        {
          "internalType": "address",
          "name": "",
          "type": "address"
        }
      ],
      "name": "isApprovedForAll",
      "outputs": [
        {
          "internalType": "bool",
          "name": "",
          "type": "bool"
        }
      ],
      "stateMutability": "view",
      "type": "function"
    },
    {
      "inputs": [],
      "name": "liquidationMultiplier",
      "outputs": [
        {
          "internalType": "uint256",
          "name": "",
          "type": "uint256"
        }
      ],
      "stateMutability": "view",
      "type": "function"
    },
    {
      "inputs": [],
      "name": "liquidationQueue",
      "outputs": [
        {
          "internalType": "contract ILiquidationQueue",
          "name": "",
          "type": "address"
        }
      ],
      "stateMutability": "view",
      "type": "function"
    },
    {
      "inputs": [],
      "name": "lqCollateralizationRate",
      "outputs": [
        {
          "internalType": "uint256",
          "name": "",
          "type": "uint256"
        }
      ],
      "stateMutability": "view",
      "type": "function"
    },
    {
      "inputs": [],
      "name": "name",
      "outputs": [
        {
          "internalType": "string",
          "name": "",
          "type": "string"
        }
      ],
      "stateMutability": "view",
      "type": "function"
    },
    {
      "inputs": [
        {
          "internalType": "address",
          "name": "",
          "type": "address"
        }
      ],
      "name": "nonces",
      "outputs": [
        {
          "internalType": "uint256",
          "name": "",
          "type": "uint256"
        }
      ],
      "stateMutability": "view",
      "type": "function"
    },
    {
      "inputs": [],
      "name": "oracle",
      "outputs": [
        {
          "internalType": "contract IOracle",
          "name": "",
          "type": "address"
        }
      ],
      "stateMutability": "view",
      "type": "function"
    },
    {
      "inputs": [],
      "name": "oracleData",
      "outputs": [
        {
          "internalType": "bytes",
          "name": "",
          "type": "bytes"
        }
      ],
      "stateMutability": "view",
      "type": "function"
    },
    {
      "inputs": [],
      "name": "orderBookLiquidationMultiplier",
      "outputs": [
        {
          "internalType": "uint256",
          "name": "",
          "type": "uint256"
        }
      ],
      "stateMutability": "view",
      "type": "function"
    },
    {
      "inputs": [],
      "name": "owner",
      "outputs": [
        {
          "internalType": "address",
          "name": "",
          "type": "address"
        }
      ],
      "stateMutability": "view",
      "type": "function"
    },
    {
      "inputs": [],
      "name": "paused",
      "outputs": [
        {
          "internalType": "bool",
          "name": "",
          "type": "bool"
        }
      ],
      "stateMutability": "view",
      "type": "function"
    },
    {
      "inputs": [],
      "name": "pendingOwner",
      "outputs": [
        {
          "internalType": "address",
          "name": "",
          "type": "address"
        }
      ],
      "stateMutability": "view",
      "type": "function"
    },
    {
      "inputs": [],
      "name": "penrose",
      "outputs": [
        {
          "internalType": "contract IPenrose",
          "name": "",
          "type": "address"
        }
      ],
      "stateMutability": "view",
      "type": "function"
    },
    {
      "inputs": [
        {
          "internalType": "address",
          "name": "owner_",
          "type": "address"
        },
        {
          "internalType": "address",
          "name": "spender",
          "type": "address"
        },
        {
          "internalType": "uint256",
          "name": "value",
          "type": "uint256"
        },
        {
          "internalType": "uint256",
          "name": "deadline",
          "type": "uint256"
        },
        {
          "internalType": "uint8",
          "name": "v",
          "type": "uint8"
        },
        {
          "internalType": "bytes32",
          "name": "r",
          "type": "bytes32"
        },
        {
          "internalType": "bytes32",
          "name": "s",
          "type": "bytes32"
        }
      ],
      "name": "permit",
      "outputs": [],
      "stateMutability": "nonpayable",
      "type": "function"
    },
    {
      "inputs": [],
      "name": "protocolFee",
      "outputs": [
        {
          "internalType": "uint256",
          "name": "",
          "type": "uint256"
        }
      ],
      "stateMutability": "view",
      "type": "function"
    },
    {
      "inputs": [
        {
          "internalType": "address",
          "name": "from",
          "type": "address"
        },
        {
          "internalType": "address",
          "name": "to",
          "type": "address"
        },
        {
          "internalType": "uint256",
          "name": "fraction",
          "type": "uint256"
        }
      ],
      "name": "removeAsset",
      "outputs": [
        {
          "internalType": "uint256",
          "name": "share",
          "type": "uint256"
        }
      ],
      "stateMutability": "nonpayable",
      "type": "function"
    },
    {
      "inputs": [
        {
          "internalType": "address",
          "name": "from",
          "type": "address"
        },
        {
          "internalType": "address",
          "name": "to",
          "type": "address"
        },
        {
          "internalType": "uint256",
          "name": "share",
          "type": "uint256"
        }
      ],
      "name": "removeCollateral",
      "outputs": [],
      "stateMutability": "nonpayable",
      "type": "function"
    },
    {
      "inputs": [
        {
          "internalType": "address",
          "name": "from",
          "type": "address"
        },
        {
          "internalType": "address",
          "name": "to",
          "type": "address"
        },
        {
          "internalType": "bool",
          "name": "skim",
          "type": "bool"
        },
        {
          "internalType": "uint256",
          "name": "part",
          "type": "uint256"
        }
      ],
      "name": "repay",
      "outputs": [
        {
          "internalType": "uint256",
          "name": "amount",
          "type": "uint256"
        }
      ],
      "stateMutability": "nonpayable",
      "type": "function"
    },
    {
      "inputs": [],
      "name": "symbol",
      "outputs": [
        {
          "internalType": "string",
          "name": "",
          "type": "string"
        }
      ],
      "stateMutability": "view",
      "type": "function"
    },
    {
      "inputs": [],
      "name": "totalAsset",
      "outputs": [
        {
          "internalType": "uint128",
          "name": "elastic",
          "type": "uint128"
        },
        {
          "internalType": "uint128",
          "name": "base",
          "type": "uint128"
        }
      ],
      "stateMutability": "view",
      "type": "function"
    },
    {
      "inputs": [],
      "name": "totalBorrow",
      "outputs": [
        {
          "internalType": "uint128",
          "name": "elastic",
          "type": "uint128"
        },
        {
          "internalType": "uint128",
          "name": "base",
          "type": "uint128"
        }
      ],
      "stateMutability": "view",
      "type": "function"
    },
    {
      "inputs": [],
      "name": "totalBorrowCap",
      "outputs": [
        {
          "internalType": "uint256",
          "name": "",
          "type": "uint256"
        }
      ],
      "stateMutability": "view",
      "type": "function"
    },
    {
      "inputs": [],
      "name": "totalCollateralShare",
      "outputs": [
        {
          "internalType": "uint256",
          "name": "",
          "type": "uint256"
        }
      ],
      "stateMutability": "view",
      "type": "function"
    },
    {
      "inputs": [],
      "name": "totalSupply",
      "outputs": [
        {
          "internalType": "uint256",
          "name": "",
          "type": "uint256"
        }
      ],
      "stateMutability": "view",
      "type": "function"
    },
    {
      "inputs": [
        {
          "internalType": "address",
          "name": "to",
          "type": "address"
        },
        {
          "internalType": "uint256",
          "name": "amount",
          "type": "uint256"
        }
      ],
      "name": "transfer",
      "outputs": [
        {
          "internalType": "bool",
          "name": "",
          "type": "bool"
        }
      ],
      "stateMutability": "nonpayable",
      "type": "function"
    },
    {
      "inputs": [
        {
          "internalType": "address",
          "name": "from",
          "type": "address"
        },
        {
          "internalType": "address",
          "name": "to",
          "type": "address"
        },
        {
          "internalType": "uint256",
          "name": "amount",
          "type": "uint256"
        }
      ],
      "name": "transferFrom",
      "outputs": [
        {
          "internalType": "bool",
          "name": "",
          "type": "bool"
        }
      ],
      "stateMutability": "nonpayable",
      "type": "function"
    },
    {
      "inputs": [
        {
          "internalType": "address",
          "name": "newOwner",
          "type": "address"
        },
        {
          "internalType": "bool",
          "name": "direct",
          "type": "bool"
        },
        {
          "internalType": "bool",
          "name": "renounce",
          "type": "bool"
        }
      ],
      "name": "transferOwnership",
      "outputs": [],
      "stateMutability": "nonpayable",
      "type": "function"
    },
    {
      "inputs": [],
      "name": "updateExchangeRate",
      "outputs": [
        {
          "internalType": "bool",
          "name": "updated",
          "type": "bool"
        },
        {
          "internalType": "uint256",
          "name": "rate",
          "type": "uint256"
        }
      ],
      "stateMutability": "nonpayable",
      "type": "function"
    },
    {
      "inputs": [
        {
          "internalType": "address",
          "name": "",
          "type": "address"
        }
      ],
      "name": "userBorrowPart",
      "outputs": [
        {
          "internalType": "uint256",
          "name": "",
          "type": "uint256"
        }
      ],
      "stateMutability": "view",
      "type": "function"
    },
    {
      "inputs": [
        {
          "internalType": "address",
          "name": "",
          "type": "address"
        }
      ],
      "name": "userCollateralShare",
      "outputs": [
        {
          "internalType": "uint256",
          "name": "",
          "type": "uint256"
        }
      ],
      "stateMutability": "view",
      "type": "function"
    },
    {
      "inputs": [],
      "name": "yieldBox",
      "outputs": [
        {
          "internalType": "contract YieldBox",
          "name": "",
          "type": "address"
        }
      ],
      "stateMutability": "view",
      "type": "function"
    }
  ],
  "transactionHash": "0x9d17f5a1b81ccc5579ba29610623620e1a4057751064170344e0b8c9b2f10c0c",
  "args": [],
  "numDeployments": 1,
  "solcInputHash": "00159a693e7dec675ccf3b4367e7c901",
  "bytecode": "0x60c060405234801561001057600080fd5b50600080546001600160a01b0319163390811782556040519091907f8be0079c531659141344cd1fd0a4f28419497f9722a3daafe3b4186f6b6457e0908290a34660a08190526100b390604080517f47e79534a245952e8b16893a336b85a3d9ea9fa8c573f3d803afb92a794692186020820152908101829052306060820152600090608001604051602081830303815290604052805190602001209050919050565b60805260805160a051613aae6100db60003960006120ce015260006120ff0152613aae6000f3fe608060405234801561001057600080fd5b50600436106102f15760003560e01c806370a082311161019d578063cce19f81116100e9578063de406577116100a2578063eec0f42e1161007c578063eec0f42e1461071f578063f4d9375314610728578063f8ba4cff1461073b578063f9557ccb1461074357600080fd5b8063de406577146106cb578063e30c3978146106de578063e985e9c5146106f157600080fd5b8063cce19f811461063c578063cd0211eb1461064f578063ce8849ed14610662578063d505accf1461067a578063d8dfeb451461068d578063dd62ed3e146106a057600080fd5b8063959916dc11610156578063b0e21e8a11610130578063b0e21e8a146105b7578063b27c0e74146105c0578063c23ea21f14610620578063c9621f3b1461063357600080fd5b8063959916dc1461059357806395d89b411461059c578063a9059cbb146105a457600080fd5b806370a08231146104e757806374645ff3146105075780637dc0d1d01461050f5780637ecebe00146105225780638285ef40146105425780638da5cb5b1461058057600080fd5b806338d52e0f1161025c5780634d7f2a3411610215578063529898f2116101ef578063529898f2146104ab5780635c975abb146104b45780636587adb8146104c15780636c3d8b8f146104d457600080fd5b80634d7f2a34146104725780634e71e0c81461047b5780635224372c1461048357600080fd5b806338d52e0f146104035780633ba0b9a91461042e57806340626d8b1461043757806344de240a14610440578063473e3ce71461044957806348e4163e1461045257600080fd5b80631e7ce448116102ae5780631e7ce448146103a957806323b872dd146103b257806325be7824146103c5578063313ce567146103d857806334d441d0146103f25780633644e515146103fb57600080fd5b806302ce728f146102f657806306fdde031461031a578063078dfbe71461032f578063095ea7b31461034457806318160ddd146103675780631c9e379b14610389575b600080fd5b6102fe610761565b6040805192151583526020830191909152015b60405180910390f35b610322610837565b60405161031191906133a7565b61034261033d3660046133e2565b61090f565b005b61035761035236600461342b565b610a53565b6040519015158152602001610311565b600f54600160801b90046001600160801b03165b604051908152602001610311565b61037b610397366004613455565b60136020526000908152604090205481565b61037b601d5481565b6103576103c0366004613470565b610ac0565b6103426103d33660046134ac565b610ccd565b6103e0610e1e565b60405160ff9091168152602001610311565b61037b60195481565b61037b610e3b565b600a54610416906001600160a01b031681565b6040516001600160a01b039091168152602001610311565b61037b60165481565b61037b60115481565b61037b600c5481565b61037b600e5481565b61037b610460366004613455565b60146020526000908152604090205481565b61037b601f5481565b610342610e45565b610496610491366004613470565b610f02565b60408051928352602083019190915201610311565b61037b601c5481565b600d546103579060ff1681565b61037b6104cf3660046134ac565b611016565b600654610416906001600160a01b031681565b61037b6104f5366004613455565b60026020526000908152604090205481565b6103226110ce565b601754610416906001600160a01b031681565b61037b610530366004613455565b60046020526000908152604090205481565b601054610560906001600160801b0380821691600160801b90041682565b604080516001600160801b03938416815292909116602083015201610311565b600054610416906001600160a01b031681565b61037b601b5481565b61032261115c565b6103576105b236600461342b565b611220565b61037b601a5481565b6005546105f1906001600160401b0380821691600160401b810490911690600160801b90046001600160801b031683565b604080516001600160401b0394851681529390921660208401526001600160801b031690820152606001610311565b600854610416906001600160a01b031681565b61037b601e5481565b61034261064a366004613470565b611365565b61037b61065d3660046134ac565b611460565b600d546104169061010090046001600160a01b031681565b610342610688366004613508565b611518565b600954610416906001600160a01b031681565b61037b6106ae366004613575565b600360209081526000928352604080842090915290825290205481565b600754610416906001600160a01b031681565b600154610416906001600160a01b031681565b6103576106ff366004613575565b601560209081526000928352604080842090915290825290205460ff1681565b61037b600b5481565b61037b610736366004613470565b61176b565b610342611823565b600f54610560906001600160801b0380821691600160801b90041682565b60175460405163d6d7d52560e01b815260009182916001600160a01b039091169063d6d7d52590610797906018906004016135e3565b6040805180830381600087803b1580156107b057600080fd5b505af11580156107c4573d6000803e3d6000fd5b505050506040513d601f19601f820116820180604052508101906107e8919061368b565b9092509050811561082f5760168190556040518181527f9f9192b5edb17356c524e08d9e025c8e2f6307e6ea52fb7968faa3081f51c3c89060200160405180910390a19091565b506016549091565b60095460609061084f906001600160a01b0316611dd3565b600a54610864906001600160a01b0316611dd3565b60175460405163355a219b60e21b81526001600160a01b039091169063d568866c90610895906018906004016135e3565b60006040518083038186803b1580156108ad57600080fd5b505afa1580156108c1573d6000803e3d6000fd5b505050506040513d6000823e601f3d908101601f191682016040526108e991908101906136cf565b6040516020016108fb9392919061377b565b604051602081830303815290604052905090565b6000546001600160a01b0316331461096e5760405162461bcd60e51b815260206004820181905260248201527f4f776e61626c653a2063616c6c6572206973206e6f7420746865206f776e657260448201526064015b60405180910390fd5b8115610a31576001600160a01b0383161515806109885750805b6109cc5760405162461bcd60e51b81526020600482015260156024820152744f776e61626c653a207a65726f206164647265737360581b6044820152606401610965565b600080546040516001600160a01b03808716939216917f8be0079c531659141344cd1fd0a4f28419497f9722a3daafe3b4186f6b6457e091a3600080546001600160a01b0385166001600160a01b031991821617909155600180549091169055505050565b600180546001600160a01b0385166001600160a01b0319909116179055505050565b3360008181526003602090815260408083206001600160a01b038716808552925280832085905551919290917f8c5be1e5ebec7d5bd14f71427d1e84f3dd0314c0f7b2291e5b200ac8c7c3b92590610aae9086815260200190565b60405180910390a35060015b92915050565b60008115610c87576001600160a01b03841660009081526002602052604090205482811015610b2a5760405162461bcd60e51b815260206004820152601660248201527545524332303a2062616c616e636520746f6f206c6f7760501b6044820152606401610965565b836001600160a01b0316856001600160a01b031614610c85576001600160a01b03851660009081526003602090815260408083203384529091529020546000198114610bef5783811015610bc05760405162461bcd60e51b815260206004820152601860248201527f45524332303a20616c6c6f77616e636520746f6f206c6f7700000000000000006044820152606401610965565b610bca8482613810565b6001600160a01b03871660009081526003602090815260408083203384529091529020555b6001600160a01b038516610c3e5760405162461bcd60e51b815260206004820152601660248201527545524332303a206e6f207a65726f206164647265737360501b6044820152606401610965565b610c488483613810565b6001600160a01b038088166000908152600260205260408082209390935590871681529081208054869290610c7e908490613827565b9091555050505b505b826001600160a01b0316846001600160a01b0316600080516020613a5983398151915284604051610cba91815260200190565b60405180910390a35060015b9392505050565b600d5460ff1615610cf05760405162461bcd60e51b81526004016109659061383f565b836001600160a01b0381163314801590610d3557506001600160a01b038116600090815260026020908152604080832054600383528184203385529092529091205411155b15610d6457604051630ca03e9b60e11b81526001600160a01b0382166004820152336024820152604401610965565b6001600160a01b03841660009081526013602052604081208054849290610d8c908490613827565b9091555050600e54610d9e8382613827565b600e55600b54610db2908790858488611e96565b846001600160a01b031684610dc75786610dd4565b6007546001600160a01b03165b6001600160a01b03167f9ed03113de523cebfe5e49d5f8e12894b1c0d42ce805990461726444c90eab8785604051610e0e91815260200190565b60405180910390a3505050505050565b600a54600090610e36906001600160a01b0316612012565b905090565b6000610e366120ca565b6001546001600160a01b0316338114610ea05760405162461bcd60e51b815260206004820181905260248201527f4f776e61626c653a2063616c6c657220213d2070656e64696e67206f776e65726044820152606401610965565b600080546040516001600160a01b03808516939216917f8be0079c531659141344cd1fd0a4f28419497f9722a3daafe3b4186f6b6457e091a3600080546001600160a01b039092166001600160a01b0319928316179055600180549091169055565b600d54600090819060ff1615610f2a5760405162461bcd60e51b81526004016109659061383f565b84806001600160a01b0381163314801590610f7057506001600160a01b038116600090815260026020908152604080832054600383528184203385529092529091205411155b15610f9f57604051630ca03e9b60e11b81526001600160a01b0382166004820152336024820152604401610965565b610fa7610761565b5050610fb1611823565b610fbc878787612121565b6016549195509350610fd09150829061243a565b61100d5760405162461bcd60e51b815260206004820152600e60248201526d14d1d30e881a5b9cdbdb1d995b9d60921b6044820152606401610965565b50935093915050565b600d5460009060ff161561103c5760405162461bcd60e51b81526004016109659061383f565b846001600160a01b038116331480159061108157506001600160a01b038116600090815260026020908152604080832054600383528184203385529092529091205411155b156110b057604051630ca03e9b60e11b81526001600160a01b0382166004820152336024820152604401610965565b6110b8611823565b6110c4868686866125a0565b9695505050505050565b601880546110db906135a8565b80601f0160208091040260200160405190810160405280929190818152602001828054611107906135a8565b80156111545780601f1061112957610100808354040283529160200191611154565b820191906000526020600020905b81548152906001019060200180831161113757829003601f168201915b505050505081565b600954606090611174906001600160a01b03166127e3565b600a54611189906001600160a01b03166127e3565b60175460405163634ce26b60e11b81526001600160a01b039091169063c699c4d6906111ba906018906004016135e3565b60006040518083038186803b1580156111d257600080fd5b505afa1580156111e6573d6000803e3d6000fd5b505050506040513d6000823e601f3d908101601f1916820160405261120e91908101906136cf565b6040516020016108fb93929190613864565b6000811515806112385750336001600160a01b038416145b1561133a5733600090815260026020526040902054828110156112965760405162461bcd60e51b815260206004820152601660248201527545524332303a2062616c616e636520746f6f206c6f7760501b6044820152606401610965565b336001600160a01b03851614611338576001600160a01b0384166112f55760405162461bcd60e51b815260206004820152601660248201527545524332303a206e6f207a65726f206164647265737360501b6044820152606401610965565b6112ff8382613810565b33600090815260026020526040808220929092556001600160a01b03861681529081208054859290611332908490613827565b90915550505b505b6040518281526001600160a01b038416903390600080516020613a5983398151915290602001610aae565b600d5460ff16156113885760405162461bcd60e51b81526004016109659061383f565b82806001600160a01b03811633148015906113ce57506001600160a01b038116600090815260026020908152604080832054600383528184203385529092529091205411155b156113fd57604051630ca03e9b60e11b81526001600160a01b0382166004820152336024820152604401610965565b611405611823565b61141085858561282a565b5061141d8160165461243a565b61145a5760405162461bcd60e51b815260206004820152600e60248201526d14d1d30e881a5b9cdbdb1d995b9d60921b6044820152606401610965565b50505050565b600d5460009060ff16156114865760405162461bcd60e51b81526004016109659061383f565b846001600160a01b03811633148015906114cb57506001600160a01b038116600090815260026020908152604080832054600383528184203385529092529091205411155b156114fa57604051630ca03e9b60e11b81526001600160a01b0382166004820152336024820152604401610965565b611502610761565b505061150c611823565b6110c4868686866129bd565b6001600160a01b03871661156e5760405162461bcd60e51b815260206004820152601860248201527f45524332303a204f776e65722063616e6e6f74206265203000000000000000006044820152606401610965565b8342106115ae5760405162461bcd60e51b815260206004820152600e60248201526d115490cc8c0e88115e1c1a5c995960921b6044820152606401610965565b6001600160a01b03871660008181526004602052604081208054600192611658927f6e71edae12b1b97f4d1f60370fef10105fa2faae0126114a169c64845d6126c9928d928d928d9291611601836138d1565b909155506040805160208101969096526001600160a01b0394851690860152929091166060840152608083015260a082015260c0810188905260e00160405160208183030381529060405280519060200120612b95565b6040805160008152602081018083529290925260ff871690820152606081018590526080810184905260a0016020604051602081039080840390855afa1580156116a6573d6000803e3d6000fd5b505050602060405103516001600160a01b0316146117065760405162461bcd60e51b815260206004820152601860248201527f45524332303a20496e76616c6964205369676e617475726500000000000000006044820152606401610965565b6001600160a01b038781166000818152600360209081526040808320948b168084529482529182902089905590518881527f8c5be1e5ebec7d5bd14f71427d1e84f3dd0314c0f7b2291e5b200ac8c7c3b925910160405180910390a350505050505050565b600d5460009060ff16156117915760405162461bcd60e51b81526004016109659061383f565b836001600160a01b03811633148015906117d657506001600160a01b038116600090815260026020908152604080832054600383528184203385529092529091205411155b1561180557604051630ca03e9b60e11b81526001600160a01b0382166004820152336024820152604401610965565b61180d611823565b61181a8585856001612bea565b95945050505050565b604080516060810182526005546001600160401b038082168352600160401b82041660208301819052600160801b9091046001600160801b031692820192909252906000906118729042613810565b90508061187d575050565b6001600160401b034216602080840191909152604080518082019091526010546001600160801b038082168352600160801b90910416918101829052906119785782516001600160401b03166312e687c014611925576312e687c0808452604080516000808252602082018190529181019290925260608201527f33af5ce86e8438eff54589f85332916444457dfa8685493fbd579b809097026b9060800160405180910390a15b505080516005805460208401516040909401516001600160801b03908116600160801b026001600160401b03958616600160401b026001600160801b031990931695909416949094171792909216179055565b60408051808201909152600f546001600160801b038082168352600160801b909104811660208301528451835160009384939092670de0b6b3a76400009288926119cc926001600160401b031691166138ec565b6119d691906138ec565b6119e0919061390b565b925082846000018181516119f4919061392d565b6001600160801b039081169091528551600754600c54855160405163442c159960e01b8152600481019290925284166024820152600060448201819052945091909216916001600160a01b03169063442c15999060640160206040518083038186803b158015611a6357600080fd5b505afa158015611a77573d6000803e3d6000fd5b505050506040513d601f19601f82011682018060405250810190611a9b9190613958565b611aa59190613827565b90506000620186a0601a5486611abb91906138ec565b611ac5919061390b565b90508183602001516001600160801b031682611ae191906138ec565b611aeb919061390b565b93508388604001818151611aff919061392d565b6001600160801b03169052506020830151611b1b90859061392d565b600f80546001600160801b03908116600160801b93821684021790915587516020890151908216911690910281176010556000908390611b6490670de0b6b3a7640000906138ec565b611b6e919061390b565b90506709b6e64a8ec60000811015611c3f5760006709b6e64a8ec60000670de0b6b3a7640000611b9e8483613810565b611ba891906138ec565b611bb2919061390b565b9050600089611bc183806138ec565b611bcb91906138ec565b611be4906b0a9456c7acbaf3a129576cd1602b1b613827565b9050806b0a9456c7acbaf3a129576cd1602b1b8c600001516001600160401b0316611c0f91906138ec565b611c19919061390b565b6001600160401b0316808c526304b9a1f01115611c38576304b9a1f08b525b5050611d28565b670b1a2bc2ec500000811115611d28576000611c6b670b1a2bc2ec500000670de0b6b3a7640000613810565b670de0b6b3a7640000611c86670b1a2bc2ec50000085613810565b611c9091906138ec565b611c9a919061390b565b9050600089611ca983806138ec565b611cb391906138ec565b611ccc906b0a9456c7acbaf3a129576cd1602b1b613827565b905060006b0a9456c7acbaf3a129576cd1602b1b828d600001516001600160401b0316611cf991906138ec565b611d03919061390b565b90506449d4824600811115611d1a57506449d48246005b6001600160401b03168b5250505b885160408051888152602081018890526001600160401b039092168282015260608201839052517f33af5ce86e8438eff54589f85332916444457dfa8685493fbd579b809097026b9181900360800190a1505086516005805460208a01516040909a01516001600160801b03908116600160801b026001600160401b039b8c16600160401b026001600160801b03199093169b9094169a909a17179890981617909655505050505050565b60408051600481526024810182526020810180516001600160e01b03166306fdde0360e01b179052905160609160009182916001600160a01b03861691611e1a9190613971565b600060405180830381855afa9150503d8060008114611e55576040519150601f19603f3d011682016040523d82523d6000602084013e611e5a565b606091505b509150915081611e8557604051806040016040528060038152602001623f3f3f60e81b815250611e8e565b611e8e81612f6c565b949350505050565b6001600160a01b038516600090815260126020908152604080832087845290915281208054859290611ec9908490613827565b90915550508015611fa257600754604051627eeac760e11b81523060048201526024810186905283916001600160a01b03169062fdd58e9060440160206040518083038186803b158015611f1c57600080fd5b505afa158015611f30573d6000803e3d6000fd5b505050506040513d601f19601f82011682018060405250810190611f549190613958565b611f5e9190613810565b831115611f9d5760405162461bcd60e51b815260206004820152600d60248201526c0a68e987440e8dede40daeac6d609b1b6044820152606401610965565b61200b565b600754604051630208d92960e11b81526001600160a01b0390911690630411b25290611fd890889030908990899060040161398d565b600060405180830381600087803b158015611ff257600080fd5b505af1158015612006573d6000803e3d6000fd5b505050505b5050505050565b60408051600481526024810182526020810180516001600160e01b031663313ce56760e01b1790529051600091829182916001600160a01b038616916120589190613971565b600060405180830381855afa9150503d8060008114612093576040519150601f19603f3d011682016040523d82523d6000602084013e612098565b606091505b50915091508180156120ab575080516020145b6120b6576012611e8e565b80806020019051810190611e8e91906139b6565b60007f000000000000000000000000000000000000000000000000000000000000000046146120fc57610e36466130ef565b507f000000000000000000000000000000000000000000000000000000000000000090565b6000806000620186a0601b548561213891906138ec565b612142919061390b565b90506121816121518286613827565b604080518082019091526010546001600160801b038082168352600160801b909104166020820152906001613130565b81516020909201516001600160801b03908116600160801b0292169190911760105560115490935015806121c95750601154601054600160801b90046001600160801b031611155b6122155760405162461bcd60e51b815260206004820152601760248201527f53474c3a20626f72726f772063617020726561636865640000000000000000006044820152606401610965565b6001600160a01b0386166000908152601460205260408120805485929061223d908490613827565b909155505060408051858152602081018390529081018490526001600160a01b0380871691908816907f3a5151e57d3bc9798e7853034ac52293d1a0e12a2b44725e75b03b21f86477a69060600160405180910390a3600754600c54604051638eb22cdd60e01b8152600481019190915260248101869052600060448201526001600160a01b0390911690638eb22cdd9060640160206040518083038186803b1580156122e957600080fd5b505afa1580156122fd573d6000803e3d6000fd5b505050506040513d601f19601f820116820180604052508101906123219190613958565b60408051808201909152600f546001600160801b038082168352600160801b9091041660208201819052919350906103e811156123915760405162461bcd60e51b815260206004820152600e60248201526d14d1d30e881b5a5b881b1a5b5a5d60921b6044820152606401610965565b82816000018181516123a391906139d3565b6001600160801b03908116909152825160208401518216600160801b02911617600f5550600754600c54604051630208d92960e11b81526001600160a01b0390921691630411b252916123fe9130918b91899060040161398d565b600060405180830381600087803b15801561241857600080fd5b505af115801561242c573d6000803e3d6000fd5b505050505050935093915050565b6001600160a01b03821660009081526014602052604081205480612462576001915050610aba565b6001600160a01b0384166000908152601360205260409020548061248b57600092505050610aba565b604080518082019091526010546001600160801b03808216808452600160801b90920416602083018190529086906124c390866138ec565b6124cd91906138ec565b6124d7919061390b565b600754600b54601e546020546001600160a01b039093169263442c159992919061250590620186a09061390b565b61250f90886138ec565b61251991906138ec565b6040516001600160e01b031960e085901b168152600481019290925260248201526000604482015260640160206040518083038186803b15801561255c57600080fd5b505afa158015612570573d6000803e3d6000fd5b505050506040513d601f19601f820116820180604052508101906125949190613958565b10159695505050505050565b604080518082018252600f546001600160801b03808216808452600160801b90920481166020840152600754600c546010549551638eb22cdd60e01b815260048101919091529490911660248501526001604485015260009384916001600160a01b031690638eb22cdd9060640160206040518083038186803b15801561262657600080fd5b505afa15801561263a573d6000803e3d6000fd5b505050506040513d601f19601f8201168201806040525081019061265e9190613958565b835161267391906001600160801b0316613827565b905080156126a4578083602001516001600160801b03168661269591906138ec565b61269f919061390b565b6126a6565b845b93506103e88484602001516126bb919061392d565b6001600160801b031610156126d65760009350505050611e8e565b6126e1838686613199565b80516020918201516001600160801b03908116600160801b02911617600f556001600160a01b03881660009081526002909152604081208054869290612728908490613827565b90915550506040518481526001600160a01b03881690600090600080516020613a598339815191529060200160405180910390a361276b88600c5487858a611e96565b866001600160a01b031686612780578861278d565b6007546001600160a01b03165b6001600160a01b03167f30a8c4f9ab5af7e1309ca87c32377d1a83366c5990472dbf9d262450eae14e3887876040516127d0929190918252602082015260400190565b60405180910390a3505050949350505050565b60408051600481526024810182526020810180516001600160e01b03166395d89b4160e01b179052905160609160009182916001600160a01b03861691611e1a9190613971565b6001600160a01b03831660009081526013602052604081208054839290612852908490613810565b9250508190555080600e600082825461286b9190613810565b92505081905550816001600160a01b0316836001600160a01b03167f8ad4d3ff00da092c7ad9a573ea4f5f6a3dffc6712dc06d3f78f49b862297c402836040516128b791815260200190565b60405180910390a3600754600b54604051630208d92960e11b81526001600160a01b0390921691630411b252916128f69130918791879060040161398d565b600060405180830381600087803b15801561291057600080fd5b505af1158015612924573d6000803e3d6000fd5b505050506001600160a01b0383166000908152601260209081526040808320600b54845290915290205481111561297e5750506001600160a01b03166000908152601260209081526040808320600b548452909152812055565b6001600160a01b0383166000908152601260209081526040808320600b548452909152812080548392906129b3908490613810565b9091555050505050565b604080518082019091526010546001600160801b038082168352600160801b9091041660208201526000906129f4908360016131f3565b81516020928301516001600160801b03908116600160801b029116176010556001600160a01b0386166000908152601490925260408220805491935084929091612a3f908490613810565b9091555050600754600c54604051638eb22cdd60e01b8152600481019190915260248101839052600160448201526000916001600160a01b031690638eb22cdd9060640160206040518083038186803b158015612a9b57600080fd5b505afa158015612aaf573d6000803e3d6000fd5b505050506040513d601f19601f82011682018060405250810190612ad39190613958565b600f54600c549192506001600160801b031690612af4908890848489611e96565b612afe828261392d565b600f80546001600160801b0319166001600160801b03929092169190911790556001600160a01b03861685612b335787612b40565b6007546001600160a01b03165b6001600160a01b03167fc8e512d8f188ca059984b5853d2bf653da902696b8512785b182b2c813789a6e8587604051612b83929190918252602082015260400190565b60405180910390a35050949350505050565b600060405180604001604052806002815260200161190160f01b815250612bba6120ca565b83604051602001612bcd939291906139fb565b604051602081830303815290604052805190602001209050919050565b600f54600090600160801b90046001600160801b0316612c0c57506000611e8e565b604080518082018252600f546001600160801b038082168352600160801b90910481166020830152600754600c546010549451638eb22cdd60e01b815260048101919091529390911660248401526001604484015290916000916001600160a01b031690638eb22cdd9060640160206040518083038186803b158015612c9157600080fd5b505afa158015612ca5573d6000803e3d6000fd5b505050506040513d601f19601f82011682018060405250810190612cc99190613958565b8251612cde91906001600160801b0316613827565b60208301519091506001600160801b0316612cf982876138ec565b612d03919061390b565b6001600160a01b038816600090815260026020526040812080549295508792909190612d30908490613810565b90915550506040518581526000906001600160a01b03891690600080516020613a598339815191529060200160405180910390a38282600001818151612d7691906139d3565b6001600160801b0316905250602082018051869190612d969083906139d3565b6001600160801b0390811690915260208401516103e8911610159050612def5760405162461bcd60e51b815260206004820152600e60248201526d14d1d30e881b5a5b881b1a5b5a5d60921b6044820152606401610965565b815160208301516001600160801b03908116600160801b02911617600f556040516001600160a01b0380881691908916907f6e853a5fd6b51d773691f542ebac8513c9992a51380d4c342031056a6411422890612e589087908a90918252602082015260400190565b60405180910390a3600754600c54604051630208d92960e11b81526001600160a01b0390921691630411b25291612e979130918b91899060040161398d565b600060405180830381600087803b158015612eb157600080fd5b505af1158015612ec5573d6000803e3d6000fd5b505050508315612f62576001600160a01b0387166000908152601260209081526040808320600c548452909152902054831115612f27576001600160a01b0387166000908152601260209081526040808320600c548452909152812055612f62565b6001600160a01b0387166000908152601260209081526040808320600c54845290915281208054859290612f5c908490613810565b90915550505b5050949350505050565b60606040825110612f8b5781806020019051810190610aba91906136cf565b8151602014156130cb5760005b60208160ff16108015612fcd5750828160ff1681518110612fbb57612fbb613a22565b01602001516001600160f81b03191615155b15612fe45780612fdc81613a38565b915050612f98565b60008160ff166001600160401b03811115613001576130016136b9565b6040519080825280601f01601f19166020018201604052801561302b576020820181803683370190505b509050600091505b60208260ff161080156130685750838260ff168151811061305657613056613a22565b01602001516001600160f81b03191615155b15610cc657838260ff168151811061308257613082613a22565b602001015160f81c60f81b818360ff16815181106130a2576130a2613a22565b60200101906001600160f81b031916908160001a905350816130c381613a38565b925050613033565b50506040805180820190915260038152623f3f3f60e81b602082015290565b919050565b604080517f47e79534a245952e8b16893a336b85a3d9ea9fa8c573f3d803afb92a794692186020820152908101829052306060820152600090608001612bcd565b60408051808201909152600080825260208201526000613151858585613248565b90508385600001818151613165919061392d565b6001600160801b031690525060208501805182919061318590839061392d565b6001600160801b0316905250939492505050565b604080518082019091526000808252602082015282846000018181516131bf919061392d565b6001600160801b03169052506020840180518391906131df90839061392d565b6001600160801b0316905250929392505050565b604080518082019091526000808252602082015260006132148585856132d6565b9050808560000181815161322891906139d3565b6001600160801b03169052506020850180518591906131859083906139d3565b82516000906001600160801b0316613261575081610cc6565b835160208501516001600160801b039182169161327f9116856138ec565b613289919061390b565b90508180156132c757508284602001516001600160801b031685600001516001600160801b0316836132bb91906138ec565b6132c5919061390b565b105b15610cc6578061181a816138d1565b600083602001516001600160801b0316600014156132f5575081610cc6565b602084015184516001600160801b03918216916133139116856138ec565b61331d919061390b565b90508180156132c757508284600001516001600160801b031685602001516001600160801b0316836132bb91906138ec565b60005b8381101561336a578181015183820152602001613352565b8381111561145a5750506000910152565b6000815180845261339381602086016020860161334f565b601f01601f19169290920160200192915050565b602081526000610cc6602083018461337b565b80356001600160a01b03811681146130ea57600080fd5b80151581146133df57600080fd5b50565b6000806000606084860312156133f757600080fd5b613400846133ba565b92506020840135613410816133d1565b91506040840135613420816133d1565b809150509250925092565b6000806040838503121561343e57600080fd5b613447836133ba565b946020939093013593505050565b60006020828403121561346757600080fd5b610cc6826133ba565b60008060006060848603121561348557600080fd5b61348e846133ba565b925061349c602085016133ba565b9150604084013590509250925092565b600080600080608085870312156134c257600080fd5b6134cb856133ba565b93506134d9602086016133ba565b925060408501356134e9816133d1565b9396929550929360600135925050565b60ff811681146133df57600080fd5b600080600080600080600060e0888a03121561352357600080fd5b61352c886133ba565b965061353a602089016133ba565b955060408801359450606088013593506080880135613558816134f9565b9699959850939692959460a0840135945060c09093013592915050565b6000806040838503121561358857600080fd5b613591836133ba565b915061359f602084016133ba565b90509250929050565b600181811c908216806135bc57607f821691505b602082108114156135dd57634e487b7160e01b600052602260045260246000fd5b50919050565b600060208083526000845481600182811c91508083168061360557607f831692505b85831081141561362357634e487b7160e01b85526022600452602485fd5b87860183815260200181801561364057600181146136515761367c565b60ff1986168252878201965061367c565b60008b81526020902060005b868110156136765781548482015290850190890161365d565b83019750505b50949998505050505050505050565b6000806040838503121561369e57600080fd5b82516136a9816133d1565b6020939093015192949293505050565b634e487b7160e01b600052604160045260246000fd5b6000602082840312156136e157600080fd5b81516001600160401b03808211156136f857600080fd5b818401915084601f83011261370c57600080fd5b81518181111561371e5761371e6136b9565b604051601f8201601f19908116603f01168101908382118183101715613746576137466136b9565b8160405282815287602084870101111561375f57600080fd5b61377083602083016020880161334f565b979650505050505050565b7302a30b834b7b1b09029b4b733bab630b934ba3c960651b8152600084516137aa81601485016020890161334f565b602f60f81b60149184019182015284516137cb81601584016020890161334f565b602d60f81b6015929091019182015283516137ed81601684016020880161334f565b0160160195945050505050565b634e487b7160e01b600052601160045260246000fd5b600082821015613822576138226137fa565b500390565b6000821982111561383a5761383a6137fa565b500190565b6020808252600b908201526a14d1d30e881c185d5cd95960aa1b604082015260600190565b61746d60f01b81526000845161388181600285016020890161334f565b602f60f81b60029184019182015284516138a281600384016020890161334f565b602d60f81b6003929091019182015283516138c481600484016020880161334f565b0160040195945050505050565b60006000198214156138e5576138e56137fa565b5060010190565b6000816000190483118215151615613906576139066137fa565b500290565b60008261392857634e487b7160e01b600052601260045260246000fd5b500490565b60006001600160801b0380831681851680830382111561394f5761394f6137fa565b01949350505050565b60006020828403121561396a57600080fd5b5051919050565b6000825161398381846020870161334f565b9190910192915050565b6001600160a01b0394851681529290931660208301526040820152606081019190915260800190565b6000602082840312156139c857600080fd5b8151610cc6816134f9565b60006001600160801b03838116908316818110156139f3576139f36137fa565b039392505050565b60008451613a0d81846020890161334f565b91909101928352506020820152604001919050565b634e487b7160e01b600052603260045260246000fd5b600060ff821660ff811415613a4f57613a4f6137fa565b6001019291505056feddf252ad1be2c89b69c2b068fc378daa952ba7f163c4a11628f55a4df523b3efa26469706673582212208ac4413f42f8f7063ea8beb176a72e254d0b35eee9244a7ba82868d9e858253e64736f6c63430008090033",
  "devdoc": {
    "kind": "dev",
    "methods": {
      "addAsset(address,address,bool,uint256)": {
        "params": {
          "from": "Address to add asset from.",
          "share": "The amount of shares to add.",
          "skim": "True if the amount should be skimmed from the deposit balance of msg.sender. False if tokens from msg.sender in `yieldBox` should be transferred.",
          "to": "The address of the user to receive the assets."
        },
        "returns": {
          "fraction": "Total fractions added."
        }
      },
      "addCollateral(address,address,bool,uint256)": {
        "params": {
          "from": "Account to transfer shares from.",
          "share": "The amount of shares to add for `to`.",
          "skim": "True if the amount should be skimmed from the deposit balance of msg.sender. False if tokens from msg.sender in `yieldBox` should be transferred.",
          "to": "The receiver of the tokens."
        }
      },
      "approve(address,uint256)": {
        "params": {
          "amount": "The maximum collective amount that `spender` can draw.",
          "spender": "Address of the party that can draw from msg.sender's account."
        },
        "returns": {
          "_0": "(bool) Returns True if approved."
        }
      },
      "borrow(address,address,uint256)": {
        "params": {
          "amount": "Amount to borrow.",
          "from": "Account to borrow for.",
          "to": "The receiver of borrowed tokens."
        },
        "returns": {
          "part": "Total part of the debt held by borrowers.",
          "share": "Total amount in shares borrowed."
        }
      },
      "permit(address,address,uint256,uint256,uint8,bytes32,bytes32)": {
        "params": {
          "deadline": "This permit must be redeemed before this deadline (UTC timestamp in seconds).",
          "owner_": "Address of the owner.",
          "spender": "The address of the spender that gets approved to draw from `owner_`.",
          "value": "The maximum collective amount that `spender` can draw."
        }
      },
      "removeAsset(address,address,uint256)": {
        "params": {
          "fraction": "The amount/fraction of assets held to remove.",
          "from": "Account to debit Assets from.",
          "to": "The user that receives the removed assets."
        },
        "returns": {
          "share": "The amount of shares transferred to `to`."
        }
      },
      "removeCollateral(address,address,uint256)": {
        "params": {
          "from": "Account to debit collateral from.",
          "share": "Amount of shares to remove.",
          "to": "The receiver of the shares."
        }
      },
      "repay(address,address,bool,uint256)": {
        "params": {
          "from": "Address to repay from.",
          "part": "The amount to repay. See `userBorrowPart`.",
          "skim": "True if the amount should be skimmed from the deposit balance of msg.sender. False if tokens from msg.sender in `yieldBox` should be transferred.",
          "to": "Address of the user this payment should go."
        },
        "returns": {
          "amount": "The total amount repayed."
        }
      },
      "transfer(address,uint256)": {
        "params": {
          "amount": "of the tokens to move.",
          "to": "The address to move the tokens."
        },
        "returns": {
          "_0": "(bool) Returns True if succeeded."
        }
      },
      "transferFrom(address,address,uint256)": {
        "params": {
          "amount": "The token amount to move.",
          "from": "Address to draw tokens from.",
          "to": "The address to move the tokens."
        },
        "returns": {
          "_0": "(bool) Returns True if succeeded."
        }
      },
      "transferOwnership(address,bool,bool)": {
        "params": {
          "direct": "True if `newOwner` should be set immediately. False if `newOwner` needs to use `claimOwnership`.",
          "newOwner": "Address of the new owner.",
          "renounce": "Allows the `newOwner` to be `address(0)` if `direct` and `renounce` is True. Has no effect otherwise."
        }
      },
      "updateExchangeRate()": {
        "returns": {
          "rate": "The new exchange rate.",
          "updated": "True if `exchangeRate` was updated."
        }
      }
    },
    "version": 1
  },
  "userdoc": {
    "kind": "user",
    "methods": {
      "accrue()": {
        "notice": "Accrues the interest on the borrowed tokens and handles the accumulation of fees."
      },
      "addAsset(address,address,bool,uint256)": {
        "notice": "Adds assets to the lending pair."
      },
      "addCollateral(address,address,bool,uint256)": {
        "notice": "Adds `collateral` from msg.sender to the account `to`."
      },
      "allowance(address,address)": {
        "notice": "owner > spender > allowance mapping."
      },
      "approve(address,uint256)": {
        "notice": "Approves `amount` from sender to be spend by `spender`."
      },
      "balanceOf(address)": {
        "notice": "owner > balance mapping."
      },
      "borrow(address,address,uint256)": {
        "notice": "Sender borrows `amount` and transfers it to `to`."
      },
      "claimOwnership()": {
        "notice": "Needs to be called by `pendingOwner` to claim ownership."
      },
      "exchangeRate()": {
        "notice": "Exchange and interest rate tracking. This is 'cached' here because calls to Oracles can be very expensive. Asset -> collateral = assetAmount * exchangeRate."
      },
      "nonces(address)": {
        "notice": "owner > nonce mapping. Used in `permit`."
      },
      "permit(address,address,uint256,uint256,uint8,bytes32,bytes32)": {
        "notice": "Approves `value` from `owner_` to be spend by `spender`."
      },
      "removeAsset(address,address,uint256)": {
        "notice": "Removes an asset from msg.sender and transfers it to `to`."
      },
      "removeCollateral(address,address,uint256)": {
        "notice": "Removes `share` amount of collateral and transfers it to `to`."
      },
      "repay(address,address,bool,uint256)": {
        "notice": "Repays a loan."
      },
      "transfer(address,uint256)": {
        "notice": "Transfers `amount` tokens from `msg.sender` to `to`."
      },
      "transferFrom(address,address,uint256)": {
        "notice": "Transfers `amount` tokens from `from` to `to`. Caller needs approval for `from`."
      },
      "transferOwnership(address,bool,bool)": {
        "notice": "Transfers ownership to `newOwner`. Either directly or claimable by the new pending owner. Can only be invoked by the current `owner`."
      },
      "updateExchangeRate()": {
        "notice": "Gets the exchange rate. I.e how much collateral to buy 1e18 asset. This function is supposed to be invoked if needed because Oracle queries can be expensive."
      }
    },
    "version": 1
  },
  "storageLayout": {
    "storage": [
      {
        "astId": 233,
        "contract": "contracts/singularity/SGLLendingBorrowing.sol:SGLLendingBorrowing",
        "label": "owner",
        "offset": 0,
        "slot": "0",
        "type": "t_address"
      },
      {
        "astId": 235,
        "contract": "contracts/singularity/SGLLendingBorrowing.sol:SGLLendingBorrowing",
        "label": "pendingOwner",
        "offset": 0,
        "slot": "1",
        "type": "t_address"
      },
      {
        "astId": 478,
        "contract": "contracts/singularity/SGLLendingBorrowing.sol:SGLLendingBorrowing",
        "label": "balanceOf",
        "offset": 0,
        "slot": "2",
        "type": "t_mapping(t_address,t_uint256)"
      },
      {
        "astId": 486,
        "contract": "contracts/singularity/SGLLendingBorrowing.sol:SGLLendingBorrowing",
        "label": "allowance",
        "offset": 0,
        "slot": "3",
        "type": "t_mapping(t_address,t_mapping(t_address,t_uint256))"
      },
      {
        "astId": 491,
        "contract": "contracts/singularity/SGLLendingBorrowing.sol:SGLLendingBorrowing",
        "label": "nonces",
        "offset": 0,
        "slot": "4",
        "type": "t_mapping(t_address,t_uint256)"
      },
      {
        "astId": 12443,
        "contract": "contracts/singularity/SGLLendingBorrowing.sol:SGLLendingBorrowing",
        "label": "accrueInfo",
        "offset": 0,
        "slot": "5",
        "type": "t_struct(AccrueInfo)14991_storage"
      },
      {
        "astId": 12446,
        "contract": "contracts/singularity/SGLLendingBorrowing.sol:SGLLendingBorrowing",
        "label": "penrose",
        "offset": 0,
        "slot": "6",
        "type": "t_contract(IPenrose)5938"
      },
      {
        "astId": 12449,
        "contract": "contracts/singularity/SGLLendingBorrowing.sol:SGLLendingBorrowing",
        "label": "yieldBox",
        "offset": 0,
        "slot": "7",
        "type": "t_contract(YieldBox)30583"
      },
      {
        "astId": 12452,
        "contract": "contracts/singularity/SGLLendingBorrowing.sol:SGLLendingBorrowing",
        "label": "liquidationQueue",
        "offset": 0,
        "slot": "8",
        "type": "t_contract(ILiquidationQueue)6977"
      },
      {
        "astId": 12455,
        "contract": "contracts/singularity/SGLLendingBorrowing.sol:SGLLendingBorrowing",
        "label": "collateral",
        "offset": 0,
        "slot": "9",
        "type": "t_contract(IERC20)1099"
      },
      {
        "astId": 12458,
        "contract": "contracts/singularity/SGLLendingBorrowing.sol:SGLLendingBorrowing",
        "label": "asset",
        "offset": 0,
        "slot": "10",
        "type": "t_contract(IERC20)1099"
      },
      {
        "astId": 12460,
        "contract": "contracts/singularity/SGLLendingBorrowing.sol:SGLLendingBorrowing",
        "label": "collateralId",
        "offset": 0,
        "slot": "11",
        "type": "t_uint256"
      },
      {
        "astId": 12462,
        "contract": "contracts/singularity/SGLLendingBorrowing.sol:SGLLendingBorrowing",
        "label": "assetId",
        "offset": 0,
        "slot": "12",
        "type": "t_uint256"
      },
      {
        "astId": 12464,
        "contract": "contracts/singularity/SGLLendingBorrowing.sol:SGLLendingBorrowing",
        "label": "paused",
        "offset": 0,
        "slot": "13",
        "type": "t_bool"
      },
      {
        "astId": 12466,
        "contract": "contracts/singularity/SGLLendingBorrowing.sol:SGLLendingBorrowing",
        "label": "conservator",
        "offset": 1,
        "slot": "13",
        "type": "t_address"
      },
      {
        "astId": 12468,
        "contract": "contracts/singularity/SGLLendingBorrowing.sol:SGLLendingBorrowing",
        "label": "totalCollateralShare",
        "offset": 0,
        "slot": "14",
        "type": "t_uint256"
      },
      {
        "astId": 12471,
        "contract": "contracts/singularity/SGLLendingBorrowing.sol:SGLLendingBorrowing",
        "label": "totalAsset",
        "offset": 0,
        "slot": "15",
        "type": "t_struct(Rebase)1874_storage"
      },
      {
        "astId": 12474,
        "contract": "contracts/singularity/SGLLendingBorrowing.sol:SGLLendingBorrowing",
        "label": "totalBorrow",
        "offset": 0,
        "slot": "16",
        "type": "t_struct(Rebase)1874_storage"
      },
      {
        "astId": 12476,
        "contract": "contracts/singularity/SGLLendingBorrowing.sol:SGLLendingBorrowing",
        "label": "totalBorrowCap",
        "offset": 0,
        "slot": "17",
        "type": "t_uint256"
      },
      {
        "astId": 12482,
        "contract": "contracts/singularity/SGLLendingBorrowing.sol:SGLLendingBorrowing",
        "label": "_yieldBoxShares",
        "offset": 0,
        "slot": "18",
        "type": "t_mapping(t_address,t_mapping(t_uint256,t_uint256))"
      },
      {
        "astId": 12486,
        "contract": "contracts/singularity/SGLLendingBorrowing.sol:SGLLendingBorrowing",
        "label": "userCollateralShare",
        "offset": 0,
        "slot": "19",
        "type": "t_mapping(t_address,t_uint256)"
      },
      {
        "astId": 12490,
        "contract": "contracts/singularity/SGLLendingBorrowing.sol:SGLLendingBorrowing",
        "label": "userBorrowPart",
        "offset": 0,
        "slot": "20",
        "type": "t_mapping(t_address,t_uint256)"
      },
      {
        "astId": 12496,
        "contract": "contracts/singularity/SGLLendingBorrowing.sol:SGLLendingBorrowing",
        "label": "isApprovedForAll",
        "offset": 0,
        "slot": "21",
        "type": "t_mapping(t_address,t_mapping(t_address,t_bool))"
      },
      {
        "astId": 12499,
        "contract": "contracts/singularity/SGLLendingBorrowing.sol:SGLLendingBorrowing",
        "label": "exchangeRate",
        "offset": 0,
        "slot": "22",
        "type": "t_uint256"
      },
      {
        "astId": 12502,
        "contract": "contracts/singularity/SGLLendingBorrowing.sol:SGLLendingBorrowing",
        "label": "oracle",
        "offset": 0,
        "slot": "23",
        "type": "t_contract(IOracle)5862"
      },
      {
        "astId": 12504,
        "contract": "contracts/singularity/SGLLendingBorrowing.sol:SGLLendingBorrowing",
        "label": "oracleData",
        "offset": 0,
        "slot": "24",
        "type": "t_bytes_storage"
      },
      {
        "astId": 12506,
        "contract": "contracts/singularity/SGLLendingBorrowing.sol:SGLLendingBorrowing",
        "label": "callerFee",
        "offset": 0,
        "slot": "25",
        "type": "t_uint256"
      },
      {
        "astId": 12508,
        "contract": "contracts/singularity/SGLLendingBorrowing.sol:SGLLendingBorrowing",
        "label": "protocolFee",
        "offset": 0,
        "slot": "26",
        "type": "t_uint256"
      },
      {
        "astId": 12510,
        "contract": "contracts/singularity/SGLLendingBorrowing.sol:SGLLendingBorrowing",
        "label": "borrowOpeningFee",
        "offset": 0,
        "slot": "27",
        "type": "t_uint256"
      },
      {
        "astId": 12512,
        "contract": "contracts/singularity/SGLLendingBorrowing.sol:SGLLendingBorrowing",
        "label": "liquidationMultiplier",
        "offset": 0,
        "slot": "28",
        "type": "t_uint256"
      },
      {
        "astId": 12514,
        "contract": "contracts/singularity/SGLLendingBorrowing.sol:SGLLendingBorrowing",
        "label": "orderBookLiquidationMultiplier",
        "offset": 0,
        "slot": "29",
        "type": "t_uint256"
      },
      {
        "astId": 12516,
        "contract": "contracts/singularity/SGLLendingBorrowing.sol:SGLLendingBorrowing",
        "label": "closedCollateralizationRate",
        "offset": 0,
        "slot": "30",
        "type": "t_uint256"
      },
      {
        "astId": 12518,
        "contract": "contracts/singularity/SGLLendingBorrowing.sol:SGLLendingBorrowing",
        "label": "lqCollateralizationRate",
        "offset": 0,
        "slot": "31",
        "type": "t_uint256"
      },
      {
        "astId": 12671,
        "contract": "contracts/singularity/SGLLendingBorrowing.sol:SGLLendingBorrowing",
        "label": "EXCHANGE_RATE_PRECISION",
        "offset": 0,
        "slot": "32",
        "type": "t_uint256"
      },
      {
        "astId": 10295,
        "contract": "contracts/singularity/SGLLendingBorrowing.sol:SGLLendingBorrowing",
        "label": "initialized",
        "offset": 0,
        "slot": "33",
        "type": "t_bool"
      }
    ],
    "types": {
      "t_address": {
        "encoding": "inplace",
        "label": "address",
        "numberOfBytes": "20"
      },
      "t_bool": {
        "encoding": "inplace",
        "label": "bool",
        "numberOfBytes": "1"
      },
      "t_bytes_storage": {
        "encoding": "bytes",
        "label": "bytes",
        "numberOfBytes": "32"
      },
      "t_contract(IERC20)1099": {
        "encoding": "inplace",
        "label": "contract IERC20",
        "numberOfBytes": "20"
      },
      "t_contract(ILiquidationQueue)6977": {
        "encoding": "inplace",
        "label": "contract ILiquidationQueue",
        "numberOfBytes": "20"
      },
      "t_contract(IOracle)5862": {
        "encoding": "inplace",
        "label": "contract IOracle",
        "numberOfBytes": "20"
      },
      "t_contract(IPenrose)5938": {
        "encoding": "inplace",
        "label": "contract IPenrose",
        "numberOfBytes": "20"
      },
      "t_contract(YieldBox)30583": {
        "encoding": "inplace",
        "label": "contract YieldBox",
        "numberOfBytes": "20"
      },
      "t_mapping(t_address,t_bool)": {
        "encoding": "mapping",
        "key": "t_address",
        "label": "mapping(address => bool)",
        "numberOfBytes": "32",
        "value": "t_bool"
      },
      "t_mapping(t_address,t_mapping(t_address,t_bool))": {
        "encoding": "mapping",
        "key": "t_address",
        "label": "mapping(address => mapping(address => bool))",
        "numberOfBytes": "32",
        "value": "t_mapping(t_address,t_bool)"
      },
      "t_mapping(t_address,t_mapping(t_address,t_uint256))": {
        "encoding": "mapping",
        "key": "t_address",
        "label": "mapping(address => mapping(address => uint256))",
        "numberOfBytes": "32",
        "value": "t_mapping(t_address,t_uint256)"
      },
      "t_mapping(t_address,t_mapping(t_uint256,t_uint256))": {
        "encoding": "mapping",
        "key": "t_address",
        "label": "mapping(address => mapping(uint256 => uint256))",
        "numberOfBytes": "32",
        "value": "t_mapping(t_uint256,t_uint256)"
      },
      "t_mapping(t_address,t_uint256)": {
        "encoding": "mapping",
        "key": "t_address",
        "label": "mapping(address => uint256)",
        "numberOfBytes": "32",
        "value": "t_uint256"
      },
      "t_mapping(t_uint256,t_uint256)": {
        "encoding": "mapping",
        "key": "t_uint256",
        "label": "mapping(uint256 => uint256)",
        "numberOfBytes": "32",
        "value": "t_uint256"
      },
      "t_struct(AccrueInfo)14991_storage": {
        "encoding": "inplace",
        "label": "struct ISingularity.AccrueInfo",
        "members": [
          {
            "astId": 14986,
            "contract": "contracts/singularity/SGLLendingBorrowing.sol:SGLLendingBorrowing",
            "label": "interestPerSecond",
            "offset": 0,
            "slot": "0",
            "type": "t_uint64"
          },
          {
            "astId": 14988,
            "contract": "contracts/singularity/SGLLendingBorrowing.sol:SGLLendingBorrowing",
            "label": "lastAccrued",
            "offset": 8,
            "slot": "0",
            "type": "t_uint64"
          },
          {
            "astId": 14990,
            "contract": "contracts/singularity/SGLLendingBorrowing.sol:SGLLendingBorrowing",
            "label": "feesEarnedFraction",
            "offset": 16,
            "slot": "0",
            "type": "t_uint128"
          }
        ],
        "numberOfBytes": "32"
      },
      "t_struct(Rebase)1874_storage": {
        "encoding": "inplace",
        "label": "struct Rebase",
        "members": [
          {
            "astId": 1871,
            "contract": "contracts/singularity/SGLLendingBorrowing.sol:SGLLendingBorrowing",
            "label": "elastic",
            "offset": 0,
            "slot": "0",
            "type": "t_uint128"
          },
          {
            "astId": 1873,
            "contract": "contracts/singularity/SGLLendingBorrowing.sol:SGLLendingBorrowing",
            "label": "base",
            "offset": 16,
            "slot": "0",
            "type": "t_uint128"
          }
        ],
        "numberOfBytes": "32"
      },
      "t_uint128": {
        "encoding": "inplace",
        "label": "uint128",
        "numberOfBytes": "16"
      },
      "t_uint256": {
        "encoding": "inplace",
        "label": "uint256",
        "numberOfBytes": "32"
      },
      "t_uint64": {
        "encoding": "inplace",
        "label": "uint64",
        "numberOfBytes": "8"
      }
    }
  }
}