{
  "address": "0xc3FA6a21D5583512fF58232aF244665d0C035665",
  "abi": [
    {
      "inputs": [
        {
          "internalType": "address",
          "name": "_from",
          "type": "address"
        },
        {
          "internalType": "address",
          "name": "_operator",
          "type": "address"
        }
      ],
      "name": "NotApproved",
      "type": "error"
    },
    {
      "anonymous": false,
      "inputs": [
        {
          "indexed": true,
          "internalType": "address",
          "name": "owner",
          "type": "address"
        },
        {
          "indexed": true,
          "internalType": "address",
          "name": "spender",
          "type": "address"
        },
        {
          "indexed": false,
          "internalType": "uint256",
          "name": "value",
          "type": "uint256"
        }
      ],
      "name": "Approval",
      "type": "event"
    },
    {
      "anonymous": false,
      "inputs": [
        {
          "indexed": true,
          "internalType": "address",
          "name": "old",
          "type": "address"
        },
        {
          "indexed": true,
          "internalType": "address",
          "name": "_new",
          "type": "address"
        }
      ],
      "name": "ConservatorUpdated",
      "type": "event"
    },
    {
      "anonymous": false,
      "inputs": [
        {
          "indexed": false,
          "internalType": "uint256",
          "name": "accruedAmount",
          "type": "uint256"
        },
        {
          "indexed": false,
          "internalType": "uint256",
          "name": "feeFraction",
          "type": "uint256"
        },
        {
          "indexed": false,
          "internalType": "uint64",
          "name": "rate",
          "type": "uint64"
        },
        {
          "indexed": false,
          "internalType": "uint256",
          "name": "utilization",
          "type": "uint256"
        }
      ],
      "name": "LogAccrue",
      "type": "event"
    },
    {
      "anonymous": false,
      "inputs": [
        {
          "indexed": true,
          "internalType": "address",
          "name": "from",
          "type": "address"
        },
        {
          "indexed": true,
          "internalType": "address",
          "name": "to",
          "type": "address"
        },
        {
          "indexed": false,
          "internalType": "uint256",
          "name": "share",
          "type": "uint256"
        },
        {
          "indexed": false,
          "internalType": "uint256",
          "name": "fraction",
          "type": "uint256"
        }
      ],
      "name": "LogAddAsset",
      "type": "event"
    },
    {
      "anonymous": false,
      "inputs": [
        {
          "indexed": true,
          "internalType": "address",
          "name": "from",
          "type": "address"
        },
        {
          "indexed": true,
          "internalType": "address",
          "name": "to",
          "type": "address"
        },
        {
          "indexed": false,
          "internalType": "uint256",
          "name": "share",
          "type": "uint256"
        }
      ],
      "name": "LogAddCollateral",
      "type": "event"
    },
    {
      "anonymous": false,
      "inputs": [
        {
          "indexed": true,
          "internalType": "address",
          "name": "_from",
          "type": "address"
        },
        {
          "indexed": true,
          "internalType": "address",
          "name": "_operator",
          "type": "address"
        },
        {
          "indexed": false,
          "internalType": "bool",
          "name": "_approved",
          "type": "bool"
        }
      ],
      "name": "LogApprovalForAll",
      "type": "event"
    },
    {
      "anonymous": false,
      "inputs": [
        {
          "indexed": true,
          "internalType": "address",
          "name": "from",
          "type": "address"
        },
        {
          "indexed": true,
          "internalType": "address",
          "name": "to",
          "type": "address"
        },
        {
          "indexed": false,
          "internalType": "uint256",
          "name": "amount",
          "type": "uint256"
        },
        {
          "indexed": false,
          "internalType": "uint256",
          "name": "feeAmount",
          "type": "uint256"
        },
        {
          "indexed": false,
          "internalType": "uint256",
          "name": "part",
          "type": "uint256"
        }
      ],
      "name": "LogBorrow",
      "type": "event"
    },
    {
      "anonymous": false,
      "inputs": [
        {
          "indexed": false,
          "internalType": "uint256",
          "name": "_oldVal",
          "type": "uint256"
        },
        {
          "indexed": false,
          "internalType": "uint256",
          "name": "_newVal",
          "type": "uint256"
        }
      ],
      "name": "LogBorrowCapUpdated",
      "type": "event"
    },
    {
      "anonymous": false,
      "inputs": [
        {
          "indexed": false,
          "internalType": "uint256",
          "name": "rate",
          "type": "uint256"
        }
      ],
      "name": "LogExchangeRate",
      "type": "event"
    },
    {
      "anonymous": false,
      "inputs": [
        {
          "indexed": true,
          "internalType": "address",
          "name": "from",
          "type": "address"
        },
        {
          "indexed": true,
          "internalType": "address",
          "name": "to",
          "type": "address"
        },
        {
          "indexed": false,
          "internalType": "uint256",
          "name": "share",
          "type": "uint256"
        },
        {
          "indexed": false,
          "internalType": "uint256",
          "name": "fraction",
          "type": "uint256"
        }
      ],
      "name": "LogRemoveAsset",
      "type": "event"
    },
    {
      "anonymous": false,
      "inputs": [
        {
          "indexed": true,
          "internalType": "address",
          "name": "from",
          "type": "address"
        },
        {
          "indexed": true,
          "internalType": "address",
          "name": "to",
          "type": "address"
        },
        {
          "indexed": false,
          "internalType": "uint256",
          "name": "share",
          "type": "uint256"
        }
      ],
      "name": "LogRemoveCollateral",
      "type": "event"
    },
    {
      "anonymous": false,
      "inputs": [
        {
          "indexed": true,
          "internalType": "address",
          "name": "from",
          "type": "address"
        },
        {
          "indexed": true,
          "internalType": "address",
          "name": "to",
          "type": "address"
        },
        {
          "indexed": false,
          "internalType": "uint256",
          "name": "amount",
          "type": "uint256"
        },
        {
          "indexed": false,
          "internalType": "uint256",
          "name": "part",
          "type": "uint256"
        }
      ],
      "name": "LogRepay",
      "type": "event"
    },
    {
      "anonymous": false,
      "inputs": [
        {
          "indexed": true,
          "internalType": "address",
          "name": "feeTo",
          "type": "address"
        },
        {
          "indexed": false,
          "internalType": "uint256",
          "name": "feesEarnedFraction",
          "type": "uint256"
        }
      ],
      "name": "LogWithdrawFees",
      "type": "event"
    },
    {
      "anonymous": false,
      "inputs": [
        {
          "indexed": false,
          "internalType": "uint256",
          "name": "feeShares",
          "type": "uint256"
        },
        {
          "indexed": false,
          "internalType": "uint256",
          "name": "ethAmount",
          "type": "uint256"
        }
      ],
      "name": "LogYieldBoxFeesDeposit",
      "type": "event"
    },
    {
      "anonymous": false,
      "inputs": [
        {
          "indexed": true,
          "internalType": "address",
          "name": "previousOwner",
          "type": "address"
        },
        {
          "indexed": true,
          "internalType": "address",
          "name": "newOwner",
          "type": "address"
        }
      ],
      "name": "OwnershipTransferred",
      "type": "event"
    },
    {
      "anonymous": false,
      "inputs": [
        {
          "indexed": false,
          "internalType": "bool",
          "name": "oldState",
          "type": "bool"
        },
        {
          "indexed": false,
          "internalType": "bool",
          "name": "newState",
          "type": "bool"
        }
      ],
      "name": "PausedUpdated",
      "type": "event"
    },
    {
      "anonymous": false,
      "inputs": [
        {
          "indexed": true,
          "internalType": "address",
          "name": "from",
          "type": "address"
        },
        {
          "indexed": true,
          "internalType": "address",
          "name": "to",
          "type": "address"
        },
        {
          "indexed": false,
          "internalType": "uint256",
          "name": "value",
          "type": "uint256"
        }
      ],
      "name": "Transfer",
      "type": "event"
    },
    {
      "inputs": [],
      "name": "DOMAIN_SEPARATOR",
      "outputs": [
        {
          "internalType": "bytes32",
          "name": "",
          "type": "bytes32"
        }
      ],
      "stateMutability": "view",
      "type": "function"
    },
    {
      "inputs": [],
      "name": "accrue",
      "outputs": [],
      "stateMutability": "nonpayable",
      "type": "function"
    },
    {
      "inputs": [],
      "name": "accrueInfo",
      "outputs": [
        {
          "internalType": "uint64",
          "name": "interestPerSecond",
          "type": "uint64"
        },
        {
          "internalType": "uint64",
          "name": "lastAccrued",
          "type": "uint64"
        },
        {
          "internalType": "uint128",
          "name": "feesEarnedFraction",
          "type": "uint128"
        }
      ],
      "stateMutability": "view",
      "type": "function"
    },
    {
      "inputs": [
        {
          "internalType": "address",
          "name": "from",
          "type": "address"
        },
        {
          "internalType": "address",
          "name": "to",
          "type": "address"
        },
        {
          "internalType": "bool",
          "name": "skim",
          "type": "bool"
        },
        {
          "internalType": "uint256",
          "name": "share",
          "type": "uint256"
        }
      ],
      "name": "addAsset",
      "outputs": [
        {
          "internalType": "uint256",
          "name": "fraction",
          "type": "uint256"
        }
      ],
      "stateMutability": "nonpayable",
      "type": "function"
    },
    {
      "inputs": [
        {
          "internalType": "address",
          "name": "",
          "type": "address"
        },
        {
          "internalType": "address",
          "name": "",
          "type": "address"
        }
      ],
      "name": "allowance",
      "outputs": [
        {
          "internalType": "uint256",
          "name": "",
          "type": "uint256"
        }
      ],
      "stateMutability": "view",
      "type": "function"
    },
    {
      "inputs": [
        {
          "internalType": "address",
          "name": "spender",
          "type": "address"
        },
        {
          "internalType": "uint256",
          "name": "amount",
          "type": "uint256"
        }
      ],
      "name": "approve",
      "outputs": [
        {
          "internalType": "bool",
          "name": "",
          "type": "bool"
        }
      ],
      "stateMutability": "nonpayable",
      "type": "function"
    },
    {
      "inputs": [],
      "name": "asset",
      "outputs": [
        {
          "internalType": "contract IERC20",
          "name": "",
          "type": "address"
        }
      ],
      "stateMutability": "view",
      "type": "function"
    },
    {
      "inputs": [],
      "name": "assetId",
      "outputs": [
        {
          "internalType": "uint256",
          "name": "",
          "type": "uint256"
        }
      ],
      "stateMutability": "view",
      "type": "function"
    },
    {
      "inputs": [
        {
          "internalType": "address",
          "name": "",
          "type": "address"
        }
      ],
      "name": "balanceOf",
      "outputs": [
        {
          "internalType": "uint256",
          "name": "",
          "type": "uint256"
        }
      ],
      "stateMutability": "view",
      "type": "function"
    },
    {
      "inputs": [],
      "name": "borrowOpeningFee",
      "outputs": [
        {
          "internalType": "uint256",
          "name": "",
          "type": "uint256"
        }
      ],
      "stateMutability": "view",
      "type": "function"
    },
    {
      "inputs": [],
      "name": "callerFee",
      "outputs": [
        {
          "internalType": "uint256",
          "name": "",
          "type": "uint256"
        }
      ],
      "stateMutability": "view",
      "type": "function"
    },
    {
      "inputs": [],
      "name": "claimOwnership",
      "outputs": [],
      "stateMutability": "nonpayable",
      "type": "function"
    },
    {
      "inputs": [],
      "name": "closedCollateralizationRate",
      "outputs": [
        {
          "internalType": "uint256",
          "name": "",
          "type": "uint256"
        }
      ],
      "stateMutability": "view",
      "type": "function"
    },
    {
      "inputs": [],
      "name": "collateral",
      "outputs": [
        {
          "internalType": "contract IERC20",
          "name": "",
          "type": "address"
        }
      ],
      "stateMutability": "view",
      "type": "function"
    },
    {
      "inputs": [],
      "name": "collateralId",
      "outputs": [
        {
          "internalType": "uint256",
          "name": "",
          "type": "uint256"
        }
      ],
      "stateMutability": "view",
      "type": "function"
    },
    {
      "inputs": [
        {
          "internalType": "address",
          "name": "user",
          "type": "address"
        },
        {
          "internalType": "uint256",
          "name": "_exchangeRate",
          "type": "uint256"
        }
      ],
      "name": "computeClosingFactor",
      "outputs": [
        {
          "internalType": "uint256",
          "name": "",
          "type": "uint256"
        }
      ],
      "stateMutability": "view",
      "type": "function"
    },
    {
      "inputs": [
        {
          "internalType": "address",
          "name": "user",
          "type": "address"
        },
        {
          "internalType": "uint256",
          "name": "_exchangeRate",
          "type": "uint256"
        }
      ],
      "name": "computeLiquidatorReward",
      "outputs": [
        {
          "internalType": "uint256",
          "name": "",
          "type": "uint256"
        }
      ],
      "stateMutability": "view",
      "type": "function"
    },
    {
      "inputs": [
        {
          "internalType": "address",
          "name": "user",
          "type": "address"
        },
        {
          "internalType": "uint256",
          "name": "_exchangeRate",
          "type": "uint256"
        }
      ],
      "name": "computeTVLInfo",
      "outputs": [
        {
          "internalType": "uint256",
          "name": "amountToSolvency",
          "type": "uint256"
        },
        {
          "internalType": "uint256",
          "name": "minTVL",
          "type": "uint256"
        },
        {
          "internalType": "uint256",
          "name": "maxTVL",
          "type": "uint256"
        }
      ],
      "stateMutability": "view",
      "type": "function"
    },
    {
      "inputs": [],
      "name": "conservator",
      "outputs": [
        {
          "internalType": "address",
          "name": "",
          "type": "address"
        }
      ],
      "stateMutability": "view",
      "type": "function"
    },
    {
      "inputs": [],
      "name": "decimals",
      "outputs": [
        {
          "internalType": "uint8",
          "name": "",
          "type": "uint8"
        }
      ],
      "stateMutability": "view",
      "type": "function"
    },
    {
      "inputs": [],
      "name": "exchangeRate",
      "outputs": [
        {
          "internalType": "uint256",
          "name": "",
          "type": "uint256"
        }
      ],
      "stateMutability": "view",
      "type": "function"
    },
    {
      "inputs": [
        {
          "internalType": "address",
          "name": "",
          "type": "address"
        },
        {
          "internalType": "address",
          "name": "",
          "type": "address"
        }
      ],
      "name": "isApprovedForAll",
      "outputs": [
        {
          "internalType": "bool",
          "name": "",
          "type": "bool"
        }
      ],
      "stateMutability": "view",
      "type": "function"
    },
    {
      "inputs": [
        {
          "internalType": "address[]",
          "name": "users",
          "type": "address[]"
        },
        {
          "internalType": "uint256[]",
          "name": "maxBorrowParts",
          "type": "uint256[]"
        },
        {
          "internalType": "contract ISwapper",
          "name": "swapper",
          "type": "address"
        },
        {
          "internalType": "bytes",
          "name": "collateralToAssetSwapData",
          "type": "bytes"
        },
        {
          "internalType": "bytes",
          "name": "usdoToBorrowedSwapData",
          "type": "bytes"
        }
      ],
      "name": "liquidate",
      "outputs": [],
      "stateMutability": "nonpayable",
      "type": "function"
    },
    {
      "inputs": [],
      "name": "liquidationBonusAmount",
      "outputs": [
        {
          "internalType": "uint256",
          "name": "",
          "type": "uint256"
        }
      ],
      "stateMutability": "view",
      "type": "function"
    },
    {
      "inputs": [],
      "name": "liquidationMultiplier",
      "outputs": [
        {
          "internalType": "uint256",
          "name": "",
          "type": "uint256"
        }
      ],
      "stateMutability": "view",
      "type": "function"
    },
    {
      "inputs": [],
      "name": "liquidationQueue",
      "outputs": [
        {
          "internalType": "contract ILiquidationQueue",
          "name": "",
          "type": "address"
        }
      ],
      "stateMutability": "view",
      "type": "function"
    },
    {
      "inputs": [],
      "name": "lqCollateralizationRate",
      "outputs": [
        {
          "internalType": "uint256",
          "name": "",
          "type": "uint256"
        }
      ],
      "stateMutability": "view",
      "type": "function"
    },
    {
      "inputs": [],
      "name": "maxLiquidatorReward",
      "outputs": [
        {
          "internalType": "uint256",
          "name": "",
          "type": "uint256"
        }
      ],
      "stateMutability": "view",
      "type": "function"
    },
    {
      "inputs": [],
      "name": "minLiquidatorReward",
      "outputs": [
        {
          "internalType": "uint256",
          "name": "",
          "type": "uint256"
        }
      ],
      "stateMutability": "view",
      "type": "function"
    },
    {
      "inputs": [],
      "name": "name",
      "outputs": [
        {
          "internalType": "string",
          "name": "",
          "type": "string"
        }
      ],
      "stateMutability": "view",
      "type": "function"
    },
    {
      "inputs": [
        {
          "internalType": "address",
          "name": "",
          "type": "address"
        }
      ],
      "name": "nonces",
      "outputs": [
        {
          "internalType": "uint256",
          "name": "",
          "type": "uint256"
        }
      ],
      "stateMutability": "view",
      "type": "function"
    },
    {
      "inputs": [],
      "name": "oracle",
      "outputs": [
        {
          "internalType": "contract IOracle",
          "name": "",
          "type": "address"
        }
      ],
      "stateMutability": "view",
      "type": "function"
    },
    {
      "inputs": [],
      "name": "oracleData",
      "outputs": [
        {
          "internalType": "bytes",
          "name": "",
          "type": "bytes"
        }
      ],
      "stateMutability": "view",
      "type": "function"
    },
    {
      "inputs": [],
      "name": "orderBookLiquidationMultiplier",
      "outputs": [
        {
          "internalType": "uint256",
          "name": "",
          "type": "uint256"
        }
      ],
      "stateMutability": "view",
      "type": "function"
    },
    {
      "inputs": [],
      "name": "owner",
      "outputs": [
        {
          "internalType": "address",
          "name": "",
          "type": "address"
        }
      ],
      "stateMutability": "view",
      "type": "function"
    },
    {
      "inputs": [],
      "name": "paused",
      "outputs": [
        {
          "internalType": "bool",
          "name": "",
          "type": "bool"
        }
      ],
      "stateMutability": "view",
      "type": "function"
    },
    {
      "inputs": [],
      "name": "pendingOwner",
      "outputs": [
        {
          "internalType": "address",
          "name": "",
          "type": "address"
        }
      ],
      "stateMutability": "view",
      "type": "function"
    },
    {
      "inputs": [],
      "name": "penrose",
      "outputs": [
        {
          "internalType": "contract IPenrose",
          "name": "",
          "type": "address"
        }
      ],
      "stateMutability": "view",
      "type": "function"
    },
    {
      "inputs": [
        {
          "internalType": "address",
          "name": "owner_",
          "type": "address"
        },
        {
          "internalType": "address",
          "name": "spender",
          "type": "address"
        },
        {
          "internalType": "uint256",
          "name": "value",
          "type": "uint256"
        },
        {
          "internalType": "uint256",
          "name": "deadline",
          "type": "uint256"
        },
        {
          "internalType": "uint8",
          "name": "v",
          "type": "uint8"
        },
        {
          "internalType": "bytes32",
          "name": "r",
          "type": "bytes32"
        },
        {
          "internalType": "bytes32",
          "name": "s",
          "type": "bytes32"
        }
      ],
      "name": "permit",
      "outputs": [],
      "stateMutability": "nonpayable",
      "type": "function"
    },
    {
      "inputs": [],
      "name": "protocolFee",
      "outputs": [
        {
          "internalType": "uint256",
          "name": "",
          "type": "uint256"
        }
      ],
      "stateMutability": "view",
      "type": "function"
    },
    {
      "inputs": [
        {
          "internalType": "address",
          "name": "from",
          "type": "address"
        },
        {
          "internalType": "address",
          "name": "to",
          "type": "address"
        },
        {
          "internalType": "uint256",
          "name": "fraction",
          "type": "uint256"
        }
      ],
      "name": "removeAsset",
      "outputs": [
        {
          "internalType": "uint256",
          "name": "share",
          "type": "uint256"
        }
      ],
      "stateMutability": "nonpayable",
      "type": "function"
    },
    {
      "inputs": [],
      "name": "symbol",
      "outputs": [
        {
          "internalType": "string",
          "name": "",
          "type": "string"
        }
      ],
      "stateMutability": "view",
      "type": "function"
    },
    {
      "inputs": [],
      "name": "totalAsset",
      "outputs": [
        {
          "internalType": "uint128",
          "name": "elastic",
          "type": "uint128"
        },
        {
          "internalType": "uint128",
          "name": "base",
          "type": "uint128"
        }
      ],
      "stateMutability": "view",
      "type": "function"
    },
    {
      "inputs": [],
      "name": "totalBorrow",
      "outputs": [
        {
          "internalType": "uint128",
          "name": "elastic",
          "type": "uint128"
        },
        {
          "internalType": "uint128",
          "name": "base",
          "type": "uint128"
        }
      ],
      "stateMutability": "view",
      "type": "function"
    },
    {
      "inputs": [],
      "name": "totalBorrowCap",
      "outputs": [
        {
          "internalType": "uint256",
          "name": "",
          "type": "uint256"
        }
      ],
      "stateMutability": "view",
      "type": "function"
    },
    {
      "inputs": [],
      "name": "totalCollateralShare",
      "outputs": [
        {
          "internalType": "uint256",
          "name": "",
          "type": "uint256"
        }
      ],
      "stateMutability": "view",
      "type": "function"
    },
    {
      "inputs": [],
      "name": "totalSupply",
      "outputs": [
        {
          "internalType": "uint256",
          "name": "",
          "type": "uint256"
        }
      ],
      "stateMutability": "view",
      "type": "function"
    },
    {
      "inputs": [
        {
          "internalType": "address",
          "name": "to",
          "type": "address"
        },
        {
          "internalType": "uint256",
          "name": "amount",
          "type": "uint256"
        }
      ],
      "name": "transfer",
      "outputs": [
        {
          "internalType": "bool",
          "name": "",
          "type": "bool"
        }
      ],
      "stateMutability": "nonpayable",
      "type": "function"
    },
    {
      "inputs": [
        {
          "internalType": "address",
          "name": "from",
          "type": "address"
        },
        {
          "internalType": "address",
          "name": "to",
          "type": "address"
        },
        {
          "internalType": "uint256",
          "name": "amount",
          "type": "uint256"
        }
      ],
      "name": "transferFrom",
      "outputs": [
        {
          "internalType": "bool",
          "name": "",
          "type": "bool"
        }
      ],
      "stateMutability": "nonpayable",
      "type": "function"
    },
    {
      "inputs": [
        {
          "internalType": "address",
          "name": "newOwner",
          "type": "address"
        },
        {
          "internalType": "bool",
          "name": "direct",
          "type": "bool"
        },
        {
          "internalType": "bool",
          "name": "renounce",
          "type": "bool"
        }
      ],
      "name": "transferOwnership",
      "outputs": [],
      "stateMutability": "nonpayable",
      "type": "function"
    },
    {
      "inputs": [],
      "name": "updateExchangeRate",
      "outputs": [
        {
          "internalType": "bool",
          "name": "updated",
          "type": "bool"
        },
        {
          "internalType": "uint256",
          "name": "rate",
          "type": "uint256"
        }
      ],
      "stateMutability": "nonpayable",
      "type": "function"
    },
    {
      "inputs": [
        {
          "internalType": "address",
          "name": "",
          "type": "address"
        }
      ],
      "name": "userBorrowPart",
      "outputs": [
        {
          "internalType": "uint256",
          "name": "",
          "type": "uint256"
        }
      ],
      "stateMutability": "view",
      "type": "function"
    },
    {
      "inputs": [
        {
          "internalType": "address",
          "name": "",
          "type": "address"
        }
      ],
      "name": "userCollateralShare",
      "outputs": [
        {
          "internalType": "uint256",
          "name": "",
          "type": "uint256"
        }
      ],
      "stateMutability": "view",
      "type": "function"
    },
    {
      "inputs": [],
      "name": "yieldBox",
      "outputs": [
        {
          "internalType": "contract YieldBox",
          "name": "",
          "type": "address"
        }
      ],
      "stateMutability": "view",
      "type": "function"
    }
  ],
  "transactionHash": "0x41933f420adb191324aff62c550d9e55a50fce869708930d98e72639630359e4",
  "args": [],
  "numDeployments": 1,
  "solcInputHash": "c119914891fc265cca39336c119b4e24",
  "bytecode": "0x60c06040526103e8601955612710601a556032601b556201b580601c556201f018601d55620124f8601e556161a8601f556103e8602055612710602155612710602255670de0b6b3a764000060235534801561005a57600080fd5b50600080546001600160a01b0319163390811782556040519091907f8be0079c531659141344cd1fd0a4f28419497f9722a3daafe3b4186f6b6457e0908290a34660a08190526100fd90604080517f47e79534a245952e8b16893a336b85a3d9ea9fa8c573f3d803afb92a794692186020820152908101829052306060820152600090608001604051602081830303815290604052805190602001209050919050565b60805260805160a051614c93620001266000396000611fb901526000611fea0152614c936000f3fe608060405234801561001057600080fd5b50600436106103425760003560e01c80637dc0d1d0116101b8578063c23ea21f11610104578063e0996cb6116100a2578063eec0f42e1161007c578063eec0f42e14610791578063f4d937531461079a578063f8ba4cff146107ad578063f9557ccb146107b557600080fd5b8063e0996cb614610747578063e30c397814610750578063e985e9c51461076357600080fd5b8063d505accf116100de578063d505accf146106e3578063d8dfeb45146106f6578063dd62ed3e14610709578063de4065771461073457600080fd5b8063c23ea21f146106af578063c9621f3b146106c2578063ce8849ed146106cb57600080fd5b806395d89b4111610171578063a9059cbb1161014b578063a9059cbb14610620578063b0e21e8a14610633578063b27c0e741461063c578063b6b113d81461069c57600080fd5b806395d89b41146105d757806399a97028146105df5780639e15e89f146105f257600080fd5b80637dc0d1d0146105415780637ecebe00146105545780638285ef40146105745780638c5d0ed3146105b25780638da5cb5b146105bb578063959916dc146105ce57600080fd5b80633edb178911610292578063529898f2116102305780636587adb81161020a5780636587adb8146104f35780636c3d8b8f1461050657806370a082311461051957806374645ff31461053957600080fd5b8063529898f2146104d457806357935462146104dd5780635c975abb146104e657600080fd5b8063473e3ce71161026c578063473e3ce71461049a57806348e4163e146104a35780634d7f2a34146104c35780634e71e0c8146104cc57600080fd5b80633edb17891461047557806340626d8b1461048857806344de240a1461049157600080fd5b80631e7ce448116102ff57806334d441d0116102d957806334d441d0146104305780633644e5151461043957806338d52e0f146104415780633ba0b9a91461046c57600080fd5b80631e7ce448146103fa57806323b872dd14610403578063313ce5671461041657600080fd5b806302ce728f1461034757806306fdde031461036b578063078dfbe714610380578063095ea7b31461039557806318160ddd146103b85780631c9e379b146103da575b600080fd5b61034f6107d3565b6040805192151583526020830191909152015b60405180910390f35b6103736108a9565b6040516103629190614184565b61039361038e3660046141bd565b610981565b005b6103a86103a3366004614208565b610ac5565b6040519015158152602001610362565b600f54600160801b90046001600160801b03165b604051908152602001610362565b6103cc6103e8366004614234565b60136020526000908152604090205481565b6103cc601d5481565b6103a8610411366004614251565b610b32565b61041e610d3f565b60405160ff9091168152602001610362565b6103cc60195481565b6103cc610d5c565b600a54610454906001600160a01b031681565b6040516001600160a01b039091168152602001610362565b6103cc60165481565b61039361048336600461431e565b610d66565b6103cc60115481565b6103cc600c5481565b6103cc600e5481565b6103cc6104b1366004614234565b60146020526000908152604090205481565b6103cc601f5481565b610393610efc565b6103cc601c5481565b6103cc60215481565b600d546103a89060ff1681565b6103cc6105013660046143f8565b610fb9565b600654610454906001600160a01b031681565b6103cc610527366004614234565b60026020526000908152604090205481565b610373611071565b601754610454906001600160a01b031681565b6103cc610562366004614234565b60046020526000908152604090205481565b601054610592906001600160801b0380821691600160801b90041682565b604080516001600160801b03938416815292909116602083015201610362565b6103cc60205481565b600054610454906001600160a01b031681565b6103cc601b5481565b6103736110ff565b6103cc6105ed366004614208565b6111c3565b610605610600366004614208565b61121c565b60408051938452602084019290925290820152606001610362565b6103a861062e366004614208565b6113c6565b6103cc601a5481565b60055461066d906001600160401b0380821691600160401b810490911690600160801b90046001600160801b031683565b604080516001600160401b0394851681529390921660208401526001600160801b031690820152606001610362565b6103cc6106aa366004614208565b61150b565b600854610454906001600160a01b031681565b6103cc601e5481565b600d546104549061010090046001600160a01b031681565b6103936106f1366004614458565b611587565b600954610454906001600160a01b031681565b6103cc6107173660046144c9565b600360209081526000928352604080842090915290825290205481565b600754610454906001600160a01b031681565b6103cc60225481565b600154610454906001600160a01b031681565b6103a86107713660046144c9565b601560209081526000928352604080842090915290825290205460ff1681565b6103cc600b5481565b6103cc6107a8366004614251565b6117db565b61039361188a565b600f54610592906001600160801b0380821691600160801b90041682565b60175460405163d6d7d52560e01b815260009182916001600160a01b039091169063d6d7d525906108099060189060040161453d565b6040805180830381600087803b15801561082257600080fd5b505af1158015610836573d6000803e3d6000fd5b505050506040513d601f19601f8201168201806040525081019061085a91906145e5565b909250905081156108a15760168190556040518181527f9f9192b5edb17356c524e08d9e025c8e2f6307e6ea52fb7968faa3081f51c3c89060200160405180910390a19091565b506016549091565b6009546060906108c1906001600160a01b0316611e3a565b600a546108d6906001600160a01b0316611e3a565b60175460405163355a219b60e21b81526001600160a01b039091169063d568866c906109079060189060040161453d565b60006040518083038186803b15801561091f57600080fd5b505afa158015610933573d6000803e3d6000fd5b505050506040513d6000823e601f3d908101601f1916820160405261095b9190810190614629565b60405160200161096d939291906146ca565b604051602081830303815290604052905090565b6000546001600160a01b031633146109e05760405162461bcd60e51b815260206004820181905260248201527f4f776e61626c653a2063616c6c6572206973206e6f7420746865206f776e657260448201526064015b60405180910390fd5b8115610aa3576001600160a01b0383161515806109fa5750805b610a3e5760405162461bcd60e51b81526020600482015260156024820152744f776e61626c653a207a65726f206164647265737360581b60448201526064016109d7565b600080546040516001600160a01b03808716939216917f8be0079c531659141344cd1fd0a4f28419497f9722a3daafe3b4186f6b6457e091a3600080546001600160a01b0385166001600160a01b031991821617909155600180549091169055505050565b600180546001600160a01b0385166001600160a01b0319909116179055505050565b3360008181526003602090815260408083206001600160a01b038716808552925280832085905551919290917f8c5be1e5ebec7d5bd14f71427d1e84f3dd0314c0f7b2291e5b200ac8c7c3b92590610b209086815260200190565b60405180910390a35060015b92915050565b60008115610cf9576001600160a01b03841660009081526002602052604090205482811015610b9c5760405162461bcd60e51b815260206004820152601660248201527545524332303a2062616c616e636520746f6f206c6f7760501b60448201526064016109d7565b836001600160a01b0316856001600160a01b031614610cf7576001600160a01b03851660009081526003602090815260408083203384529091529020546000198114610c615783811015610c325760405162461bcd60e51b815260206004820152601860248201527f45524332303a20616c6c6f77616e636520746f6f206c6f77000000000000000060448201526064016109d7565b610c3c848261475f565b6001600160a01b03871660009081526003602090815260408083203384529091529020555b6001600160a01b038516610cb05760405162461bcd60e51b815260206004820152601660248201527545524332303a206e6f207a65726f206164647265737360501b60448201526064016109d7565b610cba848361475f565b6001600160a01b038088166000908152600260205260408082209390935590871681529081208054869290610cf0908490614776565b9091555050505b505b826001600160a01b0316846001600160a01b0316600080516020614c3e83398151915284604051610d2c91815260200190565b60405180910390a35060015b9392505050565b600a54600090610d57906001600160a01b0316611efd565b905090565b6000610d57611fb5565b600d5460ff1615610d895760405162461bcd60e51b81526004016109d79061478e565b6000610d936107d3565b915050610d9e61188a565b6008546001600160a01b031615610edf57600080600860009054906101000a90046001600160a01b03166001600160a01b0316637c8be05b6040518163ffffffff1660e01b815260040160606040518083038186803b158015610e0057600080fd5b505afa158015610e14573d6000803e3d6000fd5b505050506040513d601f19601f82011682018060405250810190610e3891906147b3565b92509250508115610edc576000805b8a811015610e87578b8b82818110610e6157610e616147ec565b9050602002013582610e739190614776565b915080610e7f81614802565b915050610e47565b50808210610eda57610ed18d8d8689898080601f01602080910402602001604051908101604052809392919081815260200183838082843760009201919091525061200c92505050565b50505050610ef1565b505b50505b610eef8a8a8a8a8a868b8b612739565b505b505050505050505050565b6001546001600160a01b0316338114610f575760405162461bcd60e51b815260206004820181905260248201527f4f776e61626c653a2063616c6c657220213d2070656e64696e67206f776e657260448201526064016109d7565b600080546040516001600160a01b03808516939216917f8be0079c531659141344cd1fd0a4f28419497f9722a3daafe3b4186f6b6457e091a3600080546001600160a01b039092166001600160a01b0319928316179055600180549091169055565b600d5460009060ff1615610fdf5760405162461bcd60e51b81526004016109d79061478e565b846001600160a01b038116331480159061102457506001600160a01b038116600090815260026020908152604080832054600383528184203385529092529091205411155b1561105357604051630ca03e9b60e11b81526001600160a01b03821660048201523360248201526044016109d7565b61105b61188a565b6110678686868661280b565b9695505050505050565b6018805461107e90614502565b80601f01602080910402602001604051908101604052809291908181526020018280546110aa90614502565b80156110f75780601f106110cc576101008083540402835291602001916110f7565b820191906000526020600020905b8154815290600101906020018083116110da57829003601f168201915b505050505081565b600954606090611117906001600160a01b0316612a4e565b600a5461112c906001600160a01b0316612a4e565b60175460405163634ce26b60e11b81526001600160a01b039091169063c699c4d69061115d9060189060040161453d565b60006040518083038186803b15801561117557600080fd5b505afa158015611189573d6000803e3d6000fd5b505050506040513d6000823e601f3d908101601f191682016040526111b19190810190614629565b60405160200161096d9392919061481d565b6001600160a01b038216600090815260136020526040812054819081906111ea9085612a95565b6001600160a01b0387166000908152601460205260409020549193509150611213908383612b6b565b95945050505050565b6001600160a01b038216600090815260146020526040812054819081908061124f576000806000935093509350506113bf565b6001600160a01b0380871660009081526013602090815260408083205481518083019092526010546001600160801b038082168452600160801b9091041692820192909252600754600b54601f5460235494969395948c94939093169263442c15999291906112c290620186a0906148a0565b6112cc90896148b4565b6112d691906148b4565b6040516001600160e01b031960e085901b168152600481019290925260248201526000604482015260640160206040518083038186803b15801561131957600080fd5b505afa15801561132d573d6000803e3d6000fd5b505050506040513d601f19601f8201168201806040525081019061135191906148d3565b61135b91906148a0565b905081602001516001600160801b031682600001516001600160801b03168561138491906148b4565b61138e91906148a0565b93508084101561139f5760006113a9565b6113a9818561475f565b96506113b58389612a95565b9096509450505050505b9250925092565b6000811515806113de5750336001600160a01b038416145b156114e057336000908152600260205260409020548281101561143c5760405162461bcd60e51b815260206004820152601660248201527545524332303a2062616c616e636520746f6f206c6f7760501b60448201526064016109d7565b336001600160a01b038516146114de576001600160a01b03841661149b5760405162461bcd60e51b815260206004820152601660248201527545524332303a206e6f207a65726f206164647265737360501b60448201526064016109d7565b6114a5838261475f565b33600090815260026020526040808220929092556001600160a01b038616815290812080548592906114d8908490614776565b90915550505b505b6040518281526001600160a01b038416903390600080516020614c3e83398151915290602001610b20565b60006115178383612c1f565b1561152457506000610b2c565b600080611531858561121c565b6001600160a01b038816600090815260146020526040902054929450925050818110611561579250610b2c915050565b620186a08160225461157391906148b4565b61157d91906148a0565b6110679084614776565b6001600160a01b0387166115dd5760405162461bcd60e51b815260206004820152601860248201527f45524332303a204f776e65722063616e6e6f742062652030000000000000000060448201526064016109d7565b83421061161d5760405162461bcd60e51b815260206004820152600e60248201526d115490cc8c0e88115e1c1a5c995960921b60448201526064016109d7565b6001600160a01b038716600081815260046020526040812080546001926116c7927f6e71edae12b1b97f4d1f60370fef10105fa2faae0126114a169c64845d6126c9928d928d928d929161167083614802565b909155506040805160208101969096526001600160a01b0394851690860152929091166060840152608083015260a082015260c0810188905260e00160405160208183030381529060405280519060200120612d85565b6040805160008152602081018083529290925260ff871690820152606081018590526080810184905260a0016020604051602081039080840390855afa158015611715573d6000803e3d6000fd5b505050602060405103516001600160a01b0316146117755760405162461bcd60e51b815260206004820152601860248201527f45524332303a20496e76616c6964205369676e6174757265000000000000000060448201526064016109d7565b6001600160a01b038781166000818152600360209081526040808320948b168084529482529182902089905590518881527f8c5be1e5ebec7d5bd14f71427d1e84f3dd0314c0f7b2291e5b200ac8c7c3b92591015b60405180910390a350505050505050565b600d5460009060ff16156118015760405162461bcd60e51b81526004016109d79061478e565b836001600160a01b038116331480159061184657506001600160a01b038116600090815260026020908152604080832054600383528184203385529092529091205411155b1561187557604051630ca03e9b60e11b81526001600160a01b03821660048201523360248201526044016109d7565b61187d61188a565b6112138585856001612dda565b604080516060810182526005546001600160401b038082168352600160401b82041660208301819052600160801b9091046001600160801b031692820192909252906000906118d9904261475f565b9050806118e4575050565b6001600160401b034216602080840191909152604080518082019091526010546001600160801b038082168352600160801b90910416918101829052906119df5782516001600160401b03166312e687c01461198c576312e687c0808452604080516000808252602082018190529181019290925260608201527f33af5ce86e8438eff54589f85332916444457dfa8685493fbd579b809097026b9060800160405180910390a15b505080516005805460208401516040909401516001600160801b03908116600160801b026001600160401b03958616600160401b026001600160801b031990931695909416949094171792909216179055565b60408051808201909152600f546001600160801b038082168352600160801b909104811660208301528451835160009384939092670de0b6b3a7640000928892611a33926001600160401b031691166148b4565b611a3d91906148b4565b611a4791906148a0565b92508284600001818151611a5b91906148ec565b6001600160801b039081169091528551600754600c54855160405163442c159960e01b8152600481019290925284166024820152600060448201819052945091909216916001600160a01b03169063442c15999060640160206040518083038186803b158015611aca57600080fd5b505afa158015611ade573d6000803e3d6000fd5b505050506040513d601f19601f82011682018060405250810190611b0291906148d3565b611b0c9190614776565b90506000620186a0601a5486611b2291906148b4565b611b2c91906148a0565b90508183602001516001600160801b031682611b4891906148b4565b611b5291906148a0565b93508388604001818151611b6691906148ec565b6001600160801b03169052506020830151611b829085906148ec565b600f80546001600160801b03908116600160801b93821684021790915587516020890151908216911690910281176010556000908390611bcb90670de0b6b3a7640000906148b4565b611bd591906148a0565b90506709b6e64a8ec60000811015611ca65760006709b6e64a8ec60000670de0b6b3a7640000611c05848361475f565b611c0f91906148b4565b611c1991906148a0565b9050600089611c2883806148b4565b611c3291906148b4565b611c4b906b0a9456c7acbaf3a129576cd1602b1b614776565b9050806b0a9456c7acbaf3a129576cd1602b1b8c600001516001600160401b0316611c7691906148b4565b611c8091906148a0565b6001600160401b0316808c526304b9a1f01115611c9f576304b9a1f08b525b5050611d8f565b670b1a2bc2ec500000811115611d8f576000611cd2670b1a2bc2ec500000670de0b6b3a764000061475f565b670de0b6b3a7640000611ced670b1a2bc2ec5000008561475f565b611cf791906148b4565b611d0191906148a0565b9050600089611d1083806148b4565b611d1a91906148b4565b611d33906b0a9456c7acbaf3a129576cd1602b1b614776565b905060006b0a9456c7acbaf3a129576cd1602b1b828d600001516001600160401b0316611d6091906148b4565b611d6a91906148a0565b90506449d4824600811115611d8157506449d48246005b6001600160401b03168b5250505b885160408051888152602081018890526001600160401b039092168282015260608201839052517f33af5ce86e8438eff54589f85332916444457dfa8685493fbd579b809097026b9181900360800190a1505086516005805460208a01516040909a01516001600160801b03908116600160801b026001600160401b039b8c16600160401b026001600160801b03199093169b9094169a909a17179890981617909655505050505050565b60408051600481526024810182526020810180516001600160e01b03166306fdde0360e01b179052905160609160009182916001600160a01b03861691611e819190614917565b600060405180830381855afa9150503d8060008114611ebc576040519150601f19603f3d011682016040523d82523d6000602084013e611ec1565b606091505b509150915081611eec57604051806040016040528060038152602001623f3f3f60e81b815250611ef5565b611ef58161315c565b949350505050565b60408051600481526024810182526020810180516001600160e01b031663313ce56760e01b1790529051600091829182916001600160a01b03861691611f439190614917565b600060405180830381855afa9150503d8060008114611f7e576040519150601f19603f3d011682016040523d82523d6000602084013e611f83565b606091505b5091509150818015611f96575080516020145b611fa1576012611ef5565b80806020019051810190611ef59190614933565b60007f00000000000000000000000000000000000000000000000000000000000000004614611fe757610d57466132da565b507f000000000000000000000000000000000000000000000000000000000000000090565b604080518082019091526010546001600160801b038082168352600160801b90910416602082015260009081908190815b878110156122a4576000898983818110612059576120596147ec565b905060200201602081019061206e9190614234565b905061207a8189612c1f565b61229057600061208a828a61331b565b905080612098575050612292565b6001600160a01b0382166000908152601460205260408120546120bc86848461349d565b91506120c8828261475f565b6001600160a01b03808616600090815260146020526040812092909255600754600b54602354939450911691638eb22cdd919061210990620186a0906148b4565b601c548f8861211891906148b4565b61212291906148b4565b61212c91906148a0565b6040516001600160e01b031960e085901b168152600481019290925260248201526000604482015260640160206040518083038186803b15801561216f57600080fd5b505afa158015612183573d6000803e3d6000fd5b505050506040513d601f19601f820116820180604052508101906121a791906148d3565b6001600160a01b0385166000908152601360205260408120805492935083929091906121d490849061475f565b90915550506008546040518281526001600160a01b03918216918616907f8ad4d3ff00da092c7ad9a573ea4f5f6a3dffc6712dc06d3f78f49b862297c4029060200160405180910390a360085460408051858152602081018590526001600160a01b038781169316917fc8e512d8f188ca059984b5853d2bf653da902696b8512785b182b2c813789a6e910160405180910390a3612272818a614776565b985061227e8389614776565b975061228a8288614776565b96505050505b505b8061229c81614802565b91505061203d565b50826122e15760405162461bcd60e51b815260206004820152600c60248201526b14d1d30e881cdbdb1d995b9d60a21b60448201526064016109d7565b82816000018181516122f39190614950565b6001600160801b0316905250602081018051839190612313908390614950565b6001600160801b03908116909152825160208401518216600160801b0291161760105550600e805485919060009061234c90849061475f565b9091555050600754600c54604051638eb22cdd60e01b8152600481019190915260248101859052600160448201526000916001600160a01b031690638eb22cdd9060640160206040518083038186803b1580156123a857600080fd5b505afa1580156123bc573d6000803e3d6000fd5b505050506040513d601f19601f820116820180604052508101906123e091906148d3565b600754600854600b54604051630208d92960e11b81529394506001600160a01b0392831693630411b2529361241e9330939116918b90600401614978565b600060405180830381600087803b15801561243857600080fd5b505af115801561244c573d6000803e3d6000fd5b5050600854600754600b5460405163442c159960e01b81526004810191909152602481018a9052600160448201526001600160a01b039283169450633965907b935091169063442c15999060640160206040518083038186803b1580156124b257600080fd5b505afa1580156124c6573d6000803e3d6000fd5b505050506040513d601f19601f820116820180604052508101906124ea91906148d3565b886040518363ffffffff1660e01b81526004016125089291906149a1565b6040805180830381600087803b15801561252157600080fd5b505af1158015612535573d6000803e3d6000fd5b505050506040513d601f19601f8201168201806040525081019061255991906149ba565b5050600f54600754600c54604051627eeac760e11b815230600482015260248101919091526000926001600160801b0316916001600160a01b03169062fdd58e9060440160206040518083038186803b1580156125b557600080fd5b505afa1580156125c9573d6000803e3d6000fd5b505050506040513d601f19601f820116820180604052508101906125ed91906148d3565b6125f7919061475f565b90506000612605838361475f565b90506000620186a06019548361261b91906148b4565b61262591906148a0565b600754600c54604051630208d92960e11b81529293506001600160a01b0390911691630411b2529161265f91309133918790600401614978565b600060405180830381600087803b15801561267957600080fd5b505af115801561268d573d6000803e3d6000fd5b50505050808361269d919061475f565b600f80546000906126b89084906001600160801b03166148ec565b82546001600160801b039182166101009390930a92830291909202199091161790555060085430906001600160a01b03167f30a8c4f9ab5af7e1309ca87c32377d1a83366c5990472dbf9d262450eae14e38612714848761475f565b60408051918252600060208301520160405180910390a3505050505050505050505050565b6000805b888110156127c45760008a8a83818110612759576127596147ec565b905060200201602081019061276e9190614234565b905061277a8187612c1f565b6127b1578261278881614802565b9350506127b1818a8a858181106127a1576127a16147ec565b905060200201358989898961352b565b50806127bc81614802565b91505061273d565b5060008111610ef15760405162461bcd60e51b815260206004820152601360248201527214d1d30e881b9bc81d5cd95c9cc8199bdd5b99606a1b60448201526064016109d7565b604080518082018252600f546001600160801b03808216808452600160801b90920481166020840152600754600c546010549551638eb22cdd60e01b815260048101919091529490911660248501526001604485015260009384916001600160a01b031690638eb22cdd9060640160206040518083038186803b15801561289157600080fd5b505afa1580156128a5573d6000803e3d6000fd5b505050506040513d601f19601f820116820180604052508101906128c991906148d3565b83516128de91906001600160801b0316614776565b9050801561290f578083602001516001600160801b03168661290091906148b4565b61290a91906148a0565b612911565b845b93506103e884846020015161292691906148ec565b6001600160801b031610156129415760009350505050611ef5565b61294c8386866138fe565b80516020918201516001600160801b03908116600160801b02911617600f556001600160a01b03881660009081526002909152604081208054869290612993908490614776565b90915550506040518481526001600160a01b03881690600090600080516020614c3e8339815191529060200160405180910390a36129d688600c5487858a613958565b866001600160a01b0316866129eb57886129f8565b6007546001600160a01b03165b6001600160a01b03167f30a8c4f9ab5af7e1309ca87c32377d1a83366c5990472dbf9d262450eae14e388787604051612a3b929190918252602082015260400190565b60405180910390a3505050949350505050565b60408051600481526024810182526020810180516001600160e01b03166395d89b4160e01b179052905160609160009182916001600160a01b03861691611e819190614917565b600754600b5460405163442c159960e01b815260048101919091526024810184905260006044820181905291829182916001600160a01b03169063442c15999060640160206040518083038186803b158015612af057600080fd5b505afa158015612b04573d6000803e3d6000fd5b505050506040513d601f19601f82011682018060405250810190612b2891906148d3565b90508360235482612b3991906148b4565b612b4391906148a0565b9150620186a0601e5483612b5791906148b4565b612b6191906148a0565b9250509250929050565b600083612b7a57506000610d38565b82612b8757506000610d38565b82841015612b9757506000610d38565b818410612ba75750602054610d38565b6000612bb3848461475f565b620186a0612bc1868861475f565b612bcb91906148b4565b612bd591906148a0565b90506000602154602054612be991906149de565b90506000602154620186a08484612c009190614a1d565b612c0a9190614aa2565b612c149190614ad0565b979650505050505050565b6001600160a01b03821660009081526014602052604081205480612c47576001915050610b2c565b6001600160a01b03841660009081526013602052604090205480612c7057600092505050610b2c565b604080518082019091526010546001600160801b03808216808452600160801b9092041660208301819052908690612ca890866148b4565b612cb291906148b4565b612cbc91906148a0565b600754600b54601e546023546001600160a01b039093169263442c1599929190612cea90620186a0906148a0565b612cf490886148b4565b612cfe91906148b4565b6040516001600160e01b031960e085901b168152600481019290925260248201526000604482015260640160206040518083038186803b158015612d4157600080fd5b505afa158015612d55573d6000803e3d6000fd5b505050506040513d601f19601f82011682018060405250810190612d7991906148d3565b10159695505050505050565b600060405180604001604052806002815260200161190160f01b815250612daa611fb5565b83604051602001612dbd93929190614b11565b604051602081830303815290604052805190602001209050919050565b600f54600090600160801b90046001600160801b0316612dfc57506000611ef5565b604080518082018252600f546001600160801b038082168352600160801b90910481166020830152600754600c546010549451638eb22cdd60e01b815260048101919091529390911660248401526001604484015290916000916001600160a01b031690638eb22cdd9060640160206040518083038186803b158015612e8157600080fd5b505afa158015612e95573d6000803e3d6000fd5b505050506040513d601f19601f82011682018060405250810190612eb991906148d3565b8251612ece91906001600160801b0316614776565b60208301519091506001600160801b0316612ee982876148b4565b612ef391906148a0565b6001600160a01b038816600090815260026020526040812080549295508792909190612f2090849061475f565b90915550506040518581526000906001600160a01b03891690600080516020614c3e8339815191529060200160405180910390a38282600001818151612f669190614950565b6001600160801b0316905250602082018051869190612f86908390614950565b6001600160801b0390811690915260208401516103e8911610159050612fdf5760405162461bcd60e51b815260206004820152600e60248201526d14d1d30e881b5a5b881b1a5b5a5d60921b60448201526064016109d7565b815160208301516001600160801b03908116600160801b02911617600f556040516001600160a01b0380881691908916907f6e853a5fd6b51d773691f542ebac8513c9992a51380d4c342031056a64114228906130489087908a90918252602082015260400190565b60405180910390a3600754600c54604051630208d92960e11b81526001600160a01b0390921691630411b252916130879130918b918990600401614978565b600060405180830381600087803b1580156130a157600080fd5b505af11580156130b5573d6000803e3d6000fd5b505050508315613152576001600160a01b0387166000908152601260209081526040808320600c548452909152902054831115613117576001600160a01b0387166000908152601260209081526040808320600c548452909152812055613152565b6001600160a01b0387166000908152601260209081526040808320600c5484529091528120805485929061314c90849061475f565b90915550505b5050949350505050565b6060604082511061317b5781806020019051810190610b2c9190614629565b8151602014156132bb5760005b60208160ff161080156131bd5750828160ff16815181106131ab576131ab6147ec565b01602001516001600160f81b03191615155b156131d457806131cc81614b38565b915050613188565b60008160ff166001600160401b038111156131f1576131f1614613565b6040519080825280601f01601f19166020018201604052801561321b576020820181803683370190505b509050600091505b60208260ff161080156132585750838260ff1681518110613246576132466147ec565b01602001516001600160f81b03191615155b15610d3857838260ff1681518110613272576132726147ec565b602001015160f81c60f81b818360ff1681518110613292576132926147ec565b60200101906001600160f81b031916908160001a905350816132b381614b38565b925050613223565b50506040805180820190915260038152623f3f3f60e81b602082015290565b604080517f47e79534a245952e8b16893a336b85a3d9ea9fa8c573f3d803afb92a794692186020820152908101829052306060820152600090608001612dbd565b6001600160a01b03821660009081526014602052604081205480613343576000915050610b2c565b6001600160a01b0380851660009081526013602090815260408083205481518083019092526010546001600160801b038082168452600160801b9091041692820192909252600754600b54601f5460235494969395948a94939093169263442c15999291906133b690620186a0906148a0565b6133c090896148b4565b6133ca91906148b4565b6040516001600160e01b031960e085901b168152600481019290925260248201526000604482015260640160206040518083038186803b15801561340d57600080fd5b505afa158015613421573d6000803e3d6000fd5b505050506040513d601f19601f8201168201806040525081019061344591906148d3565b61344f91906148a0565b905081602001516001600160801b031682600001516001600160801b03168561347891906148b4565b61348291906148a0565b935080841015613493576000612c14565b612c14818561475f565b82516000906001600160801b03166134b6575081610d38565b835160208501516001600160801b03918216916134d49116856148b4565b6134de91906148a0565b905081801561351c57508284602001516001600160801b031685600001516001600160801b03168361351091906148b4565b61351a91906148a0565b105b15610d38578061121381614802565b6135358684612c1f565b1561353f576138f6565b6001600160a01b03861660009081526013602052604081205481906135649086612a95565b6001600160a01b038a166000908152601460205260408120549294509092509061358f908484612b6b565b905060008060006135a18c8c8b613acf565b925092509250896001600160a01b03168c6001600160a01b03167f8ad4d3ff00da092c7ad9a573ea4f5f6a3dffc6712dc06d3f78f49b862297c402836040516135ec91815260200190565b60405180910390a38b6001600160a01b03168a6001600160a01b03167fc8e512d8f188ca059984b5853d2bf653da902696b8512785b182b2c813789a6e8585604051613642929190918252602082015260400190565b60405180910390a3600754600c54604051638eb22cdd60e01b8152600481019190915260248101859052600160448201526000916001600160a01b031690638eb22cdd9060640160206040518083038186803b1580156136a157600080fd5b505afa1580156136b5573d6000803e3d6000fd5b505050506040513d601f19601f820116820180604052508101906136d991906148d3565b600654604051634656bfdf60e11b81526001600160a01b038e81166004830152929350911690638cad7fbe9060240160206040518083038186803b15801561372057600080fd5b505afa158015613734573d6000803e3d6000fd5b505050506040513d601f19601f820116820180604052508101906137589190614b58565b61379b5760405162461bcd60e51b815260206004820152601460248201527329a3a61d1024b73b30b634b21039bbb0b83832b960611b60448201526064016109d7565b600760009054906101000a90046001600160a01b03166001600160a01b0316630411b252308d600b54866040518563ffffffff1660e01b81526004016137e49493929190614978565b600060405180830381600087803b1580156137fe57600080fd5b505af1158015613812573d6000803e3d6000fd5b5060009250508915905061382f5761382c898b018b614b75565b90505b8b6001600160a01b03166355a68e10600b54600c5486308661384f613d36565b60405160200161385f9190614b8e565b6040516020818303038152906040526040518763ffffffff1660e01b815260040161388f96959493929190614bdb565b6040805180830381600087803b1580156138a857600080fd5b505af11580156138bc573d6000803e3d6000fd5b505050506040513d601f19601f820116820180604052508101906138e091906149ba565b50506138ed82878e613dca565b50505050505050505b505050505050565b6040805180820190915260008082526020820152828460000181815161392491906148ec565b6001600160801b03169052506020840180518391906139449083906148ec565b6001600160801b0316905250929392505050565b6001600160a01b03851660009081526012602090815260408083208784529091528120805485929061398b908490614776565b90915550508015613a6457600754604051627eeac760e11b81523060048201526024810186905283916001600160a01b03169062fdd58e9060440160206040518083038186803b1580156139de57600080fd5b505afa1580156139f2573d6000803e3d6000fd5b505050506040513d601f19601f82011682018060405250810190613a1691906148d3565b613a20919061475f565b831115613a5f5760405162461bcd60e51b815260206004820152600d60248201526c0a68e987440e8dede40daeac6d609b1b60448201526064016109d7565b613ac8565b600754604051630208d92960e11b81526001600160a01b0390911690630411b25290613a9a908890309089908990600401614978565b600060405180830381600087803b158015613ab457600080fd5b505af1158015610ef1573d6000803e3d6000fd5b5050505050565b600080600080613adf878661150b565b9050808611613aee5785613af0565b805b6001600160a01b038816600090815260146020526040902054909350613b1790849061475f565b6001600160a01b03881660009081526014602090815260408083209390935582518084019093526010546001600160801b038082168552600160801b9091041690830152613b67919085906140af565b600754600b546023549296506001600160a01b0390911691638eb22cdd9190613b9390620186a06148b4565b88601c5489613ba291906148b4565b613bac91906148b4565b613bb691906148a0565b6040516001600160e01b031960e085901b168152600481019290925260248201526000604482015260640160206040518083038186803b158015613bf957600080fd5b505afa158015613c0d573d6000803e3d6000fd5b505050506040513d601f19601f82011682018060405250810190613c3191906148d3565b6001600160a01b038816600090815260136020526040812080549294508492909190613c5e90849061475f565b909155505083613c9f5760405162461bcd60e51b815260206004820152600c60248201526b14d1d30e881cdbdb1d995b9d60a21b60448201526064016109d7565b60108054859190600090613cbd9084906001600160801b0316614950565b92506101000a8154816001600160801b0302191690836001600160801b0316021790555082601060000160108282829054906101000a90046001600160801b0316613d089190614950565b92506101000a8154816001600160801b0302191690836001600160801b031602179055505093509350939050565b6040805160028082526060808301845292602083019080368337505060095482519293506001600160a01b031691839150600090613d7657613d766147ec565b6001600160a01b039283166020918202929092010152600a54825191169082906001908110613da757613da76147ec565b60200260200101906001600160a01b031690816001600160a01b03168152505090565b600f54600754600c54604051627eeac760e11b815230600482015260248101919091526000926001600160801b0316916001600160a01b03169062fdd58e9060440160206040518083038186803b158015613e2457600080fd5b505afa158015613e38573d6000803e3d6000fd5b505050506040513d601f19601f82011682018060405250810190613e5c91906148d3565b613e66919061475f565b90506000613e74858361475f565b90506000620186a0601a5483613e8a91906148b4565b613e9491906148a0565b90506000620186a0613ea687856148b4565b613eb091906148a0565b60075460065460408051622fcfcb60e31b815290519394506001600160a01b0392831693630411b252933093169163017e7e58916004808301926020929190829003018186803b158015613f0357600080fd5b505afa158015613f17573d6000803e3d6000fd5b505050506040513d601f19601f82011682018060405250810190613f3b9190614c20565b600c54866040518563ffffffff1660e01b8152600401613f5e9493929190614978565b600060405180830381600087803b158015613f7857600080fd5b505af1158015613f8c573d6000803e3d6000fd5b5050600754600c54604051630208d92960e11b81526001600160a01b039092169350630411b2529250613fc791309133918790600401614978565b600060405180830381600087803b158015613fe157600080fd5b505af1158015613ff5573d6000803e3d6000fd5b50505050808285614006919061475f565b614010919061475f565b600f805460009061402b9084906001600160801b03166148ec565b92506101000a8154816001600160801b0302191690836001600160801b03160217905550306001600160a01b0316856001600160a01b03167f30a8c4f9ab5af7e1309ca87c32377d1a83366c5990472dbf9d262450eae14e38838587614091919061475f565b61409b919061475f565b6040805191825260006020830152016117ca565b600083602001516001600160801b0316600014156140ce575081610d38565b602084015184516001600160801b03918216916140ec9116856148b4565b6140f691906148a0565b905081801561351c57508284600001516001600160801b031685602001516001600160801b03168361351091906148b4565b60005b8381101561414357818101518382015260200161412b565b83811115614152576000848401525b50505050565b60008151808452614170816020860160208601614128565b601f01601f19169290920160200192915050565b602081526000610d386020830184614158565b6001600160a01b03811681146141ac57600080fd5b50565b80151581146141ac57600080fd5b6000806000606084860312156141d257600080fd5b83356141dd81614197565b925060208401356141ed816141af565b915060408401356141fd816141af565b809150509250925092565b6000806040838503121561421b57600080fd5b823561422681614197565b946020939093013593505050565b60006020828403121561424657600080fd5b8135610d3881614197565b60008060006060848603121561426657600080fd5b833561427181614197565b9250602084013561428181614197565b929592945050506040919091013590565b60008083601f8401126142a457600080fd5b5081356001600160401b038111156142bb57600080fd5b6020830191508360208260051b85010111156142d657600080fd5b9250929050565b60008083601f8401126142ef57600080fd5b5081356001600160401b0381111561430657600080fd5b6020830191508360208285010111156142d657600080fd5b600080600080600080600080600060a08a8c03121561433c57600080fd5b89356001600160401b038082111561435357600080fd5b61435f8d838e01614292565b909b50995060208c013591508082111561437857600080fd5b6143848d838e01614292565b909950975060408c0135915061439982614197565b90955060608b013590808211156143af57600080fd5b6143bb8d838e016142dd565b909650945060808c01359150808211156143d457600080fd5b506143e18c828d016142dd565b915080935050809150509295985092959850929598565b6000806000806080858703121561440e57600080fd5b843561441981614197565b9350602085013561442981614197565b92506040850135614439816141af565b9396929550929360600135925050565b60ff811681146141ac57600080fd5b600080600080600080600060e0888a03121561447357600080fd5b873561447e81614197565b9650602088013561448e81614197565b9550604088013594506060880135935060808801356144ac81614449565b9699959850939692959460a0840135945060c09093013592915050565b600080604083850312156144dc57600080fd5b82356144e781614197565b915060208301356144f781614197565b809150509250929050565b600181811c9082168061451657607f821691505b6020821081141561453757634e487b7160e01b600052602260045260246000fd5b50919050565b600060208083526000845481600182811c91508083168061455f57607f831692505b85831081141561457d57634e487b7160e01b85526022600452602485fd5b87860183815260200181801561459a57600181146145ab576145d6565b60ff198616825287820196506145d6565b60008b81526020902060005b868110156145d0578154848201529085019089016145b7565b83019750505b50949998505050505050505050565b600080604083850312156145f857600080fd5b8251614603816141af565b6020939093015192949293505050565b634e487b7160e01b600052604160045260246000fd5b60006020828403121561463b57600080fd5b81516001600160401b038082111561465257600080fd5b818401915084601f83011261466657600080fd5b81518181111561467857614678614613565b604051601f8201601f19908116603f011681019083821181831017156146a0576146a0614613565b816040528281528760208487010111156146b957600080fd5b612c14836020830160208801614128565b7302a30b834b7b1b09029b4b733bab630b934ba3c960651b8152600084516146f9816014850160208901614128565b602f60f81b601491840191820152845161471a816015840160208901614128565b602d60f81b60159290910191820152835161473c816016840160208801614128565b0160160195945050505050565b634e487b7160e01b600052601160045260246000fd5b60008282101561477157614771614749565b500390565b6000821982111561478957614789614749565b500190565b6020808252600b908201526a14d1d30e881c185d5cd95960aa1b604082015260600190565b6000806000606084860312156147c857600080fd5b8351925060208401516147da816141af565b80925050604084015190509250925092565b634e487b7160e01b600052603260045260246000fd5b600060001982141561481657614816614749565b5060010190565b61746d60f01b81526000845161483a816002850160208901614128565b602f60f81b600291840191820152845161485b816003840160208901614128565b602d60f81b60039290910191820152835161487d816004840160208801614128565b0160040195945050505050565b634e487b7160e01b600052601260045260246000fd5b6000826148af576148af61488a565b500490565b60008160001904831182151516156148ce576148ce614749565b500290565b6000602082840312156148e557600080fd5b5051919050565b60006001600160801b0380831681851680830382111561490e5761490e614749565b01949350505050565b60008251614929818460208701614128565b9190910192915050565b60006020828403121561494557600080fd5b8151610d3881614449565b60006001600160801b038381169083168181101561497057614970614749565b039392505050565b6001600160a01b0394851681529290931660208301526040820152606081019190915260800190565b828152604060208201526000611ef56040830184614158565b600080604083850312156149cd57600080fd5b505080516020909101519092909150565b60008083128015600160ff1b8501841216156149fc576149fc614749565b6001600160ff1b0384018313811615614a1757614a17614749565b50500390565b60006001600160ff1b0381841382841380821686840486111615614a4357614a43614749565b600160ff1b6000871282811687830589121615614a6257614a62614749565b60008712925087820587128484161615614a7e57614a7e614749565b87850587128184161615614a9457614a94614749565b505050929093029392505050565b600082614ab157614ab161488a565b600160ff1b821460001984141615614acb57614acb614749565b500590565b600080821280156001600160ff1b0384900385131615614af257614af2614749565b600160ff1b8390038412811615614b0b57614b0b614749565b50500190565b60008451614b23818460208901614128565b91909101928352506020820152604001919050565b600060ff821660ff811415614b4f57614b4f614749565b60010192915050565b600060208284031215614b6a57600080fd5b8151610d38816141af565b600060208284031215614b8757600080fd5b5035919050565b6020808252825182820181905260009190848201906040850190845b81811015614bcf5783516001600160a01b031683529284019291840191600101614baa565b50909695505050505050565b86815285602082015284604082015260018060a01b038416606082015282608082015260c060a08201526000614c1460c0830184614158565b98975050505050505050565b600060208284031215614c3257600080fd5b8151610d388161419756feddf252ad1be2c89b69c2b068fc378daa952ba7f163c4a11628f55a4df523b3efa26469706673582212208fe2e2ceae1812353e64c314244ca3e1b7d25dec7ac52e4da69a48560cf9f66a64736f6c63430008090033",
  "devdoc": {
    "kind": "dev",
    "methods": {
      "addAsset(address,address,bool,uint256)": {
        "params": {
          "from": "Address to add asset from.",
          "share": "The amount of shares to add.",
          "skim": "True if the amount should be skimmed from the deposit balance of msg.sender. False if tokens from msg.sender in `yieldBox` should be transferred.",
          "to": "The address of the user to receive the assets."
        },
        "returns": {
          "fraction": "Total fractions added."
        }
      },
      "approve(address,uint256)": {
        "params": {
          "amount": "The maximum collective amount that `spender` can draw.",
          "spender": "Address of the party that can draw from msg.sender's account."
        },
        "returns": {
          "_0": "(bool) Returns True if approved."
        }
      },
      "computeTVLInfo(address,uint256)": {
        "details": "We use a `CLOSED_COLLATERIZATION_RATE` that is a safety buffer when making the user solvent again,      To prevent from being liquidated. This function is valid only if user is not solvent by `_isSolvent()`.",
        "params": {
          "_exchangeRate": "The exchange rate asset/collateral.",
          "user": "The user to check solvency."
        },
        "returns": {
          "amountToSolvency": "The amount of collateral to be solvent."
        }
      },
      "liquidate(address[],uint256[],address,bytes,bytes)": {
        "details": "Will call `closedLiquidation()` if not LQ exists or no LQ bid avail exists. Otherwise use LQ.",
        "params": {
          "collateralToAssetSwapData": "Extra swap data        Ignore for `orderBookLiquidation()`",
          "maxBorrowParts": "A one-to-one mapping to `users`, contains maximum (partial) borrow amounts (to liquidate) of the respective user.        Ignore for `orderBookLiquidation()`",
          "swapper": "Contract address of the `MultiSwapper` implementation. See `setSwapper`.        Ignore for `orderBookLiquidation()`",
          "usdoToBorrowedSwapData": "Extra swap data        Ignore for `closedLiquidation()`",
          "users": "An array of user addresses."
        }
      },
      "permit(address,address,uint256,uint256,uint8,bytes32,bytes32)": {
        "params": {
          "deadline": "This permit must be redeemed before this deadline (UTC timestamp in seconds).",
          "owner_": "Address of the owner.",
          "spender": "The address of the spender that gets approved to draw from `owner_`.",
          "value": "The maximum collective amount that `spender` can draw."
        }
      },
      "removeAsset(address,address,uint256)": {
        "params": {
          "fraction": "The amount/fraction of assets held to remove.",
          "from": "Account to debit Assets from.",
          "to": "The user that receives the removed assets."
        },
        "returns": {
          "share": "The amount of shares transferred to `to`."
        }
      },
      "transfer(address,uint256)": {
        "params": {
          "amount": "of the tokens to move.",
          "to": "The address to move the tokens."
        },
        "returns": {
          "_0": "(bool) Returns True if succeeded."
        }
      },
      "transferFrom(address,address,uint256)": {
        "params": {
          "amount": "The token amount to move.",
          "from": "Address to draw tokens from.",
          "to": "The address to move the tokens."
        },
        "returns": {
          "_0": "(bool) Returns True if succeeded."
        }
      },
      "transferOwnership(address,bool,bool)": {
        "params": {
          "direct": "True if `newOwner` should be set immediately. False if `newOwner` needs to use `claimOwnership`.",
          "newOwner": "Address of the new owner.",
          "renounce": "Allows the `newOwner` to be `address(0)` if `direct` and `renounce` is True. Has no effect otherwise."
        }
      },
      "updateExchangeRate()": {
        "returns": {
          "rate": "The new exchange rate.",
          "updated": "True if `exchangeRate` was updated."
        }
      }
    },
    "version": 1
  },
  "userdoc": {
    "kind": "user",
    "methods": {
      "accrue()": {
        "notice": "Accrues the interest on the borrowed tokens and handles the accumulation of fees."
      },
      "addAsset(address,address,bool,uint256)": {
        "notice": "Adds assets to the lending pair."
      },
      "allowance(address,address)": {
        "notice": "owner > spender > allowance mapping."
      },
      "approve(address,uint256)": {
        "notice": "Approves `amount` from sender to be spend by `spender`."
      },
      "balanceOf(address)": {
        "notice": "owner > balance mapping."
      },
      "claimOwnership()": {
        "notice": "Needs to be called by `pendingOwner` to claim ownership."
      },
      "computeClosingFactor(address,uint256)": {
        "notice": "Return the maximum liquidatable amount for user"
      },
      "computeTVLInfo(address,uint256)": {
        "notice": "Return the amount of collateral for a `user` to be solvent, min TVL and max TVL. Returns 0 if user already solvent."
      },
      "exchangeRate()": {
        "notice": "Exchange and interest rate tracking. This is 'cached' here because calls to Oracles can be very expensive. Asset -> collateral = assetAmount * exchangeRate."
      },
      "liquidate(address[],uint256[],address,bytes,bytes)": {
        "notice": "Entry point for liquidations."
      },
      "nonces(address)": {
        "notice": "owner > nonce mapping. Used in `permit`."
      },
      "permit(address,address,uint256,uint256,uint8,bytes32,bytes32)": {
        "notice": "Approves `value` from `owner_` to be spend by `spender`."
      },
      "removeAsset(address,address,uint256)": {
        "notice": "Removes an asset from msg.sender and transfers it to `to`."
      },
      "transfer(address,uint256)": {
        "notice": "Transfers `amount` tokens from `msg.sender` to `to`."
      },
      "transferFrom(address,address,uint256)": {
        "notice": "Transfers `amount` tokens from `from` to `to`. Caller needs approval for `from`."
      },
      "transferOwnership(address,bool,bool)": {
        "notice": "Transfers ownership to `newOwner`. Either directly or claimable by the new pending owner. Can only be invoked by the current `owner`."
      },
      "updateExchangeRate()": {
        "notice": "Gets the exchange rate. I.e how much collateral to buy 1e18 asset. This function is supposed to be invoked if needed because Oracle queries can be expensive."
      }
    },
    "version": 1
  },
  "storageLayout": {
    "storage": [
      {
        "astId": 233,
        "contract": "contracts/singularity/SGLLiquidation.sol:SGLLiquidation",
        "label": "owner",
        "offset": 0,
        "slot": "0",
        "type": "t_address"
      },
      {
        "astId": 235,
        "contract": "contracts/singularity/SGLLiquidation.sol:SGLLiquidation",
        "label": "pendingOwner",
        "offset": 0,
        "slot": "1",
        "type": "t_address"
      },
      {
        "astId": 478,
        "contract": "contracts/singularity/SGLLiquidation.sol:SGLLiquidation",
        "label": "balanceOf",
        "offset": 0,
        "slot": "2",
        "type": "t_mapping(t_address,t_uint256)"
      },
      {
        "astId": 486,
        "contract": "contracts/singularity/SGLLiquidation.sol:SGLLiquidation",
        "label": "allowance",
        "offset": 0,
        "slot": "3",
        "type": "t_mapping(t_address,t_mapping(t_address,t_uint256))"
      },
      {
        "astId": 491,
        "contract": "contracts/singularity/SGLLiquidation.sol:SGLLiquidation",
        "label": "nonces",
        "offset": 0,
        "slot": "4",
        "type": "t_mapping(t_address,t_uint256)"
      },
      {
        "astId": 13214,
        "contract": "contracts/singularity/SGLLiquidation.sol:SGLLiquidation",
        "label": "accrueInfo",
        "offset": 0,
        "slot": "5",
        "type": "t_struct(AccrueInfo)14835_storage"
      },
      {
        "astId": 13217,
        "contract": "contracts/singularity/SGLLiquidation.sol:SGLLiquidation",
        "label": "penrose",
        "offset": 0,
        "slot": "6",
        "type": "t_contract(IPenrose)6365"
      },
      {
        "astId": 13220,
        "contract": "contracts/singularity/SGLLiquidation.sol:SGLLiquidation",
        "label": "yieldBox",
        "offset": 0,
        "slot": "7",
        "type": "t_contract(YieldBox)30913"
      },
      {
        "astId": 13223,
        "contract": "contracts/singularity/SGLLiquidation.sol:SGLLiquidation",
        "label": "liquidationQueue",
        "offset": 0,
        "slot": "8",
        "type": "t_contract(ILiquidationQueue)7408"
      },
      {
        "astId": 13226,
        "contract": "contracts/singularity/SGLLiquidation.sol:SGLLiquidation",
        "label": "collateral",
        "offset": 0,
        "slot": "9",
        "type": "t_contract(IERC20)1099"
      },
      {
        "astId": 13229,
        "contract": "contracts/singularity/SGLLiquidation.sol:SGLLiquidation",
        "label": "asset",
        "offset": 0,
        "slot": "10",
        "type": "t_contract(IERC20)1099"
      },
      {
        "astId": 13231,
        "contract": "contracts/singularity/SGLLiquidation.sol:SGLLiquidation",
        "label": "collateralId",
        "offset": 0,
        "slot": "11",
        "type": "t_uint256"
      },
      {
        "astId": 13233,
        "contract": "contracts/singularity/SGLLiquidation.sol:SGLLiquidation",
        "label": "assetId",
        "offset": 0,
        "slot": "12",
        "type": "t_uint256"
      },
      {
        "astId": 13235,
        "contract": "contracts/singularity/SGLLiquidation.sol:SGLLiquidation",
        "label": "paused",
        "offset": 0,
        "slot": "13",
        "type": "t_bool"
      },
      {
        "astId": 13237,
        "contract": "contracts/singularity/SGLLiquidation.sol:SGLLiquidation",
        "label": "conservator",
        "offset": 1,
        "slot": "13",
        "type": "t_address"
      },
      {
        "astId": 13239,
        "contract": "contracts/singularity/SGLLiquidation.sol:SGLLiquidation",
        "label": "totalCollateralShare",
        "offset": 0,
        "slot": "14",
        "type": "t_uint256"
      },
      {
        "astId": 13242,
        "contract": "contracts/singularity/SGLLiquidation.sol:SGLLiquidation",
        "label": "totalAsset",
        "offset": 0,
        "slot": "15",
        "type": "t_struct(Rebase)1890_storage"
      },
      {
        "astId": 13245,
        "contract": "contracts/singularity/SGLLiquidation.sol:SGLLiquidation",
        "label": "totalBorrow",
        "offset": 0,
        "slot": "16",
        "type": "t_struct(Rebase)1890_storage"
      },
      {
        "astId": 13247,
        "contract": "contracts/singularity/SGLLiquidation.sol:SGLLiquidation",
        "label": "totalBorrowCap",
        "offset": 0,
        "slot": "17",
        "type": "t_uint256"
      },
      {
        "astId": 13253,
        "contract": "contracts/singularity/SGLLiquidation.sol:SGLLiquidation",
        "label": "_yieldBoxShares",
        "offset": 0,
        "slot": "18",
        "type": "t_mapping(t_address,t_mapping(t_uint256,t_uint256))"
      },
      {
        "astId": 13257,
        "contract": "contracts/singularity/SGLLiquidation.sol:SGLLiquidation",
        "label": "userCollateralShare",
        "offset": 0,
        "slot": "19",
        "type": "t_mapping(t_address,t_uint256)"
      },
      {
        "astId": 13261,
        "contract": "contracts/singularity/SGLLiquidation.sol:SGLLiquidation",
        "label": "userBorrowPart",
        "offset": 0,
        "slot": "20",
        "type": "t_mapping(t_address,t_uint256)"
      },
      {
        "astId": 13267,
        "contract": "contracts/singularity/SGLLiquidation.sol:SGLLiquidation",
        "label": "isApprovedForAll",
        "offset": 0,
        "slot": "21",
        "type": "t_mapping(t_address,t_mapping(t_address,t_bool))"
      },
      {
        "astId": 13270,
        "contract": "contracts/singularity/SGLLiquidation.sol:SGLLiquidation",
        "label": "exchangeRate",
        "offset": 0,
        "slot": "22",
        "type": "t_uint256"
      },
      {
        "astId": 13273,
        "contract": "contracts/singularity/SGLLiquidation.sol:SGLLiquidation",
        "label": "oracle",
        "offset": 0,
        "slot": "23",
        "type": "t_contract(IOracle)6289"
      },
      {
        "astId": 13275,
        "contract": "contracts/singularity/SGLLiquidation.sol:SGLLiquidation",
        "label": "oracleData",
        "offset": 0,
        "slot": "24",
        "type": "t_bytes_storage"
      },
      {
        "astId": 13278,
        "contract": "contracts/singularity/SGLLiquidation.sol:SGLLiquidation",
        "label": "callerFee",
        "offset": 0,
        "slot": "25",
        "type": "t_uint256"
      },
      {
        "astId": 13281,
        "contract": "contracts/singularity/SGLLiquidation.sol:SGLLiquidation",
        "label": "protocolFee",
        "offset": 0,
        "slot": "26",
        "type": "t_uint256"
      },
      {
        "astId": 13284,
        "contract": "contracts/singularity/SGLLiquidation.sol:SGLLiquidation",
        "label": "borrowOpeningFee",
        "offset": 0,
        "slot": "27",
        "type": "t_uint256"
      },
      {
        "astId": 13287,
        "contract": "contracts/singularity/SGLLiquidation.sol:SGLLiquidation",
        "label": "liquidationMultiplier",
        "offset": 0,
        "slot": "28",
        "type": "t_uint256"
      },
      {
        "astId": 13290,
        "contract": "contracts/singularity/SGLLiquidation.sol:SGLLiquidation",
        "label": "orderBookLiquidationMultiplier",
        "offset": 0,
        "slot": "29",
        "type": "t_uint256"
      },
      {
        "astId": 13293,
        "contract": "contracts/singularity/SGLLiquidation.sol:SGLLiquidation",
        "label": "closedCollateralizationRate",
        "offset": 0,
        "slot": "30",
        "type": "t_uint256"
      },
      {
        "astId": 13296,
        "contract": "contracts/singularity/SGLLiquidation.sol:SGLLiquidation",
        "label": "lqCollateralizationRate",
        "offset": 0,
        "slot": "31",
        "type": "t_uint256"
      },
      {
        "astId": 13299,
        "contract": "contracts/singularity/SGLLiquidation.sol:SGLLiquidation",
        "label": "minLiquidatorReward",
        "offset": 0,
        "slot": "32",
        "type": "t_uint256"
      },
      {
        "astId": 13302,
        "contract": "contracts/singularity/SGLLiquidation.sol:SGLLiquidation",
        "label": "maxLiquidatorReward",
        "offset": 0,
        "slot": "33",
        "type": "t_uint256"
      },
      {
        "astId": 13305,
        "contract": "contracts/singularity/SGLLiquidation.sol:SGLLiquidation",
        "label": "liquidationBonusAmount",
        "offset": 0,
        "slot": "34",
        "type": "t_uint256"
      },
      {
        "astId": 13459,
        "contract": "contracts/singularity/SGLLiquidation.sol:SGLLiquidation",
        "label": "EXCHANGE_RATE_PRECISION",
        "offset": 0,
        "slot": "35",
        "type": "t_uint256"
      },
      {
        "astId": 10699,
        "contract": "contracts/singularity/SGLLiquidation.sol:SGLLiquidation",
        "label": "initialized",
        "offset": 0,
        "slot": "36",
        "type": "t_bool"
      }
    ],
    "types": {
      "t_address": {
        "encoding": "inplace",
        "label": "address",
        "numberOfBytes": "20"
      },
      "t_bool": {
        "encoding": "inplace",
        "label": "bool",
        "numberOfBytes": "1"
      },
      "t_bytes_storage": {
        "encoding": "bytes",
        "label": "bytes",
        "numberOfBytes": "32"
      },
      "t_contract(IERC20)1099": {
        "encoding": "inplace",
        "label": "contract IERC20",
        "numberOfBytes": "20"
      },
      "t_contract(ILiquidationQueue)7408": {
        "encoding": "inplace",
        "label": "contract ILiquidationQueue",
        "numberOfBytes": "20"
      },
      "t_contract(IOracle)6289": {
        "encoding": "inplace",
        "label": "contract IOracle",
        "numberOfBytes": "20"
      },
      "t_contract(IPenrose)6365": {
        "encoding": "inplace",
        "label": "contract IPenrose",
        "numberOfBytes": "20"
      },
      "t_contract(YieldBox)30913": {
        "encoding": "inplace",
        "label": "contract YieldBox",
        "numberOfBytes": "20"
      },
      "t_mapping(t_address,t_bool)": {
        "encoding": "mapping",
        "key": "t_address",
        "label": "mapping(address => bool)",
        "numberOfBytes": "32",
        "value": "t_bool"
      },
      "t_mapping(t_address,t_mapping(t_address,t_bool))": {
        "encoding": "mapping",
        "key": "t_address",
        "label": "mapping(address => mapping(address => bool))",
        "numberOfBytes": "32",
        "value": "t_mapping(t_address,t_bool)"
      },
      "t_mapping(t_address,t_mapping(t_address,t_uint256))": {
        "encoding": "mapping",
        "key": "t_address",
        "label": "mapping(address => mapping(address => uint256))",
        "numberOfBytes": "32",
        "value": "t_mapping(t_address,t_uint256)"
      },
      "t_mapping(t_address,t_mapping(t_uint256,t_uint256))": {
        "encoding": "mapping",
        "key": "t_address",
        "label": "mapping(address => mapping(uint256 => uint256))",
        "numberOfBytes": "32",
        "value": "t_mapping(t_uint256,t_uint256)"
      },
      "t_mapping(t_address,t_uint256)": {
        "encoding": "mapping",
        "key": "t_address",
        "label": "mapping(address => uint256)",
        "numberOfBytes": "32",
        "value": "t_uint256"
      },
      "t_mapping(t_uint256,t_uint256)": {
        "encoding": "mapping",
        "key": "t_uint256",
        "label": "mapping(uint256 => uint256)",
        "numberOfBytes": "32",
        "value": "t_uint256"
      },
      "t_struct(AccrueInfo)14835_storage": {
        "encoding": "inplace",
        "label": "struct ISingularity.AccrueInfo",
        "members": [
          {
            "astId": 14830,
            "contract": "contracts/singularity/SGLLiquidation.sol:SGLLiquidation",
            "label": "interestPerSecond",
            "offset": 0,
            "slot": "0",
            "type": "t_uint64"
          },
          {
            "astId": 14832,
            "contract": "contracts/singularity/SGLLiquidation.sol:SGLLiquidation",
            "label": "lastAccrued",
            "offset": 8,
            "slot": "0",
            "type": "t_uint64"
          },
          {
            "astId": 14834,
            "contract": "contracts/singularity/SGLLiquidation.sol:SGLLiquidation",
            "label": "feesEarnedFraction",
            "offset": 16,
            "slot": "0",
            "type": "t_uint128"
          }
        ],
        "numberOfBytes": "32"
      },
      "t_struct(Rebase)1890_storage": {
        "encoding": "inplace",
        "label": "struct Rebase",
        "members": [
          {
            "astId": 1887,
            "contract": "contracts/singularity/SGLLiquidation.sol:SGLLiquidation",
            "label": "elastic",
            "offset": 0,
            "slot": "0",
            "type": "t_uint128"
          },
          {
            "astId": 1889,
            "contract": "contracts/singularity/SGLLiquidation.sol:SGLLiquidation",
            "label": "base",
            "offset": 16,
            "slot": "0",
            "type": "t_uint128"
          }
        ],
        "numberOfBytes": "32"
      },
      "t_uint128": {
        "encoding": "inplace",
        "label": "uint128",
        "numberOfBytes": "16"
      },
      "t_uint256": {
        "encoding": "inplace",
        "label": "uint256",
        "numberOfBytes": "32"
      },
      "t_uint64": {
        "encoding": "inplace",
        "label": "uint64",
        "numberOfBytes": "8"
      }
    }
  }
}