{
  "address": "0xfb7BDaD93B0BF7E3F52BFDc09a3196dc43C9ddff",
  "abi": [
    {
      "inputs": [
        {
          "internalType": "address",
          "name": "_from",
          "type": "address"
        },
        {
          "internalType": "address",
          "name": "_operator",
          "type": "address"
        }
      ],
      "name": "NotApproved",
      "type": "error"
    },
    {
      "anonymous": false,
      "inputs": [
        {
          "indexed": true,
          "internalType": "address",
          "name": "owner",
          "type": "address"
        },
        {
          "indexed": true,
          "internalType": "address",
          "name": "spender",
          "type": "address"
        },
        {
          "indexed": false,
          "internalType": "uint256",
          "name": "value",
          "type": "uint256"
        }
      ],
      "name": "Approval",
      "type": "event"
    },
    {
      "anonymous": false,
      "inputs": [
        {
          "indexed": true,
          "internalType": "address",
          "name": "old",
          "type": "address"
        },
        {
          "indexed": true,
          "internalType": "address",
          "name": "_new",
          "type": "address"
        }
      ],
      "name": "ConservatorUpdated",
      "type": "event"
    },
    {
      "anonymous": false,
      "inputs": [
        {
          "indexed": false,
          "internalType": "uint256",
          "name": "accruedAmount",
          "type": "uint256"
        },
        {
          "indexed": false,
          "internalType": "uint256",
          "name": "feeFraction",
          "type": "uint256"
        },
        {
          "indexed": false,
          "internalType": "uint64",
          "name": "rate",
          "type": "uint64"
        },
        {
          "indexed": false,
          "internalType": "uint256",
          "name": "utilization",
          "type": "uint256"
        }
      ],
      "name": "LogAccrue",
      "type": "event"
    },
    {
      "anonymous": false,
      "inputs": [
        {
          "indexed": true,
          "internalType": "address",
          "name": "from",
          "type": "address"
        },
        {
          "indexed": true,
          "internalType": "address",
          "name": "to",
          "type": "address"
        },
        {
          "indexed": false,
          "internalType": "uint256",
          "name": "share",
          "type": "uint256"
        },
        {
          "indexed": false,
          "internalType": "uint256",
          "name": "fraction",
          "type": "uint256"
        }
      ],
      "name": "LogAddAsset",
      "type": "event"
    },
    {
      "anonymous": false,
      "inputs": [
        {
          "indexed": true,
          "internalType": "address",
          "name": "from",
          "type": "address"
        },
        {
          "indexed": true,
          "internalType": "address",
          "name": "to",
          "type": "address"
        },
        {
          "indexed": false,
          "internalType": "uint256",
          "name": "share",
          "type": "uint256"
        }
      ],
      "name": "LogAddCollateral",
      "type": "event"
    },
    {
      "anonymous": false,
      "inputs": [
        {
          "indexed": true,
          "internalType": "address",
          "name": "_from",
          "type": "address"
        },
        {
          "indexed": true,
          "internalType": "address",
          "name": "_operator",
          "type": "address"
        },
        {
          "indexed": false,
          "internalType": "bool",
          "name": "_approved",
          "type": "bool"
        }
      ],
      "name": "LogApprovalForAll",
      "type": "event"
    },
    {
      "anonymous": false,
      "inputs": [
        {
          "indexed": true,
          "internalType": "address",
          "name": "from",
          "type": "address"
        },
        {
          "indexed": true,
          "internalType": "address",
          "name": "to",
          "type": "address"
        },
        {
          "indexed": false,
          "internalType": "uint256",
          "name": "amount",
          "type": "uint256"
        },
        {
          "indexed": false,
          "internalType": "uint256",
          "name": "feeAmount",
          "type": "uint256"
        },
        {
          "indexed": false,
          "internalType": "uint256",
          "name": "part",
          "type": "uint256"
        }
      ],
      "name": "LogBorrow",
      "type": "event"
    },
    {
      "anonymous": false,
      "inputs": [
        {
          "indexed": false,
          "internalType": "uint256",
          "name": "_oldVal",
          "type": "uint256"
        },
        {
          "indexed": false,
          "internalType": "uint256",
          "name": "_newVal",
          "type": "uint256"
        }
      ],
      "name": "LogBorrowCapUpdated",
      "type": "event"
    },
    {
      "anonymous": false,
      "inputs": [
        {
          "indexed": false,
          "internalType": "uint256",
          "name": "rate",
          "type": "uint256"
        }
      ],
      "name": "LogExchangeRate",
      "type": "event"
    },
    {
      "anonymous": false,
      "inputs": [
        {
          "indexed": true,
          "internalType": "address",
          "name": "from",
          "type": "address"
        },
        {
          "indexed": true,
          "internalType": "address",
          "name": "to",
          "type": "address"
        },
        {
          "indexed": false,
          "internalType": "uint256",
          "name": "share",
          "type": "uint256"
        },
        {
          "indexed": false,
          "internalType": "uint256",
          "name": "fraction",
          "type": "uint256"
        }
      ],
      "name": "LogRemoveAsset",
      "type": "event"
    },
    {
      "anonymous": false,
      "inputs": [
        {
          "indexed": true,
          "internalType": "address",
          "name": "from",
          "type": "address"
        },
        {
          "indexed": true,
          "internalType": "address",
          "name": "to",
          "type": "address"
        },
        {
          "indexed": false,
          "internalType": "uint256",
          "name": "share",
          "type": "uint256"
        }
      ],
      "name": "LogRemoveCollateral",
      "type": "event"
    },
    {
      "anonymous": false,
      "inputs": [
        {
          "indexed": true,
          "internalType": "address",
          "name": "from",
          "type": "address"
        },
        {
          "indexed": true,
          "internalType": "address",
          "name": "to",
          "type": "address"
        },
        {
          "indexed": false,
          "internalType": "uint256",
          "name": "amount",
          "type": "uint256"
        },
        {
          "indexed": false,
          "internalType": "uint256",
          "name": "part",
          "type": "uint256"
        }
      ],
      "name": "LogRepay",
      "type": "event"
    },
    {
      "anonymous": false,
      "inputs": [
        {
          "indexed": true,
          "internalType": "address",
          "name": "feeTo",
          "type": "address"
        },
        {
          "indexed": false,
          "internalType": "uint256",
          "name": "feesEarnedFraction",
          "type": "uint256"
        }
      ],
      "name": "LogWithdrawFees",
      "type": "event"
    },
    {
      "anonymous": false,
      "inputs": [
        {
          "indexed": false,
          "internalType": "uint256",
          "name": "feeShares",
          "type": "uint256"
        },
        {
          "indexed": false,
          "internalType": "uint256",
          "name": "ethAmount",
          "type": "uint256"
        }
      ],
      "name": "LogYieldBoxFeesDeposit",
      "type": "event"
    },
    {
      "anonymous": false,
      "inputs": [
        {
          "indexed": true,
          "internalType": "address",
          "name": "previousOwner",
          "type": "address"
        },
        {
          "indexed": true,
          "internalType": "address",
          "name": "newOwner",
          "type": "address"
        }
      ],
      "name": "OwnershipTransferred",
      "type": "event"
    },
    {
      "anonymous": false,
      "inputs": [
        {
          "indexed": false,
          "internalType": "bool",
          "name": "oldState",
          "type": "bool"
        },
        {
          "indexed": false,
          "internalType": "bool",
          "name": "newState",
          "type": "bool"
        }
      ],
      "name": "PausedUpdated",
      "type": "event"
    },
    {
      "anonymous": false,
      "inputs": [
        {
          "indexed": true,
          "internalType": "address",
          "name": "from",
          "type": "address"
        },
        {
          "indexed": true,
          "internalType": "address",
          "name": "to",
          "type": "address"
        },
        {
          "indexed": false,
          "internalType": "uint256",
          "name": "value",
          "type": "uint256"
        }
      ],
      "name": "Transfer",
      "type": "event"
    },
    {
      "inputs": [],
      "name": "DOMAIN_SEPARATOR",
      "outputs": [
        {
          "internalType": "bytes32",
          "name": "",
          "type": "bytes32"
        }
      ],
      "stateMutability": "view",
      "type": "function"
    },
    {
      "inputs": [],
      "name": "accrue",
      "outputs": [],
      "stateMutability": "nonpayable",
      "type": "function"
    },
    {
      "inputs": [],
      "name": "accrueInfo",
      "outputs": [
        {
          "internalType": "uint64",
          "name": "interestPerSecond",
          "type": "uint64"
        },
        {
          "internalType": "uint64",
          "name": "lastAccrued",
          "type": "uint64"
        },
        {
          "internalType": "uint128",
          "name": "feesEarnedFraction",
          "type": "uint128"
        }
      ],
      "stateMutability": "view",
      "type": "function"
    },
    {
      "inputs": [
        {
          "internalType": "address",
          "name": "from",
          "type": "address"
        },
        {
          "internalType": "address",
          "name": "to",
          "type": "address"
        },
        {
          "internalType": "bool",
          "name": "skim",
          "type": "bool"
        },
        {
          "internalType": "uint256",
          "name": "share",
          "type": "uint256"
        }
      ],
      "name": "addAsset",
      "outputs": [
        {
          "internalType": "uint256",
          "name": "fraction",
          "type": "uint256"
        }
      ],
      "stateMutability": "nonpayable",
      "type": "function"
    },
    {
      "inputs": [
        {
          "internalType": "address",
          "name": "from",
          "type": "address"
        },
        {
          "internalType": "address",
          "name": "to",
          "type": "address"
        },
        {
          "internalType": "bool",
          "name": "skim",
          "type": "bool"
        },
        {
          "internalType": "uint256",
          "name": "share",
          "type": "uint256"
        }
      ],
      "name": "addCollateral",
      "outputs": [],
      "stateMutability": "nonpayable",
      "type": "function"
    },
    {
      "inputs": [
        {
          "internalType": "address",
          "name": "",
          "type": "address"
        },
        {
          "internalType": "address",
          "name": "",
          "type": "address"
        }
      ],
      "name": "allowance",
      "outputs": [
        {
          "internalType": "uint256",
          "name": "",
          "type": "uint256"
        }
      ],
      "stateMutability": "view",
      "type": "function"
    },
    {
      "inputs": [
        {
          "internalType": "address",
          "name": "spender",
          "type": "address"
        },
        {
          "internalType": "uint256",
          "name": "amount",
          "type": "uint256"
        }
      ],
      "name": "approve",
      "outputs": [
        {
          "internalType": "bool",
          "name": "",
          "type": "bool"
        }
      ],
      "stateMutability": "nonpayable",
      "type": "function"
    },
    {
      "inputs": [],
      "name": "asset",
      "outputs": [
        {
          "internalType": "contract IERC20",
          "name": "",
          "type": "address"
        }
      ],
      "stateMutability": "view",
      "type": "function"
    },
    {
      "inputs": [],
      "name": "assetId",
      "outputs": [
        {
          "internalType": "uint256",
          "name": "",
          "type": "uint256"
        }
      ],
      "stateMutability": "view",
      "type": "function"
    },
    {
      "inputs": [
        {
          "internalType": "address",
          "name": "",
          "type": "address"
        }
      ],
      "name": "balanceOf",
      "outputs": [
        {
          "internalType": "uint256",
          "name": "",
          "type": "uint256"
        }
      ],
      "stateMutability": "view",
      "type": "function"
    },
    {
      "inputs": [
        {
          "internalType": "address",
          "name": "from",
          "type": "address"
        },
        {
          "internalType": "address",
          "name": "to",
          "type": "address"
        },
        {
          "internalType": "uint256",
          "name": "amount",
          "type": "uint256"
        }
      ],
      "name": "borrow",
      "outputs": [
        {
          "internalType": "uint256",
          "name": "part",
          "type": "uint256"
        },
        {
          "internalType": "uint256",
          "name": "share",
          "type": "uint256"
        }
      ],
      "stateMutability": "nonpayable",
      "type": "function"
    },
    {
      "inputs": [],
      "name": "borrowOpeningFee",
      "outputs": [
        {
          "internalType": "uint256",
          "name": "",
          "type": "uint256"
        }
      ],
      "stateMutability": "view",
      "type": "function"
    },
    {
      "inputs": [],
      "name": "callerFee",
      "outputs": [
        {
          "internalType": "uint256",
          "name": "",
          "type": "uint256"
        }
      ],
      "stateMutability": "view",
      "type": "function"
    },
    {
      "inputs": [],
      "name": "claimOwnership",
      "outputs": [],
      "stateMutability": "nonpayable",
      "type": "function"
    },
    {
      "inputs": [],
      "name": "closedCollateralizationRate",
      "outputs": [
        {
          "internalType": "uint256",
          "name": "",
          "type": "uint256"
        }
      ],
      "stateMutability": "view",
      "type": "function"
    },
    {
      "inputs": [],
      "name": "collateral",
      "outputs": [
        {
          "internalType": "contract IERC20",
          "name": "",
          "type": "address"
        }
      ],
      "stateMutability": "view",
      "type": "function"
    },
    {
      "inputs": [],
      "name": "collateralId",
      "outputs": [
        {
          "internalType": "uint256",
          "name": "",
          "type": "uint256"
        }
      ],
      "stateMutability": "view",
      "type": "function"
    },
    {
      "inputs": [
        {
          "internalType": "address",
          "name": "user",
          "type": "address"
        },
        {
          "internalType": "uint256",
          "name": "_exchangeRate",
          "type": "uint256"
        }
      ],
      "name": "computeClosingFactor",
      "outputs": [
        {
          "internalType": "uint256",
          "name": "",
          "type": "uint256"
        }
      ],
      "stateMutability": "view",
      "type": "function"
    },
    {
      "inputs": [
        {
          "internalType": "address",
          "name": "user",
          "type": "address"
        },
        {
          "internalType": "uint256",
          "name": "_exchangeRate",
          "type": "uint256"
        }
      ],
      "name": "computeLiquidatorReward",
      "outputs": [
        {
          "internalType": "uint256",
          "name": "",
          "type": "uint256"
        }
      ],
      "stateMutability": "view",
      "type": "function"
    },
    {
      "inputs": [
        {
          "internalType": "address",
          "name": "user",
          "type": "address"
        },
        {
          "internalType": "uint256",
          "name": "_exchangeRate",
          "type": "uint256"
        }
      ],
      "name": "computeTVLInfo",
      "outputs": [
        {
          "internalType": "uint256",
          "name": "amountToSolvency",
          "type": "uint256"
        },
        {
          "internalType": "uint256",
          "name": "minTVL",
          "type": "uint256"
        },
        {
          "internalType": "uint256",
          "name": "maxTVL",
          "type": "uint256"
        }
      ],
      "stateMutability": "view",
      "type": "function"
    },
    {
      "inputs": [],
      "name": "conservator",
      "outputs": [
        {
          "internalType": "address",
          "name": "",
          "type": "address"
        }
      ],
      "stateMutability": "view",
      "type": "function"
    },
    {
      "inputs": [],
      "name": "decimals",
      "outputs": [
        {
          "internalType": "uint8",
          "name": "",
          "type": "uint8"
        }
      ],
      "stateMutability": "view",
      "type": "function"
    },
    {
      "inputs": [],
      "name": "exchangeRate",
      "outputs": [
        {
          "internalType": "uint256",
          "name": "",
          "type": "uint256"
        }
      ],
      "stateMutability": "view",
      "type": "function"
    },
    {
      "inputs": [
        {
          "internalType": "address",
          "name": "",
          "type": "address"
        },
        {
          "internalType": "address",
          "name": "",
          "type": "address"
        }
      ],
      "name": "isApprovedForAll",
      "outputs": [
        {
          "internalType": "bool",
          "name": "",
          "type": "bool"
        }
      ],
      "stateMutability": "view",
      "type": "function"
    },
    {
      "inputs": [],
      "name": "liquidationBonusAmount",
      "outputs": [
        {
          "internalType": "uint256",
          "name": "",
          "type": "uint256"
        }
      ],
      "stateMutability": "view",
      "type": "function"
    },
    {
      "inputs": [],
      "name": "liquidationMultiplier",
      "outputs": [
        {
          "internalType": "uint256",
          "name": "",
          "type": "uint256"
        }
      ],
      "stateMutability": "view",
      "type": "function"
    },
    {
      "inputs": [],
      "name": "liquidationQueue",
      "outputs": [
        {
          "internalType": "contract ILiquidationQueue",
          "name": "",
          "type": "address"
        }
      ],
      "stateMutability": "view",
      "type": "function"
    },
    {
      "inputs": [],
      "name": "lqCollateralizationRate",
      "outputs": [
        {
          "internalType": "uint256",
          "name": "",
          "type": "uint256"
        }
      ],
      "stateMutability": "view",
      "type": "function"
    },
    {
      "inputs": [],
      "name": "maxLiquidatorReward",
      "outputs": [
        {
          "internalType": "uint256",
          "name": "",
          "type": "uint256"
        }
      ],
      "stateMutability": "view",
      "type": "function"
    },
    {
      "inputs": [],
      "name": "minLiquidatorReward",
      "outputs": [
        {
          "internalType": "uint256",
          "name": "",
          "type": "uint256"
        }
      ],
      "stateMutability": "view",
      "type": "function"
    },
    {
      "inputs": [],
      "name": "name",
      "outputs": [
        {
          "internalType": "string",
          "name": "",
          "type": "string"
        }
      ],
      "stateMutability": "view",
      "type": "function"
    },
    {
      "inputs": [
        {
          "internalType": "address",
          "name": "",
          "type": "address"
        }
      ],
      "name": "nonces",
      "outputs": [
        {
          "internalType": "uint256",
          "name": "",
          "type": "uint256"
        }
      ],
      "stateMutability": "view",
      "type": "function"
    },
    {
      "inputs": [],
      "name": "oracle",
      "outputs": [
        {
          "internalType": "contract IOracle",
          "name": "",
          "type": "address"
        }
      ],
      "stateMutability": "view",
      "type": "function"
    },
    {
      "inputs": [],
      "name": "oracleData",
      "outputs": [
        {
          "internalType": "bytes",
          "name": "",
          "type": "bytes"
        }
      ],
      "stateMutability": "view",
      "type": "function"
    },
    {
      "inputs": [],
      "name": "orderBookLiquidationMultiplier",
      "outputs": [
        {
          "internalType": "uint256",
          "name": "",
          "type": "uint256"
        }
      ],
      "stateMutability": "view",
      "type": "function"
    },
    {
      "inputs": [],
      "name": "owner",
      "outputs": [
        {
          "internalType": "address",
          "name": "",
          "type": "address"
        }
      ],
      "stateMutability": "view",
      "type": "function"
    },
    {
      "inputs": [],
      "name": "paused",
      "outputs": [
        {
          "internalType": "bool",
          "name": "",
          "type": "bool"
        }
      ],
      "stateMutability": "view",
      "type": "function"
    },
    {
      "inputs": [],
      "name": "pendingOwner",
      "outputs": [
        {
          "internalType": "address",
          "name": "",
          "type": "address"
        }
      ],
      "stateMutability": "view",
      "type": "function"
    },
    {
      "inputs": [],
      "name": "penrose",
      "outputs": [
        {
          "internalType": "contract IPenrose",
          "name": "",
          "type": "address"
        }
      ],
      "stateMutability": "view",
      "type": "function"
    },
    {
      "inputs": [
        {
          "internalType": "address",
          "name": "owner_",
          "type": "address"
        },
        {
          "internalType": "address",
          "name": "spender",
          "type": "address"
        },
        {
          "internalType": "uint256",
          "name": "value",
          "type": "uint256"
        },
        {
          "internalType": "uint256",
          "name": "deadline",
          "type": "uint256"
        },
        {
          "internalType": "uint8",
          "name": "v",
          "type": "uint8"
        },
        {
          "internalType": "bytes32",
          "name": "r",
          "type": "bytes32"
        },
        {
          "internalType": "bytes32",
          "name": "s",
          "type": "bytes32"
        }
      ],
      "name": "permit",
      "outputs": [],
      "stateMutability": "nonpayable",
      "type": "function"
    },
    {
      "inputs": [],
      "name": "protocolFee",
      "outputs": [
        {
          "internalType": "uint256",
          "name": "",
          "type": "uint256"
        }
      ],
      "stateMutability": "view",
      "type": "function"
    },
    {
      "inputs": [
        {
          "internalType": "address",
          "name": "from",
          "type": "address"
        },
        {
          "internalType": "address",
          "name": "to",
          "type": "address"
        },
        {
          "internalType": "uint256",
          "name": "fraction",
          "type": "uint256"
        }
      ],
      "name": "removeAsset",
      "outputs": [
        {
          "internalType": "uint256",
          "name": "share",
          "type": "uint256"
        }
      ],
      "stateMutability": "nonpayable",
      "type": "function"
    },
    {
      "inputs": [
        {
          "internalType": "address",
          "name": "from",
          "type": "address"
        },
        {
          "internalType": "address",
          "name": "to",
          "type": "address"
        },
        {
          "internalType": "uint256",
          "name": "share",
          "type": "uint256"
        }
      ],
      "name": "removeCollateral",
      "outputs": [],
      "stateMutability": "nonpayable",
      "type": "function"
    },
    {
      "inputs": [
        {
          "internalType": "address",
          "name": "from",
          "type": "address"
        },
        {
          "internalType": "address",
          "name": "to",
          "type": "address"
        },
        {
          "internalType": "bool",
          "name": "skim",
          "type": "bool"
        },
        {
          "internalType": "uint256",
          "name": "part",
          "type": "uint256"
        }
      ],
      "name": "repay",
      "outputs": [
        {
          "internalType": "uint256",
          "name": "amount",
          "type": "uint256"
        }
      ],
      "stateMutability": "nonpayable",
      "type": "function"
    },
    {
      "inputs": [],
      "name": "symbol",
      "outputs": [
        {
          "internalType": "string",
          "name": "",
          "type": "string"
        }
      ],
      "stateMutability": "view",
      "type": "function"
    },
    {
      "inputs": [],
      "name": "totalAsset",
      "outputs": [
        {
          "internalType": "uint128",
          "name": "elastic",
          "type": "uint128"
        },
        {
          "internalType": "uint128",
          "name": "base",
          "type": "uint128"
        }
      ],
      "stateMutability": "view",
      "type": "function"
    },
    {
      "inputs": [],
      "name": "totalBorrow",
      "outputs": [
        {
          "internalType": "uint128",
          "name": "elastic",
          "type": "uint128"
        },
        {
          "internalType": "uint128",
          "name": "base",
          "type": "uint128"
        }
      ],
      "stateMutability": "view",
      "type": "function"
    },
    {
      "inputs": [],
      "name": "totalBorrowCap",
      "outputs": [
        {
          "internalType": "uint256",
          "name": "",
          "type": "uint256"
        }
      ],
      "stateMutability": "view",
      "type": "function"
    },
    {
      "inputs": [],
      "name": "totalCollateralShare",
      "outputs": [
        {
          "internalType": "uint256",
          "name": "",
          "type": "uint256"
        }
      ],
      "stateMutability": "view",
      "type": "function"
    },
    {
      "inputs": [],
      "name": "totalSupply",
      "outputs": [
        {
          "internalType": "uint256",
          "name": "",
          "type": "uint256"
        }
      ],
      "stateMutability": "view",
      "type": "function"
    },
    {
      "inputs": [
        {
          "internalType": "address",
          "name": "to",
          "type": "address"
        },
        {
          "internalType": "uint256",
          "name": "amount",
          "type": "uint256"
        }
      ],
      "name": "transfer",
      "outputs": [
        {
          "internalType": "bool",
          "name": "",
          "type": "bool"
        }
      ],
      "stateMutability": "nonpayable",
      "type": "function"
    },
    {
      "inputs": [
        {
          "internalType": "address",
          "name": "from",
          "type": "address"
        },
        {
          "internalType": "address",
          "name": "to",
          "type": "address"
        },
        {
          "internalType": "uint256",
          "name": "amount",
          "type": "uint256"
        }
      ],
      "name": "transferFrom",
      "outputs": [
        {
          "internalType": "bool",
          "name": "",
          "type": "bool"
        }
      ],
      "stateMutability": "nonpayable",
      "type": "function"
    },
    {
      "inputs": [
        {
          "internalType": "address",
          "name": "newOwner",
          "type": "address"
        },
        {
          "internalType": "bool",
          "name": "direct",
          "type": "bool"
        },
        {
          "internalType": "bool",
          "name": "renounce",
          "type": "bool"
        }
      ],
      "name": "transferOwnership",
      "outputs": [],
      "stateMutability": "nonpayable",
      "type": "function"
    },
    {
      "inputs": [],
      "name": "updateExchangeRate",
      "outputs": [
        {
          "internalType": "bool",
          "name": "updated",
          "type": "bool"
        },
        {
          "internalType": "uint256",
          "name": "rate",
          "type": "uint256"
        }
      ],
      "stateMutability": "nonpayable",
      "type": "function"
    },
    {
      "inputs": [
        {
          "internalType": "address",
          "name": "",
          "type": "address"
        }
      ],
      "name": "userBorrowPart",
      "outputs": [
        {
          "internalType": "uint256",
          "name": "",
          "type": "uint256"
        }
      ],
      "stateMutability": "view",
      "type": "function"
    },
    {
      "inputs": [
        {
          "internalType": "address",
          "name": "",
          "type": "address"
        }
      ],
      "name": "userCollateralShare",
      "outputs": [
        {
          "internalType": "uint256",
          "name": "",
          "type": "uint256"
        }
      ],
      "stateMutability": "view",
      "type": "function"
    },
    {
      "inputs": [],
      "name": "yieldBox",
      "outputs": [
        {
          "internalType": "contract YieldBox",
          "name": "",
          "type": "address"
        }
      ],
      "stateMutability": "view",
      "type": "function"
    }
  ],
  "transactionHash": "0xb1c42927d801e2aaec8b42aa5d426abbea2b50bb04d796a16ab4e9bdf3c4e5de",
  "args": [],
  "numDeployments": 1,
  "solcInputHash": "c119914891fc265cca39336c119b4e24",
  "bytecode": "0x60c06040526103e8601955612710601a556032601b556201b580601c556201f018601d55620124f8601e556161a8601f556103e8602055612710602155612710602255670de0b6b3a764000060235534801561005a57600080fd5b50600080546001600160a01b0319163390811782556040519091907f8be0079c531659141344cd1fd0a4f28419497f9722a3daafe3b4186f6b6457e0908290a34660a08190526100fd90604080517f47e79534a245952e8b16893a336b85a3d9ea9fa8c573f3d803afb92a794692186020820152908101829052306060820152600090608001604051602081830303815290604052805190602001209050919050565b60805260805160a0516140df6200012660003960006124450152600061247601526140df6000f3fe608060405234801561001057600080fd5b50600436106103835760003560e01c80637dc0d1d0116101de578063c9621f3b1161010f578063de406577116100ad578063eec0f42e1161007c578063eec0f42e14610820578063f4d9375314610829578063f8ba4cff1461083c578063f9557ccb1461084457600080fd5b8063de406577146107c3578063e0996cb6146107d6578063e30c3978146107df578063e985e9c5146107f257600080fd5b8063ce8849ed116100e9578063ce8849ed1461075a578063d505accf14610772578063d8dfeb4514610785578063dd62ed3e1461079857600080fd5b8063c9621f3b1461072b578063cce19f8114610734578063cd0211eb1461074757600080fd5b806399a970281161017c578063b0e21e8a11610156578063b0e21e8a1461069c578063b27c0e74146106a5578063b6b113d814610705578063c23ea21f1461071857600080fd5b806399a97028146106485780639e15e89f1461065b578063a9059cbb1461068957600080fd5b80638c5d0ed3116101b85780638c5d0ed31461061b5780638da5cb5b14610624578063959916dc1461063757806395d89b411461064057600080fd5b80637dc0d1d0146105aa5780637ecebe00146105bd5780638285ef40146105dd57600080fd5b806340626d8b116102b8578063529898f2116102565780636587adb8116102305780636587adb81461055c5780636c3d8b8f1461056f57806370a082311461058257806374645ff3146105a257600080fd5b8063529898f21461053d57806357935462146105465780635c975abb1461054f57600080fd5b806348e4163e1161029257806348e4163e146104e45780634d7f2a34146105045780634e71e0c81461050d5780635224372c1461051557600080fd5b806340626d8b146104c957806344de240a146104d2578063473e3ce7146104db57600080fd5b806323b872dd1161032557806334d441d0116102ff57806334d441d0146104845780633644e5151461048d57806338d52e0f146104955780633ba0b9a9146104c057600080fd5b806323b872dd1461044457806325be782414610457578063313ce5671461046a57600080fd5b8063095ea7b311610361578063095ea7b3146103d657806318160ddd146103f95780631c9e379b1461041b5780631e7ce4481461043b57600080fd5b806302ce728f1461038857806306fdde03146103ac578063078dfbe7146103c1575b600080fd5b610390610862565b6040805192151583526020830191909152015b60405180910390f35b6103b4610938565b6040516103a391906138a8565b6103d46103cf3660046138e3565b610a10565b005b6103e96103e436600461392c565b610b54565b60405190151581526020016103a3565b600f54600160801b90046001600160801b03165b6040519081526020016103a3565b61040d610429366004613956565b60136020526000908152604090205481565b61040d601d5481565b6103e9610452366004613971565b610bc1565b6103d46104653660046139ad565b610dce565b610472610f1f565b60405160ff90911681526020016103a3565b61040d60195481565b61040d610f3c565b600a546104a8906001600160a01b031681565b6040516001600160a01b0390911681526020016103a3565b61040d60165481565b61040d60115481565b61040d600c5481565b61040d600e5481565b61040d6104f2366004613956565b60146020526000908152604090205481565b61040d601f5481565b6103d4610f46565b610528610523366004613971565b611003565b604080519283526020830191909152016103a3565b61040d601c5481565b61040d60215481565b600d546103e99060ff1681565b61040d61056a3660046139ad565b611117565b6006546104a8906001600160a01b031681565b61040d610590366004613956565b60026020526000908152604090205481565b6103b46111cf565b6017546104a8906001600160a01b031681565b61040d6105cb366004613956565b60046020526000908152604090205481565b6010546105fb906001600160801b0380821691600160801b90041682565b604080516001600160801b039384168152929091166020830152016103a3565b61040d60205481565b6000546104a8906001600160a01b031681565b61040d601b5481565b6103b461125d565b61040d61065636600461392c565b611321565b61066e61066936600461392c565b61137a565b604080519384526020840192909252908201526060016103a3565b6103e961069736600461392c565b611524565b61040d601a5481565b6005546106d6906001600160401b0380821691600160401b810490911690600160801b90046001600160801b031683565b604080516001600160401b0394851681529390921660208401526001600160801b0316908201526060016103a3565b61040d61071336600461392c565b611669565b6008546104a8906001600160a01b031681565b61040d601e5481565b6103d4610742366004613971565b6116e5565b61040d6107553660046139ad565b6117e0565b600d546104a89061010090046001600160a01b031681565b6103d4610780366004613a09565b611898565b6009546104a8906001600160a01b031681565b61040d6107a6366004613a76565b600360209081526000928352604080842090915290825290205481565b6007546104a8906001600160a01b031681565b61040d60225481565b6001546104a8906001600160a01b031681565b6103e9610800366004613a76565b601560209081526000928352604080842090915290825290205460ff1681565b61040d600b5481565b61040d610837366004613971565b611aeb565b6103d4611b9a565b600f546105fb906001600160801b0380821691600160801b90041682565b60175460405163d6d7d52560e01b815260009182916001600160a01b039091169063d6d7d5259061089890601890600401613ae4565b6040805180830381600087803b1580156108b157600080fd5b505af11580156108c5573d6000803e3d6000fd5b505050506040513d601f19601f820116820180604052508101906108e99190613b8c565b909250905081156109305760168190556040518181527f9f9192b5edb17356c524e08d9e025c8e2f6307e6ea52fb7968faa3081f51c3c89060200160405180910390a19091565b506016549091565b600954606090610950906001600160a01b031661214a565b600a54610965906001600160a01b031661214a565b60175460405163355a219b60e21b81526001600160a01b039091169063d568866c9061099690601890600401613ae4565b60006040518083038186803b1580156109ae57600080fd5b505afa1580156109c2573d6000803e3d6000fd5b505050506040513d6000823e601f3d908101601f191682016040526109ea9190810190613bd0565b6040516020016109fc93929190613c71565b604051602081830303815290604052905090565b6000546001600160a01b03163314610a6f5760405162461bcd60e51b815260206004820181905260248201527f4f776e61626c653a2063616c6c6572206973206e6f7420746865206f776e657260448201526064015b60405180910390fd5b8115610b32576001600160a01b038316151580610a895750805b610acd5760405162461bcd60e51b81526020600482015260156024820152744f776e61626c653a207a65726f206164647265737360581b6044820152606401610a66565b600080546040516001600160a01b03808716939216917f8be0079c531659141344cd1fd0a4f28419497f9722a3daafe3b4186f6b6457e091a3600080546001600160a01b0385166001600160a01b031991821617909155600180549091169055505050565b600180546001600160a01b0385166001600160a01b0319909116179055505050565b3360008181526003602090815260408083206001600160a01b038716808552925280832085905551919290917f8c5be1e5ebec7d5bd14f71427d1e84f3dd0314c0f7b2291e5b200ac8c7c3b92590610baf9086815260200190565b60405180910390a35060015b92915050565b60008115610d88576001600160a01b03841660009081526002602052604090205482811015610c2b5760405162461bcd60e51b815260206004820152601660248201527545524332303a2062616c616e636520746f6f206c6f7760501b6044820152606401610a66565b836001600160a01b0316856001600160a01b031614610d86576001600160a01b03851660009081526003602090815260408083203384529091529020546000198114610cf05783811015610cc15760405162461bcd60e51b815260206004820152601860248201527f45524332303a20616c6c6f77616e636520746f6f206c6f7700000000000000006044820152606401610a66565b610ccb8482613d06565b6001600160a01b03871660009081526003602090815260408083203384529091529020555b6001600160a01b038516610d3f5760405162461bcd60e51b815260206004820152601660248201527545524332303a206e6f207a65726f206164647265737360501b6044820152606401610a66565b610d498483613d06565b6001600160a01b038088166000908152600260205260408082209390935590871681529081208054869290610d7f908490613d1d565b9091555050505b505b826001600160a01b0316846001600160a01b031660008051602061408a83398151915284604051610dbb91815260200190565b60405180910390a35060015b9392505050565b600d5460ff1615610df15760405162461bcd60e51b8152600401610a6690613d35565b836001600160a01b0381163314801590610e3657506001600160a01b038116600090815260026020908152604080832054600383528184203385529092529091205411155b15610e6557604051630ca03e9b60e11b81526001600160a01b0382166004820152336024820152604401610a66565b6001600160a01b03841660009081526013602052604081208054849290610e8d908490613d1d565b9091555050600e54610e9f8382613d1d565b600e55600b54610eb390879085848861220d565b846001600160a01b031684610ec85786610ed5565b6007546001600160a01b03165b6001600160a01b03167f9ed03113de523cebfe5e49d5f8e12894b1c0d42ce805990461726444c90eab8785604051610f0f91815260200190565b60405180910390a3505050505050565b600a54600090610f37906001600160a01b0316612389565b905090565b6000610f37612441565b6001546001600160a01b0316338114610fa15760405162461bcd60e51b815260206004820181905260248201527f4f776e61626c653a2063616c6c657220213d2070656e64696e67206f776e65726044820152606401610a66565b600080546040516001600160a01b03808516939216917f8be0079c531659141344cd1fd0a4f28419497f9722a3daafe3b4186f6b6457e091a3600080546001600160a01b039092166001600160a01b0319928316179055600180549091169055565b600d54600090819060ff161561102b5760405162461bcd60e51b8152600401610a6690613d35565b84806001600160a01b038116331480159061107157506001600160a01b038116600090815260026020908152604080832054600383528184203385529092529091205411155b156110a057604051630ca03e9b60e11b81526001600160a01b0382166004820152336024820152604401610a66565b6110a8610862565b50506110b2611b9a565b6110bd878787612498565b60165491955093506110d1915082906127b1565b61110e5760405162461bcd60e51b815260206004820152600e60248201526d14d1d30e881a5b9cdbdb1d995b9d60921b6044820152606401610a66565b50935093915050565b600d5460009060ff161561113d5760405162461bcd60e51b8152600401610a6690613d35565b846001600160a01b038116331480159061118257506001600160a01b038116600090815260026020908152604080832054600383528184203385529092529091205411155b156111b157604051630ca03e9b60e11b81526001600160a01b0382166004820152336024820152604401610a66565b6111b9611b9a565b6111c586868686612917565b9695505050505050565b601880546111dc90613aa9565b80601f016020809104026020016040519081016040528092919081815260200182805461120890613aa9565b80156112555780601f1061122a57610100808354040283529160200191611255565b820191906000526020600020905b81548152906001019060200180831161123857829003601f168201915b505050505081565b600954606090611275906001600160a01b0316612b5a565b600a5461128a906001600160a01b0316612b5a565b60175460405163634ce26b60e11b81526001600160a01b039091169063c699c4d6906112bb90601890600401613ae4565b60006040518083038186803b1580156112d357600080fd5b505afa1580156112e7573d6000803e3d6000fd5b505050506040513d6000823e601f3d908101601f1916820160405261130f9190810190613bd0565b6040516020016109fc93929190613d5a565b6001600160a01b038216600090815260136020526040812054819081906113489085612ba1565b6001600160a01b0387166000908152601460205260409020549193509150611371908383612c77565b95945050505050565b6001600160a01b03821660009081526014602052604081205481908190806113ad5760008060009350935093505061151d565b6001600160a01b0380871660009081526013602090815260408083205481518083019092526010546001600160801b038082168452600160801b9091041692820192909252600754600b54601f5460235494969395948c94939093169263442c159992919061142090620186a090613ddd565b61142a9089613df1565b6114349190613df1565b6040516001600160e01b031960e085901b168152600481019290925260248201526000604482015260640160206040518083038186803b15801561147757600080fd5b505afa15801561148b573d6000803e3d6000fd5b505050506040513d601f19601f820116820180604052508101906114af9190613e10565b6114b99190613ddd565b905081602001516001600160801b031682600001516001600160801b0316856114e29190613df1565b6114ec9190613ddd565b9350808410156114fd576000611507565b6115078185613d06565b96506115138389612ba1565b9096509450505050505b9250925092565b60008115158061153c5750336001600160a01b038416145b1561163e57336000908152600260205260409020548281101561159a5760405162461bcd60e51b815260206004820152601660248201527545524332303a2062616c616e636520746f6f206c6f7760501b6044820152606401610a66565b336001600160a01b0385161461163c576001600160a01b0384166115f95760405162461bcd60e51b815260206004820152601660248201527545524332303a206e6f207a65726f206164647265737360501b6044820152606401610a66565b6116038382613d06565b33600090815260026020526040808220929092556001600160a01b03861681529081208054859290611636908490613d1d565b90915550505b505b6040518281526001600160a01b03841690339060008051602061408a83398151915290602001610baf565b600061167583836127b1565b1561168257506000610bbb565b60008061168f858561137a565b6001600160a01b0388166000908152601460205260409020549294509250508181106116bf579250610bbb915050565b620186a0816022546116d19190613df1565b6116db9190613ddd565b6111c59084613d1d565b600d5460ff16156117085760405162461bcd60e51b8152600401610a6690613d35565b82806001600160a01b038116331480159061174e57506001600160a01b038116600090815260026020908152604080832054600383528184203385529092529091205411155b1561177d57604051630ca03e9b60e11b81526001600160a01b0382166004820152336024820152604401610a66565b611785611b9a565b611790858585612d2b565b5061179d816016546127b1565b6117da5760405162461bcd60e51b815260206004820152600e60248201526d14d1d30e881a5b9cdbdb1d995b9d60921b6044820152606401610a66565b50505050565b600d5460009060ff16156118065760405162461bcd60e51b8152600401610a6690613d35565b846001600160a01b038116331480159061184b57506001600160a01b038116600090815260026020908152604080832054600383528184203385529092529091205411155b1561187a57604051630ca03e9b60e11b81526001600160a01b0382166004820152336024820152604401610a66565b611882610862565b505061188c611b9a565b6111c586868686612ebe565b6001600160a01b0387166118ee5760405162461bcd60e51b815260206004820152601860248201527f45524332303a204f776e65722063616e6e6f74206265203000000000000000006044820152606401610a66565b83421061192e5760405162461bcd60e51b815260206004820152600e60248201526d115490cc8c0e88115e1c1a5c995960921b6044820152606401610a66565b6001600160a01b038716600081815260046020526040812080546001926119d8927f6e71edae12b1b97f4d1f60370fef10105fa2faae0126114a169c64845d6126c9928d928d928d929161198183613e29565b909155506040805160208101969096526001600160a01b0394851690860152929091166060840152608083015260a082015260c0810188905260e00160405160208183030381529060405280519060200120613096565b6040805160008152602081018083529290925260ff871690820152606081018590526080810184905260a0016020604051602081039080840390855afa158015611a26573d6000803e3d6000fd5b505050602060405103516001600160a01b031614611a865760405162461bcd60e51b815260206004820152601860248201527f45524332303a20496e76616c6964205369676e617475726500000000000000006044820152606401610a66565b6001600160a01b038781166000818152600360209081526040808320948b168084529482529182902089905590518881527f8c5be1e5ebec7d5bd14f71427d1e84f3dd0314c0f7b2291e5b200ac8c7c3b925910160405180910390a350505050505050565b600d5460009060ff1615611b115760405162461bcd60e51b8152600401610a6690613d35565b836001600160a01b0381163314801590611b5657506001600160a01b038116600090815260026020908152604080832054600383528184203385529092529091205411155b15611b8557604051630ca03e9b60e11b81526001600160a01b0382166004820152336024820152604401610a66565b611b8d611b9a565b61137185858560016130eb565b604080516060810182526005546001600160401b038082168352600160401b82041660208301819052600160801b9091046001600160801b03169282019290925290600090611be99042613d06565b905080611bf4575050565b6001600160401b034216602080840191909152604080518082019091526010546001600160801b038082168352600160801b9091041691810182905290611cef5782516001600160401b03166312e687c014611c9c576312e687c0808452604080516000808252602082018190529181019290925260608201527f33af5ce86e8438eff54589f85332916444457dfa8685493fbd579b809097026b9060800160405180910390a15b505080516005805460208401516040909401516001600160801b03908116600160801b026001600160401b03958616600160401b026001600160801b031990931695909416949094171792909216179055565b60408051808201909152600f546001600160801b038082168352600160801b909104811660208301528451835160009384939092670de0b6b3a7640000928892611d43926001600160401b03169116613df1565b611d4d9190613df1565b611d579190613ddd565b92508284600001818151611d6b9190613e44565b6001600160801b039081169091528551600754600c54855160405163442c159960e01b8152600481019290925284166024820152600060448201819052945091909216916001600160a01b03169063442c15999060640160206040518083038186803b158015611dda57600080fd5b505afa158015611dee573d6000803e3d6000fd5b505050506040513d601f19601f82011682018060405250810190611e129190613e10565b611e1c9190613d1d565b90506000620186a0601a5486611e329190613df1565b611e3c9190613ddd565b90508183602001516001600160801b031682611e589190613df1565b611e629190613ddd565b93508388604001818151611e769190613e44565b6001600160801b03169052506020830151611e92908590613e44565b600f80546001600160801b03908116600160801b93821684021790915587516020890151908216911690910281176010556000908390611edb90670de0b6b3a764000090613df1565b611ee59190613ddd565b90506709b6e64a8ec60000811015611fb65760006709b6e64a8ec60000670de0b6b3a7640000611f158483613d06565b611f1f9190613df1565b611f299190613ddd565b9050600089611f388380613df1565b611f429190613df1565b611f5b906b0a9456c7acbaf3a129576cd1602b1b613d1d565b9050806b0a9456c7acbaf3a129576cd1602b1b8c600001516001600160401b0316611f869190613df1565b611f909190613ddd565b6001600160401b0316808c526304b9a1f01115611faf576304b9a1f08b525b505061209f565b670b1a2bc2ec50000081111561209f576000611fe2670b1a2bc2ec500000670de0b6b3a7640000613d06565b670de0b6b3a7640000611ffd670b1a2bc2ec50000085613d06565b6120079190613df1565b6120119190613ddd565b90506000896120208380613df1565b61202a9190613df1565b612043906b0a9456c7acbaf3a129576cd1602b1b613d1d565b905060006b0a9456c7acbaf3a129576cd1602b1b828d600001516001600160401b03166120709190613df1565b61207a9190613ddd565b90506449d482460081111561209157506449d48246005b6001600160401b03168b5250505b885160408051888152602081018890526001600160401b039092168282015260608201839052517f33af5ce86e8438eff54589f85332916444457dfa8685493fbd579b809097026b9181900360800190a1505086516005805460208a01516040909a01516001600160801b03908116600160801b026001600160401b039b8c16600160401b026001600160801b03199093169b9094169a909a17179890981617909655505050505050565b60408051600481526024810182526020810180516001600160e01b03166306fdde0360e01b179052905160609160009182916001600160a01b038616916121919190613e6f565b600060405180830381855afa9150503d80600081146121cc576040519150601f19603f3d011682016040523d82523d6000602084013e6121d1565b606091505b5091509150816121fc57604051806040016040528060038152602001623f3f3f60e81b815250612205565b6122058161346d565b949350505050565b6001600160a01b038516600090815260126020908152604080832087845290915281208054859290612240908490613d1d565b9091555050801561231957600754604051627eeac760e11b81523060048201526024810186905283916001600160a01b03169062fdd58e9060440160206040518083038186803b15801561229357600080fd5b505afa1580156122a7573d6000803e3d6000fd5b505050506040513d601f19601f820116820180604052508101906122cb9190613e10565b6122d59190613d06565b8311156123145760405162461bcd60e51b815260206004820152600d60248201526c0a68e987440e8dede40daeac6d609b1b6044820152606401610a66565b612382565b600754604051630208d92960e11b81526001600160a01b0390911690630411b2529061234f908890309089908990600401613e8b565b600060405180830381600087803b15801561236957600080fd5b505af115801561237d573d6000803e3d6000fd5b505050505b5050505050565b60408051600481526024810182526020810180516001600160e01b031663313ce56760e01b1790529051600091829182916001600160a01b038616916123cf9190613e6f565b600060405180830381855afa9150503d806000811461240a576040519150601f19603f3d011682016040523d82523d6000602084013e61240f565b606091505b5091509150818015612422575080516020145b61242d576012612205565b808060200190518101906122059190613eb4565b60007f0000000000000000000000000000000000000000000000000000000000000000461461247357610f37466135f0565b507f000000000000000000000000000000000000000000000000000000000000000090565b6000806000620186a0601b54856124af9190613df1565b6124b99190613ddd565b90506124f86124c88286613d1d565b604080518082019091526010546001600160801b038082168352600160801b909104166020820152906001613631565b81516020909201516001600160801b03908116600160801b0292169190911760105560115490935015806125405750601154601054600160801b90046001600160801b031611155b61258c5760405162461bcd60e51b815260206004820152601760248201527f53474c3a20626f72726f772063617020726561636865640000000000000000006044820152606401610a66565b6001600160a01b038616600090815260146020526040812080548592906125b4908490613d1d565b909155505060408051858152602081018390529081018490526001600160a01b0380871691908816907f3a5151e57d3bc9798e7853034ac52293d1a0e12a2b44725e75b03b21f86477a69060600160405180910390a3600754600c54604051638eb22cdd60e01b8152600481019190915260248101869052600060448201526001600160a01b0390911690638eb22cdd9060640160206040518083038186803b15801561266057600080fd5b505afa158015612674573d6000803e3d6000fd5b505050506040513d601f19601f820116820180604052508101906126989190613e10565b60408051808201909152600f546001600160801b038082168352600160801b9091041660208201819052919350906103e811156127085760405162461bcd60e51b815260206004820152600e60248201526d14d1d30e881b5a5b881b1a5b5a5d60921b6044820152606401610a66565b828160000181815161271a9190613ed1565b6001600160801b03908116909152825160208401518216600160801b02911617600f5550600754600c54604051630208d92960e11b81526001600160a01b0390921691630411b252916127759130918b918990600401613e8b565b600060405180830381600087803b15801561278f57600080fd5b505af11580156127a3573d6000803e3d6000fd5b505050505050935093915050565b6001600160a01b038216600090815260146020526040812054806127d9576001915050610bbb565b6001600160a01b0384166000908152601360205260409020548061280257600092505050610bbb565b604080518082019091526010546001600160801b03808216808452600160801b909204166020830181905290869061283a9086613df1565b6128449190613df1565b61284e9190613ddd565b600754600b54601e546023546001600160a01b039093169263442c159992919061287c90620186a090613ddd565b6128869088613df1565b6128909190613df1565b6040516001600160e01b031960e085901b168152600481019290925260248201526000604482015260640160206040518083038186803b1580156128d357600080fd5b505afa1580156128e7573d6000803e3d6000fd5b505050506040513d601f19601f8201168201806040525081019061290b9190613e10565b10159695505050505050565b604080518082018252600f546001600160801b03808216808452600160801b90920481166020840152600754600c546010549551638eb22cdd60e01b815260048101919091529490911660248501526001604485015260009384916001600160a01b031690638eb22cdd9060640160206040518083038186803b15801561299d57600080fd5b505afa1580156129b1573d6000803e3d6000fd5b505050506040513d601f19601f820116820180604052508101906129d59190613e10565b83516129ea91906001600160801b0316613d1d565b90508015612a1b578083602001516001600160801b031686612a0c9190613df1565b612a169190613ddd565b612a1d565b845b93506103e8848460200151612a329190613e44565b6001600160801b03161015612a4d5760009350505050612205565b612a5883868661369a565b80516020918201516001600160801b03908116600160801b02911617600f556001600160a01b03881660009081526002909152604081208054869290612a9f908490613d1d565b90915550506040518481526001600160a01b0388169060009060008051602061408a8339815191529060200160405180910390a3612ae288600c5487858a61220d565b866001600160a01b031686612af75788612b04565b6007546001600160a01b03165b6001600160a01b03167f30a8c4f9ab5af7e1309ca87c32377d1a83366c5990472dbf9d262450eae14e388787604051612b47929190918252602082015260400190565b60405180910390a3505050949350505050565b60408051600481526024810182526020810180516001600160e01b03166395d89b4160e01b179052905160609160009182916001600160a01b038616916121919190613e6f565b600754600b5460405163442c159960e01b815260048101919091526024810184905260006044820181905291829182916001600160a01b03169063442c15999060640160206040518083038186803b158015612bfc57600080fd5b505afa158015612c10573d6000803e3d6000fd5b505050506040513d601f19601f82011682018060405250810190612c349190613e10565b90508360235482612c459190613df1565b612c4f9190613ddd565b9150620186a0601e5483612c639190613df1565b612c6d9190613ddd565b9250509250929050565b600083612c8657506000610dc7565b82612c9357506000610dc7565b82841015612ca357506000610dc7565b818410612cb35750602054610dc7565b6000612cbf8484613d06565b620186a0612ccd8688613d06565b612cd79190613df1565b612ce19190613ddd565b90506000602154602054612cf59190613ef9565b90506000602154620186a08484612d0c9190613f38565b612d169190613fbd565b612d209190613feb565b979650505050505050565b6001600160a01b03831660009081526013602052604081208054839290612d53908490613d06565b9250508190555080600e6000828254612d6c9190613d06565b92505081905550816001600160a01b0316836001600160a01b03167f8ad4d3ff00da092c7ad9a573ea4f5f6a3dffc6712dc06d3f78f49b862297c40283604051612db891815260200190565b60405180910390a3600754600b54604051630208d92960e11b81526001600160a01b0390921691630411b25291612df791309187918790600401613e8b565b600060405180830381600087803b158015612e1157600080fd5b505af1158015612e25573d6000803e3d6000fd5b505050506001600160a01b0383166000908152601260209081526040808320600b548452909152902054811115612e7f5750506001600160a01b03166000908152601260209081526040808320600b548452909152812055565b6001600160a01b0383166000908152601260209081526040808320600b54845290915281208054839290612eb4908490613d06565b9091555050505050565b604080518082019091526010546001600160801b038082168352600160801b909104166020820152600090612ef5908360016136f4565b81516020928301516001600160801b03908116600160801b029116176010556001600160a01b0386166000908152601490925260408220805491935084929091612f40908490613d06565b9091555050600754600c54604051638eb22cdd60e01b8152600481019190915260248101839052600160448201526000916001600160a01b031690638eb22cdd9060640160206040518083038186803b158015612f9c57600080fd5b505afa158015612fb0573d6000803e3d6000fd5b505050506040513d601f19601f82011682018060405250810190612fd49190613e10565b600f54600c549192506001600160801b031690612ff590889084848961220d565b612fff8282613e44565b600f80546001600160801b0319166001600160801b03929092169190911790556001600160a01b038616856130345787613041565b6007546001600160a01b03165b6001600160a01b03167fc8e512d8f188ca059984b5853d2bf653da902696b8512785b182b2c813789a6e8587604051613084929190918252602082015260400190565b60405180910390a35050949350505050565b600060405180604001604052806002815260200161190160f01b8152506130bb612441565b836040516020016130ce9392919061402c565b604051602081830303815290604052805190602001209050919050565b600f54600090600160801b90046001600160801b031661310d57506000612205565b604080518082018252600f546001600160801b038082168352600160801b90910481166020830152600754600c546010549451638eb22cdd60e01b815260048101919091529390911660248401526001604484015290916000916001600160a01b031690638eb22cdd9060640160206040518083038186803b15801561319257600080fd5b505afa1580156131a6573d6000803e3d6000fd5b505050506040513d601f19601f820116820180604052508101906131ca9190613e10565b82516131df91906001600160801b0316613d1d565b60208301519091506001600160801b03166131fa8287613df1565b6132049190613ddd565b6001600160a01b038816600090815260026020526040812080549295508792909190613231908490613d06565b90915550506040518581526000906001600160a01b0389169060008051602061408a8339815191529060200160405180910390a382826000018181516132779190613ed1565b6001600160801b0316905250602082018051869190613297908390613ed1565b6001600160801b0390811690915260208401516103e89116101590506132f05760405162461bcd60e51b815260206004820152600e60248201526d14d1d30e881b5a5b881b1a5b5a5d60921b6044820152606401610a66565b815160208301516001600160801b03908116600160801b02911617600f556040516001600160a01b0380881691908916907f6e853a5fd6b51d773691f542ebac8513c9992a51380d4c342031056a64114228906133599087908a90918252602082015260400190565b60405180910390a3600754600c54604051630208d92960e11b81526001600160a01b0390921691630411b252916133989130918b918990600401613e8b565b600060405180830381600087803b1580156133b257600080fd5b505af11580156133c6573d6000803e3d6000fd5b505050508315613463576001600160a01b0387166000908152601260209081526040808320600c548452909152902054831115613428576001600160a01b0387166000908152601260209081526040808320600c548452909152812055613463565b6001600160a01b0387166000908152601260209081526040808320600c5484529091528120805485929061345d908490613d06565b90915550505b5050949350505050565b6060604082511061348c5781806020019051810190610bbb9190613bd0565b8151602014156135cc5760005b60208160ff161080156134ce5750828160ff16815181106134bc576134bc614053565b01602001516001600160f81b03191615155b156134e557806134dd81614069565b915050613499565b60008160ff166001600160401b0381111561350257613502613bba565b6040519080825280601f01601f19166020018201604052801561352c576020820181803683370190505b509050600091505b60208260ff161080156135695750838260ff168151811061355757613557614053565b01602001516001600160f81b03191615155b15610dc757838260ff168151811061358357613583614053565b602001015160f81c60f81b818360ff16815181106135a3576135a3614053565b60200101906001600160f81b031916908160001a905350816135c481614069565b925050613534565b50506040805180820190915260038152623f3f3f60e81b602082015290565b919050565b604080517f47e79534a245952e8b16893a336b85a3d9ea9fa8c573f3d803afb92a7946921860208201529081018290523060608201526000906080016130ce565b60408051808201909152600080825260208201526000613652858585613749565b905083856000018181516136669190613e44565b6001600160801b0316905250602085018051829190613686908390613e44565b6001600160801b0316905250939492505050565b604080518082019091526000808252602082015282846000018181516136c09190613e44565b6001600160801b03169052506020840180518391906136e0908390613e44565b6001600160801b0316905250929392505050565b604080518082019091526000808252602082015260006137158585856137d7565b905080856000018181516137299190613ed1565b6001600160801b0316905250602085018051859190613686908390613ed1565b82516000906001600160801b0316613762575081610dc7565b835160208501516001600160801b0391821691613780911685613df1565b61378a9190613ddd565b90508180156137c857508284602001516001600160801b031685600001516001600160801b0316836137bc9190613df1565b6137c69190613ddd565b105b15610dc7578061137181613e29565b600083602001516001600160801b0316600014156137f6575081610dc7565b602084015184516001600160801b0391821691613814911685613df1565b61381e9190613ddd565b90508180156137c857508284600001516001600160801b031685602001516001600160801b0316836137bc9190613df1565b60005b8381101561386b578181015183820152602001613853565b838111156117da5750506000910152565b60008151808452613894816020860160208601613850565b601f01601f19169290920160200192915050565b602081526000610dc7602083018461387c565b80356001600160a01b03811681146135eb57600080fd5b80151581146138e057600080fd5b50565b6000806000606084860312156138f857600080fd5b613901846138bb565b92506020840135613911816138d2565b91506040840135613921816138d2565b809150509250925092565b6000806040838503121561393f57600080fd5b613948836138bb565b946020939093013593505050565b60006020828403121561396857600080fd5b610dc7826138bb565b60008060006060848603121561398657600080fd5b61398f846138bb565b925061399d602085016138bb565b9150604084013590509250925092565b600080600080608085870312156139c357600080fd5b6139cc856138bb565b93506139da602086016138bb565b925060408501356139ea816138d2565b9396929550929360600135925050565b60ff811681146138e057600080fd5b600080600080600080600060e0888a031215613a2457600080fd5b613a2d886138bb565b9650613a3b602089016138bb565b955060408801359450606088013593506080880135613a59816139fa565b9699959850939692959460a0840135945060c09093013592915050565b60008060408385031215613a8957600080fd5b613a92836138bb565b9150613aa0602084016138bb565b90509250929050565b600181811c90821680613abd57607f821691505b60208210811415613ade57634e487b7160e01b600052602260045260246000fd5b50919050565b600060208083526000845481600182811c915080831680613b0657607f831692505b858310811415613b2457634e487b7160e01b85526022600452602485fd5b878601838152602001818015613b415760018114613b5257613b7d565b60ff19861682528782019650613b7d565b60008b81526020902060005b86811015613b7757815484820152908501908901613b5e565b83019750505b50949998505050505050505050565b60008060408385031215613b9f57600080fd5b8251613baa816138d2565b6020939093015192949293505050565b634e487b7160e01b600052604160045260246000fd5b600060208284031215613be257600080fd5b81516001600160401b0380821115613bf957600080fd5b818401915084601f830112613c0d57600080fd5b815181811115613c1f57613c1f613bba565b604051601f8201601f19908116603f01168101908382118183101715613c4757613c47613bba565b81604052828152876020848701011115613c6057600080fd5b612d20836020830160208801613850565b7302a30b834b7b1b09029b4b733bab630b934ba3c960651b815260008451613ca0816014850160208901613850565b602f60f81b6014918401918201528451613cc1816015840160208901613850565b602d60f81b601592909101918201528351613ce3816016840160208801613850565b0160160195945050505050565b634e487b7160e01b600052601160045260246000fd5b600082821015613d1857613d18613cf0565b500390565b60008219821115613d3057613d30613cf0565b500190565b6020808252600b908201526a14d1d30e881c185d5cd95960aa1b604082015260600190565b61746d60f01b815260008451613d77816002850160208901613850565b602f60f81b6002918401918201528451613d98816003840160208901613850565b602d60f81b600392909101918201528351613dba816004840160208801613850565b0160040195945050505050565b634e487b7160e01b600052601260045260246000fd5b600082613dec57613dec613dc7565b500490565b6000816000190483118215151615613e0b57613e0b613cf0565b500290565b600060208284031215613e2257600080fd5b5051919050565b6000600019821415613e3d57613e3d613cf0565b5060010190565b60006001600160801b03808316818516808303821115613e6657613e66613cf0565b01949350505050565b60008251613e81818460208701613850565b9190910192915050565b6001600160a01b0394851681529290931660208301526040820152606081019190915260800190565b600060208284031215613ec657600080fd5b8151610dc7816139fa565b60006001600160801b0383811690831681811015613ef157613ef1613cf0565b039392505050565b60008083128015600160ff1b850184121615613f1757613f17613cf0565b6001600160ff1b0384018313811615613f3257613f32613cf0565b50500390565b60006001600160ff1b0381841382841380821686840486111615613f5e57613f5e613cf0565b600160ff1b6000871282811687830589121615613f7d57613f7d613cf0565b60008712925087820587128484161615613f9957613f99613cf0565b87850587128184161615613faf57613faf613cf0565b505050929093029392505050565b600082613fcc57613fcc613dc7565b600160ff1b821460001984141615613fe657613fe6613cf0565b500590565b600080821280156001600160ff1b038490038513161561400d5761400d613cf0565b600160ff1b839003841281161561402657614026613cf0565b50500190565b6000845161403e818460208901613850565b91909101928352506020820152604001919050565b634e487b7160e01b600052603260045260246000fd5b600060ff821660ff81141561408057614080613cf0565b6001019291505056feddf252ad1be2c89b69c2b068fc378daa952ba7f163c4a11628f55a4df523b3efa2646970667358221220a04f1bf26b6ae953b94b3408222446432dfddac65252add02d010dea602bbbe164736f6c63430008090033",
  "devdoc": {
    "kind": "dev",
    "methods": {
      "addAsset(address,address,bool,uint256)": {
        "params": {
          "from": "Address to add asset from.",
          "share": "The amount of shares to add.",
          "skim": "True if the amount should be skimmed from the deposit balance of msg.sender. False if tokens from msg.sender in `yieldBox` should be transferred.",
          "to": "The address of the user to receive the assets."
        },
        "returns": {
          "fraction": "Total fractions added."
        }
      },
      "addCollateral(address,address,bool,uint256)": {
        "params": {
          "from": "Account to transfer shares from.",
          "share": "The amount of shares to add for `to`.",
          "skim": "True if the amount should be skimmed from the deposit balance of msg.sender. False if tokens from msg.sender in `yieldBox` should be transferred.",
          "to": "The receiver of the tokens."
        }
      },
      "approve(address,uint256)": {
        "params": {
          "amount": "The maximum collective amount that `spender` can draw.",
          "spender": "Address of the party that can draw from msg.sender's account."
        },
        "returns": {
          "_0": "(bool) Returns True if approved."
        }
      },
      "borrow(address,address,uint256)": {
        "params": {
          "amount": "Amount to borrow.",
          "from": "Account to borrow for.",
          "to": "The receiver of borrowed tokens."
        },
        "returns": {
          "part": "Total part of the debt held by borrowers.",
          "share": "Total amount in shares borrowed."
        }
      },
      "computeTVLInfo(address,uint256)": {
        "details": "We use a `CLOSED_COLLATERIZATION_RATE` that is a safety buffer when making the user solvent again,      To prevent from being liquidated. This function is valid only if user is not solvent by `_isSolvent()`.",
        "params": {
          "_exchangeRate": "The exchange rate asset/collateral.",
          "user": "The user to check solvency."
        },
        "returns": {
          "amountToSolvency": "The amount of collateral to be solvent."
        }
      },
      "permit(address,address,uint256,uint256,uint8,bytes32,bytes32)": {
        "params": {
          "deadline": "This permit must be redeemed before this deadline (UTC timestamp in seconds).",
          "owner_": "Address of the owner.",
          "spender": "The address of the spender that gets approved to draw from `owner_`.",
          "value": "The maximum collective amount that `spender` can draw."
        }
      },
      "removeAsset(address,address,uint256)": {
        "params": {
          "fraction": "The amount/fraction of assets held to remove.",
          "from": "Account to debit Assets from.",
          "to": "The user that receives the removed assets."
        },
        "returns": {
          "share": "The amount of shares transferred to `to`."
        }
      },
      "removeCollateral(address,address,uint256)": {
        "params": {
          "from": "Account to debit collateral from.",
          "share": "Amount of shares to remove.",
          "to": "The receiver of the shares."
        }
      },
      "repay(address,address,bool,uint256)": {
        "params": {
          "from": "Address to repay from.",
          "part": "The amount to repay. See `userBorrowPart`.",
          "skim": "True if the amount should be skimmed from the deposit balance of msg.sender. False if tokens from msg.sender in `yieldBox` should be transferred.",
          "to": "Address of the user this payment should go."
        },
        "returns": {
          "amount": "The total amount repayed."
        }
      },
      "transfer(address,uint256)": {
        "params": {
          "amount": "of the tokens to move.",
          "to": "The address to move the tokens."
        },
        "returns": {
          "_0": "(bool) Returns True if succeeded."
        }
      },
      "transferFrom(address,address,uint256)": {
        "params": {
          "amount": "The token amount to move.",
          "from": "Address to draw tokens from.",
          "to": "The address to move the tokens."
        },
        "returns": {
          "_0": "(bool) Returns True if succeeded."
        }
      },
      "transferOwnership(address,bool,bool)": {
        "params": {
          "direct": "True if `newOwner` should be set immediately. False if `newOwner` needs to use `claimOwnership`.",
          "newOwner": "Address of the new owner.",
          "renounce": "Allows the `newOwner` to be `address(0)` if `direct` and `renounce` is True. Has no effect otherwise."
        }
      },
      "updateExchangeRate()": {
        "returns": {
          "rate": "The new exchange rate.",
          "updated": "True if `exchangeRate` was updated."
        }
      }
    },
    "version": 1
  },
  "userdoc": {
    "kind": "user",
    "methods": {
      "accrue()": {
        "notice": "Accrues the interest on the borrowed tokens and handles the accumulation of fees."
      },
      "addAsset(address,address,bool,uint256)": {
        "notice": "Adds assets to the lending pair."
      },
      "addCollateral(address,address,bool,uint256)": {
        "notice": "Adds `collateral` from msg.sender to the account `to`."
      },
      "allowance(address,address)": {
        "notice": "owner > spender > allowance mapping."
      },
      "approve(address,uint256)": {
        "notice": "Approves `amount` from sender to be spend by `spender`."
      },
      "balanceOf(address)": {
        "notice": "owner > balance mapping."
      },
      "borrow(address,address,uint256)": {
        "notice": "Sender borrows `amount` and transfers it to `to`."
      },
      "claimOwnership()": {
        "notice": "Needs to be called by `pendingOwner` to claim ownership."
      },
      "computeClosingFactor(address,uint256)": {
        "notice": "Return the maximum liquidatable amount for user"
      },
      "computeTVLInfo(address,uint256)": {
        "notice": "Return the amount of collateral for a `user` to be solvent, min TVL and max TVL. Returns 0 if user already solvent."
      },
      "exchangeRate()": {
        "notice": "Exchange and interest rate tracking. This is 'cached' here because calls to Oracles can be very expensive. Asset -> collateral = assetAmount * exchangeRate."
      },
      "nonces(address)": {
        "notice": "owner > nonce mapping. Used in `permit`."
      },
      "permit(address,address,uint256,uint256,uint8,bytes32,bytes32)": {
        "notice": "Approves `value` from `owner_` to be spend by `spender`."
      },
      "removeAsset(address,address,uint256)": {
        "notice": "Removes an asset from msg.sender and transfers it to `to`."
      },
      "removeCollateral(address,address,uint256)": {
        "notice": "Removes `share` amount of collateral and transfers it to `to`."
      },
      "repay(address,address,bool,uint256)": {
        "notice": "Repays a loan."
      },
      "transfer(address,uint256)": {
        "notice": "Transfers `amount` tokens from `msg.sender` to `to`."
      },
      "transferFrom(address,address,uint256)": {
        "notice": "Transfers `amount` tokens from `from` to `to`. Caller needs approval for `from`."
      },
      "transferOwnership(address,bool,bool)": {
        "notice": "Transfers ownership to `newOwner`. Either directly or claimable by the new pending owner. Can only be invoked by the current `owner`."
      },
      "updateExchangeRate()": {
        "notice": "Gets the exchange rate. I.e how much collateral to buy 1e18 asset. This function is supposed to be invoked if needed because Oracle queries can be expensive."
      }
    },
    "version": 1
  },
  "storageLayout": {
    "storage": [
      {
        "astId": 233,
        "contract": "contracts/singularity/SGLLendingBorrowing.sol:SGLLendingBorrowing",
        "label": "owner",
        "offset": 0,
        "slot": "0",
        "type": "t_address"
      },
      {
        "astId": 235,
        "contract": "contracts/singularity/SGLLendingBorrowing.sol:SGLLendingBorrowing",
        "label": "pendingOwner",
        "offset": 0,
        "slot": "1",
        "type": "t_address"
      },
      {
        "astId": 478,
        "contract": "contracts/singularity/SGLLendingBorrowing.sol:SGLLendingBorrowing",
        "label": "balanceOf",
        "offset": 0,
        "slot": "2",
        "type": "t_mapping(t_address,t_uint256)"
      },
      {
        "astId": 486,
        "contract": "contracts/singularity/SGLLendingBorrowing.sol:SGLLendingBorrowing",
        "label": "allowance",
        "offset": 0,
        "slot": "3",
        "type": "t_mapping(t_address,t_mapping(t_address,t_uint256))"
      },
      {
        "astId": 491,
        "contract": "contracts/singularity/SGLLendingBorrowing.sol:SGLLendingBorrowing",
        "label": "nonces",
        "offset": 0,
        "slot": "4",
        "type": "t_mapping(t_address,t_uint256)"
      },
      {
        "astId": 13214,
        "contract": "contracts/singularity/SGLLendingBorrowing.sol:SGLLendingBorrowing",
        "label": "accrueInfo",
        "offset": 0,
        "slot": "5",
        "type": "t_struct(AccrueInfo)14835_storage"
      },
      {
        "astId": 13217,
        "contract": "contracts/singularity/SGLLendingBorrowing.sol:SGLLendingBorrowing",
        "label": "penrose",
        "offset": 0,
        "slot": "6",
        "type": "t_contract(IPenrose)6365"
      },
      {
        "astId": 13220,
        "contract": "contracts/singularity/SGLLendingBorrowing.sol:SGLLendingBorrowing",
        "label": "yieldBox",
        "offset": 0,
        "slot": "7",
        "type": "t_contract(YieldBox)30913"
      },
      {
        "astId": 13223,
        "contract": "contracts/singularity/SGLLendingBorrowing.sol:SGLLendingBorrowing",
        "label": "liquidationQueue",
        "offset": 0,
        "slot": "8",
        "type": "t_contract(ILiquidationQueue)7408"
      },
      {
        "astId": 13226,
        "contract": "contracts/singularity/SGLLendingBorrowing.sol:SGLLendingBorrowing",
        "label": "collateral",
        "offset": 0,
        "slot": "9",
        "type": "t_contract(IERC20)1099"
      },
      {
        "astId": 13229,
        "contract": "contracts/singularity/SGLLendingBorrowing.sol:SGLLendingBorrowing",
        "label": "asset",
        "offset": 0,
        "slot": "10",
        "type": "t_contract(IERC20)1099"
      },
      {
        "astId": 13231,
        "contract": "contracts/singularity/SGLLendingBorrowing.sol:SGLLendingBorrowing",
        "label": "collateralId",
        "offset": 0,
        "slot": "11",
        "type": "t_uint256"
      },
      {
        "astId": 13233,
        "contract": "contracts/singularity/SGLLendingBorrowing.sol:SGLLendingBorrowing",
        "label": "assetId",
        "offset": 0,
        "slot": "12",
        "type": "t_uint256"
      },
      {
        "astId": 13235,
        "contract": "contracts/singularity/SGLLendingBorrowing.sol:SGLLendingBorrowing",
        "label": "paused",
        "offset": 0,
        "slot": "13",
        "type": "t_bool"
      },
      {
        "astId": 13237,
        "contract": "contracts/singularity/SGLLendingBorrowing.sol:SGLLendingBorrowing",
        "label": "conservator",
        "offset": 1,
        "slot": "13",
        "type": "t_address"
      },
      {
        "astId": 13239,
        "contract": "contracts/singularity/SGLLendingBorrowing.sol:SGLLendingBorrowing",
        "label": "totalCollateralShare",
        "offset": 0,
        "slot": "14",
        "type": "t_uint256"
      },
      {
        "astId": 13242,
        "contract": "contracts/singularity/SGLLendingBorrowing.sol:SGLLendingBorrowing",
        "label": "totalAsset",
        "offset": 0,
        "slot": "15",
        "type": "t_struct(Rebase)1890_storage"
      },
      {
        "astId": 13245,
        "contract": "contracts/singularity/SGLLendingBorrowing.sol:SGLLendingBorrowing",
        "label": "totalBorrow",
        "offset": 0,
        "slot": "16",
        "type": "t_struct(Rebase)1890_storage"
      },
      {
        "astId": 13247,
        "contract": "contracts/singularity/SGLLendingBorrowing.sol:SGLLendingBorrowing",
        "label": "totalBorrowCap",
        "offset": 0,
        "slot": "17",
        "type": "t_uint256"
      },
      {
        "astId": 13253,
        "contract": "contracts/singularity/SGLLendingBorrowing.sol:SGLLendingBorrowing",
        "label": "_yieldBoxShares",
        "offset": 0,
        "slot": "18",
        "type": "t_mapping(t_address,t_mapping(t_uint256,t_uint256))"
      },
      {
        "astId": 13257,
        "contract": "contracts/singularity/SGLLendingBorrowing.sol:SGLLendingBorrowing",
        "label": "userCollateralShare",
        "offset": 0,
        "slot": "19",
        "type": "t_mapping(t_address,t_uint256)"
      },
      {
        "astId": 13261,
        "contract": "contracts/singularity/SGLLendingBorrowing.sol:SGLLendingBorrowing",
        "label": "userBorrowPart",
        "offset": 0,
        "slot": "20",
        "type": "t_mapping(t_address,t_uint256)"
      },
      {
        "astId": 13267,
        "contract": "contracts/singularity/SGLLendingBorrowing.sol:SGLLendingBorrowing",
        "label": "isApprovedForAll",
        "offset": 0,
        "slot": "21",
        "type": "t_mapping(t_address,t_mapping(t_address,t_bool))"
      },
      {
        "astId": 13270,
        "contract": "contracts/singularity/SGLLendingBorrowing.sol:SGLLendingBorrowing",
        "label": "exchangeRate",
        "offset": 0,
        "slot": "22",
        "type": "t_uint256"
      },
      {
        "astId": 13273,
        "contract": "contracts/singularity/SGLLendingBorrowing.sol:SGLLendingBorrowing",
        "label": "oracle",
        "offset": 0,
        "slot": "23",
        "type": "t_contract(IOracle)6289"
      },
      {
        "astId": 13275,
        "contract": "contracts/singularity/SGLLendingBorrowing.sol:SGLLendingBorrowing",
        "label": "oracleData",
        "offset": 0,
        "slot": "24",
        "type": "t_bytes_storage"
      },
      {
        "astId": 13278,
        "contract": "contracts/singularity/SGLLendingBorrowing.sol:SGLLendingBorrowing",
        "label": "callerFee",
        "offset": 0,
        "slot": "25",
        "type": "t_uint256"
      },
      {
        "astId": 13281,
        "contract": "contracts/singularity/SGLLendingBorrowing.sol:SGLLendingBorrowing",
        "label": "protocolFee",
        "offset": 0,
        "slot": "26",
        "type": "t_uint256"
      },
      {
        "astId": 13284,
        "contract": "contracts/singularity/SGLLendingBorrowing.sol:SGLLendingBorrowing",
        "label": "borrowOpeningFee",
        "offset": 0,
        "slot": "27",
        "type": "t_uint256"
      },
      {
        "astId": 13287,
        "contract": "contracts/singularity/SGLLendingBorrowing.sol:SGLLendingBorrowing",
        "label": "liquidationMultiplier",
        "offset": 0,
        "slot": "28",
        "type": "t_uint256"
      },
      {
        "astId": 13290,
        "contract": "contracts/singularity/SGLLendingBorrowing.sol:SGLLendingBorrowing",
        "label": "orderBookLiquidationMultiplier",
        "offset": 0,
        "slot": "29",
        "type": "t_uint256"
      },
      {
        "astId": 13293,
        "contract": "contracts/singularity/SGLLendingBorrowing.sol:SGLLendingBorrowing",
        "label": "closedCollateralizationRate",
        "offset": 0,
        "slot": "30",
        "type": "t_uint256"
      },
      {
        "astId": 13296,
        "contract": "contracts/singularity/SGLLendingBorrowing.sol:SGLLendingBorrowing",
        "label": "lqCollateralizationRate",
        "offset": 0,
        "slot": "31",
        "type": "t_uint256"
      },
      {
        "astId": 13299,
        "contract": "contracts/singularity/SGLLendingBorrowing.sol:SGLLendingBorrowing",
        "label": "minLiquidatorReward",
        "offset": 0,
        "slot": "32",
        "type": "t_uint256"
      },
      {
        "astId": 13302,
        "contract": "contracts/singularity/SGLLendingBorrowing.sol:SGLLendingBorrowing",
        "label": "maxLiquidatorReward",
        "offset": 0,
        "slot": "33",
        "type": "t_uint256"
      },
      {
        "astId": 13305,
        "contract": "contracts/singularity/SGLLendingBorrowing.sol:SGLLendingBorrowing",
        "label": "liquidationBonusAmount",
        "offset": 0,
        "slot": "34",
        "type": "t_uint256"
      },
      {
        "astId": 13459,
        "contract": "contracts/singularity/SGLLendingBorrowing.sol:SGLLendingBorrowing",
        "label": "EXCHANGE_RATE_PRECISION",
        "offset": 0,
        "slot": "35",
        "type": "t_uint256"
      },
      {
        "astId": 10699,
        "contract": "contracts/singularity/SGLLendingBorrowing.sol:SGLLendingBorrowing",
        "label": "initialized",
        "offset": 0,
        "slot": "36",
        "type": "t_bool"
      }
    ],
    "types": {
      "t_address": {
        "encoding": "inplace",
        "label": "address",
        "numberOfBytes": "20"
      },
      "t_bool": {
        "encoding": "inplace",
        "label": "bool",
        "numberOfBytes": "1"
      },
      "t_bytes_storage": {
        "encoding": "bytes",
        "label": "bytes",
        "numberOfBytes": "32"
      },
      "t_contract(IERC20)1099": {
        "encoding": "inplace",
        "label": "contract IERC20",
        "numberOfBytes": "20"
      },
      "t_contract(ILiquidationQueue)7408": {
        "encoding": "inplace",
        "label": "contract ILiquidationQueue",
        "numberOfBytes": "20"
      },
      "t_contract(IOracle)6289": {
        "encoding": "inplace",
        "label": "contract IOracle",
        "numberOfBytes": "20"
      },
      "t_contract(IPenrose)6365": {
        "encoding": "inplace",
        "label": "contract IPenrose",
        "numberOfBytes": "20"
      },
      "t_contract(YieldBox)30913": {
        "encoding": "inplace",
        "label": "contract YieldBox",
        "numberOfBytes": "20"
      },
      "t_mapping(t_address,t_bool)": {
        "encoding": "mapping",
        "key": "t_address",
        "label": "mapping(address => bool)",
        "numberOfBytes": "32",
        "value": "t_bool"
      },
      "t_mapping(t_address,t_mapping(t_address,t_bool))": {
        "encoding": "mapping",
        "key": "t_address",
        "label": "mapping(address => mapping(address => bool))",
        "numberOfBytes": "32",
        "value": "t_mapping(t_address,t_bool)"
      },
      "t_mapping(t_address,t_mapping(t_address,t_uint256))": {
        "encoding": "mapping",
        "key": "t_address",
        "label": "mapping(address => mapping(address => uint256))",
        "numberOfBytes": "32",
        "value": "t_mapping(t_address,t_uint256)"
      },
      "t_mapping(t_address,t_mapping(t_uint256,t_uint256))": {
        "encoding": "mapping",
        "key": "t_address",
        "label": "mapping(address => mapping(uint256 => uint256))",
        "numberOfBytes": "32",
        "value": "t_mapping(t_uint256,t_uint256)"
      },
      "t_mapping(t_address,t_uint256)": {
        "encoding": "mapping",
        "key": "t_address",
        "label": "mapping(address => uint256)",
        "numberOfBytes": "32",
        "value": "t_uint256"
      },
      "t_mapping(t_uint256,t_uint256)": {
        "encoding": "mapping",
        "key": "t_uint256",
        "label": "mapping(uint256 => uint256)",
        "numberOfBytes": "32",
        "value": "t_uint256"
      },
      "t_struct(AccrueInfo)14835_storage": {
        "encoding": "inplace",
        "label": "struct ISingularity.AccrueInfo",
        "members": [
          {
            "astId": 14830,
            "contract": "contracts/singularity/SGLLendingBorrowing.sol:SGLLendingBorrowing",
            "label": "interestPerSecond",
            "offset": 0,
            "slot": "0",
            "type": "t_uint64"
          },
          {
            "astId": 14832,
            "contract": "contracts/singularity/SGLLendingBorrowing.sol:SGLLendingBorrowing",
            "label": "lastAccrued",
            "offset": 8,
            "slot": "0",
            "type": "t_uint64"
          },
          {
            "astId": 14834,
            "contract": "contracts/singularity/SGLLendingBorrowing.sol:SGLLendingBorrowing",
            "label": "feesEarnedFraction",
            "offset": 16,
            "slot": "0",
            "type": "t_uint128"
          }
        ],
        "numberOfBytes": "32"
      },
      "t_struct(Rebase)1890_storage": {
        "encoding": "inplace",
        "label": "struct Rebase",
        "members": [
          {
            "astId": 1887,
            "contract": "contracts/singularity/SGLLendingBorrowing.sol:SGLLendingBorrowing",
            "label": "elastic",
            "offset": 0,
            "slot": "0",
            "type": "t_uint128"
          },
          {
            "astId": 1889,
            "contract": "contracts/singularity/SGLLendingBorrowing.sol:SGLLendingBorrowing",
            "label": "base",
            "offset": 16,
            "slot": "0",
            "type": "t_uint128"
          }
        ],
        "numberOfBytes": "32"
      },
      "t_uint128": {
        "encoding": "inplace",
        "label": "uint128",
        "numberOfBytes": "16"
      },
      "t_uint256": {
        "encoding": "inplace",
        "label": "uint256",
        "numberOfBytes": "32"
      },
      "t_uint64": {
        "encoding": "inplace",
        "label": "uint64",
        "numberOfBytes": "8"
      }
    }
  }
}