{
  "address": "0xAF933E0E75E0576511e17b173cc6e3D0a09DB764",
  "abi": [
    {
      "inputs": [
        {
          "internalType": "address",
          "name": "_lzEndpoint",
          "type": "address"
        },
        {
          "internalType": "contract IYieldBox",
          "name": "_yieldBox",
          "type": "address"
        }
      ],
      "stateMutability": "nonpayable",
      "type": "constructor"
    },
    {
      "inputs": [],
      "name": "TOFT_YB_ETHDeposit",
      "type": "error"
    },
    {
      "anonymous": false,
      "inputs": [
        {
          "indexed": true,
          "internalType": "address",
          "name": "owner",
          "type": "address"
        },
        {
          "indexed": true,
          "internalType": "address",
          "name": "spender",
          "type": "address"
        },
        {
          "indexed": false,
          "internalType": "uint256",
          "name": "value",
          "type": "uint256"
        }
      ],
      "name": "Approval",
      "type": "event"
    },
    {
      "anonymous": false,
      "inputs": [
        {
          "indexed": true,
          "internalType": "address",
          "name": "_from",
          "type": "address"
        },
        {
          "indexed": false,
          "internalType": "uint256",
          "name": "_amount",
          "type": "uint256"
        }
      ],
      "name": "Burned",
      "type": "event"
    },
    {
      "anonymous": false,
      "inputs": [
        {
          "indexed": true,
          "internalType": "uint16",
          "name": "_srcChainId",
          "type": "uint16"
        },
        {
          "indexed": false,
          "internalType": "bytes",
          "name": "_srcAddress",
          "type": "bytes"
        },
        {
          "indexed": false,
          "internalType": "uint64",
          "name": "_nonce",
          "type": "uint64"
        },
        {
          "indexed": false,
          "internalType": "bytes32",
          "name": "_hash",
          "type": "bytes32"
        }
      ],
      "name": "CallOFTReceivedSuccess",
      "type": "event"
    },
    {
      "anonymous": false,
      "inputs": [
        {
          "indexed": true,
          "internalType": "address",
          "name": "old",
          "type": "address"
        },
        {
          "indexed": true,
          "internalType": "address",
          "name": "_new",
          "type": "address"
        }
      ],
      "name": "ConservatorUpdated",
      "type": "event"
    },
    {
      "anonymous": false,
      "inputs": [
        {
          "indexed": false,
          "internalType": "uint256",
          "name": "_old",
          "type": "uint256"
        },
        {
          "indexed": false,
          "internalType": "uint256",
          "name": "_new",
          "type": "uint256"
        }
      ],
      "name": "FlashMintFeeUpdated",
      "type": "event"
    },
    {
      "anonymous": false,
      "inputs": [
        {
          "indexed": false,
          "internalType": "uint256",
          "name": "_old",
          "type": "uint256"
        },
        {
          "indexed": false,
          "internalType": "uint256",
          "name": "_new",
          "type": "uint256"
        }
      ],
      "name": "MaxFlashMintUpdated",
      "type": "event"
    },
    {
      "anonymous": false,
      "inputs": [
        {
          "indexed": false,
          "internalType": "uint16",
          "name": "_srcChainId",
          "type": "uint16"
        },
        {
          "indexed": false,
          "internalType": "bytes",
          "name": "_srcAddress",
          "type": "bytes"
        },
        {
          "indexed": false,
          "internalType": "uint64",
          "name": "_nonce",
          "type": "uint64"
        },
        {
          "indexed": false,
          "internalType": "bytes",
          "name": "_payload",
          "type": "bytes"
        },
        {
          "indexed": false,
          "internalType": "bytes",
          "name": "_reason",
          "type": "bytes"
        }
      ],
      "name": "MessageFailed",
      "type": "event"
    },
    {
      "anonymous": false,
      "inputs": [
        {
          "indexed": true,
          "internalType": "address",
          "name": "_for",
          "type": "address"
        },
        {
          "indexed": false,
          "internalType": "uint256",
          "name": "_amount",
          "type": "uint256"
        }
      ],
      "name": "Minted",
      "type": "event"
    },
    {
      "anonymous": false,
      "inputs": [
        {
          "indexed": false,
          "internalType": "address",
          "name": "_address",
          "type": "address"
        }
      ],
      "name": "NonContractAddress",
      "type": "event"
    },
    {
      "anonymous": false,
      "inputs": [
        {
          "indexed": true,
          "internalType": "address",
          "name": "previousOwner",
          "type": "address"
        },
        {
          "indexed": true,
          "internalType": "address",
          "name": "newOwner",
          "type": "address"
        }
      ],
      "name": "OwnershipTransferred",
      "type": "event"
    },
    {
      "anonymous": false,
      "inputs": [
        {
          "indexed": false,
          "internalType": "bool",
          "name": "oldState",
          "type": "bool"
        },
        {
          "indexed": false,
          "internalType": "bool",
          "name": "newState",
          "type": "bool"
        }
      ],
      "name": "PausedUpdated",
      "type": "event"
    },
    {
      "anonymous": false,
      "inputs": [
        {
          "indexed": true,
          "internalType": "uint16",
          "name": "_srcChainId",
          "type": "uint16"
        },
        {
          "indexed": true,
          "internalType": "address",
          "name": "_to",
          "type": "address"
        },
        {
          "indexed": false,
          "internalType": "uint256",
          "name": "_amount",
          "type": "uint256"
        }
      ],
      "name": "ReceiveFromChain",
      "type": "event"
    },
    {
      "anonymous": false,
      "inputs": [
        {
          "indexed": false,
          "internalType": "uint16",
          "name": "_srcChainId",
          "type": "uint16"
        },
        {
          "indexed": false,
          "internalType": "bytes",
          "name": "_srcAddress",
          "type": "bytes"
        },
        {
          "indexed": false,
          "internalType": "uint64",
          "name": "_nonce",
          "type": "uint64"
        },
        {
          "indexed": false,
          "internalType": "bytes32",
          "name": "_payloadHash",
          "type": "bytes32"
        }
      ],
      "name": "RetryMessageSuccess",
      "type": "event"
    },
    {
      "anonymous": false,
      "inputs": [
        {
          "indexed": true,
          "internalType": "uint16",
          "name": "_dstChainId",
          "type": "uint16"
        },
        {
          "indexed": true,
          "internalType": "address",
          "name": "_from",
          "type": "address"
        },
        {
          "indexed": true,
          "internalType": "bytes32",
          "name": "_toAddress",
          "type": "bytes32"
        },
        {
          "indexed": false,
          "internalType": "uint256",
          "name": "_amount",
          "type": "uint256"
        }
      ],
      "name": "SendToChain",
      "type": "event"
    },
    {
      "anonymous": false,
      "inputs": [
        {
          "indexed": true,
          "internalType": "address",
          "name": "_for",
          "type": "address"
        },
        {
          "indexed": false,
          "internalType": "bool",
          "name": "_status",
          "type": "bool"
        }
      ],
      "name": "SetBurnerStatus",
      "type": "event"
    },
    {
      "anonymous": false,
      "inputs": [
        {
          "indexed": false,
          "internalType": "uint16",
          "name": "_dstChainId",
          "type": "uint16"
        },
        {
          "indexed": false,
          "internalType": "uint16",
          "name": "_type",
          "type": "uint16"
        },
        {
          "indexed": false,
          "internalType": "uint256",
          "name": "_minDstGas",
          "type": "uint256"
        }
      ],
      "name": "SetMinDstGas",
      "type": "event"
    },
    {
      "anonymous": false,
      "inputs": [
        {
          "indexed": true,
          "internalType": "address",
          "name": "_for",
          "type": "address"
        },
        {
          "indexed": false,
          "internalType": "bool",
          "name": "_status",
          "type": "bool"
        }
      ],
      "name": "SetMinterStatus",
      "type": "event"
    },
    {
      "anonymous": false,
      "inputs": [
        {
          "indexed": false,
          "internalType": "address",
          "name": "precrime",
          "type": "address"
        }
      ],
      "name": "SetPrecrime",
      "type": "event"
    },
    {
      "anonymous": false,
      "inputs": [
        {
          "indexed": false,
          "internalType": "uint16",
          "name": "_remoteChainId",
          "type": "uint16"
        },
        {
          "indexed": false,
          "internalType": "bytes",
          "name": "_path",
          "type": "bytes"
        }
      ],
      "name": "SetTrustedRemote",
      "type": "event"
    },
    {
      "anonymous": false,
      "inputs": [
        {
          "indexed": false,
          "internalType": "uint16",
          "name": "_remoteChainId",
          "type": "uint16"
        },
        {
          "indexed": false,
          "internalType": "bytes",
          "name": "_remoteAddress",
          "type": "bytes"
        }
      ],
      "name": "SetTrustedRemoteAddress",
      "type": "event"
    },
    {
      "anonymous": false,
      "inputs": [
        {
          "indexed": false,
          "internalType": "bool",
          "name": "_useCustomAdapterParams",
          "type": "bool"
        }
      ],
      "name": "SetUseCustomAdapterParams",
      "type": "event"
    },
    {
      "anonymous": false,
      "inputs": [
        {
          "indexed": true,
          "internalType": "address",
          "name": "from",
          "type": "address"
        },
        {
          "indexed": true,
          "internalType": "address",
          "name": "to",
          "type": "address"
        },
        {
          "indexed": false,
          "internalType": "uint256",
          "name": "value",
          "type": "uint256"
        }
      ],
      "name": "Transfer",
      "type": "event"
    },
    {
      "anonymous": false,
      "inputs": [
        {
          "indexed": false,
          "internalType": "uint256",
          "name": "_amount",
          "type": "uint256"
        }
      ],
      "name": "YieldBoxDeposit",
      "type": "event"
    },
    {
      "anonymous": false,
      "inputs": [
        {
          "indexed": false,
          "internalType": "uint256",
          "name": "_amount",
          "type": "uint256"
        }
      ],
      "name": "YieldBoxRetrieval",
      "type": "event"
    },
    {
      "inputs": [],
      "name": "DEFAULT_PAYLOAD_SIZE_LIMIT",
      "outputs": [
        {
          "internalType": "uint256",
          "name": "",
          "type": "uint256"
        }
      ],
      "stateMutability": "view",
      "type": "function"
    },
    {
      "inputs": [],
      "name": "MINT_WINDOW",
      "outputs": [
        {
          "internalType": "uint256",
          "name": "",
          "type": "uint256"
        }
      ],
      "stateMutability": "view",
      "type": "function"
    },
    {
      "inputs": [],
      "name": "NO_EXTRA_GAS",
      "outputs": [
        {
          "internalType": "uint256",
          "name": "",
          "type": "uint256"
        }
      ],
      "stateMutability": "view",
      "type": "function"
    },
    {
      "inputs": [],
      "name": "PT_SEND",
      "outputs": [
        {
          "internalType": "uint8",
          "name": "",
          "type": "uint8"
        }
      ],
      "stateMutability": "view",
      "type": "function"
    },
    {
      "inputs": [],
      "name": "PT_SEND_AND_CALL",
      "outputs": [
        {
          "internalType": "uint8",
          "name": "",
          "type": "uint8"
        }
      ],
      "stateMutability": "view",
      "type": "function"
    },
    {
      "inputs": [],
      "name": "PT_YB_DEPOSIT",
      "outputs": [
        {
          "internalType": "uint16",
          "name": "",
          "type": "uint16"
        }
      ],
      "stateMutability": "view",
      "type": "function"
    },
    {
      "inputs": [],
      "name": "PT_YB_RETRIEVE_STRAT",
      "outputs": [
        {
          "internalType": "uint16",
          "name": "",
          "type": "uint16"
        }
      ],
      "stateMutability": "view",
      "type": "function"
    },
    {
      "inputs": [],
      "name": "PT_YB_SEND_STRAT",
      "outputs": [
        {
          "internalType": "uint16",
          "name": "",
          "type": "uint16"
        }
      ],
      "stateMutability": "view",
      "type": "function"
    },
    {
      "inputs": [],
      "name": "PT_YB_WITHDRAW",
      "outputs": [
        {
          "internalType": "uint16",
          "name": "",
          "type": "uint16"
        }
      ],
      "stateMutability": "view",
      "type": "function"
    },
    {
      "inputs": [
        {
          "internalType": "address",
          "name": "owner",
          "type": "address"
        },
        {
          "internalType": "address",
          "name": "spender",
          "type": "address"
        }
      ],
      "name": "allowance",
      "outputs": [
        {
          "internalType": "uint256",
          "name": "",
          "type": "uint256"
        }
      ],
      "stateMutability": "view",
      "type": "function"
    },
    {
      "inputs": [
        {
          "internalType": "uint256",
          "name": "",
          "type": "uint256"
        },
        {
          "internalType": "address",
          "name": "",
          "type": "address"
        }
      ],
      "name": "allowedBurner",
      "outputs": [
        {
          "internalType": "bool",
          "name": "",
          "type": "bool"
        }
      ],
      "stateMutability": "view",
      "type": "function"
    },
    {
      "inputs": [
        {
          "internalType": "uint256",
          "name": "",
          "type": "uint256"
        },
        {
          "internalType": "address",
          "name": "",
          "type": "address"
        }
      ],
      "name": "allowedMinter",
      "outputs": [
        {
          "internalType": "bool",
          "name": "",
          "type": "bool"
        }
      ],
      "stateMutability": "view",
      "type": "function"
    },
    {
      "inputs": [
        {
          "internalType": "address",
          "name": "spender",
          "type": "address"
        },
        {
          "internalType": "uint256",
          "name": "amount",
          "type": "uint256"
        }
      ],
      "name": "approve",
      "outputs": [
        {
          "internalType": "bool",
          "name": "",
          "type": "bool"
        }
      ],
      "stateMutability": "nonpayable",
      "type": "function"
    },
    {
      "inputs": [
        {
          "internalType": "address",
          "name": "account",
          "type": "address"
        }
      ],
      "name": "balanceOf",
      "outputs": [
        {
          "internalType": "uint256",
          "name": "",
          "type": "uint256"
        }
      ],
      "stateMutability": "view",
      "type": "function"
    },
    {
      "inputs": [
        {
          "internalType": "address",
          "name": "_from",
          "type": "address"
        },
        {
          "internalType": "uint256",
          "name": "_amount",
          "type": "uint256"
        }
      ],
      "name": "burn",
      "outputs": [],
      "stateMutability": "nonpayable",
      "type": "function"
    },
    {
      "inputs": [
        {
          "internalType": "uint16",
          "name": "_srcChainId",
          "type": "uint16"
        },
        {
          "internalType": "bytes",
          "name": "_srcAddress",
          "type": "bytes"
        },
        {
          "internalType": "uint64",
          "name": "_nonce",
          "type": "uint64"
        },
        {
          "internalType": "bytes32",
          "name": "_from",
          "type": "bytes32"
        },
        {
          "internalType": "address",
          "name": "_to",
          "type": "address"
        },
        {
          "internalType": "uint256",
          "name": "_amount",
          "type": "uint256"
        },
        {
          "internalType": "bytes",
          "name": "_payload",
          "type": "bytes"
        },
        {
          "internalType": "uint256",
          "name": "_gasForCall",
          "type": "uint256"
        }
      ],
      "name": "callOnOFTReceived",
      "outputs": [],
      "stateMutability": "nonpayable",
      "type": "function"
    },
    {
      "inputs": [],
      "name": "circulatingSupply",
      "outputs": [
        {
          "internalType": "uint256",
          "name": "",
          "type": "uint256"
        }
      ],
      "stateMutability": "view",
      "type": "function"
    },
    {
      "inputs": [],
      "name": "conservator",
      "outputs": [
        {
          "internalType": "address",
          "name": "",
          "type": "address"
        }
      ],
      "stateMutability": "view",
      "type": "function"
    },
    {
      "inputs": [
        {
          "internalType": "uint16",
          "name": "",
          "type": "uint16"
        },
        {
          "internalType": "bytes",
          "name": "",
          "type": "bytes"
        },
        {
          "internalType": "uint64",
          "name": "",
          "type": "uint64"
        }
      ],
      "name": "creditedPackets",
      "outputs": [
        {
          "internalType": "bool",
          "name": "",
          "type": "bool"
        }
      ],
      "stateMutability": "view",
      "type": "function"
    },
    {
      "inputs": [],
      "name": "decimals",
      "outputs": [
        {
          "internalType": "uint8",
          "name": "",
          "type": "uint8"
        }
      ],
      "stateMutability": "pure",
      "type": "function"
    },
    {
      "inputs": [
        {
          "internalType": "address",
          "name": "spender",
          "type": "address"
        },
        {
          "internalType": "uint256",
          "name": "subtractedValue",
          "type": "uint256"
        }
      ],
      "name": "decreaseAllowance",
      "outputs": [
        {
          "internalType": "bool",
          "name": "",
          "type": "bool"
        }
      ],
      "stateMutability": "nonpayable",
      "type": "function"
    },
    {
      "inputs": [
        {
          "internalType": "uint16",
          "name": "_dstChainId",
          "type": "uint16"
        },
        {
          "internalType": "bytes32",
          "name": "_toAddress",
          "type": "bytes32"
        },
        {
          "internalType": "uint256",
          "name": "_amount",
          "type": "uint256"
        },
        {
          "internalType": "bytes",
          "name": "_payload",
          "type": "bytes"
        },
        {
          "internalType": "uint64",
          "name": "_dstGasForCall",
          "type": "uint64"
        },
        {
          "internalType": "bool",
          "name": "_useZro",
          "type": "bool"
        },
        {
          "internalType": "bytes",
          "name": "_adapterParams",
          "type": "bytes"
        }
      ],
      "name": "estimateSendAndCallFee",
      "outputs": [
        {
          "internalType": "uint256",
          "name": "nativeFee",
          "type": "uint256"
        },
        {
          "internalType": "uint256",
          "name": "zroFee",
          "type": "uint256"
        }
      ],
      "stateMutability": "view",
      "type": "function"
    },
    {
      "inputs": [
        {
          "internalType": "uint16",
          "name": "_dstChainId",
          "type": "uint16"
        },
        {
          "internalType": "bytes32",
          "name": "_toAddress",
          "type": "bytes32"
        },
        {
          "internalType": "uint256",
          "name": "_amount",
          "type": "uint256"
        },
        {
          "internalType": "bool",
          "name": "_useZro",
          "type": "bool"
        },
        {
          "internalType": "bytes",
          "name": "_adapterParams",
          "type": "bytes"
        }
      ],
      "name": "estimateSendFee",
      "outputs": [
        {
          "internalType": "uint256",
          "name": "nativeFee",
          "type": "uint256"
        },
        {
          "internalType": "uint256",
          "name": "zroFee",
          "type": "uint256"
        }
      ],
      "stateMutability": "view",
      "type": "function"
    },
    {
      "inputs": [
        {
          "internalType": "uint16",
          "name": "",
          "type": "uint16"
        },
        {
          "internalType": "bytes",
          "name": "",
          "type": "bytes"
        },
        {
          "internalType": "uint64",
          "name": "",
          "type": "uint64"
        }
      ],
      "name": "failedMessages",
      "outputs": [
        {
          "internalType": "bytes32",
          "name": "",
          "type": "bytes32"
        }
      ],
      "stateMutability": "view",
      "type": "function"
    },
    {
      "inputs": [
        {
          "internalType": "address",
          "name": "token",
          "type": "address"
        },
        {
          "internalType": "uint256",
          "name": "amount",
          "type": "uint256"
        }
      ],
      "name": "flashFee",
      "outputs": [
        {
          "internalType": "uint256",
          "name": "",
          "type": "uint256"
        }
      ],
      "stateMutability": "view",
      "type": "function"
    },
    {
      "inputs": [
        {
          "internalType": "contract IERC3156FlashBorrower",
          "name": "receiver",
          "type": "address"
        },
        {
          "internalType": "address",
          "name": "token",
          "type": "address"
        },
        {
          "internalType": "uint256",
          "name": "amount",
          "type": "uint256"
        },
        {
          "internalType": "bytes",
          "name": "data",
          "type": "bytes"
        }
      ],
      "name": "flashLoan",
      "outputs": [
        {
          "internalType": "bool",
          "name": "",
          "type": "bool"
        }
      ],
      "stateMutability": "nonpayable",
      "type": "function"
    },
    {
      "inputs": [],
      "name": "flashMintFee",
      "outputs": [
        {
          "internalType": "uint256",
          "name": "",
          "type": "uint256"
        }
      ],
      "stateMutability": "view",
      "type": "function"
    },
    {
      "inputs": [
        {
          "internalType": "uint16",
          "name": "_srcChainId",
          "type": "uint16"
        },
        {
          "internalType": "bytes",
          "name": "_srcAddress",
          "type": "bytes"
        }
      ],
      "name": "forceResumeReceive",
      "outputs": [],
      "stateMutability": "nonpayable",
      "type": "function"
    },
    {
      "inputs": [
        {
          "internalType": "uint256",
          "name": "_val",
          "type": "uint256"
        }
      ],
      "name": "freeMint",
      "outputs": [],
      "stateMutability": "nonpayable",
      "type": "function"
    },
    {
      "inputs": [
        {
          "internalType": "uint16",
          "name": "_version",
          "type": "uint16"
        },
        {
          "internalType": "uint16",
          "name": "_chainId",
          "type": "uint16"
        },
        {
          "internalType": "address",
          "name": "",
          "type": "address"
        },
        {
          "internalType": "uint256",
          "name": "_configType",
          "type": "uint256"
        }
      ],
      "name": "getConfig",
      "outputs": [
        {
          "internalType": "bytes",
          "name": "",
          "type": "bytes"
        }
      ],
      "stateMutability": "view",
      "type": "function"
    },
    {
      "inputs": [
        {
          "internalType": "uint16",
          "name": "_remoteChainId",
          "type": "uint16"
        }
      ],
      "name": "getTrustedRemoteAddress",
      "outputs": [
        {
          "internalType": "bytes",
          "name": "",
          "type": "bytes"
        }
      ],
      "stateMutability": "view",
      "type": "function"
    },
    {
      "inputs": [
        {
          "internalType": "address",
          "name": "spender",
          "type": "address"
        },
        {
          "internalType": "uint256",
          "name": "addedValue",
          "type": "uint256"
        }
      ],
      "name": "increaseAllowance",
      "outputs": [
        {
          "internalType": "bool",
          "name": "",
          "type": "bool"
        }
      ],
      "stateMutability": "nonpayable",
      "type": "function"
    },
    {
      "inputs": [
        {
          "internalType": "uint16",
          "name": "_srcChainId",
          "type": "uint16"
        },
        {
          "internalType": "bytes",
          "name": "_srcAddress",
          "type": "bytes"
        }
      ],
      "name": "isTrustedRemote",
      "outputs": [
        {
          "internalType": "bool",
          "name": "",
          "type": "bool"
        }
      ],
      "stateMutability": "view",
      "type": "function"
    },
    {
      "inputs": [],
      "name": "lzEndpoint",
      "outputs": [
        {
          "internalType": "contract ILayerZeroEndpoint",
          "name": "",
          "type": "address"
        }
      ],
      "stateMutability": "view",
      "type": "function"
    },
    {
      "inputs": [
        {
          "internalType": "uint16",
          "name": "_srcChainId",
          "type": "uint16"
        },
        {
          "internalType": "bytes",
          "name": "_srcAddress",
          "type": "bytes"
        },
        {
          "internalType": "uint64",
          "name": "_nonce",
          "type": "uint64"
        },
        {
          "internalType": "bytes",
          "name": "_payload",
          "type": "bytes"
        }
      ],
      "name": "lzReceive",
      "outputs": [],
      "stateMutability": "nonpayable",
      "type": "function"
    },
    {
      "inputs": [
        {
          "internalType": "address",
          "name": "",
          "type": "address"
        }
      ],
      "name": "maxFlashLoan",
      "outputs": [
        {
          "internalType": "uint256",
          "name": "",
          "type": "uint256"
        }
      ],
      "stateMutability": "view",
      "type": "function"
    },
    {
      "inputs": [],
      "name": "maxFlashMint",
      "outputs": [
        {
          "internalType": "uint256",
          "name": "",
          "type": "uint256"
        }
      ],
      "stateMutability": "view",
      "type": "function"
    },
    {
      "inputs": [
        {
          "internalType": "uint16",
          "name": "",
          "type": "uint16"
        },
        {
          "internalType": "uint16",
          "name": "",
          "type": "uint16"
        }
      ],
      "name": "minDstGasLookup",
      "outputs": [
        {
          "internalType": "uint256",
          "name": "",
          "type": "uint256"
        }
      ],
      "stateMutability": "view",
      "type": "function"
    },
    {
      "inputs": [
        {
          "internalType": "address",
          "name": "_to",
          "type": "address"
        },
        {
          "internalType": "uint256",
          "name": "_amount",
          "type": "uint256"
        }
      ],
      "name": "mint",
      "outputs": [],
      "stateMutability": "nonpayable",
      "type": "function"
    },
    {
      "inputs": [],
      "name": "mintLimit",
      "outputs": [
        {
          "internalType": "uint256",
          "name": "",
          "type": "uint256"
        }
      ],
      "stateMutability": "view",
      "type": "function"
    },
    {
      "inputs": [
        {
          "internalType": "address",
          "name": "",
          "type": "address"
        }
      ],
      "name": "mintedAt",
      "outputs": [
        {
          "internalType": "uint256",
          "name": "",
          "type": "uint256"
        }
      ],
      "stateMutability": "view",
      "type": "function"
    },
    {
      "inputs": [],
      "name": "name",
      "outputs": [
        {
          "internalType": "string",
          "name": "",
          "type": "string"
        }
      ],
      "stateMutability": "view",
      "type": "function"
    },
    {
      "inputs": [
        {
          "internalType": "uint16",
          "name": "_srcChainId",
          "type": "uint16"
        },
        {
          "internalType": "bytes",
          "name": "_srcAddress",
          "type": "bytes"
        },
        {
          "internalType": "uint64",
          "name": "_nonce",
          "type": "uint64"
        },
        {
          "internalType": "bytes",
          "name": "_payload",
          "type": "bytes"
        }
      ],
      "name": "nonblockingLzReceive",
      "outputs": [],
      "stateMutability": "nonpayable",
      "type": "function"
    },
    {
      "inputs": [],
      "name": "owner",
      "outputs": [
        {
          "internalType": "address",
          "name": "",
          "type": "address"
        }
      ],
      "stateMutability": "view",
      "type": "function"
    },
    {
      "inputs": [],
      "name": "paused",
      "outputs": [
        {
          "internalType": "bool",
          "name": "",
          "type": "bool"
        }
      ],
      "stateMutability": "view",
      "type": "function"
    },
    {
      "inputs": [
        {
          "internalType": "uint16",
          "name": "",
          "type": "uint16"
        }
      ],
      "name": "payloadSizeLimitLookup",
      "outputs": [
        {
          "internalType": "uint256",
          "name": "",
          "type": "uint256"
        }
      ],
      "stateMutability": "view",
      "type": "function"
    },
    {
      "inputs": [],
      "name": "precrime",
      "outputs": [
        {
          "internalType": "address",
          "name": "",
          "type": "address"
        }
      ],
      "stateMutability": "view",
      "type": "function"
    },
    {
      "inputs": [],
      "name": "renounceOwnership",
      "outputs": [],
      "stateMutability": "nonpayable",
      "type": "function"
    },
    {
      "inputs": [
        {
          "internalType": "uint256",
          "name": "amount",
          "type": "uint256"
        },
        {
          "internalType": "uint256",
          "name": "assetId",
          "type": "uint256"
        },
        {
          "internalType": "uint16",
          "name": "lzDstChainId",
          "type": "uint16"
        },
        {
          "internalType": "address",
          "name": "zroPaymentAddress",
          "type": "address"
        },
        {
          "internalType": "bytes",
          "name": "airdropAdapterParam",
          "type": "bytes"
        },
        {
          "internalType": "bool",
          "name": "strategyWithdrawal",
          "type": "bool"
        }
      ],
      "name": "retrieveFromYB",
      "outputs": [],
      "stateMutability": "payable",
      "type": "function"
    },
    {
      "inputs": [
        {
          "internalType": "uint16",
          "name": "_srcChainId",
          "type": "uint16"
        },
        {
          "internalType": "bytes",
          "name": "_srcAddress",
          "type": "bytes"
        },
        {
          "internalType": "uint64",
          "name": "_nonce",
          "type": "uint64"
        },
        {
          "internalType": "bytes",
          "name": "_payload",
          "type": "bytes"
        }
      ],
      "name": "retryMessage",
      "outputs": [],
      "stateMutability": "payable",
      "type": "function"
    },
    {
      "inputs": [
        {
          "internalType": "address",
          "name": "_from",
          "type": "address"
        },
        {
          "internalType": "uint16",
          "name": "_dstChainId",
          "type": "uint16"
        },
        {
          "internalType": "bytes32",
          "name": "_toAddress",
          "type": "bytes32"
        },
        {
          "internalType": "uint256",
          "name": "_amount",
          "type": "uint256"
        },
        {
          "internalType": "bytes",
          "name": "_payload",
          "type": "bytes"
        },
        {
          "internalType": "uint64",
          "name": "_dstGasForCall",
          "type": "uint64"
        },
        {
          "components": [
            {
              "internalType": "address payable",
              "name": "refundAddress",
              "type": "address"
            },
            {
              "internalType": "address",
              "name": "zroPaymentAddress",
              "type": "address"
            },
            {
              "internalType": "bytes",
              "name": "adapterParams",
              "type": "bytes"
            }
          ],
          "internalType": "struct ICommonOFT.LzCallParams",
          "name": "_callParams",
          "type": "tuple"
        }
      ],
      "name": "sendAndCall",
      "outputs": [],
      "stateMutability": "payable",
      "type": "function"
    },
    {
      "inputs": [
        {
          "internalType": "address",
          "name": "_from",
          "type": "address"
        },
        {
          "internalType": "uint16",
          "name": "_dstChainId",
          "type": "uint16"
        },
        {
          "internalType": "bytes32",
          "name": "_toAddress",
          "type": "bytes32"
        },
        {
          "internalType": "uint256",
          "name": "_amount",
          "type": "uint256"
        },
        {
          "components": [
            {
              "internalType": "address payable",
              "name": "refundAddress",
              "type": "address"
            },
            {
              "internalType": "address",
              "name": "zroPaymentAddress",
              "type": "address"
            },
            {
              "internalType": "bytes",
              "name": "adapterParams",
              "type": "bytes"
            }
          ],
          "internalType": "struct ICommonOFT.LzCallParams",
          "name": "_callParams",
          "type": "tuple"
        }
      ],
      "name": "sendFrom",
      "outputs": [],
      "stateMutability": "payable",
      "type": "function"
    },
    {
      "inputs": [
        {
          "internalType": "uint256",
          "name": "amount",
          "type": "uint256"
        },
        {
          "internalType": "uint256",
          "name": "assetId",
          "type": "uint256"
        },
        {
          "internalType": "uint16",
          "name": "lzDstChainId",
          "type": "uint16"
        },
        {
          "internalType": "uint256",
          "name": "extraGasLimit",
          "type": "uint256"
        },
        {
          "internalType": "address",
          "name": "zroPaymentAddress",
          "type": "address"
        },
        {
          "internalType": "bool",
          "name": "strategyDeposit",
          "type": "bool"
        }
      ],
      "name": "sendToYB",
      "outputs": [],
      "stateMutability": "payable",
      "type": "function"
    },
    {
      "inputs": [
        {
          "internalType": "address",
          "name": "_for",
          "type": "address"
        },
        {
          "internalType": "bool",
          "name": "_status",
          "type": "bool"
        }
      ],
      "name": "setBurnerStatus",
      "outputs": [],
      "stateMutability": "nonpayable",
      "type": "function"
    },
    {
      "inputs": [
        {
          "internalType": "uint16",
          "name": "_version",
          "type": "uint16"
        },
        {
          "internalType": "uint16",
          "name": "_chainId",
          "type": "uint16"
        },
        {
          "internalType": "uint256",
          "name": "_configType",
          "type": "uint256"
        },
        {
          "internalType": "bytes",
          "name": "_config",
          "type": "bytes"
        }
      ],
      "name": "setConfig",
      "outputs": [],
      "stateMutability": "nonpayable",
      "type": "function"
    },
    {
      "inputs": [
        {
          "internalType": "address",
          "name": "_conservator",
          "type": "address"
        }
      ],
      "name": "setConservator",
      "outputs": [],
      "stateMutability": "nonpayable",
      "type": "function"
    },
    {
      "inputs": [
        {
          "internalType": "uint256",
          "name": "_val",
          "type": "uint256"
        }
      ],
      "name": "setFlashMintFee",
      "outputs": [],
      "stateMutability": "nonpayable",
      "type": "function"
    },
    {
      "inputs": [
        {
          "internalType": "uint256",
          "name": "_val",
          "type": "uint256"
        }
      ],
      "name": "setMaxFlashMintable",
      "outputs": [],
      "stateMutability": "nonpayable",
      "type": "function"
    },
    {
      "inputs": [
        {
          "internalType": "uint16",
          "name": "_dstChainId",
          "type": "uint16"
        },
        {
          "internalType": "uint16",
          "name": "_packetType",
          "type": "uint16"
        },
        {
          "internalType": "uint256",
          "name": "_minGas",
          "type": "uint256"
        }
      ],
      "name": "setMinDstGas",
      "outputs": [],
      "stateMutability": "nonpayable",
      "type": "function"
    },
    {
      "inputs": [
        {
          "internalType": "uint256",
          "name": "_val",
          "type": "uint256"
        }
      ],
      "name": "setMintLimit",
      "outputs": [],
      "stateMutability": "nonpayable",
      "type": "function"
    },
    {
      "inputs": [
        {
          "internalType": "address",
          "name": "_for",
          "type": "address"
        },
        {
          "internalType": "bool",
          "name": "_status",
          "type": "bool"
        }
      ],
      "name": "setMinterStatus",
      "outputs": [],
      "stateMutability": "nonpayable",
      "type": "function"
    },
    {
      "inputs": [
        {
          "internalType": "uint16",
          "name": "_dstChainId",
          "type": "uint16"
        },
        {
          "internalType": "uint256",
          "name": "_size",
          "type": "uint256"
        }
      ],
      "name": "setPayloadSizeLimit",
      "outputs": [],
      "stateMutability": "nonpayable",
      "type": "function"
    },
    {
      "inputs": [
        {
          "internalType": "address",
          "name": "_precrime",
          "type": "address"
        }
      ],
      "name": "setPrecrime",
      "outputs": [],
      "stateMutability": "nonpayable",
      "type": "function"
    },
    {
      "inputs": [
        {
          "internalType": "uint16",
          "name": "_version",
          "type": "uint16"
        }
      ],
      "name": "setReceiveVersion",
      "outputs": [],
      "stateMutability": "nonpayable",
      "type": "function"
    },
    {
      "inputs": [
        {
          "internalType": "uint16",
          "name": "_version",
          "type": "uint16"
        }
      ],
      "name": "setSendVersion",
      "outputs": [],
      "stateMutability": "nonpayable",
      "type": "function"
    },
    {
      "inputs": [
        {
          "internalType": "uint16",
          "name": "_srcChainId",
          "type": "uint16"
        },
        {
          "internalType": "bytes",
          "name": "_path",
          "type": "bytes"
        }
      ],
      "name": "setTrustedRemote",
      "outputs": [],
      "stateMutability": "nonpayable",
      "type": "function"
    },
    {
      "inputs": [
        {
          "internalType": "uint16",
          "name": "_remoteChainId",
          "type": "uint16"
        },
        {
          "internalType": "bytes",
          "name": "_remoteAddress",
          "type": "bytes"
        }
      ],
      "name": "setTrustedRemoteAddress",
      "outputs": [],
      "stateMutability": "nonpayable",
      "type": "function"
    },
    {
      "inputs": [
        {
          "internalType": "bool",
          "name": "_useCustomAdapterParams",
          "type": "bool"
        }
      ],
      "name": "setUseCustomAdapterParams",
      "outputs": [],
      "stateMutability": "nonpayable",
      "type": "function"
    },
    {
      "inputs": [],
      "name": "sharedDecimals",
      "outputs": [
        {
          "internalType": "uint8",
          "name": "",
          "type": "uint8"
        }
      ],
      "stateMutability": "view",
      "type": "function"
    },
    {
      "inputs": [
        {
          "internalType": "bytes4",
          "name": "interfaceId",
          "type": "bytes4"
        }
      ],
      "name": "supportsInterface",
      "outputs": [
        {
          "internalType": "bool",
          "name": "",
          "type": "bool"
        }
      ],
      "stateMutability": "view",
      "type": "function"
    },
    {
      "inputs": [],
      "name": "symbol",
      "outputs": [
        {
          "internalType": "string",
          "name": "",
          "type": "string"
        }
      ],
      "stateMutability": "view",
      "type": "function"
    },
    {
      "inputs": [],
      "name": "token",
      "outputs": [
        {
          "internalType": "address",
          "name": "",
          "type": "address"
        }
      ],
      "stateMutability": "view",
      "type": "function"
    },
    {
      "inputs": [],
      "name": "totalSupply",
      "outputs": [
        {
          "internalType": "uint256",
          "name": "",
          "type": "uint256"
        }
      ],
      "stateMutability": "view",
      "type": "function"
    },
    {
      "inputs": [
        {
          "internalType": "address",
          "name": "to",
          "type": "address"
        },
        {
          "internalType": "uint256",
          "name": "amount",
          "type": "uint256"
        }
      ],
      "name": "transfer",
      "outputs": [
        {
          "internalType": "bool",
          "name": "",
          "type": "bool"
        }
      ],
      "stateMutability": "nonpayable",
      "type": "function"
    },
    {
      "inputs": [
        {
          "internalType": "address",
          "name": "from",
          "type": "address"
        },
        {
          "internalType": "address",
          "name": "to",
          "type": "address"
        },
        {
          "internalType": "uint256",
          "name": "amount",
          "type": "uint256"
        }
      ],
      "name": "transferFrom",
      "outputs": [
        {
          "internalType": "bool",
          "name": "",
          "type": "bool"
        }
      ],
      "stateMutability": "nonpayable",
      "type": "function"
    },
    {
      "inputs": [
        {
          "internalType": "address",
          "name": "newOwner",
          "type": "address"
        }
      ],
      "name": "transferOwnership",
      "outputs": [],
      "stateMutability": "nonpayable",
      "type": "function"
    },
    {
      "inputs": [
        {
          "internalType": "uint16",
          "name": "",
          "type": "uint16"
        }
      ],
      "name": "trustedRemoteLookup",
      "outputs": [
        {
          "internalType": "bytes",
          "name": "",
          "type": "bytes"
        }
      ],
      "stateMutability": "view",
      "type": "function"
    },
    {
      "inputs": [
        {
          "internalType": "bool",
          "name": "val",
          "type": "bool"
        }
      ],
      "name": "updatePause",
      "outputs": [],
      "stateMutability": "nonpayable",
      "type": "function"
    },
    {
      "inputs": [],
      "name": "useCustomAdapterParams",
      "outputs": [
        {
          "internalType": "bool",
          "name": "",
          "type": "bool"
        }
      ],
      "stateMutability": "view",
      "type": "function"
    },
    {
      "inputs": [],
      "name": "yieldBox",
      "outputs": [
        {
          "internalType": "contract IYieldBox",
          "name": "",
          "type": "address"
        }
      ],
      "stateMutability": "view",
      "type": "function"
    },
    {
      "stateMutability": "payable",
      "type": "receive"
    }
  ],
  "transactionHash": "0xec3215297f884de7f668009a6617d51eb54c3f0b48fbe1863a358be91976a84d",
  "args": [
    "0x6aB5Ae6822647046626e83ee6dB8187151E1d5ab",
    "0x93cF32C5fF98c0758b32dF9F6DB9e4f4faaCe736"
  ],
  "numDeployments": 1,
  "solcInputHash": "22b39b2f6d00558a7fb089086d454fbb",
  "bytecode": "0x6101006040523480156200001257600080fd5b5060405162006351380380620063518339810160408190526200003591620002db565b80604051806040016040528060048152602001630555344360e41b815250604051806040016040528060048152602001630555344360e41b8152506008858383838381818080620000956200008f620001f760201b60201c565b620001fb565b6001600160a01b0316608052505060ff1660a05250600b9050620000ba8382620003bf565b50600c620000c98282620003bf565b5050506000620000de6200024b60201b60201c565b90508060ff168360ff1611156200014b5760405162461bcd60e51b815260206004820152602760248201527f4f46543a20736861726564446563696d616c73206d757374206265203c3d20646044820152666563696d616c7360c81b606482015260840160405180910390fd5b620001578382620004a1565b6200016490600a620005c6565b60c0525050506001600160a01b0390921660e05250600090506200018762000250565b6000818152600e60209081526040808320338085529083528184208054600160ff199182168117909255958552600f8452828520918552925290912080549092161790555050600a6011555069152d02c7e14af68000006012556b033b2e3c9fd0803ce800000060145562000604565b3390565b600080546001600160a01b038381166001600160a01b0319831681178455604051919092169283917f8be0079c531659141344cd1fd0a4f28419497f9722a3daafe3b4186f6b6457e09190a35050565b601290565b60006080516001600160a01b0316633408e4706040518163ffffffff1660e01b8152600401602060405180830381865afa15801562000293573d6000803e3d6000fd5b505050506040513d601f19601f82011682018060405250810190620002b99190620005de565b61ffff16905090565b6001600160a01b0381168114620002d857600080fd5b50565b60008060408385031215620002ef57600080fd5b8251620002fc81620002c2565b60208401519092506200030f81620002c2565b809150509250929050565b634e487b7160e01b600052604160045260246000fd5b600181811c908216806200034557607f821691505b6020821081036200036657634e487b7160e01b600052602260045260246000fd5b50919050565b601f821115620003ba57600081815260208120601f850160051c81016020861015620003955750805b601f850160051c820191505b81811015620003b657828155600101620003a1565b5050505b505050565b81516001600160401b03811115620003db57620003db6200031a565b620003f381620003ec845462000330565b846200036c565b602080601f8311600181146200042b5760008415620004125750858301515b600019600386901b1c1916600185901b178555620003b6565b600085815260208120601f198616915b828110156200045c578886015182559484019460019091019084016200043b565b50858210156200047b5787850151600019600388901b60f8161c191681555b5050505050600190811b01905550565b634e487b7160e01b600052601160045260246000fd5b600060ff821660ff841680821015620004be57620004be6200048b565b90039392505050565b600181815b8085111562000508578160001904821115620004ec57620004ec6200048b565b80851615620004fa57918102915b93841c9390800290620004cc565b509250929050565b6000826200052157506001620005c0565b816200053057506000620005c0565b8160018114620005495760028114620005545762000574565b6001915050620005c0565b60ff8411156200056857620005686200048b565b50506001821b620005c0565b5060208310610133831016604e8410600b841016171562000599575081810a620005c0565b620005a58383620004c7565b8060001904821115620005bc57620005bc6200048b565b0290505b92915050565b6000620005d760ff84168362000510565b9392505050565b600060208284031215620005f157600080fd5b815161ffff81168114620005d757600080fd5b60805160a05160c05160e051615c9c620006b560003960008181610d3f015281816143510152818161440a01526144e4015260008181613beb0152818161423d015261460e01526000610965015260008181610bf401528181610f0101528181611219015281816112d90152818161162b015281816121ca01528181612341015281816129e00152818161308d0152818161311d01528181613805015281816139bc0152613da40152615c9c6000f3fe6080604052600436106104765760003560e01c80639169d59e1161024a578063c446183411610139578063eaffd49a116100b6578063f2fde38b1161007a578063f2fde38b14610e6b578063f5ecbdbc14610e8b578063f8974de014610eab578063fa74f0b514610ecb578063fc0c546a14610eeb57600080fd5b8063eaffd49a14610db6578063eb8d72b714610dd6578063ec6d062b14610df6578063ed629c5c14610e31578063f00c298d14610e4b57600080fd5b8063dd62ed3e116100fd578063dd62ed3e14610d0d578063de40657714610d2d578063df2a5b3b14610d61578063e6a20ae614610d81578063eab45d9c14610d9657600080fd5b8063c446183414610c84578063cbed8b9c14610c9a578063ce8849ed14610cba578063d1deba1f14610cda578063d9d98ce414610ced57600080fd5b80639f38369a116101c7578063ae9db2431161018b578063ae9db24314610bcf578063b353aaa714610be2578063ba03a8d714610c16578063baf3292d14610c51578063bd92ab6b14610c7157600080fd5b80639f38369a14610b2f578063a457c2d714610b4f578063a4c51df514610b6f578063a6c3d16514610b8f578063a9059cbb14610baf57600080fd5b8063996517cf1161020e578063996517cf14610a715780639bdb981214610a875780639d3f4d1a14610ad95780639dc29fac14610aef5780639e6a1d7d14610b0f57600080fd5b80639169d59e146109f15780639358928b14610a11578063940a1dc014610a26578063950c8a7414610a3c57806395d89b4114610a5c57600080fd5b806340c10f1911610366578063695ef6bf116102e357806376203b48116102a757806376203b48146109205780637c928fe914610933578063857749b0146109535780638cfd8f5c146109875780638da5cb5b146109bf57600080fd5b8063695ef6bf1461088c5780636ef7980b1461089f57806370a08231146108b5578063715018a6146108eb5780637533d7881461090057600080fd5b80635bfeaa051161032a5780635bfeaa05146107fa5780635c975abb146108105780635cffe9de1461082a578063613255ab1461084a57806366ad5c8a1461086c57600080fd5b806340c10f191461074157806342d65a8d1461076157806344770515146107815780634c42899a146107965780635b8c41e6146107ab57600080fd5b806318160ddd116103f4578063313ce567116103b8578063313ce5671461067d578063365260b41461069f57806339509351146106d45780633d8b38f6146106f45780633f1f4fa41461071457600080fd5b806318160ddd146105da5780631d2a0e3d146105f957806321442ec91461061957806322ae81af1461064657806323b872dd1461065d57600080fd5b8063095ea7b31161043b578063095ea7b3146105445780630df374831461056457806310ddb13714610584578063121dbc7c146105a457806316d995a9146105ba57600080fd5b80621d35671461048257806301ffc9a7146104a4578063069fd849146104d957806306fdde031461050257806307e0db171461052457600080fd5b3661047d57005b600080fd5b34801561048e57600080fd5b506104a261049d3660046149b9565b610efe565b005b3480156104b057600080fd5b506104c46104bf366004614a4e565b61112f565b60405190151581526020015b60405180910390f35b3480156104e557600080fd5b506104ef61030381565b60405161ffff90911681526020016104d0565b34801561050e57600080fd5b50610517611166565b6040516104d09190614ad0565b34801561053057600080fd5b506104a261053f366004614ae3565b6111f8565b34801561055057600080fd5b506104c461055f366004614b15565b611281565b34801561057057600080fd5b506104a261057f366004614b41565b611299565b34801561059057600080fd5b506104a261059f366004614ae3565b6112b8565b3480156105b057600080fd5b506104ef61030481565b3480156105c657600080fd5b506104a26105d5366004614b5f565b611310565b3480156105e657600080fd5b50600a545b6040519081526020016104d0565b34801561060557600080fd5b506104a2610614366004614b5f565b611359565b34801561062557600080fd5b506105eb610634366004614b78565b60136020526000908152604090205481565b34801561065257600080fd5b506105eb6201518081565b34801561066957600080fd5b506104c4610678366004614b95565b6113e8565b34801561068957600080fd5b5060125b60405160ff90911681526020016104d0565b3480156106ab57600080fd5b506106bf6106ba366004614be4565b61140c565b604080519283526020830191909152016104d0565b3480156106e057600080fd5b506104c46106ef366004614b15565b611461565b34801561070057600080fd5b506104c461070f366004614c4d565b611483565b34801561072057600080fd5b506105eb61072f366004614ae3565b60036020526000908152604090205481565b34801561074d57600080fd5b506104a261075c366004614b15565b61154f565b34801561076d57600080fd5b506104a261077c366004614c4d565b61160c565b34801561078d57600080fd5b506105eb600081565b3480156107a257600080fd5b5061068d600081565b3480156107b757600080fd5b506105eb6107c6366004614d64565b6005602090815260009384526040808520845180860184018051928152908401958401959095209452929052825290205481565b34801561080657600080fd5b506104ef61030581565b34801561081c57600080fd5b506010546104c49060ff1681565b34801561083657600080fd5b506104c4610845366004614dc3565b611692565b34801561085657600080fd5b506105eb610865366004614b78565b5060125490565b34801561087857600080fd5b506104a26108873660046149b9565b611930565b6104a261089a366004614e4d565b611a0c565b3480156108ab57600080fd5b506104ef61030281565b3480156108c157600080fd5b506105eb6108d0366004614b78565b6001600160a01b031660009081526008602052604090205490565b3480156108f757600080fd5b506104a2611a77565b34801561090c57600080fd5b5061051761091b366004614ae3565b611a8b565b6104a261092e366004614ec2565b611b25565b34801561093f57600080fd5b506104a261094e366004614b5f565b611bd4565b34801561095f57600080fd5b5061068d7f000000000000000000000000000000000000000000000000000000000000000081565b34801561099357600080fd5b506105eb6109a2366004614f76565b600260209081526000928352604080842090915290825290205481565b3480156109cb57600080fd5b506000546001600160a01b03165b6040516001600160a01b0390911681526020016104d0565b3480156109fd57600080fd5b506104a2610a0c366004614faf565b611c9c565b348015610a1d57600080fd5b506105eb611d18565b348015610a3257600080fd5b506105eb60115481565b348015610a4857600080fd5b506004546109d9906001600160a01b031681565b348015610a6857600080fd5b50610517611d28565b348015610a7d57600080fd5b506105eb60145481565b348015610a9357600080fd5b506104c4610aa2366004614d64565b6007602090815260009384526040808520845180860184018051928152908401958401959095209452929052825290205460ff1681565b348015610ae557600080fd5b506105eb60125481565b348015610afb57600080fd5b506104a2610b0a366004614b15565b611d37565b348015610b1b57600080fd5b506104a2610b2a366004614b5f565b611de8565b348015610b3b57600080fd5b50610517610b4a366004614ae3565b611df5565b348015610b5b57600080fd5b506104c4610b6a366004614b15565b611f0b565b348015610b7b57600080fd5b506106bf610b8a366004614fdd565b611f86565b348015610b9b57600080fd5b506104a2610baa366004614c4d565b612015565b348015610bbb57600080fd5b506104c4610bca366004614b15565b61209e565b6104a2610bdd36600461509c565b6120ac565b348015610bee57600080fd5b506109d97f000000000000000000000000000000000000000000000000000000000000000081565b348015610c2257600080fd5b506104c4610c31366004615124565b600e60209081526000928352604080842090915290825290205460ff1681565b348015610c5d57600080fd5b506104a2610c6c366004614b78565b612162565b6104a2610c7f366004615149565b6121bf565b348015610c9057600080fd5b506105eb61271081565b348015610ca657600080fd5b506104a2610cb53660046151a2565b612322565b348015610cc657600080fd5b50600d546109d9906001600160a01b031681565b6104a2610ce83660046149b9565b6123ac565b348015610cf957600080fd5b506105eb610d08366004614b15565b6125c2565b348015610d1957600080fd5b506105eb610d283660046151d5565b612630565b348015610d3957600080fd5b506109d97f000000000000000000000000000000000000000000000000000000000000000081565b348015610d6d57600080fd5b506104a2610d7c366004615203565b61265b565b348015610d8d57600080fd5b5061068d600181565b348015610da257600080fd5b506104a2610db1366004615233565b61270d565b348015610dc257600080fd5b506104a2610dd1366004615250565b612756565b348015610de257600080fd5b506104a2610df1366004614c4d565b612863565b348015610e0257600080fd5b506104c4610e11366004615124565b600f60209081526000928352604080842090915290825290205460ff1681565b348015610e3d57600080fd5b506006546104c49060ff1681565b348015610e5757600080fd5b506104a2610e66366004614faf565b6128bd565b348015610e7757600080fd5b506104a2610e86366004614b78565b612939565b348015610e9757600080fd5b50610517610ea636600461531a565b6129af565b348015610eb757600080fd5b506104a2610ec6366004615233565b612a60565b348015610ed757600080fd5b506104a2610ee6366004614b78565b612b2b565b348015610ef757600080fd5b50306109d9565b337f00000000000000000000000000000000000000000000000000000000000000006001600160a01b031614610f7b5760405162461bcd60e51b815260206004820152601e60248201527f4c7a4170703a20696e76616c696420656e64706f696e742063616c6c6572000060448201526064015b60405180910390fd5b61ffff861660009081526001602052604081208054610f999061536b565b80601f0160208091040260200160405190810160405280929190818152602001828054610fc59061536b565b80156110125780601f10610fe757610100808354040283529160200191611012565b820191906000526020600020905b815481529060010190602001808311610ff557829003601f168201915b5050505050905080518686905014801561102d575060008151115b801561105557508051602082012060405161104b908890889061539f565b6040518091039020145b6110b05760405162461bcd60e51b815260206004820152602660248201527f4c7a4170703a20696e76616c696420736f757263652073656e64696e6720636f6044820152651b9d1c9858dd60d21b6064820152608401610f72565b6111268787878080601f01602080910402602001604051908101604052809392919081815260200183838082843760009201919091525050604080516020601f8a018190048102820181019092528881528a935091508890889081908401838280828437600092019190915250612be592505050565b50505050505050565b60006001600160e01b03198216631f7ecdf760e01b148061116057506301ffc9a760e01b6001600160e01b03198316145b92915050565b6060600b80546111759061536b565b80601f01602080910402602001604051908101604052809291908181526020018280546111a19061536b565b80156111ee5780601f106111c3576101008083540402835291602001916111ee565b820191906000526020600020905b8154815290600101906020018083116111d157829003601f168201915b5050505050905090565b611200612c5e565b6040516307e0db1760e01b815261ffff821660048201527f00000000000000000000000000000000000000000000000000000000000000006001600160a01b0316906307e0db17906024015b600060405180830381600087803b15801561126657600080fd5b505af115801561127a573d6000803e3d6000fd5b5050505050565b60003361128f818585612cb8565b5060019392505050565b6112a1612c5e565b61ffff909116600090815260036020526040902055565b6112c0612c5e565b6040516310ddb13760e01b815261ffff821660048201527f00000000000000000000000000000000000000000000000000000000000000006001600160a01b0316906310ddb1379060240161124c565b611318612c5e565b60125460408051918252602082018390527f7d04cf410385806a9ac3566ac4cca4e5eaba6cc242abbf98f4f44e4ac6f3e8ff910160405180910390a1601255565b611361612c5e565b620f424081106113a75760405162461bcd60e51b8152602060048201526011602482015270555344303a2066656520746f6f2062696760781b6044820152606401610f72565b60115460408051918252602082018390527fb3a985697c0361591fe9933703eb14ce1d74444a2d349080b6dec8da77a4082b910160405180910390a1601155565b6000336113f6858285612ddd565b611401858585612e57565b506001949350505050565b6000806114528888888888888080601f01602080910402602001604051908101604052809392919081815260200183838082843760009201919091525061302592505050565b91509150965096945050505050565b60003361128f8185856114748383612630565b61147e91906153c5565b612cb8565b61ffff8316600090815260016020526040812080548291906114a49061536b565b80601f01602080910402602001604051908101604052809291908181526020018280546114d09061536b565b801561151d5780601f106114f25761010080835404028352916020019161151d565b820191906000526020600020905b81548152906001019060200180831161150057829003601f168201915b50505050509050838360405161153492919061539f565b60405180910390208180519060200120149150509392505050565b60105460ff16156115725760405162461bcd60e51b8152600401610f72906153dd565b600e600061157e613119565b81526020808201929092526040908101600090812033825290925290205460ff166115bb5760405162461bcd60e51b8152600401610f7290615403565b6115c582826131a6565b816001600160a01b03167f30385c845b448a36257a6a1716e6ad2e1bc2cbe333cde1e69fe849ad6511adfe8260405161160091815260200190565b60405180910390a25050565b611614612c5e565b6040516342d65a8d60e01b81526001600160a01b037f000000000000000000000000000000000000000000000000000000000000000016906342d65a8d9061166490869086908690600401615458565b600060405180830381600087803b15801561167e57600080fd5b505af1158015611126573d6000803e3d6000fd5b60105460009060ff16156116b85760405162461bcd60e51b8152600401610f72906153dd565b6001600160a01b03851630146117085760405162461bcd60e51b81526020600482015260156024820152741554d10c0e881d1bdad95b881b9bdd081d985b1a59605a1b6044820152606401610f72565b8361171260125490565b10156117575760405162461bcd60e51b8152602060048201526014602482015273555344303a20616d6f756e7420746f6f2062696760601b6044820152606401610f72565b600084116117a05760405162461bcd60e51b81526020600482015260166024820152751554d10c0e88185b5bdd5b9d081b9bdd081d985b1a5960521b6044820152606401610f72565b60006117ac86866125c2565b90506117b887866131a6565b6040516323e30c8b60e01b81527f439148f0bbc682ca079e46d6e2c2f0c1e3b820f1a291b069d8882abf8cf18dd9906001600160a01b038916906323e30c8b906118109033908b908b9088908c908c90600401615476565b6020604051808303816000875af115801561182f573d6000803e3d6000fd5b505050506040513d601f19601f8201168201806040525081019061185391906154bd565b1461188f5760405162461bcd60e51b815260206004820152600c60248201526b1554d10c0e8819985a5b195960a21b6044820152606401610f72565b600061189b8830612630565b90506118a782876153c5565b8110156118f65760405162461bcd60e51b815260206004820152601860248201527f555344303a207265706179206e6f7420617070726f76656400000000000000006044820152606401610f72565b61190f8830611905858a6153c5565b61147e90856154d6565b6119228861191d84896153c5565b613285565b506001979650505050505050565b33301461198e5760405162461bcd60e51b815260206004820152602660248201527f4e6f6e626c6f636b696e674c7a4170703a2063616c6c6572206d7573742062656044820152650204c7a4170760d41b6064820152608401610f72565b611a048686868080601f01602080910402602001604051908101604052809392919081815260200183838082843760009201919091525050604080516020601f8901819004810282018101909252878152899350915087908790819084018382808284376000920191909152506133d092505050565b505050505050565b611a0485858585611a206020870187614b78565b611a306040880160208901614b78565b611a3d60408901896154ed565b8080601f0160208091040260200160405190810160405280939291908181526020018383808284376000920191909152506134bb92505050565b611a7f612c5e565b611a896000613591565b565b60016020526000908152604090208054611aa49061536b565b80601f0160208091040260200160405190810160405280929190818152602001828054611ad09061536b565b8015611b1d5780601f10611af257610100808354040283529160200191611b1d565b820191906000526020600020905b815481529060010190602001808311611b0057829003601f168201915b505050505081565b611bc98888888888888080601f0160208091040260200160405190810160405280939291908181526020018383808284376000920191909152508a9250611b729150506020890189614b78565b611b8260408a0160208b01614b78565b611b8f60408b018b6154ed565b8080601f0160208091040260200160405190810160405280939291908181526020018383808284376000920191909152506135e192505050565b505050505050505050565b601454811115611c1d5760405162461bcd60e51b8152602060048201526014602482015273555344303a20616d6f756e7420746f6f2062696760601b6044820152606401610f72565b336000908152601360205260409020544290611c3d9062015180906153c5565b1115611c7d5760405162461bcd60e51b815260206004820152600f60248201526e555344303a20746f6f206561726c7960881b6044820152606401610f72565b336000818152601360205260409020429055611c9990826131a6565b50565b611ca4612c5e565b80600f6000611cb1613119565b8152602080820192909252604090810160009081206001600160a01b03871680835290845290829020805460ff1916941515949094179093555183151581527fd7b463fb7e7be5d5389dafa46448b883b320f7c77f63a00c9db0e2865ccdb3d79101611600565b6000611d23600a5490565b905090565b6060600c80546111759061536b565b60105460ff1615611d5a5760405162461bcd60e51b8152600401610f72906153dd565b600f6000611d66613119565b81526020808201929092526040908101600090812033825290925290205460ff16611da35760405162461bcd60e51b8152600401610f7290615403565b611dad8282613285565b816001600160a01b03167f696de425f79f4a40bc6d2122ca50507f0efbeabbff86a84871b7196ab8ea8df78260405161160091815260200190565b611df0612c5e565b601455565b61ffff8116600090815260016020526040812080546060929190611e189061536b565b80601f0160208091040260200160405190810160405280929190818152602001828054611e449061536b565b8015611e915780601f10611e6657610100808354040283529160200191611e91565b820191906000526020600020905b815481529060010190602001808311611e7457829003601f168201915b505050505090508051600003611ee95760405162461bcd60e51b815260206004820152601d60248201527f4c7a4170703a206e6f20747275737465642070617468207265636f72640000006044820152606401610f72565b611f04600060148351611efc91906154d6565b8391906136cb565b9392505050565b60003381611f198286612630565b905083811015611f795760405162461bcd60e51b815260206004820152602560248201527f45524332303a2064656372656173656420616c6c6f77616e63652062656c6f77604482015264207a65726f60d81b6064820152608401610f72565b6114018286868403612cb8565b6000806120038b8b8b8b8b8080601f01602080910402602001604051908101604052809392919081815260200183838082843760009201919091525050604080516020601f8d018190048102820181019092528b81528e93508d9250908c908c90819084018382808284376000920191909152506137d892505050565b91509150995099975050505050505050565b61201d612c5e565b81813060405160200161203293929190615533565b60408051601f1981840301815291815261ffff851660009081526001602052209061205d908261559f565b507f8c0400cfe2d1199b1a725c78960bcc2a344d869b80590d0f2bd005db15a572ce83838360405161209193929190615458565b60405180910390a1505050565b60003361128f818585612e57565b336000826120bc576103056120c0565b6103035b336040805161ffff90931660208401528201526060810183905260808101899052600060a082015260c081018890526001600160a01b03861660e0820152610100016040516020818303038152906040529050612121868233888834613893565b81336001600160a01b03168761ffff16600080516020615c278339815191528b60405161215091815260200190565b60405180910390a45050505050505050565b61216a612c5e565b600480546001600160a01b0319166001600160a01b0383169081179091556040519081527f5db758e995a17ec1ad84bdef7e8c3293a0bd6179bcce400dff5d4c3d87db726b906020015b60405180910390a150565b6000339050612251337f00000000000000000000000000000000000000000000000000000000000000006001600160a01b0316633408e4706040518163ffffffff1660e01b8152600401602060405180830381865afa158015612226573d6000803e3d6000fd5b505050506040513d601f19601f8201168201806040525081019061224a919061565e565b838a613a38565b5060008261226157610304612265565b6103025b336040805161ffff9093166020840152820152606081018390526080810189905260a0810188905260c001604051602081830303815290604052905060006122d08660408051600160f01b602082015260228082019390935281518082039093018352604201905290565b90506122e0878333888534613893565b82336001600160a01b03168861ffff16600080516020615c278339815191528c60405161230f91815260200190565b60405180910390a4505050505050505050565b61232a612c5e565b6040516332fb62e760e21b81526001600160a01b037f0000000000000000000000000000000000000000000000000000000000000000169063cbed8b9c9061237e908890889088908890889060040161567b565b600060405180830381600087803b15801561239857600080fd5b505af1158015611bc9573d6000803e3d6000fd5b61ffff861660009081526005602052604080822090516123cf908890889061539f565b90815260408051602092819003830190206001600160401b0387166000908152925290205490508061244f5760405162461bcd60e51b815260206004820152602360248201527f4e6f6e626c6f636b696e674c7a4170703a206e6f2073746f726564206d65737360448201526261676560e81b6064820152608401610f72565b80838360405161246092919061539f565b6040518091039020146124bf5760405162461bcd60e51b815260206004820152602160248201527f4e6f6e626c6f636b696e674c7a4170703a20696e76616c6964207061796c6f616044820152601960fa1b6064820152608401610f72565b61ffff871660009081526005602052604080822090516124e2908990899061539f565b90815260408051602092819003830181206001600160401b038916600090815290845282902093909355601f8801829004820283018201905286825261257a918991899089908190840183828082843760009201919091525050604080516020601f8a018190048102820181019092528881528a9350915088908890819084018382808284376000920191909152506133d092505050565b7fc264d91f3adc5588250e1551f547752ca0cfa8f6b530d243b9f9f4cab10ea8e587878787856040516125b19594939291906156b4565b60405180910390a150505050505050565b60006001600160a01b03831630146126145760405162461bcd60e51b81526020600482015260156024820152741554d10c0e881d1bdad95b881b9bdd081d985b1a59605a1b6044820152606401610f72565b620f42406011548361262691906156ef565b611f049190615724565b6001600160a01b03918216600090815260096020908152604080832093909416825291909152205490565b612663612c5e565b600081116126ab5760405162461bcd60e51b81526020600482015260156024820152744c7a4170703a20696e76616c6964206d696e47617360581b6044820152606401610f72565b61ffff83811660008181526002602090815260408083209487168084529482529182902085905581519283528201929092529081018290527f9d5c7c0b934da8fefa9c7760c98383778a12dfbfc0c3b3106518f43fb9508ac090606001612091565b612715612c5e565b6006805460ff19168215159081179091556040519081527f1584ad594a70cbe1e6515592e1272a987d922b097ead875069cebe8b40c004a4906020016121b4565b3330146127a55760405162461bcd60e51b815260206004820152601f60248201527f4f4654436f72653a2063616c6c6572206d757374206265204f4654436f7265006044820152606401610f72565b6127b0308686613a6a565b9350846001600160a01b03168a61ffff16600080516020615c47833981519152866040516127e091815260200190565b60405180910390a3604051633fe79aed60e11b81526001600160a01b03861690637fcf35da908390612824908e908e908e908e908e908d908d908d90600401615738565b600060405180830381600088803b15801561283e57600080fd5b5087f1158015612852573d6000803e3d6000fd5b505050505050505050505050505050565b61286b612c5e565b61ffff83166000908152600160205260409020612889828483615793565b507ffa41487ad5d6728f0b19276fa1eddc16558578f5109fc39d2dc33c3230470dab83838360405161209193929190615458565b6128c5612c5e565b80600e60006128d2613119565b8152602080820192909252604090810160009081206001600160a01b03871680835290845290829020805460ff1916941515949094179093555183151581527f53b8f1e625ffdc96b26d9f5c6bba4ebc3f54077767495fa2619d32b285e193b99101611600565b612941612c5e565b6001600160a01b0381166129a65760405162461bcd60e51b815260206004820152602660248201527f4f776e61626c653a206e6577206f776e657220697320746865207a65726f206160448201526564647265737360d01b6064820152608401610f72565b611c9981613591565b604051633d7b2f6f60e21b815261ffff808616600483015284166024820152306044820152606481018290526060907f00000000000000000000000000000000000000000000000000000000000000006001600160a01b03169063f5ecbdbc90608401600060405180830381865afa158015612a2f573d6000803e3d6000fd5b505050506040513d6000823e601f3d908101601f19168201604052612a579190810190615852565b95945050505050565b600d546001600160a01b03163314612a8a5760405162461bcd60e51b8152600401610f7290615403565b60105460ff16151581151503612ad55760405162461bcd60e51b815260206004820152601060248201526f555344303a2073616d6520737461746560801b6044820152606401610f72565b6010546040805160ff9092161515825282151560208301527f9c13c5f6c628c1c82eb2b3fd8714da5c2857dbd0ad8ab6b2074abcf81015d396910160405180910390a16010805460ff1916911515919091179055565b612b33612c5e565b6001600160a01b038116612b895760405162461bcd60e51b815260206004820152601760248201527f555344303a2061646472657373206e6f742076616c69640000000000000000006044820152606401610f72565b600d546040516001600160a01b038084169216907f5a62d22209e370e38eea92cfddcd228e656e6ec139243392a760a7769f5877fd90600090a3600d80546001600160a01b0319166001600160a01b0392909216919091179055565b600080612c485a60966366ad5c8a60e01b89898989604051602401612c0d94939291906158bf565b60408051601f198184030181529190526020810180516001600160e01b03166001600160e01b03199093169290921790915230929190613abc565b9150915081611a0457611a048686868685613b46565b6000546001600160a01b03163314611a895760405162461bcd60e51b815260206004820181905260248201527f4f776e61626c653a2063616c6c6572206973206e6f7420746865206f776e65726044820152606401610f72565b6001600160a01b038316612d1a5760405162461bcd60e51b8152602060048201526024808201527f45524332303a20617070726f76652066726f6d20746865207a65726f206164646044820152637265737360e01b6064820152608401610f72565b6001600160a01b038216612d7b5760405162461bcd60e51b815260206004820152602260248201527f45524332303a20617070726f766520746f20746865207a65726f206164647265604482015261737360f01b6064820152608401610f72565b6001600160a01b0383811660008181526009602090815260408083209487168084529482529182902085905590518481527f8c5be1e5ebec7d5bd14f71427d1e84f3dd0314c0f7b2291e5b200ac8c7c3b92591015b60405180910390a3505050565b6000612de98484612630565b90506000198114612e515781811015612e445760405162461bcd60e51b815260206004820152601d60248201527f45524332303a20696e73756666696369656e7420616c6c6f77616e63650000006044820152606401610f72565b612e518484848403612cb8565b50505050565b6001600160a01b038316612ebb5760405162461bcd60e51b815260206004820152602560248201527f45524332303a207472616e736665722066726f6d20746865207a65726f206164604482015264647265737360d81b6064820152608401610f72565b6001600160a01b038216612f1d5760405162461bcd60e51b815260206004820152602360248201527f45524332303a207472616e7366657220746f20746865207a65726f206164647260448201526265737360e81b6064820152608401610f72565b6001600160a01b03831660009081526008602052604090205481811015612f955760405162461bcd60e51b815260206004820152602660248201527f45524332303a207472616e7366657220616d6f756e7420657863656564732062604482015265616c616e636560d01b6064820152608401610f72565b6001600160a01b03808516600090815260086020526040808220858503905591851681529081208054849290612fcc9084906153c5565b92505081905550826001600160a01b0316846001600160a01b03167fddf252ad1be2c89b69c2b068fc378daa952ba7f163c4a11628f55a4df523b3ef8460405161301891815260200190565b60405180910390a3612e51565b60008060006130738761303788613be3565b6040805160006020820152602181019390935260c09190911b6001600160c01b0319166041830152805160298184030181526049909201905290565b60405163040a7bb160e41b81529091506001600160a01b037f000000000000000000000000000000000000000000000000000000000000000016906340a7bb10906130ca908b90309086908b908b906004016158fd565b6040805180830381865afa1580156130e6573d6000803e3d6000fd5b505050506040513d601f19601f8201168201806040525081019061310a9190615945565b92509250509550959350505050565b60007f00000000000000000000000000000000000000000000000000000000000000006001600160a01b0316633408e4706040518163ffffffff1660e01b8152600401602060405180830381865afa158015613179573d6000803e3d6000fd5b505050506040513d601f19601f8201168201806040525081019061319d919061565e565b61ffff16905090565b6001600160a01b0382166131fc5760405162461bcd60e51b815260206004820152601f60248201527f45524332303a206d696e7420746f20746865207a65726f2061646472657373006044820152606401610f72565b80600a600082825461320e91906153c5565b90915550506001600160a01b0382166000908152600860205260408120805483929061323b9084906153c5565b90915550506040518181526001600160a01b038316906000907fddf252ad1be2c89b69c2b068fc378daa952ba7f163c4a11628f55a4df523b3ef9060200160405180910390a35050565b6001600160a01b0382166132e55760405162461bcd60e51b815260206004820152602160248201527f45524332303a206275726e2066726f6d20746865207a65726f206164647265736044820152607360f81b6064820152608401610f72565b6001600160a01b038216600090815260086020526040902054818110156133595760405162461bcd60e51b815260206004820152602260248201527f45524332303a206275726e20616d6f756e7420657863656564732062616c616e604482015261636560f01b6064820152608401610f72565b6001600160a01b03831660009081526008602052604081208383039055600a80548492906133889084906154d6565b90915550506040518281526000906001600160a01b038516907fddf252ad1be2c89b69c2b068fc378daa952ba7f163c4a11628f55a4df523b3ef90602001612dd0565b505050565b60006133dc8282613c69565b90506103011981016133fa576133f58583306001613cc7565b61127a565b610302198101613410576133f585836001613d52565b610303198101613427576133f58583306000613cc7565b61030419810161343d576133f585836000613d52565b613448826000613ed3565b60ff1690508061345e576133f585858585613f2f565b6000198101613473576133f585858585613fad565b60405162461bcd60e51b815260206004820152601e60248201527f4f4654436f726556323a20756e6b6e6f776e207061636b6574207479706500006044820152606401610f72565b60006134c9878284816141bb565b6134d285614235565b5090506134e188888884613a38565b90506000811161352f5760405162461bcd60e51b815260206004820152601960248201527813d19510dbdc994e88185b5bdd5b9d081d1bdbc81cdb585b1b603a1b6044820152606401610f72565b600061353e8761303784613be3565b905061354e888287878734613893565b86896001600160a01b03168961ffff16600080516020615c278339815191528560405161357d91815260200190565b60405180910390a450979650505050505050565b600080546001600160a01b038381166001600160a01b0319831681178455604051919092169283917f8be0079c531659141344cd1fd0a4f28419497f9722a3daafe3b4186f6b6457e09190a35050565b60006135f9896001846001600160401b0389166141bb565b61360287614235565b5090506136118a8a8a84613a38565b90506000811161365f5760405162461bcd60e51b815260206004820152601960248201527813d19510dbdc994e88185b5bdd5b9d081d1bdbc81cdb585b1b603a1b6044820152606401610f72565b6000613676338a61366f85613be3565b8a8a614275565b90506136868a8287878734613893565b888b6001600160a01b03168b61ffff16600080516020615c27833981519152856040516136b591815260200190565b60405180910390a4509998505050505050505050565b6060816136d981601f6153c5565b10156137185760405162461bcd60e51b815260206004820152600e60248201526d736c6963655f6f766572666c6f7760901b6044820152606401610f72565b61372282846153c5565b845110156137665760405162461bcd60e51b8152602060048201526011602482015270736c6963655f6f75744f66426f756e647360781b6044820152606401610f72565b60608215801561378557604051915060008252602082016040526137cf565b6040519150601f8416801560200281840101858101878315602002848b0101015b818310156137be5780518352602092830192016137a6565b5050858452601f01601f1916604052505b50949350505050565b60008060006137eb338a61366f8b613be3565b60405163040a7bb160e41b81529091506001600160a01b037f000000000000000000000000000000000000000000000000000000000000000016906340a7bb1090613842908d90309086908b908b906004016158fd565b6040805180830381865afa15801561385e573d6000803e3d6000fd5b505050506040513d601f19601f820116820180604052508101906138829190615945565b925092505097509795505050505050565b61ffff8616600090815260016020526040812080546138b19061536b565b80601f01602080910402602001604051908101604052809291908181526020018280546138dd9061536b565b801561392a5780601f106138ff5761010080835404028352916020019161392a565b820191906000526020600020905b81548152906001019060200180831161390d57829003601f168201915b50505050509050805160000361399b5760405162461bcd60e51b815260206004820152603060248201527f4c7a4170703a2064657374696e6174696f6e20636861696e206973206e6f742060448201526f61207472757374656420736f7572636560801b6064820152608401610f72565b6139a68787516142b6565b60405162c5803160e81b81526001600160a01b037f0000000000000000000000000000000000000000000000000000000000000000169063c58031009084906139fd908b9086908c908c908c908c90600401615969565b6000604051808303818588803b158015613a1657600080fd5b505af1158015613a2a573d6000803e3d6000fd5b505050505050505050505050565b6000336001600160a01b0386168114613a5657613a56868285612ddd565b613a608684613285565b5090949350505050565b600033306001600160a01b03861614801590613a985750806001600160a01b0316856001600160a01b031614155b15613aa857613aa8858285612ddd565b613ab3858585612e57565b50909392505050565b6000606060008060008661ffff166001600160401b03811115613ae157613ae1614ca1565b6040519080825280601f01601f191660200182016040528015613b0b576020820181803683370190505b50905060008087516020890160008d8df191503d925086831115613b2d578692505b828152826000602083013e909890975095505050505050565b8180519060200120600560008761ffff1661ffff16815260200190815260200160002085604051613b7791906159d0565b9081526040805191829003602090810183206001600160401b0388166000908152915220919091557fe183f33de2837795525b4792ca4cd60535bd77c53b7e7030060bfcf5734d6b0c90613bd490879087908790879087906159ec565b60405180910390a15050505050565b600080613c107f000000000000000000000000000000000000000000000000000000000000000084615724565b90506001600160401b038111156111605760405162461bcd60e51b815260206004820152601a60248201527f4f4654436f72653a20616d6f756e745344206f766572666c6f770000000000006044820152606401610f72565b6000613c768260206153c5565b83511015613cbe5760405162461bcd60e51b8152602060048201526015602482015274746f55696e743235365f6f75744f66426f756e647360581b6044820152606401610f72565b50016020015190565b600080600085806020019051810190613ce09190615a3e565b9450945050935050600084613cf55783613cf7565b305b9050613d04883085614327565b50613d12828488308561433a565b806001600160a01b03168861ffff16600080516020615c4783398151915285604051613d4091815260200190565b60405180910390a35050505050505050565b600080600080600086806020019051810190613d6e9190615a87565b9650965096509650509550506000613d838690565b9050613d9e8386868a613d965784613d98565b305b306144a8565b613e2b307f00000000000000000000000000000000000000000000000000000000000000006001600160a01b0316633408e4706040518163ffffffff1660e01b8152600401602060405180830381865afa158015613e00573d6000803e3d6000fd5b505050506040513d601f19601f82011682018060405250810190613e24919061565e565b3088613a38565b506000613e3b8761303788613be3565b9050613e5a8a8230866040518060200160405280600081525047613893565b30826001600160a01b03168b61ffff16600080516020615c2783398151915289604051613e8991815260200190565b60405180910390a4816001600160a01b03168a61ffff16600080516020615c4783398151915288604051613ebf91815260200190565b60405180910390a350505050505050505050565b6000613ee08260016153c5565b83511015613f265760405162461bcd60e51b8152602060048201526013602482015272746f55696e74385f6f75744f66426f756e647360681b6044820152606401610f72565b50016001015190565b600080613f3b83614582565b90925090506001600160a01b038216613f545761dead91505b6000613f5f82614607565b9050613f6c878483614327565b9050826001600160a01b03168761ffff16600080516020615c4783398151915283604051613f9c91815260200190565b60405180910390a350505050505050565b6000806000806000613fbe8661463c565b945094509450945094506000600760008b61ffff1661ffff16815260200190815260200160002089604051613ff391906159d0565b90815260408051602092819003830190206001600160401b038b166000908152925281205460ff16915061402685614607565b905081614094576140388b3083614327565b61ffff8c16600090815260076020526040908190209051919250600191614060908d906159d0565b90815260408051602092819003830190206001600160401b038d16600090815292529020805460ff19169115159190911790555b6001600160a01b0386163b6140eb576040516001600160a01b03871681527f9aedf5fdba8716db3b6705ca00150643309995d4f818a249ed6dde6677e7792d9060200160405180910390a150505050505050612e51565b8a8a8a8a8a8a868a60008a614109578b6001600160401b031661410b565b5a5b905060008061413d5a609663eaffd49a60e01b8e8e8e8d8d8d8d8d604051602401612c0d989796959493929190615af2565b915091508115614196578751602089012060405161ffff8d16907fb8890edbfc1c74692f527444645f95489c3703cc2df42e4a366f5d06fa6cd88490614188908e908e908690615b66565b60405180910390a2506141a3565b6141a38b8b8b8b85613b46565b50505050505050505050505050505050505050505050565b60065460ff16156141d7576141d2848484846146f3565b612e51565b815115612e515760405162461bcd60e51b815260206004820152602660248201527f4f4654436f72653a205f61646170746572506172616d73206d7573742062652060448201526532b6b83a3c9760d11b6064820152608401610f72565b6000806142627f000000000000000000000000000000000000000000000000000000000000000084615b94565b905061426e81846154d6565b9150915091565b6060600185856001600160a01b038916858760405160200161429c96959493929190615ba8565b604051602081830303815290604052905095945050505050565b61ffff8216600090815260036020526040812054908190036142d757506127105b808211156133cb5760405162461bcd60e51b815260206004820181905260248201527f4c7a4170703a207061796c6f61642073697a6520697320746f6f206c617267656044820152606401610f72565b600061433383836131a6565b5092915050565b60405163095ea7b360e01b81526001600160a01b037f0000000000000000000000000000000000000000000000000000000000000000811660048301526024820186905284169063095ea7b3906044016020604051808303816000875af11580156143a9573d6000803e3d6000fd5b505050506040513d601f19601f820116820180604052508101906143cd9190615c09565b50604051634d4d7cbd60e11b8152600481018690526001600160a01b038381166024830152828116604483015260648201869052600060848301527f00000000000000000000000000000000000000000000000000000000000000001690639a9af97a9060a40160408051808303816000875af1158015614452573d6000803e3d6000fd5b505050506040513d601f19601f820116820180604052508101906144769190615945565b50506040518481527fcd253788682cc9dd5efb9d890404e8dd9a7baac51389803c78889ac77e526c9890602001613bd4565b6040516311a5cc7760e31b8152600481018690526001600160a01b038381166024830152828116604483015260648201869052608482018590527f00000000000000000000000000000000000000000000000000000000000000001690638d2e63b89060a40160408051808303816000875af115801561452c573d6000803e3d6000fd5b505050506040513d601f19601f820116820180604052508101906145509190615945565b50506040518481527fe3f504c463a59f99e9ef10d056640f76473a05d4c5756532a68079c48949e7ea90602001613bd4565b600080806145908482613ed3565b60ff161480156145a1575082516029145b6145e85760405162461bcd60e51b815260206004820152601860248201527713d19510dbdc994e881a5b9d985b1a59081c185e5b1bd85960421b6044820152606401610f72565b6145f383600d6147d2565b9150614600836021614837565b9050915091565b60006111607f00000000000000000000000000000000000000000000000000000000000000006001600160401b0384166156ef565b60008080606081600161464f8783613ed3565b60ff161461469a5760405162461bcd60e51b815260206004820152601860248201527713d19510dbdc994e881a5b9d985b1a59081c185e5b1bd85960421b6044820152606401610f72565b6146a586600d6147d2565b93506146b2866021614837565b92506146bf866029614894565b94506146cc866049614837565b90506146e860518088516146e091906154d6565b8891906136cb565b915091939590929450565b60006146fe836148e9565b61ffff8087166000908152600260209081526040808320938916835292905290812054919250906147309084906153c5565b9050600081116147825760405162461bcd60e51b815260206004820152601a60248201527f4c7a4170703a206d696e4761734c696d6974206e6f74207365740000000000006044820152606401610f72565b80821015611a045760405162461bcd60e51b815260206004820152601b60248201527f4c7a4170703a20676173206c696d697420697320746f6f206c6f7700000000006044820152606401610f72565b60006147df8260146153c5565b835110156148275760405162461bcd60e51b8152602060048201526015602482015274746f416464726573735f6f75744f66426f756e647360581b6044820152606401610f72565b500160200151600160601b900490565b60006148448260086153c5565b8351101561488b5760405162461bcd60e51b8152602060048201526014602482015273746f55696e7436345f6f75744f66426f756e647360601b6044820152606401610f72565b50016008015190565b60006148a18260206153c5565b83511015613cbe5760405162461bcd60e51b8152602060048201526015602482015274746f427974657333325f6f75744f66426f756e647360581b6044820152606401610f72565b600060228251101561493d5760405162461bcd60e51b815260206004820152601c60248201527f4c7a4170703a20696e76616c69642061646170746572506172616d73000000006044820152606401610f72565b506022015190565b61ffff81168114611c9957600080fd5b60008083601f84011261496757600080fd5b5081356001600160401b0381111561497e57600080fd5b60208301915083602082850101111561499657600080fd5b9250929050565b80356001600160401b03811681146149b457600080fd5b919050565b600080600080600080608087890312156149d257600080fd5b86356149dd81614945565b955060208701356001600160401b03808211156149f957600080fd5b614a058a838b01614955565b9097509550859150614a1960408a0161499d565b94506060890135915080821115614a2f57600080fd5b50614a3c89828a01614955565b979a9699509497509295939492505050565b600060208284031215614a6057600080fd5b81356001600160e01b031981168114611f0457600080fd5b60005b83811015614a93578181015183820152602001614a7b565b83811115612e515750506000910152565b60008151808452614abc816020860160208601614a78565b601f01601f19169290920160200192915050565b602081526000611f046020830184614aa4565b600060208284031215614af557600080fd5b8135611f0481614945565b6001600160a01b0381168114611c9957600080fd5b60008060408385031215614b2857600080fd5b8235614b3381614b00565b946020939093013593505050565b60008060408385031215614b5457600080fd5b8235614b3381614945565b600060208284031215614b7157600080fd5b5035919050565b600060208284031215614b8a57600080fd5b8135611f0481614b00565b600080600060608486031215614baa57600080fd5b8335614bb581614b00565b92506020840135614bc581614b00565b929592945050506040919091013590565b8015158114611c9957600080fd5b60008060008060008060a08789031215614bfd57600080fd5b8635614c0881614945565b955060208701359450604087013593506060870135614c2681614bd6565b925060808701356001600160401b03811115614c4157600080fd5b614a3c89828a01614955565b600080600060408486031215614c6257600080fd5b8335614c6d81614945565b925060208401356001600160401b03811115614c8857600080fd5b614c9486828701614955565b9497909650939450505050565b634e487b7160e01b600052604160045260246000fd5b604051601f8201601f191681016001600160401b0381118282101715614cdf57614cdf614ca1565b604052919050565b60006001600160401b03821115614d0057614d00614ca1565b50601f01601f191660200190565b600082601f830112614d1f57600080fd5b8135614d32614d2d82614ce7565b614cb7565b818152846020838601011115614d4757600080fd5b816020850160208301376000918101602001919091529392505050565b600080600060608486031215614d7957600080fd5b8335614d8481614945565b925060208401356001600160401b03811115614d9f57600080fd5b614dab86828701614d0e565b925050614dba6040850161499d565b90509250925092565b600080600080600060808688031215614ddb57600080fd5b8535614de681614b00565b94506020860135614df681614b00565b93506040860135925060608601356001600160401b03811115614e1857600080fd5b614e2488828901614955565b969995985093965092949392505050565b600060608284031215614e4757600080fd5b50919050565b600080600080600060a08688031215614e6557600080fd5b8535614e7081614b00565b94506020860135614e8081614945565b9350604086013592506060860135915060808601356001600160401b03811115614ea957600080fd5b614eb588828901614e35565b9150509295509295909350565b60008060008060008060008060e0898b031215614ede57600080fd5b8835614ee981614b00565b97506020890135614ef981614945565b9650604089013595506060890135945060808901356001600160401b0380821115614f2357600080fd5b614f2f8c838d01614955565b9096509450849150614f4360a08c0161499d565b935060c08b0135915080821115614f5957600080fd5b50614f668b828c01614e35565b9150509295985092959890939650565b60008060408385031215614f8957600080fd5b8235614f9481614945565b91506020830135614fa481614945565b809150509250929050565b60008060408385031215614fc257600080fd5b8235614fcd81614b00565b91506020830135614fa481614bd6565b600080600080600080600080600060e08a8c031215614ffb57600080fd5b893561500681614945565b985060208a0135975060408a0135965060608a01356001600160401b038082111561503057600080fd5b61503c8d838e01614955565b909850965086915061505060808d0161499d565b955060a08c0135915061506282614bd6565b90935060c08b0135908082111561507857600080fd5b506150858c828d01614955565b915080935050809150509295985092959850929598565b60008060008060008060c087890312156150b557600080fd5b863595506020870135945060408701356150ce81614945565b935060608701356150de81614b00565b925060808701356001600160401b038111156150f957600080fd5b61510589828a01614d0e565b92505060a087013561511681614bd6565b809150509295509295509295565b6000806040838503121561513757600080fd5b823591506020830135614fa481614b00565b60008060008060008060c0878903121561516257600080fd5b8635955060208701359450604087013561517b81614945565b935060608701359250608087013561519281614b00565b915060a087013561511681614bd6565b6000806000806000608086880312156151ba57600080fd5b85356151c581614945565b94506020860135614df681614945565b600080604083850312156151e857600080fd5b82356151f381614b00565b91506020830135614fa481614b00565b60008060006060848603121561521857600080fd5b833561522381614945565b92506020840135614bc581614945565b60006020828403121561524557600080fd5b8135611f0481614bd6565b6000806000806000806000806000806101008b8d03121561527057600080fd5b8a3561527b81614945565b995060208b01356001600160401b038082111561529757600080fd5b6152a38e838f01614955565b909b5099508991506152b760408e0161499d565b985060608d0135975060808d013591506152d082614b00565b90955060a08c0135945060c08c013590808211156152ed57600080fd5b506152fa8d828e01614955565b9150809450508092505060e08b013590509295989b9194979a5092959850565b6000806000806080858703121561533057600080fd5b843561533b81614945565b9350602085013561534b81614945565b9250604085013561535b81614b00565b9396929550929360600135925050565b600181811c9082168061537f57607f821691505b602082108103614e4757634e487b7160e01b600052602260045260246000fd5b8183823760009101908152919050565b634e487b7160e01b600052601160045260246000fd5b600082198211156153d8576153d86153af565b500190565b6020808252600c908201526b1554d10c0e881c185d5cd95960a21b604082015260600190565b6020808252601290820152711554d10c0e881d5b985d5d1a1bdc9a5e995960721b604082015260600190565b81835281816020850137506000828201602090810191909152601f909101601f19169091010190565b61ffff84168152604060208201526000612a5760408301848661542f565b6001600160a01b03878116825286166020820152604081018590526060810184905260a0608082018190526000906154b1908301848661542f565b98975050505050505050565b6000602082840312156154cf57600080fd5b5051919050565b6000828210156154e8576154e86153af565b500390565b6000808335601e1984360301811261550457600080fd5b8301803591506001600160401b0382111561551e57600080fd5b60200191503681900382131561499657600080fd5b8284823760609190911b6bffffffffffffffffffffffff19169101908152601401919050565b601f8211156133cb57600081815260208120601f850160051c810160208610156155805750805b601f850160051c820191505b81811015611a045782815560010161558c565b81516001600160401b038111156155b8576155b8614ca1565b6155cc816155c6845461536b565b84615559565b602080601f83116001811461560157600084156155e95750858301515b600019600386901b1c1916600185901b178555611a04565b600085815260208120601f198616915b8281101561563057888601518255948401946001909101908401615611565b508582101561564e5787850151600019600388901b60f8161c191681555b5050505050600190811b01905550565b60006020828403121561567057600080fd5b8151611f0481614945565b600061ffff8088168352808716602084015250846040830152608060608301526156a960808301848661542f565b979650505050505050565b61ffff861681526080602082015260006156d260808301868861542f565b6001600160401b0394909416604083015250606001529392505050565b6000816000190483118215151615615709576157096153af565b500290565b634e487b7160e01b600052601260045260246000fd5b6000826157335761573361570e565b500490565b61ffff8916815260c06020820152600061575660c08301898b61542f565b6001600160401b038816604084015286606084015285608084015282810360a084015261578481858761542f565b9b9a5050505050505050505050565b6001600160401b038311156157aa576157aa614ca1565b6157be836157b8835461536b565b83615559565b6000601f8411600181146157f257600085156157da5750838201355b600019600387901b1c1916600186901b17835561127a565b600083815260209020601f19861690835b828110156158235786850135825560209485019460019092019101615803565b50868210156158405760001960f88860031b161c19848701351681555b505060018560011b0183555050505050565b60006020828403121561586457600080fd5b81516001600160401b0381111561587a57600080fd5b8201601f8101841361588b57600080fd5b8051615899614d2d82614ce7565b8181528560208385010111156158ae57600080fd5b612a57826020830160208601614a78565b61ffff851681526080602082015260006158dc6080830186614aa4565b6001600160401b038516604084015282810360608401526156a98185614aa4565b61ffff861681526001600160a01b038516602082015260a06040820181905260009061592b90830186614aa4565b841515606084015282810360808401526154b18185614aa4565b6000806040838503121561595857600080fd5b505080516020909101519092909150565b61ffff8716815260c06020820152600061598660c0830188614aa4565b82810360408401526159988188614aa4565b6001600160a01b0387811660608601528616608085015283810360a085015290506159c38185614aa4565b9998505050505050505050565b600082516159e2818460208701614a78565b9190910192915050565b61ffff8616815260a060208201526000615a0960a0830187614aa4565b6001600160401b03861660408401528281036060840152615a2a8186614aa4565b905082810360808401526154b18185614aa4565b600080600080600060a08688031215615a5657600080fd5b8551615a6181614945565b602087015160408801516060890151608090990151929a91995097965090945092505050565b600080600080600080600060e0888a031215615aa257600080fd5b8751615aad81614945565b809750506020880151955060408801519450606088015193506080880151925060a0880151915060c0880151615ae281614b00565b8091505092959891949750929550565b600061010061ffff8b168352806020840152615b108184018b614aa4565b6001600160401b038a166040850152606084018990526001600160a01b038816608085015260a0840187905283810360c08501529050615b508186614aa4565b9150508260e08301529998505050505050505050565b606081526000615b796060830186614aa4565b6001600160401b039490941660208301525060400152919050565b600082615ba357615ba361570e565b500690565b60ff60f81b8760f81b16815285600182015260006001600160401b0360c01b808760c01b166021840152856029840152808560c01b166049840152508251615bf7816051850160208701614a78565b91909101605101979650505050505050565b600060208284031215615c1b57600080fd5b8151611f0481614bd656fed81fc9b8523134ed613870ed029d6170cbb73aa6a6bc311b9a642689fb9df59abf551ec93859b170f9b2141bd9298bf3f64322c6f7beb2543a0cb669834118bfa264697066735822122016698e0c5973a51cabec130caf454ddc85d894c706b47518969294ddcdb94a6d64736f6c634300080f0033",
  "devdoc": {
    "kind": "dev",
    "methods": {
      "allowance(address,address)": {
        "details": "See {IERC20-allowance}."
      },
      "approve(address,uint256)": {
        "details": "See {IERC20-approve}. NOTE: If `amount` is the maximum `uint256`, the allowance is not updated on `transferFrom`. This is semantically equivalent to an infinite approval. Requirements: - `spender` cannot be the zero address."
      },
      "balanceOf(address)": {
        "details": "See {IERC20-balanceOf}."
      },
      "burn(address,uint256)": {
        "params": {
          "_amount": "the amount to burn",
          "_from": "address to burn from"
        }
      },
      "circulatingSupply()": {
        "details": "returns the circulating amount of tokens on current chain"
      },
      "constructor": {
        "params": {
          "_lzEndpoint": "LayerZero endpoint"
        }
      },
      "decreaseAllowance(address,uint256)": {
        "details": "Atomically decreases the allowance granted to `spender` by the caller. This is an alternative to {approve} that can be used as a mitigation for problems described in {IERC20-approve}. Emits an {Approval} event indicating the updated allowance. Requirements: - `spender` cannot be the zero address. - `spender` must have allowance for the caller of at least `subtractedValue`."
      },
      "estimateSendFee(uint16,bytes32,uint256,bool,bytes)": {
        "details": "estimate send token `_tokenId` to (`_dstChainId`, `_toAddress`) _dstChainId - L0 defined chain id to send tokens too _toAddress - dynamic bytes array which contains the address to whom you are sending tokens to on the dstChain _amount - amount of the tokens to transfer _useZro - indicates to use zro to pay L0 fees _adapterParam - flexible bytes array to indicate messaging adapter services in L0"
      },
      "increaseAllowance(address,uint256)": {
        "details": "Atomically increases the allowance granted to `spender` by the caller. This is an alternative to {approve} that can be used as a mitigation for problems described in {IERC20-approve}. Emits an {Approval} event indicating the updated allowance. Requirements: - `spender` cannot be the zero address."
      },
      "mint(address,uint256)": {
        "params": {
          "_amount": "the amount to mint",
          "_to": "receiver address"
        }
      },
      "name()": {
        "details": "Returns the name of the token."
      },
      "owner()": {
        "details": "Returns the address of the current owner."
      },
      "renounceOwnership()": {
        "details": "Leaves the contract without owner. It will not be possible to call `onlyOwner` functions anymore. Can only be called by the current owner. NOTE: Renouncing ownership will leave the contract without an owner, thereby removing any functionality that is only available to the owner."
      },
      "sendFrom(address,uint16,bytes32,uint256,(address,address,bytes))": {
        "details": "send `_amount` amount of token to (`_dstChainId`, `_toAddress`) from `_from` `_from` the owner of token `_dstChainId` the destination chain identifier `_toAddress` can be any size depending on the `dstChainId`. `_amount` the quantity of tokens in wei `_refundAddress` the address LayerZero refunds if too much message fee is sent `_zroPaymentAddress` set to address(0x0) if not paying in ZRO (LayerZero Token) `_adapterParams` is a flexible bytes array to indicate messaging adapter services"
      },
      "setBurnerStatus(address,bool)": {
        "params": {
          "_for": "role receiver",
          "_status": "true/false"
        }
      },
      "setConservator(address)": {
        "details": "Conservator can pause the contract",
        "params": {
          "_conservator": "The new address"
        }
      },
      "setFlashMintFee(uint256)": {
        "params": {
          "_val": "the new fee"
        }
      },
      "setMaxFlashMintable(uint256)": {
        "params": {
          "_val": "the new amount"
        }
      },
      "setMinterStatus(address,bool)": {
        "params": {
          "_for": "role receiver",
          "_status": "true/false"
        }
      },
      "symbol()": {
        "details": "Returns the symbol of the token, usually a shorter version of the name."
      },
      "token()": {
        "details": "returns the address of the ERC20 token"
      },
      "totalSupply()": {
        "details": "See {IERC20-totalSupply}."
      },
      "transfer(address,uint256)": {
        "details": "See {IERC20-transfer}. Requirements: - `to` cannot be the zero address. - the caller must have a balance of at least `amount`."
      },
      "transferFrom(address,address,uint256)": {
        "details": "See {IERC20-transferFrom}. Emits an {Approval} event indicating the updated allowance. This is not required by the EIP. See the note at the beginning of {ERC20}. NOTE: Does not update the allowance if the current allowance is the maximum `uint256`. Requirements: - `from` and `to` cannot be the zero address. - `from` must have a balance of at least `amount`. - the caller must have allowance for ``from``'s tokens of at least `amount`."
      },
      "transferOwnership(address)": {
        "details": "Transfers ownership of the contract to a new account (`newOwner`). Can only be called by the current owner."
      },
      "updatePause(bool)": {
        "params": {
          "val": "the new value"
        }
      }
    },
    "stateVariables": {
      "allowedBurner": {
        "details": "chainId>address>status"
      },
      "allowedMinter": {
        "details": "chainId>address>status"
      }
    },
    "title": "USD0 OFT contract",
    "version": 1
  },
  "userdoc": {
    "errors": {
      "TOFT_YB_ETHDeposit()": [
        {
          "notice": "========================== ========== Errors ======== ==========================Error while depositing ETH assets to YieldBox."
        }
      ]
    },
    "events": {
      "YieldBoxDeposit(uint256)": {
        "notice": "========================== ========== Events ======== =========================="
      }
    },
    "kind": "user",
    "methods": {
      "allowedBurner(uint256,address)": {
        "notice": "addresses allowed to burn USD0"
      },
      "allowedMinter(uint256,address)": {
        "notice": "addresses allowed to mint USD0"
      },
      "burn(address,uint256)": {
        "notice": "burns USD0"
      },
      "conservator()": {
        "notice": "returns the Conservator address"
      },
      "constructor": {
        "notice": "creates a new USDO0 OFT contract"
      },
      "decimals()": {
        "notice": "returns token's decimals"
      },
      "flashFee(address,uint256)": {
        "notice": "returns the flash mint fee"
      },
      "flashMintFee()": {
        "notice": "returns the flash mint fee"
      },
      "maxFlashLoan(address)": {
        "notice": "returns the maximum amount of tokens available for a flash mint"
      },
      "maxFlashMint()": {
        "notice": "returns the maximum amount of USD0 that can be minted through the EIP-3156 flow"
      },
      "mint(address,uint256)": {
        "notice": "mints USD0"
      },
      "paused()": {
        "notice": "returns the pause state of the contract"
      },
      "setBurnerStatus(address,bool)": {
        "notice": "sets/unsets address as burner"
      },
      "setConservator(address)": {
        "notice": "Set the Conservator address"
      },
      "setFlashMintFee(uint256)": {
        "notice": "set the flashloan fee"
      },
      "setMaxFlashMintable(uint256)": {
        "notice": "set the max allowed USD0 mintable through flashloan"
      },
      "setMinterStatus(address,bool)": {
        "notice": "sets/unsets address as minter"
      },
      "updatePause(bool)": {
        "notice": "updates the pause state of the contract"
      },
      "yieldBox()": {
        "notice": "The YieldBox address."
      }
    },
    "version": 1
  },
  "storageLayout": {
    "storage": [
      {
        "astId": 7,
        "contract": "contracts/usd0/USD0.sol:USD0",
        "label": "_owner",
        "offset": 0,
        "slot": "0",
        "type": "t_address"
      },
      {
        "astId": 11391,
        "contract": "contracts/usd0/USD0.sol:USD0",
        "label": "trustedRemoteLookup",
        "offset": 0,
        "slot": "1",
        "type": "t_mapping(t_uint16,t_bytes_storage)"
      },
      {
        "astId": 11397,
        "contract": "contracts/usd0/USD0.sol:USD0",
        "label": "minDstGasLookup",
        "offset": 0,
        "slot": "2",
        "type": "t_mapping(t_uint16,t_mapping(t_uint16,t_uint256))"
      },
      {
        "astId": 11401,
        "contract": "contracts/usd0/USD0.sol:USD0",
        "label": "payloadSizeLimitLookup",
        "offset": 0,
        "slot": "3",
        "type": "t_mapping(t_uint16,t_uint256)"
      },
      {
        "astId": 11403,
        "contract": "contracts/usd0/USD0.sol:USD0",
        "label": "precrime",
        "offset": 0,
        "slot": "4",
        "type": "t_address"
      },
      {
        "astId": 11940,
        "contract": "contracts/usd0/USD0.sol:USD0",
        "label": "failedMessages",
        "offset": 0,
        "slot": "5",
        "type": "t_mapping(t_uint16,t_mapping(t_bytes_memory_ptr,t_mapping(t_uint64,t_bytes32)))"
      },
      {
        "astId": 12490,
        "contract": "contracts/usd0/USD0.sol:USD0",
        "label": "useCustomAdapterParams",
        "offset": 0,
        "slot": "6",
        "type": "t_bool"
      },
      {
        "astId": 12498,
        "contract": "contracts/usd0/USD0.sol:USD0",
        "label": "creditedPackets",
        "offset": 0,
        "slot": "7",
        "type": "t_mapping(t_uint16,t_mapping(t_bytes_memory_ptr,t_mapping(t_uint64,t_bool)))"
      },
      {
        "astId": 128,
        "contract": "contracts/usd0/USD0.sol:USD0",
        "label": "_balances",
        "offset": 0,
        "slot": "8",
        "type": "t_mapping(t_address,t_uint256)"
      },
      {
        "astId": 134,
        "contract": "contracts/usd0/USD0.sol:USD0",
        "label": "_allowances",
        "offset": 0,
        "slot": "9",
        "type": "t_mapping(t_address,t_mapping(t_address,t_uint256))"
      },
      {
        "astId": 136,
        "contract": "contracts/usd0/USD0.sol:USD0",
        "label": "_totalSupply",
        "offset": 0,
        "slot": "10",
        "type": "t_uint256"
      },
      {
        "astId": 138,
        "contract": "contracts/usd0/USD0.sol:USD0",
        "label": "_name",
        "offset": 0,
        "slot": "11",
        "type": "t_string_storage"
      },
      {
        "astId": 140,
        "contract": "contracts/usd0/USD0.sol:USD0",
        "label": "_symbol",
        "offset": 0,
        "slot": "12",
        "type": "t_string_storage"
      },
      {
        "astId": 2072,
        "contract": "contracts/usd0/USD0.sol:USD0",
        "label": "conservator",
        "offset": 0,
        "slot": "13",
        "type": "t_address"
      },
      {
        "astId": 2079,
        "contract": "contracts/usd0/USD0.sol:USD0",
        "label": "allowedMinter",
        "offset": 0,
        "slot": "14",
        "type": "t_mapping(t_uint256,t_mapping(t_address,t_bool))"
      },
      {
        "astId": 2086,
        "contract": "contracts/usd0/USD0.sol:USD0",
        "label": "allowedBurner",
        "offset": 0,
        "slot": "15",
        "type": "t_mapping(t_uint256,t_mapping(t_address,t_bool))"
      },
      {
        "astId": 2089,
        "contract": "contracts/usd0/USD0.sol:USD0",
        "label": "paused",
        "offset": 0,
        "slot": "16",
        "type": "t_bool"
      },
      {
        "astId": 2092,
        "contract": "contracts/usd0/USD0.sol:USD0",
        "label": "flashMintFee",
        "offset": 0,
        "slot": "17",
        "type": "t_uint256"
      },
      {
        "astId": 2095,
        "contract": "contracts/usd0/USD0.sol:USD0",
        "label": "maxFlashMint",
        "offset": 0,
        "slot": "18",
        "type": "t_uint256"
      },
      {
        "astId": 2629,
        "contract": "contracts/usd0/USD0.sol:USD0",
        "label": "mintedAt",
        "offset": 0,
        "slot": "19",
        "type": "t_mapping(t_address,t_uint256)"
      },
      {
        "astId": 2634,
        "contract": "contracts/usd0/USD0.sol:USD0",
        "label": "mintLimit",
        "offset": 0,
        "slot": "20",
        "type": "t_uint256"
      }
    ],
    "types": {
      "t_address": {
        "encoding": "inplace",
        "label": "address",
        "numberOfBytes": "20"
      },
      "t_bool": {
        "encoding": "inplace",
        "label": "bool",
        "numberOfBytes": "1"
      },
      "t_bytes32": {
        "encoding": "inplace",
        "label": "bytes32",
        "numberOfBytes": "32"
      },
      "t_bytes_memory_ptr": {
        "encoding": "bytes",
        "label": "bytes",
        "numberOfBytes": "32"
      },
      "t_bytes_storage": {
        "encoding": "bytes",
        "label": "bytes",
        "numberOfBytes": "32"
      },
      "t_mapping(t_address,t_bool)": {
        "encoding": "mapping",
        "key": "t_address",
        "label": "mapping(address => bool)",
        "numberOfBytes": "32",
        "value": "t_bool"
      },
      "t_mapping(t_address,t_mapping(t_address,t_uint256))": {
        "encoding": "mapping",
        "key": "t_address",
        "label": "mapping(address => mapping(address => uint256))",
        "numberOfBytes": "32",
        "value": "t_mapping(t_address,t_uint256)"
      },
      "t_mapping(t_address,t_uint256)": {
        "encoding": "mapping",
        "key": "t_address",
        "label": "mapping(address => uint256)",
        "numberOfBytes": "32",
        "value": "t_uint256"
      },
      "t_mapping(t_bytes_memory_ptr,t_mapping(t_uint64,t_bool))": {
        "encoding": "mapping",
        "key": "t_bytes_memory_ptr",
        "label": "mapping(bytes => mapping(uint64 => bool))",
        "numberOfBytes": "32",
        "value": "t_mapping(t_uint64,t_bool)"
      },
      "t_mapping(t_bytes_memory_ptr,t_mapping(t_uint64,t_bytes32))": {
        "encoding": "mapping",
        "key": "t_bytes_memory_ptr",
        "label": "mapping(bytes => mapping(uint64 => bytes32))",
        "numberOfBytes": "32",
        "value": "t_mapping(t_uint64,t_bytes32)"
      },
      "t_mapping(t_uint16,t_bytes_storage)": {
        "encoding": "mapping",
        "key": "t_uint16",
        "label": "mapping(uint16 => bytes)",
        "numberOfBytes": "32",
        "value": "t_bytes_storage"
      },
      "t_mapping(t_uint16,t_mapping(t_bytes_memory_ptr,t_mapping(t_uint64,t_bool)))": {
        "encoding": "mapping",
        "key": "t_uint16",
        "label": "mapping(uint16 => mapping(bytes => mapping(uint64 => bool)))",
        "numberOfBytes": "32",
        "value": "t_mapping(t_bytes_memory_ptr,t_mapping(t_uint64,t_bool))"
      },
      "t_mapping(t_uint16,t_mapping(t_bytes_memory_ptr,t_mapping(t_uint64,t_bytes32)))": {
        "encoding": "mapping",
        "key": "t_uint16",
        "label": "mapping(uint16 => mapping(bytes => mapping(uint64 => bytes32)))",
        "numberOfBytes": "32",
        "value": "t_mapping(t_bytes_memory_ptr,t_mapping(t_uint64,t_bytes32))"
      },
      "t_mapping(t_uint16,t_mapping(t_uint16,t_uint256))": {
        "encoding": "mapping",
        "key": "t_uint16",
        "label": "mapping(uint16 => mapping(uint16 => uint256))",
        "numberOfBytes": "32",
        "value": "t_mapping(t_uint16,t_uint256)"
      },
      "t_mapping(t_uint16,t_uint256)": {
        "encoding": "mapping",
        "key": "t_uint16",
        "label": "mapping(uint16 => uint256)",
        "numberOfBytes": "32",
        "value": "t_uint256"
      },
      "t_mapping(t_uint256,t_mapping(t_address,t_bool))": {
        "encoding": "mapping",
        "key": "t_uint256",
        "label": "mapping(uint256 => mapping(address => bool))",
        "numberOfBytes": "32",
        "value": "t_mapping(t_address,t_bool)"
      },
      "t_mapping(t_uint64,t_bool)": {
        "encoding": "mapping",
        "key": "t_uint64",
        "label": "mapping(uint64 => bool)",
        "numberOfBytes": "32",
        "value": "t_bool"
      },
      "t_mapping(t_uint64,t_bytes32)": {
        "encoding": "mapping",
        "key": "t_uint64",
        "label": "mapping(uint64 => bytes32)",
        "numberOfBytes": "32",
        "value": "t_bytes32"
      },
      "t_string_storage": {
        "encoding": "bytes",
        "label": "string",
        "numberOfBytes": "32"
      },
      "t_uint16": {
        "encoding": "inplace",
        "label": "uint16",
        "numberOfBytes": "2"
      },
      "t_uint256": {
        "encoding": "inplace",
        "label": "uint256",
        "numberOfBytes": "32"
      },
      "t_uint64": {
        "encoding": "inplace",
        "label": "uint64",
        "numberOfBytes": "8"
      }
    }
  }
}