{
  "address": "0x93cF32C5fF98c0758b32dF9F6DB9e4f4faaCe736",
  "abi": [
    {
      "inputs": [
        {
          "internalType": "contract IWrappedNative",
          "name": "wrappedNative_",
          "type": "address"
        },
        {
          "internalType": "contract YieldBoxURIBuilder",
          "name": "uriBuilder_",
          "type": "address"
        }
      ],
      "stateMutability": "nonpayable",
      "type": "constructor"
    },
    {
      "inputs": [
        {
          "internalType": "bytes",
          "name": "innerError",
          "type": "bytes"
        }
      ],
      "name": "BatchError",
      "type": "error"
    },
    {
      "anonymous": false,
      "inputs": [
        {
          "indexed": true,
          "internalType": "address",
          "name": "_owner",
          "type": "address"
        },
        {
          "indexed": true,
          "internalType": "address",
          "name": "_operator",
          "type": "address"
        },
        {
          "indexed": false,
          "internalType": "bool",
          "name": "_approved",
          "type": "bool"
        }
      ],
      "name": "ApprovalForAll",
      "type": "event"
    },
    {
      "anonymous": false,
      "inputs": [
        {
          "indexed": true,
          "internalType": "enum TokenType",
          "name": "tokenType",
          "type": "uint8"
        },
        {
          "indexed": true,
          "internalType": "address",
          "name": "contractAddress",
          "type": "address"
        },
        {
          "indexed": false,
          "internalType": "contract IStrategy",
          "name": "strategy",
          "type": "address"
        },
        {
          "indexed": true,
          "internalType": "uint256",
          "name": "tokenId",
          "type": "uint256"
        },
        {
          "indexed": false,
          "internalType": "uint256",
          "name": "assetId",
          "type": "uint256"
        }
      ],
      "name": "AssetRegistered",
      "type": "event"
    },
    {
      "anonymous": false,
      "inputs": [
        {
          "indexed": true,
          "internalType": "uint256",
          "name": "tokenId",
          "type": "uint256"
        },
        {
          "indexed": true,
          "internalType": "address",
          "name": "previousOwner",
          "type": "address"
        },
        {
          "indexed": true,
          "internalType": "address",
          "name": "newOwner",
          "type": "address"
        }
      ],
      "name": "OwnershipTransferred",
      "type": "event"
    },
    {
      "anonymous": false,
      "inputs": [
        {
          "indexed": true,
          "internalType": "address",
          "name": "creator",
          "type": "address"
        },
        {
          "indexed": false,
          "internalType": "string",
          "name": "name",
          "type": "string"
        },
        {
          "indexed": false,
          "internalType": "string",
          "name": "symbol",
          "type": "string"
        },
        {
          "indexed": false,
          "internalType": "uint8",
          "name": "decimals",
          "type": "uint8"
        },
        {
          "indexed": false,
          "internalType": "uint256",
          "name": "tokenId",
          "type": "uint256"
        }
      ],
      "name": "TokenCreated",
      "type": "event"
    },
    {
      "anonymous": false,
      "inputs": [
        {
          "indexed": true,
          "internalType": "address",
          "name": "_operator",
          "type": "address"
        },
        {
          "indexed": true,
          "internalType": "address",
          "name": "_from",
          "type": "address"
        },
        {
          "indexed": true,
          "internalType": "address",
          "name": "_to",
          "type": "address"
        },
        {
          "indexed": false,
          "internalType": "uint256[]",
          "name": "_ids",
          "type": "uint256[]"
        },
        {
          "indexed": false,
          "internalType": "uint256[]",
          "name": "_values",
          "type": "uint256[]"
        }
      ],
      "name": "TransferBatch",
      "type": "event"
    },
    {
      "anonymous": false,
      "inputs": [
        {
          "indexed": true,
          "internalType": "address",
          "name": "_operator",
          "type": "address"
        },
        {
          "indexed": true,
          "internalType": "address",
          "name": "_from",
          "type": "address"
        },
        {
          "indexed": true,
          "internalType": "address",
          "name": "_to",
          "type": "address"
        },
        {
          "indexed": false,
          "internalType": "uint256",
          "name": "_id",
          "type": "uint256"
        },
        {
          "indexed": false,
          "internalType": "uint256",
          "name": "_value",
          "type": "uint256"
        }
      ],
      "name": "TransferSingle",
      "type": "event"
    },
    {
      "anonymous": false,
      "inputs": [
        {
          "indexed": false,
          "internalType": "string",
          "name": "_value",
          "type": "string"
        },
        {
          "indexed": true,
          "internalType": "uint256",
          "name": "_id",
          "type": "uint256"
        }
      ],
      "name": "URI",
      "type": "event"
    },
    {
      "inputs": [
        {
          "internalType": "address",
          "name": "user",
          "type": "address"
        },
        {
          "internalType": "uint256",
          "name": "assetId",
          "type": "uint256"
        }
      ],
      "name": "amountOf",
      "outputs": [
        {
          "internalType": "uint256",
          "name": "amount",
          "type": "uint256"
        }
      ],
      "stateMutability": "view",
      "type": "function"
    },
    {
      "inputs": [],
      "name": "assetCount",
      "outputs": [
        {
          "internalType": "uint256",
          "name": "",
          "type": "uint256"
        }
      ],
      "stateMutability": "view",
      "type": "function"
    },
    {
      "inputs": [
        {
          "internalType": "uint256",
          "name": "assetId",
          "type": "uint256"
        }
      ],
      "name": "assetTotals",
      "outputs": [
        {
          "internalType": "uint256",
          "name": "totalShare",
          "type": "uint256"
        },
        {
          "internalType": "uint256",
          "name": "totalAmount",
          "type": "uint256"
        }
      ],
      "stateMutability": "view",
      "type": "function"
    },
    {
      "inputs": [
        {
          "internalType": "uint256",
          "name": "",
          "type": "uint256"
        }
      ],
      "name": "assets",
      "outputs": [
        {
          "internalType": "enum TokenType",
          "name": "tokenType",
          "type": "uint8"
        },
        {
          "internalType": "address",
          "name": "contractAddress",
          "type": "address"
        },
        {
          "internalType": "contract IStrategy",
          "name": "strategy",
          "type": "address"
        },
        {
          "internalType": "uint256",
          "name": "tokenId",
          "type": "uint256"
        }
      ],
      "stateMutability": "view",
      "type": "function"
    },
    {
      "inputs": [
        {
          "internalType": "address",
          "name": "",
          "type": "address"
        },
        {
          "internalType": "uint256",
          "name": "",
          "type": "uint256"
        }
      ],
      "name": "balanceOf",
      "outputs": [
        {
          "internalType": "uint256",
          "name": "",
          "type": "uint256"
        }
      ],
      "stateMutability": "view",
      "type": "function"
    },
    {
      "inputs": [
        {
          "internalType": "address[]",
          "name": "owners",
          "type": "address[]"
        },
        {
          "internalType": "uint256[]",
          "name": "ids",
          "type": "uint256[]"
        }
      ],
      "name": "balanceOfBatch",
      "outputs": [
        {
          "internalType": "uint256[]",
          "name": "balances",
          "type": "uint256[]"
        }
      ],
      "stateMutability": "view",
      "type": "function"
    },
    {
      "inputs": [
        {
          "internalType": "bytes[]",
          "name": "calls",
          "type": "bytes[]"
        },
        {
          "internalType": "bool",
          "name": "revertOnFail",
          "type": "bool"
        }
      ],
      "name": "batch",
      "outputs": [],
      "stateMutability": "payable",
      "type": "function"
    },
    {
      "inputs": [
        {
          "internalType": "uint256",
          "name": "tokenId",
          "type": "uint256"
        },
        {
          "internalType": "address[]",
          "name": "froms",
          "type": "address[]"
        },
        {
          "internalType": "uint256[]",
          "name": "amounts",
          "type": "uint256[]"
        }
      ],
      "name": "batchBurn",
      "outputs": [],
      "stateMutability": "nonpayable",
      "type": "function"
    },
    {
      "inputs": [
        {
          "internalType": "uint256",
          "name": "tokenId",
          "type": "uint256"
        },
        {
          "internalType": "address[]",
          "name": "tos",
          "type": "address[]"
        },
        {
          "internalType": "uint256[]",
          "name": "amounts",
          "type": "uint256[]"
        }
      ],
      "name": "batchMint",
      "outputs": [],
      "stateMutability": "nonpayable",
      "type": "function"
    },
    {
      "inputs": [
        {
          "internalType": "address",
          "name": "from",
          "type": "address"
        },
        {
          "internalType": "address",
          "name": "to",
          "type": "address"
        },
        {
          "internalType": "uint256[]",
          "name": "assetIds_",
          "type": "uint256[]"
        },
        {
          "internalType": "uint256[]",
          "name": "shares_",
          "type": "uint256[]"
        }
      ],
      "name": "batchTransfer",
      "outputs": [],
      "stateMutability": "nonpayable",
      "type": "function"
    },
    {
      "inputs": [
        {
          "internalType": "uint256",
          "name": "tokenId",
          "type": "uint256"
        },
        {
          "internalType": "address",
          "name": "from",
          "type": "address"
        },
        {
          "internalType": "uint256",
          "name": "amount",
          "type": "uint256"
        }
      ],
      "name": "burn",
      "outputs": [],
      "stateMutability": "nonpayable",
      "type": "function"
    },
    {
      "inputs": [
        {
          "internalType": "uint256",
          "name": "tokenId",
          "type": "uint256"
        }
      ],
      "name": "claimOwnership",
      "outputs": [],
      "stateMutability": "nonpayable",
      "type": "function"
    },
    {
      "inputs": [
        {
          "internalType": "string",
          "name": "name",
          "type": "string"
        },
        {
          "internalType": "string",
          "name": "symbol",
          "type": "string"
        },
        {
          "internalType": "uint8",
          "name": "decimals",
          "type": "uint8"
        },
        {
          "internalType": "string",
          "name": "uri",
          "type": "string"
        }
      ],
      "name": "createToken",
      "outputs": [
        {
          "internalType": "uint32",
          "name": "tokenId",
          "type": "uint32"
        }
      ],
      "stateMutability": "nonpayable",
      "type": "function"
    },
    {
      "inputs": [
        {
          "internalType": "uint256",
          "name": "assetId",
          "type": "uint256"
        }
      ],
      "name": "decimals",
      "outputs": [
        {
          "internalType": "uint8",
          "name": "",
          "type": "uint8"
        }
      ],
      "stateMutability": "view",
      "type": "function"
    },
    {
      "inputs": [
        {
          "internalType": "enum TokenType",
          "name": "tokenType",
          "type": "uint8"
        },
        {
          "internalType": "address",
          "name": "contractAddress",
          "type": "address"
        },
        {
          "internalType": "contract IStrategy",
          "name": "strategy",
          "type": "address"
        },
        {
          "internalType": "uint256",
          "name": "tokenId",
          "type": "uint256"
        },
        {
          "internalType": "address",
          "name": "from",
          "type": "address"
        },
        {
          "internalType": "address",
          "name": "to",
          "type": "address"
        },
        {
          "internalType": "uint256",
          "name": "amount",
          "type": "uint256"
        },
        {
          "internalType": "uint256",
          "name": "share",
          "type": "uint256"
        }
      ],
      "name": "deposit",
      "outputs": [
        {
          "internalType": "uint256",
          "name": "amountOut",
          "type": "uint256"
        },
        {
          "internalType": "uint256",
          "name": "shareOut",
          "type": "uint256"
        }
      ],
      "stateMutability": "nonpayable",
      "type": "function"
    },
    {
      "inputs": [
        {
          "internalType": "uint256",
          "name": "assetId",
          "type": "uint256"
        },
        {
          "internalType": "address",
          "name": "from",
          "type": "address"
        },
        {
          "internalType": "address",
          "name": "to",
          "type": "address"
        },
        {
          "internalType": "uint256",
          "name": "amount",
          "type": "uint256"
        },
        {
          "internalType": "uint256",
          "name": "share",
          "type": "uint256"
        }
      ],
      "name": "depositAsset",
      "outputs": [
        {
          "internalType": "uint256",
          "name": "amountOut",
          "type": "uint256"
        },
        {
          "internalType": "uint256",
          "name": "shareOut",
          "type": "uint256"
        }
      ],
      "stateMutability": "nonpayable",
      "type": "function"
    },
    {
      "inputs": [
        {
          "internalType": "contract IStrategy",
          "name": "strategy",
          "type": "address"
        },
        {
          "internalType": "address",
          "name": "to",
          "type": "address"
        },
        {
          "internalType": "uint256",
          "name": "amount",
          "type": "uint256"
        }
      ],
      "name": "depositETH",
      "outputs": [
        {
          "internalType": "uint256",
          "name": "amountOut",
          "type": "uint256"
        },
        {
          "internalType": "uint256",
          "name": "shareOut",
          "type": "uint256"
        }
      ],
      "stateMutability": "payable",
      "type": "function"
    },
    {
      "inputs": [
        {
          "internalType": "uint256",
          "name": "assetId",
          "type": "uint256"
        },
        {
          "internalType": "address",
          "name": "to",
          "type": "address"
        },
        {
          "internalType": "uint256",
          "name": "amount",
          "type": "uint256"
        }
      ],
      "name": "depositETHAsset",
      "outputs": [
        {
          "internalType": "uint256",
          "name": "amountOut",
          "type": "uint256"
        },
        {
          "internalType": "uint256",
          "name": "shareOut",
          "type": "uint256"
        }
      ],
      "stateMutability": "payable",
      "type": "function"
    },
    {
      "inputs": [
        {
          "internalType": "uint256",
          "name": "assetId",
          "type": "uint256"
        },
        {
          "internalType": "address",
          "name": "from",
          "type": "address"
        },
        {
          "internalType": "address",
          "name": "to",
          "type": "address"
        }
      ],
      "name": "depositNFTAsset",
      "outputs": [
        {
          "internalType": "uint256",
          "name": "amountOut",
          "type": "uint256"
        },
        {
          "internalType": "uint256",
          "name": "shareOut",
          "type": "uint256"
        }
      ],
      "stateMutability": "nonpayable",
      "type": "function"
    },
    {
      "inputs": [
        {
          "internalType": "enum TokenType",
          "name": "",
          "type": "uint8"
        },
        {
          "internalType": "address",
          "name": "",
          "type": "address"
        },
        {
          "internalType": "contract IStrategy",
          "name": "",
          "type": "address"
        },
        {
          "internalType": "uint256",
          "name": "",
          "type": "uint256"
        }
      ],
      "name": "ids",
      "outputs": [
        {
          "internalType": "uint256",
          "name": "",
          "type": "uint256"
        }
      ],
      "stateMutability": "view",
      "type": "function"
    },
    {
      "inputs": [
        {
          "internalType": "address",
          "name": "",
          "type": "address"
        },
        {
          "internalType": "address",
          "name": "",
          "type": "address"
        }
      ],
      "name": "isApprovedForAll",
      "outputs": [
        {
          "internalType": "bool",
          "name": "",
          "type": "bool"
        }
      ],
      "stateMutability": "view",
      "type": "function"
    },
    {
      "inputs": [
        {
          "internalType": "uint256",
          "name": "tokenId",
          "type": "uint256"
        },
        {
          "internalType": "address",
          "name": "to",
          "type": "address"
        },
        {
          "internalType": "uint256",
          "name": "amount",
          "type": "uint256"
        }
      ],
      "name": "mint",
      "outputs": [],
      "stateMutability": "nonpayable",
      "type": "function"
    },
    {
      "inputs": [
        {
          "internalType": "uint256",
          "name": "assetId",
          "type": "uint256"
        }
      ],
      "name": "name",
      "outputs": [
        {
          "internalType": "string",
          "name": "",
          "type": "string"
        }
      ],
      "stateMutability": "view",
      "type": "function"
    },
    {
      "inputs": [
        {
          "internalType": "uint256",
          "name": "",
          "type": "uint256"
        }
      ],
      "name": "nativeTokens",
      "outputs": [
        {
          "internalType": "string",
          "name": "name",
          "type": "string"
        },
        {
          "internalType": "string",
          "name": "symbol",
          "type": "string"
        },
        {
          "internalType": "uint8",
          "name": "decimals",
          "type": "uint8"
        },
        {
          "internalType": "string",
          "name": "uri",
          "type": "string"
        }
      ],
      "stateMutability": "view",
      "type": "function"
    },
    {
      "inputs": [
        {
          "internalType": "address",
          "name": "",
          "type": "address"
        },
        {
          "internalType": "address",
          "name": "",
          "type": "address"
        },
        {
          "internalType": "uint256[]",
          "name": "",
          "type": "uint256[]"
        },
        {
          "internalType": "uint256[]",
          "name": "",
          "type": "uint256[]"
        },
        {
          "internalType": "bytes",
          "name": "",
          "type": "bytes"
        }
      ],
      "name": "onERC1155BatchReceived",
      "outputs": [
        {
          "internalType": "bytes4",
          "name": "",
          "type": "bytes4"
        }
      ],
      "stateMutability": "pure",
      "type": "function"
    },
    {
      "inputs": [
        {
          "internalType": "address",
          "name": "",
          "type": "address"
        },
        {
          "internalType": "address",
          "name": "",
          "type": "address"
        },
        {
          "internalType": "uint256",
          "name": "",
          "type": "uint256"
        },
        {
          "internalType": "uint256",
          "name": "",
          "type": "uint256"
        },
        {
          "internalType": "bytes",
          "name": "",
          "type": "bytes"
        }
      ],
      "name": "onERC1155Received",
      "outputs": [
        {
          "internalType": "bytes4",
          "name": "",
          "type": "bytes4"
        }
      ],
      "stateMutability": "pure",
      "type": "function"
    },
    {
      "inputs": [
        {
          "internalType": "address",
          "name": "",
          "type": "address"
        },
        {
          "internalType": "address",
          "name": "",
          "type": "address"
        },
        {
          "internalType": "uint256",
          "name": "",
          "type": "uint256"
        },
        {
          "internalType": "bytes",
          "name": "",
          "type": "bytes"
        }
      ],
      "name": "onERC721Received",
      "outputs": [
        {
          "internalType": "bytes4",
          "name": "",
          "type": "bytes4"
        }
      ],
      "stateMutability": "pure",
      "type": "function"
    },
    {
      "inputs": [
        {
          "internalType": "uint256",
          "name": "",
          "type": "uint256"
        }
      ],
      "name": "owner",
      "outputs": [
        {
          "internalType": "address",
          "name": "",
          "type": "address"
        }
      ],
      "stateMutability": "view",
      "type": "function"
    },
    {
      "inputs": [
        {
          "internalType": "uint256",
          "name": "",
          "type": "uint256"
        }
      ],
      "name": "pendingOwner",
      "outputs": [
        {
          "internalType": "address",
          "name": "",
          "type": "address"
        }
      ],
      "stateMutability": "view",
      "type": "function"
    },
    {
      "inputs": [
        {
          "internalType": "contract IERC20",
          "name": "token",
          "type": "address"
        },
        {
          "internalType": "address",
          "name": "from",
          "type": "address"
        },
        {
          "internalType": "address",
          "name": "to",
          "type": "address"
        },
        {
          "internalType": "uint256",
          "name": "amount",
          "type": "uint256"
        },
        {
          "internalType": "uint256",
          "name": "deadline",
          "type": "uint256"
        },
        {
          "internalType": "uint8",
          "name": "v",
          "type": "uint8"
        },
        {
          "internalType": "bytes32",
          "name": "r",
          "type": "bytes32"
        },
        {
          "internalType": "bytes32",
          "name": "s",
          "type": "bytes32"
        }
      ],
      "name": "permitToken",
      "outputs": [],
      "stateMutability": "nonpayable",
      "type": "function"
    },
    {
      "inputs": [
        {
          "internalType": "enum TokenType",
          "name": "tokenType",
          "type": "uint8"
        },
        {
          "internalType": "address",
          "name": "contractAddress",
          "type": "address"
        },
        {
          "internalType": "contract IStrategy",
          "name": "strategy",
          "type": "address"
        },
        {
          "internalType": "uint256",
          "name": "tokenId",
          "type": "uint256"
        }
      ],
      "name": "registerAsset",
      "outputs": [
        {
          "internalType": "uint256",
          "name": "assetId",
          "type": "uint256"
        }
      ],
      "stateMutability": "nonpayable",
      "type": "function"
    },
    {
      "inputs": [
        {
          "internalType": "address",
          "name": "from",
          "type": "address"
        },
        {
          "internalType": "address",
          "name": "to",
          "type": "address"
        },
        {
          "internalType": "uint256[]",
          "name": "ids",
          "type": "uint256[]"
        },
        {
          "internalType": "uint256[]",
          "name": "values",
          "type": "uint256[]"
        },
        {
          "internalType": "bytes",
          "name": "data",
          "type": "bytes"
        }
      ],
      "name": "safeBatchTransferFrom",
      "outputs": [],
      "stateMutability": "nonpayable",
      "type": "function"
    },
    {
      "inputs": [
        {
          "internalType": "address",
          "name": "from",
          "type": "address"
        },
        {
          "internalType": "address",
          "name": "to",
          "type": "address"
        },
        {
          "internalType": "uint256",
          "name": "id",
          "type": "uint256"
        },
        {
          "internalType": "uint256",
          "name": "value",
          "type": "uint256"
        },
        {
          "internalType": "bytes",
          "name": "data",
          "type": "bytes"
        }
      ],
      "name": "safeTransferFrom",
      "outputs": [],
      "stateMutability": "nonpayable",
      "type": "function"
    },
    {
      "inputs": [
        {
          "internalType": "address",
          "name": "operator",
          "type": "address"
        },
        {
          "internalType": "bool",
          "name": "approved",
          "type": "bool"
        }
      ],
      "name": "setApprovalForAll",
      "outputs": [],
      "stateMutability": "nonpayable",
      "type": "function"
    },
    {
      "inputs": [
        {
          "internalType": "bytes4",
          "name": "interfaceID",
          "type": "bytes4"
        }
      ],
      "name": "supportsInterface",
      "outputs": [
        {
          "internalType": "bool",
          "name": "",
          "type": "bool"
        }
      ],
      "stateMutability": "pure",
      "type": "function"
    },
    {
      "inputs": [
        {
          "internalType": "uint256",
          "name": "assetId",
          "type": "uint256"
        }
      ],
      "name": "symbol",
      "outputs": [
        {
          "internalType": "string",
          "name": "",
          "type": "string"
        }
      ],
      "stateMutability": "view",
      "type": "function"
    },
    {
      "inputs": [
        {
          "internalType": "uint256",
          "name": "assetId",
          "type": "uint256"
        },
        {
          "internalType": "uint256",
          "name": "share",
          "type": "uint256"
        },
        {
          "internalType": "bool",
          "name": "roundUp",
          "type": "bool"
        }
      ],
      "name": "toAmount",
      "outputs": [
        {
          "internalType": "uint256",
          "name": "amount",
          "type": "uint256"
        }
      ],
      "stateMutability": "view",
      "type": "function"
    },
    {
      "inputs": [
        {
          "internalType": "uint256",
          "name": "assetId",
          "type": "uint256"
        },
        {
          "internalType": "uint256",
          "name": "amount",
          "type": "uint256"
        },
        {
          "internalType": "bool",
          "name": "roundUp",
          "type": "bool"
        }
      ],
      "name": "toShare",
      "outputs": [
        {
          "internalType": "uint256",
          "name": "share",
          "type": "uint256"
        }
      ],
      "stateMutability": "view",
      "type": "function"
    },
    {
      "inputs": [
        {
          "internalType": "uint256",
          "name": "",
          "type": "uint256"
        }
      ],
      "name": "totalSupply",
      "outputs": [
        {
          "internalType": "uint256",
          "name": "",
          "type": "uint256"
        }
      ],
      "stateMutability": "view",
      "type": "function"
    },
    {
      "inputs": [
        {
          "internalType": "address",
          "name": "from",
          "type": "address"
        },
        {
          "internalType": "address",
          "name": "to",
          "type": "address"
        },
        {
          "internalType": "uint256",
          "name": "assetId",
          "type": "uint256"
        },
        {
          "internalType": "uint256",
          "name": "share",
          "type": "uint256"
        }
      ],
      "name": "transfer",
      "outputs": [],
      "stateMutability": "nonpayable",
      "type": "function"
    },
    {
      "inputs": [
        {
          "internalType": "address",
          "name": "from",
          "type": "address"
        },
        {
          "internalType": "address[]",
          "name": "tos",
          "type": "address[]"
        },
        {
          "internalType": "uint256",
          "name": "assetId",
          "type": "uint256"
        },
        {
          "internalType": "uint256[]",
          "name": "shares",
          "type": "uint256[]"
        }
      ],
      "name": "transferMultiple",
      "outputs": [],
      "stateMutability": "nonpayable",
      "type": "function"
    },
    {
      "inputs": [
        {
          "internalType": "uint256",
          "name": "tokenId",
          "type": "uint256"
        },
        {
          "internalType": "address",
          "name": "newOwner",
          "type": "address"
        },
        {
          "internalType": "bool",
          "name": "direct",
          "type": "bool"
        },
        {
          "internalType": "bool",
          "name": "renounce",
          "type": "bool"
        }
      ],
      "name": "transferOwnership",
      "outputs": [],
      "stateMutability": "nonpayable",
      "type": "function"
    },
    {
      "inputs": [
        {
          "internalType": "uint256",
          "name": "assetId",
          "type": "uint256"
        }
      ],
      "name": "uri",
      "outputs": [
        {
          "internalType": "string",
          "name": "",
          "type": "string"
        }
      ],
      "stateMutability": "view",
      "type": "function"
    },
    {
      "inputs": [],
      "name": "uriBuilder",
      "outputs": [
        {
          "internalType": "contract YieldBoxURIBuilder",
          "name": "",
          "type": "address"
        }
      ],
      "stateMutability": "view",
      "type": "function"
    },
    {
      "inputs": [
        {
          "internalType": "uint256",
          "name": "assetId",
          "type": "uint256"
        },
        {
          "internalType": "address",
          "name": "from",
          "type": "address"
        },
        {
          "internalType": "address",
          "name": "to",
          "type": "address"
        },
        {
          "internalType": "uint256",
          "name": "amount",
          "type": "uint256"
        },
        {
          "internalType": "uint256",
          "name": "share",
          "type": "uint256"
        }
      ],
      "name": "withdraw",
      "outputs": [
        {
          "internalType": "uint256",
          "name": "amountOut",
          "type": "uint256"
        },
        {
          "internalType": "uint256",
          "name": "shareOut",
          "type": "uint256"
        }
      ],
      "stateMutability": "nonpayable",
      "type": "function"
    },
    {
      "inputs": [],
      "name": "wrappedNative",
      "outputs": [
        {
          "internalType": "contract IWrappedNative",
          "name": "",
          "type": "address"
        }
      ],
      "stateMutability": "view",
      "type": "function"
    },
    {
      "stateMutability": "payable",
      "type": "receive"
    }
  ],
  "transactionHash": "0x07d860c398a9b5a96f08e6401ac70c5ede50aa7b6b39d03f8976b6fa62af3147",
  "args": [
    "0x0000000000000000000000000000000000000000",
    "0x8E4030e49A60313d3E51125a3AFe2a642D5375EB"
  ],
  "numDeployments": 1,
  "solcInputHash": "45bcf35b4fb3bca7169fc66314197a4a",
  "bytecode": "0x60c06040523480156200001157600080fd5b5060405162004aee38038062004aee83398101604081905262000034916200012f565b6040805160808101825260048082526000602083018190529282018390526060820183905280546001808201835593829052825160039091027f8a35acfbc15ff81a39ae7d344fd709f28e8600b4aa8c65c6b64bfe7fe36bd19b018054939490939192849260ff191691908490811115620000b357620000b36200016e565b021790555060208201518154610100600160a81b0319166101006001600160a01b039283160217825560408301516001830180546001600160a01b0319169183169190911790556060909201516002909101559182166080521660a05262000184565b6001600160a01b03811681146200012c57600080fd5b50565b600080604083850312156200014357600080fd5b8251620001508162000116565b6020840151909250620001638162000116565b809150509250929050565b634e487b7160e01b600052602160045260246000fd5b60805160a05161490c620001e2600039600081816109a7015281816109cd01528181610c34015281816114b901526117ee01526000818161092601528181611b6701528181611c1b01528181611ca001526125dd015261490c6000f3fe60806040526004361061027f5760003560e01c8063753380791161014f578063bc197c81116100c1578063e985e9c51161007a578063e985e9c5146108c7578063eafe7a74146108ff578063eb6d3a1114610914578063f23a6e6114610948578063f242432a14610975578063fd330d431461099557600080fd5b8063bc197c81146107e8578063bd85b03914610817578063ce7f271414610844578063cf35bdd014610864578063d2423b5114610894578063daf210b1146108a757600080fd5b80639a9af97a116101135780639a9af97a1461071f5780639eea5f661461073f578063a123c33e1461075f578063a22cb46514610795578063a3823ac0146107b5578063b061db94146107c857600080fd5b8063753380791461067f5780637c516e941461069f578063836a1040146106bf5780638d2e63b8146106df5780638eb22cdd146106ff57600080fd5b80632b800e3b116101f35780634e1273f4116101ac5780634e1273f4146105bf5780634e41a1fb146105ec57806354317d161461060c5780635ba4d64e1461062c5780636cd570311461064c57806370400fbe1461066c57600080fd5b80632b800e3b146104835780632d4e1d52146104d15780632eb2c2d6146105185780633f47e66214610538578063442c15991461056a5780634956d1581461058a57600080fd5b80630e89341c116102455780630e89341c14610379578063150b7a02146103995780631dbeeb4e146103de5780631f0ee4c3146103fe578063215b595a1461042e5780632482ee271461044e57600080fd5b8062ad800c1461028b578062fdd58e146102c157806301e1e3b11461030757806301ffc9a7146103295780630411b2521461035957600080fd5b3661028657005b600080fd5b34801561029757600080fd5b506102ab6102a63660046137d8565b6109c9565b6040516102b89190613849565b60405180910390f35b3480156102cd57600080fd5b506102f96102dc366004613871565b600160209081526000928352604080842090915290825290205481565b6040519081526020016102b8565b34801561031357600080fd5b506103276103223660046138e8565b610aa8565b005b34801561033557600080fd5b50610349610344366004613977565b610bc5565b60405190151581526020016102b8565b34801561036557600080fd5b50610327610374366004613994565b610c13565b34801561038557600080fd5b506102ab6103943660046137d8565b610c30565b3480156103a557600080fd5b506103c56103b4366004613a1b565b630a85bd0160e11b95945050505050565b6040516001600160e01b031990911681526020016102b8565b3480156103ea57600080fd5b506103276103f93660046138e8565b610cd2565b34801561040a57600080fd5b5061041e6104193660046137d8565b610d7b565b6040516102b89493929190613a7c565b34801561043a57600080fd5b50610327610449366004613ac9565b610f44565b34801561045a57600080fd5b5061046e610469366004613b63565b611127565b60405163ffffffff90911681526020016102b8565b34801561048f57600080fd5b506104b961049e3660046137d8565b6007602052600090815260409020546001600160a01b031681565b6040516001600160a01b0390911681526020016102b8565b3480156104dd57600080fd5b506102f96104ec366004613c1e565b600360209081526000948552604080862082529385528385208152918452828420909152825290205481565b34801561052457600080fd5b50610327610533366004613c6f565b61136a565b34801561054457600080fd5b506105586105533660046137d8565b6114b5565b60405160ff90911681526020016102b8565b34801561057657600080fd5b506102f9610585366004613d3b565b611591565b34801561059657600080fd5b506105aa6105a53660046137d8565b61166e565b604080519283526020830191909152016102b8565b3480156105cb57600080fd5b506105df6105da366004613d74565b6116a0565b6040516102b89190613ddf565b3480156105f857600080fd5b506102ab6106073660046137d8565b6117ea565b34801561061857600080fd5b506102f9610627366004613871565b61186f565b34801561063857600080fd5b50610327610647366004613e23565b611975565b34801561065857600080fd5b506105aa610667366004613e76565b611abf565b6105aa61067a366004613f02565b611b19565b34801561068b57600080fd5b506105aa61069a366004613f3a565b611d36565b3480156106ab57600080fd5b506103276106ba366004613f71565b611ebd565b3480156106cb57600080fd5b506103276106da366004613f02565b611f4f565b3480156106eb57600080fd5b506105aa6106fa366004613fd7565b611f98565b34801561070b57600080fd5b506102f961071a366004613d3b565b612109565b34801561072b57600080fd5b506105aa61073a366004613fd7565b6121c9565b34801561074b57600080fd5b5061032761075a366004613f02565b612429565b34801561076b57600080fd5b506104b961077a3660046137d8565b6006602052600090815260409020546001600160a01b031681565b3480156107a157600080fd5b506103276107b0366004614029565b6124b7565b6105aa6107c3366004614062565b6125d0565b3480156107d457600080fd5b506102f96107e3366004613c1e565b612617565b3480156107f457600080fd5b506103c5610803366004613c6f565b63bc197c8160e01b98975050505050505050565b34801561082357600080fd5b506102f96108323660046137d8565b60026020526000908152604090205481565b34801561085057600080fd5b5061032761085f3660046137d8565b6126c7565b34801561087057600080fd5b5061088461087f3660046137d8565b6127b3565b6040516102b894939291906140ca565b6103276108a23660046140ff565b6127fd565b3480156108b357600080fd5b506103276108c236600461414a565b6128b1565b3480156108d357600080fd5b506103496108e23660046141bf565b600060208181529281526040808220909352908152205460ff1681565b34801561090b57600080fd5b506004546102f9565b34801561092057600080fd5b506104b97f000000000000000000000000000000000000000000000000000000000000000081565b34801561095457600080fd5b506103c56109633660046141ed565b63f23a6e6160e01b9695505050505050565b34801561098157600080fd5b506103276109903660046141ed565b6128c9565b3480156109a157600080fd5b506104b97f000000000000000000000000000000000000000000000000000000000000000081565b60607f00000000000000000000000000000000000000000000000000000000000000006001600160a01b031663aa1163b960048481548110610a0d57610a0d614256565b9060005260206000209060030201600560008681526020019081526020016000206000016040518363ffffffff1660e01b8152600401610a4e929190614381565b60006040518083038186803b158015610a6657600080fd5b505afa158015610a7a573d6000803e3d6000fd5b505050506040513d6000823e601f3d908101601f19168201604052610aa291908101906143b7565b92915050565b600060048681548110610abd57610abd614256565b600091825260209091206003909102015460ff166004811115610ae257610ae2614092565b14610b265760405162461bcd60e51b815260206004820152600f60248201526e4e54463a204e6f74206e617469766560881b60448201526064015b60405180910390fd5b8260005b81811015610bbc57610b61868683818110610b4757610b47614256565b9050602002016020810190610b5c9190614458565b6129cc565b610baa868683818110610b7657610b76614256565b9050602002016020810190610b8b9190614458565b88868685818110610b9e57610b9e614256565b90506020020135612a4f565b80610bb48161448b565b915050610b2a565b50505050505050565b60006001600160e01b031982166301ffc9a760e01b1480610bf65750636cdb3d1360e11b6001600160e01b03198316145b80610aa25750506001600160e01b0319166303a24d0760e21b1490565b83610c1d816129cc565b610c2985858585612b0d565b5050505050565b60607f00000000000000000000000000000000000000000000000000000000000000006001600160a01b0316635c6d843560048481548110610c7457610c74614256565b6000918252602080832087845260058252604080852060028452818620546006909452948190205490516001600160e01b031960e088901b168152610a4e9560039095029092019392916001600160a01b03909116906004016144a6565b60008581526006602052604090205485906001600160a01b03163314610d0a5760405162461bcd60e51b8152600401610b1d90614534565b8360005b81811015610d7157610d5f878783818110610d2b57610d2b614256565b9050602002016020810190610d409190614458565b89878785818110610d5357610d53614256565b90506020020135612be2565b80610d698161448b565b915050610d0e565b5050505050505050565b600560205260009081526040902080548190610d96906142a5565b80601f0160208091040260200160405190810160405280929190818152602001828054610dc2906142a5565b8015610e0f5780601f10610de457610100808354040283529160200191610e0f565b820191906000526020600020905b815481529060010190602001808311610df257829003601f168201915b505050505090806001018054610e24906142a5565b80601f0160208091040260200160405190810160405280929190818152602001828054610e50906142a5565b8015610e9d5780601f10610e7257610100808354040283529160200191610e9d565b820191906000526020600020905b815481529060010190602001808311610e8057829003601f168201915b5050506002840154600385018054949560ff909216949193509150610ec1906142a5565b80601f0160208091040260200160405190810160405280929190818152602001828054610eed906142a5565b8015610f3a5780601f10610f0f57610100808354040283529160200191610f3a565b820191906000526020600020905b815481529060010190602001808311610f1d57829003601f168201915b5050505050905084565b85610f4e816129cc565b8460005b81811015610fe3576000888883818110610f6e57610f6e614256565b9050602002016020810190610f839190614458565b6001600160a01b03161415610fd15760405162461bcd60e51b8152602060048201526014602482015273165a595b19109bde0e881d1bc81b9bdd081cd95d60621b6044820152606401610b1d565b80610fdb8161448b565b915050610f52565b506000805b828110156110e357600089898381811061100457611004614256565b90506020020160208101906110199190614458565b9050600087878481811061102f5761102f614256565b6001600160a01b03851660009081526001602090815260408083208f84528252822080549390910294909401359450849392509061106e90849061456b565b9091555061107e9050818561456b565b9350816001600160a01b03168c6001600160a01b0316336001600160a01b03166000805160206148b78339815191528c856040516110c6929190918252602082015260400190565b60405180910390a4505080806110db9061448b565b915050610fe8565b506001600160a01b038916600090815260016020908152604080832089845290915281208054839290611117908490614583565b9091555050505050505050505050565b60045460009061113690612c97565b905061114c60008060008463ffffffff16612cf1565b50604051806080016040528089898080601f016020809104026020016040519081016040528093929190818152602001838380828437600092019190915250505090825250604080516020601f8a018190048102820181019092528881529181019190899089908190840183828082843760009201919091525050509082525060ff861660208083019190915260408051601f87018390048302810183018252868152920191908690869081908401838280828437600092018290525093909452505063ffffffff8416815260056020908152604090912083518051919350611239928492910190613748565b5060208281015180516112529260018501920190613748565b50604082015160028201805460ff191660ff90921691909117905560608201518051611288916003840191602090910190613748565b50505063ffffffff81166000908152600660205260409081902080546001600160a01b0319163390811790915590517f0b0bcdebd2813328a89a9ed5971e5863201ed78fc4e0e2b271cceddb9ce90510906112ee908b908b908b908b908b9089906145c3565b60405180910390a26040805163ffffffff8316815260006020820181905291829133916000805160206148b7833981519152910160405180910390a4604051339060009063ffffffff8416907f16b85f49bf01212961345d3016c9a531894accf62eb7680f2045d79185cc0ec0908390a4979650505050505050565b8483146113b45760405162461bcd60e51b815260206004820152601860248201527708aa48662626a6a744098cadccee8d040dad2e6dac2e8c6d60431b6044820152606401610b1d565b6113bd886129cc565b6113cb88888888888861322b565b6001600160a01b0387163b15610d715760405163bc197c8160e01b808252906001600160a01b0389169063bc197c81906114179033908d908c908c908c908c908c908c90600401614643565b602060405180830381600087803b15801561143157600080fd5b505af1158015611445573d6000803e3d6000fd5b505050506040513d601f19601f8201168201806040525081019061146991906146a7565b6001600160e01b03191614610d715760405162461bcd60e51b815260206004820152601260248201527157726f6e672072657475726e2076616c756560701b6044820152606401610b1d565b60007f00000000000000000000000000000000000000000000000000000000000000006001600160a01b0316636d7cd037600484815481106114f9576114f9614256565b6000918252602080832087845260059091526040928390206002015492516001600160e01b031960e086901b1681526115419360039093029091019160ff16906004016146c4565b60206040518083038186803b15801561155957600080fd5b505afa15801561156d573d6000803e3d6000fd5b505050506040513d601f19601f82011682018060405250810190610aa291906146e2565b600080600485815481106115a7576115a7614256565b600091825260209091206003909102015460ff1660048111156115cc576115cc614092565b148061160f57506002600485815481106115e8576115e8614256565b600091825260209091206003909102015460ff16600481111561160d5761160d614092565b145b1561161b575081611667565b611664600260008681526020019081526020016000205461165b6004878154811061164857611648614256565b9060005260206000209060030201613386565b85919085613405565b90505b9392505050565b6000818152600260205260408120546004805491929161169991908590811061164857611648614256565b9050915091565b6060838281146116ed5760405162461bcd60e51b815260206004820152601860248201527708aa48662626a6a744098cadccee8d040dad2e6dac2e8c6d60431b6044820152606401610b1d565b806001600160401b03811115611705576117056143a1565b60405190808252806020026020018201604052801561172e578160200160208202803683370190505b50915060005b818110156117e0576001600088888481811061175257611752614256565b90506020020160208101906117679190614458565b6001600160a01b03166001600160a01b03168152602001908152602001600020600086868481811061179b5761179b614256565b905060200201358152602001908152602001600020548382815181106117c3576117c3614256565b6020908102919091010152806117d88161448b565b915050611734565b5050949350505050565b60607f00000000000000000000000000000000000000000000000000000000000000006001600160a01b03166384b1017d6004848154811061182e5761182e614256565b9060005260206000209060030201600560008681526020019081526020016000206001016040518363ffffffff1660e01b8152600401610a4e929190614381565b6000806004838154811061188557611885614256565b600091825260209091206003909102015460ff1660048111156118aa576118aa614092565b14806118ed57506002600483815481106118c6576118c6614256565b600091825260209091206003909102015460ff1660048111156118eb576118eb614092565b145b1561191c57506001600160a01b0382166000908152600160209081526040808320848452909152902054610aa2565b61166760026000848152602001908152602001600020546119496004858154811061164857611648614256565b6001600160a01b0386166000908152600160209081526040808320888452909152812054929190613405565b60008481526006602052604090205484906001600160a01b031633146119ad5760405162461bcd60e51b8152600401610b1d90614534565b8215611a8f576001600160a01b0384161515806119c75750815b611a075760405162461bcd60e51b81526020600482015260116024820152704e54463a207a65726f206164647265737360781b6044820152606401610b1d565b6000858152600660205260408082205490516001600160a01b038088169392169188917f16b85f49bf01212961345d3016c9a531894accf62eb7680f2045d79185cc0ec09190a4600085815260066020908152604080832080546001600160a01b0389166001600160a01b031991821617909155600790925290912080549091169055610c29565b600085815260076020526040902080546001600160a01b0386166001600160a01b03199091161790555050505050565b600080808a6004811115611ad557611ad5614092565b1415611afd57611af4611aeb6003308b8b612617565b878787876121c9565b91509150611b0c565b611af4611aeb8b8b8b8b612617565b9850989650505050505050565b600080600060048681548110611b3157611b31614256565b6000918252602090912060039091020190506001815460ff166004811115611b5b57611b5b614092565b148015611b9a575080547f00000000000000000000000000000000000000000000000000000000000000006001600160a01b0390811661010090920416145b611be65760405162461bcd60e51b815260206004820152601b60248201527f5969656c64426f783a206e6f7420777261707065644e617469766500000000006044820152606401610b1d565b600086815260026020526040812054611c0c90611c0284613386565b8791906000613475565b9050611c19868883612be2565b7f00000000000000000000000000000000000000000000000000000000000000006001600160a01b031663d0e30db0866040518263ffffffff1660e01b81526004016000604051808303818588803b158015611c7457600080fd5b505af1158015611c88573d6000803e3d6000fd5b505050506001830154611cc991506001600160a01b037f000000000000000000000000000000000000000000000000000000000000000081169116876134c0565b60018201546040516357d48e6360e11b8152600481018790526001600160a01b039091169063afa91cc690602401600060405180830381600087803b158015611d1157600080fd5b505af1158015611d25573d6000803e3d6000fd5b509699929850919650505050505050565b60008083611d43816129cc565b600060048781548110611d5857611d58614256565b6000918252602090912060039091020190506002815460ff166004811115611d8257611d82614092565b14611dc65760405162461bcd60e51b81526020600482015260146024820152735969656c64426f783a206e6f742045524337323160601b6044820152606401610b1d565b611dd285886001612be2565b805460018201546002830154604051632142170760e11b81526001600160a01b038a811660048301529283166024820152604481019190915261010090920416906342842e0e90606401600060405180830381600087803b158015611e3657600080fd5b505af1158015611e4a573d6000803e3d6000fd5b505050506001818101546040516357d48e6360e11b815260048101929092526001600160a01b03169063afa91cc690602401600060405180830381600087803b158015611e9657600080fd5b505af1158015611eaa573d6000803e3d6000fd5b5060019a8b9a5098505050505050505050565b60405163d505accf60e01b81526001600160a01b0388811660048301528781166024830152604482018790526064820186905260ff8516608483015260a4820184905260c4820183905289169063d505accf9060e401600060405180830381600087803b158015611f2d57600080fd5b505af1158015611f41573d6000803e3d6000fd5b505050505050505050505050565b60008381526006602052604090205483906001600160a01b03163314611f875760405162461bcd60e51b8152600401610b1d90614534565b611f92838584612be2565b50505050565b60008085611fa5816129cc565b600060048981548110611fba57611fba614256565b6000918252602082206003909102019150815460ff166004811115611fe157611fe1614092565b141561202f5760405162461bcd60e51b815260206004820152601f60248201527f5969656c64426f783a2063616e2774207769746864726177204e6174697665006044820152606401610b1d565b600061203a82613386565b9050856120655760008a81526002602052604090205461205e908890836001613475565b9550612085565b60008a815260026020526040812054612082918891908490613405565b96505b612090898b88612a4f565b600182015460405163f3fef3a360e01b81526001600160a01b038a81166004830152602482018a90529091169063f3fef3a3906044015b600060405180830381600087803b1580156120e157600080fd5b505af11580156120f5573d6000803e3d6000fd5b50989c979b50969950505050505050505050565b6000806004858154811061211f5761211f614256565b600091825260209091206003909102015460ff16600481111561214457612144614092565b1480612187575060026004858154811061216057612160614256565b600091825260209091206003909102015460ff16600481111561218557612185614092565b145b15612193575081611667565b61166460026000868152602001908152602001600020546121c06004878154811061164857611648614256565b85919085613475565b600080856121d6816129cc565b6000600489815481106121eb576121eb614256565b6000918252602082206003909102019150815460ff16600481111561221257612212614092565b1415801561223657506002815460ff16600481111561223357612233614092565b14155b6122825760405162461bcd60e51b815260206004820152601c60248201527f5969656c64426f783a2063616e2774206465706f7369742074797065000000006044820152606401610b1d565b600061228d82613386565b9050856122b85760008a8152600260205260408120546122b1918991908490613475565b95506122d8565b60008a8152600260205260409020546122d5908790836001613405565b96505b6122e3888b88612be2565b6001825460ff1660048111156122fb576122fb614092565b141561232b5760018201548254612326916001600160a01b036101009092048216918c91168a6135d4565b6123f6565b815461010090046001600160a01b03163014156123645760018201546002830154612326918b916001600160a01b03909116908a612b0d565b815460018301546002840154604051637921219560e11b81526001600160a01b038d8116600483015292831660248201526044810191909152606481018a905260a06084820152600060a4820152610100909204169063f242432a9060c401600060405180830381600087803b1580156123dd57600080fd5b505af11580156123f1573d6000803e3d6000fd5b505050505b60018201546040516357d48e6360e11b8152600481018990526001600160a01b039091169063afa91cc6906024016120c7565b81612433816129cc565b60006004858154811061244857612448614256565b600091825260209091206003909102015460ff16600481111561246d5761246d614092565b146124ac5760405162461bcd60e51b815260206004820152600f60248201526e4e54463a204e6f74206e617469766560881b6044820152606401610b1d565b611f92838584612a4f565b6001600160a01b03821661250d5760405162461bcd60e51b815260206004820152601a60248201527f5969656c64426f783a206f70657261746f72206e6f74207365740000000000006044820152606401610b1d565b6001600160a01b0382163014156125665760405162461bcd60e51b815260206004820181905260248201527f5969656c64426f783a2063616e277420617070726f7665207969656c64426f786044820152606401610b1d565b336000818152602081815260408083206001600160a01b03871680855290835292819020805460ff191686151590811790915590519081529192917f17307eab39ab6107e8899845ad3d59bd9653f200f220920489ca2b5937696c31910160405180910390a35050565b60008061260b61260460017f0000000000000000000000000000000000000000000000000000000000000000886000612617565b8585611b19565b91509150935093915050565b6000600185600481111561262d5761262d614092565b148061264a5750600285600481111561264857612648614092565b145b806126665750600385600481111561266457612664614092565b145b6126b25760405162461bcd60e51b815260206004820152601f60248201527f41737365744d616e616765723a2063616e6e6f7420616464204e6174697665006044820152606401610b1d565b6126be85858585612cf1565b95945050505050565b6000818152600760205260409020546001600160a01b031633811461272e5760405162461bcd60e51b815260206004820152601c60248201527f4e54463a2063616c6c657220213d2070656e64696e67206f776e6572000000006044820152606401610b1d565b6000828152600660205260408082205490516001600160a01b038085169392169185917f16b85f49bf01212961345d3016c9a531894accf62eb7680f2045d79185cc0ec09190a4600091825260066020908152604080842080546001600160a01b039094166001600160a01b0319948516179055600790915290912080549091169055565b600481815481106127c357600080fd5b600091825260209091206003909102018054600182015460029092015460ff821693506101009091046001600160a01b0390811692169084565b60005b82811015611f92576000803086868581811061281e5761281e614256565b905060200281019061283091906146ff565b60405161283e929190614745565b600060405180830381855af49150503d8060008114612879576040519150601f19603f3d011682016040523d82523d6000602084013e61287e565b606091505b50915091508115801561288e5750835b1561289c5761289c816136f0565b505080806128a99061448b565b915050612800565b856128bb816129cc565b610bbc87878787878761322b565b6128d2866129cc565b6128de86868686612b0d565b6001600160a01b0385163b156129c45760405163f23a6e6160e01b808252906001600160a01b0387169063f23a6e61906129269033908b908a908a908a908a90600401614755565b602060405180830381600087803b15801561294057600080fd5b505af1158015612954573d6000803e3d6000fd5b505050506040513d601f19601f8201168201806040525081019061297891906146a7565b6001600160e01b031916146129c45760405162461bcd60e51b815260206004820152601260248201527157726f6e672072657475726e2076616c756560701b6044820152606401610b1d565b505050505050565b6001600160a01b038116331480612a0957506001600160a01b03811660009081526020818152604080832033845290915290205460ff1615156001145b612a4c5760405162461bcd60e51b8152602060048201526014602482015273151c985b9cd9995c881b9bdd08185b1b1bddd95960621b6044820152606401610b1d565b50565b6001600160a01b038316612a755760405162461bcd60e51b8152600401610b1d9061479c565b6001600160a01b038316600090815260016020908152604080832085845290915281208054839290612aa8908490614583565b909155505060008281526002602052604081208054839290612acb908490614583565b909155505060408051838152602081018390526000916001600160a01b0386169133916000805160206148b783398151915291015b60405180910390a4505050565b6001600160a01b038316612b335760405162461bcd60e51b8152600401610b1d9061479c565b6001600160a01b038416600090815260016020908152604080832085845290915281208054839290612b66908490614583565b90915550506001600160a01b038316600090815260016020908152604080832085845290915281208054839290612b9e90849061456b565b909155505060408051838152602081018390526001600160a01b03808616929087169133916000805160206148b7833981519152910160405180910390a450505050565b6001600160a01b038316612c085760405162461bcd60e51b8152600401610b1d9061479c565b6001600160a01b038316600090815260016020908152604080832085845290915281208054839290612c3b90849061456b565b909155505060008281526002602052604081208054839290612c5e90849061456b565b909155505060408051838152602081018390526001600160a01b0385169160009133916000805160206148b78339815191529101612b00565b600063ffffffff821115612ced5760405162461bcd60e51b815260206004820152601b60248201527f426f72696e674d6174683a2075696e743332204f766572666c6f7700000000006044820152606401610b1d565b5090565b600060036000866004811115612d0957612d09614092565b6004811115612d1a57612d1a614092565b8152602080820192909252604090810160009081206001600160a01b0380891683529084528282209087168252835281812085825290925290205490508061322357811580612d7b57506001856004811115612d7857612d78614092565b14155b612dc75760405162461bcd60e51b815260206004820152601e60248201527f5969656c64426f783a204e6f20746f6b656e496420666f7220455243323000006044820152606401610b1d565b6000856004811115612ddb57612ddb614092565b1480612f7f5750826001600160a01b03166330fa738c6040518163ffffffff1660e01b815260040160206040518083038186803b158015612e1b57600080fd5b505afa158015612e2f573d6000803e3d6000fd5b505050506040513d601f19601f82011682018060405250810190612e5391906147c2565b6004811115612e6457612e64614092565b856004811115612e7657612e76614092565b148015612f045750826001600160a01b031663f6b4dfb46040518163ffffffff1660e01b815260040160206040518083038186803b158015612eb757600080fd5b505afa158015612ecb573d6000803e3d6000fd5b505050506040513d601f19601f82011682018060405250810190612eef91906147df565b6001600160a01b0316846001600160a01b0316145b8015612f7f5750826001600160a01b03166317d70f7c6040518163ffffffff1660e01b815260040160206040518083038186803b158015612f4457600080fd5b505afa158015612f58573d6000803e3d6000fd5b505050506040513d601f19601f82011682018060405250810190612f7c91906147fc565b82145b612fcb5760405162461bcd60e51b815260206004820152601b60248201527f5969656c64426f783a205374726174656779206d69736d6174636800000000006044820152606401610b1d565b6000856004811115612fdf57612fdf614092565b148015612ff357506001600160a01b038416155b8061300757506001600160a01b0384163b15155b61304b5760405162461bcd60e51b81526020600482015260156024820152742cb4b2b6322137bc1d102737ba1030903a37b5b2b760591b6044820152606401610b1d565b60048054905090506004604051806080016040528087600481111561307257613072614092565b81526001600160a01b038088166020808401919091529087166040830152606090910185905282546001818101855560009485529190932082516003909402018054929390929091839160ff1916908360048111156130d3576130d3614092565b021790555060208201518154610100600160a81b0319166101006001600160a01b039283160217825560408301516001830180546001600160a01b03191691909216179055606090910151600290910155806003600087600481111561313b5761313b614092565b600481111561314c5761314c614092565b8152602080820192909252604090810160009081206001600160a01b0389811683529084528282209088168252835281812086825283528181209390935580518281529182019290925282917f6bb7ff708619ba0610cba295a58592e0451dee2622938c8755667688daf3529b910160405180910390a281846001600160a01b03168660048111156131e0576131e0614092565b604080516001600160a01b0388168152602081018690527f30605d4cd099421ed12ca1ba642a1ea2659f679b5cdd0ccd032586640eeaff43910160405180910390a45b949350505050565b6001600160a01b0385166132515760405162461bcd60e51b8152600401610b1d9061479c565b8260005b8181101561332157600086868381811061327157613271614256565b905060200201359050600085858481811061328e5761328e614256565b6001600160a01b038d166000908152600160209081526040808320888452825282208054939091029490940135945084939250906132cd908490614583565b90915550506001600160a01b03891660009081526001602090815260408083208584529091528120805483929061330590849061456b565b92505081905550505080806133199061448b565b915050613255565b50856001600160a01b0316876001600160a01b0316336001600160a01b03167f4a39dc06d4c0dbc64b70af90fd698a233a518aa5d07e595d983b8c0526c8f7fb888888886040516133759493929190614815565b60405180910390a450505050505050565b60018101546040805163ce845d1d60e01b815290516000926001600160a01b03169163ce845d1d916004808301926020929190829003018186803b1580156133cd57600080fd5b505afa1580156133e1573d6000803e3d6000fd5b505050506040513d601f19601f82011682018060405250810190610aa291906147fc565b6000826134118161448b565b935061342390506305f5e1008561456b565b935083613430848761483c565b61343a919061485b565b905081801561345c57508483613450868461483c565b61345a919061485b565b105b15613223578061346b8161448b565b9695505050505050565b6000826134818161448b565b935061349390506305f5e1008561456b565b9350826134a0858761483c565b6134aa919061485b565b905081801561345c57508484613450858461483c565b604080516001600160a01b038481166024830152604480830185905283518084039091018152606490920183526020820180516001600160e01b031663a9059cbb60e01b179052915160009283929087169161351c919061487d565b6000604051808303816000865af19150503d8060008114613559576040519150601f19603f3d011682016040523d82523d6000602084013e61355e565b606091505b50915091508180156135885750805115806135885750808060200190518101906135889190614899565b610c295760405162461bcd60e51b815260206004820152601c60248201527f426f72696e6745524332303a205472616e73666572206661696c6564000000006044820152606401610b1d565b604080516001600160a01b0385811660248301528481166044830152606480830185905283518084039091018152608490920183526020820180516001600160e01b03166323b872dd60e01b1790529151600092839290881691613638919061487d565b6000604051808303816000865af19150503d8060008114613675576040519150601f19603f3d011682016040523d82523d6000602084013e61367a565b606091505b50915091508180156136a45750805115806136a45750808060200190518101906136a49190614899565b6129c45760405162461bcd60e51b815260206004820181905260248201527f426f72696e6745524332303a205472616e7366657246726f6d206661696c65646044820152606401610b1d565b604481511015613715578060405163d935448560e01b8152600401610b1d9190613849565b6004810190508080602001905181019061372f91906143b7565b60405162461bcd60e51b8152600401610b1d9190613849565b828054613754906142a5565b90600052602060002090601f01602090048101928261377657600085556137bc565b82601f1061378f57805160ff19168380011785556137bc565b828001600101855582156137bc579182015b828111156137bc5782518255916020019190600101906137a1565b50612ced9291505b80821115612ced57600081556001016137c4565b6000602082840312156137ea57600080fd5b5035919050565b60005b8381101561380c5781810151838201526020016137f4565b83811115611f925750506000910152565b600081518084526138358160208601602086016137f1565b601f01601f19169290920160200192915050565b602081526000611667602083018461381d565b6001600160a01b0381168114612a4c57600080fd5b6000806040838503121561388457600080fd5b823561388f8161385c565b946020939093013593505050565b60008083601f8401126138af57600080fd5b5081356001600160401b038111156138c657600080fd5b6020830191508360208260051b85010111156138e157600080fd5b9250929050565b60008060008060006060868803121561390057600080fd5b8535945060208601356001600160401b038082111561391e57600080fd5b61392a89838a0161389d565b9096509450604088013591508082111561394357600080fd5b506139508882890161389d565b969995985093965092949392505050565b6001600160e01b031981168114612a4c57600080fd5b60006020828403121561398957600080fd5b813561166781613961565b600080600080608085870312156139aa57600080fd5b84356139b58161385c565b935060208501356139c58161385c565b93969395505050506040820135916060013590565b60008083601f8401126139ec57600080fd5b5081356001600160401b03811115613a0357600080fd5b6020830191508360208285010111156138e157600080fd5b600080600080600060808688031215613a3357600080fd5b8535613a3e8161385c565b94506020860135613a4e8161385c565b93506040860135925060608601356001600160401b03811115613a7057600080fd5b613950888289016139da565b608081526000613a8f608083018761381d565b8281036020840152613aa1818761381d565b905060ff851660408401528281036060840152613abe818561381d565b979650505050505050565b60008060008060008060808789031215613ae257600080fd5b8635613aed8161385c565b955060208701356001600160401b0380821115613b0957600080fd5b613b158a838b0161389d565b9097509550604089013594506060890135915080821115613b3557600080fd5b50613b4289828a0161389d565b979a9699509497509295939492505050565b60ff81168114612a4c57600080fd5b60008060008060008060006080888a031215613b7e57600080fd5b87356001600160401b0380821115613b9557600080fd5b613ba18b838c016139da565b909950975060208a0135915080821115613bba57600080fd5b613bc68b838c016139da565b909750955060408a01359150613bdb82613b54565b90935060608901359080821115613bf157600080fd5b50613bfe8a828b016139da565b989b979a50959850939692959293505050565b60058110612a4c57600080fd5b60008060008060808587031215613c3457600080fd5b8435613c3f81613c11565b93506020850135613c4f8161385c565b92506040850135613c5f8161385c565b9396929550929360600135925050565b60008060008060008060008060a0898b031215613c8b57600080fd5b8835613c968161385c565b97506020890135613ca68161385c565b965060408901356001600160401b0380821115613cc257600080fd5b613cce8c838d0161389d565b909850965060608b0135915080821115613ce757600080fd5b613cf38c838d0161389d565b909650945060808b0135915080821115613d0c57600080fd5b50613d198b828c016139da565b999c989b5096995094979396929594505050565b8015158114612a4c57600080fd5b600080600060608486031215613d5057600080fd5b83359250602084013591506040840135613d6981613d2d565b809150509250925092565b60008060008060408587031215613d8a57600080fd5b84356001600160401b0380821115613da157600080fd5b613dad8883890161389d565b90965094506020870135915080821115613dc657600080fd5b50613dd38782880161389d565b95989497509550505050565b6020808252825182820181905260009190848201906040850190845b81811015613e1757835183529284019291840191600101613dfb565b50909695505050505050565b60008060008060808587031215613e3957600080fd5b843593506020850135613e4b8161385c565b92506040850135613e5b81613d2d565b91506060850135613e6b81613d2d565b939692955090935050565b600080600080600080600080610100898b031215613e9357600080fd5b8835613e9e81613c11565b97506020890135613eae8161385c565b96506040890135613ebe8161385c565b9550606089013594506080890135613ed58161385c565b935060a0890135613ee58161385c565b979a969950949793969295929450505060c08201359160e0013590565b600080600060608486031215613f1757600080fd5b833592506020840135613f298161385c565b929592945050506040919091013590565b600080600060608486031215613f4f57600080fd5b833592506020840135613f618161385c565b91506040840135613d698161385c565b600080600080600080600080610100898b031215613f8e57600080fd5b8835613f998161385c565b97506020890135613fa98161385c565b96506040890135613fb98161385c565b9550606089013594506080890135935060a0890135613ee581613b54565b600080600080600060a08688031215613fef57600080fd5b8535945060208601356140018161385c565b935060408601356140118161385c565b94979396509394606081013594506080013592915050565b6000806040838503121561403c57600080fd5b82356140478161385c565b9150602083013561405781613d2d565b809150509250929050565b60008060006060848603121561407757600080fd5b83356140828161385c565b92506020840135613f298161385c565b634e487b7160e01b600052602160045260246000fd5b600581106140c657634e487b7160e01b600052602160045260246000fd5b9052565b608081016140d882876140a8565b6001600160a01b039485166020830152929093166040840152606090920191909152919050565b60008060006040848603121561411457600080fd5b83356001600160401b0381111561412a57600080fd5b6141368682870161389d565b9094509250506020840135613d6981613d2d565b6000806000806000806080878903121561416357600080fd5b863561416e8161385c565b9550602087013561417e8161385c565b945060408701356001600160401b038082111561419a57600080fd5b6141a68a838b0161389d565b90965094506060890135915080821115613b3557600080fd5b600080604083850312156141d257600080fd5b82356141dd8161385c565b915060208301356140578161385c565b60008060008060008060a0878903121561420657600080fd5b86356142118161385c565b955060208701356142218161385c565b9450604087013593506060870135925060808701356001600160401b0381111561424a57600080fd5b613b4289828a016139da565b634e487b7160e01b600052603260045260246000fd5b805461427b8360ff83166140a8565b60081c6001600160a01b039081166020840152600182015416604083015260020154606090910152565b600181811c908216806142b957607f821691505b602082108114156142da57634e487b7160e01b600052602260045260246000fd5b50919050565b8054600090600181811c90808316806142fa57607f831692505b602080841082141561431c57634e487b7160e01b600052602260045260246000fd5b838852818015614333576001811461434757614375565b60ff19861689830152604089019650614375565b876000528160002060005b8681101561436d5781548b8201850152908501908301614352565b8a0183019750505b50505050505092915050565b61438b818461426c565b60a06080820152600061166460a08301846142e0565b634e487b7160e01b600052604160045260246000fd5b6000602082840312156143c957600080fd5b81516001600160401b03808211156143e057600080fd5b818401915084601f8301126143f457600080fd5b815181811115614406576144066143a1565b604051601f8201601f19908116603f0116810190838211818310171561442e5761442e6143a1565b8160405282815287602084870101111561444757600080fd5b613abe8360208301602088016137f1565b60006020828403121561446a57600080fd5b81356116678161385c565b634e487b7160e01b600052601160045260246000fd5b600060001982141561449f5761449f614475565b5060010190565b6144b0818661426c565b60e06080820152608060e082015260006144ce6101608301866142e0565b60df1980848303016101008501526144e982600189016142e0565b915060ff60028801541661012085015280848303016101408501525061451281600388016142e0565b60a084019590955250506001600160a01b039190911660c09091015292915050565b6020808252601c908201527f4e54463a2063616c6c6572206973206e6f7420746865206f776e657200000000604082015260600190565b6000821982111561457e5761457e614475565b500190565b60008282101561459557614595614475565b500390565b81835281816020850137506000828201602090810191909152601f909101601f19169091010190565b6080815260006145d760808301888a61459a565b82810360208401526145ea81878961459a565b91505060ff8416604083015263ffffffff83166060830152979650505050505050565b81835260006001600160fb1b0383111561462657600080fd5b8260051b8083602087013760009401602001938452509192915050565b6001600160a01b0389811682528816602082015260a060408201819052600090614670908301888a61460d565b828103606084015261468381878961460d565b9050828103608084015261469881858761459a565b9b9a5050505050505050505050565b6000602082840312156146b957600080fd5b815161166781613961565b60a081016146d2828561426c565b60ff831660808301529392505050565b6000602082840312156146f457600080fd5b815161166781613b54565b6000808335601e1984360301811261471657600080fd5b8301803591506001600160401b0382111561473057600080fd5b6020019150368190038213156138e157600080fd5b8183823760009101908152919050565b6001600160a01b03878116825286166020820152604081018590526060810184905260a060808201819052600090614790908301848661459a565b98975050505050505050565b6020808252600c908201526b4e6f2030206164647265737360a01b604082015260600190565b6000602082840312156147d457600080fd5b815161166781613c11565b6000602082840312156147f157600080fd5b81516116678161385c565b60006020828403121561480e57600080fd5b5051919050565b60408152600061482960408301868861460d565b8281036020840152613abe81858761460d565b600081600019048311821515161561485657614856614475565b500290565b60008261487857634e487b7160e01b600052601260045260246000fd5b500490565b6000825161488f8184602087016137f1565b9190910192915050565b6000602082840312156148ab57600080fd5b815161166781613d2d56fec3d58168c5ae7397731d063d5bbf3d657854427343f4c083240f7aacaa2d0f62a2646970667358221220cc3139a3c18633b9713f17cb335671c33b42d5fdb31b80662d9e0a82f081674d64736f6c63430008090033",
  "devdoc": {
    "author": "BoringCrypto, Keno",
    "kind": "dev",
    "methods": {
      "amountOf(address,uint256)": {
        "details": "Helper function represent the balance in `token` amount for a `user` for an `asset`.",
        "params": {
          "assetId": "The id of the asset.",
          "user": "The `user` to get the amount for."
        }
      },
      "batch(bytes[],bool)": {
        "params": {
          "calls": "An array of inputs for each call.",
          "revertOnFail": "If True then reverts after a failed call and stops doing further calls."
        }
      },
      "batchBurn(uint256,address[],uint256[])": {
        "params": {
          "amounts": "The amounts of tokens to burn.",
          "froms": "The accounts to burn tokens from.",
          "tokenId": "The token to be burned."
        }
      },
      "batchMint(uint256,address[],uint256[])": {
        "details": "If the tos array is longer than the amounts array there will be an out of bounds error. If the amounts array is longer, the extra amounts are simply ignored.For security reasons, operators are not allowed to mint. Only the actual owner can do this. Of course the owner can be a contract.",
        "params": {
          "amounts": "The amounts of tokens to mint.",
          "tokenId": "The token to be minted.",
          "tos": "The accounts to transfer the minted tokens to."
        }
      },
      "burn(uint256,address,uint256)": {
        "params": {
          "amount": "The amount of tokens to burn.",
          "tokenId": "The token to be burned."
        }
      },
      "claimOwnership(uint256)": {
        "params": {
          "tokenId": "The `tokenId` of the token that ownership is claimed for."
        }
      },
      "createToken(string,string,uint8,string)": {
        "params": {
          "decimals": "The number of decimals of the token (this is just for display purposes). Should be set to 18 in normal cases.",
          "name": "The name of the token.",
          "symbol": "The symbol of the token."
        }
      },
      "depositAsset(uint256,address,address,uint256,uint256)": {
        "params": {
          "amount": "Token amount in native representation to deposit.",
          "assetId": "The id of the asset.",
          "from": "which account to pull the tokens.",
          "share": "Token amount represented in shares to deposit. Takes precedence over `amount`.",
          "to": "which account to push the tokens."
        },
        "returns": {
          "amountOut": "The amount deposited.",
          "shareOut": "The deposited amount repesented in shares."
        }
      },
      "depositNFTAsset(uint256,address,address)": {
        "params": {
          "assetId": "The id of the asset.",
          "from": "which account to pull the tokens.",
          "to": "which account to push the tokens."
        },
        "returns": {
          "amountOut": "The amount deposited.",
          "shareOut": "The deposited amount repesented in shares."
        }
      },
      "mint(uint256,address,uint256)": {
        "details": "For security reasons, operators are not allowed to mint. Only the actual owner can do this. Of course the owner can be a contract.",
        "params": {
          "amount": "The amount of tokens to mint.",
          "to": "The account to transfer the minted tokens to.",
          "tokenId": "The token to be minted."
        }
      },
      "toAmount(uint256,uint256,bool)": {
        "details": "Helper function represent shares back into the `token` amount.",
        "params": {
          "assetId": "The id of the asset.",
          "roundUp": "If the result should be rounded up.",
          "share": "The amount of shares."
        },
        "returns": {
          "amount": "The share amount back into native representation."
        }
      },
      "toShare(uint256,uint256,bool)": {
        "details": "Helper function to represent an `amount` of `token` in shares.",
        "params": {
          "amount": "The `token` amount.",
          "assetId": "The id of the asset.",
          "roundUp": "If the result `share` should be rounded up."
        },
        "returns": {
          "share": "The token amount represented in shares."
        }
      },
      "transfer(address,address,uint256,uint256)": {
        "params": {
          "assetId": "The id of the asset.",
          "from": "which user to pull the tokens.",
          "share": "The amount of `token` in shares.",
          "to": "which user to push the tokens."
        }
      },
      "transferMultiple(address,address[],uint256,uint256[])": {
        "params": {
          "assetId": "The id of the asset.",
          "from": "which user to pull the tokens.",
          "shares": "The amount of `token` in shares for each receiver in `tos`.",
          "tos": "The receivers of the tokens."
        }
      },
      "transferOwnership(uint256,address,bool,bool)": {
        "params": {
          "direct": "True if `newOwner` should be set immediately. False if `newOwner` needs to use `claimOwnership`.",
          "newOwner": "Address of the new owner.",
          "renounce": "Allows the `newOwner` to be `address(0)` if `direct` and `renounce` is True. Has no effect otherwise.",
          "tokenId": "The `tokenId` of the token that ownership whose ownership will be transferred/renounced."
        }
      },
      "withdraw(uint256,address,address,uint256,uint256)": {
        "params": {
          "amount": "of tokens. Either one of `amount` or `share` needs to be supplied.",
          "assetId": "The id of the asset.",
          "from": "which user to pull the tokens.",
          "share": "Like above, but `share` takes precedence over `amount`.",
          "to": "which user to push the tokens."
        }
      }
    },
    "title": "YieldBox",
    "version": 1
  },
  "userdoc": {
    "kind": "user",
    "methods": {
      "batch(bytes[],bool)": {
        "notice": "Allows batched call to self (this contract)."
      },
      "batchBurn(uint256,address[],uint256[])": {
        "notice": "Burns tokens. This is only useful to be used by an operator."
      },
      "batchMint(uint256,address[],uint256[])": {
        "notice": "The `owner` can mint tokens. If a fixed supply is needed, the `owner` should mint the totalSupply and renounce ownership."
      },
      "burn(uint256,address,uint256)": {
        "notice": "Burns tokens. Only the holder of tokens can burn them or an approved operator."
      },
      "claimOwnership(uint256)": {
        "notice": "Needs to be called by `pendingOwner` to claim ownership."
      },
      "createToken(string,string,uint8,string)": {
        "notice": "Create a new native token. This will be an ERC1155 token. If later it's needed as an ERC20 token it can be wrapped into an ERC20 token. Native support for ERC1155 tokens is growing though."
      },
      "depositAsset(uint256,address,address,uint256,uint256)": {
        "notice": "Deposit an amount of `token` represented in either `amount` or `share`."
      },
      "depositNFTAsset(uint256,address,address)": {
        "notice": "Deposit an NFT asset"
      },
      "mint(uint256,address,uint256)": {
        "notice": "The `owner` can mint tokens. If a fixed supply is needed, the `owner` should mint the totalSupply and renounce ownership."
      },
      "permitToken(address,address,address,uint256,uint256,uint8,bytes32,bytes32)": {
        "notice": "Call wrapper that performs `ERC20.permit` on `token`. Lookup `IERC20.permit`."
      },
      "transfer(address,address,uint256,uint256)": {
        "notice": "Transfer shares from a user account to another one."
      },
      "transferMultiple(address,address[],uint256,uint256[])": {
        "notice": "Transfer shares from a user account to multiple other ones."
      },
      "transferOwnership(uint256,address,bool,bool)": {
        "notice": "Transfers ownership to `newOwner`. Either directly or claimable by the new pending owner. Can only be invoked by the current `owner`."
      },
      "withdraw(uint256,address,address,uint256,uint256)": {
        "notice": "Withdraws an amount of `token` from a user account."
      }
    },
    "notice": "The YieldBox is a vault for tokens. The stored tokens can assigned to strategies. Yield from this will go to the token depositors. Any funds transfered directly onto the YieldBox will be lost, use the deposit function instead.",
    "version": 1
  },
  "storageLayout": {
    "storage": [
      {
        "astId": 28857,
        "contract": "yieldbox/contracts/YieldBox.sol:YieldBox",
        "label": "isApprovedForAll",
        "offset": 0,
        "slot": "0",
        "type": "t_mapping(t_address,t_mapping(t_address,t_bool))"
      },
      {
        "astId": 28864,
        "contract": "yieldbox/contracts/YieldBox.sol:YieldBox",
        "label": "balanceOf",
        "offset": 0,
        "slot": "1",
        "type": "t_mapping(t_address,t_mapping(t_uint256,t_uint256))"
      },
      {
        "astId": 28868,
        "contract": "yieldbox/contracts/YieldBox.sol:YieldBox",
        "label": "totalSupply",
        "offset": 0,
        "slot": "2",
        "type": "t_mapping(t_uint256,t_uint256)"
      },
      {
        "astId": 28512,
        "contract": "yieldbox/contracts/YieldBox.sol:YieldBox",
        "label": "ids",
        "offset": 0,
        "slot": "3",
        "type": "t_mapping(t_enum(TokenType)31500,t_mapping(t_address,t_mapping(t_contract(IStrategy)31576,t_mapping(t_uint256,t_uint256))))"
      },
      {
        "astId": 28516,
        "contract": "yieldbox/contracts/YieldBox.sol:YieldBox",
        "label": "assets",
        "offset": 0,
        "slot": "4",
        "type": "t_array(t_struct(Asset)28481_storage)dyn_storage"
      },
      {
        "astId": 29438,
        "contract": "yieldbox/contracts/YieldBox.sol:YieldBox",
        "label": "nativeTokens",
        "offset": 0,
        "slot": "5",
        "type": "t_mapping(t_uint256,t_struct(NativeToken)29427_storage)"
      },
      {
        "astId": 29442,
        "contract": "yieldbox/contracts/YieldBox.sol:YieldBox",
        "label": "owner",
        "offset": 0,
        "slot": "6",
        "type": "t_mapping(t_uint256,t_address)"
      },
      {
        "astId": 29446,
        "contract": "yieldbox/contracts/YieldBox.sol:YieldBox",
        "label": "pendingOwner",
        "offset": 0,
        "slot": "7",
        "type": "t_mapping(t_uint256,t_address)"
      }
    ],
    "types": {
      "t_address": {
        "encoding": "inplace",
        "label": "address",
        "numberOfBytes": "20"
      },
      "t_array(t_struct(Asset)28481_storage)dyn_storage": {
        "base": "t_struct(Asset)28481_storage",
        "encoding": "dynamic_array",
        "label": "struct Asset[]",
        "numberOfBytes": "32"
      },
      "t_bool": {
        "encoding": "inplace",
        "label": "bool",
        "numberOfBytes": "1"
      },
      "t_contract(IStrategy)31576": {
        "encoding": "inplace",
        "label": "contract IStrategy",
        "numberOfBytes": "20"
      },
      "t_enum(TokenType)31500": {
        "encoding": "inplace",
        "label": "enum TokenType",
        "numberOfBytes": "1"
      },
      "t_mapping(t_address,t_bool)": {
        "encoding": "mapping",
        "key": "t_address",
        "label": "mapping(address => bool)",
        "numberOfBytes": "32",
        "value": "t_bool"
      },
      "t_mapping(t_address,t_mapping(t_address,t_bool))": {
        "encoding": "mapping",
        "key": "t_address",
        "label": "mapping(address => mapping(address => bool))",
        "numberOfBytes": "32",
        "value": "t_mapping(t_address,t_bool)"
      },
      "t_mapping(t_address,t_mapping(t_contract(IStrategy)31576,t_mapping(t_uint256,t_uint256)))": {
        "encoding": "mapping",
        "key": "t_address",
        "label": "mapping(address => mapping(contract IStrategy => mapping(uint256 => uint256)))",
        "numberOfBytes": "32",
        "value": "t_mapping(t_contract(IStrategy)31576,t_mapping(t_uint256,t_uint256))"
      },
      "t_mapping(t_address,t_mapping(t_uint256,t_uint256))": {
        "encoding": "mapping",
        "key": "t_address",
        "label": "mapping(address => mapping(uint256 => uint256))",
        "numberOfBytes": "32",
        "value": "t_mapping(t_uint256,t_uint256)"
      },
      "t_mapping(t_contract(IStrategy)31576,t_mapping(t_uint256,t_uint256))": {
        "encoding": "mapping",
        "key": "t_contract(IStrategy)31576",
        "label": "mapping(contract IStrategy => mapping(uint256 => uint256))",
        "numberOfBytes": "32",
        "value": "t_mapping(t_uint256,t_uint256)"
      },
      "t_mapping(t_enum(TokenType)31500,t_mapping(t_address,t_mapping(t_contract(IStrategy)31576,t_mapping(t_uint256,t_uint256))))": {
        "encoding": "mapping",
        "key": "t_enum(TokenType)31500",
        "label": "mapping(enum TokenType => mapping(address => mapping(contract IStrategy => mapping(uint256 => uint256))))",
        "numberOfBytes": "32",
        "value": "t_mapping(t_address,t_mapping(t_contract(IStrategy)31576,t_mapping(t_uint256,t_uint256)))"
      },
      "t_mapping(t_uint256,t_address)": {
        "encoding": "mapping",
        "key": "t_uint256",
        "label": "mapping(uint256 => address)",
        "numberOfBytes": "32",
        "value": "t_address"
      },
      "t_mapping(t_uint256,t_struct(NativeToken)29427_storage)": {
        "encoding": "mapping",
        "key": "t_uint256",
        "label": "mapping(uint256 => struct NativeToken)",
        "numberOfBytes": "32",
        "value": "t_struct(NativeToken)29427_storage"
      },
      "t_mapping(t_uint256,t_uint256)": {
        "encoding": "mapping",
        "key": "t_uint256",
        "label": "mapping(uint256 => uint256)",
        "numberOfBytes": "32",
        "value": "t_uint256"
      },
      "t_string_storage": {
        "encoding": "bytes",
        "label": "string",
        "numberOfBytes": "32"
      },
      "t_struct(Asset)28481_storage": {
        "encoding": "inplace",
        "label": "struct Asset",
        "members": [
          {
            "astId": 28473,
            "contract": "yieldbox/contracts/YieldBox.sol:YieldBox",
            "label": "tokenType",
            "offset": 0,
            "slot": "0",
            "type": "t_enum(TokenType)31500"
          },
          {
            "astId": 28475,
            "contract": "yieldbox/contracts/YieldBox.sol:YieldBox",
            "label": "contractAddress",
            "offset": 1,
            "slot": "0",
            "type": "t_address"
          },
          {
            "astId": 28478,
            "contract": "yieldbox/contracts/YieldBox.sol:YieldBox",
            "label": "strategy",
            "offset": 0,
            "slot": "1",
            "type": "t_contract(IStrategy)31576"
          },
          {
            "astId": 28480,
            "contract": "yieldbox/contracts/YieldBox.sol:YieldBox",
            "label": "tokenId",
            "offset": 0,
            "slot": "2",
            "type": "t_uint256"
          }
        ],
        "numberOfBytes": "96"
      },
      "t_struct(NativeToken)29427_storage": {
        "encoding": "inplace",
        "label": "struct NativeToken",
        "members": [
          {
            "astId": 29420,
            "contract": "yieldbox/contracts/YieldBox.sol:YieldBox",
            "label": "name",
            "offset": 0,
            "slot": "0",
            "type": "t_string_storage"
          },
          {
            "astId": 29422,
            "contract": "yieldbox/contracts/YieldBox.sol:YieldBox",
            "label": "symbol",
            "offset": 0,
            "slot": "1",
            "type": "t_string_storage"
          },
          {
            "astId": 29424,
            "contract": "yieldbox/contracts/YieldBox.sol:YieldBox",
            "label": "decimals",
            "offset": 0,
            "slot": "2",
            "type": "t_uint8"
          },
          {
            "astId": 29426,
            "contract": "yieldbox/contracts/YieldBox.sol:YieldBox",
            "label": "uri",
            "offset": 0,
            "slot": "3",
            "type": "t_string_storage"
          }
        ],
        "numberOfBytes": "128"
      },
      "t_uint256": {
        "encoding": "inplace",
        "label": "uint256",
        "numberOfBytes": "32"
      },
      "t_uint8": {
        "encoding": "inplace",
        "label": "uint8",
        "numberOfBytes": "1"
      }
    }
  }
}