{
  "address": "0xAb1237136f2eC766Ee8F69B2C47bd8FA00a5566E",
  "abi": [
    {
      "inputs": [
        {
          "internalType": "contract IWrappedNative",
          "name": "wrappedNative_",
          "type": "address"
        },
        {
          "internalType": "contract YieldBoxURIBuilder",
          "name": "uriBuilder_",
          "type": "address"
        }
      ],
      "stateMutability": "nonpayable",
      "type": "constructor"
    },
    {
      "inputs": [
        {
          "internalType": "bytes",
          "name": "innerError",
          "type": "bytes"
        }
      ],
      "name": "BatchError",
      "type": "error"
    },
    {
      "anonymous": false,
      "inputs": [
        {
          "indexed": true,
          "internalType": "address",
          "name": "_owner",
          "type": "address"
        },
        {
          "indexed": true,
          "internalType": "address",
          "name": "_operator",
          "type": "address"
        },
        {
          "indexed": false,
          "internalType": "bool",
          "name": "_approved",
          "type": "bool"
        }
      ],
      "name": "ApprovalForAll",
      "type": "event"
    },
    {
      "anonymous": false,
      "inputs": [
        {
          "indexed": true,
          "internalType": "enum TokenType",
          "name": "tokenType",
          "type": "uint8"
        },
        {
          "indexed": true,
          "internalType": "address",
          "name": "contractAddress",
          "type": "address"
        },
        {
          "indexed": false,
          "internalType": "contract IStrategy",
          "name": "strategy",
          "type": "address"
        },
        {
          "indexed": true,
          "internalType": "uint256",
          "name": "tokenId",
          "type": "uint256"
        },
        {
          "indexed": false,
          "internalType": "uint256",
          "name": "assetId",
          "type": "uint256"
        }
      ],
      "name": "AssetRegistered",
      "type": "event"
    },
    {
      "anonymous": false,
      "inputs": [
        {
          "indexed": true,
          "internalType": "address",
          "name": "masterContract",
          "type": "address"
        },
        {
          "indexed": false,
          "internalType": "bytes",
          "name": "data",
          "type": "bytes"
        },
        {
          "indexed": true,
          "internalType": "address",
          "name": "cloneAddress",
          "type": "address"
        }
      ],
      "name": "LogDeploy",
      "type": "event"
    },
    {
      "anonymous": false,
      "inputs": [
        {
          "indexed": true,
          "internalType": "uint256",
          "name": "tokenId",
          "type": "uint256"
        },
        {
          "indexed": true,
          "internalType": "address",
          "name": "previousOwner",
          "type": "address"
        },
        {
          "indexed": true,
          "internalType": "address",
          "name": "newOwner",
          "type": "address"
        }
      ],
      "name": "OwnershipTransferred",
      "type": "event"
    },
    {
      "anonymous": false,
      "inputs": [
        {
          "indexed": true,
          "internalType": "address",
          "name": "creator",
          "type": "address"
        },
        {
          "indexed": false,
          "internalType": "string",
          "name": "name",
          "type": "string"
        },
        {
          "indexed": false,
          "internalType": "string",
          "name": "symbol",
          "type": "string"
        },
        {
          "indexed": false,
          "internalType": "uint8",
          "name": "decimals",
          "type": "uint8"
        },
        {
          "indexed": false,
          "internalType": "uint256",
          "name": "tokenId",
          "type": "uint256"
        }
      ],
      "name": "TokenCreated",
      "type": "event"
    },
    {
      "anonymous": false,
      "inputs": [
        {
          "indexed": true,
          "internalType": "address",
          "name": "_operator",
          "type": "address"
        },
        {
          "indexed": true,
          "internalType": "address",
          "name": "_from",
          "type": "address"
        },
        {
          "indexed": true,
          "internalType": "address",
          "name": "_to",
          "type": "address"
        },
        {
          "indexed": false,
          "internalType": "uint256[]",
          "name": "_ids",
          "type": "uint256[]"
        },
        {
          "indexed": false,
          "internalType": "uint256[]",
          "name": "_values",
          "type": "uint256[]"
        }
      ],
      "name": "TransferBatch",
      "type": "event"
    },
    {
      "anonymous": false,
      "inputs": [
        {
          "indexed": true,
          "internalType": "address",
          "name": "_operator",
          "type": "address"
        },
        {
          "indexed": true,
          "internalType": "address",
          "name": "_from",
          "type": "address"
        },
        {
          "indexed": true,
          "internalType": "address",
          "name": "_to",
          "type": "address"
        },
        {
          "indexed": false,
          "internalType": "uint256",
          "name": "_id",
          "type": "uint256"
        },
        {
          "indexed": false,
          "internalType": "uint256",
          "name": "_value",
          "type": "uint256"
        }
      ],
      "name": "TransferSingle",
      "type": "event"
    },
    {
      "anonymous": false,
      "inputs": [
        {
          "indexed": false,
          "internalType": "string",
          "name": "_value",
          "type": "string"
        },
        {
          "indexed": true,
          "internalType": "uint256",
          "name": "_id",
          "type": "uint256"
        }
      ],
      "name": "URI",
      "type": "event"
    },
    {
      "inputs": [
        {
          "internalType": "address",
          "name": "user",
          "type": "address"
        },
        {
          "internalType": "uint256",
          "name": "assetId",
          "type": "uint256"
        }
      ],
      "name": "amountOf",
      "outputs": [
        {
          "internalType": "uint256",
          "name": "amount",
          "type": "uint256"
        }
      ],
      "stateMutability": "view",
      "type": "function"
    },
    {
      "inputs": [],
      "name": "assetCount",
      "outputs": [
        {
          "internalType": "uint256",
          "name": "",
          "type": "uint256"
        }
      ],
      "stateMutability": "view",
      "type": "function"
    },
    {
      "inputs": [
        {
          "internalType": "uint256",
          "name": "assetId",
          "type": "uint256"
        }
      ],
      "name": "assetTotals",
      "outputs": [
        {
          "internalType": "uint256",
          "name": "totalShare",
          "type": "uint256"
        },
        {
          "internalType": "uint256",
          "name": "totalAmount",
          "type": "uint256"
        }
      ],
      "stateMutability": "view",
      "type": "function"
    },
    {
      "inputs": [
        {
          "internalType": "uint256",
          "name": "",
          "type": "uint256"
        }
      ],
      "name": "assets",
      "outputs": [
        {
          "internalType": "enum TokenType",
          "name": "tokenType",
          "type": "uint8"
        },
        {
          "internalType": "address",
          "name": "contractAddress",
          "type": "address"
        },
        {
          "internalType": "contract IStrategy",
          "name": "strategy",
          "type": "address"
        },
        {
          "internalType": "uint256",
          "name": "tokenId",
          "type": "uint256"
        }
      ],
      "stateMutability": "view",
      "type": "function"
    },
    {
      "inputs": [
        {
          "internalType": "address",
          "name": "",
          "type": "address"
        },
        {
          "internalType": "uint256",
          "name": "",
          "type": "uint256"
        }
      ],
      "name": "balanceOf",
      "outputs": [
        {
          "internalType": "uint256",
          "name": "",
          "type": "uint256"
        }
      ],
      "stateMutability": "view",
      "type": "function"
    },
    {
      "inputs": [
        {
          "internalType": "address[]",
          "name": "owners",
          "type": "address[]"
        },
        {
          "internalType": "uint256[]",
          "name": "ids",
          "type": "uint256[]"
        }
      ],
      "name": "balanceOfBatch",
      "outputs": [
        {
          "internalType": "uint256[]",
          "name": "balances",
          "type": "uint256[]"
        }
      ],
      "stateMutability": "view",
      "type": "function"
    },
    {
      "inputs": [
        {
          "internalType": "bytes[]",
          "name": "calls",
          "type": "bytes[]"
        },
        {
          "internalType": "bool",
          "name": "revertOnFail",
          "type": "bool"
        }
      ],
      "name": "batch",
      "outputs": [],
      "stateMutability": "payable",
      "type": "function"
    },
    {
      "inputs": [
        {
          "internalType": "address",
          "name": "from",
          "type": "address"
        },
        {
          "internalType": "address",
          "name": "to",
          "type": "address"
        },
        {
          "internalType": "uint256[]",
          "name": "assetIds_",
          "type": "uint256[]"
        },
        {
          "internalType": "uint256[]",
          "name": "shares_",
          "type": "uint256[]"
        }
      ],
      "name": "batchTransfer",
      "outputs": [],
      "stateMutability": "nonpayable",
      "type": "function"
    },
    {
      "inputs": [
        {
          "internalType": "uint256",
          "name": "tokenId",
          "type": "uint256"
        },
        {
          "internalType": "address",
          "name": "from",
          "type": "address"
        },
        {
          "internalType": "uint256",
          "name": "amount",
          "type": "uint256"
        }
      ],
      "name": "burn",
      "outputs": [],
      "stateMutability": "nonpayable",
      "type": "function"
    },
    {
      "inputs": [
        {
          "internalType": "uint256",
          "name": "tokenId",
          "type": "uint256"
        }
      ],
      "name": "claimOwnership",
      "outputs": [],
      "stateMutability": "nonpayable",
      "type": "function"
    },
    {
      "inputs": [
        {
          "internalType": "address",
          "name": "",
          "type": "address"
        },
        {
          "internalType": "uint256",
          "name": "",
          "type": "uint256"
        }
      ],
      "name": "clonesOf",
      "outputs": [
        {
          "internalType": "address",
          "name": "",
          "type": "address"
        }
      ],
      "stateMutability": "view",
      "type": "function"
    },
    {
      "inputs": [
        {
          "internalType": "address",
          "name": "masterContract",
          "type": "address"
        }
      ],
      "name": "clonesOfCount",
      "outputs": [
        {
          "internalType": "uint256",
          "name": "cloneCount",
          "type": "uint256"
        }
      ],
      "stateMutability": "view",
      "type": "function"
    },
    {
      "inputs": [
        {
          "internalType": "string",
          "name": "name",
          "type": "string"
        },
        {
          "internalType": "string",
          "name": "symbol",
          "type": "string"
        },
        {
          "internalType": "uint8",
          "name": "decimals",
          "type": "uint8"
        },
        {
          "internalType": "string",
          "name": "uri",
          "type": "string"
        }
      ],
      "name": "createToken",
      "outputs": [
        {
          "internalType": "uint32",
          "name": "tokenId",
          "type": "uint32"
        }
      ],
      "stateMutability": "nonpayable",
      "type": "function"
    },
    {
      "inputs": [
        {
          "internalType": "uint256",
          "name": "assetId",
          "type": "uint256"
        }
      ],
      "name": "decimals",
      "outputs": [
        {
          "internalType": "uint8",
          "name": "",
          "type": "uint8"
        }
      ],
      "stateMutability": "view",
      "type": "function"
    },
    {
      "inputs": [
        {
          "internalType": "address",
          "name": "masterContract",
          "type": "address"
        },
        {
          "internalType": "bytes",
          "name": "data",
          "type": "bytes"
        },
        {
          "internalType": "bool",
          "name": "useCreate2",
          "type": "bool"
        }
      ],
      "name": "deploy",
      "outputs": [
        {
          "internalType": "address",
          "name": "cloneAddress",
          "type": "address"
        }
      ],
      "stateMutability": "payable",
      "type": "function"
    },
    {
      "inputs": [
        {
          "internalType": "enum TokenType",
          "name": "tokenType",
          "type": "uint8"
        },
        {
          "internalType": "address",
          "name": "contractAddress",
          "type": "address"
        },
        {
          "internalType": "contract IStrategy",
          "name": "strategy",
          "type": "address"
        },
        {
          "internalType": "uint256",
          "name": "tokenId",
          "type": "uint256"
        },
        {
          "internalType": "address",
          "name": "from",
          "type": "address"
        },
        {
          "internalType": "address",
          "name": "to",
          "type": "address"
        },
        {
          "internalType": "uint256",
          "name": "amount",
          "type": "uint256"
        },
        {
          "internalType": "uint256",
          "name": "share",
          "type": "uint256"
        }
      ],
      "name": "deposit",
      "outputs": [
        {
          "internalType": "uint256",
          "name": "amountOut",
          "type": "uint256"
        },
        {
          "internalType": "uint256",
          "name": "shareOut",
          "type": "uint256"
        }
      ],
      "stateMutability": "nonpayable",
      "type": "function"
    },
    {
      "inputs": [
        {
          "internalType": "uint256",
          "name": "assetId",
          "type": "uint256"
        },
        {
          "internalType": "address",
          "name": "from",
          "type": "address"
        },
        {
          "internalType": "address",
          "name": "to",
          "type": "address"
        },
        {
          "internalType": "uint256",
          "name": "amount",
          "type": "uint256"
        },
        {
          "internalType": "uint256",
          "name": "share",
          "type": "uint256"
        }
      ],
      "name": "depositAsset",
      "outputs": [
        {
          "internalType": "uint256",
          "name": "amountOut",
          "type": "uint256"
        },
        {
          "internalType": "uint256",
          "name": "shareOut",
          "type": "uint256"
        }
      ],
      "stateMutability": "nonpayable",
      "type": "function"
    },
    {
      "inputs": [
        {
          "internalType": "contract IStrategy",
          "name": "strategy",
          "type": "address"
        },
        {
          "internalType": "address",
          "name": "to",
          "type": "address"
        },
        {
          "internalType": "uint256",
          "name": "amount",
          "type": "uint256"
        }
      ],
      "name": "depositETH",
      "outputs": [
        {
          "internalType": "uint256",
          "name": "amountOut",
          "type": "uint256"
        },
        {
          "internalType": "uint256",
          "name": "shareOut",
          "type": "uint256"
        }
      ],
      "stateMutability": "payable",
      "type": "function"
    },
    {
      "inputs": [
        {
          "internalType": "uint256",
          "name": "assetId",
          "type": "uint256"
        },
        {
          "internalType": "address",
          "name": "to",
          "type": "address"
        },
        {
          "internalType": "uint256",
          "name": "amount",
          "type": "uint256"
        }
      ],
      "name": "depositETHAsset",
      "outputs": [
        {
          "internalType": "uint256",
          "name": "amountOut",
          "type": "uint256"
        },
        {
          "internalType": "uint256",
          "name": "shareOut",
          "type": "uint256"
        }
      ],
      "stateMutability": "payable",
      "type": "function"
    },
    {
      "inputs": [
        {
          "internalType": "uint256",
          "name": "assetId",
          "type": "uint256"
        },
        {
          "internalType": "address",
          "name": "from",
          "type": "address"
        },
        {
          "internalType": "address",
          "name": "to",
          "type": "address"
        }
      ],
      "name": "depositNFTAsset",
      "outputs": [
        {
          "internalType": "uint256",
          "name": "amountOut",
          "type": "uint256"
        },
        {
          "internalType": "uint256",
          "name": "shareOut",
          "type": "uint256"
        }
      ],
      "stateMutability": "nonpayable",
      "type": "function"
    },
    {
      "inputs": [
        {
          "internalType": "enum TokenType",
          "name": "",
          "type": "uint8"
        },
        {
          "internalType": "address",
          "name": "",
          "type": "address"
        },
        {
          "internalType": "contract IStrategy",
          "name": "",
          "type": "address"
        },
        {
          "internalType": "uint256",
          "name": "",
          "type": "uint256"
        }
      ],
      "name": "ids",
      "outputs": [
        {
          "internalType": "uint256",
          "name": "",
          "type": "uint256"
        }
      ],
      "stateMutability": "view",
      "type": "function"
    },
    {
      "inputs": [
        {
          "internalType": "address",
          "name": "",
          "type": "address"
        },
        {
          "internalType": "address",
          "name": "",
          "type": "address"
        }
      ],
      "name": "isApprovedForAll",
      "outputs": [
        {
          "internalType": "bool",
          "name": "",
          "type": "bool"
        }
      ],
      "stateMutability": "view",
      "type": "function"
    },
    {
      "inputs": [
        {
          "internalType": "address",
          "name": "",
          "type": "address"
        }
      ],
      "name": "masterContractOf",
      "outputs": [
        {
          "internalType": "address",
          "name": "",
          "type": "address"
        }
      ],
      "stateMutability": "view",
      "type": "function"
    },
    {
      "inputs": [
        {
          "internalType": "uint256",
          "name": "tokenId",
          "type": "uint256"
        },
        {
          "internalType": "address",
          "name": "to",
          "type": "address"
        },
        {
          "internalType": "uint256",
          "name": "amount",
          "type": "uint256"
        }
      ],
      "name": "mint",
      "outputs": [],
      "stateMutability": "nonpayable",
      "type": "function"
    },
    {
      "inputs": [
        {
          "internalType": "uint256",
          "name": "assetId",
          "type": "uint256"
        }
      ],
      "name": "name",
      "outputs": [
        {
          "internalType": "string",
          "name": "",
          "type": "string"
        }
      ],
      "stateMutability": "view",
      "type": "function"
    },
    {
      "inputs": [
        {
          "internalType": "uint256",
          "name": "",
          "type": "uint256"
        }
      ],
      "name": "nativeTokens",
      "outputs": [
        {
          "internalType": "string",
          "name": "name",
          "type": "string"
        },
        {
          "internalType": "string",
          "name": "symbol",
          "type": "string"
        },
        {
          "internalType": "uint8",
          "name": "decimals",
          "type": "uint8"
        },
        {
          "internalType": "string",
          "name": "uri",
          "type": "string"
        }
      ],
      "stateMutability": "view",
      "type": "function"
    },
    {
      "inputs": [
        {
          "internalType": "address",
          "name": "",
          "type": "address"
        },
        {
          "internalType": "address",
          "name": "",
          "type": "address"
        },
        {
          "internalType": "uint256[]",
          "name": "",
          "type": "uint256[]"
        },
        {
          "internalType": "uint256[]",
          "name": "",
          "type": "uint256[]"
        },
        {
          "internalType": "bytes",
          "name": "",
          "type": "bytes"
        }
      ],
      "name": "onERC1155BatchReceived",
      "outputs": [
        {
          "internalType": "bytes4",
          "name": "",
          "type": "bytes4"
        }
      ],
      "stateMutability": "pure",
      "type": "function"
    },
    {
      "inputs": [
        {
          "internalType": "address",
          "name": "",
          "type": "address"
        },
        {
          "internalType": "address",
          "name": "",
          "type": "address"
        },
        {
          "internalType": "uint256",
          "name": "",
          "type": "uint256"
        },
        {
          "internalType": "uint256",
          "name": "",
          "type": "uint256"
        },
        {
          "internalType": "bytes",
          "name": "",
          "type": "bytes"
        }
      ],
      "name": "onERC1155Received",
      "outputs": [
        {
          "internalType": "bytes4",
          "name": "",
          "type": "bytes4"
        }
      ],
      "stateMutability": "pure",
      "type": "function"
    },
    {
      "inputs": [
        {
          "internalType": "uint256",
          "name": "",
          "type": "uint256"
        }
      ],
      "name": "owner",
      "outputs": [
        {
          "internalType": "address",
          "name": "",
          "type": "address"
        }
      ],
      "stateMutability": "view",
      "type": "function"
    },
    {
      "inputs": [
        {
          "internalType": "uint256",
          "name": "",
          "type": "uint256"
        }
      ],
      "name": "pendingOwner",
      "outputs": [
        {
          "internalType": "address",
          "name": "",
          "type": "address"
        }
      ],
      "stateMutability": "view",
      "type": "function"
    },
    {
      "inputs": [
        {
          "internalType": "contract IERC20",
          "name": "token",
          "type": "address"
        },
        {
          "internalType": "address",
          "name": "from",
          "type": "address"
        },
        {
          "internalType": "address",
          "name": "to",
          "type": "address"
        },
        {
          "internalType": "uint256",
          "name": "amount",
          "type": "uint256"
        },
        {
          "internalType": "uint256",
          "name": "deadline",
          "type": "uint256"
        },
        {
          "internalType": "uint8",
          "name": "v",
          "type": "uint8"
        },
        {
          "internalType": "bytes32",
          "name": "r",
          "type": "bytes32"
        },
        {
          "internalType": "bytes32",
          "name": "s",
          "type": "bytes32"
        }
      ],
      "name": "permitToken",
      "outputs": [],
      "stateMutability": "nonpayable",
      "type": "function"
    },
    {
      "inputs": [
        {
          "internalType": "enum TokenType",
          "name": "tokenType",
          "type": "uint8"
        },
        {
          "internalType": "address",
          "name": "contractAddress",
          "type": "address"
        },
        {
          "internalType": "contract IStrategy",
          "name": "strategy",
          "type": "address"
        },
        {
          "internalType": "uint256",
          "name": "tokenId",
          "type": "uint256"
        }
      ],
      "name": "registerAsset",
      "outputs": [
        {
          "internalType": "uint256",
          "name": "assetId",
          "type": "uint256"
        }
      ],
      "stateMutability": "nonpayable",
      "type": "function"
    },
    {
      "inputs": [
        {
          "internalType": "address",
          "name": "from",
          "type": "address"
        },
        {
          "internalType": "address",
          "name": "to",
          "type": "address"
        },
        {
          "internalType": "uint256[]",
          "name": "ids",
          "type": "uint256[]"
        },
        {
          "internalType": "uint256[]",
          "name": "values",
          "type": "uint256[]"
        },
        {
          "internalType": "bytes",
          "name": "data",
          "type": "bytes"
        }
      ],
      "name": "safeBatchTransferFrom",
      "outputs": [],
      "stateMutability": "nonpayable",
      "type": "function"
    },
    {
      "inputs": [
        {
          "internalType": "address",
          "name": "from",
          "type": "address"
        },
        {
          "internalType": "address",
          "name": "to",
          "type": "address"
        },
        {
          "internalType": "uint256",
          "name": "id",
          "type": "uint256"
        },
        {
          "internalType": "uint256",
          "name": "value",
          "type": "uint256"
        },
        {
          "internalType": "bytes",
          "name": "data",
          "type": "bytes"
        }
      ],
      "name": "safeTransferFrom",
      "outputs": [],
      "stateMutability": "nonpayable",
      "type": "function"
    },
    {
      "inputs": [
        {
          "internalType": "address",
          "name": "operator",
          "type": "address"
        },
        {
          "internalType": "bool",
          "name": "approved",
          "type": "bool"
        }
      ],
      "name": "setApprovalForAll",
      "outputs": [],
      "stateMutability": "nonpayable",
      "type": "function"
    },
    {
      "inputs": [
        {
          "internalType": "bytes4",
          "name": "interfaceID",
          "type": "bytes4"
        }
      ],
      "name": "supportsInterface",
      "outputs": [
        {
          "internalType": "bool",
          "name": "",
          "type": "bool"
        }
      ],
      "stateMutability": "pure",
      "type": "function"
    },
    {
      "inputs": [
        {
          "internalType": "uint256",
          "name": "assetId",
          "type": "uint256"
        }
      ],
      "name": "symbol",
      "outputs": [
        {
          "internalType": "string",
          "name": "",
          "type": "string"
        }
      ],
      "stateMutability": "view",
      "type": "function"
    },
    {
      "inputs": [
        {
          "internalType": "uint256",
          "name": "assetId",
          "type": "uint256"
        },
        {
          "internalType": "uint256",
          "name": "share",
          "type": "uint256"
        },
        {
          "internalType": "bool",
          "name": "roundUp",
          "type": "bool"
        }
      ],
      "name": "toAmount",
      "outputs": [
        {
          "internalType": "uint256",
          "name": "amount",
          "type": "uint256"
        }
      ],
      "stateMutability": "view",
      "type": "function"
    },
    {
      "inputs": [
        {
          "internalType": "uint256",
          "name": "assetId",
          "type": "uint256"
        },
        {
          "internalType": "uint256",
          "name": "amount",
          "type": "uint256"
        },
        {
          "internalType": "bool",
          "name": "roundUp",
          "type": "bool"
        }
      ],
      "name": "toShare",
      "outputs": [
        {
          "internalType": "uint256",
          "name": "share",
          "type": "uint256"
        }
      ],
      "stateMutability": "view",
      "type": "function"
    },
    {
      "inputs": [
        {
          "internalType": "uint256",
          "name": "",
          "type": "uint256"
        }
      ],
      "name": "totalSupply",
      "outputs": [
        {
          "internalType": "uint256",
          "name": "",
          "type": "uint256"
        }
      ],
      "stateMutability": "view",
      "type": "function"
    },
    {
      "inputs": [
        {
          "internalType": "address",
          "name": "from",
          "type": "address"
        },
        {
          "internalType": "address",
          "name": "to",
          "type": "address"
        },
        {
          "internalType": "uint256",
          "name": "assetId",
          "type": "uint256"
        },
        {
          "internalType": "uint256",
          "name": "share",
          "type": "uint256"
        }
      ],
      "name": "transfer",
      "outputs": [],
      "stateMutability": "nonpayable",
      "type": "function"
    },
    {
      "inputs": [
        {
          "internalType": "address",
          "name": "from",
          "type": "address"
        },
        {
          "internalType": "address[]",
          "name": "tos",
          "type": "address[]"
        },
        {
          "internalType": "uint256",
          "name": "assetId",
          "type": "uint256"
        },
        {
          "internalType": "uint256[]",
          "name": "shares",
          "type": "uint256[]"
        }
      ],
      "name": "transferMultiple",
      "outputs": [],
      "stateMutability": "nonpayable",
      "type": "function"
    },
    {
      "inputs": [
        {
          "internalType": "uint256",
          "name": "tokenId",
          "type": "uint256"
        },
        {
          "internalType": "address",
          "name": "newOwner",
          "type": "address"
        },
        {
          "internalType": "bool",
          "name": "direct",
          "type": "bool"
        },
        {
          "internalType": "bool",
          "name": "renounce",
          "type": "bool"
        }
      ],
      "name": "transferOwnership",
      "outputs": [],
      "stateMutability": "nonpayable",
      "type": "function"
    },
    {
      "inputs": [
        {
          "internalType": "uint256",
          "name": "assetId",
          "type": "uint256"
        }
      ],
      "name": "uri",
      "outputs": [
        {
          "internalType": "string",
          "name": "",
          "type": "string"
        }
      ],
      "stateMutability": "view",
      "type": "function"
    },
    {
      "inputs": [],
      "name": "uriBuilder",
      "outputs": [
        {
          "internalType": "contract YieldBoxURIBuilder",
          "name": "",
          "type": "address"
        }
      ],
      "stateMutability": "view",
      "type": "function"
    },
    {
      "inputs": [
        {
          "internalType": "uint256",
          "name": "assetId",
          "type": "uint256"
        },
        {
          "internalType": "address",
          "name": "from",
          "type": "address"
        },
        {
          "internalType": "address",
          "name": "to",
          "type": "address"
        },
        {
          "internalType": "uint256",
          "name": "amount",
          "type": "uint256"
        },
        {
          "internalType": "uint256",
          "name": "share",
          "type": "uint256"
        }
      ],
      "name": "withdraw",
      "outputs": [
        {
          "internalType": "uint256",
          "name": "amountOut",
          "type": "uint256"
        },
        {
          "internalType": "uint256",
          "name": "shareOut",
          "type": "uint256"
        }
      ],
      "stateMutability": "nonpayable",
      "type": "function"
    },
    {
      "inputs": [],
      "name": "wrappedNative",
      "outputs": [
        {
          "internalType": "contract IWrappedNative",
          "name": "",
          "type": "address"
        }
      ],
      "stateMutability": "view",
      "type": "function"
    },
    {
      "stateMutability": "payable",
      "type": "receive"
    }
  ],
  "transactionHash": "0xce1d8bc13ff4e4cc1b429f5011828b6e90181431fb18c141e96a60575d5daf79",
  "args": [
    "0x0000000000000000000000000000000000000000",
    "0xB0a3DCfea4D6cD7175E8EFd6fdDE6038D732f3f0"
  ],
  "numDeployments": 1,
  "solcInputHash": "00159a693e7dec675ccf3b4367e7c901",
  "bytecode": "0x60c06040523480156200001157600080fd5b50604051620056183803806200561883398101604081905262000034916200012f565b6040805160808101825260048082526000602083018190529282018390526060820183905280546001808201835593829052825160039091027f8a35acfbc15ff81a39ae7d344fd709f28e8600b4aa8c65c6b64bfe7fe36bd19b018054939490939192849260ff191691908490811115620000b357620000b36200016e565b021790555060208201518154610100600160a81b0319166101006001600160a01b039283160217825560408301516001830180546001600160a01b0319169183169190911790556060909201516002909101559182166080521660a05262000184565b6001600160a01b03811681146200012c57600080fd5b50565b600080604083850312156200014357600080fd5b8251620001508162000116565b6020840151909250620001638162000116565b809150509250929050565b634e487b7160e01b600052602160045260246000fd5b60805160a051615428620001f0600039600081816109e501528181610a0b01528181610bfe0152818161169401526119c901526000818161092e01528181611d7201528181611e2601528181611ebf015281816124a5015281816124f20152612e0f01526154286000f3fe60806040526004361061028a5760003560e01c8063836a10401161015a578063bd85b039116100c1578063eafe7a741161007a578063eafe7a7414610907578063eb6d3a111461091c578063f23a6e6114610950578063f242432a1461097d578063fba96be81461099d578063fd330d43146109d357600080fd5b8063bd85b0391461081f578063ce7f27141461084c578063cf35bdd01461086c578063d2423b511461089c578063daf210b1146108af578063e985e9c5146108cf57600080fd5b8063a123c33e11610113578063a123c33e14610718578063a22cb4651461074e578063a3823ac01461076e578063b061db9414610781578063bafe4f14146107a1578063bc197c81146107d757600080fd5b8063836a1040146106585780638d2e63b8146106785780638eb22cdd146106985780638fd43654146106b85780639a9af97a146106d85780639eea5f66146106f857600080fd5b80632eb2c2d6116101fe57806354317d16116101b757806354317d16146105a55780635ba4d64e146105c55780636cd57031146105e557806370400fbe1461060557806375338079146106185780637c516e941461063857600080fd5b80632eb2c2d6146104b15780633f47e662146104d1578063442c1599146105035780634956d158146105235780634e1273f4146105585780634e41a1fb1461058557600080fd5b80631f0ee4c3116102505780631f0ee4c3146103845780631f54245b146103b4578063215b595a146103df5780632482ee27146103ff5780632b800e3b146104345780632d4e1d521461046a57600080fd5b8062ad800c14610296578062fdd58e146102cc57806301ffc9a7146103125780630411b252146103425780630e89341c1461036457600080fd5b3661029157005b600080fd5b3480156102a257600080fd5b506102b66102b136600461432a565b610a07565b6040516102c3919061439b565b60405180910390f35b3480156102d857600080fd5b506103046102e73660046143c6565b600160209081526000928352604080842090915290825290205481565b6040519081526020016102c3565b34801561031e57600080fd5b5061033261032d366004614408565b610ae6565b60405190151581526020016102c3565b34801561034e57600080fd5b5061036261035d366004614425565b610b34565b005b34801561037057600080fd5b506102b661037f36600461432a565b610bfa565b34801561039057600080fd5b506103a461039f36600461432a565b610c9c565b6040516102c3949392919061446b565b6103c76103c236600461450e565b610e65565b6040516001600160a01b0390911681526020016102c3565b3480156103eb57600080fd5b506103626103fa3660046145b9565b611075565b34801561040b57600080fd5b5061041f61041a366004614653565b6112f8565b60405163ffffffff90911681526020016102c3565b34801561044057600080fd5b506103c761044f36600461432a565b6009602052600090815260409020546001600160a01b031681565b34801561047657600080fd5b5061030461048536600461470e565b600360209081526000948552604080862082529385528385208152918452828420909152825290205481565b3480156104bd57600080fd5b506103626104cc36600461475f565b61153b565b3480156104dd57600080fd5b506104f16104ec36600461432a565b611690565b60405160ff90911681526020016102c3565b34801561050f57600080fd5b5061030461051e36600461481d565b61176c565b34801561052f57600080fd5b5061054361053e36600461432a565b611849565b604080519283526020830191909152016102c3565b34801561056457600080fd5b50610578610573366004614856565b61187b565b6040516102c391906148c1565b34801561059157600080fd5b506102b66105a036600461432a565b6119c5565b3480156105b157600080fd5b506103046105c03660046143c6565b611a4a565b3480156105d157600080fd5b506103626105e0366004614905565b611b50565b3480156105f157600080fd5b5061054361060036600461494d565b611cca565b6105436106133660046149d9565b611d24565b34801561062457600080fd5b50610543610633366004614a11565b611f69565b34801561064457600080fd5b50610362610653366004614a48565b6121ce565b34801561066457600080fd5b506103626106733660046149d9565b612260565b34801561068457600080fd5b50610543610693366004614aae565b6122d9565b3480156106a457600080fd5b506103046106b336600461481d565b6126d8565b3480156106c457600080fd5b506103c76106d33660046143c6565b612798565b3480156106e457600080fd5b506105436106f3366004614aae565b6127d0565b34801561070457600080fd5b506103626107133660046149d9565b612b55565b34801561072457600080fd5b506103c761073336600461432a565b6008602052600090815260409020546001600160a01b031681565b34801561075a57600080fd5b50610362610769366004614b00565b612c83565b61054361077c366004614b39565b612e02565b34801561078d57600080fd5b5061030461079c36600461470e565b612e49565b3480156107ad57600080fd5b506103c76107bc366004614b69565b6005602052600090815260409020546001600160a01b031681565b3480156107e357600080fd5b506108066107f236600461475f565b63bc197c8160e01b98975050505050505050565b6040516001600160e01b031990911681526020016102c3565b34801561082b57600080fd5b5061030461083a36600461432a565b60026020526000908152604090205481565b34801561085857600080fd5b5061036261086736600461432a565b612ef9565b34801561087857600080fd5b5061088c61088736600461432a565b612fe5565b6040516102c39493929190614bbe565b6103626108aa366004614bf3565b61302f565b3480156108bb57600080fd5b506103626108ca366004614c3e565b6130e3565b3480156108db57600080fd5b506103326108ea366004614cb3565b600060208181529281526040808220909352908152205460ff1681565b34801561091357600080fd5b50600454610304565b34801561092857600080fd5b506103c77f000000000000000000000000000000000000000000000000000000000000000081565b34801561095c57600080fd5b5061080661096b366004614ce1565b63f23a6e6160e01b9695505050505050565b34801561098957600080fd5b50610362610998366004614ce1565b6131a4565b3480156109a957600080fd5b506103046109b8366004614b69565b6001600160a01b031660009081526006602052604090205490565b3480156109df57600080fd5b506103c77f000000000000000000000000000000000000000000000000000000000000000081565b60607f00000000000000000000000000000000000000000000000000000000000000006001600160a01b031663aa1163b960048481548110610a4b57610a4b614d4a565b9060005260206000209060030201600760008681526020019081526020016000206000016040518363ffffffff1660e01b8152600401610a8c929190614e75565b60006040518083038186803b158015610aa457600080fd5b505afa158015610ab8573d6000803e3d6000fd5b505050506040513d6000823e601f3d908101601f19168201604052610ae09190810190614eab565b92915050565b60006001600160e01b031982166301ffc9a760e01b1480610b175750636cdb3d1360e11b6001600160e01b03198316145b80610ae05750506001600160e01b0319166303a24d0760e21b1490565b836001600160a01b0381163314801590610b7057506001600160a01b03811660009081526020818152604080832033845290915290205460ff16155b15610be757336000908152600560205260409020546001600160a01b03168015801590610bc057506001600160a01b038083166000908152602081815260408083209385168352929052205460ff165b610be55760405162461bcd60e51b8152600401610bdc90614f4c565b60405180910390fd5b505b610bf3858585856132a7565b5050505050565b60607f00000000000000000000000000000000000000000000000000000000000000006001600160a01b0316635c6d843560048481548110610c3e57610c3e614d4a565b6000918252602080832087845260078252604080852060028452818620546008909452948190205490516001600160e01b031960e088901b168152610a8c9560039095029092019392916001600160a01b0390911690600401614f7c565b600760205260009081526040902080548190610cb790614d99565b80601f0160208091040260200160405190810160405280929190818152602001828054610ce390614d99565b8015610d305780601f10610d0557610100808354040283529160200191610d30565b820191906000526020600020905b815481529060010190602001808311610d1357829003601f168201915b505050505090806001018054610d4590614d99565b80601f0160208091040260200160405190810160405280929190818152602001828054610d7190614d99565b8015610dbe5780601f10610d9357610100808354040283529160200191610dbe565b820191906000526020600020905b815481529060010190602001808311610da157829003601f168201915b5050506002840154600385018054949560ff909216949193509150610de290614d99565b80601f0160208091040260200160405190810160405280929190818152602001828054610e0e90614d99565b8015610e5b5780601f10610e3057610100808354040283529160200191610e5b565b820191906000526020600020905b815481529060010190602001808311610e3e57829003601f168201915b5050505050905084565b60006001600160a01b038516610ebd5760405162461bcd60e51b815260206004820181905260248201527f426f72696e67466163746f72793a204e6f206d6173746572436f6e74726163746044820152606401610bdc565b606085901b8215610f2f5760008585604051610eda92919061500a565b60405180910390209050604051733d602d80600a3d3981f3363d3d373d3d3d363d7360601b81528260148201526e5af43d82803e903d91602b57fd5bf360881b6028820152816037826000f593505050610f74565b604051733d602d80600a3d3981f3363d3d373d3d3d363d7360601b81528160148201526e5af43d82803e903d91602b57fd5bf360881b60288201526037816000f09250505b6001600160a01b0380831660008181526005602090815260408083208054958c166001600160a01b0319968716811790915583526006825280832080546001810182559084529190922001805490931682179092559051631377d1f560e21b8152634ddf47d4903490610fed9089908990600401615043565b6000604051808303818588803b15801561100657600080fd5b505af115801561101a573d6000803e3d6000fd5b5050505050816001600160a01b0316866001600160a01b03167fd62166f3c2149208e51788b1401cc356bf5da1fc6c7886a32e18570f57d88b3b8787604051611064929190615043565b60405180910390a350949350505050565b856001600160a01b03811633148015906110b157506001600160a01b03811660009081526020818152604080832033845290915290205460ff16155b1561111f57336000908152600560205260409020546001600160a01b0316801580159061110157506001600160a01b038083166000908152602081815260408083209385168352929052205460ff165b61111d5760405162461bcd60e51b8152600401610bdc90614f4c565b505b8460005b818110156111b457600088888381811061113f5761113f614d4a565b90506020020160208101906111549190614b69565b6001600160a01b031614156111a25760405162461bcd60e51b8152602060048201526014602482015273165a595b19109bde0e881d1bc81b9bdd081cd95d60621b6044820152606401610bdc565b806111ac8161506d565b915050611123565b506000805b828110156112b45760008989838181106111d5576111d5614d4a565b90506020020160208101906111ea9190614b69565b9050600087878481811061120057611200614d4a565b6001600160a01b03851660009081526001602090815260408083208f84528252822080549390910294909401359450849392509061123f908490615088565b9091555061124f90508185615088565b9350816001600160a01b03168c6001600160a01b0316336001600160a01b03166000805160206153d38339815191528c85604051611297929190918252602082015260400190565b60405180910390a4505080806112ac9061506d565b9150506111b9565b506001600160a01b0389166000908152600160209081526040808320898452909152812080548392906112e89084906150a0565b9091555050505050505050505050565b6004546000906113079061337c565b905061131d60008060008463ffffffff166133d6565b50604051806080016040528089898080601f016020809104026020016040519081016040528093929190818152602001838380828437600092019190915250505090825250604080516020601f8a018190048102820181019092528881529181019190899089908190840183828082843760009201919091525050509082525060ff861660208083019190915260408051601f87018390048302810183018252868152920191908690869081908401838280828437600092018290525093909452505063ffffffff841681526007602090815260409091208351805191935061140a92849291019061429a565b506020828101518051611423926001850192019061429a565b50604082015160028201805460ff191660ff9092169190911790556060820151805161145991600384019160209091019061429a565b50505063ffffffff81166000908152600860205260409081902080546001600160a01b0319163390811790915590517f0b0bcdebd2813328a89a9ed5971e5863201ed78fc4e0e2b271cceddb9ce90510906114bf908b908b908b908b908b9089906150b7565b60405180910390a26040805163ffffffff8316815260006020820181905291829133916000805160206153d3833981519152910160405180910390a4604051339060009063ffffffff8416907f16b85f49bf01212961345d3016c9a531894accf62eb7680f2045d79185cc0ec0908390a4979650505050505050565b8483146115855760405162461bcd60e51b815260206004820152601860248201527708aa48662626a6a744098cadccee8d040dad2e6dac2e8c6d60431b6044820152606401610bdc565b61158e88613906565b61159c8888888888886139b4565b6001600160a01b0387163b156116865760405163bc197c8160e01b808252906001600160a01b0389169063bc197c81906115e89033908d908c908c908c908c908c908c90600401615137565b602060405180830381600087803b15801561160257600080fd5b505af1158015611616573d6000803e3d6000fd5b505050506040513d601f19601f8201168201806040525081019061163a919061519b565b6001600160e01b031916146116865760405162461bcd60e51b815260206004820152601260248201527157726f6e672072657475726e2076616c756560701b6044820152606401610bdc565b5050505050505050565b60007f00000000000000000000000000000000000000000000000000000000000000006001600160a01b0316636d7cd037600484815481106116d4576116d4614d4a565b6000918252602080832087845260079091526040928390206002015492516001600160e01b031960e086901b16815261171c9360039093029091019160ff16906004016151b8565b60206040518083038186803b15801561173457600080fd5b505afa158015611748573d6000803e3d6000fd5b505050506040513d601f19601f82011682018060405250810190610ae091906151d6565b6000806004858154811061178257611782614d4a565b600091825260209091206003909102015460ff1660048111156117a7576117a7614b86565b14806117ea57506002600485815481106117c3576117c3614d4a565b600091825260209091206003909102015460ff1660048111156117e8576117e8614b86565b145b156117f6575081611842565b61183f60026000868152602001908152602001600020546118366004878154811061182357611823614d4a565b9060005260206000209060030201613b0d565b85919085613c33565b90505b9392505050565b6000818152600260205260408120546004805491929161187491908590811061182357611823614d4a565b9050915091565b6060838281146118c85760405162461bcd60e51b815260206004820152601860248201527708aa48662626a6a744098cadccee8d040dad2e6dac2e8c6d60431b6044820152606401610bdc565b806001600160401b038111156118e0576118e0614e95565b604051908082528060200260200182016040528015611909578160200160208202803683370190505b50915060005b818110156119bb576001600088888481811061192d5761192d614d4a565b90506020020160208101906119429190614b69565b6001600160a01b03166001600160a01b03168152602001908152602001600020600086868481811061197657611976614d4a565b9050602002013581526020019081526020016000205483828151811061199e5761199e614d4a565b6020908102919091010152806119b38161506d565b91505061190f565b5050949350505050565b60607f00000000000000000000000000000000000000000000000000000000000000006001600160a01b03166384b1017d60048481548110611a0957611a09614d4a565b9060005260206000209060030201600760008681526020019081526020016000206001016040518363ffffffff1660e01b8152600401610a8c929190614e75565b60008060048381548110611a6057611a60614d4a565b600091825260209091206003909102015460ff166004811115611a8557611a85614b86565b1480611ac85750600260048381548110611aa157611aa1614d4a565b600091825260209091206003909102015460ff166004811115611ac657611ac6614b86565b145b15611af757506001600160a01b0382166000908152600160209081526040808320848452909152902054610ae0565b6118426002600084815260200190815260200160002054611b246004858154811061182357611823614d4a565b6001600160a01b0386166000908152600160209081526040808320888452909152812054929190613c33565b60008481526008602052604090205484906001600160a01b03163314611bb85760405162461bcd60e51b815260206004820152601c60248201527f4e54463a2063616c6c6572206973206e6f7420746865206f776e6572000000006044820152606401610bdc565b8215611c9a576001600160a01b038416151580611bd25750815b611c125760405162461bcd60e51b81526020600482015260116024820152704e54463a207a65726f206164647265737360781b6044820152606401610bdc565b6000858152600860205260408082205490516001600160a01b038088169392169188917f16b85f49bf01212961345d3016c9a531894accf62eb7680f2045d79185cc0ec09190a4600085815260086020908152604080832080546001600160a01b0389166001600160a01b031991821617909155600990925290912080549091169055610bf3565b600085815260096020526040902080546001600160a01b0386166001600160a01b03199091161790555050505050565b600080808a6004811115611ce057611ce0614b86565b1415611d0857611cff611cf66003308b8b612e49565b878787876127d0565b91509150611d17565b611cff611cf68b8b8b8b612e49565b9850989650505050505050565b600080600060048681548110611d3c57611d3c614d4a565b6000918252602090912060039091020190506001815460ff166004811115611d6657611d66614b86565b148015611da5575080547f00000000000000000000000000000000000000000000000000000000000000006001600160a01b0390811661010090920416145b611df15760405162461bcd60e51b815260206004820152601b60248201527f5969656c64426f783a206e6f7420777261707065644e617469766500000000006044820152606401610bdc565b600086815260026020526040812054611e1790611e0d84613b0d565b8791906000613ca3565b9050611e24868883613cee565b7f00000000000000000000000000000000000000000000000000000000000000006001600160a01b031663d0e30db0866040518263ffffffff1660e01b81526004016000604051808303818588803b158015611e7f57600080fd5b505af1158015611e93573d6000803e3d6000fd5b5050505060018301546001600160a01b0316159050611ee8576001820154611ee8906001600160a01b037f00000000000000000000000000000000000000000000000000000000000000008116911687613dac565b60018201546001600160a01b031615611f5c5760018201546040516357d48e6360e11b8152600481018790526001600160a01b039091169063afa91cc690602401600060405180830381600087803b158015611f4357600080fd5b505af1158015611f57573d6000803e3d6000fd5b505050505b9396939550929350505050565b600080836001600160a01b0381163314801590611fa857506001600160a01b03811660009081526020818152604080832033845290915290205460ff16155b1561201657336000908152600560205260409020546001600160a01b03168015801590611ff857506001600160a01b038083166000908152602081815260408083209385168352929052205460ff165b6120145760405162461bcd60e51b8152600401610bdc90614f4c565b505b60006004878154811061202b5761202b614d4a565b6000918252602090912060039091020190506002815460ff16600481111561205557612055614b86565b146120995760405162461bcd60e51b81526020600482015260146024820152735969656c64426f783a206e6f742045524337323160601b6044820152606401610bdc565b6120a585886001613cee565b60018101546000906001600160a01b0316156120ce5760018201546001600160a01b03166120d0565b305b82546002840154604051632142170760e11b81526001600160a01b038b811660048301528085166024830152604482019290925292935061010090910416906342842e0e90606401600060405180830381600087803b15801561213257600080fd5b505af1158015612146573d6000803e3d6000fd5b5050505060018201546001600160a01b0316156121be576001828101546040516357d48e6360e11b815260048101929092526001600160a01b03169063afa91cc690602401600060405180830381600087803b1580156121a557600080fd5b505af11580156121b9573d6000803e3d6000fd5b505050505b5060019788975095505050505050565b60405163d505accf60e01b81526001600160a01b0388811660048301528781166024830152604482018790526064820186905260ff8516608483015260a4820184905260c4820183905289169063d505accf9060e401600060405180830381600087803b15801561223e57600080fd5b505af1158015612252573d6000803e3d6000fd5b505050505050505050505050565b60008381526008602052604090205483906001600160a01b031633146122c85760405162461bcd60e51b815260206004820152601c60248201527f4e54463a2063616c6c6572206973206e6f7420746865206f776e6572000000006044820152606401610bdc565b6122d3838584613cee565b50505050565b600080856001600160a01b038116331480159061231857506001600160a01b03811660009081526020818152604080832033845290915290205460ff16155b1561238657336000908152600560205260409020546001600160a01b0316801580159061236857506001600160a01b038083166000908152602081815260408083209385168352929052205460ff165b6123845760405162461bcd60e51b8152600401610bdc90614f4c565b505b60006004898154811061239b5761239b614d4a565b6000918252602082206003909102019150815460ff1660048111156123c2576123c2614b86565b14156124105760405162461bcd60e51b815260206004820152601f60248201527f5969656c64426f783a2063616e2774207769746864726177204e6174697665006044820152606401610bdc565b600061241b82613b0d565b9050856124465760008a81526002602052604090205461243f908890836001613ca3565b9550612466565b60008a815260026020526040812054612463918891908490613c33565b96505b612471898b88613ec0565b60018201546001600160a01b031661265f576001825460ff16600481111561249b5761249b614b86565b141561258a5781547f00000000000000000000000000000000000000000000000000000000000000006001600160a01b0390811661010090920416141561256f57604051632e1a7d4d60e01b8152600481018890527f00000000000000000000000000000000000000000000000000000000000000006001600160a01b031690632e1a7d4d90602401600060405180830381600087803b15801561253e57600080fd5b505af1158015612552573d6000803e3d6000fd5b5061256a925050506001600160a01b03891688613f75565b6126c8565b815461256a9061010090046001600160a01b03168989613dac565b6002825460ff1660048111156125a2576125a2614b86565b14156126235781546002830154604051632142170760e11b81523060048201526001600160a01b038b81166024830152604482019290925261010090920416906342842e0e906064015b600060405180830381600087803b15801561260657600080fd5b505af115801561261a573d6000803e3d6000fd5b505050506126c8565b81546002830154604051637921219560e11b81526101009092046001600160a01b03169163f242432a916125ec9130918d918d906004016151f3565b600182015460405163f3fef3a360e01b81526001600160a01b038a81166004830152602482018a90529091169063f3fef3a390604401600060405180830381600087803b1580156126af57600080fd5b505af11580156126c3573d6000803e3d6000fd5b505050505b5094989397509295505050505050565b600080600485815481106126ee576126ee614d4a565b600091825260209091206003909102015460ff16600481111561271357612713614b86565b1480612756575060026004858154811061272f5761272f614d4a565b600091825260209091206003909102015460ff16600481111561275457612754614b86565b145b15612762575081611842565b61183f600260008681526020019081526020016000205461278f6004878154811061182357611823614d4a565b85919085613ca3565b600660205281600052604060002081815481106127b457600080fd5b6000918252602090912001546001600160a01b03169150829050565b600080856001600160a01b038116331480159061280f57506001600160a01b03811660009081526020818152604080832033845290915290205460ff16155b1561287d57336000908152600560205260409020546001600160a01b0316801580159061285f57506001600160a01b038083166000908152602081815260408083209385168352929052205460ff165b61287b5760405162461bcd60e51b8152600401610bdc90614f4c565b505b60006004898154811061289257612892614d4a565b6000918252602082206003909102019150815460ff1660048111156128b9576128b9614b86565b14156129075760405162461bcd60e51b815260206004820152601e60248201527f5969656c64426f783a2063616e2774206465706f736974204e617469766500006044820152606401610bdc565b6002815460ff16600481111561291f5761291f614b86565b141561296d5760405162461bcd60e51b815260206004820152601860248201527f5969656c64426f783a20757365204465706f7369744e465400000000000000006044820152606401610bdc565b600061297882613b0d565b9050856129a35760008a81526002602052604081205461299c918991908490613ca3565b95506129c3565b60008a8152600260205260409020546129c0908790836001613c33565b96505b6129ce888b88613cee565b60018201546000906001600160a01b0316156129f75760018301546001600160a01b03166129f9565b305b90506001835460ff166004811115612a1357612a13614b86565b1415612a3a578254612a359061010090046001600160a01b03168b838b614018565b612ad0565b825461010090046001600160a01b0316301415612a6157612a358a8285600201548b6132a7565b82546002840154604051637921219560e11b81526101009092046001600160a01b03169163f242432a91612a9d918e9186918e906004016151f3565b600060405180830381600087803b158015612ab757600080fd5b505af1158015612acb573d6000803e3d6000fd5b505050505b60018301546001600160a01b031615612b445760018301546040516357d48e6360e11b8152600481018a90526001600160a01b039091169063afa91cc690602401600060405180830381600087803b158015612b2b57600080fd5b505af1158015612b3f573d6000803e3d6000fd5b505050505b509599949850939650505050505050565b816001600160a01b0381163314801590612b9157506001600160a01b03811660009081526020818152604080832033845290915290205460ff16155b15612bff57336000908152600560205260409020546001600160a01b03168015801590612be157506001600160a01b038083166000908152602081815260408083209385168352929052205460ff165b612bfd5760405162461bcd60e51b8152600401610bdc90614f4c565b505b600060048581548110612c1457612c14614d4a565b600091825260209091206003909102015460ff166004811115612c3957612c39614b86565b14612c785760405162461bcd60e51b815260206004820152600f60248201526e4e54463a204e6f74206e617469766560881b6044820152606401610bdc565b6122d3338584613ec0565b6001600160a01b038216612cd95760405162461bcd60e51b815260206004820152601a60248201527f5969656c64426f783a206f70657261746f72206e6f74207365740000000000006044820152606401610bdc565b336000908152600560205260409020546001600160a01b031615612d3f5760405162461bcd60e51b815260206004820152601760248201527f5969656c64426f783a207573657220697320636c6f6e650000000000000000006044820152606401610bdc565b6001600160a01b038216301415612d985760405162461bcd60e51b815260206004820181905260248201527f5969656c64426f783a2063616e277420617070726f7665207969656c64426f786044820152606401610bdc565b336000818152602081815260408083206001600160a01b03871680855290835292819020805460ff191686151590811790915590519081529192917f17307eab39ab6107e8899845ad3d59bd9653f200f220920489ca2b5937696c31910160405180910390a35050565b600080612e3d612e3660017f0000000000000000000000000000000000000000000000000000000000000000886000612e49565b8585611d24565b91509150935093915050565b60006001856004811115612e5f57612e5f614b86565b1480612e7c57506002856004811115612e7a57612e7a614b86565b145b80612e9857506003856004811115612e9657612e96614b86565b145b612ee45760405162461bcd60e51b815260206004820152601f60248201527f41737365744d616e616765723a2063616e6e6f7420616464204e6174697665006044820152606401610bdc565b612ef0858585856133d6565b95945050505050565b6000818152600960205260409020546001600160a01b0316338114612f605760405162461bcd60e51b815260206004820152601c60248201527f4e54463a2063616c6c657220213d2070656e64696e67206f776e6572000000006044820152606401610bdc565b6000828152600860205260408082205490516001600160a01b038085169392169185917f16b85f49bf01212961345d3016c9a531894accf62eb7680f2045d79185cc0ec09190a4600091825260086020908152604080842080546001600160a01b039094166001600160a01b0319948516179055600990915290912080549091169055565b60048181548110612ff557600080fd5b600091825260209091206003909102018054600182015460029092015460ff821693506101009091046001600160a01b0390811692169084565b60005b828110156122d3576000803086868581811061305057613050614d4a565b9050602002810190613062919061522b565b60405161307092919061500a565b600060405180830381855af49150503d80600081146130ab576040519150601f19603f3d011682016040523d82523d6000602084013e6130b0565b606091505b5091509150811580156130c05750835b156130ce576130ce81614134565b505080806130db9061506d565b915050613032565b856001600160a01b038116331480159061311f57506001600160a01b03811660009081526020818152604080832033845290915290205460ff16155b1561318d57336000908152600560205260409020546001600160a01b0316801580159061316f57506001600160a01b038083166000908152602081815260408083209385168352929052205460ff165b61318b5760405162461bcd60e51b8152600401610bdc90614f4c565b505b61319b8787878787876139b4565b50505050505050565b6131ad86613906565b6131b9868686866132a7565b6001600160a01b0385163b1561329f5760405163f23a6e6160e01b808252906001600160a01b0387169063f23a6e61906132019033908b908a908a908a908a90600401615271565b602060405180830381600087803b15801561321b57600080fd5b505af115801561322f573d6000803e3d6000fd5b505050506040513d601f19601f82011682018060405250810190613253919061519b565b6001600160e01b0319161461329f5760405162461bcd60e51b815260206004820152601260248201527157726f6e672072657475726e2076616c756560701b6044820152606401610bdc565b505050505050565b6001600160a01b0383166132cd5760405162461bcd60e51b8152600401610bdc906152b8565b6001600160a01b0384166000908152600160209081526040808320858452909152812080548392906133009084906150a0565b90915550506001600160a01b038316600090815260016020908152604080832085845290915281208054839290613338908490615088565b909155505060408051838152602081018390526001600160a01b03808616929087169133916000805160206153d3833981519152910160405180910390a450505050565b600063ffffffff8211156133d25760405162461bcd60e51b815260206004820152601b60248201527f426f72696e674d6174683a2075696e743332204f766572666c6f7700000000006044820152606401610bdc565b5090565b6000600360008660048111156133ee576133ee614b86565b60048111156133ff576133ff614b86565b8152602080820192909252604090810160009081206001600160a01b038089168352908452828220908716825283528181208582529092529020549050806138fe578115806134605750600185600481111561345d5761345d614b86565b14155b6134ac5760405162461bcd60e51b815260206004820152601e60248201527f5969656c64426f783a204e6f20746f6b656e496420666f7220455243323000006044820152606401610bdc565b6001600160a01b038316158061365a5750826001600160a01b03166330fa738c6040518163ffffffff1660e01b815260040160206040518083038186803b1580156134f657600080fd5b505afa15801561350a573d6000803e3d6000fd5b505050506040513d601f19601f8201168201806040525081019061352e91906152de565b600481111561353f5761353f614b86565b85600481111561355157613551614b86565b1480156135df5750826001600160a01b031663f6b4dfb46040518163ffffffff1660e01b815260040160206040518083038186803b15801561359257600080fd5b505afa1580156135a6573d6000803e3d6000fd5b505050506040513d601f19601f820116820180604052508101906135ca91906152fb565b6001600160a01b0316846001600160a01b0316145b801561365a5750826001600160a01b03166317d70f7c6040518163ffffffff1660e01b815260040160206040518083038186803b15801561361f57600080fd5b505afa158015613633573d6000803e3d6000fd5b505050506040513d601f19601f820116820180604052508101906136579190615318565b82145b6136a65760405162461bcd60e51b815260206004820152601b60248201527f5969656c64426f783a205374726174656779206d69736d6174636800000000006044820152606401610bdc565b60008560048111156136ba576136ba614b86565b1480156136ce57506001600160a01b038416155b806136e257506001600160a01b0384163b15155b6137265760405162461bcd60e51b81526020600482015260156024820152742cb4b2b6322137bc1d102737ba1030903a37b5b2b760591b6044820152606401610bdc565b60048054905090506004604051806080016040528087600481111561374d5761374d614b86565b81526001600160a01b038088166020808401919091529087166040830152606090910185905282546001818101855560009485529190932082516003909402018054929390929091839160ff1916908360048111156137ae576137ae614b86565b021790555060208201518154610100600160a81b0319166101006001600160a01b039283160217825560408301516001830180546001600160a01b03191691909216179055606090910151600290910155806003600087600481111561381657613816614b86565b600481111561382757613827614b86565b8152602080820192909252604090810160009081206001600160a01b0389811683529084528282209088168252835281812086825283528181209390935580518281529182019290925282917f6bb7ff708619ba0610cba295a58592e0451dee2622938c8755667688daf3529b910160405180910390a281846001600160a01b03168660048111156138bb576138bb614b86565b604080516001600160a01b0388168152602081018690527f30605d4cd099421ed12ca1ba642a1ea2659f679b5cdd0ccd032586640eeaff43910160405180910390a45b949350505050565b806001600160a01b038116331480159061394257506001600160a01b03811660009081526020818152604080832033845290915290205460ff16155b156139b057336000908152600560205260409020546001600160a01b0316801580159061399257506001600160a01b038083166000908152602081815260408083209385168352929052205460ff165b6139ae5760405162461bcd60e51b8152600401610bdc90614f4c565b505b5050565b6001600160a01b0385166139da5760405162461bcd60e51b8152600401610bdc906152b8565b60005b83811015613aa95760008585838181106139f9576139f9614d4a565b9050602002013590506000848484818110613a1657613a16614d4a565b6001600160a01b038c16600090815260016020908152604080832088845282528220805493909102949094013594508493925090613a559084906150a0565b90915550506001600160a01b038816600090815260016020908152604080832085845290915281208054839290613a8d908490615088565b9250508190555050508080613aa19061506d565b9150506139dd565b50846001600160a01b0316866001600160a01b0316336001600160a01b03167f4a39dc06d4c0dbc64b70af90fd698a233a518aa5d07e595d983b8c0526c8f7fb87878787604051613afd9493929190615331565b60405180910390a4505050505050565b60018101546000906001600160a01b0316613be3576001825460ff166004811115613b3a57613b3a614b86565b1415613b5a578154610ae09061010090046001600160a01b03163061418c565b81546002830154604051627eeac760e11b815230600482015260248101919091526101009091046001600160a01b03169062fdd58e9060440160206040518083038186803b158015613bab57600080fd5b505afa158015613bbf573d6000803e3d6000fd5b505050506040513d601f19601f82011682018060405250810190610ae09190615318565b8160010160009054906101000a90046001600160a01b03166001600160a01b031663ce845d1d6040518163ffffffff1660e01b815260040160206040518083038186803b158015613bab57600080fd5b600082613c3f8161506d565b9350613c5190506305f5e10085615088565b935083613c5e8487615358565b613c689190615377565b9050818015613c8a57508483613c7e8684615358565b613c889190615377565b105b156138fe5780613c998161506d565b9695505050505050565b600082613caf8161506d565b9350613cc190506305f5e10085615088565b935082613cce8587615358565b613cd89190615377565b9050818015613c8a57508484613c7e8584615358565b6001600160a01b038316613d145760405162461bcd60e51b8152600401610bdc906152b8565b6001600160a01b038316600090815260016020908152604080832085845290915281208054839290613d47908490615088565b909155505060008281526002602052604081208054839290613d6a908490615088565b909155505060408051838152602081018390526001600160a01b0385169160009133916000805160206153d383398151915291015b60405180910390a4505050565b604080516001600160a01b038481166024830152604480830185905283518084039091018152606490920183526020820180516001600160e01b031663a9059cbb60e01b1790529151600092839290871691613e089190615399565b6000604051808303816000865af19150503d8060008114613e45576040519150601f19603f3d011682016040523d82523d6000602084013e613e4a565b606091505b5091509150818015613e74575080511580613e74575080806020019051810190613e7491906153b5565b610bf35760405162461bcd60e51b815260206004820152601c60248201527f426f72696e6745524332303a205472616e73666572206661696c6564000000006044820152606401610bdc565b6001600160a01b038316613ee65760405162461bcd60e51b8152600401610bdc906152b8565b6001600160a01b038316600090815260016020908152604080832085845290915281208054839290613f199084906150a0565b909155505060008281526002602052604081208054839290613f3c9084906150a0565b909155505060408051838152602081018390526000916001600160a01b0386169133916000805160206153d38339815191529101613d9f565b6000826001600160a01b03168260405160006040518083038185875af1925050503d8060008114613fc2576040519150601f19603f3d011682016040523d82523d6000602084013e613fc7565b606091505b50509050806139ae5760405162461bcd60e51b815260206004820152601e60248201527f426f72696e67416464726573733a207472616e73666572206661696c656400006044820152606401610bdc565b604080516001600160a01b0385811660248301528481166044830152606480830185905283518084039091018152608490920183526020820180516001600160e01b03166323b872dd60e01b179052915160009283929088169161407c9190615399565b6000604051808303816000865af19150503d80600081146140b9576040519150601f19603f3d011682016040523d82523d6000602084013e6140be565b606091505b50915091508180156140e85750805115806140e85750808060200190518101906140e891906153b5565b61329f5760405162461bcd60e51b815260206004820181905260248201527f426f72696e6745524332303a205472616e7366657246726f6d206661696c65646044820152606401610bdc565b604481511015614159578060405163d935448560e01b8152600401610bdc919061439b565b600481019050808060200190518101906141739190614eab565b60405162461bcd60e51b8152600401610bdc919061439b565b604080516001600160a01b0383811660248084019190915283518084039091018152604490920183526020820180516001600160e01b03166370a0823160e01b179052915160009283928392918716916141e69190615399565b600060405180830381855afa9150503d8060008114614221576040519150601f19603f3d011682016040523d82523d6000602084013e614226565b606091505b509150915081801561423a57506020815110155b6142865760405162461bcd60e51b815260206004820152601d60248201527f426f72696e6745524332303a2042616c616e63654f66206661696c65640000006044820152606401610bdc565b80806020019051810190612ef09190615318565b8280546142a690614d99565b90600052602060002090601f0160209004810192826142c8576000855561430e565b82601f106142e157805160ff191683800117855561430e565b8280016001018555821561430e579182015b8281111561430e5782518255916020019190600101906142f3565b506133d29291505b808211156133d25760008155600101614316565b60006020828403121561433c57600080fd5b5035919050565b60005b8381101561435e578181015183820152602001614346565b838111156122d35750506000910152565b60008151808452614387816020860160208601614343565b601f01601f19169290920160200192915050565b602081526000611842602083018461436f565b6001600160a01b03811681146143c357600080fd5b50565b600080604083850312156143d957600080fd5b82356143e4816143ae565b946020939093013593505050565b6001600160e01b0319811681146143c357600080fd5b60006020828403121561441a57600080fd5b8135611842816143f2565b6000806000806080858703121561443b57600080fd5b8435614446816143ae565b93506020850135614456816143ae565b93969395505050506040820135916060013590565b60808152600061447e608083018761436f565b8281036020840152614490818761436f565b905060ff8516604084015282810360608401526144ad818561436f565b979650505050505050565b60008083601f8401126144ca57600080fd5b5081356001600160401b038111156144e157600080fd5b6020830191508360208285010111156144f957600080fd5b9250929050565b80151581146143c357600080fd5b6000806000806060858703121561452457600080fd5b843561452f816143ae565b935060208501356001600160401b0381111561454a57600080fd5b614556878288016144b8565b909450925050604085013561456a81614500565b939692955090935050565b60008083601f84011261458757600080fd5b5081356001600160401b0381111561459e57600080fd5b6020830191508360208260051b85010111156144f957600080fd5b600080600080600080608087890312156145d257600080fd5b86356145dd816143ae565b955060208701356001600160401b03808211156145f957600080fd5b6146058a838b01614575565b909750955060408901359450606089013591508082111561462557600080fd5b5061463289828a01614575565b979a9699509497509295939492505050565b60ff811681146143c357600080fd5b60008060008060008060006080888a03121561466e57600080fd5b87356001600160401b038082111561468557600080fd5b6146918b838c016144b8565b909950975060208a01359150808211156146aa57600080fd5b6146b68b838c016144b8565b909750955060408a013591506146cb82614644565b909350606089013590808211156146e157600080fd5b506146ee8a828b016144b8565b989b979a50959850939692959293505050565b600581106143c357600080fd5b6000806000806080858703121561472457600080fd5b843561472f81614701565b9350602085013561473f816143ae565b9250604085013561474f816143ae565b9396929550929360600135925050565b60008060008060008060008060a0898b03121561477b57600080fd5b8835614786816143ae565b97506020890135614796816143ae565b965060408901356001600160401b03808211156147b257600080fd5b6147be8c838d01614575565b909850965060608b01359150808211156147d757600080fd5b6147e38c838d01614575565b909650945060808b01359150808211156147fc57600080fd5b506148098b828c016144b8565b999c989b5096995094979396929594505050565b60008060006060848603121561483257600080fd5b8335925060208401359150604084013561484b81614500565b809150509250925092565b6000806000806040858703121561486c57600080fd5b84356001600160401b038082111561488357600080fd5b61488f88838901614575565b909650945060208701359150808211156148a857600080fd5b506148b587828801614575565b95989497509550505050565b6020808252825182820181905260009190848201906040850190845b818110156148f9578351835292840192918401916001016148dd565b50909695505050505050565b6000806000806080858703121561491b57600080fd5b84359350602085013561492d816143ae565b9250604085013561493d81614500565b9150606085013561456a81614500565b600080600080600080600080610100898b03121561496a57600080fd5b883561497581614701565b97506020890135614985816143ae565b96506040890135614995816143ae565b95506060890135945060808901356149ac816143ae565b935060a08901356149bc816143ae565b979a969950949793969295929450505060c08201359160e0013590565b6000806000606084860312156149ee57600080fd5b833592506020840135614a00816143ae565b929592945050506040919091013590565b600080600060608486031215614a2657600080fd5b833592506020840135614a38816143ae565b9150604084013561484b816143ae565b600080600080600080600080610100898b031215614a6557600080fd5b8835614a70816143ae565b97506020890135614a80816143ae565b96506040890135614a90816143ae565b9550606089013594506080890135935060a08901356149bc81614644565b600080600080600060a08688031215614ac657600080fd5b853594506020860135614ad8816143ae565b93506040860135614ae8816143ae565b94979396509394606081013594506080013592915050565b60008060408385031215614b1357600080fd5b8235614b1e816143ae565b91506020830135614b2e81614500565b809150509250929050565b600080600060608486031215614b4e57600080fd5b8335614b59816143ae565b92506020840135614a00816143ae565b600060208284031215614b7b57600080fd5b8135611842816143ae565b634e487b7160e01b600052602160045260246000fd5b60058110614bba57634e487b7160e01b600052602160045260246000fd5b9052565b60808101614bcc8287614b9c565b6001600160a01b039485166020830152929093166040840152606090920191909152919050565b600080600060408486031215614c0857600080fd5b83356001600160401b03811115614c1e57600080fd5b614c2a86828701614575565b909450925050602084013561484b81614500565b60008060008060008060808789031215614c5757600080fd5b8635614c62816143ae565b95506020870135614c72816143ae565b945060408701356001600160401b0380821115614c8e57600080fd5b614c9a8a838b01614575565b9096509450606089013591508082111561462557600080fd5b60008060408385031215614cc657600080fd5b8235614cd1816143ae565b91506020830135614b2e816143ae565b60008060008060008060a08789031215614cfa57600080fd5b8635614d05816143ae565b95506020870135614d15816143ae565b9450604087013593506060870135925060808701356001600160401b03811115614d3e57600080fd5b61463289828a016144b8565b634e487b7160e01b600052603260045260246000fd5b8054614d6f8360ff8316614b9c565b60081c6001600160a01b039081166020840152600182015416604083015260020154606090910152565b600181811c90821680614dad57607f821691505b60208210811415614dce57634e487b7160e01b600052602260045260246000fd5b50919050565b8054600090600181811c9080831680614dee57607f831692505b6020808410821415614e1057634e487b7160e01b600052602260045260246000fd5b838852818015614e275760018114614e3b57614e69565b60ff19861689830152604089019650614e69565b876000528160002060005b86811015614e615781548b8201850152908501908301614e46565b8a0183019750505b50505050505092915050565b614e7f8184614d60565b60a06080820152600061183f60a0830184614dd4565b634e487b7160e01b600052604160045260246000fd5b600060208284031215614ebd57600080fd5b81516001600160401b0380821115614ed457600080fd5b818401915084601f830112614ee857600080fd5b815181811115614efa57614efa614e95565b604051601f8201601f19908116603f01168101908382118183101715614f2257614f22614e95565b81604052828152876020848701011115614f3b57600080fd5b6144ad836020830160208801614343565b602080825260169082015275165a595b19109bde0e88139bdd08185c1c1c9bdd995960521b604082015260600190565b614f868186614d60565b60e06080820152608060e08201526000614fa4610160830186614dd4565b60df198084830301610100850152614fbf8260018901614dd4565b915060ff600288015416610120850152808483030161014085015250614fe88160038801614dd4565b60a084019590955250506001600160a01b039190911660c09091015292915050565b8183823760009101908152919050565b81835281816020850137506000828201602090810191909152601f909101601f19169091010190565b60208152600061183f60208301848661501a565b634e487b7160e01b600052601160045260246000fd5b600060001982141561508157615081615057565b5060010190565b6000821982111561509b5761509b615057565b500190565b6000828210156150b2576150b2615057565b500390565b6080815260006150cb60808301888a61501a565b82810360208401526150de81878961501a565b91505060ff8416604083015263ffffffff83166060830152979650505050505050565b81835260006001600160fb1b0383111561511a57600080fd5b8260051b8083602087013760009401602001938452509192915050565b6001600160a01b0389811682528816602082015260a060408201819052600090615164908301888a615101565b8281036060840152615177818789615101565b9050828103608084015261518c81858761501a565b9b9a5050505050505050505050565b6000602082840312156151ad57600080fd5b8151611842816143f2565b60a081016151c68285614d60565b60ff831660808301529392505050565b6000602082840312156151e857600080fd5b815161184281614644565b6001600160a01b0394851681529290931660208301526040820152606081019190915260a06080820181905260009082015260c00190565b6000808335601e1984360301811261524257600080fd5b8301803591506001600160401b0382111561525c57600080fd5b6020019150368190038213156144f957600080fd5b6001600160a01b03878116825286166020820152604081018590526060810184905260a0608082018190526000906152ac908301848661501a565b98975050505050505050565b6020808252600c908201526b4e6f2030206164647265737360a01b604082015260600190565b6000602082840312156152f057600080fd5b815161184281614701565b60006020828403121561530d57600080fd5b8151611842816143ae565b60006020828403121561532a57600080fd5b5051919050565b604081526000615345604083018688615101565b82810360208401526144ad818587615101565b600081600019048311821515161561537257615372615057565b500290565b60008261539457634e487b7160e01b600052601260045260246000fd5b500490565b600082516153ab818460208701614343565b9190910192915050565b6000602082840312156153c757600080fd5b81516118428161450056fec3d58168c5ae7397731d063d5bbf3d657854427343f4c083240f7aacaa2d0f62a264697066735822122065af778a888e2db86419af5ccb954ea337e5c39b7829b964abf7e4020ae26a8264736f6c63430008090033",
  "devdoc": {
    "author": "BoringCrypto, Keno",
    "kind": "dev",
    "methods": {
      "amountOf(address,uint256)": {
        "details": "Helper function represent the balance in `token` amount for a `user` for an `asset`.",
        "params": {
          "assetId": "The id of the asset.",
          "user": "The `user` to get the amount for."
        }
      },
      "batch(bytes[],bool)": {
        "params": {
          "calls": "An array of inputs for each call.",
          "revertOnFail": "If True then reverts after a failed call and stops doing further calls."
        }
      },
      "burn(uint256,address,uint256)": {
        "params": {
          "amount": "The amount of tokens to burn.",
          "tokenId": "The token to be burned."
        }
      },
      "claimOwnership(uint256)": {
        "params": {
          "tokenId": "The `tokenId` of the token that ownership is claimed for."
        }
      },
      "clonesOfCount(address)": {
        "params": {
          "masterContract": "The address of the master contract."
        },
        "returns": {
          "cloneCount": "total number of clones for the masterContract."
        }
      },
      "createToken(string,string,uint8,string)": {
        "params": {
          "decimals": "The number of decimals of the token (this is just for display purposes). Should be set to 18 in normal cases.",
          "name": "The name of the token.",
          "symbol": "The symbol of the token."
        }
      },
      "deploy(address,bytes,bool)": {
        "params": {
          "data": "Additional abi encoded calldata that is passed to the new clone via `IMasterContract.init`.",
          "masterContract": "The address of the contract to clone.",
          "useCreate2": "Creates the clone by using the CREATE2 opcode, in this case `data` will be used as salt."
        },
        "returns": {
          "cloneAddress": "Address of the created clone contract."
        }
      },
      "depositAsset(uint256,address,address,uint256,uint256)": {
        "params": {
          "amount": "Token amount in native representation to deposit.",
          "assetId": "The id of the asset.",
          "from": "which account to pull the tokens.",
          "share": "Token amount represented in shares to deposit. Takes precedence over `amount`.",
          "to": "which account to push the tokens."
        },
        "returns": {
          "amountOut": "The amount deposited.",
          "shareOut": "The deposited amount repesented in shares."
        }
      },
      "depositNFTAsset(uint256,address,address)": {
        "params": {
          "assetId": "The id of the asset.",
          "from": "which account to pull the tokens.",
          "to": "which account to push the tokens."
        },
        "returns": {
          "amountOut": "The amount deposited.",
          "shareOut": "The deposited amount repesented in shares."
        }
      },
      "mint(uint256,address,uint256)": {
        "params": {
          "amount": "The amount of tokens to mint.",
          "to": "The account to transfer the minted tokens to.",
          "tokenId": "The token to be minted."
        }
      },
      "toAmount(uint256,uint256,bool)": {
        "details": "Helper function represent shares back into the `token` amount.",
        "params": {
          "assetId": "The id of the asset.",
          "roundUp": "If the result should be rounded up.",
          "share": "The amount of shares."
        },
        "returns": {
          "amount": "The share amount back into native representation."
        }
      },
      "toShare(uint256,uint256,bool)": {
        "details": "Helper function to represent an `amount` of `token` in shares.",
        "params": {
          "amount": "The `token` amount.",
          "assetId": "The id of the asset.",
          "roundUp": "If the result `share` should be rounded up."
        },
        "returns": {
          "share": "The token amount represented in shares."
        }
      },
      "transfer(address,address,uint256,uint256)": {
        "params": {
          "assetId": "The id of the asset.",
          "from": "which user to pull the tokens.",
          "share": "The amount of `token` in shares.",
          "to": "which user to push the tokens."
        }
      },
      "transferMultiple(address,address[],uint256,uint256[])": {
        "params": {
          "assetId": "The id of the asset.",
          "from": "which user to pull the tokens.",
          "shares": "The amount of `token` in shares for each receiver in `tos`.",
          "tos": "The receivers of the tokens."
        }
      },
      "transferOwnership(uint256,address,bool,bool)": {
        "params": {
          "direct": "True if `newOwner` should be set immediately. False if `newOwner` needs to use `claimOwnership`.",
          "newOwner": "Address of the new owner.",
          "renounce": "Allows the `newOwner` to be `address(0)` if `direct` and `renounce` is True. Has no effect otherwise.",
          "tokenId": "The `tokenId` of the token that ownership whose ownership will be transferred/renounced."
        }
      },
      "withdraw(uint256,address,address,uint256,uint256)": {
        "params": {
          "amount": "of tokens. Either one of `amount` or `share` needs to be supplied.",
          "assetId": "The id of the asset.",
          "from": "which user to pull the tokens.",
          "share": "Like above, but `share` takes precedence over `amount`.",
          "to": "which user to push the tokens."
        }
      }
    },
    "title": "YieldBox",
    "version": 1
  },
  "userdoc": {
    "kind": "user",
    "methods": {
      "batch(bytes[],bool)": {
        "notice": "Allows batched call to self (this contract)."
      },
      "burn(uint256,address,uint256)": {
        "notice": "Burns tokens. Only the holder of tokens can burn them."
      },
      "claimOwnership(uint256)": {
        "notice": "Needs to be called by `pendingOwner` to claim ownership."
      },
      "clonesOf(address,uint256)": {
        "notice": "Mapping from masterContract to an array of all clones On mainnet events can be used to get this list, but events aren't always easy to retrieve and barely work on sidechains. While this adds gas, it makes enumerating all clones much easier."
      },
      "clonesOfCount(address)": {
        "notice": "Returns the count of clones that exists for a specific masterContract"
      },
      "createToken(string,string,uint8,string)": {
        "notice": "Create a new native token. This will be an ERC1155 token. If later it's needed as an ERC20 token it can be wrapped into an ERC20 token. Native support for ERC1155 tokens is growing though."
      },
      "deploy(address,bytes,bool)": {
        "notice": "Deploys a given master Contract as a clone. Any ETH transferred with this call is forwarded to the new clone. Emits `LogDeploy`."
      },
      "depositAsset(uint256,address,address,uint256,uint256)": {
        "notice": "Deposit an amount of `token` represented in either `amount` or `share`."
      },
      "depositNFTAsset(uint256,address,address)": {
        "notice": "Deposit an NFT asset"
      },
      "masterContractOf(address)": {
        "notice": "Mapping from clone contracts to their masterContract."
      },
      "mint(uint256,address,uint256)": {
        "notice": "The `owner` can mint tokens. If a fixed supply is needed, the `owner` should mint the totalSupply and renounce ownership."
      },
      "permitToken(address,address,address,uint256,uint256,uint8,bytes32,bytes32)": {
        "notice": "Call wrapper that performs `ERC20.permit` on `token`. Lookup `IERC20.permit`."
      },
      "transfer(address,address,uint256,uint256)": {
        "notice": "Transfer shares from a user account to another one."
      },
      "transferMultiple(address,address[],uint256,uint256[])": {
        "notice": "Transfer shares from a user account to multiple other ones."
      },
      "transferOwnership(uint256,address,bool,bool)": {
        "notice": "Transfers ownership to `newOwner`. Either directly or claimable by the new pending owner. Can only be invoked by the current `owner`."
      },
      "withdraw(uint256,address,address,uint256,uint256)": {
        "notice": "Withdraws an amount of `token` from a user account."
      }
    },
    "notice": "The YieldBox is a vault for tokens. The stored tokens can assigned to strategies. Yield from this will go to the token depositors. Any funds transfered directly onto the YieldBox will be lost, use the deposit function instead.",
    "version": 1
  },
  "storageLayout": {
    "storage": [
      {
        "astId": 28470,
        "contract": "yieldbox/contracts/YieldBox.sol:YieldBox",
        "label": "isApprovedForAll",
        "offset": 0,
        "slot": "0",
        "type": "t_mapping(t_address,t_mapping(t_address,t_bool))"
      },
      {
        "astId": 28477,
        "contract": "yieldbox/contracts/YieldBox.sol:YieldBox",
        "label": "balanceOf",
        "offset": 0,
        "slot": "1",
        "type": "t_mapping(t_address,t_mapping(t_uint256,t_uint256))"
      },
      {
        "astId": 28481,
        "contract": "yieldbox/contracts/YieldBox.sol:YieldBox",
        "label": "totalSupply",
        "offset": 0,
        "slot": "2",
        "type": "t_mapping(t_uint256,t_uint256)"
      },
      {
        "astId": 28126,
        "contract": "yieldbox/contracts/YieldBox.sol:YieldBox",
        "label": "ids",
        "offset": 0,
        "slot": "3",
        "type": "t_mapping(t_enum(TokenType)31290,t_mapping(t_address,t_mapping(t_contract(IStrategy)31366,t_mapping(t_uint256,t_uint256))))"
      },
      {
        "astId": 28130,
        "contract": "yieldbox/contracts/YieldBox.sol:YieldBox",
        "label": "assets",
        "offset": 0,
        "slot": "4",
        "type": "t_array(t_struct(Asset)28095_storage)dyn_storage"
      },
      {
        "astId": 135,
        "contract": "yieldbox/contracts/YieldBox.sol:YieldBox",
        "label": "masterContractOf",
        "offset": 0,
        "slot": "5",
        "type": "t_mapping(t_address,t_address)"
      },
      {
        "astId": 141,
        "contract": "yieldbox/contracts/YieldBox.sol:YieldBox",
        "label": "clonesOf",
        "offset": 0,
        "slot": "6",
        "type": "t_mapping(t_address,t_array(t_address)dyn_storage)"
      },
      {
        "astId": 29027,
        "contract": "yieldbox/contracts/YieldBox.sol:YieldBox",
        "label": "nativeTokens",
        "offset": 0,
        "slot": "7",
        "type": "t_mapping(t_uint256,t_struct(NativeToken)29014_storage)"
      },
      {
        "astId": 29031,
        "contract": "yieldbox/contracts/YieldBox.sol:YieldBox",
        "label": "owner",
        "offset": 0,
        "slot": "8",
        "type": "t_mapping(t_uint256,t_address)"
      },
      {
        "astId": 29035,
        "contract": "yieldbox/contracts/YieldBox.sol:YieldBox",
        "label": "pendingOwner",
        "offset": 0,
        "slot": "9",
        "type": "t_mapping(t_uint256,t_address)"
      }
    ],
    "types": {
      "t_address": {
        "encoding": "inplace",
        "label": "address",
        "numberOfBytes": "20"
      },
      "t_array(t_address)dyn_storage": {
        "base": "t_address",
        "encoding": "dynamic_array",
        "label": "address[]",
        "numberOfBytes": "32"
      },
      "t_array(t_struct(Asset)28095_storage)dyn_storage": {
        "base": "t_struct(Asset)28095_storage",
        "encoding": "dynamic_array",
        "label": "struct Asset[]",
        "numberOfBytes": "32"
      },
      "t_bool": {
        "encoding": "inplace",
        "label": "bool",
        "numberOfBytes": "1"
      },
      "t_contract(IStrategy)31366": {
        "encoding": "inplace",
        "label": "contract IStrategy",
        "numberOfBytes": "20"
      },
      "t_enum(TokenType)31290": {
        "encoding": "inplace",
        "label": "enum TokenType",
        "numberOfBytes": "1"
      },
      "t_mapping(t_address,t_address)": {
        "encoding": "mapping",
        "key": "t_address",
        "label": "mapping(address => address)",
        "numberOfBytes": "32",
        "value": "t_address"
      },
      "t_mapping(t_address,t_array(t_address)dyn_storage)": {
        "encoding": "mapping",
        "key": "t_address",
        "label": "mapping(address => address[])",
        "numberOfBytes": "32",
        "value": "t_array(t_address)dyn_storage"
      },
      "t_mapping(t_address,t_bool)": {
        "encoding": "mapping",
        "key": "t_address",
        "label": "mapping(address => bool)",
        "numberOfBytes": "32",
        "value": "t_bool"
      },
      "t_mapping(t_address,t_mapping(t_address,t_bool))": {
        "encoding": "mapping",
        "key": "t_address",
        "label": "mapping(address => mapping(address => bool))",
        "numberOfBytes": "32",
        "value": "t_mapping(t_address,t_bool)"
      },
      "t_mapping(t_address,t_mapping(t_contract(IStrategy)31366,t_mapping(t_uint256,t_uint256)))": {
        "encoding": "mapping",
        "key": "t_address",
        "label": "mapping(address => mapping(contract IStrategy => mapping(uint256 => uint256)))",
        "numberOfBytes": "32",
        "value": "t_mapping(t_contract(IStrategy)31366,t_mapping(t_uint256,t_uint256))"
      },
      "t_mapping(t_address,t_mapping(t_uint256,t_uint256))": {
        "encoding": "mapping",
        "key": "t_address",
        "label": "mapping(address => mapping(uint256 => uint256))",
        "numberOfBytes": "32",
        "value": "t_mapping(t_uint256,t_uint256)"
      },
      "t_mapping(t_contract(IStrategy)31366,t_mapping(t_uint256,t_uint256))": {
        "encoding": "mapping",
        "key": "t_contract(IStrategy)31366",
        "label": "mapping(contract IStrategy => mapping(uint256 => uint256))",
        "numberOfBytes": "32",
        "value": "t_mapping(t_uint256,t_uint256)"
      },
      "t_mapping(t_enum(TokenType)31290,t_mapping(t_address,t_mapping(t_contract(IStrategy)31366,t_mapping(t_uint256,t_uint256))))": {
        "encoding": "mapping",
        "key": "t_enum(TokenType)31290",
        "label": "mapping(enum TokenType => mapping(address => mapping(contract IStrategy => mapping(uint256 => uint256))))",
        "numberOfBytes": "32",
        "value": "t_mapping(t_address,t_mapping(t_contract(IStrategy)31366,t_mapping(t_uint256,t_uint256)))"
      },
      "t_mapping(t_uint256,t_address)": {
        "encoding": "mapping",
        "key": "t_uint256",
        "label": "mapping(uint256 => address)",
        "numberOfBytes": "32",
        "value": "t_address"
      },
      "t_mapping(t_uint256,t_struct(NativeToken)29014_storage)": {
        "encoding": "mapping",
        "key": "t_uint256",
        "label": "mapping(uint256 => struct NativeToken)",
        "numberOfBytes": "32",
        "value": "t_struct(NativeToken)29014_storage"
      },
      "t_mapping(t_uint256,t_uint256)": {
        "encoding": "mapping",
        "key": "t_uint256",
        "label": "mapping(uint256 => uint256)",
        "numberOfBytes": "32",
        "value": "t_uint256"
      },
      "t_string_storage": {
        "encoding": "bytes",
        "label": "string",
        "numberOfBytes": "32"
      },
      "t_struct(Asset)28095_storage": {
        "encoding": "inplace",
        "label": "struct Asset",
        "members": [
          {
            "astId": 28087,
            "contract": "yieldbox/contracts/YieldBox.sol:YieldBox",
            "label": "tokenType",
            "offset": 0,
            "slot": "0",
            "type": "t_enum(TokenType)31290"
          },
          {
            "astId": 28089,
            "contract": "yieldbox/contracts/YieldBox.sol:YieldBox",
            "label": "contractAddress",
            "offset": 1,
            "slot": "0",
            "type": "t_address"
          },
          {
            "astId": 28092,
            "contract": "yieldbox/contracts/YieldBox.sol:YieldBox",
            "label": "strategy",
            "offset": 0,
            "slot": "1",
            "type": "t_contract(IStrategy)31366"
          },
          {
            "astId": 28094,
            "contract": "yieldbox/contracts/YieldBox.sol:YieldBox",
            "label": "tokenId",
            "offset": 0,
            "slot": "2",
            "type": "t_uint256"
          }
        ],
        "numberOfBytes": "96"
      },
      "t_struct(NativeToken)29014_storage": {
        "encoding": "inplace",
        "label": "struct NativeToken",
        "members": [
          {
            "astId": 29007,
            "contract": "yieldbox/contracts/YieldBox.sol:YieldBox",
            "label": "name",
            "offset": 0,
            "slot": "0",
            "type": "t_string_storage"
          },
          {
            "astId": 29009,
            "contract": "yieldbox/contracts/YieldBox.sol:YieldBox",
            "label": "symbol",
            "offset": 0,
            "slot": "1",
            "type": "t_string_storage"
          },
          {
            "astId": 29011,
            "contract": "yieldbox/contracts/YieldBox.sol:YieldBox",
            "label": "decimals",
            "offset": 0,
            "slot": "2",
            "type": "t_uint8"
          },
          {
            "astId": 29013,
            "contract": "yieldbox/contracts/YieldBox.sol:YieldBox",
            "label": "uri",
            "offset": 0,
            "slot": "3",
            "type": "t_string_storage"
          }
        ],
        "numberOfBytes": "128"
      },
      "t_uint256": {
        "encoding": "inplace",
        "label": "uint256",
        "numberOfBytes": "32"
      },
      "t_uint8": {
        "encoding": "inplace",
        "label": "uint8",
        "numberOfBytes": "1"
      }
    }
  }
}