{
  "address": "0xFfbd22431bb5142D95E09D90db19D252e2cEcd27",
  "abi": [
    {
      "inputs": [
        {
          "internalType": "address",
          "name": "_lzEndpoint",
          "type": "address"
        },
        {
          "internalType": "contract IYieldBox",
          "name": "_yieldBox",
          "type": "address"
        }
      ],
      "stateMutability": "nonpayable",
      "type": "constructor"
    },
    {
      "inputs": [],
      "name": "TOFT_YB_ETHDeposit",
      "type": "error"
    },
    {
      "anonymous": false,
      "inputs": [
        {
          "indexed": true,
          "internalType": "address",
          "name": "owner",
          "type": "address"
        },
        {
          "indexed": true,
          "internalType": "address",
          "name": "spender",
          "type": "address"
        },
        {
          "indexed": false,
          "internalType": "uint256",
          "name": "value",
          "type": "uint256"
        }
      ],
      "name": "Approval",
      "type": "event"
    },
    {
      "anonymous": false,
      "inputs": [
        {
          "indexed": true,
          "internalType": "address",
          "name": "_from",
          "type": "address"
        },
        {
          "indexed": false,
          "internalType": "uint256",
          "name": "_amount",
          "type": "uint256"
        }
      ],
      "name": "Burned",
      "type": "event"
    },
    {
      "anonymous": false,
      "inputs": [
        {
          "indexed": true,
          "internalType": "address",
          "name": "old",
          "type": "address"
        },
        {
          "indexed": true,
          "internalType": "address",
          "name": "_new",
          "type": "address"
        }
      ],
      "name": "ConservatorUpdated",
      "type": "event"
    },
    {
      "anonymous": false,
      "inputs": [
        {
          "indexed": false,
          "internalType": "uint256",
          "name": "_old",
          "type": "uint256"
        },
        {
          "indexed": false,
          "internalType": "uint256",
          "name": "_new",
          "type": "uint256"
        }
      ],
      "name": "FlashMintFeeUpdated",
      "type": "event"
    },
    {
      "anonymous": false,
      "inputs": [
        {
          "indexed": false,
          "internalType": "uint256",
          "name": "_old",
          "type": "uint256"
        },
        {
          "indexed": false,
          "internalType": "uint256",
          "name": "_new",
          "type": "uint256"
        }
      ],
      "name": "MaxFlashMintUpdated",
      "type": "event"
    },
    {
      "anonymous": false,
      "inputs": [
        {
          "indexed": false,
          "internalType": "uint16",
          "name": "_srcChainId",
          "type": "uint16"
        },
        {
          "indexed": false,
          "internalType": "bytes",
          "name": "_srcAddress",
          "type": "bytes"
        },
        {
          "indexed": false,
          "internalType": "uint64",
          "name": "_nonce",
          "type": "uint64"
        },
        {
          "indexed": false,
          "internalType": "bytes",
          "name": "_payload",
          "type": "bytes"
        },
        {
          "indexed": false,
          "internalType": "bytes",
          "name": "_reason",
          "type": "bytes"
        }
      ],
      "name": "MessageFailed",
      "type": "event"
    },
    {
      "anonymous": false,
      "inputs": [
        {
          "indexed": true,
          "internalType": "address",
          "name": "_for",
          "type": "address"
        },
        {
          "indexed": false,
          "internalType": "uint256",
          "name": "_amount",
          "type": "uint256"
        }
      ],
      "name": "Minted",
      "type": "event"
    },
    {
      "anonymous": false,
      "inputs": [
        {
          "indexed": true,
          "internalType": "address",
          "name": "previousOwner",
          "type": "address"
        },
        {
          "indexed": true,
          "internalType": "address",
          "name": "newOwner",
          "type": "address"
        }
      ],
      "name": "OwnershipTransferred",
      "type": "event"
    },
    {
      "anonymous": false,
      "inputs": [
        {
          "indexed": false,
          "internalType": "bool",
          "name": "oldState",
          "type": "bool"
        },
        {
          "indexed": false,
          "internalType": "bool",
          "name": "newState",
          "type": "bool"
        }
      ],
      "name": "PausedUpdated",
      "type": "event"
    },
    {
      "anonymous": false,
      "inputs": [
        {
          "indexed": true,
          "internalType": "uint16",
          "name": "_srcChainId",
          "type": "uint16"
        },
        {
          "indexed": true,
          "internalType": "address",
          "name": "_to",
          "type": "address"
        },
        {
          "indexed": false,
          "internalType": "uint256",
          "name": "_amount",
          "type": "uint256"
        }
      ],
      "name": "ReceiveFromChain",
      "type": "event"
    },
    {
      "anonymous": false,
      "inputs": [
        {
          "indexed": false,
          "internalType": "uint16",
          "name": "_srcChainId",
          "type": "uint16"
        },
        {
          "indexed": false,
          "internalType": "bytes",
          "name": "_srcAddress",
          "type": "bytes"
        },
        {
          "indexed": false,
          "internalType": "uint64",
          "name": "_nonce",
          "type": "uint64"
        },
        {
          "indexed": false,
          "internalType": "bytes32",
          "name": "_payloadHash",
          "type": "bytes32"
        }
      ],
      "name": "RetryMessageSuccess",
      "type": "event"
    },
    {
      "anonymous": false,
      "inputs": [
        {
          "indexed": true,
          "internalType": "uint16",
          "name": "_dstChainId",
          "type": "uint16"
        },
        {
          "indexed": true,
          "internalType": "address",
          "name": "_from",
          "type": "address"
        },
        {
          "indexed": false,
          "internalType": "bytes",
          "name": "_toAddress",
          "type": "bytes"
        },
        {
          "indexed": false,
          "internalType": "uint256",
          "name": "_amount",
          "type": "uint256"
        }
      ],
      "name": "SendToChain",
      "type": "event"
    },
    {
      "anonymous": false,
      "inputs": [
        {
          "indexed": true,
          "internalType": "address",
          "name": "_for",
          "type": "address"
        },
        {
          "indexed": false,
          "internalType": "bool",
          "name": "_status",
          "type": "bool"
        }
      ],
      "name": "SetBurnerStatus",
      "type": "event"
    },
    {
      "anonymous": false,
      "inputs": [
        {
          "indexed": false,
          "internalType": "uint16",
          "name": "_dstChainId",
          "type": "uint16"
        },
        {
          "indexed": false,
          "internalType": "uint16",
          "name": "_type",
          "type": "uint16"
        },
        {
          "indexed": false,
          "internalType": "uint256",
          "name": "_minDstGas",
          "type": "uint256"
        }
      ],
      "name": "SetMinDstGas",
      "type": "event"
    },
    {
      "anonymous": false,
      "inputs": [
        {
          "indexed": true,
          "internalType": "address",
          "name": "_for",
          "type": "address"
        },
        {
          "indexed": false,
          "internalType": "bool",
          "name": "_status",
          "type": "bool"
        }
      ],
      "name": "SetMinterStatus",
      "type": "event"
    },
    {
      "anonymous": false,
      "inputs": [
        {
          "indexed": false,
          "internalType": "address",
          "name": "precrime",
          "type": "address"
        }
      ],
      "name": "SetPrecrime",
      "type": "event"
    },
    {
      "anonymous": false,
      "inputs": [
        {
          "indexed": false,
          "internalType": "uint16",
          "name": "_remoteChainId",
          "type": "uint16"
        },
        {
          "indexed": false,
          "internalType": "bytes",
          "name": "_path",
          "type": "bytes"
        }
      ],
      "name": "SetTrustedRemote",
      "type": "event"
    },
    {
      "anonymous": false,
      "inputs": [
        {
          "indexed": false,
          "internalType": "uint16",
          "name": "_remoteChainId",
          "type": "uint16"
        },
        {
          "indexed": false,
          "internalType": "bytes",
          "name": "_remoteAddress",
          "type": "bytes"
        }
      ],
      "name": "SetTrustedRemoteAddress",
      "type": "event"
    },
    {
      "anonymous": false,
      "inputs": [
        {
          "indexed": false,
          "internalType": "bool",
          "name": "_useCustomAdapterParams",
          "type": "bool"
        }
      ],
      "name": "SetUseCustomAdapterParams",
      "type": "event"
    },
    {
      "anonymous": false,
      "inputs": [
        {
          "indexed": true,
          "internalType": "address",
          "name": "from",
          "type": "address"
        },
        {
          "indexed": true,
          "internalType": "address",
          "name": "to",
          "type": "address"
        },
        {
          "indexed": false,
          "internalType": "uint256",
          "name": "value",
          "type": "uint256"
        }
      ],
      "name": "Transfer",
      "type": "event"
    },
    {
      "anonymous": false,
      "inputs": [
        {
          "indexed": false,
          "internalType": "uint256",
          "name": "_amount",
          "type": "uint256"
        }
      ],
      "name": "YieldBoxDeposit",
      "type": "event"
    },
    {
      "anonymous": false,
      "inputs": [
        {
          "indexed": false,
          "internalType": "uint256",
          "name": "_amount",
          "type": "uint256"
        }
      ],
      "name": "YieldBoxRetrieval",
      "type": "event"
    },
    {
      "inputs": [],
      "name": "MINT_WINDOW",
      "outputs": [
        {
          "internalType": "uint256",
          "name": "",
          "type": "uint256"
        }
      ],
      "stateMutability": "view",
      "type": "function"
    },
    {
      "inputs": [],
      "name": "NO_EXTRA_GAS",
      "outputs": [
        {
          "internalType": "uint256",
          "name": "",
          "type": "uint256"
        }
      ],
      "stateMutability": "view",
      "type": "function"
    },
    {
      "inputs": [],
      "name": "PT_SEND",
      "outputs": [
        {
          "internalType": "uint16",
          "name": "",
          "type": "uint16"
        }
      ],
      "stateMutability": "view",
      "type": "function"
    },
    {
      "inputs": [],
      "name": "PT_YB_DEPOSIT",
      "outputs": [
        {
          "internalType": "uint16",
          "name": "",
          "type": "uint16"
        }
      ],
      "stateMutability": "view",
      "type": "function"
    },
    {
      "inputs": [],
      "name": "PT_YB_RETRIEVE_STRAT",
      "outputs": [
        {
          "internalType": "uint16",
          "name": "",
          "type": "uint16"
        }
      ],
      "stateMutability": "view",
      "type": "function"
    },
    {
      "inputs": [],
      "name": "PT_YB_SEND_STRAT",
      "outputs": [
        {
          "internalType": "uint16",
          "name": "",
          "type": "uint16"
        }
      ],
      "stateMutability": "view",
      "type": "function"
    },
    {
      "inputs": [],
      "name": "PT_YB_WITHDRAW",
      "outputs": [
        {
          "internalType": "uint16",
          "name": "",
          "type": "uint16"
        }
      ],
      "stateMutability": "view",
      "type": "function"
    },
    {
      "inputs": [
        {
          "internalType": "address",
          "name": "owner",
          "type": "address"
        },
        {
          "internalType": "address",
          "name": "spender",
          "type": "address"
        }
      ],
      "name": "allowance",
      "outputs": [
        {
          "internalType": "uint256",
          "name": "",
          "type": "uint256"
        }
      ],
      "stateMutability": "view",
      "type": "function"
    },
    {
      "inputs": [
        {
          "internalType": "uint256",
          "name": "",
          "type": "uint256"
        },
        {
          "internalType": "address",
          "name": "",
          "type": "address"
        }
      ],
      "name": "allowedBurner",
      "outputs": [
        {
          "internalType": "bool",
          "name": "",
          "type": "bool"
        }
      ],
      "stateMutability": "view",
      "type": "function"
    },
    {
      "inputs": [
        {
          "internalType": "uint256",
          "name": "",
          "type": "uint256"
        },
        {
          "internalType": "address",
          "name": "",
          "type": "address"
        }
      ],
      "name": "allowedMinter",
      "outputs": [
        {
          "internalType": "bool",
          "name": "",
          "type": "bool"
        }
      ],
      "stateMutability": "view",
      "type": "function"
    },
    {
      "inputs": [
        {
          "internalType": "address",
          "name": "spender",
          "type": "address"
        },
        {
          "internalType": "uint256",
          "name": "amount",
          "type": "uint256"
        }
      ],
      "name": "approve",
      "outputs": [
        {
          "internalType": "bool",
          "name": "",
          "type": "bool"
        }
      ],
      "stateMutability": "nonpayable",
      "type": "function"
    },
    {
      "inputs": [
        {
          "internalType": "address",
          "name": "account",
          "type": "address"
        }
      ],
      "name": "balanceOf",
      "outputs": [
        {
          "internalType": "uint256",
          "name": "",
          "type": "uint256"
        }
      ],
      "stateMutability": "view",
      "type": "function"
    },
    {
      "inputs": [
        {
          "internalType": "address",
          "name": "_from",
          "type": "address"
        },
        {
          "internalType": "uint256",
          "name": "_amount",
          "type": "uint256"
        }
      ],
      "name": "burn",
      "outputs": [],
      "stateMutability": "nonpayable",
      "type": "function"
    },
    {
      "inputs": [],
      "name": "circulatingSupply",
      "outputs": [
        {
          "internalType": "uint256",
          "name": "",
          "type": "uint256"
        }
      ],
      "stateMutability": "view",
      "type": "function"
    },
    {
      "inputs": [],
      "name": "conservator",
      "outputs": [
        {
          "internalType": "address",
          "name": "",
          "type": "address"
        }
      ],
      "stateMutability": "view",
      "type": "function"
    },
    {
      "inputs": [],
      "name": "decimals",
      "outputs": [
        {
          "internalType": "uint8",
          "name": "",
          "type": "uint8"
        }
      ],
      "stateMutability": "pure",
      "type": "function"
    },
    {
      "inputs": [
        {
          "internalType": "address",
          "name": "spender",
          "type": "address"
        },
        {
          "internalType": "uint256",
          "name": "subtractedValue",
          "type": "uint256"
        }
      ],
      "name": "decreaseAllowance",
      "outputs": [
        {
          "internalType": "bool",
          "name": "",
          "type": "bool"
        }
      ],
      "stateMutability": "nonpayable",
      "type": "function"
    },
    {
      "inputs": [
        {
          "internalType": "uint16",
          "name": "_dstChainId",
          "type": "uint16"
        },
        {
          "internalType": "bytes",
          "name": "_toAddress",
          "type": "bytes"
        },
        {
          "internalType": "uint256",
          "name": "_amount",
          "type": "uint256"
        },
        {
          "internalType": "bool",
          "name": "_useZro",
          "type": "bool"
        },
        {
          "internalType": "bytes",
          "name": "_adapterParams",
          "type": "bytes"
        }
      ],
      "name": "estimateSendFee",
      "outputs": [
        {
          "internalType": "uint256",
          "name": "nativeFee",
          "type": "uint256"
        },
        {
          "internalType": "uint256",
          "name": "zroFee",
          "type": "uint256"
        }
      ],
      "stateMutability": "view",
      "type": "function"
    },
    {
      "inputs": [
        {
          "internalType": "uint16",
          "name": "",
          "type": "uint16"
        },
        {
          "internalType": "bytes",
          "name": "",
          "type": "bytes"
        },
        {
          "internalType": "uint64",
          "name": "",
          "type": "uint64"
        }
      ],
      "name": "failedMessages",
      "outputs": [
        {
          "internalType": "bytes32",
          "name": "",
          "type": "bytes32"
        }
      ],
      "stateMutability": "view",
      "type": "function"
    },
    {
      "inputs": [
        {
          "internalType": "address",
          "name": "token",
          "type": "address"
        },
        {
          "internalType": "uint256",
          "name": "amount",
          "type": "uint256"
        }
      ],
      "name": "flashFee",
      "outputs": [
        {
          "internalType": "uint256",
          "name": "",
          "type": "uint256"
        }
      ],
      "stateMutability": "view",
      "type": "function"
    },
    {
      "inputs": [
        {
          "internalType": "contract IERC3156FlashBorrower",
          "name": "receiver",
          "type": "address"
        },
        {
          "internalType": "address",
          "name": "token",
          "type": "address"
        },
        {
          "internalType": "uint256",
          "name": "amount",
          "type": "uint256"
        },
        {
          "internalType": "bytes",
          "name": "data",
          "type": "bytes"
        }
      ],
      "name": "flashLoan",
      "outputs": [
        {
          "internalType": "bool",
          "name": "",
          "type": "bool"
        }
      ],
      "stateMutability": "nonpayable",
      "type": "function"
    },
    {
      "inputs": [],
      "name": "flashMintFee",
      "outputs": [
        {
          "internalType": "uint256",
          "name": "",
          "type": "uint256"
        }
      ],
      "stateMutability": "view",
      "type": "function"
    },
    {
      "inputs": [
        {
          "internalType": "uint16",
          "name": "_srcChainId",
          "type": "uint16"
        },
        {
          "internalType": "bytes",
          "name": "_srcAddress",
          "type": "bytes"
        }
      ],
      "name": "forceResumeReceive",
      "outputs": [],
      "stateMutability": "nonpayable",
      "type": "function"
    },
    {
      "inputs": [
        {
          "internalType": "uint256",
          "name": "_val",
          "type": "uint256"
        }
      ],
      "name": "freeMint",
      "outputs": [],
      "stateMutability": "nonpayable",
      "type": "function"
    },
    {
      "inputs": [
        {
          "internalType": "uint16",
          "name": "_version",
          "type": "uint16"
        },
        {
          "internalType": "uint16",
          "name": "_chainId",
          "type": "uint16"
        },
        {
          "internalType": "address",
          "name": "",
          "type": "address"
        },
        {
          "internalType": "uint256",
          "name": "_configType",
          "type": "uint256"
        }
      ],
      "name": "getConfig",
      "outputs": [
        {
          "internalType": "bytes",
          "name": "",
          "type": "bytes"
        }
      ],
      "stateMutability": "view",
      "type": "function"
    },
    {
      "inputs": [
        {
          "internalType": "uint16",
          "name": "_remoteChainId",
          "type": "uint16"
        }
      ],
      "name": "getTrustedRemoteAddress",
      "outputs": [
        {
          "internalType": "bytes",
          "name": "",
          "type": "bytes"
        }
      ],
      "stateMutability": "view",
      "type": "function"
    },
    {
      "inputs": [
        {
          "internalType": "address",
          "name": "spender",
          "type": "address"
        },
        {
          "internalType": "uint256",
          "name": "addedValue",
          "type": "uint256"
        }
      ],
      "name": "increaseAllowance",
      "outputs": [
        {
          "internalType": "bool",
          "name": "",
          "type": "bool"
        }
      ],
      "stateMutability": "nonpayable",
      "type": "function"
    },
    {
      "inputs": [
        {
          "internalType": "uint16",
          "name": "_srcChainId",
          "type": "uint16"
        },
        {
          "internalType": "bytes",
          "name": "_srcAddress",
          "type": "bytes"
        }
      ],
      "name": "isTrustedRemote",
      "outputs": [
        {
          "internalType": "bool",
          "name": "",
          "type": "bool"
        }
      ],
      "stateMutability": "view",
      "type": "function"
    },
    {
      "inputs": [],
      "name": "lzEndpoint",
      "outputs": [
        {
          "internalType": "contract ILayerZeroEndpoint",
          "name": "",
          "type": "address"
        }
      ],
      "stateMutability": "view",
      "type": "function"
    },
    {
      "inputs": [
        {
          "internalType": "uint16",
          "name": "_srcChainId",
          "type": "uint16"
        },
        {
          "internalType": "bytes",
          "name": "_srcAddress",
          "type": "bytes"
        },
        {
          "internalType": "uint64",
          "name": "_nonce",
          "type": "uint64"
        },
        {
          "internalType": "bytes",
          "name": "_payload",
          "type": "bytes"
        }
      ],
      "name": "lzReceive",
      "outputs": [],
      "stateMutability": "nonpayable",
      "type": "function"
    },
    {
      "inputs": [
        {
          "internalType": "address",
          "name": "",
          "type": "address"
        }
      ],
      "name": "maxFlashLoan",
      "outputs": [
        {
          "internalType": "uint256",
          "name": "",
          "type": "uint256"
        }
      ],
      "stateMutability": "view",
      "type": "function"
    },
    {
      "inputs": [],
      "name": "maxFlashMint",
      "outputs": [
        {
          "internalType": "uint256",
          "name": "",
          "type": "uint256"
        }
      ],
      "stateMutability": "view",
      "type": "function"
    },
    {
      "inputs": [
        {
          "internalType": "uint16",
          "name": "",
          "type": "uint16"
        },
        {
          "internalType": "uint16",
          "name": "",
          "type": "uint16"
        }
      ],
      "name": "minDstGasLookup",
      "outputs": [
        {
          "internalType": "uint256",
          "name": "",
          "type": "uint256"
        }
      ],
      "stateMutability": "view",
      "type": "function"
    },
    {
      "inputs": [
        {
          "internalType": "address",
          "name": "_to",
          "type": "address"
        },
        {
          "internalType": "uint256",
          "name": "_amount",
          "type": "uint256"
        }
      ],
      "name": "mint",
      "outputs": [],
      "stateMutability": "nonpayable",
      "type": "function"
    },
    {
      "inputs": [],
      "name": "mintLimit",
      "outputs": [
        {
          "internalType": "uint256",
          "name": "",
          "type": "uint256"
        }
      ],
      "stateMutability": "view",
      "type": "function"
    },
    {
      "inputs": [
        {
          "internalType": "address",
          "name": "",
          "type": "address"
        }
      ],
      "name": "mintedAt",
      "outputs": [
        {
          "internalType": "uint256",
          "name": "",
          "type": "uint256"
        }
      ],
      "stateMutability": "view",
      "type": "function"
    },
    {
      "inputs": [],
      "name": "name",
      "outputs": [
        {
          "internalType": "string",
          "name": "",
          "type": "string"
        }
      ],
      "stateMutability": "view",
      "type": "function"
    },
    {
      "inputs": [
        {
          "internalType": "uint16",
          "name": "_srcChainId",
          "type": "uint16"
        },
        {
          "internalType": "bytes",
          "name": "_srcAddress",
          "type": "bytes"
        },
        {
          "internalType": "uint64",
          "name": "_nonce",
          "type": "uint64"
        },
        {
          "internalType": "bytes",
          "name": "_payload",
          "type": "bytes"
        }
      ],
      "name": "nonblockingLzReceive",
      "outputs": [],
      "stateMutability": "nonpayable",
      "type": "function"
    },
    {
      "inputs": [],
      "name": "owner",
      "outputs": [
        {
          "internalType": "address",
          "name": "",
          "type": "address"
        }
      ],
      "stateMutability": "view",
      "type": "function"
    },
    {
      "inputs": [],
      "name": "paused",
      "outputs": [
        {
          "internalType": "bool",
          "name": "",
          "type": "bool"
        }
      ],
      "stateMutability": "view",
      "type": "function"
    },
    {
      "inputs": [],
      "name": "precrime",
      "outputs": [
        {
          "internalType": "address",
          "name": "",
          "type": "address"
        }
      ],
      "stateMutability": "view",
      "type": "function"
    },
    {
      "inputs": [],
      "name": "renounceOwnership",
      "outputs": [],
      "stateMutability": "nonpayable",
      "type": "function"
    },
    {
      "inputs": [
        {
          "internalType": "uint256",
          "name": "amount",
          "type": "uint256"
        },
        {
          "internalType": "uint256",
          "name": "assetId",
          "type": "uint256"
        },
        {
          "internalType": "uint16",
          "name": "lzDstChainId",
          "type": "uint16"
        },
        {
          "internalType": "address",
          "name": "zroPaymentAddress",
          "type": "address"
        },
        {
          "internalType": "bytes",
          "name": "airdropAdapterParam",
          "type": "bytes"
        },
        {
          "internalType": "bool",
          "name": "strategyWithdrawal",
          "type": "bool"
        }
      ],
      "name": "retrieveFromYB",
      "outputs": [],
      "stateMutability": "payable",
      "type": "function"
    },
    {
      "inputs": [
        {
          "internalType": "uint16",
          "name": "_srcChainId",
          "type": "uint16"
        },
        {
          "internalType": "bytes",
          "name": "_srcAddress",
          "type": "bytes"
        },
        {
          "internalType": "uint64",
          "name": "_nonce",
          "type": "uint64"
        },
        {
          "internalType": "bytes",
          "name": "_payload",
          "type": "bytes"
        }
      ],
      "name": "retryMessage",
      "outputs": [],
      "stateMutability": "payable",
      "type": "function"
    },
    {
      "inputs": [
        {
          "internalType": "address",
          "name": "_from",
          "type": "address"
        },
        {
          "internalType": "uint16",
          "name": "_dstChainId",
          "type": "uint16"
        },
        {
          "internalType": "bytes",
          "name": "_toAddress",
          "type": "bytes"
        },
        {
          "internalType": "uint256",
          "name": "_amount",
          "type": "uint256"
        },
        {
          "internalType": "address payable",
          "name": "_refundAddress",
          "type": "address"
        },
        {
          "internalType": "address",
          "name": "_zroPaymentAddress",
          "type": "address"
        },
        {
          "internalType": "bytes",
          "name": "_adapterParams",
          "type": "bytes"
        }
      ],
      "name": "sendFrom",
      "outputs": [],
      "stateMutability": "payable",
      "type": "function"
    },
    {
      "inputs": [
        {
          "internalType": "uint256",
          "name": "amount",
          "type": "uint256"
        },
        {
          "internalType": "uint256",
          "name": "assetId",
          "type": "uint256"
        },
        {
          "internalType": "uint16",
          "name": "lzDstChainId",
          "type": "uint16"
        },
        {
          "internalType": "uint256",
          "name": "extraGasLimit",
          "type": "uint256"
        },
        {
          "internalType": "address",
          "name": "zroPaymentAddress",
          "type": "address"
        },
        {
          "internalType": "bool",
          "name": "strategyDeposit",
          "type": "bool"
        }
      ],
      "name": "sendToYB",
      "outputs": [],
      "stateMutability": "payable",
      "type": "function"
    },
    {
      "inputs": [
        {
          "internalType": "address",
          "name": "_for",
          "type": "address"
        },
        {
          "internalType": "bool",
          "name": "_status",
          "type": "bool"
        }
      ],
      "name": "setBurnerStatus",
      "outputs": [],
      "stateMutability": "nonpayable",
      "type": "function"
    },
    {
      "inputs": [
        {
          "internalType": "uint16",
          "name": "_version",
          "type": "uint16"
        },
        {
          "internalType": "uint16",
          "name": "_chainId",
          "type": "uint16"
        },
        {
          "internalType": "uint256",
          "name": "_configType",
          "type": "uint256"
        },
        {
          "internalType": "bytes",
          "name": "_config",
          "type": "bytes"
        }
      ],
      "name": "setConfig",
      "outputs": [],
      "stateMutability": "nonpayable",
      "type": "function"
    },
    {
      "inputs": [
        {
          "internalType": "address",
          "name": "_conservator",
          "type": "address"
        }
      ],
      "name": "setConservator",
      "outputs": [],
      "stateMutability": "nonpayable",
      "type": "function"
    },
    {
      "inputs": [
        {
          "internalType": "uint256",
          "name": "_val",
          "type": "uint256"
        }
      ],
      "name": "setFlashMintFee",
      "outputs": [],
      "stateMutability": "nonpayable",
      "type": "function"
    },
    {
      "inputs": [
        {
          "internalType": "uint256",
          "name": "_val",
          "type": "uint256"
        }
      ],
      "name": "setMaxFlashMintable",
      "outputs": [],
      "stateMutability": "nonpayable",
      "type": "function"
    },
    {
      "inputs": [
        {
          "internalType": "uint16",
          "name": "_dstChainId",
          "type": "uint16"
        },
        {
          "internalType": "uint16",
          "name": "_packetType",
          "type": "uint16"
        },
        {
          "internalType": "uint256",
          "name": "_minGas",
          "type": "uint256"
        }
      ],
      "name": "setMinDstGas",
      "outputs": [],
      "stateMutability": "nonpayable",
      "type": "function"
    },
    {
      "inputs": [
        {
          "internalType": "uint256",
          "name": "_val",
          "type": "uint256"
        }
      ],
      "name": "setMintLimit",
      "outputs": [],
      "stateMutability": "nonpayable",
      "type": "function"
    },
    {
      "inputs": [
        {
          "internalType": "address",
          "name": "_for",
          "type": "address"
        },
        {
          "internalType": "bool",
          "name": "_status",
          "type": "bool"
        }
      ],
      "name": "setMinterStatus",
      "outputs": [],
      "stateMutability": "nonpayable",
      "type": "function"
    },
    {
      "inputs": [
        {
          "internalType": "address",
          "name": "_precrime",
          "type": "address"
        }
      ],
      "name": "setPrecrime",
      "outputs": [],
      "stateMutability": "nonpayable",
      "type": "function"
    },
    {
      "inputs": [
        {
          "internalType": "uint16",
          "name": "_version",
          "type": "uint16"
        }
      ],
      "name": "setReceiveVersion",
      "outputs": [],
      "stateMutability": "nonpayable",
      "type": "function"
    },
    {
      "inputs": [
        {
          "internalType": "uint16",
          "name": "_version",
          "type": "uint16"
        }
      ],
      "name": "setSendVersion",
      "outputs": [],
      "stateMutability": "nonpayable",
      "type": "function"
    },
    {
      "inputs": [
        {
          "internalType": "uint16",
          "name": "_srcChainId",
          "type": "uint16"
        },
        {
          "internalType": "bytes",
          "name": "_path",
          "type": "bytes"
        }
      ],
      "name": "setTrustedRemote",
      "outputs": [],
      "stateMutability": "nonpayable",
      "type": "function"
    },
    {
      "inputs": [
        {
          "internalType": "uint16",
          "name": "_remoteChainId",
          "type": "uint16"
        },
        {
          "internalType": "bytes",
          "name": "_remoteAddress",
          "type": "bytes"
        }
      ],
      "name": "setTrustedRemoteAddress",
      "outputs": [],
      "stateMutability": "nonpayable",
      "type": "function"
    },
    {
      "inputs": [
        {
          "internalType": "bool",
          "name": "_useCustomAdapterParams",
          "type": "bool"
        }
      ],
      "name": "setUseCustomAdapterParams",
      "outputs": [],
      "stateMutability": "nonpayable",
      "type": "function"
    },
    {
      "inputs": [
        {
          "internalType": "bytes4",
          "name": "interfaceId",
          "type": "bytes4"
        }
      ],
      "name": "supportsInterface",
      "outputs": [
        {
          "internalType": "bool",
          "name": "",
          "type": "bool"
        }
      ],
      "stateMutability": "view",
      "type": "function"
    },
    {
      "inputs": [],
      "name": "symbol",
      "outputs": [
        {
          "internalType": "string",
          "name": "",
          "type": "string"
        }
      ],
      "stateMutability": "view",
      "type": "function"
    },
    {
      "inputs": [],
      "name": "token",
      "outputs": [
        {
          "internalType": "address",
          "name": "",
          "type": "address"
        }
      ],
      "stateMutability": "view",
      "type": "function"
    },
    {
      "inputs": [],
      "name": "totalSupply",
      "outputs": [
        {
          "internalType": "uint256",
          "name": "",
          "type": "uint256"
        }
      ],
      "stateMutability": "view",
      "type": "function"
    },
    {
      "inputs": [
        {
          "internalType": "address",
          "name": "to",
          "type": "address"
        },
        {
          "internalType": "uint256",
          "name": "amount",
          "type": "uint256"
        }
      ],
      "name": "transfer",
      "outputs": [
        {
          "internalType": "bool",
          "name": "",
          "type": "bool"
        }
      ],
      "stateMutability": "nonpayable",
      "type": "function"
    },
    {
      "inputs": [
        {
          "internalType": "address",
          "name": "from",
          "type": "address"
        },
        {
          "internalType": "address",
          "name": "to",
          "type": "address"
        },
        {
          "internalType": "uint256",
          "name": "amount",
          "type": "uint256"
        }
      ],
      "name": "transferFrom",
      "outputs": [
        {
          "internalType": "bool",
          "name": "",
          "type": "bool"
        }
      ],
      "stateMutability": "nonpayable",
      "type": "function"
    },
    {
      "inputs": [
        {
          "internalType": "address",
          "name": "newOwner",
          "type": "address"
        }
      ],
      "name": "transferOwnership",
      "outputs": [],
      "stateMutability": "nonpayable",
      "type": "function"
    },
    {
      "inputs": [
        {
          "internalType": "uint16",
          "name": "",
          "type": "uint16"
        }
      ],
      "name": "trustedRemoteLookup",
      "outputs": [
        {
          "internalType": "bytes",
          "name": "",
          "type": "bytes"
        }
      ],
      "stateMutability": "view",
      "type": "function"
    },
    {
      "inputs": [
        {
          "internalType": "bool",
          "name": "val",
          "type": "bool"
        }
      ],
      "name": "updatePause",
      "outputs": [],
      "stateMutability": "nonpayable",
      "type": "function"
    },
    {
      "inputs": [],
      "name": "useCustomAdapterParams",
      "outputs": [
        {
          "internalType": "bool",
          "name": "",
          "type": "bool"
        }
      ],
      "stateMutability": "view",
      "type": "function"
    },
    {
      "inputs": [],
      "name": "yieldBox",
      "outputs": [
        {
          "internalType": "contract IYieldBox",
          "name": "",
          "type": "address"
        }
      ],
      "stateMutability": "view",
      "type": "function"
    },
    {
      "stateMutability": "payable",
      "type": "receive"
    }
  ],
  "transactionHash": "0x5021c6da058f491d5451e3a3db824643457e68c7b48c9c8855317bf709bd4c6d",
  "args": [
    "0xf69186dfBa60DdB133E91E9A4B5673624293d8F8",
    "0x3E6c224326e77F417636e10c74c7dC797B7c2bB1"
  ],
  "numDeployments": 1,
  "solcInputHash": "24914a44478217b31131c87c051e4aa1",
  "bytecode": "0x60c06040523480156200001157600080fd5b5060405162004cb038038062004cb083398101604081905262000034916200022c565b80604051806040016040528060048152602001630555344360e41b815250604051806040016040528060048152602001630555344360e41b8152508482828280806200008f620000896200014d60201b60201c565b62000151565b6001600160a01b03166080525060099050620000ac838262000310565b50600a620000bb828262000310565b5050506001600160a01b0390931660a0525060009150620000dd9050620001a1565b6000818152600c60209081526040808320338085529083528184208054600160ff199182168117909255958552600d8452828520918552925290912080549092161790555050600a600f555069152d02c7e14af68000006010556b033b2e3c9fd0803ce800000060125562000409565b3390565b600080546001600160a01b038381166001600160a01b0319831681178455604051919092169283917f8be0079c531659141344cd1fd0a4f28419497f9722a3daafe3b4186f6b6457e09190a35050565b60006080516001600160a01b0316633408e4706040518163ffffffff1660e01b8152600401602060405180830381865afa158015620001e4573d6000803e3d6000fd5b505050506040513d601f19601f820116820180604052508101906200020a9190620003dc565b61ffff16905090565b6001600160a01b03811681146200022957600080fd5b50565b600080604083850312156200024057600080fd5b82516200024d8162000213565b6020840151909250620002608162000213565b809150509250929050565b634e487b7160e01b600052604160045260246000fd5b600181811c908216806200029657607f821691505b602082108103620002b757634e487b7160e01b600052602260045260246000fd5b50919050565b601f8211156200030b57600081815260208120601f850160051c81016020861015620002e65750805b601f850160051c820191505b818110156200030757828155600101620002f2565b5050505b505050565b81516001600160401b038111156200032c576200032c6200026b565b62000344816200033d845462000281565b84620002bd565b602080601f8311600181146200037c5760008415620003635750858301515b600019600386901b1c1916600185901b17855562000307565b600085815260208120601f198616915b82811015620003ad578886015182559484019460019091019084016200038c565b5085821015620003cc5787850151600019600388901b60f8161c191681555b5050505050600190811b01905550565b600060208284031215620003ef57600080fd5b815161ffff811681146200040257600080fd5b9392505050565b60805160a05161483b620004756000396000610bba015260008181610a8501528181610d4701528181611066015281816111070152818161127d015281816114d701528181611f9d01528181612123015281816126b501528181612d33015261335c015261483b6000f3fe6080604052600436106104135760003560e01c80638da5cb5b1161021e578063bd92ab6b11610123578063eb8d72b7116100ab578063f2fde38b1161007a578063f2fde38b14610cb1578063f5ecbdbc14610cd1578063f8974de014610cf1578063fa74f0b514610d11578063fc0c546a14610d3157600080fd5b8063eb8d72b714610c1c578063ec6d062b14610c3c578063ed629c5c14610c77578063f00c298d14610c9157600080fd5b8063d9d98ce4116100f2578063d9d98ce414610b68578063dd62ed3e14610b88578063de40657714610ba8578063df2a5b3b14610bdc578063eab45d9c14610bfc57600080fd5b8063bd92ab6b14610b02578063cbed8b9c14610b15578063ce8849ed14610b35578063d1deba1f14610b5557600080fd5b80639e6a1d7d116101a6578063a9059cbb11610175578063a9059cbb14610a40578063ae9db24314610a60578063b353aaa714610a73578063ba03a8d714610aa7578063baf3292d14610ae257600080fd5b80639e6a1d7d146109c05780639f38369a146109e0578063a457c2d714610a00578063a6c3d16514610a2057600080fd5b8063950c8a74116101ed578063950c8a741461093f57806395d89b411461095f578063996517cf146109745780639d3f4d1a1461098a5780639dc29fac146109a057600080fd5b80638da5cb5b146108c25780639169d59e146108f45780639358928b14610914578063940a1dc01461092957600080fd5b80633d8b38f6116103245780635cffe9de116102ac57806370a082311161027b57806370a08231146107ff578063715018a6146108355780637533d7881461084a5780637c928fe91461086a5780638cfd8f5c1461088a57600080fd5b80635cffe9de14610787578063613255ab146107a757806366ad5c8a146107c95780636ef7980b146107e957600080fd5b80634c42899a116102f35780634c42899a146106e057806351905636146106f55780635b8c41e6146107085780635bfeaa05146107575780635c975abb1461076d57600080fd5b80633d8b38f61461066b57806340c10f191461068b57806342d65a8d146106ab57806344770515146106cb57600080fd5b806316d995a9116103a757806322ae81af1161037657806322ae81af146105c357806323b872dd146105da5780632a205e3d146105fa578063313ce5671461062f578063395093511461064b57600080fd5b806316d995a91461053757806318160ddd146105575780631d2a0e3d1461057657806321442ec91461059657600080fd5b806307e0db17116103e357806307e0db17146104c1578063095ea7b3146104e157806310ddb13714610501578063121dbc7c1461052157600080fd5b80621d35671461041f57806301ffc9a714610441578063069fd8491461047657806306fdde031461049f57600080fd5b3661041a57005b600080fd5b34801561042b57600080fd5b5061043f61043a36600461385c565b610d44565b005b34801561044d57600080fd5b5061046161045c3660046138f1565b610f75565b60405190151581526020015b60405180910390f35b34801561048257600080fd5b5061048c61030381565b60405161ffff909116815260200161046d565b3480156104ab57600080fd5b506104b4610fb3565b60405161046d9190613973565b3480156104cd57600080fd5b5061043f6104dc366004613986565b611045565b3480156104ed57600080fd5b506104616104fc3660046139b8565b6110ce565b34801561050d57600080fd5b5061043f61051c366004613986565b6110e6565b34801561052d57600080fd5b5061048c61030481565b34801561054357600080fd5b5061043f6105523660046139e4565b61113e565b34801561056357600080fd5b506008545b60405190815260200161046d565b34801561058257600080fd5b5061043f6105913660046139e4565b611187565b3480156105a257600080fd5b506105686105b13660046139fd565b60116020526000908152604090205481565b3480156105cf57600080fd5b506105686201518081565b3480156105e657600080fd5b506104616105f5366004613a1a565b611216565b34801561060657600080fd5b5061061a610615366004613a6b565b61123a565b6040805192835260208301919091520161046d565b34801561063b57600080fd5b506040516012815260200161046d565b34801561065757600080fd5b506104616106663660046139b8565b61130d565b34801561067757600080fd5b50610461610686366004613b0a565b61132f565b34801561069757600080fd5b5061043f6106a63660046139b8565b6113fb565b3480156106b757600080fd5b5061043f6106c6366004613b0a565b6114b8565b3480156106d757600080fd5b50610568600081565b3480156106ec57600080fd5b5061048c600081565b61043f610703366004613b5e565b61153e565b34801561071457600080fd5b50610568610723366004613cea565b6004602090815260009384526040808520845180860184018051928152908401958401959095209452929052825290205481565b34801561076357600080fd5b5061048c61030581565b34801561077957600080fd5b50600e546104619060ff1681565b34801561079357600080fd5b506104616107a2366004613d49565b6115c3565b3480156107b357600080fd5b506105686107c23660046139fd565b5060105490565b3480156107d557600080fd5b5061043f6107e436600461385c565b611861565b3480156107f557600080fd5b5061048c61030281565b34801561080b57600080fd5b5061056861081a3660046139fd565b6001600160a01b031660009081526006602052604090205490565b34801561084157600080fd5b5061043f61193d565b34801561085657600080fd5b506104b4610865366004613986565b611951565b34801561087657600080fd5b5061043f6108853660046139e4565b6119eb565b34801561089657600080fd5b506105686108a5366004613dbb565b600260209081526000928352604080842090915290825290205481565b3480156108ce57600080fd5b506000546001600160a01b03165b6040516001600160a01b03909116815260200161046d565b34801561090057600080fd5b5061043f61090f366004613df4565b611ab3565b34801561092057600080fd5b50610568611b2f565b34801561093557600080fd5b50610568600f5481565b34801561094b57600080fd5b506003546108dc906001600160a01b031681565b34801561096b57600080fd5b506104b4611b3f565b34801561098057600080fd5b5061056860125481565b34801561099657600080fd5b5061056860105481565b3480156109ac57600080fd5b5061043f6109bb3660046139b8565b611b4e565b3480156109cc57600080fd5b5061043f6109db3660046139e4565b611bff565b3480156109ec57600080fd5b506104b46109fb366004613986565b611c0c565b348015610a0c57600080fd5b50610461610a1b3660046139b8565b611d22565b348015610a2c57600080fd5b5061043f610a3b366004613b0a565b611d9d565b348015610a4c57600080fd5b50610461610a5b3660046139b8565b611e26565b61043f610a6e366004613e29565b611e34565b348015610a7f57600080fd5b506108dc7f000000000000000000000000000000000000000000000000000000000000000081565b348015610ab357600080fd5b50610461610ac2366004613ead565b600c60209081526000928352604080842090915290825290205460ff1681565b348015610aee57600080fd5b5061043f610afd3660046139fd565b611f16565b61043f610b10366004613ed2565b611f73565b348015610b2157600080fd5b5061043f610b30366004613f29565b612104565b348015610b4157600080fd5b50600b546108dc906001600160a01b031681565b61043f610b6336600461385c565b61218e565b348015610b7457600080fd5b50610568610b833660046139b8565b6123a4565b348015610b9457600080fd5b50610568610ba3366004613f5c565b612412565b348015610bb457600080fd5b506108dc7f000000000000000000000000000000000000000000000000000000000000000081565b348015610be857600080fd5b5061043f610bf7366004613f8a565b61243d565b348015610c0857600080fd5b5061043f610c17366004613fba565b6124ef565b348015610c2857600080fd5b5061043f610c37366004613b0a565b612538565b348015610c4857600080fd5b50610461610c57366004613ead565b600d60209081526000928352604080842090915290825290205460ff1681565b348015610c8357600080fd5b506005546104619060ff1681565b348015610c9d57600080fd5b5061043f610cac366004613df4565b612592565b348015610cbd57600080fd5b5061043f610ccc3660046139fd565b61260e565b348015610cdd57600080fd5b506104b4610cec366004613fd5565b612684565b348015610cfd57600080fd5b5061043f610d0c366004613fba565b612735565b348015610d1d57600080fd5b5061043f610d2c3660046139fd565b612800565b348015610d3d57600080fd5b50306108dc565b337f00000000000000000000000000000000000000000000000000000000000000006001600160a01b031614610dc15760405162461bcd60e51b815260206004820152601e60248201527f4c7a4170703a20696e76616c696420656e64706f696e742063616c6c6572000060448201526064015b60405180910390fd5b61ffff861660009081526001602052604081208054610ddf90614026565b80601f0160208091040260200160405190810160405280929190818152602001828054610e0b90614026565b8015610e585780601f10610e2d57610100808354040283529160200191610e58565b820191906000526020600020905b815481529060010190602001808311610e3b57829003601f168201915b50505050509050805186869050148015610e73575060008151115b8015610e9b575080516020820120604051610e919088908890614060565b6040518091039020145b610ef65760405162461bcd60e51b815260206004820152602660248201527f4c7a4170703a20696e76616c696420736f757263652073656e64696e6720636f6044820152651b9d1c9858dd60d21b6064820152608401610db8565b610f6c8787878080601f01602080910402602001604051908101604052809392919081815260200183838082843760009201919091525050604080516020601f8a018190048102820181019092528881528a9350915088908890819084018382808284376000920191909152506128ba92505050565b50505050505050565b60006001600160e01b031982161580610f9e57506001600160e01b031982166336372b0760e01b145b80610fad5750610fad82612933565b92915050565b606060098054610fc290614026565b80601f0160208091040260200160405190810160405280929190818152602001828054610fee90614026565b801561103b5780601f106110105761010080835404028352916020019161103b565b820191906000526020600020905b81548152906001019060200180831161101e57829003601f168201915b5050505050905090565b61104d612968565b6040516307e0db1760e01b815261ffff821660048201527f00000000000000000000000000000000000000000000000000000000000000006001600160a01b0316906307e0db17906024015b600060405180830381600087803b1580156110b357600080fd5b505af11580156110c7573d6000803e3d6000fd5b5050505050565b6000336110dc8185856129c2565b5060019392505050565b6110ee612968565b6040516310ddb13760e01b815261ffff821660048201527f00000000000000000000000000000000000000000000000000000000000000006001600160a01b0316906310ddb13790602401611099565b611146612968565b60105460408051918252602082018390527f7d04cf410385806a9ac3566ac4cca4e5eaba6cc242abbf98f4f44e4ac6f3e8ff910160405180910390a1601055565b61118f612968565b620f424081106111d55760405162461bcd60e51b8152602060048201526011602482015270555344303a2066656520746f6f2062696760781b6044820152606401610db8565b600f5460408051918252602082018390527fb3a985697c0361591fe9933703eb14ce1d74444a2d349080b6dec8da77a4082b910160405180910390a1600f55565b600033611224858285612ae7565b61122f858585612b61565b506001949350505050565b6000806000808989896040516020016112569493929190614099565b60408051601f198184030181529082905263040a7bb160e41b825291506001600160a01b037f000000000000000000000000000000000000000000000000000000000000000016906340a7bb10906112bc908d90309086908c908c908c906004016140c8565b6040805180830381865afa1580156112d8573d6000803e3d6000fd5b505050506040513d601f19601f820116820180604052508101906112fc919061411e565b925092505097509795505050505050565b6000336110dc8185856113208383612412565b61132a9190614158565b6129c2565b61ffff83166000908152600160205260408120805482919061135090614026565b80601f016020809104026020016040519081016040528092919081815260200182805461137c90614026565b80156113c95780601f1061139e576101008083540402835291602001916113c9565b820191906000526020600020905b8154815290600101906020018083116113ac57829003601f168201915b5050505050905083836040516113e0929190614060565b60405180910390208180519060200120149150509392505050565b600e5460ff161561141e5760405162461bcd60e51b8152600401610db890614170565b600c600061142a612d2f565b81526020808201929092526040908101600090812033825290925290205460ff166114675760405162461bcd60e51b8152600401610db890614196565b6114718282612dbc565b816001600160a01b03167f30385c845b448a36257a6a1716e6ad2e1bc2cbe333cde1e69fe849ad6511adfe826040516114ac91815260200190565b60405180910390a25050565b6114c0612968565b6040516342d65a8d60e01b81526001600160a01b037f000000000000000000000000000000000000000000000000000000000000000016906342d65a8d90611510908690869086906004016141c2565b600060405180830381600087803b15801561152a57600080fd5b505af1158015610f6c573d6000803e3d6000fd5b6115b8898989898080601f01602080910402602001604051908101604052809392919081815260200183838082843760009201919091525050604080516020601f8a018190048102820181019092528881528c93508b92508a918a908a9081908401838280828437600092019190915250612e9b92505050565b505050505050505050565b600e5460009060ff16156115e95760405162461bcd60e51b8152600401610db890614170565b6001600160a01b03851630146116395760405162461bcd60e51b81526020600482015260156024820152741554d10c0e881d1bdad95b881b9bdd081d985b1a59605a1b6044820152606401610db8565b8361164360105490565b10156116885760405162461bcd60e51b8152602060048201526014602482015273555344303a20616d6f756e7420746f6f2062696760601b6044820152606401610db8565b600084116116d15760405162461bcd60e51b81526020600482015260166024820152751554d10c0e88185b5bdd5b9d081b9bdd081d985b1a5960521b6044820152606401610db8565b60006116dd86866123a4565b90506116e98786612dbc565b6040516323e30c8b60e01b81527f439148f0bbc682ca079e46d6e2c2f0c1e3b820f1a291b069d8882abf8cf18dd9906001600160a01b038916906323e30c8b906117419033908b908b9088908c908c906004016141e0565b6020604051808303816000875af1158015611760573d6000803e3d6000fd5b505050506040513d601f19601f820116820180604052508101906117849190614227565b146117c05760405162461bcd60e51b815260206004820152600c60248201526b1554d10c0e8819985a5b195960a21b6044820152606401610db8565b60006117cc8830612412565b90506117d88287614158565b8110156118275760405162461bcd60e51b815260206004820152601860248201527f555344303a207265706179206e6f7420617070726f76656400000000000000006044820152606401610db8565b6118408830611836858a614158565b61132a9085614240565b6118538861184e8489614158565b612f2f565b506001979650505050505050565b3330146118bf5760405162461bcd60e51b815260206004820152602660248201527f4e6f6e626c6f636b696e674c7a4170703a2063616c6c6572206d7573742062656044820152650204c7a4170760d41b6064820152608401610db8565b6119358686868080601f01602080910402602001604051908101604052809392919081815260200183838082843760009201919091525050604080516020601f89018190048102820181019092528781528993509150879087908190840183828082843760009201919091525061307a92505050565b505050505050565b611945612968565b61194f60006130e1565b565b6001602052600090815260409020805461196a90614026565b80601f016020809104026020016040519081016040528092919081815260200182805461199690614026565b80156119e35780601f106119b8576101008083540402835291602001916119e3565b820191906000526020600020905b8154815290600101906020018083116119c657829003601f168201915b505050505081565b601254811115611a345760405162461bcd60e51b8152602060048201526014602482015273555344303a20616d6f756e7420746f6f2062696760601b6044820152606401610db8565b336000908152601160205260409020544290611a54906201518090614158565b1115611a945760405162461bcd60e51b815260206004820152600f60248201526e555344303a20746f6f206561726c7960881b6044820152606401610db8565b336000818152601160205260409020429055611ab09082612dbc565b50565b611abb612968565b80600d6000611ac8612d2f565b8152602080820192909252604090810160009081206001600160a01b03871680835290845290829020805460ff1916941515949094179093555183151581527fd7b463fb7e7be5d5389dafa46448b883b320f7c77f63a00c9db0e2865ccdb3d791016114ac565b6000611b3a60085490565b905090565b6060600a8054610fc290614026565b600e5460ff1615611b715760405162461bcd60e51b8152600401610db890614170565b600d6000611b7d612d2f565b81526020808201929092526040908101600090812033825290925290205460ff16611bba5760405162461bcd60e51b8152600401610db890614196565b611bc48282612f2f565b816001600160a01b03167f696de425f79f4a40bc6d2122ca50507f0efbeabbff86a84871b7196ab8ea8df7826040516114ac91815260200190565b611c07612968565b601255565b61ffff8116600090815260016020526040812080546060929190611c2f90614026565b80601f0160208091040260200160405190810160405280929190818152602001828054611c5b90614026565b8015611ca85780601f10611c7d57610100808354040283529160200191611ca8565b820191906000526020600020905b815481529060010190602001808311611c8b57829003601f168201915b505050505090508051600003611d005760405162461bcd60e51b815260206004820152601d60248201527f4c7a4170703a206e6f20747275737465642070617468207265636f72640000006044820152606401610db8565b611d1b600060148351611d139190614240565b839190613131565b9392505050565b60003381611d308286612412565b905083811015611d905760405162461bcd60e51b815260206004820152602560248201527f45524332303a2064656372656173656420616c6c6f77616e63652062656c6f77604482015264207a65726f60d81b6064820152608401610db8565b61122f82868684036129c2565b611da5612968565b818130604051602001611dba93929190614257565b60408051601f1981840301815291815261ffff8516600090815260016020522090611de590826142c3565b507f8c0400cfe2d1199b1a725c78960bcc2a344d869b80590d0f2bd005db15a572ce838383604051611e19939291906141c2565b60405180910390a1505050565b6000336110dc818585612b61565b600033604051602001611e479190614382565b6040516020818303038152906040529050600082611e6757610305611e6b565b6103035b33604051602001611e7c9190614382565b60408051601f1981840301815290829052611ea5929185908c906000908d908c9060200161439f565b6040516020818303038152906040529050611ec486823388883461323e565b336001600160a01b03168661ffff167f39a4c66499bcf4b56d79f0dde8ed7a9d4925a0df55825206b2b8531e202be0d0848b604051611f04929190614401565b60405180910390a35050505050505050565b611f1e612968565b600380546001600160a01b0319166001600160a01b0383169081179091556040519081527f5db758e995a17ec1ad84bdef7e8c3293a0bd6179bcce400dff5d4c3d87db726b906020015b60405180910390a150565b600033604051602001611f869190614382565b6040516020818303038152906040529050612024337f00000000000000000000000000000000000000000000000000000000000000006001600160a01b0316633408e4706040518163ffffffff1660e01b8152600401602060405180830381865afa158015611ff9573d6000803e3d6000fd5b505050506040513d601f19601f8201168201806040525081019061201d9190614423565b838a6133d8565b5060008261203457610304612038565b6103025b336040516020016120499190614382565b60408051601f198184030181529082905261206d929185908c908c90602001614440565b60408051601f19818403018152828252600160f01b6020840152602280840189905282518085039091018152604290930190915291506120b187833388853461323e565b336001600160a01b03168761ffff167f39a4c66499bcf4b56d79f0dde8ed7a9d4925a0df55825206b2b8531e202be0d0858c6040516120f1929190614401565b60405180910390a3505050505050505050565b61210c612968565b6040516332fb62e760e21b81526001600160a01b037f0000000000000000000000000000000000000000000000000000000000000000169063cbed8b9c906121609088908890889088908890600401614484565b600060405180830381600087803b15801561217a57600080fd5b505af11580156115b8573d6000803e3d6000fd5b61ffff861660009081526004602052604080822090516121b19088908890614060565b90815260408051602092819003830190206001600160401b038716600090815292529020549050806122315760405162461bcd60e51b815260206004820152602360248201527f4e6f6e626c6f636b696e674c7a4170703a206e6f2073746f726564206d65737360448201526261676560e81b6064820152608401610db8565b808383604051612242929190614060565b6040518091039020146122a15760405162461bcd60e51b815260206004820152602160248201527f4e6f6e626c6f636b696e674c7a4170703a20696e76616c6964207061796c6f616044820152601960fa1b6064820152608401610db8565b61ffff871660009081526004602052604080822090516122c49089908990614060565b90815260408051602092819003830181206001600160401b038916600090815290845282902093909355601f8801829004820283018201905286825261235c918991899089908190840183828082843760009201919091525050604080516020601f8a018190048102820181019092528881528a93509150889088908190840183828082843760009201919091525061307a92505050565b7fc264d91f3adc5588250e1551f547752ca0cfa8f6b530d243b9f9f4cab10ea8e587878787856040516123939594939291906144bd565b60405180910390a150505050505050565b60006001600160a01b03831630146123f65760405162461bcd60e51b81526020600482015260156024820152741554d10c0e881d1bdad95b881b9bdd081d985b1a59605a1b6044820152606401610db8565b620f4240600f548361240891906144f8565b611d1b9190614517565b6001600160a01b03918216600090815260076020908152604080832093909416825291909152205490565b612445612968565b6000811161248d5760405162461bcd60e51b81526020600482015260156024820152744c7a4170703a20696e76616c6964206d696e47617360581b6044820152606401610db8565b61ffff83811660008181526002602090815260408083209487168084529482529182902085905581519283528201929092529081018290527f9d5c7c0b934da8fefa9c7760c98383778a12dfbfc0c3b3106518f43fb9508ac090606001611e19565b6124f7612968565b6005805460ff19168215159081179091556040519081527f1584ad594a70cbe1e6515592e1272a987d922b097ead875069cebe8b40c004a490602001611f68565b612540612968565b61ffff8316600090815260016020526040902061255e828483614539565b507ffa41487ad5d6728f0b19276fa1eddc16558578f5109fc39d2dc33c3230470dab838383604051611e19939291906141c2565b61259a612968565b80600c60006125a7612d2f565b8152602080820192909252604090810160009081206001600160a01b03871680835290845290829020805460ff1916941515949094179093555183151581527f53b8f1e625ffdc96b26d9f5c6bba4ebc3f54077767495fa2619d32b285e193b991016114ac565b612616612968565b6001600160a01b03811661267b5760405162461bcd60e51b815260206004820152602660248201527f4f776e61626c653a206e6577206f776e657220697320746865207a65726f206160448201526564647265737360d01b6064820152608401610db8565b611ab0816130e1565b604051633d7b2f6f60e21b815261ffff808616600483015284166024820152306044820152606481018290526060907f00000000000000000000000000000000000000000000000000000000000000006001600160a01b03169063f5ecbdbc90608401600060405180830381865afa158015612704573d6000803e3d6000fd5b505050506040513d6000823e601f3d908101601f1916820160405261272c9190810190614645565b95945050505050565b600b546001600160a01b0316331461275f5760405162461bcd60e51b8152600401610db890614196565b600e5460ff161515811515036127aa5760405162461bcd60e51b815260206004820152601060248201526f555344303a2073616d6520737461746560801b6044820152606401610db8565b600e546040805160ff9092161515825282151560208301527f9c13c5f6c628c1c82eb2b3fd8714da5c2857dbd0ad8ab6b2074abcf81015d396910160405180910390a1600e805460ff1916911515919091179055565b612808612968565b6001600160a01b03811661285e5760405162461bcd60e51b815260206004820152601760248201527f555344303a2061646472657373206e6f742076616c69640000000000000000006044820152606401610db8565b600b546040516001600160a01b038084169216907f5a62d22209e370e38eea92cfddcd228e656e6ec139243392a760a7769f5877fd90600090a3600b80546001600160a01b0319166001600160a01b0392909216919091179055565b60008061291d5a60966366ad5c8a60e01b898989896040516024016128e29493929190614679565b60408051601f198184030181529190526020810180516001600160e01b03166001600160e01b0319909316929092179091523092919061340a565b9150915081611935576119358686868685613494565b60006001600160e01b03198216630a72677560e11b1480610fad57506301ffc9a760e01b6001600160e01b0319831614610fad565b6000546001600160a01b0316331461194f5760405162461bcd60e51b815260206004820181905260248201527f4f776e61626c653a2063616c6c6572206973206e6f7420746865206f776e65726044820152606401610db8565b6001600160a01b038316612a245760405162461bcd60e51b8152602060048201526024808201527f45524332303a20617070726f76652066726f6d20746865207a65726f206164646044820152637265737360e01b6064820152608401610db8565b6001600160a01b038216612a855760405162461bcd60e51b815260206004820152602260248201527f45524332303a20617070726f766520746f20746865207a65726f206164647265604482015261737360f01b6064820152608401610db8565b6001600160a01b0383811660008181526007602090815260408083209487168084529482529182902085905590518481527f8c5be1e5ebec7d5bd14f71427d1e84f3dd0314c0f7b2291e5b200ac8c7c3b92591015b60405180910390a3505050565b6000612af38484612412565b90506000198114612b5b5781811015612b4e5760405162461bcd60e51b815260206004820152601d60248201527f45524332303a20696e73756666696369656e7420616c6c6f77616e63650000006044820152606401610db8565b612b5b84848484036129c2565b50505050565b6001600160a01b038316612bc55760405162461bcd60e51b815260206004820152602560248201527f45524332303a207472616e736665722066726f6d20746865207a65726f206164604482015264647265737360d81b6064820152608401610db8565b6001600160a01b038216612c275760405162461bcd60e51b815260206004820152602360248201527f45524332303a207472616e7366657220746f20746865207a65726f206164647260448201526265737360e81b6064820152608401610db8565b6001600160a01b03831660009081526006602052604090205481811015612c9f5760405162461bcd60e51b815260206004820152602660248201527f45524332303a207472616e7366657220616d6f756e7420657863656564732062604482015265616c616e636560d01b6064820152608401610db8565b6001600160a01b03808516600090815260066020526040808220858503905591851681529081208054849290612cd6908490614158565b92505081905550826001600160a01b0316846001600160a01b03167fddf252ad1be2c89b69c2b068fc378daa952ba7f163c4a11628f55a4df523b3ef84604051612d2291815260200190565b60405180910390a3612b5b565b60007f00000000000000000000000000000000000000000000000000000000000000006001600160a01b0316633408e4706040518163ffffffff1660e01b8152600401602060405180830381865afa158015612d8f573d6000803e3d6000fd5b505050506040513d601f19601f82011682018060405250810190612db39190614423565b61ffff16905090565b6001600160a01b038216612e125760405162461bcd60e51b815260206004820152601f60248201527f45524332303a206d696e7420746f20746865207a65726f2061646472657373006044820152606401610db8565b8060086000828254612e249190614158565b90915550506001600160a01b03821660009081526006602052604081208054839290612e51908490614158565b90915550506040518181526001600160a01b038316906000907fddf252ad1be2c89b69c2b068fc378daa952ba7f163c4a11628f55a4df523b3ef9060200160405180910390a35050565b612ea9866000836000613531565b6000612eb7888888886133d8565b90506000808783604051602001612ed0939291906146b7565b6040516020818303038152906040529050612eef88828787873461323e565b886001600160a01b03168861ffff167f39a4c66499bcf4b56d79f0dde8ed7a9d4925a0df55825206b2b8531e202be0d089856040516120f1929190614401565b6001600160a01b038216612f8f5760405162461bcd60e51b815260206004820152602160248201527f45524332303a206275726e2066726f6d20746865207a65726f206164647265736044820152607360f81b6064820152608401610db8565b6001600160a01b038216600090815260066020526040902054818110156130035760405162461bcd60e51b815260206004820152602260248201527f45524332303a206275726e20616d6f756e7420657863656564732062616c616e604482015261636560f01b6064820152608401610db8565b6001600160a01b0383166000908152600660205260408120838303905560088054849290613032908490614240565b90915550506040518281526000906001600160a01b038516907fddf252ad1be2c89b69c2b068fc378daa952ba7f163c4a11628f55a4df523b3ef90602001612ada565b505050565b602081015161ffff811661309957613094858585856135ab565b6110c7565b60405162461bcd60e51b815260206004820152601c60248201527f4f4654436f72653a20756e6b6e6f776e207061636b65742074797065000000006044820152606401610db8565b600080546001600160a01b038381166001600160a01b0319831681178455604051919092169283917f8be0079c531659141344cd1fd0a4f28419497f9722a3daafe3b4186f6b6457e09190a35050565b60608161313f81601f614158565b101561317e5760405162461bcd60e51b815260206004820152600e60248201526d736c6963655f6f766572666c6f7760901b6044820152606401610db8565b6131888284614158565b845110156131cc5760405162461bcd60e51b8152602060048201526011602482015270736c6963655f6f75744f66426f756e647360781b6044820152606401610db8565b6060821580156131eb5760405191506000825260208201604052613235565b6040519150601f8416801560200281840101858101878315602002848b0101015b8183101561322457805183526020928301920161320c565b5050858452601f01601f1916604052505b50949350505050565b61ffff86166000908152600160205260408120805461325c90614026565b80601f016020809104026020016040519081016040528092919081815260200182805461328890614026565b80156132d55780601f106132aa576101008083540402835291602001916132d5565b820191906000526020600020905b8154815290600101906020018083116132b857829003601f168201915b5050505050905080516000036133465760405162461bcd60e51b815260206004820152603060248201527f4c7a4170703a2064657374696e6174696f6e20636861696e206973206e6f742060448201526f61207472757374656420736f7572636560801b6064820152608401610db8565b60405162c5803160e81b81526001600160a01b037f0000000000000000000000000000000000000000000000000000000000000000169063c580310090849061339d908b9086908c908c908c908c906004016146e4565b6000604051808303818588803b1580156133b657600080fd5b505af11580156133ca573d6000803e3d6000fd5b505050505050505050505050565b6000336001600160a01b03861681146133f6576133f6868285612ae7565b6134008684612f2f565b5090949350505050565b6000606060008060008661ffff166001600160401b0381111561342f5761342f613c27565b6040519080825280601f01601f191660200182016040528015613459576020820181803683370190505b50905060008087516020890160008d8df191503d92508683111561347b578692505b828152826000602083013e909890975095505050505050565b8180519060200120600460008761ffff1661ffff168152602001908152602001600020856040516134c5919061473e565b9081526040805191829003602090810183206001600160401b0388166000908152915220919091557fe183f33de2837795525b4792ca4cd60535bd77c53b7e7030060bfcf5734d6b0c90613522908790879087908790879061475a565b60405180910390a15050505050565b60055460ff161561354d5761354884848484613635565b612b5b565b815115612b5b5760405162461bcd60e51b815260206004820152602660248201527f4f4654436f72653a205f61646170746572506172616d73206d7573742062652060448201526532b6b83a3c9760d11b6064820152608401610db8565b600080828060200190518101906135c291906147ac565b9093509150600090506135d58382613714565b90506135e2878284613779565b9150806001600160a01b03168761ffff167fbf551ec93859b170f9b2141bd9298bf3f64322c6f7beb2543a0cb669834118bf8460405161362491815260200190565b60405180910390a350505050505050565b60006136408361378c565b61ffff808716600090815260026020908152604080832093891683529290529081205491925090613672908490614158565b9050600081116136c45760405162461bcd60e51b815260206004820152601a60248201527f4c7a4170703a206d696e4761734c696d6974206e6f74207365740000000000006044820152606401610db8565b808210156119355760405162461bcd60e51b815260206004820152601b60248201527f4c7a4170703a20676173206c696d697420697320746f6f206c6f7700000000006044820152606401610db8565b6000613721826014614158565b835110156137695760405162461bcd60e51b8152602060048201526015602482015274746f416464726573735f6f75744f66426f756e647360581b6044820152606401610db8565b500160200151600160601b900490565b60006137858383612dbc565b5092915050565b60006022825110156137e05760405162461bcd60e51b815260206004820152601c60248201527f4c7a4170703a20696e76616c69642061646170746572506172616d73000000006044820152606401610db8565b506022015190565b61ffff81168114611ab057600080fd5b60008083601f84011261380a57600080fd5b5081356001600160401b0381111561382157600080fd5b60208301915083602082850101111561383957600080fd5b9250929050565b80356001600160401b038116811461385757600080fd5b919050565b6000806000806000806080878903121561387557600080fd5b8635613880816137e8565b955060208701356001600160401b038082111561389c57600080fd5b6138a88a838b016137f8565b90975095508591506138bc60408a01613840565b945060608901359150808211156138d257600080fd5b506138df89828a016137f8565b979a9699509497509295939492505050565b60006020828403121561390357600080fd5b81356001600160e01b031981168114611d1b57600080fd5b60005b8381101561393657818101518382015260200161391e565b83811115612b5b5750506000910152565b6000815180845261395f81602086016020860161391b565b601f01601f19169290920160200192915050565b602081526000611d1b6020830184613947565b60006020828403121561399857600080fd5b8135611d1b816137e8565b6001600160a01b0381168114611ab057600080fd5b600080604083850312156139cb57600080fd5b82356139d6816139a3565b946020939093013593505050565b6000602082840312156139f657600080fd5b5035919050565b600060208284031215613a0f57600080fd5b8135611d1b816139a3565b600080600060608486031215613a2f57600080fd5b8335613a3a816139a3565b92506020840135613a4a816139a3565b929592945050506040919091013590565b8035801515811461385757600080fd5b600080600080600080600060a0888a031215613a8657600080fd5b8735613a91816137e8565b965060208801356001600160401b0380821115613aad57600080fd5b613ab98b838c016137f8565b909850965060408a01359550869150613ad460608b01613a5b565b945060808a0135915080821115613aea57600080fd5b50613af78a828b016137f8565b989b979a50959850939692959293505050565b600080600060408486031215613b1f57600080fd5b8335613b2a816137e8565b925060208401356001600160401b03811115613b4557600080fd5b613b51868287016137f8565b9497909650939450505050565b600080600080600080600080600060e08a8c031215613b7c57600080fd5b8935613b87816139a3565b985060208a0135613b97816137e8565b975060408a01356001600160401b0380821115613bb357600080fd5b613bbf8d838e016137f8565b909950975060608c0135965060808c01359150613bdb826139a3565b90945060a08b013590613bed826139a3565b90935060c08b01359080821115613c0357600080fd5b50613c108c828d016137f8565b915080935050809150509295985092959850929598565b634e487b7160e01b600052604160045260246000fd5b604051601f8201601f191681016001600160401b0381118282101715613c6557613c65613c27565b604052919050565b60006001600160401b03821115613c8657613c86613c27565b50601f01601f191660200190565b600082601f830112613ca557600080fd5b8135613cb8613cb382613c6d565b613c3d565b818152846020838601011115613ccd57600080fd5b816020850160208301376000918101602001919091529392505050565b600080600060608486031215613cff57600080fd5b8335613d0a816137e8565b925060208401356001600160401b03811115613d2557600080fd5b613d3186828701613c94565b925050613d4060408501613840565b90509250925092565b600080600080600060808688031215613d6157600080fd5b8535613d6c816139a3565b94506020860135613d7c816139a3565b93506040860135925060608601356001600160401b03811115613d9e57600080fd5b613daa888289016137f8565b969995985093965092949392505050565b60008060408385031215613dce57600080fd5b8235613dd9816137e8565b91506020830135613de9816137e8565b809150509250929050565b60008060408385031215613e0757600080fd5b8235613e12816139a3565b9150613e2060208401613a5b565b90509250929050565b60008060008060008060c08789031215613e4257600080fd5b86359550602087013594506040870135613e5b816137e8565b93506060870135613e6b816139a3565b925060808701356001600160401b03811115613e8657600080fd5b613e9289828a01613c94565b925050613ea160a08801613a5b565b90509295509295509295565b60008060408385031215613ec057600080fd5b823591506020830135613de9816139a3565b60008060008060008060c08789031215613eeb57600080fd5b86359550602087013594506040870135613f04816137e8565b9350606087013592506080870135613f1b816139a3565b9150613ea160a08801613a5b565b600080600080600060808688031215613f4157600080fd5b8535613f4c816137e8565b94506020860135613d7c816137e8565b60008060408385031215613f6f57600080fd5b8235613f7a816139a3565b91506020830135613de9816139a3565b600080600060608486031215613f9f57600080fd5b8335613faa816137e8565b92506020840135613a4a816137e8565b600060208284031215613fcc57600080fd5b611d1b82613a5b565b60008060008060808587031215613feb57600080fd5b8435613ff6816137e8565b93506020850135614006816137e8565b92506040850135614016816139a3565b9396929550929360600135925050565b600181811c9082168061403a57607f821691505b60208210810361405a57634e487b7160e01b600052602260045260246000fd5b50919050565b8183823760009101908152919050565b81835281816020850137506000828201602090810191909152601f909101601f19169091010190565b61ffff851681526060602082015260006140b7606083018587614070565b905082604083015295945050505050565b61ffff871681526001600160a01b038616602082015260a0604082018190526000906140f690830187613947565b85151560608401528281036080840152614111818587614070565b9998505050505050505050565b6000806040838503121561413157600080fd5b505080516020909101519092909150565b634e487b7160e01b600052601160045260246000fd5b6000821982111561416b5761416b614142565b500190565b6020808252600c908201526b1554d10c0e881c185d5cd95960a21b604082015260600190565b6020808252601290820152711554d10c0e881d5b985d5d1a1bdc9a5e995960721b604082015260600190565b61ffff8416815260406020820152600061272c604083018486614070565b6001600160a01b03878116825286166020820152604081018590526060810184905260a06080820181905260009061421b9083018486614070565b98975050505050505050565b60006020828403121561423957600080fd5b5051919050565b60008282101561425257614252614142565b500390565b8284823760609190911b6bffffffffffffffffffffffff19169101908152601401919050565b601f82111561307557600081815260208120601f850160051c810160208610156142a45750805b601f850160051c820191505b81811015611935578281556001016142b0565b81516001600160401b038111156142dc576142dc613c27565b6142f0816142ea8454614026565b8461427d565b602080601f831160018114614325576000841561430d5750858301515b600019600386901b1c1916600185901b178555611935565b600085815260208120601f198616915b8281101561435457888601518255948401946001909101908401614335565b50858210156143725787850151600019600388901b60f8161c191681555b5050505050600190811b01905550565b60609190911b6bffffffffffffffffffffffff1916815260140190565b61ffff8816815260e0602082015260006143bc60e0830189613947565b82810360408401526143ce8189613947565b6060840197909752505060ff93909316608084015260a08301919091526001600160a01b031660c0909101529392505050565b6040815260006144146040830185613947565b90508260208301529392505050565b60006020828403121561443557600080fd5b8151611d1b816137e8565b61ffff8616815260a06020820152600061445d60a0830187613947565b828103604084015261446f8187613947565b60608401959095525050608001529392505050565b600061ffff8088168352808716602084015250846040830152608060608301526144b2608083018486614070565b979650505050505050565b61ffff861681526080602082015260006144db608083018688614070565b6001600160401b0394909416604083015250606001529392505050565b600081600019048311821515161561451257614512614142565b500290565b60008261453457634e487b7160e01b600052601260045260246000fd5b500490565b6001600160401b0383111561455057614550613c27565b6145648361455e8354614026565b8361427d565b6000601f84116001811461459857600085156145805750838201355b600019600387901b1c1916600186901b1783556110c7565b600083815260209020601f19861690835b828110156145c957868501358255602094850194600190920191016145a9565b50868210156145e65760001960f88860031b161c19848701351681555b505060018560011b0183555050505050565b600082601f83011261460957600080fd5b8151614617613cb382613c6d565b81815284602083860101111561462c57600080fd5b61463d82602083016020870161391b565b949350505050565b60006020828403121561465757600080fd5b81516001600160401b0381111561466d57600080fd5b61463d848285016145f8565b61ffff851681526080602082015260006146966080830186613947565b6001600160401b038516604084015282810360608401526144b28185613947565b61ffff841681526060602082015260006146d46060830185613947565b9050826040830152949350505050565b61ffff8716815260c06020820152600061470160c0830188613947565b82810360408401526147138188613947565b6001600160a01b0387811660608601528616608085015283810360a085015290506141118185613947565b6000825161475081846020870161391b565b9190910192915050565b61ffff8616815260a06020820152600061477760a0830187613947565b6001600160401b038616604084015282810360608401526147988186613947565b9050828103608084015261421b8185613947565b6000806000606084860312156147c157600080fd5b83516147cc816137e8565b60208501519093506001600160401b038111156147e857600080fd5b6147f4868287016145f8565b92505060408401519050925092509256fea26469706673582212209382b5da659ba94c751913768e78b8fc146bb9b9740efc585e1651fa9003e9b364736f6c634300080f0033",
  "devdoc": {
    "kind": "dev",
    "methods": {
      "allowance(address,address)": {
        "details": "See {IERC20-allowance}."
      },
      "approve(address,uint256)": {
        "details": "See {IERC20-approve}. NOTE: If `amount` is the maximum `uint256`, the allowance is not updated on `transferFrom`. This is semantically equivalent to an infinite approval. Requirements: - `spender` cannot be the zero address."
      },
      "balanceOf(address)": {
        "details": "See {IERC20-balanceOf}."
      },
      "burn(address,uint256)": {
        "params": {
          "_amount": "the amount to burn",
          "_from": "address to burn from"
        }
      },
      "circulatingSupply()": {
        "details": "returns the circulating amount of tokens on current chain"
      },
      "constructor": {
        "params": {
          "_lzEndpoint": "LayerZero endpoint"
        }
      },
      "decreaseAllowance(address,uint256)": {
        "details": "Atomically decreases the allowance granted to `spender` by the caller. This is an alternative to {approve} that can be used as a mitigation for problems described in {IERC20-approve}. Emits an {Approval} event indicating the updated allowance. Requirements: - `spender` cannot be the zero address. - `spender` must have allowance for the caller of at least `subtractedValue`."
      },
      "estimateSendFee(uint16,bytes,uint256,bool,bytes)": {
        "details": "estimate send token `_tokenId` to (`_dstChainId`, `_toAddress`) _dstChainId - L0 defined chain id to send tokens too _toAddress - dynamic bytes array which contains the address to whom you are sending tokens to on the dstChain _amount - amount of the tokens to transfer _useZro - indicates to use zro to pay L0 fees _adapterParam - flexible bytes array to indicate messaging adapter services in L0"
      },
      "increaseAllowance(address,uint256)": {
        "details": "Atomically increases the allowance granted to `spender` by the caller. This is an alternative to {approve} that can be used as a mitigation for problems described in {IERC20-approve}. Emits an {Approval} event indicating the updated allowance. Requirements: - `spender` cannot be the zero address."
      },
      "mint(address,uint256)": {
        "params": {
          "_amount": "the amount to mint",
          "_to": "receiver address"
        }
      },
      "name()": {
        "details": "Returns the name of the token."
      },
      "owner()": {
        "details": "Returns the address of the current owner."
      },
      "renounceOwnership()": {
        "details": "Leaves the contract without owner. It will not be possible to call `onlyOwner` functions anymore. Can only be called by the current owner. NOTE: Renouncing ownership will leave the contract without an owner, thereby removing any functionality that is only available to the owner."
      },
      "sendFrom(address,uint16,bytes,uint256,address,address,bytes)": {
        "details": "send `_amount` amount of token to (`_dstChainId`, `_toAddress`) from `_from` `_from` the owner of token `_dstChainId` the destination chain identifier `_toAddress` can be any size depending on the `dstChainId`. `_amount` the quantity of tokens in wei `_refundAddress` the address LayerZero refunds if too much message fee is sent `_zroPaymentAddress` set to address(0x0) if not paying in ZRO (LayerZero Token) `_adapterParams` is a flexible bytes array to indicate messaging adapter services"
      },
      "setBurnerStatus(address,bool)": {
        "params": {
          "_for": "role receiver",
          "_status": "true/false"
        }
      },
      "setConservator(address)": {
        "details": "Conservator can pause the contract",
        "params": {
          "_conservator": "The new address"
        }
      },
      "setFlashMintFee(uint256)": {
        "params": {
          "_val": "the new fee"
        }
      },
      "setMaxFlashMintable(uint256)": {
        "params": {
          "_val": "the new amount"
        }
      },
      "setMinterStatus(address,bool)": {
        "params": {
          "_for": "role receiver",
          "_status": "true/false"
        }
      },
      "symbol()": {
        "details": "Returns the symbol of the token, usually a shorter version of the name."
      },
      "token()": {
        "details": "returns the address of the ERC20 token"
      },
      "totalSupply()": {
        "details": "See {IERC20-totalSupply}."
      },
      "transfer(address,uint256)": {
        "details": "See {IERC20-transfer}. Requirements: - `to` cannot be the zero address. - the caller must have a balance of at least `amount`."
      },
      "transferFrom(address,address,uint256)": {
        "details": "See {IERC20-transferFrom}. Emits an {Approval} event indicating the updated allowance. This is not required by the EIP. See the note at the beginning of {ERC20}. NOTE: Does not update the allowance if the current allowance is the maximum `uint256`. Requirements: - `from` and `to` cannot be the zero address. - `from` must have a balance of at least `amount`. - the caller must have allowance for ``from``'s tokens of at least `amount`."
      },
      "transferOwnership(address)": {
        "details": "Transfers ownership of the contract to a new account (`newOwner`). Can only be called by the current owner."
      },
      "updatePause(bool)": {
        "params": {
          "val": "the new value"
        }
      }
    },
    "stateVariables": {
      "allowedBurner": {
        "details": "chainId>address>status"
      },
      "allowedMinter": {
        "details": "chainId>address>status"
      }
    },
    "title": "USD0 OFT contract",
    "version": 1
  },
  "userdoc": {
    "errors": {
      "TOFT_YB_ETHDeposit()": [
        {
          "notice": "========================== ========== Errors ======== ==========================Error while depositing ETH assets to YieldBox."
        }
      ]
    },
    "events": {
      "YieldBoxDeposit(uint256)": {
        "notice": "========================== ========== Events ======== =========================="
      }
    },
    "kind": "user",
    "methods": {
      "allowedBurner(uint256,address)": {
        "notice": "addresses allowed to burn USD0"
      },
      "allowedMinter(uint256,address)": {
        "notice": "addresses allowed to mint USD0"
      },
      "burn(address,uint256)": {
        "notice": "burns USD0"
      },
      "conservator()": {
        "notice": "returns the Conservator address"
      },
      "constructor": {
        "notice": "creates a new USDO0 OFT contract"
      },
      "decimals()": {
        "notice": "returns token's decimals"
      },
      "flashFee(address,uint256)": {
        "notice": "returns the flash mint fee"
      },
      "flashMintFee()": {
        "notice": "returns the flash mint fee"
      },
      "maxFlashLoan(address)": {
        "notice": "returns the maximum amount of tokens available for a flash mint"
      },
      "maxFlashMint()": {
        "notice": "returns the maximum amount of USD0 that can be minted through the EIP-3156 flow"
      },
      "mint(address,uint256)": {
        "notice": "mints USD0"
      },
      "paused()": {
        "notice": "returns the pause state of the contract"
      },
      "setBurnerStatus(address,bool)": {
        "notice": "sets/unsets address as burner"
      },
      "setConservator(address)": {
        "notice": "Set the Conservator address"
      },
      "setFlashMintFee(uint256)": {
        "notice": "set the flashloan fee"
      },
      "setMaxFlashMintable(uint256)": {
        "notice": "set the max allowed USD0 mintable through flashloan"
      },
      "setMinterStatus(address,bool)": {
        "notice": "sets/unsets address as minter"
      },
      "updatePause(bool)": {
        "notice": "updates the pause state of the contract"
      },
      "yieldBox()": {
        "notice": "The YieldBox address."
      }
    },
    "version": 1
  },
  "storageLayout": {
    "storage": [
      {
        "astId": 2198,
        "contract": "contracts/usd0/USD0.sol:USD0",
        "label": "_owner",
        "offset": 0,
        "slot": "0",
        "type": "t_address"
      },
      {
        "astId": 21631,
        "contract": "contracts/usd0/USD0.sol:USD0",
        "label": "trustedRemoteLookup",
        "offset": 0,
        "slot": "1",
        "type": "t_mapping(t_uint16,t_bytes_storage)"
      },
      {
        "astId": 21637,
        "contract": "contracts/usd0/USD0.sol:USD0",
        "label": "minDstGasLookup",
        "offset": 0,
        "slot": "2",
        "type": "t_mapping(t_uint16,t_mapping(t_uint16,t_uint256))"
      },
      {
        "astId": 21639,
        "contract": "contracts/usd0/USD0.sol:USD0",
        "label": "precrime",
        "offset": 0,
        "slot": "3",
        "type": "t_address"
      },
      {
        "astId": 22124,
        "contract": "contracts/usd0/USD0.sol:USD0",
        "label": "failedMessages",
        "offset": 0,
        "slot": "4",
        "type": "t_mapping(t_uint16,t_mapping(t_bytes_memory_ptr,t_mapping(t_uint64,t_bytes32)))"
      },
      {
        "astId": 22589,
        "contract": "contracts/usd0/USD0.sol:USD0",
        "label": "useCustomAdapterParams",
        "offset": 0,
        "slot": "5",
        "type": "t_bool"
      },
      {
        "astId": 2319,
        "contract": "contracts/usd0/USD0.sol:USD0",
        "label": "_balances",
        "offset": 0,
        "slot": "6",
        "type": "t_mapping(t_address,t_uint256)"
      },
      {
        "astId": 2325,
        "contract": "contracts/usd0/USD0.sol:USD0",
        "label": "_allowances",
        "offset": 0,
        "slot": "7",
        "type": "t_mapping(t_address,t_mapping(t_address,t_uint256))"
      },
      {
        "astId": 2327,
        "contract": "contracts/usd0/USD0.sol:USD0",
        "label": "_totalSupply",
        "offset": 0,
        "slot": "8",
        "type": "t_uint256"
      },
      {
        "astId": 2329,
        "contract": "contracts/usd0/USD0.sol:USD0",
        "label": "_name",
        "offset": 0,
        "slot": "9",
        "type": "t_string_storage"
      },
      {
        "astId": 2331,
        "contract": "contracts/usd0/USD0.sol:USD0",
        "label": "_symbol",
        "offset": 0,
        "slot": "10",
        "type": "t_string_storage"
      },
      {
        "astId": 10767,
        "contract": "contracts/usd0/USD0.sol:USD0",
        "label": "conservator",
        "offset": 0,
        "slot": "11",
        "type": "t_address"
      },
      {
        "astId": 10774,
        "contract": "contracts/usd0/USD0.sol:USD0",
        "label": "allowedMinter",
        "offset": 0,
        "slot": "12",
        "type": "t_mapping(t_uint256,t_mapping(t_address,t_bool))"
      },
      {
        "astId": 10781,
        "contract": "contracts/usd0/USD0.sol:USD0",
        "label": "allowedBurner",
        "offset": 0,
        "slot": "13",
        "type": "t_mapping(t_uint256,t_mapping(t_address,t_bool))"
      },
      {
        "astId": 10784,
        "contract": "contracts/usd0/USD0.sol:USD0",
        "label": "paused",
        "offset": 0,
        "slot": "14",
        "type": "t_bool"
      },
      {
        "astId": 10787,
        "contract": "contracts/usd0/USD0.sol:USD0",
        "label": "flashMintFee",
        "offset": 0,
        "slot": "15",
        "type": "t_uint256"
      },
      {
        "astId": 10790,
        "contract": "contracts/usd0/USD0.sol:USD0",
        "label": "maxFlashMint",
        "offset": 0,
        "slot": "16",
        "type": "t_uint256"
      },
      {
        "astId": 11323,
        "contract": "contracts/usd0/USD0.sol:USD0",
        "label": "mintedAt",
        "offset": 0,
        "slot": "17",
        "type": "t_mapping(t_address,t_uint256)"
      },
      {
        "astId": 11328,
        "contract": "contracts/usd0/USD0.sol:USD0",
        "label": "mintLimit",
        "offset": 0,
        "slot": "18",
        "type": "t_uint256"
      }
    ],
    "types": {
      "t_address": {
        "encoding": "inplace",
        "label": "address",
        "numberOfBytes": "20"
      },
      "t_bool": {
        "encoding": "inplace",
        "label": "bool",
        "numberOfBytes": "1"
      },
      "t_bytes32": {
        "encoding": "inplace",
        "label": "bytes32",
        "numberOfBytes": "32"
      },
      "t_bytes_memory_ptr": {
        "encoding": "bytes",
        "label": "bytes",
        "numberOfBytes": "32"
      },
      "t_bytes_storage": {
        "encoding": "bytes",
        "label": "bytes",
        "numberOfBytes": "32"
      },
      "t_mapping(t_address,t_bool)": {
        "encoding": "mapping",
        "key": "t_address",
        "label": "mapping(address => bool)",
        "numberOfBytes": "32",
        "value": "t_bool"
      },
      "t_mapping(t_address,t_mapping(t_address,t_uint256))": {
        "encoding": "mapping",
        "key": "t_address",
        "label": "mapping(address => mapping(address => uint256))",
        "numberOfBytes": "32",
        "value": "t_mapping(t_address,t_uint256)"
      },
      "t_mapping(t_address,t_uint256)": {
        "encoding": "mapping",
        "key": "t_address",
        "label": "mapping(address => uint256)",
        "numberOfBytes": "32",
        "value": "t_uint256"
      },
      "t_mapping(t_bytes_memory_ptr,t_mapping(t_uint64,t_bytes32))": {
        "encoding": "mapping",
        "key": "t_bytes_memory_ptr",
        "label": "mapping(bytes => mapping(uint64 => bytes32))",
        "numberOfBytes": "32",
        "value": "t_mapping(t_uint64,t_bytes32)"
      },
      "t_mapping(t_uint16,t_bytes_storage)": {
        "encoding": "mapping",
        "key": "t_uint16",
        "label": "mapping(uint16 => bytes)",
        "numberOfBytes": "32",
        "value": "t_bytes_storage"
      },
      "t_mapping(t_uint16,t_mapping(t_bytes_memory_ptr,t_mapping(t_uint64,t_bytes32)))": {
        "encoding": "mapping",
        "key": "t_uint16",
        "label": "mapping(uint16 => mapping(bytes => mapping(uint64 => bytes32)))",
        "numberOfBytes": "32",
        "value": "t_mapping(t_bytes_memory_ptr,t_mapping(t_uint64,t_bytes32))"
      },
      "t_mapping(t_uint16,t_mapping(t_uint16,t_uint256))": {
        "encoding": "mapping",
        "key": "t_uint16",
        "label": "mapping(uint16 => mapping(uint16 => uint256))",
        "numberOfBytes": "32",
        "value": "t_mapping(t_uint16,t_uint256)"
      },
      "t_mapping(t_uint16,t_uint256)": {
        "encoding": "mapping",
        "key": "t_uint16",
        "label": "mapping(uint16 => uint256)",
        "numberOfBytes": "32",
        "value": "t_uint256"
      },
      "t_mapping(t_uint256,t_mapping(t_address,t_bool))": {
        "encoding": "mapping",
        "key": "t_uint256",
        "label": "mapping(uint256 => mapping(address => bool))",
        "numberOfBytes": "32",
        "value": "t_mapping(t_address,t_bool)"
      },
      "t_mapping(t_uint64,t_bytes32)": {
        "encoding": "mapping",
        "key": "t_uint64",
        "label": "mapping(uint64 => bytes32)",
        "numberOfBytes": "32",
        "value": "t_bytes32"
      },
      "t_string_storage": {
        "encoding": "bytes",
        "label": "string",
        "numberOfBytes": "32"
      },
      "t_uint16": {
        "encoding": "inplace",
        "label": "uint16",
        "numberOfBytes": "2"
      },
      "t_uint256": {
        "encoding": "inplace",
        "label": "uint256",
        "numberOfBytes": "32"
      },
      "t_uint64": {
        "encoding": "inplace",
        "label": "uint64",
        "numberOfBytes": "8"
      }
    }
  }
}