{
  "address": "0x8514f907386C4dd6bf214d7c3178c15C9954877f",
  "abi": [
    {
      "inputs": [
        {
          "internalType": "contract TapiocaBar",
          "name": "tapiocaBar_",
          "type": "address"
        },
        {
          "internalType": "contract IERC20",
          "name": "_asset",
          "type": "address"
        },
        {
          "internalType": "uint256",
          "name": "_assetId",
          "type": "uint256"
        },
        {
          "internalType": "contract IERC20",
          "name": "_collateral",
          "type": "address"
        },
        {
          "internalType": "uint256",
          "name": "_collateralId",
          "type": "uint256"
        },
        {
          "internalType": "contract IOracle",
          "name": "_oracle",
          "type": "address"
        }
      ],
      "stateMutability": "nonpayable",
      "type": "constructor"
    },
    {
      "anonymous": false,
      "inputs": [
        {
          "indexed": true,
          "internalType": "address",
          "name": "_owner",
          "type": "address"
        },
        {
          "indexed": true,
          "internalType": "address",
          "name": "_spender",
          "type": "address"
        },
        {
          "indexed": false,
          "internalType": "uint256",
          "name": "_value",
          "type": "uint256"
        }
      ],
      "name": "Approval",
      "type": "event"
    },
    {
      "anonymous": false,
      "inputs": [
        {
          "indexed": false,
          "internalType": "uint256",
          "name": "accruedAmount",
          "type": "uint256"
        },
        {
          "indexed": false,
          "internalType": "uint256",
          "name": "feeFraction",
          "type": "uint256"
        },
        {
          "indexed": false,
          "internalType": "uint64",
          "name": "rate",
          "type": "uint64"
        },
        {
          "indexed": false,
          "internalType": "uint256",
          "name": "utilization",
          "type": "uint256"
        }
      ],
      "name": "LogAccrue",
      "type": "event"
    },
    {
      "anonymous": false,
      "inputs": [
        {
          "indexed": true,
          "internalType": "address",
          "name": "from",
          "type": "address"
        },
        {
          "indexed": true,
          "internalType": "address",
          "name": "to",
          "type": "address"
        },
        {
          "indexed": false,
          "internalType": "uint256",
          "name": "share",
          "type": "uint256"
        },
        {
          "indexed": false,
          "internalType": "uint256",
          "name": "fraction",
          "type": "uint256"
        }
      ],
      "name": "LogAddAsset",
      "type": "event"
    },
    {
      "anonymous": false,
      "inputs": [
        {
          "indexed": true,
          "internalType": "address",
          "name": "from",
          "type": "address"
        },
        {
          "indexed": true,
          "internalType": "address",
          "name": "to",
          "type": "address"
        },
        {
          "indexed": false,
          "internalType": "uint256",
          "name": "share",
          "type": "uint256"
        }
      ],
      "name": "LogAddCollateral",
      "type": "event"
    },
    {
      "anonymous": false,
      "inputs": [
        {
          "indexed": true,
          "internalType": "address",
          "name": "from",
          "type": "address"
        },
        {
          "indexed": true,
          "internalType": "address",
          "name": "to",
          "type": "address"
        },
        {
          "indexed": false,
          "internalType": "uint256",
          "name": "amount",
          "type": "uint256"
        },
        {
          "indexed": false,
          "internalType": "uint256",
          "name": "feeAmount",
          "type": "uint256"
        },
        {
          "indexed": false,
          "internalType": "uint256",
          "name": "part",
          "type": "uint256"
        }
      ],
      "name": "LogBorrow",
      "type": "event"
    },
    {
      "anonymous": false,
      "inputs": [
        {
          "indexed": false,
          "internalType": "uint256",
          "name": "rate",
          "type": "uint256"
        }
      ],
      "name": "LogExchangeRate",
      "type": "event"
    },
    {
      "anonymous": false,
      "inputs": [
        {
          "indexed": true,
          "internalType": "address",
          "name": "newFeeTo",
          "type": "address"
        }
      ],
      "name": "LogFeeTo",
      "type": "event"
    },
    {
      "anonymous": false,
      "inputs": [
        {
          "indexed": true,
          "internalType": "address",
          "name": "borrower",
          "type": "address"
        },
        {
          "indexed": false,
          "internalType": "uint256",
          "name": "amount",
          "type": "uint256"
        },
        {
          "indexed": false,
          "internalType": "uint256",
          "name": "feeAmount",
          "type": "uint256"
        },
        {
          "indexed": true,
          "internalType": "address",
          "name": "receiver",
          "type": "address"
        }
      ],
      "name": "LogFlashLoan",
      "type": "event"
    },
    {
      "anonymous": false,
      "inputs": [
        {
          "indexed": true,
          "internalType": "address",
          "name": "from",
          "type": "address"
        },
        {
          "indexed": true,
          "internalType": "address",
          "name": "to",
          "type": "address"
        },
        {
          "indexed": false,
          "internalType": "uint256",
          "name": "share",
          "type": "uint256"
        },
        {
          "indexed": false,
          "internalType": "uint256",
          "name": "fraction",
          "type": "uint256"
        }
      ],
      "name": "LogRemoveAsset",
      "type": "event"
    },
    {
      "anonymous": false,
      "inputs": [
        {
          "indexed": true,
          "internalType": "address",
          "name": "from",
          "type": "address"
        },
        {
          "indexed": true,
          "internalType": "address",
          "name": "to",
          "type": "address"
        },
        {
          "indexed": false,
          "internalType": "uint256",
          "name": "share",
          "type": "uint256"
        }
      ],
      "name": "LogRemoveCollateral",
      "type": "event"
    },
    {
      "anonymous": false,
      "inputs": [
        {
          "indexed": true,
          "internalType": "address",
          "name": "from",
          "type": "address"
        },
        {
          "indexed": true,
          "internalType": "address",
          "name": "to",
          "type": "address"
        },
        {
          "indexed": false,
          "internalType": "uint256",
          "name": "amount",
          "type": "uint256"
        },
        {
          "indexed": false,
          "internalType": "uint256",
          "name": "part",
          "type": "uint256"
        }
      ],
      "name": "LogRepay",
      "type": "event"
    },
    {
      "anonymous": false,
      "inputs": [
        {
          "indexed": true,
          "internalType": "address",
          "name": "feeTo",
          "type": "address"
        },
        {
          "indexed": false,
          "internalType": "uint256",
          "name": "feesEarnedFraction",
          "type": "uint256"
        }
      ],
      "name": "LogWithdrawFees",
      "type": "event"
    },
    {
      "anonymous": false,
      "inputs": [
        {
          "indexed": true,
          "internalType": "address",
          "name": "previousOwner",
          "type": "address"
        },
        {
          "indexed": true,
          "internalType": "address",
          "name": "newOwner",
          "type": "address"
        }
      ],
      "name": "OwnershipTransferred",
      "type": "event"
    },
    {
      "anonymous": false,
      "inputs": [
        {
          "indexed": true,
          "internalType": "address",
          "name": "_from",
          "type": "address"
        },
        {
          "indexed": true,
          "internalType": "address",
          "name": "_to",
          "type": "address"
        },
        {
          "indexed": false,
          "internalType": "uint256",
          "name": "_value",
          "type": "uint256"
        }
      ],
      "name": "Transfer",
      "type": "event"
    },
    {
      "inputs": [],
      "name": "DOMAIN_SEPARATOR",
      "outputs": [
        {
          "internalType": "bytes32",
          "name": "",
          "type": "bytes32"
        }
      ],
      "stateMutability": "view",
      "type": "function"
    },
    {
      "inputs": [],
      "name": "accrue",
      "outputs": [],
      "stateMutability": "nonpayable",
      "type": "function"
    },
    {
      "inputs": [],
      "name": "accrueInfo",
      "outputs": [
        {
          "internalType": "uint64",
          "name": "interestPerSecond",
          "type": "uint64"
        },
        {
          "internalType": "uint64",
          "name": "lastAccrued",
          "type": "uint64"
        },
        {
          "internalType": "uint128",
          "name": "feesEarnedFraction",
          "type": "uint128"
        }
      ],
      "stateMutability": "view",
      "type": "function"
    },
    {
      "inputs": [
        {
          "internalType": "address",
          "name": "to",
          "type": "address"
        },
        {
          "internalType": "bool",
          "name": "skim",
          "type": "bool"
        },
        {
          "internalType": "uint256",
          "name": "share",
          "type": "uint256"
        }
      ],
      "name": "addAsset",
      "outputs": [
        {
          "internalType": "uint256",
          "name": "fraction",
          "type": "uint256"
        }
      ],
      "stateMutability": "nonpayable",
      "type": "function"
    },
    {
      "inputs": [
        {
          "internalType": "address",
          "name": "to",
          "type": "address"
        },
        {
          "internalType": "bool",
          "name": "skim",
          "type": "bool"
        },
        {
          "internalType": "uint256",
          "name": "share",
          "type": "uint256"
        }
      ],
      "name": "addCollateral",
      "outputs": [],
      "stateMutability": "nonpayable",
      "type": "function"
    },
    {
      "inputs": [
        {
          "internalType": "address",
          "name": "",
          "type": "address"
        },
        {
          "internalType": "address",
          "name": "",
          "type": "address"
        }
      ],
      "name": "allowance",
      "outputs": [
        {
          "internalType": "uint256",
          "name": "",
          "type": "uint256"
        }
      ],
      "stateMutability": "view",
      "type": "function"
    },
    {
      "inputs": [
        {
          "internalType": "address",
          "name": "spender",
          "type": "address"
        },
        {
          "internalType": "uint256",
          "name": "amount",
          "type": "uint256"
        }
      ],
      "name": "approve",
      "outputs": [
        {
          "internalType": "bool",
          "name": "",
          "type": "bool"
        }
      ],
      "stateMutability": "nonpayable",
      "type": "function"
    },
    {
      "inputs": [],
      "name": "asset",
      "outputs": [
        {
          "internalType": "contract IERC20",
          "name": "",
          "type": "address"
        }
      ],
      "stateMutability": "view",
      "type": "function"
    },
    {
      "inputs": [],
      "name": "assetId",
      "outputs": [
        {
          "internalType": "uint256",
          "name": "",
          "type": "uint256"
        }
      ],
      "stateMutability": "view",
      "type": "function"
    },
    {
      "inputs": [
        {
          "internalType": "address",
          "name": "",
          "type": "address"
        }
      ],
      "name": "balanceOf",
      "outputs": [
        {
          "internalType": "uint256",
          "name": "",
          "type": "uint256"
        }
      ],
      "stateMutability": "view",
      "type": "function"
    },
    {
      "inputs": [
        {
          "internalType": "address",
          "name": "to",
          "type": "address"
        },
        {
          "internalType": "uint256",
          "name": "amount",
          "type": "uint256"
        }
      ],
      "name": "borrow",
      "outputs": [
        {
          "internalType": "uint256",
          "name": "part",
          "type": "uint256"
        },
        {
          "internalType": "uint256",
          "name": "share",
          "type": "uint256"
        }
      ],
      "stateMutability": "nonpayable",
      "type": "function"
    },
    {
      "inputs": [],
      "name": "claimOwnership",
      "outputs": [],
      "stateMutability": "nonpayable",
      "type": "function"
    },
    {
      "inputs": [],
      "name": "collateral",
      "outputs": [
        {
          "internalType": "contract IERC20",
          "name": "",
          "type": "address"
        }
      ],
      "stateMutability": "view",
      "type": "function"
    },
    {
      "inputs": [],
      "name": "collateralId",
      "outputs": [
        {
          "internalType": "uint256",
          "name": "",
          "type": "uint256"
        }
      ],
      "stateMutability": "view",
      "type": "function"
    },
    {
      "inputs": [],
      "name": "decimals",
      "outputs": [
        {
          "internalType": "uint8",
          "name": "",
          "type": "uint8"
        }
      ],
      "stateMutability": "view",
      "type": "function"
    },
    {
      "inputs": [],
      "name": "exchangeRate",
      "outputs": [
        {
          "internalType": "uint256",
          "name": "",
          "type": "uint256"
        }
      ],
      "stateMutability": "view",
      "type": "function"
    },
    {
      "inputs": [],
      "name": "feeTo",
      "outputs": [
        {
          "internalType": "address",
          "name": "",
          "type": "address"
        }
      ],
      "stateMutability": "view",
      "type": "function"
    },
    {
      "inputs": [
        {
          "internalType": "contract IFlashBorrower",
          "name": "borrower",
          "type": "address"
        },
        {
          "internalType": "address",
          "name": "receiver",
          "type": "address"
        },
        {
          "internalType": "uint256",
          "name": "amount",
          "type": "uint256"
        },
        {
          "internalType": "bytes",
          "name": "data",
          "type": "bytes"
        }
      ],
      "name": "flashLoan",
      "outputs": [],
      "stateMutability": "nonpayable",
      "type": "function"
    },
    {
      "inputs": [
        {
          "internalType": "address[]",
          "name": "users",
          "type": "address[]"
        },
        {
          "internalType": "uint256[]",
          "name": "maxBorrowParts",
          "type": "uint256[]"
        },
        {
          "internalType": "address",
          "name": "to",
          "type": "address"
        },
        {
          "internalType": "contract ISwapper",
          "name": "swapper",
          "type": "address"
        }
      ],
      "name": "liquidate",
      "outputs": [],
      "stateMutability": "nonpayable",
      "type": "function"
    },
    {
      "inputs": [],
      "name": "masterContract",
      "outputs": [
        {
          "internalType": "contract Mixologist",
          "name": "",
          "type": "address"
        }
      ],
      "stateMutability": "view",
      "type": "function"
    },
    {
      "inputs": [
        {
          "internalType": "uint8[]",
          "name": "actions",
          "type": "uint8[]"
        },
        {
          "internalType": "uint256[]",
          "name": "values",
          "type": "uint256[]"
        },
        {
          "internalType": "bytes[]",
          "name": "datas",
          "type": "bytes[]"
        }
      ],
      "name": "mix",
      "outputs": [
        {
          "internalType": "uint256",
          "name": "value1",
          "type": "uint256"
        },
        {
          "internalType": "uint256",
          "name": "value2",
          "type": "uint256"
        }
      ],
      "stateMutability": "payable",
      "type": "function"
    },
    {
      "inputs": [],
      "name": "name",
      "outputs": [
        {
          "internalType": "string",
          "name": "",
          "type": "string"
        }
      ],
      "stateMutability": "view",
      "type": "function"
    },
    {
      "inputs": [
        {
          "internalType": "address",
          "name": "",
          "type": "address"
        }
      ],
      "name": "nonces",
      "outputs": [
        {
          "internalType": "uint256",
          "name": "",
          "type": "uint256"
        }
      ],
      "stateMutability": "view",
      "type": "function"
    },
    {
      "inputs": [],
      "name": "oracle",
      "outputs": [
        {
          "internalType": "contract IOracle",
          "name": "",
          "type": "address"
        }
      ],
      "stateMutability": "view",
      "type": "function"
    },
    {
      "inputs": [],
      "name": "oracleData",
      "outputs": [
        {
          "internalType": "bytes",
          "name": "",
          "type": "bytes"
        }
      ],
      "stateMutability": "view",
      "type": "function"
    },
    {
      "inputs": [],
      "name": "owner",
      "outputs": [
        {
          "internalType": "address",
          "name": "",
          "type": "address"
        }
      ],
      "stateMutability": "view",
      "type": "function"
    },
    {
      "inputs": [],
      "name": "pendingOwner",
      "outputs": [
        {
          "internalType": "address",
          "name": "",
          "type": "address"
        }
      ],
      "stateMutability": "view",
      "type": "function"
    },
    {
      "inputs": [
        {
          "internalType": "address",
          "name": "owner_",
          "type": "address"
        },
        {
          "internalType": "address",
          "name": "spender",
          "type": "address"
        },
        {
          "internalType": "uint256",
          "name": "value",
          "type": "uint256"
        },
        {
          "internalType": "uint256",
          "name": "deadline",
          "type": "uint256"
        },
        {
          "internalType": "uint8",
          "name": "v",
          "type": "uint8"
        },
        {
          "internalType": "bytes32",
          "name": "r",
          "type": "bytes32"
        },
        {
          "internalType": "bytes32",
          "name": "s",
          "type": "bytes32"
        }
      ],
      "name": "permit",
      "outputs": [],
      "stateMutability": "nonpayable",
      "type": "function"
    },
    {
      "inputs": [
        {
          "internalType": "address",
          "name": "to",
          "type": "address"
        },
        {
          "internalType": "uint256",
          "name": "fraction",
          "type": "uint256"
        }
      ],
      "name": "removeAsset",
      "outputs": [
        {
          "internalType": "uint256",
          "name": "share",
          "type": "uint256"
        }
      ],
      "stateMutability": "nonpayable",
      "type": "function"
    },
    {
      "inputs": [
        {
          "internalType": "address",
          "name": "to",
          "type": "address"
        },
        {
          "internalType": "uint256",
          "name": "share",
          "type": "uint256"
        }
      ],
      "name": "removeCollateral",
      "outputs": [],
      "stateMutability": "nonpayable",
      "type": "function"
    },
    {
      "inputs": [
        {
          "internalType": "address",
          "name": "to",
          "type": "address"
        },
        {
          "internalType": "bool",
          "name": "skim",
          "type": "bool"
        },
        {
          "internalType": "uint256",
          "name": "part",
          "type": "uint256"
        }
      ],
      "name": "repay",
      "outputs": [
        {
          "internalType": "uint256",
          "name": "amount",
          "type": "uint256"
        }
      ],
      "stateMutability": "nonpayable",
      "type": "function"
    },
    {
      "inputs": [
        {
          "internalType": "address",
          "name": "newFeeTo",
          "type": "address"
        }
      ],
      "name": "setFeeTo",
      "outputs": [],
      "stateMutability": "nonpayable",
      "type": "function"
    },
    {
      "inputs": [
        {
          "internalType": "contract ISwapper",
          "name": "swapper",
          "type": "address"
        },
        {
          "internalType": "bool",
          "name": "enable",
          "type": "bool"
        }
      ],
      "name": "setSwapper",
      "outputs": [],
      "stateMutability": "nonpayable",
      "type": "function"
    },
    {
      "inputs": [
        {
          "internalType": "contract ISwapper",
          "name": "",
          "type": "address"
        }
      ],
      "name": "swappers",
      "outputs": [
        {
          "internalType": "bool",
          "name": "",
          "type": "bool"
        }
      ],
      "stateMutability": "view",
      "type": "function"
    },
    {
      "inputs": [],
      "name": "symbol",
      "outputs": [
        {
          "internalType": "string",
          "name": "",
          "type": "string"
        }
      ],
      "stateMutability": "view",
      "type": "function"
    },
    {
      "inputs": [],
      "name": "tapiocaBar",
      "outputs": [
        {
          "internalType": "contract TapiocaBar",
          "name": "",
          "type": "address"
        }
      ],
      "stateMutability": "view",
      "type": "function"
    },
    {
      "inputs": [],
      "name": "totalAsset",
      "outputs": [
        {
          "internalType": "uint128",
          "name": "elastic",
          "type": "uint128"
        },
        {
          "internalType": "uint128",
          "name": "base",
          "type": "uint128"
        }
      ],
      "stateMutability": "view",
      "type": "function"
    },
    {
      "inputs": [],
      "name": "totalBorrow",
      "outputs": [
        {
          "internalType": "uint128",
          "name": "elastic",
          "type": "uint128"
        },
        {
          "internalType": "uint128",
          "name": "base",
          "type": "uint128"
        }
      ],
      "stateMutability": "view",
      "type": "function"
    },
    {
      "inputs": [],
      "name": "totalCollateralShare",
      "outputs": [
        {
          "internalType": "uint256",
          "name": "",
          "type": "uint256"
        }
      ],
      "stateMutability": "view",
      "type": "function"
    },
    {
      "inputs": [],
      "name": "totalSupply",
      "outputs": [
        {
          "internalType": "uint256",
          "name": "",
          "type": "uint256"
        }
      ],
      "stateMutability": "view",
      "type": "function"
    },
    {
      "inputs": [
        {
          "internalType": "address",
          "name": "to",
          "type": "address"
        },
        {
          "internalType": "uint256",
          "name": "amount",
          "type": "uint256"
        }
      ],
      "name": "transfer",
      "outputs": [
        {
          "internalType": "bool",
          "name": "",
          "type": "bool"
        }
      ],
      "stateMutability": "nonpayable",
      "type": "function"
    },
    {
      "inputs": [
        {
          "internalType": "address",
          "name": "from",
          "type": "address"
        },
        {
          "internalType": "address",
          "name": "to",
          "type": "address"
        },
        {
          "internalType": "uint256",
          "name": "amount",
          "type": "uint256"
        }
      ],
      "name": "transferFrom",
      "outputs": [
        {
          "internalType": "bool",
          "name": "",
          "type": "bool"
        }
      ],
      "stateMutability": "nonpayable",
      "type": "function"
    },
    {
      "inputs": [
        {
          "internalType": "address",
          "name": "newOwner",
          "type": "address"
        },
        {
          "internalType": "bool",
          "name": "direct",
          "type": "bool"
        },
        {
          "internalType": "bool",
          "name": "renounce",
          "type": "bool"
        }
      ],
      "name": "transferOwnership",
      "outputs": [],
      "stateMutability": "nonpayable",
      "type": "function"
    },
    {
      "inputs": [],
      "name": "updateExchangeRate",
      "outputs": [
        {
          "internalType": "bool",
          "name": "updated",
          "type": "bool"
        },
        {
          "internalType": "uint256",
          "name": "rate",
          "type": "uint256"
        }
      ],
      "stateMutability": "nonpayable",
      "type": "function"
    },
    {
      "inputs": [
        {
          "internalType": "address",
          "name": "",
          "type": "address"
        }
      ],
      "name": "userBorrowPart",
      "outputs": [
        {
          "internalType": "uint256",
          "name": "",
          "type": "uint256"
        }
      ],
      "stateMutability": "view",
      "type": "function"
    },
    {
      "inputs": [
        {
          "internalType": "address",
          "name": "",
          "type": "address"
        }
      ],
      "name": "userCollateralShare",
      "outputs": [
        {
          "internalType": "uint256",
          "name": "",
          "type": "uint256"
        }
      ],
      "stateMutability": "view",
      "type": "function"
    },
    {
      "inputs": [],
      "name": "withdrawFees",
      "outputs": [],
      "stateMutability": "nonpayable",
      "type": "function"
    }
  ],
  "transactionHash": "0xc5e7f1a9ae56e2a0b92c6bdadb6bf52d686b08f56ecdd70b5c123996c60e6a63",
  "args": [
    "0x19de553a8CfFCFF8CB49E236C1a499F9CF083b97",
    "0xa18bF3994C0Cc6E3b63ac420308E5383f53120D7",
    1,
    "0x66a2A913e447d6b4BF33EFbec43aAeF87890FBbc",
    2,
    "0xAC839eF457Ae701532dE08693692946232c1aDf2"
  ],
  "numDeployments": 1,
  "solcInputHash": "6d5e055ae13eeca93758e589040b2bdf",
  "bytecode": "0x6101006040523480156200001257600080fd5b5060405162006294380380620062948339810160408190526200003591620001b9565b4660a0819052620000468162000163565b60805250600380546001600160a01b031916339081179091556040516000907f8be0079c531659141344cd1fd0a4f28419497f9722a3daafe3b4186f6b6457e0908290a3606086811b6001600160601b03191660c05230901b60e0526001600160a01b03831615801590620000c357506001600160a01b03851615155b8015620000d857506001600160a01b03811615155b620001005760405162461bcd60e51b8152600401620000f79062000253565b60405180910390fd5b600880546001600160a01b039687166001600160a01b0319918216179091556007805494871694821694909417909355600a93909355600955600b805492909316911617905550601380546001600160401b0319166312e687c0179055620002a3565b60007f47e79534a245952e8b16893a336b85a3d9ea9fa8c573f3d803afb92a7946921882306040516020016200019c9392919062000234565b604051602081830303815290604052805190602001209050919050565b60008060008060008060c08789031215620001d2578182fd5b8651620001df816200028a565b6020880151909650620001f2816200028a565b6040880151606089015191965094506200020c816200028a565b608088015160a0890151919450925062000226816200028a565b809150509295509295509295565b92835260208301919091526001600160a01b0316604082015260600190565b60208082526014908201527f4d69786f6c6f676973743a206261642070616972000000000000000000000000604082015260600190565b6001600160a01b0381168114620002a057600080fd5b50565b60805160a05160c05160601c60e05160601c615f156200037f60003980610d9b528061199e5280611c6e528061295c525080610ced528061110c5280611211528061145e528061164752806118fc5280611a595280611b835280611c3b52806121d852806123a0528061247852806125df5280612dda5280613313528061341052806134d252806136b05280613770528061398d5280613c625280613d9b5280613eb1528061402352806140a952806141b65280614395528061444352806145015280614686525080613abf525080613af45250615f156000f3fe6080604052600436106102885760003560e01c80635cffe9de1161015a57806395d89b41116100c1578063dd62ed3e1161007a578063dd62ed3e1461073e578063e30c39781461075e578063eec0f42e14610773578063f46901ed14610788578063f8ba4cff146107a8578063f9557ccb146107bd57610288565b806395d89b411461069b578063a9059cbb146106b0578063b27c0e74146106d0578063cd446e22146106f4578063d505accf14610709578063d8dfeb451461072957610288565b8063860ffea111610113578063860ffea1146105f3578063876467f8146106135780638cad7fbe146106335780638da5cb5b14610653578063912860c5146106685780639499a6881461068857610288565b80635cffe9de1461054657806370a082311461056657806374645ff3146105865780637dc0d1d01461059b5780637ecebe00146105b05780638285ef40146105d057610288565b8063313ce567116101fe57806344de240a116101b757806344de240a146104a4578063473e3ce7146104b9578063476343ee146104ce57806348e4163e146104e35780634b8a3529146105035780634e71e0c81461053157610288565b8063313ce5671461040e578063324743ca146104305780633644e5151461044557806338d52e0f1461045a5780633ba0b9a91461046f5780633f2617cb1461048457610288565b806315294c401161025057806315294c401461034c57806318160ddd146103795780631b51e9401461038e5780631c9e379b146103ae5780632317ef67146103ce57806323b872dd146103ee57610288565b8063017e7e581461028d57806302ce728f146102b857806306fdde03146102db578063078dfbe7146102fd578063095ea7b31461031f575b600080fd5b34801561029957600080fd5b506102a26107d2565b6040516102af9190615573565b60405180910390f35b3480156102c457600080fd5b506102cd6107e1565b6040516102af929190615629565b3480156102e757600080fd5b506102f06108be565b6040516102af91906156b3565b34801561030957600080fd5b5061031d610318366004614ee7565b610996565b005b34801561032b57600080fd5b5061033f61033a366004614f60565b610a86565b6040516102af919061561e565b34801561035857600080fd5b5061036c610367366004614f31565b610af1565b6040516102af9190615639565b34801561038557600080fd5b5061036c610b0e565b34801561039a57600080fd5b5061036c6103a9366004614f31565b610b24565b3480156103ba57600080fd5b5061036c6103c9366004614cd0565b610b39565b3480156103da57600080fd5b5061036c6103e9366004614f60565b610b4b565b3480156103fa57600080fd5b5061033f610409366004614e37565b610b66565b34801561041a57600080fd5b50610423610cce565b6040516102af9190615d98565b34801561043c57600080fd5b506102a2610ceb565b34801561045157600080fd5b5061036c610d0f565b34801561046657600080fd5b506102a2610d19565b34801561047b57600080fd5b5061036c610d28565b34801561049057600080fd5b5061031d61049f366004615197565b610d2e565b3480156104b057600080fd5b5061036c610d83565b3480156104c557600080fd5b5061036c610d89565b3480156104da57600080fd5b5061031d610d8f565b3480156104ef57600080fd5b5061036c6104fe366004614cd0565b610eff565b34801561050f57600080fd5b5061052361051e366004614f60565b610f11565b6040516102af929190615d0f565b34801561053d57600080fd5b5061031d610f5f565b34801561055257600080fd5b5061031d61056136600461512e565b610fed565b34801561057257600080fd5b5061036c610581366004614cd0565b611311565b34801561059257600080fd5b506102f0611323565b3480156105a757600080fd5b506102a26113b1565b3480156105bc57600080fd5b5061036c6105cb366004614cd0565b6113c0565b3480156105dc57600080fd5b506105e56113d2565b6040516102af929190615bf3565b3480156105ff57600080fd5b5061031d61060e366004614f31565b6113ec565b34801561061f57600080fd5b5061031d61062e366004614f60565b6114c4565b34801561063f57600080fd5b5061033f61064e366004614cd0565b611504565b34801561065f57600080fd5b506102a2611519565b34801561067457600080fd5b5061031d610683366004614f8b565b611528565b61052361069636600461501c565b611dfe565b3480156106a757600080fd5b506102f0612789565b3480156106bc57600080fd5b5061033f6106cb366004614f60565b61284d565b3480156106dc57600080fd5b506106e561292d565b6040516102af93929190615d6c565b34801561070057600080fd5b506102a261295a565b34801561071557600080fd5b5061031d610724366004614e77565b61297e565b34801561073557600080fd5b506102a2612b0e565b34801561074a57600080fd5b5061036c610759366004614dff565b612b1d565b34801561076a57600080fd5b506102a2612b3a565b34801561077f57600080fd5b5061036c612b49565b34801561079457600080fd5b5061031d6107a3366004614cd0565b612b4f565b3480156107b457600080fd5b5061031d612bc3565b3480156107c957600080fd5b506105e561316e565b6005546001600160a01b031681565b600b5460405163d6d7d52560e01b815260009182916001600160a01b039091169063d6d7d5259061081790600c906004016156c6565b6040805180830381600087803b15801561083057600080fd5b505af1158015610844573d6000803e3d6000fd5b505050506040513d601f19601f8201168201806040525081019061086891906150cd565b909250905081156108b55760128190556040517f9f9192b5edb17356c524e08d9e025c8e2f6307e6ea52fb7968faa3081f51c3c8906108a8908390615639565b60405180910390a16108ba565b506012545b9091565b6007546060906108d6906001600160a01b0316613188565b6008546108eb906001600160a01b0316613188565b600b5460405163355a219b60e21b81526001600160a01b039091169063d568866c9061091c90600c906004016156c6565b60006040518083038186803b15801561093457600080fd5b505afa158015610948573d6000803e3d6000fd5b505050506040513d6000823e601f3d908101601f191682016040526109709190810190615226565b604051602001610982939291906154f5565b604051602081830303815290604052905090565b6003546001600160a01b031633146109c95760405162461bcd60e51b81526004016109c0906159a8565b60405180910390fd5b8115610a65576001600160a01b0383161515806109e35750805b6109ff5760405162461bcd60e51b81526004016109c090615807565b6003546040516001600160a01b038086169216907f8be0079c531659141344cd1fd0a4f28419497f9722a3daafe3b4186f6b6457e090600090a3600380546001600160a01b0385166001600160a01b031991821617909155600480549091169055610a81565b600480546001600160a01b0319166001600160a01b0385161790555b505050565b3360008181526001602090815260408083206001600160a01b038716808552925280832085905551919290917f8c5be1e5ebec7d5bd14f71427d1e84f3dd0314c0f7b2291e5b200ac8c7c3b92590610adf908690615639565b60405180910390a35060015b92915050565b6000610afb612bc3565b610b0684848461324d565b949350505050565b600e54600160801b90046001600160801b031690565b6000610b2e612bc3565b610b0684848461347b565b60106020526000908152604090205481565b6000610b55612bc3565b610b5f838361371c565b9392505050565b60008115610c8b576001600160a01b03841660009081526020819052604090205482811015610ba75760405162461bcd60e51b81526004016109c090615ae7565b836001600160a01b0316856001600160a01b031614610c89576001600160a01b03851660009081526001602090815260408083203384529091529020546000198114610c365783811015610c0d5760405162461bcd60e51b81526004016109c090615912565b6001600160a01b0386166000908152600160209081526040808320338452909152902084820390555b6001600160a01b038516610c5c5760405162461bcd60e51b81526004016109c0906157d7565b506001600160a01b0380861660009081526020819052604080822086850390559186168152208054840190555b505b826001600160a01b0316846001600160a01b0316600080516020615ec083398151915284604051610cbc9190615639565b60405180910390a35060019392505050565b600854600090610ce6906001600160a01b0316613a01565b905090565b7f000000000000000000000000000000000000000000000000000000000000000081565b6000610ce6613aba565b6008546001600160a01b031681565b60125481565b6003546001600160a01b03163314610d585760405162461bcd60e51b81526004016109c0906159a8565b6001600160a01b03919091166000908152600660205260409020805460ff1916911515919091179055565b600a5481565b600d5481565b610d97612bc3565b60007f00000000000000000000000000000000000000000000000000000000000000006001600160a01b031663017e7e586040518163ffffffff1660e01b815260040160206040518083038186803b158015610df257600080fd5b505afa158015610e06573d6000803e3d6000fd5b505050506040513d601f19601f82011682018060405250810190610e2a9190614cec565b6013546001600160a01b038216600090815260208190526040902054919250600160801b90046001600160801b031690610e649082613b1a565b6001600160a01b038316600081815260208190526040808220939093559151909190600080516020615ec083398151915290610ea1908590615639565b60405180910390a3601380546001600160801b031690556040516001600160a01b038316907fbe641c3ffc44b2d6c184f023fa4ed7bda4b6ffa71e03b3c98ae0c776da1f17e790610ef3908490615639565b60405180910390a25050565b60116020526000908152604090205481565b600080610f1c612bc3565b610f268484613b3d565b8092508193505050610f3c336000601254613e10565b610f585760405162461bcd60e51b81526004016109c090615971565b9250929050565b6004546001600160a01b0316338114610f8a5760405162461bcd60e51b81526004016109c090615a0d565b6003546040516001600160a01b038084169216907f8be0079c531659141344cd1fd0a4f28419497f9722a3daafe3b4186f6b6457e090600090a3600380546001600160a01b039092166001600160a01b0319928316179055600480549091169055565b610ff5614b44565b5060408051808201909152600e546001600160801b038082168352600160801b9091041660208201526000620186a061102f85605a613f84565b8161103657fe5b049050600082600001516001600160801b031661106984602001516001600160801b031684613f8490919063ffffffff16565b8161107057fe5b04905061109361107f82613fbb565b60208501516001600160801b031690613fe8565b600e80546001600160801b03928316600160801b0292169190911790556110d56110bc82613fbb565b601354600160801b90046001600160801b031690613fe8565b601380546001600160801b03928316600160801b029216919091179055600a546040516311a5cc7760e31b81526001600160a01b037f00000000000000000000000000000000000000000000000000000000000000001691638d2e63b891611149919030908b908b90600090600401615c49565b6040805180830381600087803b15801561116257600080fd5b505af1158015611176573d6000803e3d6000fd5b505050506040513d601f19601f8201168201806040525081019061119a919061539c565b50506008546040516323e30c8b60e01b81526001600160a01b03808a16926323e30c8b926111d492339216908a9088908b90600401615587565b600060405180830381600087803b1580156111ee57600080fd5b505af1158015611202573d6000803e3d6000fd5b5050600a546001600160a01b037f0000000000000000000000000000000000000000000000000000000000000000169250631f8f6170915089306112468a88613b1a565b60006040518663ffffffff1660e01b8152600401611268959493929190615c49565b6040805180830381600087803b15801561128157600080fd5b505af1158015611295573d6000803e3d6000fd5b505050506040513d601f19601f820116820180604052508101906112b9919061539c565b5050856001600160a01b0316876001600160a01b03167f2846a042bc39c76d5d54e6df0c69a95014c81bc24b006211e95a37b68dca6af08785604051611300929190615d0f565b60405180910390a350505050505050565b60006020819052908152604090205481565b600c805460408051602060026001851615610100026000190190941693909304601f810184900484028201840190925281815292918301828280156113a95780601f1061137e576101008083540402835291602001916113a9565b820191906000526020600020905b81548152906001019060200180831161138c57829003601f168201915b505050505081565b600b546001600160a01b031681565b60026020526000908152604090205481565b600f546001600160801b0380821691600160801b90041682565b6001600160a01b03831660009081526010602052604090205461140f9082613b1a565b6001600160a01b038416600090815260106020526040902055600d546114358183613b1a565b600d5560095461144790838386614017565b836001600160a01b03168361145c573361147e565b7f00000000000000000000000000000000000000000000000000000000000000005b6001600160a01b03167f9ed03113de523cebfe5e49d5f8e12894b1c0d42ce805990461726444c90eab87846040516114b69190615639565b60405180910390a350505050565b6114cc612bc3565b6114d6828261411d565b6114e4336000601254613e10565b6115005760405162461bcd60e51b81526004016109c090615971565b5050565b60066020526000908152604090205460ff1681565b6003546001600160a01b031681565b60006115326107e1565b91505061153d612bc3565b600080600061154a614b44565b5060408051808201909152600f546001600160801b038082168352600160801b90910416602082015260005b8a8110156118325760008c8c8381811061158c57fe5b90506020020160208101906115a19190614cd0565b90506115af81600089613e10565b611829576001600160a01b038116600090815260116020526040812054808d8d868181106115d957fe5b90506020020135116115fd578c8c858181106115f157fe5b905060200201356115ff565b805b915061160b8183614226565b6001600160a01b0384166000908152601160205260408120919091559050611634858383614249565b6009549091506000906001600160a01b037f00000000000000000000000000000000000000000000000000000000000000001690638eb22cdd9069152d02c7e14af68000006116908e61168a886201b580613f84565b90613f84565b8161169757fe5b0460006040518463ffffffff1660e01b81526004016116b893929190615d3e565b60206040518083038186803b1580156116d057600080fd5b505afa1580156116e4573d6000803e3d6000fd5b505050506040513d601f19601f820116820180604052508101906117089190615258565b6001600160a01b03851660009081526010602052604090205490915061172e9082614226565b6001600160a01b038086166000908152601060205260409020919091558b1615611758578a61175a565b8b5b6001600160a01b0316846001600160a01b03167f8ad4d3ff00da092c7ad9a573ea4f5f6a3dffc6712dc06d3f78f49b862297c4028360405161179c9190615639565b60405180910390a36001600160a01b03808516908c16156117bd578b6117bf565b335b6001600160a01b03167fc8e512d8f188ca059984b5853d2bf653da902696b8512785b182b2c813789a6e84866040516117f9929190615d0f565b60405180910390a361180b8982613b1a565b98506118178883613b1a565b97506118238784613b1a565b96505050505b50600101611576565b50826118505760405162461bcd60e51b81526004016109c090615ab0565b61186d61185c84613fbb565b82516001600160801b0316906142e2565b6001600160801b0316815261189861188483613fbb565b60208301516001600160801b0316906142e2565b6001600160801b03908116602083018190528251600f80546001600160801b03191691841691909117909216600160801b909102179055600d546118dc9085614226565b600d55600a54604051638eb22cdd60e01b81526000916001600160a01b037f00000000000000000000000000000000000000000000000000000000000000001691638eb22cdd91611934918890600190600401615d3e565b60206040518083038186803b15801561194c57600080fd5b505afa158015611960573d6000803e3d6000fd5b505050506040513d601f19601f820116820180604052508101906119849190615258565b604051634656bfdf60e11b81529091506001600160a01b037f00000000000000000000000000000000000000000000000000000000000000001690638cad7fbe906119d3908a90600401615573565b60206040518083038186803b1580156119eb57600080fd5b505afa1580156119ff573d6000803e3d6000fd5b505050506040513d601f19601f82011682018060405250810190611a2391906150b1565b611a3f5760405162461bcd60e51b81526004016109c090615b85565b600954604051631b66a95360e11b81526001600160a01b037f000000000000000000000000000000000000000000000000000000000000000016916336cd52a691611a93919030908c908b90600401615c24565b600060405180830381600087803b158015611aad57600080fd5b505af1158015611ac1573d6000803e3d6000fd5b50506007546008546040516371a1ff0960e11b81526001600160a01b03808d16955063e343fe129450611b01938116921690309087908c90600401615750565b6040805180830381600087803b158015611b1a57600080fd5b505af1158015611b2e573d6000803e3d6000fd5b505050506040513d601f19601f82011682018060405250810190611b52919061539c565b5050600e54600a54604051627eeac760e11b8152600092611c0d926001600160801b03909116916001600160a01b037f0000000000000000000000000000000000000000000000000000000000000000169162fdd58e91611bb7913091600401615605565b60206040518083038186803b158015611bcf57600080fd5b505afa158015611be3573d6000803e3d6000fd5b505050506040513d601f19601f82011682018060405250810190611c079190615258565b90614226565b90506000611c1b8284614226565b90506000620186a0611c2f83612710613f84565b81611c3657fe5b0490507f00000000000000000000000000000000000000000000000000000000000000006001600160a01b03166336cd52a6600a54307f00000000000000000000000000000000000000000000000000000000000000006001600160a01b031663017e7e586040518163ffffffff1660e01b815260040160206040518083038186803b158015611cc557600080fd5b505afa158015611cd9573d6000803e3d6000fd5b505050506040513d601f19601f82011682018060405250810190611cfd9190614cec565b856040518563ffffffff1660e01b8152600401611d1d9493929190615c24565b600060405180830381600087803b158015611d3757600080fd5b505af1158015611d4b573d6000803e3d6000fd5b50505050611d7f611d6d611d68838661422690919063ffffffff16565b613fbb565b600e546001600160801b031690613fe8565b600e80546001600160801b0319166001600160801b0392909216919091179055306001600160a01b038b167f30a8c4f9ab5af7e1309ca87c32377d1a83366c5990472dbf9d262450eae14e38611dd58585614226565b6000604051611de5929190615d0f565b60405180910390a3505050505050505050505050505050565b600080611e09614b44565b60005b8881101561274b5760008a8a83818110611e2257fe5b9050602002016020810190611e3791906153bf565b90508260200151158015611e4e5750600a8160ff16105b15611e6357611e5b612bc3565b600160208401525b60ff8116600a1415611ebd576000806000898986818110611e8057fe5b9050602002810190611e929190615da6565b810190611e9f9190615200565b925092509250611eb5828261060e868c8c614311565b505050612742565b60ff811660011415611f1e576000806000898986818110611eda57fe5b9050602002810190611eec9190615da6565b810190611ef99190615200565b925092509250611f148282611f0f868c8c614311565b61347b565b9750505050612742565b60ff811660021415611f7e576000806000898986818110611f3b57fe5b9050602002810190611f4d9190615da6565b810190611f5a9190615200565b925092509250611f758282611f70868c8c614311565b61324d565b50505050612742565b60ff811660031415611fd957600080888885818110611f9957fe5b9050602002810190611fab9190615da6565b810190611fb891906151dc565b91509150611fd081611fcb848a8a614311565b61371c565b96505050612742565b60ff81166004141561203657600080888885818110611ff457fe5b90506020028101906120069190615da6565b81019061201391906151dc565b9150915061202b81612026848a8a614311565b61411d565b505060018352612742565b60ff8116600514156120995760008088888581811061205157fe5b90506020028101906120639190615da6565b81019061207091906151dc565b9150915061208881612083848a8a614311565b613b3d565b600187529097509550612742915050565b60ff8116600b14156121385760008060008989868181106120b657fe5b90506020028101906120c89190615da6565b8101906120d591906150fa565b9250925092506000806120e66107e1565b915091508415806120f45750815b80156120ff57508381115b8015612112575082158061211257508281115b61212e5760405162461bcd60e51b81526004016109c090615836565b5050505050612742565b60ff8116600c141561218a57600080600060608a8a8781811061215757fe5b90506020028101906121699190615da6565b810190612176919061512e565b9350935093509350611f7584848484610fed565b60ff811660181415612269576000806000806000808c8c898181106121ab57fe5b90506020028101906121bd9190615da6565b8101906121ca9190614d08565b9550955095509550955095507f00000000000000000000000000000000000000000000000000000000000000006001600160a01b0316638faa6eba8787878787876040518763ffffffff1660e01b815260040161222c969594939291906155cc565b600060405180830381600087803b15801561224657600080fd5b505af115801561225a573d6000803e3d6000fd5b50505050505050505050612742565b60ff8116601414156122f1576122e787878481811061228457fe5b90506020028101906122969190615da6565b8080601f0160208091040260200160405190810160405280939291908181526020018383808284376000920191909152508d92508c91508690508181106122d957fe5b905060200201358787614339565b9095509350612742565b60ff81166015141561235c576122e787878481811061230c57fe5b905060200281019061231e9190615da6565b8080601f0160208091040260200160405190810160405280939291908181526020018383808284376000920191909152508992508891506144da9050565b60ff81166016141561243457600080600089898681811061237957fe5b905060200281019061238b9190615da6565b8101906123989190615270565b9250925092507f00000000000000000000000000000000000000000000000000000000000000006001600160a01b03166336cd52a68433856123db868e8e614311565b6040518563ffffffff1660e01b81526004016123fa9493929190615c24565b600060405180830381600087803b15801561241457600080fd5b505af1158015612428573d6000803e3d6000fd5b50505050505050612742565b60ff8116601714156124c857600060608089898681811061245157fe5b90506020028101906124639190615da6565b81019061247091906152d3565b9250925092507f00000000000000000000000000000000000000000000000000000000000000006001600160a01b0316639f1b8f59843385856040518563ffffffff1660e01b81526004016123fa9493929190615c78565b60ff8116601e14156125a2576060600061254a8b8b868181106124e757fe5b905060200201358a8a878181106124fa57fe5b905060200281019061250c9190615da6565b8080601f0160208091040260200160405190810160405280939291908181526020018383808284376000920191909152508c92508b91506145c89050565b915091508060ff1660011415612575578180602001905181019061256e9190615258565b965061259b565b8060ff166002141561259b5781806020019051810190612595919061539c565b90975095505b5050612742565b60ff8116600614156126c55760008787848181106125bc57fe5b90506020028101906125ce9190615da6565b8101906125db91906151c4565b90507f00000000000000000000000000000000000000000000000000000000000000006001600160a01b0316638eb22cdd600a5461264d61261d858b8b614311565b60408051808201909152600f546001600160801b038082168352600160801b909104166020820152906001614249565b60016040518463ffffffff1660e01b815260040161266d93929190615d3e565b60206040518083038186803b15801561268557600080fd5b505afa158015612699573d6000803e3d6000fd5b505050506040513d601f19601f820116820180604052508101906126bd9190615258565b955050612742565b60ff8116600714156127425760008787848181106126df57fe5b90506020028101906126f19190615da6565b8101906126fe91906151c4565b905061273e61270e828888614311565b60408051808201909152600f546001600160801b038082168352600160801b90910416602082015290600061477e565b9550505b50600101611e0c565b5080511561277d57612761336000601254613e10565b61277d5760405162461bcd60e51b81526004016109c090615971565b50965096945050505050565b6007546060906127a1906001600160a01b03166147f7565b6008546127b6906001600160a01b03166147f7565b600b5460405163634ce26b60e11b81526001600160a01b039091169063c699c4d6906127e790600c906004016156c6565b60006040518083038186803b1580156127ff57600080fd5b505afa158015612813573d6000803e3d6000fd5b505050506040513d6000823e601f3d908101601f1916820160405261283b9190810190615226565b60405160200161098293929190615488565b6000811515806128655750336001600160a01b038416145b156128fc57336000908152602081905260409020548281101561289a5760405162461bcd60e51b81526004016109c090615ae7565b336001600160a01b038516146128fa576001600160a01b0384166128d05760405162461bcd60e51b81526004016109c0906157d7565b3360009081526020819052604080822085840390556001600160a01b038616825290208054840190555b505b826001600160a01b0316336001600160a01b0316600080516020615ec083398151915284604051610adf9190615639565b6013546001600160401b0380821691600160401b810490911690600160801b90046001600160801b031683565b7f000000000000000000000000000000000000000000000000000000000000000081565b6001600160a01b0387166129a45760405162461bcd60e51b81526004016109c090615a79565b8342106129c35760405162461bcd60e51b81526004016109c090615949565b6001600160a01b0387166000818152600260209081526040918290208054600181810190925592519092612a4192612a26927f6e71edae12b1b97f4d1f60370fef10105fa2faae0126114a169c64845d6126c9928e928e928e92918e9101615642565b6040516020818303038152906040528051906020012061483e565b85858560405160008152602001604052604051612a619493929190615695565b6020604051602081039080840390855afa158015612a83573d6000803e3d6000fd5b505050602060405103516001600160a01b031614612ab35760405162461bcd60e51b81526004016109c090615bbc565b6001600160a01b038088166000818152600160209081526040808320948b168084529490915290819020889055517f8c5be1e5ebec7d5bd14f71427d1e84f3dd0314c0f7b2291e5b200ac8c7c3b92590611300908990615639565b6007546001600160a01b031681565b600160209081526000928352604080842090915290825290205481565b6004546001600160a01b031681565b60095481565b6003546001600160a01b03163314612b795760405162461bcd60e51b81526004016109c0906159a8565b600580546001600160a01b0319166001600160a01b0383169081179091556040517fcf1d3f17e521c635e0d20b8acba94ba170afc041d0546d46dafa09d3c9c19eb390600090a250565b612bcb614b5b565b50604080516060810182526013546001600160401b038082168352600160401b82041660208301819052600160801b9091046001600160801b03169282019290925290420380612c1c57505061316c565b6001600160401b0342166020830152612c33614b44565b5060408051808201909152600f546001600160801b038082168352600160801b9091041660208201819052612d255782516001600160401b03166312e687c014612cbd576312e687c08084526040517f33af5ce86e8438eff54589f85332916444457dfa8685493fbd579b809097026b91612cb49160009182918290615784565b60405180910390a15b5050805160138054602084015160409094015167ffffffffffffffff199091166001600160401b039384161767ffffffffffffffff60401b1916600160401b9390941692909202929092176001600160801b03908116600160801b919092160217905561316c565b600080612d30614b44565b5060408051808201909152600e546001600160801b038082168352600160801b9091048116602083015286518551670de0b6b3a764000092612d8292899261168a9216906001600160401b0316613f84565b81612d8957fe5b049250612da9612d9884613fbb565b85516001600160801b031690613fe8565b6001600160801b0316808552600a54825160405163442c159960e01b8152600093612e679390926001600160a01b037f0000000000000000000000000000000000000000000000000000000000000000169263442c159992612e119290918890600401615d1d565b60206040518083038186803b158015612e2957600080fd5b505afa158015612e3d573d6000803e3d6000fd5b505050506040513d601f19601f82011682018060405250810190612e619190615258565b90613b1a565b90506000620186a0612e7b86612710613f84565b81612e8257fe5b04905081612ea684602001516001600160801b031683613f8490919063ffffffff16565b81612ead57fe5b049350612ed0612ebc85613fbb565b60408a01516001600160801b031690613fe8565b6001600160801b03166040890152612eea61107f85613fbb565b600e80546001600160801b03908116600160801b9382168402179091558751600f805460208b01516001600160801b031990911692841692831784169316909302919091179091556000908390612f4990670de0b6b3a7640000613f84565b81612f5057fe5b0490506709b6e64a8ec600008110156130125760006709b6e64a8ec60000612f84670de0b6b3a764000061168a8386614226565b81612f8b57fe5b0490506000612fb9612fa18b61168a8580613f84565b7054a2b63d65d79d094abb6688000000000090613b1a565b8b519091508190612fe4906001600160401b03167054a2b63d65d79d094abb66880000000000613f84565b81612feb57fe5b046001600160401b0316808c526304b9a1f0111561300b576304b9a1f08b525b50506130c3565b670b1a2bc2ec5000008111156130c35760006702c68af0bb14000061304b670de0b6b3a764000061168a85670b1a2bc2ec500000614226565b8161305257fe5b0490506000613068612fa18b61168a8580613f84565b8b519091506000907054a2b63d65d79d094abb6688000000000090613096906001600160401b031684613f84565b8161309d57fe5b0490506449d48246008111156130b557506449d48246005b6001600160401b03168b5250505b88516040517f33af5ce86e8438eff54589f85332916444457dfa8685493fbd579b809097026b916130f991899189918690615784565b60405180910390a1505086516013805460208a01516040909a015167ffffffffffffffff199091166001600160401b039384161767ffffffffffffffff60401b1916600160401b93909a1692909202989098176001600160801b03908116600160801b9190921602179096555050505050505b565b600e546001600160801b0380821691600160801b90041682565b60408051600481526024810182526020810180516001600160e01b03166306fdde0360e01b179052905160609160009183916001600160a01b038616916131cf9190615423565b600060405180830381855afa9150503d806000811461320a576040519150601f19603f3d011682016040523d82523d6000602084013e61320f565b606091505b50915091508161323a57604051806040016040528060038152602001623f3f3f60e81b815250613243565b61324381614893565b925050505b919050565b60408051808201909152600f546001600160801b038082168352600160801b909104166020820152600090613284908360016149f8565b8151600f80546020948501516001600160801b03908116600160801b029381166001600160801b031990921691909117169190911790556001600160a01b038616600090815260119092526040909120549091506132e29083614226565b6001600160a01b0380861660009081526011602052604080822093909355600a549251638eb22cdd60e01b815290927f000000000000000000000000000000000000000000000000000000000000000090921691638eb22cdd9161334e91908690600190600401615d3e565b60206040518083038186803b15801561336657600080fd5b505afa15801561337a573d6000803e3d6000fd5b505050506040513d601f19601f8201168201806040525081019061339e9190615258565b600e54600a549192506001600160801b0316906133bd90838388614017565b6133d96133c983613fbb565b6001600160801b03831690613fe8565b600e80546001600160801b0319166001600160801b03929092169190911790556001600160a01b0386168561340e5733613430565b7f00000000000000000000000000000000000000000000000000000000000000005b6001600160a01b03167fc8e512d8f188ca059984b5853d2bf653da902696b8512785b182b2c813789a6e858760405161346a929190615d0f565b60405180910390a350509392505050565b6000613485614b44565b50604080518082018252600e546001600160801b03808216808452600160801b90920481166020840152600a54600f549451638eb22cdd60e01b8152939492936000936001600160a01b037f00000000000000000000000000000000000000000000000000000000000000001693638eb22cdd9361350e93909290911690600190600401615d1d565b60206040518083038186803b15801561352657600080fd5b505afa15801561353a573d6000803e3d6000fd5b505050506040513d601f19601f8201168201806040525081019061355e9190615258565b83516001600160801b031601905080156135a0578061359384602001516001600160801b031687613f8490919063ffffffff16565b8161359a57fe5b046135a2565b845b93506103e86135c76135b386613fbb565b60208601516001600160801b031690613fe8565b6001600160801b031610156135e25760009350505050610b5f565b6135ed838686614a6d565b8051600e80546020938401516001600160801b03908116600160801b029381166001600160801b031990921691909117169190911790556001600160a01b03881660009081529081905260409020546136469085613b1a565b6001600160a01b038816600081815260208190526040808220939093559151909190600080516020615ec083398151915290613683908890615639565b60405180910390a3613699600a54868489614017565b866001600160a01b0316866136ae57336136d0565b7f00000000000000000000000000000000000000000000000000000000000000005b6001600160a01b03167f30a8c4f9ab5af7e1309ca87c32377d1a83366c5990472dbf9d262450eae14e38878760405161370a929190615d0f565b60405180910390a35050509392505050565b6000613726614b44565b50604080518082018252600e546001600160801b038082168352600160801b90910481166020830152600a54600f549351638eb22cdd60e01b815292936000936001600160a01b037f00000000000000000000000000000000000000000000000000000000000000001693638eb22cdd936137ab939092911690600190600401615d1d565b60206040518083038186803b1580156137c357600080fd5b505afa1580156137d7573d6000803e3d6000fd5b505050506040513d601f19601f820116820180604052508101906137fb9190615258565b825160208401516001600160801b039182169290920192501661381e8583613f84565b8161382557fe5b3360009081526020819052604090205491900493506138449085614226565b33600081815260208190526040808220939093559151600080516020615ec083398151915290613875908890615639565b60405180910390a361389a61388984613fbb565b83516001600160801b0316906142e2565b6001600160801b031682526138c56138b185613fbb565b60208401516001600160801b0316906142e2565b6001600160801b0316602083018190526103e811156138f65760405162461bcd60e51b81526004016109c0906158db565b8151600e805460208501516001600160801b03908116600160801b029381166001600160801b031990921691909117169190911790556040516001600160a01b0386169033907f6e853a5fd6b51d773691f542ebac8513c9992a51380d4c342031056a641142289061396b9087908990615d0f565b60405180910390a3600a54604051631b66a95360e11b81526001600160a01b037f000000000000000000000000000000000000000000000000000000000000000016916336cd52a6916139c7919030908a908990600401615c24565b600060405180830381600087803b1580156139e157600080fd5b505af11580156139f5573d6000803e3d6000fd5b50505050505092915050565b60408051600481526024810182526020810180516001600160e01b031663313ce56760e01b179052905160009182916060916001600160a01b03861691613a489190615423565b600060405180830381855afa9150503d8060008114613a83576040519150601f19603f3d011682016040523d82523d6000602084013e613a88565b606091505b5091509150818015613a9b575080516020145b613aa6576012613243565b8080602001905181019061324391906153db565b6000467f00000000000000000000000000000000000000000000000000000000000000008114613af257613aed81614aae565b613b14565b7f00000000000000000000000000000000000000000000000000000000000000005b91505090565b81810181811015610aeb5760405162461bcd60e51b81526004016109c0906158a4565b60008080620186a0613b50856032613f84565b81613b5757fe5b049050613b97613b678583613b1a565b60408051808201909152600f546001600160801b038082168352600160801b909104166020820152906001614ae5565b8151600f80546020948501516001600160801b03908116600160801b029381166001600160801b031990921691909117169190911790553360009081526011909252604090912054909350613bec9084613b1a565b33600081815260116020526040908190209290925590516001600160a01b03871691907f3a5151e57d3bc9798e7853034ac52293d1a0e12a2b44725e75b03b21f86477a690613c4090889086908990615d56565b60405180910390a3600a54604051638eb22cdd60e01b81526001600160a01b037f00000000000000000000000000000000000000000000000000000000000000001691638eb22cdd91613c9b91908890600090600401615d3e565b60206040518083038186803b158015613cb357600080fd5b505afa158015613cc7573d6000803e3d6000fd5b505050506040513d601f19601f82011682018060405250810190613ceb9190615258565b9150613cf5614b44565b5060408051808201909152600e546001600160801b038082168352600160801b90910416602082018190526103e81115613d415760405162461bcd60e51b81526004016109c0906158db565b613d4d61185c84613fbb565b6001600160801b03908116808352600e805460208501518416600160801b026001600160801b0319909116909217909216179055600a54604051631b66a95360e11b81526001600160a01b037f000000000000000000000000000000000000000000000000000000000000000016916336cd52a691613dd5919030908b908990600401615c24565b600060405180830381600087803b158015613def57600080fd5b505af1158015613e03573d6000803e3d6000fd5b5050505050509250929050565b6001600160a01b03831660009081526011602052604081205480613e38576001915050610b5f565b6001600160a01b03851660009081526010602052604090205480613e6157600092505050610b5f565b613e69614b44565b5060408051808201909152600f546001600160801b03808216808452600160801b909204166020830181905290613ea790879061168a908790613f84565b81613eae57fe5b047f00000000000000000000000000000000000000000000000000000000000000006001600160a01b031663442c1599600954613f078a613ef257620124f8613ef7565b62012cc85b61168a886509184e72a000613f84565b60006040518463ffffffff1660e01b8152600401613f2793929190615d3e565b60206040518083038186803b158015613f3f57600080fd5b505afa158015613f53573d6000803e3d6000fd5b505050506040513d601f19601f82011682018060405250810190613f779190615258565b1015979650505050505050565b6000811580613f9f57505080820282828281613f9c57fe5b04145b610aeb5760405162461bcd60e51b81526004016109c090615b17565b60006001600160801b03821115613fe45760405162461bcd60e51b81526004016109c09061586d565b5090565b8181016001600160801b038083169082161015610aeb5760405162461bcd60e51b81526004016109c0906158a4565b80156140925761406e827f00000000000000000000000000000000000000000000000000000000000000006001600160a01b031662fdd58e30886040518363ffffffff1660e01b8152600401611bb7929190615605565b83111561408d5760405162461bcd60e51b81526004016109c090615b4e565b614117565b604051631b66a95360e11b81526001600160a01b037f000000000000000000000000000000000000000000000000000000000000000016906336cd52a6906140e4908790339030908990600401615c24565b600060405180830381600087803b1580156140fe57600080fd5b505af1158015614112573d6000803e3d6000fd5b505050505b50505050565b336000908152601060205260409020546141379082614226565b33600090815260106020526040902055600d546141549082614226565b600d556040516001600160a01b0383169033907f8ad4d3ff00da092c7ad9a573ea4f5f6a3dffc6712dc06d3f78f49b862297c40290614194908590615639565b60405180910390a3600954604051631b66a95360e11b81526001600160a01b037f000000000000000000000000000000000000000000000000000000000000000016916336cd52a6916141f09190309087908790600401615c24565b600060405180830381600087803b15801561420a57600080fd5b505af115801561421e573d6000803e3d6000fd5b505050505050565b80820382811115610aeb5760405162461bcd60e51b81526004016109c0906157a8565b600083602001516001600160801b031660001415614268575081610b5f565b602084015184516001600160801b039182169161428791869116613f84565b8161428e57fe5b0490508180156142d257508284600001516001600160801b03166142c886602001516001600160801b031684613f8490919063ffffffff16565b816142cf57fe5b04105b15610b5f57610b06816001613b1a565b8082036001600160801b038084169082161115610aeb5760405162461bcd60e51b81526004016109c0906157a8565b60008084121561433157600019841461432a578161432c565b825b610b06565b509192915050565b600080600080600080898060200190518101906143569190615296565b9350935093509350614369828989614311565b9150614376818989614311565b9050341561442c576040516356150edf60e01b81526001600160a01b037f000000000000000000000000000000000000000000000000000000000000000016906356150edf908b906143ce9088908890600401615c0d565b60408051808303818588803b1580156143e657600080fd5b505af11580156143fa573d6000803e3d6000fd5b50505050506040513d601f19601f8201168201806040525081019061441f919061539c565b95509550505050506144d1565b6040516301f8f61760e41b81526001600160a01b037f00000000000000000000000000000000000000000000000000000000000000001690631f8f6170906144809087903390889088908890600401615c49565b6040805180830381600087803b15801561449957600080fd5b505af11580156144ad573d6000803e3d6000fd5b505050506040513d601f19601f8201168201806040525081019061441f919061539c565b94509492505050565b600080600080600080888060200190518101906144f79190615296565b93509350935093507f00000000000000000000000000000000000000000000000000000000000000006001600160a01b0316638d2e63b885338661453c878e8e614311565b614547878f8f614311565b6040518663ffffffff1660e01b8152600401614567959493929190615c49565b6040805180830381600087803b15801561458057600080fd5b505af1158015614594573d6000803e3d6000fd5b505050506040513d601f19601f820116820180604052508101906145b8919061539c565b9550955050505050935093915050565b606060008060606000806000898060200190518101906145e89190614d75565b945094509450945094508280156145fd575081155b1561462b57838960405160200161461592919061543f565b6040516020818303038152906040529350614684565b821580156146365750815b1561464e57838860405160200161461592919061543f565b8280156146585750815b156146845783898960405160200161467293929190615461565b60405160208183030381529060405293505b7f00000000000000000000000000000000000000000000000000000000000000006001600160a01b0316856001600160a01b0316141580156146cf57506001600160a01b0385163014155b6146eb5760405162461bcd60e51b81526004016109c0906159dd565b60006060866001600160a01b03168d876040516147089190615423565b60006040518083038185875af1925050503d8060008114614745576040519150601f19603f3d011682016040523d82523d6000602084013e61474a565b606091505b50915091508161476c5760405162461bcd60e51b81526004016109c090615a42565b9c919b50909950505050505050505050565b82516000906001600160801b0316614797575081610b5f565b835160208501516001600160801b03918216916147b691869116613f84565b816147bd57fe5b0490508180156142d257508284602001516001600160801b03166142c886600001516001600160801b031684613f8490919063ffffffff16565b60408051600481526024810182526020810180516001600160e01b03166395d89b4160e01b179052905160609160009183916001600160a01b038616916131cf9190615423565b600060405180604001604052806002815260200161190160f01b815250614863613aba565b8360405160200161487693929190615461565b604051602081830303815290604052805190602001209050919050565b606060408251106148b957818060200190518101906148b29190615226565b9050613248565b8151602014156149d85760005b60208160ff161080156148f55750828160ff16815181106148e357fe5b01602001516001600160f81b03191615155b15614902576001016148c6565b60608160ff166001600160401b038111801561491d57600080fd5b506040519080825280601f01601f191660200182016040528015614948576020820181803683370190505b509050600091505b60208260ff1610801561497f5750838260ff168151811061496d57fe5b01602001516001600160f81b03191615155b156149cf57838260ff168151811061499357fe5b602001015160f81c60f81b818360ff16815181106149ad57fe5b60200101906001600160f81b031916908160001a905350600190910190614950565b91506132489050565b506040805180820190915260038152623f3f3f60e81b6020820152613248565b614a00614b44565b6000614a0d858585614249565b9050614a2c614a1b82613fbb565b86516001600160801b0316906142e2565b6001600160801b03168552614a57614a4385613fbb565b60208701516001600160801b0316906142e2565b6001600160801b03166020860152939492505050565b614a75614b44565b614a81612d9884613fbb565b6001600160801b03168452614a986135b383613fbb565b6001600160801b03166020850152509192915050565b60007f47e79534a245952e8b16893a336b85a3d9ea9fa8c573f3d803afb92a79469218823060405160200161487693929190615676565b614aed614b44565b6000614afa85858561477e565b9050614b19614b0885613fbb565b86516001600160801b031690613fe8565b6001600160801b03168552614a57614b3082613fbb565b60208701516001600160801b031690613fe8565b604080518082019091526000808252602082015290565b604080516060810182526000808252602082018190529181019190915290565b8035610aeb81615e8a565b60008083601f840112614b97578182fd5b5081356001600160401b03811115614bad578182fd5b6020830191508360208083028501011115610f5857600080fd5b600082601f830112614bd7578081fd5b8135614bea614be582615e10565b615dea565b818152915060208083019084810181840286018201871015614c0b57600080fd5b60005b84811015614c2a57813584529282019290820190600101614c0e565b505050505092915050565b600082601f830112614c45578081fd5b8135614c53614be582615e2f565b9150808252836020828501011115614c6a57600080fd5b8060208401602084013760009082016020015292915050565b600082601f830112614c93578081fd5b8151614ca1614be582615e2f565b9150808252836020828501011115614cb857600080fd5b614cc9816020840160208601615e5e565b5092915050565b600060208284031215614ce1578081fd5b8135610b5f81615e8a565b600060208284031215614cfd578081fd5b8151610b5f81615e8a565b60008060008060008060c08789031215614d20578182fd5b8635614d2b81615e8a565b95506020870135614d3b81615e8a565b94506040870135614d4b81615ea2565b93506060870135614d5b81615eb0565b9598949750929560808101359460a0909101359350915050565b600080600080600060a08688031215614d8c578283fd5b8551614d9781615e8a565b60208701519095506001600160401b03811115614db2578384fd5b614dbe88828901614c83565b9450506040860151614dcf81615ea2565b6060870151909350614de081615ea2565b6080870151909250614df181615eb0565b809150509295509295909350565b60008060408385031215614e11578182fd5b8235614e1c81615e8a565b91506020830135614e2c81615e8a565b809150509250929050565b600080600060608486031215614e4b578081fd5b8335614e5681615e8a565b92506020840135614e6681615e8a565b929592945050506040919091013590565b600080600080600080600060e0888a031215614e91578485fd5b8735614e9c81615e8a565b96506020880135614eac81615e8a565b955060408801359450606088013593506080880135614eca81615eb0565b9699959850939692959460a0840135945060c09093013592915050565b600080600060608486031215614efb578081fd5b8335614f0681615e8a565b92506020840135614f1681615ea2565b91506040840135614f2681615ea2565b809150509250925092565b600080600060608486031215614f45578081fd5b8335614f5081615e8a565b92506020840135614e6681615ea2565b60008060408385031215614f72578182fd5b8235614f7d81615e8a565b946020939093013593505050565b60008060008060008060808789031215614fa3578384fd5b86356001600160401b0380821115614fb9578586fd5b614fc58a838b01614b86565b90985096506020890135915080821115614fdd578586fd5b50614fea89828a01614b86565b9095509350506040870135614ffe81615e8a565b9150606087013561500e81615e8a565b809150509295509295509295565b60008060008060008060608789031215615034578384fd5b86356001600160401b038082111561504a578586fd5b6150568a838b01614b86565b9098509650602089013591508082111561506e578586fd5b61507a8a838b01614b86565b90965094506040890135915080821115615092578384fd5b5061509f89828a01614b86565b979a9699509497509295939492505050565b6000602082840312156150c2578081fd5b8151610b5f81615ea2565b600080604083850312156150df578182fd5b82516150ea81615ea2565b6020939093015192949293505050565b60008060006060848603121561510e578081fd5b833561511981615ea2565b95602085013595506040909401359392505050565b60008060008060808587031215615143578182fd5b843561514e81615e8a565b9350602085013561515e81615e8a565b92506040850135915060608501356001600160401b0381111561517f578182fd5b61518b87828801614c35565b91505092959194509250565b600080604083850312156151a9578182fd5b82356151b481615e8a565b91506020830135614e2c81615ea2565b6000602082840312156151d5578081fd5b5035919050565b600080604083850312156151ee578182fd5b823591506020830135614e2c81615e8a565b600080600060608486031215615214578081fd5b833592506020840135614f1681615e8a565b600060208284031215615237578081fd5b81516001600160401b0381111561524c578182fd5b610b0684828501614c83565b600060208284031215615269578081fd5b5051919050565b600080600060608486031215615284578081fd5b833592506020840135614e6681615e8a565b600080600080608085870312156152ab578182fd5b8451935060208501516152bd81615e8a565b6040860151606090960151949790965092505050565b6000806000606084860312156152e7578081fd5b833592506020808501356001600160401b0380821115615305578384fd5b818701915087601f830112615318578384fd5b8135615326614be582615e10565b81815284810190848601868402860187018c1015615342578788fd5b8795505b8386101561536c576153588c82614b7b565b835260019590950194918601918601615346565b50965050506040870135925080831115615384578384fd5b505061539286828701614bc7565b9150509250925092565b600080604083850312156153ae578182fd5b505080516020909101519092909150565b6000602082840312156153d0578081fd5b8135610b5f81615eb0565b6000602082840312156153ec578081fd5b8151610b5f81615eb0565b6000815180845261540f816020860160208601615e5e565b601f01601f19169290920160200192915050565b60008251615435818460208701615e5e565b9190910192915050565b60008351615451818460208801615e5e565b9190910191825250602001919050565b60008451615473818460208901615e5e565b91909101928352506020820152604001919050565b600061746d60f01b825284516154a5816002850160208901615e5e565b602f60f81b60029184019182015284516154c6816003840160208901615e5e565b602d60f81b6003929091019182015283516154e8816004840160208801615e5e565b0160040195945050505050565b60007202a30b834b7b1b09026b4bc37b637b3b4b9ba1606d1b82528451615523816013850160208901615e5e565b602f60f81b6013918401918201528451615544816014840160208901615e5e565b602d60f81b601492909101918201528351615566816015840160208801615e5e565b0160150195945050505050565b6001600160a01b0391909116815260200190565b6001600160a01b03868116825285166020820152604081018490526060810183905260a0608082018190526000906155c1908301846153f7565b979650505050505050565b6001600160a01b039687168152949095166020850152911515604084015260ff166060830152608082015260a081019190915260c00190565b6001600160a01b03929092168252602082015260400190565b901515815260200190565b9115158252602082015260400190565b90815260200190565b9586526001600160a01b0394851660208701529290931660408501526060840152608083019190915260a082015260c00190565b92835260208301919091526001600160a01b0316604082015260600190565b93845260ff9290921660208401526040830152606082015260800190565b600060208252610b5f60208301846153f7565b600060208083018184528285546001808216600081146156ed576001811461570b57615743565b60028304607f16855260ff1983166040890152606088019350615743565b6002830480865261571b8a615e52565b885b828110156157395781548b82016040015290840190880161571d565b8a01604001955050505b5091979650505050505050565b6001600160a01b03958616815293851660208501529190931660408301526060820192909252608081019190915260a00190565b93845260208401929092526001600160401b03166040830152606082015260800190565b602080825260159082015274426f72696e674d6174683a20556e646572666c6f7760581b604082015260600190565b60208082526016908201527545524332303a206e6f207a65726f206164647265737360501b604082015260600190565b6020808252601590820152744f776e61626c653a207a65726f206164647265737360581b604082015260600190565b60208082526017908201527f4d69786f6c6f676973743a2072617465206e6f74206f6b000000000000000000604082015260600190565b6020808252601c908201527f426f72696e674d6174683a2075696e74313238204f766572666c6f7700000000604082015260600190565b60208082526018908201527f426f72696e674d6174683a20416464204f766572666c6f770000000000000000604082015260600190565b60208082526019908201527f4d69786f6c6f676973743a2062656c6f77206d696e696d756d00000000000000604082015260600190565b60208082526018908201527f45524332303a20616c6c6f77616e636520746f6f206c6f770000000000000000604082015260600190565b6020808252600e908201526d115490cc8c0e88115e1c1a5c995960921b604082015260600190565b6020808252601a908201527f4d69786f6c6f676973743a207573657220696e736f6c76656e74000000000000604082015260600190565b6020808252818101527f4f776e61626c653a2063616c6c6572206973206e6f7420746865206f776e6572604082015260600190565b602080825260169082015275135a5e1bdb1bd9da5cdd0e8818d85b89dd0818d85b1b60521b604082015260600190565b6020808252818101527f4f776e61626c653a2063616c6c657220213d2070656e64696e67206f776e6572604082015260600190565b60208082526017908201527f4d69786f6c6f676973743a2063616c6c206661696c6564000000000000000000604082015260600190565b60208082526018908201527f45524332303a204f776e65722063616e6e6f7420626520300000000000000000604082015260600190565b6020808252601b908201527f4d69786f6c6f676973743a20616c6c2061726520736f6c76656e740000000000604082015260600190565b60208082526016908201527545524332303a2062616c616e636520746f6f206c6f7760501b604082015260600190565b60208082526018908201527f426f72696e674d6174683a204d756c204f766572666c6f770000000000000000604082015260600190565b60208082526019908201527f4d69786f6c6f676973743a20536b696d20746f6f206d75636800000000000000604082015260600190565b6020808252601b908201527f4d69786f6c6f676973743a20496e76616c696420737761707065720000000000604082015260600190565b60208082526018908201527f45524332303a20496e76616c6964205369676e61747572650000000000000000604082015260600190565b6001600160801b0392831681529116602082015260400190565b9182526001600160a01b0316602082015260400190565b9384526001600160a01b03928316602085015291166040830152606082015260800190565b9485526001600160a01b0393841660208601529190921660408401526060830191909152608082015260a00190565b600060808201868352602060018060a01b03808816828601526080604086015282875180855260a0870191508389019450855b81811015615cc9578551841683529484019491840191600101615cab565b50508581036060870152865180825290830193509050818601845b82811015615d0057815185529383019390830190600101615ce4565b50929998505050505050505050565b918252602082015260400190565b9283526001600160801b039190911660208301521515604082015260600190565b92835260208301919091521515604082015260600190565b9283526020830191909152604082015260600190565b6001600160401b0393841681529190921660208201526001600160801b03909116604082015260600190565b60ff91909116815260200190565b6000808335601e19843603018112615dbc578283fd5b8301803591506001600160401b03821115615dd5578283fd5b602001915036819003821315610f5857600080fd5b6040518181016001600160401b0381118282101715615e0857600080fd5b604052919050565b60006001600160401b03821115615e25578081fd5b5060209081020190565b60006001600160401b03821115615e44578081fd5b50601f01601f191660200190565b60009081526020902090565b60005b83811015615e79578181015183820152602001615e61565b838111156141175750506000910152565b6001600160a01b0381168114615e9f57600080fd5b50565b8015158114615e9f57600080fd5b60ff81168114615e9f57600080fdfeddf252ad1be2c89b69c2b068fc378daa952ba7f163c4a11628f55a4df523b3efa2646970667358221220f23c4b4f608779c62f20a63130c93f2443c452735b52a2793bf19725e1c2012564736f6c634300060c0033",
  "devdoc": {
    "details": "This contract allows contract calls to any contract (except tapiocaBar) from arbitrary callers thus, don't trust calls from this contract in any circumstances.",
    "kind": "dev",
    "methods": {
      "addAsset(address,bool,uint256)": {
        "params": {
          "share": "The amount of shares to add.",
          "skim": "True if the amount should be skimmed from the deposit balance of msg.sender. False if tokens from msg.sender in `tapiocaBar` should be transferred.",
          "to": "The address of the user to receive the assets."
        },
        "returns": {
          "fraction": "Total fractions added."
        }
      },
      "addCollateral(address,bool,uint256)": {
        "params": {
          "share": "The amount of shares to add for `to`.",
          "skim": "True if the amount should be skimmed from the deposit balance of msg.sender. False if tokens from msg.sender in `tapiocaBar` should be transferred.",
          "to": "The receiver of the tokens."
        }
      },
      "approve(address,uint256)": {
        "params": {
          "amount": "The maximum collective amount that `spender` can draw.",
          "spender": "Address of the party that can draw from msg.sender's account."
        },
        "returns": {
          "_0": "(bool) Returns True if approved."
        }
      },
      "borrow(address,uint256)": {
        "returns": {
          "part": "Total part of the debt held by borrowers.",
          "share": "Total amount in shares borrowed."
        }
      },
      "flashLoan(address,address,uint256,bytes)": {
        "params": {
          "amount": "of the tokens to receive.",
          "borrower": "The address of the contract that implements and conforms to `IFlashBorrower` and handles the flashloan.",
          "data": "The calldata to pass to the `borrower` contract.",
          "receiver": "Address of the token receiver."
        }
      },
      "liquidate(address[],uint256[],address,address)": {
        "params": {
          "maxBorrowParts": "A one-to-one mapping to `users`, contains maximum (partial) borrow amounts (to liquidate) of the respective user.",
          "swapper": "Contract address of the `ISwapper` implementation. Swappers are restricted for closed liquidations. See `setSwapper`.",
          "to": "Address of the receiver in open liquidations if `swapper` is zero.",
          "users": "An array of user addresses."
        }
      },
      "mix(uint8[],uint256[],bytes[])": {
        "params": {
          "actions": "An array with a sequence of actions to execute (see ACTION_ declarations).",
          "datas": "A one-to-one mapped array to `actions`. Contains abi encoded data of function arguments.",
          "values": "A one-to-one mapped array to `actions`. ETH amounts to send along with the actions. Only applicable to `ACTION_CALL`, `ACTION_BAR_DEPOSIT`."
        },
        "returns": {
          "value1": "May contain the first positioned return value of the last executed action (if applicable).",
          "value2": "May contain the second positioned return value of the last executed action which returns 2 values (if applicable)."
        }
      },
      "permit(address,address,uint256,uint256,uint8,bytes32,bytes32)": {
        "params": {
          "deadline": "This permit must be redeemed before this deadline (UTC timestamp in seconds).",
          "owner_": "Address of the owner.",
          "spender": "The address of the spender that gets approved to draw from `owner_`.",
          "value": "The maximum collective amount that `spender` can draw."
        }
      },
      "removeAsset(address,uint256)": {
        "params": {
          "fraction": "The amount/fraction of assets held to remove.",
          "to": "The user that receives the removed assets."
        },
        "returns": {
          "share": "The amount of shares transferred to `to`."
        }
      },
      "removeCollateral(address,uint256)": {
        "params": {
          "share": "Amount of shares to remove.",
          "to": "The receiver of the shares."
        }
      },
      "repay(address,bool,uint256)": {
        "params": {
          "part": "The amount to repay. See `userBorrowPart`.",
          "skim": "True if the amount should be skimmed from the deposit balance of msg.sender. False if tokens from msg.sender in `tapiocaBar` should be transferred.",
          "to": "Address of the user this payment should go."
        },
        "returns": {
          "amount": "The total amount repayed."
        }
      },
      "setFeeTo(address)": {
        "params": {
          "newFeeTo": "The address of the receiver."
        }
      },
      "setSwapper(address,bool)": {
        "params": {
          "enable": "True to enable the swapper. To disable use False.",
          "swapper": "The address of the swapper contract that conforms to `ISwapper`."
        }
      },
      "transfer(address,uint256)": {
        "params": {
          "amount": "of the tokens to move.",
          "to": "The address to move the tokens."
        },
        "returns": {
          "_0": "(bool) Returns True if succeeded."
        }
      },
      "transferFrom(address,address,uint256)": {
        "params": {
          "amount": "The token amount to move.",
          "from": "Address to draw tokens from.",
          "to": "The address to move the tokens."
        },
        "returns": {
          "_0": "(bool) Returns True if succeeded."
        }
      },
      "transferOwnership(address,bool,bool)": {
        "params": {
          "direct": "True if `newOwner` should be set immediately. False if `newOwner` needs to use `claimOwnership`.",
          "newOwner": "Address of the new owner.",
          "renounce": "Allows the `newOwner` to be `address(0)` if `direct` and `renounce` is True. Has no effect otherwise."
        }
      },
      "updateExchangeRate()": {
        "returns": {
          "rate": "The new exchange rate.",
          "updated": "True if `exchangeRate` was updated."
        }
      }
    },
    "title": "Mixologist",
    "version": 1
  },
  "userdoc": {
    "kind": "user",
    "methods": {
      "accrue()": {
        "notice": "Accrues the interest on the borrowed tokens and handles the accumulation of fees."
      },
      "addAsset(address,bool,uint256)": {
        "notice": "Adds assets to the lending pair."
      },
      "addCollateral(address,bool,uint256)": {
        "notice": "Adds `collateral` from msg.sender to the account `to`."
      },
      "allowance(address,address)": {
        "notice": "owner > spender > allowance mapping."
      },
      "approve(address,uint256)": {
        "notice": "Approves `amount` from sender to be spend by `spender`."
      },
      "balanceOf(address)": {
        "notice": "owner > balance mapping."
      },
      "borrow(address,uint256)": {
        "notice": "Sender borrows `amount` and transfers it to `to`."
      },
      "claimOwnership()": {
        "notice": "Needs to be called by `pendingOwner` to claim ownership."
      },
      "constructor": "The constructor is only used for the initial master contract. Subsequent clones are initialised via `init`.",
      "exchangeRate()": {
        "notice": "Exchange and interest rate tracking. This is 'cached' here because calls to Oracles can be very expensive."
      },
      "liquidate(address[],uint256[],address,address)": {
        "notice": "Handles the liquidation of users' balances, once the users' amount of collateral is too low."
      },
      "mix(uint8[],uint256[],bytes[])": {
        "notice": "Executes a set of actions and allows composability (contract calls) to other contracts."
      },
      "nonces(address)": {
        "notice": "owner > nonce mapping. Used in `permit`."
      },
      "permit(address,address,uint256,uint256,uint8,bytes32,bytes32)": {
        "notice": "Approves `value` from `owner_` to be spend by `spender`."
      },
      "removeAsset(address,uint256)": {
        "notice": "Removes an asset from msg.sender and transfers it to `to`."
      },
      "removeCollateral(address,uint256)": {
        "notice": "Removes `share` amount of collateral and transfers it to `to`."
      },
      "repay(address,bool,uint256)": {
        "notice": "Repays a loan."
      },
      "setFeeTo(address)": {
        "notice": "Sets the beneficiary of fees accrued in liquidations. MasterContract Only Admin function."
      },
      "setSwapper(address,bool)": {
        "notice": "Used to register and enable or disable swapper contracts used in closed liquidations. MasterContract Only Admin function."
      },
      "transfer(address,uint256)": {
        "notice": "Transfers `amount` tokens from `msg.sender` to `to`."
      },
      "transferFrom(address,address,uint256)": {
        "notice": "Transfers `amount` tokens from `from` to `to`. Caller needs approval for `from`."
      },
      "transferOwnership(address,bool,bool)": {
        "notice": "Transfers ownership to `newOwner`. Either directly or claimable by the new pending owner. Can only be invoked by the current `owner`."
      },
      "updateExchangeRate()": {
        "notice": "Gets the exchange rate. I.e how much collateral to buy 1e18 asset. This function is supposed to be invoked if needed because Oracle queries can be expensive."
      },
      "withdrawFees()": {
        "notice": "Withdraws the fees accumulated."
      }
    },
    "version": 1
  },
  "storageLayout": {
    "storage": [
      {
        "astId": 368,
        "contract": "contracts/mixologist/Mixologist.sol:Mixologist",
        "label": "balanceOf",
        "offset": 0,
        "slot": "0",
        "type": "t_mapping(t_address,t_uint256)"
      },
      {
        "astId": 376,
        "contract": "contracts/mixologist/Mixologist.sol:Mixologist",
        "label": "allowance",
        "offset": 0,
        "slot": "1",
        "type": "t_mapping(t_address,t_mapping(t_address,t_uint256))"
      },
      {
        "astId": 381,
        "contract": "contracts/mixologist/Mixologist.sol:Mixologist",
        "label": "nonces",
        "offset": 0,
        "slot": "2",
        "type": "t_mapping(t_address,t_uint256)"
      },
      {
        "astId": 118,
        "contract": "contracts/mixologist/Mixologist.sol:Mixologist",
        "label": "owner",
        "offset": 0,
        "slot": "3",
        "type": "t_address"
      },
      {
        "astId": 120,
        "contract": "contracts/mixologist/Mixologist.sol:Mixologist",
        "label": "pendingOwner",
        "offset": 0,
        "slot": "4",
        "type": "t_address"
      },
      {
        "astId": 4182,
        "contract": "contracts/mixologist/Mixologist.sol:Mixologist",
        "label": "feeTo",
        "offset": 0,
        "slot": "5",
        "type": "t_address"
      },
      {
        "astId": 4186,
        "contract": "contracts/mixologist/Mixologist.sol:Mixologist",
        "label": "swappers",
        "offset": 0,
        "slot": "6",
        "type": "t_mapping(t_contract(ISwapper)7812,t_bool)"
      },
      {
        "astId": 4188,
        "contract": "contracts/mixologist/Mixologist.sol:Mixologist",
        "label": "collateral",
        "offset": 0,
        "slot": "7",
        "type": "t_contract(IERC20)849"
      },
      {
        "astId": 4190,
        "contract": "contracts/mixologist/Mixologist.sol:Mixologist",
        "label": "asset",
        "offset": 0,
        "slot": "8",
        "type": "t_contract(IERC20)849"
      },
      {
        "astId": 4192,
        "contract": "contracts/mixologist/Mixologist.sol:Mixologist",
        "label": "collateralId",
        "offset": 0,
        "slot": "9",
        "type": "t_uint256"
      },
      {
        "astId": 4194,
        "contract": "contracts/mixologist/Mixologist.sol:Mixologist",
        "label": "assetId",
        "offset": 0,
        "slot": "10",
        "type": "t_uint256"
      },
      {
        "astId": 4196,
        "contract": "contracts/mixologist/Mixologist.sol:Mixologist",
        "label": "oracle",
        "offset": 0,
        "slot": "11",
        "type": "t_contract(IOracle)7770"
      },
      {
        "astId": 4198,
        "contract": "contracts/mixologist/Mixologist.sol:Mixologist",
        "label": "oracleData",
        "offset": 0,
        "slot": "12",
        "type": "t_bytes_storage"
      },
      {
        "astId": 4200,
        "contract": "contracts/mixologist/Mixologist.sol:Mixologist",
        "label": "totalCollateralShare",
        "offset": 0,
        "slot": "13",
        "type": "t_uint256"
      },
      {
        "astId": 4202,
        "contract": "contracts/mixologist/Mixologist.sol:Mixologist",
        "label": "totalAsset",
        "offset": 0,
        "slot": "14",
        "type": "t_struct(Rebase)1571_storage"
      },
      {
        "astId": 4204,
        "contract": "contracts/mixologist/Mixologist.sol:Mixologist",
        "label": "totalBorrow",
        "offset": 0,
        "slot": "15",
        "type": "t_struct(Rebase)1571_storage"
      },
      {
        "astId": 4208,
        "contract": "contracts/mixologist/Mixologist.sol:Mixologist",
        "label": "userCollateralShare",
        "offset": 0,
        "slot": "16",
        "type": "t_mapping(t_address,t_uint256)"
      },
      {
        "astId": 4212,
        "contract": "contracts/mixologist/Mixologist.sol:Mixologist",
        "label": "userBorrowPart",
        "offset": 0,
        "slot": "17",
        "type": "t_mapping(t_address,t_uint256)"
      },
      {
        "astId": 4215,
        "contract": "contracts/mixologist/Mixologist.sol:Mixologist",
        "label": "exchangeRate",
        "offset": 0,
        "slot": "18",
        "type": "t_uint256"
      },
      {
        "astId": 4224,
        "contract": "contracts/mixologist/Mixologist.sol:Mixologist",
        "label": "accrueInfo",
        "offset": 0,
        "slot": "19",
        "type": "t_struct(AccrueInfo)4222_storage"
      }
    ],
    "types": {
      "t_address": {
        "encoding": "inplace",
        "label": "address",
        "numberOfBytes": "20"
      },
      "t_bool": {
        "encoding": "inplace",
        "label": "bool",
        "numberOfBytes": "1"
      },
      "t_bytes_storage": {
        "encoding": "bytes",
        "label": "bytes",
        "numberOfBytes": "32"
      },
      "t_contract(IERC20)849": {
        "encoding": "inplace",
        "label": "contract IERC20",
        "numberOfBytes": "20"
      },
      "t_contract(IOracle)7770": {
        "encoding": "inplace",
        "label": "contract IOracle",
        "numberOfBytes": "20"
      },
      "t_contract(ISwapper)7812": {
        "encoding": "inplace",
        "label": "contract ISwapper",
        "numberOfBytes": "20"
      },
      "t_mapping(t_address,t_mapping(t_address,t_uint256))": {
        "encoding": "mapping",
        "key": "t_address",
        "label": "mapping(address => mapping(address => uint256))",
        "numberOfBytes": "32",
        "value": "t_mapping(t_address,t_uint256)"
      },
      "t_mapping(t_address,t_uint256)": {
        "encoding": "mapping",
        "key": "t_address",
        "label": "mapping(address => uint256)",
        "numberOfBytes": "32",
        "value": "t_uint256"
      },
      "t_mapping(t_contract(ISwapper)7812,t_bool)": {
        "encoding": "mapping",
        "key": "t_contract(ISwapper)7812",
        "label": "mapping(contract ISwapper => bool)",
        "numberOfBytes": "32",
        "value": "t_bool"
      },
      "t_struct(AccrueInfo)4222_storage": {
        "encoding": "inplace",
        "label": "struct Mixologist.AccrueInfo",
        "members": [
          {
            "astId": 4217,
            "contract": "contracts/mixologist/Mixologist.sol:Mixologist",
            "label": "interestPerSecond",
            "offset": 0,
            "slot": "0",
            "type": "t_uint64"
          },
          {
            "astId": 4219,
            "contract": "contracts/mixologist/Mixologist.sol:Mixologist",
            "label": "lastAccrued",
            "offset": 8,
            "slot": "0",
            "type": "t_uint64"
          },
          {
            "astId": 4221,
            "contract": "contracts/mixologist/Mixologist.sol:Mixologist",
            "label": "feesEarnedFraction",
            "offset": 16,
            "slot": "0",
            "type": "t_uint128"
          }
        ],
        "numberOfBytes": "32"
      },
      "t_struct(Rebase)1571_storage": {
        "encoding": "inplace",
        "label": "struct Rebase",
        "members": [
          {
            "astId": 1568,
            "contract": "contracts/mixologist/Mixologist.sol:Mixologist",
            "label": "elastic",
            "offset": 0,
            "slot": "0",
            "type": "t_uint128"
          },
          {
            "astId": 1570,
            "contract": "contracts/mixologist/Mixologist.sol:Mixologist",
            "label": "base",
            "offset": 16,
            "slot": "0",
            "type": "t_uint128"
          }
        ],
        "numberOfBytes": "32"
      },
      "t_uint128": {
        "encoding": "inplace",
        "label": "uint128",
        "numberOfBytes": "16"
      },
      "t_uint256": {
        "encoding": "inplace",
        "label": "uint256",
        "numberOfBytes": "32"
      },
      "t_uint64": {
        "encoding": "inplace",
        "label": "uint64",
        "numberOfBytes": "8"
      }
    }
  }
}