{
  "address": "0xAC839eF457Ae701532dE08693692946232c1aDf2",
  "abi": [
    {
      "inputs": [],
      "stateMutability": "nonpayable",
      "type": "constructor"
    },
    {
      "inputs": [
        {
          "internalType": "bytes",
          "name": "",
          "type": "bytes"
        }
      ],
      "name": "get",
      "outputs": [
        {
          "internalType": "bool",
          "name": "",
          "type": "bool"
        },
        {
          "internalType": "uint256",
          "name": "",
          "type": "uint256"
        }
      ],
      "stateMutability": "nonpayable",
      "type": "function"
    },
    {
      "inputs": [],
      "name": "getDataParameter",
      "outputs": [
        {
          "internalType": "bytes",
          "name": "",
          "type": "bytes"
        }
      ],
      "stateMutability": "pure",
      "type": "function"
    },
    {
      "inputs": [
        {
          "internalType": "bytes",
          "name": "",
          "type": "bytes"
        }
      ],
      "name": "name",
      "outputs": [
        {
          "internalType": "string",
          "name": "",
          "type": "string"
        }
      ],
      "stateMutability": "view",
      "type": "function"
    },
    {
      "inputs": [
        {
          "internalType": "bytes",
          "name": "",
          "type": "bytes"
        }
      ],
      "name": "peek",
      "outputs": [
        {
          "internalType": "bool",
          "name": "",
          "type": "bool"
        },
        {
          "internalType": "uint256",
          "name": "",
          "type": "uint256"
        }
      ],
      "stateMutability": "view",
      "type": "function"
    },
    {
      "inputs": [
        {
          "internalType": "bytes",
          "name": "",
          "type": "bytes"
        }
      ],
      "name": "peekSpot",
      "outputs": [
        {
          "internalType": "uint256",
          "name": "",
          "type": "uint256"
        }
      ],
      "stateMutability": "view",
      "type": "function"
    },
    {
      "inputs": [],
      "name": "rate",
      "outputs": [
        {
          "internalType": "uint256",
          "name": "",
          "type": "uint256"
        }
      ],
      "stateMutability": "view",
      "type": "function"
    },
    {
      "inputs": [
        {
          "internalType": "uint256",
          "name": "rate_",
          "type": "uint256"
        }
      ],
      "name": "set",
      "outputs": [],
      "stateMutability": "nonpayable",
      "type": "function"
    },
    {
      "inputs": [
        {
          "internalType": "bool",
          "name": "val",
          "type": "bool"
        }
      ],
      "name": "setSuccess",
      "outputs": [],
      "stateMutability": "nonpayable",
      "type": "function"
    },
    {
      "inputs": [],
      "name": "success",
      "outputs": [
        {
          "internalType": "bool",
          "name": "",
          "type": "bool"
        }
      ],
      "stateMutability": "view",
      "type": "function"
    },
    {
      "inputs": [
        {
          "internalType": "bytes",
          "name": "",
          "type": "bytes"
        }
      ],
      "name": "symbol",
      "outputs": [
        {
          "internalType": "string",
          "name": "",
          "type": "string"
        }
      ],
      "stateMutability": "view",
      "type": "function"
    }
  ],
  "transactionHash": "0x24345a084c37c826bff6862a52c9411422d2e06607f04c5fe3065b8b7ef5e25a",
  "args": [],
  "numDeployments": 1,
  "solcInputHash": "6d5e055ae13eeca93758e589040b2bdf",
  "bytecode": "0x608060405234801561001057600080fd5b506001805460ff1916811790556104518061002c6000396000f3fe608060405234801561001057600080fd5b506004361061009e5760003560e01c8063c699c4d611610066578063c699c4d614610194578063d39bbef014610202578063d568866c14610270578063d6d7d525146102de578063eeb8a8d3146102de5761009e565b80630b93381b146100a35780632b39febd146100bf5780632c4e722e1461013c57806360fe47b1146101565780637bcc7f8114610175575b600080fd5b6100ab610367565b604080519115158252519081900360200190f35b6100c7610370565b6040805160208082528351818301528351919283929083019185019080838360005b838110156101015781810151838201526020016100e9565b50505050905090810190601f16801561012e5780820380516001836020036101000a031916815260200191505b509250505060405180910390f35b6101446103a5565b60408051918252519081900360200190f35b6101736004803603602081101561016c57600080fd5b50356103ab565b005b6101736004803603602081101561018b57600080fd5b503515156103b0565b6100c7600480360360208110156101aa57600080fd5b810190602081018135600160201b8111156101c457600080fd5b8201836020820111156101d657600080fd5b803590602001918460018302840111600160201b831117156101f757600080fd5b5090925090506103c3565b6101446004803603602081101561021857600080fd5b810190602081018135600160201b81111561023257600080fd5b82018360208201111561024457600080fd5b803590602001918460018302840111600160201b8311171561026557600080fd5b5090925090506103e3565b6100c76004803603602081101561028657600080fd5b810190602081018135600160201b8111156102a057600080fd5b8201836020820111156102b257600080fd5b803590602001918460018302840111600160201b831117156102d357600080fd5b5090925090506103eb565b61034c600480360360208110156102f457600080fd5b810190602081018135600160201b81111561030e57600080fd5b82018360208201111561032057600080fd5b803590602001918460018302840111600160201b8311171561034157600080fd5b50909250905061040b565b60408051921515835260208301919091528051918290030190f35b60015460ff1681565b604080516020808201526003818301526203078360ec1b60608281019190915282518083039091018152608090910190915290565b60005481565b600055565b6001805460ff1916911515919091179055565b5050604080518082019091526004815263151154d560e21b602082015290565b505060005490565b505060408051808201909152600481526315195cdd60e21b602082015290565b505060015460005460ff9091169156fea2646970667358221220f5ba2cd959654f17a7ee4d27ab0a8a49d6fae0f6ebf4730a601d5d6cb4cc3cea64736f6c634300060c0033",
  "devdoc": {
    "kind": "dev",
    "methods": {},
    "version": 1
  },
  "userdoc": {
    "kind": "user",
    "methods": {},
    "version": 1
  },
  "storageLayout": {
    "storage": [
      {
        "astId": 7851,
        "contract": "contracts/mixologist/legacy/mocks/OracleMock.sol:OracleMock",
        "label": "rate",
        "offset": 0,
        "slot": "0",
        "type": "t_uint256"
      },
      {
        "astId": 7853,
        "contract": "contracts/mixologist/legacy/mocks/OracleMock.sol:OracleMock",
        "label": "success",
        "offset": 0,
        "slot": "1",
        "type": "t_bool"
      }
    ],
    "types": {
      "t_bool": {
        "encoding": "inplace",
        "label": "bool",
        "numberOfBytes": "1"
      },
      "t_uint256": {
        "encoding": "inplace",
        "label": "uint256",
        "numberOfBytes": "32"
      }
    }
  }
}