{
  "address": "0x19de553a8CfFCFF8CB49E236C1a499F9CF083b97",
  "abi": [
    {
      "inputs": [
        {
          "internalType": "contract IERC20",
          "name": "wethToken_",
          "type": "address"
        }
      ],
      "stateMutability": "nonpayable",
      "type": "constructor"
    },
    {
      "anonymous": false,
      "inputs": [
        {
          "indexed": true,
          "internalType": "address",
          "name": "_owner",
          "type": "address"
        },
        {
          "indexed": true,
          "internalType": "address",
          "name": "_operator",
          "type": "address"
        },
        {
          "indexed": false,
          "internalType": "bool",
          "name": "_approved",
          "type": "bool"
        }
      ],
      "name": "ApprovalForAll",
      "type": "event"
    },
    {
      "anonymous": false,
      "inputs": [
        {
          "indexed": true,
          "internalType": "address",
          "name": "previousOwner",
          "type": "address"
        },
        {
          "indexed": true,
          "internalType": "address",
          "name": "newOwner",
          "type": "address"
        }
      ],
      "name": "OwnershipTransferred",
      "type": "event"
    },
    {
      "anonymous": false,
      "inputs": [
        {
          "indexed": true,
          "internalType": "address",
          "name": "_operator",
          "type": "address"
        },
        {
          "indexed": true,
          "internalType": "address",
          "name": "_from",
          "type": "address"
        },
        {
          "indexed": true,
          "internalType": "address",
          "name": "_to",
          "type": "address"
        },
        {
          "indexed": false,
          "internalType": "uint256[]",
          "name": "_ids",
          "type": "uint256[]"
        },
        {
          "indexed": false,
          "internalType": "uint256[]",
          "name": "_values",
          "type": "uint256[]"
        }
      ],
      "name": "TransferBatch",
      "type": "event"
    },
    {
      "anonymous": false,
      "inputs": [
        {
          "indexed": true,
          "internalType": "address",
          "name": "_operator",
          "type": "address"
        },
        {
          "indexed": true,
          "internalType": "address",
          "name": "_from",
          "type": "address"
        },
        {
          "indexed": true,
          "internalType": "address",
          "name": "_to",
          "type": "address"
        },
        {
          "indexed": false,
          "internalType": "uint256",
          "name": "_id",
          "type": "uint256"
        },
        {
          "indexed": false,
          "internalType": "uint256",
          "name": "_value",
          "type": "uint256"
        }
      ],
      "name": "TransferSingle",
      "type": "event"
    },
    {
      "anonymous": false,
      "inputs": [
        {
          "indexed": false,
          "internalType": "string",
          "name": "_value",
          "type": "string"
        },
        {
          "indexed": true,
          "internalType": "uint256",
          "name": "_id",
          "type": "uint256"
        }
      ],
      "name": "URI",
      "type": "event"
    },
    {
      "inputs": [],
      "name": "DOMAIN_SEPARATOR",
      "outputs": [
        {
          "internalType": "bytes32",
          "name": "",
          "type": "bytes32"
        }
      ],
      "stateMutability": "view",
      "type": "function"
    },
    {
      "inputs": [
        {
          "internalType": "uint256",
          "name": "",
          "type": "uint256"
        }
      ],
      "name": "assets",
      "outputs": [
        {
          "internalType": "uint96",
          "name": "standard",
          "type": "uint96"
        },
        {
          "internalType": "address",
          "name": "contractAddress",
          "type": "address"
        },
        {
          "internalType": "contract IStrategy",
          "name": "strategy",
          "type": "address"
        },
        {
          "internalType": "uint256",
          "name": "tokenId",
          "type": "uint256"
        }
      ],
      "stateMutability": "view",
      "type": "function"
    },
    {
      "inputs": [
        {
          "internalType": "address",
          "name": "owner",
          "type": "address"
        },
        {
          "internalType": "uint256",
          "name": "assetId",
          "type": "uint256"
        }
      ],
      "name": "balanceOf",
      "outputs": [
        {
          "internalType": "uint256",
          "name": "",
          "type": "uint256"
        }
      ],
      "stateMutability": "view",
      "type": "function"
    },
    {
      "inputs": [
        {
          "internalType": "address[]",
          "name": "owners",
          "type": "address[]"
        },
        {
          "internalType": "uint256[]",
          "name": "ids_",
          "type": "uint256[]"
        }
      ],
      "name": "balanceOfBatch",
      "outputs": [
        {
          "internalType": "uint256[]",
          "name": "balances",
          "type": "uint256[]"
        }
      ],
      "stateMutability": "view",
      "type": "function"
    },
    {
      "inputs": [
        {
          "internalType": "bytes[]",
          "name": "calls",
          "type": "bytes[]"
        },
        {
          "internalType": "bool",
          "name": "revertOnFail",
          "type": "bool"
        }
      ],
      "name": "batch",
      "outputs": [],
      "stateMutability": "payable",
      "type": "function"
    },
    {
      "inputs": [
        {
          "internalType": "address",
          "name": "from",
          "type": "address"
        },
        {
          "internalType": "address",
          "name": "to",
          "type": "address"
        },
        {
          "internalType": "uint256[]",
          "name": "assetIds_",
          "type": "uint256[]"
        },
        {
          "internalType": "uint256[]",
          "name": "shares_",
          "type": "uint256[]"
        }
      ],
      "name": "batchTransfer",
      "outputs": [],
      "stateMutability": "nonpayable",
      "type": "function"
    },
    {
      "inputs": [],
      "name": "claimOwnership",
      "outputs": [],
      "stateMutability": "nonpayable",
      "type": "function"
    },
    {
      "inputs": [
        {
          "internalType": "uint256",
          "name": "_assetId",
          "type": "uint256"
        },
        {
          "internalType": "address",
          "name": "from",
          "type": "address"
        },
        {
          "internalType": "address",
          "name": "to",
          "type": "address"
        },
        {
          "internalType": "uint256",
          "name": "amount",
          "type": "uint256"
        },
        {
          "internalType": "uint256",
          "name": "share",
          "type": "uint256"
        }
      ],
      "name": "deposit",
      "outputs": [
        {
          "internalType": "uint256",
          "name": "amountOut",
          "type": "uint256"
        },
        {
          "internalType": "uint256",
          "name": "shareOut",
          "type": "uint256"
        }
      ],
      "stateMutability": "nonpayable",
      "type": "function"
    },
    {
      "inputs": [
        {
          "internalType": "uint256",
          "name": "assetId",
          "type": "uint256"
        },
        {
          "internalType": "address",
          "name": "from",
          "type": "address"
        },
        {
          "internalType": "address",
          "name": "to",
          "type": "address"
        },
        {
          "internalType": "uint256",
          "name": "amount",
          "type": "uint256"
        },
        {
          "internalType": "uint256",
          "name": "share",
          "type": "uint256"
        }
      ],
      "name": "depositAsset",
      "outputs": [
        {
          "internalType": "uint256",
          "name": "amountOut",
          "type": "uint256"
        },
        {
          "internalType": "uint256",
          "name": "shareOut",
          "type": "uint256"
        }
      ],
      "stateMutability": "nonpayable",
      "type": "function"
    },
    {
      "inputs": [
        {
          "internalType": "uint256",
          "name": "_assetId",
          "type": "uint256"
        },
        {
          "internalType": "address",
          "name": "to",
          "type": "address"
        }
      ],
      "name": "depositETH",
      "outputs": [
        {
          "internalType": "uint256",
          "name": "amountOut",
          "type": "uint256"
        },
        {
          "internalType": "uint256",
          "name": "shareOut",
          "type": "uint256"
        }
      ],
      "stateMutability": "payable",
      "type": "function"
    },
    {
      "inputs": [
        {
          "internalType": "uint256",
          "name": "assetId",
          "type": "uint256"
        },
        {
          "internalType": "address",
          "name": "to",
          "type": "address"
        }
      ],
      "name": "depositETHAsset",
      "outputs": [
        {
          "internalType": "uint256",
          "name": "amountOut",
          "type": "uint256"
        },
        {
          "internalType": "uint256",
          "name": "shareOut",
          "type": "uint256"
        }
      ],
      "stateMutability": "payable",
      "type": "function"
    },
    {
      "inputs": [
        {
          "internalType": "uint96",
          "name": "",
          "type": "uint96"
        },
        {
          "internalType": "address",
          "name": "",
          "type": "address"
        },
        {
          "internalType": "contract IStrategy",
          "name": "",
          "type": "address"
        },
        {
          "internalType": "uint256",
          "name": "",
          "type": "uint256"
        }
      ],
      "name": "ids",
      "outputs": [
        {
          "internalType": "uint256",
          "name": "",
          "type": "uint256"
        }
      ],
      "stateMutability": "view",
      "type": "function"
    },
    {
      "inputs": [
        {
          "internalType": "address",
          "name": "",
          "type": "address"
        },
        {
          "internalType": "address",
          "name": "",
          "type": "address"
        }
      ],
      "name": "isApprovedForAll",
      "outputs": [
        {
          "internalType": "bool",
          "name": "",
          "type": "bool"
        }
      ],
      "stateMutability": "view",
      "type": "function"
    },
    {
      "inputs": [
        {
          "internalType": "address",
          "name": "",
          "type": "address"
        }
      ],
      "name": "nonces",
      "outputs": [
        {
          "internalType": "uint256",
          "name": "",
          "type": "uint256"
        }
      ],
      "stateMutability": "view",
      "type": "function"
    },
    {
      "inputs": [
        {
          "internalType": "address",
          "name": "",
          "type": "address"
        },
        {
          "internalType": "address",
          "name": "",
          "type": "address"
        },
        {
          "internalType": "uint256[]",
          "name": "",
          "type": "uint256[]"
        },
        {
          "internalType": "uint256[]",
          "name": "",
          "type": "uint256[]"
        },
        {
          "internalType": "bytes",
          "name": "",
          "type": "bytes"
        }
      ],
      "name": "onERC1155BatchReceived",
      "outputs": [
        {
          "internalType": "bytes4",
          "name": "",
          "type": "bytes4"
        }
      ],
      "stateMutability": "nonpayable",
      "type": "function"
    },
    {
      "inputs": [
        {
          "internalType": "address",
          "name": "",
          "type": "address"
        },
        {
          "internalType": "address",
          "name": "",
          "type": "address"
        },
        {
          "internalType": "uint256",
          "name": "",
          "type": "uint256"
        },
        {
          "internalType": "uint256",
          "name": "",
          "type": "uint256"
        },
        {
          "internalType": "bytes",
          "name": "",
          "type": "bytes"
        }
      ],
      "name": "onERC1155Received",
      "outputs": [
        {
          "internalType": "bytes4",
          "name": "",
          "type": "bytes4"
        }
      ],
      "stateMutability": "nonpayable",
      "type": "function"
    },
    {
      "inputs": [],
      "name": "owner",
      "outputs": [
        {
          "internalType": "address",
          "name": "",
          "type": "address"
        }
      ],
      "stateMutability": "view",
      "type": "function"
    },
    {
      "inputs": [],
      "name": "pendingOwner",
      "outputs": [
        {
          "internalType": "address",
          "name": "",
          "type": "address"
        }
      ],
      "stateMutability": "view",
      "type": "function"
    },
    {
      "inputs": [
        {
          "internalType": "contract IERC20",
          "name": "token",
          "type": "address"
        },
        {
          "internalType": "address",
          "name": "from",
          "type": "address"
        },
        {
          "internalType": "address",
          "name": "to",
          "type": "address"
        },
        {
          "internalType": "uint256",
          "name": "amount",
          "type": "uint256"
        },
        {
          "internalType": "uint256",
          "name": "deadline",
          "type": "uint256"
        },
        {
          "internalType": "uint8",
          "name": "v",
          "type": "uint8"
        },
        {
          "internalType": "bytes32",
          "name": "r",
          "type": "bytes32"
        },
        {
          "internalType": "bytes32",
          "name": "s",
          "type": "bytes32"
        }
      ],
      "name": "permitToken",
      "outputs": [],
      "stateMutability": "nonpayable",
      "type": "function"
    },
    {
      "inputs": [
        {
          "internalType": "uint96",
          "name": "standard",
          "type": "uint96"
        },
        {
          "internalType": "address",
          "name": "contractAddress",
          "type": "address"
        },
        {
          "internalType": "contract IStrategy",
          "name": "strategy",
          "type": "address"
        },
        {
          "internalType": "uint256",
          "name": "tokenId",
          "type": "uint256"
        }
      ],
      "name": "registerAsset",
      "outputs": [
        {
          "internalType": "uint256",
          "name": "assetId",
          "type": "uint256"
        }
      ],
      "stateMutability": "nonpayable",
      "type": "function"
    },
    {
      "inputs": [
        {
          "internalType": "address",
          "name": "from",
          "type": "address"
        },
        {
          "internalType": "address",
          "name": "to",
          "type": "address"
        },
        {
          "internalType": "uint256[]",
          "name": "assetIds_",
          "type": "uint256[]"
        },
        {
          "internalType": "uint256[]",
          "name": "shares_",
          "type": "uint256[]"
        },
        {
          "internalType": "bytes",
          "name": "data",
          "type": "bytes"
        }
      ],
      "name": "safeBatchTransferFrom",
      "outputs": [],
      "stateMutability": "nonpayable",
      "type": "function"
    },
    {
      "inputs": [
        {
          "internalType": "address",
          "name": "from",
          "type": "address"
        },
        {
          "internalType": "address",
          "name": "to",
          "type": "address"
        },
        {
          "internalType": "uint256",
          "name": "assetId",
          "type": "uint256"
        },
        {
          "internalType": "uint256",
          "name": "share",
          "type": "uint256"
        },
        {
          "internalType": "bytes",
          "name": "data",
          "type": "bytes"
        }
      ],
      "name": "safeTransferFrom",
      "outputs": [],
      "stateMutability": "nonpayable",
      "type": "function"
    },
    {
      "inputs": [
        {
          "internalType": "address",
          "name": "operator",
          "type": "address"
        },
        {
          "internalType": "bool",
          "name": "approved",
          "type": "bool"
        }
      ],
      "name": "setApprovalForAll",
      "outputs": [],
      "stateMutability": "nonpayable",
      "type": "function"
    },
    {
      "inputs": [
        {
          "internalType": "address",
          "name": "user",
          "type": "address"
        },
        {
          "internalType": "address",
          "name": "operator",
          "type": "address"
        },
        {
          "internalType": "bool",
          "name": "approved",
          "type": "bool"
        },
        {
          "internalType": "uint8",
          "name": "v",
          "type": "uint8"
        },
        {
          "internalType": "bytes32",
          "name": "r",
          "type": "bytes32"
        },
        {
          "internalType": "bytes32",
          "name": "s",
          "type": "bytes32"
        }
      ],
      "name": "setApprovalForAllWithPermit",
      "outputs": [],
      "stateMutability": "nonpayable",
      "type": "function"
    },
    {
      "inputs": [
        {
          "internalType": "uint256",
          "name": "",
          "type": "uint256"
        },
        {
          "internalType": "address",
          "name": "",
          "type": "address"
        }
      ],
      "name": "shares",
      "outputs": [
        {
          "internalType": "uint256",
          "name": "",
          "type": "uint256"
        }
      ],
      "stateMutability": "view",
      "type": "function"
    },
    {
      "inputs": [
        {
          "internalType": "bytes4",
          "name": "interfaceID",
          "type": "bytes4"
        }
      ],
      "name": "supportsInterface",
      "outputs": [
        {
          "internalType": "bool",
          "name": "",
          "type": "bool"
        }
      ],
      "stateMutability": "pure",
      "type": "function"
    },
    {
      "inputs": [
        {
          "internalType": "uint256",
          "name": "assetId",
          "type": "uint256"
        },
        {
          "internalType": "uint256",
          "name": "share",
          "type": "uint256"
        },
        {
          "internalType": "bool",
          "name": "roundUp",
          "type": "bool"
        }
      ],
      "name": "toAmount",
      "outputs": [
        {
          "internalType": "uint256",
          "name": "amount",
          "type": "uint256"
        }
      ],
      "stateMutability": "view",
      "type": "function"
    },
    {
      "inputs": [
        {
          "internalType": "uint256",
          "name": "assetId",
          "type": "uint256"
        },
        {
          "internalType": "uint256",
          "name": "amount",
          "type": "uint256"
        },
        {
          "internalType": "bool",
          "name": "roundUp",
          "type": "bool"
        }
      ],
      "name": "toShare",
      "outputs": [
        {
          "internalType": "uint256",
          "name": "share",
          "type": "uint256"
        }
      ],
      "stateMutability": "view",
      "type": "function"
    },
    {
      "inputs": [
        {
          "internalType": "uint256",
          "name": "",
          "type": "uint256"
        }
      ],
      "name": "totalShares",
      "outputs": [
        {
          "internalType": "uint256",
          "name": "",
          "type": "uint256"
        }
      ],
      "stateMutability": "view",
      "type": "function"
    },
    {
      "inputs": [
        {
          "internalType": "uint256",
          "name": "assetId",
          "type": "uint256"
        },
        {
          "internalType": "address",
          "name": "from",
          "type": "address"
        },
        {
          "internalType": "address",
          "name": "to",
          "type": "address"
        },
        {
          "internalType": "uint256",
          "name": "share",
          "type": "uint256"
        }
      ],
      "name": "transfer",
      "outputs": [],
      "stateMutability": "nonpayable",
      "type": "function"
    },
    {
      "inputs": [
        {
          "internalType": "uint256",
          "name": "assetId",
          "type": "uint256"
        },
        {
          "internalType": "address",
          "name": "from",
          "type": "address"
        },
        {
          "internalType": "address[]",
          "name": "tos",
          "type": "address[]"
        },
        {
          "internalType": "uint256[]",
          "name": "share",
          "type": "uint256[]"
        }
      ],
      "name": "transferMultiple",
      "outputs": [],
      "stateMutability": "nonpayable",
      "type": "function"
    },
    {
      "inputs": [
        {
          "internalType": "address",
          "name": "newOwner",
          "type": "address"
        },
        {
          "internalType": "bool",
          "name": "direct",
          "type": "bool"
        },
        {
          "internalType": "bool",
          "name": "renounce",
          "type": "bool"
        }
      ],
      "name": "transferOwnership",
      "outputs": [],
      "stateMutability": "nonpayable",
      "type": "function"
    },
    {
      "inputs": [
        {
          "internalType": "uint256",
          "name": "assetId",
          "type": "uint256"
        }
      ],
      "name": "uri",
      "outputs": [
        {
          "internalType": "string",
          "name": "",
          "type": "string"
        }
      ],
      "stateMutability": "view",
      "type": "function"
    },
    {
      "inputs": [
        {
          "internalType": "uint256",
          "name": "assetId",
          "type": "uint256"
        },
        {
          "internalType": "address",
          "name": "from",
          "type": "address"
        },
        {
          "internalType": "address",
          "name": "to",
          "type": "address"
        },
        {
          "internalType": "uint256",
          "name": "amount",
          "type": "uint256"
        },
        {
          "internalType": "uint256",
          "name": "share",
          "type": "uint256"
        }
      ],
      "name": "withdraw",
      "outputs": [
        {
          "internalType": "uint256",
          "name": "amountOut",
          "type": "uint256"
        },
        {
          "internalType": "uint256",
          "name": "shareOut",
          "type": "uint256"
        }
      ],
      "stateMutability": "nonpayable",
      "type": "function"
    },
    {
      "inputs": [
        {
          "internalType": "uint256",
          "name": "assetId",
          "type": "uint256"
        },
        {
          "internalType": "address",
          "name": "from",
          "type": "address"
        },
        {
          "internalType": "address",
          "name": "to",
          "type": "address"
        },
        {
          "internalType": "uint256",
          "name": "amount",
          "type": "uint256"
        },
        {
          "internalType": "uint256",
          "name": "share",
          "type": "uint256"
        }
      ],
      "name": "withdrawETH",
      "outputs": [
        {
          "internalType": "uint256",
          "name": "amountOut",
          "type": "uint256"
        },
        {
          "internalType": "uint256",
          "name": "shareOut",
          "type": "uint256"
        }
      ],
      "stateMutability": "nonpayable",
      "type": "function"
    },
    {
      "stateMutability": "payable",
      "type": "receive"
    }
  ],
  "transactionHash": "0x9b94e8dcfd568915fdf60441992d9a78b819a634ae08451a03d495d959d85791",
  "args": [
    "0xDeadDeAddeAddEAddeadDEaDDEAdDeaDDeAD0000"
  ],
  "numDeployments": 1,
  "solcInputHash": "6d5e055ae13eeca93758e589040b2bdf",
  "bytecode": "0x60e06040523480156200001157600080fd5b506040516200461f3803806200461f8339810160408190526200003491620001e6565b4660a0819052620000458162000190565b60805250600080546001600160a01b0319163390811782556040519091907f8be0079c531659141344cd1fd0a4f28419497f9722a3daafe3b4186f6b6457e0908290a3606090811b6001600160601b031990811660c05260408051608081018252600080825260208201818152928201818152948201818152600380546001810182559281905292517fc2575a0e9e593c00f959f8c92f12db2869c3395a3b0502d05e2516446f71f85b9290930291820180549451949095166001600160601b03938416179092166c010000000000000000000000006001600160a01b03948516021790935592517fc2575a0e9e593c00f959f8c92f12db2869c3395a3b0502d05e2516446f71f85c830180546001600160a01b0319169190921617905590517fc2575a0e9e593c00f959f8c92f12db2869c3395a3b0502d05e2516446f71f85d9091015562000235565b60007f47e79534a245952e8b16893a336b85a3d9ea9fa8c573f3d803afb92a794692188230604051602001620001c99392919062000216565b604051602081830303815290604052805190602001209050919050565b600060208284031215620001f8578081fd5b81516001600160a01b03811681146200020f578182fd5b9392505050565b92835260208301919091526001600160a01b0316604082015260600190565b60805160a05160c05160601c6143a6620002796000398061078052806108d8528061095c5280610e715280610ffb525080612ca8525080612cdd52506143a66000f3fe6080604052600436106102075760003560e01c806382481d4911610118578063cf35bdd0116100a0578063e56d03431161006f578063e56d0343146105f7578063e95d084a14610617578063e985e9c514610637578063f23a6e6114610657578063f242432a146106775761020e565b8063cf35bdd01461057f578063d2423b51146105af578063daf210b1146105c2578063e30c3978146105e25761020e565b80638faa6eba116100e75780638faa6eba146104d25780639a9af97a146104f25780639f1b8f5914610512578063a22cb46514610532578063bc197c81146105525761020e565b806382481d49146104505780638d2e63b8146104705780638da5cb5b146104905780638eb22cdd146104b25761020e565b80633644e5151161019b5780634e1273f41161016a5780634e1273f4146103bb5780634e71e0c8146103e857806356150edf146103fd5780637c516e94146104105780637ecebe00146104305761020e565b80633644e5151461034657806336cd52a61461035b578063396bf2fe1461037b578063442c15991461039b5761020e565b80630e89341c116101d75780630e89341c146102b957806313f2dad0146102e65780631f8f6170146103065780632eb2c2d6146103265761020e565b8062fdd58e1461021357806301ffc9a714610249578063070af5e314610276578063078dfbe7146102975761020e565b3661020e57005b600080fd5b34801561021f57600080fd5b5061023361022e366004613550565b610697565b6040516102409190613ca7565b60405180910390f35b34801561025557600080fd5b50610269610264366004613648565b6106c1565b6040516102409190613c9c565b6102896102843660046137cc565b610715565b604051610240929190614202565b3480156102a357600080fd5b506102b76102b2366004613506565b6109d7565b005b3480156102c557600080fd5b506102d96102d436600461379c565b610abd565b6040516102409190613d31565b3480156102f257600080fd5b5061023361030136600461379c565b610b4e565b34801561031257600080fd5b50610289610321366004613837565b610b60565b34801561033257600080fd5b506102b761034136600461334b565b610b7e565b34801561035257600080fd5b50610233610c68565b34801561036757600080fd5b506102b76103763660046137f0565b610c77565b34801561038757600080fd5b50610289610396366004613837565b610db8565b3480156103a757600080fd5b506102336103b63660046138cd565b6111a1565b3480156103c757600080fd5b506103db6103d636600461357b565b611236565b6040516102409190613c58565b3480156103f457600080fd5b506102b7611319565b61028961040b3660046137cc565b6113a6565b34801561041c57600080fd5b506102b761042b366004613680565b6113bf565b34801561043c57600080fd5b5061023361044b36600461324a565b611433565b34801561045c57600080fd5b5061023361046b3660046137cc565b611445565b34801561047c57600080fd5b5061028961048b366004613837565b611462565b34801561049c57600080fd5b506104a5611711565b6040516102409190613ab1565b3480156104be57600080fd5b506102336104cd3660046138cd565b611720565b3480156104de57600080fd5b506102b76104ed366004613405565b61174d565b3480156104fe57600080fd5b5061028961050d366004613837565b61190e565b34801561051e57600080fd5b506102b761052d366004613888565b611c4c565b34801561053e57600080fd5b506102b761054d3660046134d9565b611e41565b34801561055e57600080fd5b5061057261056d36600461334b565b611ed6565b6040516102409190613d1c565b34801561058b57600080fd5b5061059f61059a36600461379c565b611eea565b6040516102409493929190614210565b6102b76105bd3660046135e3565b611f39565b3480156105ce57600080fd5b506102b76105dd3660046132ba565b611ffc565b3480156105ee57600080fd5b506104a5612215565b34801561060357600080fd5b50610233610612366004613932565b612224565b34801561062357600080fd5b50610233610632366004613932565b6125b6565b34801561064357600080fd5b50610269610652366004613282565b6125e2565b34801561066357600080fd5b50610572610672366004613472565b612602565b34801561068357600080fd5b506102b7610692366004613472565b612614565b60008181526004602090815260408083206001600160a01b03861684529091529020545b92915050565b60006301ffc9a760e01b6001600160e01b0319831614806106f25750636cdb3d1360e11b6001600160e01b03198316145b8061070d57506303a24d0760e21b6001600160e01b03198316145b90505b919050565b6000806001600160a01b0383166107475760405162461bcd60e51b815260040161073e906141b4565b60405180910390fd5b60006003858154811061075657fe5b6000918252602090912060039091020180549091506001600160601b03161580156107b5575080547f00000000000000000000000000000000000000000000000000000000000000006001600160a01b03908116600160601b90920416145b6107d15760405162461bcd60e51b815260040161073e90613e38565b600085815260056020908152604080832054815160808101835285546001600160601b03811682526001600160a01b03600160601b90910481169482019490945260018601549093169183019190915260028401546060830152349291610844919061083c906126f6565b846000612813565b60008881526004602090815260408083206001600160a01b038b168452909152902054909150610874908261287e565b60008881526004602090815260408083206001600160a01b038b1684528252808320939093558982526005905220546108ad908261287e565b600088815260056020526040808220929092558151630d0e30db60e41b815291516001600160a01b037f0000000000000000000000000000000000000000000000000000000000000000169263d0e30db092869260048084019382900301818588803b15801561091c57600080fd5b505af1158015610930573d6000803e3d6000fd5b5050505060018401546001600160a01b0316159050610985576001830154610985906001600160a01b037f000000000000000000000000000000000000000000000000000000000000000081169116846128a1565b856001600160a01b031660006001600160a01b0316336001600160a01b03166000805160206143118339815191528a856040516109c3929190614202565b60405180910390a490969095509350505050565b6000546001600160a01b03163314610a015760405162461bcd60e51b815260040161073e90613f33565b8115610a9c576001600160a01b038316151580610a1b5750805b610a375760405162461bcd60e51b815260040161073e90613e66565b600080546040516001600160a01b03808716939216917f8be0079c531659141344cd1fd0a4f28419497f9722a3daafe3b4186f6b6457e091a3600080546001600160a01b0385166001600160a01b031991821617909155600180549091169055610ab8565b600180546001600160a01b0319166001600160a01b0385161790555b505050565b6060600060038381548110610ace57fe5b6000918252602090912060039091020154600160601b90046001600160a01b03169050610b47610afd82612997565b610b0f836001600160a01b0316612a52565b610b21846001600160a01b0316612a99565b604051602001610b3393929190613a13565b604051602081830303815290604052612b52565b9392505050565b60056020526000908152604090205481565b600080610b70878787878761190e565b915091509550959350505050565b610b8c888888888888611ffc565b610b9e876001600160a01b0316612c9d565b15610c5e5760405163bc197c8160e01b81526001600160a01b0388169063bc197c8190610bdd9033908c908b908b908b908b908b908b90600401613ac5565b602060405180830381600087803b158015610bf757600080fd5b505af1158015610c0b573d6000803e3d6000fd5b505050506040513d601f19601f82011682018060405250810190610c2f9190613664565b6001600160e01b03191663bc197c8160e01b14610c5e5760405162461bcd60e51b815260040161073e90613f9d565b5050505050505050565b6000610c72612ca3565b905090565b826001600160a01b038116331480610cb257506001600160a01b038116600090815260066020908152604080832033845290915290205460ff165b610cce5760405162461bcd60e51b815260040161073e90614000565b6001600160a01b038316610cf45760405162461bcd60e51b815260040161073e90613e95565b60008581526004602090815260408083206001600160a01b0388168452909152902054610d219083612d03565b60008681526004602090815260408083206001600160a01b038981168552925280832093909355851681522054610d58908361287e565b60008681526004602090815260408083206001600160a01b0380891680865291909352928190209390935591519091861690339060008051602061431183398151915290610da9908a908890614202565b60405180910390a45050505050565b600080856001600160a01b038116331480610df657506001600160a01b038116600090815260066020908152604080832033845290915290205460ff165b610e125760405162461bcd60e51b815260040161073e90614000565b6001600160a01b038616610e385760405162461bcd60e51b815260040161073e90613e95565b600060038981548110610e4757fe5b6000918252602090912060039091020180549091506001600160601b0316158015610ea6575080547f00000000000000000000000000000000000000000000000000000000000000006001600160a01b03908116600160601b90920416145b610ec25760405162461bcd60e51b815260040161073e90613e38565b6040805160808101825282546001600160601b03811682526001600160a01b03600160601b909104811660208301526001840154169181019190915260028201546060820152600090610f14906126f6565b905085610f3e5760008a815260056020526040902054610f379082896001612813565b9550610f5d565b60008a815260056020526040812054610f5a9183908990612d26565b96505b60008a81526004602090815260408083206001600160a01b038d168452909152902054610f8a9087612d03565b60008b81526004602090815260408083206001600160a01b038e1684528252808320939093558c8252600590522054610fc39087612d03565b60008b81526005602052604090205560018201546001600160a01b03166110e457604051632e1a7d4d60e01b81526001600160a01b037f00000000000000000000000000000000000000000000000000000000000000001690632e1a7d4d90611030908a90600401613ca7565b600060405180830381600087803b15801561104a57600080fd5b505af115801561105e573d6000803e3d6000fd5b505050506000886001600160a01b03168860405161107b90613aae565b60006040518083038185875af1925050503d80600081146110b8576040519150601f19603f3d011682016040523d82523d6000602084013e6110bd565b606091505b50509050806110de5760405162461bcd60e51b815260040161073e9061417d565b5061114b565b6001820154604051631b08c5a960e11b81526001600160a01b03909116906336118b5290611118908a908c906004016141eb565b600060405180830381600087803b15801561113257600080fd5b505af1158015611146573d6000803e3d6000fd5b505050505b60006001600160a01b0316896001600160a01b0316336001600160a01b03166000805160206143118339815191528d8a604051611189929190614202565b60405180910390a45094989397509295505050505050565b6000838152600560205260408120546003805461122e929161122791889081106111c757fe5b600091825260209182902060408051608081018252600390930290910180546001600160601b03811684526001600160a01b03600160601b90910481169484019490945260018101549093169082015260029091015460608201526126f6565b8585612d26565b949350505050565b606083806001600160401b038111801561124f57600080fd5b50604051908082528060200260200182016040528015611279578160200160208202803683370190505b50915060005b8181101561130f576004600086868481811061129757fe5b90506020020135815260200190815260200160002060008888848181106112ba57fe5b90506020020160208101906112cf919061324a565b6001600160a01b03166001600160a01b03168152602001908152602001600020548382815181106112fc57fe5b602090810291909101015260010161127f565b5050949350505050565b6001546001600160a01b03163381146113445760405162461bcd60e51b815260040161073e90613f68565b600080546040516001600160a01b03808516939216917f8be0079c531659141344cd1fd0a4f28419497f9722a3daafe3b4186f6b6457e091a3600080546001600160a01b039092166001600160a01b0319928316179055600180549091169055565b6000806113b38484610715565b915091505b9250929050565b60405163d505accf60e01b81526001600160a01b0389169063d505accf906113f7908a908a908a908a908a908a908a90600401613be5565b600060405180830381600087803b15801561141157600080fd5b505af1158015611425573d6000803e3d6000fd5b505050505050505050505050565b60076020526000908152604090205481565b600460209081526000928352604080842090915290825290205481565b600080856001600160a01b0381163314806114a057506001600160a01b038116600090815260066020908152604080832033845290915290205460ff165b6114bc5760405162461bcd60e51b815260040161073e90614000565b6001600160a01b0386166114e25760405162461bcd60e51b815260040161073e90613e95565b6000600389815481106114f157fe5b6000918252602080832060408051608081018252600390940290910180546001600160601b03811685526001600160a01b03600160601b909104811693850193909352600181015490921690830152600281015460608301529250611555906126f6565b90508561157f5760008a8152600560205260409020546115789082896001612813565b955061159e565b60008a81526005602052604081205461159b9183908990612d26565b96505b60008a81526004602090815260408083206001600160a01b038d1684529091529020546115cb9087612d03565b60008b81526004602090815260408083206001600160a01b038e1684528252808320939093558c82526005905220546116049087612d03565b60008b81526005602052604090205560018201546001600160a01b03166116df5781546001600160601b031661165657815461165190600160601b90046001600160a01b031689896128a1565b6116da565b81546001600160601b0316600214156116da5781546002830154604051637921219560e11b8152600160601b9092046001600160a01b03169163f242432a916116a79130918d918d90600401613b70565b600060405180830381600087803b1580156116c157600080fd5b505af11580156116d5573d6000803e3d6000fd5b505050505b61114b565b6001820154604051627b8a6760e11b81526001600160a01b039091169062f714ce90611118908a908c906004016141eb565b6000546001600160a01b031681565b6000838152600560205260408120546003805461122e929161174691889081106111c757fe5b8585612813565b6001600160a01b0385166117735760405162461bcd60e51b815260040161073e9061406e565b6001600160a01b0386166117995760405162461bcd60e51b815260040161073e90613fc9565b6001600160a01b03861660009081526007602090815260408083208054600181019091559051611812926117f7927ff7169c3866cb82146af82c4f7463af3a570ae6b4dcc70a39aa080c964fb285eb928c928c928c92909101613cb0565b60405160208183030381529060405280519060200120612d6e565b90506000600182868686604051600081526020016040526040516118399493929190613cfe565b6020604051602081039080840390855afa15801561185b573d6000803e3d6000fd5b505050602060405103519050876001600160a01b0316816001600160a01b0316146118985760405162461bcd60e51b815260040161073e9061410f565b6001600160a01b038881166000818152600660209081526040808320948c168084529490915290819020805460ff19168a1515179055517f17307eab39ab6107e8899845ad3d59bd9653f200f220920489ca2b5937696c31906118fc908a90613c9c565b60405180910390a35050505050505050565b600080856001600160a01b03811633148061194c57506001600160a01b038116600090815260066020908152604080832033845290915290205460ff165b6119685760405162461bcd60e51b815260040161073e90614000565b6001600160a01b03861661198e5760405162461bcd60e51b815260040161073e90613e95565b60006003898154811061199d57fe5b6000918252602080832060408051608081018252600390940290910180546001600160601b03811685526001600160a01b03600160601b909104811693850193909352600181015490921690830152600281015460608301529250611a01906126f6565b905080611a4e5781546001600160601b0316611a4e578154611a3290600160601b90046001600160a01b0316612c9d565b611a4e5760405162461bcd60e51b815260040161073e90613dca565b85611a765760008a815260056020526040812054611a6f9183908a90612813565b9550611a95565b60008a815260056020526040902054611a929082886001612d26565b96505b60008a81526004602090815260408083206001600160a01b038c168452909152902054611ac2908761287e565b60008b81526004602090815260408083206001600160a01b038d1684528252808320939093558c8252600590522054611afb908761287e565b60008b81526005602052604090205581546001600160601b0316611b66576001820154611b61908a906001600160a01b031615611b455760018401546001600160a01b0316611b47565b305b8454600160601b90046001600160a01b031691908a612dc3565b611c0e565b81546001600160601b031660021415611c0e57815460018301546001600160a01b03600160601b90920482169163f242432a918c911615611bb45760018501546001600160a01b0316611bb6565b305b85600201548b6040518563ffffffff1660e01b8152600401611bdb9493929190613b70565b600060405180830381600087803b158015611bf557600080fd5b505af1158015611c09573d6000803e3d6000fd5b505050505b876001600160a01b031660006001600160a01b0316336001600160a01b03166000805160206143118339815191528d8a604051611189929190614202565b846001600160a01b038116331480611c8757506001600160a01b038116600090815260066020908152604080832033845290915290205460ff165b611ca35760405162461bcd60e51b815260040161073e90614000565b600085858281611caf57fe5b9050602002016020810190611cc4919061324a565b6001600160a01b03161415611ceb5760405162461bcd60e51b815260040161073e90613e01565b600084815b81811015611de1576000888883818110611d0657fe5b9050602002016020810190611d1b919061324a565b90506000878784818110611d2b57fe5b60008f81526004602090815260408083206001600160a01b0389168452825290912054910292909201359250611d639190508261287e565b60008d81526004602090815260408083206001600160a01b0387168452909152902055611d90858261287e565b9450816001600160a01b03168b6001600160a01b0316336001600160a01b03166000805160206143118339815191528f85604051611dcf929190614202565b60405180910390a45050600101611cf0565b5060008981526004602090815260408083206001600160a01b038c168452909152902054611e0f9083612d03565b6000998a52600460209081526040808c206001600160a01b03909b168c52999052979098209690965550505050505050565b6001600160a01b038216611e675760405162461bcd60e51b815260040161073e9061406e565b3360008181526006602090815260408083206001600160a01b038716808552925291829020805460ff191685151517905590519091907f17307eab39ab6107e8899845ad3d59bd9653f200f220920489ca2b5937696c3190611eca908590613c9c565b60405180910390a35050565b63bc197c8160e01b98975050505050505050565b60038181548110611ef757fe5b60009182526020909120600390910201805460018201546002909201546001600160601b0382169350600160601b9091046001600160a01b0390811692169084565b60005b82811015611ff6576000606030868685818110611f5557fe5b9050602002810190611f679190614240565b604051611f759291906139c0565b600060405180830381855af49150503d8060008114611fb0576040519150601f19603f3d011682016040523d82523d6000602084013e611fb5565b606091505b509150915081158015611fc55750835b15611fec57611fd381612eb4565b60405162461bcd60e51b815260040161073e9190613d31565b5050600101611f3c565b50505050565b856001600160a01b03811633148061203757506001600160a01b038116600090815260066020908152604080832033845290915290205460ff165b6120535760405162461bcd60e51b815260040161073e90614000565b6001600160a01b0386166120795760405162461bcd60e51b815260040161073e90613e95565b8360005b818110156121af57600087878381811061209357fe5b90506020020135905060008686848181106120aa57fe5b9050602002013590506120fc816004600085815260200190815260200160002060008e6001600160a01b03166001600160a01b0316815260200190815260200160002054612d0390919063ffffffff16565b6004600084815260200190815260200160002060008d6001600160a01b03166001600160a01b031681526020019081526020016000208190555061217f816004600085815260200190815260200160002060008d6001600160a01b03166001600160a01b031681526020019081526020016000205461287e90919063ffffffff16565b60009283526004602090815260408085206001600160a01b038e168652909152909220919091555060010161207d565b50866001600160a01b0316886001600160a01b0316336001600160a01b03167f4a39dc06d4c0dbc64b70af90fd698a233a518aa5d07e595d983b8c0526c8f7fb898989896040516122039493929190613c26565b60405180910390a45050505050505050565b6001546001600160a01b031681565b600080546001600160a01b0316331461224f5760405162461bcd60e51b815260040161073e90613f33565b506001600160601b03841660009081526002602090815260408083206001600160a01b038088168552908352818420908616845282528083208484529091529020548061122e578115806122ab57506001600160601b03851615155b6122c75760405162461bcd60e51b815260040161073e906140da565b6001600160a01b03831615806124655750826001600160a01b0316635a3b7e426040518163ffffffff1660e01b815260040160206040518083038186803b15801561231157600080fd5b505afa158015612325573d6000803e3d6000fd5b505050506040513d601f19601f820116820180604052508101906123499190613916565b6001600160601b0316856001600160601b03161480156123ea5750826001600160a01b031663f6b4dfb46040518163ffffffff1660e01b815260040160206040518083038186803b15801561239d57600080fd5b505afa1580156123b1573d6000803e3d6000fd5b505050506040513d601f19601f820116820180604052508101906123d59190613266565b6001600160a01b0316846001600160a01b0316145b80156124655750826001600160a01b03166317d70f7c6040518163ffffffff1660e01b815260040160206040518083038186803b15801561242a57600080fd5b505afa15801561243e573d6000803e3d6000fd5b505050506040513d601f19601f8201168201806040525081019061246291906137b4565b82145b6124815760405162461bcd60e51b815260040161073e90613ec5565b5060038054604080516080810182526001600160601b038089168083526001600160a01b03808a1660208086018281528b8416878901818152606089018d815260018c018d5560008d815299519c8c027fc2575a0e9e593c00f959f8c92f12db2869c3395a3b0502d05e2516446f71f85b8101805495518916600160601b029e8b166bffffffffffffffffffffffff19909616959095179099169c909c1790925590517fc2575a0e9e593c00f959f8c92f12db2869c3395a3b0502d05e2516446f71f85c87018054919095166001600160a01b03199091161790935597517fc2575a0e9e593c00f959f8c92f12db2869c3395a3b0502d05e2516446f71f85d90940193909355908352600286528383209183529085528282209082528452818120858252909352909120819055949350505050565b600260209081526000948552604080862082529385528385208152918452828420909152825290205481565b600660209081526000928352604080842090915290825290205460ff1681565b63f23a6e6160e01b9695505050505050565b61262084878786610c77565b612632856001600160a01b0316612c9d565b156126ee5760405163f23a6e6160e01b81526001600160a01b0386169063f23a6e619061266d9033908a908990899089908990600401613b29565b602060405180830381600087803b15801561268757600080fd5b505af115801561269b573d6000803e3d6000fd5b505050506040513d601f19601f820116820180604052508101906126bf9190613664565b6001600160e01b03191663f23a6e6160e01b146126ee5760405162461bcd60e51b815260040161073e90613f9d565b505050505050565b60408101516000906001600160a01b03166127d65781516001600160601b0316612739576020820151612732906001600160a01b031630612f14565b9050610710565b81516001600160601b0316600214156127d15781602001516001600160a01b031662fdd58e3084606001516040518363ffffffff1660e01b8152600401612781929190613ba8565b60206040518083038186803b15801561279957600080fd5b505afa1580156127ad573d6000803e3d6000fd5b505050506040513d601f19601f8201168201806040525081019061273291906137b4565b610710565b81604001516001600160a01b031663ce845d1d6040518163ffffffff1660e01b815260040160206040518083038186803b15801561279957600080fd5b600061282084600161287e565b9350612830856305f5e10061287e565b94508361283d8487612ffe565b8161284457fe5b0490508180156128655750828561285b8387612ffe565b8161286257fe5b04105b1561122e5761287581600161287e565b95945050505050565b818101818110156106bb5760405162461bcd60e51b815260040161073e90613efc565b60006060846001600160a01b031663a9059cbb60e01b85856040516024016128ca929190613ba8565b60408051601f198184030181529181526020820180516001600160e01b03166001600160e01b031990941693909317909252905161290891906139d0565b6000604051808303816000865af19150503d8060008114612945576040519150601f19603f3d011682016040523d82523d6000602084013e61294a565b606091505b5091509150818015612974575080511580612974575080806020019051810190612974919061362c565b6129905760405162461bcd60e51b815260040161073e90613d93565b5050505050565b60408051600481526024810182526020810180516001600160e01b03166306fdde0360e01b179052905160609160009183916001600160a01b038616916129de91906139d0565b600060405180830381855afa9150503d8060008114612a19576040519150601f19603f3d011682016040523d82523d6000602084013e612a1e565b606091505b509150915081612a4957604051806040016040528060038152602001623f3f3f60e81b81525061122e565b61122e81613035565b60408051600481526024810182526020810180516001600160e01b03166395d89b4160e01b179052905160609160009183916001600160a01b038616916129de91906139d0565b60408051600481526024810182526020810180516001600160e01b031663313ce56760e01b179052905160009182916060916001600160a01b03861691612ae091906139d0565b600060405180830381855afa9150503d8060008114612b1b576040519150601f19603f3d011682016040523d82523d6000602084013e612b20565b606091505b5091509150818015612b33575080516020145b612b3e57601261122e565b8080602001905181019061122e91906138fa565b6060815160001415612b735750604080516020810190915260008152610710565b606060405180606001604052806040815260200161433160409139905060006003845160020181612ba057fe5b0460040290506060816020016001600160401b0381118015612bc157600080fd5b506040519080825280601f01601f191660200182016040528015612bec576020820181803683370190505b509050818152600183018586518101602084015b81831015612c58576003830192508251603f8160121c168501518253600182019150603f81600c1c168501518253600182019150603f8160061c168501518253600182019150603f8116850151825350600101612c00565b600389510660018114612c725760028114612c8357612c8f565b613d3d60f01b600119830152612c8f565b603d60f81b6000198301525b509398975050505050505050565b3b151590565b6000467f00000000000000000000000000000000000000000000000000000000000000008114612cdb57612cd681613193565b612cfd565b7f00000000000000000000000000000000000000000000000000000000000000005b91505090565b808203828111156106bb5760405162461bcd60e51b815260040161073e90613d64565b6000612d3384600161287e565b9350612d43856305f5e10061287e565b945084612d508486612ffe565b81612d5757fe5b0490508180156128655750828461285b8388612ffe565b600060405180604001604052806002815260200161190160f01b815250612d93612ca3565b83604051602001612da6939291906139ec565b604051602081830303815290604052805190602001209050919050565b60006060856001600160a01b03166323b872dd60e01b868686604051602401612dee93929190613bc1565b60408051601f198184030181529181526020820180516001600160e01b03166001600160e01b0319909416939093179092529051612e2c91906139d0565b6000604051808303816000865af19150503d8060008114612e69576040519150601f19603f3d011682016040523d82523d6000602084013e612e6e565b606091505b5091509150818015612e98575080511580612e98575080806020019051810190612e98919061362c565b6126ee5760405162461bcd60e51b815260040161073e906140a5565b6060604482511015612efa575060408051808201909152601d81527f5472616e73616374696f6e2072657665727465642073696c656e746c790000006020820152610710565b6004820191508180602001905181019061070d9190613702565b6000806060846001600160a01b03166370a0823160e01b85604051602401612f3c9190613ab1565b60408051601f198184030181529181526020820180516001600160e01b03166001600160e01b0319909416939093179092529051612f7a91906139d0565b600060405180830381855afa9150503d8060008114612fb5576040519150601f19603f3d011682016040523d82523d6000602084013e612fba565b606091505b5091509150818015612fce57506020815110155b612fea5760405162461bcd60e51b815260040161073e90614037565b8080602001905181019061287591906137b4565b60008115806130195750508082028282828161301657fe5b04145b6106bb5760405162461bcd60e51b815260040161073e90614146565b6060604082511061305457818060200190518101906127329190613702565b8151602014156131735760005b60208160ff161080156130905750828160ff168151811061307e57fe5b01602001516001600160f81b03191615155b1561309d57600101613061565b60608160ff166001600160401b03811180156130b857600080fd5b506040519080825280601f01601f1916602001820160405280156130e3576020820181803683370190505b509050600091505b60208260ff1610801561311a5750838260ff168151811061310857fe5b01602001516001600160f81b03191615155b1561316a57838260ff168151811061312e57fe5b602001015160f81c60f81b818360ff168151811061314857fe5b60200101906001600160f81b031916908160001a9053506001909101906130eb565b91506107109050565b506040805180820190915260038152623f3f3f60e81b6020820152610710565b60007f47e79534a245952e8b16893a336b85a3d9ea9fa8c573f3d803afb92a794692188230604051602001612da693929190613cdf565b60008083601f8401126131db578182fd5b5081356001600160401b038111156131f1578182fd5b60208301915083602080830285010111156113b857600080fd5b60008083601f84011261321c578182fd5b5081356001600160401b03811115613232578182fd5b6020830191508360208285010111156113b857600080fd5b60006020828403121561325b578081fd5b8135610b47816142b0565b600060208284031215613277578081fd5b8151610b47816142b0565b60008060408385031215613294578081fd5b823561329f816142b0565b915060208301356132af816142b0565b809150509250929050565b600080600080600080608087890312156132d2578182fd5b86356132dd816142b0565b955060208701356132ed816142b0565b945060408701356001600160401b0380821115613308578384fd5b6133148a838b016131ca565b9096509450606089013591508082111561332c578384fd5b5061333989828a016131ca565b979a9699509497509295939492505050565b60008060008060008060008060a0898b031215613366578182fd5b8835613371816142b0565b97506020890135613381816142b0565b965060408901356001600160401b038082111561339c578384fd5b6133a88c838d016131ca565b909850965060608b01359150808211156133c0578384fd5b6133cc8c838d016131ca565b909650945060808b01359150808211156133e4578384fd5b506133f18b828c0161320b565b999c989b5096995094979396929594505050565b60008060008060008060c0878903121561341d578182fd5b8635613428816142b0565b95506020870135613438816142b0565b94506040870135613448816142c8565b93506060870135613458816142ec565b9598949750929560808101359460a0909101359350915050565b60008060008060008060a0878903121561348a578384fd5b8635613495816142b0565b955060208701356134a5816142b0565b9450604087013593506060870135925060808701356001600160401b038111156134cd578283fd5b61333989828a0161320b565b600080604083850312156134eb578182fd5b82356134f6816142b0565b915060208301356132af816142c8565b60008060006060848603121561351a578081fd5b8335613525816142b0565b92506020840135613535816142c8565b91506040840135613545816142c8565b809150509250925092565b60008060408385031215613562578182fd5b823561356d816142b0565b946020939093013593505050565b60008060008060408587031215613590578182fd5b84356001600160401b03808211156135a6578384fd5b6135b2888389016131ca565b909650945060208701359150808211156135ca578384fd5b506135d7878288016131ca565b95989497509550505050565b6000806000604084860312156135f7578081fd5b83356001600160401b0381111561360c578182fd5b613618868287016131ca565b9094509250506020840135613545816142c8565b60006020828403121561363d578081fd5b8151610b47816142c8565b600060208284031215613659578081fd5b8135610b47816142d6565b600060208284031215613675578081fd5b8151610b47816142d6565b600080600080600080600080610100898b03121561369c578182fd5b88356136a7816142b0565b975060208901356136b7816142b0565b965060408901356136c7816142b0565b9550606089013594506080890135935060a08901356136e5816142ec565b979a969950949793969295929450505060c08201359160e0013590565b600060208284031215613713578081fd5b81516001600160401b0380821115613729578283fd5b818401915084601f83011261373c578283fd5b81518181111561374a578384fd5b604051601f8201601f19168101602001838111828210171561376a578586fd5b604052818152838201602001871015613781578485fd5b613792826020830160208701614284565b9695505050505050565b6000602082840312156137ad578081fd5b5035919050565b6000602082840312156137c5578081fd5b5051919050565b600080604083850312156137de578182fd5b8235915060208301356132af816142b0565b60008060008060808587031215613805578182fd5b843593506020850135613817816142b0565b92506040850135613827816142b0565b9396929550929360600135925050565b600080600080600060a0868803121561384e578283fd5b853594506020860135613860816142b0565b93506040860135613870816142b0565b94979396509394606081013594506080013592915050565b600080600080600080608087890312156138a0578384fd5b8635955060208701356138b2816142b0565b945060408701356001600160401b0380821115613308578586fd5b6000806000606084860312156138e1578081fd5b83359250602084013591506040840135613545816142c8565b60006020828403121561390b578081fd5b8151610b47816142ec565b600060208284031215613927578081fd5b8151610b47816142fb565b60008060008060808587031215613947578182fd5b8435613952816142fb565b93506020850135613817816142b0565b81835260006001600160fb1b0383111561397a578081fd5b6020830280836020870137939093016020019283525090919050565b60008284528282602086013780602084860101526020601f19601f85011685010190509392505050565b6000828483379101908152919050565b600082516139e2818460208701614284565b9190910192915050565b600084516139fe818460208901614284565b91909101928352506020820152604001919050565b693d913730b6b2911d101160b11b81528351600090613a3981600a850160208901614284565b6d1116101139bcb6b137b6111d101160911b600a918401918201528451613a67816018840160208901614284565b6e0111610113232b1b4b6b0b639911d1608d1b6018929091019182015260f89390931b6001600160f81b03191660278401525050607d60f81b602882015260290192915050565b90565b6001600160a01b0391909116815260200190565b6001600160a01b0389811682528816602082015260a060408201819052600090613af2908301888a613962565b8281036060840152613b05818789613962565b90508281036080840152613b1a818587613996565b9b9a5050505050505050505050565b6001600160a01b03878116825286166020820152604081018590526060810184905260a060808201819052600090613b649083018486613996565b98975050505050505050565b6001600160a01b0394851681529290931660208301526040820152606081019190915260a06080820181905260009082015260c00190565b6001600160a01b03929092168252602082015260400190565b6001600160a01b039384168152919092166020820152604081019190915260600190565b6001600160a01b0397881681529590961660208601526040850193909352606084019190915260ff16608083015260a082015260c081019190915260e00190565b600060408252613c3a604083018688613962565b8281036020840152613c4d818587613962565b979650505050505050565b6020808252825182820181905260009190848201906040850190845b81811015613c9057835183529284019291840191600101613c74565b50909695505050505050565b901515815260200190565b90815260200190565b9485526001600160a01b0393841660208601529190921660408401529015156060830152608082015260a00190565b92835260208301919091526001600160a01b0316604082015260600190565b93845260ff9290921660208401526040830152606082015260800190565b6001600160e01b031991909116815260200190565b6000602082528251806020840152613d50816040850160208701614284565b601f01601f19169190910160400192915050565b602080825260159082015274426f72696e674d6174683a20556e646572666c6f7760581b604082015260600190565b6020808252601c908201527f426f72696e6745524332303a205472616e73666572206661696c656400000000604082015260600190565b60208082526017908201527f546170696f63614261723a204e6f74206120746f6b656e000000000000000000604082015260600190565b6020808252601a908201527f546170696f63614261723a20746f735b305d206e6f7420736574000000000000604082015260600190565b6020808252601490820152730a8c2e0d2dec6c284c2e47440dcdee840ae8aa8960631b604082015260600190565b6020808252601590820152744f776e61626c653a207a65726f206164647265737360581b604082015260600190565b60208082526016908201527515185c1a5bd8d850985c8e881d1bc81b9bdd081cd95d60521b604082015260600190565b6020808252601d908201527f546170696f63614261723a205374726174656779206d69736d61746368000000604082015260600190565b60208082526018908201527f426f72696e674d6174683a20416464204f766572666c6f770000000000000000604082015260600190565b6020808252818101527f4f776e61626c653a2063616c6c6572206973206e6f7420746865206f776e6572604082015260600190565b6020808252818101527f4f776e61626c653a2063616c6c657220213d2070656e64696e67206f776e6572604082015260600190565b60208082526012908201527157726f6e672072657475726e2076616c756560701b604082015260600190565b6020808252601c908201527f546170696f63614261723a20557365722063616e6e6f74206265203000000000604082015260600190565b60208082526018908201527f546170696f63614261723a204e6f7420617070726f7665640000000000000000604082015260600190565b6020808252601d908201527f426f72696e6745524332303a2042616c616e63654f66206661696c6564000000604082015260600190565b6020808252601c908201527f546170696f63614261723a206f70657261746f72206e6f742073657400000000604082015260600190565b6020808252818101527f426f72696e6745524332303a205472616e7366657246726f6d206661696c6564604082015260600190565b6020808252818101527f546170696f63614261723a204e6f20746f6b656e496420666f72204552433230604082015260600190565b6020808252601d908201527f546170696f63614261723a20496e76616c6964205369676e6174757265000000604082015260600190565b60208082526018908201527f426f72696e674d6174683a204d756c204f766572666c6f770000000000000000604082015260600190565b6020808252601f908201527f546170696f63614261723a20455448207472616e73666572206661696c656400604082015260600190565b60208082526018908201527f546170696f63614261723a2027746f27206e6f74207365740000000000000000604082015260600190565b9182526001600160a01b0316602082015260400190565b918252602082015260400190565b6001600160601b039490941684526001600160a01b03928316602085015291166040830152606082015260800190565b6000808335601e19843603018112614256578283fd5b8301803591506001600160401b0382111561426f578283fd5b6020019150368190038213156113b857600080fd5b60005b8381101561429f578181015183820152602001614287565b83811115611ff65750506000910152565b6001600160a01b03811681146142c557600080fd5b50565b80151581146142c557600080fd5b6001600160e01b0319811681146142c557600080fd5b60ff811681146142c557600080fd5b6001600160601b03811681146142c557600080fdfec3d58168c5ae7397731d063d5bbf3d657854427343f4c083240f7aacaa2d0f624142434445464748494a4b4c4d4e4f505152535455565758595a6162636465666768696a6b6c6d6e6f707172737475767778797a303132333435363738392b2fa2646970667358221220fa2eb79f09184cbc79cf5626152baf2898a3049aa72c35c2d7f277c1e98c647a64736f6c634300060c0033",
  "devdoc": {
    "author": "BoringCrypto, Keno modifier by Tapioca",
    "kind": "dev",
    "methods": {
      "batch(bytes[],bool)": {
        "params": {
          "calls": "An array of inputs for each call.",
          "revertOnFail": "If True then reverts after a failed call and stops doing further calls."
        }
      },
      "depositAsset(uint256,address,address,uint256,uint256)": {
        "params": {
          "amount": "Token amount in native representation to deposit.",
          "assetId": "The id of the asset.",
          "from": "which account to pull the tokens.",
          "share": "Token amount represented in shares to deposit. Takes precedence over `amount`.",
          "to": "which account to push the tokens."
        },
        "returns": {
          "amountOut": "The amount deposited.",
          "shareOut": "The deposited amount repesented in shares."
        }
      },
      "toAmount(uint256,uint256,bool)": {
        "details": "Helper function represent shares back into the `token` amount.",
        "params": {
          "assetId": "The id of the asset.",
          "roundUp": "If the result should be rounded up.",
          "share": "The amount of shares."
        },
        "returns": {
          "amount": "The share amount back into native representation."
        }
      },
      "toShare(uint256,uint256,bool)": {
        "details": "Helper function to represent an `amount` of `token` in shares.",
        "params": {
          "amount": "The `token` amount.",
          "assetId": "The id of the asset.",
          "roundUp": "If the result `share` should be rounded up."
        },
        "returns": {
          "share": "The token amount represented in shares."
        }
      },
      "transfer(uint256,address,address,uint256)": {
        "params": {
          "assetId": "The id of the asset.",
          "from": "which user to pull the tokens.",
          "share": "The amount of `token` in shares.",
          "to": "which user to push the tokens."
        }
      },
      "transferMultiple(uint256,address,address[],uint256[])": {
        "params": {
          "assetId": "The id of the asset.",
          "from": "which user to pull the tokens.",
          "share": "The amount of `token` in shares for each receiver in `tos`.",
          "tos": "The receivers of the tokens."
        }
      },
      "transferOwnership(address,bool,bool)": {
        "params": {
          "direct": "True if `newOwner` should be set immediately. False if `newOwner` needs to use `claimOwnership`.",
          "newOwner": "Address of the new owner.",
          "renounce": "Allows the `newOwner` to be `address(0)` if `direct` and `renounce` is True. Has no effect otherwise."
        }
      },
      "withdraw(uint256,address,address,uint256,uint256)": {
        "params": {
          "amount": "of tokens. Either one of `amount` or `share` needs to be supplied.",
          "assetId": "The id of the asset.",
          "from": "which user to pull the tokens.",
          "share": "Like above, but `share` takes precedence over `amount`.",
          "to": "which user to push the tokens."
        }
      }
    },
    "title": "TapiocaBar",
    "version": 1
  },
  "userdoc": {
    "kind": "user",
    "methods": {
      "batch(bytes[],bool)": {
        "notice": "Allows batched call to self (this contract)."
      },
      "claimOwnership()": {
        "notice": "Needs to be called by `pendingOwner` to claim ownership."
      },
      "depositAsset(uint256,address,address,uint256,uint256)": {
        "notice": "Deposit an amount of `token` represented in either `amount` or `share`."
      },
      "nonces(address)": {
        "notice": "user nonces for masterContract approvals"
      },
      "permitToken(address,address,address,uint256,uint256,uint8,bytes32,bytes32)": {
        "notice": "Call wrapper that performs `ERC20.permit` on `token`. Lookup `IERC20.permit`."
      },
      "safeTransferFrom(address,address,uint256,uint256,bytes)": {
        "notice": "The following safeTransfer functions are purely here to be EIP-1155 compliant. Using these in your protocol is NOT recommended as it opens up many attack vectors, such as reentrancy issues and denial of service?"
      },
      "transfer(uint256,address,address,uint256)": {
        "notice": "Transfer shares from a user account to another one."
      },
      "transferMultiple(uint256,address,address[],uint256[])": {
        "notice": "Transfer shares from a user account to multiple other ones."
      },
      "transferOwnership(address,bool,bool)": {
        "notice": "Transfers ownership to `newOwner`. Either directly or claimable by the new pending owner. Can only be invoked by the current `owner`."
      },
      "withdraw(uint256,address,address,uint256,uint256)": {
        "notice": "Withdraws an amount of `token` from a user account."
      }
    },
    "notice": "TapiocaBar is a vault for tokens. The stored tokens can assigned to strategies. Yield from this will go to the token depositors. Any funds transfered directly onto TapiocaBar will be lost, use the deposit function instead.",
    "version": 1
  },
  "storageLayout": {
    "storage": [
      {
        "astId": 118,
        "contract": "contracts/bar/TapiocaBar.sol:TapiocaBar",
        "label": "owner",
        "offset": 0,
        "slot": "0",
        "type": "t_address"
      },
      {
        "astId": 120,
        "contract": "contracts/bar/TapiocaBar.sol:TapiocaBar",
        "label": "pendingOwner",
        "offset": 0,
        "slot": "1",
        "type": "t_address"
      },
      {
        "astId": 2024,
        "contract": "contracts/bar/TapiocaBar.sol:TapiocaBar",
        "label": "ids",
        "offset": 0,
        "slot": "2",
        "type": "t_mapping(t_uint96,t_mapping(t_address,t_mapping(t_contract(IStrategy)4044,t_mapping(t_uint256,t_uint256))))"
      },
      {
        "astId": 2027,
        "contract": "contracts/bar/TapiocaBar.sol:TapiocaBar",
        "label": "assets",
        "offset": 0,
        "slot": "3",
        "type": "t_array(t_struct(Asset)1942_storage)dyn_storage"
      },
      {
        "astId": 2033,
        "contract": "contracts/bar/TapiocaBar.sol:TapiocaBar",
        "label": "shares",
        "offset": 0,
        "slot": "4",
        "type": "t_mapping(t_uint256,t_mapping(t_address,t_uint256))"
      },
      {
        "astId": 2037,
        "contract": "contracts/bar/TapiocaBar.sol:TapiocaBar",
        "label": "totalShares",
        "offset": 0,
        "slot": "5",
        "type": "t_mapping(t_uint256,t_uint256)"
      },
      {
        "astId": 2043,
        "contract": "contracts/bar/TapiocaBar.sol:TapiocaBar",
        "label": "isApprovedForAll",
        "offset": 0,
        "slot": "6",
        "type": "t_mapping(t_address,t_mapping(t_address,t_bool))"
      },
      {
        "astId": 3643,
        "contract": "contracts/bar/TapiocaBar.sol:TapiocaBar",
        "label": "nonces",
        "offset": 0,
        "slot": "7",
        "type": "t_mapping(t_address,t_uint256)"
      }
    ],
    "types": {
      "t_address": {
        "encoding": "inplace",
        "label": "address",
        "numberOfBytes": "20"
      },
      "t_array(t_struct(Asset)1942_storage)dyn_storage": {
        "base": "t_struct(Asset)1942_storage",
        "encoding": "dynamic_array",
        "label": "struct Asset[]",
        "numberOfBytes": "32"
      },
      "t_bool": {
        "encoding": "inplace",
        "label": "bool",
        "numberOfBytes": "1"
      },
      "t_contract(IStrategy)4044": {
        "encoding": "inplace",
        "label": "contract IStrategy",
        "numberOfBytes": "20"
      },
      "t_mapping(t_address,t_bool)": {
        "encoding": "mapping",
        "key": "t_address",
        "label": "mapping(address => bool)",
        "numberOfBytes": "32",
        "value": "t_bool"
      },
      "t_mapping(t_address,t_mapping(t_address,t_bool))": {
        "encoding": "mapping",
        "key": "t_address",
        "label": "mapping(address => mapping(address => bool))",
        "numberOfBytes": "32",
        "value": "t_mapping(t_address,t_bool)"
      },
      "t_mapping(t_address,t_mapping(t_contract(IStrategy)4044,t_mapping(t_uint256,t_uint256)))": {
        "encoding": "mapping",
        "key": "t_address",
        "label": "mapping(address => mapping(contract IStrategy => mapping(uint256 => uint256)))",
        "numberOfBytes": "32",
        "value": "t_mapping(t_contract(IStrategy)4044,t_mapping(t_uint256,t_uint256))"
      },
      "t_mapping(t_address,t_uint256)": {
        "encoding": "mapping",
        "key": "t_address",
        "label": "mapping(address => uint256)",
        "numberOfBytes": "32",
        "value": "t_uint256"
      },
      "t_mapping(t_contract(IStrategy)4044,t_mapping(t_uint256,t_uint256))": {
        "encoding": "mapping",
        "key": "t_contract(IStrategy)4044",
        "label": "mapping(contract IStrategy => mapping(uint256 => uint256))",
        "numberOfBytes": "32",
        "value": "t_mapping(t_uint256,t_uint256)"
      },
      "t_mapping(t_uint256,t_mapping(t_address,t_uint256))": {
        "encoding": "mapping",
        "key": "t_uint256",
        "label": "mapping(uint256 => mapping(address => uint256))",
        "numberOfBytes": "32",
        "value": "t_mapping(t_address,t_uint256)"
      },
      "t_mapping(t_uint256,t_uint256)": {
        "encoding": "mapping",
        "key": "t_uint256",
        "label": "mapping(uint256 => uint256)",
        "numberOfBytes": "32",
        "value": "t_uint256"
      },
      "t_mapping(t_uint96,t_mapping(t_address,t_mapping(t_contract(IStrategy)4044,t_mapping(t_uint256,t_uint256))))": {
        "encoding": "mapping",
        "key": "t_uint96",
        "label": "mapping(uint96 => mapping(address => mapping(contract IStrategy => mapping(uint256 => uint256))))",
        "numberOfBytes": "32",
        "value": "t_mapping(t_address,t_mapping(t_contract(IStrategy)4044,t_mapping(t_uint256,t_uint256)))"
      },
      "t_struct(Asset)1942_storage": {
        "encoding": "inplace",
        "label": "struct Asset",
        "members": [
          {
            "astId": 1935,
            "contract": "contracts/bar/TapiocaBar.sol:TapiocaBar",
            "label": "standard",
            "offset": 0,
            "slot": "0",
            "type": "t_uint96"
          },
          {
            "astId": 1937,
            "contract": "contracts/bar/TapiocaBar.sol:TapiocaBar",
            "label": "contractAddress",
            "offset": 12,
            "slot": "0",
            "type": "t_address"
          },
          {
            "astId": 1939,
            "contract": "contracts/bar/TapiocaBar.sol:TapiocaBar",
            "label": "strategy",
            "offset": 0,
            "slot": "1",
            "type": "t_contract(IStrategy)4044"
          },
          {
            "astId": 1941,
            "contract": "contracts/bar/TapiocaBar.sol:TapiocaBar",
            "label": "tokenId",
            "offset": 0,
            "slot": "2",
            "type": "t_uint256"
          }
        ],
        "numberOfBytes": "96"
      },
      "t_uint256": {
        "encoding": "inplace",
        "label": "uint256",
        "numberOfBytes": "32"
      },
      "t_uint96": {
        "encoding": "inplace",
        "label": "uint96",
        "numberOfBytes": "12"
      }
    }
  }
}