{
  "address": "0xBcfD7ec0Fe9A9B5a569DE2634AEab10263835d9F",
  "abi": [
    {
      "anonymous": false,
      "inputs": [
        {
          "indexed": true,
          "internalType": "address",
          "name": "src",
          "type": "address"
        },
        {
          "indexed": true,
          "internalType": "address",
          "name": "guy",
          "type": "address"
        },
        {
          "indexed": false,
          "internalType": "uint256",
          "name": "wad",
          "type": "uint256"
        }
      ],
      "name": "Approval",
      "type": "event"
    },
    {
      "anonymous": false,
      "inputs": [
        {
          "indexed": true,
          "internalType": "address",
          "name": "dst",
          "type": "address"
        },
        {
          "indexed": false,
          "internalType": "uint256",
          "name": "wad",
          "type": "uint256"
        }
      ],
      "name": "Deposit",
      "type": "event"
    },
    {
      "anonymous": false,
      "inputs": [
        {
          "indexed": true,
          "internalType": "address",
          "name": "src",
          "type": "address"
        },
        {
          "indexed": true,
          "internalType": "address",
          "name": "dst",
          "type": "address"
        },
        {
          "indexed": false,
          "internalType": "uint256",
          "name": "wad",
          "type": "uint256"
        }
      ],
      "name": "Transfer",
      "type": "event"
    },
    {
      "anonymous": false,
      "inputs": [
        {
          "indexed": true,
          "internalType": "address",
          "name": "src",
          "type": "address"
        },
        {
          "indexed": false,
          "internalType": "uint256",
          "name": "wad",
          "type": "uint256"
        }
      ],
      "name": "Withdrawal",
      "type": "event"
    },
    {
      "inputs": [
        {
          "internalType": "address",
          "name": "",
          "type": "address"
        },
        {
          "internalType": "address",
          "name": "",
          "type": "address"
        }
      ],
      "name": "allowance",
      "outputs": [
        {
          "internalType": "uint256",
          "name": "",
          "type": "uint256"
        }
      ],
      "stateMutability": "view",
      "type": "function"
    },
    {
      "inputs": [
        {
          "internalType": "address",
          "name": "guy",
          "type": "address"
        },
        {
          "internalType": "uint256",
          "name": "wad",
          "type": "uint256"
        }
      ],
      "name": "approve",
      "outputs": [
        {
          "internalType": "bool",
          "name": "",
          "type": "bool"
        }
      ],
      "stateMutability": "nonpayable",
      "type": "function"
    },
    {
      "inputs": [
        {
          "internalType": "address",
          "name": "",
          "type": "address"
        }
      ],
      "name": "balanceOf",
      "outputs": [
        {
          "internalType": "uint256",
          "name": "",
          "type": "uint256"
        }
      ],
      "stateMutability": "view",
      "type": "function"
    },
    {
      "inputs": [],
      "name": "decimals",
      "outputs": [
        {
          "internalType": "uint8",
          "name": "",
          "type": "uint8"
        }
      ],
      "stateMutability": "view",
      "type": "function"
    },
    {
      "inputs": [],
      "name": "deposit",
      "outputs": [],
      "stateMutability": "payable",
      "type": "function"
    },
    {
      "inputs": [
        {
          "internalType": "uint256",
          "name": "_val",
          "type": "uint256"
        }
      ],
      "name": "freeMint",
      "outputs": [],
      "stateMutability": "nonpayable",
      "type": "function"
    },
    {
      "inputs": [],
      "name": "name",
      "outputs": [
        {
          "internalType": "string",
          "name": "",
          "type": "string"
        }
      ],
      "stateMutability": "view",
      "type": "function"
    },
    {
      "inputs": [],
      "name": "symbol",
      "outputs": [
        {
          "internalType": "string",
          "name": "",
          "type": "string"
        }
      ],
      "stateMutability": "view",
      "type": "function"
    },
    {
      "inputs": [],
      "name": "totalSupply",
      "outputs": [
        {
          "internalType": "uint256",
          "name": "",
          "type": "uint256"
        }
      ],
      "stateMutability": "view",
      "type": "function"
    },
    {
      "inputs": [
        {
          "internalType": "address",
          "name": "dst",
          "type": "address"
        },
        {
          "internalType": "uint256",
          "name": "wad",
          "type": "uint256"
        }
      ],
      "name": "transfer",
      "outputs": [
        {
          "internalType": "bool",
          "name": "",
          "type": "bool"
        }
      ],
      "stateMutability": "nonpayable",
      "type": "function"
    },
    {
      "inputs": [
        {
          "internalType": "address",
          "name": "src",
          "type": "address"
        },
        {
          "internalType": "address",
          "name": "dst",
          "type": "address"
        },
        {
          "internalType": "uint256",
          "name": "wad",
          "type": "uint256"
        }
      ],
      "name": "transferFrom",
      "outputs": [
        {
          "internalType": "bool",
          "name": "",
          "type": "bool"
        }
      ],
      "stateMutability": "nonpayable",
      "type": "function"
    },
    {
      "inputs": [
        {
          "internalType": "uint256",
          "name": "wad",
          "type": "uint256"
        }
      ],
      "name": "withdraw",
      "outputs": [],
      "stateMutability": "nonpayable",
      "type": "function"
    }
  ],
  "transactionHash": "0x85301ab96e6cce27625c006db00656ce8577278258b0fbb5f940eb33b1243767",
  "args": [],
  "numDeployments": 1,
  "solcInputHash": "aa3d94c44db1ac53affa1a7683644bb3",
  "bytecode": "0x60c0604052600d60808190526c2bb930b83832b21022ba3432b960991b60a090815261002e916000919061007a565b50604080518082019091526004808252630ae8aa8960e31b602090920191825261005a9160019161007a565b506002805460ff1916601217905534801561007457600080fd5b5061010d565b828054600181600116156101000203166002900490600052602060002090601f016020900481019282601f106100bb57805160ff19168380011785556100e8565b828001600101855582156100e8579182015b828111156100e85782518255916020019190600101906100cd565b506100f49291506100f8565b5090565b5b808211156100f457600081556001016100f9565b6107db8061011c6000396000f3fe6080604052600436106100a75760003560e01c806370a082311161006457806370a08231146102445780637c928fe91461027757806395d89b41146102a1578063a9059cbb146102b6578063d0e30db0146102ef578063dd62ed3e146102f7576100a7565b806306fdde03146100ac578063095ea7b31461013657806318160ddd1461018357806323b872dd146101aa5780632e1a7d4d146101ed578063313ce56714610219575b600080fd5b3480156100b857600080fd5b506100c1610332565b6040805160208082528351818301528351919283929083019185019080838360005b838110156100fb5781810151838201526020016100e3565b50505050905090810190601f1680156101285780820380516001836020036101000a031916815260200191505b509250505060405180910390f35b34801561014257600080fd5b5061016f6004803603604081101561015957600080fd5b506001600160a01b0381351690602001356103c0565b604080519115158252519081900360200190f35b34801561018f57600080fd5b50610198610426565b60408051918252519081900360200190f35b3480156101b657600080fd5b5061016f600480360360608110156101cd57600080fd5b506001600160a01b0381358116916020810135909116906040013561042a565b3480156101f957600080fd5b506102176004803603602081101561021057600080fd5b50356105cc565b005b34801561022557600080fd5b5061022e610698565b6040805160ff9092168252519081900360200190f35b34801561025057600080fd5b506101986004803603602081101561026757600080fd5b50356001600160a01b03166106a1565b34801561028357600080fd5b506102176004803603602081101561029a57600080fd5b50356106b3565b3480156102ad57600080fd5b506100c16106cb565b3480156102c257600080fd5b5061016f600480360360408110156102d957600080fd5b506001600160a01b038135169060200135610725565b610217610739565b34801561030357600080fd5b506101986004803603604081101561031a57600080fd5b506001600160a01b0381358116916020013516610788565b6000805460408051602060026001851615610100026000190190941693909304601f810184900484028201840190925281815292918301828280156103b85780601f1061038d576101008083540402835291602001916103b8565b820191906000526020600020905b81548152906001019060200180831161039b57829003601f168201915b505050505081565b3360008181526004602090815260408083206001600160a01b038716808552908352818420869055815186815291519394909390927f8c5be1e5ebec7d5bd14f71427d1e84f3dd0314c0f7b2291e5b200ac8c7c3b925928290030190a350600192915050565b4790565b6001600160a01b038316600090815260036020526040812054821115610486576040805162461bcd60e51b815260206004820152600c60248201526b2ba2aa241c9d1022b93937b960a11b604482015290519081900360640190fd5b6001600160a01b03841633148015906104c457506001600160a01b038416600090815260046020908152604080832033845290915290205460001914155b1561055b576001600160a01b0384166000908152600460209081526040808320338452909152902054821115610530576040805162461bcd60e51b815260206004820152600c60248201526b2ba2aa241c9d1022b93937b960a11b604482015290519081900360640190fd5b6001600160a01b03841660009081526004602090815260408083203384529091529020805483900390555b6001600160a01b03808516600081815260036020908152604080832080548890039055938716808352918490208054870190558351868152935191937fddf252ad1be2c89b69c2b068fc378daa952ba7f163c4a11628f55a4df523b3ef929081900390910190a35060019392505050565b3360009081526003602052604090205481111561061f576040805162461bcd60e51b815260206004820152600c60248201526b2ba2aa241c9d1022b93937b960a11b604482015290519081900360640190fd5b33600081815260036020526040808220805485900390555183156108fc0291849190818181858888f1935050505015801561065e573d6000803e3d6000fd5b5060408051828152905133917f7fcf532c15f0a6db0bd6d0e038bea71d30d808c7d98cb3bf7268a95bf5081b65919081900360200190a250565b60025460ff1681565b60036020526000908152604090205481565b33600090815260036020526040902080549091019055565b60018054604080516020600284861615610100026000190190941693909304601f810184900484028201840190925281815292918301828280156103b85780601f1061038d576101008083540402835291602001916103b8565b600061073233848461042a565b9392505050565b33600081815260036020908152604091829020805434908101909155825190815291517fe1fffcc4923d04b559f4d29a8bfc6cda04eb5b0d3c460751c2402c5c5cc9109c9281900390910190a2565b60046020908152600092835260408084209091529082529020548156fea2646970667358221220871aac61db975ba8dbac0d343a2cabd0c324da6e05f1b0b7c844770e695e54ec64736f6c634300060c0033",
  "devdoc": {
    "kind": "dev",
    "methods": {},
    "version": 1
  },
  "userdoc": {
    "kind": "user",
    "methods": {},
    "version": 1
  },
  "storageLayout": {
    "storage": [
      {
        "astId": 4,
        "contract": "contracts/mixologist/legacy/mocks/WETH9Mock.sol:WETH9Mock",
        "label": "name",
        "offset": 0,
        "slot": "0",
        "type": "t_string_storage"
      },
      {
        "astId": 7,
        "contract": "contracts/mixologist/legacy/mocks/WETH9Mock.sol:WETH9Mock",
        "label": "symbol",
        "offset": 0,
        "slot": "1",
        "type": "t_string_storage"
      },
      {
        "astId": 10,
        "contract": "contracts/mixologist/legacy/mocks/WETH9Mock.sol:WETH9Mock",
        "label": "decimals",
        "offset": 0,
        "slot": "2",
        "type": "t_uint8"
      },
      {
        "astId": 42,
        "contract": "contracts/mixologist/legacy/mocks/WETH9Mock.sol:WETH9Mock",
        "label": "balanceOf",
        "offset": 0,
        "slot": "3",
        "type": "t_mapping(t_address,t_uint256)"
      },
      {
        "astId": 48,
        "contract": "contracts/mixologist/legacy/mocks/WETH9Mock.sol:WETH9Mock",
        "label": "allowance",
        "offset": 0,
        "slot": "4",
        "type": "t_mapping(t_address,t_mapping(t_address,t_uint256))"
      }
    ],
    "types": {
      "t_address": {
        "encoding": "inplace",
        "label": "address",
        "numberOfBytes": "20"
      },
      "t_mapping(t_address,t_mapping(t_address,t_uint256))": {
        "encoding": "mapping",
        "key": "t_address",
        "label": "mapping(address => mapping(address => uint256))",
        "numberOfBytes": "32",
        "value": "t_mapping(t_address,t_uint256)"
      },
      "t_mapping(t_address,t_uint256)": {
        "encoding": "mapping",
        "key": "t_address",
        "label": "mapping(address => uint256)",
        "numberOfBytes": "32",
        "value": "t_uint256"
      },
      "t_string_storage": {
        "encoding": "bytes",
        "label": "string",
        "numberOfBytes": "32"
      },
      "t_uint256": {
        "encoding": "inplace",
        "label": "uint256",
        "numberOfBytes": "32"
      },
      "t_uint8": {
        "encoding": "inplace",
        "label": "uint8",
        "numberOfBytes": "1"
      }
    }
  }
}