{
  "address": "0x3Ca9B1e9c3Fe8975F523C46d59f19Ab0EBD76932",
  "abi": [
    {
      "inputs": [
        {
          "internalType": "contract IWrappedNative",
          "name": "wrappedNative_",
          "type": "address"
        },
        {
          "internalType": "contract YieldBoxURIBuilder",
          "name": "uriBuilder_",
          "type": "address"
        }
      ],
      "stateMutability": "nonpayable",
      "type": "constructor"
    },
    {
      "anonymous": false,
      "inputs": [
        {
          "indexed": true,
          "internalType": "address",
          "name": "_owner",
          "type": "address"
        },
        {
          "indexed": true,
          "internalType": "address",
          "name": "_operator",
          "type": "address"
        },
        {
          "indexed": false,
          "internalType": "bool",
          "name": "_approved",
          "type": "bool"
        }
      ],
      "name": "ApprovalForAll",
      "type": "event"
    },
    {
      "anonymous": false,
      "inputs": [
        {
          "indexed": true,
          "internalType": "enum TokenType",
          "name": "tokenType",
          "type": "uint8"
        },
        {
          "indexed": true,
          "internalType": "address",
          "name": "contractAddress",
          "type": "address"
        },
        {
          "indexed": false,
          "internalType": "contract IStrategy",
          "name": "strategy",
          "type": "address"
        },
        {
          "indexed": true,
          "internalType": "uint256",
          "name": "tokenId",
          "type": "uint256"
        },
        {
          "indexed": false,
          "internalType": "uint256",
          "name": "assetId",
          "type": "uint256"
        }
      ],
      "name": "AssetRegistered",
      "type": "event"
    },
    {
      "anonymous": false,
      "inputs": [
        {
          "indexed": true,
          "internalType": "address",
          "name": "masterContract",
          "type": "address"
        },
        {
          "indexed": false,
          "internalType": "bytes",
          "name": "data",
          "type": "bytes"
        },
        {
          "indexed": true,
          "internalType": "address",
          "name": "cloneAddress",
          "type": "address"
        }
      ],
      "name": "LogDeploy",
      "type": "event"
    },
    {
      "anonymous": false,
      "inputs": [
        {
          "indexed": true,
          "internalType": "uint256",
          "name": "tokenId",
          "type": "uint256"
        },
        {
          "indexed": true,
          "internalType": "address",
          "name": "previousTokenOwner",
          "type": "address"
        },
        {
          "indexed": true,
          "internalType": "address",
          "name": "newTokenOwner",
          "type": "address"
        }
      ],
      "name": "OwnershipTransferred",
      "type": "event"
    },
    {
      "anonymous": false,
      "inputs": [
        {
          "indexed": true,
          "internalType": "address",
          "name": "creator",
          "type": "address"
        },
        {
          "indexed": false,
          "internalType": "string",
          "name": "name",
          "type": "string"
        },
        {
          "indexed": false,
          "internalType": "string",
          "name": "symbol",
          "type": "string"
        },
        {
          "indexed": false,
          "internalType": "uint8",
          "name": "decimals",
          "type": "uint8"
        },
        {
          "indexed": false,
          "internalType": "uint256",
          "name": "tokenId",
          "type": "uint256"
        }
      ],
      "name": "TokenCreated",
      "type": "event"
    },
    {
      "anonymous": false,
      "inputs": [
        {
          "indexed": true,
          "internalType": "address",
          "name": "_operator",
          "type": "address"
        },
        {
          "indexed": true,
          "internalType": "address",
          "name": "_from",
          "type": "address"
        },
        {
          "indexed": true,
          "internalType": "address",
          "name": "_to",
          "type": "address"
        },
        {
          "indexed": false,
          "internalType": "uint256[]",
          "name": "_ids",
          "type": "uint256[]"
        },
        {
          "indexed": false,
          "internalType": "uint256[]",
          "name": "_values",
          "type": "uint256[]"
        }
      ],
      "name": "TransferBatch",
      "type": "event"
    },
    {
      "anonymous": false,
      "inputs": [
        {
          "indexed": true,
          "internalType": "address",
          "name": "_operator",
          "type": "address"
        },
        {
          "indexed": true,
          "internalType": "address",
          "name": "_from",
          "type": "address"
        },
        {
          "indexed": true,
          "internalType": "address",
          "name": "_to",
          "type": "address"
        },
        {
          "indexed": false,
          "internalType": "uint256",
          "name": "_id",
          "type": "uint256"
        },
        {
          "indexed": false,
          "internalType": "uint256",
          "name": "_value",
          "type": "uint256"
        }
      ],
      "name": "TransferSingle",
      "type": "event"
    },
    {
      "anonymous": false,
      "inputs": [
        {
          "indexed": false,
          "internalType": "string",
          "name": "_value",
          "type": "string"
        },
        {
          "indexed": true,
          "internalType": "uint256",
          "name": "_id",
          "type": "uint256"
        }
      ],
      "name": "URI",
      "type": "event"
    },
    {
      "inputs": [
        {
          "internalType": "address",
          "name": "user",
          "type": "address"
        },
        {
          "internalType": "uint256",
          "name": "assetId",
          "type": "uint256"
        }
      ],
      "name": "amountOf",
      "outputs": [
        {
          "internalType": "uint256",
          "name": "amount",
          "type": "uint256"
        }
      ],
      "stateMutability": "view",
      "type": "function"
    },
    {
      "inputs": [],
      "name": "assetCount",
      "outputs": [
        {
          "internalType": "uint256",
          "name": "",
          "type": "uint256"
        }
      ],
      "stateMutability": "view",
      "type": "function"
    },
    {
      "inputs": [
        {
          "internalType": "uint256",
          "name": "",
          "type": "uint256"
        }
      ],
      "name": "assets",
      "outputs": [
        {
          "internalType": "enum TokenType",
          "name": "tokenType",
          "type": "uint8"
        },
        {
          "internalType": "address",
          "name": "contractAddress",
          "type": "address"
        },
        {
          "internalType": "contract IStrategy",
          "name": "strategy",
          "type": "address"
        },
        {
          "internalType": "uint256",
          "name": "tokenId",
          "type": "uint256"
        }
      ],
      "stateMutability": "view",
      "type": "function"
    },
    {
      "inputs": [
        {
          "internalType": "address",
          "name": "",
          "type": "address"
        },
        {
          "internalType": "uint256",
          "name": "",
          "type": "uint256"
        }
      ],
      "name": "balanceOf",
      "outputs": [
        {
          "internalType": "uint256",
          "name": "",
          "type": "uint256"
        }
      ],
      "stateMutability": "view",
      "type": "function"
    },
    {
      "inputs": [
        {
          "internalType": "address[]",
          "name": "owners",
          "type": "address[]"
        },
        {
          "internalType": "uint256[]",
          "name": "ids",
          "type": "uint256[]"
        }
      ],
      "name": "balanceOfBatch",
      "outputs": [
        {
          "internalType": "uint256[]",
          "name": "balances",
          "type": "uint256[]"
        }
      ],
      "stateMutability": "view",
      "type": "function"
    },
    {
      "inputs": [
        {
          "internalType": "bytes[]",
          "name": "calls",
          "type": "bytes[]"
        },
        {
          "internalType": "bool",
          "name": "revertOnFail",
          "type": "bool"
        }
      ],
      "name": "batch",
      "outputs": [],
      "stateMutability": "payable",
      "type": "function"
    },
    {
      "inputs": [
        {
          "internalType": "address",
          "name": "from",
          "type": "address"
        },
        {
          "internalType": "address",
          "name": "to",
          "type": "address"
        },
        {
          "internalType": "uint256[]",
          "name": "assetIds_",
          "type": "uint256[]"
        },
        {
          "internalType": "uint256[]",
          "name": "shares_",
          "type": "uint256[]"
        }
      ],
      "name": "batchTransfer",
      "outputs": [],
      "stateMutability": "nonpayable",
      "type": "function"
    },
    {
      "inputs": [
        {
          "internalType": "uint256",
          "name": "tokenId",
          "type": "uint256"
        },
        {
          "internalType": "address",
          "name": "from",
          "type": "address"
        },
        {
          "internalType": "uint256",
          "name": "amount",
          "type": "uint256"
        }
      ],
      "name": "burn",
      "outputs": [],
      "stateMutability": "nonpayable",
      "type": "function"
    },
    {
      "inputs": [
        {
          "internalType": "uint256",
          "name": "tokenId",
          "type": "uint256"
        }
      ],
      "name": "claimOwnership",
      "outputs": [],
      "stateMutability": "nonpayable",
      "type": "function"
    },
    {
      "inputs": [
        {
          "internalType": "address",
          "name": "",
          "type": "address"
        },
        {
          "internalType": "uint256",
          "name": "",
          "type": "uint256"
        }
      ],
      "name": "clonesOf",
      "outputs": [
        {
          "internalType": "address",
          "name": "",
          "type": "address"
        }
      ],
      "stateMutability": "view",
      "type": "function"
    },
    {
      "inputs": [
        {
          "internalType": "address",
          "name": "masterContract",
          "type": "address"
        }
      ],
      "name": "clonesOfCount",
      "outputs": [
        {
          "internalType": "uint256",
          "name": "cloneCount",
          "type": "uint256"
        }
      ],
      "stateMutability": "view",
      "type": "function"
    },
    {
      "inputs": [
        {
          "internalType": "string",
          "name": "name",
          "type": "string"
        },
        {
          "internalType": "string",
          "name": "symbol",
          "type": "string"
        },
        {
          "internalType": "uint8",
          "name": "decimals",
          "type": "uint8"
        }
      ],
      "name": "createToken",
      "outputs": [
        {
          "internalType": "uint256",
          "name": "tokenId",
          "type": "uint256"
        }
      ],
      "stateMutability": "nonpayable",
      "type": "function"
    },
    {
      "inputs": [
        {
          "internalType": "uint256",
          "name": "assetId",
          "type": "uint256"
        }
      ],
      "name": "decimals",
      "outputs": [
        {
          "internalType": "uint8",
          "name": "",
          "type": "uint8"
        }
      ],
      "stateMutability": "view",
      "type": "function"
    },
    {
      "inputs": [
        {
          "internalType": "address",
          "name": "masterContract",
          "type": "address"
        },
        {
          "internalType": "bytes",
          "name": "data",
          "type": "bytes"
        },
        {
          "internalType": "bool",
          "name": "useCreate2",
          "type": "bool"
        }
      ],
      "name": "deploy",
      "outputs": [
        {
          "internalType": "address",
          "name": "cloneAddress",
          "type": "address"
        }
      ],
      "stateMutability": "payable",
      "type": "function"
    },
    {
      "inputs": [
        {
          "internalType": "enum TokenType",
          "name": "tokenType",
          "type": "uint8"
        },
        {
          "internalType": "address",
          "name": "contractAddress",
          "type": "address"
        },
        {
          "internalType": "contract IStrategy",
          "name": "strategy",
          "type": "address"
        },
        {
          "internalType": "uint256",
          "name": "tokenId",
          "type": "uint256"
        },
        {
          "internalType": "address",
          "name": "from",
          "type": "address"
        },
        {
          "internalType": "address",
          "name": "to",
          "type": "address"
        },
        {
          "internalType": "uint256",
          "name": "amount",
          "type": "uint256"
        },
        {
          "internalType": "uint256",
          "name": "share",
          "type": "uint256"
        }
      ],
      "name": "deposit",
      "outputs": [
        {
          "internalType": "uint256",
          "name": "amountOut",
          "type": "uint256"
        },
        {
          "internalType": "uint256",
          "name": "shareOut",
          "type": "uint256"
        }
      ],
      "stateMutability": "nonpayable",
      "type": "function"
    },
    {
      "inputs": [
        {
          "internalType": "uint256",
          "name": "assetId",
          "type": "uint256"
        },
        {
          "internalType": "address",
          "name": "from",
          "type": "address"
        },
        {
          "internalType": "address",
          "name": "to",
          "type": "address"
        },
        {
          "internalType": "uint256",
          "name": "amount",
          "type": "uint256"
        },
        {
          "internalType": "uint256",
          "name": "share",
          "type": "uint256"
        }
      ],
      "name": "depositAsset",
      "outputs": [
        {
          "internalType": "uint256",
          "name": "amountOut",
          "type": "uint256"
        },
        {
          "internalType": "uint256",
          "name": "shareOut",
          "type": "uint256"
        }
      ],
      "stateMutability": "nonpayable",
      "type": "function"
    },
    {
      "inputs": [
        {
          "internalType": "contract IStrategy",
          "name": "strategy",
          "type": "address"
        },
        {
          "internalType": "address",
          "name": "to",
          "type": "address"
        },
        {
          "internalType": "uint256",
          "name": "amount",
          "type": "uint256"
        }
      ],
      "name": "depositETH",
      "outputs": [
        {
          "internalType": "uint256",
          "name": "amountOut",
          "type": "uint256"
        },
        {
          "internalType": "uint256",
          "name": "shareOut",
          "type": "uint256"
        }
      ],
      "stateMutability": "payable",
      "type": "function"
    },
    {
      "inputs": [
        {
          "internalType": "uint256",
          "name": "assetId",
          "type": "uint256"
        },
        {
          "internalType": "address",
          "name": "to",
          "type": "address"
        },
        {
          "internalType": "uint256",
          "name": "amount",
          "type": "uint256"
        }
      ],
      "name": "depositETHAsset",
      "outputs": [
        {
          "internalType": "uint256",
          "name": "amountOut",
          "type": "uint256"
        },
        {
          "internalType": "uint256",
          "name": "shareOut",
          "type": "uint256"
        }
      ],
      "stateMutability": "payable",
      "type": "function"
    },
    {
      "inputs": [
        {
          "internalType": "enum TokenType",
          "name": "",
          "type": "uint8"
        },
        {
          "internalType": "address",
          "name": "",
          "type": "address"
        },
        {
          "internalType": "contract IStrategy",
          "name": "",
          "type": "address"
        },
        {
          "internalType": "uint256",
          "name": "",
          "type": "uint256"
        }
      ],
      "name": "ids",
      "outputs": [
        {
          "internalType": "uint256",
          "name": "",
          "type": "uint256"
        }
      ],
      "stateMutability": "view",
      "type": "function"
    },
    {
      "inputs": [
        {
          "internalType": "address",
          "name": "",
          "type": "address"
        },
        {
          "internalType": "address",
          "name": "",
          "type": "address"
        }
      ],
      "name": "isApprovedForAll",
      "outputs": [
        {
          "internalType": "bool",
          "name": "",
          "type": "bool"
        }
      ],
      "stateMutability": "view",
      "type": "function"
    },
    {
      "inputs": [
        {
          "internalType": "address",
          "name": "",
          "type": "address"
        }
      ],
      "name": "masterContractOf",
      "outputs": [
        {
          "internalType": "address",
          "name": "",
          "type": "address"
        }
      ],
      "stateMutability": "view",
      "type": "function"
    },
    {
      "inputs": [
        {
          "internalType": "uint256",
          "name": "tokenId",
          "type": "uint256"
        },
        {
          "internalType": "address",
          "name": "to",
          "type": "address"
        },
        {
          "internalType": "uint256",
          "name": "amount",
          "type": "uint256"
        }
      ],
      "name": "mint",
      "outputs": [],
      "stateMutability": "nonpayable",
      "type": "function"
    },
    {
      "inputs": [
        {
          "internalType": "uint256",
          "name": "assetId",
          "type": "uint256"
        }
      ],
      "name": "name",
      "outputs": [
        {
          "internalType": "string",
          "name": "",
          "type": "string"
        }
      ],
      "stateMutability": "view",
      "type": "function"
    },
    {
      "inputs": [
        {
          "internalType": "uint256",
          "name": "",
          "type": "uint256"
        }
      ],
      "name": "nativeTokens",
      "outputs": [
        {
          "internalType": "string",
          "name": "name",
          "type": "string"
        },
        {
          "internalType": "string",
          "name": "symbol",
          "type": "string"
        },
        {
          "internalType": "uint8",
          "name": "decimals",
          "type": "uint8"
        }
      ],
      "stateMutability": "view",
      "type": "function"
    },
    {
      "inputs": [
        {
          "internalType": "address",
          "name": "",
          "type": "address"
        },
        {
          "internalType": "address",
          "name": "",
          "type": "address"
        },
        {
          "internalType": "uint256[]",
          "name": "",
          "type": "uint256[]"
        },
        {
          "internalType": "uint256[]",
          "name": "",
          "type": "uint256[]"
        },
        {
          "internalType": "bytes",
          "name": "",
          "type": "bytes"
        }
      ],
      "name": "onERC1155BatchReceived",
      "outputs": [
        {
          "internalType": "bytes4",
          "name": "",
          "type": "bytes4"
        }
      ],
      "stateMutability": "pure",
      "type": "function"
    },
    {
      "inputs": [
        {
          "internalType": "address",
          "name": "",
          "type": "address"
        },
        {
          "internalType": "address",
          "name": "",
          "type": "address"
        },
        {
          "internalType": "uint256",
          "name": "",
          "type": "uint256"
        },
        {
          "internalType": "uint256",
          "name": "",
          "type": "uint256"
        },
        {
          "internalType": "bytes",
          "name": "",
          "type": "bytes"
        }
      ],
      "name": "onERC1155Received",
      "outputs": [
        {
          "internalType": "bytes4",
          "name": "",
          "type": "bytes4"
        }
      ],
      "stateMutability": "pure",
      "type": "function"
    },
    {
      "inputs": [
        {
          "internalType": "uint256",
          "name": "",
          "type": "uint256"
        }
      ],
      "name": "pendingTokenOwner",
      "outputs": [
        {
          "internalType": "address",
          "name": "",
          "type": "address"
        }
      ],
      "stateMutability": "view",
      "type": "function"
    },
    {
      "inputs": [
        {
          "internalType": "contract IERC20",
          "name": "token",
          "type": "address"
        },
        {
          "internalType": "address",
          "name": "from",
          "type": "address"
        },
        {
          "internalType": "address",
          "name": "to",
          "type": "address"
        },
        {
          "internalType": "uint256",
          "name": "amount",
          "type": "uint256"
        },
        {
          "internalType": "uint256",
          "name": "deadline",
          "type": "uint256"
        },
        {
          "internalType": "uint8",
          "name": "v",
          "type": "uint8"
        },
        {
          "internalType": "bytes32",
          "name": "r",
          "type": "bytes32"
        },
        {
          "internalType": "bytes32",
          "name": "s",
          "type": "bytes32"
        }
      ],
      "name": "permitToken",
      "outputs": [],
      "stateMutability": "nonpayable",
      "type": "function"
    },
    {
      "inputs": [
        {
          "internalType": "enum TokenType",
          "name": "tokenType",
          "type": "uint8"
        },
        {
          "internalType": "address",
          "name": "contractAddress",
          "type": "address"
        },
        {
          "internalType": "contract IStrategy",
          "name": "strategy",
          "type": "address"
        },
        {
          "internalType": "uint256",
          "name": "tokenId",
          "type": "uint256"
        }
      ],
      "name": "registerAsset",
      "outputs": [
        {
          "internalType": "uint256",
          "name": "assetId",
          "type": "uint256"
        }
      ],
      "stateMutability": "nonpayable",
      "type": "function"
    },
    {
      "inputs": [
        {
          "internalType": "address",
          "name": "from",
          "type": "address"
        },
        {
          "internalType": "address",
          "name": "to",
          "type": "address"
        },
        {
          "internalType": "uint256[]",
          "name": "ids",
          "type": "uint256[]"
        },
        {
          "internalType": "uint256[]",
          "name": "values",
          "type": "uint256[]"
        },
        {
          "internalType": "bytes",
          "name": "data",
          "type": "bytes"
        }
      ],
      "name": "safeBatchTransferFrom",
      "outputs": [],
      "stateMutability": "nonpayable",
      "type": "function"
    },
    {
      "inputs": [
        {
          "internalType": "address",
          "name": "from",
          "type": "address"
        },
        {
          "internalType": "address",
          "name": "to",
          "type": "address"
        },
        {
          "internalType": "uint256",
          "name": "id",
          "type": "uint256"
        },
        {
          "internalType": "uint256",
          "name": "value",
          "type": "uint256"
        },
        {
          "internalType": "bytes",
          "name": "data",
          "type": "bytes"
        }
      ],
      "name": "safeTransferFrom",
      "outputs": [],
      "stateMutability": "nonpayable",
      "type": "function"
    },
    {
      "inputs": [
        {
          "internalType": "address",
          "name": "operator",
          "type": "address"
        },
        {
          "internalType": "bool",
          "name": "approved",
          "type": "bool"
        }
      ],
      "name": "setApprovalForAll",
      "outputs": [],
      "stateMutability": "nonpayable",
      "type": "function"
    },
    {
      "inputs": [
        {
          "internalType": "bytes4",
          "name": "interfaceID",
          "type": "bytes4"
        }
      ],
      "name": "supportsInterface",
      "outputs": [
        {
          "internalType": "bool",
          "name": "",
          "type": "bool"
        }
      ],
      "stateMutability": "pure",
      "type": "function"
    },
    {
      "inputs": [
        {
          "internalType": "uint256",
          "name": "assetId",
          "type": "uint256"
        }
      ],
      "name": "symbol",
      "outputs": [
        {
          "internalType": "string",
          "name": "",
          "type": "string"
        }
      ],
      "stateMutability": "view",
      "type": "function"
    },
    {
      "inputs": [
        {
          "internalType": "uint256",
          "name": "assetId",
          "type": "uint256"
        },
        {
          "internalType": "uint256",
          "name": "share",
          "type": "uint256"
        },
        {
          "internalType": "bool",
          "name": "roundUp",
          "type": "bool"
        }
      ],
      "name": "toAmount",
      "outputs": [
        {
          "internalType": "uint256",
          "name": "amount",
          "type": "uint256"
        }
      ],
      "stateMutability": "view",
      "type": "function"
    },
    {
      "inputs": [
        {
          "internalType": "uint256",
          "name": "assetId",
          "type": "uint256"
        },
        {
          "internalType": "uint256",
          "name": "amount",
          "type": "uint256"
        },
        {
          "internalType": "bool",
          "name": "roundUp",
          "type": "bool"
        }
      ],
      "name": "toShare",
      "outputs": [
        {
          "internalType": "uint256",
          "name": "share",
          "type": "uint256"
        }
      ],
      "stateMutability": "view",
      "type": "function"
    },
    {
      "inputs": [
        {
          "internalType": "uint256",
          "name": "",
          "type": "uint256"
        }
      ],
      "name": "tokenOwner",
      "outputs": [
        {
          "internalType": "address",
          "name": "",
          "type": "address"
        }
      ],
      "stateMutability": "view",
      "type": "function"
    },
    {
      "inputs": [
        {
          "internalType": "uint256",
          "name": "",
          "type": "uint256"
        }
      ],
      "name": "totalSupply",
      "outputs": [
        {
          "internalType": "uint256",
          "name": "",
          "type": "uint256"
        }
      ],
      "stateMutability": "view",
      "type": "function"
    },
    {
      "inputs": [
        {
          "internalType": "address",
          "name": "from",
          "type": "address"
        },
        {
          "internalType": "address",
          "name": "to",
          "type": "address"
        },
        {
          "internalType": "uint256",
          "name": "assetId",
          "type": "uint256"
        },
        {
          "internalType": "uint256",
          "name": "share",
          "type": "uint256"
        }
      ],
      "name": "transfer",
      "outputs": [],
      "stateMutability": "nonpayable",
      "type": "function"
    },
    {
      "inputs": [
        {
          "internalType": "address",
          "name": "from",
          "type": "address"
        },
        {
          "internalType": "address[]",
          "name": "tos",
          "type": "address[]"
        },
        {
          "internalType": "uint256",
          "name": "assetId",
          "type": "uint256"
        },
        {
          "internalType": "uint256[]",
          "name": "shares",
          "type": "uint256[]"
        }
      ],
      "name": "transferMultiple",
      "outputs": [],
      "stateMutability": "nonpayable",
      "type": "function"
    },
    {
      "inputs": [
        {
          "internalType": "uint256",
          "name": "tokenId",
          "type": "uint256"
        },
        {
          "internalType": "address",
          "name": "newTokenOwner",
          "type": "address"
        },
        {
          "internalType": "bool",
          "name": "direct",
          "type": "bool"
        },
        {
          "internalType": "bool",
          "name": "renounce",
          "type": "bool"
        }
      ],
      "name": "transferOwnership",
      "outputs": [],
      "stateMutability": "nonpayable",
      "type": "function"
    },
    {
      "inputs": [
        {
          "internalType": "uint256",
          "name": "assetId",
          "type": "uint256"
        }
      ],
      "name": "uri",
      "outputs": [
        {
          "internalType": "string",
          "name": "",
          "type": "string"
        }
      ],
      "stateMutability": "view",
      "type": "function"
    },
    {
      "inputs": [],
      "name": "uriBuilder",
      "outputs": [
        {
          "internalType": "contract YieldBoxURIBuilder",
          "name": "",
          "type": "address"
        }
      ],
      "stateMutability": "view",
      "type": "function"
    },
    {
      "inputs": [
        {
          "internalType": "uint256",
          "name": "assetId",
          "type": "uint256"
        },
        {
          "internalType": "address",
          "name": "from",
          "type": "address"
        },
        {
          "internalType": "address",
          "name": "to",
          "type": "address"
        },
        {
          "internalType": "uint256",
          "name": "amount",
          "type": "uint256"
        },
        {
          "internalType": "uint256",
          "name": "share",
          "type": "uint256"
        }
      ],
      "name": "withdraw",
      "outputs": [
        {
          "internalType": "uint256",
          "name": "amountOut",
          "type": "uint256"
        },
        {
          "internalType": "uint256",
          "name": "shareOut",
          "type": "uint256"
        }
      ],
      "stateMutability": "nonpayable",
      "type": "function"
    },
    {
      "inputs": [],
      "name": "wrappedNative",
      "outputs": [
        {
          "internalType": "contract IWrappedNative",
          "name": "",
          "type": "address"
        }
      ],
      "stateMutability": "view",
      "type": "function"
    },
    {
      "stateMutability": "payable",
      "type": "receive"
    }
  ],
  "transactionHash": "0x1b27e465a50dcd0a51dd781e29b87eb9086d68474febd0a310a131699af20f32",
  "args": [
    "0xBcfD7ec0Fe9A9B5a569DE2634AEab10263835d9F",
    "0x29b47093bE2931629eae23247A5D0C24F84Fe4F3"
  ],
  "numDeployments": 1,
  "solcInputHash": "a2e00020eb0d34b361ef471c59de08cb",
  "bytecode": "0x60c06040523480156200001157600080fd5b5060405162004cbf38038062004cbf833981016040819052620000349162000190565b6040805160808101825260038082526000602083018190529282018390526060820183905260048054600180820183559190945282519382027f8a35acfbc15ff81a39ae7d344fd709f28e8600b4aa8c65c6b64bfe7fe36bd19b018054939490939092849260ff1990921691908490811115620000b557620000b5620001cf565b021790555060208201518154610100600160a81b0319166101006001600160a01b03928316021782556040808401516001840180546001600160a01b031916918416919091179055606090930151600290920191909155838116608052815163530bca7760e11b815291519083169163a61794ee91600480830192600092919082900301818387803b1580156200014b57600080fd5b505af115801562000160573d6000803e3d6000fd5b505050506001600160a01b031660a05250620001e5565b6001600160a01b03811681146200018d57600080fd5b50565b60008060408385031215620001a457600080fd5b8251620001b18162000177565b6020840151909250620001c48162000177565b809150509250929050565b634e487b7160e01b600052602160045260246000fd5b60805160a051614a6e6200025160003960008181610979015281816109b301528181610b5d0152818161126a01526114ae0152600081816108c2015281816117860152818161183a015281816118d301528181611c2d01528181611c7001526124780152614a6e6000f3fe6080604052600436106102745760003560e01c80638d2e63b81161014f578063ce7f2714116100c1578063eafe7a741161007a578063eafe7a741461089b578063eb6d3a11146108b0578063f23a6e61146108e4578063f242432a14610911578063fba96be814610931578063fd330d431461096757600080fd5b8063ce7f2714146107c0578063cf35bdd0146107e0578063d2423b5114610810578063daf210b114610823578063e8a0aed314610843578063e985e9c51461086357600080fd5b8063a22cb46511610113578063a22cb465146106c2578063a3823ac0146106e2578063b061db94146106f5578063bafe4f1414610715578063bc197c811461074b578063bd85b0391461079357600080fd5b80638d2e63b8146106225780638eb22cdd146106425780638fd43654146106625780639a9af97a146106825780639eea5f66146106a257600080fd5b80633f47e662116101e85780635ba4d64e116101ac5780635ba4d64e146105445780636cd570311461056457806370400fbe146105995780637c516e94146105ac578063826f3623146105cc578063836a10401461060257600080fd5b80633f47e66214610485578063442c1599146104b75780634e1273f4146104d75780634e41a1fb1461050457806354317d161461052457600080fd5b80631caaa4871161023a5780631caaa4871461036e5780631f0ee4c3146103bc5780631f54245b146103eb578063215b595a146103fe5780632d4e1d521461041e5780632eb2c2d61461046557600080fd5b8062ad800c14610280578062fdd58e146102b657806301ffc9a7146102fc5780630411b2521461032c5780630e89341c1461034e57600080fd5b3661027b57005b600080fd5b34801561028c57600080fd5b506102a061029b3660046139cd565b61099b565b6040516102ad9190613a3e565b60405180910390f35b3480156102c257600080fd5b506102ee6102d1366004613a69565b600160209081526000928352604080842090915290825290205481565b6040519081526020016102ad565b34801561030857600080fd5b5061031c610317366004613aab565b610a30565b60405190151581526020016102ad565b34801561033857600080fd5b5061034c610347366004613ac8565b610a7e565b005b34801561035a57600080fd5b506102a06103693660046139cd565b610b44565b34801561037a57600080fd5b506103a46103893660046139cd565b6008602052600090815260409020546001600160a01b031681565b6040516001600160a01b0390911681526020016102ad565b3480156103c857600080fd5b506103dc6103d73660046139cd565b610b94565b6040516102ad93929190613b0e565b6103a46103f9366004613b9d565b610cc9565b34801561040a57600080fd5b5061034c610419366004613c48565b610ed9565b34801561042a57600080fd5b506102ee610439366004613ce0565b600360209081526000948552604080862082529385528385208152918452828420909152825290205481565b34801561047157600080fd5b5061034c610480366004613d31565b61115b565b34801561049157600080fd5b506104a56104a03660046139cd565b611251565b60405160ff90911681526020016102ad565b3480156104c357600080fd5b506102ee6104d2366004613def565b6112dd565b3480156104e357600080fd5b506104f76104f2366004613e28565b611376565b6040516102ad9190613e93565b34801561051057600080fd5b506102a061051f3660046139cd565b611495565b34801561053057600080fd5b506102ee61053f366004613a69565b6114e5565b34801561055057600080fd5b5061034c61055f366004613ed7565b6115a7565b34801561057057600080fd5b5061058461057f366004613f1f565b6116df565b604080519283526020830191909152016102ad565b6105846105a7366004613fab565b611738565b3480156105b857600080fd5b5061034c6105c7366004613ff2565b61197d565b3480156105d857600080fd5b506103a46105e73660046139cd565b6009602052600090815260409020546001600160a01b031681565b34801561060e57600080fd5b5061034c61061d366004613fab565b611a0f565b34801561062e57600080fd5b5061058461063d366004614058565b611a58565b34801561064e57600080fd5b506102ee61065d366004613def565b611df2565b34801561066e57600080fd5b506103a461067d366004613a69565b611e6e565b34801561068e57600080fd5b5061058461069d366004614058565b611ea6565b3480156106ae57600080fd5b5061034c6106bd366004613fab565b6121c6565b3480156106ce57600080fd5b5061034c6106dd3660046140aa565b6122f3565b6105846106f03660046140e3565b61246b565b34801561070157600080fd5b506102ee610710366004613ce0565b6124b2565b34801561072157600080fd5b506103a4610730366004614113565b6005602052600090815260409020546001600160a01b031681565b34801561075757600080fd5b5061077a610766366004613d31565b63bc197c8160e01b98975050505050505050565b6040516001600160e01b031990911681526020016102ad565b34801561079f57600080fd5b506102ee6107ae3660046139cd565b60026020526000908152604090205481565b3480156107cc57600080fd5b5061034c6107db3660046139cd565b612546565b3480156107ec57600080fd5b506108006107fb3660046139cd565b612620565b6040516102ad9493929190614146565b61034c61081e36600461418b565b61266a565b34801561082f57600080fd5b5061034c61083e3660046141d6565b612737565b34801561084f57600080fd5b506102ee61085e36600461424b565b6127f8565b34801561086f57600080fd5b5061031c61087e3660046142ce565b600060208181529281526040808220909352908152205460ff1681565b3480156108a757600080fd5b506004546102ee565b3480156108bc57600080fd5b506103a47f000000000000000000000000000000000000000000000000000000000000000081565b3480156108f057600080fd5b5061077a6108ff3660046142fc565b63f23a6e6160e01b9695505050505050565b34801561091d57600080fd5b5061034c61092c3660046142fc565b612994565b34801561093d57600080fd5b506102ee61094c366004614113565b6001600160a01b031660009081526006602052604090205490565b34801561097357600080fd5b506103a47f000000000000000000000000000000000000000000000000000000000000000081565b604051622b600360e21b8152600481018290526060907f00000000000000000000000000000000000000000000000000000000000000006001600160a01b03169062ad800c906024015b600060405180830381865afa158015610a02573d6000803e3d6000fd5b505050506040513d6000823e601f3d908101601f19168201604052610a2a919081019061437b565b92915050565b60006001600160e01b031982166301ffc9a760e01b1480610a615750636cdb3d1360e11b6001600160e01b03198316145b80610a2a5750506001600160e01b0319166303a24d0760e21b1490565b836001600160a01b0381163314801590610aba57506001600160a01b03811660009081526020818152604080832033845290915290205460ff16155b15610b3157336000908152600560205260409020546001600160a01b03168015801590610b0a57506001600160a01b038083166000908152602081815260408083209385168352929052205460ff165b610b2f5760405162461bcd60e51b8152600401610b2690614427565b60405180910390fd5b505b610b3d85858585612a63565b5050505050565b6040516303a24d0760e21b8152600481018290526060907f00000000000000000000000000000000000000000000000000000000000000006001600160a01b031690630e89341c906024016109e5565b600760205260009081526040902080548190610baf90614457565b80601f0160208091040260200160405190810160405280929190818152602001828054610bdb90614457565b8015610c285780601f10610bfd57610100808354040283529160200191610c28565b820191906000526020600020905b815481529060010190602001808311610c0b57829003601f168201915b505050505090806001018054610c3d90614457565b80601f0160208091040260200160405190810160405280929190818152602001828054610c6990614457565b8015610cb65780601f10610c8b57610100808354040283529160200191610cb6565b820191906000526020600020905b815481529060010190602001808311610c9957829003601f168201915b5050506002909301549192505060ff1683565b60006001600160a01b038516610d215760405162461bcd60e51b815260206004820181905260248201527f426f72696e67466163746f72793a204e6f206d6173746572436f6e74726163746044820152606401610b26565b606085901b8215610d935760008585604051610d3e929190614491565b60405180910390209050604051733d602d80600a3d3981f3363d3d373d3d3d363d7360601b81528260148201526e5af43d82803e903d91602b57fd5bf360881b6028820152816037826000f593505050610dd8565b604051733d602d80600a3d3981f3363d3d373d3d3d363d7360601b81528160148201526e5af43d82803e903d91602b57fd5bf360881b60288201526037816000f09250505b6001600160a01b0380831660008181526005602090815260408083208054958c166001600160a01b0319968716811790915583526006825280832080546001810182559084529190922001805490931682179092559051631377d1f560e21b8152634ddf47d4903490610e5190899089906004016144ca565b6000604051808303818588803b158015610e6a57600080fd5b505af1158015610e7e573d6000803e3d6000fd5b5050505050816001600160a01b0316866001600160a01b03167fd62166f3c2149208e51788b1401cc356bf5da1fc6c7886a32e18570f57d88b3b8787604051610ec89291906144ca565b60405180910390a350949350505050565b856001600160a01b0381163314801590610f1557506001600160a01b03811660009081526020818152604080832033845290915290205460ff16155b15610f8357336000908152600560205260409020546001600160a01b03168015801590610f6557506001600160a01b038083166000908152602081815260408083209385168352929052205460ff165b610f815760405162461bcd60e51b8152600401610b2690614427565b505b8460005b81811015611017576000888883818110610fa357610fa36144de565b9050602002016020810190610fb89190614113565b6001600160a01b0316036110055760405162461bcd60e51b8152602060048201526014602482015273165a595b19109bde0e881d1bc81b9bdd081cd95d60621b6044820152606401610b26565b8061100f8161450a565b915050610f87565b506000805b82811015611117576000898983818110611038576110386144de565b905060200201602081019061104d9190614113565b90506000878784818110611063576110636144de565b6001600160a01b03851660009081526001602090815260408083208f8452825282208054939091029490940135945084939250906110a2908490614523565b909155506110b290508185614523565b9350816001600160a01b03168c6001600160a01b0316336001600160a01b03166000805160206149f98339815191528c856040516110fa929190918252602082015260400190565b60405180910390a45050808061110f9061450a565b91505061101c565b506001600160a01b03891660009081526001602090815260408083208984529091528120805483929061114b90849061453b565b9091555050505050505050505050565b84831461117a5760405162461bcd60e51b8152600401610b2690614552565b61118388612b38565b611191888888888888612be6565b6001600160a01b0387163b156112475760405163bc197c8160e01b808252906001600160a01b0389169063bc197c81906111dd9033908d908c908c908c908c908c908c906004016145ba565b6020604051808303816000875af11580156111fc573d6000803e3d6000fd5b505050506040513d601f19601f82011682018060405250810190611220919061461e565b6001600160e01b031916146112475760405162461bcd60e51b8152600401610b269061463b565b5050505050505050565b604051631fa3f33160e11b8152600481018290526000907f00000000000000000000000000000000000000000000000000000000000000006001600160a01b031690633f47e66290602401602060405180830381865afa1580156112b9573d6000803e3d6000fd5b505050506040513d601f19601f82011682018060405250810190610a2a9190614667565b600080600485815481106112f3576112f36144de565b600091825260209091206003918202015460ff169081111561131757611317614130565b0361132357508161136f565b61136c600260008681526020019081526020016000205461136360048781548110611350576113506144de565b9060005260206000209060030201612d3f565b85919085612e58565b90505b9392505050565b6060838281146113985760405162461bcd60e51b8152600401610b2690614552565b806001600160401b038111156113b0576113b0614365565b6040519080825280602002602001820160405280156113d9578160200160208202803683370190505b50915060005b8181101561148b57600160008888848181106113fd576113fd6144de565b90506020020160208101906114129190614113565b6001600160a01b03166001600160a01b031681526020019081526020016000206000868684818110611446576114466144de565b9050602002013581526020019081526020016000205483828151811061146e5761146e6144de565b6020908102919091010152806114838161450a565b9150506113df565b5050949350505050565b604051634e41a1fb60e01b8152600481018290526060907f00000000000000000000000000000000000000000000000000000000000000006001600160a01b031690634e41a1fb906024016109e5565b600080600483815481106114fb576114fb6144de565b600091825260209091206003918202015460ff169081111561151f5761151f614130565b0361154e57506001600160a01b0382166000908152600160209081526040808320848452909152902054610a2a565b61136f600260008481526020019081526020016000205461157b60048581548110611350576113506144de565b6001600160a01b0386166000908152600160209081526040808320888452909152812054929190612e58565b60008481526008602052604090205484906001600160a01b031633146115df5760405162461bcd60e51b8152600401610b2690614684565b82156116af576001600160a01b0384161515806115f95750815b6116395760405162461bcd60e51b81526020600482015260116024820152704e54463a207a65726f206164647265737360781b6044820152606401610b26565b6000858152600860205260408082205490516001600160a01b03808816939216918891600080516020614a198339815191529190a4600085815260086020908152604080832080546001600160a01b0389166001600160a01b031991821617909155600990925290912080549091169055610b3d565b600085815260096020526040902080546001600160a01b0386166001600160a01b03199091161790555050505050565b600080808a60038111156116f5576116f5614130565b0361171c5761171361170a6002308b8b6124b2565b87878787611ea6565b9150915061172b565b61171361170a8b8b8b8b6124b2565b9850989650505050505050565b600080600060048681548110611750576117506144de565b6000918252602090912060039091020190506001815460ff16600381111561177a5761177a614130565b1480156117b9575080547f00000000000000000000000000000000000000000000000000000000000000006001600160a01b0390811661010090920416145b6118055760405162461bcd60e51b815260206004820152601b60248201527f5969656c64426f783a206e6f7420777261707065644e617469766500000000006044820152606401610b26565b60008681526002602052604081205461182b9061182184612d3f565b8791906000612eca565b9050611838868883612f15565b7f00000000000000000000000000000000000000000000000000000000000000006001600160a01b031663d0e30db0866040518263ffffffff1660e01b81526004016000604051808303818588803b15801561189357600080fd5b505af11580156118a7573d6000803e3d6000fd5b5050505060018301546001600160a01b03161590506118fc5760018201546118fc906001600160a01b037f00000000000000000000000000000000000000000000000000000000000000008116911687612fd3565b60018201546001600160a01b0316156119705760018201546040516357d48e6360e11b8152600481018790526001600160a01b039091169063afa91cc690602401600060405180830381600087803b15801561195757600080fd5b505af115801561196b573d6000803e3d6000fd5b505050505b9396939550929350505050565b60405163d505accf60e01b81526001600160a01b0388811660048301528781166024830152604482018790526064820186905260ff8516608483015260a4820184905260c4820183905289169063d505accf9060e401600060405180830381600087803b1580156119ed57600080fd5b505af1158015611a01573d6000803e3d6000fd5b505050505050505050505050565b60008381526008602052604090205483906001600160a01b03163314611a475760405162461bcd60e51b8152600401610b2690614684565b611a52838584612f15565b50505050565b600080856001600160a01b0381163314801590611a9757506001600160a01b03811660009081526020818152604080832033845290915290205460ff16155b15611b0557336000908152600560205260409020546001600160a01b03168015801590611ae757506001600160a01b038083166000908152602081815260408083209385168352929052205460ff165b611b035760405162461bcd60e51b8152600401610b2690614427565b505b600060048981548110611b1a57611b1a6144de565b6000918252602082206003909102019150815460ff166003811115611b4157611b41614130565b03611b8e5760405162461bcd60e51b815260206004820152601f60248201527f5969656c64426f783a2063616e2774207769746864726177204e6174697665006044820152606401610b26565b6000611b9982612d3f565b905085600003611bc75760008a815260026020526040902054611bc0908890836001612eca565b9550611be7565b60008a815260026020526040812054611be4918891908490612e58565b96505b611bf2898b886130f1565b60018201546001600160a01b0316611d7b576001825460ff166003811115611c1c57611c1c614130565b03611d085781546001600160a01b037f000000000000000000000000000000000000000000000000000000000000000081166101009092041603611ced57604051632e1a7d4d60e01b8152600481018890527f00000000000000000000000000000000000000000000000000000000000000006001600160a01b031690632e1a7d4d90602401600060405180830381600087803b158015611cbc57600080fd5b505af1158015611cd0573d6000803e3d6000fd5b50611ce8925050506001600160a01b038916886131a6565b611de2565b8154611ce89061010090046001600160a01b03168989612fd3565b81546002830154604051637921219560e11b81526101009092046001600160a01b03169163f242432a91611d449130918d918d906004016146bb565b600060405180830381600087803b158015611d5e57600080fd5b505af1158015611d72573d6000803e3d6000fd5b50505050611de2565b600182015460405163f3fef3a360e01b81526001600160a01b039091169063f3fef3a390611daf908b908b906004016146f3565b600060405180830381600087803b158015611dc957600080fd5b505af1158015611ddd573d6000803e3d6000fd5b505050505b5094989397509295505050505050565b60008060048581548110611e0857611e086144de565b600091825260209091206003918202015460ff1690811115611e2c57611e2c614130565b03611e3857508161136f565b61136c6002600086815260200190815260200160002054611e6560048781548110611350576113506144de565b85919085612eca565b60066020528160005260406000208181548110611e8a57600080fd5b6000918252602090912001546001600160a01b03169150829050565b600080856001600160a01b0381163314801590611ee557506001600160a01b03811660009081526020818152604080832033845290915290205460ff16155b15611f5357336000908152600560205260409020546001600160a01b03168015801590611f3557506001600160a01b038083166000908152602081815260408083209385168352929052205460ff165b611f515760405162461bcd60e51b8152600401610b2690614427565b505b600060048981548110611f6857611f686144de565b6000918252602082206003909102019150815460ff166003811115611f8f57611f8f614130565b03611fdc5760405162461bcd60e51b815260206004820152601e60248201527f5969656c64426f783a2063616e2774206465706f736974204e617469766500006044820152606401610b26565b6000611fe782612d3f565b9050856000036120155760008a81526002602052604081205461200e918991908490612eca565b9550612035565b60008a815260026020526040902054612032908790836001612e58565b96505b612040888b88612f15565b60018201546000906001600160a01b0316156120695760018301546001600160a01b031661206b565b305b90506001835460ff16600381111561208557612085614130565b036120ab5782546120a69061010090046001600160a01b03168b838b613249565b612141565b8254306101009091046001600160a01b0316036120d2576120a68a8285600201548b612a63565b82546002840154604051637921219560e11b81526101009092046001600160a01b03169163f242432a9161210e918e9186918e906004016146bb565b600060405180830381600087803b15801561212857600080fd5b505af115801561213c573d6000803e3d6000fd5b505050505b60018301546001600160a01b0316156121b55760018301546040516357d48e6360e11b8152600481018a90526001600160a01b039091169063afa91cc690602401600060405180830381600087803b15801561219c57600080fd5b505af11580156121b0573d6000803e3d6000fd5b505050505b509599949850939650505050505050565b816001600160a01b038116331480159061220257506001600160a01b03811660009081526020818152604080832033845290915290205460ff16155b1561227057336000908152600560205260409020546001600160a01b0316801580159061225257506001600160a01b038083166000908152602081815260408083209385168352929052205460ff165b61226e5760405162461bcd60e51b8152600401610b2690614427565b505b600060048581548110612285576122856144de565b600091825260209091206003918202015460ff16908111156122a9576122a9614130565b146122e85760405162461bcd60e51b815260206004820152600f60248201526e4e54463a204e6f74206e617469766560881b6044820152606401610b26565b611a523385846130f1565b6001600160a01b0382166123495760405162461bcd60e51b815260206004820152601a60248201527f5969656c64426f783a206f70657261746f72206e6f74207365740000000000006044820152606401610b26565b336000908152600560205260409020546001600160a01b0316156123a95760405162461bcd60e51b81526020600482015260176024820152765969656c64426f783a207573657220697320636c6f6e6560481b6044820152606401610b26565b306001600160a01b038316036124015760405162461bcd60e51b815260206004820181905260248201527f5969656c64426f783a2063616e277420617070726f7665207969656c64426f786044820152606401610b26565b336000818152602081815260408083206001600160a01b03871680855290835292819020805460ff191686151590811790915590519081529192917f17307eab39ab6107e8899845ad3d59bd9653f200f220920489ca2b5937696c31910160405180910390a35050565b6000806124a661249f60017f00000000000000000000000000000000000000000000000000000000000000008860006124b2565b8585611738565b91509150935093915050565b600060018560038111156124c8576124c8614130565b14806124e5575060028560038111156124e3576124e3614130565b145b6125315760405162461bcd60e51b815260206004820152601f60248201527f41737365744d616e616765723a2063616e6e6f7420616464204e6174697665006044820152606401610b26565b61253d85858585613365565b95945050505050565b6000818152600960205260409020546001600160a01b03163381146125ad5760405162461bcd60e51b815260206004820152601c60248201527f4e54463a2063616c6c657220213d2070656e64696e67206f776e6572000000006044820152606401610b26565b6000828152600860205260408082205490516001600160a01b03808516939216918591600080516020614a198339815191529190a4600091825260086020908152604080842080546001600160a01b039094166001600160a01b0319948516179055600990915290912080549091169055565b6004818154811061263057600080fd5b600091825260209091206003909102018054600182015460029092015460ff821693506101009091046001600160a01b0390811692169084565b60005b82811015611a52576000803086868581811061268b5761268b6144de565b905060200281019061269d919061470c565b6040516126ab929190614491565b600060405180830381855af49150503d80600081146126e6576040519150601f19603f3d011682016040523d82523d6000602084013e6126eb565b606091505b5091509150811580156126fb5750835b156127225761270981613860565b60405162461bcd60e51b8152600401610b269190613a3e565b5050808061272f9061450a565b91505061266d565b856001600160a01b038116331480159061277357506001600160a01b03811660009081526020818152604080832033845290915290205460ff16155b156127e157336000908152600560205260409020546001600160a01b031680158015906127c357506001600160a01b038083166000908152602081815260408083209385168352929052205460ff165b6127df5760405162461bcd60e51b8152600401610b2690614427565b505b6127ef878787878787612be6565b50505050505050565b6004546128086000808084613365565b50604051806060016040528087878080601f016020809104026020016040519081016040528093929190818152602001838380828437600092019190915250505090825250604080516020601f880181900481028201810190925286815291810191908790879081908401838280828437600092018290525093855250505060ff8516602092830152838152600790915260409020815181906128ab9082614798565b50602082015160018201906128c09082614798565b506040918201516002909101805460ff90921660ff199092169190911790556000828152600860205281902080546001600160a01b0319163390811790915590517f0b0bcdebd2813328a89a9ed5971e5863201ed78fc4e0e2b271cceddb9ce905109061293890899089908990899089908990614857565b60405180910390a26040805182815260006020820181905291829133916000805160206149f9833981519152910160405180910390a460405133906000908390600080516020614a19833981519152908390a495945050505050565b61299d86612b38565b6129a986868686612a63565b6001600160a01b0385163b15612a5b5760405163f23a6e6160e01b808252906001600160a01b0387169063f23a6e61906129f19033908b908a908a908a908a90600401614897565b6020604051808303816000875af1158015612a10573d6000803e3d6000fd5b505050506040513d601f19601f82011682018060405250810190612a34919061461e565b6001600160e01b03191614612a5b5760405162461bcd60e51b8152600401610b269061463b565b505050505050565b6001600160a01b038316612a895760405162461bcd60e51b8152600401610b26906148de565b6001600160a01b038416600090815260016020908152604080832085845290915281208054839290612abc90849061453b565b90915550506001600160a01b038316600090815260016020908152604080832085845290915281208054839290612af4908490614523565b909155505060408051838152602081018390526001600160a01b03808616929087169133916000805160206149f9833981519152910160405180910390a450505050565b806001600160a01b0381163314801590612b7457506001600160a01b03811660009081526020818152604080832033845290915290205460ff16155b15612be257336000908152600560205260409020546001600160a01b03168015801590612bc457506001600160a01b038083166000908152602081815260408083209385168352929052205460ff165b612be05760405162461bcd60e51b8152600401610b2690614427565b505b5050565b6001600160a01b038516612c0c5760405162461bcd60e51b8152600401610b26906148de565b60005b83811015612cdb576000858583818110612c2b57612c2b6144de565b9050602002013590506000848484818110612c4857612c486144de565b6001600160a01b038c16600090815260016020908152604080832088845282528220805493909102949094013594508493925090612c8790849061453b565b90915550506001600160a01b038816600090815260016020908152604080832085845290915281208054839290612cbf908490614523565b9250508190555050508080612cd39061450a565b915050612c0f565b50846001600160a01b0316866001600160a01b0316336001600160a01b03167f4a39dc06d4c0dbc64b70af90fd698a233a518aa5d07e595d983b8c0526c8f7fb87878787604051612d2f9493929190614904565b60405180910390a4505050505050565b60018101546000906001600160a01b0316612e03576001825460ff166003811115612d6c57612d6c614130565b03612d8b578154610a2a9061010090046001600160a01b0316306138bf565b81546002830154604051627eeac760e11b81526101009092046001600160a01b03169162fdd58e91612dc2913091906004016146f3565b602060405180830381865afa158015612ddf573d6000803e3d6000fd5b505050506040513d601f19601f82011682018060405250810190610a2a919061492b565b8160010160009054906101000a90046001600160a01b03166001600160a01b031663ce845d1d6040518163ffffffff1660e01b8152600401602060405180830381865afa158015612ddf573d6000803e3d6000fd5b600082612e648161450a565b9350612e7690506305f5e10085614523565b935083612e838487614944565b612e8d9190614963565b9050818015612eaf57508483612ea38684614944565b612ead9190614963565b105b15612ec25780612ebe8161450a565b9150505b949350505050565b600082612ed68161450a565b9350612ee890506305f5e10085614523565b935082612ef58587614944565b612eff9190614963565b9050818015612eaf57508484612ea38584614944565b6001600160a01b038316612f3b5760405162461bcd60e51b8152600401610b26906148de565b6001600160a01b038316600090815260016020908152604080832085845290915281208054839290612f6e908490614523565b909155505060008281526002602052604081208054839290612f91908490614523565b909155505060408051838152602081018390526001600160a01b0385169160009133916000805160206149f983398151915291015b60405180910390a4505050565b600080846001600160a01b031663a9059cbb60e01b8585604051602401612ffb9291906146f3565b60408051601f198184030181529181526020820180516001600160e01b03166001600160e01b03199094169390931790925290516130399190614985565b6000604051808303816000865af19150503d8060008114613076576040519150601f19603f3d011682016040523d82523d6000602084013e61307b565b606091505b50915091508180156130a55750805115806130a55750808060200190518101906130a591906149a1565b610b3d5760405162461bcd60e51b815260206004820152601c60248201527f426f72696e6745524332303a205472616e73666572206661696c6564000000006044820152606401610b26565b6001600160a01b0383166131175760405162461bcd60e51b8152600401610b26906148de565b6001600160a01b03831660009081526001602090815260408083208584529091528120805483929061314a90849061453b565b90915550506000828152600260205260408120805483929061316d90849061453b565b909155505060408051838152602081018390526000916001600160a01b0386169133916000805160206149f98339815191529101612fc6565b6000826001600160a01b03168260405160006040518083038185875af1925050503d80600081146131f3576040519150601f19603f3d011682016040523d82523d6000602084013e6131f8565b606091505b5050905080612be05760405162461bcd60e51b815260206004820152601e60248201527f426f72696e67416464726573733a207472616e73666572206661696c656400006044820152606401610b26565b604080516001600160a01b0385811660248301528481166044830152606480830185905283518084039091018152608490920183526020820180516001600160e01b03166323b872dd60e01b17905291516000928392908816916132ad9190614985565b6000604051808303816000865af19150503d80600081146132ea576040519150601f19603f3d011682016040523d82523d6000602084013e6132ef565b606091505b509150915081801561331957508051158061331957508080602001905181019061331991906149a1565b612a5b5760405162461bcd60e51b815260206004820181905260248201527f426f72696e6745524332303a205472616e7366657246726f6d206661696c65646044820152606401610b26565b60006003600086600381111561337d5761337d614130565b600381111561338e5761338e614130565b8152602080820192909252604090810160009081206001600160a01b038089168352908452828220908716825283528181208582529092528120549150819003612ec2578115806133f1575060018560038111156133ee576133ee614130565b14155b61343d5760405162461bcd60e51b815260206004820152601e60248201527f5969656c64426f783a204e6f20746f6b656e496420666f7220455243323000006044820152606401610b26565b6001600160a01b03831615806135be5750826001600160a01b03166330fa738c6040518163ffffffff1660e01b8152600401602060405180830381865afa15801561348c573d6000803e3d6000fd5b505050506040513d601f19601f820116820180604052508101906134b091906149be565b60038111156134c1576134c1614130565b8560038111156134d3576134d3614130565b1480156135525750826001600160a01b031663f6b4dfb46040518163ffffffff1660e01b8152600401602060405180830381865afa158015613519573d6000803e3d6000fd5b505050506040513d601f19601f8201168201806040525081019061353d91906149db565b6001600160a01b0316846001600160a01b0316145b80156135be5750826001600160a01b03166317d70f7c6040518163ffffffff1660e01b8152600401602060405180830381865afa158015613597573d6000803e3d6000fd5b505050506040513d601f19601f820116820180604052508101906135bb919061492b565b82145b61360a5760405162461bcd60e51b815260206004820152601b60248201527f5969656c64426f783a205374726174656779206d69736d6174636800000000006044820152606401610b26565b600085600381111561361e5761361e614130565b14801561363257506001600160a01b038416155b8061364657506001600160a01b0384163b15155b61368a5760405162461bcd60e51b81526020600482015260156024820152742cb4b2b6322137bc1d102737ba1030903a37b5b2b760591b6044820152606401610b26565b6004805490509050600460405180608001604052808760038111156136b1576136b1614130565b81526001600160a01b0380881660208084019190915290871660408301526060909101859052825460018181018555600094855291909320825160039485029091018054939490939192849260ff191691849081111561371357613713614130565b021790555060208201518154610100600160a81b0319166101006001600160a01b039283160217825560408301516001830180546001600160a01b031916919092161790556060909101516002909101558060036000878281111561377a5761377a614130565b600381111561378b5761378b614130565b8152602080820192909252604090810160009081206001600160a01b0389811683529084528282209088168252835281812086825283528181209390935580518281529182019290925282917f6bb7ff708619ba0610cba295a58592e0451dee2622938c8755667688daf3529b910160405180910390a281846001600160a01b031686600381111561381f5761381f614130565b7f30605d4cd099421ed12ca1ba642a1ea2659f679b5cdd0ccd032586640eeaff4386856040516138509291906146f3565b60405180910390a4949350505050565b60606044825110156138a557505060408051808201909152601d81527f5472616e73616374696f6e2072657665727465642073696c656e746c79000000602082015290565b60048201915081806020019051810190610a2a919061437b565b604080516001600160a01b0383811660248084019190915283518084039091018152604490920183526020820180516001600160e01b03166370a0823160e01b179052915160009283928392918716916139199190614985565b600060405180830381855afa9150503d8060008114613954576040519150601f19603f3d011682016040523d82523d6000602084013e613959565b606091505b509150915081801561396d57506020815110155b6139b95760405162461bcd60e51b815260206004820152601d60248201527f426f72696e6745524332303a2042616c616e63654f66206661696c65640000006044820152606401610b26565b8080602001905181019061253d919061492b565b6000602082840312156139df57600080fd5b5035919050565b60005b83811015613a015781810151838201526020016139e9565b83811115611a525750506000910152565b60008151808452613a2a8160208601602086016139e6565b601f01601f19169290920160200192915050565b60208152600061136f6020830184613a12565b6001600160a01b0381168114613a6657600080fd5b50565b60008060408385031215613a7c57600080fd5b8235613a8781613a51565b946020939093013593505050565b6001600160e01b031981168114613a6657600080fd5b600060208284031215613abd57600080fd5b813561136f81613a95565b60008060008060808587031215613ade57600080fd5b8435613ae981613a51565b93506020850135613af981613a51565b93969395505050506040820135916060013590565b606081526000613b216060830186613a12565b8281036020840152613b338186613a12565b91505060ff83166040830152949350505050565b60008083601f840112613b5957600080fd5b5081356001600160401b03811115613b7057600080fd5b602083019150836020828501011115613b8857600080fd5b9250929050565b8015158114613a6657600080fd5b60008060008060608587031215613bb357600080fd5b8435613bbe81613a51565b935060208501356001600160401b03811115613bd957600080fd5b613be587828801613b47565b9094509250506040850135613bf981613b8f565b939692955090935050565b60008083601f840112613c1657600080fd5b5081356001600160401b03811115613c2d57600080fd5b6020830191508360208260051b8501011115613b8857600080fd5b60008060008060008060808789031215613c6157600080fd5b8635613c6c81613a51565b955060208701356001600160401b0380821115613c8857600080fd5b613c948a838b01613c04565b9097509550604089013594506060890135915080821115613cb457600080fd5b50613cc189828a01613c04565b979a9699509497509295939492505050565b60048110613a6657600080fd5b60008060008060808587031215613cf657600080fd5b8435613d0181613cd3565b93506020850135613d1181613a51565b92506040850135613d2181613a51565b9396929550929360600135925050565b60008060008060008060008060a0898b031215613d4d57600080fd5b8835613d5881613a51565b97506020890135613d6881613a51565b965060408901356001600160401b0380821115613d8457600080fd5b613d908c838d01613c04565b909850965060608b0135915080821115613da957600080fd5b613db58c838d01613c04565b909650945060808b0135915080821115613dce57600080fd5b50613ddb8b828c01613b47565b999c989b5096995094979396929594505050565b600080600060608486031215613e0457600080fd5b83359250602084013591506040840135613e1d81613b8f565b809150509250925092565b60008060008060408587031215613e3e57600080fd5b84356001600160401b0380821115613e5557600080fd5b613e6188838901613c04565b90965094506020870135915080821115613e7a57600080fd5b50613e8787828801613c04565b95989497509550505050565b6020808252825182820181905260009190848201906040850190845b81811015613ecb57835183529284019291840191600101613eaf565b50909695505050505050565b60008060008060808587031215613eed57600080fd5b843593506020850135613eff81613a51565b92506040850135613f0f81613b8f565b91506060850135613bf981613b8f565b600080600080600080600080610100898b031215613f3c57600080fd5b8835613f4781613cd3565b97506020890135613f5781613a51565b96506040890135613f6781613a51565b9550606089013594506080890135613f7e81613a51565b935060a0890135613f8e81613a51565b979a969950949793969295929450505060c08201359160e0013590565b600080600060608486031215613fc057600080fd5b833592506020840135613fd281613a51565b929592945050506040919091013590565b60ff81168114613a6657600080fd5b600080600080600080600080610100898b03121561400f57600080fd5b883561401a81613a51565b9750602089013561402a81613a51565b9650604089013561403a81613a51565b9550606089013594506080890135935060a0890135613f8e81613fe3565b600080600080600060a0868803121561407057600080fd5b85359450602086013561408281613a51565b9350604086013561409281613a51565b94979396509394606081013594506080013592915050565b600080604083850312156140bd57600080fd5b82356140c881613a51565b915060208301356140d881613b8f565b809150509250929050565b6000806000606084860312156140f857600080fd5b833561410381613a51565b92506020840135613fd281613a51565b60006020828403121561412557600080fd5b813561136f81613a51565b634e487b7160e01b600052602160045260246000fd5b608081016004861061416857634e487b7160e01b600052602160045260246000fd5b9481526001600160a01b0393841660208201529190921660408201526060015290565b6000806000604084860312156141a057600080fd5b83356001600160401b038111156141b657600080fd5b6141c286828701613c04565b9094509250506020840135613e1d81613b8f565b600080600080600080608087890312156141ef57600080fd5b86356141fa81613a51565b9550602087013561420a81613a51565b945060408701356001600160401b038082111561422657600080fd5b6142328a838b01613c04565b90965094506060890135915080821115613cb457600080fd5b60008060008060006060868803121561426357600080fd5b85356001600160401b038082111561427a57600080fd5b61428689838a01613b47565b9097509550602088013591508082111561429f57600080fd5b506142ac88828901613b47565b90945092505060408601356142c081613fe3565b809150509295509295909350565b600080604083850312156142e157600080fd5b82356142ec81613a51565b915060208301356140d881613a51565b60008060008060008060a0878903121561431557600080fd5b863561432081613a51565b9550602087013561433081613a51565b9450604087013593506060870135925060808701356001600160401b0381111561435957600080fd5b613cc189828a01613b47565b634e487b7160e01b600052604160045260246000fd5b60006020828403121561438d57600080fd5b81516001600160401b03808211156143a457600080fd5b818401915084601f8301126143b857600080fd5b8151818111156143ca576143ca614365565b604051601f8201601f19908116603f011681019083821181831017156143f2576143f2614365565b8160405282815287602084870101111561440b57600080fd5b61441c8360208301602088016139e6565b979650505050505050565b602080825260169082015275165a595b19109bde0e88139bdd08185c1c1c9bdd995960521b604082015260600190565b600181811c9082168061446b57607f821691505b60208210810361448b57634e487b7160e01b600052602260045260246000fd5b50919050565b8183823760009101908152919050565b81835281816020850137506000828201602090810191909152601f909101601f19169091010190565b60208152600061136c6020830184866144a1565b634e487b7160e01b600052603260045260246000fd5b634e487b7160e01b600052601160045260246000fd5b60006001820161451c5761451c6144f4565b5060010190565b60008219821115614536576145366144f4565b500190565b60008282101561454d5761454d6144f4565b500390565b60208082526018908201527708aa48662626a6a744098cadccee8d040dad2e6dac2e8c6d60431b604082015260600190565b81835260006001600160fb1b0383111561459d57600080fd5b8260051b8083602087013760009401602001938452509192915050565b6001600160a01b0389811682528816602082015260a0604082018190526000906145e7908301888a614584565b82810360608401526145fa818789614584565b9050828103608084015261460f8185876144a1565b9b9a5050505050505050505050565b60006020828403121561463057600080fd5b815161136f81613a95565b60208082526012908201527157726f6e672072657475726e2076616c756560701b604082015260600190565b60006020828403121561467957600080fd5b815161136f81613fe3565b6020808252601c908201527f4e54463a2063616c6c6572206973206e6f7420746865206f776e657200000000604082015260600190565b6001600160a01b0394851681529290931660208301526040820152606081019190915260a06080820181905260009082015260c00190565b6001600160a01b03929092168252602082015260400190565b6000808335601e1984360301811261472357600080fd5b8301803591506001600160401b0382111561473d57600080fd5b602001915036819003821315613b8857600080fd5b601f821115612be057600081815260208120601f850160051c810160208610156147795750805b601f850160051c820191505b81811015612a5b57828155600101614785565b81516001600160401b038111156147b1576147b1614365565b6147c5816147bf8454614457565b84614752565b602080601f8311600181146147fa57600084156147e25750858301515b600019600386901b1c1916600185901b178555612a5b565b600085815260208120601f198616915b828110156148295788860151825594840194600190910190840161480a565b50858210156148475787850151600019600388901b60f8161c191681555b5050505050600190811b01905550565b60808152600061486b60808301888a6144a1565b828103602084015261487e8187896144a1565b60ff959095166040840152505060600152949350505050565b6001600160a01b03878116825286166020820152604081018590526060810184905260a0608082018190526000906148d290830184866144a1565b98975050505050505050565b6020808252600c908201526b4e6f2030206164647265737360a01b604082015260600190565b604081526000614918604083018688614584565b828103602084015261441c818587614584565b60006020828403121561493d57600080fd5b5051919050565b600081600019048311821515161561495e5761495e6144f4565b500290565b60008261498057634e487b7160e01b600052601260045260246000fd5b500490565b600082516149978184602087016139e6565b9190910192915050565b6000602082840312156149b357600080fd5b815161136f81613b8f565b6000602082840312156149d057600080fd5b815161136f81613cd3565b6000602082840312156149ed57600080fd5b815161136f81613a5156fec3d58168c5ae7397731d063d5bbf3d657854427343f4c083240f7aacaa2d0f6216b85f49bf01212961345d3016c9a531894accf62eb7680f2045d79185cc0ec0a2646970667358221220a46d3b5bf981909126c7f8dd0a5b85477379601efcde611535e77adc548cf55d64736f6c634300080f0033",
  "devdoc": {
    "author": "BoringCrypto, Keno",
    "kind": "dev",
    "methods": {
      "amountOf(address,uint256)": {
        "details": "Helper function represent the balance in `token` amount for a `user` for an `asset`.",
        "params": {
          "assetId": "The id of the asset.",
          "user": "The `user` to get the amount for."
        }
      },
      "batch(bytes[],bool)": {
        "params": {
          "calls": "An array of inputs for each call.",
          "revertOnFail": "If True then reverts after a failed call and stops doing further calls."
        }
      },
      "burn(uint256,address,uint256)": {
        "params": {
          "amount": "The amount of tokens to burn.",
          "tokenId": "The token to be burned."
        }
      },
      "claimOwnership(uint256)": {
        "params": {
          "tokenId": "The `tokenId` of the token that ownership is claimed for."
        }
      },
      "clonesOfCount(address)": {
        "params": {
          "masterContract": "The address of the master contract."
        },
        "returns": {
          "cloneCount": "total number of clones for the masterContract."
        }
      },
      "createToken(string,string,uint8)": {
        "params": {
          "decimals": "The number of decimals of the token (this is just for display purposes). Should be set to 18 in normal cases.",
          "name": "The name of the token.",
          "symbol": "The symbol of the token."
        }
      },
      "deploy(address,bytes,bool)": {
        "params": {
          "data": "Additional abi encoded calldata that is passed to the new clone via `IMasterContract.init`.",
          "masterContract": "The address of the contract to clone.",
          "useCreate2": "Creates the clone by using the CREATE2 opcode, in this case `data` will be used as salt."
        },
        "returns": {
          "cloneAddress": "Address of the created clone contract."
        }
      },
      "depositAsset(uint256,address,address,uint256,uint256)": {
        "params": {
          "amount": "Token amount in native representation to deposit.",
          "assetId": "The id of the asset.",
          "from": "which account to pull the tokens.",
          "share": "Token amount represented in shares to deposit. Takes precedence over `amount`.",
          "to": "which account to push the tokens."
        },
        "returns": {
          "amountOut": "The amount deposited.",
          "shareOut": "The deposited amount repesented in shares."
        }
      },
      "mint(uint256,address,uint256)": {
        "params": {
          "amount": "The amount of tokens to mint.",
          "to": "The account to transfer the minted tokens to.",
          "tokenId": "The token to be minted."
        }
      },
      "toAmount(uint256,uint256,bool)": {
        "details": "Helper function represent shares back into the `token` amount.",
        "params": {
          "assetId": "The id of the asset.",
          "roundUp": "If the result should be rounded up.",
          "share": "The amount of shares."
        },
        "returns": {
          "amount": "The share amount back into native representation."
        }
      },
      "toShare(uint256,uint256,bool)": {
        "details": "Helper function to represent an `amount` of `token` in shares.",
        "params": {
          "amount": "The `token` amount.",
          "assetId": "The id of the asset.",
          "roundUp": "If the result `share` should be rounded up."
        },
        "returns": {
          "share": "The token amount represented in shares."
        }
      },
      "transfer(address,address,uint256,uint256)": {
        "params": {
          "assetId": "The id of the asset.",
          "from": "which user to pull the tokens.",
          "share": "The amount of `token` in shares.",
          "to": "which user to push the tokens."
        }
      },
      "transferMultiple(address,address[],uint256,uint256[])": {
        "params": {
          "assetId": "The id of the asset.",
          "from": "which user to pull the tokens.",
          "shares": "The amount of `token` in shares for each receiver in `tos`.",
          "tos": "The receivers of the tokens."
        }
      },
      "transferOwnership(uint256,address,bool,bool)": {
        "params": {
          "direct": "True if `newTokenOwner` should be set immediately. False if `newTokenOwner` needs to use `claimOwnership`.",
          "newTokenOwner": "Address of the new tokenOwner.",
          "renounce": "Allows the `newTokenOwner` to be `address(0)` if `direct` and `renounce` is True. Has no effect otherwise.",
          "tokenId": "The `tokenId` of the token that ownership whose ownership will be transferred/renounced."
        }
      },
      "withdraw(uint256,address,address,uint256,uint256)": {
        "params": {
          "amount": "of tokens. Either one of `amount` or `share` needs to be supplied.",
          "assetId": "The id of the asset.",
          "from": "which user to pull the tokens.",
          "share": "Like above, but `share` takes precedence over `amount`.",
          "to": "which user to push the tokens."
        }
      }
    },
    "title": "YieldBox",
    "version": 1
  },
  "userdoc": {
    "kind": "user",
    "methods": {
      "batch(bytes[],bool)": {
        "notice": "Allows batched call to self (this contract)."
      },
      "burn(uint256,address,uint256)": {
        "notice": "Burns tokens. Only the holder of tokens can burn them."
      },
      "claimOwnership(uint256)": {
        "notice": "Needs to be called by `pendingTokenOwner` to claim ownership."
      },
      "clonesOf(address,uint256)": {
        "notice": "Mapping from masterContract to an array of all clones On mainnet events can be used to get this list, but events aren't always easy to retrieve and barely work on sidechains. While this adds gas, it makes enumerating all clones much easier."
      },
      "clonesOfCount(address)": {
        "notice": "Returns the count of clones that exists for a specific masterContract"
      },
      "createToken(string,string,uint8)": {
        "notice": "Create a new native token. This will be an ERC1155 token. If later it's needed as an ERC20 token it can be wrapped into an ERC20 token. Native support for ERC1155 tokens is growing though."
      },
      "deploy(address,bytes,bool)": {
        "notice": "Deploys a given master Contract as a clone. Any ETH transferred with this call is forwarded to the new clone. Emits `LogDeploy`."
      },
      "depositAsset(uint256,address,address,uint256,uint256)": {
        "notice": "Deposit an amount of `token` represented in either `amount` or `share`."
      },
      "masterContractOf(address)": {
        "notice": "Mapping from clone contracts to their masterContract."
      },
      "mint(uint256,address,uint256)": {
        "notice": "The `tokenOwner` can mint tokens. If a fixed supply is needed, the `tokenOwner` should mint the totalSupply and renounce ownership."
      },
      "permitToken(address,address,address,uint256,uint256,uint8,bytes32,bytes32)": {
        "notice": "Call wrapper that performs `ERC20.permit` on `token`. Lookup `IERC20.permit`."
      },
      "transfer(address,address,uint256,uint256)": {
        "notice": "Transfer shares from a user account to another one."
      },
      "transferMultiple(address,address[],uint256,uint256[])": {
        "notice": "Transfer shares from a user account to multiple other ones."
      },
      "transferOwnership(uint256,address,bool,bool)": {
        "notice": "Transfers ownership to `newTokenOwner`. Either directly or claimable by the new pending tokenOwner. Can only be invoked by the current `tokenOwner`."
      },
      "withdraw(uint256,address,address,uint256,uint256)": {
        "notice": "Withdraws an amount of `token` from a user account."
      }
    },
    "notice": "The YieldBox is a vault for tokens. The stored tokens can assigned to strategies. Yield from this will go to the token depositors. Any funds transfered directly onto the YieldBox will be lost, use the deposit function instead.",
    "version": 1
  },
  "storageLayout": {
    "storage": [
      {
        "astId": 2985,
        "contract": "contracts/bar/YieldBox.sol:YieldBox",
        "label": "isApprovedForAll",
        "offset": 0,
        "slot": "0",
        "type": "t_mapping(t_address,t_mapping(t_address,t_bool))"
      },
      {
        "astId": 2992,
        "contract": "contracts/bar/YieldBox.sol:YieldBox",
        "label": "balanceOf",
        "offset": 0,
        "slot": "1",
        "type": "t_mapping(t_address,t_mapping(t_uint256,t_uint256))"
      },
      {
        "astId": 2996,
        "contract": "contracts/bar/YieldBox.sol:YieldBox",
        "label": "totalSupply",
        "offset": 0,
        "slot": "2",
        "type": "t_mapping(t_uint256,t_uint256)"
      },
      {
        "astId": 2132,
        "contract": "contracts/bar/YieldBox.sol:YieldBox",
        "label": "ids",
        "offset": 0,
        "slot": "3",
        "type": "t_mapping(t_enum(TokenType)5664,t_mapping(t_address,t_mapping(t_contract(IStrategy)5740,t_mapping(t_uint256,t_uint256))))"
      },
      {
        "astId": 2136,
        "contract": "contracts/bar/YieldBox.sol:YieldBox",
        "label": "assets",
        "offset": 0,
        "slot": "4",
        "type": "t_array(t_struct(Asset)2101_storage)dyn_storage"
      },
      {
        "astId": 131,
        "contract": "contracts/bar/YieldBox.sol:YieldBox",
        "label": "masterContractOf",
        "offset": 0,
        "slot": "5",
        "type": "t_mapping(t_address,t_address)"
      },
      {
        "astId": 137,
        "contract": "contracts/bar/YieldBox.sol:YieldBox",
        "label": "clonesOf",
        "offset": 0,
        "slot": "6",
        "type": "t_mapping(t_address,t_array(t_address)dyn_storage)"
      },
      {
        "astId": 3536,
        "contract": "contracts/bar/YieldBox.sol:YieldBox",
        "label": "nativeTokens",
        "offset": 0,
        "slot": "7",
        "type": "t_mapping(t_uint256,t_struct(NativeToken)3526_storage)"
      },
      {
        "astId": 3540,
        "contract": "contracts/bar/YieldBox.sol:YieldBox",
        "label": "tokenOwner",
        "offset": 0,
        "slot": "8",
        "type": "t_mapping(t_uint256,t_address)"
      },
      {
        "astId": 3544,
        "contract": "contracts/bar/YieldBox.sol:YieldBox",
        "label": "pendingTokenOwner",
        "offset": 0,
        "slot": "9",
        "type": "t_mapping(t_uint256,t_address)"
      }
    ],
    "types": {
      "t_address": {
        "encoding": "inplace",
        "label": "address",
        "numberOfBytes": "20"
      },
      "t_array(t_address)dyn_storage": {
        "base": "t_address",
        "encoding": "dynamic_array",
        "label": "address[]",
        "numberOfBytes": "32"
      },
      "t_array(t_struct(Asset)2101_storage)dyn_storage": {
        "base": "t_struct(Asset)2101_storage",
        "encoding": "dynamic_array",
        "label": "struct Asset[]",
        "numberOfBytes": "32"
      },
      "t_bool": {
        "encoding": "inplace",
        "label": "bool",
        "numberOfBytes": "1"
      },
      "t_contract(IStrategy)5740": {
        "encoding": "inplace",
        "label": "contract IStrategy",
        "numberOfBytes": "20"
      },
      "t_enum(TokenType)5664": {
        "encoding": "inplace",
        "label": "enum TokenType",
        "numberOfBytes": "1"
      },
      "t_mapping(t_address,t_address)": {
        "encoding": "mapping",
        "key": "t_address",
        "label": "mapping(address => address)",
        "numberOfBytes": "32",
        "value": "t_address"
      },
      "t_mapping(t_address,t_array(t_address)dyn_storage)": {
        "encoding": "mapping",
        "key": "t_address",
        "label": "mapping(address => address[])",
        "numberOfBytes": "32",
        "value": "t_array(t_address)dyn_storage"
      },
      "t_mapping(t_address,t_bool)": {
        "encoding": "mapping",
        "key": "t_address",
        "label": "mapping(address => bool)",
        "numberOfBytes": "32",
        "value": "t_bool"
      },
      "t_mapping(t_address,t_mapping(t_address,t_bool))": {
        "encoding": "mapping",
        "key": "t_address",
        "label": "mapping(address => mapping(address => bool))",
        "numberOfBytes": "32",
        "value": "t_mapping(t_address,t_bool)"
      },
      "t_mapping(t_address,t_mapping(t_contract(IStrategy)5740,t_mapping(t_uint256,t_uint256)))": {
        "encoding": "mapping",
        "key": "t_address",
        "label": "mapping(address => mapping(contract IStrategy => mapping(uint256 => uint256)))",
        "numberOfBytes": "32",
        "value": "t_mapping(t_contract(IStrategy)5740,t_mapping(t_uint256,t_uint256))"
      },
      "t_mapping(t_address,t_mapping(t_uint256,t_uint256))": {
        "encoding": "mapping",
        "key": "t_address",
        "label": "mapping(address => mapping(uint256 => uint256))",
        "numberOfBytes": "32",
        "value": "t_mapping(t_uint256,t_uint256)"
      },
      "t_mapping(t_contract(IStrategy)5740,t_mapping(t_uint256,t_uint256))": {
        "encoding": "mapping",
        "key": "t_contract(IStrategy)5740",
        "label": "mapping(contract IStrategy => mapping(uint256 => uint256))",
        "numberOfBytes": "32",
        "value": "t_mapping(t_uint256,t_uint256)"
      },
      "t_mapping(t_enum(TokenType)5664,t_mapping(t_address,t_mapping(t_contract(IStrategy)5740,t_mapping(t_uint256,t_uint256))))": {
        "encoding": "mapping",
        "key": "t_enum(TokenType)5664",
        "label": "mapping(enum TokenType => mapping(address => mapping(contract IStrategy => mapping(uint256 => uint256))))",
        "numberOfBytes": "32",
        "value": "t_mapping(t_address,t_mapping(t_contract(IStrategy)5740,t_mapping(t_uint256,t_uint256)))"
      },
      "t_mapping(t_uint256,t_address)": {
        "encoding": "mapping",
        "key": "t_uint256",
        "label": "mapping(uint256 => address)",
        "numberOfBytes": "32",
        "value": "t_address"
      },
      "t_mapping(t_uint256,t_struct(NativeToken)3526_storage)": {
        "encoding": "mapping",
        "key": "t_uint256",
        "label": "mapping(uint256 => struct NativeToken)",
        "numberOfBytes": "32",
        "value": "t_struct(NativeToken)3526_storage"
      },
      "t_mapping(t_uint256,t_uint256)": {
        "encoding": "mapping",
        "key": "t_uint256",
        "label": "mapping(uint256 => uint256)",
        "numberOfBytes": "32",
        "value": "t_uint256"
      },
      "t_string_storage": {
        "encoding": "bytes",
        "label": "string",
        "numberOfBytes": "32"
      },
      "t_struct(Asset)2101_storage": {
        "encoding": "inplace",
        "label": "struct Asset",
        "members": [
          {
            "astId": 2093,
            "contract": "contracts/bar/YieldBox.sol:YieldBox",
            "label": "tokenType",
            "offset": 0,
            "slot": "0",
            "type": "t_enum(TokenType)5664"
          },
          {
            "astId": 2095,
            "contract": "contracts/bar/YieldBox.sol:YieldBox",
            "label": "contractAddress",
            "offset": 1,
            "slot": "0",
            "type": "t_address"
          },
          {
            "astId": 2098,
            "contract": "contracts/bar/YieldBox.sol:YieldBox",
            "label": "strategy",
            "offset": 0,
            "slot": "1",
            "type": "t_contract(IStrategy)5740"
          },
          {
            "astId": 2100,
            "contract": "contracts/bar/YieldBox.sol:YieldBox",
            "label": "tokenId",
            "offset": 0,
            "slot": "2",
            "type": "t_uint256"
          }
        ],
        "numberOfBytes": "96"
      },
      "t_struct(NativeToken)3526_storage": {
        "encoding": "inplace",
        "label": "struct NativeToken",
        "members": [
          {
            "astId": 3521,
            "contract": "contracts/bar/YieldBox.sol:YieldBox",
            "label": "name",
            "offset": 0,
            "slot": "0",
            "type": "t_string_storage"
          },
          {
            "astId": 3523,
            "contract": "contracts/bar/YieldBox.sol:YieldBox",
            "label": "symbol",
            "offset": 0,
            "slot": "1",
            "type": "t_string_storage"
          },
          {
            "astId": 3525,
            "contract": "contracts/bar/YieldBox.sol:YieldBox",
            "label": "decimals",
            "offset": 0,
            "slot": "2",
            "type": "t_uint8"
          }
        ],
        "numberOfBytes": "96"
      },
      "t_uint256": {
        "encoding": "inplace",
        "label": "uint256",
        "numberOfBytes": "32"
      },
      "t_uint8": {
        "encoding": "inplace",
        "label": "uint8",
        "numberOfBytes": "1"
      }
    }
  }
}