{
  "address": "0x349fF6C1d5Aa7384498643d1DF7a305984d40F77",
  "abi": [
    {
      "inputs": [
        {
          "internalType": "contract CurveSwapper",
          "name": "curveSwapper_",
          "type": "address"
        },
        {
          "internalType": "uint256",
          "name": "curvePoolAssetCount_",
          "type": "uint256"
        }
      ],
      "stateMutability": "nonpayable",
      "type": "constructor"
    },
    {
      "anonymous": false,
      "inputs": [
        {
          "indexed": true,
          "internalType": "address",
          "name": "_old",
          "type": "address"
        },
        {
          "indexed": true,
          "internalType": "address",
          "name": "_new",
          "type": "address"
        }
      ],
      "name": "CurveSwapperUpdated",
      "type": "event"
    },
    {
      "anonymous": false,
      "inputs": [
        {
          "indexed": true,
          "internalType": "address",
          "name": "previousOwner",
          "type": "address"
        },
        {
          "indexed": true,
          "internalType": "address",
          "name": "newOwner",
          "type": "address"
        }
      ],
      "name": "OwnershipTransferred",
      "type": "event"
    },
    {
      "inputs": [],
      "name": "claimOwnership",
      "outputs": [],
      "stateMutability": "nonpayable",
      "type": "function"
    },
    {
      "inputs": [],
      "name": "curveSwapper",
      "outputs": [
        {
          "internalType": "contract CurveSwapper",
          "name": "",
          "type": "address"
        }
      ],
      "stateMutability": "view",
      "type": "function"
    },
    {
      "inputs": [
        {
          "internalType": "contract Mixologist",
          "name": "mixologist",
          "type": "address"
        },
        {
          "internalType": "uint256",
          "name": "tokenInId",
          "type": "uint256"
        },
        {
          "internalType": "uint256",
          "name": "amountOut",
          "type": "uint256"
        },
        {
          "internalType": "bytes",
          "name": "",
          "type": "bytes"
        }
      ],
      "name": "getInputAmount",
      "outputs": [
        {
          "internalType": "uint256",
          "name": "",
          "type": "uint256"
        }
      ],
      "stateMutability": "view",
      "type": "function"
    },
    {
      "inputs": [
        {
          "internalType": "contract Mixologist",
          "name": "mixologist",
          "type": "address"
        },
        {
          "internalType": "uint256",
          "name": "tokenInId",
          "type": "uint256"
        },
        {
          "internalType": "uint256",
          "name": "amountIn",
          "type": "uint256"
        },
        {
          "internalType": "bytes",
          "name": "",
          "type": "bytes"
        }
      ],
      "name": "getOutputAmount",
      "outputs": [
        {
          "internalType": "uint256",
          "name": "",
          "type": "uint256"
        }
      ],
      "stateMutability": "view",
      "type": "function"
    },
    {
      "inputs": [],
      "name": "name",
      "outputs": [
        {
          "internalType": "string",
          "name": "",
          "type": "string"
        }
      ],
      "stateMutability": "pure",
      "type": "function"
    },
    {
      "inputs": [],
      "name": "owner",
      "outputs": [
        {
          "internalType": "address",
          "name": "",
          "type": "address"
        }
      ],
      "stateMutability": "view",
      "type": "function"
    },
    {
      "inputs": [],
      "name": "pendingOwner",
      "outputs": [
        {
          "internalType": "address",
          "name": "",
          "type": "address"
        }
      ],
      "stateMutability": "view",
      "type": "function"
    },
    {
      "inputs": [
        {
          "internalType": "contract CurveSwapper",
          "name": "_swapper",
          "type": "address"
        }
      ],
      "name": "setCurveSwapper",
      "outputs": [],
      "stateMutability": "nonpayable",
      "type": "function"
    },
    {
      "inputs": [
        {
          "internalType": "contract Mixologist",
          "name": "mixologist",
          "type": "address"
        },
        {
          "internalType": "uint256",
          "name": "tokenInId",
          "type": "uint256"
        },
        {
          "internalType": "uint256",
          "name": "amountIn",
          "type": "uint256"
        },
        {
          "internalType": "bytes",
          "name": "data",
          "type": "bytes"
        }
      ],
      "name": "swap",
      "outputs": [
        {
          "internalType": "uint256",
          "name": "",
          "type": "uint256"
        }
      ],
      "stateMutability": "nonpayable",
      "type": "function"
    },
    {
      "inputs": [
        {
          "internalType": "address",
          "name": "newOwner",
          "type": "address"
        },
        {
          "internalType": "bool",
          "name": "direct",
          "type": "bool"
        },
        {
          "internalType": "bool",
          "name": "renounce",
          "type": "bool"
        }
      ],
      "name": "transferOwnership",
      "outputs": [],
      "stateMutability": "nonpayable",
      "type": "function"
    }
  ],
  "transactionHash": "0x0e96414e30c78f6f02a66c231e3726dc752438bc3acf4ee6ce6e9e4d72abd976",
  "args": [
    "0x8C8F000549eb5799D6E0c9686CBc8A35AbBf40f5",
    4
  ],
  "numDeployments": 1,
  "solcInputHash": "9b92c1c38cedf0b33e3c9b05aa75c119",
  "bytecode": "0x608060405234801561001057600080fd5b50604051611bca380380611bca83398101604081905261002f91610097565b600080546001600160a01b0319163390811782556040519091907f8be0079c531659141344cd1fd0a4f28419497f9722a3daafe3b4186f6b6457e0908290a3600280546001600160a01b0319166001600160a01b0393909316929092179091556003556100d1565b600080604083850312156100aa57600080fd5b82516001600160a01b03811681146100c157600080fd5b6020939093015192949293505050565b611aea806100e06000396000f3fe608060405234801561001057600080fd5b50600436106100be5760003560e01c80638da5cb5b11610076578063e30c39781161005b578063e30c39781461019a578063e91f9961146101ad578063fef744fa146101c057600080fd5b80638da5cb5b1461015c578063b691d78c1461018757600080fd5b80634e71e0c8116100a75780634e71e0c8146101205780635810e7ec146101285780635dd82b361461013b57600080fd5b806306fdde03146100c3578063078dfbe71461010b575b600080fd5b604080518082018252601a81527f737461626c65202d3e20555344302028334372762b5553443029000000000000602082015290516101029190611780565b60405180910390f35b61011e610119366004611802565b6101d3565b005b61011e610339565b61011e610136366004611847565b610403565b61014e61014936600461186b565b6104c6565b604051908152602001610102565b60005461016f906001600160a01b031681565b6040516001600160a01b039091168152602001610102565b61014e61019536600461186b565b610778565b60015461016f906001600160a01b031681565b60025461016f906001600160a01b031681565b61014e6101ce36600461186b565b610dbe565b6000546001600160a01b031633146102325760405162461bcd60e51b815260206004820181905260248201527f4f776e61626c653a2063616c6c6572206973206e6f7420746865206f776e657260448201526064015b60405180910390fd5b811561030a576001600160a01b03831615158061024c5750805b6102985760405162461bcd60e51b815260206004820152601560248201527f4f776e61626c653a207a65726f206164647265737300000000000000000000006044820152606401610229565b600080546040516001600160a01b03808716939216917f8be0079c531659141344cd1fd0a4f28419497f9722a3daafe3b4186f6b6457e091a3600080546001600160a01b03851673ffffffffffffffffffffffffffffffffffffffff1991821617909155600180549091169055505050565b600180546001600160a01b03851673ffffffffffffffffffffffffffffffffffffffff19909116179055505050565b6001546001600160a01b03163381146103945760405162461bcd60e51b815260206004820181905260248201527f4f776e61626c653a2063616c6c657220213d2070656e64696e67206f776e65726044820152606401610229565b600080546040516001600160a01b03808516939216917f8be0079c531659141344cd1fd0a4f28419497f9722a3daafe3b4186f6b6457e091a3600080546001600160a01b0390921673ffffffffffffffffffffffffffffffffffffffff19928316179055600180549091169055565b6000546001600160a01b0316331461045d5760405162461bcd60e51b815260206004820181905260248201527f4f776e61626c653a2063616c6c6572206973206e6f7420746865206f776e65726044820152606401610229565b6002546040516001600160a01b038084169216907faa9eb2cf6e6a7bce28901c01eb97556feb7824a5a9b13df2c67580509a62633f90600090a36002805473ffffffffffffffffffffffffffffffffffffffff19166001600160a01b0392909216919091179055565b6000806001600160a01b0316866001600160a01b0316634a50ed276040518163ffffffff1660e01b815260040160206040518083038186803b15801561050b57600080fd5b505afa15801561051f573d6000803e3d6000fd5b505050506040513d601f19601f820116820180604052508101906105439190611901565b6001600160a01b0316632324248e6040518163ffffffff1660e01b815260040160206040518083038186803b15801561057b57600080fd5b505afa15801561058f573d6000803e3d6000fd5b505050506040513d601f19601f820116820180604052508101906105b39190611901565b6001600160a01b031614156105f95760405162461bcd60e51b815260206004820152600c60248201526b1554d10c081b9bdd081cd95d60a21b6044820152606401610229565b6000866001600160a01b0316634a50ed276040518163ffffffff1660e01b815260040160206040518083038186803b15801561063457600080fd5b505afa158015610648573d6000803e3d6000fd5b505050506040513d601f19601f8201168201806040525081019061066c9190611901565b6001600160a01b03166386c8e21d6040518163ffffffff1660e01b815260040160206040518083038186803b1580156106a457600080fd5b505afa1580156106b8573d6000803e3d6000fd5b505050506040513d601f19601f820116820180604052508101906106dc919061191e565b9050808614156106ef578491505061076f565b61076b876001600160a01b031663de4065776040518163ffffffff1660e01b815260040160206040518083038186803b15801561072b57600080fd5b505afa15801561073f573d6000803e3d6000fd5b505050506040513d601f19601f820116820180604052508101906107639190611901565b87838861105f565b9150505b95945050505050565b6000806001600160a01b0316866001600160a01b0316634a50ed276040518163ffffffff1660e01b815260040160206040518083038186803b1580156107bd57600080fd5b505afa1580156107d1573d6000803e3d6000fd5b505050506040513d601f19601f820116820180604052508101906107f59190611901565b6001600160a01b0316632324248e6040518163ffffffff1660e01b815260040160206040518083038186803b15801561082d57600080fd5b505afa158015610841573d6000803e3d6000fd5b505050506040513d601f19601f820116820180604052508101906108659190611901565b6001600160a01b031614156108ab5760405162461bcd60e51b815260206004820152600c60248201526b1554d10c081b9bdd081cd95d60a21b6044820152606401610229565b6000866001600160a01b031663de4065776040518163ffffffff1660e01b815260040160206040518083038186803b1580156108e657600080fd5b505afa1580156108fa573d6000803e3d6000fd5b505050506040513d601f19601f8201168201806040525081019061091e9190611901565b90506000876001600160a01b031663c23ea21f6040518163ffffffff1660e01b815260040160206040518083038186803b15801561095b57600080fd5b505afa15801561096f573d6000803e3d6000fd5b505050506040513d601f19601f820116820180604052508101906109939190611901565b90506000886001600160a01b0316634a50ed276040518163ffffffff1660e01b815260040160206040518083038186803b1580156109d057600080fd5b505afa1580156109e4573d6000803e3d6000fd5b505050506040513d601f19601f82011682018060405250810190610a089190611901565b6001600160a01b03166386c8e21d6040518163ffffffff1660e01b815260040160206040518083038186803b158015610a4057600080fd5b505afa158015610a54573d6000803e3d6000fd5b505050506040513d601f19601f82011682018060405250810190610a78919061191e565b9050336001600160a01b03831614610ad25760405162461bcd60e51b815260206004820152600760248201527f6f6e6c79204c51000000000000000000000000000000000000000000000000006044820152606401610229565b80881415610bfd57604051638eb22cdd60e01b81526004810189905260248101889052600060448201526001600160a01b03841690630411b25290309085908c908590638eb22cdd9060640160206040518083038186803b158015610b3657600080fd5b505afa158015610b4a573d6000803e3d6000fd5b505050506040513d601f19601f82011682018060405250810190610b6e919061191e565b6040517fffffffff0000000000000000000000000000000000000000000000000000000060e087901b1681526001600160a01b03948516600482015293909216602484015260448301526064820152608401600060405180830381600087803b158015610bda57600080fd5b505af1158015610bee573d6000803e3d6000fd5b5050505086935050505061076f565b60008515610c1457610c1186880188611937565b90505b600254604051638eb22cdd60e01b8152600481018b9052602481018a9052600060448201526001600160a01b0386811692630411b252923092909116908d908590638eb22cdd9060640160206040518083038186803b158015610c7657600080fd5b505afa158015610c8a573d6000803e3d6000fd5b505050506040513d601f19601f82011682018060405250810190610cae919061191e565b6040517fffffffff0000000000000000000000000000000000000000000000000000000060e087901b1681526001600160a01b03948516600482015293909216602484015260448301526064820152608401600060405180830381600087803b158015610d1a57600080fd5b505af1158015610d2e573d6000803e3d6000fd5b50505050610db08a6001600160a01b031663de4065776040518163ffffffff1660e01b815260040160206040518083038186803b158015610d6e57600080fd5b505afa158015610d82573d6000803e3d6000fd5b505050506040513d601f19601f82011682018060405250810190610da69190611901565b8a848b8588611315565b9a9950505050505050505050565b6000806001600160a01b0316866001600160a01b0316634a50ed276040518163ffffffff1660e01b815260040160206040518083038186803b158015610e0357600080fd5b505afa158015610e17573d6000803e3d6000fd5b505050506040513d601f19601f82011682018060405250810190610e3b9190611901565b6001600160a01b0316632324248e6040518163ffffffff1660e01b815260040160206040518083038186803b158015610e7357600080fd5b505afa158015610e87573d6000803e3d6000fd5b505050506040513d601f19601f82011682018060405250810190610eab9190611901565b6001600160a01b03161415610ef15760405162461bcd60e51b815260206004820152600c60248201526b1554d10c081b9bdd081cd95d60a21b6044820152606401610229565b6000866001600160a01b0316634a50ed276040518163ffffffff1660e01b815260040160206040518083038186803b158015610f2c57600080fd5b505afa158015610f40573d6000803e3d6000fd5b505050506040513d601f19601f82011682018060405250810190610f649190611901565b6001600160a01b03166386c8e21d6040518163ffffffff1660e01b815260040160206040518083038186803b158015610f9c57600080fd5b505afa158015610fb0573d6000803e3d6000fd5b505050506040513d601f19601f82011682018060405250810190610fd4919061191e565b905080861415610fe7578491505061076f565b61076b876001600160a01b031663de4065776040518163ffffffff1660e01b815260040160206040518083038186803b15801561102357600080fd5b505afa158015611037573d6000803e3d6000fd5b505050506040513d601f19601f8201168201806040525081019061105b9190611901565b8288885b604051630cf35bdd60e41b81526004810184905260009081906001600160a01b0387169063cf35bdd09060240160806040518083038186803b1580156110a457600080fd5b505afa1580156110b8573d6000803e3d6000fd5b505050506040513d601f19601f820116820180604052508101906110dc9190611950565b5050604051630cf35bdd60e41b815260048101879052909250600091506001600160a01b0388169063cf35bdd09060240160806040518083038186803b15801561112557600080fd5b505afa158015611139573d6000803e3d6000fd5b505050506040513d601f19601f8201168201806040525081019061115d9190611950565b5050915050600061116d836115d1565b9050600061117a836115d1565b604080516002808252606082018352929350600092909160208301908036833701905050905082816000815181106111b4576111b46119a7565b60200260200101818152505081816001815181106111d4576111d46119a7565b6020908102919091010152604051638eb22cdd60e01b8152600481018a905260248101889052600060448201819052906001600160a01b038c1690638eb22cdd9060640160206040518083038186803b15801561123057600080fd5b505afa158015611244573d6000803e3d6000fd5b505050506040513d601f19601f82011682018060405250810190611268919061191e565b6002546040517f25e0eb7f0000000000000000000000000000000000000000000000000000000081529192506001600160a01b0316906325e0eb7f906112b6908d90869086906004016119f8565b60206040518083038186803b1580156112ce57600080fd5b505afa1580156112e2573d6000803e3d6000fd5b505050506040513d601f19601f82011682018060405250810190611306919061191e565b9b9a5050505050505050505050565b604051630cf35bdd60e41b81526004810186905260009081906001600160a01b0389169063cf35bdd09060240160806040518083038186803b15801561135a57600080fd5b505afa15801561136e573d6000803e3d6000fd5b505050506040513d601f19601f820116820180604052508101906113929190611950565b5050604051630cf35bdd60e41b815260048101899052909250600091506001600160a01b038a169063cf35bdd09060240160806040518083038186803b1580156113db57600080fd5b505afa1580156113ef573d6000803e3d6000fd5b505050506040513d601f19601f820116820180604052508101906114139190611950565b50509150506000611423836115d1565b90506000611430836115d1565b6040805160028082526060820183529293506000929091602083019080368337019050509050828160008151811061146a5761146a6119a7565b602002602001018181525050818160018151811061148a5761148a6119a7565b6020908102919091010152604051638eb22cdd60e01b8152600481018c9052602481018a9052600060448201819052906001600160a01b038e1690638eb22cdd9060640160206040518083038186803b1580156114e657600080fd5b505afa1580156114fa573d6000803e3d6000fd5b505050506040513d601f19601f8201168201806040525081019061151e919061191e565b90506000600260009054906101000a90046001600160a01b03166001600160a01b03166372834ee88e8e86868f8f6040518763ffffffff1660e01b815260040161156d96959493929190611a21565b6040805180830381600087803b15801561158657600080fd5b505af115801561159a573d6000803e3d6000fd5b505050506040513d601f19601f820116820180604052508101906115be9190611a67565b509e9d5050505050505050505050505050565b6000600019815b60035481101561172857600254604080517f218751b200000000000000000000000000000000000000000000000000000000815290516000926001600160a01b03169163218751b2916004808301926020929190829003018186803b15801561164057600080fd5b505afa158015611654573d6000803e3d6000fd5b505050506040513d601f19601f820116820180604052508101906116789190611901565b6001600160a01b031663c6610657836040518263ffffffff1660e01b81526004016116a591815260200190565b60206040518083038186803b1580156116bd57600080fd5b505afa1580156116d1573d6000803e3d6000fd5b505050506040513d601f19601f820116820180604052508101906116f59190611901565b9050846001600160a01b0316816001600160a01b03161415611715578192505b508061172081611a8b565b9150506115d8565b50600019811361177a5760405162461bcd60e51b815260206004820152600f60248201527f6173736574206e6f7420666f756e6400000000000000000000000000000000006044820152606401610229565b92915050565b600060208083528351808285015260005b818110156117ad57858101830151858201604001528201611791565b818111156117bf576000604083870101525b50601f01601f1916929092016040019392505050565b6001600160a01b03811681146117ea57600080fd5b50565b803580151581146117fd57600080fd5b919050565b60008060006060848603121561181757600080fd5b8335611822816117d5565b9250611830602085016117ed565b915061183e604085016117ed565b90509250925092565b60006020828403121561185957600080fd5b8135611864816117d5565b9392505050565b60008060008060006080868803121561188357600080fd5b853561188e816117d5565b94506020860135935060408601359250606086013567ffffffffffffffff808211156118b957600080fd5b818801915088601f8301126118cd57600080fd5b8135818111156118dc57600080fd5b8960208285010111156118ee57600080fd5b9699959850939650602001949392505050565b60006020828403121561191357600080fd5b8151611864816117d5565b60006020828403121561193057600080fd5b5051919050565b60006020828403121561194957600080fd5b5035919050565b6000806000806080858703121561196657600080fd5b84516005811061197557600080fd5b6020860151909450611986816117d5565b6040860151909350611997816117d5565b6060959095015193969295505050565b634e487b7160e01b600052603260045260246000fd5b600081518084526020808501945080840160005b838110156119ed578151875295820195908201906001016119d1565b509495945050505050565b838152606060208201526000611a1160608301856119bd565b9050826040830152949350505050565b86815285602082015260c060408201526000611a4060c08301876119bd565b60608301959095525060808101929092526001600160a01b031660a0909101529392505050565b60008060408385031215611a7a57600080fd5b505080516020909101519092909150565b6000600019821415611aad57634e487b7160e01b600052601160045260246000fd5b506001019056fea26469706673582212208542586709edfd474ace1147f4c8ad2746c9b455d311e5f13dd02c3f3e773d7b64736f6c63430008090033",
  "devdoc": {
    "details": "Performs a swap operation between stable and USD0 through 3CRV+USD0 pool",
    "kind": "dev",
    "methods": {
      "getInputAmount(address,uint256,uint256,bytes)": {
        "params": {
          "amountOut": "Token out amount",
          "tokenInId": "Token in asset id"
        }
      },
      "getOutputAmount(address,uint256,uint256,bytes)": {
        "params": {
          "amountIn": "Stablecoin amount"
        }
      },
      "setCurveSwapper(address)": {
        "details": "used for USD0 to WETH swap",
        "params": {
          "_swapper": "The curve pool swapper address"
        }
      },
      "swap(address,uint256,uint256,bytes)": {
        "params": {
          "amountIn": "Stablecoin amount",
          "data": "extra data used for the swap operation",
          "tokenInId": "Stablecoin asset id"
        }
      },
      "transferOwnership(address,bool,bool)": {
        "params": {
          "direct": "True if `newOwner` should be set immediately. False if `newOwner` needs to use `claimOwnership`.",
          "newOwner": "Address of the new owner.",
          "renounce": "Allows the `newOwner` to be `address(0)` if `direct` and `renounce` is True. Has no effect otherwise."
        }
      }
    },
    "version": 1
  },
  "userdoc": {
    "kind": "user",
    "methods": {
      "claimOwnership()": {
        "notice": "Needs to be called by `pendingOwner` to claim ownership."
      },
      "curveSwapper()": {
        "notice": "3Crv+USD0 swapper"
      },
      "getInputAmount(address,uint256,uint256,bytes)": {
        "notice": "returns token tokenIn amount based on tokenOut amount"
      },
      "getOutputAmount(address,uint256,uint256,bytes)": {
        "notice": "returns the amount of collateral"
      },
      "name()": {
        "notice": "returns the unique name"
      },
      "setCurveSwapper(address)": {
        "notice": "sets the Curve swapper"
      },
      "swap(address,uint256,uint256,bytes)": {
        "notice": "swaps stable to collateral"
      },
      "transferOwnership(address,bool,bool)": {
        "notice": "Transfers ownership to `newOwner`. Either directly or claimable by the new pending owner. Can only be invoked by the current `owner`."
      }
    },
    "notice": "Swaps Stable to USD0 through Curve",
    "version": 1
  },
  "storageLayout": {
    "storage": [
      {
        "astId": 233,
        "contract": "contracts/liquidationQueue/bidders/CurveStableToUsdoBidder.sol:CurveStableToUsdoBidder",
        "label": "owner",
        "offset": 0,
        "slot": "0",
        "type": "t_address"
      },
      {
        "astId": 235,
        "contract": "contracts/liquidationQueue/bidders/CurveStableToUsdoBidder.sol:CurveStableToUsdoBidder",
        "label": "pendingOwner",
        "offset": 0,
        "slot": "1",
        "type": "t_address"
      },
      {
        "astId": 6411,
        "contract": "contracts/liquidationQueue/bidders/CurveStableToUsdoBidder.sol:CurveStableToUsdoBidder",
        "label": "curveSwapper",
        "offset": 0,
        "slot": "2",
        "type": "t_contract(CurveSwapper)12924"
      },
      {
        "astId": 6413,
        "contract": "contracts/liquidationQueue/bidders/CurveStableToUsdoBidder.sol:CurveStableToUsdoBidder",
        "label": "curveAssetsLength",
        "offset": 0,
        "slot": "3",
        "type": "t_uint256"
      }
    ],
    "types": {
      "t_address": {
        "encoding": "inplace",
        "label": "address",
        "numberOfBytes": "20"
      },
      "t_contract(CurveSwapper)12924": {
        "encoding": "inplace",
        "label": "contract CurveSwapper",
        "numberOfBytes": "20"
      },
      "t_uint256": {
        "encoding": "inplace",
        "label": "uint256",
        "numberOfBytes": "32"
      }
    }
  }
}