{
  "address": "0x7ef45fada9f8da6ee2fd6ffd9850bf25e05d9953",
  "abi": [
    {
      "inputs": [
        {
          "internalType": "uint256",
          "name": "_initialAmount",
          "type": "uint256"
        },
        {
          "internalType": "uint8",
          "name": "_decimals",
          "type": "uint8"
        }
      ],
      "stateMutability": "nonpayable",
      "type": "constructor"
    },
    {
      "anonymous": false,
      "inputs": [
        {
          "indexed": true,
          "internalType": "address",
          "name": "owner",
          "type": "address"
        },
        {
          "indexed": true,
          "internalType": "address",
          "name": "spender",
          "type": "address"
        },
        {
          "indexed": false,
          "internalType": "uint256",
          "name": "value",
          "type": "uint256"
        }
      ],
      "name": "Approval",
      "type": "event"
    },
    {
      "anonymous": false,
      "inputs": [
        {
          "indexed": true,
          "internalType": "address",
          "name": "from",
          "type": "address"
        },
        {
          "indexed": true,
          "internalType": "address",
          "name": "to",
          "type": "address"
        },
        {
          "indexed": false,
          "internalType": "uint256",
          "name": "value",
          "type": "uint256"
        }
      ],
      "name": "Transfer",
      "type": "event"
    },
    {
      "inputs": [],
      "name": "DOMAIN_SEPARATOR",
      "outputs": [
        {
          "internalType": "bytes32",
          "name": "",
          "type": "bytes32"
        }
      ],
      "stateMutability": "view",
      "type": "function"
    },
    {
      "inputs": [
        {
          "internalType": "address",
          "name": "",
          "type": "address"
        },
        {
          "internalType": "address",
          "name": "",
          "type": "address"
        }
      ],
      "name": "allowance",
      "outputs": [
        {
          "internalType": "uint256",
          "name": "",
          "type": "uint256"
        }
      ],
      "stateMutability": "view",
      "type": "function"
    },
    {
      "inputs": [
        {
          "internalType": "address",
          "name": "spender",
          "type": "address"
        },
        {
          "internalType": "uint256",
          "name": "amount",
          "type": "uint256"
        }
      ],
      "name": "approve",
      "outputs": [
        {
          "internalType": "bool",
          "name": "",
          "type": "bool"
        }
      ],
      "stateMutability": "nonpayable",
      "type": "function"
    },
    {
      "inputs": [
        {
          "internalType": "address",
          "name": "",
          "type": "address"
        }
      ],
      "name": "balanceOf",
      "outputs": [
        {
          "internalType": "uint256",
          "name": "",
          "type": "uint256"
        }
      ],
      "stateMutability": "view",
      "type": "function"
    },
    {
      "inputs": [],
      "name": "decimals",
      "outputs": [
        {
          "internalType": "uint8",
          "name": "",
          "type": "uint8"
        }
      ],
      "stateMutability": "view",
      "type": "function"
    },
    {
      "inputs": [
        {
          "internalType": "uint256",
          "name": "_val",
          "type": "uint256"
        }
      ],
      "name": "freeMint",
      "outputs": [],
      "stateMutability": "nonpayable",
      "type": "function"
    },
    {
      "inputs": [],
      "name": "name",
      "outputs": [
        {
          "internalType": "string",
          "name": "",
          "type": "string"
        }
      ],
      "stateMutability": "view",
      "type": "function"
    },
    {
      "inputs": [
        {
          "internalType": "address",
          "name": "",
          "type": "address"
        }
      ],
      "name": "nonces",
      "outputs": [
        {
          "internalType": "uint256",
          "name": "",
          "type": "uint256"
        }
      ],
      "stateMutability": "view",
      "type": "function"
    },
    {
      "inputs": [
        {
          "internalType": "address",
          "name": "owner_",
          "type": "address"
        },
        {
          "internalType": "address",
          "name": "spender",
          "type": "address"
        },
        {
          "internalType": "uint256",
          "name": "value",
          "type": "uint256"
        },
        {
          "internalType": "uint256",
          "name": "deadline",
          "type": "uint256"
        },
        {
          "internalType": "uint8",
          "name": "v",
          "type": "uint8"
        },
        {
          "internalType": "bytes32",
          "name": "r",
          "type": "bytes32"
        },
        {
          "internalType": "bytes32",
          "name": "s",
          "type": "bytes32"
        }
      ],
      "name": "permit",
      "outputs": [],
      "stateMutability": "nonpayable",
      "type": "function"
    },
    {
      "inputs": [],
      "name": "symbol",
      "outputs": [
        {
          "internalType": "string",
          "name": "",
          "type": "string"
        }
      ],
      "stateMutability": "view",
      "type": "function"
    },
    {
      "inputs": [],
      "name": "totalSupply",
      "outputs": [
        {
          "internalType": "uint256",
          "name": "",
          "type": "uint256"
        }
      ],
      "stateMutability": "view",
      "type": "function"
    },
    {
      "inputs": [
        {
          "internalType": "address",
          "name": "to",
          "type": "address"
        },
        {
          "internalType": "uint256",
          "name": "amount",
          "type": "uint256"
        }
      ],
      "name": "transfer",
      "outputs": [
        {
          "internalType": "bool",
          "name": "",
          "type": "bool"
        }
      ],
      "stateMutability": "nonpayable",
      "type": "function"
    },
    {
      "inputs": [
        {
          "internalType": "address",
          "name": "from",
          "type": "address"
        },
        {
          "internalType": "address",
          "name": "to",
          "type": "address"
        },
        {
          "internalType": "uint256",
          "name": "amount",
          "type": "uint256"
        }
      ],
      "name": "transferFrom",
      "outputs": [
        {
          "internalType": "bool",
          "name": "",
          "type": "bool"
        }
      ],
      "stateMutability": "nonpayable",
      "type": "function"
    }
  ],
  "transactionHash": "0xcf9fdd681be5477be9a8e85c1fd4456f87411221d1fff28f1088c1255a7b6d74",
  "args": [
    "10000000000000000000000000",
    18
  ],
  "numDeployments": 1,
  "solcInputHash": "7c3ea1345b3ef5bb1bd7fde341504da5",
  "bytecode": "0x610100604052600a60c0908152692a32b9ba102a37b5b2b760b11b60e0526004906200002c9082620001b1565b50604080518082019091526002815261151560f21b6020820152600590620000559082620001b1565b503480156200006357600080fd5b50604051620010533803806200105383398101604081905262000086916200027d565b4660a0819052620000ea90604080517f47e79534a245952e8b16893a336b85a3d9ea9fa8c573f3d803afb92a794692186020820152908101829052306060820152600090608001604051602081830303815290604052805190602001209050919050565b6080526003919091556006805460ff191660ff909216919091179055620002b5565b634e487b7160e01b600052604160045260246000fd5b600181811c908216806200013757607f821691505b6020821081036200015857634e487b7160e01b600052602260045260246000fd5b50919050565b601f821115620001ac57600081815260208120601f850160051c81016020861015620001875750805b601f850160051c820191505b81811015620001a85782815560010162000193565b5050505b505050565b81516001600160401b03811115620001cd57620001cd6200010c565b620001e581620001de845462000122565b846200015e565b602080601f8311600181146200021d5760008415620002045750858301515b600019600386901b1c1916600185901b178555620001a8565b600085815260208120601f198616915b828110156200024e578886015182559484019460019091019084016200022d565b50858210156200026d5787850151600019600388901b60f8161c191681555b5050505050600190811b01905550565b600080604083850312156200029157600080fd5b82519150602083015160ff81168114620002aa57600080fd5b809150509250929050565b60805160a051610d78620002db6000396000610908015260006109390152610d786000f3fe608060405234801561001057600080fd5b50600436106100cf5760003560e01c806370a082311161008c57806395d89b411161006657806395d89b41146101bb578063a9059cbb146101c3578063d505accf146101d6578063dd62ed3e146101e957600080fd5b806370a08231146101665780637c928fe9146101865780637ecebe001461019b57600080fd5b806306fdde03146100d4578063095ea7b3146100f257806318160ddd1461011557806323b872dd1461012c578063313ce5671461013f5780633644e5151461015e575b600080fd5b6100dc610214565b6040516100e99190610aed565b60405180910390f35b610105610100366004610b3c565b6102a2565b60405190151581526020016100e9565b61011e60035481565b6040519081526020016100e9565b61010561013a366004610b66565b61030e565b60065461014c9060ff1681565b60405160ff90911681526020016100e9565b61011e610531565b61011e610174366004610ba2565b60006020819052908152604090205481565b610199610194366004610bc4565b610540565b005b61011e6101a9366004610ba2565b60026020526000908152604090205481565b6100dc61054d565b6101056101d1366004610b3c565b61055a565b6101996101e4366004610bdd565b6106b1565b61011e6101f7366004610c50565b600160209081526000928352604080842090915290825290205481565b6004805461022190610c83565b80601f016020809104026020016040519081016040528092919081815260200182805461024d90610c83565b801561029a5780601f1061026f5761010080835404028352916020019161029a565b820191906000526020600020905b81548152906001019060200180831161027d57829003601f168201915b505050505081565b3360008181526001602090815260408083206001600160a01b038716808552925280832085905551919290917f8c5be1e5ebec7d5bd14f71427d1e84f3dd0314c0f7b2291e5b200ac8c7c3b925906102fd9086815260200190565b60405180910390a350600192915050565b600081156104da576001600160a01b0384166000908152602081905260409020548281101561037d5760405162461bcd60e51b815260206004820152601660248201527545524332303a2062616c616e636520746f6f206c6f7760501b60448201526064015b60405180910390fd5b836001600160a01b0316856001600160a01b0316146104d8576001600160a01b0385166000908152600160209081526040808320338452909152902054600019811461044257838110156104135760405162461bcd60e51b815260206004820152601860248201527f45524332303a20616c6c6f77616e636520746f6f206c6f7700000000000000006044820152606401610374565b61041d8482610cd3565b6001600160a01b03871660009081526001602090815260408083203384529091529020555b6001600160a01b0385166104915760405162461bcd60e51b815260206004820152601660248201527545524332303a206e6f207a65726f206164647265737360501b6044820152606401610374565b61049b8483610cd3565b6001600160a01b0380881660009081526020819052604080822093909355908716815290812080548692906104d1908490610cea565b9091555050505b505b826001600160a01b0316846001600160a01b03167fddf252ad1be2c89b69c2b068fc378daa952ba7f163c4a11628f55a4df523b3ef8460405161051f91815260200190565b60405180910390a35060019392505050565b600061053b610904565b905090565b61054a338261095b565b50565b6005805461022190610c83565b6000811515806105725750336001600160a01b038416145b156106745733600090815260208190526040902054828110156105d05760405162461bcd60e51b815260206004820152601660248201527545524332303a2062616c616e636520746f6f206c6f7760501b6044820152606401610374565b336001600160a01b03851614610672576001600160a01b03841661062f5760405162461bcd60e51b815260206004820152601660248201527545524332303a206e6f207a65726f206164647265737360501b6044820152606401610374565b6106398382610cd3565b33600090815260208190526040808220929092556001600160a01b0386168152908120805485929061066c908490610cea565b90915550505b505b6040518281526001600160a01b0384169033907fddf252ad1be2c89b69c2b068fc378daa952ba7f163c4a11628f55a4df523b3ef906020016102fd565b6001600160a01b0387166107075760405162461bcd60e51b815260206004820152601860248201527f45524332303a204f776e65722063616e6e6f74206265203000000000000000006044820152606401610374565b8342106107475760405162461bcd60e51b815260206004820152600e60248201526d115490cc8c0e88115e1c1a5c995960921b6044820152606401610374565b6001600160a01b038716600081815260026020526040812080546001926107f1927f6e71edae12b1b97f4d1f60370fef10105fa2faae0126114a169c64845d6126c9928d928d928d929161079a83610d02565b909155506040805160208101969096526001600160a01b0394851690860152929091166060840152608083015260a082015260c0810188905260e00160405160208183030381529060405280519060200120610a27565b6040805160008152602081018083529290925260ff871690820152606081018590526080810184905260a0016020604051602081039080840390855afa15801561083f573d6000803e3d6000fd5b505050602060405103516001600160a01b03161461089f5760405162461bcd60e51b815260206004820152601860248201527f45524332303a20496e76616c6964205369676e617475726500000000000000006044820152606401610374565b6001600160a01b038781166000818152600160209081526040808320948b168084529482529182902089905590518881527f8c5be1e5ebec7d5bd14f71427d1e84f3dd0314c0f7b2291e5b200ac8c7c3b925910160405180910390a350505050505050565b60007f000000000000000000000000000000000000000000000000000000000000000046146109365761053b46610a7c565b507f000000000000000000000000000000000000000000000000000000000000000090565b60008160035461096b9190610cea565b90506003548110156109af5760405162461bcd60e51b815260206004820152600d60248201526c4d696e74206f766572666c6f7760981b6044820152606401610374565b60038190556001600160a01b038316600090815260208190526040812080548492906109dc908490610cea565b90915550506040518281526001600160a01b038416906000907fddf252ad1be2c89b69c2b068fc378daa952ba7f163c4a11628f55a4df523b3ef9060200160405180910390a3505050565b600060405180604001604052806002815260200161190160f01b815250610a4c610904565b83604051602001610a5f93929190610d1b565b604051602081830303815290604052805190602001209050919050565b604080517f47e79534a245952e8b16893a336b85a3d9ea9fa8c573f3d803afb92a794692186020820152908101829052306060820152600090608001610a5f565b60005b83811015610ad8578181015183820152602001610ac0565b83811115610ae7576000848401525b50505050565b6020815260008251806020840152610b0c816040850160208701610abd565b601f01601f19169190910160400192915050565b80356001600160a01b0381168114610b3757600080fd5b919050565b60008060408385031215610b4f57600080fd5b610b5883610b20565b946020939093013593505050565b600080600060608486031215610b7b57600080fd5b610b8484610b20565b9250610b9260208501610b20565b9150604084013590509250925092565b600060208284031215610bb457600080fd5b610bbd82610b20565b9392505050565b600060208284031215610bd657600080fd5b5035919050565b600080600080600080600060e0888a031215610bf857600080fd5b610c0188610b20565b9650610c0f60208901610b20565b95506040880135945060608801359350608088013560ff81168114610c3357600080fd5b9699959850939692959460a0840135945060c09093013592915050565b60008060408385031215610c6357600080fd5b610c6c83610b20565b9150610c7a60208401610b20565b90509250929050565b600181811c90821680610c9757607f821691505b602082108103610cb757634e487b7160e01b600052602260045260246000fd5b50919050565b634e487b7160e01b600052601160045260246000fd5b600082821015610ce557610ce5610cbd565b500390565b60008219821115610cfd57610cfd610cbd565b500190565b600060018201610d1457610d14610cbd565b5060010190565b60008451610d2d818460208901610abd565b9190910192835250602082015260400191905056fea2646970667358221220365dfb072a98ac20094c7eef97771c0dae136d26217eaa07a12d3424a66723df64736f6c634300080f0033",
  "devdoc": {
    "kind": "dev",
    "methods": {
      "approve(address,uint256)": {
        "params": {
          "amount": "The maximum collective amount that `spender` can draw.",
          "spender": "Address of the party that can draw from msg.sender's account."
        },
        "returns": {
          "_0": "(bool) Returns True if approved."
        }
      },
      "permit(address,address,uint256,uint256,uint8,bytes32,bytes32)": {
        "params": {
          "deadline": "This permit must be redeemed before this deadline (UTC timestamp in seconds).",
          "owner_": "Address of the owner.",
          "spender": "The address of the spender that gets approved to draw from `owner_`.",
          "value": "The maximum collective amount that `spender` can draw."
        }
      },
      "transfer(address,uint256)": {
        "params": {
          "amount": "of the tokens to move.",
          "to": "The address to move the tokens."
        },
        "returns": {
          "_0": "(bool) Returns True if succeeded."
        }
      },
      "transferFrom(address,address,uint256)": {
        "params": {
          "amount": "The token amount to move.",
          "from": "Address to draw tokens from.",
          "to": "The address to move the tokens."
        },
        "returns": {
          "_0": "(bool) Returns True if succeeded."
        }
      }
    },
    "version": 1
  },
  "userdoc": {
    "kind": "user",
    "methods": {
      "allowance(address,address)": {
        "notice": "owner > spender > allowance mapping."
      },
      "approve(address,uint256)": {
        "notice": "Approves `amount` from sender to be spend by `spender`."
      },
      "balanceOf(address)": {
        "notice": "owner > balance mapping."
      },
      "nonces(address)": {
        "notice": "owner > nonce mapping. Used in `permit`."
      },
      "permit(address,address,uint256,uint256,uint8,bytes32,bytes32)": {
        "notice": "Approves `value` from `owner_` to be spend by `spender`."
      },
      "transfer(address,uint256)": {
        "notice": "Transfers `amount` tokens from `msg.sender` to `to`."
      },
      "transferFrom(address,address,uint256)": {
        "notice": "Transfers `amount` tokens from `from` to `to`. Caller needs approval for `from`."
      }
    },
    "version": 1
  },
  "storageLayout": {
    "storage": [
      {
        "astId": 478,
        "contract": "contracts/singularity/legacy/mocks/ERC20Mock.sol:ERC20Mock",
        "label": "balanceOf",
        "offset": 0,
        "slot": "0",
        "type": "t_mapping(t_address,t_uint256)"
      },
      {
        "astId": 486,
        "contract": "contracts/singularity/legacy/mocks/ERC20Mock.sol:ERC20Mock",
        "label": "allowance",
        "offset": 0,
        "slot": "1",
        "type": "t_mapping(t_address,t_mapping(t_address,t_uint256))"
      },
      {
        "astId": 491,
        "contract": "contracts/singularity/legacy/mocks/ERC20Mock.sol:ERC20Mock",
        "label": "nonces",
        "offset": 0,
        "slot": "2",
        "type": "t_mapping(t_address,t_uint256)"
      },
      {
        "astId": 799,
        "contract": "contracts/singularity/legacy/mocks/ERC20Mock.sol:ERC20Mock",
        "label": "totalSupply",
        "offset": 0,
        "slot": "3",
        "type": "t_uint256"
      },
      {
        "astId": 7830,
        "contract": "contracts/singularity/legacy/mocks/ERC20Mock.sol:ERC20Mock",
        "label": "name",
        "offset": 0,
        "slot": "4",
        "type": "t_string_storage"
      },
      {
        "astId": 7833,
        "contract": "contracts/singularity/legacy/mocks/ERC20Mock.sol:ERC20Mock",
        "label": "symbol",
        "offset": 0,
        "slot": "5",
        "type": "t_string_storage"
      },
      {
        "astId": 7835,
        "contract": "contracts/singularity/legacy/mocks/ERC20Mock.sol:ERC20Mock",
        "label": "decimals",
        "offset": 0,
        "slot": "6",
        "type": "t_uint8"
      }
    ],
    "types": {
      "t_address": {
        "encoding": "inplace",
        "label": "address",
        "numberOfBytes": "20"
      },
      "t_mapping(t_address,t_mapping(t_address,t_uint256))": {
        "encoding": "mapping",
        "key": "t_address",
        "label": "mapping(address => mapping(address => uint256))",
        "numberOfBytes": "32",
        "value": "t_mapping(t_address,t_uint256)"
      },
      "t_mapping(t_address,t_uint256)": {
        "encoding": "mapping",
        "key": "t_address",
        "label": "mapping(address => uint256)",
        "numberOfBytes": "32",
        "value": "t_uint256"
      },
      "t_string_storage": {
        "encoding": "bytes",
        "label": "string",
        "numberOfBytes": "32"
      },
      "t_uint256": {
        "encoding": "inplace",
        "label": "uint256",
        "numberOfBytes": "32"
      },
      "t_uint8": {
        "encoding": "inplace",
        "label": "uint8",
        "numberOfBytes": "1"
      }
    }
  }
}