{
  "address": "0xFf5669b01E20aC808283aD69058689fBC67C2B56",
  "abi": [
    {
      "anonymous": false,
      "inputs": [
        {
          "indexed": true,
          "internalType": "address",
          "name": "caller",
          "type": "address"
        },
        {
          "indexed": true,
          "internalType": "address",
          "name": "bidder",
          "type": "address"
        },
        {
          "indexed": true,
          "internalType": "uint256",
          "name": "pool",
          "type": "uint256"
        },
        {
          "indexed": false,
          "internalType": "uint256",
          "name": "usdoAmount",
          "type": "uint256"
        },
        {
          "indexed": false,
          "internalType": "uint256",
          "name": "liquidatedAssetAmount",
          "type": "uint256"
        },
        {
          "indexed": false,
          "internalType": "uint256",
          "name": "collateralValue",
          "type": "uint256"
        },
        {
          "indexed": false,
          "internalType": "uint256",
          "name": "timestamp",
          "type": "uint256"
        }
      ],
      "name": "ActivateBid",
      "type": "event"
    },
    {
      "anonymous": false,
      "inputs": [
        {
          "indexed": true,
          "internalType": "address",
          "name": "caller",
          "type": "address"
        },
        {
          "indexed": true,
          "internalType": "address",
          "name": "bidder",
          "type": "address"
        },
        {
          "indexed": true,
          "internalType": "uint256",
          "name": "pool",
          "type": "uint256"
        },
        {
          "indexed": false,
          "internalType": "uint256",
          "name": "usdoAmount",
          "type": "uint256"
        },
        {
          "indexed": false,
          "internalType": "uint256",
          "name": "liquidatedAssetAmount",
          "type": "uint256"
        },
        {
          "indexed": false,
          "internalType": "uint256",
          "name": "timestamp",
          "type": "uint256"
        }
      ],
      "name": "Bid",
      "type": "event"
    },
    {
      "anonymous": false,
      "inputs": [
        {
          "indexed": true,
          "internalType": "contract IBidder",
          "name": "_old",
          "type": "address"
        },
        {
          "indexed": true,
          "internalType": "contract IBidder",
          "name": "_new",
          "type": "address"
        }
      ],
      "name": "BidSwapperUpdated",
      "type": "event"
    },
    {
      "anonymous": false,
      "inputs": [
        {
          "indexed": true,
          "internalType": "address",
          "name": "caller",
          "type": "address"
        },
        {
          "indexed": true,
          "internalType": "uint256",
          "name": "pool",
          "type": "uint256"
        },
        {
          "indexed": false,
          "internalType": "uint256",
          "name": "usdoAmountExecuted",
          "type": "uint256"
        },
        {
          "indexed": false,
          "internalType": "uint256",
          "name": "liquidatedAssetAmountExecuted",
          "type": "uint256"
        },
        {
          "indexed": false,
          "internalType": "uint256",
          "name": "collateralLiquidated",
          "type": "uint256"
        },
        {
          "indexed": false,
          "internalType": "uint256",
          "name": "timestamp",
          "type": "uint256"
        }
      ],
      "name": "ExecuteBids",
      "type": "event"
    },
    {
      "anonymous": false,
      "inputs": [
        {
          "indexed": true,
          "internalType": "address",
          "name": "redeemer",
          "type": "address"
        },
        {
          "indexed": true,
          "internalType": "address",
          "name": "to",
          "type": "address"
        },
        {
          "indexed": false,
          "internalType": "uint256",
          "name": "amount",
          "type": "uint256"
        }
      ],
      "name": "Redeem",
      "type": "event"
    },
    {
      "anonymous": false,
      "inputs": [
        {
          "indexed": true,
          "internalType": "address",
          "name": "caller",
          "type": "address"
        },
        {
          "indexed": true,
          "internalType": "address",
          "name": "bidder",
          "type": "address"
        },
        {
          "indexed": true,
          "internalType": "uint256",
          "name": "pool",
          "type": "uint256"
        },
        {
          "indexed": false,
          "internalType": "uint256",
          "name": "usdoAmount",
          "type": "uint256"
        },
        {
          "indexed": false,
          "internalType": "uint256",
          "name": "liquidatedAssetAmount",
          "type": "uint256"
        },
        {
          "indexed": false,
          "internalType": "uint256",
          "name": "collateralValue",
          "type": "uint256"
        },
        {
          "indexed": false,
          "internalType": "uint256",
          "name": "timestamp",
          "type": "uint256"
        }
      ],
      "name": "RemoveBid",
      "type": "event"
    },
    {
      "anonymous": false,
      "inputs": [
        {
          "indexed": true,
          "internalType": "contract IBidder",
          "name": "_old",
          "type": "address"
        },
        {
          "indexed": true,
          "internalType": "contract IBidder",
          "name": "_new",
          "type": "address"
        }
      ],
      "name": "UsdoSwapperUpdated",
      "type": "event"
    },
    {
      "inputs": [
        {
          "internalType": "address",
          "name": "user",
          "type": "address"
        },
        {
          "internalType": "uint256",
          "name": "pool",
          "type": "uint256"
        }
      ],
      "name": "activateBid",
      "outputs": [],
      "stateMutability": "nonpayable",
      "type": "function"
    },
    {
      "inputs": [
        {
          "internalType": "address",
          "name": "",
          "type": "address"
        }
      ],
      "name": "balancesDue",
      "outputs": [
        {
          "internalType": "uint256",
          "name": "",
          "type": "uint256"
        }
      ],
      "stateMutability": "view",
      "type": "function"
    },
    {
      "inputs": [],
      "name": "beachBar",
      "outputs": [
        {
          "internalType": "contract IBeachBar",
          "name": "",
          "type": "address"
        }
      ],
      "stateMutability": "view",
      "type": "function"
    },
    {
      "inputs": [
        {
          "internalType": "address",
          "name": "user",
          "type": "address"
        },
        {
          "internalType": "uint256",
          "name": "pool",
          "type": "uint256"
        },
        {
          "internalType": "uint256",
          "name": "amount",
          "type": "uint256"
        }
      ],
      "name": "bid",
      "outputs": [],
      "stateMutability": "nonpayable",
      "type": "function"
    },
    {
      "inputs": [
        {
          "internalType": "uint256",
          "name": "",
          "type": "uint256"
        },
        {
          "internalType": "address",
          "name": "",
          "type": "address"
        }
      ],
      "name": "bidPools",
      "outputs": [
        {
          "internalType": "bool",
          "name": "isUsdo",
          "type": "bool"
        },
        {
          "internalType": "bool",
          "name": "swapOnExecute",
          "type": "bool"
        },
        {
          "internalType": "uint256",
          "name": "usdoAmount",
          "type": "uint256"
        },
        {
          "internalType": "uint256",
          "name": "liquidatedAssetAmount",
          "type": "uint256"
        },
        {
          "internalType": "uint256",
          "name": "timestamp",
          "type": "uint256"
        }
      ],
      "stateMutability": "view",
      "type": "function"
    },
    {
      "inputs": [
        {
          "internalType": "address",
          "name": "user",
          "type": "address"
        },
        {
          "internalType": "uint256",
          "name": "pool",
          "type": "uint256"
        },
        {
          "internalType": "uint256",
          "name": "stableAssetId",
          "type": "uint256"
        },
        {
          "internalType": "uint256",
          "name": "amountIn",
          "type": "uint256"
        },
        {
          "internalType": "bytes",
          "name": "data",
          "type": "bytes"
        }
      ],
      "name": "bidWithStable",
      "outputs": [],
      "stateMutability": "nonpayable",
      "type": "function"
    },
    {
      "inputs": [
        {
          "internalType": "uint256",
          "name": "collateralAmountToLiquidate",
          "type": "uint256"
        },
        {
          "internalType": "bytes",
          "name": "swapData",
          "type": "bytes"
        }
      ],
      "name": "executeBids",
      "outputs": [
        {
          "internalType": "uint256",
          "name": "totalAmountExecuted",
          "type": "uint256"
        },
        {
          "internalType": "uint256",
          "name": "totalCollateralLiquidated",
          "type": "uint256"
        }
      ],
      "stateMutability": "nonpayable",
      "type": "function"
    },
    {
      "inputs": [],
      "name": "getNextAvailBidPool",
      "outputs": [
        {
          "internalType": "uint256",
          "name": "i",
          "type": "uint256"
        },
        {
          "internalType": "bool",
          "name": "available",
          "type": "bool"
        }
      ],
      "stateMutability": "view",
      "type": "function"
    },
    {
      "inputs": [
        {
          "internalType": "uint256",
          "name": "pool",
          "type": "uint256"
        }
      ],
      "name": "getOrderBookPoolEntries",
      "outputs": [
        {
          "components": [
            {
              "internalType": "address",
              "name": "bidder",
              "type": "address"
            },
            {
              "components": [
                {
                  "internalType": "bool",
                  "name": "isUsdo",
                  "type": "bool"
                },
                {
                  "internalType": "bool",
                  "name": "swapOnExecute",
                  "type": "bool"
                },
                {
                  "internalType": "uint256",
                  "name": "usdoAmount",
                  "type": "uint256"
                },
                {
                  "internalType": "uint256",
                  "name": "liquidatedAssetAmount",
                  "type": "uint256"
                },
                {
                  "internalType": "uint256",
                  "name": "timestamp",
                  "type": "uint256"
                }
              ],
              "internalType": "struct Bidder",
              "name": "bidInfo",
              "type": "tuple"
            }
          ],
          "internalType": "struct OrderBookPoolEntry[]",
          "name": "x",
          "type": "tuple[]"
        }
      ],
      "stateMutability": "view",
      "type": "function"
    },
    {
      "inputs": [
        {
          "internalType": "uint256",
          "name": "pool",
          "type": "uint256"
        }
      ],
      "name": "getOrderBookSize",
      "outputs": [
        {
          "internalType": "uint256",
          "name": "size",
          "type": "uint256"
        }
      ],
      "stateMutability": "view",
      "type": "function"
    },
    {
      "inputs": [
        {
          "components": [
            {
              "internalType": "uint256",
              "name": "activationTime",
              "type": "uint256"
            },
            {
              "internalType": "uint256",
              "name": "minBidAmount",
              "type": "uint256"
            },
            {
              "internalType": "address",
              "name": "feeCollector",
              "type": "address"
            },
            {
              "internalType": "contract IBidder",
              "name": "bidExecutionSwapper",
              "type": "address"
            },
            {
              "internalType": "contract IBidder",
              "name": "usdoSwapper",
              "type": "address"
            }
          ],
          "internalType": "struct LiquidationQueueMeta",
          "name": "_liquidationQueueMeta",
          "type": "tuple"
        },
        {
          "internalType": "contract IMixologist",
          "name": "_mixologist",
          "type": "address"
        }
      ],
      "name": "init",
      "outputs": [],
      "stateMutability": "nonpayable",
      "type": "function"
    },
    {
      "inputs": [],
      "name": "liquidatedAssetId",
      "outputs": [
        {
          "internalType": "uint256",
          "name": "",
          "type": "uint256"
        }
      ],
      "stateMutability": "view",
      "type": "function"
    },
    {
      "inputs": [],
      "name": "liquidationQueueMeta",
      "outputs": [
        {
          "internalType": "uint256",
          "name": "activationTime",
          "type": "uint256"
        },
        {
          "internalType": "uint256",
          "name": "minBidAmount",
          "type": "uint256"
        },
        {
          "internalType": "address",
          "name": "feeCollector",
          "type": "address"
        },
        {
          "internalType": "contract IBidder",
          "name": "bidExecutionSwapper",
          "type": "address"
        },
        {
          "internalType": "contract IBidder",
          "name": "usdoSwapper",
          "type": "address"
        }
      ],
      "stateMutability": "view",
      "type": "function"
    },
    {
      "inputs": [],
      "name": "lqAssetId",
      "outputs": [
        {
          "internalType": "uint256",
          "name": "",
          "type": "uint256"
        }
      ],
      "stateMutability": "view",
      "type": "function"
    },
    {
      "inputs": [],
      "name": "market",
      "outputs": [
        {
          "internalType": "string",
          "name": "",
          "type": "string"
        }
      ],
      "stateMutability": "view",
      "type": "function"
    },
    {
      "inputs": [],
      "name": "marketAssetId",
      "outputs": [
        {
          "internalType": "uint256",
          "name": "",
          "type": "uint256"
        }
      ],
      "stateMutability": "view",
      "type": "function"
    },
    {
      "inputs": [],
      "name": "mixologist",
      "outputs": [
        {
          "internalType": "contract IMixologist",
          "name": "",
          "type": "address"
        }
      ],
      "stateMutability": "view",
      "type": "function"
    },
    {
      "inputs": [],
      "name": "onlyOnce",
      "outputs": [
        {
          "internalType": "bool",
          "name": "",
          "type": "bool"
        }
      ],
      "stateMutability": "view",
      "type": "function"
    },
    {
      "inputs": [
        {
          "internalType": "uint256",
          "name": "",
          "type": "uint256"
        },
        {
          "internalType": "uint256",
          "name": "",
          "type": "uint256"
        }
      ],
      "name": "orderBookEntries",
      "outputs": [
        {
          "internalType": "address",
          "name": "bidder",
          "type": "address"
        },
        {
          "components": [
            {
              "internalType": "bool",
              "name": "isUsdo",
              "type": "bool"
            },
            {
              "internalType": "bool",
              "name": "swapOnExecute",
              "type": "bool"
            },
            {
              "internalType": "uint256",
              "name": "usdoAmount",
              "type": "uint256"
            },
            {
              "internalType": "uint256",
              "name": "liquidatedAssetAmount",
              "type": "uint256"
            },
            {
              "internalType": "uint256",
              "name": "timestamp",
              "type": "uint256"
            }
          ],
          "internalType": "struct Bidder",
          "name": "bidInfo",
          "type": "tuple"
        }
      ],
      "stateMutability": "view",
      "type": "function"
    },
    {
      "inputs": [
        {
          "internalType": "uint256",
          "name": "",
          "type": "uint256"
        }
      ],
      "name": "orderBookInfos",
      "outputs": [
        {
          "internalType": "uint32",
          "name": "poolId",
          "type": "uint32"
        },
        {
          "internalType": "uint32",
          "name": "nextBidPull",
          "type": "uint32"
        },
        {
          "internalType": "uint32",
          "name": "nextBidPush",
          "type": "uint32"
        }
      ],
      "stateMutability": "view",
      "type": "function"
    },
    {
      "inputs": [
        {
          "internalType": "address",
          "name": "to",
          "type": "address"
        }
      ],
      "name": "redeem",
      "outputs": [],
      "stateMutability": "nonpayable",
      "type": "function"
    },
    {
      "inputs": [
        {
          "internalType": "address",
          "name": "user",
          "type": "address"
        },
        {
          "internalType": "uint256",
          "name": "pool",
          "type": "uint256"
        },
        {
          "internalType": "uint256",
          "name": "bidPosition",
          "type": "uint256"
        }
      ],
      "name": "removeBid",
      "outputs": [
        {
          "internalType": "uint256",
          "name": "amountRemoved",
          "type": "uint256"
        }
      ],
      "stateMutability": "nonpayable",
      "type": "function"
    },
    {
      "inputs": [
        {
          "internalType": "address",
          "name": "user",
          "type": "address"
        },
        {
          "internalType": "uint256",
          "name": "pool",
          "type": "uint256"
        }
      ],
      "name": "removeInactivatedBid",
      "outputs": [
        {
          "internalType": "uint256",
          "name": "amountRemoved",
          "type": "uint256"
        }
      ],
      "stateMutability": "nonpayable",
      "type": "function"
    },
    {
      "inputs": [
        {
          "internalType": "contract IBidder",
          "name": "_swapper",
          "type": "address"
        }
      ],
      "name": "setBidExecutionSwapper",
      "outputs": [],
      "stateMutability": "nonpayable",
      "type": "function"
    },
    {
      "inputs": [
        {
          "internalType": "contract IBidder",
          "name": "_swapper",
          "type": "address"
        }
      ],
      "name": "setUsdoSwapper",
      "outputs": [],
      "stateMutability": "nonpayable",
      "type": "function"
    },
    {
      "inputs": [
        {
          "internalType": "address",
          "name": "user",
          "type": "address"
        },
        {
          "internalType": "uint256",
          "name": "pool",
          "type": "uint256"
        }
      ],
      "name": "userBidIndexLength",
      "outputs": [
        {
          "internalType": "uint256",
          "name": "len",
          "type": "uint256"
        }
      ],
      "stateMutability": "view",
      "type": "function"
    },
    {
      "inputs": [
        {
          "internalType": "address",
          "name": "",
          "type": "address"
        },
        {
          "internalType": "uint256",
          "name": "",
          "type": "uint256"
        },
        {
          "internalType": "uint256",
          "name": "",
          "type": "uint256"
        }
      ],
      "name": "userBidIndexes",
      "outputs": [
        {
          "internalType": "uint256",
          "name": "",
          "type": "uint256"
        }
      ],
      "stateMutability": "view",
      "type": "function"
    },
    {
      "inputs": [],
      "name": "yieldBox",
      "outputs": [
        {
          "internalType": "contract YieldBox",
          "name": "",
          "type": "address"
        }
      ],
      "stateMutability": "view",
      "type": "function"
    }
  ],
  "transactionHash": "0x5b7754388bf22a02c23ee21aae705f4b2cd59d4afcd8a71ae34d6ea83dcbae7e",
  "args": [],
  "numDeployments": 2,
  "solcInputHash": "042eab5b19e56126360d8fb499a713e1",
  "bytecode": "0x608060405234801561001057600080fd5b5061450c806100206000396000f3fe608060405234801561001057600080fd5b50600436106101c45760003560e01c80637c8be05b116100f9578063bd2f6f8311610097578063d844f0c011610071578063d844f0c0146105a1578063de406577146105b4578063ebc4ddb3146105c7578063f50f78cd146105da57600080fd5b8063bd2f6f83146104f9578063bdb840cf14610519578063c81ba5d11461052c57600080fd5b806395a2251f116100d357806395a2251f14610436578063966b583c14610449578063a39e6a17146104d3578063a6998e3f146104e657600080fd5b80637c8be05b146103a05780637d98726b146103bd57806380f556051461042157600080fd5b80633965907b116101665780634a50ed27116101405780634a50ed271461033c578063575939f9146103675780635c3a33931461037a57806365d387c91461038d57600080fd5b80633965907b146102b157806345baf8af146102d957806346a7d7d9146102e257600080fd5b80631259c1a1116101a25780631259c1a1146102175780632cfbe6ba146102375780632e020d1f1461029557806336252c901461029e57600080fd5b806307be4daf146101c95780630ed4f3e9146101eb5780630f41ba4b14610202575b600080fd5b600b546101d69060ff1681565b60405190151581526020015b60405180910390f35b6101f4600a5481565b6040519081526020016101e2565b610215610210366004613d50565b6105ed565b005b6101f4610225366004613d85565b60106020526000908152604090205481565b60005460015460025460035460045461025f9493926001600160a01b03908116928116911685565b6040805195865260208601949094526001600160a01b03928316938501939093528116606084015216608082015260a0016101e2565b6101f460095481565b6102156102ac366004613d85565b610802565b6102c46102bf366004613deb565b6108a7565b604080519283526020830191909152016101e2565b6101f460085481565b6101f46102f0366004613e37565b6000908152600e60209081526040918290208251606081018452905463ffffffff808216835264010000000082048116938301849052600160401b909104811691909301819052031690565b60065461034f906001600160a01b031681565b6040516001600160a01b0390911681526020016101e2565b610215610375366004613d85565b610feb565b6101f4610388366004613e50565b611090565b61021561039b366004613e50565b61119c565b6103a86115d5565b604080519283529015156020830152016101e2565b6103fa6103cb366004613e37565b600e6020526000908152604090205463ffffffff808216916401000000008104821691600160401b9091041683565b6040805163ffffffff948516815292841660208401529216918101919091526060016101e2565b61042961164a565b6040516101e29190613ed8565b610215610444366004613d85565b6116e9565b6104c5610457366004613eeb565b600d6020908152600092835260408084208252918352918190208054825160a081018452600183015460ff8082161515835261010090910416151594810194909452600282015492840192909252600381015460608401526004015460808301526001600160a01b03169082565b6040516101e2929190613f0d565b6101f46104e1366004613d50565b611907565b6101f46104f4366004613d50565b611945565b61050c610507366004613e37565b61200b565b6040516101e29190613f59565b60055461034f906001600160a01b031681565b61057761053a366004613fea565b600c602090815260009283526040808420909152908252902080546001820154600283015460039093015460ff8084169461010090940416929085565b6040805195151586529315156020860152928401919091526060830152608082015260a0016101e2565b6102156105af36600461401a565b612191565b60075461034f906001600160a01b031681565b6101f46105d5366004613e50565b6125d3565b6102156105e836600461408d565b612a0e565b600b5460ff166106445760405162461bcd60e51b815260206004820152601360248201527f4c513a204e6f7420696e697469616c697a65640000000000000000000000000060448201526064015b60405180910390fd5b600a8211156106955760405162461bcd60e51b815260206004820152601460248201527f4c513a207072656d69756d20746f6f2068696768000000000000000000000000604482015260640161063b565b6001548110156106e75760405162461bcd60e51b815260206004820152600f60248201527f4c513a2062696420746f6f206c6f770000000000000000000000000000000000604482015260640161063b565b600854600754604051638eb22cdd60e01b81526004810183905260248101849052600060448201526001600160a01b0390911690630411b252903390309085908590638eb22cdd9060640160206040518083038186803b15801561074a57600080fd5b505afa15801561075e573d6000803e3d6000fd5b505050506040513d601f19601f8201168201806040525081019061078291906140c1565b6040516001600160e01b031960e087901b1681526001600160a01b03948516600482015293909216602484015260448301526064820152608401600060405180830381600087803b1580156107d657600080fd5b505af11580156107ea573d6000803e3d6000fd5b505050506107fb8484846000612f78565b5050505050565b6005546001600160a01b0316331461084b5760405162461bcd60e51b815260206004820152600c60248201526b1d5b985d5d1a1bdc9a5e995960a21b604482015260640161063b565b6004546040516001600160a01b038084169216907f4df4d1118ddbedb1b0f3889ec88ab4d3108097b9b3dd236c2cc5c8e2e9f7269590600090a3600480546001600160a01b0319166001600160a01b0392909216919091179055565b60055460009081906001600160a01b031633146109065760405162461bcd60e51b815260206004820152601360248201527f4c513a204f6e6c79204d69786f6c6f6769737400000000000000000000000000604482015260640161063b565b61090e613c6c565b6109166115d5565b1515602080840191909152908252600554604080517f3ba0b9a900000000000000000000000000000000000000000000000000000000815290516001600160a01b0390921692633ba0b9a992600480840193829003018186803b15801561097c57600080fd5b505afa158015610990573d6000803e3d6000fd5b505050506040513d601f19601f820116820180604052508101906109b491906140c1565b6101008201525b6000861180156109cc575080602001515b15610e6f5780516000908152600e602090815260408083208151606081018352905463ffffffff80821683526401000000008204811694830194909452600160401b90049092168282015283015260a0820181905260c08201525b600086118015610a53575080604001516040015163ffffffff1681604001516020015163ffffffff1614155b15610d665780516000908152600d602090815260408083208185015183015163ffffffff1684528252918290208251808401845281546001600160a01b03168152835160a081018552600183015460ff80821615158352610100918290041615158286015260028401549582019590955260038301546060808301919091526004909301546080808301919091529382019081529185018190529184019190915251908201518251610b06929190613265565b6101208201819052861015610c4057600080610b6c8360800151602001518985610100015186600001518b8b8080601f0160208091040260200160405190810160405280939291908181526020018383808284376000920191909152506133db92505050565b6080850151516001600160a01b0316600090815260106020526040812080549395509193508a92610b9e9084906140f0565b909155505060608301516020015151610bd35781836060015160200151606001818151610bcb9190614108565b905250610bf1565b80836060015160200151604001818151610bed9190614108565b9052505b818360a001818151610c0391906140f0565b90525060c083018051899190610c1a9083906140f0565b90525060e08301805160009950829190610c359083906140f0565b905250610a27915050565b6000806000610c9e84608001516020015185610120015186610100015187600001518c8c8080601f01602080910402602001604051908101604052809392919081815260200183838082843760009201919091525061373492505050565b6080870151516001600160a01b0316600090815260106020526040812080549497509295509093508492610cd39084906140f0565b90915550506060808501805160209081015160006040909101819052915101519091015260e084018051829190610d0b9083906140f0565b90525060a084018051849190610d229083906140f0565b90525060c084018051839190610d399083906140f0565b905250610d46828a614108565b6040850151602001805160010163ffffffff1690529850610a2792505050565b60a0810151610d7590846140f0565b92508060c0015182610d8791906140f0565b60408083015183516000908152600e6020908152908390208251815492840151939094015163ffffffff908116600160401b026bffffffff0000000000000000199482166401000000000267ffffffffffffffff19909416919095161791909117919091169190911790559150610dfc6115d5565b1515602083015280825260e082015160a083015160c084015160405133937fcf16521da024444891495eb0ed8e5e97ab0b013ee419d71046494d94e02390a293610e62939192909190429093845260208401929092526040830152606082015260800190565b60405180910390a36109bb565b6007546008546040517f8d2e63b8000000000000000000000000000000000000000000000000000000008152600481019190915230602482018190526044820152606481018590526000608482015284916001600160a01b031690638d2e63b89060a4016040805180830381600087803b158015610eec57600080fd5b505af1158015610f00573d6000803e3d6000fd5b505050506040513d601f19601f82011682018060405250810190610f24919061411f565b50506007546009546005546040517f9a9af97a00000000000000000000000000000000000000000000000000000000815260048101929092523060248301526001600160a01b039081166044830152606482018490526000608483015290911690639a9af97a9060a4016040805180830381600087803b158015610fa757600080fd5b505af1158015610fbb573d6000803e3d6000fd5b505050506040513d601f19601f82011682018060405250810190610fdf919061411f565b50505050935093915050565b6005546001600160a01b031633146110345760405162461bcd60e51b815260206004820152600c60248201526b1d5b985d5d1a1bdc9a5e995960a21b604482015260640161063b565b6003546040516001600160a01b038084169216907fe0ae31f6fff797b33b039284b11690980155ca2c61a831617b6943199e6fce8b90600090a3600380546001600160a01b0319166001600160a01b0392909216919091179055565b6001600160a01b0382166000908152600f602090815260408083208484528252808320805482518185028101850190935280835284938301828280156110f557602002820191906000526020600020905b8154815260200190600101908083116110e1575b505083516000888152600e602090815260408083208151606081018352905463ffffffff80821683526401000000008204811694830194909452600160401b900490921690820152959650909493509150505b8281101561119057816020015163ffffffff1684828151811061116d5761116d614143565b602002602001015110611188578261118481614159565b9350505b600101611148565b50509051949350505050565b6000818152600c602090815260408083206001600160a01b03861684528252808320815160a081018352815460ff80821615158352610100909104161515938101939093526001810154918301919091526002810154606083015260030154608082018190529154909161121091906140f0565b42101561125f5760405162461bcd60e51b815260206004820152600c60248201527f4c513a20746f6f20736f6f6e0000000000000000000000000000000000000000604482015260640161063b565b6000828152600e60209081526040918290208251606081018452905463ffffffff80821683526401000000008204811693830193909352600160401b9004909116918101919091526112af613ce2565b6001600160a01b0380861680835260208084018681526000888152600d83526040808220888201805163ffffffff90811685529186528284208951815499166001600160a01b0319909916989098178855845180516001808b018054848b015115156101000261ff00199415159490941661ffff1991821617939093179055828601516002808d019190915560608401516003808e01919091556080909401516004909c019b909b558e8752600c89528587209987529888528486208054909116815580890186905598890185905597909701839055600f85528183208b84528552818320875181548089018355918552868520908316910155865190950185168652898252600e84528120875181549489015196518616600160401b026bffffffff0000000000000000199787166401000000000267ffffffffffffffff1990961691909616179390931794909416929092179055515161141957816020015160600151611423565b8160200151604001515b905084866001600160a01b0316336001600160a01b03167fd3537325843bd046c81dbdae840896c9ad0a4e5ea737ac537f65167df96921c285602001516040015186602001516060015187602001516020015161148057866115a9565b600354600554600654604080516386c8e21d60e01b815290516001600160a01b0394851694635dd82b369481169316916386c8e21d916004808301926020929190829003018186803b1580156114d557600080fd5b505afa1580156114e9573d6000803e3d6000fd5b505050506040513d601f19601f8201168201806040525081019061150d91906140c1565b60208c015160409081015190516001600160e01b031960e086901b1681526001600160a01b03909316600484015260248301919091526044820152608060648201526000608482015260a40160206040518083038186803b15801561157157600080fd5b505afa158015611585573d6000803e3d6000fd5b505050506040513d601f19601f820116820180604052508101906115a991906140c1565b6040805193845260208401929092529082015242606082015260800160405180910390a4505050505050565b6000805b600a8211611646576000828152600e60209081526040918290208251606081018452905463ffffffff808216835264010000000082048116938301849052600160401b909104811691909301819052031615611636575060019091565b61163f82614170565b91506115d9565b9091565b600554604080517f06fdde0300000000000000000000000000000000000000000000000000000000815290516060926001600160a01b0316916306fdde03916004808301926000929190829003018186803b1580156116a857600080fd5b505afa1580156116bc573d6000803e3d6000fd5b505050506040513d6000823e601f3d908101601f191682016040526116e491908101906141a1565b905090565b336000908152601060205260409020546117455760405162461bcd60e51b815260206004820152601260248201527f4c513a204e6f2062616c616e6365206475650000000000000000000000000000604482015260640161063b565b336000908152601060205260408120549061271061176460328461424e565b61176e919061426d565b9050600061177c8284614108565b336000908152601060205260408082208290556002546001600160a01b031682528120805492935084929091906117b49084906140f0565b9091555050600a54600754604051638eb22cdd60e01b81526004810183905260248101849052600060448201526001600160a01b0390911690630411b252903090889085908590638eb22cdd9060640160206040518083038186803b15801561181c57600080fd5b505afa158015611830573d6000803e3d6000fd5b505050506040513d601f19601f8201168201806040525081019061185491906140c1565b6040516001600160e01b031960e087901b1681526001600160a01b03948516600482015293909216602484015260448301526064820152608401600060405180830381600087803b1580156118a857600080fd5b505af11580156118bc573d6000803e3d6000fd5b50506040518481526001600160a01b03881692503391507fd12200efa34901b99367694174c3b0d32c99585fdf37c7c26892136ddd0836d99060200160405180910390a35050505050565b600f602052826000526040600020602052816000526040600020818154811061192f57600080fd5b9060005260206000200160009250925050505481565b336000908152600f6020908152604080832085845282528083208054600e84528285208351606081018552905463ffffffff80821683526401000000008204811696830196909652600160401b900490941692840192909252918383868481106119b1576119b1614143565b6000918252602080832090910154898352600d8252604080842082855290925291206001015490915060ff1680611a04576000888152600d60209081526040808320858452909152902060030154611a22565b6000888152600d602090815260408083208584529091529020600201545b955060005b84811015611ad757836020015163ffffffff16868281548110611a4c57611a4c614143565b90600052602060002001541115611acf578554945085611a6d600187614108565b81548110611a7d57611a7d614143565b9060005260206000200154868281548110611a9a57611a9a614143565b906000526020600020018190555085805480611ab857611ab861428f565b600190038181906000526020600020016000905590555b600101611a27565b50845415611ca857848781548110611af157611af1614143565b60009182526020808320909101548a8352600d8252604080842082855290925291206001015490925060ff16905080611b46576000888152600d60209081526040808320858452909152902060030154611b64565b6000888152600d602090815260408083208584529091529020600201545b6000898152600d60205260408082209086015192985091611b87906001906142a5565b63ffffffff168152602080820192909252604090810160009081208b8252600d845282822086835290935220815481546001600160a01b0319166001600160a01b0390911617815560018083018054828401805460ff928316151560ff19821681178355935461010090819004909316151590920261ff001990931661ffff199092169190911791909117905560028084015490830155600380840154908301556004928301549290910191909155855494508590611c469086614108565b81548110611c5657611c56614143565b9060005260206000200154858881548110611c7357611c73614143565b906000526020600020018190555084805480611c9157611c9161428f565b600190038181906000526020600020016000905590555b600081611cb757600854611d3d565b600660009054906101000a90046001600160a01b03166001600160a01b03166386c8e21d6040518163ffffffff1660e01b815260040160206040518083038186803b158015611d0557600080fd5b505afa158015611d19573d6000803e3d6000fd5b505050506040513d601f19601f82011682018060405250810190611d3d91906140c1565b600754604051638eb22cdd60e01b815260048101839052602481018a9052600060448201529192506001600160a01b031690630411b2529030908d9085908590638eb22cdd9060640160206040518083038186803b158015611d9e57600080fd5b505afa158015611db2573d6000803e3d6000fd5b505050506040513d601f19601f82011682018060405250810190611dd691906140c1565b6040516001600160e01b031960e087901b1681526001600160a01b03948516600482015293909216602484015260448301526064820152608401600060405180830381600087803b158015611e2a57600080fd5b505af1158015611e3e573d6000803e3d6000fd5b50505060008a8152600d60209081526040808320878452909152902060010154889150610100900460ff1615611f8f57600354600554600654604080516386c8e21d60e01b815290516001600160a01b0394851694635dd82b369481169316916386c8e21d916004808301926020929190829003018186803b158015611ec357600080fd5b505afa158015611ed7573d6000803e3d6000fd5b505050506040513d601f19601f82011682018060405250810190611efb91906140c1565b6040516001600160e01b031960e085901b1681526001600160a01b0390921660048301526024820152604481018b9052608060648201526000608482015260a40160206040518083038186803b158015611f5457600080fd5b505afa158015611f68573d6000803e3d6000fd5b505050506040513d601f19601f82011682018060405250810190611f8c91906140c1565b90505b896001600160a01b038c16337f2f413fefb30b9c037ba435fc106ac59646343aafb657db7057b5b4ba42d5643786611fc8576000611fca565b8b5b87611fd5578c611fd8565b60005b604080519283526020830191909152810186905242606082015260800160405180910390a4505050505050509392505050565b6000818152600e60209081526040808320815160608181018452915463ffffffff808216835264010000000082048116958301869052600160401b9091041692810183905290939092909161206091906142a5565b63ffffffff1690508067ffffffffffffffff8111156120815761208161418b565b6040519080825280602002602001820160405280156120ba57816020015b6120a7613ce2565b81526020019060019003908161209f5790505b506000858152600d602090815260408220908501519295509163ffffffff16905b846040015163ffffffff1682101561218757600082815260208481526040918290208251808401845281546001600160a01b03168152835160a081018552600183015460ff808216151583526101009091041615158185015260028301549481019490945260038201546060850152600490910154608084015290810191909152865187908390811061217057612170614143565b6020908102919091010152600191820191016120db565b5050505050919050565b600b5460ff166121e35760405162461bcd60e51b815260206004820152601360248201527f4c513a204e6f7420696e697469616c697a656400000000000000000000000000604482015260640161063b565b600a8511156122345760405162461bcd60e51b815260206004820152601460248201527f4c513a207072656d69756d20746f6f2068696768000000000000000000000000604482015260640161063b565b6004546001600160a01b031661228c5760405162461bcd60e51b815260206004820152601860248201527f4c513a20555344302073776170706572206e6f74207365740000000000000000604482015260640161063b565b600654604080516386c8e21d60e01b815290516000926001600160a01b0316916386c8e21d916004808301926020929190829003018186803b1580156122d157600080fd5b505afa1580156122e5573d6000803e3d6000fd5b505050506040513d601f19601f8201168201806040525081019061230991906140c1565b60075460048054604051638eb22cdd60e01b815291820189905260248201889052600060448301529293506001600160a01b0391821692630411b25292339291169089908590638eb22cdd9060640160206040518083038186803b15801561237057600080fd5b505afa158015612384573d6000803e3d6000fd5b505050506040513d601f19601f820116820180604052508101906123a891906140c1565b6040516001600160e01b031960e087901b1681526001600160a01b03948516600482015293909216602484015260448301526064820152608401600060405180830381600087803b1580156123fc57600080fd5b505af1158015612410573d6000803e3d6000fd5b505060048054600554604051632da475e360e21b8152600095506001600160a01b03928316945063b691d78c9361245393909216918b918b918b918b91016142ca565b602060405180830381600087803b15801561246d57600080fd5b505af1158015612481573d6000803e3d6000fd5b505050506040513d601f19601f820116820180604052508101906124a591906140c1565b905060006124b68989846001612f78565b9050600081602001516124cd578160400151612572565b6003546005546040517f5dd82b360000000000000000000000000000000000000000000000000000000081526001600160a01b0392831692635dd82b369261252292911690889088908c908c906004016142ca565b60206040518083038186803b15801561253a57600080fd5b505afa15801561254e573d6000803e3d6000fd5b505050506040513d601f19601f8201168201806040525081019061257291906140c1565b6001549091508110156125c75760405162461bcd60e51b815260206004820152600f60248201527f4c513a2062696420746f6f206c6f770000000000000000000000000000000000604482015260640161063b565b50505050505050505050565b6000818152600c6020908152604080832033845290915281205460ff1680612617576000838152600c60209081526040808320338452909152902060020154612635565b6000838152600c602090815260408083203384529091529020600101545b6000848152600c602090815260408083203384529091528120805461ffff191680825560018201839055600282018390556003909101919091559092508290610100900460ff16156127a257600354600554600654604080516386c8e21d60e01b815290516001600160a01b0394851694635dd82b369481169316916386c8e21d916004808301926020929190829003018186803b1580156126d657600080fd5b505afa1580156126ea573d6000803e3d6000fd5b505050506040513d601f19601f8201168201806040525081019061270e91906140c1565b6040516001600160e01b031960e085901b1681526001600160a01b039092166004830152602482015260448101869052608060648201526000608482015260a40160206040518083038186803b15801561276757600080fd5b505afa15801561277b573d6000803e3d6000fd5b505050506040513d601f19601f8201168201806040525081019061279f91906140c1565b90505b6001548110156127f45760405162461bcd60e51b815260206004820152601660248201527f4c513a2062696420646f6573206e6f7420657869737400000000000000000000604482015260640161063b565b60008261280357600854612889565b600660009054906101000a90046001600160a01b03166001600160a01b03166386c8e21d6040518163ffffffff1660e01b815260040160206040518083038186803b15801561285157600080fd5b505afa158015612865573d6000803e3d6000fd5b505050506040513d601f19601f8201168201806040525081019061288991906140c1565b600754604051638eb22cdd60e01b81526004810183905260248101879052600060448201529192506001600160a01b031690630411b252903090899085908590638eb22cdd9060640160206040518083038186803b1580156128ea57600080fd5b505afa1580156128fe573d6000803e3d6000fd5b505050506040513d601f19601f8201168201806040525081019061292291906140c1565b6040516001600160e01b031960e087901b1681526001600160a01b03948516600482015293909216602484015260448301526064820152608401600060405180830381600087803b15801561297657600080fd5b505af115801561298a573d6000803e3d6000fd5b5050505084866001600160a01b0316336001600160a01b03167f2f413fefb30b9c037ba435fc106ac59646343aafb657db7057b5b4ba42d56437866129d05760006129d2565b875b876129dd57886129e0565b60005b604080519283526020830191909152810187905242606082015260800160405180910390a450505092915050565b600b5460ff1615612a615760405162461bcd60e51b815260206004820152600f60248201527f4c513a20496e697469616c697a65640000000000000000000000000000000000604482015260640161063b565b816000612a6e8282614317565b5050600580546001600160a01b0319166001600160a01b038316908117909155604080517feec0f42e000000000000000000000000000000000000000000000000000000008152905163eec0f42e91600480820192602092909190829003018186803b158015612add57600080fd5b505afa158015612af1573d6000803e3d6000fd5b505050506040513d601f19601f82011682018060405250810190612b1591906140c1565b600a55600554604080517f44de240a00000000000000000000000000000000000000000000000000000000815290516001600160a01b03909216916344de240a91600480820192602092909190829003018186803b158015612b7657600080fd5b505afa158015612b8a573d6000803e3d6000fd5b505050506040513d601f19601f82011682018060405250810190612bae91906140c1565b600955600554604080517f4a50ed2700000000000000000000000000000000000000000000000000000000815290516001600160a01b0390921691634a50ed2791600480820192602092909190829003018186803b158015612c0f57600080fd5b505afa158015612c23573d6000803e3d6000fd5b505050506040513d601f19601f82011682018060405250810190612c4791906143ad565b600680546001600160a01b0319166001600160a01b03928316179055600554604080517fde4065770000000000000000000000000000000000000000000000000000000081529051919092169163de406577916004808301926020929190829003018186803b158015612cb957600080fd5b505afa158015612ccd573d6000803e3d6000fd5b505050506040513d601f19601f82011682018060405250810190612cf191906143ad565b600780546001600160a01b0319166001600160a01b0392909216919091179055612d19613a85565b600855600554604080517f38d52e0f00000000000000000000000000000000000000000000000000000000815290516001600160a01b03909216916338d52e0f91600480820192602092909190829003018186803b158015612d7a57600080fd5b505afa158015612d8e573d6000803e3d6000fd5b505050506040513d601f19601f82011682018060405250810190612db291906143ad565b6007546040517f095ea7b30000000000000000000000000000000000000000000000000000000081526001600160a01b039182166004820152600019602482015291169063095ea7b390604401602060405180830381600087803b158015612e1957600080fd5b505af1158015612e2d573d6000803e3d6000fd5b505050506040513d601f19601f82011682018060405250810190612e5191906143ca565b506007546005546040517fa22cb4650000000000000000000000000000000000000000000000000000000081526001600160a01b0391821660048201526001602482015291169063a22cb46590604401600060405180830381600087803b158015612ebb57600080fd5b505af1158015612ecf573d6000803e3d6000fd5b5050505060005b600a8111612f6657604080516060810182526000602080830182815283850183815263ffffffff8088168652878552600e9093529490922092518354925194518216600160401b026bffffffff0000000000000000199583166401000000000267ffffffffffffffff1990941691909216179190911792909216919091179055612f5f81614170565b9050612ed6565b5050600b805460ff1916600117905550565b612fae6040518060a001604052806000151581526020016000151581526020016000815260200160008152602001600081525090565b81612fba576000612fbc565b825b604082015281612fcc5782612fcf565b60005b606082015242608082015281158015825282906130735750600660009054906101000a90046001600160a01b03166001600160a01b03166386c8e21d6040518163ffffffff1660e01b815260040160206040518083038186803b15801561303557600080fd5b505afa158015613049573d6000803e3d6000fd5b505050506040513d601f19601f8201168201806040525081019061306d91906140c1565b60085414155b151560208281019182526000868152600c825260408082206001600160a01b038a1680845293529081902084518154945161ffff1990951690151561ff001916176101009415159490940293909317835583015160018301556060830151600283015560808301516003909201919091558490337fbaa682830cade78a3affa9fa3c417095d0edb57605b0ac6fb487ce2068204ce985613114576000613116565b865b866131215787613124565b60005b604080519283526020830191909152429082015260600160405180910390a46001600160a01b0385166000908152600f6020908152604080832087845282528083208054600e84528285208351606081018552905463ffffffff80821683526401000000008204811696830196909652600160401b900490941692840192909252929091905b8281101561325957816020015163ffffffff168482815481106131cf576131cf614143565b9060005260206000200154106132515783549250836131ef600185614108565b815481106131ff576131ff614143565b906000526020600020015484828154811061321c5761321c614143565b90600052602060002001819055508380548061323a5761323a61428f565b600190038181906000526020600020016000905590555b6001016131aa565b50505050949350505050565b600080846000015161327b578460600151613281565b84604001515b90506000856020015161329457816133b8565b600354600554600654604080516386c8e21d60e01b815290516001600160a01b0394851694635dd82b369481169316916386c8e21d916004808301926020929190829003018186803b1580156132e957600080fd5b505afa1580156132fd573d6000803e3d6000fd5b505050506040513d601f19601f8201168201806040525081019061332191906140c1565b6040808b015190516001600160e01b031960e086901b1681526001600160a01b03909316600484015260248301919091526044820152608060648201526000608482015260a40160206040518083038186803b15801561338057600080fd5b505afa158015613394573d6000803e3d6000fd5b505050506040513d601f19601f820116820180604052508101906133b891906140c1565b90506133cf6133c78287613bd5565b856000613bf4565b925050505b9392505050565b6000806133f36133eb8787613c57565b856001613bf4565b91506000600660009054906101000a90046001600160a01b03166001600160a01b03166386c8e21d6040518163ffffffff1660e01b815260040160206040518083038186803b15801561344557600080fd5b505afa158015613459573d6000803e3d6000fd5b505050506040513d601f19601f8201168201806040525081019061347d91906140c1565b9050876020015115613729576003546005546040517ffef744fa0000000000000000000000000000000000000000000000000000000081526001600160a01b0391821660048201526024810184905260448101869052608060648201526000608482015291169063fef744fa9060a40160206040518083038186803b15801561350557600080fd5b505afa158015613519573d6000803e3d6000fd5b505050506040513d601f19601f8201168201806040525081019061353d91906140c1565b600754600354604051638eb22cdd60e01b81526004810185905260248101849052600060448201529294506001600160a01b0391821692630411b252923092169085908590638eb22cdd9060640160206040518083038186803b1580156135a357600080fd5b505afa1580156135b7573d6000803e3d6000fd5b505050506040513d601f19601f820116820180604052508101906135db91906140c1565b6040516001600160e01b031960e087901b1681526001600160a01b03948516600482015293909216602484015260448301526064820152608401600060405180830381600087803b15801561362f57600080fd5b505af1158015613643573d6000803e3d6000fd5b5050600354600554604051632da475e360e21b8152600094506001600160a01b03928316935063b691d78c92613683921690869088908b906004016143ec565b602060405180830381600087803b15801561369d57600080fd5b505af11580156136b1573d6000803e3d6000fd5b505050506040513d601f19601f820116820180604052508101906136d591906140c1565b9050838110156137275760405162461bcd60e51b815260206004820152601460248201527f6e6565642d6d6f72652d636f6c6c61746572616c000000000000000000000000604482015260640161063b565b505b509550959350505050565b60608501516040860151602087015186919015613a7a57600754600354600654604080516386c8e21d60e01b815290516001600160a01b0394851694630411b252943094908216939116916386c8e21d91600480820192602092909190829003018186803b1580156137a557600080fd5b505afa1580156137b9573d6000803e3d6000fd5b505050506040513d601f19601f820116820180604052508101906137dd91906140c1565b600754600654604080516386c8e21d60e01b815290516001600160a01b0393841693638eb22cdd9316916386c8e21d916004808301926020929190829003018186803b15801561382c57600080fd5b505afa158015613840573d6000803e3d6000fd5b505050506040513d601f19601f8201168201806040525081019061386491906140c1565b8f6040015160006040518463ffffffff1660e01b815260040161389c9392919092835260208301919091521515604082015260600190565b60206040518083038186803b1580156138b457600080fd5b505afa1580156138c8573d6000803e3d6000fd5b505050506040513d601f19601f820116820180604052508101906138ec91906140c1565b6040516001600160e01b031960e087901b1681526001600160a01b03948516600482015293909216602484015260448301526064820152608401600060405180830381600087803b15801561394057600080fd5b505af1158015613954573d6000803e3d6000fd5b5050600354600554600654604080516386c8e21d60e01b815290516001600160a01b03948516965063b691d78c955092841693909116916386c8e21d91600480820192602092909190829003018186803b1580156139b157600080fd5b505afa1580156139c5573d6000803e3d6000fd5b505050506040513d601f19601f820116820180604052508101906139e991906140c1565b8b60400151886040518563ffffffff1660e01b8152600401613a0e94939291906143ec565b602060405180830381600087803b158015613a2857600080fd5b505af1158015613a3c573d6000803e3d6000fd5b505050506040513d601f19601f82011682018060405250810190613a6091906140c1565b9250613a77613a6f8488613bd5565b866000613bf4565b91505b955095509592505050565b6007546009546040517fcf35bdd000000000000000000000000000000000000000000000000000000000815260009283926001600160a01b039091169163cf35bdd091613ad89160040190815260200190565b60806040518083038186803b158015613af057600080fd5b505afa158015613b04573d6000803e3d6000fd5b505050506040513d601f19601f82011682018060405250810190613b289190614424565b50506007546040517fb061db940000000000000000000000000000000000000000000000000000000081529193506001600160a01b0316915063b061db9490613b7d9060019085906000908190600401614491565b602060405180830381600087803b158015613b9757600080fd5b505af1158015613bab573d6000803e3d6000fd5b505050506040513d601f19601f82011682018060405250810190613bcf91906140c1565b91505090565b6000670de0b6b3a7640000613bea838561424e565b6133d4919061426d565b6000806127106064613c06868861424e565b613c10919061424e565b613c1a919061426d565b90506000836001811115613c3057613c3061447b565b14613c4457613c3f8186614108565b613c4e565b613c4e81866140f0565b95945050505050565b600081613bea670de0b6b3a76400008561424e565b6040805161014081018252600080825260208083018290528351606080820186528382529181018390528085019290925292820152908101613cac613ce2565b8152602001613cb9613ce2565b815260200160008152602001600081526020016000815260200160008152602001600081525090565b604051806040016040528060006001600160a01b03168152602001613d336040518060a001604052806000151581526020016000151581526020016000815260200160008152602001600081525090565b905290565b6001600160a01b0381168114613d4d57600080fd5b50565b600080600060608486031215613d6557600080fd5b8335613d7081613d38565b95602085013595506040909401359392505050565b600060208284031215613d9757600080fd5b81356133d481613d38565b60008083601f840112613db457600080fd5b50813567ffffffffffffffff811115613dcc57600080fd5b602083019150836020828501011115613de457600080fd5b9250929050565b600080600060408486031215613e0057600080fd5b83359250602084013567ffffffffffffffff811115613e1e57600080fd5b613e2a86828701613da2565b9497909650939450505050565b600060208284031215613e4957600080fd5b5035919050565b60008060408385031215613e6357600080fd5b8235613e6e81613d38565b946020939093013593505050565b60005b83811015613e97578181015183820152602001613e7f565b83811115613ea6576000848401525b50505050565b60008151808452613ec4816020860160208601613e7c565b601f01601f19169290920160200192915050565b6020815260006133d46020830184613eac565b60008060408385031215613efe57600080fd5b50508035926020909101359150565b6001600160a01b038316815260c081016133d460208301848051151582526020810151151560208301526040810151604083015260608101516060830152608081015160808301525050565b6020808252825182820181905260009190848201906040850190845b81811015613fde57835180516001600160a01b03168452850151613fca868501828051151582526020810151151560208301526040810151604083015260608101516060830152608081015160808301525050565b509284019260c09290920191600101613f75565b50909695505050505050565b60008060408385031215613ffd57600080fd5b82359150602083013561400f81613d38565b809150509250929050565b60008060008060008060a0878903121561403357600080fd5b863561403e81613d38565b9550602087013594506040870135935060608701359250608087013567ffffffffffffffff81111561406f57600080fd5b61407b89828a01613da2565b979a9699509497509295939492505050565b60008082840360c08112156140a157600080fd5b60a08112156140af57600080fd5b5082915060a083013561400f81613d38565b6000602082840312156140d357600080fd5b5051919050565b634e487b7160e01b600052601160045260246000fd5b60008219821115614103576141036140da565b500190565b60008282101561411a5761411a6140da565b500390565b6000806040838503121561413257600080fd5b505080516020909101519092909150565b634e487b7160e01b600052603260045260246000fd5b600081614168576141686140da565b506000190190565b6000600019821415614184576141846140da565b5060010190565b634e487b7160e01b600052604160045260246000fd5b6000602082840312156141b357600080fd5b815167ffffffffffffffff808211156141cb57600080fd5b818401915084601f8301126141df57600080fd5b8151818111156141f1576141f161418b565b604051601f8201601f19908116603f011681019083821181831017156142195761421961418b565b8160405282815287602084870101111561423257600080fd5b614243836020830160208801613e7c565b979650505050505050565b6000816000190483118215151615614268576142686140da565b500290565b60008261428a57634e487b7160e01b600052601260045260246000fd5b500490565b634e487b7160e01b600052603160045260246000fd5b600063ffffffff838116908316818110156142c2576142c26140da565b039392505050565b6001600160a01b038616815284602082015283604082015260806060820152816080820152818360a0830137600081830160a090810191909152601f909201601f19160101949350505050565b8135815560208201356001820155604082013561433381613d38565b6002820180546001600160a01b0319166001600160a01b03831617905550606082013561435f81613d38565b6003820180546001600160a01b0319166001600160a01b03831617905550608082013561438b81613d38565b6004820180546001600160a01b0319166001600160a01b038316179055505050565b6000602082840312156143bf57600080fd5b81516133d481613d38565b6000602082840312156143dc57600080fd5b815180151581146133d457600080fd5b6001600160a01b038516815283602082015282604082015260806060820152600061441a6080830184613eac565b9695505050505050565b6000806000806080858703121561443a57600080fd5b84516005811061444957600080fd5b602086015190945061445a81613d38565b604086015190935061446b81613d38565b6060959095015193969295505050565b634e487b7160e01b600052602160045260246000fd5b60808101600586106144b357634e487b7160e01b600052602160045260246000fd5b9481526001600160a01b039384166020820152919092166040820152606001529056fea264697066735822122073ebebb3123347c54c1ab774b4e51768f75bba179bb2262f6c200c73f9eef34e64736f6c63430008090033",
  "devdoc": {
    "author": "@0xRektora, TapiocaDAO",
    "kind": "dev",
    "methods": {
      "activateBid(address,uint256)": {
        "details": "Create an entry in `orderBook` and remove it from `bidPools`.Spam vector attack is mitigated the min amount req., 10min CD + activation fees.",
        "params": {
          "pool": "The target pool.",
          "user": "The user to activate the bid for."
        }
      },
      "bid(address,uint256,uint256)": {
        "details": "Create an entry in `bidPools`.      Clean the userBidIndex here instead of the `executeBids()` function to save on gas.",
        "params": {
          "amount": "The amount in asset to bid.",
          "pool": "To which pool the bid should go.",
          "user": "The bidder."
        }
      },
      "bidWithStable(address,uint256,uint256,uint256,bytes)": {
        "details": "Works the same way as `bid` but performs a swap from the stablecoin to USDO      - if stableAssetId == usdoAssetId, no swap is performed",
        "params": {
          "amountIn": "Stablecoin amount",
          "data": "Extra data for swap operations",
          "pool": "To which pool the bid should go",
          "stableAssetId": "Stablecoin YieldBox asset id",
          "user": "The bidder"
        }
      },
      "executeBids(uint256,bytes)": {
        "details": "Should only be called from Mixologist.      Mixologist should send the `collateralAmountToLiquidate` to this contract before calling this function. Tx will fail if it can't transfer allowed BeachBar asset from Mixologist.",
        "params": {
          "collateralAmountToLiquidate": "The amount of collateral to liquidate.",
          "swapData": "Swap data necessary for swapping USD0 to market asset; necessary only if bidder added USD0"
        },
        "returns": {
          "totalAmountExecuted": "The amount of asset that was executed.",
          "totalCollateralLiquidated": "The amount of collateral that was liquidated."
        }
      },
      "getNextAvailBidPool()": {
        "returns": {
          "available": "True if there is at least 1 bid available across all the order books.",
          "i": "The bid pool id."
        }
      },
      "init((uint256,uint256,address,address,address),address)": {
        "params": {
          "_liquidationQueueMeta": "Info about the liquidations."
        }
      },
      "redeem(address)": {
        "details": "`msg.sender` is used as the redeemer.",
        "params": {
          "to": "The address to redeem to."
        }
      },
      "removeBid(address,uint256,uint256)": {
        "details": "Clean the userBidIndex here instead of the `executeBids()` function to save on gas.      To prevent DoS attacks on `executeBids()` and gas costs, the last activated bid      will take the position of the removed bid.",
        "params": {
          "bidPosition": "The position of the bid index inside the `userBidIndexes[msg.sender][pool]`.",
          "pool": "The target pool.",
          "user": "The user to send the funds to."
        },
        "returns": {
          "amountRemoved": "The amount of the bid removed."
        }
      },
      "removeInactivatedBid(address,uint256)": {
        "details": "Remove `msg.sender` funds.",
        "params": {
          "pool": "The pool to remove the bid from.",
          "user": "The user to send the funds to."
        },
        "returns": {
          "amountRemoved": "The amount of the bid."
        }
      },
      "setBidExecutionSwapper(address)": {
        "params": {
          "_swapper": "thew new ICollateralSwaper contract address"
        }
      },
      "setUsdoSwapper(address)": {
        "params": {
          "_swapper": "thew new ICollateralSwaper contract address"
        }
      }
    },
    "title": "LiquidationQueue",
    "version": 1
  },
  "userdoc": {
    "kind": "user",
    "methods": {
      "activateBid(address,uint256)": {
        "notice": "Activate a bid by putting it in the order book."
      },
      "bid(address,uint256,uint256)": {
        "notice": "Add a bid to a bid pool."
      },
      "bidPools(uint256,address)": {
        "notice": "Pools & order books information."
      },
      "bidWithStable(address,uint256,uint256,uint256,bytes)": {
        "notice": "Add a bid to a bid pool using stablecoins."
      },
      "executeBids(uint256,bytes)": {
        "notice": "Execute the liquidation call by executing the bids placed in the pools in ASC order."
      },
      "getNextAvailBidPool()": {
        "notice": "Get the next not empty bid pool in ASC order."
      },
      "init((uint256,uint256,address,address,address),address)": {
        "notice": "Acts as a 'constructor', should be called by a Mixologist market."
      },
      "liquidationQueueMeta()": {
        "notice": "General information about the LiquidationQueue contract."
      },
      "redeem(address)": {
        "notice": "Redeem a balance."
      },
      "removeBid(address,uint256,uint256)": {
        "notice": "Remove an activated bid from a given pool."
      },
      "removeInactivatedBid(address,uint256)": {
        "notice": "Remove a not yet activated bid from the bid pool."
      },
      "setBidExecutionSwapper(address)": {
        "notice": "updates the bid swapper address"
      },
      "setUsdoSwapper(address)": {
        "notice": "updates the bid swapper address"
      },
      "userBidIndexes(address,uint256,uint256)": {
        "notice": "Ledger."
      }
    },
    "version": 1
  },
  "storageLayout": {
    "storage": [
      {
        "astId": 4125,
        "contract": "contracts/liquidationQueue/LiquidationQueue.sol:LiquidationQueue",
        "label": "liquidationQueueMeta",
        "offset": 0,
        "slot": "0",
        "type": "t_struct(LiquidationQueueMeta)4066_storage"
      },
      {
        "astId": 4128,
        "contract": "contracts/liquidationQueue/LiquidationQueue.sol:LiquidationQueue",
        "label": "mixologist",
        "offset": 0,
        "slot": "5",
        "type": "t_contract(IMixologist)12120"
      },
      {
        "astId": 4131,
        "contract": "contracts/liquidationQueue/LiquidationQueue.sol:LiquidationQueue",
        "label": "beachBar",
        "offset": 0,
        "slot": "6",
        "type": "t_contract(IBeachBar)3128"
      },
      {
        "astId": 4134,
        "contract": "contracts/liquidationQueue/LiquidationQueue.sol:LiquidationQueue",
        "label": "yieldBox",
        "offset": 0,
        "slot": "7",
        "type": "t_contract(YieldBox)17190"
      },
      {
        "astId": 4136,
        "contract": "contracts/liquidationQueue/LiquidationQueue.sol:LiquidationQueue",
        "label": "lqAssetId",
        "offset": 0,
        "slot": "8",
        "type": "t_uint256"
      },
      {
        "astId": 4138,
        "contract": "contracts/liquidationQueue/LiquidationQueue.sol:LiquidationQueue",
        "label": "marketAssetId",
        "offset": 0,
        "slot": "9",
        "type": "t_uint256"
      },
      {
        "astId": 4140,
        "contract": "contracts/liquidationQueue/LiquidationQueue.sol:LiquidationQueue",
        "label": "liquidatedAssetId",
        "offset": 0,
        "slot": "10",
        "type": "t_uint256"
      },
      {
        "astId": 4142,
        "contract": "contracts/liquidationQueue/LiquidationQueue.sol:LiquidationQueue",
        "label": "onlyOnce",
        "offset": 0,
        "slot": "11",
        "type": "t_bool"
      },
      {
        "astId": 4150,
        "contract": "contracts/liquidationQueue/LiquidationQueue.sol:LiquidationQueue",
        "label": "bidPools",
        "offset": 0,
        "slot": "12",
        "type": "t_mapping(t_uint256,t_mapping(t_address,t_struct(Bidder)4040_storage))"
      },
      {
        "astId": 4157,
        "contract": "contracts/liquidationQueue/LiquidationQueue.sol:LiquidationQueue",
        "label": "orderBookEntries",
        "offset": 0,
        "slot": "13",
        "type": "t_mapping(t_uint256,t_mapping(t_uint256,t_struct(OrderBookPoolEntry)4046_storage))"
      },
      {
        "astId": 4162,
        "contract": "contracts/liquidationQueue/LiquidationQueue.sol:LiquidationQueue",
        "label": "orderBookInfos",
        "offset": 0,
        "slot": "14",
        "type": "t_mapping(t_uint256,t_struct(OrderBookPoolInfo)4053_storage)"
      },
      {
        "astId": 4170,
        "contract": "contracts/liquidationQueue/LiquidationQueue.sol:LiquidationQueue",
        "label": "userBidIndexes",
        "offset": 0,
        "slot": "15",
        "type": "t_mapping(t_address,t_mapping(t_uint256,t_array(t_uint256)dyn_storage))"
      },
      {
        "astId": 4174,
        "contract": "contracts/liquidationQueue/LiquidationQueue.sol:LiquidationQueue",
        "label": "balancesDue",
        "offset": 0,
        "slot": "16",
        "type": "t_mapping(t_address,t_uint256)"
      }
    ],
    "types": {
      "t_address": {
        "encoding": "inplace",
        "label": "address",
        "numberOfBytes": "20"
      },
      "t_array(t_uint256)dyn_storage": {
        "base": "t_uint256",
        "encoding": "dynamic_array",
        "label": "uint256[]",
        "numberOfBytes": "32"
      },
      "t_bool": {
        "encoding": "inplace",
        "label": "bool",
        "numberOfBytes": "1"
      },
      "t_contract(IBeachBar)3128": {
        "encoding": "inplace",
        "label": "contract IBeachBar",
        "numberOfBytes": "20"
      },
      "t_contract(IBidder)6967": {
        "encoding": "inplace",
        "label": "contract IBidder",
        "numberOfBytes": "20"
      },
      "t_contract(IMixologist)12120": {
        "encoding": "inplace",
        "label": "contract IMixologist",
        "numberOfBytes": "20"
      },
      "t_contract(YieldBox)17190": {
        "encoding": "inplace",
        "label": "contract YieldBox",
        "numberOfBytes": "20"
      },
      "t_mapping(t_address,t_mapping(t_uint256,t_array(t_uint256)dyn_storage))": {
        "encoding": "mapping",
        "key": "t_address",
        "label": "mapping(address => mapping(uint256 => uint256[]))",
        "numberOfBytes": "32",
        "value": "t_mapping(t_uint256,t_array(t_uint256)dyn_storage)"
      },
      "t_mapping(t_address,t_struct(Bidder)4040_storage)": {
        "encoding": "mapping",
        "key": "t_address",
        "label": "mapping(address => struct Bidder)",
        "numberOfBytes": "32",
        "value": "t_struct(Bidder)4040_storage"
      },
      "t_mapping(t_address,t_uint256)": {
        "encoding": "mapping",
        "key": "t_address",
        "label": "mapping(address => uint256)",
        "numberOfBytes": "32",
        "value": "t_uint256"
      },
      "t_mapping(t_uint256,t_array(t_uint256)dyn_storage)": {
        "encoding": "mapping",
        "key": "t_uint256",
        "label": "mapping(uint256 => uint256[])",
        "numberOfBytes": "32",
        "value": "t_array(t_uint256)dyn_storage"
      },
      "t_mapping(t_uint256,t_mapping(t_address,t_struct(Bidder)4040_storage))": {
        "encoding": "mapping",
        "key": "t_uint256",
        "label": "mapping(uint256 => mapping(address => struct Bidder))",
        "numberOfBytes": "32",
        "value": "t_mapping(t_address,t_struct(Bidder)4040_storage)"
      },
      "t_mapping(t_uint256,t_mapping(t_uint256,t_struct(OrderBookPoolEntry)4046_storage))": {
        "encoding": "mapping",
        "key": "t_uint256",
        "label": "mapping(uint256 => mapping(uint256 => struct OrderBookPoolEntry))",
        "numberOfBytes": "32",
        "value": "t_mapping(t_uint256,t_struct(OrderBookPoolEntry)4046_storage)"
      },
      "t_mapping(t_uint256,t_struct(OrderBookPoolEntry)4046_storage)": {
        "encoding": "mapping",
        "key": "t_uint256",
        "label": "mapping(uint256 => struct OrderBookPoolEntry)",
        "numberOfBytes": "32",
        "value": "t_struct(OrderBookPoolEntry)4046_storage"
      },
      "t_mapping(t_uint256,t_struct(OrderBookPoolInfo)4053_storage)": {
        "encoding": "mapping",
        "key": "t_uint256",
        "label": "mapping(uint256 => struct OrderBookPoolInfo)",
        "numberOfBytes": "32",
        "value": "t_struct(OrderBookPoolInfo)4053_storage"
      },
      "t_struct(Bidder)4040_storage": {
        "encoding": "inplace",
        "label": "struct Bidder",
        "members": [
          {
            "astId": 4031,
            "contract": "contracts/liquidationQueue/LiquidationQueue.sol:LiquidationQueue",
            "label": "isUsdo",
            "offset": 0,
            "slot": "0",
            "type": "t_bool"
          },
          {
            "astId": 4033,
            "contract": "contracts/liquidationQueue/LiquidationQueue.sol:LiquidationQueue",
            "label": "swapOnExecute",
            "offset": 1,
            "slot": "0",
            "type": "t_bool"
          },
          {
            "astId": 4035,
            "contract": "contracts/liquidationQueue/LiquidationQueue.sol:LiquidationQueue",
            "label": "usdoAmount",
            "offset": 0,
            "slot": "1",
            "type": "t_uint256"
          },
          {
            "astId": 4037,
            "contract": "contracts/liquidationQueue/LiquidationQueue.sol:LiquidationQueue",
            "label": "liquidatedAssetAmount",
            "offset": 0,
            "slot": "2",
            "type": "t_uint256"
          },
          {
            "astId": 4039,
            "contract": "contracts/liquidationQueue/LiquidationQueue.sol:LiquidationQueue",
            "label": "timestamp",
            "offset": 0,
            "slot": "3",
            "type": "t_uint256"
          }
        ],
        "numberOfBytes": "128"
      },
      "t_struct(LiquidationQueueMeta)4066_storage": {
        "encoding": "inplace",
        "label": "struct LiquidationQueueMeta",
        "members": [
          {
            "astId": 4055,
            "contract": "contracts/liquidationQueue/LiquidationQueue.sol:LiquidationQueue",
            "label": "activationTime",
            "offset": 0,
            "slot": "0",
            "type": "t_uint256"
          },
          {
            "astId": 4057,
            "contract": "contracts/liquidationQueue/LiquidationQueue.sol:LiquidationQueue",
            "label": "minBidAmount",
            "offset": 0,
            "slot": "1",
            "type": "t_uint256"
          },
          {
            "astId": 4059,
            "contract": "contracts/liquidationQueue/LiquidationQueue.sol:LiquidationQueue",
            "label": "feeCollector",
            "offset": 0,
            "slot": "2",
            "type": "t_address"
          },
          {
            "astId": 4062,
            "contract": "contracts/liquidationQueue/LiquidationQueue.sol:LiquidationQueue",
            "label": "bidExecutionSwapper",
            "offset": 0,
            "slot": "3",
            "type": "t_contract(IBidder)6967"
          },
          {
            "astId": 4065,
            "contract": "contracts/liquidationQueue/LiquidationQueue.sol:LiquidationQueue",
            "label": "usdoSwapper",
            "offset": 0,
            "slot": "4",
            "type": "t_contract(IBidder)6967"
          }
        ],
        "numberOfBytes": "160"
      },
      "t_struct(OrderBookPoolEntry)4046_storage": {
        "encoding": "inplace",
        "label": "struct OrderBookPoolEntry",
        "members": [
          {
            "astId": 4042,
            "contract": "contracts/liquidationQueue/LiquidationQueue.sol:LiquidationQueue",
            "label": "bidder",
            "offset": 0,
            "slot": "0",
            "type": "t_address"
          },
          {
            "astId": 4045,
            "contract": "contracts/liquidationQueue/LiquidationQueue.sol:LiquidationQueue",
            "label": "bidInfo",
            "offset": 0,
            "slot": "1",
            "type": "t_struct(Bidder)4040_storage"
          }
        ],
        "numberOfBytes": "160"
      },
      "t_struct(OrderBookPoolInfo)4053_storage": {
        "encoding": "inplace",
        "label": "struct OrderBookPoolInfo",
        "members": [
          {
            "astId": 4048,
            "contract": "contracts/liquidationQueue/LiquidationQueue.sol:LiquidationQueue",
            "label": "poolId",
            "offset": 0,
            "slot": "0",
            "type": "t_uint32"
          },
          {
            "astId": 4050,
            "contract": "contracts/liquidationQueue/LiquidationQueue.sol:LiquidationQueue",
            "label": "nextBidPull",
            "offset": 4,
            "slot": "0",
            "type": "t_uint32"
          },
          {
            "astId": 4052,
            "contract": "contracts/liquidationQueue/LiquidationQueue.sol:LiquidationQueue",
            "label": "nextBidPush",
            "offset": 8,
            "slot": "0",
            "type": "t_uint32"
          }
        ],
        "numberOfBytes": "32"
      },
      "t_uint256": {
        "encoding": "inplace",
        "label": "uint256",
        "numberOfBytes": "32"
      },
      "t_uint32": {
        "encoding": "inplace",
        "label": "uint32",
        "numberOfBytes": "4"
      }
    }
  }
}