{
  "address": "0x7024d8d061109884d7917b19af8ed8a821f8b011",
  "abi": [
    {
      "inputs": [
        {
          "internalType": "address",
          "name": "_from",
          "type": "address"
        },
        {
          "internalType": "address",
          "name": "_operator",
          "type": "address"
        }
      ],
      "name": "NotApproved",
      "type": "error"
    },
    {
      "anonymous": false,
      "inputs": [
        {
          "indexed": true,
          "internalType": "address",
          "name": "owner",
          "type": "address"
        },
        {
          "indexed": true,
          "internalType": "address",
          "name": "spender",
          "type": "address"
        },
        {
          "indexed": false,
          "internalType": "uint256",
          "name": "value",
          "type": "uint256"
        }
      ],
      "name": "Approval",
      "type": "event"
    },
    {
      "anonymous": false,
      "inputs": [
        {
          "indexed": false,
          "internalType": "uint256",
          "name": "accruedAmount",
          "type": "uint256"
        },
        {
          "indexed": false,
          "internalType": "uint256",
          "name": "feeFraction",
          "type": "uint256"
        },
        {
          "indexed": false,
          "internalType": "uint64",
          "name": "rate",
          "type": "uint64"
        },
        {
          "indexed": false,
          "internalType": "uint256",
          "name": "utilization",
          "type": "uint256"
        }
      ],
      "name": "LogAccrue",
      "type": "event"
    },
    {
      "anonymous": false,
      "inputs": [
        {
          "indexed": true,
          "internalType": "address",
          "name": "from",
          "type": "address"
        },
        {
          "indexed": true,
          "internalType": "address",
          "name": "to",
          "type": "address"
        },
        {
          "indexed": false,
          "internalType": "uint256",
          "name": "share",
          "type": "uint256"
        },
        {
          "indexed": false,
          "internalType": "uint256",
          "name": "fraction",
          "type": "uint256"
        }
      ],
      "name": "LogAddAsset",
      "type": "event"
    },
    {
      "anonymous": false,
      "inputs": [
        {
          "indexed": true,
          "internalType": "address",
          "name": "from",
          "type": "address"
        },
        {
          "indexed": true,
          "internalType": "address",
          "name": "to",
          "type": "address"
        },
        {
          "indexed": false,
          "internalType": "uint256",
          "name": "share",
          "type": "uint256"
        }
      ],
      "name": "LogAddCollateral",
      "type": "event"
    },
    {
      "anonymous": false,
      "inputs": [
        {
          "indexed": true,
          "internalType": "address",
          "name": "_from",
          "type": "address"
        },
        {
          "indexed": true,
          "internalType": "address",
          "name": "_operator",
          "type": "address"
        },
        {
          "indexed": false,
          "internalType": "bool",
          "name": "_approved",
          "type": "bool"
        }
      ],
      "name": "LogApprovalForAll",
      "type": "event"
    },
    {
      "anonymous": false,
      "inputs": [
        {
          "indexed": true,
          "internalType": "address",
          "name": "from",
          "type": "address"
        },
        {
          "indexed": true,
          "internalType": "address",
          "name": "to",
          "type": "address"
        },
        {
          "indexed": false,
          "internalType": "uint256",
          "name": "amount",
          "type": "uint256"
        },
        {
          "indexed": false,
          "internalType": "uint256",
          "name": "feeAmount",
          "type": "uint256"
        },
        {
          "indexed": false,
          "internalType": "uint256",
          "name": "part",
          "type": "uint256"
        }
      ],
      "name": "LogBorrow",
      "type": "event"
    },
    {
      "anonymous": false,
      "inputs": [
        {
          "indexed": false,
          "internalType": "uint256",
          "name": "_oldVal",
          "type": "uint256"
        },
        {
          "indexed": false,
          "internalType": "uint256",
          "name": "_newVal",
          "type": "uint256"
        }
      ],
      "name": "LogBorrowCapUpdated",
      "type": "event"
    },
    {
      "anonymous": false,
      "inputs": [
        {
          "indexed": false,
          "internalType": "uint256",
          "name": "rate",
          "type": "uint256"
        }
      ],
      "name": "LogExchangeRate",
      "type": "event"
    },
    {
      "anonymous": false,
      "inputs": [
        {
          "indexed": true,
          "internalType": "address",
          "name": "borrower",
          "type": "address"
        },
        {
          "indexed": false,
          "internalType": "uint256",
          "name": "amount",
          "type": "uint256"
        },
        {
          "indexed": false,
          "internalType": "uint256",
          "name": "feeAmount",
          "type": "uint256"
        },
        {
          "indexed": true,
          "internalType": "address",
          "name": "receiver",
          "type": "address"
        }
      ],
      "name": "LogFlashLoan",
      "type": "event"
    },
    {
      "anonymous": false,
      "inputs": [
        {
          "indexed": true,
          "internalType": "address",
          "name": "from",
          "type": "address"
        },
        {
          "indexed": true,
          "internalType": "address",
          "name": "to",
          "type": "address"
        },
        {
          "indexed": false,
          "internalType": "uint256",
          "name": "share",
          "type": "uint256"
        },
        {
          "indexed": false,
          "internalType": "uint256",
          "name": "fraction",
          "type": "uint256"
        }
      ],
      "name": "LogRemoveAsset",
      "type": "event"
    },
    {
      "anonymous": false,
      "inputs": [
        {
          "indexed": true,
          "internalType": "address",
          "name": "from",
          "type": "address"
        },
        {
          "indexed": true,
          "internalType": "address",
          "name": "to",
          "type": "address"
        },
        {
          "indexed": false,
          "internalType": "uint256",
          "name": "share",
          "type": "uint256"
        }
      ],
      "name": "LogRemoveCollateral",
      "type": "event"
    },
    {
      "anonymous": false,
      "inputs": [
        {
          "indexed": true,
          "internalType": "address",
          "name": "from",
          "type": "address"
        },
        {
          "indexed": true,
          "internalType": "address",
          "name": "to",
          "type": "address"
        },
        {
          "indexed": false,
          "internalType": "uint256",
          "name": "amount",
          "type": "uint256"
        },
        {
          "indexed": false,
          "internalType": "uint256",
          "name": "part",
          "type": "uint256"
        }
      ],
      "name": "LogRepay",
      "type": "event"
    },
    {
      "anonymous": false,
      "inputs": [
        {
          "indexed": true,
          "internalType": "address",
          "name": "feeTo",
          "type": "address"
        },
        {
          "indexed": false,
          "internalType": "uint256",
          "name": "feesEarnedFraction",
          "type": "uint256"
        }
      ],
      "name": "LogWithdrawFees",
      "type": "event"
    },
    {
      "anonymous": false,
      "inputs": [
        {
          "indexed": false,
          "internalType": "uint256",
          "name": "feeShares",
          "type": "uint256"
        },
        {
          "indexed": false,
          "internalType": "uint256",
          "name": "tapAmount",
          "type": "uint256"
        }
      ],
      "name": "LogYieldBoxFeesDeposit",
      "type": "event"
    },
    {
      "anonymous": false,
      "inputs": [
        {
          "indexed": true,
          "internalType": "address",
          "name": "previousOwner",
          "type": "address"
        },
        {
          "indexed": true,
          "internalType": "address",
          "name": "newOwner",
          "type": "address"
        }
      ],
      "name": "OwnershipTransferred",
      "type": "event"
    },
    {
      "anonymous": false,
      "inputs": [
        {
          "indexed": true,
          "internalType": "address",
          "name": "from",
          "type": "address"
        },
        {
          "indexed": true,
          "internalType": "address",
          "name": "to",
          "type": "address"
        },
        {
          "indexed": false,
          "internalType": "uint256",
          "name": "value",
          "type": "uint256"
        }
      ],
      "name": "Transfer",
      "type": "event"
    },
    {
      "inputs": [],
      "name": "DOMAIN_SEPARATOR",
      "outputs": [
        {
          "internalType": "bytes32",
          "name": "",
          "type": "bytes32"
        }
      ],
      "stateMutability": "view",
      "type": "function"
    },
    {
      "inputs": [],
      "name": "accrue",
      "outputs": [],
      "stateMutability": "nonpayable",
      "type": "function"
    },
    {
      "inputs": [],
      "name": "accrueInfo",
      "outputs": [
        {
          "internalType": "uint64",
          "name": "interestPerSecond",
          "type": "uint64"
        },
        {
          "internalType": "uint64",
          "name": "lastAccrued",
          "type": "uint64"
        },
        {
          "internalType": "uint128",
          "name": "feesEarnedFraction",
          "type": "uint128"
        }
      ],
      "stateMutability": "view",
      "type": "function"
    },
    {
      "inputs": [
        {
          "internalType": "address",
          "name": "from",
          "type": "address"
        },
        {
          "internalType": "address",
          "name": "to",
          "type": "address"
        },
        {
          "internalType": "bool",
          "name": "skim",
          "type": "bool"
        },
        {
          "internalType": "uint256",
          "name": "share",
          "type": "uint256"
        }
      ],
      "name": "addAsset",
      "outputs": [
        {
          "internalType": "uint256",
          "name": "fraction",
          "type": "uint256"
        }
      ],
      "stateMutability": "nonpayable",
      "type": "function"
    },
    {
      "inputs": [
        {
          "internalType": "address",
          "name": "from",
          "type": "address"
        },
        {
          "internalType": "address",
          "name": "to",
          "type": "address"
        },
        {
          "internalType": "bool",
          "name": "skim",
          "type": "bool"
        },
        {
          "internalType": "uint256",
          "name": "share",
          "type": "uint256"
        }
      ],
      "name": "addCollateral",
      "outputs": [],
      "stateMutability": "nonpayable",
      "type": "function"
    },
    {
      "inputs": [
        {
          "internalType": "address",
          "name": "",
          "type": "address"
        },
        {
          "internalType": "address",
          "name": "",
          "type": "address"
        }
      ],
      "name": "allowance",
      "outputs": [
        {
          "internalType": "uint256",
          "name": "",
          "type": "uint256"
        }
      ],
      "stateMutability": "view",
      "type": "function"
    },
    {
      "inputs": [
        {
          "internalType": "address",
          "name": "spender",
          "type": "address"
        },
        {
          "internalType": "uint256",
          "name": "amount",
          "type": "uint256"
        }
      ],
      "name": "approve",
      "outputs": [
        {
          "internalType": "bool",
          "name": "",
          "type": "bool"
        }
      ],
      "stateMutability": "nonpayable",
      "type": "function"
    },
    {
      "inputs": [],
      "name": "asset",
      "outputs": [
        {
          "internalType": "contract IERC20",
          "name": "",
          "type": "address"
        }
      ],
      "stateMutability": "view",
      "type": "function"
    },
    {
      "inputs": [],
      "name": "assetId",
      "outputs": [
        {
          "internalType": "uint256",
          "name": "",
          "type": "uint256"
        }
      ],
      "stateMutability": "view",
      "type": "function"
    },
    {
      "inputs": [
        {
          "internalType": "address",
          "name": "",
          "type": "address"
        }
      ],
      "name": "balanceOf",
      "outputs": [
        {
          "internalType": "uint256",
          "name": "",
          "type": "uint256"
        }
      ],
      "stateMutability": "view",
      "type": "function"
    },
    {
      "inputs": [],
      "name": "beachBar",
      "outputs": [
        {
          "internalType": "contract BeachBar",
          "name": "",
          "type": "address"
        }
      ],
      "stateMutability": "view",
      "type": "function"
    },
    {
      "inputs": [
        {
          "internalType": "address",
          "name": "from",
          "type": "address"
        },
        {
          "internalType": "address",
          "name": "to",
          "type": "address"
        },
        {
          "internalType": "uint256",
          "name": "amount",
          "type": "uint256"
        }
      ],
      "name": "borrow",
      "outputs": [
        {
          "internalType": "uint256",
          "name": "part",
          "type": "uint256"
        },
        {
          "internalType": "uint256",
          "name": "share",
          "type": "uint256"
        }
      ],
      "stateMutability": "nonpayable",
      "type": "function"
    },
    {
      "inputs": [],
      "name": "claimOwnership",
      "outputs": [],
      "stateMutability": "nonpayable",
      "type": "function"
    },
    {
      "inputs": [],
      "name": "collateral",
      "outputs": [
        {
          "internalType": "contract IERC20",
          "name": "",
          "type": "address"
        }
      ],
      "stateMutability": "view",
      "type": "function"
    },
    {
      "inputs": [],
      "name": "collateralId",
      "outputs": [
        {
          "internalType": "uint256",
          "name": "",
          "type": "uint256"
        }
      ],
      "stateMutability": "view",
      "type": "function"
    },
    {
      "inputs": [
        {
          "internalType": "address",
          "name": "user",
          "type": "address"
        },
        {
          "internalType": "uint256",
          "name": "_exchangeRate",
          "type": "uint256"
        }
      ],
      "name": "computeAssetAmountToSolvency",
      "outputs": [
        {
          "internalType": "uint256",
          "name": "amountToSolvency",
          "type": "uint256"
        }
      ],
      "stateMutability": "view",
      "type": "function"
    },
    {
      "inputs": [],
      "name": "decimals",
      "outputs": [
        {
          "internalType": "uint8",
          "name": "",
          "type": "uint8"
        }
      ],
      "stateMutability": "view",
      "type": "function"
    },
    {
      "inputs": [
        {
          "internalType": "contract MultiSwapper",
          "name": "swapper",
          "type": "address"
        },
        {
          "components": [
            {
              "internalType": "uint256",
              "name": "minAssetAmount",
              "type": "uint256"
            }
          ],
          "internalType": "struct SwapData",
          "name": "swapData",
          "type": "tuple"
        }
      ],
      "name": "depositFeesToYieldBox",
      "outputs": [],
      "stateMutability": "nonpayable",
      "type": "function"
    },
    {
      "inputs": [],
      "name": "exchangeRate",
      "outputs": [
        {
          "internalType": "uint256",
          "name": "",
          "type": "uint256"
        }
      ],
      "stateMutability": "view",
      "type": "function"
    },
    {
      "inputs": [
        {
          "internalType": "bytes[]",
          "name": "calls",
          "type": "bytes[]"
        },
        {
          "internalType": "bool",
          "name": "revertOnFail",
          "type": "bool"
        }
      ],
      "name": "execute",
      "outputs": [
        {
          "internalType": "bool[]",
          "name": "successes",
          "type": "bool[]"
        },
        {
          "internalType": "string[]",
          "name": "results",
          "type": "string[]"
        }
      ],
      "stateMutability": "nonpayable",
      "type": "function"
    },
    {
      "inputs": [
        {
          "internalType": "contract IFlashBorrower",
          "name": "borrower",
          "type": "address"
        },
        {
          "internalType": "address",
          "name": "receiver",
          "type": "address"
        },
        {
          "internalType": "uint256",
          "name": "amount",
          "type": "uint256"
        },
        {
          "internalType": "bytes",
          "name": "data",
          "type": "bytes"
        }
      ],
      "name": "flashLoan",
      "outputs": [],
      "stateMutability": "nonpayable",
      "type": "function"
    },
    {
      "inputs": [
        {
          "internalType": "uint256",
          "name": "fraction",
          "type": "uint256"
        }
      ],
      "name": "getAmountForAssetFraction",
      "outputs": [
        {
          "internalType": "uint256",
          "name": "amount",
          "type": "uint256"
        }
      ],
      "stateMutability": "view",
      "type": "function"
    },
    {
      "inputs": [
        {
          "internalType": "uint256",
          "name": "borrowPart",
          "type": "uint256"
        }
      ],
      "name": "getAmountForBorrowPart",
      "outputs": [
        {
          "internalType": "uint256",
          "name": "amount",
          "type": "uint256"
        }
      ],
      "stateMutability": "view",
      "type": "function"
    },
    {
      "inputs": [
        {
          "internalType": "uint256",
          "name": "share",
          "type": "uint256"
        }
      ],
      "name": "getCollateralAmountForShare",
      "outputs": [
        {
          "internalType": "uint256",
          "name": "amount",
          "type": "uint256"
        }
      ],
      "stateMutability": "view",
      "type": "function"
    },
    {
      "inputs": [
        {
          "internalType": "uint256",
          "name": "borrowPart",
          "type": "uint256"
        }
      ],
      "name": "getCollateralSharesForBorrowPart",
      "outputs": [
        {
          "internalType": "uint256",
          "name": "collateralShares",
          "type": "uint256"
        }
      ],
      "stateMutability": "view",
      "type": "function"
    },
    {
      "inputs": [
        {
          "internalType": "bytes",
          "name": "data",
          "type": "bytes"
        }
      ],
      "name": "init",
      "outputs": [],
      "stateMutability": "nonpayable",
      "type": "function"
    },
    {
      "inputs": [
        {
          "internalType": "address",
          "name": "",
          "type": "address"
        },
        {
          "internalType": "address",
          "name": "",
          "type": "address"
        }
      ],
      "name": "isApprovedForAll",
      "outputs": [
        {
          "internalType": "bool",
          "name": "",
          "type": "bool"
        }
      ],
      "stateMutability": "view",
      "type": "function"
    },
    {
      "inputs": [
        {
          "internalType": "address[]",
          "name": "users",
          "type": "address[]"
        },
        {
          "internalType": "uint256[]",
          "name": "maxBorrowParts",
          "type": "uint256[]"
        },
        {
          "internalType": "contract MultiSwapper",
          "name": "swapper",
          "type": "address"
        },
        {
          "internalType": "bytes",
          "name": "collateralToAssetSwapData",
          "type": "bytes"
        },
        {
          "internalType": "bytes",
          "name": "usdoToBorrowedSwapData",
          "type": "bytes"
        }
      ],
      "name": "liquidate",
      "outputs": [],
      "stateMutability": "nonpayable",
      "type": "function"
    },
    {
      "inputs": [],
      "name": "liquidationQueue",
      "outputs": [
        {
          "internalType": "contract ILiquidationQueue",
          "name": "",
          "type": "address"
        }
      ],
      "stateMutability": "view",
      "type": "function"
    },
    {
      "inputs": [],
      "name": "name",
      "outputs": [
        {
          "internalType": "string",
          "name": "",
          "type": "string"
        }
      ],
      "stateMutability": "view",
      "type": "function"
    },
    {
      "inputs": [
        {
          "internalType": "address",
          "name": "",
          "type": "address"
        }
      ],
      "name": "nonces",
      "outputs": [
        {
          "internalType": "uint256",
          "name": "",
          "type": "uint256"
        }
      ],
      "stateMutability": "view",
      "type": "function"
    },
    {
      "inputs": [],
      "name": "oracle",
      "outputs": [
        {
          "internalType": "contract IOracle",
          "name": "",
          "type": "address"
        }
      ],
      "stateMutability": "view",
      "type": "function"
    },
    {
      "inputs": [],
      "name": "oracleData",
      "outputs": [
        {
          "internalType": "bytes",
          "name": "",
          "type": "bytes"
        }
      ],
      "stateMutability": "view",
      "type": "function"
    },
    {
      "inputs": [],
      "name": "owner",
      "outputs": [
        {
          "internalType": "address",
          "name": "",
          "type": "address"
        }
      ],
      "stateMutability": "view",
      "type": "function"
    },
    {
      "inputs": [],
      "name": "pendingOwner",
      "outputs": [
        {
          "internalType": "address",
          "name": "",
          "type": "address"
        }
      ],
      "stateMutability": "view",
      "type": "function"
    },
    {
      "inputs": [
        {
          "internalType": "address",
          "name": "owner_",
          "type": "address"
        },
        {
          "internalType": "address",
          "name": "spender",
          "type": "address"
        },
        {
          "internalType": "uint256",
          "name": "value",
          "type": "uint256"
        },
        {
          "internalType": "uint256",
          "name": "deadline",
          "type": "uint256"
        },
        {
          "internalType": "uint8",
          "name": "v",
          "type": "uint8"
        },
        {
          "internalType": "bytes32",
          "name": "r",
          "type": "bytes32"
        },
        {
          "internalType": "bytes32",
          "name": "s",
          "type": "bytes32"
        }
      ],
      "name": "permit",
      "outputs": [],
      "stateMutability": "nonpayable",
      "type": "function"
    },
    {
      "inputs": [
        {
          "internalType": "address",
          "name": "from",
          "type": "address"
        },
        {
          "internalType": "address",
          "name": "to",
          "type": "address"
        },
        {
          "internalType": "uint256",
          "name": "fraction",
          "type": "uint256"
        }
      ],
      "name": "removeAsset",
      "outputs": [
        {
          "internalType": "uint256",
          "name": "share",
          "type": "uint256"
        }
      ],
      "stateMutability": "nonpayable",
      "type": "function"
    },
    {
      "inputs": [
        {
          "internalType": "address",
          "name": "from",
          "type": "address"
        },
        {
          "internalType": "address",
          "name": "to",
          "type": "address"
        },
        {
          "internalType": "uint256",
          "name": "share",
          "type": "uint256"
        }
      ],
      "name": "removeCollateral",
      "outputs": [],
      "stateMutability": "nonpayable",
      "type": "function"
    },
    {
      "inputs": [
        {
          "internalType": "address",
          "name": "from",
          "type": "address"
        },
        {
          "internalType": "address",
          "name": "to",
          "type": "address"
        },
        {
          "internalType": "bool",
          "name": "skim",
          "type": "bool"
        },
        {
          "internalType": "uint256",
          "name": "part",
          "type": "uint256"
        }
      ],
      "name": "repay",
      "outputs": [
        {
          "internalType": "uint256",
          "name": "amount",
          "type": "uint256"
        }
      ],
      "stateMutability": "nonpayable",
      "type": "function"
    },
    {
      "inputs": [
        {
          "internalType": "uint256",
          "name": "_cap",
          "type": "uint256"
        }
      ],
      "name": "setBorrowCap",
      "outputs": [],
      "stateMutability": "nonpayable",
      "type": "function"
    },
    {
      "inputs": [
        {
          "internalType": "address[]",
          "name": "_collateralSwapPath",
          "type": "address[]"
        }
      ],
      "name": "setCollateralSwapPath",
      "outputs": [],
      "stateMutability": "nonpayable",
      "type": "function"
    },
    {
      "inputs": [
        {
          "internalType": "contract ILiquidationQueue",
          "name": "_liquidationQueue",
          "type": "address"
        }
      ],
      "name": "setLiquidationQueue",
      "outputs": [],
      "stateMutability": "nonpayable",
      "type": "function"
    },
    {
      "inputs": [
        {
          "internalType": "address[]",
          "name": "_tapSwapPath",
          "type": "address[]"
        }
      ],
      "name": "setTapSwapPath",
      "outputs": [],
      "stateMutability": "nonpayable",
      "type": "function"
    },
    {
      "inputs": [],
      "name": "symbol",
      "outputs": [
        {
          "internalType": "string",
          "name": "",
          "type": "string"
        }
      ],
      "stateMutability": "view",
      "type": "function"
    },
    {
      "inputs": [],
      "name": "totalAsset",
      "outputs": [
        {
          "internalType": "uint128",
          "name": "elastic",
          "type": "uint128"
        },
        {
          "internalType": "uint128",
          "name": "base",
          "type": "uint128"
        }
      ],
      "stateMutability": "view",
      "type": "function"
    },
    {
      "inputs": [],
      "name": "totalBorrow",
      "outputs": [
        {
          "internalType": "uint128",
          "name": "elastic",
          "type": "uint128"
        },
        {
          "internalType": "uint128",
          "name": "base",
          "type": "uint128"
        }
      ],
      "stateMutability": "view",
      "type": "function"
    },
    {
      "inputs": [],
      "name": "totalBorrowCap",
      "outputs": [
        {
          "internalType": "uint256",
          "name": "",
          "type": "uint256"
        }
      ],
      "stateMutability": "view",
      "type": "function"
    },
    {
      "inputs": [],
      "name": "totalCollateralShare",
      "outputs": [
        {
          "internalType": "uint256",
          "name": "",
          "type": "uint256"
        }
      ],
      "stateMutability": "view",
      "type": "function"
    },
    {
      "inputs": [],
      "name": "totalSupply",
      "outputs": [
        {
          "internalType": "uint256",
          "name": "",
          "type": "uint256"
        }
      ],
      "stateMutability": "view",
      "type": "function"
    },
    {
      "inputs": [
        {
          "internalType": "address",
          "name": "to",
          "type": "address"
        },
        {
          "internalType": "uint256",
          "name": "amount",
          "type": "uint256"
        }
      ],
      "name": "transfer",
      "outputs": [
        {
          "internalType": "bool",
          "name": "",
          "type": "bool"
        }
      ],
      "stateMutability": "nonpayable",
      "type": "function"
    },
    {
      "inputs": [
        {
          "internalType": "address",
          "name": "from",
          "type": "address"
        },
        {
          "internalType": "address",
          "name": "to",
          "type": "address"
        },
        {
          "internalType": "uint256",
          "name": "amount",
          "type": "uint256"
        }
      ],
      "name": "transferFrom",
      "outputs": [
        {
          "internalType": "bool",
          "name": "",
          "type": "bool"
        }
      ],
      "stateMutability": "nonpayable",
      "type": "function"
    },
    {
      "inputs": [
        {
          "internalType": "address",
          "name": "newOwner",
          "type": "address"
        },
        {
          "internalType": "bool",
          "name": "direct",
          "type": "bool"
        },
        {
          "internalType": "bool",
          "name": "renounce",
          "type": "bool"
        }
      ],
      "name": "transferOwnership",
      "outputs": [],
      "stateMutability": "nonpayable",
      "type": "function"
    },
    {
      "inputs": [],
      "name": "updateExchangeRate",
      "outputs": [
        {
          "internalType": "bool",
          "name": "updated",
          "type": "bool"
        },
        {
          "internalType": "uint256",
          "name": "rate",
          "type": "uint256"
        }
      ],
      "stateMutability": "nonpayable",
      "type": "function"
    },
    {
      "inputs": [
        {
          "internalType": "address",
          "name": "_swapper",
          "type": "address"
        }
      ],
      "name": "updateLQExecutionSwapper",
      "outputs": [],
      "stateMutability": "nonpayable",
      "type": "function"
    },
    {
      "inputs": [
        {
          "internalType": "address",
          "name": "_swapper",
          "type": "address"
        }
      ],
      "name": "updateLQUsdoSwapper",
      "outputs": [],
      "stateMutability": "nonpayable",
      "type": "function"
    },
    {
      "inputs": [
        {
          "internalType": "address",
          "name": "",
          "type": "address"
        }
      ],
      "name": "userBorrowPart",
      "outputs": [
        {
          "internalType": "uint256",
          "name": "",
          "type": "uint256"
        }
      ],
      "stateMutability": "view",
      "type": "function"
    },
    {
      "inputs": [
        {
          "internalType": "address",
          "name": "",
          "type": "address"
        }
      ],
      "name": "userCollateralShare",
      "outputs": [
        {
          "internalType": "uint256",
          "name": "",
          "type": "uint256"
        }
      ],
      "stateMutability": "view",
      "type": "function"
    },
    {
      "inputs": [],
      "name": "withdrawFeesEarned",
      "outputs": [],
      "stateMutability": "nonpayable",
      "type": "function"
    },
    {
      "inputs": [],
      "name": "yieldBox",
      "outputs": [
        {
          "internalType": "contract YieldBox",
          "name": "",
          "type": "address"
        }
      ],
      "stateMutability": "view",
      "type": "function"
    }
  ],
  "transactionHash": "0x49848cafd06fab0ec3765290dc2d4fde4cc5a7767e92a284178fb57a66de5d12",
  "args": [],
  "numDeployments": 1,
  "solcInputHash": "9b92c1c38cedf0b33e3c9b05aa75c119",
  "bytecode": "0x60c060405234801561001057600080fd5b50600080546001600160a01b0319163390811782556040519091907f8be0079c531659141344cd1fd0a4f28419497f9722a3daafe3b4186f6b6457e0908290a34660a08190526100b390604080517f47e79534a245952e8b16893a336b85a3d9ea9fa8c573f3d803afb92a794692186020820152908101829052306060820152600090608001604051602081830303815290604052805190602001209050919050565b60805260805160a051614e55620000dc60003960006132ef015260006133200152614e556000f3fe608060405234801561001057600080fd5b50600436106103995760003560e01c80636dbe21ff116101e9578063cce19f811161010f578063de406577116100ad578063f4d937531161007c578063f4d93753146108a6578063f80159fd146108b9578063f8ba4cff146108cc578063f9557ccb146108d457600080fd5b8063de40657714610849578063e30c39781461085c578063e985e9c51461086f578063eec0f42e1461089d57600080fd5b8063d8dfeb45116100e9578063d8dfeb45146107e5578063db8f3144146107f8578063dcb8b4cc1461080b578063dd62ed3e1461081e57600080fd5b8063cce19f81146107ac578063cd0211eb146107bf578063d505accf146107d257600080fd5b80637ecebe0011610187578063a9059cbb11610156578063a9059cbb146106fe578063aa7d966514610711578063b27c0e7414610732578063c23ea21f1461079957600080fd5b80637ecebe00146106855780638285ef40146106a55780638da5cb5b146106e357806395d89b41146106f657600080fd5b8063737704e0116101c3578063737704e014610644578063745428811461065757806374645ff31461066a5780637dc0d1d01461067257600080fd5b80636dbe21ff146105fe57806370a0823114610611578063717186d11461063157600080fd5b80633ba0b9a9116102ce5780634a50ed271161026c5780635906c2701161023b5780635906c270146105b25780635b487f4a146105c55780635cffe9de146105d85780636587adb8146105eb57600080fd5b80634a50ed271461055c5780634ddf47d41461056f5780634e71e0c8146105825780635224372c1461058a57600080fd5b806342332626116102a8578063423326261461051757806344de240a1461052a578063473e3ce71461053357806348e4163e1461053c57600080fd5b80633ba0b9a9146104f25780633edb1789146104fb57806340626d8b1461050e57600080fd5b80631c9e379b1161033b578063313ce56711610315578063313ce56714610492578063320ec13e146104ac5780633644e515146104bf57806338d52e0f146104c757600080fd5b80631c9e379b1461044c57806323b872dd1461046c57806325be78241461047f57600080fd5b8063095ea7b311610377578063095ea7b3146103ec5780630fde08e31461040f57806311a21b2c1461042257806318160ddd1461042a57600080fd5b806302ce728f1461039e57806306fdde03146103c2578063078dfbe7146103d7575b600080fd5b6103a66108f2565b6040805192151583526020830191909152015b60405180910390f35b6103ca6109e1565b6040516103b99190613f99565b6103ea6103e5366004613fd2565b610ad2565b005b6103ff6103fa36600461401d565b610c1d565b60405190151581526020016103b9565b6103ea61041d366004614049565b610c89565b6103ea6110b3565b600e54600160801b90046001600160801b03165b6040519081526020016103b9565b61043e61045a36600461408a565b60116020526000908152604090205481565b6103ff61047a3660046140a7565b61120f565b6103ea61048d3660046140e8565b61143c565b61049a6114e8565b60405160ff90911681526020016103b9565b6103ea6104ba36600461408a565b611505565b61043e6115d4565b600a546104da906001600160a01b031681565b6040516001600160a01b0390911681526020016103b9565b61043e60145481565b6103ea6105093660046141c7565b6115de565b61043e60105481565b61043e6105253660046142a2565b611618565b61043e600c5481565b61043e600d5481565b61043e61054a36600461408a565b60126020526000908152604090205481565b6006546104da906001600160a01b031681565b6103ea61057d3660046142bb565b611629565b6103ea6118df565b61059d6105983660046140a7565b61199c565b604080519283526020830191909152016103b9565b6103ea6105c036600461408a565b611a18565b6103ea6105d33660046142fd565b611abd565b6103ea6105e63660046143a2565b611b23565b61043e6105f93660046140e8565b611b47565b6103ea61060c3660046142fd565b611bdb565b61043e61061f36600461408a565b60026020526000908152604090205481565b6103ea61063f3660046142a2565b611c41565b61043e6106523660046142a2565b611cdc565b6103ea61066536600461408a565b611ce7565b6103ca611e20565b6015546104da906001600160a01b031681565b61043e61069336600461408a565b60046020526000908152604090205481565b600f546106c3906001600160801b0380821691600160801b90041682565b604080516001600160801b039384168152929091166020830152016103b9565b6000546104da906001600160a01b031681565b6103ca611eae565b6103ff61070c36600461401d565b611f8b565b61072461071f366004614451565b6120f0565b6040516103b992919061449d565b6005546107699067ffffffffffffffff8082169168010000000000000000810490911690600160801b90046001600160801b031683565b6040805167ffffffffffffffff94851681529390921660208401526001600160801b0316908201526060016103b9565b6008546104da906001600160a01b031681565b6103ea6107ba3660046140a7565b6122a6565b61043e6107cd3660046140e8565b6122fe565b6103ea6107e0366004614546565b612373565b6009546104da906001600160a01b031681565b61043e61080636600461401d565b6125d5565b61043e6108193660046142a2565b612664565b61043e61082c3660046145b7565b600360209081526000928352604080842090915290825290205481565b6007546104da906001600160a01b031681565b6001546104da906001600160a01b031681565b6103ff61087d3660046145b7565b601360209081526000928352604080842090915290825290205460ff1681565b61043e600b5481565b61043e6108b43660046140a7565b61266f565b61043e6108c73660046142a2565b612701565b6103ea61270c565b600e546106c3906001600160801b0380821691600160801b90041682565b6015546040517fd6d7d52500000000000000000000000000000000000000000000000000000000815260009182916001600160a01b039091169063d6d7d525906109419060169060040161462b565b6040805180830381600087803b15801561095a57600080fd5b505af115801561096e573d6000803e3d6000fd5b505050506040513d601f19601f8201168201806040525081019061099291906146d3565b909250905081156109d95760148190556040518181527f9f9192b5edb17356c524e08d9e025c8e2f6307e6ea52fb7968faa3081f51c3c89060200160405180910390a19091565b506014549091565b6009546060906109f9906001600160a01b0316612cee565b600a54610a0e906001600160a01b0316612cee565b6015546040517fd568866c0000000000000000000000000000000000000000000000000000000081526001600160a01b039091169063d568866c90610a589060169060040161462b565b60006040518083038186803b158015610a7057600080fd5b505afa158015610a84573d6000803e3d6000fd5b505050506040513d6000823e601f3d908101601f19168201604052610aac9190810190614701565b604051602001610abe9392919061476f565b604051602081830303815290604052905090565b6000546001600160a01b03163314610b315760405162461bcd60e51b815260206004820181905260248201527f4f776e61626c653a2063616c6c6572206973206e6f7420746865206f776e657260448201526064015b60405180910390fd5b8115610bfc576001600160a01b038316151580610b4b5750805b610b975760405162461bcd60e51b815260206004820152601560248201527f4f776e61626c653a207a65726f206164647265737300000000000000000000006044820152606401610b28565b600080546040516001600160a01b03808716939216917f8be0079c531659141344cd1fd0a4f28419497f9722a3daafe3b4186f6b6457e091a3600080546001600160a01b0385166001600160a01b031991821617909155600180549091169055505050565b600180546001600160a01b0319166001600160a01b0385161790555b505050565b3360008181526003602090815260408083206001600160a01b038716808552925280832085905551919290917f8c5be1e5ebec7d5bd14f71427d1e84f3dd0314c0f7b2291e5b200ac8c7c3b92590610c789086815260200190565b60405180910390a350600192915050565b600554600160801b90046001600160801b031615610ca957610ca96110b3565b6006546040517f8cad7fbe0000000000000000000000000000000000000000000000000000000081526001600160a01b03848116600483015290911690638cad7fbe9060240160206040518083038186803b158015610d0757600080fd5b505afa158015610d1b573d6000803e3d6000fd5b505050506040513d601f19601f82011682018060405250810190610d3f91906147f7565b610d8b5760405162461bcd60e51b815260206004820152601360248201527f4d783a20496e76616c69642073776170706572000000000000000000000000006044820152606401610b28565b60065460408051622fcfcb60e31b815290516000926001600160a01b03169163017e7e58916004808301926020929190829003018186803b158015610dcf57600080fd5b505afa158015610de3573d6000803e3d6000fd5b505050506040513d601f19601f82011682018060405250810190610e079190614814565b90506000600660009054906101000a90046001600160a01b03166001600160a01b0316630feb123d6040518163ffffffff1660e01b815260040160206040518083038186803b158015610e5957600080fd5b505afa158015610e6d573d6000803e3d6000fd5b505050506040513d601f19601f82011682018060405250810190610e919190614814565b6001600160a01b03831660009081526002602052604081205491925090610ebb9084903090612dc2565b905080610ec9575050505050565b600754600c54604051630208d92960e11b81523060048201526001600160a01b038881166024830152604482019290925260648101849052911690630411b25290608401600060405180830381600087803b158015610f2757600080fd5b505af1158015610f3b573d6000803e3d6000fd5b505050506000856001600160a01b031663ce58b200600c54600660009054906101000a90046001600160a01b03166001600160a01b0316630e7ee2276040518163ffffffff1660e01b815260040160206040518083038186803b158015610fa157600080fd5b505afa158015610fb5573d6000803e3d6000fd5b505050506040513d601f19601f82011682018060405250810190610fd99190614831565b6040517fffffffff0000000000000000000000000000000000000000000000000000000060e085901b16815261101d9291908a359089906018908a9060040161484a565b6040805180830381600087803b15801561103657600080fd5b505af115801561104a573d6000803e3d6000fd5b505050506040513d601f19601f8201168201806040525081019061106e91906148c8565b5060408051848152602081018390529192507fa4fef2aee55b8c5258b39e504f59d0fb9960865de9cc847e769cd282b6769363910160405180910390a1505050505050565b6110bb61270c565b60065460408051622fcfcb60e31b815290516000926001600160a01b03169163017e7e58916004808301926020929190829003018186803b1580156110ff57600080fd5b505afa158015611113573d6000803e3d6000fd5b505050506040513d601f19601f820116820180604052508101906111379190614814565b6005546001600160a01b03821660009081526002602052604081208054939450600160801b9092046001600160801b03169283929190611178908490614902565b90915550506040518181526001600160a01b038316906000907fddf252ad1be2c89b69c2b068fc378daa952ba7f163c4a11628f55a4df523b3ef9060200160405180910390a3600580546001600160801b031690556040518181526001600160a01b038316907fbe641c3ffc44b2d6c184f023fa4ed7bda4b6ffa71e03b3c98ae0c776da1f17e79060200160405180910390a25050565b600081156113e4576001600160a01b038416600090815260026020526040902054828110156112805760405162461bcd60e51b815260206004820152601660248201527f45524332303a2062616c616e636520746f6f206c6f77000000000000000000006044820152606401610b28565b836001600160a01b0316856001600160a01b0316146113e2576001600160a01b0385166000908152600360209081526040808320338452909152902054600019811461134557838110156113165760405162461bcd60e51b815260206004820152601860248201527f45524332303a20616c6c6f77616e636520746f6f206c6f7700000000000000006044820152606401610b28565b611320848261491a565b6001600160a01b03871660009081526003602090815260408083203384529091529020555b6001600160a01b03851661139b5760405162461bcd60e51b815260206004820152601660248201527f45524332303a206e6f207a65726f2061646472657373000000000000000000006044820152606401610b28565b6113a5848361491a565b6001600160a01b0380881660009081526002602052604080822093909355908716815290812080548692906113db908490614902565b9091555050505b505b826001600160a01b0316846001600160a01b03167fddf252ad1be2c89b69c2b068fc378daa952ba7f163c4a11628f55a4df523b3ef8460405161142991815260200190565b60405180910390a35060015b9392505050565b6040516001600160a01b038086166024830152841660448201528215156064820152608481018290526114e1906001907f25be7824000000000000000000000000000000000000000000000000000000009060a4015b60408051601f198184030181529190526020810180516001600160e01b03167fffffffff00000000000000000000000000000000000000000000000000000000909316929092179091526130d8565b5050505050565b600a54600090611500906001600160a01b031661321a565b905090565b6000546001600160a01b0316331461155f5760405162461bcd60e51b815260206004820181905260248201527f4f776e61626c653a2063616c6c6572206973206e6f7420746865206f776e65726044820152606401610b28565b6008546040517f575939f90000000000000000000000000000000000000000000000000000000081526001600160a01b0383811660048301529091169063575939f9906024015b600060405180830381600087803b1580156115c057600080fd5b505af11580156114e1573d6000803e3d6000fd5b60006115006132eb565b61160c6002633edb178960e01b8b8b8b8b8b8b8b8b8b6040516024016114929998979695949392919061495a565b50505050505050505050565b600061162382613342565b92915050565b60195460ff161561167c5760405162461bcd60e51b815260206004820152600f60248201527f4d783a20696e697469616c697a656400000000000000000000000000000000006044820152606401610b28565b60008080808080808080806116938b8d018d614ad6565b995099509950995099509950995099509950995089601960016101000a8154816001600160a01b0302191690836001600160a01b0316021790555088601a60006101000a8154816001600160a01b0302191690836001600160a01b0316021790555087600660006101000a8154816001600160a01b0302191690836001600160a01b03160217905550876001600160a01b031663de4065776040518163ffffffff1660e01b815260040160206040518083038186803b15801561175557600080fd5b505afa158015611769573d6000803e3d6000fd5b505050506040513d601f19601f8201168201806040525081019061178d9190614814565b600780546001600160a01b039283166001600160a01b031991821617909155600654600080549092169083161790558516158015906117d457506001600160a01b03871615155b80156117e857506001600160a01b03831615155b6118345760405162461bcd60e51b815260206004820152600c60248201527f4d783a20626164207061697200000000000000000000000000000000000000006044820152606401610b28565b600a80546001600160a01b03808a166001600160a01b03199283161790925560098054888416908316179055600c889055600b8690556015805492861692909116919091179055815161188e906017906020850190613e74565b5080516118a2906018906020840190613e74565b506005805467ffffffffffffffff19166312e687c01790556118c26108f2565b50506019805460ff19166001179055505050505050505050505050565b6001546001600160a01b031633811461193a5760405162461bcd60e51b815260206004820181905260248201527f4f776e61626c653a2063616c6c657220213d2070656e64696e67206f776e65726044820152606401610b28565b600080546040516001600160a01b03808516939216917f8be0079c531659141344cd1fd0a4f28419497f9722a3daafe3b4186f6b6457e091a3600080546001600160a01b039092166001600160a01b0319928316179055600180549091169055565b6040516001600160a01b0380851660248301528316604482015260648101829052600090819081906119f5906001907f5224372c0000000000000000000000000000000000000000000000000000000090608401611492565b905080806020019051810190611a0b91906148c8565b9097909650945050505050565b6000546001600160a01b03163314611a725760405162461bcd60e51b815260206004820181905260248201527f4f776e61626c653a2063616c6c6572206973206e6f7420746865206f776e65726044820152606401610b28565b6008546040517f36252c900000000000000000000000000000000000000000000000000000000081526001600160a01b038381166004830152909116906336252c90906024016115a6565b6000546001600160a01b03163314611b175760405162461bcd60e51b815260206004820181905260248201527f4f776e61626c653a2063616c6c6572206973206e6f7420746865206f776e65726044820152606401610b28565b610c1860188383613ed9565b6114e16001635cffe9de60e01b868686866040516024016114929493929190614bb3565b6000846001600160a01b0381163314801590611b8e57506001600160a01b038116600090815260026020908152604080832054600383528184203385529092529091205411155b15611bbd57604051630ca03e9b60e11b81526001600160a01b0382166004820152336024820152604401610b28565b611bc561270c565b611bd186868686613430565b9695505050505050565b6000546001600160a01b03163314611c355760405162461bcd60e51b815260206004820181905260248201527f4f776e61626c653a2063616c6c6572206973206e6f7420746865206f776e65726044820152606401610b28565b610c1860178383613ed9565b6000546001600160a01b03163314611c9b5760405162461bcd60e51b815260206004820181905260248201527f4f776e61626c653a2063616c6c6572206973206e6f7420746865206f776e65726044820152606401610b28565b60105460408051918252602082018390527fae6e0ab3b95f0a53ff9660a390ccedcbbf1f2355dce974a9841af106fddcfaba910160405180910390a1601055565b600061162382613685565b6000546001600160a01b03163314611d415760405162461bcd60e51b815260206004820181905260248201527f4f776e61626c653a2063616c6c6572206973206e6f7420746865206f776e65726044820152606401610b28565b806001600160a01b03166307be4daf6040518163ffffffff1660e01b815260040160206040518083038186803b158015611d7a57600080fd5b505afa158015611d8e573d6000803e3d6000fd5b505050506040513d601f19601f82011682018060405250810190611db291906147f7565b611dfe5760405162461bcd60e51b815260206004820152601560248201527f4d783a204c51206e6f7420696e6974616c697a656400000000000000000000006044820152606401610b28565b600880546001600160a01b0319166001600160a01b0392909216919091179055565b60168054611e2d906145f0565b80601f0160208091040260200160405190810160405280929190818152602001828054611e59906145f0565b8015611ea65780601f10611e7b57610100808354040283529160200191611ea6565b820191906000526020600020905b815481529060010190602001808311611e8957829003601f168201915b505050505081565b600954606090611ec6906001600160a01b0316613705565b600a54611edb906001600160a01b0316613705565b6015546040517fc699c4d60000000000000000000000000000000000000000000000000000000081526001600160a01b039091169063c699c4d690611f259060169060040161462b565b60006040518083038186803b158015611f3d57600080fd5b505afa158015611f51573d6000803e3d6000fd5b505050506040513d6000823e601f3d908101601f19168201604052611f799190810190614701565b604051602001610abe93929190614be5565b600081151580611fa35750336001600160a01b038416145b156120b35733600090815260026020526040902054828110156120085760405162461bcd60e51b815260206004820152601660248201527f45524332303a2062616c616e636520746f6f206c6f77000000000000000000006044820152606401610b28565b336001600160a01b038516146120b1576001600160a01b03841661206e5760405162461bcd60e51b815260206004820152601660248201527f45524332303a206e6f207a65726f2061646472657373000000000000000000006044820152606401610b28565b612078838261491a565b33600090815260026020526040808220929092556001600160a01b038616815290812080548592906120ab908490614902565b90915550505b505b6040518281526001600160a01b0384169033907fddf252ad1be2c89b69c2b068fc378daa952ba7f163c4a11628f55a4df523b3ef90602001610c78565b6060808367ffffffffffffffff81111561210c5761210c614333565b604051908082528060200260200182016040528015612135578160200160208202803683370190505b5091508367ffffffffffffffff81111561215157612151614333565b60405190808252806020026020018201604052801561218457816020015b606081526020019060019003908161216f5790505b50905060005b8481101561229d57600080308888858181106121a8576121a8614c6d565b90506020028101906121ba9190614c83565b6040516121c8929190614cca565b600060405180830381855af49150503d8060008114612203576040519150601f19603f3d011682016040523d82523d6000602084013e612208565b606091505b50915091508180612217575085155b61222082613765565b9061223e5760405162461bcd60e51b8152600401610b289190613f99565b508185848151811061225257612252614c6d565b9115156020928302919091019091015261226b81613765565b84848151811061227d5761227d614c6d565b60200260200101819052505050808061229590614cda565b91505061218a565b50935093915050565b6040516001600160a01b03808516602483015283166044820152606481018290526122f8906001907fcce19f810000000000000000000000000000000000000000000000000000000090608401611492565b50505050565b6040516001600160a01b03808616602483015284166044820152821515606482015260848101829052600090819061235d906001907fcd0211eb000000000000000000000000000000000000000000000000000000009060a401611492565b905080806020019051810190611bd19190614831565b6001600160a01b0387166123c95760405162461bcd60e51b815260206004820152601860248201527f45524332303a204f776e65722063616e6e6f74206265203000000000000000006044820152606401610b28565b8342106124185760405162461bcd60e51b815260206004820152600e60248201527f45524332303a20457870697265640000000000000000000000000000000000006044820152606401610b28565b6001600160a01b038716600081815260046020526040812080546001926124c2927f6e71edae12b1b97f4d1f60370fef10105fa2faae0126114a169c64845d6126c9928d928d928d929161246b83614cda565b909155506040805160208101969096526001600160a01b0394851690860152929091166060840152608083015260a082015260c0810188905260e001604051602081830303815290604052805190602001206137c4565b6040805160008152602081018083529290925260ff871690820152606081018590526080810184905260a0016020604051602081039080840390855afa158015612510573d6000803e3d6000fd5b505050602060405103516001600160a01b0316146125705760405162461bcd60e51b815260206004820152601860248201527f45524332303a20496e76616c6964205369676e617475726500000000000000006044820152606401610b28565b6001600160a01b038781166000818152600360209081526040808320948b168084529482529182902089905590518881527f8c5be1e5ebec7d5bd14f71427d1e84f3dd0314c0f7b2291e5b200ac8c7c3b925910160405180910390a350505050505050565b604080516001600160a01b038416602482015260448082018490528251808303909101815260649091019091526020810180516001600160e01b03167fdb8f314400000000000000000000000000000000000000000000000000000000179052600090819061264690600290613834565b90508080602001905181019061265c9190614831565b949350505050565b60006116238261393d565b6000836001600160a01b03811633148015906126b657506001600160a01b038116600090815260026020908152604080832054600383528184203385529092529091205411155b156126e557604051630ca03e9b60e11b81526001600160a01b0382166004820152336024820152604401610b28565b6126ed61270c565b6126f8858585612dc2565b95945050505050565b600061162382613973565b6040805160608101825260055467ffffffffffffffff80821683526801000000000000000082041660208301819052600160801b9091046001600160801b03169282019290925290600090612761904261491a565b90508061276c575050565b67ffffffffffffffff421660208084019190915260408051808201909152600f546001600160801b038082168352600160801b909104169181018290529061287857825167ffffffffffffffff166312e687c014612816576312e687c0808452604080516000808252602082018190529181019290925260608201527f33af5ce86e8438eff54589f85332916444457dfa8685493fbd579b809097026b9060800160405180910390a15b505080516005805460208401516040909401516001600160801b03908116600160801b0267ffffffffffffffff95861668010000000000000000026fffffffffffffffffffffffffffffffff1990931695909416949094171792909216179055565b60408051808201909152600e546001600160801b038082168352600160801b909104811660208301528451835160009384939092670de0b6b3a76400009288926128cd9267ffffffffffffffff169116614cf5565b6128d79190614cf5565b6128e19190614d14565b925082846000018181516128f59190614d36565b6001600160801b039081169091528551600754600c54855160405163442c159960e01b8152600481019290925284166024820152600060448201819052945091909216916001600160a01b03169063442c15999060640160206040518083038186803b15801561296457600080fd5b505afa158015612978573d6000803e3d6000fd5b505050506040513d601f19601f8201168201806040525081019061299c9190614831565b6129a69190614902565b90506000620186a06129ba61271087614cf5565b6129c49190614d14565b90508183602001516001600160801b0316826129e09190614cf5565b6129ea9190614d14565b935083886040018181516129fe9190614d36565b6001600160801b03169052506020830151612a1a908590614d36565b600e80546001600160801b03908116600160801b9382168402179091558751602089015190821691169091028117600f556000908390612a6390670de0b6b3a764000090614cf5565b612a6d9190614d14565b90506709b6e64a8ec60000811015612b445760006709b6e64a8ec60000670de0b6b3a7640000612a9d848361491a565b612aa79190614cf5565b612ab19190614d14565b9050600089612ac08380614cf5565b612aca9190614cf5565b612ae5907054a2b63d65d79d094abb66880000000000614902565b9050807054a2b63d65d79d094abb668800000000008c6000015167ffffffffffffffff16612b139190614cf5565b612b1d9190614d14565b67ffffffffffffffff16808c526304b9a1f01115612b3d576304b9a1f08b525b5050612c33565b670b1a2bc2ec500000811115612c33576000612b70670b1a2bc2ec500000670de0b6b3a764000061491a565b670de0b6b3a7640000612b8b670b1a2bc2ec5000008561491a565b612b959190614cf5565b612b9f9190614d14565b9050600089612bae8380614cf5565b612bb89190614cf5565b612bd3907054a2b63d65d79d094abb66880000000000614902565b905060007054a2b63d65d79d094abb66880000000000828d6000015167ffffffffffffffff16612c039190614cf5565b612c0d9190614d14565b90506449d4824600811115612c2457506449d48246005b67ffffffffffffffff168b5250505b8851604080518881526020810188905267ffffffffffffffff9092168282015260608201839052517f33af5ce86e8438eff54589f85332916444457dfa8685493fbd579b809097026b9181900360800190a1505086516005805460208a01516040909a01516001600160801b03908116600160801b0267ffffffffffffffff9b8c1668010000000000000000026fffffffffffffffffffffffffffffffff199093169b9094169a909a17179890981617909655505050505050565b60408051600481526024810182526020810180516001600160e01b03167f06fdde0300000000000000000000000000000000000000000000000000000000179052905160609160009182916001600160a01b03861691612d4e9190614d61565b600060405180830381855afa9150503d8060008114612d89576040519150601f19603f3d011682016040523d82523d6000602084013e612d8e565b606091505b509150915081612db957604051806040016040528060038152602001623f3f3f60e81b81525061265c565b61265c81613a02565b600e54600090600160801b90046001600160801b0316612de457506000611435565b604080518082018252600e546001600160801b038082168352600160801b90910481166020830152600754600c54600f549451638eb22cdd60e01b815260048101919091529390911660248401526001604484015290916000916001600160a01b031690638eb22cdd9060640160206040518083038186803b158015612e6957600080fd5b505afa158015612e7d573d6000803e3d6000fd5b505050506040513d601f19601f82011682018060405250810190612ea19190614831565b8251612eb691906001600160801b0316614902565b60208301519091506001600160801b0316612ed18286614cf5565b612edb9190614d14565b6001600160a01b038716600090815260026020526040812080549295508692909190612f0890849061491a565b90915550506040518481526000906001600160a01b038816907fddf252ad1be2c89b69c2b068fc378daa952ba7f163c4a11628f55a4df523b3ef9060200160405180910390a38282600001818151612f609190614d7d565b6001600160801b0316905250602082018051859190612f80908390614d7d565b6001600160801b0390811690915260208401516103e8911610159050612fe85760405162461bcd60e51b815260206004820152600d60248201527f4d783a206d696e206c696d6974000000000000000000000000000000000000006044820152606401610b28565b815160208301516001600160801b03908116600160801b02911617600e556040516001600160a01b0380871691908816907f6e853a5fd6b51d773691f542ebac8513c9992a51380d4c342031056a64114228906130519087908990918252602082015260400190565b60405180910390a3600754600c54604051630208d92960e11b81523060048201526001600160a01b038881166024830152604482019290925260648101869052911690630411b25290608401600060405180830381600087803b1580156130b757600080fd5b505af11580156130cb573d6000803e3d6000fd5b5050505050509392505050565b606060006001808560028111156130f1576130f1614da5565b141561310a57601a546001600160a01b03169150613138565b600285600281111561311e5761311e614da5565b14156131385760195461010090046001600160a01b031691505b6001600160a01b03821661318e5760405162461bcd60e51b815260206004820152601260248201527f4d783a206d6f64756c65206e6f742073657400000000000000000000000000006044820152606401610b28565b816001600160a01b0316846040516131a69190614d61565b600060405180830381855af49150503d80600081146131e1576040519150601f19603f3d011682016040523d82523d6000602084013e6131e6565b606091505b509350905080613212576131f983613765565b60405162461bcd60e51b8152600401610b289190613f99565b505092915050565b60408051600481526024810182526020810180516001600160e01b03167f313ce567000000000000000000000000000000000000000000000000000000001790529051600091829182916001600160a01b038616916132799190614d61565b600060405180830381855afa9150503d80600081146132b4576040519150601f19603f3d011682016040523d82523d6000602084013e6132b9565b606091505b50915091508180156132cc575080516020145b6132d757601261265c565b8080602001905181019061265c9190614dbb565b60007f0000000000000000000000000000000000000000000000000000000000000000461461331d5761150046613bce565b507f000000000000000000000000000000000000000000000000000000000000000090565b60408051808201909152600e546001600160801b03808216808452600160801b9092041660208301819052600754600c54600094936001600160a01b039092169263442c1599926133939088614cf5565b61339d9190614d14565b6040517fffffffff0000000000000000000000000000000000000000000000000000000060e085901b168152600481019290925260248201526000604482015260640160206040518083038186803b1580156133f857600080fd5b505afa15801561340c573d6000803e3d6000fd5b505050506040513d601f19601f820116820180604052508101906114359190614831565b604080518082018252600e546001600160801b03808216808452600160801b90920481166020840152600754600c54600f549551638eb22cdd60e01b815260048101919091529490911660248501526001604485015260009384916001600160a01b031690638eb22cdd9060640160206040518083038186803b1580156134b657600080fd5b505afa1580156134ca573d6000803e3d6000fd5b505050506040513d601f19601f820116820180604052508101906134ee9190614831565b835161350391906001600160801b0316614902565b90508015613534578083602001516001600160801b0316866135259190614cf5565b61352f9190614d14565b613536565b845b93506103e884846020015161354b9190614d36565b6001600160801b03161015613566576000935050505061265c565b613571838686613c0f565b80516020918201516001600160801b03908116600160801b02911617600e556001600160a01b038816600090815260029091526040812080548692906135b8908490614902565b90915550506040518481526001600160a01b038816906000907fddf252ad1be2c89b69c2b068fc378daa952ba7f163c4a11628f55a4df523b3ef9060200160405180910390a361360d88600c5487858a613c69565b866001600160a01b031686613622578861362f565b6007546001600160a01b03165b6001600160a01b03167f30a8c4f9ab5af7e1309ca87c32377d1a83366c5990472dbf9d262450eae14e388787604051613672929190918252602082015260400190565b60405180910390a3505050949350505050565b60408051808201909152600f546001600160801b038082168352600160801b90910416602082015260009081906136bd908483613de0565b600754600b549192506001600160a01b031690638eb22cdd906136eb670de0b6b3a7640000620186a0614cf5565b6014546136fb6201b58087614cf5565b6133939190614cf5565b60408051600481526024810182526020810180516001600160e01b03167f95d89b4100000000000000000000000000000000000000000000000000000000179052905160609160009182916001600160a01b03861691612d4e9190614d61565b60606044825110156137aa57505060408051808201909152601281527f4d783a206e6f2072657475726e20646174610000000000000000000000000000602082015290565b600482019150818060200190518101906116239190614701565b60006040518060400160405280600281526020017f19010000000000000000000000000000000000000000000000000000000000008152506138046132eb565b8360405160200161381793929190614dd8565b604051602081830303815290604052805190602001209050919050565b6060600060018085600281111561384d5761384d614da5565b141561386657601a546001600160a01b03169150613894565b600285600281111561387a5761387a614da5565b14156138945760195461010090046001600160a01b031691505b6001600160a01b0382166138ea5760405162461bcd60e51b815260206004820152601260248201527f4d783a206d6f64756c65206e6f742073657400000000000000000000000000006044820152606401610b28565b816001600160a01b0316846040516139029190614d61565b600060405180830381855afa9150503d80600081146131e1576040519150601f19603f3d011682016040523d82523d6000602084013e6131e6565b60408051808201909152600f546001600160801b038082168352600160801b909104166020820152600090611623908383613de0565b600754600b5460405163442c159960e01b8152600481019190915260248101839052600060448201819052916001600160a01b03169063442c15999060640160206040518083038186803b1580156139ca57600080fd5b505afa1580156139de573d6000803e3d6000fd5b505050506040513d601f19601f820116820180604052508101906116239190614831565b60606040825110613a2157818060200190518101906116239190614701565b815160201415613baa5760005b60208160ff16108015613a7b5750828160ff1681518110613a5157613a51614c6d565b01602001517fff000000000000000000000000000000000000000000000000000000000000001615155b15613a925780613a8a81614dff565b915050613a2e565b60008160ff1667ffffffffffffffff811115613ab057613ab0614333565b6040519080825280601f01601f191660200182016040528015613ada576020820181803683370190505b509050600091505b60208260ff16108015613b2f5750838260ff1681518110613b0557613b05614c6d565b01602001517fff000000000000000000000000000000000000000000000000000000000000001615155b1561143557838260ff1681518110613b4957613b49614c6d565b602001015160f81c60f81b818360ff1681518110613b6957613b69614c6d565b60200101907effffffffffffffffffffffffffffffffffffffffffffffffffffffffffffff1916908160001a90535081613ba281614dff565b925050613ae2565b50506040805180820190915260038152623f3f3f60e81b602082015290565b919050565b604080517f47e79534a245952e8b16893a336b85a3d9ea9fa8c573f3d803afb92a794692186020820152908101829052306060820152600090608001613817565b60408051808201909152600080825260208201528284600001818151613c359190614d36565b6001600160801b0316905250602084018051839190613c55908390614d36565b6001600160801b0316905250929392505050565b8015613d66576007546040517efdd58e0000000000000000000000000000000000000000000000000000000081523060048201526024810186905283916001600160a01b03169062fdd58e9060440160206040518083038186803b158015613cd057600080fd5b505afa158015613ce4573d6000803e3d6000fd5b505050506040513d601f19601f82011682018060405250810190613d089190614831565b613d12919061491a565b831115613d615760405162461bcd60e51b815260206004820152600c60248201527f4d783a20746f6f206d75636800000000000000000000000000000000000000006044820152606401610b28565b6114e1565b600754604051630208d92960e11b81526001600160a01b038781166004830152306024830152604482018790526064820186905290911690630411b25290608401600060405180830381600087803b158015613dc157600080fd5b505af1158015613dd5573d6000803e3d6000fd5b505050505050505050565b600083602001516001600160801b031660001415613dff575081611435565b602084015184516001600160801b0391821691613e1d911685614cf5565b613e279190614d14565b9050818015613e6557508284600001516001600160801b031685602001516001600160801b031683613e599190614cf5565b613e639190614d14565b105b1561143557806126f881614cda565b828054828255906000526020600020908101928215613ec9579160200282015b82811115613ec957825182546001600160a01b0319166001600160a01b03909116178255602090920191600190910190613e94565b50613ed5929150613f2c565b5090565b828054828255906000526020600020908101928215613ec9579160200282015b82811115613ec95781546001600160a01b0319166001600160a01b03843516178255602090920191600190910190613ef9565b5b80821115613ed55760008155600101613f2d565b60005b83811015613f5c578181015183820152602001613f44565b838111156122f85750506000910152565b60008151808452613f85816020860160208601613f41565b601f01601f19169290920160200192915050565b6020815260006114356020830184613f6d565b6001600160a01b0381168114613fc157600080fd5b50565b8015158114613fc157600080fd5b600080600060608486031215613fe757600080fd5b8335613ff281613fac565b9250602084013561400281613fc4565b9150604084013561401281613fc4565b809150509250925092565b6000806040838503121561403057600080fd5b823561403b81613fac565b946020939093013593505050565b600080828403604081121561405d57600080fd5b833561406881613fac565b92506020601f198201121561407c57600080fd5b506020830190509250929050565b60006020828403121561409c57600080fd5b813561143581613fac565b6000806000606084860312156140bc57600080fd5b83356140c781613fac565b925060208401356140d781613fac565b929592945050506040919091013590565b600080600080608085870312156140fe57600080fd5b843561410981613fac565b9350602085013561411981613fac565b9250604085013561412981613fc4565b9396929550929360600135925050565b60008083601f84011261414b57600080fd5b50813567ffffffffffffffff81111561416357600080fd5b6020830191508360208260051b850101111561417e57600080fd5b9250929050565b60008083601f84011261419757600080fd5b50813567ffffffffffffffff8111156141af57600080fd5b60208301915083602082850101111561417e57600080fd5b600080600080600080600080600060a08a8c0312156141e557600080fd5b893567ffffffffffffffff808211156141fd57600080fd5b6142098d838e01614139565b909b50995060208c013591508082111561422257600080fd5b61422e8d838e01614139565b909950975060408c0135915061424382613fac565b90955060608b0135908082111561425957600080fd5b6142658d838e01614185565b909650945060808c013591508082111561427e57600080fd5b5061428b8c828d01614185565b915080935050809150509295985092959850929598565b6000602082840312156142b457600080fd5b5035919050565b600080602083850312156142ce57600080fd5b823567ffffffffffffffff8111156142e557600080fd5b6142f185828601614185565b90969095509350505050565b6000806020838503121561431057600080fd5b823567ffffffffffffffff81111561432757600080fd5b6142f185828601614139565b634e487b7160e01b600052604160045260246000fd5b604051601f8201601f1916810167ffffffffffffffff8111828210171561437257614372614333565b604052919050565b600067ffffffffffffffff82111561439457614394614333565b50601f01601f191660200190565b600080600080608085870312156143b857600080fd5b84356143c381613fac565b935060208501356143d381613fac565b925060408501359150606085013567ffffffffffffffff8111156143f657600080fd5b8501601f8101871361440757600080fd5b803561441a6144158261437a565b614349565b81815288602083850101111561442f57600080fd5b8160208401602083013760006020838301015280935050505092959194509250565b60008060006040848603121561446657600080fd5b833567ffffffffffffffff81111561447d57600080fd5b61448986828701614139565b909450925050602084013561401281613fc4565b604080825283519082018190526000906020906060840190828701845b828110156144d85781511515845292840192908401906001016144ba565b50505083810382850152845180825282820190600581901b8301840187850160005b8381101561452857601f19868403018552614516838351613f6d565b948701949250908601906001016144fa565b50909998505050505050505050565b60ff81168114613fc157600080fd5b600080600080600080600060e0888a03121561456157600080fd5b873561456c81613fac565b9650602088013561457c81613fac565b95506040880135945060608801359350608088013561459a81614537565b9699959850939692959460a0840135945060c09093013592915050565b600080604083850312156145ca57600080fd5b82356145d581613fac565b915060208301356145e581613fac565b809150509250929050565b600181811c9082168061460457607f821691505b6020821081141561462557634e487b7160e01b600052602260045260246000fd5b50919050565b600060208083526000845481600182811c91508083168061464d57607f831692505b85831081141561466b57634e487b7160e01b85526022600452602485fd5b8786018381526020018180156146885760018114614699576146c4565b60ff198616825287820196506146c4565b60008b81526020902060005b868110156146be578154848201529085019089016146a5565b83019750505b50949998505050505050505050565b600080604083850312156146e657600080fd5b82516146f181613fc4565b6020939093015192949293505050565b60006020828403121561471357600080fd5b815167ffffffffffffffff81111561472a57600080fd5b8201601f8101841361473b57600080fd5b80516147496144158261437a565b81815285602083850101111561475e57600080fd5b6126f8826020830160208601613f41565b7f546170696f6361204d69786f6c6f6769737420000000000000000000000000008152600084516147a7816013850160208901613f41565b602f60f81b60139184019182015284516147c8816014840160208901613f41565b602d60f81b6014929091019182015283516147ea816015840160208801613f41565b0160150195945050505050565b60006020828403121561480957600080fd5b815161143581613fc4565b60006020828403121561482657600080fd5b815161143581613fac565b60006020828403121561484357600080fd5b5051919050565b600060c08201888352602088818501528760408501526001600160a01b03808816606086015260c0608086015282875480855260e0870191508860005283600020945060005b818110156148ae578554841683526001958601959285019201614890565b5050809450505050508260a0830152979650505050505050565b600080604083850312156148db57600080fd5b505080516020909101519092909150565b634e487b7160e01b600052601160045260246000fd5b60008219821115614915576149156148ec565b500190565b60008282101561492c5761492c6148ec565b500390565b81835281816020850137506000828201602090810191909152601f909101601f19169091010190565b60a0808252810189905260008a60c08301825b8c81101561499d57823561498081613fac565b6001600160a01b031682526020928301929091019060010161496d565b5083810360208501528981527f07ffffffffffffffffffffffffffffffffffffffffffffffffffffffffffffff8a11156149d657600080fd5b8960051b9150818b60208301378181019150506020810160008152614a06604085018a6001600160a01b03169052565b6020848303016060850152614a1c81888a614931565b9150508281036080840152614a32818587614931565b9c9b505050505050505050505050565b8035613bc981613fac565b600082601f830112614a5e57600080fd5b8135602067ffffffffffffffff821115614a7a57614a7a614333565b8160051b614a89828201614349565b9283528481018201928281019087851115614aa357600080fd5b83870192505b84831015614acb578235614abc81613fac565b82529183019190830190614aa9565b979650505050505050565b6000806000806000806000806000806101408b8d031215614af657600080fd5b614aff8b614a42565b9950614b0d60208c01614a42565b9850614b1b60408c01614a42565b9750614b2960608c01614a42565b965060808b01359550614b3e60a08c01614a42565b945060c08b01359350614b5360e08c01614a42565b92506101008b013567ffffffffffffffff80821115614b7157600080fd5b614b7d8e838f01614a4d565b93506101208d0135915080821115614b9457600080fd5b50614ba18d828e01614a4d565b9150509295989b9194979a5092959850565b60006001600160a01b03808716835280861660208401525083604083015260806060830152611bd16080830184613f6d565b7f746d000000000000000000000000000000000000000000000000000000000000815260008451614c1d816002850160208901613f41565b602f60f81b6002918401918201528451614c3e816003840160208901613f41565b602d60f81b600392909101918201528351614c60816004840160208801613f41565b0160040195945050505050565b634e487b7160e01b600052603260045260246000fd5b6000808335601e19843603018112614c9a57600080fd5b83018035915067ffffffffffffffff821115614cb557600080fd5b60200191503681900382131561417e57600080fd5b8183823760009101908152919050565b6000600019821415614cee57614cee6148ec565b5060010190565b6000816000190483118215151615614d0f57614d0f6148ec565b500290565b600082614d3157634e487b7160e01b600052601260045260246000fd5b500490565b60006001600160801b03808316818516808303821115614d5857614d586148ec565b01949350505050565b60008251614d73818460208701613f41565b9190910192915050565b60006001600160801b0383811690831681811015614d9d57614d9d6148ec565b039392505050565b634e487b7160e01b600052602160045260246000fd5b600060208284031215614dcd57600080fd5b815161143581614537565b60008451614dea818460208901613f41565b91909101928352506020820152604001919050565b600060ff821660ff811415614e1657614e166148ec565b6001019291505056fea26469706673582212200d01ff5837f4e065692f1dfd56fbe4b5aa6e398eda6bcf2573d66716b15341d964736f6c63430008090033",
  "devdoc": {
    "kind": "dev",
    "methods": {
      "addAsset(address,address,bool,uint256)": {
        "params": {
          "from": "Address to add asset from.",
          "share": "The amount of shares to add.",
          "skim": "True if the amount should be skimmed from the deposit balance of msg.sender. False if tokens from msg.sender in `yieldBox` should be transferred.",
          "to": "The address of the user to receive the assets."
        },
        "returns": {
          "fraction": "Total fractions added."
        }
      },
      "addCollateral(address,address,bool,uint256)": {
        "params": {
          "from": "Account to transfer shares from.",
          "share": "The amount of shares to add for `to`.",
          "skim": "True if the amount should be skimmed from the deposit balance of msg.sender. False if tokens from msg.sender in `yieldBox` should be transferred.",
          "to": "The receiver of the tokens."
        }
      },
      "approve(address,uint256)": {
        "params": {
          "amount": "The maximum collective amount that `spender` can draw.",
          "spender": "Address of the party that can draw from msg.sender's account."
        },
        "returns": {
          "_0": "(bool) Returns True if approved."
        }
      },
      "borrow(address,address,uint256)": {
        "params": {
          "amount": "Amount to borrow.",
          "from": "Account to borrow for.",
          "to": "The receiver of borrowed tokens."
        },
        "returns": {
          "part": "Total part of the debt held by borrowers.",
          "share": "Total amount in shares borrowed."
        }
      },
      "computeAssetAmountToSolvency(address,uint256)": {
        "details": "We use a `CLOSED_COLLATERIZATION_RATE` that is a safety buffer when making the user solvent again,      To prevent from being liquidated. This function is valid only if user is not solvent by `_isSolvent()`.",
        "params": {
          "_exchangeRate": "The exchange rate asset/collateral.",
          "user": "The user to check solvency."
        },
        "returns": {
          "amountToSolvency": "The amount of collateral to be solvent."
        }
      },
      "execute(bytes[],bool)": {
        "params": {
          "calls": "An array encoded call data.",
          "revertOnFail": "If True then reverts after a failed call and stops doing further calls."
        }
      },
      "flashLoan(address,address,uint256,bytes)": {
        "details": "The contract expect the `borrower` to have at the end of `onFlashLoan` `amount` + the incurred fees. The borrower is expected to `approve()` yieldBox for this number at the end of its `onFlashLoan()`.",
        "params": {
          "amount": "of the tokens to receive.",
          "borrower": "The address of the contract that implements and conforms to `IFlashBorrower` and handles the flashloan.",
          "data": "The calldata to pass to the `borrower` contract.",
          "receiver": "Address of the token receiver."
        }
      },
      "getAmountForAssetFraction(uint256)": {
        "params": {
          "fraction": "The fraction."
        },
        "returns": {
          "amount": "The amount."
        }
      },
      "getAmountForBorrowPart(uint256)": {
        "params": {
          "borrowPart": "The amount of borrow part to convert."
        },
        "returns": {
          "amount": "The equivalent of borrow part in asset amount."
        }
      },
      "getCollateralAmountForShare(uint256)": {
        "params": {
          "share": "The shares."
        },
        "returns": {
          "amount": "The amount."
        }
      },
      "getCollateralSharesForBorrowPart(uint256)": {
        "params": {
          "borrowPart": "The borrow part."
        },
        "returns": {
          "collateralShares": "The collateral shares."
        }
      },
      "liquidate(address[],uint256[],address,bytes,bytes)": {
        "details": "Will call `closedLiquidation()` if not LQ exists or no LQ bid avail exists. Otherwise use LQ.",
        "params": {
          "collateralToAssetSwapData": "Extra swap data        Ignore for `orderBookLiquidation()`",
          "maxBorrowParts": "A one-to-one mapping to `users`, contains maximum (partial) borrow amounts (to liquidate) of the respective user.        Ignore for `orderBookLiquidation()`",
          "swapper": "Contract address of the `MultiSwapper` implementation. See `setSwapper`.        Ignore for `orderBookLiquidation()`",
          "usdoToBorrowedSwapData": "Extra swap data        Ignore for `closedLiquidation()`",
          "users": "An array of user addresses."
        }
      },
      "permit(address,address,uint256,uint256,uint8,bytes32,bytes32)": {
        "params": {
          "deadline": "This permit must be redeemed before this deadline (UTC timestamp in seconds).",
          "owner_": "Address of the owner.",
          "spender": "The address of the spender that gets approved to draw from `owner_`.",
          "value": "The maximum collective amount that `spender` can draw."
        }
      },
      "removeAsset(address,address,uint256)": {
        "params": {
          "fraction": "The amount/fraction of assets held to remove.",
          "from": "Account to debit Assets from.",
          "to": "The user that receives the removed assets."
        },
        "returns": {
          "share": "The amount of shares transferred to `to`."
        }
      },
      "removeCollateral(address,address,uint256)": {
        "params": {
          "from": "Account to debit collateral from.",
          "share": "Amount of shares to remove.",
          "to": "The receiver of the shares."
        }
      },
      "repay(address,address,bool,uint256)": {
        "params": {
          "from": "Address to repay from.",
          "part": "The amount to repay. See `userBorrowPart`.",
          "skim": "True if the amount should be skimmed from the deposit balance of msg.sender. False if tokens from msg.sender in `yieldBox` should be transferred.",
          "to": "Address of the user this payment should go."
        },
        "returns": {
          "amount": "The total amount repayed."
        }
      },
      "setCollateralSwapPath(address[])": {
        "params": {
          "_collateralSwapPath": "The Uniswap path ."
        }
      },
      "setLiquidationQueue(address)": {
        "params": {
          "_liquidationQueue": "The address of the new LiquidationQueue contract."
        }
      },
      "setTapSwapPath(address[])": {
        "params": {
          "_tapSwapPath": "The Uniswap path ."
        }
      },
      "transfer(address,uint256)": {
        "params": {
          "amount": "of the tokens to move.",
          "to": "The address to move the tokens."
        },
        "returns": {
          "_0": "(bool) Returns True if succeeded."
        }
      },
      "transferFrom(address,address,uint256)": {
        "params": {
          "amount": "The token amount to move.",
          "from": "Address to draw tokens from.",
          "to": "The address to move the tokens."
        },
        "returns": {
          "_0": "(bool) Returns True if succeeded."
        }
      },
      "transferOwnership(address,bool,bool)": {
        "params": {
          "direct": "True if `newOwner` should be set immediately. False if `newOwner` needs to use `claimOwnership`.",
          "newOwner": "Address of the new owner.",
          "renounce": "Allows the `newOwner` to be `address(0)` if `direct` and `renounce` is True. Has no effect otherwise."
        }
      },
      "updateExchangeRate()": {
        "returns": {
          "rate": "The new exchange rate.",
          "updated": "True if `exchangeRate` was updated."
        }
      }
    },
    "version": 1
  },
  "userdoc": {
    "kind": "user",
    "methods": {
      "accrue()": {
        "notice": "Accrues the interest on the borrowed tokens and handles the accumulation of fees."
      },
      "addAsset(address,address,bool,uint256)": {
        "notice": "Adds assets to the lending pair."
      },
      "addCollateral(address,address,bool,uint256)": {
        "notice": "Adds `collateral` from msg.sender to the account `to`."
      },
      "allowance(address,address)": {
        "notice": "owner > spender > allowance mapping."
      },
      "approve(address,uint256)": {
        "notice": "Approves `amount` from sender to be spend by `spender`."
      },
      "balanceOf(address)": {
        "notice": "owner > balance mapping."
      },
      "borrow(address,address,uint256)": {
        "notice": "Sender borrows `amount` and transfers it to `to`."
      },
      "claimOwnership()": {
        "notice": "Needs to be called by `pendingOwner` to claim ownership."
      },
      "computeAssetAmountToSolvency(address,uint256)": {
        "notice": "Return the amount of collateral for a `user` to be solvent. Returns 0 if user already solvent."
      },
      "depositFeesToYieldBox(address,(uint256))": {
        "notice": "Withdraw the balance of `feeTo`, swap asset into TAP and deposit it to yieldBox of `feeTo`"
      },
      "exchangeRate()": {
        "notice": "Exchange and interest rate tracking. This is 'cached' here because calls to Oracles can be very expensive. Asset -> collateral = assetAmount * exchangeRate."
      },
      "execute(bytes[],bool)": {
        "notice": "Allows batched call to Mixologist."
      },
      "flashLoan(address,address,uint256,bytes)": {
        "notice": "Flashloan ability."
      },
      "getAmountForAssetFraction(uint256)": {
        "notice": "Compute the amount of `mixologist.assetId` from `fraction` `fraction` can be `mixologist.accrueInfo.feeFraction` or `mixologist.balanceOf`"
      },
      "getAmountForBorrowPart(uint256)": {
        "notice": "Return the equivalent of borrow part in asset amount."
      },
      "getCollateralAmountForShare(uint256)": {
        "notice": "Calculate the collateral amount off the shares."
      },
      "getCollateralSharesForBorrowPart(uint256)": {
        "notice": "Calculate the collateral shares that are needed for `borrowPart`, taking the current exchange rate into account."
      },
      "init(bytes)": {
        "notice": "The init function that acts as a constructor"
      },
      "liquidate(address[],uint256[],address,bytes,bytes)": {
        "notice": "Entry point for liquidations."
      },
      "nonces(address)": {
        "notice": "owner > nonce mapping. Used in `permit`."
      },
      "permit(address,address,uint256,uint256,uint8,bytes32,bytes32)": {
        "notice": "Approves `value` from `owner_` to be spend by `spender`."
      },
      "removeAsset(address,address,uint256)": {
        "notice": "Removes an asset from msg.sender and transfers it to `to`."
      },
      "removeCollateral(address,address,uint256)": {
        "notice": "Removes `share` amount of collateral and transfers it to `to`."
      },
      "repay(address,address,bool,uint256)": {
        "notice": "Repays a loan."
      },
      "setBorrowCap(uint256)": {
        "notice": "sets max borrowable amount"
      },
      "setCollateralSwapPath(address[])": {
        "notice": "Used to set the swap path of closed liquidations"
      },
      "setLiquidationQueue(address)": {
        "notice": "Set a new LiquidationQueue."
      },
      "setTapSwapPath(address[])": {
        "notice": "Used to set the swap path of Asset -> TAP"
      },
      "transfer(address,uint256)": {
        "notice": "Transfers `amount` tokens from `msg.sender` to `to`."
      },
      "transferFrom(address,address,uint256)": {
        "notice": "Transfers `amount` tokens from `from` to `to`. Caller needs approval for `from`."
      },
      "transferOwnership(address,bool,bool)": {
        "notice": "Transfers ownership to `newOwner`. Either directly or claimable by the new pending owner. Can only be invoked by the current `owner`."
      },
      "updateExchangeRate()": {
        "notice": "Gets the exchange rate. I.e how much collateral to buy 1e18 asset. This function is supposed to be invoked if needed because Oracle queries can be expensive."
      },
      "updateLQExecutionSwapper(address)": {
        "notice": "Execute an only owner function inside of the LiquidationQueue"
      },
      "updateLQUsdoSwapper(address)": {
        "notice": "Execute an only owner function inside of the LiquidationQueue"
      },
      "withdrawFeesEarned()": {
        "notice": "Withdraw the fees accumulated in `accrueInfo.feesEarnedFraction` to the balance of `feeTo`."
      }
    },
    "version": 1
  },
  "storageLayout": {
    "storage": [
      {
        "astId": 233,
        "contract": "contracts/mixologist/Mixologist.sol:Mixologist",
        "label": "owner",
        "offset": 0,
        "slot": "0",
        "type": "t_address"
      },
      {
        "astId": 235,
        "contract": "contracts/mixologist/Mixologist.sol:Mixologist",
        "label": "pendingOwner",
        "offset": 0,
        "slot": "1",
        "type": "t_address"
      },
      {
        "astId": 478,
        "contract": "contracts/mixologist/Mixologist.sol:Mixologist",
        "label": "balanceOf",
        "offset": 0,
        "slot": "2",
        "type": "t_mapping(t_address,t_uint256)"
      },
      {
        "astId": 486,
        "contract": "contracts/mixologist/Mixologist.sol:Mixologist",
        "label": "allowance",
        "offset": 0,
        "slot": "3",
        "type": "t_mapping(t_address,t_mapping(t_address,t_uint256))"
      },
      {
        "astId": 491,
        "contract": "contracts/mixologist/Mixologist.sol:Mixologist",
        "label": "nonces",
        "offset": 0,
        "slot": "4",
        "type": "t_mapping(t_address,t_uint256)"
      },
      {
        "astId": 10162,
        "contract": "contracts/mixologist/Mixologist.sol:Mixologist",
        "label": "accrueInfo",
        "offset": 0,
        "slot": "5",
        "type": "t_struct(AccrueInfo)10159_storage"
      },
      {
        "astId": 10165,
        "contract": "contracts/mixologist/Mixologist.sol:Mixologist",
        "label": "beachBar",
        "offset": 0,
        "slot": "6",
        "type": "t_contract(BeachBar)3219"
      },
      {
        "astId": 10168,
        "contract": "contracts/mixologist/Mixologist.sol:Mixologist",
        "label": "yieldBox",
        "offset": 0,
        "slot": "7",
        "type": "t_contract(YieldBox)18196"
      },
      {
        "astId": 10171,
        "contract": "contracts/mixologist/Mixologist.sol:Mixologist",
        "label": "liquidationQueue",
        "offset": 0,
        "slot": "8",
        "type": "t_contract(ILiquidationQueue)4199"
      },
      {
        "astId": 10174,
        "contract": "contracts/mixologist/Mixologist.sol:Mixologist",
        "label": "collateral",
        "offset": 0,
        "slot": "9",
        "type": "t_contract(IERC20)1099"
      },
      {
        "astId": 10177,
        "contract": "contracts/mixologist/Mixologist.sol:Mixologist",
        "label": "asset",
        "offset": 0,
        "slot": "10",
        "type": "t_contract(IERC20)1099"
      },
      {
        "astId": 10179,
        "contract": "contracts/mixologist/Mixologist.sol:Mixologist",
        "label": "collateralId",
        "offset": 0,
        "slot": "11",
        "type": "t_uint256"
      },
      {
        "astId": 10181,
        "contract": "contracts/mixologist/Mixologist.sol:Mixologist",
        "label": "assetId",
        "offset": 0,
        "slot": "12",
        "type": "t_uint256"
      },
      {
        "astId": 10183,
        "contract": "contracts/mixologist/Mixologist.sol:Mixologist",
        "label": "totalCollateralShare",
        "offset": 0,
        "slot": "13",
        "type": "t_uint256"
      },
      {
        "astId": 10186,
        "contract": "contracts/mixologist/Mixologist.sol:Mixologist",
        "label": "totalAsset",
        "offset": 0,
        "slot": "14",
        "type": "t_struct(Rebase)1874_storage"
      },
      {
        "astId": 10189,
        "contract": "contracts/mixologist/Mixologist.sol:Mixologist",
        "label": "totalBorrow",
        "offset": 0,
        "slot": "15",
        "type": "t_struct(Rebase)1874_storage"
      },
      {
        "astId": 10191,
        "contract": "contracts/mixologist/Mixologist.sol:Mixologist",
        "label": "totalBorrowCap",
        "offset": 0,
        "slot": "16",
        "type": "t_uint256"
      },
      {
        "astId": 10195,
        "contract": "contracts/mixologist/Mixologist.sol:Mixologist",
        "label": "userCollateralShare",
        "offset": 0,
        "slot": "17",
        "type": "t_mapping(t_address,t_uint256)"
      },
      {
        "astId": 10199,
        "contract": "contracts/mixologist/Mixologist.sol:Mixologist",
        "label": "userBorrowPart",
        "offset": 0,
        "slot": "18",
        "type": "t_mapping(t_address,t_uint256)"
      },
      {
        "astId": 10205,
        "contract": "contracts/mixologist/Mixologist.sol:Mixologist",
        "label": "isApprovedForAll",
        "offset": 0,
        "slot": "19",
        "type": "t_mapping(t_address,t_mapping(t_address,t_bool))"
      },
      {
        "astId": 10208,
        "contract": "contracts/mixologist/Mixologist.sol:Mixologist",
        "label": "exchangeRate",
        "offset": 0,
        "slot": "20",
        "type": "t_uint256"
      },
      {
        "astId": 10211,
        "contract": "contracts/mixologist/Mixologist.sol:Mixologist",
        "label": "oracle",
        "offset": 0,
        "slot": "21",
        "type": "t_contract(IOracle)12535"
      },
      {
        "astId": 10213,
        "contract": "contracts/mixologist/Mixologist.sol:Mixologist",
        "label": "oracleData",
        "offset": 0,
        "slot": "22",
        "type": "t_bytes_storage"
      },
      {
        "astId": 10216,
        "contract": "contracts/mixologist/Mixologist.sol:Mixologist",
        "label": "collateralSwapPath",
        "offset": 0,
        "slot": "23",
        "type": "t_array(t_address)dyn_storage"
      },
      {
        "astId": 10219,
        "contract": "contracts/mixologist/Mixologist.sol:Mixologist",
        "label": "tapSwapPath",
        "offset": 0,
        "slot": "24",
        "type": "t_array(t_address)dyn_storage"
      },
      {
        "astId": 7617,
        "contract": "contracts/mixologist/Mixologist.sol:Mixologist",
        "label": "initialized",
        "offset": 0,
        "slot": "25",
        "type": "t_bool"
      },
      {
        "astId": 10429,
        "contract": "contracts/mixologist/Mixologist.sol:Mixologist",
        "label": "liquidationModule",
        "offset": 1,
        "slot": "25",
        "type": "t_contract(MXLiquidation)9739"
      },
      {
        "astId": 10432,
        "contract": "contracts/mixologist/Mixologist.sol:Mixologist",
        "label": "lendingBorrowingModule",
        "offset": 0,
        "slot": "26",
        "type": "t_contract(MXLendingBorrowing)8955"
      }
    ],
    "types": {
      "t_address": {
        "encoding": "inplace",
        "label": "address",
        "numberOfBytes": "20"
      },
      "t_array(t_address)dyn_storage": {
        "base": "t_address",
        "encoding": "dynamic_array",
        "label": "address[]",
        "numberOfBytes": "32"
      },
      "t_bool": {
        "encoding": "inplace",
        "label": "bool",
        "numberOfBytes": "1"
      },
      "t_bytes_storage": {
        "encoding": "bytes",
        "label": "bytes",
        "numberOfBytes": "32"
      },
      "t_contract(BeachBar)3219": {
        "encoding": "inplace",
        "label": "contract BeachBar",
        "numberOfBytes": "20"
      },
      "t_contract(IERC20)1099": {
        "encoding": "inplace",
        "label": "contract IERC20",
        "numberOfBytes": "20"
      },
      "t_contract(ILiquidationQueue)4199": {
        "encoding": "inplace",
        "label": "contract ILiquidationQueue",
        "numberOfBytes": "20"
      },
      "t_contract(IOracle)12535": {
        "encoding": "inplace",
        "label": "contract IOracle",
        "numberOfBytes": "20"
      },
      "t_contract(MXLendingBorrowing)8955": {
        "encoding": "inplace",
        "label": "contract MXLendingBorrowing",
        "numberOfBytes": "20"
      },
      "t_contract(MXLiquidation)9739": {
        "encoding": "inplace",
        "label": "contract MXLiquidation",
        "numberOfBytes": "20"
      },
      "t_contract(YieldBox)18196": {
        "encoding": "inplace",
        "label": "contract YieldBox",
        "numberOfBytes": "20"
      },
      "t_mapping(t_address,t_bool)": {
        "encoding": "mapping",
        "key": "t_address",
        "label": "mapping(address => bool)",
        "numberOfBytes": "32",
        "value": "t_bool"
      },
      "t_mapping(t_address,t_mapping(t_address,t_bool))": {
        "encoding": "mapping",
        "key": "t_address",
        "label": "mapping(address => mapping(address => bool))",
        "numberOfBytes": "32",
        "value": "t_mapping(t_address,t_bool)"
      },
      "t_mapping(t_address,t_mapping(t_address,t_uint256))": {
        "encoding": "mapping",
        "key": "t_address",
        "label": "mapping(address => mapping(address => uint256))",
        "numberOfBytes": "32",
        "value": "t_mapping(t_address,t_uint256)"
      },
      "t_mapping(t_address,t_uint256)": {
        "encoding": "mapping",
        "key": "t_address",
        "label": "mapping(address => uint256)",
        "numberOfBytes": "32",
        "value": "t_uint256"
      },
      "t_struct(AccrueInfo)10159_storage": {
        "encoding": "inplace",
        "label": "struct MXStorage.AccrueInfo",
        "members": [
          {
            "astId": 10154,
            "contract": "contracts/mixologist/Mixologist.sol:Mixologist",
            "label": "interestPerSecond",
            "offset": 0,
            "slot": "0",
            "type": "t_uint64"
          },
          {
            "astId": 10156,
            "contract": "contracts/mixologist/Mixologist.sol:Mixologist",
            "label": "lastAccrued",
            "offset": 8,
            "slot": "0",
            "type": "t_uint64"
          },
          {
            "astId": 10158,
            "contract": "contracts/mixologist/Mixologist.sol:Mixologist",
            "label": "feesEarnedFraction",
            "offset": 16,
            "slot": "0",
            "type": "t_uint128"
          }
        ],
        "numberOfBytes": "32"
      },
      "t_struct(Rebase)1874_storage": {
        "encoding": "inplace",
        "label": "struct Rebase",
        "members": [
          {
            "astId": 1871,
            "contract": "contracts/mixologist/Mixologist.sol:Mixologist",
            "label": "elastic",
            "offset": 0,
            "slot": "0",
            "type": "t_uint128"
          },
          {
            "astId": 1873,
            "contract": "contracts/mixologist/Mixologist.sol:Mixologist",
            "label": "base",
            "offset": 16,
            "slot": "0",
            "type": "t_uint128"
          }
        ],
        "numberOfBytes": "32"
      },
      "t_uint128": {
        "encoding": "inplace",
        "label": "uint128",
        "numberOfBytes": "16"
      },
      "t_uint256": {
        "encoding": "inplace",
        "label": "uint256",
        "numberOfBytes": "32"
      },
      "t_uint64": {
        "encoding": "inplace",
        "label": "uint64",
        "numberOfBytes": "8"
      }
    }
  }
}