{
  "address": "0x31B8cb43Cd1248fa446B671F73108258952E4405",
  "abi": [
    {
      "inputs": [
        {
          "internalType": "contract IBeachBar",
          "name": "tapiocaBar_",
          "type": "address"
        },
        {
          "internalType": "contract IERC20",
          "name": "_collateral",
          "type": "address"
        },
        {
          "internalType": "uint256",
          "name": "_collateralId",
          "type": "uint256"
        },
        {
          "internalType": "contract IOracle",
          "name": "_oracle",
          "type": "address"
        },
        {
          "internalType": "address[]",
          "name": "_tapSwapPath",
          "type": "address[]"
        },
        {
          "internalType": "address[]",
          "name": "_collateralSwapPath",
          "type": "address[]"
        }
      ],
      "stateMutability": "nonpayable",
      "type": "constructor"
    },
    {
      "inputs": [
        {
          "internalType": "address",
          "name": "_from",
          "type": "address"
        },
        {
          "internalType": "address",
          "name": "_operator",
          "type": "address"
        }
      ],
      "name": "NotApproved",
      "type": "error"
    },
    {
      "anonymous": false,
      "inputs": [
        {
          "indexed": true,
          "internalType": "address",
          "name": "owner",
          "type": "address"
        },
        {
          "indexed": true,
          "internalType": "address",
          "name": "spender",
          "type": "address"
        },
        {
          "indexed": false,
          "internalType": "uint256",
          "name": "value",
          "type": "uint256"
        }
      ],
      "name": "Approval",
      "type": "event"
    },
    {
      "anonymous": false,
      "inputs": [
        {
          "indexed": false,
          "internalType": "uint256",
          "name": "accruedAmount",
          "type": "uint256"
        },
        {
          "indexed": false,
          "internalType": "uint64",
          "name": "rate",
          "type": "uint64"
        }
      ],
      "name": "LogAccrue",
      "type": "event"
    },
    {
      "anonymous": false,
      "inputs": [
        {
          "indexed": true,
          "internalType": "address",
          "name": "from",
          "type": "address"
        },
        {
          "indexed": true,
          "internalType": "address",
          "name": "to",
          "type": "address"
        },
        {
          "indexed": false,
          "internalType": "uint256",
          "name": "share",
          "type": "uint256"
        }
      ],
      "name": "LogAddCollateral",
      "type": "event"
    },
    {
      "anonymous": false,
      "inputs": [
        {
          "indexed": true,
          "internalType": "address",
          "name": "_from",
          "type": "address"
        },
        {
          "indexed": true,
          "internalType": "address",
          "name": "_operator",
          "type": "address"
        },
        {
          "indexed": false,
          "internalType": "bool",
          "name": "_approved",
          "type": "bool"
        }
      ],
      "name": "LogApprovalForAll",
      "type": "event"
    },
    {
      "anonymous": false,
      "inputs": [
        {
          "indexed": true,
          "internalType": "address",
          "name": "from",
          "type": "address"
        },
        {
          "indexed": true,
          "internalType": "address",
          "name": "to",
          "type": "address"
        },
        {
          "indexed": false,
          "internalType": "uint256",
          "name": "amount",
          "type": "uint256"
        },
        {
          "indexed": false,
          "internalType": "uint256",
          "name": "feeAmount",
          "type": "uint256"
        },
        {
          "indexed": false,
          "internalType": "uint256",
          "name": "part",
          "type": "uint256"
        }
      ],
      "name": "LogBorrow",
      "type": "event"
    },
    {
      "anonymous": false,
      "inputs": [
        {
          "indexed": false,
          "internalType": "uint256",
          "name": "_oldVal",
          "type": "uint256"
        },
        {
          "indexed": false,
          "internalType": "uint256",
          "name": "_newVal",
          "type": "uint256"
        }
      ],
      "name": "LogBorrowCapUpdated",
      "type": "event"
    },
    {
      "anonymous": false,
      "inputs": [
        {
          "indexed": false,
          "internalType": "uint256",
          "name": "_oldVal",
          "type": "uint256"
        },
        {
          "indexed": false,
          "internalType": "uint256",
          "name": "_newVal",
          "type": "uint256"
        }
      ],
      "name": "LogBorrowingFee",
      "type": "event"
    },
    {
      "anonymous": false,
      "inputs": [],
      "name": "LogCollateralSwapPath",
      "type": "event"
    },
    {
      "anonymous": false,
      "inputs": [
        {
          "indexed": false,
          "internalType": "uint256",
          "name": "rate",
          "type": "uint256"
        }
      ],
      "name": "LogExchangeRate",
      "type": "event"
    },
    {
      "anonymous": false,
      "inputs": [
        {
          "indexed": true,
          "internalType": "address",
          "name": "from",
          "type": "address"
        },
        {
          "indexed": true,
          "internalType": "address",
          "name": "to",
          "type": "address"
        },
        {
          "indexed": false,
          "internalType": "uint256",
          "name": "share",
          "type": "uint256"
        }
      ],
      "name": "LogRemoveCollateral",
      "type": "event"
    },
    {
      "anonymous": false,
      "inputs": [
        {
          "indexed": true,
          "internalType": "address",
          "name": "from",
          "type": "address"
        },
        {
          "indexed": true,
          "internalType": "address",
          "name": "to",
          "type": "address"
        },
        {
          "indexed": false,
          "internalType": "uint256",
          "name": "amount",
          "type": "uint256"
        },
        {
          "indexed": false,
          "internalType": "uint256",
          "name": "part",
          "type": "uint256"
        }
      ],
      "name": "LogRepay",
      "type": "event"
    },
    {
      "anonymous": false,
      "inputs": [
        {
          "indexed": false,
          "internalType": "uint256",
          "name": "_oldFee",
          "type": "uint256"
        },
        {
          "indexed": false,
          "internalType": "uint256",
          "name": "_newFee",
          "type": "uint256"
        }
      ],
      "name": "LogStabilityFee",
      "type": "event"
    },
    {
      "anonymous": false,
      "inputs": [],
      "name": "LogTapSwapPath",
      "type": "event"
    },
    {
      "anonymous": false,
      "inputs": [
        {
          "indexed": true,
          "internalType": "address",
          "name": "feeTo",
          "type": "address"
        },
        {
          "indexed": false,
          "internalType": "uint256",
          "name": "feesEarned",
          "type": "uint256"
        }
      ],
      "name": "LogWithdrawFees",
      "type": "event"
    },
    {
      "anonymous": false,
      "inputs": [
        {
          "indexed": false,
          "internalType": "uint256",
          "name": "feeShares",
          "type": "uint256"
        },
        {
          "indexed": false,
          "internalType": "uint256",
          "name": "tapAmount",
          "type": "uint256"
        }
      ],
      "name": "LogYieldBoxFeesDeposit",
      "type": "event"
    },
    {
      "anonymous": false,
      "inputs": [
        {
          "indexed": true,
          "internalType": "address",
          "name": "previousOwner",
          "type": "address"
        },
        {
          "indexed": true,
          "internalType": "address",
          "name": "newOwner",
          "type": "address"
        }
      ],
      "name": "OwnershipTransferred",
      "type": "event"
    },
    {
      "anonymous": false,
      "inputs": [
        {
          "indexed": true,
          "internalType": "address",
          "name": "from",
          "type": "address"
        },
        {
          "indexed": true,
          "internalType": "address",
          "name": "to",
          "type": "address"
        },
        {
          "indexed": false,
          "internalType": "uint256",
          "name": "value",
          "type": "uint256"
        }
      ],
      "name": "Transfer",
      "type": "event"
    },
    {
      "inputs": [],
      "name": "DOMAIN_SEPARATOR",
      "outputs": [
        {
          "internalType": "bytes32",
          "name": "",
          "type": "bytes32"
        }
      ],
      "stateMutability": "view",
      "type": "function"
    },
    {
      "inputs": [],
      "name": "accrue",
      "outputs": [],
      "stateMutability": "nonpayable",
      "type": "function"
    },
    {
      "inputs": [],
      "name": "accrueInfo",
      "outputs": [
        {
          "internalType": "uint64",
          "name": "stabilityFee",
          "type": "uint64"
        },
        {
          "internalType": "uint64",
          "name": "lastAccrued",
          "type": "uint64"
        }
      ],
      "stateMutability": "view",
      "type": "function"
    },
    {
      "inputs": [
        {
          "internalType": "address",
          "name": "from",
          "type": "address"
        },
        {
          "internalType": "address",
          "name": "to",
          "type": "address"
        },
        {
          "internalType": "bool",
          "name": "skim",
          "type": "bool"
        },
        {
          "internalType": "uint256",
          "name": "share",
          "type": "uint256"
        }
      ],
      "name": "addCollateral",
      "outputs": [],
      "stateMutability": "nonpayable",
      "type": "function"
    },
    {
      "inputs": [
        {
          "internalType": "address",
          "name": "",
          "type": "address"
        },
        {
          "internalType": "address",
          "name": "",
          "type": "address"
        }
      ],
      "name": "allowance",
      "outputs": [
        {
          "internalType": "uint256",
          "name": "",
          "type": "uint256"
        }
      ],
      "stateMutability": "view",
      "type": "function"
    },
    {
      "inputs": [
        {
          "internalType": "address",
          "name": "spender",
          "type": "address"
        },
        {
          "internalType": "uint256",
          "name": "amount",
          "type": "uint256"
        }
      ],
      "name": "approve",
      "outputs": [
        {
          "internalType": "bool",
          "name": "",
          "type": "bool"
        }
      ],
      "stateMutability": "nonpayable",
      "type": "function"
    },
    {
      "inputs": [],
      "name": "asset",
      "outputs": [
        {
          "internalType": "contract IUSD0",
          "name": "",
          "type": "address"
        }
      ],
      "stateMutability": "view",
      "type": "function"
    },
    {
      "inputs": [],
      "name": "assetId",
      "outputs": [
        {
          "internalType": "uint256",
          "name": "",
          "type": "uint256"
        }
      ],
      "stateMutability": "view",
      "type": "function"
    },
    {
      "inputs": [
        {
          "internalType": "address",
          "name": "",
          "type": "address"
        }
      ],
      "name": "balanceOf",
      "outputs": [
        {
          "internalType": "uint256",
          "name": "",
          "type": "uint256"
        }
      ],
      "stateMutability": "view",
      "type": "function"
    },
    {
      "inputs": [],
      "name": "beachBar",
      "outputs": [
        {
          "internalType": "contract IBeachBar",
          "name": "",
          "type": "address"
        }
      ],
      "stateMutability": "view",
      "type": "function"
    },
    {
      "inputs": [
        {
          "internalType": "address",
          "name": "from",
          "type": "address"
        },
        {
          "internalType": "address",
          "name": "to",
          "type": "address"
        },
        {
          "internalType": "uint256",
          "name": "amount",
          "type": "uint256"
        }
      ],
      "name": "borrow",
      "outputs": [
        {
          "internalType": "uint256",
          "name": "part",
          "type": "uint256"
        },
        {
          "internalType": "uint256",
          "name": "share",
          "type": "uint256"
        }
      ],
      "stateMutability": "nonpayable",
      "type": "function"
    },
    {
      "inputs": [],
      "name": "borrowingFee",
      "outputs": [
        {
          "internalType": "uint256",
          "name": "",
          "type": "uint256"
        }
      ],
      "stateMutability": "view",
      "type": "function"
    },
    {
      "inputs": [],
      "name": "claimOwnership",
      "outputs": [],
      "stateMutability": "nonpayable",
      "type": "function"
    },
    {
      "inputs": [],
      "name": "collateral",
      "outputs": [
        {
          "internalType": "contract IERC20",
          "name": "",
          "type": "address"
        }
      ],
      "stateMutability": "view",
      "type": "function"
    },
    {
      "inputs": [],
      "name": "collateralId",
      "outputs": [
        {
          "internalType": "uint256",
          "name": "",
          "type": "uint256"
        }
      ],
      "stateMutability": "view",
      "type": "function"
    },
    {
      "inputs": [],
      "name": "decimals",
      "outputs": [
        {
          "internalType": "uint8",
          "name": "",
          "type": "uint8"
        }
      ],
      "stateMutability": "view",
      "type": "function"
    },
    {
      "inputs": [
        {
          "internalType": "contract IMultiSwapper",
          "name": "swapper",
          "type": "address"
        },
        {
          "components": [
            {
              "internalType": "uint256",
              "name": "minAssetAmount",
              "type": "uint256"
            }
          ],
          "internalType": "struct IBeachBar.SwapData",
          "name": "swapData",
          "type": "tuple"
        }
      ],
      "name": "depositFeesToYieldBox",
      "outputs": [],
      "stateMutability": "nonpayable",
      "type": "function"
    },
    {
      "inputs": [],
      "name": "exchangeRate",
      "outputs": [
        {
          "internalType": "uint256",
          "name": "",
          "type": "uint256"
        }
      ],
      "stateMutability": "view",
      "type": "function"
    },
    {
      "inputs": [
        {
          "internalType": "address",
          "name": "",
          "type": "address"
        },
        {
          "internalType": "address",
          "name": "",
          "type": "address"
        }
      ],
      "name": "isApprovedForAll",
      "outputs": [
        {
          "internalType": "bool",
          "name": "",
          "type": "bool"
        }
      ],
      "stateMutability": "view",
      "type": "function"
    },
    {
      "inputs": [
        {
          "internalType": "address[]",
          "name": "users",
          "type": "address[]"
        },
        {
          "internalType": "uint256[]",
          "name": "maxBorrowParts",
          "type": "uint256[]"
        },
        {
          "internalType": "contract IMultiSwapper",
          "name": "swapper",
          "type": "address"
        },
        {
          "internalType": "bytes",
          "name": "collateralToAssetSwapData",
          "type": "bytes"
        }
      ],
      "name": "liquidate",
      "outputs": [],
      "stateMutability": "nonpayable",
      "type": "function"
    },
    {
      "inputs": [],
      "name": "name",
      "outputs": [
        {
          "internalType": "string",
          "name": "",
          "type": "string"
        }
      ],
      "stateMutability": "view",
      "type": "function"
    },
    {
      "inputs": [
        {
          "internalType": "address",
          "name": "",
          "type": "address"
        }
      ],
      "name": "nonces",
      "outputs": [
        {
          "internalType": "uint256",
          "name": "",
          "type": "uint256"
        }
      ],
      "stateMutability": "view",
      "type": "function"
    },
    {
      "inputs": [],
      "name": "oracleData",
      "outputs": [
        {
          "internalType": "bytes",
          "name": "",
          "type": "bytes"
        }
      ],
      "stateMutability": "view",
      "type": "function"
    },
    {
      "inputs": [],
      "name": "owner",
      "outputs": [
        {
          "internalType": "address",
          "name": "",
          "type": "address"
        }
      ],
      "stateMutability": "view",
      "type": "function"
    },
    {
      "inputs": [],
      "name": "pendingOwner",
      "outputs": [
        {
          "internalType": "address",
          "name": "",
          "type": "address"
        }
      ],
      "stateMutability": "view",
      "type": "function"
    },
    {
      "inputs": [
        {
          "internalType": "address",
          "name": "owner_",
          "type": "address"
        },
        {
          "internalType": "address",
          "name": "spender",
          "type": "address"
        },
        {
          "internalType": "uint256",
          "name": "value",
          "type": "uint256"
        },
        {
          "internalType": "uint256",
          "name": "deadline",
          "type": "uint256"
        },
        {
          "internalType": "uint8",
          "name": "v",
          "type": "uint8"
        },
        {
          "internalType": "bytes32",
          "name": "r",
          "type": "bytes32"
        },
        {
          "internalType": "bytes32",
          "name": "s",
          "type": "bytes32"
        }
      ],
      "name": "permit",
      "outputs": [],
      "stateMutability": "nonpayable",
      "type": "function"
    },
    {
      "inputs": [
        {
          "internalType": "address",
          "name": "from",
          "type": "address"
        },
        {
          "internalType": "address",
          "name": "to",
          "type": "address"
        },
        {
          "internalType": "uint256",
          "name": "share",
          "type": "uint256"
        }
      ],
      "name": "removeCollateral",
      "outputs": [],
      "stateMutability": "nonpayable",
      "type": "function"
    },
    {
      "inputs": [
        {
          "internalType": "address",
          "name": "from",
          "type": "address"
        },
        {
          "internalType": "address",
          "name": "to",
          "type": "address"
        },
        {
          "internalType": "uint256",
          "name": "part",
          "type": "uint256"
        }
      ],
      "name": "repay",
      "outputs": [
        {
          "internalType": "uint256",
          "name": "amount",
          "type": "uint256"
        }
      ],
      "stateMutability": "nonpayable",
      "type": "function"
    },
    {
      "inputs": [
        {
          "internalType": "uint256",
          "name": "_cap",
          "type": "uint256"
        }
      ],
      "name": "setBorrowCap",
      "outputs": [],
      "stateMutability": "nonpayable",
      "type": "function"
    },
    {
      "inputs": [
        {
          "internalType": "address[]",
          "name": "_collateralSwapPath",
          "type": "address[]"
        }
      ],
      "name": "setCollateralSwapPath",
      "outputs": [],
      "stateMutability": "nonpayable",
      "type": "function"
    },
    {
      "inputs": [
        {
          "internalType": "address[]",
          "name": "_tapSwapPath",
          "type": "address[]"
        }
      ],
      "name": "setTapSwapPath",
      "outputs": [],
      "stateMutability": "nonpayable",
      "type": "function"
    },
    {
      "inputs": [],
      "name": "symbol",
      "outputs": [
        {
          "internalType": "string",
          "name": "",
          "type": "string"
        }
      ],
      "stateMutability": "view",
      "type": "function"
    },
    {
      "inputs": [],
      "name": "totalBorrow",
      "outputs": [
        {
          "internalType": "uint128",
          "name": "elastic",
          "type": "uint128"
        },
        {
          "internalType": "uint128",
          "name": "base",
          "type": "uint128"
        }
      ],
      "stateMutability": "view",
      "type": "function"
    },
    {
      "inputs": [],
      "name": "totalBorrowCap",
      "outputs": [
        {
          "internalType": "uint256",
          "name": "",
          "type": "uint256"
        }
      ],
      "stateMutability": "view",
      "type": "function"
    },
    {
      "inputs": [],
      "name": "totalCollateralShare",
      "outputs": [
        {
          "internalType": "uint256",
          "name": "",
          "type": "uint256"
        }
      ],
      "stateMutability": "view",
      "type": "function"
    },
    {
      "inputs": [],
      "name": "totalSupply",
      "outputs": [
        {
          "internalType": "uint256",
          "name": "",
          "type": "uint256"
        }
      ],
      "stateMutability": "view",
      "type": "function"
    },
    {
      "inputs": [
        {
          "internalType": "address",
          "name": "to",
          "type": "address"
        },
        {
          "internalType": "uint256",
          "name": "amount",
          "type": "uint256"
        }
      ],
      "name": "transfer",
      "outputs": [
        {
          "internalType": "bool",
          "name": "",
          "type": "bool"
        }
      ],
      "stateMutability": "nonpayable",
      "type": "function"
    },
    {
      "inputs": [
        {
          "internalType": "address",
          "name": "from",
          "type": "address"
        },
        {
          "internalType": "address",
          "name": "to",
          "type": "address"
        },
        {
          "internalType": "uint256",
          "name": "amount",
          "type": "uint256"
        }
      ],
      "name": "transferFrom",
      "outputs": [
        {
          "internalType": "bool",
          "name": "",
          "type": "bool"
        }
      ],
      "stateMutability": "nonpayable",
      "type": "function"
    },
    {
      "inputs": [
        {
          "internalType": "address",
          "name": "newOwner",
          "type": "address"
        },
        {
          "internalType": "bool",
          "name": "direct",
          "type": "bool"
        },
        {
          "internalType": "bool",
          "name": "renounce",
          "type": "bool"
        }
      ],
      "name": "transferOwnership",
      "outputs": [],
      "stateMutability": "nonpayable",
      "type": "function"
    },
    {
      "inputs": [
        {
          "internalType": "uint256",
          "name": "_borrowingFee",
          "type": "uint256"
        }
      ],
      "name": "updateBorrowingFee",
      "outputs": [],
      "stateMutability": "nonpayable",
      "type": "function"
    },
    {
      "inputs": [],
      "name": "updateExchangeRate",
      "outputs": [
        {
          "internalType": "bool",
          "name": "updated",
          "type": "bool"
        },
        {
          "internalType": "uint256",
          "name": "rate",
          "type": "uint256"
        }
      ],
      "stateMutability": "nonpayable",
      "type": "function"
    },
    {
      "inputs": [
        {
          "internalType": "uint64",
          "name": "_stabilityFee",
          "type": "uint64"
        }
      ],
      "name": "updateStabilityFee",
      "outputs": [],
      "stateMutability": "nonpayable",
      "type": "function"
    },
    {
      "inputs": [
        {
          "internalType": "address",
          "name": "",
          "type": "address"
        }
      ],
      "name": "userBorrowPart",
      "outputs": [
        {
          "internalType": "uint256",
          "name": "",
          "type": "uint256"
        }
      ],
      "stateMutability": "view",
      "type": "function"
    },
    {
      "inputs": [
        {
          "internalType": "address",
          "name": "",
          "type": "address"
        }
      ],
      "name": "userCollateralShare",
      "outputs": [
        {
          "internalType": "uint256",
          "name": "",
          "type": "uint256"
        }
      ],
      "stateMutability": "view",
      "type": "function"
    },
    {
      "inputs": [],
      "name": "yieldBox",
      "outputs": [
        {
          "internalType": "contract YieldBox",
          "name": "",
          "type": "address"
        }
      ],
      "stateMutability": "view",
      "type": "function"
    }
  ],
  "transactionHash": "0xe2b005c067b321410d2482487c6b310a08c7749c21d4a5432747f5201f9c993a",
  "args": [
    "0xAc3BD8e395cce3938F880fd4b869Db69c5F8baBe",
    "0xe1E3E81B5b868cAB59a27Fa8D30C5225c5D55FC4",
    "2",
    "0x08aa8c316b485a1a73356f662a9881d7b31bf427",
    [
      "0xf64364494212954c20B0762fcB1ebB6DC3e85441",
      "0x306547aa4B4241D73ae1e7A5465D277d06C40cbC"
    ],
    [
      "0xe1E3E81B5b868cAB59a27Fa8D30C5225c5D55FC4",
      "0xf64364494212954c20B0762fcB1ebB6DC3e85441"
    ]
  ],
  "numDeployments": 1,
  "solcInputHash": "2612d1c2a88385f6d32eefa521bedfe0",
  "bytecode": "0x60c06040523480156200001157600080fd5b50604051620050fb380380620050fb83398101604081905262000034916200061d565b600080546001600160a01b0319163390811782556040519091907f8be0079c531659141344cd1fd0a4f28419497f9722a3daafe3b4186f6b6457e0908290a34660a0819052620000d790604080517f47e79534a245952e8b16893a336b85a3d9ea9fa8c573f3d803afb92a794692186020820152908101829052306060820152600090608001604051602081830303815290604052805190602001209050919050565b608052600680546001600160a01b0319166001600160a01b0388169081179091556040805163de40657760e01b8152905163de40657791600480820192602092909190829003018186803b1580156200012f57600080fd5b505afa15801562000144573d6000803e3d6000fd5b505050506040513d601f19601f820116820180604052508101906200016a9190620006d0565b600780546001600160a01b03199081166001600160a01b0393841617909155600654600080549190931691161790558151620001ae906016906020850190620004ae565b508051620001c4906017906020840190620004ae565b5060065460408051631192124760e11b815290516000926001600160a01b031691632324248e916004808301926020929190829003018186803b1580156200020b57600080fd5b505afa15801562000220573d6000803e3d6000fd5b505050506040513d601f19601f82011682018060405250810190620002469190620006d0565b90506001600160a01b038616158015906200026957506001600160a01b03811615155b80156200027e57506001600160a01b03841615155b620002be5760405162461bcd60e51b815260206004820152600c60248201526b26bc1d103130b2103830b4b960a11b604482015260640160405180910390fd5b600980546001600160a01b0319166001600160a01b0383811691909117909155600654604080516386c8e21d60e01b8152905191909216916386c8e21d916004808301926020929190829003018186803b1580156200031c57600080fd5b505afa15801562000331573d6000803e3d6000fd5b505050506040513d601f19601f82011682018060405250810190620003579190620006f7565b600b55600880546001600160a01b038089166001600160a01b031992831617909255600a8790556014805492871692909116919091179055600580546001600160401b0319166312e687c0179055620003af620003d1565b5050600080546001600160a01b03191633179055506200074695505050505050565b60145460405163d6d7d52560e01b8152602060048201526000602482018190529182916001600160a01b039091169063d6d7d525906044016040805180830381600087803b1580156200042357600080fd5b505af115801562000438573d6000803e3d6000fd5b505050506040513d601f19601f820116820180604052508101906200045e919062000711565b90925090508115620004a65760128190556040518181527f9f9192b5edb17356c524e08d9e025c8e2f6307e6ea52fb7968faa3081f51c3c89060200160405180910390a19091565b506012549091565b82805482825590600052602060002090810192821562000506579160200282015b828111156200050657825182546001600160a01b0319166001600160a01b03909116178255602090920191600190910190620004cf565b506200051492915062000518565b5090565b5b8082111562000514576000815560010162000519565b6001600160a01b03811681146200054557600080fd5b50565b634e487b7160e01b600052604160045260246000fd5b80516200056b816200052f565b919050565b600082601f8301126200058257600080fd5b815160206001600160401b0380831115620005a157620005a162000548565b8260051b604051601f19603f83011681018181108482111715620005c957620005c962000548565b604052938452858101830193838101925087851115620005e857600080fd5b83870191505b84821015620006125762000602826200055e565b83529183019190830190620005ee565b979650505050505050565b60008060008060008060c087890312156200063757600080fd5b865162000644816200052f565b602088015190965062000657816200052f565b60408801516060890151919650945062000671816200052f565b60808801519093506001600160401b03808211156200068f57600080fd5b6200069d8a838b0162000570565b935060a0890151915080821115620006b457600080fd5b50620006c389828a0162000570565b9150509295509295509295565b600060208284031215620006e357600080fd5b8151620006f0816200052f565b9392505050565b6000602082840312156200070a57600080fd5b5051919050565b600080604083850312156200072557600080fd5b825180151581146200073657600080fd5b6020939093015192949293505050565b60805160a05161498f6200076c60003960006133f001526000613421015261498f6000f3fe608060405234801561001057600080fd5b50600436106102ff5760003560e01c80635224372c1161019c57806395d89b41116100ee578063dd62ed3e11610097578063e985e9c511610071578063e985e9c5146106c9578063eec0f42e146106f7578063f8ba4cff1461070057600080fd5b8063dd62ed3e14610678578063de406577146106a3578063e30c3978146106b657600080fd5b8063cce19f81116100c8578063cce19f811461063f578063d505accf14610652578063d8dfeb451461066557600080fd5b806395d89b41146105df578063a9059cbb146105e7578063b27c0e74146105fa57600080fd5b8063717186d1116101505780638285ef401161012a5780638285ef40146105855780638377be50146105c35780638da5cb5b146105cc57600080fd5b8063717186d11461054a57806374645ff31461055d5780637ecebe001461056557600080fd5b8063678b432111610181578063678b4321146105045780636dbe21ff1461051757806370a082311461052a57600080fd5b80635224372c146104c95780635b487f4a146104f157600080fd5b80632cc2470d1161025557806340626d8b1161020957806348e4163e116101e357806348e4163e1461048e5780634a50ed27146104ae5780634e71e0c8146104c157600080fd5b806340626d8b1461047357806344de240a1461047c578063473e3ce71461048557600080fd5b80633644e5151161023a5780633644e5151461043757806338d52e0f1461043f5780633ba0b9a91461046a57600080fd5b80632cc2470d1461040a578063313ce5671461041d57600080fd5b806318160ddd116102b7578063224d763a11610291578063224d763a146103d157806323b872dd146103e457806325be7824146103f757600080fd5b806318160ddd146103885780631c9e379b1461039e5780631da649cf146103be57600080fd5b8063078dfbe7116102e8578063078dfbe71461033d578063095ea7b3146103525780630fde08e31461037557600080fd5b806302ce728f1461030457806306fdde0314610328575b600080fd5b61030c610708565b6040805192151583526020830191909152015b60405180910390f35b6103306107f9565b60405161031f9190613ff0565b61035061034b366004614029565b61095f565b005b610365610360366004614074565b610ac5565b604051901515815260200161031f565b6103506103833660046140a0565b610b32565b610390611306565b60405190815260200161031f565b6103906103ac3660046140e1565b600f6020526000908152604090205481565b6103906103cc3660046140fe565b6113a1565b6103506103df36600461418b565b611433565b6103656103f23660046140fe565b611462565b610350610405366004614267565b61168f565b6103506104183660046142b8565b6117bd565b6104256118ab565b60405160ff909116815260200161031f565b610390611941565b600954610452906001600160a01b031681565b6040516001600160a01b03909116815260200161031f565b61039060125481565b610390600e5481565b610390600b5481565b610390600c5481565b61039061049c3660046140e1565b60106020526000908152604090205481565b600654610452906001600160a01b031681565b61035061194b565b6104dc6104d73660046140fe565b611a15565b6040805192835260208301919091520161031f565b6103506104ff3660046142d1565b611af9565b610350610512366004614313565b611b8d565b6103506105253660046142d1565b611cb5565b6103906105383660046140e1565b60026020526000908152604090205481565b6103506105583660046142b8565b611d49565b610330611de4565b6103906105733660046140e1565b60046020526000908152604090205481565b600d546105a3906001600160801b0380821691600160801b90041682565b604080516001600160801b0393841681529290911660208301520161031f565b61039060135481565b600054610452906001600160a01b031681565b610330611e72565b6103656105f5366004614074565b611fc4565b60055461061e9067ffffffffffffffff808216916801000000000000000090041682565b6040805167ffffffffffffffff93841681529290911660208301520161031f565b61035061064d3660046140fe565b612129565b61035061066036600461434c565b612200565b600854610452906001600160a01b031681565b6103906106863660046143bd565b600360209081526000928352604080842090915290825290205481565b600754610452906001600160a01b031681565b600154610452906001600160a01b031681565b6103656106d73660046143bd565b601160209081526000928352604080842090915290825290205460ff1681565b610390600a5481565b610350612462565b6014546040517fd6d7d525000000000000000000000000000000000000000000000000000000008152602060048201526000602482018190529182916001600160a01b039091169063d6d7d525906044016040805180830381600087803b15801561077257600080fd5b505af1158015610786573d6000803e3d6000fd5b505050506040513d601f19601f820116820180604052508101906107aa91906143f6565b909250905081156107f15760128190556040518181527f9f9192b5edb17356c524e08d9e025c8e2f6307e6ea52fb7968faa3081f51c3c89060200160405180910390a19091565b506012549091565b600854606090610811906001600160a01b03166125e9565b600960009054906101000a90046001600160a01b03166001600160a01b03166306fdde036040518163ffffffff1660e01b815260040160006040518083038186803b15801561085f57600080fd5b505afa158015610873573d6000803e3d6000fd5b505050506040513d6000823e601f3d908101601f1916820160405261089b919081019061443a565b6014546040517fd568866c0000000000000000000000000000000000000000000000000000000081526001600160a01b039091169063d568866c906108e590601590600401614522565b60006040518083038186803b1580156108fd57600080fd5b505afa158015610911573d6000803e3d6000fd5b505050506040513d6000823e601f3d908101601f19168201604052610939919081019061443a565b60405160200161094b939291906145ca565b604051602081830303815290604052905090565b6000546001600160a01b031633146109be5760405162461bcd60e51b815260206004820181905260248201527f4f776e61626c653a2063616c6c6572206973206e6f7420746865206f776e657260448201526064015b60405180910390fd5b8115610a96576001600160a01b0383161515806109d85750805b610a245760405162461bcd60e51b815260206004820152601560248201527f4f776e61626c653a207a65726f2061646472657373000000000000000000000060448201526064016109b5565b600080546040516001600160a01b03808716939216917f8be0079c531659141344cd1fd0a4f28419497f9722a3daafe3b4186f6b6457e091a3600080546001600160a01b03851673ffffffffffffffffffffffffffffffffffffffff1991821617909155600180549091169055505050565b600180546001600160a01b03851673ffffffffffffffffffffffffffffffffffffffff19909116179055505050565b3360008181526003602090815260408083206001600160a01b038716808552925280832085905551919290917f8c5be1e5ebec7d5bd14f71427d1e84f3dd0314c0f7b2291e5b200ac8c7c3b92590610b209086815260200190565b60405180910390a35060015b92915050565b600654604051634656bfdf60e11b81526001600160a01b03848116600483015290911690638cad7fbe9060240160206040518083038186803b158015610b7757600080fd5b505afa158015610b8b573d6000803e3d6000fd5b505050506040513d601f19601f82011682018060405250810190610baf9190614652565b610bfb5760405162461bcd60e51b815260206004820152601360248201527f4d783a20496e76616c696420737761707065720000000000000000000000000060448201526064016109b5565b6009546040517f70a082310000000000000000000000000000000000000000000000000000000081523060048201526000916001600160a01b0316906370a082319060240160206040518083038186803b158015610c5857600080fd5b505afa158015610c6c573d6000803e3d6000fd5b505050506040513d601f19601f82011682018060405250810190610c90919061466f565b90508060026000600660009054906101000a90046001600160a01b03166001600160a01b031663017e7e586040518163ffffffff1660e01b815260040160206040518083038186803b158015610ce557600080fd5b505afa158015610cf9573d6000803e3d6000fd5b505050506040513d601f19601f82011682018060405250810190610d1d9190614688565b6001600160a01b03166001600160a01b031681526020019081526020016000206000828254610d4c91906146bb565b909155505060065460408051622fcfcb60e31b815290516001600160a01b039092169163017e7e5891600480820192602092909190829003018186803b158015610d9557600080fd5b505afa158015610da9573d6000803e3d6000fd5b505050506040513d601f19601f82011682018060405250810190610dcd9190614688565b6001600160a01b03167fbe641c3ffc44b2d6c184f023fa4ed7bda4b6ffa71e03b3c98ae0c776da1f17e782604051610e0791815260200190565b60405180910390a260065460408051622fcfcb60e31b815290516000926001600160a01b03169163017e7e58916004808301926020929190829003018186803b158015610e5357600080fd5b505afa158015610e67573d6000803e3d6000fd5b505050506040513d601f19601f82011682018060405250810190610e8b9190614688565b90506000600660009054906101000a90046001600160a01b03166001600160a01b0316630feb123d6040518163ffffffff1660e01b815260040160206040518083038186803b158015610edd57600080fd5b505afa158015610ef1573d6000803e3d6000fd5b505050506040513d601f19601f82011682018060405250810190610f159190614688565b6001600160a01b038316600090815260026020526040902054909150156112ff57600754600b546001600160a01b03848116600090815260026020526040808220549051638eb22cdd60e01b81526004810194909452602484015260448301819052921690638eb22cdd9060640160206040518083038186803b158015610f9b57600080fd5b505afa158015610faf573d6000803e3d6000fd5b505050506040513d601f19601f82011682018060405250810190610fd3919061466f565b6009546007546001600160a01b038681166000908152600260205260409081902054905163095ea7b360e01b81529282166004840152602483015292935091169063095ea7b390604401602060405180830381600087803b15801561103757600080fd5b505af115801561104b573d6000803e3d6000fd5b505050506040513d601f19601f8201168201806040525081019061106f9190614652565b50600754600b546001600160a01b03858116600090815260026020526040808220549051634d4d7cbd60e11b81526004810194909452306024850181905260448501526064840152608483015290911690639a9af97a9060a4016040805180830381600087803b1580156110e257600080fd5b505af11580156110f6573d6000803e3d6000fd5b505050506040513d601f19601f8201168201806040525081019061111a91906146d3565b50506001600160a01b0383811660009081526002602052604080822091909155600754600b549151630208d92960e11b8152306004820152898416602482015260448101929092526064820184905290911690630411b25290608401600060405180830381600087803b15801561119057600080fd5b505af11580156111a4573d6000803e3d6000fd5b505050506000866001600160a01b031663ce58b200600b54600660009054906101000a90046001600160a01b03166001600160a01b0316630e7ee2276040518163ffffffff1660e01b815260040160206040518083038186803b15801561120a57600080fd5b505afa15801561121e573d6000803e3d6000fd5b505050506040513d601f19601f82011682018060405250810190611242919061466f565b6040516001600160e01b031960e085901b16815261126e9291908b359089906016908a906004016146f7565b6040805180830381600087803b15801561128757600080fd5b505af115801561129b573d6000803e3d6000fd5b505050506040513d601f19601f820116820180604052508101906112bf91906146d3565b5060408051848152602081018390529192507fa4fef2aee55b8c5258b39e504f59d0fb9960865de9cc847e769cd282b6769363910160405180910390a150505b5050505050565b600954604080517f18160ddd00000000000000000000000000000000000000000000000000000000815290516000926001600160a01b0316916318160ddd916004808301926020929190829003018186803b15801561136457600080fd5b505afa158015611378573d6000803e3d6000fd5b505050506040513d601f19601f8201168201806040525081019061139c919061466f565b905090565b6000836001600160a01b03811633148015906113e857506001600160a01b038116600090815260026020908152604080832054600383528184203385529092529091205411155b1561141757604051630ca03e9b60e11b81526001600160a01b03821660048201523360248201526044016109b5565b61141f612462565b61142a8585856126da565b95945050505050565b600061143d610708565b915050611448612462565b6114588888888888868989612919565b5050505050505050565b60008115611637576001600160a01b038416600090815260026020526040902054828110156114d35760405162461bcd60e51b815260206004820152601660248201527f45524332303a2062616c616e636520746f6f206c6f770000000000000000000060448201526064016109b5565b836001600160a01b0316856001600160a01b031614611635576001600160a01b0385166000908152600360209081526040808320338452909152902054600019811461159857838110156115695760405162461bcd60e51b815260206004820152601860248201527f45524332303a20616c6c6f77616e636520746f6f206c6f77000000000000000060448201526064016109b5565b6115738482614775565b6001600160a01b03871660009081526003602090815260408083203384529091529020555b6001600160a01b0385166115ee5760405162461bcd60e51b815260206004820152601660248201527f45524332303a206e6f207a65726f20616464726573730000000000000000000060448201526064016109b5565b6115f88483614775565b6001600160a01b03808816600090815260026020526040808220939093559087168152908120805486929061162e9084906146bb565b9091555050505b505b826001600160a01b0316846001600160a01b03167fddf252ad1be2c89b69c2b068fc378daa952ba7f163c4a11628f55a4df523b3ef8460405161167c91815260200190565b60405180910390a35060015b9392505050565b836001600160a01b03811633148015906116d457506001600160a01b038116600090815260026020908152604080832054600383528184203385529092529091205411155b1561170357604051630ca03e9b60e11b81526001600160a01b03821660048201523360248201526044016109b5565b6001600160a01b0384166000908152600f60205260408120805484929061172b9084906146bb565b9091555050600c5461173d83826146bb565b600c55600a5461175190879085848861328e565b846001600160a01b0316846117665786611773565b6007546001600160a01b03165b6001600160a01b03167f9ed03113de523cebfe5e49d5f8e12894b1c0d42ce805990461726444c90eab87856040516117ad91815260200190565b60405180910390a3505050505050565b6000546001600160a01b031633146118175760405162461bcd60e51b815260206004820181905260248201527f4f776e61626c653a2063616c6c6572206973206e6f7420746865206f776e657260448201526064016109b5565b6201388081111561186a5760405162461bcd60e51b815260206004820152601360248201527f4d783a2076616c7565206e6f742076616c69640000000000000000000000000060448201526064016109b5565b60135460408051918252602082018390527fc353b09af857951dccce61b43a5854fc45beceed36c50e5d4cc2e71858a8e0df910160405180910390a1601355565b600954604080517f313ce56700000000000000000000000000000000000000000000000000000000815290516000926001600160a01b03169163313ce567916004808301926020929190829003018186803b15801561190957600080fd5b505afa15801561191d573d6000803e3d6000fd5b505050506040513d601f19601f8201168201806040525081019061139c919061478c565b600061139c6133ec565b6001546001600160a01b03163381146119a65760405162461bcd60e51b815260206004820181905260248201527f4f776e61626c653a2063616c6c657220213d2070656e64696e67206f776e657260448201526064016109b5565b600080546040516001600160a01b03808516939216917f8be0079c531659141344cd1fd0a4f28419497f9722a3daafe3b4186f6b6457e091a3600080546001600160a01b0390921673ffffffffffffffffffffffffffffffffffffffff19928316179055600180549091169055565b60008084806001600160a01b0381163314801590611a5e57506001600160a01b038116600090815260026020908152604080832054600383528184203385529092529091205411155b15611a8d57604051630ca03e9b60e11b81526001600160a01b03821660048201523360248201526044016109b5565b611a95612462565b611aa0878787613443565b6012549195509350611ab4915082906137f4565b611af05760405162461bcd60e51b815260206004820152600d60248201526c135e0e881a5b9cdbdb1d995b9d609a1b60448201526064016109b5565b50935093915050565b6000546001600160a01b03163314611b535760405162461bcd60e51b815260206004820181905260248201527f4f776e61626c653a2063616c6c6572206973206e6f7420746865206f776e657260448201526064016109b5565b611b5f60168383613f13565b506040517fde461cbb4d8705a5f1990f72cad419e082733b8287de2f8bad9172f1e6ab19d590600090a15050565b6000546001600160a01b03163314611be75760405162461bcd60e51b815260206004820181905260248201527f4f776e61626c653a2063616c6c6572206973206e6f7420746865206f776e657260448201526064016109b5565b670b1a2bc2ec5000008167ffffffffffffffff161115611c495760405162461bcd60e51b815260206004820152601360248201527f4d783a2076616c7565206e6f742076616c69640000000000000000000000000060448201526064016109b5565b6005546040805167ffffffffffffffff928316815291831660208301527fe3f402a6a81de53f360f6de77e18a3d547706f02f542d8faa56e80832dad95fc910160405180910390a16005805467ffffffffffffffff191667ffffffffffffffff92909216919091179055565b6000546001600160a01b03163314611d0f5760405162461bcd60e51b815260206004820181905260248201527f4f776e61626c653a2063616c6c6572206973206e6f7420746865206f776e657260448201526064016109b5565b611d1b60178383613f13565b506040517f3a358c2b91254f51dc2e51496b2fb716f30a767a4129cfcdf9cb2c5ef478eebf90600090a15050565b6000546001600160a01b03163314611da35760405162461bcd60e51b815260206004820181905260248201527f4f776e61626c653a2063616c6c6572206973206e6f7420746865206f776e657260448201526064016109b5565b600e5460408051918252602082018390527fae6e0ab3b95f0a53ff9660a390ccedcbbf1f2355dce974a9841af106fddcfaba910160405180910390a1600e55565b60158054611df1906144e7565b80601f0160208091040260200160405190810160405280929190818152602001828054611e1d906144e7565b8015611e6a5780601f10611e3f57610100808354040283529160200191611e6a565b820191906000526020600020905b815481529060010190602001808311611e4d57829003601f168201915b505050505081565b600854606090611e8a906001600160a01b0316613951565b600960009054906101000a90046001600160a01b03166001600160a01b03166395d89b416040518163ffffffff1660e01b815260040160006040518083038186803b158015611ed857600080fd5b505afa158015611eec573d6000803e3d6000fd5b505050506040513d6000823e601f3d908101601f19168201604052611f14919081019061443a565b6014546040517fc699c4d60000000000000000000000000000000000000000000000000000000081526001600160a01b039091169063c699c4d690611f5e90601590600401614522565b60006040518083038186803b158015611f7657600080fd5b505afa158015611f8a573d6000803e3d6000fd5b505050506040513d6000823e601f3d908101601f19168201604052611fb2919081019061443a565b60405160200161094b939291906147a9565b600081151580611fdc5750336001600160a01b038416145b156120ec5733600090815260026020526040902054828110156120415760405162461bcd60e51b815260206004820152601660248201527f45524332303a2062616c616e636520746f6f206c6f770000000000000000000060448201526064016109b5565b336001600160a01b038516146120ea576001600160a01b0384166120a75760405162461bcd60e51b815260206004820152601660248201527f45524332303a206e6f207a65726f20616464726573730000000000000000000060448201526064016109b5565b6120b18382614775565b33600090815260026020526040808220929092556001600160a01b038616815290812080548592906120e49084906146bb565b90915550505b505b6040518281526001600160a01b0384169033907fddf252ad1be2c89b69c2b068fc378daa952ba7f163c4a11628f55a4df523b3ef90602001610b20565b82806001600160a01b038116331480159061216f57506001600160a01b038116600090815260026020908152604080832054600383528184203385529092529091205411155b1561219e57604051630ca03e9b60e11b81526001600160a01b03821660048201523360248201526044016109b5565b6121a6612462565b6121b18585856139c6565b506121be816012546137f4565b6121fa5760405162461bcd60e51b815260206004820152600d60248201526c135e0e881a5b9cdbdb1d995b9d609a1b60448201526064016109b5565b50505050565b6001600160a01b0387166122565760405162461bcd60e51b815260206004820152601860248201527f45524332303a204f776e65722063616e6e6f742062652030000000000000000060448201526064016109b5565b8342106122a55760405162461bcd60e51b815260206004820152600e60248201527f45524332303a204578706972656400000000000000000000000000000000000060448201526064016109b5565b6001600160a01b0387166000818152600460205260408120805460019261234f927f6e71edae12b1b97f4d1f60370fef10105fa2faae0126114a169c64845d6126c9928d928d928d92916122f883614831565b909155506040805160208101969096526001600160a01b0394851690860152929091166060840152608083015260a082015260c0810188905260e00160405160208183030381529060405280519060200120613ad6565b6040805160008152602081018083529290925260ff871690820152606081018590526080810184905260a0016020604051602081039080840390855afa15801561239d573d6000803e3d6000fd5b505050602060405103516001600160a01b0316146123fd5760405162461bcd60e51b815260206004820152601860248201527f45524332303a20496e76616c6964205369676e6174757265000000000000000060448201526064016109b5565b6001600160a01b038781166000818152600360209081526040808320948b168084529482529182902089905590518881527f8c5be1e5ebec7d5bd14f71427d1e84f3dd0314c0f7b2291e5b200ac8c7c3b925910160405180910390a350505050505050565b6040805180820190915260055467ffffffffffffffff808216835268010000000000000000909104166020820181905260009061249f9042614775565b9050806124aa575050565b67ffffffffffffffff42811660208085019190915260408051808201909152600d546001600160801b03808216808452600160801b909204169282019290925284519092600092670de0b6b3a76400009286926125099291169061484c565b612513919061484c565b61251d919061486b565b90508082600001818151612531919061488d565b6001600160801b0390811690915283516020808601518316600160801b029190921617600d558551600580549288015167ffffffffffffffff90811668010000000000000000026fffffffffffffffffffffffffffffffff199490941690831617929092179091556040517f7484db546dcd57af0104c73c8a6968dfbaf5767f047cee0dadd0499ad7df81a092506125db9184825267ffffffffffffffff16602082015260400190565b60405180910390a150505050565b60408051600481526024810182526020810180517bffffffffffffffffffffffffffffffffffffffffffffffffffffffff167f06fdde0300000000000000000000000000000000000000000000000000000000179052905160609160009182916001600160a01b0386169161265e91906148b8565b600060405180830381855afa9150503d8060008114612699576040519150601f19603f3d011682016040523d82523d6000602084013e61269e565b606091505b5091509150816126c957604051806040016040528060038152602001623f3f3f60e81b8152506126d2565b6126d281613b46565b949350505050565b60408051808201909152600d546001600160801b038082168352600160801b90910416602082015260009061271190836001613d0d565b81516020928301516001600160801b03908116600160801b02911617600d556001600160a01b038516600090815260109092526040822080549193508492909161275c908490614775565b909155506000905061276e8383614775565b9050600061277c8284614775565b600754600b546040517f8d2e63b800000000000000000000000000000000000000000000000000000000815260048101919091526001600160a01b0389811660248301523060448301526064820187905260006084830152929350911690638d2e63b89060a4016040805180830381600087803b1580156127fc57600080fd5b505af1158015612810573d6000803e3d6000fd5b505050506040513d601f19601f8201168201806040525081019061283491906146d3565b505080156128ba576009546040517f9dc29fac000000000000000000000000000000000000000000000000000000008152306004820152602481018390526001600160a01b0390911690639dc29fac90604401600060405180830381600087803b1580156128a157600080fd5b505af11580156128b5573d6000803e3d6000fd5b505050505b846001600160a01b0316866001600160a01b03167fc8e512d8f188ca059984b5853d2bf653da902696b8512785b182b2c813789a6e8587604051612908929190918252602082015260400190565b60405180910390a350509392505050565b60408051808201909152600d546001600160801b038082168352600160801b90910416602082015260009081908190815b8b811015612bfa5760008d8d83818110612966576129666148d4565b905060200201602081019061297b91906140e1565b9050612987818a6137f4565b612be7576001600160a01b038116600090815260106020526040812054808e8e868181106129b7576129b76148d4565b90506020020135116129e1578d8d858181106129d5576129d56148d4565b905060200201356129e3565b805b91506129ef8282614775565b6001600160a01b0384166000908152601060205260408120919091559050612a18858383613d76565b600754600a549192506000916001600160a01b0390911690638eb22cdd90612a4b670de0b6b3a7640000620186a061484c565b8f612a596201b5808861484c565b612a63919061484c565b612a6d919061486b565b6040516001600160e01b031960e085901b168152600481019290925260248201526000604482015260640160206040518083038186803b158015612ab057600080fd5b505afa158015612ac4573d6000803e3d6000fd5b505050506040513d601f19601f82011682018060405250810190612ae8919061466f565b6001600160a01b0385166000908152600f6020526040812080549293508392909190612b15908490614775565b925050819055508c6001600160a01b0316846001600160a01b03167f8ad4d3ff00da092c7ad9a573ea4f5f6a3dffc6712dc06d3f78f49b862297c40283604051612b6191815260200190565b60405180910390a3836001600160a01b03168d6001600160a01b03167fc8e512d8f188ca059984b5853d2bf653da902696b8512785b182b2c813789a6e8486604051612bb7929190918252602082015260400190565b60405180910390a3612bc9818a6146bb565b9850612bd582896146bb565b9750612be183886146bb565b96505050505b5080612bf281614831565b91505061294a565b5082612c485760405162461bcd60e51b815260206004820152600b60248201527f4d783a20736f6c76656e7400000000000000000000000000000000000000000060448201526064016109b5565b8281600001818151612c5a91906148ea565b6001600160801b0316905250602081018051839190612c7a9083906148ea565b6001600160801b03908116909152825160208401518216600160801b02911617600d5550600c8054859190600090612cb3908490614775565b9091555050600754600b54604051638eb22cdd60e01b8152600481019190915260248101859052600160448201526000916001600160a01b031690638eb22cdd9060640160206040518083038186803b158015612d0f57600080fd5b505afa158015612d23573d6000803e3d6000fd5b505050506040513d601f19601f82011682018060405250810190612d47919061466f565b600654604051634656bfdf60e11b81526001600160a01b038c81166004830152929350911690638cad7fbe9060240160206040518083038186803b158015612d8e57600080fd5b505afa158015612da2573d6000803e3d6000fd5b505050506040513d601f19601f82011682018060405250810190612dc69190614652565b612e125760405162461bcd60e51b815260206004820152601360248201527f4d783a20496e76616c696420737761707065720000000000000000000000000060448201526064016109b5565b600754600a54604051630208d92960e11b81523060048201526001600160a01b038c81166024830152604482019290925260648101889052911690630411b25290608401600060405180830381600087803b158015612e7057600080fd5b505af1158015612e84573d6000803e3d6000fd5b50600092505087159050612ea157612e9e878901896142b8565b90505b600754600b54604051627eeac760e11b815230600482015260248101919091526000916001600160a01b03169062fdd58e9060440160206040518083038186803b158015612eee57600080fd5b505afa158015612f02573d6000803e3d6000fd5b505050506040513d601f19601f82011682018060405250810190612f26919061466f565b600a54600b546040517fce58b2000000000000000000000000000000000000000000000000000000000081529293506001600160a01b038e169263ce58b20092612f7d929091879030906017908f906004016146f7565b6040805180830381600087803b158015612f9657600080fd5b505af1158015612faa573d6000803e3d6000fd5b505050506040513d601f19601f82011682018060405250810190612fce91906146d3565b5050600754600b54604051627eeac760e11b815230600482015260248101919091526000916001600160a01b03169062fdd58e9060440160206040518083038186803b15801561301d57600080fd5b505afa158015613031573d6000803e3d6000fd5b505050506040513d601f19601f82011682018060405250810190613055919061466f565b905060006130638383614775565b905060006130718683614775565b90506000620186a06130856127108461484c565b61308f919061486b565b90506000620186a06130a462015f908561484c565b6130ae919061486b565b9050826130bb82846146bb565b146131085760405162461bcd60e51b815260206004820152601860248201527f4d783a206665652076616c756573206e6f742076616c6964000000000000000060448201526064016109b5565b60075460065460408051622fcfcb60e31b815290516001600160a01b0393841693630411b25293309391169163017e7e5891600480820192602092909190829003018186803b15801561315a57600080fd5b505afa15801561316e573d6000803e3d6000fd5b505050506040513d601f19601f820116820180604052508101906131929190614688565b600b546040516001600160e01b031960e086901b1681526001600160a01b039384166004820152929091166024830152604482015260648101859052608401600060405180830381600087803b1580156131eb57600080fd5b505af11580156131ff573d6000803e3d6000fd5b5050600754600b54604051630208d92960e11b81523060048201523360248201526044810191909152606481018590526001600160a01b039091169250630411b2529150608401600060405180830381600087803b15801561326057600080fd5b505af1158015613274573d6000803e3d6000fd5b505050505050505050505050505050505050505050505050565b801561337257600754604051627eeac760e11b81523060048201526024810186905283916001600160a01b03169062fdd58e9060440160206040518083038186803b1580156132dc57600080fd5b505afa1580156132f0573d6000803e3d6000fd5b505050506040513d601f19601f82011682018060405250810190613314919061466f565b61331e9190614775565b83111561336d5760405162461bcd60e51b815260206004820152600c60248201527f4d783a20746f6f206d756368000000000000000000000000000000000000000060448201526064016109b5565b6112ff565b600754604051630208d92960e11b81526001600160a01b038781166004830152306024830152604482018790526064820186905290911690630411b25290608401600060405180830381600087803b1580156133cd57600080fd5b505af11580156133e1573d6000803e3d6000fd5b505050505050505050565b60007f0000000000000000000000000000000000000000000000000000000000000000461461341e5761139c46613e0a565b507f000000000000000000000000000000000000000000000000000000000000000090565b6000806000620186a06013548561345a919061484c565b613464919061486b565b90506134a361347382866146bb565b60408051808201909152600d546001600160801b038082168352600160801b909104166020820152906001613e4b565b81516020909201516001600160801b03908116600160801b02921691909117600d55600e5490935015806134eb5750600e54600d54600160801b90046001600160801b031611155b6135375760405162461bcd60e51b815260206004820152601660248201527f4d783a20626f72726f772063617020726561636865640000000000000000000060448201526064016109b5565b6001600160a01b0386166000908152601060205260408120805485929061355f9084906146bb565b90915550506009546040517f40c10f19000000000000000000000000000000000000000000000000000000008152306004820152602481018690526001600160a01b03909116906340c10f1990604401600060405180830381600087803b1580156135c957600080fd5b505af11580156135dd573d6000803e3d6000fd5b505060095460075460405163095ea7b360e01b81526001600160a01b039182166004820152602481018990529116925063095ea7b39150604401602060405180830381600087803b15801561363157600080fd5b505af1158015613645573d6000803e3d6000fd5b505050506040513d601f19601f820116820180604052508101906136699190614652565b50600754600b54604051634d4d7cbd60e11b815260048101919091523060248201526001600160a01b038781166044830152606482018790526000608483015290911690639a9af97a9060a4016040805180830381600087803b1580156136cf57600080fd5b505af11580156136e3573d6000803e3d6000fd5b505050506040513d601f19601f8201168201806040525081019061370791906146d3565b5050600754600b54604051638eb22cdd60e01b8152600481019190915260248101869052600060448201526001600160a01b0390911690638eb22cdd9060640160206040518083038186803b15801561375f57600080fd5b505afa158015613773573d6000803e3d6000fd5b505050506040513d601f19601f82011682018060405250810190613797919061466f565b60408051868152602081018490529081018590529092506001600160a01b0380871691908816907f3a5151e57d3bc9798e7853034ac52293d1a0e12a2b44725e75b03b21f86477a69060600160405180910390a350935093915050565b6001600160a01b0382166000908152601060205260408120548061381c576001915050610b2c565b6001600160a01b0384166000908152600f6020908152604091829020548251808401909352600d546001600160801b03808216808652600160801b90920416928401839052909291908690613871908661484c565b61387b919061484c565b613885919061486b565b600754600a546001600160a01b039091169063442c159990620124f86138b6620186a0670de0b6b3a764000061486b565b6138c0908861484c565b6138ca919061484c565b6040516001600160e01b031960e085901b168152600481019290925260248201526000604482015260640160206040518083038186803b15801561390d57600080fd5b505afa158015613921573d6000803e3d6000fd5b505050506040513d601f19601f82011682018060405250810190613945919061466f565b10159695505050505050565b60408051600481526024810182526020810180517bffffffffffffffffffffffffffffffffffffffffffffffffffffffff167f95d89b4100000000000000000000000000000000000000000000000000000000179052905160609160009182916001600160a01b0386169161265e91906148b8565b6001600160a01b0383166000908152600f6020526040812080548392906139ee908490614775565b9250508190555080600c6000828254613a079190614775565b92505081905550816001600160a01b0316836001600160a01b03167f8ad4d3ff00da092c7ad9a573ea4f5f6a3dffc6712dc06d3f78f49b862297c40283604051613a5391815260200190565b60405180910390a3600754600a54604051630208d92960e11b81523060048201526001600160a01b038581166024830152604482019290925260648101849052911690630411b25290608401600060405180830381600087803b158015613ab957600080fd5b505af1158015613acd573d6000803e3d6000fd5b50505050505050565b60006040518060400160405280600281526020017f1901000000000000000000000000000000000000000000000000000000000000815250613b166133ec565b83604051602001613b2993929190614912565b604051602081830303815290604052805190602001209050919050565b60606040825110613b655781806020019051810190610b2c919061443a565b815160201415613cee5760005b60208160ff16108015613bbf5750828160ff1681518110613b9557613b956148d4565b01602001517fff000000000000000000000000000000000000000000000000000000000000001615155b15613bd65780613bce81614939565b915050613b72565b60008160ff1667ffffffffffffffff811115613bf457613bf4614424565b6040519080825280601f01601f191660200182016040528015613c1e576020820181803683370190505b509050600091505b60208260ff16108015613c735750838260ff1681518110613c4957613c496148d4565b01602001517fff000000000000000000000000000000000000000000000000000000000000001615155b1561168857838260ff1681518110613c8d57613c8d6148d4565b602001015160f81c60f81b818360ff1681518110613cad57613cad6148d4565b60200101907effffffffffffffffffffffffffffffffffffffffffffffffffffffffffffff1916908160001a90535081613ce681614939565b925050613c26565b50506040805180820190915260038152623f3f3f60e81b602082015290565b60408051808201909152600080825260208201526000613d2e858585613d76565b90508085600001818151613d4291906148ea565b6001600160801b0316905250602085018051859190613d629083906148ea565b6001600160801b0316905250939492505050565b600083602001516001600160801b031660001415613d95575081611688565b602084015184516001600160801b0391821691613db391168561484c565b613dbd919061486b565b9050818015613dfb57508284600001516001600160801b031685602001516001600160801b031683613def919061484c565b613df9919061486b565b105b15611688578061142a81614831565b604080517f47e79534a245952e8b16893a336b85a3d9ea9fa8c573f3d803afb92a794692186020820152908101829052306060820152600090608001613b29565b60408051808201909152600080825260208201526000613e6c858585613ea0565b90508385600001818151613e80919061488d565b6001600160801b0316905250602085018051829190613d6290839061488d565b82516000906001600160801b0316613eb9575081611688565b835160208501516001600160801b0391821691613ed791168561484c565b613ee1919061486b565b9050818015613dfb57508284602001516001600160801b031685600001516001600160801b031683613def919061484c565b828054828255906000526020600020908101928215613f73579160200282015b82811115613f7357815473ffffffffffffffffffffffffffffffffffffffff19166001600160a01b03843516178255602090920191600190910190613f33565b50613f7f929150613f83565b5090565b5b80821115613f7f5760008155600101613f84565b60005b83811015613fb3578181015183820152602001613f9b565b838111156121fa5750506000910152565b60008151808452613fdc816020860160208601613f98565b601f01601f19169290920160200192915050565b6020815260006116886020830184613fc4565b6001600160a01b038116811461401857600080fd5b50565b801515811461401857600080fd5b60008060006060848603121561403e57600080fd5b833561404981614003565b925060208401356140598161401b565b915060408401356140698161401b565b809150509250925092565b6000806040838503121561408757600080fd5b823561409281614003565b946020939093013593505050565b60008082840360408112156140b457600080fd5b83356140bf81614003565b92506020601f19820112156140d357600080fd5b506020830190509250929050565b6000602082840312156140f357600080fd5b813561168881614003565b60008060006060848603121561411357600080fd5b833561411e81614003565b9250602084013561412e81614003565b929592945050506040919091013590565b60008083601f84011261415157600080fd5b50813567ffffffffffffffff81111561416957600080fd5b6020830191508360208260051b850101111561418457600080fd5b9250929050565b60008060008060008060006080888a0312156141a657600080fd5b873567ffffffffffffffff808211156141be57600080fd5b6141ca8b838c0161413f565b909950975060208a01359150808211156141e357600080fd5b6141ef8b838c0161413f565b909750955060408a0135915061420482614003565b9093506060890135908082111561421a57600080fd5b818a0191508a601f83011261422e57600080fd5b81358181111561423d57600080fd5b8b602082850101111561424f57600080fd5b60208301945080935050505092959891949750929550565b6000806000806080858703121561427d57600080fd5b843561428881614003565b9350602085013561429881614003565b925060408501356142a88161401b565b9396929550929360600135925050565b6000602082840312156142ca57600080fd5b5035919050565b600080602083850312156142e457600080fd5b823567ffffffffffffffff8111156142fb57600080fd5b6143078582860161413f565b90969095509350505050565b60006020828403121561432557600080fd5b813567ffffffffffffffff8116811461168857600080fd5b60ff8116811461401857600080fd5b600080600080600080600060e0888a03121561436757600080fd5b873561437281614003565b9650602088013561438281614003565b9550604088013594506060880135935060808801356143a08161433d565b9699959850939692959460a0840135945060c09093013592915050565b600080604083850312156143d057600080fd5b82356143db81614003565b915060208301356143eb81614003565b809150509250929050565b6000806040838503121561440957600080fd5b82516144148161401b565b6020939093015192949293505050565b634e487b7160e01b600052604160045260246000fd5b60006020828403121561444c57600080fd5b815167ffffffffffffffff8082111561446457600080fd5b818401915084601f83011261447857600080fd5b81518181111561448a5761448a614424565b604051601f8201601f19908116603f011681019083821181831017156144b2576144b2614424565b816040528281528760208487010111156144cb57600080fd5b6144dc836020830160208801613f98565b979650505050505050565b600181811c908216806144fb57607f821691505b6020821081141561451c57634e487b7160e01b600052602260045260246000fd5b50919050565b600060208083526000845481600182811c91508083168061454457607f831692505b85831081141561456257634e487b7160e01b85526022600452602485fd5b87860183815260200181801561457f5760018114614590576145bb565b60ff198616825287820196506145bb565b60008b81526020902060005b868110156145b55781548482015290850190890161459c565b83019750505b50949998505050505050505050565b7f546170696f6361204d696e74657253696e67756c61726974792000000000000081526000845161460281601a850160208901613f98565b602f60f81b601a91840191820152845161462381601b840160208901613f98565b602d60f81b601b9290910191820152835161464581601c840160208801613f98565b01601c0195945050505050565b60006020828403121561466457600080fd5b81516116888161401b565b60006020828403121561468157600080fd5b5051919050565b60006020828403121561469a57600080fd5b815161168881614003565b634e487b7160e01b600052601160045260246000fd5b600082198211156146ce576146ce6146a5565b500190565b600080604083850312156146e657600080fd5b505080516020909101519092909150565b600060c08201888352602088818501528760408501526001600160a01b03808816606086015260c0608086015282875480855260e0870191508860005283600020945060005b8181101561475b57855484168352600195860195928501920161473d565b5050809450505050508260a0830152979650505050505050565b600082821015614787576147876146a5565b500390565b60006020828403121561479e57600080fd5b81516116888161433d565b7f746d73676c0000000000000000000000000000000000000000000000000000008152600084516147e1816005850160208901613f98565b602f60f81b6005918401918201528451614802816006840160208901613f98565b602d60f81b600692909101918201528351614824816007840160208801613f98565b0160070195945050505050565b6000600019821415614845576148456146a5565b5060010190565b6000816000190483118215151615614866576148666146a5565b500290565b60008261488857634e487b7160e01b600052601260045260246000fd5b500490565b60006001600160801b038083168185168083038211156148af576148af6146a5565b01949350505050565b600082516148ca818460208701613f98565b9190910192915050565b634e487b7160e01b600052603260045260246000fd5b60006001600160801b038381169083168181101561490a5761490a6146a5565b039392505050565b60008451614924818460208901613f98565b91909101928352506020820152604001919050565b600060ff821660ff811415614950576149506146a5565b6001019291505056fea2646970667358221220c42708806f50a9d51a9486163290b1aee39e4fed9ec993b946511da85df63d4a64736f6c63430008090033",
  "devdoc": {
    "kind": "dev",
    "methods": {
      "addCollateral(address,address,bool,uint256)": {
        "params": {
          "from": "Account to transfer shares from.",
          "share": "The amount of shares to add for `to`.",
          "skim": "True if the amount should be skimmed from the deposit balance of msg.sender. False if tokens from msg.sender in `yieldBox` should be transferred.",
          "to": "The receiver of the tokens."
        }
      },
      "approve(address,uint256)": {
        "params": {
          "amount": "The maximum collective amount that `spender` can draw.",
          "spender": "Address of the party that can draw from msg.sender's account."
        },
        "returns": {
          "_0": "(bool) Returns True if approved."
        }
      },
      "borrow(address,address,uint256)": {
        "params": {
          "amount": "Amount to borrow.",
          "from": "Account to borrow for.",
          "to": "The receiver of borrowed tokens."
        },
        "returns": {
          "part": "Total part of the debt held by borrowers.",
          "share": "Total amount in shares borrowed."
        }
      },
      "liquidate(address[],uint256[],address,bytes)": {
        "params": {
          "collateralToAssetSwapData": "Extra swap data",
          "maxBorrowParts": "A one-to-one mapping to `users`, contains maximum (partial) borrow amounts (to liquidate) of the respective user.",
          "swapper": "Contract address of the `MultiSwapper` implementation. See `setSwapper`.",
          "users": "An array of user addresses."
        }
      },
      "permit(address,address,uint256,uint256,uint8,bytes32,bytes32)": {
        "params": {
          "deadline": "This permit must be redeemed before this deadline (UTC timestamp in seconds).",
          "owner_": "Address of the owner.",
          "spender": "The address of the spender that gets approved to draw from `owner_`.",
          "value": "The maximum collective amount that `spender` can draw."
        }
      },
      "removeCollateral(address,address,uint256)": {
        "params": {
          "from": "Account to debit collateral from.",
          "share": "Amount of shares to remove.",
          "to": "The receiver of the shares."
        }
      },
      "repay(address,address,uint256)": {
        "params": {
          "from": "Address to repay from.",
          "part": "The amount to repay. See `userBorrowPart`.",
          "to": "Address of the user this payment should go."
        },
        "returns": {
          "amount": "The total amount repayed."
        }
      },
      "setCollateralSwapPath(address[])": {
        "params": {
          "_collateralSwapPath": "The Uniswap path ."
        }
      },
      "setTapSwapPath(address[])": {
        "params": {
          "_tapSwapPath": "The Uniswap path ."
        }
      },
      "transfer(address,uint256)": {
        "params": {
          "amount": "of the tokens to move.",
          "to": "The address to move the tokens."
        },
        "returns": {
          "_0": "(bool) Returns True if succeeded."
        }
      },
      "transferFrom(address,address,uint256)": {
        "params": {
          "amount": "The token amount to move.",
          "from": "Address to draw tokens from.",
          "to": "The address to move the tokens."
        },
        "returns": {
          "_0": "(bool) Returns True if succeeded."
        }
      },
      "transferOwnership(address,bool,bool)": {
        "params": {
          "direct": "True if `newOwner` should be set immediately. False if `newOwner` needs to use `claimOwnership`.",
          "newOwner": "Address of the new owner.",
          "renounce": "Allows the `newOwner` to be `address(0)` if `direct` and `renounce` is True. Has no effect otherwise."
        }
      },
      "updateBorrowingFee(uint256)": {
        "params": {
          "_borrowingFee": "the new value"
        }
      },
      "updateExchangeRate()": {
        "details": "This function is supposed to be invoked if needed because Oracle queries can be expensive.      Oracle should consider USD0 at 1$",
        "returns": {
          "rate": "The new exchange rate.",
          "updated": "True if `exchangeRate` was updated."
        }
      },
      "updateStabilityFee(uint64)": {
        "params": {
          "_stabilityFee": "the new value"
        }
      }
    },
    "version": 1
  },
  "userdoc": {
    "kind": "user",
    "methods": {
      "accrue()": {
        "notice": "Accrues the interest on the borrowed tokens and handles the accumulation of fees."
      },
      "addCollateral(address,address,bool,uint256)": {
        "notice": "Adds `collateral` from msg.sender to the account `to`."
      },
      "allowance(address,address)": {
        "notice": "owner > spender > allowance mapping."
      },
      "approve(address,uint256)": {
        "notice": "Approves `amount` from sender to be spend by `spender`."
      },
      "balanceOf(address)": {
        "notice": "owner > balance mapping."
      },
      "borrow(address,address,uint256)": {
        "notice": "Sender borrows `amount` and transfers it to `to`."
      },
      "claimOwnership()": {
        "notice": "Needs to be called by `pendingOwner` to claim ownership."
      },
      "constructor": {
        "notice": "Creates the MinterSingularity contract"
      },
      "depositFeesToYieldBox(address,(uint256))": {
        "notice": "Withdraw the balance of `feeTo`, swap asset into TAP and deposit it to yieldBox of `feeTo`"
      },
      "exchangeRate()": {
        "notice": "Exchange and interest rate tracking. This is 'cached' here because calls to Oracles can be very expensive. Asset -> collateral = assetAmount * exchangeRate."
      },
      "liquidate(address[],uint256[],address,bytes)": {
        "notice": "Entry point for liquidations."
      },
      "nonces(address)": {
        "notice": "owner > nonce mapping. Used in `permit`."
      },
      "permit(address,address,uint256,uint256,uint8,bytes32,bytes32)": {
        "notice": "Approves `value` from `owner_` to be spend by `spender`."
      },
      "removeCollateral(address,address,uint256)": {
        "notice": "Removes `share` amount of collateral and transfers it to `to`."
      },
      "repay(address,address,uint256)": {
        "notice": "Repays a loan."
      },
      "setBorrowCap(uint256)": {
        "notice": "sets max borrowable amount"
      },
      "setCollateralSwapPath(address[])": {
        "notice": "Used to set the swap path of closed liquidations"
      },
      "setTapSwapPath(address[])": {
        "notice": "Used to set the swap path of Asset -> TAP"
      },
      "transfer(address,uint256)": {
        "notice": "Transfers `amount` tokens from `msg.sender` to `to`."
      },
      "transferFrom(address,address,uint256)": {
        "notice": "Transfers `amount` tokens from `from` to `to`. Caller needs approval for `from`."
      },
      "transferOwnership(address,bool,bool)": {
        "notice": "Transfers ownership to `newOwner`. Either directly or claimable by the new pending owner. Can only be invoked by the current `owner`."
      },
      "updateBorrowingFee(uint256)": {
        "notice": "Updates the borrowing fee"
      },
      "updateExchangeRate()": {
        "notice": "Gets the exchange rate. I.e how much collateral to buy 1e18 asset."
      },
      "updateStabilityFee(uint64)": {
        "notice": "Updates the stability fee"
      }
    },
    "version": 1
  },
  "storageLayout": {
    "storage": [
      {
        "astId": 233,
        "contract": "contracts/usd0/MinterSingularity.sol:MinterSingularity",
        "label": "owner",
        "offset": 0,
        "slot": "0",
        "type": "t_address"
      },
      {
        "astId": 235,
        "contract": "contracts/usd0/MinterSingularity.sol:MinterSingularity",
        "label": "pendingOwner",
        "offset": 0,
        "slot": "1",
        "type": "t_address"
      },
      {
        "astId": 478,
        "contract": "contracts/usd0/MinterSingularity.sol:MinterSingularity",
        "label": "balanceOf",
        "offset": 0,
        "slot": "2",
        "type": "t_mapping(t_address,t_uint256)"
      },
      {
        "astId": 486,
        "contract": "contracts/usd0/MinterSingularity.sol:MinterSingularity",
        "label": "allowance",
        "offset": 0,
        "slot": "3",
        "type": "t_mapping(t_address,t_mapping(t_address,t_uint256))"
      },
      {
        "astId": 491,
        "contract": "contracts/usd0/MinterSingularity.sol:MinterSingularity",
        "label": "nonces",
        "offset": 0,
        "slot": "4",
        "type": "t_mapping(t_address,t_uint256)"
      },
      {
        "astId": 18048,
        "contract": "contracts/usd0/MinterSingularity.sol:MinterSingularity",
        "label": "accrueInfo",
        "offset": 0,
        "slot": "5",
        "type": "t_struct(AccrueInfo)18045_storage"
      },
      {
        "astId": 18051,
        "contract": "contracts/usd0/MinterSingularity.sol:MinterSingularity",
        "label": "beachBar",
        "offset": 0,
        "slot": "6",
        "type": "t_contract(IBeachBar)3182"
      },
      {
        "astId": 18054,
        "contract": "contracts/usd0/MinterSingularity.sol:MinterSingularity",
        "label": "yieldBox",
        "offset": 0,
        "slot": "7",
        "type": "t_contract(YieldBox)30249"
      },
      {
        "astId": 18057,
        "contract": "contracts/usd0/MinterSingularity.sol:MinterSingularity",
        "label": "collateral",
        "offset": 0,
        "slot": "8",
        "type": "t_contract(IERC20)1099"
      },
      {
        "astId": 18060,
        "contract": "contracts/usd0/MinterSingularity.sol:MinterSingularity",
        "label": "asset",
        "offset": 0,
        "slot": "9",
        "type": "t_contract(IUSD0)18018"
      },
      {
        "astId": 18062,
        "contract": "contracts/usd0/MinterSingularity.sol:MinterSingularity",
        "label": "collateralId",
        "offset": 0,
        "slot": "10",
        "type": "t_uint256"
      },
      {
        "astId": 18064,
        "contract": "contracts/usd0/MinterSingularity.sol:MinterSingularity",
        "label": "assetId",
        "offset": 0,
        "slot": "11",
        "type": "t_uint256"
      },
      {
        "astId": 18066,
        "contract": "contracts/usd0/MinterSingularity.sol:MinterSingularity",
        "label": "totalCollateralShare",
        "offset": 0,
        "slot": "12",
        "type": "t_uint256"
      },
      {
        "astId": 18069,
        "contract": "contracts/usd0/MinterSingularity.sol:MinterSingularity",
        "label": "totalBorrow",
        "offset": 0,
        "slot": "13",
        "type": "t_struct(Rebase)1874_storage"
      },
      {
        "astId": 18071,
        "contract": "contracts/usd0/MinterSingularity.sol:MinterSingularity",
        "label": "totalBorrowCap",
        "offset": 0,
        "slot": "14",
        "type": "t_uint256"
      },
      {
        "astId": 18075,
        "contract": "contracts/usd0/MinterSingularity.sol:MinterSingularity",
        "label": "userCollateralShare",
        "offset": 0,
        "slot": "15",
        "type": "t_mapping(t_address,t_uint256)"
      },
      {
        "astId": 18079,
        "contract": "contracts/usd0/MinterSingularity.sol:MinterSingularity",
        "label": "userBorrowPart",
        "offset": 0,
        "slot": "16",
        "type": "t_mapping(t_address,t_uint256)"
      },
      {
        "astId": 18085,
        "contract": "contracts/usd0/MinterSingularity.sol:MinterSingularity",
        "label": "isApprovedForAll",
        "offset": 0,
        "slot": "17",
        "type": "t_mapping(t_address,t_mapping(t_address,t_bool))"
      },
      {
        "astId": 18088,
        "contract": "contracts/usd0/MinterSingularity.sol:MinterSingularity",
        "label": "exchangeRate",
        "offset": 0,
        "slot": "18",
        "type": "t_uint256"
      },
      {
        "astId": 18090,
        "contract": "contracts/usd0/MinterSingularity.sol:MinterSingularity",
        "label": "borrowingFee",
        "offset": 0,
        "slot": "19",
        "type": "t_uint256"
      },
      {
        "astId": 18093,
        "contract": "contracts/usd0/MinterSingularity.sol:MinterSingularity",
        "label": "oracle",
        "offset": 0,
        "slot": "20",
        "type": "t_contract(IOracle)12261"
      },
      {
        "astId": 18095,
        "contract": "contracts/usd0/MinterSingularity.sol:MinterSingularity",
        "label": "oracleData",
        "offset": 0,
        "slot": "21",
        "type": "t_bytes_storage"
      },
      {
        "astId": 18098,
        "contract": "contracts/usd0/MinterSingularity.sol:MinterSingularity",
        "label": "tapSwapPath",
        "offset": 0,
        "slot": "22",
        "type": "t_array(t_address)dyn_storage"
      },
      {
        "astId": 18101,
        "contract": "contracts/usd0/MinterSingularity.sol:MinterSingularity",
        "label": "collateralSwapPath",
        "offset": 0,
        "slot": "23",
        "type": "t_array(t_address)dyn_storage"
      }
    ],
    "types": {
      "t_address": {
        "encoding": "inplace",
        "label": "address",
        "numberOfBytes": "20"
      },
      "t_array(t_address)dyn_storage": {
        "base": "t_address",
        "encoding": "dynamic_array",
        "label": "address[]",
        "numberOfBytes": "32"
      },
      "t_bool": {
        "encoding": "inplace",
        "label": "bool",
        "numberOfBytes": "1"
      },
      "t_bytes_storage": {
        "encoding": "bytes",
        "label": "bytes",
        "numberOfBytes": "32"
      },
      "t_contract(IBeachBar)3182": {
        "encoding": "inplace",
        "label": "contract IBeachBar",
        "numberOfBytes": "20"
      },
      "t_contract(IERC20)1099": {
        "encoding": "inplace",
        "label": "contract IERC20",
        "numberOfBytes": "20"
      },
      "t_contract(IOracle)12261": {
        "encoding": "inplace",
        "label": "contract IOracle",
        "numberOfBytes": "20"
      },
      "t_contract(IUSD0)18018": {
        "encoding": "inplace",
        "label": "contract IUSD0",
        "numberOfBytes": "20"
      },
      "t_contract(YieldBox)30249": {
        "encoding": "inplace",
        "label": "contract YieldBox",
        "numberOfBytes": "20"
      },
      "t_mapping(t_address,t_bool)": {
        "encoding": "mapping",
        "key": "t_address",
        "label": "mapping(address => bool)",
        "numberOfBytes": "32",
        "value": "t_bool"
      },
      "t_mapping(t_address,t_mapping(t_address,t_bool))": {
        "encoding": "mapping",
        "key": "t_address",
        "label": "mapping(address => mapping(address => bool))",
        "numberOfBytes": "32",
        "value": "t_mapping(t_address,t_bool)"
      },
      "t_mapping(t_address,t_mapping(t_address,t_uint256))": {
        "encoding": "mapping",
        "key": "t_address",
        "label": "mapping(address => mapping(address => uint256))",
        "numberOfBytes": "32",
        "value": "t_mapping(t_address,t_uint256)"
      },
      "t_mapping(t_address,t_uint256)": {
        "encoding": "mapping",
        "key": "t_address",
        "label": "mapping(address => uint256)",
        "numberOfBytes": "32",
        "value": "t_uint256"
      },
      "t_struct(AccrueInfo)18045_storage": {
        "encoding": "inplace",
        "label": "struct MinterSingularity.AccrueInfo",
        "members": [
          {
            "astId": 18042,
            "contract": "contracts/usd0/MinterSingularity.sol:MinterSingularity",
            "label": "stabilityFee",
            "offset": 0,
            "slot": "0",
            "type": "t_uint64"
          },
          {
            "astId": 18044,
            "contract": "contracts/usd0/MinterSingularity.sol:MinterSingularity",
            "label": "lastAccrued",
            "offset": 8,
            "slot": "0",
            "type": "t_uint64"
          }
        ],
        "numberOfBytes": "32"
      },
      "t_struct(Rebase)1874_storage": {
        "encoding": "inplace",
        "label": "struct Rebase",
        "members": [
          {
            "astId": 1871,
            "contract": "contracts/usd0/MinterSingularity.sol:MinterSingularity",
            "label": "elastic",
            "offset": 0,
            "slot": "0",
            "type": "t_uint128"
          },
          {
            "astId": 1873,
            "contract": "contracts/usd0/MinterSingularity.sol:MinterSingularity",
            "label": "base",
            "offset": 16,
            "slot": "0",
            "type": "t_uint128"
          }
        ],
        "numberOfBytes": "32"
      },
      "t_uint128": {
        "encoding": "inplace",
        "label": "uint128",
        "numberOfBytes": "16"
      },
      "t_uint256": {
        "encoding": "inplace",
        "label": "uint256",
        "numberOfBytes": "32"
      },
      "t_uint64": {
        "encoding": "inplace",
        "label": "uint64",
        "numberOfBytes": "8"
      }
    }
  }
}