{
  "address": "0x4Df514aD517Af4E89B692d54C19108a9E0F5061b",
  "abi": [
    {
      "inputs": [
        {
          "internalType": "address",
          "name": "_factory",
          "type": "address"
        },
        {
          "internalType": "contract IBeachBar",
          "name": "_tapiocaBar",
          "type": "address"
        },
        {
          "internalType": "bytes32",
          "name": "_pairCodeHash",
          "type": "bytes32"
        }
      ],
      "stateMutability": "nonpayable",
      "type": "constructor"
    },
    {
      "inputs": [
        {
          "internalType": "uint256",
          "name": "tokenOutId",
          "type": "uint256"
        },
        {
          "internalType": "address[]",
          "name": "path",
          "type": "address[]"
        },
        {
          "internalType": "uint256",
          "name": "shareOut",
          "type": "uint256"
        }
      ],
      "name": "getInputAmount",
      "outputs": [
        {
          "internalType": "uint256",
          "name": "amountIn",
          "type": "uint256"
        }
      ],
      "stateMutability": "view",
      "type": "function"
    },
    {
      "inputs": [
        {
          "internalType": "uint256",
          "name": "tokenInId",
          "type": "uint256"
        },
        {
          "internalType": "address[]",
          "name": "path",
          "type": "address[]"
        },
        {
          "internalType": "uint256",
          "name": "shareIn",
          "type": "uint256"
        }
      ],
      "name": "getOutputAmount",
      "outputs": [
        {
          "internalType": "uint256",
          "name": "amountOut",
          "type": "uint256"
        }
      ],
      "stateMutability": "view",
      "type": "function"
    },
    {
      "inputs": [
        {
          "internalType": "uint256",
          "name": "tokenInId",
          "type": "uint256"
        },
        {
          "internalType": "uint256",
          "name": "tokenOutId",
          "type": "uint256"
        },
        {
          "internalType": "uint256",
          "name": "amountMinOut",
          "type": "uint256"
        },
        {
          "internalType": "address",
          "name": "to",
          "type": "address"
        },
        {
          "internalType": "address[]",
          "name": "path",
          "type": "address[]"
        },
        {
          "internalType": "uint256",
          "name": "shareIn",
          "type": "uint256"
        }
      ],
      "name": "swap",
      "outputs": [
        {
          "internalType": "uint256",
          "name": "amountOut",
          "type": "uint256"
        },
        {
          "internalType": "uint256",
          "name": "shareOut",
          "type": "uint256"
        }
      ],
      "stateMutability": "nonpayable",
      "type": "function"
    }
  ],
  "transactionHash": "0x269cb6bca46e101b42a9e50ee3f2ef93eccf2b8ce903555aa66f3fb7def98ab7",
  "args": [
    "0x5C69bEe701ef814a2B6a3EDD4B1652CB9cc5aA6f",
    "0xA78cb65ED2eFcC8424Aa723B735f6Fdd52ca307f",
    "0x68ddfd89d43db94fbd68a4abd2861ebcbfea56c0fd36334bbb95f0661c3171a2"
  ],
  "numDeployments": 1,
  "solcInputHash": "6c60f9cbdd5014f0c943b3529bb1c6aa",
  "bytecode": "0x60e06040523480156200001157600080fd5b5060405162001a5538038062001a558339810160408190526200003491620000f4565b826001600160a01b03166080816001600160a01b031681525050816001600160a01b031663de4065776040518163ffffffff1660e01b815260040160206040518083038186803b1580156200008857600080fd5b505afa1580156200009d573d6000803e3d6000fd5b505050506040513d601f19601f82011682018060405250810190620000c391906200013c565b6001600160a01b031660a05260c05250620001639050565b6001600160a01b0381168114620000f157600080fd5b50565b6000806000606084860312156200010a57600080fd5b83516200011781620000db565b60208501519093506200012a81620000db565b80925050604084015190509250925092565b6000602082840312156200014f57600080fd5b81516200015c81620000db565b9392505050565b60805160a05160c051611868620001ed600039600081816101ad015281816103110152818161097501528181610a73015261118301526000818160d80152818161023c015281816103a8015281816104c901526105aa01526000818161015b015281816102bf0152818161095201528181610a1c0152818161111d015261116001526118686000f3fe608060405234801561001057600080fd5b50600436106100415760003560e01c80631b45f033146100465780639a3eef361461006c578063ce58b2001461007f575b600080fd5b6100596100543660046114dd565b6100a7565b6040519081526020015b60405180910390f35b61005961007a3660046114dd565b61020b565b61009261008d36600461154c565b61034f565b60408051928352602083019190915201610063565b60405163442c159960e01b815260048101859052602481018290526000604482018190529081906001600160a01b037f0000000000000000000000000000000000000000000000000000000000000000169063442c15999060640160206040518083038186803b15801561011a57600080fd5b505afa15801561012e573d6000803e3d6000fd5b505050506040513d601f19601f8201168201806040525081019061015291906115c6565b905060006101d67f0000000000000000000000000000000000000000000000000000000000000000838888808060200260200160405190810160405280939291908181526020018383602002808284376000920191909152507f00000000000000000000000000000000000000000000000000000000000000009250610637915050565b905080600182516101e791906115f5565b815181106101f7576101f761160c565b602002602001015192505050949350505050565b60405163442c159960e01b815260048101859052602481018290526000604482018190529081906001600160a01b037f0000000000000000000000000000000000000000000000000000000000000000169063442c15999060640160206040518083038186803b15801561027e57600080fd5b505afa158015610292573d6000803e3d6000fd5b505050506040513d601f19601f820116820180604052508101906102b691906115c6565b9050600061033a7f0000000000000000000000000000000000000000000000000000000000000000838888808060200260200160405190810160405280939291908181526020018383602002808284376000920191909152507f000000000000000000000000000000000000000000000000000000000000000092506107c9915050565b9050806000815181106101f7576101f761160c565b6040517f8d2e63b800000000000000000000000000000000000000000000000000000000815260048101889052306024820181905260448201526000606482018190526084820183905290819081906001600160a01b037f00000000000000000000000000000000000000000000000000000000000000001690638d2e63b89060a4016040805180830381600087803b1580156103eb57600080fd5b505af11580156103ff573d6000803e3d6000fd5b505050506040513d601f19601f820116820180604052508101906104239190611622565b509050610466818988888080602002602001604051908101604052809392919081815260200183836020028082843760009201919091525030925061094a915050565b925085856104756001826115f5565b8181106104845761048461160c565b90506020020160208101906104999190611646565b6040517f095ea7b30000000000000000000000000000000000000000000000000000000081526001600160a01b037f00000000000000000000000000000000000000000000000000000000000000008116600483015260248201869052919091169063095ea7b390604401602060405180830381600087803b15801561051e57600080fd5b505af1158015610532573d6000803e3d6000fd5b505050506040513d601f19601f820116820180604052508101906105569190611668565b506040517f9a9af97a000000000000000000000000000000000000000000000000000000008152600481018a90523060248201526001600160a01b03888116604483015260648201859052600060848301527f00000000000000000000000000000000000000000000000000000000000000001690639a9af97a9060a4016040805180830381600087803b1580156105ed57600080fd5b505af1158015610601573d6000803e3d6000fd5b505050506040513d601f19601f820116820180604052508101906106259190611622565b939b939a509298505050505050505050565b60606002835110156106905760405162461bcd60e51b815260206004820152601e60248201527f556e697377617056324c6962726172793a20494e56414c49445f50415448000060448201526064015b60405180910390fd5b825167ffffffffffffffff8111156106aa576106aa61168a565b6040519080825280602002602001820160405280156106d3578160200160208202803683370190505b50905083816000815181106106ea576106ea61160c565b60200260200101818152505060005b6001845161070791906115f5565b8110156107c05760008061075b888785815181106107275761072761160c565b60200260200101518886600161073d91906116a0565b8151811061074d5761074d61160c565b602002602001015188610ad6565b915091506107838484815181106107745761077461160c565b60200260200101518383610bbf565b8461078f8560016116a0565b8151811061079f5761079f61160c565b602002602001018181525050505080806107b8906116b8565b9150506106f9565b50949350505050565b606060028351101561081d5760405162461bcd60e51b815260206004820152601e60248201527f556e697377617056324c6962726172793a20494e56414c49445f5041544800006044820152606401610687565b825167ffffffffffffffff8111156108375761083761168a565b604051908082528060200260200182016040528015610860578160200160208202803683370190505b50905083816001835161087391906115f5565b815181106108835761088361160c565b60200260200101818152505060006001845161089f91906115f5565b90505b80156107c0576000806108e588876108bb6001876115f5565b815181106108cb576108cb61160c565b602002602001015188868151811061074d5761074d61160c565b9150915061090d8484815181106108fe576108fe61160c565b60200260200101518383610cf0565b846109196001866115f5565b815181106109295761092961160c565b60200260200101818152505050508080610942906116d3565b9150506108a2565b6000806109997f000000000000000000000000000000000000000000000000000000000000000087867f0000000000000000000000000000000000000000000000000000000000000000610637565b905080600182516109aa91906115f5565b815181106109ba576109ba61160c565b6020026020010151915084821015610a145760405162461bcd60e51b815260206004820152601760248201527f696e73756666696369656e742d616d6f756e742d6f75740000000000000000006044820152606401610687565b610acb610a977f000000000000000000000000000000000000000000000000000000000000000086600081518110610a4e57610a4e61160c565b602002602001015187600181518110610a6957610a6961160c565b60200260200101517f0000000000000000000000000000000000000000000000000000000000000000610e1b565b8786600081518110610aab57610aab61160c565b60200260200101516001600160a01b0316610ef19092919063ffffffff16565b6107c081858561103a565b6000806000610ae58686611256565b509050600080610af789898989610e1b565b6001600160a01b0316630902f1ac6040518163ffffffff1660e01b815260040160606040518083038186803b158015610b2f57600080fd5b505afa158015610b43573d6000803e3d6000fd5b505050506040513d601f19601f82011682018060405250810190610b679190611708565b506dffffffffffffffffffffffffffff1691506dffffffffffffffffffffffffffff169150826001600160a01b0316886001600160a01b031614610bac578082610baf565b81815b909a909950975050505050505050565b6000808411610c365760405162461bcd60e51b815260206004820152602b60248201527f556e697377617056324c6962726172793a20494e53554646494349454e545f4960448201527f4e5055545f414d4f554e540000000000000000000000000000000000000000006064820152608401610687565b600083118015610c465750600082115b610ca35760405162461bcd60e51b815260206004820152602860248201527f556e697377617056324c6962726172793a20494e53554646494349454e545f4c604482015267495155494449545960c01b6064820152608401610687565b6000610cb1856103e5611366565b90506000610cbf8285611366565b90506000610cd983610cd3886103e8611366565b906113dc565b9050610ce58183611758565b979650505050505050565b6000808411610d675760405162461bcd60e51b815260206004820152602c60248201527f556e697377617056324c6962726172793a20494e53554646494349454e545f4f60448201527f55545055545f414d4f554e5400000000000000000000000000000000000000006064820152608401610687565b600083118015610d775750600082115b610dd45760405162461bcd60e51b815260206004820152602860248201527f556e697377617056324c6962726172793a20494e53554646494349454e545f4c604482015267495155494449545960c01b6064820152608401610687565b6000610dec6103e8610de68688611366565b90611366565b90506000610e006103e5610de6868961143a565b9050610e116001610cd38385611758565b9695505050505050565b6000806000610e2a8686611256565b6040516bffffffffffffffffffffffff19606084811b8216602084015283901b166034820152919350915087906048016040516020818303038152906040528051906020012085604051602001610ece939291907fff00000000000000000000000000000000000000000000000000000000000000815260609390931b6bffffffffffffffffffffffff191660018401526015830191909152603582015260550190565b60408051601f198184030181529190528051602090910120979650505050505050565b604080516001600160a01b038481166024830152604480830185905283518084039091018152606490920183526020820180517bffffffffffffffffffffffffffffffffffffffffffffffffffffffff167fa9059cbb000000000000000000000000000000000000000000000000000000001790529151600092839290871691610f7b91906117a6565b6000604051808303816000865af19150503d8060008114610fb8576040519150601f19603f3d011682016040523d82523d6000602084013e610fbd565b606091505b5091509150818015610fe7575080511580610fe7575080806020019051810190610fe79190611668565b6110335760405162461bcd60e51b815260206004820152601c60248201527f426f72696e6745524332303a205472616e73666572206661696c6564000000006044820152606401610687565b5050505050565b60005b6001835161104b91906115f5565b811015611250576000808483815181106110675761106761160c565b60200260200101518584600161107d91906116a0565b8151811061108d5761108d61160c565b60200260200101519150915060006110a58383611256565b5090506000876110b68660016116a0565b815181106110c6576110c661160c565b60200260200101519050600080836001600160a01b0316866001600160a01b0316146110f4578260006110f8565b6000835b91509150600060028a5161110c91906115f5565b88106111185788611159565b6111597f0000000000000000000000000000000000000000000000000000000000000000878c6111498c60026116a0565b81518110610a6957610a6961160c565b90506111a77f000000000000000000000000000000000000000000000000000000000000000088887f0000000000000000000000000000000000000000000000000000000000000000610e1b565b6001600160a01b031663022c0d9f84848460006040519080825280601f01601f1916602001820160405280156111e4576020820181803683370190505b506040518563ffffffff1660e01b815260040161120494939291906117c2565b600060405180830381600087803b15801561121e57600080fd5b505af1158015611232573d6000803e3d6000fd5b50505050505050505050508080611248906116b8565b91505061103d565b50505050565b600080826001600160a01b0316846001600160a01b031614156112e15760405162461bcd60e51b815260206004820152602560248201527f556e697377617056324c6962726172793a204944454e544943414c5f4144445260448201527f45535345530000000000000000000000000000000000000000000000000000006064820152608401610687565b826001600160a01b0316846001600160a01b031610611301578284611304565b83835b90925090506001600160a01b03821661135f5760405162461bcd60e51b815260206004820152601e60248201527f556e697377617056324c6962726172793a205a45524f5f4144445245535300006044820152606401610687565b9250929050565b600081158061138a5750828261137c8183611813565b92506113889083611758565b145b6113d65760405162461bcd60e51b815260206004820152601460248201527f64732d6d6174682d6d756c2d6f766572666c6f770000000000000000000000006044820152606401610687565b92915050565b6000826113e983826116a0565b91508110156113d65760405162461bcd60e51b815260206004820152601460248201527f64732d6d6174682d6164642d6f766572666c6f770000000000000000000000006044820152606401610687565b60008261144783826115f5565b91508111156113d65760405162461bcd60e51b815260206004820152601560248201527f64732d6d6174682d7375622d756e646572666c6f7700000000000000000000006044820152606401610687565b60008083601f8401126114aa57600080fd5b50813567ffffffffffffffff8111156114c257600080fd5b6020830191508360208260051b850101111561135f57600080fd5b600080600080606085870312156114f357600080fd5b84359350602085013567ffffffffffffffff81111561151157600080fd5b61151d87828801611498565b9598909750949560400135949350505050565b80356001600160a01b038116811461154757600080fd5b919050565b600080600080600080600060c0888a03121561156757600080fd5b87359650602088013595506040880135945061158560608901611530565b9350608088013567ffffffffffffffff8111156115a157600080fd5b6115ad8a828b01611498565b989b979a5095989497959660a090950135949350505050565b6000602082840312156115d857600080fd5b5051919050565b634e487b7160e01b600052601160045260246000fd5b600082821015611607576116076115df565b500390565b634e487b7160e01b600052603260045260246000fd5b6000806040838503121561163557600080fd5b505080516020909101519092909150565b60006020828403121561165857600080fd5b61166182611530565b9392505050565b60006020828403121561167a57600080fd5b8151801515811461166157600080fd5b634e487b7160e01b600052604160045260246000fd5b600082198211156116b3576116b36115df565b500190565b60006000198214156116cc576116cc6115df565b5060010190565b6000816116e2576116e26115df565b506000190190565b80516dffffffffffffffffffffffffffff8116811461154757600080fd5b60008060006060848603121561171d57600080fd5b611726846116ea565b9250611734602085016116ea565b9150604084015163ffffffff8116811461174d57600080fd5b809150509250925092565b60008261177557634e487b7160e01b600052601260045260246000fd5b500490565b60005b8381101561179557818101518382015260200161177d565b838111156112505750506000910152565b600082516117b881846020870161177a565b9190910192915050565b8481528360208201526001600160a01b038316604082015260806060820152600082518060808401526117fc8160a085016020870161177a565b601f01601f19169190910160a00195945050505050565b600081600019048311821515161561182d5761182d6115df565b50029056fea2646970667358221220bf15282b75ddce710165b13c52511b41ad7f7c8dcbca6c543a2110cbc892efba64736f6c63430008090033",
  "devdoc": {
    "kind": "dev",
    "methods": {},
    "version": 1
  },
  "userdoc": {
    "kind": "user",
    "methods": {},
    "notice": "Modified from https://github.com/sushiswap/kashi-lending/blob/master/contracts/swappers/SushiSwapMultiSwapper.sol",
    "version": 1
  },
  "storageLayout": {
    "storage": [],
    "types": null
  }
}