{
  "address": "0x9b0942056A1a63BD22181175a7976498Da2d9Df5",
  "abi": [
    {
      "inputs": [
        {
          "internalType": "address",
          "name": "_from",
          "type": "address"
        },
        {
          "internalType": "address",
          "name": "_operator",
          "type": "address"
        }
      ],
      "name": "NotApproved",
      "type": "error"
    },
    {
      "anonymous": false,
      "inputs": [
        {
          "indexed": true,
          "internalType": "address",
          "name": "owner",
          "type": "address"
        },
        {
          "indexed": true,
          "internalType": "address",
          "name": "spender",
          "type": "address"
        },
        {
          "indexed": false,
          "internalType": "uint256",
          "name": "value",
          "type": "uint256"
        }
      ],
      "name": "Approval",
      "type": "event"
    },
    {
      "anonymous": false,
      "inputs": [
        {
          "indexed": false,
          "internalType": "uint256",
          "name": "accruedAmount",
          "type": "uint256"
        },
        {
          "indexed": false,
          "internalType": "uint256",
          "name": "feeFraction",
          "type": "uint256"
        },
        {
          "indexed": false,
          "internalType": "uint64",
          "name": "rate",
          "type": "uint64"
        },
        {
          "indexed": false,
          "internalType": "uint256",
          "name": "utilization",
          "type": "uint256"
        }
      ],
      "name": "LogAccrue",
      "type": "event"
    },
    {
      "anonymous": false,
      "inputs": [
        {
          "indexed": true,
          "internalType": "address",
          "name": "from",
          "type": "address"
        },
        {
          "indexed": true,
          "internalType": "address",
          "name": "to",
          "type": "address"
        },
        {
          "indexed": false,
          "internalType": "uint256",
          "name": "share",
          "type": "uint256"
        },
        {
          "indexed": false,
          "internalType": "uint256",
          "name": "fraction",
          "type": "uint256"
        }
      ],
      "name": "LogAddAsset",
      "type": "event"
    },
    {
      "anonymous": false,
      "inputs": [
        {
          "indexed": true,
          "internalType": "address",
          "name": "from",
          "type": "address"
        },
        {
          "indexed": true,
          "internalType": "address",
          "name": "to",
          "type": "address"
        },
        {
          "indexed": false,
          "internalType": "uint256",
          "name": "share",
          "type": "uint256"
        }
      ],
      "name": "LogAddCollateral",
      "type": "event"
    },
    {
      "anonymous": false,
      "inputs": [
        {
          "indexed": true,
          "internalType": "address",
          "name": "_from",
          "type": "address"
        },
        {
          "indexed": true,
          "internalType": "address",
          "name": "_operator",
          "type": "address"
        },
        {
          "indexed": false,
          "internalType": "bool",
          "name": "_approved",
          "type": "bool"
        }
      ],
      "name": "LogApprovalForAll",
      "type": "event"
    },
    {
      "anonymous": false,
      "inputs": [
        {
          "indexed": true,
          "internalType": "address",
          "name": "from",
          "type": "address"
        },
        {
          "indexed": true,
          "internalType": "address",
          "name": "to",
          "type": "address"
        },
        {
          "indexed": false,
          "internalType": "uint256",
          "name": "amount",
          "type": "uint256"
        },
        {
          "indexed": false,
          "internalType": "uint256",
          "name": "feeAmount",
          "type": "uint256"
        },
        {
          "indexed": false,
          "internalType": "uint256",
          "name": "part",
          "type": "uint256"
        }
      ],
      "name": "LogBorrow",
      "type": "event"
    },
    {
      "anonymous": false,
      "inputs": [
        {
          "indexed": false,
          "internalType": "uint256",
          "name": "_oldVal",
          "type": "uint256"
        },
        {
          "indexed": false,
          "internalType": "uint256",
          "name": "_newVal",
          "type": "uint256"
        }
      ],
      "name": "LogBorrowCapUpdated",
      "type": "event"
    },
    {
      "anonymous": false,
      "inputs": [
        {
          "indexed": false,
          "internalType": "uint256",
          "name": "rate",
          "type": "uint256"
        }
      ],
      "name": "LogExchangeRate",
      "type": "event"
    },
    {
      "anonymous": false,
      "inputs": [
        {
          "indexed": true,
          "internalType": "address",
          "name": "borrower",
          "type": "address"
        },
        {
          "indexed": false,
          "internalType": "uint256",
          "name": "amount",
          "type": "uint256"
        },
        {
          "indexed": false,
          "internalType": "uint256",
          "name": "feeAmount",
          "type": "uint256"
        },
        {
          "indexed": true,
          "internalType": "address",
          "name": "receiver",
          "type": "address"
        }
      ],
      "name": "LogFlashLoan",
      "type": "event"
    },
    {
      "anonymous": false,
      "inputs": [
        {
          "indexed": true,
          "internalType": "address",
          "name": "from",
          "type": "address"
        },
        {
          "indexed": true,
          "internalType": "address",
          "name": "to",
          "type": "address"
        },
        {
          "indexed": false,
          "internalType": "uint256",
          "name": "share",
          "type": "uint256"
        },
        {
          "indexed": false,
          "internalType": "uint256",
          "name": "fraction",
          "type": "uint256"
        }
      ],
      "name": "LogRemoveAsset",
      "type": "event"
    },
    {
      "anonymous": false,
      "inputs": [
        {
          "indexed": true,
          "internalType": "address",
          "name": "from",
          "type": "address"
        },
        {
          "indexed": true,
          "internalType": "address",
          "name": "to",
          "type": "address"
        },
        {
          "indexed": false,
          "internalType": "uint256",
          "name": "share",
          "type": "uint256"
        }
      ],
      "name": "LogRemoveCollateral",
      "type": "event"
    },
    {
      "anonymous": false,
      "inputs": [
        {
          "indexed": true,
          "internalType": "address",
          "name": "from",
          "type": "address"
        },
        {
          "indexed": true,
          "internalType": "address",
          "name": "to",
          "type": "address"
        },
        {
          "indexed": false,
          "internalType": "uint256",
          "name": "amount",
          "type": "uint256"
        },
        {
          "indexed": false,
          "internalType": "uint256",
          "name": "part",
          "type": "uint256"
        }
      ],
      "name": "LogRepay",
      "type": "event"
    },
    {
      "anonymous": false,
      "inputs": [
        {
          "indexed": true,
          "internalType": "address",
          "name": "feeTo",
          "type": "address"
        },
        {
          "indexed": false,
          "internalType": "uint256",
          "name": "feesEarnedFraction",
          "type": "uint256"
        }
      ],
      "name": "LogWithdrawFees",
      "type": "event"
    },
    {
      "anonymous": false,
      "inputs": [
        {
          "indexed": false,
          "internalType": "uint256",
          "name": "feeShares",
          "type": "uint256"
        },
        {
          "indexed": false,
          "internalType": "uint256",
          "name": "tapAmount",
          "type": "uint256"
        }
      ],
      "name": "LogYieldBoxFeesDeposit",
      "type": "event"
    },
    {
      "anonymous": false,
      "inputs": [
        {
          "indexed": true,
          "internalType": "address",
          "name": "previousOwner",
          "type": "address"
        },
        {
          "indexed": true,
          "internalType": "address",
          "name": "newOwner",
          "type": "address"
        }
      ],
      "name": "OwnershipTransferred",
      "type": "event"
    },
    {
      "anonymous": false,
      "inputs": [
        {
          "indexed": true,
          "internalType": "address",
          "name": "from",
          "type": "address"
        },
        {
          "indexed": true,
          "internalType": "address",
          "name": "to",
          "type": "address"
        },
        {
          "indexed": false,
          "internalType": "uint256",
          "name": "value",
          "type": "uint256"
        }
      ],
      "name": "Transfer",
      "type": "event"
    },
    {
      "inputs": [],
      "name": "DOMAIN_SEPARATOR",
      "outputs": [
        {
          "internalType": "bytes32",
          "name": "",
          "type": "bytes32"
        }
      ],
      "stateMutability": "view",
      "type": "function"
    },
    {
      "inputs": [],
      "name": "accrue",
      "outputs": [],
      "stateMutability": "nonpayable",
      "type": "function"
    },
    {
      "inputs": [],
      "name": "accrueInfo",
      "outputs": [
        {
          "internalType": "uint64",
          "name": "interestPerSecond",
          "type": "uint64"
        },
        {
          "internalType": "uint64",
          "name": "lastAccrued",
          "type": "uint64"
        },
        {
          "internalType": "uint128",
          "name": "feesEarnedFraction",
          "type": "uint128"
        }
      ],
      "stateMutability": "view",
      "type": "function"
    },
    {
      "inputs": [
        {
          "internalType": "address",
          "name": "from",
          "type": "address"
        },
        {
          "internalType": "address",
          "name": "to",
          "type": "address"
        },
        {
          "internalType": "bool",
          "name": "skim",
          "type": "bool"
        },
        {
          "internalType": "uint256",
          "name": "share",
          "type": "uint256"
        }
      ],
      "name": "addAsset",
      "outputs": [
        {
          "internalType": "uint256",
          "name": "fraction",
          "type": "uint256"
        }
      ],
      "stateMutability": "nonpayable",
      "type": "function"
    },
    {
      "inputs": [
        {
          "internalType": "address",
          "name": "from",
          "type": "address"
        },
        {
          "internalType": "address",
          "name": "to",
          "type": "address"
        },
        {
          "internalType": "bool",
          "name": "skim",
          "type": "bool"
        },
        {
          "internalType": "uint256",
          "name": "share",
          "type": "uint256"
        }
      ],
      "name": "addCollateral",
      "outputs": [],
      "stateMutability": "nonpayable",
      "type": "function"
    },
    {
      "inputs": [
        {
          "internalType": "address",
          "name": "",
          "type": "address"
        },
        {
          "internalType": "address",
          "name": "",
          "type": "address"
        }
      ],
      "name": "allowance",
      "outputs": [
        {
          "internalType": "uint256",
          "name": "",
          "type": "uint256"
        }
      ],
      "stateMutability": "view",
      "type": "function"
    },
    {
      "inputs": [
        {
          "internalType": "address",
          "name": "spender",
          "type": "address"
        },
        {
          "internalType": "uint256",
          "name": "amount",
          "type": "uint256"
        }
      ],
      "name": "approve",
      "outputs": [
        {
          "internalType": "bool",
          "name": "",
          "type": "bool"
        }
      ],
      "stateMutability": "nonpayable",
      "type": "function"
    },
    {
      "inputs": [],
      "name": "asset",
      "outputs": [
        {
          "internalType": "contract IERC20",
          "name": "",
          "type": "address"
        }
      ],
      "stateMutability": "view",
      "type": "function"
    },
    {
      "inputs": [],
      "name": "assetId",
      "outputs": [
        {
          "internalType": "uint256",
          "name": "",
          "type": "uint256"
        }
      ],
      "stateMutability": "view",
      "type": "function"
    },
    {
      "inputs": [
        {
          "internalType": "address",
          "name": "",
          "type": "address"
        }
      ],
      "name": "balanceOf",
      "outputs": [
        {
          "internalType": "uint256",
          "name": "",
          "type": "uint256"
        }
      ],
      "stateMutability": "view",
      "type": "function"
    },
    {
      "inputs": [],
      "name": "beachBar",
      "outputs": [
        {
          "internalType": "contract BeachBar",
          "name": "",
          "type": "address"
        }
      ],
      "stateMutability": "view",
      "type": "function"
    },
    {
      "inputs": [
        {
          "internalType": "address",
          "name": "from",
          "type": "address"
        },
        {
          "internalType": "address",
          "name": "to",
          "type": "address"
        },
        {
          "internalType": "uint256",
          "name": "amount",
          "type": "uint256"
        }
      ],
      "name": "borrow",
      "outputs": [
        {
          "internalType": "uint256",
          "name": "part",
          "type": "uint256"
        },
        {
          "internalType": "uint256",
          "name": "share",
          "type": "uint256"
        }
      ],
      "stateMutability": "nonpayable",
      "type": "function"
    },
    {
      "inputs": [],
      "name": "claimOwnership",
      "outputs": [],
      "stateMutability": "nonpayable",
      "type": "function"
    },
    {
      "inputs": [],
      "name": "collateral",
      "outputs": [
        {
          "internalType": "contract IERC20",
          "name": "",
          "type": "address"
        }
      ],
      "stateMutability": "view",
      "type": "function"
    },
    {
      "inputs": [],
      "name": "collateralId",
      "outputs": [
        {
          "internalType": "uint256",
          "name": "",
          "type": "uint256"
        }
      ],
      "stateMutability": "view",
      "type": "function"
    },
    {
      "inputs": [],
      "name": "decimals",
      "outputs": [
        {
          "internalType": "uint8",
          "name": "",
          "type": "uint8"
        }
      ],
      "stateMutability": "view",
      "type": "function"
    },
    {
      "inputs": [],
      "name": "exchangeRate",
      "outputs": [
        {
          "internalType": "uint256",
          "name": "",
          "type": "uint256"
        }
      ],
      "stateMutability": "view",
      "type": "function"
    },
    {
      "inputs": [
        {
          "internalType": "contract IFlashBorrower",
          "name": "borrower",
          "type": "address"
        },
        {
          "internalType": "address",
          "name": "receiver",
          "type": "address"
        },
        {
          "internalType": "uint256",
          "name": "amount",
          "type": "uint256"
        },
        {
          "internalType": "bytes",
          "name": "data",
          "type": "bytes"
        }
      ],
      "name": "flashLoan",
      "outputs": [],
      "stateMutability": "nonpayable",
      "type": "function"
    },
    {
      "inputs": [
        {
          "internalType": "address",
          "name": "",
          "type": "address"
        },
        {
          "internalType": "address",
          "name": "",
          "type": "address"
        }
      ],
      "name": "isApprovedForAll",
      "outputs": [
        {
          "internalType": "bool",
          "name": "",
          "type": "bool"
        }
      ],
      "stateMutability": "view",
      "type": "function"
    },
    {
      "inputs": [],
      "name": "liquidationQueue",
      "outputs": [
        {
          "internalType": "contract ILiquidationQueue",
          "name": "",
          "type": "address"
        }
      ],
      "stateMutability": "view",
      "type": "function"
    },
    {
      "inputs": [],
      "name": "name",
      "outputs": [
        {
          "internalType": "string",
          "name": "",
          "type": "string"
        }
      ],
      "stateMutability": "view",
      "type": "function"
    },
    {
      "inputs": [
        {
          "internalType": "address",
          "name": "",
          "type": "address"
        }
      ],
      "name": "nonces",
      "outputs": [
        {
          "internalType": "uint256",
          "name": "",
          "type": "uint256"
        }
      ],
      "stateMutability": "view",
      "type": "function"
    },
    {
      "inputs": [],
      "name": "oracle",
      "outputs": [
        {
          "internalType": "contract IOracle",
          "name": "",
          "type": "address"
        }
      ],
      "stateMutability": "view",
      "type": "function"
    },
    {
      "inputs": [],
      "name": "oracleData",
      "outputs": [
        {
          "internalType": "bytes",
          "name": "",
          "type": "bytes"
        }
      ],
      "stateMutability": "view",
      "type": "function"
    },
    {
      "inputs": [],
      "name": "owner",
      "outputs": [
        {
          "internalType": "address",
          "name": "",
          "type": "address"
        }
      ],
      "stateMutability": "view",
      "type": "function"
    },
    {
      "inputs": [],
      "name": "pendingOwner",
      "outputs": [
        {
          "internalType": "address",
          "name": "",
          "type": "address"
        }
      ],
      "stateMutability": "view",
      "type": "function"
    },
    {
      "inputs": [
        {
          "internalType": "address",
          "name": "owner_",
          "type": "address"
        },
        {
          "internalType": "address",
          "name": "spender",
          "type": "address"
        },
        {
          "internalType": "uint256",
          "name": "value",
          "type": "uint256"
        },
        {
          "internalType": "uint256",
          "name": "deadline",
          "type": "uint256"
        },
        {
          "internalType": "uint8",
          "name": "v",
          "type": "uint8"
        },
        {
          "internalType": "bytes32",
          "name": "r",
          "type": "bytes32"
        },
        {
          "internalType": "bytes32",
          "name": "s",
          "type": "bytes32"
        }
      ],
      "name": "permit",
      "outputs": [],
      "stateMutability": "nonpayable",
      "type": "function"
    },
    {
      "inputs": [
        {
          "internalType": "address",
          "name": "from",
          "type": "address"
        },
        {
          "internalType": "address",
          "name": "to",
          "type": "address"
        },
        {
          "internalType": "uint256",
          "name": "fraction",
          "type": "uint256"
        }
      ],
      "name": "removeAsset",
      "outputs": [
        {
          "internalType": "uint256",
          "name": "share",
          "type": "uint256"
        }
      ],
      "stateMutability": "nonpayable",
      "type": "function"
    },
    {
      "inputs": [
        {
          "internalType": "address",
          "name": "from",
          "type": "address"
        },
        {
          "internalType": "address",
          "name": "to",
          "type": "address"
        },
        {
          "internalType": "uint256",
          "name": "share",
          "type": "uint256"
        }
      ],
      "name": "removeCollateral",
      "outputs": [],
      "stateMutability": "nonpayable",
      "type": "function"
    },
    {
      "inputs": [
        {
          "internalType": "address",
          "name": "from",
          "type": "address"
        },
        {
          "internalType": "address",
          "name": "to",
          "type": "address"
        },
        {
          "internalType": "bool",
          "name": "skim",
          "type": "bool"
        },
        {
          "internalType": "uint256",
          "name": "part",
          "type": "uint256"
        }
      ],
      "name": "repay",
      "outputs": [
        {
          "internalType": "uint256",
          "name": "amount",
          "type": "uint256"
        }
      ],
      "stateMutability": "nonpayable",
      "type": "function"
    },
    {
      "inputs": [],
      "name": "symbol",
      "outputs": [
        {
          "internalType": "string",
          "name": "",
          "type": "string"
        }
      ],
      "stateMutability": "view",
      "type": "function"
    },
    {
      "inputs": [],
      "name": "totalAsset",
      "outputs": [
        {
          "internalType": "uint128",
          "name": "elastic",
          "type": "uint128"
        },
        {
          "internalType": "uint128",
          "name": "base",
          "type": "uint128"
        }
      ],
      "stateMutability": "view",
      "type": "function"
    },
    {
      "inputs": [],
      "name": "totalBorrow",
      "outputs": [
        {
          "internalType": "uint128",
          "name": "elastic",
          "type": "uint128"
        },
        {
          "internalType": "uint128",
          "name": "base",
          "type": "uint128"
        }
      ],
      "stateMutability": "view",
      "type": "function"
    },
    {
      "inputs": [],
      "name": "totalBorrowCap",
      "outputs": [
        {
          "internalType": "uint256",
          "name": "",
          "type": "uint256"
        }
      ],
      "stateMutability": "view",
      "type": "function"
    },
    {
      "inputs": [],
      "name": "totalCollateralShare",
      "outputs": [
        {
          "internalType": "uint256",
          "name": "",
          "type": "uint256"
        }
      ],
      "stateMutability": "view",
      "type": "function"
    },
    {
      "inputs": [],
      "name": "totalSupply",
      "outputs": [
        {
          "internalType": "uint256",
          "name": "",
          "type": "uint256"
        }
      ],
      "stateMutability": "view",
      "type": "function"
    },
    {
      "inputs": [
        {
          "internalType": "address",
          "name": "to",
          "type": "address"
        },
        {
          "internalType": "uint256",
          "name": "amount",
          "type": "uint256"
        }
      ],
      "name": "transfer",
      "outputs": [
        {
          "internalType": "bool",
          "name": "",
          "type": "bool"
        }
      ],
      "stateMutability": "nonpayable",
      "type": "function"
    },
    {
      "inputs": [
        {
          "internalType": "address",
          "name": "from",
          "type": "address"
        },
        {
          "internalType": "address",
          "name": "to",
          "type": "address"
        },
        {
          "internalType": "uint256",
          "name": "amount",
          "type": "uint256"
        }
      ],
      "name": "transferFrom",
      "outputs": [
        {
          "internalType": "bool",
          "name": "",
          "type": "bool"
        }
      ],
      "stateMutability": "nonpayable",
      "type": "function"
    },
    {
      "inputs": [
        {
          "internalType": "address",
          "name": "newOwner",
          "type": "address"
        },
        {
          "internalType": "bool",
          "name": "direct",
          "type": "bool"
        },
        {
          "internalType": "bool",
          "name": "renounce",
          "type": "bool"
        }
      ],
      "name": "transferOwnership",
      "outputs": [],
      "stateMutability": "nonpayable",
      "type": "function"
    },
    {
      "inputs": [],
      "name": "updateExchangeRate",
      "outputs": [
        {
          "internalType": "bool",
          "name": "updated",
          "type": "bool"
        },
        {
          "internalType": "uint256",
          "name": "rate",
          "type": "uint256"
        }
      ],
      "stateMutability": "nonpayable",
      "type": "function"
    },
    {
      "inputs": [
        {
          "internalType": "address",
          "name": "",
          "type": "address"
        }
      ],
      "name": "userBorrowPart",
      "outputs": [
        {
          "internalType": "uint256",
          "name": "",
          "type": "uint256"
        }
      ],
      "stateMutability": "view",
      "type": "function"
    },
    {
      "inputs": [
        {
          "internalType": "address",
          "name": "",
          "type": "address"
        }
      ],
      "name": "userCollateralShare",
      "outputs": [
        {
          "internalType": "uint256",
          "name": "",
          "type": "uint256"
        }
      ],
      "stateMutability": "view",
      "type": "function"
    },
    {
      "inputs": [],
      "name": "yieldBox",
      "outputs": [
        {
          "internalType": "contract YieldBox",
          "name": "",
          "type": "address"
        }
      ],
      "stateMutability": "view",
      "type": "function"
    }
  ],
  "transactionHash": "0x5c28ed247defb3defa0b1ca1f0ef2e8875848cf19d5831fa898dd83d9bc84ed8",
  "args": [],
  "numDeployments": 1,
  "solcInputHash": "1fd29cc1c281ab02818a2b0bcc300499",
  "bytecode": "0x60c060405234801561001057600080fd5b50600080546001600160a01b0319163390811782556040519091907f8be0079c531659141344cd1fd0a4f28419497f9722a3daafe3b4186f6b6457e0908290a34660a08190526100b390604080517f47e79534a245952e8b16893a336b85a3d9ea9fa8c573f3d803afb92a794692186020820152908101829052306060820152600090608001604051602081830303815290604052805190602001209050919050565b60805260805160a051613f596100db60003960006124c4015260006124f50152613f596000f3fe608060405234801561001057600080fd5b50600436106102e95760003560e01c806370a0823111610191578063cd0211eb116100e3578063e30c397811610097578063f4d9375311610071578063f4d93753146106d6578063f8ba4cff146106e9578063f9557ccb146106f157600080fd5b8063e30c39781461068c578063e985e9c51461069f578063eec0f42e146106cd57600080fd5b8063d8dfeb45116100c8578063d8dfeb451461063b578063dd62ed3e1461064e578063de4065771461067957600080fd5b8063cd0211eb14610615578063d505accf1461062857600080fd5b80638da5cb5b11610145578063b27c0e741161011f578063b27c0e7414610588578063c23ea21f146105ef578063cce19f811461060257600080fd5b80638da5cb5b1461055a57806395d89b411461056d578063a9059cbb1461057557600080fd5b80637dc0d1d0116101765780637dc0d1d0146104e95780637ecebe00146104fc5780638285ef401461051c57600080fd5b806370a08231146104c157806374645ff3146104e157600080fd5b806338d52e0f1161024a57806348e4163e116101fe5780635224372c116101d85780635224372c146104735780635cffe9de1461049b5780636587adb8146104ae57600080fd5b806348e4163e146104385780634a50ed27146104585780634e71e0c81461046b57600080fd5b806340626d8b1161022f57806340626d8b1461041d57806344de240a14610426578063473e3ce71461042f57600080fd5b806338d52e0f146103e95780633ba0b9a91461041457600080fd5b80631c9e379b116102a157806325be78241161028657806325be7824146103b4578063313ce567146103c75780633644e515146103e157600080fd5b80631c9e379b1461038157806323b872dd146103a157600080fd5b8063078dfbe7116102d2578063078dfbe714610327578063095ea7b31461033c57806318160ddd1461035f57600080fd5b806302ce728f146102ee57806306fdde0314610312575b600080fd5b6102f661070f565b6040805192151583526020830191909152015b60405180910390f35b61031a6107fe565b6040516103099190613754565b61033a61033536600461378d565b6108ef565b005b61034f61034a3660046137d8565b610a55565b6040519015158152602001610309565b600e54600160801b90046001600160801b03165b604051908152602001610309565b61037361038f366004613804565b60116020526000908152604090205481565b61034f6103af366004613821565b610ac2565b61033a6103c2366004613862565b610cef565b6103cf610e1d565b60405160ff9091168152602001610309565b610373610e3a565b600a546103fc906001600160a01b031681565b6040516001600160a01b039091168152602001610309565b61037360145481565b61037360105481565b610373600c5481565b610373600d5481565b610373610446366004613804565b60126020526000908152604090205481565b6006546103fc906001600160a01b031681565b61033a610e44565b610486610481366004613821565b610f0e565b60408051928352602083019190915201610309565b61033a6104a9366004613922565b610ff2565b6103736104bc366004613862565b6113f3565b6103736104cf366004613804565b60026020526000908152604090205481565b61031a611487565b6015546103fc906001600160a01b031681565b61037361050a366004613804565b60046020526000908152604090205481565b600f5461053a906001600160801b0380821691600160801b90041682565b604080516001600160801b03938416815292909116602083015201610309565b6000546103fc906001600160a01b031681565b61031a611515565b61034f6105833660046137d8565b6115f2565b6005546105bf9067ffffffffffffffff8082169168010000000000000000810490911690600160801b90046001600160801b031683565b6040805167ffffffffffffffff94851681529390921660208401526001600160801b031690820152606001610309565b6008546103fc906001600160a01b031681565b61033a610610366004613821565b611757565b610373610623366004613862565b61182e565b61033a6106363660046139e0565b6118b8565b6009546103fc906001600160a01b031681565b61037361065c366004613a51565b600360209081526000928352604080842090915290825290205481565b6007546103fc906001600160a01b031681565b6001546103fc906001600160a01b031681565b61034f6106ad366004613a51565b601360209081526000928352604080842090915290825290205460ff1681565b610373600b5481565b6103736106e4366004613821565b611b0e565b61033a611ba0565b600e5461053a906001600160801b0380821691600160801b90041682565b6015546040517fd6d7d52500000000000000000000000000000000000000000000000000000000815260009182916001600160a01b039091169063d6d7d5259061075e90601690600401613ac5565b6040805180830381600087803b15801561077757600080fd5b505af115801561078b573d6000803e3d6000fd5b505050506040513d601f19601f820116820180604052508101906107af9190613b6d565b909250905081156107f65760148190556040518181527f9f9192b5edb17356c524e08d9e025c8e2f6307e6ea52fb7968faa3081f51c3c89060200160405180910390a19091565b506014549091565b600954606090610816906001600160a01b031661219b565b600a5461082b906001600160a01b031661219b565b6015546040517fd568866c0000000000000000000000000000000000000000000000000000000081526001600160a01b039091169063d568866c9061087590601690600401613ac5565b60006040518083038186803b15801561088d57600080fd5b505afa1580156108a1573d6000803e3d6000fd5b505050506040513d6000823e601f3d908101601f191682016040526108c99190810190613b9b565b6040516020016108db93929190613c09565b604051602081830303815290604052905090565b6000546001600160a01b0316331461094e5760405162461bcd60e51b815260206004820181905260248201527f4f776e61626c653a2063616c6c6572206973206e6f7420746865206f776e657260448201526064015b60405180910390fd5b8115610a26576001600160a01b0383161515806109685750805b6109b45760405162461bcd60e51b815260206004820152601560248201527f4f776e61626c653a207a65726f206164647265737300000000000000000000006044820152606401610945565b600080546040516001600160a01b03808716939216917f8be0079c531659141344cd1fd0a4f28419497f9722a3daafe3b4186f6b6457e091a3600080546001600160a01b03851673ffffffffffffffffffffffffffffffffffffffff1991821617909155600180549091169055505050565b600180546001600160a01b03851673ffffffffffffffffffffffffffffffffffffffff19909116179055505050565b3360008181526003602090815260408083206001600160a01b038716808552925280832085905551919290917f8c5be1e5ebec7d5bd14f71427d1e84f3dd0314c0f7b2291e5b200ac8c7c3b92590610ab09086815260200190565b60405180910390a35060015b92915050565b60008115610c97576001600160a01b03841660009081526002602052604090205482811015610b335760405162461bcd60e51b815260206004820152601660248201527f45524332303a2062616c616e636520746f6f206c6f77000000000000000000006044820152606401610945565b836001600160a01b0316856001600160a01b031614610c95576001600160a01b03851660009081526003602090815260408083203384529091529020546000198114610bf85783811015610bc95760405162461bcd60e51b815260206004820152601860248201527f45524332303a20616c6c6f77616e636520746f6f206c6f7700000000000000006044820152606401610945565b610bd38482613ca7565b6001600160a01b03871660009081526003602090815260408083203384529091529020555b6001600160a01b038516610c4e5760405162461bcd60e51b815260206004820152601660248201527f45524332303a206e6f207a65726f2061646472657373000000000000000000006044820152606401610945565b610c588483613ca7565b6001600160a01b038088166000908152600260205260408082209390935590871681529081208054869290610c8e908490613cbe565b9091555050505b505b826001600160a01b0316846001600160a01b03167fddf252ad1be2c89b69c2b068fc378daa952ba7f163c4a11628f55a4df523b3ef84604051610cdc91815260200190565b60405180910390a35060015b9392505050565b836001600160a01b0381163314801590610d3457506001600160a01b038116600090815260026020908152604080832054600383528184203385529092529091205411155b15610d6357604051630ca03e9b60e11b81526001600160a01b0382166004820152336024820152604401610945565b6001600160a01b03841660009081526011602052604081208054849290610d8b908490613cbe565b9091555050600d54610d9d8382613cbe565b600d55600b54610db1908790858488612277565b846001600160a01b031684610dc65786610dd3565b6007546001600160a01b03165b6001600160a01b03167f9ed03113de523cebfe5e49d5f8e12894b1c0d42ce805990461726444c90eab8785604051610e0d91815260200190565b60405180910390a3505050505050565b600a54600090610e35906001600160a01b03166123ef565b905090565b6000610e356124c0565b6001546001600160a01b0316338114610e9f5760405162461bcd60e51b815260206004820181905260248201527f4f776e61626c653a2063616c6c657220213d2070656e64696e67206f776e65726044820152606401610945565b600080546040516001600160a01b03808516939216917f8be0079c531659141344cd1fd0a4f28419497f9722a3daafe3b4186f6b6457e091a3600080546001600160a01b0390921673ffffffffffffffffffffffffffffffffffffffff19928316179055600180549091169055565b60008084806001600160a01b0381163314801590610f5757506001600160a01b038116600090815260026020908152604080832054600383528184203385529092529091205411155b15610f8657604051630ca03e9b60e11b81526001600160a01b0382166004820152336024820152604401610945565b610f8e611ba0565b610f99878787612517565b6014549195509350610fad91508290612838565b610fe95760405162461bcd60e51b815260206004820152600d60248201526c135e0e881a5b9cdbdb1d995b9d609a1b6044820152606401610945565b50935093915050565b60408051808201909152600e546001600160801b038082168352600160801b9091041660208201526000620186a061102b605a86613cd6565b6110359190613cf5565b82516020840151600754600c54604051638eb22cdd60e01b81526004810191909152602481018590526000604482018190529495506001600160801b0393841693909216916001600160a01b0390911690638eb22cdd9060640160206040518083038186803b1580156110a757600080fd5b505afa1580156110bb573d6000803e3d6000fd5b505050506040513d601f19601f820116820180604052508101906110df9190613d17565b6110e99190613cd6565b6110f39190613cf5565b600754600c546040517f8d2e63b800000000000000000000000000000000000000000000000000000000815260048101919091523060248201526001600160a01b0389811660448301526064820189905260006084830152929350911690638d2e63b89060a4016040805180830381600087803b15801561117357600080fd5b505af1158015611187573d6000803e3d6000fd5b505050506040513d601f19601f820116820180604052508101906111ab9190613d30565b5050600a546040517f23e30c8b0000000000000000000000000000000000000000000000000000000081526001600160a01b03808a16926323e30c8b926111fe92339216908a9088908b90600401613d54565b600060405180830381600087803b15801561121857600080fd5b505af115801561122c573d6000803e3d6000fd5b50505050818561123c9190613cbe565b600754600c546040517f54317d1600000000000000000000000000000000000000000000000000000000815230600482015260248101919091526001600160a01b03909116906354317d169060440160206040518083038186803b1580156112a357600080fd5b505afa1580156112b7573d6000803e3d6000fd5b505050506040513d601f19601f820116820180604052508101906112db9190613d17565b10156113295760405162461bcd60e51b815260206004820152601660248201527f4d783a20696e73756666696369656e742066756e6473000000000000000000006044820152606401610945565b8083602001516113399190613d97565b600e80546001600160801b03908116600160801b938216840217909155600580548493919260109261137092869291900416613d97565b92506101000a8154816001600160801b0302191690836001600160801b03160217905550856001600160a01b0316876001600160a01b03167f2846a042bc39c76d5d54e6df0c69a95014c81bc24b006211e95a37b68dca6af087856040516113e2929190918252602082015260400190565b60405180910390a350505050505050565b6000846001600160a01b038116331480159061143a57506001600160a01b038116600090815260026020908152604080832054600383528184203385529092529091205411155b1561146957604051630ca03e9b60e11b81526001600160a01b0382166004820152336024820152604401610945565b611471611ba0565b61147d868686866129b9565b9695505050505050565b6016805461149490613a8a565b80601f01602080910402602001604051908101604052809291908181526020018280546114c090613a8a565b801561150d5780601f106114e25761010080835404028352916020019161150d565b820191906000526020600020905b8154815290600101906020018083116114f057829003601f168201915b505050505081565b60095460609061152d906001600160a01b0316612c0e565b600a54611542906001600160a01b0316612c0e565b6015546040517fc699c4d60000000000000000000000000000000000000000000000000000000081526001600160a01b039091169063c699c4d69061158c90601690600401613ac5565b60006040518083038186803b1580156115a457600080fd5b505afa1580156115b8573d6000803e3d6000fd5b505050506040513d6000823e601f3d908101601f191682016040526115e09190810190613b9b565b6040516020016108db93929190613dc2565b60008115158061160a5750336001600160a01b038416145b1561171a57336000908152600260205260409020548281101561166f5760405162461bcd60e51b815260206004820152601660248201527f45524332303a2062616c616e636520746f6f206c6f77000000000000000000006044820152606401610945565b336001600160a01b03851614611718576001600160a01b0384166116d55760405162461bcd60e51b815260206004820152601660248201527f45524332303a206e6f207a65726f2061646472657373000000000000000000006044820152606401610945565b6116df8382613ca7565b33600090815260026020526040808220929092556001600160a01b03861681529081208054859290611712908490613cbe565b90915550505b505b6040518281526001600160a01b0384169033907fddf252ad1be2c89b69c2b068fc378daa952ba7f163c4a11628f55a4df523b3ef90602001610ab0565b82806001600160a01b038116331480159061179d57506001600160a01b038116600090815260026020908152604080832054600383528184203385529092529091205411155b156117cc57604051630ca03e9b60e11b81526001600160a01b0382166004820152336024820152604401610945565b6117d4611ba0565b6117df858585612c6e565b506117ec81601454612838565b6118285760405162461bcd60e51b815260206004820152600d60248201526c135e0e881a5b9cdbdb1d995b9d609a1b6044820152606401610945565b50505050565b6000846001600160a01b038116331480159061187557506001600160a01b038116600090815260026020908152604080832054600383528184203385529092529091205411155b156118a457604051630ca03e9b60e11b81526001600160a01b0382166004820152336024820152604401610945565b6118ac611ba0565b61147d86868686612d7e565b6001600160a01b03871661190e5760405162461bcd60e51b815260206004820152601860248201527f45524332303a204f776e65722063616e6e6f74206265203000000000000000006044820152606401610945565b83421061195d5760405162461bcd60e51b815260206004820152600e60248201527f45524332303a20457870697265640000000000000000000000000000000000006044820152606401610945565b6001600160a01b03871660008181526004602052604081208054600192611a07927f6e71edae12b1b97f4d1f60370fef10105fa2faae0126114a169c64845d6126c9928d928d928d92916119b083613e4a565b909155506040805160208101969096526001600160a01b0394851690860152929091166060840152608083015260a082015260c0810188905260e00160405160208183030381529060405280519060200120612f5f565b6040805160008152602081018083529290925260ff871690820152606081018590526080810184905260a0016020604051602081039080840390855afa158015611a55573d6000803e3d6000fd5b505050602060405103516001600160a01b031614611ab55760405162461bcd60e51b815260206004820152601860248201527f45524332303a20496e76616c6964205369676e617475726500000000000000006044820152606401610945565b6001600160a01b038781166000818152600360209081526040808320948b168084529482529182902089905590518881527f8c5be1e5ebec7d5bd14f71427d1e84f3dd0314c0f7b2291e5b200ac8c7c3b92591016113e2565b6000836001600160a01b0381163314801590611b5557506001600160a01b038116600090815260026020908152604080832054600383528184203385529092529091205411155b15611b8457604051630ca03e9b60e11b81526001600160a01b0382166004820152336024820152604401610945565b611b8c611ba0565b611b97858585612fcf565b95945050505050565b6040805160608101825260055467ffffffffffffffff80821683526801000000000000000082041660208301819052600160801b9091046001600160801b03169282019290925290600090611bf59042613ca7565b905080611c00575050565b67ffffffffffffffff421660208084019190915260408051808201909152600f546001600160801b038082168352600160801b9091041691810182905290611d0c57825167ffffffffffffffff166312e687c014611caa576312e687c0808452604080516000808252602082018190529181019290925260608201527f33af5ce86e8438eff54589f85332916444457dfa8685493fbd579b809097026b9060800160405180910390a15b505080516005805460208401516040909401516001600160801b03908116600160801b0267ffffffffffffffff95861668010000000000000000026fffffffffffffffffffffffffffffffff1990931695909416949094171792909216179055565b60408051808201909152600e546001600160801b038082168352600160801b909104811660208301528451835160009384939092670de0b6b3a7640000928892611d619267ffffffffffffffff169116613cd6565b611d6b9190613cd6565b611d759190613cf5565b92508284600001818151611d899190613d97565b6001600160801b039081169091528551600754600c5485516040517f442c1599000000000000000000000000000000000000000000000000000000008152600481019290925284166024820152600060448201819052945091909216916001600160a01b03169063442c15999060640160206040518083038186803b158015611e1157600080fd5b505afa158015611e25573d6000803e3d6000fd5b505050506040513d601f19601f82011682018060405250810190611e499190613d17565b611e539190613cbe565b90506000620186a0611e6761271087613cd6565b611e719190613cf5565b90508183602001516001600160801b031682611e8d9190613cd6565b611e979190613cf5565b93508388604001818151611eab9190613d97565b6001600160801b03169052506020830151611ec7908590613d97565b600e80546001600160801b03908116600160801b9382168402179091558751602089015190821691169091028117600f556000908390611f1090670de0b6b3a764000090613cd6565b611f1a9190613cf5565b90506709b6e64a8ec60000811015611ff15760006709b6e64a8ec60000670de0b6b3a7640000611f4a8483613ca7565b611f549190613cd6565b611f5e9190613cf5565b9050600089611f6d8380613cd6565b611f779190613cd6565b611f92907054a2b63d65d79d094abb66880000000000613cbe565b9050807054a2b63d65d79d094abb668800000000008c6000015167ffffffffffffffff16611fc09190613cd6565b611fca9190613cf5565b67ffffffffffffffff16808c526304b9a1f01115611fea576304b9a1f08b525b50506120e0565b670b1a2bc2ec5000008111156120e057600061201d670b1a2bc2ec500000670de0b6b3a7640000613ca7565b670de0b6b3a7640000612038670b1a2bc2ec50000085613ca7565b6120429190613cd6565b61204c9190613cf5565b905060008961205b8380613cd6565b6120659190613cd6565b612080907054a2b63d65d79d094abb66880000000000613cbe565b905060007054a2b63d65d79d094abb66880000000000828d6000015167ffffffffffffffff166120b09190613cd6565b6120ba9190613cf5565b90506449d48246008111156120d157506449d48246005b67ffffffffffffffff168b5250505b8851604080518881526020810188905267ffffffffffffffff9092168282015260608201839052517f33af5ce86e8438eff54589f85332916444457dfa8685493fbd579b809097026b9181900360800190a1505086516005805460208a01516040909a01516001600160801b03908116600160801b0267ffffffffffffffff9b8c1668010000000000000000026fffffffffffffffffffffffffffffffff199093169b9094169a909a17179890981617909655505050505050565b60408051600481526024810182526020810180516001600160e01b03167f06fdde0300000000000000000000000000000000000000000000000000000000179052905160609160009182916001600160a01b038616916121fb9190613e65565b600060405180830381855afa9150503d8060008114612236576040519150601f19603f3d011682016040523d82523d6000602084013e61223b565b606091505b50915091508161226657604051806040016040528060038152602001623f3f3f60e81b81525061226f565b61226f816132d5565b949350505050565b8015612374576007546040517efdd58e0000000000000000000000000000000000000000000000000000000081523060048201526024810186905283916001600160a01b03169062fdd58e9060440160206040518083038186803b1580156122de57600080fd5b505afa1580156122f2573d6000803e3d6000fd5b505050506040513d601f19601f820116820180604052508101906123169190613d17565b6123209190613ca7565b83111561236f5760405162461bcd60e51b815260206004820152600c60248201527f4d783a20746f6f206d75636800000000000000000000000000000000000000006044820152606401610945565b6123e8565b600754604051630208d92960e11b81526001600160a01b038781166004830152306024830152604482018790526064820186905290911690630411b25290608401600060405180830381600087803b1580156123cf57600080fd5b505af11580156123e3573d6000803e3d6000fd5b505050505b5050505050565b60408051600481526024810182526020810180516001600160e01b03167f313ce567000000000000000000000000000000000000000000000000000000001790529051600091829182916001600160a01b0386169161244e9190613e65565b600060405180830381855afa9150503d8060008114612489576040519150601f19603f3d011682016040523d82523d6000602084013e61248e565b606091505b50915091508180156124a1575080516020145b6124ac57601261226f565b8080602001905181019061226f9190613e81565b60007f000000000000000000000000000000000000000000000000000000000000000046146124f257610e354661349c565b507f000000000000000000000000000000000000000000000000000000000000000090565b60008080620186a061252a603286613cd6565b6125349190613cf5565b90506125736125438286613cbe565b60408051808201909152600f546001600160801b038082168352600160801b9091041660208201529060016134dd565b81516020909201516001600160801b03908116600160801b02921691909117600f5560105490935015806125bb5750601054600f54600160801b90046001600160801b031611155b6126075760405162461bcd60e51b815260206004820152601660248201527f4d783a20626f72726f77206361702072656163686564000000000000000000006044820152606401610945565b6001600160a01b0386166000908152601260205260408120805485929061262f908490613cbe565b909155505060408051858152602081018390529081018490526001600160a01b0380871691908816907f3a5151e57d3bc9798e7853034ac52293d1a0e12a2b44725e75b03b21f86477a69060600160405180910390a3600754600c54604051638eb22cdd60e01b8152600481019190915260248101869052600060448201526001600160a01b0390911690638eb22cdd9060640160206040518083038186803b1580156126db57600080fd5b505afa1580156126ef573d6000803e3d6000fd5b505050506040513d601f19601f820116820180604052508101906127139190613d17565b60408051808201909152600e546001600160801b038082168352600160801b9091041660208201819052919350906103e811156127825760405162461bcd60e51b815260206004820152600d60248201526c135e0e881b5a5b881b1a5b5a5d609a1b6044820152606401610945565b82816000018181516127949190613e9e565b6001600160801b03908116909152825160208401518216600160801b02911617600e5550600754600c54604051630208d92960e11b81523060048201526001600160a01b038981166024830152604482019290925260648101869052911690630411b25290608401600060405180830381600087803b15801561281657600080fd5b505af115801561282a573d6000803e3d6000fd5b505050505050935093915050565b6001600160a01b03821660009081526012602052604081205480612860576001915050610abc565b6001600160a01b0384166000908152601160205260409020548061288957600092505050610abc565b60408051808201909152600f546001600160801b03808216808452600160801b90920416602083018190529086906128c19086613cd6565b6128cb9190613cd6565b6128d59190613cf5565b600754600b546001600160a01b039091169063442c159990620124f8612906620186a0670de0b6b3a7640000613cf5565b6129109088613cd6565b61291a9190613cd6565b6040517fffffffff0000000000000000000000000000000000000000000000000000000060e085901b168152600481019290925260248201526000604482015260640160206040518083038186803b15801561297557600080fd5b505afa158015612989573d6000803e3d6000fd5b505050506040513d601f19601f820116820180604052508101906129ad9190613d17565b10159695505050505050565b604080518082018252600e546001600160801b03808216808452600160801b90920481166020840152600754600c54600f549551638eb22cdd60e01b815260048101919091529490911660248501526001604485015260009384916001600160a01b031690638eb22cdd9060640160206040518083038186803b158015612a3f57600080fd5b505afa158015612a53573d6000803e3d6000fd5b505050506040513d601f19601f82011682018060405250810190612a779190613d17565b8351612a8c91906001600160801b0316613cbe565b90508015612abd578083602001516001600160801b031686612aae9190613cd6565b612ab89190613cf5565b612abf565b845b93506103e8848460200151612ad49190613d97565b6001600160801b03161015612aef576000935050505061226f565b612afa838686613546565b80516020918201516001600160801b03908116600160801b02911617600e556001600160a01b03881660009081526002909152604081208054869290612b41908490613cbe565b90915550506040518481526001600160a01b038816906000907fddf252ad1be2c89b69c2b068fc378daa952ba7f163c4a11628f55a4df523b3ef9060200160405180910390a3612b9688600c5487858a612277565b866001600160a01b031686612bab5788612bb8565b6007546001600160a01b03165b6001600160a01b03167f30a8c4f9ab5af7e1309ca87c32377d1a83366c5990472dbf9d262450eae14e388787604051612bfb929190918252602082015260400190565b60405180910390a3505050949350505050565b60408051600481526024810182526020810180516001600160e01b03167f95d89b4100000000000000000000000000000000000000000000000000000000179052905160609160009182916001600160a01b038616916121fb9190613e65565b6001600160a01b03831660009081526011602052604081208054839290612c96908490613ca7565b9250508190555080600d6000828254612caf9190613ca7565b92505081905550816001600160a01b0316836001600160a01b03167f8ad4d3ff00da092c7ad9a573ea4f5f6a3dffc6712dc06d3f78f49b862297c40283604051612cfb91815260200190565b60405180910390a3600754600b54604051630208d92960e11b81523060048201526001600160a01b038581166024830152604482019290925260648101849052911690630411b25290608401600060405180830381600087803b158015612d6157600080fd5b505af1158015612d75573d6000803e3d6000fd5b50505050505050565b60408051808201909152600f546001600160801b038082168352600160801b909104166020820152600090612db5908360016135a0565b81516020928301516001600160801b03908116600160801b02911617600f556001600160a01b0386166000908152601290925260408220805491935084929091612e00908490613ca7565b9091555050600754600c54604051638eb22cdd60e01b8152600481019190915260248101839052600160448201526000916001600160a01b031690638eb22cdd9060640160206040518083038186803b158015612e5c57600080fd5b505afa158015612e70573d6000803e3d6000fd5b505050506040513d601f19601f82011682018060405250810190612e949190613d17565b600e54600c549192506001600160801b031690612eb5908890848489612277565b612ebf8282613d97565b600e80546fffffffffffffffffffffffffffffffff19166001600160801b03929092169190911790556001600160a01b03861685612efd5787612f0a565b6007546001600160a01b03165b6001600160a01b03167fc8e512d8f188ca059984b5853d2bf653da902696b8512785b182b2c813789a6e8587604051612f4d929190918252602082015260400190565b60405180910390a35050949350505050565b60006040518060400160405280600281526020017f1901000000000000000000000000000000000000000000000000000000000000815250612f9f6124c0565b83604051602001612fb293929190613ec6565b604051602081830303815290604052805190602001209050919050565b600e54600090600160801b90046001600160801b0316612ff157506000610ce8565b604080518082018252600e546001600160801b038082168352600160801b90910481166020830152600754600c54600f549451638eb22cdd60e01b815260048101919091529390911660248401526001604484015290916000916001600160a01b031690638eb22cdd9060640160206040518083038186803b15801561307657600080fd5b505afa15801561308a573d6000803e3d6000fd5b505050506040513d601f19601f820116820180604052508101906130ae9190613d17565b82516130c391906001600160801b0316613cbe565b60208301519091506001600160801b03166130de8286613cd6565b6130e89190613cf5565b6001600160a01b038716600090815260026020526040812080549295508692909190613115908490613ca7565b90915550506040518481526000906001600160a01b038816907fddf252ad1be2c89b69c2b068fc378daa952ba7f163c4a11628f55a4df523b3ef9060200160405180910390a3828260000181815161316d9190613e9e565b6001600160801b031690525060208201805185919061318d908390613e9e565b6001600160801b0390811690915260208401516103e89116101590506131e55760405162461bcd60e51b815260206004820152600d60248201526c135e0e881b5a5b881b1a5b5a5d609a1b6044820152606401610945565b815160208301516001600160801b03908116600160801b02911617600e556040516001600160a01b0380871691908816907f6e853a5fd6b51d773691f542ebac8513c9992a51380d4c342031056a641142289061324e9087908990918252602082015260400190565b60405180910390a3600754600c54604051630208d92960e11b81523060048201526001600160a01b038881166024830152604482019290925260648101869052911690630411b25290608401600060405180830381600087803b1580156132b457600080fd5b505af11580156132c8573d6000803e3d6000fd5b5050505050509392505050565b606060408251106132f45781806020019051810190610abc9190613b9b565b81516020141561347d5760005b60208160ff1610801561334e5750828160ff168151811061332457613324613eed565b01602001517fff000000000000000000000000000000000000000000000000000000000000001615155b15613365578061335d81613f03565b915050613301565b60008160ff1667ffffffffffffffff811115613383576133836138b3565b6040519080825280601f01601f1916602001820160405280156133ad576020820181803683370190505b509050600091505b60208260ff161080156134025750838260ff16815181106133d8576133d8613eed565b01602001517fff000000000000000000000000000000000000000000000000000000000000001615155b15610ce857838260ff168151811061341c5761341c613eed565b602001015160f81c60f81b818360ff168151811061343c5761343c613eed565b60200101907effffffffffffffffffffffffffffffffffffffffffffffffffffffffffffff1916908160001a9053508161347581613f03565b9250506133b5565b50506040805180820190915260038152623f3f3f60e81b602082015290565b604080517f47e79534a245952e8b16893a336b85a3d9ea9fa8c573f3d803afb92a794692186020820152908101829052306060820152600090608001612fb2565b604080518082019091526000808252602082015260006134fe8585856135f5565b905083856000018181516135129190613d97565b6001600160801b0316905250602085018051829190613532908390613d97565b6001600160801b0316905250939492505050565b6040805180820190915260008082526020820152828460000181815161356c9190613d97565b6001600160801b031690525060208401805183919061358c908390613d97565b6001600160801b0316905250929392505050565b604080518082019091526000808252602082015260006135c1858585613683565b905080856000018181516135d59190613e9e565b6001600160801b0316905250602085018051859190613532908390613e9e565b82516000906001600160801b031661360e575081610ce8565b835160208501516001600160801b039182169161362c911685613cd6565b6136369190613cf5565b905081801561367457508284602001516001600160801b031685600001516001600160801b0316836136689190613cd6565b6136729190613cf5565b105b15610ce85780611b9781613e4a565b600083602001516001600160801b0316600014156136a2575081610ce8565b602084015184516001600160801b03918216916136c0911685613cd6565b6136ca9190613cf5565b905081801561367457508284600001516001600160801b031685602001516001600160801b0316836136689190613cd6565b60005b838110156137175781810151838201526020016136ff565b838111156118285750506000910152565b600081518084526137408160208601602086016136fc565b601f01601f19169290920160200192915050565b602081526000610ce86020830184613728565b6001600160a01b038116811461377c57600080fd5b50565b801515811461377c57600080fd5b6000806000606084860312156137a257600080fd5b83356137ad81613767565b925060208401356137bd8161377f565b915060408401356137cd8161377f565b809150509250925092565b600080604083850312156137eb57600080fd5b82356137f681613767565b946020939093013593505050565b60006020828403121561381657600080fd5b8135610ce881613767565b60008060006060848603121561383657600080fd5b833561384181613767565b9250602084013561385181613767565b929592945050506040919091013590565b6000806000806080858703121561387857600080fd5b843561388381613767565b9350602085013561389381613767565b925060408501356138a38161377f565b9396929550929360600135925050565b634e487b7160e01b600052604160045260246000fd5b604051601f8201601f1916810167ffffffffffffffff811182821017156138f2576138f26138b3565b604052919050565b600067ffffffffffffffff821115613914576139146138b3565b50601f01601f191660200190565b6000806000806080858703121561393857600080fd5b843561394381613767565b9350602085013561395381613767565b925060408501359150606085013567ffffffffffffffff81111561397657600080fd5b8501601f8101871361398757600080fd5b803561399a613995826138fa565b6138c9565b8181528860208385010111156139af57600080fd5b8160208401602083013760006020838301015280935050505092959194509250565b60ff8116811461377c57600080fd5b600080600080600080600060e0888a0312156139fb57600080fd5b8735613a0681613767565b96506020880135613a1681613767565b955060408801359450606088013593506080880135613a34816139d1565b9699959850939692959460a0840135945060c09093013592915050565b60008060408385031215613a6457600080fd5b8235613a6f81613767565b91506020830135613a7f81613767565b809150509250929050565b600181811c90821680613a9e57607f821691505b60208210811415613abf57634e487b7160e01b600052602260045260246000fd5b50919050565b600060208083526000845481600182811c915080831680613ae757607f831692505b858310811415613b0557634e487b7160e01b85526022600452602485fd5b878601838152602001818015613b225760018114613b3357613b5e565b60ff19861682528782019650613b5e565b60008b81526020902060005b86811015613b5857815484820152908501908901613b3f565b83019750505b50949998505050505050505050565b60008060408385031215613b8057600080fd5b8251613b8b8161377f565b6020939093015192949293505050565b600060208284031215613bad57600080fd5b815167ffffffffffffffff811115613bc457600080fd5b8201601f81018413613bd557600080fd5b8051613be3613995826138fa565b818152856020838501011115613bf857600080fd5b611b978260208301602086016136fc565b7f546170696f6361204d69786f6c6f676973742000000000000000000000000000815260008451613c418160138501602089016136fc565b602f60f81b6013918401918201528451613c628160148401602089016136fc565b602d60f81b601492909101918201528351613c848160158401602088016136fc565b0160150195945050505050565b634e487b7160e01b600052601160045260246000fd5b600082821015613cb957613cb9613c91565b500390565b60008219821115613cd157613cd1613c91565b500190565b6000816000190483118215151615613cf057613cf0613c91565b500290565b600082613d1257634e487b7160e01b600052601260045260246000fd5b500490565b600060208284031215613d2957600080fd5b5051919050565b60008060408385031215613d4357600080fd5b505080516020909101519092909150565b60006001600160a01b03808816835280871660208401525084604083015283606083015260a06080830152613d8c60a0830184613728565b979650505050505050565b60006001600160801b03808316818516808303821115613db957613db9613c91565b01949350505050565b7f746d000000000000000000000000000000000000000000000000000000000000815260008451613dfa8160028501602089016136fc565b602f60f81b6002918401918201528451613e1b8160038401602089016136fc565b602d60f81b600392909101918201528351613e3d8160048401602088016136fc565b0160040195945050505050565b6000600019821415613e5e57613e5e613c91565b5060010190565b60008251613e778184602087016136fc565b9190910192915050565b600060208284031215613e9357600080fd5b8151610ce8816139d1565b60006001600160801b0383811690831681811015613ebe57613ebe613c91565b039392505050565b60008451613ed88184602089016136fc565b91909101928352506020820152604001919050565b634e487b7160e01b600052603260045260246000fd5b600060ff821660ff811415613f1a57613f1a613c91565b6001019291505056fea26469706673582212208ed458dd1e6cf895769d5f1cc07a4ecc49bdd5ed62030b6f86492a50787b384b64736f6c63430008090033",
  "devdoc": {
    "kind": "dev",
    "methods": {
      "addAsset(address,address,bool,uint256)": {
        "params": {
          "from": "Address to add asset from.",
          "share": "The amount of shares to add.",
          "skim": "True if the amount should be skimmed from the deposit balance of msg.sender. False if tokens from msg.sender in `yieldBox` should be transferred.",
          "to": "The address of the user to receive the assets."
        },
        "returns": {
          "fraction": "Total fractions added."
        }
      },
      "addCollateral(address,address,bool,uint256)": {
        "params": {
          "from": "Account to transfer shares from.",
          "share": "The amount of shares to add for `to`.",
          "skim": "True if the amount should be skimmed from the deposit balance of msg.sender. False if tokens from msg.sender in `yieldBox` should be transferred.",
          "to": "The receiver of the tokens."
        }
      },
      "approve(address,uint256)": {
        "params": {
          "amount": "The maximum collective amount that `spender` can draw.",
          "spender": "Address of the party that can draw from msg.sender's account."
        },
        "returns": {
          "_0": "(bool) Returns True if approved."
        }
      },
      "borrow(address,address,uint256)": {
        "params": {
          "amount": "Amount to borrow.",
          "from": "Account to borrow for.",
          "to": "The receiver of borrowed tokens."
        },
        "returns": {
          "part": "Total part of the debt held by borrowers.",
          "share": "Total amount in shares borrowed."
        }
      },
      "flashLoan(address,address,uint256,bytes)": {
        "details": "The contract expect the `borrower` to have at the end of `onFlashLoan` `amount` + the incurred fees. The borrower is expected to `approve()` yieldBox for this number at the end of its `onFlashLoan()`.",
        "params": {
          "amount": "of the tokens to receive.",
          "borrower": "The address of the contract that implements and conforms to `IFlashBorrower` and handles the flashloan.",
          "data": "The calldata to pass to the `borrower` contract.",
          "receiver": "Address of the token receiver."
        }
      },
      "permit(address,address,uint256,uint256,uint8,bytes32,bytes32)": {
        "params": {
          "deadline": "This permit must be redeemed before this deadline (UTC timestamp in seconds).",
          "owner_": "Address of the owner.",
          "spender": "The address of the spender that gets approved to draw from `owner_`.",
          "value": "The maximum collective amount that `spender` can draw."
        }
      },
      "removeAsset(address,address,uint256)": {
        "params": {
          "fraction": "The amount/fraction of assets held to remove.",
          "from": "Account to debit Assets from.",
          "to": "The user that receives the removed assets."
        },
        "returns": {
          "share": "The amount of shares transferred to `to`."
        }
      },
      "removeCollateral(address,address,uint256)": {
        "params": {
          "from": "Account to debit collateral from.",
          "share": "Amount of shares to remove.",
          "to": "The receiver of the shares."
        }
      },
      "repay(address,address,bool,uint256)": {
        "params": {
          "from": "Address to repay from.",
          "part": "The amount to repay. See `userBorrowPart`.",
          "skim": "True if the amount should be skimmed from the deposit balance of msg.sender. False if tokens from msg.sender in `yieldBox` should be transferred.",
          "to": "Address of the user this payment should go."
        },
        "returns": {
          "amount": "The total amount repayed."
        }
      },
      "transfer(address,uint256)": {
        "params": {
          "amount": "of the tokens to move.",
          "to": "The address to move the tokens."
        },
        "returns": {
          "_0": "(bool) Returns True if succeeded."
        }
      },
      "transferFrom(address,address,uint256)": {
        "params": {
          "amount": "The token amount to move.",
          "from": "Address to draw tokens from.",
          "to": "The address to move the tokens."
        },
        "returns": {
          "_0": "(bool) Returns True if succeeded."
        }
      },
      "transferOwnership(address,bool,bool)": {
        "params": {
          "direct": "True if `newOwner` should be set immediately. False if `newOwner` needs to use `claimOwnership`.",
          "newOwner": "Address of the new owner.",
          "renounce": "Allows the `newOwner` to be `address(0)` if `direct` and `renounce` is True. Has no effect otherwise."
        }
      },
      "updateExchangeRate()": {
        "returns": {
          "rate": "The new exchange rate.",
          "updated": "True if `exchangeRate` was updated."
        }
      }
    },
    "version": 1
  },
  "userdoc": {
    "kind": "user",
    "methods": {
      "accrue()": {
        "notice": "Accrues the interest on the borrowed tokens and handles the accumulation of fees."
      },
      "addAsset(address,address,bool,uint256)": {
        "notice": "Adds assets to the lending pair."
      },
      "addCollateral(address,address,bool,uint256)": {
        "notice": "Adds `collateral` from msg.sender to the account `to`."
      },
      "allowance(address,address)": {
        "notice": "owner > spender > allowance mapping."
      },
      "approve(address,uint256)": {
        "notice": "Approves `amount` from sender to be spend by `spender`."
      },
      "balanceOf(address)": {
        "notice": "owner > balance mapping."
      },
      "borrow(address,address,uint256)": {
        "notice": "Sender borrows `amount` and transfers it to `to`."
      },
      "claimOwnership()": {
        "notice": "Needs to be called by `pendingOwner` to claim ownership."
      },
      "exchangeRate()": {
        "notice": "Exchange and interest rate tracking. This is 'cached' here because calls to Oracles can be very expensive. Asset -> collateral = assetAmount * exchangeRate."
      },
      "flashLoan(address,address,uint256,bytes)": {
        "notice": "Flashloan ability."
      },
      "nonces(address)": {
        "notice": "owner > nonce mapping. Used in `permit`."
      },
      "permit(address,address,uint256,uint256,uint8,bytes32,bytes32)": {
        "notice": "Approves `value` from `owner_` to be spend by `spender`."
      },
      "removeAsset(address,address,uint256)": {
        "notice": "Removes an asset from msg.sender and transfers it to `to`."
      },
      "removeCollateral(address,address,uint256)": {
        "notice": "Removes `share` amount of collateral and transfers it to `to`."
      },
      "repay(address,address,bool,uint256)": {
        "notice": "Repays a loan."
      },
      "transfer(address,uint256)": {
        "notice": "Transfers `amount` tokens from `msg.sender` to `to`."
      },
      "transferFrom(address,address,uint256)": {
        "notice": "Transfers `amount` tokens from `from` to `to`. Caller needs approval for `from`."
      },
      "transferOwnership(address,bool,bool)": {
        "notice": "Transfers ownership to `newOwner`. Either directly or claimable by the new pending owner. Can only be invoked by the current `owner`."
      },
      "updateExchangeRate()": {
        "notice": "Gets the exchange rate. I.e how much collateral to buy 1e18 asset. This function is supposed to be invoked if needed because Oracle queries can be expensive."
      }
    },
    "version": 1
  },
  "storageLayout": {
    "storage": [
      {
        "astId": 233,
        "contract": "contracts/mixologist/MXLendingBorrowing.sol:MXLendingBorrowing",
        "label": "owner",
        "offset": 0,
        "slot": "0",
        "type": "t_address"
      },
      {
        "astId": 235,
        "contract": "contracts/mixologist/MXLendingBorrowing.sol:MXLendingBorrowing",
        "label": "pendingOwner",
        "offset": 0,
        "slot": "1",
        "type": "t_address"
      },
      {
        "astId": 478,
        "contract": "contracts/mixologist/MXLendingBorrowing.sol:MXLendingBorrowing",
        "label": "balanceOf",
        "offset": 0,
        "slot": "2",
        "type": "t_mapping(t_address,t_uint256)"
      },
      {
        "astId": 486,
        "contract": "contracts/mixologist/MXLendingBorrowing.sol:MXLendingBorrowing",
        "label": "allowance",
        "offset": 0,
        "slot": "3",
        "type": "t_mapping(t_address,t_mapping(t_address,t_uint256))"
      },
      {
        "astId": 491,
        "contract": "contracts/mixologist/MXLendingBorrowing.sol:MXLendingBorrowing",
        "label": "nonces",
        "offset": 0,
        "slot": "4",
        "type": "t_mapping(t_address,t_uint256)"
      },
      {
        "astId": 10162,
        "contract": "contracts/mixologist/MXLendingBorrowing.sol:MXLendingBorrowing",
        "label": "accrueInfo",
        "offset": 0,
        "slot": "5",
        "type": "t_struct(AccrueInfo)10159_storage"
      },
      {
        "astId": 10165,
        "contract": "contracts/mixologist/MXLendingBorrowing.sol:MXLendingBorrowing",
        "label": "beachBar",
        "offset": 0,
        "slot": "6",
        "type": "t_contract(BeachBar)3219"
      },
      {
        "astId": 10168,
        "contract": "contracts/mixologist/MXLendingBorrowing.sol:MXLendingBorrowing",
        "label": "yieldBox",
        "offset": 0,
        "slot": "7",
        "type": "t_contract(YieldBox)18196"
      },
      {
        "astId": 10171,
        "contract": "contracts/mixologist/MXLendingBorrowing.sol:MXLendingBorrowing",
        "label": "liquidationQueue",
        "offset": 0,
        "slot": "8",
        "type": "t_contract(ILiquidationQueue)4199"
      },
      {
        "astId": 10174,
        "contract": "contracts/mixologist/MXLendingBorrowing.sol:MXLendingBorrowing",
        "label": "collateral",
        "offset": 0,
        "slot": "9",
        "type": "t_contract(IERC20)1099"
      },
      {
        "astId": 10177,
        "contract": "contracts/mixologist/MXLendingBorrowing.sol:MXLendingBorrowing",
        "label": "asset",
        "offset": 0,
        "slot": "10",
        "type": "t_contract(IERC20)1099"
      },
      {
        "astId": 10179,
        "contract": "contracts/mixologist/MXLendingBorrowing.sol:MXLendingBorrowing",
        "label": "collateralId",
        "offset": 0,
        "slot": "11",
        "type": "t_uint256"
      },
      {
        "astId": 10181,
        "contract": "contracts/mixologist/MXLendingBorrowing.sol:MXLendingBorrowing",
        "label": "assetId",
        "offset": 0,
        "slot": "12",
        "type": "t_uint256"
      },
      {
        "astId": 10183,
        "contract": "contracts/mixologist/MXLendingBorrowing.sol:MXLendingBorrowing",
        "label": "totalCollateralShare",
        "offset": 0,
        "slot": "13",
        "type": "t_uint256"
      },
      {
        "astId": 10186,
        "contract": "contracts/mixologist/MXLendingBorrowing.sol:MXLendingBorrowing",
        "label": "totalAsset",
        "offset": 0,
        "slot": "14",
        "type": "t_struct(Rebase)1874_storage"
      },
      {
        "astId": 10189,
        "contract": "contracts/mixologist/MXLendingBorrowing.sol:MXLendingBorrowing",
        "label": "totalBorrow",
        "offset": 0,
        "slot": "15",
        "type": "t_struct(Rebase)1874_storage"
      },
      {
        "astId": 10191,
        "contract": "contracts/mixologist/MXLendingBorrowing.sol:MXLendingBorrowing",
        "label": "totalBorrowCap",
        "offset": 0,
        "slot": "16",
        "type": "t_uint256"
      },
      {
        "astId": 10195,
        "contract": "contracts/mixologist/MXLendingBorrowing.sol:MXLendingBorrowing",
        "label": "userCollateralShare",
        "offset": 0,
        "slot": "17",
        "type": "t_mapping(t_address,t_uint256)"
      },
      {
        "astId": 10199,
        "contract": "contracts/mixologist/MXLendingBorrowing.sol:MXLendingBorrowing",
        "label": "userBorrowPart",
        "offset": 0,
        "slot": "18",
        "type": "t_mapping(t_address,t_uint256)"
      },
      {
        "astId": 10205,
        "contract": "contracts/mixologist/MXLendingBorrowing.sol:MXLendingBorrowing",
        "label": "isApprovedForAll",
        "offset": 0,
        "slot": "19",
        "type": "t_mapping(t_address,t_mapping(t_address,t_bool))"
      },
      {
        "astId": 10208,
        "contract": "contracts/mixologist/MXLendingBorrowing.sol:MXLendingBorrowing",
        "label": "exchangeRate",
        "offset": 0,
        "slot": "20",
        "type": "t_uint256"
      },
      {
        "astId": 10211,
        "contract": "contracts/mixologist/MXLendingBorrowing.sol:MXLendingBorrowing",
        "label": "oracle",
        "offset": 0,
        "slot": "21",
        "type": "t_contract(IOracle)12535"
      },
      {
        "astId": 10213,
        "contract": "contracts/mixologist/MXLendingBorrowing.sol:MXLendingBorrowing",
        "label": "oracleData",
        "offset": 0,
        "slot": "22",
        "type": "t_bytes_storage"
      },
      {
        "astId": 10216,
        "contract": "contracts/mixologist/MXLendingBorrowing.sol:MXLendingBorrowing",
        "label": "collateralSwapPath",
        "offset": 0,
        "slot": "23",
        "type": "t_array(t_address)dyn_storage"
      },
      {
        "astId": 10219,
        "contract": "contracts/mixologist/MXLendingBorrowing.sol:MXLendingBorrowing",
        "label": "tapSwapPath",
        "offset": 0,
        "slot": "24",
        "type": "t_array(t_address)dyn_storage"
      },
      {
        "astId": 7617,
        "contract": "contracts/mixologist/MXLendingBorrowing.sol:MXLendingBorrowing",
        "label": "initialized",
        "offset": 0,
        "slot": "25",
        "type": "t_bool"
      }
    ],
    "types": {
      "t_address": {
        "encoding": "inplace",
        "label": "address",
        "numberOfBytes": "20"
      },
      "t_array(t_address)dyn_storage": {
        "base": "t_address",
        "encoding": "dynamic_array",
        "label": "address[]",
        "numberOfBytes": "32"
      },
      "t_bool": {
        "encoding": "inplace",
        "label": "bool",
        "numberOfBytes": "1"
      },
      "t_bytes_storage": {
        "encoding": "bytes",
        "label": "bytes",
        "numberOfBytes": "32"
      },
      "t_contract(BeachBar)3219": {
        "encoding": "inplace",
        "label": "contract BeachBar",
        "numberOfBytes": "20"
      },
      "t_contract(IERC20)1099": {
        "encoding": "inplace",
        "label": "contract IERC20",
        "numberOfBytes": "20"
      },
      "t_contract(ILiquidationQueue)4199": {
        "encoding": "inplace",
        "label": "contract ILiquidationQueue",
        "numberOfBytes": "20"
      },
      "t_contract(IOracle)12535": {
        "encoding": "inplace",
        "label": "contract IOracle",
        "numberOfBytes": "20"
      },
      "t_contract(YieldBox)18196": {
        "encoding": "inplace",
        "label": "contract YieldBox",
        "numberOfBytes": "20"
      },
      "t_mapping(t_address,t_bool)": {
        "encoding": "mapping",
        "key": "t_address",
        "label": "mapping(address => bool)",
        "numberOfBytes": "32",
        "value": "t_bool"
      },
      "t_mapping(t_address,t_mapping(t_address,t_bool))": {
        "encoding": "mapping",
        "key": "t_address",
        "label": "mapping(address => mapping(address => bool))",
        "numberOfBytes": "32",
        "value": "t_mapping(t_address,t_bool)"
      },
      "t_mapping(t_address,t_mapping(t_address,t_uint256))": {
        "encoding": "mapping",
        "key": "t_address",
        "label": "mapping(address => mapping(address => uint256))",
        "numberOfBytes": "32",
        "value": "t_mapping(t_address,t_uint256)"
      },
      "t_mapping(t_address,t_uint256)": {
        "encoding": "mapping",
        "key": "t_address",
        "label": "mapping(address => uint256)",
        "numberOfBytes": "32",
        "value": "t_uint256"
      },
      "t_struct(AccrueInfo)10159_storage": {
        "encoding": "inplace",
        "label": "struct MXStorage.AccrueInfo",
        "members": [
          {
            "astId": 10154,
            "contract": "contracts/mixologist/MXLendingBorrowing.sol:MXLendingBorrowing",
            "label": "interestPerSecond",
            "offset": 0,
            "slot": "0",
            "type": "t_uint64"
          },
          {
            "astId": 10156,
            "contract": "contracts/mixologist/MXLendingBorrowing.sol:MXLendingBorrowing",
            "label": "lastAccrued",
            "offset": 8,
            "slot": "0",
            "type": "t_uint64"
          },
          {
            "astId": 10158,
            "contract": "contracts/mixologist/MXLendingBorrowing.sol:MXLendingBorrowing",
            "label": "feesEarnedFraction",
            "offset": 16,
            "slot": "0",
            "type": "t_uint128"
          }
        ],
        "numberOfBytes": "32"
      },
      "t_struct(Rebase)1874_storage": {
        "encoding": "inplace",
        "label": "struct Rebase",
        "members": [
          {
            "astId": 1871,
            "contract": "contracts/mixologist/MXLendingBorrowing.sol:MXLendingBorrowing",
            "label": "elastic",
            "offset": 0,
            "slot": "0",
            "type": "t_uint128"
          },
          {
            "astId": 1873,
            "contract": "contracts/mixologist/MXLendingBorrowing.sol:MXLendingBorrowing",
            "label": "base",
            "offset": 16,
            "slot": "0",
            "type": "t_uint128"
          }
        ],
        "numberOfBytes": "32"
      },
      "t_uint128": {
        "encoding": "inplace",
        "label": "uint128",
        "numberOfBytes": "16"
      },
      "t_uint256": {
        "encoding": "inplace",
        "label": "uint256",
        "numberOfBytes": "32"
      },
      "t_uint64": {
        "encoding": "inplace",
        "label": "uint64",
        "numberOfBytes": "8"
      }
    }
  }
}