{
  "address": "0xd4F17F7E852e44fE7bfC3096D68ce2b7daA3E83B",
  "abi": [
    {
      "inputs": [],
      "stateMutability": "nonpayable",
      "type": "constructor"
    },
    {
      "anonymous": false,
      "inputs": [
        {
          "indexed": true,
          "internalType": "address",
          "name": "lzEndpoint",
          "type": "address"
        },
        {
          "indexed": true,
          "internalType": "address",
          "name": "cloneAddress",
          "type": "address"
        }
      ],
      "name": "LogDeploy",
      "type": "event"
    },
    {
      "inputs": [
        {
          "internalType": "address",
          "name": "_lzEndpoint",
          "type": "address"
        },
        {
          "internalType": "bytes32",
          "name": "_salt",
          "type": "bytes32"
        }
      ],
      "name": "deployWithCreate2",
      "outputs": [
        {
          "internalType": "address",
          "name": "cloneAddress",
          "type": "address"
        }
      ],
      "stateMutability": "payable",
      "type": "function"
    },
    {
      "inputs": [],
      "name": "owner",
      "outputs": [
        {
          "internalType": "address",
          "name": "",
          "type": "address"
        }
      ],
      "stateMutability": "view",
      "type": "function"
    },
    {
      "inputs": [
        {
          "internalType": "uint256",
          "name": "",
          "type": "uint256"
        }
      ],
      "name": "proxies",
      "outputs": [
        {
          "internalType": "address",
          "name": "",
          "type": "address"
        }
      ],
      "stateMutability": "view",
      "type": "function"
    },
    {
      "inputs": [],
      "name": "proxiesCount",
      "outputs": [
        {
          "internalType": "uint256",
          "name": "",
          "type": "uint256"
        }
      ],
      "stateMutability": "view",
      "type": "function"
    }
  ],
  "transactionHash": "0x3f662dba58111992fc564d66f1716afcab305811225672331f2f67597d0a6c6b",
  "args": [],
  "numDeployments": 1,
  "solcInputHash": "25460a75fcafe84168577a789a7d0811",
  "bytecode": "0x608060405234801561001057600080fd5b50600080546001600160a01b03191633179055612a4c806100326000396000f3fe60806040526004361061003f5760003560e01c80638da5cb5b14610044578063abd90f8514610081578063aec3c2ac146100a1578063dbb65cf7146100b4575b600080fd5b34801561005057600080fd5b50600054610064906001600160a01b031681565b6040516001600160a01b0390911681526020015b60405180910390f35b34801561008d57600080fd5b5061006461009c366004610272565b6100d2565b6100646100af36600461028b565b6100fc565b3480156100c057600080fd5b50600154604051908152602001610078565b600181815481106100e257600080fd5b6000918252602090912001546001600160a01b0316905081565b600080546001600160a01b03163314610175576040517f08c379a000000000000000000000000000000000000000000000000000000000815260206004820152601b60248201527f50726f78794465706c6f7965723a20756e617574686f72697a65640000000000604482015260640160405180910390fd5b600054604051839185916001600160a01b039091169061019490610265565b6001600160a01b039283168152911660208201526040018190604051809103906000f59050801580156101cb573d6000803e3d6000fd5b5060018054808201825560009182527fb10e2d527612073b26eecdfd717e6a320cf44b4afac2b0732d9fcbe2b7fa0cf60180547fffffffffffffffffffffffff0000000000000000000000000000000000000000166001600160a01b0384811691821790925560405193945092908616917f3e92124ed434899798905270ec2eec729cc0faa83fbb940ff6ab9c132369e43b91a392915050565b612753806102c483390190565b60006020828403121561028457600080fd5b5035919050565b6000806040838503121561029e57600080fd5b82356001600160a01b03811681146102b557600080fd5b94602093909301359350505056fe60a06040523480156200001157600080fd5b5060405162002753380380620027538339810160408190526200003491620000dd565b8180620000413362000070565b6001600160a01b031660805250620000598162000070565b50506004805461ff00191661010017905562000115565b600080546001600160a01b038381166001600160a01b0319831681178455604051919092169283917f8be0079c531659141344cd1fd0a4f28419497f9722a3daafe3b4186f6b6457e09190a35050565b80516001600160a01b0381168114620000d857600080fd5b919050565b60008060408385031215620000f157600080fd5b620000fc83620000c0565b91506200010c60208401620000c0565b90509250929050565b6080516125ea62000169600039600081816104bb015281816105ad015281816107a20152818161083d015281816109e001528181610cae01528181610ddf01528181611162015261191a01526125ea6000f3fe6080604052600436106101b65760003560e01c80637f377aed116100ec578063cbed8b9c1161008a578063eb8d72b711610064578063eb8d72b714610530578063ed629c5c14610550578063f2fde38b1461056a578063f5ecbdbc1461058a57600080fd5b8063cbed8b9c146104dd578063d1deba1f146104fd578063eab45d9c1461051057600080fd5b80639f980b80116100c65780639f980b801461045f578063a2ca14ec14610472578063af3fb21c14610494578063b353aaa7146104a957600080fd5b80637f377aed146103ed5780638da5cb5b1461040d5780639b57db5f1461043f57600080fd5b806342d65a8d1161015957806366ad5c8a1161013357806366ad5c8a1461036c5780636e9cbc861461038c578063715018a6146103ab5780637533d788146103c057600080fd5b806342d65a8d146102e857806344770515146103085780635b8c41e61461031d57600080fd5b80630a26d505116101955780630a26d5051461024857806310ddb13714610288578063330464a2146102a85780633d8b38f6146102c857600080fd5b80621d3567146101bb57806307810867146101dd57806307e0db1714610228575b600080fd5b3480156101c757600080fd5b506101db6101d6366004611b20565b6105aa565b005b3480156101e957600080fd5b506102156101f8366004611ba7565b600260209081526000928352604080842090915290825290205481565b6040519081526020015b60405180910390f35b34801561023457600080fd5b506101db610243366004611bd3565b610768565b34801561025457600080fd5b50610278610263366004611c07565b60056020526000908152604090205460ff1681565b604051901515815260200161021f565b34801561029457600080fd5b506101db6102a3366004611bd3565b610803565b3480156102b457600080fd5b506101db6102c3366004611c30565b610874565b3480156102d457600080fd5b506102786102e3366004611cb0565b6108db565b3480156102f457600080fd5b506101db610303366004611cb0565b6109a8565b34801561031457600080fd5b50610215600081565b34801561032957600080fd5b50610215610338366004611d05565b6003602090815260009384526040808520845180860184018051928152908401958401959095209452929052825290205481565b34801561037857600080fd5b506101db610387366004611b20565b610a50565b34801561039857600080fd5b5060045461027890610100900460ff1681565b3480156103b757600080fd5b506101db610ad7565b3480156103cc57600080fd5b506103e06103db366004611bd3565b610aeb565b60405161021f9190611dbd565b3480156103f957600080fd5b506101db610408366004611dd0565b610b85565b34801561041957600080fd5b506000546001600160a01b03165b6040516001600160a01b03909116815260200161021f565b34801561044b57600080fd5b506101db61045a366004611ded565b610bee565b6101db61046d366004611e46565b610caa565b34801561047e57600080fd5b5061021561048d366004611f47565b6022015190565b3480156104a057600080fd5b50610215600181565b3480156104b557600080fd5b506104277f000000000000000000000000000000000000000000000000000000000000000081565b3480156104e957600080fd5b506101db6104f8366004611f84565b610da7565b6101db61050b366004611b20565b610e55565b34801561051c57600080fd5b506101db61052b366004611dd0565b610fdf565b34801561053c57600080fd5b506101db61054b366004611cb0565b61102e565b34801561055c57600080fd5b506004546102789060ff1681565b34801561057657600080fd5b506101db610585366004611c07565b611088565b34801561059657600080fd5b506103e06105a5366004611ff7565b611118565b337f00000000000000000000000000000000000000000000000000000000000000006001600160a01b0316146106275760405162461bcd60e51b815260206004820152601e60248201527f4c7a4170703a20696e76616c696420656e64706f696e742063616c6c6572000060448201526064015b60405180910390fd5b61ffff84166000908152600160205260408120805461064590612046565b80601f016020809104026020016040519081016040528092919081815260200182805461067190612046565b80156106be5780601f10610693576101008083540402835291602001916106be565b820191906000526020600020905b8154815290600101906020018083116106a157829003601f168201915b50505050509050805184511480156106e3575080805190602001208480519060200120145b6107555760405162461bcd60e51b815260206004820152602660248201527f4c7a4170703a20696e76616c696420736f757263652073656e64696e6720636f60448201527f6e74726163740000000000000000000000000000000000000000000000000000606482015260840161061e565b610761858585856111f1565b5050505050565b6107706112fc565b6040517f07e0db1700000000000000000000000000000000000000000000000000000000815261ffff821660048201527f00000000000000000000000000000000000000000000000000000000000000006001600160a01b0316906307e0db17906024015b600060405180830381600087803b1580156107ef57600080fd5b505af1158015610761573d6000803e3d6000fd5b61080b6112fc565b6040517f10ddb13700000000000000000000000000000000000000000000000000000000815261ffff821660048201527f00000000000000000000000000000000000000000000000000000000000000006001600160a01b0316906310ddb137906024016107d5565b61087c6112fc565b6001600160a01b038216600081815260056020908152604091829020805460ff191685151590811790915591519182527f7daa137c42e4c7ad56847e1cf142a6faff4c627a74b53dce7661c6240e97affe910160405180910390a25050565b61ffff8316600090815260016020526040812080548291906108fc90612046565b80601f016020809104026020016040519081016040528092919081815260200182805461092890612046565b80156109755780601f1061094a57610100808354040283529160200191610975565b820191906000526020600020905b81548152906001019060200180831161095857829003601f168201915b50505050509050838360405161098c929190612081565b60405180910390208180519060200120149150505b9392505050565b6109b06112fc565b6040517f42d65a8d0000000000000000000000000000000000000000000000000000000081526001600160a01b037f000000000000000000000000000000000000000000000000000000000000000016906342d65a8d90610a19908690869086906004016120ba565b600060405180830381600087803b158015610a3357600080fd5b505af1158015610a47573d6000803e3d6000fd5b50505050505050565b333014610ac55760405162461bcd60e51b815260206004820152602660248201527f4e6f6e626c6f636b696e674c7a4170703a2063616c6c6572206d75737420626560448201527f204c7a4170700000000000000000000000000000000000000000000000000000606482015260840161061e565b610ad184848484611356565b50505050565b610adf6112fc565b610ae96000611543565b565b60016020526000908152604090208054610b0490612046565b80601f0160208091040260200160405190810160405280929190818152602001828054610b3090612046565b8015610b7d5780601f10610b5257610100808354040283529160200191610b7d565b820191906000526020600020905b815481529060010190602001808311610b6057829003601f168201915b505050505081565b610b8d6112fc565b6004546040805161010090920460ff161515825282151560208301527f93cc0321a0bc88c6711b0c3cbbd280643823d12208bc958e2deafbbebc8f4ee2910160405180910390a1600480549115156101000261ff0019909216919091179055565b610bf66112fc565b60008111610c465760405162461bcd60e51b815260206004820152601c60248201527f4c7a4170703a20696e76616c6964205f647374476173416d6f756e7400000000604482015260640161061e565b61ffff831660008181526002602090815260408083208684528252918290208490558151928352820184905281018290527f15ceea62cfa597b29eb911525932c57500d97da953485d24260680ae56903b68906060015b60405180910390a1505050565b60007f00000000000000000000000000000000000000000000000000000000000000006001600160a01b0316633408e4706040518163ffffffff1660e01b815260040160206040518083038186803b158015610d0557600080fd5b505afa158015610d19573d6000803e3d6000fd5b505050506040513d601f19601f82011682018060405250810190610d3d91906120d8565b61ffff1690508461ffff16811415610d975760405162461bcd60e51b815260206004820152601860248201527f4d5850726f78793a20436861696e206e6f742076616c69640000000000000000604482015260640161061e565b61076133868686336000886115ab565b610daf6112fc565b6040517fcbed8b9c0000000000000000000000000000000000000000000000000000000081526001600160a01b037f0000000000000000000000000000000000000000000000000000000000000000169063cbed8b9c90610e1c90889088908890889088906004016120f5565b600060405180830381600087803b158015610e3657600080fd5b505af1158015610e4a573d6000803e3d6000fd5b505050505050505050565b61ffff84166000908152600360205260408082209051610e7690869061212e565b908152604080516020928190038301902067ffffffffffffffff861660009081529252902054905080610f115760405162461bcd60e51b815260206004820152602360248201527f4e6f6e626c6f636b696e674c7a4170703a206e6f2073746f726564206d65737360448201527f6167650000000000000000000000000000000000000000000000000000000000606482015260840161061e565b815160208301208114610f8c5760405162461bcd60e51b815260206004820152602160248201527f4e6f6e626c6f636b696e674c7a4170703a20696e76616c6964207061796c6f6160448201527f6400000000000000000000000000000000000000000000000000000000000000606482015260840161061e565b61ffff85166000908152600360205260408082209051610fad90879061212e565b908152604080516020928190038301902067ffffffffffffffff87166000908152925290205561076185858585611356565b610fe76112fc565b6004805460ff19168215159081179091556040519081527f1584ad594a70cbe1e6515592e1272a987d922b097ead875069cebe8b40c004a49060200160405180910390a150565b6110366112fc565b61ffff83166000908152600160205260409020611054908383611995565b507ffa41487ad5d6728f0b19276fa1eddc16558578f5109fc39d2dc33c3230470dab838383604051610c9d939291906120ba565b6110906112fc565b6001600160a01b03811661110c5760405162461bcd60e51b815260206004820152602660248201527f4f776e61626c653a206e6577206f776e657220697320746865207a65726f206160448201527f6464726573730000000000000000000000000000000000000000000000000000606482015260840161061e565b61111581611543565b50565b6040517ff5ecbdbc00000000000000000000000000000000000000000000000000000000815261ffff808616600483015284166024820152306044820152606481018290526060907f00000000000000000000000000000000000000000000000000000000000000006001600160a01b03169063f5ecbdbc9060840160006040518083038186803b1580156111ac57600080fd5b505afa1580156111c0573d6000803e3d6000fd5b505050506040513d6000823e601f3d908101601f191682016040526111e8919081019061219a565b95945050505050565b6040517f66ad5c8a00000000000000000000000000000000000000000000000000000000815230906366ad5c8a906112339087908790879087906004016121cf565b600060405180830381600087803b15801561124d57600080fd5b505af192505050801561125e575060015b610ad1578080519060200120600360008661ffff1661ffff16815260200190815260200160002084604051611293919061212e565b90815260408051918290036020908101832067ffffffffffffffff87166000908152915220919091557fe6f254030bcb01ffd20558175c13fcaed6d1520be7becee4c961b65f79243b0d906112ef9086908690869086906121cf565b60405180910390a1610ad1565b6000546001600160a01b03163314610ae95760405162461bcd60e51b815260206004820181905260248201527f4f776e61626c653a2063616c6c6572206973206e6f7420746865206f776e6572604482015260640161061e565b60008060008380602001905181019061136f919061220e565b6014830151600454939650919450925090610100900460ff16156113e5576001600160a01b03811630146113e55760405162461bcd60e51b815260206004820152601260248201527f4d5850726f78793a206e6f742070726f78790000000000000000000000000000604482015260640161061e565b60148301516001600160a01b03811660009081526005602052604090205460ff166114525760405162461bcd60e51b815260206004820152601b60248201527f4d5850726f78793a20496e76616c6964204d69786f6c6f676973740000000000604482015260640161061e565b6040517faa7d96650000000000000000000000000000000000000000000000000000000081526001600160a01b0382169063aa7d96659061149a90869060019060040161235b565b600060405180830381600087803b1580156114b457600080fd5b505af11580156114c8573d6000803e3d6000fd5b505050506040513d6000823e601f3d908101601f191682016040526114f0919081019061241f565b5050806001600160a01b03168961ffff167fe56f9bcb2a90b3dc97f0814c287246469fc5c7050a6022ad21b2fe9058129c81886040516115309190611dbd565b60405180910390a3505050505050505050565b600080546001600160a01b038381167fffffffffffffffffffffffff0000000000000000000000000000000000000000831681178455604051919092169283917f8be0079c531659141344cd1fd0a4f28419497f9722a3daafe3b4186f6b6457e09190a35050565b6040516bffffffffffffffffffffffff193060601b16602082015260009060340160408051601f19818403018152908290526115ed91889088906020016124e4565b60408051601f1981840301815291905260045490915060ff161561161e576116198760018460006116ef565b611692565b8151156116925760405162461bcd60e51b8152602060048201526024808201527f4c7a4170703a205f61646170746572506172616d73206d75737420626520656d60448201527f7074792e00000000000000000000000000000000000000000000000000000000606482015260840161061e565b61169f87828686866117d4565b876001600160a01b03168761ffff167fd3b01b57b25c5a506ceef68a2e5ce63cf91fe09d5270a8bb49839a64d5b1b1f7836040516116dd9190611dbd565b60405180910390a35050505050505050565b60006116fc836022015190565b61ffff861660009081526002602090815260408083208884529091528120549192509061172a908490612527565b90506000811161177c5760405162461bcd60e51b815260206004820152601a60248201527f4c7a4170703a206d696e4761734c696d6974206e6f7420736574000000000000604482015260640161061e565b808210156117cc5760405162461bcd60e51b815260206004820152601b60248201527f4c7a4170703a20676173206c696d697420697320746f6f206c6f770000000000604482015260640161061e565b505050505050565b61ffff8516600090815260016020526040812080546117f290612046565b80601f016020809104026020016040519081016040528092919081815260200182805461181e90612046565b801561186b5780601f106118405761010080835404028352916020019161186b565b820191906000526020600020905b81548152906001019060200180831161184e57829003601f168201915b505050505090508051600014156118ea5760405162461bcd60e51b815260206004820152603060248201527f4c7a4170703a2064657374696e6174696f6e20636861696e206973206e6f742060448201527f61207472757374656420736f7572636500000000000000000000000000000000606482015260840161061e565b6040517fc58031000000000000000000000000000000000000000000000000000000000081526001600160a01b037f0000000000000000000000000000000000000000000000000000000000000000169063c580310090349061195b908a9086908b908b908b908b9060040161254d565b6000604051808303818588803b15801561197457600080fd5b505af1158015611988573d6000803e3d6000fd5b5050505050505050505050565b8280546119a190612046565b90600052602060002090601f0160209004810192826119c35760008555611a09565b82601f106119dc5782800160ff19823516178555611a09565b82800160010185558215611a09579182015b82811115611a095782358255916020019190600101906119ee565b50611a15929150611a19565b5090565b5b80821115611a155760008155600101611a1a565b61ffff8116811461111557600080fd5b634e487b7160e01b600052604160045260246000fd5b604051601f8201601f1916810167ffffffffffffffff81118282101715611a7d57611a7d611a3e565b604052919050565b600067ffffffffffffffff821115611a9f57611a9f611a3e565b50601f01601f191660200190565b600082601f830112611abe57600080fd5b8135611ad1611acc82611a85565b611a54565b818152846020838601011115611ae657600080fd5b816020850160208301376000918101602001919091529392505050565b803567ffffffffffffffff81168114611b1b57600080fd5b919050565b60008060008060808587031215611b3657600080fd5b8435611b4181611a2e565b9350602085013567ffffffffffffffff80821115611b5e57600080fd5b611b6a88838901611aad565b9450611b7860408801611b03565b93506060870135915080821115611b8e57600080fd5b50611b9b87828801611aad565b91505092959194509250565b60008060408385031215611bba57600080fd5b8235611bc581611a2e565b946020939093013593505050565b600060208284031215611be557600080fd5b81356109a181611a2e565b80356001600160a01b0381168114611b1b57600080fd5b600060208284031215611c1957600080fd5b6109a182611bf0565b801515811461111557600080fd5b60008060408385031215611c4357600080fd5b611c4c83611bf0565b91506020830135611c5c81611c22565b809150509250929050565b60008083601f840112611c7957600080fd5b50813567ffffffffffffffff811115611c9157600080fd5b602083019150836020828501011115611ca957600080fd5b9250929050565b600080600060408486031215611cc557600080fd5b8335611cd081611a2e565b9250602084013567ffffffffffffffff811115611cec57600080fd5b611cf886828701611c67565b9497909650939450505050565b600080600060608486031215611d1a57600080fd5b8335611d2581611a2e565b9250602084013567ffffffffffffffff811115611d4157600080fd5b611d4d86828701611aad565b925050611d5c60408501611b03565b90509250925092565b60005b83811015611d80578181015183820152602001611d68565b83811115610ad15750506000910152565b60008151808452611da9816020860160208601611d65565b601f01601f19169290920160200192915050565b6020815260006109a16020830184611d91565b600060208284031215611de257600080fd5b81356109a181611c22565b600080600060608486031215611e0257600080fd5b8335611e0d81611a2e565b95602085013595506040909401359392505050565b600067ffffffffffffffff821115611e3c57611e3c611a3e565b5060051b60200190565b60008060008060808587031215611e5c57600080fd5b8435611e6781611a2e565b935060208581013567ffffffffffffffff80821115611e8557600080fd5b611e9189838a01611aad565b95506040880135915080821115611ea757600080fd5b818801915088601f830112611ebb57600080fd5b8135611ec9611acc82611e22565b81815260059190911b8301840190848101908b831115611ee857600080fd5b8585015b83811015611f2057803585811115611f045760008081fd5b611f128e89838a0101611aad565b845250918601918601611eec565b50965050506060880135925080831115611f3957600080fd5b5050611b9b87828801611aad565b600060208284031215611f5957600080fd5b813567ffffffffffffffff811115611f7057600080fd5b611f7c84828501611aad565b949350505050565b600080600080600060808688031215611f9c57600080fd5b8535611fa781611a2e565b94506020860135611fb781611a2e565b935060408601359250606086013567ffffffffffffffff811115611fda57600080fd5b611fe688828901611c67565b969995985093965092949392505050565b6000806000806080858703121561200d57600080fd5b843561201881611a2e565b9350602085013561202881611a2e565b925061203660408601611bf0565b9396929550929360600135925050565b600181811c9082168061205a57607f821691505b6020821081141561207b57634e487b7160e01b600052602260045260246000fd5b50919050565b8183823760009101908152919050565b81835281816020850137506000828201602090810191909152601f909101601f19169091010190565b61ffff841681526040602082015260006111e8604083018486612091565b6000602082840312156120ea57600080fd5b81516109a181611a2e565b600061ffff808816835280871660208401525084604083015260806060830152612123608083018486612091565b979650505050505050565b60008251612140818460208701611d65565b9190910192915050565b6000612158611acc84611a85565b905082815283838301111561216c57600080fd5b6109a1836020830184611d65565b600082601f83011261218b57600080fd5b6109a18383516020850161214a565b6000602082840312156121ac57600080fd5b815167ffffffffffffffff8111156121c357600080fd5b611f7c8482850161217a565b61ffff851681526080602082015260006121ec6080830186611d91565b67ffffffffffffffff8516604084015282810360608401526121238185611d91565b60008060006060848603121561222357600080fd5b835167ffffffffffffffff8082111561223b57600080fd5b6122478783880161217a565b945060209150818601518181111561225e57600080fd5b61226a8882890161217a565b94505060408601518181111561227f57600080fd5b8601601f8101881361229057600080fd5b805161229e611acc82611e22565b81815260059190911b8201840190848101908a8311156122bd57600080fd5b8584015b838110156122f5578051868111156122d95760008081fd5b6122e78d898389010161217a565b8452509186019186016122c1565b508096505050505050509250925092565b600081518084526020808501808196508360051b8101915082860160005b8581101561234e57828403895261233c848351611d91565b98850198935090840190600101612324565b5091979650505050505050565b60408152600061236e6040830185612306565b905082151560208301529392505050565b600082601f83011261239057600080fd5b815160206123a0611acc83611e22565b82815260059290921b840181019181810190868411156123bf57600080fd5b8286015b8481101561241457805167ffffffffffffffff8111156123e35760008081fd5b8701603f810189136123f55760008081fd5b61240689868301516040840161214a565b8452509183019183016123c3565b509695505050505050565b6000806040838503121561243257600080fd5b825167ffffffffffffffff8082111561244a57600080fd5b818501915085601f83011261245e57600080fd5b8151602061246e611acc83611e22565b82815260059290921b8401810191818101908984111561248d57600080fd5b948201945b838610156124b45785516124a581611c22565b82529482019490820190612492565b918801519196509093505050808211156124cd57600080fd5b506124da8582860161237f565b9150509250929050565b6060815260006124f76060830186611d91565b82810360208401526125098186611d91565b9050828103604084015261251d8185612306565b9695505050505050565b6000821982111561254857634e487b7160e01b600052601160045260246000fd5b500190565b61ffff8716815260c06020820152600061256a60c0830188611d91565b828103604084015261257c8188611d91565b6001600160a01b0387811660608601528616608085015283810360a085015290506125a78185611d91565b999850505050505050505056fea2646970667358221220c5bcda7a263876b3b7f3d7a0e6da1c86a34394ec7cbfa0755c09891806f1ff0b64736f6c63430008090033a26469706673582212200e977114b32671148efdade9e38b54f7e797dca4e4a0864a9be96283d4faa49464736f6c63430008090033",
  "devdoc": {
    "kind": "dev",
    "methods": {
      "deployWithCreate2(address,bytes32)": {
        "params": {
          "_lzEndpoint": "the LayerZero endpoint MXProxy will be associated with",
          "_salt": "CREATE2 salt used to compute the new address"
        }
      }
    },
    "version": 1
  },
  "userdoc": {
    "kind": "user",
    "methods": {
      "deployWithCreate2(address,bytes32)": {
        "notice": "creates a new MXProxy contract using CREATE2 opcode"
      },
      "proxiesCount()": {
        "notice": "returns proxies count"
      }
    },
    "version": 1
  },
  "storageLayout": {
    "storage": [
      {
        "astId": 11852,
        "contract": "contracts/mixologist/ProxyDeployer.sol:ProxyDeployer",
        "label": "owner",
        "offset": 0,
        "slot": "0",
        "type": "t_address"
      },
      {
        "astId": 11855,
        "contract": "contracts/mixologist/ProxyDeployer.sol:ProxyDeployer",
        "label": "proxies",
        "offset": 0,
        "slot": "1",
        "type": "t_array(t_address)dyn_storage"
      }
    ],
    "types": {
      "t_address": {
        "encoding": "inplace",
        "label": "address",
        "numberOfBytes": "20"
      },
      "t_array(t_address)dyn_storage": {
        "base": "t_address",
        "encoding": "dynamic_array",
        "label": "address[]",
        "numberOfBytes": "32"
      }
    }
  }
}