{
  "address": "0xa769093763745a76C7EC8E7B5E7D1FDdc11Fc8ce",
  "abi": [
    {
      "inputs": [],
      "stateMutability": "nonpayable",
      "type": "constructor"
    },
    {
      "anonymous": false,
      "inputs": [
        {
          "indexed": true,
          "internalType": "address",
          "name": "lzEndpoint",
          "type": "address"
        },
        {
          "indexed": true,
          "internalType": "address",
          "name": "cloneAddress",
          "type": "address"
        }
      ],
      "name": "LogDeploy",
      "type": "event"
    },
    {
      "inputs": [
        {
          "internalType": "address",
          "name": "_lzEndpoint",
          "type": "address"
        },
        {
          "internalType": "bytes32",
          "name": "_salt",
          "type": "bytes32"
        }
      ],
      "name": "deployWithCreate2",
      "outputs": [
        {
          "internalType": "address",
          "name": "cloneAddress",
          "type": "address"
        }
      ],
      "stateMutability": "payable",
      "type": "function"
    },
    {
      "inputs": [],
      "name": "owner",
      "outputs": [
        {
          "internalType": "address",
          "name": "",
          "type": "address"
        }
      ],
      "stateMutability": "view",
      "type": "function"
    },
    {
      "inputs": [
        {
          "internalType": "uint256",
          "name": "",
          "type": "uint256"
        }
      ],
      "name": "proxies",
      "outputs": [
        {
          "internalType": "address",
          "name": "",
          "type": "address"
        }
      ],
      "stateMutability": "view",
      "type": "function"
    },
    {
      "inputs": [],
      "name": "proxiesCount",
      "outputs": [
        {
          "internalType": "uint256",
          "name": "",
          "type": "uint256"
        }
      ],
      "stateMutability": "view",
      "type": "function"
    }
  ],
  "transactionHash": "0xcd161e719b526958d3daaf0ad8df999d77634466db85185fac0064368fc90d72",
  "args": [],
  "numDeployments": 1,
  "solcInputHash": "2dd7811012a9b7226eed28d6d4ecf4a5",
  "bytecode": "0x608060405234801561001057600080fd5b50600080546001600160a01b03191633179055612a8e806100326000396000f3fe60806040526004361061003f5760003560e01c80638da5cb5b14610044578063abd90f8514610081578063aec3c2ac146100a1578063dbb65cf7146100b4575b600080fd5b34801561005057600080fd5b50600054610064906001600160a01b031681565b6040516001600160a01b0390911681526020015b60405180910390f35b34801561008d57600080fd5b5061006461009c366004610272565b6100d2565b6100646100af36600461028b565b6100fc565b3480156100c057600080fd5b50600154604051908152602001610078565b600181815481106100e257600080fd5b6000918252602090912001546001600160a01b0316905081565b600080546001600160a01b03163314610175576040517f08c379a000000000000000000000000000000000000000000000000000000000815260206004820152601b60248201527f50726f78794465706c6f7965723a20756e617574686f72697a65640000000000604482015260640160405180910390fd5b600054604051839185916001600160a01b039091169061019490610265565b6001600160a01b039283168152911660208201526040018190604051809103906000f59050801580156101cb573d6000803e3d6000fd5b5060018054808201825560009182527fb10e2d527612073b26eecdfd717e6a320cf44b4afac2b0732d9fcbe2b7fa0cf60180547fffffffffffffffffffffffff0000000000000000000000000000000000000000166001600160a01b0384811691821790925560405193945092908616917f3e92124ed434899798905270ec2eec729cc0faa83fbb940ff6ab9c132369e43b91a392915050565b612795806102c483390190565b60006020828403121561028457600080fd5b5035919050565b6000806040838503121561029e57600080fd5b82356001600160a01b03811681146102b557600080fd5b94602093909301359350505056fe60a06040523480156200001157600080fd5b5060405162002795380380620027958339810160408190526200003491620000dd565b8180620000413362000070565b6001600160a01b031660805250620000598162000070565b50506004805461ff00191661010017905562000115565b600080546001600160a01b038381166001600160a01b0319831681178455604051919092169283917f8be0079c531659141344cd1fd0a4f28419497f9722a3daafe3b4186f6b6457e09190a35050565b80516001600160a01b0381168114620000d857600080fd5b919050565b60008060408385031215620000f157600080fd5b620000fc83620000c0565b91506200010c60208401620000c0565b90509250929050565b60805161262c620001696000396000818161048b015281816105ad015281816107a2015281816108a4015281816109e001528181610cae01528181610dcf0152818161115201526118eb015261262c6000f3fe6080604052600436106101b65760003560e01c80638da5cb5b116100ec578063cbed8b9c1161008a578063eb8d72b711610064578063eb8d72b714610530578063ed629c5c14610550578063f2fde38b1461056a578063f5ecbdbc1461058a57600080fd5b8063cbed8b9c146104dd578063d1deba1f146104fd578063eab45d9c1461051057600080fd5b8063a2ca14ec116100c6578063a2ca14ec14610442578063af3fb21c14610464578063b353aaa714610479578063c0d4e324146104ad57600080fd5b80638da5cb5b146103dd5780639b57db5f1461040f5780639f980b801461042f57600080fd5b806344770515116101595780636e9cbc86116101335780636e9cbc861461035c578063715018a61461037b5780637533d788146103905780637f377aed146103bd57600080fd5b806344770515146102d85780635b8c41e6146102ed57806366ad5c8a1461033c57600080fd5b80630978478211610195578063097847821461024857806310ddb137146102685780633d8b38f61461028857806342d65a8d146102b857600080fd5b80621d3567146101bb57806307810867146101dd57806307e0db1714610228575b600080fd5b3480156101c757600080fd5b506101db6101d6366004611a58565b6105aa565b005b3480156101e957600080fd5b506102156101f8366004611adf565b600260209081526000928352604080842090915290825290205481565b6040519081526020015b60405180910390f35b34801561023457600080fd5b506101db610243366004611b0b565b610768565b34801561025457600080fd5b506101db610263366004611b4d565b610803565b34801561027457600080fd5b506101db610283366004611b0b565b61086a565b34801561029457600080fd5b506102a86102a3366004611bcd565b6108db565b604051901515815260200161021f565b3480156102c457600080fd5b506101db6102d3366004611bcd565b6109a8565b3480156102e457600080fd5b50610215600081565b3480156102f957600080fd5b50610215610308366004611c22565b6003602090815260009384526040808520845180860184018051928152908401958401959095209452929052825290205481565b34801561034857600080fd5b506101db610357366004611a58565b610a50565b34801561036857600080fd5b506004546102a890610100900460ff1681565b34801561038757600080fd5b506101db610ad7565b34801561039c57600080fd5b506103b06103ab366004611b0b565b610aeb565b60405161021f9190611cda565b3480156103c957600080fd5b506101db6103d8366004611ced565b610b85565b3480156103e957600080fd5b506000546001600160a01b03165b6040516001600160a01b03909116815260200161021f565b34801561041b57600080fd5b506101db61042a366004611d0a565b610bee565b6101db61043d366004611d63565b610caa565b34801561044e57600080fd5b5061021561045d366004611e64565b6022015190565b34801561047057600080fd5b50610215600181565b34801561048557600080fd5b506103f77f000000000000000000000000000000000000000000000000000000000000000081565b3480156104b957600080fd5b506102a86104c8366004611ea1565b60056020526000908152604090205460ff1681565b3480156104e957600080fd5b506101db6104f8366004611ebc565b610d97565b6101db61050b366004611a58565b610e45565b34801561051c57600080fd5b506101db61052b366004611ced565b610fcf565b34801561053c57600080fd5b506101db61054b366004611bcd565b61101e565b34801561055c57600080fd5b506004546102a89060ff1681565b34801561057657600080fd5b506101db610585366004611ea1565b611078565b34801561059657600080fd5b506103b06105a5366004611f2f565b611108565b337f00000000000000000000000000000000000000000000000000000000000000006001600160a01b0316146106275760405162461bcd60e51b815260206004820152601e60248201527f4c7a4170703a20696e76616c696420656e64706f696e742063616c6c6572000060448201526064015b60405180910390fd5b61ffff84166000908152600160205260408120805461064590611f7e565b80601f016020809104026020016040519081016040528092919081815260200182805461067190611f7e565b80156106be5780601f10610693576101008083540402835291602001916106be565b820191906000526020600020905b8154815290600101906020018083116106a157829003601f168201915b50505050509050805184511480156106e3575080805190602001208480519060200120145b6107555760405162461bcd60e51b815260206004820152602660248201527f4c7a4170703a20696e76616c696420736f757263652073656e64696e6720636f60448201527f6e74726163740000000000000000000000000000000000000000000000000000606482015260840161061e565b610761858585856111d2565b5050505050565b6107706112dd565b6040517f07e0db1700000000000000000000000000000000000000000000000000000000815261ffff821660048201527f00000000000000000000000000000000000000000000000000000000000000006001600160a01b0316906307e0db17906024015b600060405180830381600087803b1580156107ef57600080fd5b505af1158015610761573d6000803e3d6000fd5b61080b6112dd565b6001600160a01b038216600081815260056020908152604091829020805460ff191685151590811790915591519182527fd27d7d1acad2036ae6abd569d0fe50a81b4675a1d12a9b181018760f49476c24910160405180910390a25050565b6108726112dd565b6040517f10ddb13700000000000000000000000000000000000000000000000000000000815261ffff821660048201527f00000000000000000000000000000000000000000000000000000000000000006001600160a01b0316906310ddb137906024016107d5565b61ffff8316600090815260016020526040812080548291906108fc90611f7e565b80601f016020809104026020016040519081016040528092919081815260200182805461092890611f7e565b80156109755780601f1061094a57610100808354040283529160200191610975565b820191906000526020600020905b81548152906001019060200180831161095857829003601f168201915b50505050509050838360405161098c929190611fb8565b60405180910390208180519060200120149150505b9392505050565b6109b06112dd565b6040517f42d65a8d0000000000000000000000000000000000000000000000000000000081526001600160a01b037f000000000000000000000000000000000000000000000000000000000000000016906342d65a8d90610a1990869086908690600401611ff1565b600060405180830381600087803b158015610a3357600080fd5b505af1158015610a47573d6000803e3d6000fd5b50505050505050565b333014610ac55760405162461bcd60e51b815260206004820152602660248201527f4e6f6e626c6f636b696e674c7a4170703a2063616c6c6572206d75737420626560448201527f204c7a4170700000000000000000000000000000000000000000000000000000606482015260840161061e565b610ad184848484611337565b50505050565b610adf6112dd565b610ae96000611515565b565b60016020526000908152604090208054610b0490611f7e565b80601f0160208091040260200160405190810160405280929190818152602001828054610b3090611f7e565b8015610b7d5780601f10610b5257610100808354040283529160200191610b7d565b820191906000526020600020905b815481529060010190602001808311610b6057829003601f168201915b505050505081565b610b8d6112dd565b6004546040805161010090920460ff161515825282151560208301527f93cc0321a0bc88c6711b0c3cbbd280643823d12208bc958e2deafbbebc8f4ee2910160405180910390a1600480549115156101000261ff0019909216919091179055565b610bf66112dd565b60008111610c465760405162461bcd60e51b815260206004820152601c60248201527f4c7a4170703a20696e76616c6964205f647374476173416d6f756e7400000000604482015260640161061e565b61ffff831660008181526002602090815260408083208684528252918290208490558151928352820184905281018290527f15ceea62cfa597b29eb911525932c57500d97da953485d24260680ae56903b68906060015b60405180910390a1505050565b60007f00000000000000000000000000000000000000000000000000000000000000006001600160a01b0316633408e4706040518163ffffffff1660e01b8152600401602060405180830381865afa158015610d0a573d6000803e3d6000fd5b505050506040513d601f19601f82011682018060405250810190610d2e919061200f565b61ffff1690508461ffff168103610d875760405162461bcd60e51b815260206004820152601960248201527f53474c50726f78793a20436861696e206e6f742076616c696400000000000000604482015260640161061e565b610761338686863360008861157d565b610d9f6112dd565b6040517fcbed8b9c0000000000000000000000000000000000000000000000000000000081526001600160a01b037f0000000000000000000000000000000000000000000000000000000000000000169063cbed8b9c90610e0c908890889088908890889060040161202c565b600060405180830381600087803b158015610e2657600080fd5b505af1158015610e3a573d6000803e3d6000fd5b505050505050505050565b61ffff84166000908152600360205260408082209051610e66908690612065565b908152604080516020928190038301902067ffffffffffffffff861660009081529252902054905080610f015760405162461bcd60e51b815260206004820152602360248201527f4e6f6e626c6f636b696e674c7a4170703a206e6f2073746f726564206d65737360448201527f6167650000000000000000000000000000000000000000000000000000000000606482015260840161061e565b815160208301208114610f7c5760405162461bcd60e51b815260206004820152602160248201527f4e6f6e626c6f636b696e674c7a4170703a20696e76616c6964207061796c6f6160448201527f6400000000000000000000000000000000000000000000000000000000000000606482015260840161061e565b61ffff85166000908152600360205260408082209051610f9d908790612065565b908152604080516020928190038301902067ffffffffffffffff87166000908152925290205561076185858585611337565b610fd76112dd565b6004805460ff19168215159081179091556040519081527f1584ad594a70cbe1e6515592e1272a987d922b097ead875069cebe8b40c004a49060200160405180910390a150565b6110266112dd565b61ffff831660009081526001602052604090206110448284836120cc565b507ffa41487ad5d6728f0b19276fa1eddc16558578f5109fc39d2dc33c3230470dab838383604051610c9d93929190611ff1565b6110806112dd565b6001600160a01b0381166110fc5760405162461bcd60e51b815260206004820152602660248201527f4f776e61626c653a206e6577206f776e657220697320746865207a65726f206160448201527f6464726573730000000000000000000000000000000000000000000000000000606482015260840161061e565b61110581611515565b50565b6040517ff5ecbdbc00000000000000000000000000000000000000000000000000000000815261ffff808616600483015284166024820152306044820152606481018290526060907f00000000000000000000000000000000000000000000000000000000000000006001600160a01b03169063f5ecbdbc90608401600060405180830381865afa1580156111a1573d6000803e3d6000fd5b505050506040513d6000823e601f3d908101601f191682016040526111c991908101906121dc565b95945050505050565b6040517f66ad5c8a00000000000000000000000000000000000000000000000000000000815230906366ad5c8a90611214908790879087908790600401612211565b600060405180830381600087803b15801561122e57600080fd5b505af192505050801561123f575060015b610ad1578080519060200120600360008661ffff1661ffff168152602001908152602001600020846040516112749190612065565b90815260408051918290036020908101832067ffffffffffffffff87166000908152915220919091557fe6f254030bcb01ffd20558175c13fcaed6d1520be7becee4c961b65f79243b0d906112d0908690869086908690612211565b60405180910390a1610ad1565b6000546001600160a01b03163314610ae95760405162461bcd60e51b815260206004820181905260248201527f4f776e61626c653a2063616c6c6572206973206e6f7420746865206f776e6572604482015260640161061e565b6000806000838060200190518101906113509190612250565b6014830151600454939650919450925090610100900460ff16156113c6576001600160a01b03811630146113c65760405162461bcd60e51b815260206004820152601360248201527f53474c50726f78793a206e6f742070726f787900000000000000000000000000604482015260640161061e565b60148301516001600160a01b03811660009081526005602052604090205460ff166114335760405162461bcd60e51b815260206004820152601d60248201527f53474c50726f78793a20496e76616c69642053696e67756c6172697479000000604482015260640161061e565b6040517faa7d96650000000000000000000000000000000000000000000000000000000081526001600160a01b0382169063aa7d96659061147b90869060019060040161239d565b6000604051808303816000875af115801561149a573d6000803e3d6000fd5b505050506040513d6000823e601f3d908101601f191682016040526114c29190810190612461565b5050806001600160a01b03168961ffff167fe56f9bcb2a90b3dc97f0814c287246469fc5c7050a6022ad21b2fe9058129c81886040516115029190611cda565b60405180910390a3505050505050505050565b600080546001600160a01b038381167fffffffffffffffffffffffff0000000000000000000000000000000000000000831681178455604051919092169283917f8be0079c531659141344cd1fd0a4f28419497f9722a3daafe3b4186f6b6457e09190a35050565b6040516bffffffffffffffffffffffff193060601b16602082015260009060340160408051601f19818403018152908290526115bf9188908890602001612526565b60408051601f1981840301815291905260045490915060ff16156115f0576115eb8760018460006116c1565b611664565b8151156116645760405162461bcd60e51b8152602060048201526024808201527f4c7a4170703a205f61646170746572506172616d73206d75737420626520656d60448201527f7074792e00000000000000000000000000000000000000000000000000000000606482015260840161061e565b61167187828686866117a6565b876001600160a01b03168761ffff167fd3b01b57b25c5a506ceef68a2e5ce63cf91fe09d5270a8bb49839a64d5b1b1f7836040516116af9190611cda565b60405180910390a35050505050505050565b60006116ce836022015190565b61ffff86166000908152600260209081526040808320888452909152812054919250906116fc908490612569565b90506000811161174e5760405162461bcd60e51b815260206004820152601a60248201527f4c7a4170703a206d696e4761734c696d6974206e6f7420736574000000000000604482015260640161061e565b8082101561179e5760405162461bcd60e51b815260206004820152601b60248201527f4c7a4170703a20676173206c696d697420697320746f6f206c6f770000000000604482015260640161061e565b505050505050565b61ffff8516600090815260016020526040812080546117c490611f7e565b80601f01602080910402602001604051908101604052809291908181526020018280546117f090611f7e565b801561183d5780601f106118125761010080835404028352916020019161183d565b820191906000526020600020905b81548152906001019060200180831161182057829003601f168201915b5050505050905080516000036118bb5760405162461bcd60e51b815260206004820152603060248201527f4c7a4170703a2064657374696e6174696f6e20636861696e206973206e6f742060448201527f61207472757374656420736f7572636500000000000000000000000000000000606482015260840161061e565b6040517fc58031000000000000000000000000000000000000000000000000000000000081526001600160a01b037f0000000000000000000000000000000000000000000000000000000000000000169063c580310090349061192c908a9086908b908b908b908b9060040161258f565b6000604051808303818588803b15801561194557600080fd5b505af1158015611959573d6000803e3d6000fd5b5050505050505050505050565b61ffff8116811461110557600080fd5b634e487b7160e01b600052604160045260246000fd5b604051601f8201601f1916810167ffffffffffffffff811182821017156119b5576119b5611976565b604052919050565b600067ffffffffffffffff8211156119d7576119d7611976565b50601f01601f191660200190565b600082601f8301126119f657600080fd5b8135611a09611a04826119bd565b61198c565b818152846020838601011115611a1e57600080fd5b816020850160208301376000918101602001919091529392505050565b803567ffffffffffffffff81168114611a5357600080fd5b919050565b60008060008060808587031215611a6e57600080fd5b8435611a7981611966565b9350602085013567ffffffffffffffff80821115611a9657600080fd5b611aa2888389016119e5565b9450611ab060408801611a3b565b93506060870135915080821115611ac657600080fd5b50611ad3878288016119e5565b91505092959194509250565b60008060408385031215611af257600080fd5b8235611afd81611966565b946020939093013593505050565b600060208284031215611b1d57600080fd5b81356109a181611966565b80356001600160a01b0381168114611a5357600080fd5b801515811461110557600080fd5b60008060408385031215611b6057600080fd5b611b6983611b28565b91506020830135611b7981611b3f565b809150509250929050565b60008083601f840112611b9657600080fd5b50813567ffffffffffffffff811115611bae57600080fd5b602083019150836020828501011115611bc657600080fd5b9250929050565b600080600060408486031215611be257600080fd5b8335611bed81611966565b9250602084013567ffffffffffffffff811115611c0957600080fd5b611c1586828701611b84565b9497909650939450505050565b600080600060608486031215611c3757600080fd5b8335611c4281611966565b9250602084013567ffffffffffffffff811115611c5e57600080fd5b611c6a868287016119e5565b925050611c7960408501611a3b565b90509250925092565b60005b83811015611c9d578181015183820152602001611c85565b83811115610ad15750506000910152565b60008151808452611cc6816020860160208601611c82565b601f01601f19169290920160200192915050565b6020815260006109a16020830184611cae565b600060208284031215611cff57600080fd5b81356109a181611b3f565b600080600060608486031215611d1f57600080fd5b8335611d2a81611966565b95602085013595506040909401359392505050565b600067ffffffffffffffff821115611d5957611d59611976565b5060051b60200190565b60008060008060808587031215611d7957600080fd5b8435611d8481611966565b935060208581013567ffffffffffffffff80821115611da257600080fd5b611dae89838a016119e5565b95506040880135915080821115611dc457600080fd5b818801915088601f830112611dd857600080fd5b8135611de6611a0482611d3f565b81815260059190911b8301840190848101908b831115611e0557600080fd5b8585015b83811015611e3d57803585811115611e215760008081fd5b611e2f8e89838a01016119e5565b845250918601918601611e09565b50965050506060880135925080831115611e5657600080fd5b5050611ad3878288016119e5565b600060208284031215611e7657600080fd5b813567ffffffffffffffff811115611e8d57600080fd5b611e99848285016119e5565b949350505050565b600060208284031215611eb357600080fd5b6109a182611b28565b600080600080600060808688031215611ed457600080fd5b8535611edf81611966565b94506020860135611eef81611966565b935060408601359250606086013567ffffffffffffffff811115611f1257600080fd5b611f1e88828901611b84565b969995985093965092949392505050565b60008060008060808587031215611f4557600080fd5b8435611f5081611966565b93506020850135611f6081611966565b9250611f6e60408601611b28565b9396929550929360600135925050565b600181811c90821680611f9257607f821691505b602082108103611fb257634e487b7160e01b600052602260045260246000fd5b50919050565b8183823760009101908152919050565b81835281816020850137506000828201602090810191909152601f909101601f19169091010190565b61ffff841681526040602082015260006111c9604083018486611fc8565b60006020828403121561202157600080fd5b81516109a181611966565b600061ffff80881683528087166020840152508460408301526080606083015261205a608083018486611fc8565b979650505050505050565b60008251612077818460208701611c82565b9190910192915050565b601f8211156120c757600081815260208120601f850160051c810160208610156120a85750805b601f850160051c820191505b8181101561179e578281556001016120b4565b505050565b67ffffffffffffffff8311156120e4576120e4611976565b6120f8836120f28354611f7e565b83612081565b6000601f84116001811461212c57600085156121145750838201355b600019600387901b1c1916600186901b178355610761565b600083815260209020601f19861690835b8281101561215d578685013582556020948501946001909201910161213d565b508682101561217a5760001960f88860031b161c19848701351681555b505060018560011b0183555050505050565b600061219a611a04846119bd565b90508281528383830111156121ae57600080fd5b6109a1836020830184611c82565b600082601f8301126121cd57600080fd5b6109a18383516020850161218c565b6000602082840312156121ee57600080fd5b815167ffffffffffffffff81111561220557600080fd5b611e99848285016121bc565b61ffff8516815260806020820152600061222e6080830186611cae565b67ffffffffffffffff85166040840152828103606084015261205a8185611cae565b60008060006060848603121561226557600080fd5b835167ffffffffffffffff8082111561227d57600080fd5b612289878388016121bc565b94506020915081860151818111156122a057600080fd5b6122ac888289016121bc565b9450506040860151818111156122c157600080fd5b8601601f810188136122d257600080fd5b80516122e0611a0482611d3f565b81815260059190911b8201840190848101908a8311156122ff57600080fd5b8584015b838110156123375780518681111561231b5760008081fd5b6123298d89838901016121bc565b845250918601918601612303565b508096505050505050509250925092565b600081518084526020808501808196508360051b8101915082860160005b8581101561239057828403895261237e848351611cae565b98850198935090840190600101612366565b5091979650505050505050565b6040815260006123b06040830185612348565b905082151560208301529392505050565b600082601f8301126123d257600080fd5b815160206123e2611a0483611d3f565b82815260059290921b8401810191818101908684111561240157600080fd5b8286015b8481101561245657805167ffffffffffffffff8111156124255760008081fd5b8701603f810189136124375760008081fd5b61244889868301516040840161218c565b845250918301918301612405565b509695505050505050565b6000806040838503121561247457600080fd5b825167ffffffffffffffff8082111561248c57600080fd5b818501915085601f8301126124a057600080fd5b815160206124b0611a0483611d3f565b82815260059290921b840181019181810190898411156124cf57600080fd5b948201945b838610156124f65785516124e781611b3f565b825294820194908201906124d4565b9188015191965090935050508082111561250f57600080fd5b5061251c858286016123c1565b9150509250929050565b6060815260006125396060830186611cae565b828103602084015261254b8186611cae565b9050828103604084015261255f8185612348565b9695505050505050565b6000821982111561258a57634e487b7160e01b600052601160045260246000fd5b500190565b61ffff8716815260c0602082015260006125ac60c0830188611cae565b82810360408401526125be8188611cae565b6001600160a01b0387811660608601528616608085015283810360a085015290506125e98185611cae565b999850505050505050505056fea2646970667358221220d0c3b223dd8dc016e562de352b77bf7666178b4cfc07c0c33d9178a7e95f285764736f6c634300080f0033a264697066735822122023d17d18fcba2c62548e99e2b4b7fe70edd7b41c97a4a3a0ef1b15dd871670d264736f6c634300080f0033",
  "devdoc": {
    "kind": "dev",
    "methods": {
      "deployWithCreate2(address,bytes32)": {
        "params": {
          "_lzEndpoint": "the LayerZero endpoint SGLProxy will be associated with",
          "_salt": "CREATE2 salt used to compute the new address"
        }
      }
    },
    "title": "SGLProxy factory",
    "version": 1
  },
  "userdoc": {
    "kind": "user",
    "methods": {
      "constructor": {
        "notice": "creates a new ProxyDeployer contract"
      },
      "deployWithCreate2(address,bytes32)": {
        "notice": "creates a new SGLProxy contract using CREATE2 opcode"
      },
      "proxiesCount()": {
        "notice": "returns proxies count"
      }
    },
    "version": 1
  },
  "storageLayout": {
    "storage": [
      {
        "astId": 5834,
        "contract": "contracts/singularity/ProxyDeployer.sol:ProxyDeployer",
        "label": "owner",
        "offset": 0,
        "slot": "0",
        "type": "t_address"
      },
      {
        "astId": 5837,
        "contract": "contracts/singularity/ProxyDeployer.sol:ProxyDeployer",
        "label": "proxies",
        "offset": 0,
        "slot": "1",
        "type": "t_array(t_address)dyn_storage"
      }
    ],
    "types": {
      "t_address": {
        "encoding": "inplace",
        "label": "address",
        "numberOfBytes": "20"
      },
      "t_array(t_address)dyn_storage": {
        "base": "t_address",
        "encoding": "dynamic_array",
        "label": "address[]",
        "numberOfBytes": "32"
      }
    }
  }
}