{
  "address": "0x74A29119AcC4B891211aa3D55B9ae2d6d411e972",
  "abi": [
    {
      "inputs": [
        {
          "internalType": "contract ISingularity",
          "name": "mixologist",
          "type": "address"
        },
        {
          "internalType": "uint256",
          "name": "_collateralAmount",
          "type": "uint256"
        },
        {
          "internalType": "uint256",
          "name": "_borrowAmount",
          "type": "uint256"
        },
        {
          "internalType": "bool",
          "name": "withdraw_",
          "type": "bool"
        },
        {
          "internalType": "bytes",
          "name": "_withdrawData",
          "type": "bytes"
        }
      ],
      "name": "depositAddCollateralAndBorrow",
      "outputs": [],
      "stateMutability": "payable",
      "type": "function"
    },
    {
      "inputs": [
        {
          "internalType": "contract ISingularity",
          "name": "mixologist",
          "type": "address"
        },
        {
          "internalType": "uint256",
          "name": "_amount",
          "type": "uint256"
        }
      ],
      "name": "depositAndAddAsset",
      "outputs": [],
      "stateMutability": "nonpayable",
      "type": "function"
    },
    {
      "inputs": [
        {
          "internalType": "contract ISingularity",
          "name": "mixologist",
          "type": "address"
        },
        {
          "internalType": "uint256",
          "name": "_depositAmount",
          "type": "uint256"
        },
        {
          "internalType": "uint256",
          "name": "_repayAmount",
          "type": "uint256"
        }
      ],
      "name": "depositAndRepay",
      "outputs": [],
      "stateMutability": "nonpayable",
      "type": "function"
    },
    {
      "inputs": [
        {
          "internalType": "contract ISingularity",
          "name": "mixologist",
          "type": "address"
        },
        {
          "internalType": "uint256",
          "name": "_depositAmount",
          "type": "uint256"
        },
        {
          "internalType": "uint256",
          "name": "_repayAmount",
          "type": "uint256"
        },
        {
          "internalType": "uint256",
          "name": "_collateralAmount",
          "type": "uint256"
        },
        {
          "internalType": "bool",
          "name": "withdraw_",
          "type": "bool"
        }
      ],
      "name": "depositRepayAndRemoveCollateral",
      "outputs": [],
      "stateMutability": "nonpayable",
      "type": "function"
    },
    {
      "inputs": [
        {
          "internalType": "address",
          "name": "who",
          "type": "address"
        },
        {
          "internalType": "contract ISingularity[]",
          "name": "markets",
          "type": "address[]"
        }
      ],
      "name": "marketsInfo",
      "outputs": [
        {
          "components": [
            {
              "internalType": "address",
              "name": "collateral",
              "type": "address"
            },
            {
              "internalType": "address",
              "name": "asset",
              "type": "address"
            },
            {
              "internalType": "contract IOracle",
              "name": "oracle",
              "type": "address"
            },
            {
              "internalType": "bytes",
              "name": "oracleData",
              "type": "bytes"
            },
            {
              "internalType": "uint256",
              "name": "totalCollateralShare",
              "type": "uint256"
            },
            {
              "internalType": "uint256",
              "name": "userCollateralShare",
              "type": "uint256"
            },
            {
              "components": [
                {
                  "internalType": "uint128",
                  "name": "elastic",
                  "type": "uint128"
                },
                {
                  "internalType": "uint128",
                  "name": "base",
                  "type": "uint128"
                }
              ],
              "internalType": "struct Rebase",
              "name": "totalAsset",
              "type": "tuple"
            },
            {
              "internalType": "uint256",
              "name": "userAssetFraction",
              "type": "uint256"
            },
            {
              "components": [
                {
                  "internalType": "uint128",
                  "name": "elastic",
                  "type": "uint128"
                },
                {
                  "internalType": "uint128",
                  "name": "base",
                  "type": "uint128"
                }
              ],
              "internalType": "struct Rebase",
              "name": "totalBorrow",
              "type": "tuple"
            },
            {
              "internalType": "uint256",
              "name": "userBorrowPart",
              "type": "uint256"
            },
            {
              "internalType": "uint256",
              "name": "currentExchangeRate",
              "type": "uint256"
            },
            {
              "internalType": "uint256",
              "name": "spotExchangeRate",
              "type": "uint256"
            },
            {
              "internalType": "uint256",
              "name": "oracleExchangeRate",
              "type": "uint256"
            },
            {
              "components": [
                {
                  "internalType": "uint64",
                  "name": "interestPerSecond",
                  "type": "uint64"
                },
                {
                  "internalType": "uint64",
                  "name": "lastAccrued",
                  "type": "uint64"
                },
                {
                  "internalType": "uint128",
                  "name": "feesEarnedFraction",
                  "type": "uint128"
                }
              ],
              "internalType": "struct ISingularity.AccrueInfo",
              "name": "accrueInfo",
              "type": "tuple"
            }
          ],
          "internalType": "struct SingularityHelper.MarketInfo[]",
          "name": "",
          "type": "tuple[]"
        }
      ],
      "stateMutability": "view",
      "type": "function"
    }
  ],
  "transactionHash": "0x09f5acbc286542c5b6fa871c28c8d1ad7fd9673d40442cfc6847137a066dfe98",
  "args": [],
  "numDeployments": 1,
  "solcInputHash": "b101ec03b9647340104c60618ab0c14e",
  "bytecode": "0x608060405234801561001057600080fd5b50612975806100206000396000f3fe60806040526004361061005a5760003560e01c8063217cbe9411610043578063217cbe94146100a157806344a653cf146100d75780636710e5dc146100ea57600080fd5b80630f1ae0ab1461005f5780631e11e5e114610081575b600080fd5b34801561006b57600080fd5b5061007f61007a366004612117565b61010a565b005b34801561008d57600080fd5b5061007f61009c36600461216d565b61046c565b3480156100ad57600080fd5b506100c16100bc3660046121e9565b6107b4565b6040516100ce9190612308565b60405180910390f35b61007f6100e5366004612494565b611479565b3480156100f657600080fd5b5061007f61010536600461253e565b6118f9565b6000856001600160a01b031663de4065776040518163ffffffff1660e01b815260040160206040518083038186803b15801561014557600080fd5b505afa158015610159573d6000803e3d6000fd5b505050506040513d601f19601f8201168201806040525081019061017d919061256a565b905061018a86868661046c565b6000826101975733610199565b305b90506000826001600160a01b0316638eb22cdd896001600160a01b031663eec0f42e6040518163ffffffff1660e01b815260040160206040518083038186803b1580156101e557600080fd5b505afa1580156101f9573d6000803e3d6000fd5b505050506040513d601f19601f8201168201806040525081019061021d919061258e565b6040517fffffffff0000000000000000000000000000000000000000000000000000000060e084901b1681526004810191909152602481018890526000604482015260640160206040518083038186803b15801561027a57600080fd5b505afa15801561028e573d6000803e3d6000fd5b505050506040513d601f19601f820116820180604052508101906102b2919061258e565b6040517fcce19f810000000000000000000000000000000000000000000000000000000081523360048201526001600160a01b038481166024830152604482018390529192509089169063cce19f8190606401600060405180830381600087803b15801561031f57600080fd5b505af1158015610333573d6000803e3d6000fd5b50505050831561046257826001600160a01b0316638d2e63b8896001600160a01b031663eec0f42e6040518163ffffffff1660e01b815260040160206040518083038186803b15801561038557600080fd5b505afa158015610399573d6000803e3d6000fd5b505050506040513d601f19601f820116820180604052508101906103bd919061258e565b6040517fffffffff0000000000000000000000000000000000000000000000000000000060e084901b1681526004810191909152306024820152336044820152606481018890526000608482015260a4016040805180830381600087803b15801561042757600080fd5b505af115801561043b573d6000803e3d6000fd5b505050506040513d601f19601f8201168201806040525081019061045f91906125a7565b50505b5050505050505050565b6000836001600160a01b03166344de240a6040518163ffffffff1660e01b815260040160206040518083038186803b1580156104a757600080fd5b505afa1580156104bb573d6000803e3d6000fd5b505050506040513d601f19601f820116820180604052508101906104df919061258e565b90506000846001600160a01b031663de4065776040518163ffffffff1660e01b815260040160206040518083038186803b15801561051c57600080fd5b505afa158015610530573d6000803e3d6000fd5b505050506040513d601f19601f82011682018060405250810190610554919061256a565b604051630cf35bdd60e41b8152600481018490529091506000906001600160a01b0383169063cf35bdd09060240160806040518083038186803b15801561059a57600080fd5b505afa1580156105ae573d6000803e3d6000fd5b505050506040513d601f19601f820116820180604052508101906105d291906125cb565b50509150506105e18186611c77565b60405163095ea7b360e01b81526001600160a01b0383811660048301526024820187905282169063095ea7b390604401602060405180830381600087803b15801561062b57600080fd5b505af115801561063f573d6000803e3d6000fd5b505050506040513d601f19601f820116820180604052508101906106639190612622565b50604051634d4d7cbd60e11b8152600481018490523060248201819052604482015260648101869052600060848201526001600160a01b03831690639a9af97a9060a4016040805180830381600087803b1580156106c057600080fd5b505af11580156106d4573d6000803e3d6000fd5b505050506040513d601f19601f820116820180604052508101906106f891906125a7565b50506107048683611d84565b6040517fcd0211eb00000000000000000000000000000000000000000000000000000000815230600482015233602482015260006044820152606481018590526001600160a01b0387169063cd0211eb906084015b602060405180830381600087803b15801561077357600080fd5b505af1158015610787573d6000803e3d6000fd5b505050506040513d601f19601f820116820180604052508101906107ab919061258e565b50505050505050565b805160609060008167ffffffffffffffff8111156107d4576107d46121a2565b6040519080825280602002602001820160405280156108ac57816020015b610899604080516101c0810182526000808252602080830182905282840182905260608084018190526080840183905260a084018390528451808601865283815280830184905260c085015260e084018390528451808601865283815280830184905261010085015261012084018390526101408401839052610160840183905261018084018390528451908101855282815290810182905292830152906101a082015290565b8152602001906001900390816107f25790505b5060408051808201909152600080825260208201529091506040805180820190915260008082526020820152604080516060810182526000808252602082018190529181019190915260005b8581101561146c5760008882815181106109145761091461263f565b60200260200101519050806001600160a01b031663d8dfeb456040518163ffffffff1660e01b815260040160206040518083038186803b15801561095757600080fd5b505afa15801561096b573d6000803e3d6000fd5b505050506040513d601f19601f8201168201806040525081019061098f919061256a565b8683815181106109a1576109a161263f565b6020026020010151600001906001600160a01b031690816001600160a01b031681525050806001600160a01b03166338d52e0f6040518163ffffffff1660e01b815260040160206040518083038186803b1580156109fe57600080fd5b505afa158015610a12573d6000803e3d6000fd5b505050506040513d601f19601f82011682018060405250810190610a36919061256a565b868381518110610a4857610a4861263f565b6020026020010151602001906001600160a01b031690816001600160a01b031681525050806001600160a01b0316637dc0d1d06040518163ffffffff1660e01b815260040160206040518083038186803b158015610aa557600080fd5b505afa158015610ab9573d6000803e3d6000fd5b505050506040513d601f19601f82011682018060405250810190610add919061256a565b868381518110610aef57610aef61263f565b6020026020010151604001906001600160a01b031690816001600160a01b031681525050806001600160a01b03166374645ff36040518163ffffffff1660e01b815260040160006040518083038186803b158015610b4c57600080fd5b505afa158015610b60573d6000803e3d6000fd5b505050506040513d6000823e601f3d908101601f19168201604052610b88919081019061267d565b868381518110610b9a57610b9a61263f565b602002602001015160600181905250806001600160a01b031663473e3ce76040518163ffffffff1660e01b815260040160206040518083038186803b158015610be257600080fd5b505afa158015610bf6573d6000803e3d6000fd5b505050506040513d601f19601f82011682018060405250810190610c1a919061258e565b868381518110610c2c57610c2c61263f565b6020908102919091010151608001526040517f1c9e379b0000000000000000000000000000000000000000000000000000000081526001600160a01b038b81166004830152821690631c9e379b9060240160206040518083038186803b158015610c9557600080fd5b505afa158015610ca9573d6000803e3d6000fd5b505050506040513d601f19601f82011682018060405250810190610ccd919061258e565b868381518110610cdf57610cdf61263f565b602002602001015160a0018181525050600080826001600160a01b031663f9557ccb6040518163ffffffff1660e01b8152600401604080518083038186803b158015610d2a57600080fd5b505afa158015610d3e573d6000803e3d6000fd5b505050506040513d601f19601f82011682018060405250810190610d629190612715565b915091506040518060400160405280836001600160801b03168152602001826001600160801b0316815250965086888581518110610da257610da261263f565b602090810291909101015160c001526040517f70a082310000000000000000000000000000000000000000000000000000000081526001600160a01b038d811660048301528416906370a082319060240160206040518083038186803b158015610e0b57600080fd5b505afa158015610e1f573d6000803e3d6000fd5b505050506040513d601f19601f82011682018060405250810190610e43919061258e565b888581518110610e5557610e5561263f565b602002602001015160e0018181525050600080846001600160a01b0316638285ef406040518163ffffffff1660e01b8152600401604080518083038186803b158015610ea057600080fd5b505afa158015610eb4573d6000803e3d6000fd5b505050506040513d601f19601f82011682018060405250810190610ed89190612715565b915091506040518060400160405280836001600160801b03168152602001826001600160801b03168152509750878a8781518110610f1857610f1861263f565b602090810291909101015161010001526040517f48e4163e0000000000000000000000000000000000000000000000000000000081526001600160a01b038f811660048301528616906348e4163e9060240160206040518083038186803b158015610f8257600080fd5b505afa158015610f96573d6000803e3d6000fd5b505050506040513d601f19601f82011682018060405250810190610fba919061258e565b8a8781518110610fcc57610fcc61263f565b6020026020010151610120018181525050846001600160a01b0316633ba0b9a96040518163ffffffff1660e01b815260040160206040518083038186803b15801561101657600080fd5b505afa15801561102a573d6000803e3d6000fd5b505050506040513d601f19601f8201168201806040525081019061104e919061258e565b8a87815181106110605761106061263f565b6020026020010151610140018181525050846001600160a01b0316637dc0d1d06040518163ffffffff1660e01b815260040160206040518083038186803b1580156110aa57600080fd5b505afa1580156110be573d6000803e3d6000fd5b505050506040513d601f19601f820116820180604052508101906110e2919061256a565b6001600160a01b031663eeb8a8d3866001600160a01b03166374645ff36040518163ffffffff1660e01b815260040160006040518083038186803b15801561112957600080fd5b505afa15801561113d573d6000803e3d6000fd5b505050506040513d6000823e601f3d908101601f19168201604052611165919081019061267d565b6040518263ffffffff1660e01b81526004016111819190612748565b604080518083038186803b15801561119857600080fd5b505afa1580156111ac573d6000803e3d6000fd5b505050506040513d601f19601f820116820180604052508101906111d0919061275b565b90508a87815181106111e4576111e461263f565b6020026020010151610180018181525050846001600160a01b0316637dc0d1d06040518163ffffffff1660e01b815260040160206040518083038186803b15801561122e57600080fd5b505afa158015611242573d6000803e3d6000fd5b505050506040513d601f19601f82011682018060405250810190611266919061256a565b6001600160a01b031663d39bbef0866001600160a01b03166374645ff36040518163ffffffff1660e01b815260040160006040518083038186803b1580156112ad57600080fd5b505afa1580156112c1573d6000803e3d6000fd5b505050506040513d6000823e601f3d908101601f191682016040526112e9919081019061267d565b6040518263ffffffff1660e01b81526004016113059190612748565b60206040518083038186803b15801561131d57600080fd5b505afa158015611331573d6000803e3d6000fd5b505050506040513d601f19601f82011682018060405250810190611355919061258e565b8a87815181106113675761136761263f565b60200260200101516101600181815250506000806000876001600160a01b031663b27c0e746040518163ffffffff1660e01b815260040160606040518083038186803b1580156113b657600080fd5b505afa1580156113ca573d6000803e3d6000fd5b505050506040513d601f19601f820116820180604052508101906113ee91906127a1565b92509250925060405180606001604052808467ffffffffffffffff1681526020018367ffffffffffffffff168152602001826001600160801b03168152509950898d8a815181106114415761144161263f565b60200260200101516101a0018190525050505050505050508080611464906127e4565b9150506108f8565b5092979650505050505050565b6000866001600160a01b031663de4065776040518163ffffffff1660e01b815260040160206040518083038186803b1580156114b457600080fd5b505afa1580156114c8573d6000803e3d6000fd5b505050506040513d601f19601f820116820180604052508101906114ec919061256a565b90506000876001600160a01b031663eec0f42e6040518163ffffffff1660e01b815260040160206040518083038186803b15801561152957600080fd5b505afa15801561153d573d6000803e3d6000fd5b505050506040513d601f19601f82011682018060405250810190611561919061258e565b604051630cf35bdd60e41b8152600481018290529091506000906001600160a01b0384169063cf35bdd09060240160806040518083038186803b1580156115a757600080fd5b505afa1580156115bb573d6000803e3d6000fd5b505050506040513d601f19601f820116820180604052508101906115df91906125cb565b50509150506115ee8189611c77565b604051638eb22cdd60e01b81526004810183905260248101899052600060448201819052906001600160a01b03851690638eb22cdd9060640160206040518083038186803b15801561163f57600080fd5b505afa158015611653573d6000803e3d6000fd5b505050506040513d601f19601f82011682018060405250810190611677919061258e565b60405163095ea7b360e01b81526001600160a01b038681166004830152602482018c90529192509083169063095ea7b390604401602060405180830381600087803b1580156116c557600080fd5b505af11580156116d9573d6000803e3d6000fd5b505050506040513d601f19601f820116820180604052508101906116fd9190612622565b50604051634d4d7cbd60e11b8152600481018490523060248201819052604482015260006064820152608481018290526001600160a01b03851690639a9af97a9060a4016040805180830381600087803b15801561175a57600080fd5b505af115801561176e573d6000803e3d6000fd5b505050506040513d601f19601f8201168201806040525081019061179291906125a7565b505061179e8a85611d84565b6040517f25be782400000000000000000000000000000000000000000000000000000000815230600482015233602482015260006044820152606481018290526001600160a01b038b16906325be782490608401600060405180830381600087803b15801561180c57600080fd5b505af1158015611820573d6000803e3d6000fd5b505050506000876118315733611833565b305b6040517f5224372c0000000000000000000000000000000000000000000000000000000081523360048201526001600160a01b038083166024830152604482018c9052919250908c1690635224372c906064016040805180830381600087803b15801561189f57600080fd5b505af11580156118b3573d6000803e3d6000fd5b505050506040513d601f19601f820116820180604052508101906118d791906125a7565b505087156118ec576118ec87878d888d611f0f565b5050505050505050505050565b6000826001600160a01b03166344de240a6040518163ffffffff1660e01b815260040160206040518083038186803b15801561193457600080fd5b505afa158015611948573d6000803e3d6000fd5b505050506040513d601f19601f8201168201806040525081019061196c919061258e565b90506000836001600160a01b031663de4065776040518163ffffffff1660e01b815260040160206040518083038186803b1580156119a957600080fd5b505afa1580156119bd573d6000803e3d6000fd5b505050506040513d601f19601f820116820180604052508101906119e1919061256a565b604051630cf35bdd60e41b8152600481018490529091506000906001600160a01b0383169063cf35bdd09060240160806040518083038186803b158015611a2757600080fd5b505afa158015611a3b573d6000803e3d6000fd5b505050506040513d601f19601f82011682018060405250810190611a5f91906125cb565b5050915050611a6e8185611c77565b604051638eb22cdd60e01b81526004810184905260248101859052600060448201819052906001600160a01b03841690638eb22cdd9060640160206040518083038186803b158015611abf57600080fd5b505afa158015611ad3573d6000803e3d6000fd5b505050506040513d601f19601f82011682018060405250810190611af7919061258e565b60405163095ea7b360e01b81526001600160a01b038581166004830152602482018890529192509083169063095ea7b390604401602060405180830381600087803b158015611b4557600080fd5b505af1158015611b59573d6000803e3d6000fd5b505050506040513d601f19601f82011682018060405250810190611b7d9190612622565b50604051634d4d7cbd60e11b8152600481018590523060248201819052604482015260006064820152608481018290526001600160a01b03841690639a9af97a9060a4016040805180830381600087803b158015611bda57600080fd5b505af1158015611bee573d6000803e3d6000fd5b505050506040513d601f19601f82011682018060405250810190611c1291906125a7565b5050611c1e8684611d84565b6040517f6587adb800000000000000000000000000000000000000000000000000000000815230600482015233602482015260006044820152606481018290526001600160a01b03871690636587adb890608401610759565b6040517f23b872dd000000000000000000000000000000000000000000000000000000008152336004820152306024820152604481018290526001600160a01b038316906323b872dd90606401602060405180830381600087803b158015611cde57600080fd5b505af1158015611cf2573d6000803e3d6000fd5b505050506040513d601f19601f82011682018060405250810190611d169190612622565b611d80576040517f08c379a000000000000000000000000000000000000000000000000000000000815260206004820152600f60248201527f7472616e73666572206661696c65640000000000000000000000000000000000604482015260640160405180910390fd5b5050565b60405163e985e9c560e01b81523060048201526001600160a01b0383811660248301526000919083169063e985e9c59060440160206040518083038186803b158015611dcf57600080fd5b505afa158015611de3573d6000803e3d6000fd5b505050506040513d601f19601f82011682018060405250810190611e079190612622565b905080611e8a576040517fa22cb4650000000000000000000000000000000000000000000000000000000081526001600160a01b0384811660048301526001602483015283169063a22cb46590604401600060405180830381600087803b158015611e7157600080fd5b505af1158015611e85573d6000803e3d6000fd5b505050505b60405163e985e9c560e01b81523060048201526001600160a01b03848116602483015283169063e985e9c59060440160206040518083038186803b158015611ed157600080fd5b505afa158015611ee5573d6000803e3d6000fd5b505050506040513d601f19601f82011682018060405250810190611f099190612622565b50505050565b6000806060808715611f3257611f27888a018a61285e565b929650909450925090505b8361206457856001600160a01b0316638d2e63b8886001600160a01b03166344de240a6040518163ffffffff1660e01b815260040160206040518083038186803b158015611f7f57600080fd5b505afa158015611f93573d6000803e3d6000fd5b505050506040513d601f19601f82011682018060405250810190611fb7919061258e565b6040517fffffffff0000000000000000000000000000000000000000000000000000000060e084901b1681526004810191909152306024820152336044820152606481018890526000608482015260a4016040805180830381600087803b15801561202157600080fd5b505af1158015612035573d6000803e3d6000fd5b505050506040513d601f19601f8201168201806040525081019061205991906125a7565b5050505050506120ea565b6040517fdd63b28a0000000000000000000000000000000000000000000000000000000081526001600160a01b0388169063dd63b28a9034906120b390879087908b90889033906004016128ee565b6000604051808303818588803b1580156120cc57600080fd5b505af11580156120e0573d6000803e3d6000fd5b5050505050505050505b5050505050565b6001600160a01b038116811461210657600080fd5b50565b801515811461210657600080fd5b600080600080600060a0868803121561212f57600080fd5b853561213a816120f1565b9450602086013593506040860135925060608601359150608086013561215f81612109565b809150509295509295909350565b60008060006060848603121561218257600080fd5b833561218d816120f1565b95602085013595506040909401359392505050565b634e487b7160e01b600052604160045260246000fd5b604051601f8201601f1916810167ffffffffffffffff811182821017156121e1576121e16121a2565b604052919050565b600080604083850312156121fc57600080fd5b8235612207816120f1565b915060208381013567ffffffffffffffff8082111561222557600080fd5b818601915086601f83011261223957600080fd5b81358181111561224b5761224b6121a2565b8060051b915061225c8483016121b8565b818152918301840191848101908984111561227657600080fd5b938501935b838510156122a05784359250612290836120f1565b828252938501939085019061227b565b8096505050505050509250929050565b60005b838110156122cb5781810151838201526020016122b3565b83811115611f095750506000910152565b600081518084526122f48160208601602086016122b0565b601f01601f19169290920160200192915050565b60006020808301818452808551808352604092508286019150828160051b87010184880160005b8381101561248657888303603f19018552815180516001600160a01b03168452610240818901516001600160a01b038116868b015250818801516001600160a01b038116868a015250606080830151828288015261238f838801826122dc565b6080858101519089015260a0808601519089015260c08086015180516001600160801b03908116838c015260208201511660e08b015291945092509050505060e0820151610100868101919091528201516101206124058188018380516001600160801b03908116835260209182015116910152565b8301516101608781019190915261014084015161018080890191909152908401516101a080890191909152908401516101c088015290920151805167ffffffffffffffff9081166101e0880152602082015116610200870152604001516001600160801b03166102209095019490945250938601939086019060010161232f565b509098975050505050505050565b60008060008060008060a087890312156124ad57600080fd5b86356124b8816120f1565b9550602087013594506040870135935060608701356124d681612109565b9250608087013567ffffffffffffffff808211156124f357600080fd5b818901915089601f83011261250757600080fd5b81358181111561251657600080fd5b8a602082850101111561252857600080fd5b6020830194508093505050509295509295509295565b6000806040838503121561255157600080fd5b823561255c816120f1565b946020939093013593505050565b60006020828403121561257c57600080fd5b8151612587816120f1565b9392505050565b6000602082840312156125a057600080fd5b5051919050565b600080604083850312156125ba57600080fd5b505080516020909101519092909150565b600080600080608085870312156125e157600080fd5b8451600581106125f057600080fd5b6020860151909450612601816120f1565b6040860151909350612612816120f1565b6060959095015193969295505050565b60006020828403121561263457600080fd5b815161258781612109565b634e487b7160e01b600052603260045260246000fd5b600067ffffffffffffffff82111561266f5761266f6121a2565b50601f01601f191660200190565b60006020828403121561268f57600080fd5b815167ffffffffffffffff8111156126a657600080fd5b8201601f810184136126b757600080fd5b80516126ca6126c582612655565b6121b8565b8181528560208385010111156126df57600080fd5b6126f08260208301602086016122b0565b95945050505050565b80516001600160801b038116811461271057600080fd5b919050565b6000806040838503121561272857600080fd5b612731836126f9565b915061273f602084016126f9565b90509250929050565b60208152600061258760208301846122dc565b6000806040838503121561276e57600080fd5b825161277981612109565b6020939093015192949293505050565b805167ffffffffffffffff8116811461271057600080fd5b6000806000606084860312156127b657600080fd5b6127bf84612789565b92506127cd60208501612789565b91506127db604085016126f9565b90509250925092565b600060001982141561280657634e487b7160e01b600052601160045260246000fd5b5060010190565b600082601f83011261281e57600080fd5b813561282c6126c582612655565b81815284602083860101111561284157600080fd5b816020850160208301376000918101602001919091529392505050565b6000806000806080858703121561287457600080fd5b843561287f81612109565b9350602085013561ffff8116811461289657600080fd5b9250604085013567ffffffffffffffff808211156128b357600080fd5b6128bf8883890161280d565b935060608701359150808211156128d557600080fd5b506128e28782880161280d565b91505092959194509250565b61ffff8616815260a06020820152600061290b60a08301876122dc565b856040840152828103606084015261292381866122dc565b9150506001600160a01b0383166080830152969550505050505056fea2646970667358221220ef0359bf5383451560ca76eb2eb620363257b76adfb1d8dd7e9b88f25f755e1f64736f6c63430008090033",
  "devdoc": {
    "kind": "dev",
    "methods": {
      "depositAddCollateralAndBorrow(address,uint256,uint256,bool,bytes)": {
        "params": {
          "_borrowAmount": "the amount to borrow",
          "_collateralAmount": "the collateral amount to add",
          "_withdrawData": "custom withdraw data; ignore if you need to withdraw on the same chain",
          "mixologist": "the mixologist address",
          "withdraw_": "if true, withdraws from YieldBox to `msg.sender`"
        }
      },
      "depositAndAddAsset(address,uint256)": {
        "params": {
          "_amount": "the amount to lend",
          "mixologist": "the mixologist address"
        }
      },
      "depositAndRepay(address,uint256,uint256)": {
        "params": {
          "_depositAmount": "the amount to deposit",
          "_repayAmount": "the amount to be repayed",
          "mixologist": "the mixologist address"
        }
      },
      "depositRepayAndRemoveCollateral(address,uint256,uint256,uint256,bool)": {
        "params": {
          "_collateralAmount": "collateral amount to be removed",
          "_depositAmount": "the amount to deposit",
          "_repayAmount": "the amount to be repayed",
          "mixologist": "the mixologist address",
          "withdraw_": "if true withdraws to sender address"
        }
      }
    },
    "title": "Useful helper functions for `Singularity`.",
    "version": 1
  },
  "userdoc": {
    "kind": "user",
    "methods": {
      "depositAddCollateralAndBorrow(address,uint256,uint256,bool,bytes)": {
        "notice": "deposts collateral to YieldBox, adds collateral to Singularity, borrows and can withdraw to personal address"
      },
      "depositAndAddAsset(address,uint256)": {
        "notice": "deposits asset to YieldBox and lends it to Singularity"
      },
      "depositAndRepay(address,uint256,uint256)": {
        "notice": "deposits to YieldBox and repays borrowed amount"
      },
      "depositRepayAndRemoveCollateral(address,uint256,uint256,uint256,bool)": {
        "notice": "deposits to YieldBox, repays borrowed amount and removes collateral"
      }
    },
    "version": 1
  },
  "storageLayout": {
    "storage": [],
    "types": null
  }
}