{
  "address": "0xf64364494212954c20B0762fcB1ebB6DC3e85441",
  "abi": [
    {
      "inputs": [
        {
          "internalType": "address",
          "name": "_lzEndpoint",
          "type": "address"
        }
      ],
      "stateMutability": "nonpayable",
      "type": "constructor"
    },
    {
      "anonymous": false,
      "inputs": [
        {
          "indexed": true,
          "internalType": "address",
          "name": "owner",
          "type": "address"
        },
        {
          "indexed": true,
          "internalType": "address",
          "name": "spender",
          "type": "address"
        },
        {
          "indexed": false,
          "internalType": "uint256",
          "name": "value",
          "type": "uint256"
        }
      ],
      "name": "Approval",
      "type": "event"
    },
    {
      "anonymous": false,
      "inputs": [
        {
          "indexed": true,
          "internalType": "address",
          "name": "_from",
          "type": "address"
        },
        {
          "indexed": false,
          "internalType": "uint256",
          "name": "_amount",
          "type": "uint256"
        }
      ],
      "name": "Burned",
      "type": "event"
    },
    {
      "anonymous": false,
      "inputs": [
        {
          "indexed": false,
          "internalType": "uint16",
          "name": "_srcChainId",
          "type": "uint16"
        },
        {
          "indexed": false,
          "internalType": "bytes",
          "name": "_srcAddress",
          "type": "bytes"
        },
        {
          "indexed": false,
          "internalType": "uint64",
          "name": "_nonce",
          "type": "uint64"
        },
        {
          "indexed": false,
          "internalType": "bytes",
          "name": "_payload",
          "type": "bytes"
        },
        {
          "indexed": false,
          "internalType": "bytes",
          "name": "_reason",
          "type": "bytes"
        }
      ],
      "name": "MessageFailed",
      "type": "event"
    },
    {
      "anonymous": false,
      "inputs": [
        {
          "indexed": true,
          "internalType": "address",
          "name": "_for",
          "type": "address"
        },
        {
          "indexed": false,
          "internalType": "uint256",
          "name": "_amount",
          "type": "uint256"
        }
      ],
      "name": "Minted",
      "type": "event"
    },
    {
      "anonymous": false,
      "inputs": [
        {
          "indexed": true,
          "internalType": "address",
          "name": "previousOwner",
          "type": "address"
        },
        {
          "indexed": true,
          "internalType": "address",
          "name": "newOwner",
          "type": "address"
        }
      ],
      "name": "OwnershipTransferred",
      "type": "event"
    },
    {
      "anonymous": false,
      "inputs": [
        {
          "indexed": false,
          "internalType": "address",
          "name": "account",
          "type": "address"
        }
      ],
      "name": "Paused",
      "type": "event"
    },
    {
      "anonymous": false,
      "inputs": [
        {
          "indexed": true,
          "internalType": "uint16",
          "name": "_srcChainId",
          "type": "uint16"
        },
        {
          "indexed": false,
          "internalType": "bytes",
          "name": "_fromAddress",
          "type": "bytes"
        },
        {
          "indexed": true,
          "internalType": "address",
          "name": "_to",
          "type": "address"
        },
        {
          "indexed": false,
          "internalType": "uint256",
          "name": "_amount",
          "type": "uint256"
        }
      ],
      "name": "ReceiveFromChain",
      "type": "event"
    },
    {
      "anonymous": false,
      "inputs": [
        {
          "indexed": false,
          "internalType": "uint16",
          "name": "_srcChainId",
          "type": "uint16"
        },
        {
          "indexed": false,
          "internalType": "bytes",
          "name": "_srcAddress",
          "type": "bytes"
        },
        {
          "indexed": false,
          "internalType": "uint64",
          "name": "_nonce",
          "type": "uint64"
        },
        {
          "indexed": false,
          "internalType": "bytes32",
          "name": "_payloadHash",
          "type": "bytes32"
        }
      ],
      "name": "RetryMessageSuccess",
      "type": "event"
    },
    {
      "anonymous": false,
      "inputs": [
        {
          "indexed": true,
          "internalType": "uint16",
          "name": "_dstChainId",
          "type": "uint16"
        },
        {
          "indexed": true,
          "internalType": "address",
          "name": "_from",
          "type": "address"
        },
        {
          "indexed": true,
          "internalType": "bytes",
          "name": "_toAddress",
          "type": "bytes"
        },
        {
          "indexed": false,
          "internalType": "uint256",
          "name": "_amount",
          "type": "uint256"
        }
      ],
      "name": "SendToChain",
      "type": "event"
    },
    {
      "anonymous": false,
      "inputs": [
        {
          "indexed": true,
          "internalType": "address",
          "name": "_for",
          "type": "address"
        },
        {
          "indexed": false,
          "internalType": "bool",
          "name": "_status",
          "type": "bool"
        }
      ],
      "name": "SetBurnerStatus",
      "type": "event"
    },
    {
      "anonymous": false,
      "inputs": [
        {
          "indexed": false,
          "internalType": "uint16",
          "name": "_dstChainId",
          "type": "uint16"
        },
        {
          "indexed": false,
          "internalType": "uint16",
          "name": "_type",
          "type": "uint16"
        },
        {
          "indexed": false,
          "internalType": "uint256",
          "name": "_minDstGas",
          "type": "uint256"
        }
      ],
      "name": "SetMinDstGas",
      "type": "event"
    },
    {
      "anonymous": false,
      "inputs": [
        {
          "indexed": true,
          "internalType": "address",
          "name": "_for",
          "type": "address"
        },
        {
          "indexed": false,
          "internalType": "bool",
          "name": "_status",
          "type": "bool"
        }
      ],
      "name": "SetMinterStatus",
      "type": "event"
    },
    {
      "anonymous": false,
      "inputs": [
        {
          "indexed": false,
          "internalType": "address",
          "name": "precrime",
          "type": "address"
        }
      ],
      "name": "SetPrecrime",
      "type": "event"
    },
    {
      "anonymous": false,
      "inputs": [
        {
          "indexed": false,
          "internalType": "uint16",
          "name": "_remoteChainId",
          "type": "uint16"
        },
        {
          "indexed": false,
          "internalType": "bytes",
          "name": "_path",
          "type": "bytes"
        }
      ],
      "name": "SetTrustedRemote",
      "type": "event"
    },
    {
      "anonymous": false,
      "inputs": [
        {
          "indexed": false,
          "internalType": "uint16",
          "name": "_remoteChainId",
          "type": "uint16"
        },
        {
          "indexed": false,
          "internalType": "bytes",
          "name": "_remoteAddress",
          "type": "bytes"
        }
      ],
      "name": "SetTrustedRemoteAddress",
      "type": "event"
    },
    {
      "anonymous": false,
      "inputs": [
        {
          "indexed": false,
          "internalType": "bool",
          "name": "_useCustomAdapterParams",
          "type": "bool"
        }
      ],
      "name": "SetUseCustomAdapterParams",
      "type": "event"
    },
    {
      "anonymous": false,
      "inputs": [
        {
          "indexed": true,
          "internalType": "address",
          "name": "from",
          "type": "address"
        },
        {
          "indexed": true,
          "internalType": "address",
          "name": "to",
          "type": "address"
        },
        {
          "indexed": false,
          "internalType": "uint256",
          "name": "value",
          "type": "uint256"
        }
      ],
      "name": "Transfer",
      "type": "event"
    },
    {
      "anonymous": false,
      "inputs": [
        {
          "indexed": false,
          "internalType": "address",
          "name": "account",
          "type": "address"
        }
      ],
      "name": "Unpaused",
      "type": "event"
    },
    {
      "inputs": [],
      "name": "NO_EXTRA_GAS",
      "outputs": [
        {
          "internalType": "uint256",
          "name": "",
          "type": "uint256"
        }
      ],
      "stateMutability": "view",
      "type": "function"
    },
    {
      "inputs": [],
      "name": "PT_SEND",
      "outputs": [
        {
          "internalType": "uint16",
          "name": "",
          "type": "uint16"
        }
      ],
      "stateMutability": "view",
      "type": "function"
    },
    {
      "inputs": [
        {
          "internalType": "address",
          "name": "owner",
          "type": "address"
        },
        {
          "internalType": "address",
          "name": "spender",
          "type": "address"
        }
      ],
      "name": "allowance",
      "outputs": [
        {
          "internalType": "uint256",
          "name": "",
          "type": "uint256"
        }
      ],
      "stateMutability": "view",
      "type": "function"
    },
    {
      "inputs": [
        {
          "internalType": "uint256",
          "name": "",
          "type": "uint256"
        },
        {
          "internalType": "address",
          "name": "",
          "type": "address"
        }
      ],
      "name": "allowedBurner",
      "outputs": [
        {
          "internalType": "bool",
          "name": "",
          "type": "bool"
        }
      ],
      "stateMutability": "view",
      "type": "function"
    },
    {
      "inputs": [
        {
          "internalType": "uint256",
          "name": "",
          "type": "uint256"
        },
        {
          "internalType": "address",
          "name": "",
          "type": "address"
        }
      ],
      "name": "allowedMinter",
      "outputs": [
        {
          "internalType": "bool",
          "name": "",
          "type": "bool"
        }
      ],
      "stateMutability": "view",
      "type": "function"
    },
    {
      "inputs": [
        {
          "internalType": "address",
          "name": "spender",
          "type": "address"
        },
        {
          "internalType": "uint256",
          "name": "amount",
          "type": "uint256"
        }
      ],
      "name": "approve",
      "outputs": [
        {
          "internalType": "bool",
          "name": "",
          "type": "bool"
        }
      ],
      "stateMutability": "nonpayable",
      "type": "function"
    },
    {
      "inputs": [
        {
          "internalType": "address",
          "name": "account",
          "type": "address"
        }
      ],
      "name": "balanceOf",
      "outputs": [
        {
          "internalType": "uint256",
          "name": "",
          "type": "uint256"
        }
      ],
      "stateMutability": "view",
      "type": "function"
    },
    {
      "inputs": [
        {
          "internalType": "address",
          "name": "_from",
          "type": "address"
        },
        {
          "internalType": "uint256",
          "name": "_amount",
          "type": "uint256"
        }
      ],
      "name": "burn",
      "outputs": [],
      "stateMutability": "nonpayable",
      "type": "function"
    },
    {
      "inputs": [],
      "name": "circulatingSupply",
      "outputs": [
        {
          "internalType": "uint256",
          "name": "",
          "type": "uint256"
        }
      ],
      "stateMutability": "view",
      "type": "function"
    },
    {
      "inputs": [],
      "name": "decimals",
      "outputs": [
        {
          "internalType": "uint8",
          "name": "",
          "type": "uint8"
        }
      ],
      "stateMutability": "pure",
      "type": "function"
    },
    {
      "inputs": [
        {
          "internalType": "address",
          "name": "spender",
          "type": "address"
        },
        {
          "internalType": "uint256",
          "name": "subtractedValue",
          "type": "uint256"
        }
      ],
      "name": "decreaseAllowance",
      "outputs": [
        {
          "internalType": "bool",
          "name": "",
          "type": "bool"
        }
      ],
      "stateMutability": "nonpayable",
      "type": "function"
    },
    {
      "inputs": [
        {
          "internalType": "uint16",
          "name": "_dstChainId",
          "type": "uint16"
        },
        {
          "internalType": "bytes",
          "name": "_toAddress",
          "type": "bytes"
        },
        {
          "internalType": "uint256",
          "name": "_amount",
          "type": "uint256"
        },
        {
          "internalType": "bool",
          "name": "_useZro",
          "type": "bool"
        },
        {
          "internalType": "bytes",
          "name": "_adapterParams",
          "type": "bytes"
        }
      ],
      "name": "estimateSendFee",
      "outputs": [
        {
          "internalType": "uint256",
          "name": "nativeFee",
          "type": "uint256"
        },
        {
          "internalType": "uint256",
          "name": "zroFee",
          "type": "uint256"
        }
      ],
      "stateMutability": "view",
      "type": "function"
    },
    {
      "inputs": [
        {
          "internalType": "uint16",
          "name": "",
          "type": "uint16"
        },
        {
          "internalType": "bytes",
          "name": "",
          "type": "bytes"
        },
        {
          "internalType": "uint64",
          "name": "",
          "type": "uint64"
        }
      ],
      "name": "failedMessages",
      "outputs": [
        {
          "internalType": "bytes32",
          "name": "",
          "type": "bytes32"
        }
      ],
      "stateMutability": "view",
      "type": "function"
    },
    {
      "inputs": [
        {
          "internalType": "uint16",
          "name": "_srcChainId",
          "type": "uint16"
        },
        {
          "internalType": "bytes",
          "name": "_srcAddress",
          "type": "bytes"
        }
      ],
      "name": "forceResumeReceive",
      "outputs": [],
      "stateMutability": "nonpayable",
      "type": "function"
    },
    {
      "inputs": [
        {
          "internalType": "uint16",
          "name": "_version",
          "type": "uint16"
        },
        {
          "internalType": "uint16",
          "name": "_chainId",
          "type": "uint16"
        },
        {
          "internalType": "address",
          "name": "",
          "type": "address"
        },
        {
          "internalType": "uint256",
          "name": "_configType",
          "type": "uint256"
        }
      ],
      "name": "getConfig",
      "outputs": [
        {
          "internalType": "bytes",
          "name": "",
          "type": "bytes"
        }
      ],
      "stateMutability": "view",
      "type": "function"
    },
    {
      "inputs": [
        {
          "internalType": "uint16",
          "name": "_remoteChainId",
          "type": "uint16"
        }
      ],
      "name": "getTrustedRemoteAddress",
      "outputs": [
        {
          "internalType": "bytes",
          "name": "",
          "type": "bytes"
        }
      ],
      "stateMutability": "view",
      "type": "function"
    },
    {
      "inputs": [
        {
          "internalType": "address",
          "name": "spender",
          "type": "address"
        },
        {
          "internalType": "uint256",
          "name": "addedValue",
          "type": "uint256"
        }
      ],
      "name": "increaseAllowance",
      "outputs": [
        {
          "internalType": "bool",
          "name": "",
          "type": "bool"
        }
      ],
      "stateMutability": "nonpayable",
      "type": "function"
    },
    {
      "inputs": [
        {
          "internalType": "uint16",
          "name": "_srcChainId",
          "type": "uint16"
        },
        {
          "internalType": "bytes",
          "name": "_srcAddress",
          "type": "bytes"
        }
      ],
      "name": "isTrustedRemote",
      "outputs": [
        {
          "internalType": "bool",
          "name": "",
          "type": "bool"
        }
      ],
      "stateMutability": "view",
      "type": "function"
    },
    {
      "inputs": [],
      "name": "lzEndpoint",
      "outputs": [
        {
          "internalType": "contract ILayerZeroEndpoint",
          "name": "",
          "type": "address"
        }
      ],
      "stateMutability": "view",
      "type": "function"
    },
    {
      "inputs": [
        {
          "internalType": "uint16",
          "name": "_srcChainId",
          "type": "uint16"
        },
        {
          "internalType": "bytes",
          "name": "_srcAddress",
          "type": "bytes"
        },
        {
          "internalType": "uint64",
          "name": "_nonce",
          "type": "uint64"
        },
        {
          "internalType": "bytes",
          "name": "_payload",
          "type": "bytes"
        }
      ],
      "name": "lzReceive",
      "outputs": [],
      "stateMutability": "nonpayable",
      "type": "function"
    },
    {
      "inputs": [
        {
          "internalType": "uint16",
          "name": "",
          "type": "uint16"
        },
        {
          "internalType": "uint16",
          "name": "",
          "type": "uint16"
        }
      ],
      "name": "minDstGasLookup",
      "outputs": [
        {
          "internalType": "uint256",
          "name": "",
          "type": "uint256"
        }
      ],
      "stateMutability": "view",
      "type": "function"
    },
    {
      "inputs": [
        {
          "internalType": "address",
          "name": "_to",
          "type": "address"
        },
        {
          "internalType": "uint256",
          "name": "_amount",
          "type": "uint256"
        }
      ],
      "name": "mint",
      "outputs": [],
      "stateMutability": "nonpayable",
      "type": "function"
    },
    {
      "inputs": [],
      "name": "name",
      "outputs": [
        {
          "internalType": "string",
          "name": "",
          "type": "string"
        }
      ],
      "stateMutability": "view",
      "type": "function"
    },
    {
      "inputs": [
        {
          "internalType": "uint16",
          "name": "_srcChainId",
          "type": "uint16"
        },
        {
          "internalType": "bytes",
          "name": "_srcAddress",
          "type": "bytes"
        },
        {
          "internalType": "uint64",
          "name": "_nonce",
          "type": "uint64"
        },
        {
          "internalType": "bytes",
          "name": "_payload",
          "type": "bytes"
        }
      ],
      "name": "nonblockingLzReceive",
      "outputs": [],
      "stateMutability": "nonpayable",
      "type": "function"
    },
    {
      "inputs": [],
      "name": "owner",
      "outputs": [
        {
          "internalType": "address",
          "name": "",
          "type": "address"
        }
      ],
      "stateMutability": "view",
      "type": "function"
    },
    {
      "inputs": [
        {
          "internalType": "bool",
          "name": "pause",
          "type": "bool"
        }
      ],
      "name": "pauseSendTokens",
      "outputs": [],
      "stateMutability": "nonpayable",
      "type": "function"
    },
    {
      "inputs": [],
      "name": "paused",
      "outputs": [
        {
          "internalType": "bool",
          "name": "",
          "type": "bool"
        }
      ],
      "stateMutability": "view",
      "type": "function"
    },
    {
      "inputs": [],
      "name": "precrime",
      "outputs": [
        {
          "internalType": "address",
          "name": "",
          "type": "address"
        }
      ],
      "stateMutability": "view",
      "type": "function"
    },
    {
      "inputs": [],
      "name": "renounceOwnership",
      "outputs": [],
      "stateMutability": "nonpayable",
      "type": "function"
    },
    {
      "inputs": [
        {
          "internalType": "uint16",
          "name": "_srcChainId",
          "type": "uint16"
        },
        {
          "internalType": "bytes",
          "name": "_srcAddress",
          "type": "bytes"
        },
        {
          "internalType": "uint64",
          "name": "_nonce",
          "type": "uint64"
        },
        {
          "internalType": "bytes",
          "name": "_payload",
          "type": "bytes"
        }
      ],
      "name": "retryMessage",
      "outputs": [],
      "stateMutability": "payable",
      "type": "function"
    },
    {
      "inputs": [
        {
          "internalType": "address",
          "name": "_from",
          "type": "address"
        },
        {
          "internalType": "uint16",
          "name": "_dstChainId",
          "type": "uint16"
        },
        {
          "internalType": "bytes",
          "name": "_toAddress",
          "type": "bytes"
        },
        {
          "internalType": "uint256",
          "name": "_amount",
          "type": "uint256"
        },
        {
          "internalType": "address payable",
          "name": "_refundAddress",
          "type": "address"
        },
        {
          "internalType": "address",
          "name": "_zroPaymentAddress",
          "type": "address"
        },
        {
          "internalType": "bytes",
          "name": "_adapterParams",
          "type": "bytes"
        }
      ],
      "name": "sendFrom",
      "outputs": [],
      "stateMutability": "payable",
      "type": "function"
    },
    {
      "inputs": [
        {
          "internalType": "address",
          "name": "_for",
          "type": "address"
        },
        {
          "internalType": "bool",
          "name": "_status",
          "type": "bool"
        }
      ],
      "name": "setBurnerStatus",
      "outputs": [],
      "stateMutability": "nonpayable",
      "type": "function"
    },
    {
      "inputs": [
        {
          "internalType": "uint16",
          "name": "_version",
          "type": "uint16"
        },
        {
          "internalType": "uint16",
          "name": "_chainId",
          "type": "uint16"
        },
        {
          "internalType": "uint256",
          "name": "_configType",
          "type": "uint256"
        },
        {
          "internalType": "bytes",
          "name": "_config",
          "type": "bytes"
        }
      ],
      "name": "setConfig",
      "outputs": [],
      "stateMutability": "nonpayable",
      "type": "function"
    },
    {
      "inputs": [
        {
          "internalType": "uint16",
          "name": "_dstChainId",
          "type": "uint16"
        },
        {
          "internalType": "uint16",
          "name": "_packetType",
          "type": "uint16"
        },
        {
          "internalType": "uint256",
          "name": "_minGas",
          "type": "uint256"
        }
      ],
      "name": "setMinDstGas",
      "outputs": [],
      "stateMutability": "nonpayable",
      "type": "function"
    },
    {
      "inputs": [
        {
          "internalType": "address",
          "name": "_for",
          "type": "address"
        },
        {
          "internalType": "bool",
          "name": "_status",
          "type": "bool"
        }
      ],
      "name": "setMinterStatus",
      "outputs": [],
      "stateMutability": "nonpayable",
      "type": "function"
    },
    {
      "inputs": [
        {
          "internalType": "address",
          "name": "_precrime",
          "type": "address"
        }
      ],
      "name": "setPrecrime",
      "outputs": [],
      "stateMutability": "nonpayable",
      "type": "function"
    },
    {
      "inputs": [
        {
          "internalType": "uint16",
          "name": "_version",
          "type": "uint16"
        }
      ],
      "name": "setReceiveVersion",
      "outputs": [],
      "stateMutability": "nonpayable",
      "type": "function"
    },
    {
      "inputs": [
        {
          "internalType": "uint16",
          "name": "_version",
          "type": "uint16"
        }
      ],
      "name": "setSendVersion",
      "outputs": [],
      "stateMutability": "nonpayable",
      "type": "function"
    },
    {
      "inputs": [
        {
          "internalType": "uint16",
          "name": "_srcChainId",
          "type": "uint16"
        },
        {
          "internalType": "bytes",
          "name": "_path",
          "type": "bytes"
        }
      ],
      "name": "setTrustedRemote",
      "outputs": [],
      "stateMutability": "nonpayable",
      "type": "function"
    },
    {
      "inputs": [
        {
          "internalType": "uint16",
          "name": "_remoteChainId",
          "type": "uint16"
        },
        {
          "internalType": "bytes",
          "name": "_remoteAddress",
          "type": "bytes"
        }
      ],
      "name": "setTrustedRemoteAddress",
      "outputs": [],
      "stateMutability": "nonpayable",
      "type": "function"
    },
    {
      "inputs": [
        {
          "internalType": "bool",
          "name": "_useCustomAdapterParams",
          "type": "bool"
        }
      ],
      "name": "setUseCustomAdapterParams",
      "outputs": [],
      "stateMutability": "nonpayable",
      "type": "function"
    },
    {
      "inputs": [
        {
          "internalType": "bytes4",
          "name": "interfaceId",
          "type": "bytes4"
        }
      ],
      "name": "supportsInterface",
      "outputs": [
        {
          "internalType": "bool",
          "name": "",
          "type": "bool"
        }
      ],
      "stateMutability": "view",
      "type": "function"
    },
    {
      "inputs": [],
      "name": "symbol",
      "outputs": [
        {
          "internalType": "string",
          "name": "",
          "type": "string"
        }
      ],
      "stateMutability": "view",
      "type": "function"
    },
    {
      "inputs": [],
      "name": "totalSupply",
      "outputs": [
        {
          "internalType": "uint256",
          "name": "",
          "type": "uint256"
        }
      ],
      "stateMutability": "view",
      "type": "function"
    },
    {
      "inputs": [
        {
          "internalType": "address",
          "name": "to",
          "type": "address"
        },
        {
          "internalType": "uint256",
          "name": "amount",
          "type": "uint256"
        }
      ],
      "name": "transfer",
      "outputs": [
        {
          "internalType": "bool",
          "name": "",
          "type": "bool"
        }
      ],
      "stateMutability": "nonpayable",
      "type": "function"
    },
    {
      "inputs": [
        {
          "internalType": "address",
          "name": "from",
          "type": "address"
        },
        {
          "internalType": "address",
          "name": "to",
          "type": "address"
        },
        {
          "internalType": "uint256",
          "name": "amount",
          "type": "uint256"
        }
      ],
      "name": "transferFrom",
      "outputs": [
        {
          "internalType": "bool",
          "name": "",
          "type": "bool"
        }
      ],
      "stateMutability": "nonpayable",
      "type": "function"
    },
    {
      "inputs": [
        {
          "internalType": "address",
          "name": "newOwner",
          "type": "address"
        }
      ],
      "name": "transferOwnership",
      "outputs": [],
      "stateMutability": "nonpayable",
      "type": "function"
    },
    {
      "inputs": [
        {
          "internalType": "uint16",
          "name": "",
          "type": "uint16"
        }
      ],
      "name": "trustedRemoteLookup",
      "outputs": [
        {
          "internalType": "bytes",
          "name": "",
          "type": "bytes"
        }
      ],
      "stateMutability": "view",
      "type": "function"
    },
    {
      "inputs": [],
      "name": "useCustomAdapterParams",
      "outputs": [
        {
          "internalType": "bool",
          "name": "",
          "type": "bool"
        }
      ],
      "stateMutability": "view",
      "type": "function"
    }
  ],
  "transactionHash": "0xa49a235ffee45f4552ceb5a50c790c2c86616c9241ebb8493a0c07225f6de308",
  "args": [
    "0xbfD2135BFfbb0B5378b56643c2Df8a87552Bfa23"
  ],
  "numDeployments": 1,
  "solcInputHash": "2dd7811012a9b7226eed28d6d4ecf4a5",
  "bytecode": "0x60a06040523480156200001157600080fd5b506040516200422d3803806200422d8339810160408190526200003491620001f2565b604051806040016040528060048152602001630555344360e41b815250604051806040016040528060048152602001630555344360e41b815250828282828282828080620000916200008b6200012c60201b60201c565b62000130565b6001600160a01b03166080525060099050620000ae8382620002c9565b50600a620000bd8282620002c9565b5050600b805460ff191690555060009550620000df9450506200018092505050565b6000818152600c60209081526040808320338085529083528184208054600160ff199182168117909255958552600d84528285209185529252909120805490921617905550620003bb9050565b3390565b600080546001600160a01b038381166001600160a01b0319831681178455604051919092169283917f8be0079c531659141344cd1fd0a4f28419497f9722a3daafe3b4186f6b6457e09190a35050565b60006080516001600160a01b0316633408e4706040518163ffffffff1660e01b8152600401602060405180830381865afa158015620001c3573d6000803e3d6000fd5b505050506040513d601f19601f82011682018060405250810190620001e9919062000395565b61ffff16905090565b6000602082840312156200020557600080fd5b81516001600160a01b03811681146200021d57600080fd5b9392505050565b634e487b7160e01b600052604160045260246000fd5b600181811c908216806200024f57607f821691505b6020821081036200027057634e487b7160e01b600052602260045260246000fd5b50919050565b601f821115620002c457600081815260208120601f850160051c810160208610156200029f5750805b601f850160051c820191505b81811015620002c057828155600101620002ab565b5050505b505050565b81516001600160401b03811115620002e557620002e562000224565b620002fd81620002f684546200023a565b8462000276565b602080601f8311600181146200033557600084156200031c5750858301515b600019600386901b1c1916600185901b178555620002c0565b600085815260208120601f198616915b82811015620003665788860151825594840194600190910190840162000345565b5085821015620003855787850151600019600388901b60f8161c191681555b5050505050600190811b01905550565b600060208284031215620003a857600080fd5b815161ffff811681146200021d57600080fd5b608051613e1762000416600039600081816107d301528181610a0101528181610d6901528181610e2301528181610f090152818161112d0152818161180c01528181611d95015281816126860152612cbd0152613e176000f3fe60806040526004361061031d5760003560e01c80638da5cb5b116101a5578063baf3292d116100ec578063eb8d72b711610095578063f00c298d1161006f578063f00c298d1461097e578063f18789221461099e578063f2fde38b146109be578063f5ecbdbc146109de57600080fd5b8063eb8d72b714610909578063ec6d062b14610929578063ed629c5c1461096457600080fd5b8063dd62ed3e116100c6578063dd62ed3e14610883578063df2a5b3b146108c9578063eab45d9c146108e957600080fd5b8063baf3292d14610830578063cbed8b9c14610850578063d1deba1f1461087057600080fd5b80639f38369a1161014e578063a9059cbb11610128578063a9059cbb146107a1578063b353aaa7146107c1578063ba03a8d7146107f557600080fd5b80639f38369a14610741578063a457c2d714610761578063a6c3d1651461078157600080fd5b8063950c8a741161017f578063950c8a74146106ec57806395d89b411461070c5780639dc29fac1461072157600080fd5b80638da5cb5b146106855780639169d59e146106b75780639358928b146106d757600080fd5b806340c10f19116102695780635c975abb11610212578063715018a6116101ec578063715018a6146106185780637533d7881461062d5780638cfd8f5c1461064d57600080fd5b80635c975abb146105aa57806366ad5c8a146105c257806370a08231146105e257600080fd5b80634c42899a116102435780634c42899a1461052057806351905636146105485780635b8c41e61461055b57600080fd5b806340c10f19146104cb57806342d65a8d146104eb578063447705151461050b57600080fd5b806318160ddd116102cb578063313ce567116102a5578063313ce5671461046f578063395093511461048b5780633d8b38f6146104ab57600080fd5b806318160ddd146103fb57806323b872dd1461041a5780632a205e3d1461043a57600080fd5b806307e0db17116102fc57806307e0db171461039b578063095ea7b3146103bb57806310ddb137146103db57600080fd5b80621d35671461032257806301ffc9a71461034457806306fdde0314610379575b600080fd5b34801561032e57600080fd5b5061034261033d3660046130c2565b6109fe565b005b34801561035057600080fd5b5061036461035f366004613158565b610c46565b60405190151581526020015b60405180910390f35b34801561038557600080fd5b5061038e610c9d565b60405161037091906131da565b3480156103a757600080fd5b506103426103b63660046131ed565b610d2f565b3480156103c757600080fd5b506103646103d636600461321f565b610dd1565b3480156103e757600080fd5b506103426103f63660046131ed565b610de9565b34801561040757600080fd5b506008545b604051908152602001610370565b34801561042657600080fd5b5061036461043536600461324b565b610e5a565b34801561044657600080fd5b5061045a61045536600461329c565b610e7e565b60408051928352602083019190915201610370565b34801561047b57600080fd5b5060405160128152602001610370565b34801561049757600080fd5b506103646104a636600461321f565b610f99565b3480156104b757600080fd5b506103646104c636600461333c565b610fd8565b3480156104d757600080fd5b506103426104e636600461321f565b6110a4565b3480156104f757600080fd5b5061034261050636600461333c565b6110f5565b34801561051757600080fd5b5061040c600081565b34801561052c57600080fd5b50610535600081565b60405161ffff9091168152602001610370565b610342610556366004613391565b611194565b34801561056757600080fd5b5061040c6105763660046134ca565b6004602090815260009384526040808520845180860184018051928152908401958401959095209452929052825290205481565b3480156105b657600080fd5b50600b5460ff16610364565b3480156105ce57600080fd5b506103426105dd3660046130c2565b611219565b3480156105ee57600080fd5b5061040c6105fd36600461356d565b6001600160a01b031660009081526006602052604090205490565b34801561062457600080fd5b5061034261130c565b34801561063957600080fd5b5061038e6106483660046131ed565b611320565b34801561065957600080fd5b5061040c61066836600461358a565b600260209081526000928352604080842090915290825290205481565b34801561069157600080fd5b506000546001600160a01b03165b6040516001600160a01b039091168152602001610370565b3480156106c357600080fd5b506103426106d23660046135c3565b6113ba565b3480156106e357600080fd5b5061040c611436565b3480156106f857600080fd5b5060035461069f906001600160a01b031681565b34801561071857600080fd5b5061038e611446565b34801561072d57600080fd5b5061034261073c36600461321f565b611455565b34801561074d57600080fd5b5061038e61075c3660046131ed565b611513565b34801561076d57600080fd5b5061036461077c36600461321f565b611629565b34801561078d57600080fd5b5061034261079c36600461333c565b6116d3565b3480156107ad57600080fd5b506103646107bc36600461321f565b61175c565b3480156107cd57600080fd5b5061069f7f000000000000000000000000000000000000000000000000000000000000000081565b34801561080157600080fd5b506103646108103660046135f8565b600c60209081526000928352604080842090915290825290205460ff1681565b34801561083c57600080fd5b5061034261084b36600461356d565b61176a565b34801561085c57600080fd5b5061034261086b36600461361d565b6117d4565b61034261087e3660046130c2565b611877565b34801561088f57600080fd5b5061040c61089e366004613690565b6001600160a01b03918216600090815260076020908152604080832093909416825291909152205490565b3480156108d557600080fd5b506103426108e43660046136be565b611ac5565b3480156108f557600080fd5b506103426109043660046136ee565b611b7f565b34801561091557600080fd5b5061034261092436600461333c565b611bc8565b34801561093557600080fd5b506103646109443660046135f8565b600d60209081526000928352604080842090915290825290205460ff1681565b34801561097057600080fd5b506005546103649060ff1681565b34801561098a57600080fd5b506103426109993660046135c3565b611c22565b3480156109aa57600080fd5b506103426109b93660046136ee565b611c9e565b3480156109ca57600080fd5b506103426109d936600461356d565b611cbe565b3480156109ea57600080fd5b5061038e6109f9366004613709565b611d4b565b337f00000000000000000000000000000000000000000000000000000000000000006001600160a01b031614610a7b5760405162461bcd60e51b815260206004820152601e60248201527f4c7a4170703a20696e76616c696420656e64706f696e742063616c6c6572000060448201526064015b60405180910390fd5b61ffff861660009081526001602052604081208054610a999061375a565b80601f0160208091040260200160405190810160405280929190818152602001828054610ac59061375a565b8015610b125780601f10610ae757610100808354040283529160200191610b12565b820191906000526020600020905b815481529060010190602001808311610af557829003601f168201915b50505050509050805186869050148015610b2d575060008151115b8015610b55575080516020820120604051610b4b9088908890613794565b6040518091039020145b610bc75760405162461bcd60e51b815260206004820152602660248201527f4c7a4170703a20696e76616c696420736f757263652073656e64696e6720636f60448201527f6e747261637400000000000000000000000000000000000000000000000000006064820152608401610a72565b610c3d8787878080601f01602080910402602001604051908101604052809392919081815260200183838082843760009201919091525050604080516020601f8a018190048102820181019092528881528a935091508890889081908401838280828437600092019190915250611e1592505050565b50505050505050565b60006001600160e01b031982161580610c8857506001600160e01b031982167f36372b0700000000000000000000000000000000000000000000000000000000145b80610c975750610c9782611f35565b92915050565b606060098054610cac9061375a565b80601f0160208091040260200160405190810160405280929190818152602001828054610cd89061375a565b8015610d255780601f10610cfa57610100808354040283529160200191610d25565b820191906000526020600020905b815481529060010190602001808311610d0857829003601f168201915b5050505050905090565b610d37611f9c565b6040517f07e0db1700000000000000000000000000000000000000000000000000000000815261ffff821660048201527f00000000000000000000000000000000000000000000000000000000000000006001600160a01b0316906307e0db17906024015b600060405180830381600087803b158015610db657600080fd5b505af1158015610dca573d6000803e3d6000fd5b5050505050565b600033610ddf818585611ff6565b5060019392505050565b610df1611f9c565b6040517f10ddb13700000000000000000000000000000000000000000000000000000000815261ffff821660048201527f00000000000000000000000000000000000000000000000000000000000000006001600160a01b0316906310ddb13790602401610d9c565b600033610e6885828561214f565b610e738585856121e1565b506001949350505050565b6040516bffffffffffffffffffffffff193360601b16602082015260009081908190819060340160408051601f1981840301815290829052610ec992918c908c908c906020016137cd565b60408051601f19818403018152908290527f40a7bb1000000000000000000000000000000000000000000000000000000000825291506001600160a01b037f000000000000000000000000000000000000000000000000000000000000000016906340a7bb1090610f48908d90309086908c908c908c90600401613810565b6040805180830381865afa158015610f64573d6000803e3d6000fd5b505050506040513d601f19601f82011682018060405250810190610f889190613864565b925092505097509795505050505050565b3360008181526007602090815260408083206001600160a01b0387168452909152812054909190610ddf9082908690610fd390879061389e565b611ff6565b61ffff831660009081526001602052604081208054829190610ff99061375a565b80601f01602080910402602001604051908101604052809291908181526020018280546110259061375a565b80156110725780601f1061104757610100808354040283529160200191611072565b820191906000526020600020905b81548152906001019060200180831161105557829003601f168201915b505050505090508383604051611089929190613794565b60405180910390208180519060200120149150509392505050565b6110ae82826123f8565b816001600160a01b03167f30385c845b448a36257a6a1716e6ad2e1bc2cbe333cde1e69fe849ad6511adfe826040516110e991815260200190565b60405180910390a25050565b6110fd611f9c565b6040517f42d65a8d0000000000000000000000000000000000000000000000000000000081526001600160a01b037f000000000000000000000000000000000000000000000000000000000000000016906342d65a8d90611166908690869086906004016138b6565b600060405180830381600087803b15801561118057600080fd5b505af1158015610c3d573d6000803e3d6000fd5b61120e898989898080601f01602080910402602001604051908101604052809392919081815260200183838082843760009201919091525050604080516020601f8a018190048102820181019092528881528c93508b92508a918a908a90819084018382808284376000920191909152506124d792505050565b505050505050505050565b33301461128e5760405162461bcd60e51b815260206004820152602660248201527f4e6f6e626c6f636b696e674c7a4170703a2063616c6c6572206d75737420626560448201527f204c7a41707000000000000000000000000000000000000000000000000000006064820152608401610a72565b6113048686868080601f01602080910402602001604051908101604052809392919081815260200183838082843760009201919091525050604080516020601f8901819004810282018101909252878152899350915087908790819084018382808284376000920191909152506125be92505050565b505050505050565b611314611f9c565b61131e6000612625565b565b600160205260009081526040902080546113399061375a565b80601f01602080910402602001604051908101604052809291908181526020018280546113659061375a565b80156113b25780601f10611387576101008083540402835291602001916113b2565b820191906000526020600020905b81548152906001019060200180831161139557829003601f168201915b505050505081565b6113c2611f9c565b80600d60006113cf612682565b8152602080820192909252604090810160009081206001600160a01b03871680835290845290829020805460ff1916941515949094179093555183151581527fd7b463fb7e7be5d5389dafa46448b883b320f7c77f63a00c9db0e2865ccdb3d791016110e9565b600061144160085490565b905090565b6060600a8054610cac9061375a565b600d6000611461612682565b81526020808201929092526040908101600090812033825290925290205460ff166114ce5760405162461bcd60e51b815260206004820152600c60248201527f756e617574686f72697a656400000000000000000000000000000000000000006044820152606401610a72565b6114d8828261270f565b816001600160a01b03167f696de425f79f4a40bc6d2122ca50507f0efbeabbff86a84871b7196ab8ea8df7826040516110e991815260200190565b61ffff81166000908152600160205260408120805460609291906115369061375a565b80601f01602080910402602001604051908101604052809291908181526020018280546115629061375a565b80156115af5780601f10611584576101008083540402835291602001916115af565b820191906000526020600020905b81548152906001019060200180831161159257829003601f168201915b5050505050905080516000036116075760405162461bcd60e51b815260206004820152601d60248201527f4c7a4170703a206e6f20747275737465642070617468207265636f72640000006044820152606401610a72565b61162260006014835161161a91906138d4565b839190612891565b9392505050565b3360008181526007602090815260408083206001600160a01b0387168452909152812054909190838110156116c65760405162461bcd60e51b815260206004820152602560248201527f45524332303a2064656372656173656420616c6c6f77616e63652062656c6f7760448201527f207a65726f0000000000000000000000000000000000000000000000000000006064820152608401610a72565b610e738286868403611ff6565b6116db611f9c565b8181306040516020016116f0939291906138eb565b60408051601f1981840301815291815261ffff851660009081526001602052209061171b9082613957565b507f8c0400cfe2d1199b1a725c78960bcc2a344d869b80590d0f2bd005db15a572ce83838360405161174f939291906138b6565b60405180910390a1505050565b600033610ddf8185856121e1565b611772611f9c565b6003805473ffffffffffffffffffffffffffffffffffffffff19166001600160a01b0383169081179091556040519081527f5db758e995a17ec1ad84bdef7e8c3293a0bd6179bcce400dff5d4c3d87db726b906020015b60405180910390a150565b6117dc611f9c565b6040517fcbed8b9c0000000000000000000000000000000000000000000000000000000081526001600160a01b037f0000000000000000000000000000000000000000000000000000000000000000169063cbed8b9c906118499088908890889088908890600401613a17565b600060405180830381600087803b15801561186357600080fd5b505af115801561120e573d6000803e3d6000fd5b61ffff8616600090815260046020526040808220905161189a9088908890613794565b908152604080516020928190038301902067ffffffffffffffff8716600090815292529020549050806119355760405162461bcd60e51b815260206004820152602360248201527f4e6f6e626c6f636b696e674c7a4170703a206e6f2073746f726564206d65737360448201527f61676500000000000000000000000000000000000000000000000000000000006064820152608401610a72565b808383604051611946929190613794565b6040518091039020146119c15760405162461bcd60e51b815260206004820152602160248201527f4e6f6e626c6f636b696e674c7a4170703a20696e76616c6964207061796c6f6160448201527f64000000000000000000000000000000000000000000000000000000000000006064820152608401610a72565b61ffff871660009081526004602052604080822090516119e49089908990613794565b908152604080516020928190038301812067ffffffffffffffff8916600090815290845282902093909355601f88018290048202830182019052868252611a7d918991899089908190840183828082843760009201919091525050604080516020601f8a018190048102820181019092528881528a9350915088908890819084018382808284376000920191909152506125be92505050565b7fc264d91f3adc5588250e1551f547752ca0cfa8f6b530d243b9f9f4cab10ea8e58787878785604051611ab4959493929190613a50565b60405180910390a150505050505050565b611acd611f9c565b60008111611b1d5760405162461bcd60e51b815260206004820152601560248201527f4c7a4170703a20696e76616c6964206d696e47617300000000000000000000006044820152606401610a72565b61ffff83811660008181526002602090815260408083209487168084529482529182902085905581519283528201929092529081018290527f9d5c7c0b934da8fefa9c7760c98383778a12dfbfc0c3b3106518f43fb9508ac09060600161174f565b611b87611f9c565b6005805460ff19168215159081179091556040519081527f1584ad594a70cbe1e6515592e1272a987d922b097ead875069cebe8b40c004a4906020016117c9565b611bd0611f9c565b61ffff83166000908152600160205260409020611bee828483613a8c565b507ffa41487ad5d6728f0b19276fa1eddc16558578f5109fc39d2dc33c3230470dab83838360405161174f939291906138b6565b611c2a611f9c565b80600c6000611c37612682565b8152602080820192909252604090810160009081206001600160a01b03871680835290845290829020805460ff1916941515949094179093555183151581527f53b8f1e625ffdc96b26d9f5c6bba4ebc3f54077767495fa2619d32b285e193b991016110e9565b611ca6611f9c565b80611cb657611cb36129b9565b50565b611cb3612a0b565b611cc6611f9c565b6001600160a01b038116611d425760405162461bcd60e51b815260206004820152602660248201527f4f776e61626c653a206e6577206f776e657220697320746865207a65726f206160448201527f64647265737300000000000000000000000000000000000000000000000000006064820152608401610a72565b611cb381612625565b6040517ff5ecbdbc00000000000000000000000000000000000000000000000000000000815261ffff808616600483015284166024820152306044820152606481018290526060907f00000000000000000000000000000000000000000000000000000000000000006001600160a01b03169063f5ecbdbc90608401600060405180830381865afa158015611de4573d6000803e3d6000fd5b505050506040513d6000823e601f3d908101601f19168201604052611e0c9190810190613b99565b95945050505050565b600080611e8d5a60966366ad5c8a60e01b89898989604051602401611e3d9493929190613bce565b60408051601f198184030181529190526020810180517bffffffffffffffffffffffffffffffffffffffffffffffffffffffff166001600160e01b03199093169290921790915230929190612a48565b9150915081611304578280519060200120600460008861ffff1661ffff16815260200190815260200160002086604051611ec79190613c0d565b90815260408051918290036020908101832067ffffffffffffffff89166000908152915220919091557fe183f33de2837795525b4792ca4cd60535bd77c53b7e7030060bfcf5734d6b0c90611f259088908890889088908790613c29565b60405180910390a1505050505050565b60006001600160e01b031982167fe8e89a80000000000000000000000000000000000000000000000000000000001480610c9757507f01ffc9a7000000000000000000000000000000000000000000000000000000006001600160e01b0319831614610c97565b6000546001600160a01b0316331461131e5760405162461bcd60e51b815260206004820181905260248201527f4f776e61626c653a2063616c6c6572206973206e6f7420746865206f776e65726044820152606401610a72565b6001600160a01b0383166120715760405162461bcd60e51b8152602060048201526024808201527f45524332303a20617070726f76652066726f6d20746865207a65726f2061646460448201527f72657373000000000000000000000000000000000000000000000000000000006064820152608401610a72565b6001600160a01b0382166120ed5760405162461bcd60e51b815260206004820152602260248201527f45524332303a20617070726f766520746f20746865207a65726f20616464726560448201527f73730000000000000000000000000000000000000000000000000000000000006064820152608401610a72565b6001600160a01b0383811660008181526007602090815260408083209487168084529482529182902085905590518481527f8c5be1e5ebec7d5bd14f71427d1e84f3dd0314c0f7b2291e5b200ac8c7c3b92591015b60405180910390a3505050565b6001600160a01b0383811660009081526007602090815260408083209386168352929052205460001981146121db57818110156121ce5760405162461bcd60e51b815260206004820152601d60248201527f45524332303a20696e73756666696369656e7420616c6c6f77616e63650000006044820152606401610a72565b6121db8484848403611ff6565b50505050565b6001600160a01b03831661225d5760405162461bcd60e51b815260206004820152602560248201527f45524332303a207472616e736665722066726f6d20746865207a65726f20616460448201527f64726573730000000000000000000000000000000000000000000000000000006064820152608401610a72565b6001600160a01b0382166122d95760405162461bcd60e51b815260206004820152602360248201527f45524332303a207472616e7366657220746f20746865207a65726f206164647260448201527f65737300000000000000000000000000000000000000000000000000000000006064820152608401610a72565b6001600160a01b038316600090815260066020526040902054818110156123685760405162461bcd60e51b815260206004820152602660248201527f45524332303a207472616e7366657220616d6f756e742065786365656473206260448201527f616c616e636500000000000000000000000000000000000000000000000000006064820152608401610a72565b6001600160a01b0380851660009081526006602052604080822085850390559185168152908120805484929061239f90849061389e565b92505081905550826001600160a01b0316846001600160a01b03167fddf252ad1be2c89b69c2b068fc378daa952ba7f163c4a11628f55a4df523b3ef846040516123eb91815260200190565b60405180910390a36121db565b6001600160a01b03821661244e5760405162461bcd60e51b815260206004820152601f60248201527f45524332303a206d696e7420746f20746865207a65726f2061646472657373006044820152606401610a72565b8060086000828254612460919061389e565b90915550506001600160a01b0382166000908152600660205260408120805483929061248d90849061389e565b90915550506040518181526001600160a01b038316906000907fddf252ad1be2c89b69c2b068fc378daa952ba7f163c4a11628f55a4df523b3ef9060200160405180910390a35050565b6124e5866000836000612ad3565b6124f187878787612b64565b6040516bffffffffffffffffffffffff19606089901b166020820152600090819060340160408051601f1981840301815290829052612537929189908990602001613c88565b6040516020818303038152906040529050612556878286868634612b78565b856040516125649190613c0d565b6040518091039020886001600160a01b03168861ffff167f39a4c66499bcf4b56d79f0dde8ed7a9d4925a0df55825206b2b8531e202be0d0886040516125ac91815260200190565b60405180910390a45050505050505050565b602081015161ffff81166125dd576125d885858585612d39565b610dca565b60405162461bcd60e51b815260206004820152601c60248201527f4f4654436f72653a20756e6b6e6f776e207061636b65742074797065000000006044820152606401610a72565b600080546001600160a01b0383811673ffffffffffffffffffffffffffffffffffffffff19831681178455604051919092169283917f8be0079c531659141344cd1fd0a4f28419497f9722a3daafe3b4186f6b6457e09190a35050565b60007f00000000000000000000000000000000000000000000000000000000000000006001600160a01b0316633408e4706040518163ffffffff1660e01b8152600401602060405180830381865afa1580156126e2573d6000803e3d6000fd5b505050506040513d601f19601f820116820180604052508101906127069190613cc9565b61ffff16905090565b6001600160a01b03821661278b5760405162461bcd60e51b815260206004820152602160248201527f45524332303a206275726e2066726f6d20746865207a65726f2061646472657360448201527f73000000000000000000000000000000000000000000000000000000000000006064820152608401610a72565b6001600160a01b0382166000908152600660205260409020548181101561281a5760405162461bcd60e51b815260206004820152602260248201527f45524332303a206275726e20616d6f756e7420657863656564732062616c616e60448201527f63650000000000000000000000000000000000000000000000000000000000006064820152608401610a72565b6001600160a01b03831660009081526006602052604081208383039055600880548492906128499084906138d4565b90915550506040518281526000906001600160a01b038516907fddf252ad1be2c89b69c2b068fc378daa952ba7f163c4a11628f55a4df523b3ef90602001612142565b505050565b60608161289f81601f61389e565b10156128ed5760405162461bcd60e51b815260206004820152600e60248201527f736c6963655f6f766572666c6f770000000000000000000000000000000000006044820152606401610a72565b6128f7828461389e565b845110156129475760405162461bcd60e51b815260206004820152601160248201527f736c6963655f6f75744f66426f756e64730000000000000000000000000000006044820152606401610a72565b60608215801561296657604051915060008252602082016040526129b0565b6040519150601f8416801560200281840101858101878315602002848b0101015b8183101561299f578051835260209283019201612987565b5050858452601f01601f1916604052505b50949350505050565b6129c1612dc6565b600b805460ff191690557f5db9ee0a495bf2e6ff9c91a7834c1ba4fdd244a5e8aa4e537bd38aeae4b073aa335b6040516001600160a01b03909116815260200160405180910390a1565b612a13612e18565b600b805460ff191660011790557f62e78cea01bee320cd4e420270b5ea74000d11b0c9f74754ebdbfc544b05a2586129ee3390565b6000606060008060008661ffff1667ffffffffffffffff811115612a6e57612a6e61345b565b6040519080825280601f01601f191660200182016040528015612a98576020820181803683370190505b50905060008087516020890160008d8df191503d925086831115612aba578692505b828152826000602083013e909890975095505050505050565b60055460ff1615612aef57612aea84848484612e6b565b6121db565b8151156121db5760405162461bcd60e51b815260206004820152602660248201527f4f4654436f72653a205f61646170746572506172616d73206d7573742062652060448201527f656d7074792e00000000000000000000000000000000000000000000000000006064820152608401610a72565b612b6c612e18565b6121db84848484612f4a565b61ffff861660009081526001602052604081208054612b969061375a565b80601f0160208091040260200160405190810160405280929190818152602001828054612bc29061375a565b8015612c0f5780601f10612be457610100808354040283529160200191612c0f565b820191906000526020600020905b815481529060010190602001808311612bf257829003601f168201915b505050505090508051600003612c8d5760405162461bcd60e51b815260206004820152603060248201527f4c7a4170703a2064657374696e6174696f6e20636861696e206973206e6f742060448201527f61207472757374656420736f75726365000000000000000000000000000000006064820152608401610a72565b6040517fc58031000000000000000000000000000000000000000000000000000000000081526001600160a01b037f0000000000000000000000000000000000000000000000000000000000000000169063c5803100908490612cfe908b9086908c908c908c908c90600401613ce6565b6000604051808303818588803b158015612d1757600080fd5b505af1158015612d2b573d6000803e3d6000fd5b505050505050505050505050565b600080600083806020019051810190612d529190613d40565b9195509350915060009050612d678382612f70565b9050612d74888284612fe6565b806001600160a01b03168861ffff167f776434b505c7beb3db155c58df6c88985bf7c31730767e43ec773005059fed7a8685604051612db4929190613dbf565b60405180910390a35050505050505050565b600b5460ff1661131e5760405162461bcd60e51b815260206004820152601460248201527f5061757361626c653a206e6f74207061757365640000000000000000000000006044820152606401610a72565b600b5460ff161561131e5760405162461bcd60e51b815260206004820152601060248201527f5061757361626c653a20706175736564000000000000000000000000000000006044820152606401610a72565b6000612e7683612ff0565b61ffff808716600090815260026020908152604080832093891683529290529081205491925090612ea890849061389e565b905060008111612efa5760405162461bcd60e51b815260206004820152601a60248201527f4c7a4170703a206d696e4761734c696d6974206e6f74207365740000000000006044820152606401610a72565b808210156113045760405162461bcd60e51b815260206004820152601b60248201527f4c7a4170703a20676173206c696d697420697320746f6f206c6f7700000000006044820152606401610a72565b336001600160a01b0385168114612f6657612f6685828461214f565b610dca858361270f565b6000612f7d82601461389e565b83511015612fcd5760405162461bcd60e51b815260206004820152601560248201527f746f416464726573735f6f75744f66426f756e647300000000000000000000006044820152606401610a72565b5001602001516c01000000000000000000000000900490565b61288c82826123f8565b60006022825110156130445760405162461bcd60e51b815260206004820152601c60248201527f4c7a4170703a20696e76616c69642061646170746572506172616d73000000006044820152606401610a72565b506022015190565b61ffff81168114611cb357600080fd5b60008083601f84011261306e57600080fd5b50813567ffffffffffffffff81111561308657600080fd5b60208301915083602082850101111561309e57600080fd5b9250929050565b803567ffffffffffffffff811681146130bd57600080fd5b919050565b600080600080600080608087890312156130db57600080fd5b86356130e68161304c565b9550602087013567ffffffffffffffff8082111561310357600080fd5b61310f8a838b0161305c565b909750955085915061312360408a016130a5565b9450606089013591508082111561313957600080fd5b5061314689828a0161305c565b979a9699509497509295939492505050565b60006020828403121561316a57600080fd5b81356001600160e01b03198116811461162257600080fd5b60005b8381101561319d578181015183820152602001613185565b838111156121db5750506000910152565b600081518084526131c6816020860160208601613182565b601f01601f19169290920160200192915050565b60208152600061162260208301846131ae565b6000602082840312156131ff57600080fd5b81356116228161304c565b6001600160a01b0381168114611cb357600080fd5b6000806040838503121561323257600080fd5b823561323d8161320a565b946020939093013593505050565b60008060006060848603121561326057600080fd5b833561326b8161320a565b9250602084013561327b8161320a565b929592945050506040919091013590565b803580151581146130bd57600080fd5b600080600080600080600060a0888a0312156132b757600080fd5b87356132c28161304c565b9650602088013567ffffffffffffffff808211156132df57600080fd5b6132eb8b838c0161305c565b909850965060408a0135955086915061330660608b0161328c565b945060808a013591508082111561331c57600080fd5b506133298a828b0161305c565b989b979a50959850939692959293505050565b60008060006040848603121561335157600080fd5b833561335c8161304c565b9250602084013567ffffffffffffffff81111561337857600080fd5b6133848682870161305c565b9497909650939450505050565b600080600080600080600080600060e08a8c0312156133af57600080fd5b89356133ba8161320a565b985060208a01356133ca8161304c565b975060408a013567ffffffffffffffff808211156133e757600080fd5b6133f38d838e0161305c565b909950975060608c0135965060808c0135915061340f8261320a565b90945060a08b0135906134218261320a565b90935060c08b0135908082111561343757600080fd5b506134448c828d0161305c565b915080935050809150509295985092959850929598565b634e487b7160e01b600052604160045260246000fd5b604051601f8201601f1916810167ffffffffffffffff8111828210171561349a5761349a61345b565b604052919050565b600067ffffffffffffffff8211156134bc576134bc61345b565b50601f01601f191660200190565b6000806000606084860312156134df57600080fd5b83356134ea8161304c565b9250602084013567ffffffffffffffff81111561350657600080fd5b8401601f8101861361351757600080fd5b803561352a613525826134a2565b613471565b81815287602083850101111561353f57600080fd5b81602084016020830137600060208383010152809450505050613564604085016130a5565b90509250925092565b60006020828403121561357f57600080fd5b81356116228161320a565b6000806040838503121561359d57600080fd5b82356135a88161304c565b915060208301356135b88161304c565b809150509250929050565b600080604083850312156135d657600080fd5b82356135e18161320a565b91506135ef6020840161328c565b90509250929050565b6000806040838503121561360b57600080fd5b8235915060208301356135b88161320a565b60008060008060006080868803121561363557600080fd5b85356136408161304c565b945060208601356136508161304c565b935060408601359250606086013567ffffffffffffffff81111561367357600080fd5b61367f8882890161305c565b969995985093965092949392505050565b600080604083850312156136a357600080fd5b82356136ae8161320a565b915060208301356135b88161320a565b6000806000606084860312156136d357600080fd5b83356136de8161304c565b9250602084013561327b8161304c565b60006020828403121561370057600080fd5b6116228261328c565b6000806000806080858703121561371f57600080fd5b843561372a8161304c565b9350602085013561373a8161304c565b9250604085013561374a8161320a565b9396929550929360600135925050565b600181811c9082168061376e57607f821691505b60208210810361378e57634e487b7160e01b600052602260045260246000fd5b50919050565b8183823760009101908152919050565b81835281816020850137506000828201602090810191909152601f909101601f19169091010190565b61ffff861681526080602082015260006137ea60808301876131ae565b82810360408401526137fd8186886137a4565b9150508260608301529695505050505050565b61ffff871681526001600160a01b038616602082015260a06040820152600061383c60a08301876131ae565b851515606084015282810360808401526138578185876137a4565b9998505050505050505050565b6000806040838503121561387757600080fd5b505080516020909101519092909150565b634e487b7160e01b600052601160045260246000fd5b600082198211156138b1576138b1613888565b500190565b61ffff84168152604060208201526000611e0c6040830184866137a4565b6000828210156138e6576138e6613888565b500390565b8284823760609190911b6bffffffffffffffffffffffff19169101908152601401919050565b601f82111561288c57600081815260208120601f850160051c810160208610156139385750805b601f850160051c820191505b8181101561130457828155600101613944565b815167ffffffffffffffff8111156139715761397161345b565b6139858161397f845461375a565b84613911565b602080601f8311600181146139ba57600084156139a25750858301515b600019600386901b1c1916600185901b178555611304565b600085815260208120601f198616915b828110156139e9578886015182559484019460019091019084016139ca565b5085821015613a075787850151600019600388901b60f8161c191681555b5050505050600190811b01905550565b600061ffff808816835280871660208401525084604083015260806060830152613a456080830184866137a4565b979650505050505050565b61ffff86168152608060208201526000613a6e6080830186886137a4565b67ffffffffffffffff94909416604083015250606001529392505050565b67ffffffffffffffff831115613aa457613aa461345b565b613ab883613ab2835461375a565b83613911565b6000601f841160018114613aec5760008515613ad45750838201355b600019600387901b1c1916600186901b178355610dca565b600083815260209020601f19861690835b82811015613b1d5786850135825560209485019460019092019101613afd565b5086821015613b3a5760001960f88860031b161c19848701351681555b505060018560011b0183555050505050565b600082601f830112613b5d57600080fd5b8151613b6b613525826134a2565b818152846020838601011115613b8057600080fd5b613b91826020830160208701613182565b949350505050565b600060208284031215613bab57600080fd5b815167ffffffffffffffff811115613bc257600080fd5b613b9184828501613b4c565b61ffff85168152608060208201526000613beb60808301866131ae565b67ffffffffffffffff851660408401528281036060840152613a4581856131ae565b60008251613c1f818460208701613182565b9190910192915050565b61ffff8616815260a060208201526000613c4660a08301876131ae565b67ffffffffffffffff861660408401528281036060840152613c6881866131ae565b90508281036080840152613c7c81856131ae565b98975050505050505050565b61ffff85168152608060208201526000613ca560808301866131ae565b8281036040840152613cb781866131ae565b91505082606083015295945050505050565b600060208284031215613cdb57600080fd5b81516116228161304c565b61ffff8716815260c060208201526000613d0360c08301886131ae565b8281036040840152613d1581886131ae565b6001600160a01b0387811660608601528616608085015283810360a0850152905061385781856131ae565b60008060008060808587031215613d5657600080fd5b8451613d618161304c565b602086015190945067ffffffffffffffff80821115613d7f57600080fd5b613d8b88838901613b4c565b94506040870151915080821115613da157600080fd5b50613dae87828801613b4c565b606096909601519497939650505050565b604081526000613dd260408301856131ae565b9050826020830152939250505056fea2646970667358221220ca811fc48149d4c5d637d30ce488ffe372118c675af2c8f6503c8ad12e7cb4e764736f6c634300080f0033",
  "devdoc": {
    "kind": "dev",
    "methods": {
      "allowance(address,address)": {
        "details": "See {IERC20-allowance}."
      },
      "approve(address,uint256)": {
        "details": "See {IERC20-approve}. NOTE: If `amount` is the maximum `uint256`, the allowance is not updated on `transferFrom`. This is semantically equivalent to an infinite approval. Requirements: - `spender` cannot be the zero address."
      },
      "balanceOf(address)": {
        "details": "See {IERC20-balanceOf}."
      },
      "burn(address,uint256)": {
        "params": {
          "_amount": "the amount to burn",
          "_from": "address to burn from"
        }
      },
      "circulatingSupply()": {
        "details": "returns the circulating amount of tokens on current chain"
      },
      "constructor": {
        "params": {
          "_lzEndpoint": "LayerZero endpoint"
        }
      },
      "decreaseAllowance(address,uint256)": {
        "details": "Atomically decreases the allowance granted to `spender` by the caller. This is an alternative to {approve} that can be used as a mitigation for problems described in {IERC20-approve}. Emits an {Approval} event indicating the updated allowance. Requirements: - `spender` cannot be the zero address. - `spender` must have allowance for the caller of at least `subtractedValue`."
      },
      "estimateSendFee(uint16,bytes,uint256,bool,bytes)": {
        "details": "estimate send token `_tokenId` to (`_dstChainId`, `_toAddress`) _dstChainId - L0 defined chain id to send tokens too _toAddress - dynamic bytes array which contains the address to whom you are sending tokens to on the dstChain _amount - amount of the tokens to transfer _useZro - indicates to use zro to pay L0 fees _adapterParam - flexible bytes array to indicate messaging adapter services in L0"
      },
      "increaseAllowance(address,uint256)": {
        "details": "Atomically increases the allowance granted to `spender` by the caller. This is an alternative to {approve} that can be used as a mitigation for problems described in {IERC20-approve}. Emits an {Approval} event indicating the updated allowance. Requirements: - `spender` cannot be the zero address."
      },
      "mint(address,uint256)": {
        "params": {
          "_amount": "the amount to mint",
          "_to": "receiver address"
        }
      },
      "name()": {
        "details": "Returns the name of the token."
      },
      "owner()": {
        "details": "Returns the address of the current owner."
      },
      "paused()": {
        "details": "Returns true if the contract is paused, and false otherwise."
      },
      "renounceOwnership()": {
        "details": "Leaves the contract without owner. It will not be possible to call `onlyOwner` functions anymore. Can only be called by the current owner. NOTE: Renouncing ownership will leave the contract without an owner, thereby removing any functionality that is only available to the owner."
      },
      "sendFrom(address,uint16,bytes,uint256,address,address,bytes)": {
        "details": "send `_amount` amount of token to (`_dstChainId`, `_toAddress`) from `_from` `_from` the owner of token `_dstChainId` the destination chain identifier `_toAddress` can be any size depending on the `dstChainId`. `_amount` the quantity of tokens in wei `_refundAddress` the address LayerZero refunds if too much message fee is sent `_zroPaymentAddress` set to address(0x0) if not paying in ZRO (LayerZero Token) `_adapterParams` is a flexible bytes array to indicate messaging adapter services"
      },
      "setBurnerStatus(address,bool)": {
        "params": {
          "_for": "role receiver",
          "_status": "true/false"
        }
      },
      "setMinterStatus(address,bool)": {
        "params": {
          "_for": "role receiver",
          "_status": "true/false"
        }
      },
      "symbol()": {
        "details": "Returns the symbol of the token, usually a shorter version of the name."
      },
      "totalSupply()": {
        "details": "See {IERC20-totalSupply}."
      },
      "transfer(address,uint256)": {
        "details": "See {IERC20-transfer}. Requirements: - `to` cannot be the zero address. - the caller must have a balance of at least `amount`."
      },
      "transferFrom(address,address,uint256)": {
        "details": "See {IERC20-transferFrom}. Emits an {Approval} event indicating the updated allowance. This is not required by the EIP. See the note at the beginning of {ERC20}. NOTE: Does not update the allowance if the current allowance is the maximum `uint256`. Requirements: - `from` and `to` cannot be the zero address. - `from` must have a balance of at least `amount`. - the caller must have allowance for ``from``'s tokens of at least `amount`."
      },
      "transferOwnership(address)": {
        "details": "Transfers ownership of the contract to a new account (`newOwner`). Can only be called by the current owner."
      }
    },
    "stateVariables": {
      "allowedBurner": {
        "details": "chainId>address>status"
      },
      "allowedMinter": {
        "details": "chainId>address>status"
      }
    },
    "title": "USD0 OFT contract",
    "version": 1
  },
  "userdoc": {
    "kind": "user",
    "methods": {
      "allowedBurner(uint256,address)": {
        "notice": "addresses allowed to burn USD0"
      },
      "allowedMinter(uint256,address)": {
        "notice": "addresses allowed to mint USD0"
      },
      "burn(address,uint256)": {
        "notice": "burns USD0"
      },
      "constructor": {
        "notice": "creates a new USDO0 OFT contract"
      },
      "decimals()": {
        "notice": "returns token's decimals"
      },
      "mint(address,uint256)": {
        "notice": "mints USD0"
      },
      "setBurnerStatus(address,bool)": {
        "notice": "sets/unsets address as burner"
      },
      "setMinterStatus(address,bool)": {
        "notice": "sets/unsets address as minter"
      }
    },
    "version": 1
  },
  "storageLayout": {
    "storage": [
      {
        "astId": 2198,
        "contract": "contracts/usd0/USD0.sol:USD0",
        "label": "_owner",
        "offset": 0,
        "slot": "0",
        "type": "t_address"
      },
      {
        "astId": 20438,
        "contract": "contracts/usd0/USD0.sol:USD0",
        "label": "trustedRemoteLookup",
        "offset": 0,
        "slot": "1",
        "type": "t_mapping(t_uint16,t_bytes_storage)"
      },
      {
        "astId": 20444,
        "contract": "contracts/usd0/USD0.sol:USD0",
        "label": "minDstGasLookup",
        "offset": 0,
        "slot": "2",
        "type": "t_mapping(t_uint16,t_mapping(t_uint16,t_uint256))"
      },
      {
        "astId": 20446,
        "contract": "contracts/usd0/USD0.sol:USD0",
        "label": "precrime",
        "offset": 0,
        "slot": "3",
        "type": "t_address"
      },
      {
        "astId": 20931,
        "contract": "contracts/usd0/USD0.sol:USD0",
        "label": "failedMessages",
        "offset": 0,
        "slot": "4",
        "type": "t_mapping(t_uint16,t_mapping(t_bytes_memory_ptr,t_mapping(t_uint64,t_bytes32)))"
      },
      {
        "astId": 21351,
        "contract": "contracts/usd0/USD0.sol:USD0",
        "label": "useCustomAdapterParams",
        "offset": 0,
        "slot": "5",
        "type": "t_bool"
      },
      {
        "astId": 2467,
        "contract": "contracts/usd0/USD0.sol:USD0",
        "label": "_balances",
        "offset": 0,
        "slot": "6",
        "type": "t_mapping(t_address,t_uint256)"
      },
      {
        "astId": 2473,
        "contract": "contracts/usd0/USD0.sol:USD0",
        "label": "_allowances",
        "offset": 0,
        "slot": "7",
        "type": "t_mapping(t_address,t_mapping(t_address,t_uint256))"
      },
      {
        "astId": 2475,
        "contract": "contracts/usd0/USD0.sol:USD0",
        "label": "_totalSupply",
        "offset": 0,
        "slot": "8",
        "type": "t_uint256"
      },
      {
        "astId": 2477,
        "contract": "contracts/usd0/USD0.sol:USD0",
        "label": "_name",
        "offset": 0,
        "slot": "9",
        "type": "t_string_storage"
      },
      {
        "astId": 2479,
        "contract": "contracts/usd0/USD0.sol:USD0",
        "label": "_symbol",
        "offset": 0,
        "slot": "10",
        "type": "t_string_storage"
      },
      {
        "astId": 2321,
        "contract": "contracts/usd0/USD0.sol:USD0",
        "label": "_paused",
        "offset": 0,
        "slot": "11",
        "type": "t_bool"
      },
      {
        "astId": 10425,
        "contract": "contracts/usd0/USD0.sol:USD0",
        "label": "allowedMinter",
        "offset": 0,
        "slot": "12",
        "type": "t_mapping(t_uint256,t_mapping(t_address,t_bool))"
      },
      {
        "astId": 10432,
        "contract": "contracts/usd0/USD0.sol:USD0",
        "label": "allowedBurner",
        "offset": 0,
        "slot": "13",
        "type": "t_mapping(t_uint256,t_mapping(t_address,t_bool))"
      }
    ],
    "types": {
      "t_address": {
        "encoding": "inplace",
        "label": "address",
        "numberOfBytes": "20"
      },
      "t_bool": {
        "encoding": "inplace",
        "label": "bool",
        "numberOfBytes": "1"
      },
      "t_bytes32": {
        "encoding": "inplace",
        "label": "bytes32",
        "numberOfBytes": "32"
      },
      "t_bytes_memory_ptr": {
        "encoding": "bytes",
        "label": "bytes",
        "numberOfBytes": "32"
      },
      "t_bytes_storage": {
        "encoding": "bytes",
        "label": "bytes",
        "numberOfBytes": "32"
      },
      "t_mapping(t_address,t_bool)": {
        "encoding": "mapping",
        "key": "t_address",
        "label": "mapping(address => bool)",
        "numberOfBytes": "32",
        "value": "t_bool"
      },
      "t_mapping(t_address,t_mapping(t_address,t_uint256))": {
        "encoding": "mapping",
        "key": "t_address",
        "label": "mapping(address => mapping(address => uint256))",
        "numberOfBytes": "32",
        "value": "t_mapping(t_address,t_uint256)"
      },
      "t_mapping(t_address,t_uint256)": {
        "encoding": "mapping",
        "key": "t_address",
        "label": "mapping(address => uint256)",
        "numberOfBytes": "32",
        "value": "t_uint256"
      },
      "t_mapping(t_bytes_memory_ptr,t_mapping(t_uint64,t_bytes32))": {
        "encoding": "mapping",
        "key": "t_bytes_memory_ptr",
        "label": "mapping(bytes => mapping(uint64 => bytes32))",
        "numberOfBytes": "32",
        "value": "t_mapping(t_uint64,t_bytes32)"
      },
      "t_mapping(t_uint16,t_bytes_storage)": {
        "encoding": "mapping",
        "key": "t_uint16",
        "label": "mapping(uint16 => bytes)",
        "numberOfBytes": "32",
        "value": "t_bytes_storage"
      },
      "t_mapping(t_uint16,t_mapping(t_bytes_memory_ptr,t_mapping(t_uint64,t_bytes32)))": {
        "encoding": "mapping",
        "key": "t_uint16",
        "label": "mapping(uint16 => mapping(bytes => mapping(uint64 => bytes32)))",
        "numberOfBytes": "32",
        "value": "t_mapping(t_bytes_memory_ptr,t_mapping(t_uint64,t_bytes32))"
      },
      "t_mapping(t_uint16,t_mapping(t_uint16,t_uint256))": {
        "encoding": "mapping",
        "key": "t_uint16",
        "label": "mapping(uint16 => mapping(uint16 => uint256))",
        "numberOfBytes": "32",
        "value": "t_mapping(t_uint16,t_uint256)"
      },
      "t_mapping(t_uint16,t_uint256)": {
        "encoding": "mapping",
        "key": "t_uint16",
        "label": "mapping(uint16 => uint256)",
        "numberOfBytes": "32",
        "value": "t_uint256"
      },
      "t_mapping(t_uint256,t_mapping(t_address,t_bool))": {
        "encoding": "mapping",
        "key": "t_uint256",
        "label": "mapping(uint256 => mapping(address => bool))",
        "numberOfBytes": "32",
        "value": "t_mapping(t_address,t_bool)"
      },
      "t_mapping(t_uint64,t_bytes32)": {
        "encoding": "mapping",
        "key": "t_uint64",
        "label": "mapping(uint64 => bytes32)",
        "numberOfBytes": "32",
        "value": "t_bytes32"
      },
      "t_string_storage": {
        "encoding": "bytes",
        "label": "string",
        "numberOfBytes": "32"
      },
      "t_uint16": {
        "encoding": "inplace",
        "label": "uint16",
        "numberOfBytes": "2"
      },
      "t_uint256": {
        "encoding": "inplace",
        "label": "uint256",
        "numberOfBytes": "32"
      },
      "t_uint64": {
        "encoding": "inplace",
        "label": "uint64",
        "numberOfBytes": "8"
      }
    }
  }
}