{
  "address": "0xBc223d1c84c5F53f1056150D81B421377b76a0D5",
  "abi": [
    {
      "inputs": [
        {
          "internalType": "address",
          "name": "_lzEndpoint",
          "type": "address"
        },
        {
          "internalType": "contract IYieldBox",
          "name": "_yieldBox",
          "type": "address"
        }
      ],
      "stateMutability": "nonpayable",
      "type": "constructor"
    },
    {
      "inputs": [],
      "name": "TOFT_YB_ETHDeposit",
      "type": "error"
    },
    {
      "anonymous": false,
      "inputs": [
        {
          "indexed": true,
          "internalType": "address",
          "name": "owner",
          "type": "address"
        },
        {
          "indexed": true,
          "internalType": "address",
          "name": "spender",
          "type": "address"
        },
        {
          "indexed": false,
          "internalType": "uint256",
          "name": "value",
          "type": "uint256"
        }
      ],
      "name": "Approval",
      "type": "event"
    },
    {
      "anonymous": false,
      "inputs": [
        {
          "indexed": true,
          "internalType": "address",
          "name": "_from",
          "type": "address"
        },
        {
          "indexed": false,
          "internalType": "uint256",
          "name": "_amount",
          "type": "uint256"
        }
      ],
      "name": "Burned",
      "type": "event"
    },
    {
      "anonymous": false,
      "inputs": [
        {
          "indexed": true,
          "internalType": "address",
          "name": "old",
          "type": "address"
        },
        {
          "indexed": true,
          "internalType": "address",
          "name": "_new",
          "type": "address"
        }
      ],
      "name": "ConservatorUpdated",
      "type": "event"
    },
    {
      "anonymous": false,
      "inputs": [
        {
          "indexed": false,
          "internalType": "uint256",
          "name": "_old",
          "type": "uint256"
        },
        {
          "indexed": false,
          "internalType": "uint256",
          "name": "_new",
          "type": "uint256"
        }
      ],
      "name": "FlashMintFeeUpdated",
      "type": "event"
    },
    {
      "anonymous": false,
      "inputs": [
        {
          "indexed": false,
          "internalType": "uint256",
          "name": "_old",
          "type": "uint256"
        },
        {
          "indexed": false,
          "internalType": "uint256",
          "name": "_new",
          "type": "uint256"
        }
      ],
      "name": "MaxFlashMintUpdated",
      "type": "event"
    },
    {
      "anonymous": false,
      "inputs": [
        {
          "indexed": false,
          "internalType": "uint16",
          "name": "_srcChainId",
          "type": "uint16"
        },
        {
          "indexed": false,
          "internalType": "bytes",
          "name": "_srcAddress",
          "type": "bytes"
        },
        {
          "indexed": false,
          "internalType": "uint64",
          "name": "_nonce",
          "type": "uint64"
        },
        {
          "indexed": false,
          "internalType": "bytes",
          "name": "_payload",
          "type": "bytes"
        },
        {
          "indexed": false,
          "internalType": "bytes",
          "name": "_reason",
          "type": "bytes"
        }
      ],
      "name": "MessageFailed",
      "type": "event"
    },
    {
      "anonymous": false,
      "inputs": [
        {
          "indexed": true,
          "internalType": "address",
          "name": "_for",
          "type": "address"
        },
        {
          "indexed": false,
          "internalType": "uint256",
          "name": "_amount",
          "type": "uint256"
        }
      ],
      "name": "Minted",
      "type": "event"
    },
    {
      "anonymous": false,
      "inputs": [
        {
          "indexed": true,
          "internalType": "address",
          "name": "previousOwner",
          "type": "address"
        },
        {
          "indexed": true,
          "internalType": "address",
          "name": "newOwner",
          "type": "address"
        }
      ],
      "name": "OwnershipTransferred",
      "type": "event"
    },
    {
      "anonymous": false,
      "inputs": [
        {
          "indexed": false,
          "internalType": "bool",
          "name": "oldState",
          "type": "bool"
        },
        {
          "indexed": false,
          "internalType": "bool",
          "name": "newState",
          "type": "bool"
        }
      ],
      "name": "PausedUpdated",
      "type": "event"
    },
    {
      "anonymous": false,
      "inputs": [
        {
          "indexed": true,
          "internalType": "uint16",
          "name": "_srcChainId",
          "type": "uint16"
        },
        {
          "indexed": true,
          "internalType": "address",
          "name": "_to",
          "type": "address"
        },
        {
          "indexed": false,
          "internalType": "uint256",
          "name": "_amount",
          "type": "uint256"
        }
      ],
      "name": "ReceiveFromChain",
      "type": "event"
    },
    {
      "anonymous": false,
      "inputs": [
        {
          "indexed": false,
          "internalType": "uint16",
          "name": "_srcChainId",
          "type": "uint16"
        },
        {
          "indexed": false,
          "internalType": "bytes",
          "name": "_srcAddress",
          "type": "bytes"
        },
        {
          "indexed": false,
          "internalType": "uint64",
          "name": "_nonce",
          "type": "uint64"
        },
        {
          "indexed": false,
          "internalType": "bytes32",
          "name": "_payloadHash",
          "type": "bytes32"
        }
      ],
      "name": "RetryMessageSuccess",
      "type": "event"
    },
    {
      "anonymous": false,
      "inputs": [
        {
          "indexed": true,
          "internalType": "uint16",
          "name": "_dstChainId",
          "type": "uint16"
        },
        {
          "indexed": true,
          "internalType": "address",
          "name": "_from",
          "type": "address"
        },
        {
          "indexed": false,
          "internalType": "bytes",
          "name": "_toAddress",
          "type": "bytes"
        },
        {
          "indexed": false,
          "internalType": "uint256",
          "name": "_amount",
          "type": "uint256"
        }
      ],
      "name": "SendToChain",
      "type": "event"
    },
    {
      "anonymous": false,
      "inputs": [
        {
          "indexed": true,
          "internalType": "address",
          "name": "_for",
          "type": "address"
        },
        {
          "indexed": false,
          "internalType": "bool",
          "name": "_status",
          "type": "bool"
        }
      ],
      "name": "SetBurnerStatus",
      "type": "event"
    },
    {
      "anonymous": false,
      "inputs": [
        {
          "indexed": false,
          "internalType": "uint16",
          "name": "_dstChainId",
          "type": "uint16"
        },
        {
          "indexed": false,
          "internalType": "uint16",
          "name": "_type",
          "type": "uint16"
        },
        {
          "indexed": false,
          "internalType": "uint256",
          "name": "_minDstGas",
          "type": "uint256"
        }
      ],
      "name": "SetMinDstGas",
      "type": "event"
    },
    {
      "anonymous": false,
      "inputs": [
        {
          "indexed": true,
          "internalType": "address",
          "name": "_for",
          "type": "address"
        },
        {
          "indexed": false,
          "internalType": "bool",
          "name": "_status",
          "type": "bool"
        }
      ],
      "name": "SetMinterStatus",
      "type": "event"
    },
    {
      "anonymous": false,
      "inputs": [
        {
          "indexed": false,
          "internalType": "address",
          "name": "precrime",
          "type": "address"
        }
      ],
      "name": "SetPrecrime",
      "type": "event"
    },
    {
      "anonymous": false,
      "inputs": [
        {
          "indexed": false,
          "internalType": "uint16",
          "name": "_remoteChainId",
          "type": "uint16"
        },
        {
          "indexed": false,
          "internalType": "bytes",
          "name": "_path",
          "type": "bytes"
        }
      ],
      "name": "SetTrustedRemote",
      "type": "event"
    },
    {
      "anonymous": false,
      "inputs": [
        {
          "indexed": false,
          "internalType": "uint16",
          "name": "_remoteChainId",
          "type": "uint16"
        },
        {
          "indexed": false,
          "internalType": "bytes",
          "name": "_remoteAddress",
          "type": "bytes"
        }
      ],
      "name": "SetTrustedRemoteAddress",
      "type": "event"
    },
    {
      "anonymous": false,
      "inputs": [
        {
          "indexed": false,
          "internalType": "bool",
          "name": "_useCustomAdapterParams",
          "type": "bool"
        }
      ],
      "name": "SetUseCustomAdapterParams",
      "type": "event"
    },
    {
      "anonymous": false,
      "inputs": [
        {
          "indexed": true,
          "internalType": "address",
          "name": "from",
          "type": "address"
        },
        {
          "indexed": true,
          "internalType": "address",
          "name": "to",
          "type": "address"
        },
        {
          "indexed": false,
          "internalType": "uint256",
          "name": "value",
          "type": "uint256"
        }
      ],
      "name": "Transfer",
      "type": "event"
    },
    {
      "anonymous": false,
      "inputs": [
        {
          "indexed": false,
          "internalType": "uint256",
          "name": "_amount",
          "type": "uint256"
        }
      ],
      "name": "YieldBoxDeposit",
      "type": "event"
    },
    {
      "anonymous": false,
      "inputs": [
        {
          "indexed": false,
          "internalType": "uint256",
          "name": "_amount",
          "type": "uint256"
        }
      ],
      "name": "YieldBoxRetrieval",
      "type": "event"
    },
    {
      "inputs": [],
      "name": "NO_EXTRA_GAS",
      "outputs": [
        {
          "internalType": "uint256",
          "name": "",
          "type": "uint256"
        }
      ],
      "stateMutability": "view",
      "type": "function"
    },
    {
      "inputs": [],
      "name": "PT_SEND",
      "outputs": [
        {
          "internalType": "uint16",
          "name": "",
          "type": "uint16"
        }
      ],
      "stateMutability": "view",
      "type": "function"
    },
    {
      "inputs": [],
      "name": "PT_YB_DEPOSIT",
      "outputs": [
        {
          "internalType": "uint16",
          "name": "",
          "type": "uint16"
        }
      ],
      "stateMutability": "view",
      "type": "function"
    },
    {
      "inputs": [],
      "name": "PT_YB_RETRIEVE_STRAT",
      "outputs": [
        {
          "internalType": "uint16",
          "name": "",
          "type": "uint16"
        }
      ],
      "stateMutability": "view",
      "type": "function"
    },
    {
      "inputs": [],
      "name": "PT_YB_SEND_STRAT",
      "outputs": [
        {
          "internalType": "uint16",
          "name": "",
          "type": "uint16"
        }
      ],
      "stateMutability": "view",
      "type": "function"
    },
    {
      "inputs": [],
      "name": "PT_YB_WITHDRAW",
      "outputs": [
        {
          "internalType": "uint16",
          "name": "",
          "type": "uint16"
        }
      ],
      "stateMutability": "view",
      "type": "function"
    },
    {
      "inputs": [
        {
          "internalType": "address",
          "name": "owner",
          "type": "address"
        },
        {
          "internalType": "address",
          "name": "spender",
          "type": "address"
        }
      ],
      "name": "allowance",
      "outputs": [
        {
          "internalType": "uint256",
          "name": "",
          "type": "uint256"
        }
      ],
      "stateMutability": "view",
      "type": "function"
    },
    {
      "inputs": [
        {
          "internalType": "uint256",
          "name": "",
          "type": "uint256"
        },
        {
          "internalType": "address",
          "name": "",
          "type": "address"
        }
      ],
      "name": "allowedBurner",
      "outputs": [
        {
          "internalType": "bool",
          "name": "",
          "type": "bool"
        }
      ],
      "stateMutability": "view",
      "type": "function"
    },
    {
      "inputs": [
        {
          "internalType": "uint256",
          "name": "",
          "type": "uint256"
        },
        {
          "internalType": "address",
          "name": "",
          "type": "address"
        }
      ],
      "name": "allowedMinter",
      "outputs": [
        {
          "internalType": "bool",
          "name": "",
          "type": "bool"
        }
      ],
      "stateMutability": "view",
      "type": "function"
    },
    {
      "inputs": [
        {
          "internalType": "address",
          "name": "spender",
          "type": "address"
        },
        {
          "internalType": "uint256",
          "name": "amount",
          "type": "uint256"
        }
      ],
      "name": "approve",
      "outputs": [
        {
          "internalType": "bool",
          "name": "",
          "type": "bool"
        }
      ],
      "stateMutability": "nonpayable",
      "type": "function"
    },
    {
      "inputs": [
        {
          "internalType": "address",
          "name": "account",
          "type": "address"
        }
      ],
      "name": "balanceOf",
      "outputs": [
        {
          "internalType": "uint256",
          "name": "",
          "type": "uint256"
        }
      ],
      "stateMutability": "view",
      "type": "function"
    },
    {
      "inputs": [
        {
          "internalType": "address",
          "name": "_from",
          "type": "address"
        },
        {
          "internalType": "uint256",
          "name": "_amount",
          "type": "uint256"
        }
      ],
      "name": "burn",
      "outputs": [],
      "stateMutability": "nonpayable",
      "type": "function"
    },
    {
      "inputs": [],
      "name": "circulatingSupply",
      "outputs": [
        {
          "internalType": "uint256",
          "name": "",
          "type": "uint256"
        }
      ],
      "stateMutability": "view",
      "type": "function"
    },
    {
      "inputs": [],
      "name": "conservator",
      "outputs": [
        {
          "internalType": "address",
          "name": "",
          "type": "address"
        }
      ],
      "stateMutability": "view",
      "type": "function"
    },
    {
      "inputs": [],
      "name": "decimals",
      "outputs": [
        {
          "internalType": "uint8",
          "name": "",
          "type": "uint8"
        }
      ],
      "stateMutability": "pure",
      "type": "function"
    },
    {
      "inputs": [
        {
          "internalType": "address",
          "name": "spender",
          "type": "address"
        },
        {
          "internalType": "uint256",
          "name": "subtractedValue",
          "type": "uint256"
        }
      ],
      "name": "decreaseAllowance",
      "outputs": [
        {
          "internalType": "bool",
          "name": "",
          "type": "bool"
        }
      ],
      "stateMutability": "nonpayable",
      "type": "function"
    },
    {
      "inputs": [
        {
          "internalType": "uint16",
          "name": "_dstChainId",
          "type": "uint16"
        },
        {
          "internalType": "bytes",
          "name": "_toAddress",
          "type": "bytes"
        },
        {
          "internalType": "uint256",
          "name": "_amount",
          "type": "uint256"
        },
        {
          "internalType": "bool",
          "name": "_useZro",
          "type": "bool"
        },
        {
          "internalType": "bytes",
          "name": "_adapterParams",
          "type": "bytes"
        }
      ],
      "name": "estimateSendFee",
      "outputs": [
        {
          "internalType": "uint256",
          "name": "nativeFee",
          "type": "uint256"
        },
        {
          "internalType": "uint256",
          "name": "zroFee",
          "type": "uint256"
        }
      ],
      "stateMutability": "view",
      "type": "function"
    },
    {
      "inputs": [
        {
          "internalType": "uint16",
          "name": "",
          "type": "uint16"
        },
        {
          "internalType": "bytes",
          "name": "",
          "type": "bytes"
        },
        {
          "internalType": "uint64",
          "name": "",
          "type": "uint64"
        }
      ],
      "name": "failedMessages",
      "outputs": [
        {
          "internalType": "bytes32",
          "name": "",
          "type": "bytes32"
        }
      ],
      "stateMutability": "view",
      "type": "function"
    },
    {
      "inputs": [
        {
          "internalType": "address",
          "name": "token",
          "type": "address"
        },
        {
          "internalType": "uint256",
          "name": "amount",
          "type": "uint256"
        }
      ],
      "name": "flashFee",
      "outputs": [
        {
          "internalType": "uint256",
          "name": "",
          "type": "uint256"
        }
      ],
      "stateMutability": "view",
      "type": "function"
    },
    {
      "inputs": [
        {
          "internalType": "contract IERC3156FlashBorrower",
          "name": "receiver",
          "type": "address"
        },
        {
          "internalType": "address",
          "name": "token",
          "type": "address"
        },
        {
          "internalType": "uint256",
          "name": "amount",
          "type": "uint256"
        },
        {
          "internalType": "bytes",
          "name": "data",
          "type": "bytes"
        }
      ],
      "name": "flashLoan",
      "outputs": [
        {
          "internalType": "bool",
          "name": "",
          "type": "bool"
        }
      ],
      "stateMutability": "nonpayable",
      "type": "function"
    },
    {
      "inputs": [],
      "name": "flashMintFee",
      "outputs": [
        {
          "internalType": "uint256",
          "name": "",
          "type": "uint256"
        }
      ],
      "stateMutability": "view",
      "type": "function"
    },
    {
      "inputs": [
        {
          "internalType": "uint16",
          "name": "_srcChainId",
          "type": "uint16"
        },
        {
          "internalType": "bytes",
          "name": "_srcAddress",
          "type": "bytes"
        }
      ],
      "name": "forceResumeReceive",
      "outputs": [],
      "stateMutability": "nonpayable",
      "type": "function"
    },
    {
      "inputs": [
        {
          "internalType": "uint16",
          "name": "_version",
          "type": "uint16"
        },
        {
          "internalType": "uint16",
          "name": "_chainId",
          "type": "uint16"
        },
        {
          "internalType": "address",
          "name": "",
          "type": "address"
        },
        {
          "internalType": "uint256",
          "name": "_configType",
          "type": "uint256"
        }
      ],
      "name": "getConfig",
      "outputs": [
        {
          "internalType": "bytes",
          "name": "",
          "type": "bytes"
        }
      ],
      "stateMutability": "view",
      "type": "function"
    },
    {
      "inputs": [
        {
          "internalType": "uint16",
          "name": "_remoteChainId",
          "type": "uint16"
        }
      ],
      "name": "getTrustedRemoteAddress",
      "outputs": [
        {
          "internalType": "bytes",
          "name": "",
          "type": "bytes"
        }
      ],
      "stateMutability": "view",
      "type": "function"
    },
    {
      "inputs": [
        {
          "internalType": "address",
          "name": "spender",
          "type": "address"
        },
        {
          "internalType": "uint256",
          "name": "addedValue",
          "type": "uint256"
        }
      ],
      "name": "increaseAllowance",
      "outputs": [
        {
          "internalType": "bool",
          "name": "",
          "type": "bool"
        }
      ],
      "stateMutability": "nonpayable",
      "type": "function"
    },
    {
      "inputs": [
        {
          "internalType": "uint16",
          "name": "_srcChainId",
          "type": "uint16"
        },
        {
          "internalType": "bytes",
          "name": "_srcAddress",
          "type": "bytes"
        }
      ],
      "name": "isTrustedRemote",
      "outputs": [
        {
          "internalType": "bool",
          "name": "",
          "type": "bool"
        }
      ],
      "stateMutability": "view",
      "type": "function"
    },
    {
      "inputs": [],
      "name": "lzEndpoint",
      "outputs": [
        {
          "internalType": "contract ILayerZeroEndpoint",
          "name": "",
          "type": "address"
        }
      ],
      "stateMutability": "view",
      "type": "function"
    },
    {
      "inputs": [
        {
          "internalType": "uint16",
          "name": "_srcChainId",
          "type": "uint16"
        },
        {
          "internalType": "bytes",
          "name": "_srcAddress",
          "type": "bytes"
        },
        {
          "internalType": "uint64",
          "name": "_nonce",
          "type": "uint64"
        },
        {
          "internalType": "bytes",
          "name": "_payload",
          "type": "bytes"
        }
      ],
      "name": "lzReceive",
      "outputs": [],
      "stateMutability": "nonpayable",
      "type": "function"
    },
    {
      "inputs": [
        {
          "internalType": "address",
          "name": "",
          "type": "address"
        }
      ],
      "name": "maxFlashLoan",
      "outputs": [
        {
          "internalType": "uint256",
          "name": "",
          "type": "uint256"
        }
      ],
      "stateMutability": "view",
      "type": "function"
    },
    {
      "inputs": [],
      "name": "maxFlashMint",
      "outputs": [
        {
          "internalType": "uint256",
          "name": "",
          "type": "uint256"
        }
      ],
      "stateMutability": "view",
      "type": "function"
    },
    {
      "inputs": [
        {
          "internalType": "uint16",
          "name": "",
          "type": "uint16"
        },
        {
          "internalType": "uint16",
          "name": "",
          "type": "uint16"
        }
      ],
      "name": "minDstGasLookup",
      "outputs": [
        {
          "internalType": "uint256",
          "name": "",
          "type": "uint256"
        }
      ],
      "stateMutability": "view",
      "type": "function"
    },
    {
      "inputs": [
        {
          "internalType": "address",
          "name": "_to",
          "type": "address"
        },
        {
          "internalType": "uint256",
          "name": "_amount",
          "type": "uint256"
        }
      ],
      "name": "mint",
      "outputs": [],
      "stateMutability": "nonpayable",
      "type": "function"
    },
    {
      "inputs": [],
      "name": "name",
      "outputs": [
        {
          "internalType": "string",
          "name": "",
          "type": "string"
        }
      ],
      "stateMutability": "view",
      "type": "function"
    },
    {
      "inputs": [
        {
          "internalType": "uint16",
          "name": "_srcChainId",
          "type": "uint16"
        },
        {
          "internalType": "bytes",
          "name": "_srcAddress",
          "type": "bytes"
        },
        {
          "internalType": "uint64",
          "name": "_nonce",
          "type": "uint64"
        },
        {
          "internalType": "bytes",
          "name": "_payload",
          "type": "bytes"
        }
      ],
      "name": "nonblockingLzReceive",
      "outputs": [],
      "stateMutability": "nonpayable",
      "type": "function"
    },
    {
      "inputs": [],
      "name": "owner",
      "outputs": [
        {
          "internalType": "address",
          "name": "",
          "type": "address"
        }
      ],
      "stateMutability": "view",
      "type": "function"
    },
    {
      "inputs": [],
      "name": "paused",
      "outputs": [
        {
          "internalType": "bool",
          "name": "",
          "type": "bool"
        }
      ],
      "stateMutability": "view",
      "type": "function"
    },
    {
      "inputs": [],
      "name": "precrime",
      "outputs": [
        {
          "internalType": "address",
          "name": "",
          "type": "address"
        }
      ],
      "stateMutability": "view",
      "type": "function"
    },
    {
      "inputs": [],
      "name": "renounceOwnership",
      "outputs": [],
      "stateMutability": "nonpayable",
      "type": "function"
    },
    {
      "inputs": [
        {
          "internalType": "uint16",
          "name": "_srcChainId",
          "type": "uint16"
        },
        {
          "internalType": "bytes",
          "name": "_srcAddress",
          "type": "bytes"
        },
        {
          "internalType": "uint64",
          "name": "_nonce",
          "type": "uint64"
        },
        {
          "internalType": "bytes",
          "name": "_payload",
          "type": "bytes"
        }
      ],
      "name": "retryMessage",
      "outputs": [],
      "stateMutability": "payable",
      "type": "function"
    },
    {
      "inputs": [
        {
          "internalType": "address",
          "name": "_from",
          "type": "address"
        },
        {
          "internalType": "uint16",
          "name": "_dstChainId",
          "type": "uint16"
        },
        {
          "internalType": "bytes",
          "name": "_toAddress",
          "type": "bytes"
        },
        {
          "internalType": "uint256",
          "name": "_amount",
          "type": "uint256"
        },
        {
          "internalType": "address payable",
          "name": "_refundAddress",
          "type": "address"
        },
        {
          "internalType": "address",
          "name": "_zroPaymentAddress",
          "type": "address"
        },
        {
          "internalType": "bytes",
          "name": "_adapterParams",
          "type": "bytes"
        }
      ],
      "name": "sendFrom",
      "outputs": [],
      "stateMutability": "payable",
      "type": "function"
    },
    {
      "inputs": [
        {
          "internalType": "address",
          "name": "_for",
          "type": "address"
        },
        {
          "internalType": "bool",
          "name": "_status",
          "type": "bool"
        }
      ],
      "name": "setBurnerStatus",
      "outputs": [],
      "stateMutability": "nonpayable",
      "type": "function"
    },
    {
      "inputs": [
        {
          "internalType": "uint16",
          "name": "_version",
          "type": "uint16"
        },
        {
          "internalType": "uint16",
          "name": "_chainId",
          "type": "uint16"
        },
        {
          "internalType": "uint256",
          "name": "_configType",
          "type": "uint256"
        },
        {
          "internalType": "bytes",
          "name": "_config",
          "type": "bytes"
        }
      ],
      "name": "setConfig",
      "outputs": [],
      "stateMutability": "nonpayable",
      "type": "function"
    },
    {
      "inputs": [
        {
          "internalType": "address",
          "name": "_conservator",
          "type": "address"
        }
      ],
      "name": "setConservator",
      "outputs": [],
      "stateMutability": "nonpayable",
      "type": "function"
    },
    {
      "inputs": [
        {
          "internalType": "uint256",
          "name": "_val",
          "type": "uint256"
        }
      ],
      "name": "setFlashMintFee",
      "outputs": [],
      "stateMutability": "nonpayable",
      "type": "function"
    },
    {
      "inputs": [
        {
          "internalType": "uint256",
          "name": "_val",
          "type": "uint256"
        }
      ],
      "name": "setMaxFlashMintable",
      "outputs": [],
      "stateMutability": "nonpayable",
      "type": "function"
    },
    {
      "inputs": [
        {
          "internalType": "uint16",
          "name": "_dstChainId",
          "type": "uint16"
        },
        {
          "internalType": "uint16",
          "name": "_packetType",
          "type": "uint16"
        },
        {
          "internalType": "uint256",
          "name": "_minGas",
          "type": "uint256"
        }
      ],
      "name": "setMinDstGas",
      "outputs": [],
      "stateMutability": "nonpayable",
      "type": "function"
    },
    {
      "inputs": [
        {
          "internalType": "address",
          "name": "_for",
          "type": "address"
        },
        {
          "internalType": "bool",
          "name": "_status",
          "type": "bool"
        }
      ],
      "name": "setMinterStatus",
      "outputs": [],
      "stateMutability": "nonpayable",
      "type": "function"
    },
    {
      "inputs": [
        {
          "internalType": "address",
          "name": "_precrime",
          "type": "address"
        }
      ],
      "name": "setPrecrime",
      "outputs": [],
      "stateMutability": "nonpayable",
      "type": "function"
    },
    {
      "inputs": [
        {
          "internalType": "uint16",
          "name": "_version",
          "type": "uint16"
        }
      ],
      "name": "setReceiveVersion",
      "outputs": [],
      "stateMutability": "nonpayable",
      "type": "function"
    },
    {
      "inputs": [
        {
          "internalType": "uint16",
          "name": "_version",
          "type": "uint16"
        }
      ],
      "name": "setSendVersion",
      "outputs": [],
      "stateMutability": "nonpayable",
      "type": "function"
    },
    {
      "inputs": [
        {
          "internalType": "uint16",
          "name": "_srcChainId",
          "type": "uint16"
        },
        {
          "internalType": "bytes",
          "name": "_path",
          "type": "bytes"
        }
      ],
      "name": "setTrustedRemote",
      "outputs": [],
      "stateMutability": "nonpayable",
      "type": "function"
    },
    {
      "inputs": [
        {
          "internalType": "uint16",
          "name": "_remoteChainId",
          "type": "uint16"
        },
        {
          "internalType": "bytes",
          "name": "_remoteAddress",
          "type": "bytes"
        }
      ],
      "name": "setTrustedRemoteAddress",
      "outputs": [],
      "stateMutability": "nonpayable",
      "type": "function"
    },
    {
      "inputs": [
        {
          "internalType": "bool",
          "name": "_useCustomAdapterParams",
          "type": "bool"
        }
      ],
      "name": "setUseCustomAdapterParams",
      "outputs": [],
      "stateMutability": "nonpayable",
      "type": "function"
    },
    {
      "inputs": [
        {
          "internalType": "bytes4",
          "name": "interfaceId",
          "type": "bytes4"
        }
      ],
      "name": "supportsInterface",
      "outputs": [
        {
          "internalType": "bool",
          "name": "",
          "type": "bool"
        }
      ],
      "stateMutability": "view",
      "type": "function"
    },
    {
      "inputs": [],
      "name": "symbol",
      "outputs": [
        {
          "internalType": "string",
          "name": "",
          "type": "string"
        }
      ],
      "stateMutability": "view",
      "type": "function"
    },
    {
      "inputs": [],
      "name": "token",
      "outputs": [
        {
          "internalType": "address",
          "name": "",
          "type": "address"
        }
      ],
      "stateMutability": "view",
      "type": "function"
    },
    {
      "inputs": [],
      "name": "totalSupply",
      "outputs": [
        {
          "internalType": "uint256",
          "name": "",
          "type": "uint256"
        }
      ],
      "stateMutability": "view",
      "type": "function"
    },
    {
      "inputs": [
        {
          "internalType": "address",
          "name": "to",
          "type": "address"
        },
        {
          "internalType": "uint256",
          "name": "amount",
          "type": "uint256"
        }
      ],
      "name": "transfer",
      "outputs": [
        {
          "internalType": "bool",
          "name": "",
          "type": "bool"
        }
      ],
      "stateMutability": "nonpayable",
      "type": "function"
    },
    {
      "inputs": [
        {
          "internalType": "address",
          "name": "from",
          "type": "address"
        },
        {
          "internalType": "address",
          "name": "to",
          "type": "address"
        },
        {
          "internalType": "uint256",
          "name": "amount",
          "type": "uint256"
        }
      ],
      "name": "transferFrom",
      "outputs": [
        {
          "internalType": "bool",
          "name": "",
          "type": "bool"
        }
      ],
      "stateMutability": "nonpayable",
      "type": "function"
    },
    {
      "inputs": [
        {
          "internalType": "address",
          "name": "newOwner",
          "type": "address"
        }
      ],
      "name": "transferOwnership",
      "outputs": [],
      "stateMutability": "nonpayable",
      "type": "function"
    },
    {
      "inputs": [
        {
          "internalType": "uint16",
          "name": "",
          "type": "uint16"
        }
      ],
      "name": "trustedRemoteLookup",
      "outputs": [
        {
          "internalType": "bytes",
          "name": "",
          "type": "bytes"
        }
      ],
      "stateMutability": "view",
      "type": "function"
    },
    {
      "inputs": [
        {
          "internalType": "bool",
          "name": "val",
          "type": "bool"
        }
      ],
      "name": "updatePause",
      "outputs": [],
      "stateMutability": "nonpayable",
      "type": "function"
    },
    {
      "inputs": [],
      "name": "useCustomAdapterParams",
      "outputs": [
        {
          "internalType": "bool",
          "name": "",
          "type": "bool"
        }
      ],
      "stateMutability": "view",
      "type": "function"
    },
    {
      "inputs": [],
      "name": "yieldBox",
      "outputs": [
        {
          "internalType": "contract IYieldBox",
          "name": "",
          "type": "address"
        }
      ],
      "stateMutability": "view",
      "type": "function"
    }
  ],
  "transactionHash": "0x48833ad813abcf41ae653524c3d10bc5b18fc3fa71f6a951f7d199ce6be6e779",
  "args": [
    "0xbfD2135BFfbb0B5378b56643c2Df8a87552Bfa23",
    "0x02c1B98DC318CB3eCe95091cC3BDA183CC56d37F"
  ],
  "numDeployments": 1,
  "solcInputHash": "8ac9740e2a0297c1eb3dfb212734009a",
  "bytecode": "0x60c06040523480156200001157600080fd5b50604051620046883803806200468883398101604081905262000034916200021c565b80604051806040016040528060048152602001630555344360e41b815250604051806040016040528060048152602001630555344360e41b8152508482828280806200008f620000896200013d60201b60201c565b62000141565b6001600160a01b03166080525060099050620000ac838262000300565b50600a620000bb828262000300565b5050506001600160a01b0390931660a0525060009150620000dd905062000191565b6000818152600c60209081526040808320338085529083528184208054600160ff199182168117909255958552600d8452828520918552925290912080549092161790555050600a600f555069152d02c7e14af6800000601055620003f9565b3390565b600080546001600160a01b038381166001600160a01b0319831681178455604051919092169283917f8be0079c531659141344cd1fd0a4f28419497f9722a3daafe3b4186f6b6457e09190a35050565b60006080516001600160a01b0316633408e4706040518163ffffffff1660e01b8152600401602060405180830381865afa158015620001d4573d6000803e3d6000fd5b505050506040513d601f19601f82011682018060405250810190620001fa9190620003cc565b61ffff16905090565b6001600160a01b03811681146200021957600080fd5b50565b600080604083850312156200023057600080fd5b82516200023d8162000203565b6020840151909250620002508162000203565b809150509250929050565b634e487b7160e01b600052604160045260246000fd5b600181811c908216806200028657607f821691505b602082108103620002a757634e487b7160e01b600052602260045260246000fd5b50919050565b601f821115620002fb57600081815260208120601f850160051c81016020861015620002d65750805b601f850160051c820191505b81811015620002f757828155600101620002e2565b5050505b505050565b81516001600160401b038111156200031c576200031c6200025b565b62000334816200032d845462000271565b84620002ad565b602080601f8311600181146200036c5760008415620003535750858301515b600019600386901b1c1916600185901b178555620002f7565b600085815260208120601f198616915b828110156200039d578886015182559484019460019091019084016200037c565b5085821015620003bc5787850151600019600388901b60f8161c191681555b5050505050600190811b01905550565b600060208284031215620003df57600080fd5b815161ffff81168114620003f257600080fd5b9392505050565b60805160a05161422a6200045e6000396000610a8c01526000818161096a01528181610c1901528181610f3801528181610fd90152818161114f015281816113a901528181611cad01528181612242015281816128c001526130cf015261422a6000f3fe6080604052600436106103c25760003560e01c80638da5cb5b116101f2578063ce8849ed1161010d578063ec6d062b116100a0578063f5ecbdbc1161006f578063f5ecbdbc14610ba3578063f8974de014610bc3578063fa74f0b514610be3578063fc0c546a14610c0357600080fd5b8063ec6d062b14610b0e578063ed629c5c14610b49578063f00c298d14610b63578063f2fde38b14610b8357600080fd5b8063de406577116100dc578063de40657714610a7a578063df2a5b3b14610aae578063eab45d9c14610ace578063eb8d72b714610aee57600080fd5b8063ce8849ed14610a07578063d1deba1f14610a27578063d9d98ce414610a3a578063dd62ed3e14610a5a57600080fd5b80639f38369a11610185578063b353aaa711610154578063b353aaa714610958578063ba03a8d71461098c578063baf3292d146109c7578063cbed8b9c146109e757600080fd5b80639f38369a146108d8578063a457c2d7146108f8578063a6c3d16514610918578063a9059cbb1461093857600080fd5b8063950c8a74116101c1578063950c8a741461086d57806395d89b411461088d5780639d3f4d1a146108a25780639dc29fac146108b857600080fd5b80638da5cb5b146107f05780639169d59e146108225780639358928b14610842578063940a1dc01461085757600080fd5b806340c10f19116102e25780635cffe9de1161027557806370a082311161024457806370a082311461074d578063715018a6146107835780637533d788146107985780638cfd8f5c146107b857600080fd5b80635cffe9de146106d5578063613255ab146106f557806366ad5c8a146107175780636ef7980b1461073757600080fd5b806351905636116102b157806351905636146106595780635b8c41e61461066c5780635bfeaa05146104c95780635c975abb146106bb57600080fd5b806340c10f19146105ef57806342d65a8d1461060f578063447705151461062f5780634c42899a1461064457600080fd5b806316d995a91161035a5780632a205e3d116103295780632a205e3d1461055e578063313ce5671461059357806339509351146105af5780633d8b38f6146105cf57600080fd5b806316d995a9146104df57806318160ddd146104ff5780631d2a0e3d1461051e57806323b872dd1461053e57600080fd5b806307e0db171161039657806307e0db1714610469578063095ea7b31461048957806310ddb137146104a9578063121dbc7c146104c957600080fd5b80621d3567146103c757806301ffc9a7146103e9578063069fd8491461041e57806306fdde0314610447575b600080fd5b3480156103d357600080fd5b506103e76103e23660046133fc565b610c16565b005b3480156103f557600080fd5b50610409610404366004613491565b610e47565b60405190151581526020015b60405180910390f35b34801561042a57600080fd5b5061043461030381565b60405161ffff9091168152602001610415565b34801561045357600080fd5b5061045c610e85565b6040516104159190613513565b34801561047557600080fd5b506103e7610484366004613526565b610f17565b34801561049557600080fd5b506104096104a4366004613558565b610fa0565b3480156104b557600080fd5b506103e76104c4366004613526565b610fb8565b3480156104d557600080fd5b5061043461030481565b3480156104eb57600080fd5b506103e76104fa366004613584565b611010565b34801561050b57600080fd5b506008545b604051908152602001610415565b34801561052a57600080fd5b506103e7610539366004613584565b611059565b34801561054a57600080fd5b5061040961055936600461359d565b6110e8565b34801561056a57600080fd5b5061057e6105793660046135ee565b61110c565b60408051928352602083019190915201610415565b34801561059f57600080fd5b5060405160128152602001610415565b3480156105bb57600080fd5b506104096105ca366004613558565b6111df565b3480156105db57600080fd5b506104096105ea36600461368d565b611201565b3480156105fb57600080fd5b506103e761060a366004613558565b6112cd565b34801561061b57600080fd5b506103e761062a36600461368d565b61138a565b34801561063b57600080fd5b50610510600081565b34801561065057600080fd5b50610434600081565b6103e76106673660046136e1565b611410565b34801561067857600080fd5b50610510610687366004613817565b6004602090815260009384526040808520845180860184018051928152908401958401959095209452929052825290205481565b3480156106c757600080fd5b50600e546104099060ff1681565b3480156106e157600080fd5b506104096106f03660046138b9565b611495565b34801561070157600080fd5b5061051061071036600461392b565b5060105490565b34801561072357600080fd5b506103e76107323660046133fc565b611733565b34801561074357600080fd5b5061043461030281565b34801561075957600080fd5b5061051061076836600461392b565b6001600160a01b031660009081526006602052604090205490565b34801561078f57600080fd5b506103e761180f565b3480156107a457600080fd5b5061045c6107b3366004613526565b611823565b3480156107c457600080fd5b506105106107d3366004613948565b600260209081526000928352604080842090915290825290205481565b3480156107fc57600080fd5b506000546001600160a01b03165b6040516001600160a01b039091168152602001610415565b34801561082e57600080fd5b506103e761083d366004613981565b6118bd565b34801561084e57600080fd5b50610510611939565b34801561086357600080fd5b50610510600f5481565b34801561087957600080fd5b5060035461080a906001600160a01b031681565b34801561089957600080fd5b5061045c611949565b3480156108ae57600080fd5b5061051060105481565b3480156108c457600080fd5b506103e76108d3366004613558565b611958565b3480156108e457600080fd5b5061045c6108f3366004613526565b611a09565b34801561090457600080fd5b50610409610913366004613558565b611b1f565b34801561092457600080fd5b506103e761093336600461368d565b611b9a565b34801561094457600080fd5b50610409610953366004613558565b611c23565b34801561096457600080fd5b5061080a7f000000000000000000000000000000000000000000000000000000000000000081565b34801561099857600080fd5b506104096109a73660046139b6565b600c60209081526000928352604080842090915290825290205460ff1681565b3480156109d357600080fd5b506103e76109e236600461392b565b611c31565b3480156109f357600080fd5b506103e7610a023660046139db565b611c8e565b348015610a1357600080fd5b50600b5461080a906001600160a01b031681565b6103e7610a353660046133fc565b611d18565b348015610a4657600080fd5b50610510610a55366004613558565b611f2e565b348015610a6657600080fd5b50610510610a75366004613a0e565b611f9c565b348015610a8657600080fd5b5061080a7f000000000000000000000000000000000000000000000000000000000000000081565b348015610aba57600080fd5b506103e7610ac9366004613a3c565b611fc7565b348015610ada57600080fd5b506103e7610ae9366004613a6c565b612079565b348015610afa57600080fd5b506103e7610b0936600461368d565b6120c2565b348015610b1a57600080fd5b50610409610b293660046139b6565b600d60209081526000928352604080842090915290825290205460ff1681565b348015610b5557600080fd5b506005546104099060ff1681565b348015610b6f57600080fd5b506103e7610b7e366004613981565b61211c565b348015610b8f57600080fd5b506103e7610b9e36600461392b565b612198565b348015610baf57600080fd5b5061045c610bbe366004613a87565b612211565b348015610bcf57600080fd5b506103e7610bde366004613a6c565b6122c2565b348015610bef57600080fd5b506103e7610bfe36600461392b565b61238d565b348015610c0f57600080fd5b503061080a565b337f00000000000000000000000000000000000000000000000000000000000000006001600160a01b031614610c935760405162461bcd60e51b815260206004820152601e60248201527f4c7a4170703a20696e76616c696420656e64706f696e742063616c6c6572000060448201526064015b60405180910390fd5b61ffff861660009081526001602052604081208054610cb190613ad8565b80601f0160208091040260200160405190810160405280929190818152602001828054610cdd90613ad8565b8015610d2a5780601f10610cff57610100808354040283529160200191610d2a565b820191906000526020600020905b815481529060010190602001808311610d0d57829003601f168201915b50505050509050805186869050148015610d45575060008151115b8015610d6d575080516020820120604051610d639088908890613b12565b6040518091039020145b610dc85760405162461bcd60e51b815260206004820152602660248201527f4c7a4170703a20696e76616c696420736f757263652073656e64696e6720636f6044820152651b9d1c9858dd60d21b6064820152608401610c8a565b610e3e8787878080601f01602080910402602001604051908101604052809392919081815260200183838082843760009201919091525050604080516020601f8a018190048102820181019092528881528a93509150889088908190840183828082843760009201919091525061244792505050565b50505050505050565b60006001600160e01b031982161580610e7057506001600160e01b031982166336372b0760e01b145b80610e7f5750610e7f826124c0565b92915050565b606060098054610e9490613ad8565b80601f0160208091040260200160405190810160405280929190818152602001828054610ec090613ad8565b8015610f0d5780601f10610ee257610100808354040283529160200191610f0d565b820191906000526020600020905b815481529060010190602001808311610ef057829003601f168201915b5050505050905090565b610f1f6124f5565b6040516307e0db1760e01b815261ffff821660048201527f00000000000000000000000000000000000000000000000000000000000000006001600160a01b0316906307e0db17906024015b600060405180830381600087803b158015610f8557600080fd5b505af1158015610f99573d6000803e3d6000fd5b5050505050565b600033610fae81858561254f565b5060019392505050565b610fc06124f5565b6040516310ddb13760e01b815261ffff821660048201527f00000000000000000000000000000000000000000000000000000000000000006001600160a01b0316906310ddb13790602401610f6b565b6110186124f5565b60105460408051918252602082018390527f7d04cf410385806a9ac3566ac4cca4e5eaba6cc242abbf98f4f44e4ac6f3e8ff910160405180910390a1601055565b6110616124f5565b620f424081106110a75760405162461bcd60e51b8152602060048201526011602482015270555344303a2066656520746f6f2062696760781b6044820152606401610c8a565b600f5460408051918252602082018390527fb3a985697c0361591fe9933703eb14ce1d74444a2d349080b6dec8da77a4082b910160405180910390a1600f55565b6000336110f6858285612674565b6111018585856126ee565b506001949350505050565b6000806000808989896040516020016111289493929190613b4b565b60408051601f198184030181529082905263040a7bb160e41b825291506001600160a01b037f000000000000000000000000000000000000000000000000000000000000000016906340a7bb109061118e908d90309086908c908c908c90600401613b7a565b6040805180830381865afa1580156111aa573d6000803e3d6000fd5b505050506040513d601f19601f820116820180604052508101906111ce9190613bd0565b925092505097509795505050505050565b600033610fae8185856111f28383611f9c565b6111fc9190613c0a565b61254f565b61ffff83166000908152600160205260408120805482919061122290613ad8565b80601f016020809104026020016040519081016040528092919081815260200182805461124e90613ad8565b801561129b5780601f106112705761010080835404028352916020019161129b565b820191906000526020600020905b81548152906001019060200180831161127e57829003601f168201915b5050505050905083836040516112b2929190613b12565b60405180910390208180519060200120149150509392505050565b600e5460ff16156112f05760405162461bcd60e51b8152600401610c8a90613c22565b600c60006112fc6128bc565b81526020808201929092526040908101600090812033825290925290205460ff166113395760405162461bcd60e51b8152600401610c8a90613c48565b6113438282612949565b816001600160a01b03167f30385c845b448a36257a6a1716e6ad2e1bc2cbe333cde1e69fe849ad6511adfe8260405161137e91815260200190565b60405180910390a25050565b6113926124f5565b6040516342d65a8d60e01b81526001600160a01b037f000000000000000000000000000000000000000000000000000000000000000016906342d65a8d906113e290869086908690600401613c74565b600060405180830381600087803b1580156113fc57600080fd5b505af1158015610e3e573d6000803e3d6000fd5b61148a898989898080601f01602080910402602001604051908101604052809392919081815260200183838082843760009201919091525050604080516020601f8a018190048102820181019092528881528c93508b92508a918a908a9081908401838280828437600092019190915250612a2892505050565b505050505050505050565b600e5460009060ff16156114bb5760405162461bcd60e51b8152600401610c8a90613c22565b6001600160a01b038516301461150b5760405162461bcd60e51b81526020600482015260156024820152741554d10c0e881d1bdad95b881b9bdd081d985b1a59605a1b6044820152606401610c8a565b8361151560105490565b101561155a5760405162461bcd60e51b8152602060048201526014602482015273555344303a20616d6f756e7420746f6f2062696760601b6044820152606401610c8a565b600084116115a35760405162461bcd60e51b81526020600482015260166024820152751554d10c0e88185b5bdd5b9d081b9bdd081d985b1a5960521b6044820152606401610c8a565b60006115af8686611f2e565b90506115bb8786612949565b6040516323e30c8b60e01b81527f439148f0bbc682ca079e46d6e2c2f0c1e3b820f1a291b069d8882abf8cf18dd9906001600160a01b038916906323e30c8b906116139033908b908b9088908c908c90600401613c92565b6020604051808303816000875af1158015611632573d6000803e3d6000fd5b505050506040513d601f19601f820116820180604052508101906116569190613cd9565b146116925760405162461bcd60e51b815260206004820152600c60248201526b1554d10c0e8819985a5b195960a21b6044820152606401610c8a565b600061169e8830611f9c565b90506116aa8287613c0a565b8110156116f95760405162461bcd60e51b815260206004820152601860248201527f555344303a207265706179206e6f7420617070726f76656400000000000000006044820152606401610c8a565b6117128830611708858a613c0a565b6111fc9085613cf2565b611725886117208489613c0a565b612acf565b506001979650505050505050565b3330146117915760405162461bcd60e51b815260206004820152602660248201527f4e6f6e626c6f636b696e674c7a4170703a2063616c6c6572206d7573742062656044820152650204c7a4170760d41b6064820152608401610c8a565b6118078686868080601f01602080910402602001604051908101604052809392919081815260200183838082843760009201919091525050604080516020601f890181900481028201810190925287815289935091508790879081908401838280828437600092019190915250612c1a92505050565b505050505050565b6118176124f5565b6118216000612c81565b565b6001602052600090815260409020805461183c90613ad8565b80601f016020809104026020016040519081016040528092919081815260200182805461186890613ad8565b80156118b55780601f1061188a576101008083540402835291602001916118b5565b820191906000526020600020905b81548152906001019060200180831161189857829003601f168201915b505050505081565b6118c56124f5565b80600d60006118d26128bc565b8152602080820192909252604090810160009081206001600160a01b03871680835290845290829020805460ff1916941515949094179093555183151581527fd7b463fb7e7be5d5389dafa46448b883b320f7c77f63a00c9db0e2865ccdb3d7910161137e565b600061194460085490565b905090565b6060600a8054610e9490613ad8565b600e5460ff161561197b5760405162461bcd60e51b8152600401610c8a90613c22565b600d60006119876128bc565b81526020808201929092526040908101600090812033825290925290205460ff166119c45760405162461bcd60e51b8152600401610c8a90613c48565b6119ce8282612acf565b816001600160a01b03167f696de425f79f4a40bc6d2122ca50507f0efbeabbff86a84871b7196ab8ea8df78260405161137e91815260200190565b61ffff8116600090815260016020526040812080546060929190611a2c90613ad8565b80601f0160208091040260200160405190810160405280929190818152602001828054611a5890613ad8565b8015611aa55780601f10611a7a57610100808354040283529160200191611aa5565b820191906000526020600020905b815481529060010190602001808311611a8857829003601f168201915b505050505090508051600003611afd5760405162461bcd60e51b815260206004820152601d60248201527f4c7a4170703a206e6f20747275737465642070617468207265636f72640000006044820152606401610c8a565b611b18600060148351611b109190613cf2565b839190612cd1565b9392505050565b60003381611b2d8286611f9c565b905083811015611b8d5760405162461bcd60e51b815260206004820152602560248201527f45524332303a2064656372656173656420616c6c6f77616e63652062656c6f77604482015264207a65726f60d81b6064820152608401610c8a565b611101828686840361254f565b611ba26124f5565b818130604051602001611bb793929190613d09565b60408051601f1981840301815291815261ffff8516600090815260016020522090611be29082613d75565b507f8c0400cfe2d1199b1a725c78960bcc2a344d869b80590d0f2bd005db15a572ce838383604051611c1693929190613c74565b60405180910390a1505050565b600033610fae8185856126ee565b611c396124f5565b600380546001600160a01b0319166001600160a01b0383169081179091556040519081527f5db758e995a17ec1ad84bdef7e8c3293a0bd6179bcce400dff5d4c3d87db726b906020015b60405180910390a150565b611c966124f5565b6040516332fb62e760e21b81526001600160a01b037f0000000000000000000000000000000000000000000000000000000000000000169063cbed8b9c90611cea9088908890889088908890600401613e34565b600060405180830381600087803b158015611d0457600080fd5b505af115801561148a573d6000803e3d6000fd5b61ffff86166000908152600460205260408082209051611d3b9088908890613b12565b90815260408051602092819003830190206001600160401b03871660009081529252902054905080611dbb5760405162461bcd60e51b815260206004820152602360248201527f4e6f6e626c6f636b696e674c7a4170703a206e6f2073746f726564206d65737360448201526261676560e81b6064820152608401610c8a565b808383604051611dcc929190613b12565b604051809103902014611e2b5760405162461bcd60e51b815260206004820152602160248201527f4e6f6e626c6f636b696e674c7a4170703a20696e76616c6964207061796c6f616044820152601960fa1b6064820152608401610c8a565b61ffff87166000908152600460205260408082209051611e4e9089908990613b12565b90815260408051602092819003830181206001600160401b038916600090815290845282902093909355601f88018290048202830182019052868252611ee6918991899089908190840183828082843760009201919091525050604080516020601f8a018190048102820181019092528881528a935091508890889081908401838280828437600092019190915250612c1a92505050565b7fc264d91f3adc5588250e1551f547752ca0cfa8f6b530d243b9f9f4cab10ea8e58787878785604051611f1d959493929190613e6d565b60405180910390a150505050505050565b60006001600160a01b0383163014611f805760405162461bcd60e51b81526020600482015260156024820152741554d10c0e881d1bdad95b881b9bdd081d985b1a59605a1b6044820152606401610c8a565b620f4240600f5483611f929190613ea8565b611b189190613ec7565b6001600160a01b03918216600090815260076020908152604080832093909416825291909152205490565b611fcf6124f5565b600081116120175760405162461bcd60e51b81526020600482015260156024820152744c7a4170703a20696e76616c6964206d696e47617360581b6044820152606401610c8a565b61ffff83811660008181526002602090815260408083209487168084529482529182902085905581519283528201929092529081018290527f9d5c7c0b934da8fefa9c7760c98383778a12dfbfc0c3b3106518f43fb9508ac090606001611c16565b6120816124f5565b6005805460ff19168215159081179091556040519081527f1584ad594a70cbe1e6515592e1272a987d922b097ead875069cebe8b40c004a490602001611c83565b6120ca6124f5565b61ffff831660009081526001602052604090206120e8828483613ee9565b507ffa41487ad5d6728f0b19276fa1eddc16558578f5109fc39d2dc33c3230470dab838383604051611c1693929190613c74565b6121246124f5565b80600c60006121316128bc565b8152602080820192909252604090810160009081206001600160a01b03871680835290845290829020805460ff1916941515949094179093555183151581527f53b8f1e625ffdc96b26d9f5c6bba4ebc3f54077767495fa2619d32b285e193b9910161137e565b6121a06124f5565b6001600160a01b0381166122055760405162461bcd60e51b815260206004820152602660248201527f4f776e61626c653a206e6577206f776e657220697320746865207a65726f206160448201526564647265737360d01b6064820152608401610c8a565b61220e81612c81565b50565b604051633d7b2f6f60e21b815261ffff808616600483015284166024820152306044820152606481018290526060907f00000000000000000000000000000000000000000000000000000000000000006001600160a01b03169063f5ecbdbc90608401600060405180830381865afa158015612291573d6000803e3d6000fd5b505050506040513d6000823e601f3d908101601f191682016040526122b99190810190613ff5565b95945050505050565b600b546001600160a01b031633146122ec5760405162461bcd60e51b8152600401610c8a90613c48565b600e5460ff161515811515036123375760405162461bcd60e51b815260206004820152601060248201526f555344303a2073616d6520737461746560801b6044820152606401610c8a565b600e546040805160ff9092161515825282151560208301527f9c13c5f6c628c1c82eb2b3fd8714da5c2857dbd0ad8ab6b2074abcf81015d396910160405180910390a1600e805460ff1916911515919091179055565b6123956124f5565b6001600160a01b0381166123eb5760405162461bcd60e51b815260206004820152601760248201527f555344303a2061646472657373206e6f742076616c69640000000000000000006044820152606401610c8a565b600b546040516001600160a01b038084169216907f5a62d22209e370e38eea92cfddcd228e656e6ec139243392a760a7769f5877fd90600090a3600b80546001600160a01b0319166001600160a01b0392909216919091179055565b6000806124aa5a60966366ad5c8a60e01b8989898960405160240161246f9493929190614029565b60408051601f198184030181529190526020810180516001600160e01b03166001600160e01b03199093169290921790915230929190612dde565b9150915081611807576118078686868685612e68565b60006001600160e01b03198216630a72677560e11b1480610e7f57506301ffc9a760e01b6001600160e01b0319831614610e7f565b6000546001600160a01b031633146118215760405162461bcd60e51b815260206004820181905260248201527f4f776e61626c653a2063616c6c6572206973206e6f7420746865206f776e65726044820152606401610c8a565b6001600160a01b0383166125b15760405162461bcd60e51b8152602060048201526024808201527f45524332303a20617070726f76652066726f6d20746865207a65726f206164646044820152637265737360e01b6064820152608401610c8a565b6001600160a01b0382166126125760405162461bcd60e51b815260206004820152602260248201527f45524332303a20617070726f766520746f20746865207a65726f206164647265604482015261737360f01b6064820152608401610c8a565b6001600160a01b0383811660008181526007602090815260408083209487168084529482529182902085905590518481527f8c5be1e5ebec7d5bd14f71427d1e84f3dd0314c0f7b2291e5b200ac8c7c3b92591015b60405180910390a3505050565b60006126808484611f9c565b905060001981146126e857818110156126db5760405162461bcd60e51b815260206004820152601d60248201527f45524332303a20696e73756666696369656e7420616c6c6f77616e63650000006044820152606401610c8a565b6126e8848484840361254f565b50505050565b6001600160a01b0383166127525760405162461bcd60e51b815260206004820152602560248201527f45524332303a207472616e736665722066726f6d20746865207a65726f206164604482015264647265737360d81b6064820152608401610c8a565b6001600160a01b0382166127b45760405162461bcd60e51b815260206004820152602360248201527f45524332303a207472616e7366657220746f20746865207a65726f206164647260448201526265737360e81b6064820152608401610c8a565b6001600160a01b0383166000908152600660205260409020548181101561282c5760405162461bcd60e51b815260206004820152602660248201527f45524332303a207472616e7366657220616d6f756e7420657863656564732062604482015265616c616e636560d01b6064820152608401610c8a565b6001600160a01b03808516600090815260066020526040808220858503905591851681529081208054849290612863908490613c0a565b92505081905550826001600160a01b0316846001600160a01b03167fddf252ad1be2c89b69c2b068fc378daa952ba7f163c4a11628f55a4df523b3ef846040516128af91815260200190565b60405180910390a36126e8565b60007f00000000000000000000000000000000000000000000000000000000000000006001600160a01b0316633408e4706040518163ffffffff1660e01b8152600401602060405180830381865afa15801561291c573d6000803e3d6000fd5b505050506040513d601f19601f820116820180604052508101906129409190614067565b61ffff16905090565b6001600160a01b03821661299f5760405162461bcd60e51b815260206004820152601f60248201527f45524332303a206d696e7420746f20746865207a65726f2061646472657373006044820152606401610c8a565b80600860008282546129b19190613c0a565b90915550506001600160a01b038216600090815260066020526040812080548392906129de908490613c0a565b90915550506040518181526001600160a01b038316906000907fddf252ad1be2c89b69c2b068fc378daa952ba7f163c4a11628f55a4df523b3ef9060200160405180910390a35050565b612a36866000836000612f05565b6000612a4488888888612f7f565b90506000808783604051602001612a5d93929190614084565b6040516020818303038152906040529050612a7c888287878734612fb1565b886001600160a01b03168861ffff167f39a4c66499bcf4b56d79f0dde8ed7a9d4925a0df55825206b2b8531e202be0d08985604051612abc9291906140b1565b60405180910390a3505050505050505050565b6001600160a01b038216612b2f5760405162461bcd60e51b815260206004820152602160248201527f45524332303a206275726e2066726f6d20746865207a65726f206164647265736044820152607360f81b6064820152608401610c8a565b6001600160a01b03821660009081526006602052604090205481811015612ba35760405162461bcd60e51b815260206004820152602260248201527f45524332303a206275726e20616d6f756e7420657863656564732062616c616e604482015261636560f01b6064820152608401610c8a565b6001600160a01b0383166000908152600660205260408120838303905560088054849290612bd2908490613cf2565b90915550506040518281526000906001600160a01b038516907fddf252ad1be2c89b69c2b068fc378daa952ba7f163c4a11628f55a4df523b3ef90602001612667565b505050565b602081015161ffff8116612c3957612c348585858561314b565b610f99565b60405162461bcd60e51b815260206004820152601c60248201527f4f4654436f72653a20756e6b6e6f776e207061636b65742074797065000000006044820152606401610c8a565b600080546001600160a01b038381166001600160a01b0319831681178455604051919092169283917f8be0079c531659141344cd1fd0a4f28419497f9722a3daafe3b4186f6b6457e09190a35050565b606081612cdf81601f613c0a565b1015612d1e5760405162461bcd60e51b815260206004820152600e60248201526d736c6963655f6f766572666c6f7760901b6044820152606401610c8a565b612d288284613c0a565b84511015612d6c5760405162461bcd60e51b8152602060048201526011602482015270736c6963655f6f75744f66426f756e647360781b6044820152606401610c8a565b606082158015612d8b5760405191506000825260208201604052612dd5565b6040519150601f8416801560200281840101858101878315602002848b0101015b81831015612dc4578051835260209283019201612dac565b5050858452601f01601f1916604052505b50949350505050565b6000606060008060008661ffff166001600160401b03811115612e0357612e036137aa565b6040519080825280601f01601f191660200182016040528015612e2d576020820181803683370190505b50905060008087516020890160008d8df191503d925086831115612e4f578692505b828152826000602083013e909890975095505050505050565b8180519060200120600460008761ffff1661ffff16815260200190815260200160002085604051612e9991906140d3565b9081526040805191829003602090810183206001600160401b0388166000908152915220919091557fe183f33de2837795525b4792ca4cd60535bd77c53b7e7030060bfcf5734d6b0c90612ef690879087908790879087906140ef565b60405180910390a15050505050565b60055460ff1615612f2157612f1c848484846131d5565b6126e8565b8151156126e85760405162461bcd60e51b815260206004820152602660248201527f4f4654436f72653a205f61646170746572506172616d73206d7573742062652060448201526532b6b83a3c9760d11b6064820152608401610c8a565b6000336001600160a01b0386168114612f9d57612f9d868285612674565b612fa78684612acf565b5090949350505050565b61ffff861660009081526001602052604081208054612fcf90613ad8565b80601f0160208091040260200160405190810160405280929190818152602001828054612ffb90613ad8565b80156130485780601f1061301d57610100808354040283529160200191613048565b820191906000526020600020905b81548152906001019060200180831161302b57829003601f168201915b5050505050905080516000036130b95760405162461bcd60e51b815260206004820152603060248201527f4c7a4170703a2064657374696e6174696f6e20636861696e206973206e6f742060448201526f61207472757374656420736f7572636560801b6064820152608401610c8a565b60405162c5803160e81b81526001600160a01b037f0000000000000000000000000000000000000000000000000000000000000000169063c5803100908490613110908b9086908c908c908c908c90600401614141565b6000604051808303818588803b15801561312957600080fd5b505af115801561313d573d6000803e3d6000fd5b505050505050505050505050565b60008082806020019051810190613162919061419b565b90935091506000905061317583826132b4565b9050613182878284613319565b9150806001600160a01b03168761ffff167fbf551ec93859b170f9b2141bd9298bf3f64322c6f7beb2543a0cb669834118bf846040516131c491815260200190565b60405180910390a350505050505050565b60006131e08361332c565b61ffff808716600090815260026020908152604080832093891683529290529081205491925090613212908490613c0a565b9050600081116132645760405162461bcd60e51b815260206004820152601a60248201527f4c7a4170703a206d696e4761734c696d6974206e6f74207365740000000000006044820152606401610c8a565b808210156118075760405162461bcd60e51b815260206004820152601b60248201527f4c7a4170703a20676173206c696d697420697320746f6f206c6f7700000000006044820152606401610c8a565b60006132c1826014613c0a565b835110156133095760405162461bcd60e51b8152602060048201526015602482015274746f416464726573735f6f75744f66426f756e647360581b6044820152606401610c8a565b500160200151600160601b900490565b60006133258383612949565b5092915050565b60006022825110156133805760405162461bcd60e51b815260206004820152601c60248201527f4c7a4170703a20696e76616c69642061646170746572506172616d73000000006044820152606401610c8a565b506022015190565b61ffff8116811461220e57600080fd5b60008083601f8401126133aa57600080fd5b5081356001600160401b038111156133c157600080fd5b6020830191508360208285010111156133d957600080fd5b9250929050565b80356001600160401b03811681146133f757600080fd5b919050565b6000806000806000806080878903121561341557600080fd5b863561342081613388565b955060208701356001600160401b038082111561343c57600080fd5b6134488a838b01613398565b909750955085915061345c60408a016133e0565b9450606089013591508082111561347257600080fd5b5061347f89828a01613398565b979a9699509497509295939492505050565b6000602082840312156134a357600080fd5b81356001600160e01b031981168114611b1857600080fd5b60005b838110156134d65781810151838201526020016134be565b838111156126e85750506000910152565b600081518084526134ff8160208601602086016134bb565b601f01601f19169290920160200192915050565b602081526000611b1860208301846134e7565b60006020828403121561353857600080fd5b8135611b1881613388565b6001600160a01b038116811461220e57600080fd5b6000806040838503121561356b57600080fd5b823561357681613543565b946020939093013593505050565b60006020828403121561359657600080fd5b5035919050565b6000806000606084860312156135b257600080fd5b83356135bd81613543565b925060208401356135cd81613543565b929592945050506040919091013590565b803580151581146133f757600080fd5b600080600080600080600060a0888a03121561360957600080fd5b873561361481613388565b965060208801356001600160401b038082111561363057600080fd5b61363c8b838c01613398565b909850965060408a0135955086915061365760608b016135de565b945060808a013591508082111561366d57600080fd5b5061367a8a828b01613398565b989b979a50959850939692959293505050565b6000806000604084860312156136a257600080fd5b83356136ad81613388565b925060208401356001600160401b038111156136c857600080fd5b6136d486828701613398565b9497909650939450505050565b600080600080600080600080600060e08a8c0312156136ff57600080fd5b893561370a81613543565b985060208a013561371a81613388565b975060408a01356001600160401b038082111561373657600080fd5b6137428d838e01613398565b909950975060608c0135965060808c0135915061375e82613543565b90945060a08b01359061377082613543565b90935060c08b0135908082111561378657600080fd5b506137938c828d01613398565b915080935050809150509295985092959850929598565b634e487b7160e01b600052604160045260246000fd5b604051601f8201601f191681016001600160401b03811182821017156137e8576137e86137aa565b604052919050565b60006001600160401b03821115613809576138096137aa565b50601f01601f191660200190565b60008060006060848603121561382c57600080fd5b833561383781613388565b925060208401356001600160401b0381111561385257600080fd5b8401601f8101861361386357600080fd5b8035613876613871826137f0565b6137c0565b81815287602083850101111561388b57600080fd5b816020840160208301376000602083830101528094505050506138b0604085016133e0565b90509250925092565b6000806000806000608086880312156138d157600080fd5b85356138dc81613543565b945060208601356138ec81613543565b93506040860135925060608601356001600160401b0381111561390e57600080fd5b61391a88828901613398565b969995985093965092949392505050565b60006020828403121561393d57600080fd5b8135611b1881613543565b6000806040838503121561395b57600080fd5b823561396681613388565b9150602083013561397681613388565b809150509250929050565b6000806040838503121561399457600080fd5b823561399f81613543565b91506139ad602084016135de565b90509250929050565b600080604083850312156139c957600080fd5b82359150602083013561397681613543565b6000806000806000608086880312156139f357600080fd5b85356139fe81613388565b945060208601356138ec81613388565b60008060408385031215613a2157600080fd5b8235613a2c81613543565b9150602083013561397681613543565b600080600060608486031215613a5157600080fd5b8335613a5c81613388565b925060208401356135cd81613388565b600060208284031215613a7e57600080fd5b611b18826135de565b60008060008060808587031215613a9d57600080fd5b8435613aa881613388565b93506020850135613ab881613388565b92506040850135613ac881613543565b9396929550929360600135925050565b600181811c90821680613aec57607f821691505b602082108103613b0c57634e487b7160e01b600052602260045260246000fd5b50919050565b8183823760009101908152919050565b81835281816020850137506000828201602090810191909152601f909101601f19169091010190565b61ffff85168152606060208201526000613b69606083018587613b22565b905082604083015295945050505050565b61ffff871681526001600160a01b038616602082015260a060408201819052600090613ba8908301876134e7565b85151560608401528281036080840152613bc3818587613b22565b9998505050505050505050565b60008060408385031215613be357600080fd5b505080516020909101519092909150565b634e487b7160e01b600052601160045260246000fd5b60008219821115613c1d57613c1d613bf4565b500190565b6020808252600c908201526b1554d10c0e881c185d5cd95960a21b604082015260600190565b6020808252601290820152711554d10c0e881d5b985d5d1a1bdc9a5e995960721b604082015260600190565b61ffff841681526040602082015260006122b9604083018486613b22565b6001600160a01b03878116825286166020820152604081018590526060810184905260a060808201819052600090613ccd9083018486613b22565b98975050505050505050565b600060208284031215613ceb57600080fd5b5051919050565b600082821015613d0457613d04613bf4565b500390565b8284823760609190911b6bffffffffffffffffffffffff19169101908152601401919050565b601f821115612c1557600081815260208120601f850160051c81016020861015613d565750805b601f850160051c820191505b8181101561180757828155600101613d62565b81516001600160401b03811115613d8e57613d8e6137aa565b613da281613d9c8454613ad8565b84613d2f565b602080601f831160018114613dd75760008415613dbf5750858301515b600019600386901b1c1916600185901b178555611807565b600085815260208120601f198616915b82811015613e0657888601518255948401946001909101908401613de7565b5085821015613e245787850151600019600388901b60f8161c191681555b5050505050600190811b01905550565b600061ffff808816835280871660208401525084604083015260806060830152613e62608083018486613b22565b979650505050505050565b61ffff86168152608060208201526000613e8b608083018688613b22565b6001600160401b0394909416604083015250606001529392505050565b6000816000190483118215151615613ec257613ec2613bf4565b500290565b600082613ee457634e487b7160e01b600052601260045260246000fd5b500490565b6001600160401b03831115613f0057613f006137aa565b613f1483613f0e8354613ad8565b83613d2f565b6000601f841160018114613f485760008515613f305750838201355b600019600387901b1c1916600186901b178355610f99565b600083815260209020601f19861690835b82811015613f795786850135825560209485019460019092019101613f59565b5086821015613f965760001960f88860031b161c19848701351681555b505060018560011b0183555050505050565b600082601f830112613fb957600080fd5b8151613fc7613871826137f0565b818152846020838601011115613fdc57600080fd5b613fed8260208301602087016134bb565b949350505050565b60006020828403121561400757600080fd5b81516001600160401b0381111561401d57600080fd5b613fed84828501613fa8565b61ffff8516815260806020820152600061404660808301866134e7565b6001600160401b03851660408401528281036060840152613e6281856134e7565b60006020828403121561407957600080fd5b8151611b1881613388565b61ffff841681526060602082015260006140a160608301856134e7565b9050826040830152949350505050565b6040815260006140c460408301856134e7565b90508260208301529392505050565b600082516140e58184602087016134bb565b9190910192915050565b61ffff8616815260a06020820152600061410c60a08301876134e7565b6001600160401b0386166040840152828103606084015261412d81866134e7565b90508281036080840152613ccd81856134e7565b61ffff8716815260c06020820152600061415e60c08301886134e7565b828103604084015261417081886134e7565b6001600160a01b0387811660608601528616608085015283810360a08501529050613bc381856134e7565b6000806000606084860312156141b057600080fd5b83516141bb81613388565b60208501519093506001600160401b038111156141d757600080fd5b6141e386828701613fa8565b92505060408401519050925092509256fea2646970667358221220a63a5ae3ec7076f0cbc24a9ed2dd4ca59236b564488f07f831150cf33133d37464736f6c634300080f0033",
  "devdoc": {
    "kind": "dev",
    "methods": {
      "allowance(address,address)": {
        "details": "See {IERC20-allowance}."
      },
      "approve(address,uint256)": {
        "details": "See {IERC20-approve}. NOTE: If `amount` is the maximum `uint256`, the allowance is not updated on `transferFrom`. This is semantically equivalent to an infinite approval. Requirements: - `spender` cannot be the zero address."
      },
      "balanceOf(address)": {
        "details": "See {IERC20-balanceOf}."
      },
      "burn(address,uint256)": {
        "params": {
          "_amount": "the amount to burn",
          "_from": "address to burn from"
        }
      },
      "circulatingSupply()": {
        "details": "returns the circulating amount of tokens on current chain"
      },
      "constructor": {
        "params": {
          "_lzEndpoint": "LayerZero endpoint"
        }
      },
      "decreaseAllowance(address,uint256)": {
        "details": "Atomically decreases the allowance granted to `spender` by the caller. This is an alternative to {approve} that can be used as a mitigation for problems described in {IERC20-approve}. Emits an {Approval} event indicating the updated allowance. Requirements: - `spender` cannot be the zero address. - `spender` must have allowance for the caller of at least `subtractedValue`."
      },
      "estimateSendFee(uint16,bytes,uint256,bool,bytes)": {
        "details": "estimate send token `_tokenId` to (`_dstChainId`, `_toAddress`) _dstChainId - L0 defined chain id to send tokens too _toAddress - dynamic bytes array which contains the address to whom you are sending tokens to on the dstChain _amount - amount of the tokens to transfer _useZro - indicates to use zro to pay L0 fees _adapterParam - flexible bytes array to indicate messaging adapter services in L0"
      },
      "increaseAllowance(address,uint256)": {
        "details": "Atomically increases the allowance granted to `spender` by the caller. This is an alternative to {approve} that can be used as a mitigation for problems described in {IERC20-approve}. Emits an {Approval} event indicating the updated allowance. Requirements: - `spender` cannot be the zero address."
      },
      "mint(address,uint256)": {
        "params": {
          "_amount": "the amount to mint",
          "_to": "receiver address"
        }
      },
      "name()": {
        "details": "Returns the name of the token."
      },
      "owner()": {
        "details": "Returns the address of the current owner."
      },
      "renounceOwnership()": {
        "details": "Leaves the contract without owner. It will not be possible to call `onlyOwner` functions anymore. Can only be called by the current owner. NOTE: Renouncing ownership will leave the contract without an owner, thereby removing any functionality that is only available to the owner."
      },
      "sendFrom(address,uint16,bytes,uint256,address,address,bytes)": {
        "details": "send `_amount` amount of token to (`_dstChainId`, `_toAddress`) from `_from` `_from` the owner of token `_dstChainId` the destination chain identifier `_toAddress` can be any size depending on the `dstChainId`. `_amount` the quantity of tokens in wei `_refundAddress` the address LayerZero refunds if too much message fee is sent `_zroPaymentAddress` set to address(0x0) if not paying in ZRO (LayerZero Token) `_adapterParams` is a flexible bytes array to indicate messaging adapter services"
      },
      "setBurnerStatus(address,bool)": {
        "params": {
          "_for": "role receiver",
          "_status": "true/false"
        }
      },
      "setConservator(address)": {
        "details": "Conservator can pause the contract",
        "params": {
          "_conservator": "The new address"
        }
      },
      "setFlashMintFee(uint256)": {
        "params": {
          "_val": "the new fee"
        }
      },
      "setMaxFlashMintable(uint256)": {
        "params": {
          "_val": "the new amount"
        }
      },
      "setMinterStatus(address,bool)": {
        "params": {
          "_for": "role receiver",
          "_status": "true/false"
        }
      },
      "symbol()": {
        "details": "Returns the symbol of the token, usually a shorter version of the name."
      },
      "token()": {
        "details": "returns the address of the ERC20 token"
      },
      "totalSupply()": {
        "details": "See {IERC20-totalSupply}."
      },
      "transfer(address,uint256)": {
        "details": "See {IERC20-transfer}. Requirements: - `to` cannot be the zero address. - the caller must have a balance of at least `amount`."
      },
      "transferFrom(address,address,uint256)": {
        "details": "See {IERC20-transferFrom}. Emits an {Approval} event indicating the updated allowance. This is not required by the EIP. See the note at the beginning of {ERC20}. NOTE: Does not update the allowance if the current allowance is the maximum `uint256`. Requirements: - `from` and `to` cannot be the zero address. - `from` must have a balance of at least `amount`. - the caller must have allowance for ``from``'s tokens of at least `amount`."
      },
      "transferOwnership(address)": {
        "details": "Transfers ownership of the contract to a new account (`newOwner`). Can only be called by the current owner."
      },
      "updatePause(bool)": {
        "params": {
          "val": "the new value"
        }
      }
    },
    "stateVariables": {
      "allowedBurner": {
        "details": "chainId>address>status"
      },
      "allowedMinter": {
        "details": "chainId>address>status"
      }
    },
    "title": "USD0 OFT contract",
    "version": 1
  },
  "userdoc": {
    "errors": {
      "TOFT_YB_ETHDeposit()": [
        {
          "notice": "========================== ========== Errors ======== ==========================Error while depositing ETH assets to YieldBox."
        }
      ]
    },
    "events": {
      "YieldBoxDeposit(uint256)": {
        "notice": "========================== ========== Events ======== =========================="
      }
    },
    "kind": "user",
    "methods": {
      "allowedBurner(uint256,address)": {
        "notice": "addresses allowed to burn USD0"
      },
      "allowedMinter(uint256,address)": {
        "notice": "addresses allowed to mint USD0"
      },
      "burn(address,uint256)": {
        "notice": "burns USD0"
      },
      "conservator()": {
        "notice": "returns the Conservator address"
      },
      "constructor": {
        "notice": "creates a new USDO0 OFT contract"
      },
      "decimals()": {
        "notice": "returns token's decimals"
      },
      "flashFee(address,uint256)": {
        "notice": "returns the flash mint fee"
      },
      "flashMintFee()": {
        "notice": "returns the flash mint fee"
      },
      "maxFlashLoan(address)": {
        "notice": "returns the maximum amount of tokens available for a flash mint"
      },
      "maxFlashMint()": {
        "notice": "returns the maximum amount of USD0 that can be minted through the EIP-3156 flow"
      },
      "mint(address,uint256)": {
        "notice": "mints USD0"
      },
      "paused()": {
        "notice": "returns the pause state of the contract"
      },
      "setBurnerStatus(address,bool)": {
        "notice": "sets/unsets address as burner"
      },
      "setConservator(address)": {
        "notice": "Set the Conservator address"
      },
      "setFlashMintFee(uint256)": {
        "notice": "set the flashloan fee"
      },
      "setMaxFlashMintable(uint256)": {
        "notice": "set the max allowed USD0 mintable through flashloan"
      },
      "setMinterStatus(address,bool)": {
        "notice": "sets/unsets address as minter"
      },
      "updatePause(bool)": {
        "notice": "updates the pause state of the contract"
      }
    },
    "version": 1
  },
  "storageLayout": {
    "storage": [
      {
        "astId": 7,
        "contract": "contracts/usd0/USD0.sol:USD0",
        "label": "_owner",
        "offset": 0,
        "slot": "0",
        "type": "t_address"
      },
      {
        "astId": 3283,
        "contract": "contracts/usd0/USD0.sol:USD0",
        "label": "trustedRemoteLookup",
        "offset": 0,
        "slot": "1",
        "type": "t_mapping(t_uint16,t_bytes_storage)"
      },
      {
        "astId": 3289,
        "contract": "contracts/usd0/USD0.sol:USD0",
        "label": "minDstGasLookup",
        "offset": 0,
        "slot": "2",
        "type": "t_mapping(t_uint16,t_mapping(t_uint16,t_uint256))"
      },
      {
        "astId": 3291,
        "contract": "contracts/usd0/USD0.sol:USD0",
        "label": "precrime",
        "offset": 0,
        "slot": "3",
        "type": "t_address"
      },
      {
        "astId": 3776,
        "contract": "contracts/usd0/USD0.sol:USD0",
        "label": "failedMessages",
        "offset": 0,
        "slot": "4",
        "type": "t_mapping(t_uint16,t_mapping(t_bytes_memory_ptr,t_mapping(t_uint64,t_bytes32)))"
      },
      {
        "astId": 4241,
        "contract": "contracts/usd0/USD0.sol:USD0",
        "label": "useCustomAdapterParams",
        "offset": 0,
        "slot": "5",
        "type": "t_bool"
      },
      {
        "astId": 128,
        "contract": "contracts/usd0/USD0.sol:USD0",
        "label": "_balances",
        "offset": 0,
        "slot": "6",
        "type": "t_mapping(t_address,t_uint256)"
      },
      {
        "astId": 134,
        "contract": "contracts/usd0/USD0.sol:USD0",
        "label": "_allowances",
        "offset": 0,
        "slot": "7",
        "type": "t_mapping(t_address,t_mapping(t_address,t_uint256))"
      },
      {
        "astId": 136,
        "contract": "contracts/usd0/USD0.sol:USD0",
        "label": "_totalSupply",
        "offset": 0,
        "slot": "8",
        "type": "t_uint256"
      },
      {
        "astId": 138,
        "contract": "contracts/usd0/USD0.sol:USD0",
        "label": "_name",
        "offset": 0,
        "slot": "9",
        "type": "t_string_storage"
      },
      {
        "astId": 140,
        "contract": "contracts/usd0/USD0.sol:USD0",
        "label": "_symbol",
        "offset": 0,
        "slot": "10",
        "type": "t_string_storage"
      },
      {
        "astId": 1920,
        "contract": "contracts/usd0/USD0.sol:USD0",
        "label": "conservator",
        "offset": 0,
        "slot": "11",
        "type": "t_address"
      },
      {
        "astId": 1927,
        "contract": "contracts/usd0/USD0.sol:USD0",
        "label": "allowedMinter",
        "offset": 0,
        "slot": "12",
        "type": "t_mapping(t_uint256,t_mapping(t_address,t_bool))"
      },
      {
        "astId": 1934,
        "contract": "contracts/usd0/USD0.sol:USD0",
        "label": "allowedBurner",
        "offset": 0,
        "slot": "13",
        "type": "t_mapping(t_uint256,t_mapping(t_address,t_bool))"
      },
      {
        "astId": 1937,
        "contract": "contracts/usd0/USD0.sol:USD0",
        "label": "paused",
        "offset": 0,
        "slot": "14",
        "type": "t_bool"
      },
      {
        "astId": 1940,
        "contract": "contracts/usd0/USD0.sol:USD0",
        "label": "flashMintFee",
        "offset": 0,
        "slot": "15",
        "type": "t_uint256"
      },
      {
        "astId": 1943,
        "contract": "contracts/usd0/USD0.sol:USD0",
        "label": "maxFlashMint",
        "offset": 0,
        "slot": "16",
        "type": "t_uint256"
      }
    ],
    "types": {
      "t_address": {
        "encoding": "inplace",
        "label": "address",
        "numberOfBytes": "20"
      },
      "t_bool": {
        "encoding": "inplace",
        "label": "bool",
        "numberOfBytes": "1"
      },
      "t_bytes32": {
        "encoding": "inplace",
        "label": "bytes32",
        "numberOfBytes": "32"
      },
      "t_bytes_memory_ptr": {
        "encoding": "bytes",
        "label": "bytes",
        "numberOfBytes": "32"
      },
      "t_bytes_storage": {
        "encoding": "bytes",
        "label": "bytes",
        "numberOfBytes": "32"
      },
      "t_mapping(t_address,t_bool)": {
        "encoding": "mapping",
        "key": "t_address",
        "label": "mapping(address => bool)",
        "numberOfBytes": "32",
        "value": "t_bool"
      },
      "t_mapping(t_address,t_mapping(t_address,t_uint256))": {
        "encoding": "mapping",
        "key": "t_address",
        "label": "mapping(address => mapping(address => uint256))",
        "numberOfBytes": "32",
        "value": "t_mapping(t_address,t_uint256)"
      },
      "t_mapping(t_address,t_uint256)": {
        "encoding": "mapping",
        "key": "t_address",
        "label": "mapping(address => uint256)",
        "numberOfBytes": "32",
        "value": "t_uint256"
      },
      "t_mapping(t_bytes_memory_ptr,t_mapping(t_uint64,t_bytes32))": {
        "encoding": "mapping",
        "key": "t_bytes_memory_ptr",
        "label": "mapping(bytes => mapping(uint64 => bytes32))",
        "numberOfBytes": "32",
        "value": "t_mapping(t_uint64,t_bytes32)"
      },
      "t_mapping(t_uint16,t_bytes_storage)": {
        "encoding": "mapping",
        "key": "t_uint16",
        "label": "mapping(uint16 => bytes)",
        "numberOfBytes": "32",
        "value": "t_bytes_storage"
      },
      "t_mapping(t_uint16,t_mapping(t_bytes_memory_ptr,t_mapping(t_uint64,t_bytes32)))": {
        "encoding": "mapping",
        "key": "t_uint16",
        "label": "mapping(uint16 => mapping(bytes => mapping(uint64 => bytes32)))",
        "numberOfBytes": "32",
        "value": "t_mapping(t_bytes_memory_ptr,t_mapping(t_uint64,t_bytes32))"
      },
      "t_mapping(t_uint16,t_mapping(t_uint16,t_uint256))": {
        "encoding": "mapping",
        "key": "t_uint16",
        "label": "mapping(uint16 => mapping(uint16 => uint256))",
        "numberOfBytes": "32",
        "value": "t_mapping(t_uint16,t_uint256)"
      },
      "t_mapping(t_uint16,t_uint256)": {
        "encoding": "mapping",
        "key": "t_uint16",
        "label": "mapping(uint16 => uint256)",
        "numberOfBytes": "32",
        "value": "t_uint256"
      },
      "t_mapping(t_uint256,t_mapping(t_address,t_bool))": {
        "encoding": "mapping",
        "key": "t_uint256",
        "label": "mapping(uint256 => mapping(address => bool))",
        "numberOfBytes": "32",
        "value": "t_mapping(t_address,t_bool)"
      },
      "t_mapping(t_uint64,t_bytes32)": {
        "encoding": "mapping",
        "key": "t_uint64",
        "label": "mapping(uint64 => bytes32)",
        "numberOfBytes": "32",
        "value": "t_bytes32"
      },
      "t_string_storage": {
        "encoding": "bytes",
        "label": "string",
        "numberOfBytes": "32"
      },
      "t_uint16": {
        "encoding": "inplace",
        "label": "uint16",
        "numberOfBytes": "2"
      },
      "t_uint256": {
        "encoding": "inplace",
        "label": "uint256",
        "numberOfBytes": "32"
      },
      "t_uint64": {
        "encoding": "inplace",
        "label": "uint64",
        "numberOfBytes": "8"
      }
    }
  }
}