{
  "address": "0xbDbFB6252fA47fBA3Bd1667EFfCdAA43F8D2C0FB",
  "abi": [
    {
      "inputs": [
        {
          "components": [
            {
              "internalType": "enum TokenType",
              "name": "tokenType",
              "type": "uint8"
            },
            {
              "internalType": "address",
              "name": "contractAddress",
              "type": "address"
            },
            {
              "internalType": "contract IStrategy",
              "name": "strategy",
              "type": "address"
            },
            {
              "internalType": "uint256",
              "name": "tokenId",
              "type": "uint256"
            }
          ],
          "internalType": "struct Asset",
          "name": "asset",
          "type": "tuple"
        },
        {
          "internalType": "uint8",
          "name": "nativeDecimals",
          "type": "uint8"
        }
      ],
      "name": "decimals",
      "outputs": [
        {
          "internalType": "uint8",
          "name": "",
          "type": "uint8"
        }
      ],
      "stateMutability": "view",
      "type": "function"
    },
    {
      "inputs": [
        {
          "components": [
            {
              "internalType": "enum TokenType",
              "name": "tokenType",
              "type": "uint8"
            },
            {
              "internalType": "address",
              "name": "contractAddress",
              "type": "address"
            },
            {
              "internalType": "contract IStrategy",
              "name": "strategy",
              "type": "address"
            },
            {
              "internalType": "uint256",
              "name": "tokenId",
              "type": "uint256"
            }
          ],
          "internalType": "struct Asset",
          "name": "asset",
          "type": "tuple"
        },
        {
          "internalType": "string",
          "name": "nativeName",
          "type": "string"
        }
      ],
      "name": "name",
      "outputs": [
        {
          "internalType": "string",
          "name": "",
          "type": "string"
        }
      ],
      "stateMutability": "view",
      "type": "function"
    },
    {
      "inputs": [
        {
          "components": [
            {
              "internalType": "enum TokenType",
              "name": "tokenType",
              "type": "uint8"
            },
            {
              "internalType": "address",
              "name": "contractAddress",
              "type": "address"
            },
            {
              "internalType": "contract IStrategy",
              "name": "strategy",
              "type": "address"
            },
            {
              "internalType": "uint256",
              "name": "tokenId",
              "type": "uint256"
            }
          ],
          "internalType": "struct Asset",
          "name": "asset",
          "type": "tuple"
        },
        {
          "internalType": "string",
          "name": "nativeSymbol",
          "type": "string"
        }
      ],
      "name": "symbol",
      "outputs": [
        {
          "internalType": "string",
          "name": "",
          "type": "string"
        }
      ],
      "stateMutability": "view",
      "type": "function"
    },
    {
      "inputs": [
        {
          "components": [
            {
              "internalType": "enum TokenType",
              "name": "tokenType",
              "type": "uint8"
            },
            {
              "internalType": "address",
              "name": "contractAddress",
              "type": "address"
            },
            {
              "internalType": "contract IStrategy",
              "name": "strategy",
              "type": "address"
            },
            {
              "internalType": "uint256",
              "name": "tokenId",
              "type": "uint256"
            }
          ],
          "internalType": "struct Asset",
          "name": "asset",
          "type": "tuple"
        },
        {
          "components": [
            {
              "internalType": "string",
              "name": "name",
              "type": "string"
            },
            {
              "internalType": "string",
              "name": "symbol",
              "type": "string"
            },
            {
              "internalType": "uint8",
              "name": "decimals",
              "type": "uint8"
            },
            {
              "internalType": "string",
              "name": "uri",
              "type": "string"
            }
          ],
          "internalType": "struct NativeToken",
          "name": "nativeToken",
          "type": "tuple"
        },
        {
          "internalType": "uint256",
          "name": "totalSupply",
          "type": "uint256"
        },
        {
          "internalType": "address",
          "name": "owner",
          "type": "address"
        }
      ],
      "name": "uri",
      "outputs": [
        {
          "internalType": "string",
          "name": "",
          "type": "string"
        }
      ],
      "stateMutability": "view",
      "type": "function"
    }
  ],
  "transactionHash": "0xad0790f2e70b338573132b5d9ab6eee0ec45638faf8e747ddb5b4aa2e6da1071",
  "args": [],
  "numDeployments": 1,
  "solcInputHash": "00159a693e7dec675ccf3b4367e7c901",
  "bytecode": "0x608060405234801561001057600080fd5b50611b8d806100206000396000f3fe608060405234801561001057600080fd5b506004361061004c5760003560e01c80635c6d8435146100515780636d7cd0371461007a57806384b1017d1461009f578063aa1163b9146100b2575b600080fd5b61006461005f36600461131f565b6100c5565b60405161007191906113ba565b60405180910390f35b61008d6100883660046113fc565b6105a6565b60405160ff9091168152602001610071565b6100646100ad366004611434565b610633565b6100646100c0366004611434565b610999565b60606100f26040518060800160405280606081526020016060815260200160608152602001600081525090565b600361010160208801886114ce565b6004811115610112576101126114b8565b14156101bc5760408051808201825260078152664552433131353560c81b60208083019190915290835261016091601491610151918a01908a016114ef565b6001600160a01b031690610baa565b61016d8760600135610d4a565b60405160200161017e929190611528565b60408051601f198184030181529181526020838101929092528051808201825260078152664552433131353560c81b92810192909252820152610335565b60016101cb60208801886114ce565b60048111156101dc576101dc6114b8565b141561026d5760006101f460408801602089016114ef565b6040805160c0810190915260056080820190815264045524332360dc1b60a08301528152909150602081016102316001600160a01b038416610e50565b8152602001610248836001600160a01b0316610f0b565b815260200161025f836001600160a01b0316610f52565b60ff16815250915050610335565b6040805180820190915260068152654e617469766560d01b602082015281526102968580611578565b8080601f0160208091040260200160405190810160405280939291908181526020018383808284376000920191909152505050506020808301919091526102df90860186611578565b8080601f01602080910402602001604051908101604052809392919081815260200183838082843760009201919091525050505060408083019190915261032c90606087019087016115c6565b60ff1660608201525b60008061034560208901896114ce565b6004811115610356576103566114b8565b14156103da5761036585610d4a565b6001600160a01b03851615610397576040518060400160405280600581526020016466616c736560d81b8152506103b5565b604051806040016040528060048152602001637472756560e01b8152505b6040516020016103c69291906115e3565b60405160208183030381529060405261040f565b6103ef601461015160408a0160208b016114ef565b6040516020016103ff9190611649565b6040516020818303038152906040525b6020830151604084015191925061057b91600361042f60208c018c6114ce565b6004811115610440576104406114b8565b1461046f576040518060400160405280600c81526020016b16113232b1b4b6b0b639911d60a11b815250610480565b604051806020016040528060008152505b600361048f60208d018d6114ce565b60048111156104a0576104a06114b8565b146104b7576104b28660600151610d4a565b6104c8565b604051806020016040528060008152505b6104e060148d604001602081019061015191906114ef565b87518760038f60000160208101906104f891906114ce565b6004811115610509576105096114b8565b146105235760405180602001604052806000815250610550565b6105308f60600135610d4a565b604051602001610540919061168e565b6040516020818303038152906040525b6040516020016105679897969594939291906116c2565b60405160208183030381529060405261100a565b60405160200161058b91906117f9565b60405160208183030381529060405292505050949350505050565b600060036105b760208501856114ce565b60048111156105c8576105c86114b8565b14156105d65750600061062d565b60016105e560208501856114ce565b60048111156105f6576105f66114b8565b141561062a57600061060e60408501602086016114ef565b9050610622816001600160a01b0316610f52565b91505061062d565b50805b92915050565b60606000610646858301604087016114ef565b6001600160a01b0316141561073257600161066460208601866114ce565b6004811115610675576106756114b8565b14156106a957600061068d60408601602087016114ef565b90506106a1816001600160a01b0316610f0b565b915050610992565b60036106b860208601866114ce565b60048111156106c9576106c96114b8565b14156106f357506040805180820190915260078152664552433131353560c81b6020820152610992565b82828080601f01602080910402602001604051908101604052809392919081815260200183838082843760009201919091525092935061099292505050565b600161074160208601866114ce565b6004811115610752576107526114b8565b141561082a57600061076a60408601602087016114ef565b905061077e816001600160a01b0316610f0b565b61078e60608701604088016114ef565b6001600160a01b03166306fdde036040518163ffffffff1660e01b815260040160006040518083038186803b1580156107c657600080fd5b505afa1580156107da573d6000803e3d6000fd5b505050506040513d6000823e601f3d908101601f191682016040526108029190810190611854565b604051602001610813929190611901565b604051602081830303815290604052915050610992565b600361083960208601866114ce565b600481111561084a5761084a6114b8565b14156108fa5761086060608501604086016114ef565b6001600160a01b03166306fdde036040518163ffffffff1660e01b815260040160006040518083038186803b15801561089857600080fd5b505afa1580156108ac573d6000803e3d6000fd5b505050506040513d6000823e601f3d908101601f191682016040526108d49190810190611854565b6040516020016108e4919061194c565b6040516020818303038152906040529050610992565b828261090c60608701604088016114ef565b6001600160a01b03166306fdde036040518163ffffffff1660e01b815260040160006040518083038186803b15801561094457600080fd5b505afa158015610958573d6000803e3d6000fd5b505050506040513d6000823e601f3d908101601f191682016040526109809190810190611854565b6040516020016108e493929190611991565b9392505050565b606060006109ac858301604087016114ef565b6001600160a01b03161415610a605760016109ca60208601866114ce565b60048111156109db576109db6114b8565b1415610a075760006109f360408601602087016114ef565b90506106a1816001600160a01b0316610e50565b6003610a1660208601866114ce565b6004811115610a2757610a276114b8565b14156106f357610a42601461015160408701602088016114ef565b610a4f8560600135610d4a565b6040516020016108e4929190611528565b6001610a6f60208601866114ce565b6004811115610a8057610a806114b8565b1415610aac576000610a9860408601602087016114ef565b905061077e816001600160a01b0316610e50565b6003610abb60208601866114ce565b6004811115610acc57610acc6114b8565b14156108fa57610ae7601461015160408701602088016114ef565b610af48560600135610d4a565b604051602001610b05929190611528565b60408051601f19818403018152918152610b2590606087019087016114ef565b6001600160a01b03166306fdde036040518163ffffffff1660e01b815260040160006040518083038186803b158015610b5d57600080fd5b505afa158015610b71573d6000803e3d6000fd5b505050506040513d6000823e601f3d908101601f19168201604052610b999190810190611854565b6040516020016108e4929190611901565b60606000610bb98360026119ea565b610bc4906002611a09565b67ffffffffffffffff811115610bdc57610bdc61183e565b6040519080825280601f01601f191660200182016040528015610c06576020820181803683370190505b509050600360fc1b81600081518110610c2157610c21611a21565b60200101906001600160f81b031916908160001a905350600f60fb1b81600181518110610c5057610c50611a21565b60200101906001600160f81b031916908160001a9053506000610c748460026119ea565b610c7f906001611a09565b90505b6001811115610cf7576f181899199a1a9b1b9c1cb0b131b232b360811b85600f1660108110610cb357610cb3611a21565b1a60f81b828281518110610cc957610cc9611a21565b60200101906001600160f81b031916908160001a90535060049490941c93610cf081611a37565b9050610c82565b5083156109925760405162461bcd60e51b815260206004820181905260248201527f537472696e67733a20686578206c656e67746820696e73756666696369656e74604482015260640160405180910390fd5b606081610d6e5750506040805180820190915260018152600360fc1b602082015290565b8160005b8115610d985780610d8281611a4e565b9150610d919050600a83611a7f565b9150610d72565b60008167ffffffffffffffff811115610db357610db361183e565b6040519080825280601f01601f191660200182016040528015610ddd576020820181803683370190505b5090505b8415610e4857610df2600183611a93565b9150610dff600a86611aaa565b610e0a906030611a09565b60f81b818381518110610e1f57610e1f611a21565b60200101906001600160f81b031916908160001a905350610e41600a86611a7f565b9450610de1565b949350505050565b60408051600481526024810182526020810180516001600160e01b03166306fdde0360e01b179052905160609160009182916001600160a01b03861691610e979190611abe565b600060405180830381855afa9150503d8060008114610ed2576040519150601f19603f3d011682016040523d82523d6000602084013e610ed7565b606091505b509150915081610f0257604051806040016040528060038152602001623f3f3f60e81b815250610e48565b610e4881611170565b60408051600481526024810182526020810180516001600160e01b03166395d89b4160e01b179052905160609160009182916001600160a01b03861691610e979190611abe565b60408051600481526024810182526020810180516001600160e01b031663313ce56760e01b1790529051600091829182916001600160a01b03861691610f989190611abe565b600060405180830381855afa9150503d8060008114610fd3576040519150601f19603f3d011682016040523d82523d6000602084013e610fd8565b606091505b5091509150818015610feb575080516020145b610ff6576012610e48565b80806020019051810190610e489190611ada565b606081516000141561102a57505060408051602081019091526000815290565b6000604051806060016040528060408152602001611b1860409139905060006003845160026110599190611a09565b6110639190611a7f565b61106e9060046119ea565b9050600061107d826020611a09565b67ffffffffffffffff8111156110955761109561183e565b6040519080825280601f01601f1916602001820160405280156110bf576020820181803683370190505b509050818152600183018586518101602084015b8183101561112b576003830192508251603f8160121c168501518253600182019150603f81600c1c168501518253600182019150603f8160061c168501518253600182019150603f81168501518253506001016110d3565b600389510660018114611145576002811461115657611162565b613d3d60f01b600119830152611162565b603d60f81b6000198301525b509398975050505050505050565b6060604082511061118f578180602001905181019061062d9190611854565b8151602014156112d05760005b60208160ff161080156111d15750828160ff16815181106111bf576111bf611a21565b01602001516001600160f81b03191615155b156111e857806111e081611af7565b91505061119c565b60008160ff1667ffffffffffffffff8111156112065761120661183e565b6040519080825280601f01601f191660200182016040528015611230576020820181803683370190505b509050600091505b60208260ff1610801561126d5750838260ff168151811061125b5761125b611a21565b01602001516001600160f81b03191615155b1561099257838260ff168151811061128757611287611a21565b602001015160f81c60f81b818360ff16815181106112a7576112a7611a21565b60200101906001600160f81b031916908160001a905350816112c881611af7565b925050611238565b50506040805180820190915260038152623f3f3f60e81b602082015290565b60006080828403121561130157600080fd5b50919050565b6001600160a01b038116811461131c57600080fd5b50565b60008060008060e0858703121561133557600080fd5b61133f86866112ef565b9350608085013567ffffffffffffffff81111561135b57600080fd5b611367878288016112ef565b93505060a0850135915060c085013561137f81611307565b939692955090935050565b60005b838110156113a557818101518382015260200161138d565b838111156113b4576000848401525b50505050565b60208152600082518060208401526113d981604085016020870161138a565b601f01601f19169190910160400192915050565b60ff8116811461131c57600080fd5b60008060a0838503121561140f57600080fd5b61141984846112ef565b91506080830135611429816113ed565b809150509250929050565b600080600060a0848603121561144957600080fd5b61145385856112ef565b9250608084013567ffffffffffffffff8082111561147057600080fd5b818601915086601f83011261148457600080fd5b81358181111561149357600080fd5b8760208285010111156114a557600080fd5b6020830194508093505050509250925092565b634e487b7160e01b600052602160045260246000fd5b6000602082840312156114e057600080fd5b81356005811061099257600080fd5b60006020828403121561150157600080fd5b813561099281611307565b6000815161151e81856020860161138a565b9290920192915050565b6722a92198989a9a9d60c11b81526000835161154b81600885016020880161138a565b602f60f81b600891840191820152835161156c81600984016020880161138a565b01600901949350505050565b6000808335601e1984360301811261158f57600080fd5b83018035915067ffffffffffffffff8211156115aa57600080fd5b6020019150368190038213156115bf57600080fd5b9250929050565b6000602082840312156115d857600080fd5b8135610992816113ed565b6e16113a37ba30b629bab838363c911d60891b8152825160009061160e81600f85016020880161138a565b6e16113334bc32b229bab838363c911d60891b600f91840191820152835161163d81601e84016020880161138a565b01601e01949350505050565b7016113a37b5b2b720b2323932b9b9911d1160791b8152815160009061167681601185016020870161138a565b601160f91b6011939091019283015250601201919050565b6a16113a37b5b2b724b2111d60a91b815281516000906116b581600b85016020870161138a565b91909101600b0192915050565b683d913730b6b2911d1160b91b815288516000906116e7816009850160208e0161138a565b6b11161139bcb6b137b6111d1160a11b6009918401918201528951611713816015840160208e0161138a565b601160f91b601592909101918201528851611735816016840160208d0161138a565b885191019061174b816016840160208c0161138a565b7f2c2270726f70657274696573223a7b227374726174656779223a220000000000601692909101918201528651611789816031840160208b0161138a565b6117e96117db6117d56117cf6117c26117bc6031878901016e1116113a37b5b2b72a3cb832911d1160891b8152600f0190565b8c61150c565b601160f91b815260010190565b8961150c565b8761150c565b617d7d60f01b815260020190565b9c9b505050505050505050505050565b7f646174613a6170706c69636174696f6e2f6a736f6e3b6261736536342c00000081526000825161183181601d85016020870161138a565b91909101601d0192915050565b634e487b7160e01b600052604160045260246000fd5b60006020828403121561186657600080fd5b815167ffffffffffffffff8082111561187e57600080fd5b818401915084601f83011261189257600080fd5b8151818111156118a4576118a461183e565b604051601f8201601f19908116603f011681019083821181831017156118cc576118cc61183e565b816040528281528760208487010111156118e557600080fd5b6118f683602083016020880161138a565b979650505050505050565b6000835161191381846020880161138a565b61040560f31b908301908152835161193281600284016020880161138a565b602960f81b60029290910191820152600301949350505050565b664552433131353560c81b815261040560f31b60078201526000825161197981600985016020870161138a565b602960f81b6009939091019283015250600a01919050565b8284823760008382016000815261040560f31b815283516119b981600284016020880161138a565b602960f81b6002929091019182015260030195945050505050565b634e487b7160e01b600052601160045260246000fd5b6000816000190483118215151615611a0457611a046119d4565b500290565b60008219821115611a1c57611a1c6119d4565b500190565b634e487b7160e01b600052603260045260246000fd5b600081611a4657611a466119d4565b506000190190565b6000600019821415611a6257611a626119d4565b5060010190565b634e487b7160e01b600052601260045260246000fd5b600082611a8e57611a8e611a69565b500490565b600082821015611aa557611aa56119d4565b500390565b600082611ab957611ab9611a69565b500690565b60008251611ad081846020870161138a565b9190910192915050565b600060208284031215611aec57600080fd5b8151610992816113ed565b600060ff821660ff811415611b0e57611b0e6119d4565b6001019291505056fe4142434445464748494a4b4c4d4e4f505152535455565758595a6162636465666768696a6b6c6d6e6f707172737475767778797a303132333435363738392b2fa26469706673582212205c3a7165740aedb243be175e89b7e01a1aa37605354408c7f8343a8d4d52c98664736f6c63430008090033",
  "devdoc": {
    "kind": "dev",
    "methods": {},
    "version": 1
  },
  "userdoc": {
    "kind": "user",
    "methods": {},
    "version": 1
  },
  "storageLayout": {
    "storage": [],
    "types": null
  }
}