{
  "address": "0x9E4d9d5Aa1b2bAaDe3e2A55f479587549Dd67c62",
  "abi": [
    {
      "inputs": [
        {
          "internalType": "contract IWrappedNative",
          "name": "wrappedNative_",
          "type": "address"
        },
        {
          "internalType": "contract YieldBoxURIBuilder",
          "name": "uriBuilder_",
          "type": "address"
        }
      ],
      "stateMutability": "nonpayable",
      "type": "constructor"
    },
    {
      "inputs": [
        {
          "internalType": "bytes",
          "name": "innerError",
          "type": "bytes"
        }
      ],
      "name": "BatchError",
      "type": "error"
    },
    {
      "anonymous": false,
      "inputs": [
        {
          "indexed": true,
          "internalType": "address",
          "name": "_owner",
          "type": "address"
        },
        {
          "indexed": true,
          "internalType": "address",
          "name": "_operator",
          "type": "address"
        },
        {
          "indexed": false,
          "internalType": "bool",
          "name": "_approved",
          "type": "bool"
        }
      ],
      "name": "ApprovalForAll",
      "type": "event"
    },
    {
      "anonymous": false,
      "inputs": [
        {
          "indexed": true,
          "internalType": "enum TokenType",
          "name": "tokenType",
          "type": "uint8"
        },
        {
          "indexed": true,
          "internalType": "address",
          "name": "contractAddress",
          "type": "address"
        },
        {
          "indexed": false,
          "internalType": "contract IStrategy",
          "name": "strategy",
          "type": "address"
        },
        {
          "indexed": true,
          "internalType": "uint256",
          "name": "tokenId",
          "type": "uint256"
        },
        {
          "indexed": false,
          "internalType": "uint256",
          "name": "assetId",
          "type": "uint256"
        }
      ],
      "name": "AssetRegistered",
      "type": "event"
    },
    {
      "anonymous": false,
      "inputs": [
        {
          "indexed": true,
          "internalType": "address",
          "name": "masterContract",
          "type": "address"
        },
        {
          "indexed": false,
          "internalType": "bytes",
          "name": "data",
          "type": "bytes"
        },
        {
          "indexed": true,
          "internalType": "address",
          "name": "cloneAddress",
          "type": "address"
        }
      ],
      "name": "LogDeploy",
      "type": "event"
    },
    {
      "anonymous": false,
      "inputs": [
        {
          "indexed": true,
          "internalType": "uint256",
          "name": "tokenId",
          "type": "uint256"
        },
        {
          "indexed": true,
          "internalType": "address",
          "name": "previousOwner",
          "type": "address"
        },
        {
          "indexed": true,
          "internalType": "address",
          "name": "newOwner",
          "type": "address"
        }
      ],
      "name": "OwnershipTransferred",
      "type": "event"
    },
    {
      "anonymous": false,
      "inputs": [
        {
          "indexed": true,
          "internalType": "address",
          "name": "creator",
          "type": "address"
        },
        {
          "indexed": false,
          "internalType": "string",
          "name": "name",
          "type": "string"
        },
        {
          "indexed": false,
          "internalType": "string",
          "name": "symbol",
          "type": "string"
        },
        {
          "indexed": false,
          "internalType": "uint8",
          "name": "decimals",
          "type": "uint8"
        },
        {
          "indexed": false,
          "internalType": "uint256",
          "name": "tokenId",
          "type": "uint256"
        }
      ],
      "name": "TokenCreated",
      "type": "event"
    },
    {
      "anonymous": false,
      "inputs": [
        {
          "indexed": true,
          "internalType": "address",
          "name": "_operator",
          "type": "address"
        },
        {
          "indexed": true,
          "internalType": "address",
          "name": "_from",
          "type": "address"
        },
        {
          "indexed": true,
          "internalType": "address",
          "name": "_to",
          "type": "address"
        },
        {
          "indexed": false,
          "internalType": "uint256[]",
          "name": "_ids",
          "type": "uint256[]"
        },
        {
          "indexed": false,
          "internalType": "uint256[]",
          "name": "_values",
          "type": "uint256[]"
        }
      ],
      "name": "TransferBatch",
      "type": "event"
    },
    {
      "anonymous": false,
      "inputs": [
        {
          "indexed": true,
          "internalType": "address",
          "name": "_operator",
          "type": "address"
        },
        {
          "indexed": true,
          "internalType": "address",
          "name": "_from",
          "type": "address"
        },
        {
          "indexed": true,
          "internalType": "address",
          "name": "_to",
          "type": "address"
        },
        {
          "indexed": false,
          "internalType": "uint256",
          "name": "_id",
          "type": "uint256"
        },
        {
          "indexed": false,
          "internalType": "uint256",
          "name": "_value",
          "type": "uint256"
        }
      ],
      "name": "TransferSingle",
      "type": "event"
    },
    {
      "anonymous": false,
      "inputs": [
        {
          "indexed": false,
          "internalType": "string",
          "name": "_value",
          "type": "string"
        },
        {
          "indexed": true,
          "internalType": "uint256",
          "name": "_id",
          "type": "uint256"
        }
      ],
      "name": "URI",
      "type": "event"
    },
    {
      "inputs": [
        {
          "internalType": "address",
          "name": "user",
          "type": "address"
        },
        {
          "internalType": "uint256",
          "name": "assetId",
          "type": "uint256"
        }
      ],
      "name": "amountOf",
      "outputs": [
        {
          "internalType": "uint256",
          "name": "amount",
          "type": "uint256"
        }
      ],
      "stateMutability": "view",
      "type": "function"
    },
    {
      "inputs": [],
      "name": "assetCount",
      "outputs": [
        {
          "internalType": "uint256",
          "name": "",
          "type": "uint256"
        }
      ],
      "stateMutability": "view",
      "type": "function"
    },
    {
      "inputs": [
        {
          "internalType": "uint256",
          "name": "assetId",
          "type": "uint256"
        }
      ],
      "name": "assetTotals",
      "outputs": [
        {
          "internalType": "uint256",
          "name": "totalShare",
          "type": "uint256"
        },
        {
          "internalType": "uint256",
          "name": "totalAmount",
          "type": "uint256"
        }
      ],
      "stateMutability": "view",
      "type": "function"
    },
    {
      "inputs": [
        {
          "internalType": "uint256",
          "name": "",
          "type": "uint256"
        }
      ],
      "name": "assets",
      "outputs": [
        {
          "internalType": "enum TokenType",
          "name": "tokenType",
          "type": "uint8"
        },
        {
          "internalType": "address",
          "name": "contractAddress",
          "type": "address"
        },
        {
          "internalType": "contract IStrategy",
          "name": "strategy",
          "type": "address"
        },
        {
          "internalType": "uint256",
          "name": "tokenId",
          "type": "uint256"
        }
      ],
      "stateMutability": "view",
      "type": "function"
    },
    {
      "inputs": [
        {
          "internalType": "address",
          "name": "",
          "type": "address"
        },
        {
          "internalType": "uint256",
          "name": "",
          "type": "uint256"
        }
      ],
      "name": "balanceOf",
      "outputs": [
        {
          "internalType": "uint256",
          "name": "",
          "type": "uint256"
        }
      ],
      "stateMutability": "view",
      "type": "function"
    },
    {
      "inputs": [
        {
          "internalType": "address[]",
          "name": "owners",
          "type": "address[]"
        },
        {
          "internalType": "uint256[]",
          "name": "ids",
          "type": "uint256[]"
        }
      ],
      "name": "balanceOfBatch",
      "outputs": [
        {
          "internalType": "uint256[]",
          "name": "balances",
          "type": "uint256[]"
        }
      ],
      "stateMutability": "view",
      "type": "function"
    },
    {
      "inputs": [
        {
          "internalType": "bytes[]",
          "name": "calls",
          "type": "bytes[]"
        },
        {
          "internalType": "bool",
          "name": "revertOnFail",
          "type": "bool"
        }
      ],
      "name": "batch",
      "outputs": [],
      "stateMutability": "payable",
      "type": "function"
    },
    {
      "inputs": [
        {
          "internalType": "address",
          "name": "from",
          "type": "address"
        },
        {
          "internalType": "address",
          "name": "to",
          "type": "address"
        },
        {
          "internalType": "uint256[]",
          "name": "assetIds_",
          "type": "uint256[]"
        },
        {
          "internalType": "uint256[]",
          "name": "shares_",
          "type": "uint256[]"
        }
      ],
      "name": "batchTransfer",
      "outputs": [],
      "stateMutability": "nonpayable",
      "type": "function"
    },
    {
      "inputs": [
        {
          "internalType": "uint256",
          "name": "tokenId",
          "type": "uint256"
        },
        {
          "internalType": "address",
          "name": "from",
          "type": "address"
        },
        {
          "internalType": "uint256",
          "name": "amount",
          "type": "uint256"
        }
      ],
      "name": "burn",
      "outputs": [],
      "stateMutability": "nonpayable",
      "type": "function"
    },
    {
      "inputs": [
        {
          "internalType": "uint256",
          "name": "tokenId",
          "type": "uint256"
        }
      ],
      "name": "claimOwnership",
      "outputs": [],
      "stateMutability": "nonpayable",
      "type": "function"
    },
    {
      "inputs": [
        {
          "internalType": "address",
          "name": "",
          "type": "address"
        },
        {
          "internalType": "uint256",
          "name": "",
          "type": "uint256"
        }
      ],
      "name": "clonesOf",
      "outputs": [
        {
          "internalType": "address",
          "name": "",
          "type": "address"
        }
      ],
      "stateMutability": "view",
      "type": "function"
    },
    {
      "inputs": [
        {
          "internalType": "address",
          "name": "masterContract",
          "type": "address"
        }
      ],
      "name": "clonesOfCount",
      "outputs": [
        {
          "internalType": "uint256",
          "name": "cloneCount",
          "type": "uint256"
        }
      ],
      "stateMutability": "view",
      "type": "function"
    },
    {
      "inputs": [
        {
          "internalType": "string",
          "name": "name",
          "type": "string"
        },
        {
          "internalType": "string",
          "name": "symbol",
          "type": "string"
        },
        {
          "internalType": "uint8",
          "name": "decimals",
          "type": "uint8"
        },
        {
          "internalType": "string",
          "name": "uri",
          "type": "string"
        }
      ],
      "name": "createToken",
      "outputs": [
        {
          "internalType": "uint32",
          "name": "tokenId",
          "type": "uint32"
        }
      ],
      "stateMutability": "nonpayable",
      "type": "function"
    },
    {
      "inputs": [
        {
          "internalType": "uint256",
          "name": "assetId",
          "type": "uint256"
        }
      ],
      "name": "decimals",
      "outputs": [
        {
          "internalType": "uint8",
          "name": "",
          "type": "uint8"
        }
      ],
      "stateMutability": "view",
      "type": "function"
    },
    {
      "inputs": [
        {
          "internalType": "address",
          "name": "masterContract",
          "type": "address"
        },
        {
          "internalType": "bytes",
          "name": "data",
          "type": "bytes"
        },
        {
          "internalType": "bool",
          "name": "useCreate2",
          "type": "bool"
        }
      ],
      "name": "deploy",
      "outputs": [
        {
          "internalType": "address",
          "name": "cloneAddress",
          "type": "address"
        }
      ],
      "stateMutability": "payable",
      "type": "function"
    },
    {
      "inputs": [
        {
          "internalType": "enum TokenType",
          "name": "tokenType",
          "type": "uint8"
        },
        {
          "internalType": "address",
          "name": "contractAddress",
          "type": "address"
        },
        {
          "internalType": "contract IStrategy",
          "name": "strategy",
          "type": "address"
        },
        {
          "internalType": "uint256",
          "name": "tokenId",
          "type": "uint256"
        },
        {
          "internalType": "address",
          "name": "from",
          "type": "address"
        },
        {
          "internalType": "address",
          "name": "to",
          "type": "address"
        },
        {
          "internalType": "uint256",
          "name": "amount",
          "type": "uint256"
        },
        {
          "internalType": "uint256",
          "name": "share",
          "type": "uint256"
        }
      ],
      "name": "deposit",
      "outputs": [
        {
          "internalType": "uint256",
          "name": "amountOut",
          "type": "uint256"
        },
        {
          "internalType": "uint256",
          "name": "shareOut",
          "type": "uint256"
        }
      ],
      "stateMutability": "nonpayable",
      "type": "function"
    },
    {
      "inputs": [
        {
          "internalType": "uint256",
          "name": "assetId",
          "type": "uint256"
        },
        {
          "internalType": "address",
          "name": "from",
          "type": "address"
        },
        {
          "internalType": "address",
          "name": "to",
          "type": "address"
        },
        {
          "internalType": "uint256",
          "name": "amount",
          "type": "uint256"
        },
        {
          "internalType": "uint256",
          "name": "share",
          "type": "uint256"
        }
      ],
      "name": "depositAsset",
      "outputs": [
        {
          "internalType": "uint256",
          "name": "amountOut",
          "type": "uint256"
        },
        {
          "internalType": "uint256",
          "name": "shareOut",
          "type": "uint256"
        }
      ],
      "stateMutability": "nonpayable",
      "type": "function"
    },
    {
      "inputs": [
        {
          "internalType": "contract IStrategy",
          "name": "strategy",
          "type": "address"
        },
        {
          "internalType": "address",
          "name": "to",
          "type": "address"
        },
        {
          "internalType": "uint256",
          "name": "amount",
          "type": "uint256"
        }
      ],
      "name": "depositETH",
      "outputs": [
        {
          "internalType": "uint256",
          "name": "amountOut",
          "type": "uint256"
        },
        {
          "internalType": "uint256",
          "name": "shareOut",
          "type": "uint256"
        }
      ],
      "stateMutability": "payable",
      "type": "function"
    },
    {
      "inputs": [
        {
          "internalType": "uint256",
          "name": "assetId",
          "type": "uint256"
        },
        {
          "internalType": "address",
          "name": "to",
          "type": "address"
        },
        {
          "internalType": "uint256",
          "name": "amount",
          "type": "uint256"
        }
      ],
      "name": "depositETHAsset",
      "outputs": [
        {
          "internalType": "uint256",
          "name": "amountOut",
          "type": "uint256"
        },
        {
          "internalType": "uint256",
          "name": "shareOut",
          "type": "uint256"
        }
      ],
      "stateMutability": "payable",
      "type": "function"
    },
    {
      "inputs": [
        {
          "internalType": "uint256",
          "name": "assetId",
          "type": "uint256"
        },
        {
          "internalType": "address",
          "name": "from",
          "type": "address"
        },
        {
          "internalType": "address",
          "name": "to",
          "type": "address"
        }
      ],
      "name": "depositNFTAsset",
      "outputs": [
        {
          "internalType": "uint256",
          "name": "amountOut",
          "type": "uint256"
        },
        {
          "internalType": "uint256",
          "name": "shareOut",
          "type": "uint256"
        }
      ],
      "stateMutability": "nonpayable",
      "type": "function"
    },
    {
      "inputs": [
        {
          "internalType": "enum TokenType",
          "name": "",
          "type": "uint8"
        },
        {
          "internalType": "address",
          "name": "",
          "type": "address"
        },
        {
          "internalType": "contract IStrategy",
          "name": "",
          "type": "address"
        },
        {
          "internalType": "uint256",
          "name": "",
          "type": "uint256"
        }
      ],
      "name": "ids",
      "outputs": [
        {
          "internalType": "uint256",
          "name": "",
          "type": "uint256"
        }
      ],
      "stateMutability": "view",
      "type": "function"
    },
    {
      "inputs": [
        {
          "internalType": "address",
          "name": "",
          "type": "address"
        },
        {
          "internalType": "address",
          "name": "",
          "type": "address"
        }
      ],
      "name": "isApprovedForAll",
      "outputs": [
        {
          "internalType": "bool",
          "name": "",
          "type": "bool"
        }
      ],
      "stateMutability": "view",
      "type": "function"
    },
    {
      "inputs": [
        {
          "internalType": "address",
          "name": "",
          "type": "address"
        }
      ],
      "name": "masterContractOf",
      "outputs": [
        {
          "internalType": "address",
          "name": "",
          "type": "address"
        }
      ],
      "stateMutability": "view",
      "type": "function"
    },
    {
      "inputs": [
        {
          "internalType": "uint256",
          "name": "tokenId",
          "type": "uint256"
        },
        {
          "internalType": "address",
          "name": "to",
          "type": "address"
        },
        {
          "internalType": "uint256",
          "name": "amount",
          "type": "uint256"
        }
      ],
      "name": "mint",
      "outputs": [],
      "stateMutability": "nonpayable",
      "type": "function"
    },
    {
      "inputs": [
        {
          "internalType": "uint256",
          "name": "assetId",
          "type": "uint256"
        }
      ],
      "name": "name",
      "outputs": [
        {
          "internalType": "string",
          "name": "",
          "type": "string"
        }
      ],
      "stateMutability": "view",
      "type": "function"
    },
    {
      "inputs": [
        {
          "internalType": "uint256",
          "name": "",
          "type": "uint256"
        }
      ],
      "name": "nativeTokens",
      "outputs": [
        {
          "internalType": "string",
          "name": "name",
          "type": "string"
        },
        {
          "internalType": "string",
          "name": "symbol",
          "type": "string"
        },
        {
          "internalType": "uint8",
          "name": "decimals",
          "type": "uint8"
        },
        {
          "internalType": "string",
          "name": "uri",
          "type": "string"
        }
      ],
      "stateMutability": "view",
      "type": "function"
    },
    {
      "inputs": [
        {
          "internalType": "address",
          "name": "",
          "type": "address"
        },
        {
          "internalType": "address",
          "name": "",
          "type": "address"
        },
        {
          "internalType": "uint256[]",
          "name": "",
          "type": "uint256[]"
        },
        {
          "internalType": "uint256[]",
          "name": "",
          "type": "uint256[]"
        },
        {
          "internalType": "bytes",
          "name": "",
          "type": "bytes"
        }
      ],
      "name": "onERC1155BatchReceived",
      "outputs": [
        {
          "internalType": "bytes4",
          "name": "",
          "type": "bytes4"
        }
      ],
      "stateMutability": "pure",
      "type": "function"
    },
    {
      "inputs": [
        {
          "internalType": "address",
          "name": "",
          "type": "address"
        },
        {
          "internalType": "address",
          "name": "",
          "type": "address"
        },
        {
          "internalType": "uint256",
          "name": "",
          "type": "uint256"
        },
        {
          "internalType": "uint256",
          "name": "",
          "type": "uint256"
        },
        {
          "internalType": "bytes",
          "name": "",
          "type": "bytes"
        }
      ],
      "name": "onERC1155Received",
      "outputs": [
        {
          "internalType": "bytes4",
          "name": "",
          "type": "bytes4"
        }
      ],
      "stateMutability": "pure",
      "type": "function"
    },
    {
      "inputs": [
        {
          "internalType": "uint256",
          "name": "",
          "type": "uint256"
        }
      ],
      "name": "owner",
      "outputs": [
        {
          "internalType": "address",
          "name": "",
          "type": "address"
        }
      ],
      "stateMutability": "view",
      "type": "function"
    },
    {
      "inputs": [
        {
          "internalType": "uint256",
          "name": "",
          "type": "uint256"
        }
      ],
      "name": "pendingOwner",
      "outputs": [
        {
          "internalType": "address",
          "name": "",
          "type": "address"
        }
      ],
      "stateMutability": "view",
      "type": "function"
    },
    {
      "inputs": [
        {
          "internalType": "contract IERC20",
          "name": "token",
          "type": "address"
        },
        {
          "internalType": "address",
          "name": "from",
          "type": "address"
        },
        {
          "internalType": "address",
          "name": "to",
          "type": "address"
        },
        {
          "internalType": "uint256",
          "name": "amount",
          "type": "uint256"
        },
        {
          "internalType": "uint256",
          "name": "deadline",
          "type": "uint256"
        },
        {
          "internalType": "uint8",
          "name": "v",
          "type": "uint8"
        },
        {
          "internalType": "bytes32",
          "name": "r",
          "type": "bytes32"
        },
        {
          "internalType": "bytes32",
          "name": "s",
          "type": "bytes32"
        }
      ],
      "name": "permitToken",
      "outputs": [],
      "stateMutability": "nonpayable",
      "type": "function"
    },
    {
      "inputs": [
        {
          "internalType": "enum TokenType",
          "name": "tokenType",
          "type": "uint8"
        },
        {
          "internalType": "address",
          "name": "contractAddress",
          "type": "address"
        },
        {
          "internalType": "contract IStrategy",
          "name": "strategy",
          "type": "address"
        },
        {
          "internalType": "uint256",
          "name": "tokenId",
          "type": "uint256"
        }
      ],
      "name": "registerAsset",
      "outputs": [
        {
          "internalType": "uint256",
          "name": "assetId",
          "type": "uint256"
        }
      ],
      "stateMutability": "nonpayable",
      "type": "function"
    },
    {
      "inputs": [
        {
          "internalType": "address",
          "name": "from",
          "type": "address"
        },
        {
          "internalType": "address",
          "name": "to",
          "type": "address"
        },
        {
          "internalType": "uint256[]",
          "name": "ids",
          "type": "uint256[]"
        },
        {
          "internalType": "uint256[]",
          "name": "values",
          "type": "uint256[]"
        },
        {
          "internalType": "bytes",
          "name": "data",
          "type": "bytes"
        }
      ],
      "name": "safeBatchTransferFrom",
      "outputs": [],
      "stateMutability": "nonpayable",
      "type": "function"
    },
    {
      "inputs": [
        {
          "internalType": "address",
          "name": "from",
          "type": "address"
        },
        {
          "internalType": "address",
          "name": "to",
          "type": "address"
        },
        {
          "internalType": "uint256",
          "name": "id",
          "type": "uint256"
        },
        {
          "internalType": "uint256",
          "name": "value",
          "type": "uint256"
        },
        {
          "internalType": "bytes",
          "name": "data",
          "type": "bytes"
        }
      ],
      "name": "safeTransferFrom",
      "outputs": [],
      "stateMutability": "nonpayable",
      "type": "function"
    },
    {
      "inputs": [
        {
          "internalType": "address",
          "name": "operator",
          "type": "address"
        },
        {
          "internalType": "bool",
          "name": "approved",
          "type": "bool"
        }
      ],
      "name": "setApprovalForAll",
      "outputs": [],
      "stateMutability": "nonpayable",
      "type": "function"
    },
    {
      "inputs": [
        {
          "internalType": "bytes4",
          "name": "interfaceID",
          "type": "bytes4"
        }
      ],
      "name": "supportsInterface",
      "outputs": [
        {
          "internalType": "bool",
          "name": "",
          "type": "bool"
        }
      ],
      "stateMutability": "pure",
      "type": "function"
    },
    {
      "inputs": [
        {
          "internalType": "uint256",
          "name": "assetId",
          "type": "uint256"
        }
      ],
      "name": "symbol",
      "outputs": [
        {
          "internalType": "string",
          "name": "",
          "type": "string"
        }
      ],
      "stateMutability": "view",
      "type": "function"
    },
    {
      "inputs": [
        {
          "internalType": "uint256",
          "name": "assetId",
          "type": "uint256"
        },
        {
          "internalType": "uint256",
          "name": "share",
          "type": "uint256"
        },
        {
          "internalType": "bool",
          "name": "roundUp",
          "type": "bool"
        }
      ],
      "name": "toAmount",
      "outputs": [
        {
          "internalType": "uint256",
          "name": "amount",
          "type": "uint256"
        }
      ],
      "stateMutability": "view",
      "type": "function"
    },
    {
      "inputs": [
        {
          "internalType": "uint256",
          "name": "assetId",
          "type": "uint256"
        },
        {
          "internalType": "uint256",
          "name": "amount",
          "type": "uint256"
        },
        {
          "internalType": "bool",
          "name": "roundUp",
          "type": "bool"
        }
      ],
      "name": "toShare",
      "outputs": [
        {
          "internalType": "uint256",
          "name": "share",
          "type": "uint256"
        }
      ],
      "stateMutability": "view",
      "type": "function"
    },
    {
      "inputs": [
        {
          "internalType": "uint256",
          "name": "",
          "type": "uint256"
        }
      ],
      "name": "totalSupply",
      "outputs": [
        {
          "internalType": "uint256",
          "name": "",
          "type": "uint256"
        }
      ],
      "stateMutability": "view",
      "type": "function"
    },
    {
      "inputs": [
        {
          "internalType": "address",
          "name": "from",
          "type": "address"
        },
        {
          "internalType": "address",
          "name": "to",
          "type": "address"
        },
        {
          "internalType": "uint256",
          "name": "assetId",
          "type": "uint256"
        },
        {
          "internalType": "uint256",
          "name": "share",
          "type": "uint256"
        }
      ],
      "name": "transfer",
      "outputs": [],
      "stateMutability": "nonpayable",
      "type": "function"
    },
    {
      "inputs": [
        {
          "internalType": "address",
          "name": "from",
          "type": "address"
        },
        {
          "internalType": "address[]",
          "name": "tos",
          "type": "address[]"
        },
        {
          "internalType": "uint256",
          "name": "assetId",
          "type": "uint256"
        },
        {
          "internalType": "uint256[]",
          "name": "shares",
          "type": "uint256[]"
        }
      ],
      "name": "transferMultiple",
      "outputs": [],
      "stateMutability": "nonpayable",
      "type": "function"
    },
    {
      "inputs": [
        {
          "internalType": "uint256",
          "name": "tokenId",
          "type": "uint256"
        },
        {
          "internalType": "address",
          "name": "newOwner",
          "type": "address"
        },
        {
          "internalType": "bool",
          "name": "direct",
          "type": "bool"
        },
        {
          "internalType": "bool",
          "name": "renounce",
          "type": "bool"
        }
      ],
      "name": "transferOwnership",
      "outputs": [],
      "stateMutability": "nonpayable",
      "type": "function"
    },
    {
      "inputs": [
        {
          "internalType": "uint256",
          "name": "assetId",
          "type": "uint256"
        }
      ],
      "name": "uri",
      "outputs": [
        {
          "internalType": "string",
          "name": "",
          "type": "string"
        }
      ],
      "stateMutability": "view",
      "type": "function"
    },
    {
      "inputs": [],
      "name": "uriBuilder",
      "outputs": [
        {
          "internalType": "contract YieldBoxURIBuilder",
          "name": "",
          "type": "address"
        }
      ],
      "stateMutability": "view",
      "type": "function"
    },
    {
      "inputs": [
        {
          "internalType": "uint256",
          "name": "assetId",
          "type": "uint256"
        },
        {
          "internalType": "address",
          "name": "from",
          "type": "address"
        },
        {
          "internalType": "address",
          "name": "to",
          "type": "address"
        },
        {
          "internalType": "uint256",
          "name": "amount",
          "type": "uint256"
        },
        {
          "internalType": "uint256",
          "name": "share",
          "type": "uint256"
        }
      ],
      "name": "withdraw",
      "outputs": [
        {
          "internalType": "uint256",
          "name": "amountOut",
          "type": "uint256"
        },
        {
          "internalType": "uint256",
          "name": "shareOut",
          "type": "uint256"
        }
      ],
      "stateMutability": "nonpayable",
      "type": "function"
    },
    {
      "inputs": [],
      "name": "wrappedNative",
      "outputs": [
        {
          "internalType": "contract IWrappedNative",
          "name": "",
          "type": "address"
        }
      ],
      "stateMutability": "view",
      "type": "function"
    },
    {
      "stateMutability": "payable",
      "type": "receive"
    }
  ],
  "transactionHash": "0xc283f4e5613fa04ca8ba4def8317a7876a7c5e479cf0810de3470ae7848702f1",
  "args": [
    "0x0000000000000000000000000000000000000000",
    "0xa591618DA5c4254532D2DcB745942D8fcE16011A"
  ],
  "numDeployments": 1,
  "solcInputHash": "25460a75fcafe84168577a789a7d0811",
  "bytecode": "0x60c06040523480156200001157600080fd5b5060405162005a2b38038062005a2b83398101604081905262000034916200012f565b6040805160808101825260048082526000602083018190529282018390526060820183905280546001808201835593829052825160039091027f8a35acfbc15ff81a39ae7d344fd709f28e8600b4aa8c65c6b64bfe7fe36bd19b018054939490939192849260ff191691908490811115620000b357620000b36200016e565b021790555060208201518154610100600160a81b0319166101006001600160a01b039283160217825560408301516001830180546001600160a01b0319169183169190911790556060909201516002909101559182166080521660a05262000184565b6001600160a01b03811681146200012c57600080fd5b50565b600080604083850312156200014357600080fd5b8251620001508162000116565b6020840151909250620001638162000116565b809150509250929050565b634e487b7160e01b600052602160045260246000fd5b60805160a05161583b620001f060003960008181610a6501528181610a8b01528181610cee015281816118310152611b6c0152600081816109ae01528181611f2101528181611fd50152818161206e015281816126c80152818161272e0152613103015261583b6000f3fe60806040526004361061030a5760003560e01c8063836a10401161019a578063bd85b039116100e1578063eafe7a741161008a578063f242432a11610064578063f242432a146109fd578063fba96be814610a1d578063fd330d4314610a5357600080fd5b8063eafe7a7414610987578063eb6d3a111461099c578063f23a6e61146109d057600080fd5b8063d2423b51116100bb578063d2423b511461091c578063daf210b11461092f578063e985e9c51461094f57600080fd5b8063bd85b0391461089f578063ce7f2714146108cc578063cf35bdd0146108ec57600080fd5b8063a123c33e11610143578063b061db941161011d578063b061db9414610801578063bafe4f1414610821578063bc197c811461085757600080fd5b8063a123c33e14610798578063a22cb465146107ce578063a3823ac0146107ee57600080fd5b80638fd43654116101745780638fd43654146107385780639a9af97a146107585780639eea5f661461077857600080fd5b8063836a1040146106d85780638d2e63b8146106f85780638eb22cdd1461071857600080fd5b80632eb2c2d61161025e57806354317d161161020757806370400fbe116101e157806370400fbe1461068557806375338079146106985780637c516e94146106b857600080fd5b806354317d16146106255780635ba4d64e146106455780636cd570311461066557600080fd5b80634956d158116102385780634956d158146105a35780634e1273f4146105d85780634e41a1fb1461060557600080fd5b80632eb2c2d6146105315780633f47e66214610551578063442c15991461058357600080fd5b80631f0ee4c3116102c05780632482ee271161029a5780632482ee271461047f5780632b800e3b146104b45780632d4e1d52146104ea57600080fd5b80631f0ee4c3146104045780631f54245b14610434578063215b595a1461045f57600080fd5b806301ffc9a7116102f157806301ffc9a7146103925780630411b252146103c25780630e89341c146103e457600080fd5b8062ad800c14610316578062fdd58e1461034c57600080fd5b3661031157005b600080fd5b34801561032257600080fd5b506103366103313660046147c9565b610a87565b604051610343919061483a565b60405180910390f35b34801561035857600080fd5b50610384610367366004614865565b600160209081526000928352604080842090915290825290205481565b604051908152602001610343565b34801561039e57600080fd5b506103b26103ad3660046148a7565b610b66565b6040519015158152602001610343565b3480156103ce57600080fd5b506103e26103dd3660046148c4565b610bff565b005b3480156103f057600080fd5b506103366103ff3660046147c9565b610cea565b34801561041057600080fd5b5061042461041f3660046147c9565b610d8c565b604051610343949392919061490a565b6104476104423660046149ae565b610f55565b6040516001600160a01b039091168152602001610343565b34801561046b57600080fd5b506103e261047a366004614a5b565b6111ac565b34801561048b57600080fd5b5061049f61049a366004614af6565b611473565b60405163ffffffff9091168152602001610343565b3480156104c057600080fd5b506104476104cf3660046147c9565b6009602052600090815260409020546001600160a01b031681565b3480156104f657600080fd5b50610384610505366004614bb2565b600360209081526000948552604080862082529385528385208152918452828420909152825290205481565b34801561053d57600080fd5b506103e261054c366004614c03565b6116c8565b34801561055d57600080fd5b5061057161056c3660046147c9565b61182d565b60405160ff9091168152602001610343565b34801561058f57600080fd5b5061038461059e366004614cc2565b611909565b3480156105af57600080fd5b506105c36105be3660046147c9565b6119e6565b60408051928352602083019190915201610343565b3480156105e457600080fd5b506105f86105f3366004614cfb565b611a18565b6040516103439190614d67565b34801561061157600080fd5b506103366106203660046147c9565b611b68565b34801561063157600080fd5b50610384610640366004614865565b611bed565b34801561065157600080fd5b506103e2610660366004614dab565b611cf3565b34801561067157600080fd5b506105c3610680366004614df3565b611e79565b6105c3610693366004614e7f565b611ed3565b3480156106a457600080fd5b506105c36106b3366004614eb7565b612118565b3480156106c457600080fd5b506103e26106d3366004614eee565b6123af565b3480156106e457600080fd5b506103e26106f3366004614e7f565b61245a565b34801561070457600080fd5b506105c3610713366004614f54565b6124d3565b34801561072457600080fd5b50610384610733366004614cc2565b61294e565b34801561074457600080fd5b50610447610753366004614865565b612a0e565b34801561076457600080fd5b506105c3610773366004614f54565b612a46565b34801561078457600080fd5b506103e2610793366004614e7f565b612e12565b3480156107a457600080fd5b506104476107b33660046147c9565b6008602052600090815260409020546001600160a01b031681565b3480156107da57600080fd5b506103e26107e9366004614fa6565b612f77565b6105c36107fc366004614fdf565b6130f6565b34801561080d57600080fd5b5061038461081c366004614bb2565b61313d565b34801561082d57600080fd5b5061044761083c36600461500f565b6005602052600090815260409020546001600160a01b031681565b34801561086357600080fd5b50610886610872366004614c03565b63bc197c8160e01b98975050505050505050565b6040516001600160e01b03199091168152602001610343565b3480156108ab57600080fd5b506103846108ba3660046147c9565b60026020526000908152604090205481565b3480156108d857600080fd5b506103e26108e73660046147c9565b6131ed565b3480156108f857600080fd5b5061090c6109073660046147c9565b6132d9565b6040516103439493929190615064565b6103e261092a366004615099565b613323565b34801561093b57600080fd5b506103e261094a3660046150e5565b6133d7565b34801561095b57600080fd5b506103b261096a36600461515b565b600060208181529281526040808220909352908152205460ff1681565b34801561099357600080fd5b50600454610384565b3480156109a857600080fd5b506104477f000000000000000000000000000000000000000000000000000000000000000081565b3480156109dc57600080fd5b506108866109eb366004615189565b63f23a6e6160e01b9695505050505050565b348015610a0957600080fd5b506103e2610a18366004615189565b6134c1565b348015610a2957600080fd5b50610384610a3836600461500f565b6001600160a01b031660009081526006602052604090205490565b348015610a5f57600080fd5b506104477f000000000000000000000000000000000000000000000000000000000000000081565b60607f00000000000000000000000000000000000000000000000000000000000000006001600160a01b031663aa1163b960048481548110610acb57610acb6151f3565b9060005260206000209060030201600760008681526020019081526020016000206000016040518363ffffffff1660e01b8152600401610b0c92919061531e565b60006040518083038186803b158015610b2457600080fd5b505afa158015610b38573d6000803e3d6000fd5b505050506040513d6000823e601f3d908101601f19168201604052610b609190810190615354565b92915050565b60006001600160e01b031982167f01ffc9a7000000000000000000000000000000000000000000000000000000001480610bc957507fd9b67a26000000000000000000000000000000000000000000000000000000006001600160e01b03198316145b80610b605750506001600160e01b0319167f0e89341c000000000000000000000000000000000000000000000000000000001490565b836001600160a01b0381163314801590610c3b57506001600160a01b03811660009081526020818152604080832033845290915290205460ff16155b15610cd757336000908152600560205260409020546001600160a01b03168015801590610c8b57506001600160a01b038083166000908152602081815260408083209385168352929052205460ff165b610cd55760405162461bcd60e51b8152602060048201526016602482015275165a595b19109bde0e88139bdd08185c1c1c9bdd995960521b60448201526064015b60405180910390fd5b505b610ce3858585856135cf565b5050505050565b60607f00000000000000000000000000000000000000000000000000000000000000006001600160a01b0316635c6d843560048481548110610d2e57610d2e6151f3565b6000918252602080832087845260078252604080852060028452818620546008909452948190205490516001600160e01b031960e088901b168152610b0c9560039095029092019392916001600160a01b03909116906004016153f6565b600760205260009081526040902080548190610da790615242565b80601f0160208091040260200160405190810160405280929190818152602001828054610dd390615242565b8015610e205780601f10610df557610100808354040283529160200191610e20565b820191906000526020600020905b815481529060010190602001808311610e0357829003601f168201915b505050505090806001018054610e3590615242565b80601f0160208091040260200160405190810160405280929190818152602001828054610e6190615242565b8015610eae5780601f10610e8357610100808354040283529160200191610eae565b820191906000526020600020905b815481529060010190602001808311610e9157829003601f168201915b5050506002840154600385018054949560ff909216949193509150610ed290615242565b80601f0160208091040260200160405190810160405280929190818152602001828054610efe90615242565b8015610f4b5780601f10610f2057610100808354040283529160200191610f4b565b820191906000526020600020905b815481529060010190602001808311610f2e57829003601f168201915b5050505050905084565b60006001600160a01b038516610fad5760405162461bcd60e51b815260206004820181905260248201527f426f72696e67466163746f72793a204e6f206d6173746572436f6e74726163746044820152606401610ccc565b606085901b82156110365760008585604051610fca929190615483565b604051809103902090506040517f3d602d80600a3d3981f3363d3d373d3d3d363d7300000000000000000000000081528260148201527f5af43d82803e903d91602b57fd5bf300000000000000000000000000000000006028820152816037826000f593505050611092565b6040517f3d602d80600a3d3981f3363d3d373d3d3d363d7300000000000000000000000081528160148201527f5af43d82803e903d91602b57fd5bf3000000000000000000000000000000000060288201526037816000f09250505b6001600160a01b0380831660008181526005602090815260408083208054958c166001600160a01b03199687168117909155835260068252808320805460018101825590845291909220018054909316821790925590517f4ddf47d4000000000000000000000000000000000000000000000000000000008152634ddf47d490349061112490899089906004016154bc565b6000604051808303818588803b15801561113d57600080fd5b505af1158015611151573d6000803e3d6000fd5b5050505050816001600160a01b0316866001600160a01b03167fd62166f3c2149208e51788b1401cc356bf5da1fc6c7886a32e18570f57d88b3b878760405161119b9291906154bc565b60405180910390a350949350505050565b856001600160a01b03811633148015906111e857506001600160a01b03811660009081526020818152604080832033845290915290205460ff16155b1561127f57336000908152600560205260409020546001600160a01b0316801580159061123857506001600160a01b038083166000908152602081815260408083209385168352929052205460ff165b61127d5760405162461bcd60e51b8152602060048201526016602482015275165a595b19109bde0e88139bdd08185c1c1c9bdd995960521b6044820152606401610ccc565b505b8460005b8181101561131d57600088888381811061129f5761129f6151f3565b90506020020160208101906112b4919061500f565b6001600160a01b0316141561130b5760405162461bcd60e51b815260206004820152601460248201527f5969656c64426f783a20746f206e6f74207365740000000000000000000000006044820152606401610ccc565b80611315816154e6565b915050611283565b506000805b8281101561142f57600089898381811061133e5761133e6151f3565b9050602002016020810190611353919061500f565b90506000878784818110611369576113696151f3565b6001600160a01b03851660009081526001602090815260408083208f8452825282208054939091029490940135945084939250906113a8908490615501565b909155506113b890508185615501565b9350816001600160a01b03168c6001600160a01b0316336001600160a01b03167fc3d58168c5ae7397731d063d5bbf3d657854427343f4c083240f7aacaa2d0f628c85604051611412929190918252602082015260400190565b60405180910390a450508080611427906154e6565b915050611322565b506001600160a01b038916600090815260016020908152604080832089845290915281208054839290611463908490615519565b9091555050505050505050505050565b600454600090611482906136d5565b905061149860008060008463ffffffff1661372f565b50604051806080016040528089898080601f016020809104026020016040519081016040528093929190818152602001838380828437600092019190915250505090825250604080516020601f8a018190048102820181019092528881529181019190899089908190840183828082843760009201919091525050509082525060ff861660208083019190915260408051601f87018390048302810183018252868152920191908690869081908401838280828437600092018290525093909452505063ffffffff8416815260076020908152604090912083518051919350611585928492910190614739565b50602082810151805161159e9260018501920190614739565b50604082015160028201805460ff191660ff909216919091179055606082015180516115d4916003840191602090910190614739565b50505063ffffffff81166000908152600860205260409081902080546001600160a01b0319163390811790915590517f0b0bcdebd2813328a89a9ed5971e5863201ed78fc4e0e2b271cceddb9ce905109061163a908b908b908b908b908b908990615530565b60405180910390a26040805163ffffffff8316815260006020820181905291829133917fc3d58168c5ae7397731d063d5bbf3d657854427343f4c083240f7aacaa2d0f62910160405180910390a4604051339060009063ffffffff8416907f16b85f49bf01212961345d3016c9a531894accf62eb7680f2045d79185cc0ec0908390a4979650505050505050565b8483146117175760405162461bcd60e51b815260206004820152601860248201527f455243313135353a204c656e677468206d69736d6174636800000000000000006044820152606401610ccc565b61172088613c7e565b61172e888888888888613d55565b6001600160a01b0387163b156118235760405163bc197c8160e01b808252906001600160a01b0389169063bc197c819061177a9033908d908c908c908c908c908c908c906004016155c9565b602060405180830381600087803b15801561179457600080fd5b505af11580156117a8573d6000803e3d6000fd5b505050506040513d601f19601f820116820180604052508101906117cc919061562d565b6001600160e01b031916146118235760405162461bcd60e51b815260206004820152601260248201527f57726f6e672072657475726e2076616c756500000000000000000000000000006044820152606401610ccc565b5050505050505050565b60007f00000000000000000000000000000000000000000000000000000000000000006001600160a01b0316636d7cd03760048481548110611871576118716151f3565b6000918252602080832087845260079091526040928390206002015492516001600160e01b031960e086901b1681526118b99360039093029091019160ff169060040161564a565b60206040518083038186803b1580156118d157600080fd5b505afa1580156118e5573d6000803e3d6000fd5b505050506040513d601f19601f82011682018060405250810190610b609190615668565b6000806004858154811061191f5761191f6151f3565b600091825260209091206003909102015460ff1660048111156119445761194461502c565b14806119875750600260048581548110611960576119606151f3565b600091825260209091206003909102015460ff1660048111156119855761198561502c565b145b156119935750816119df565b6119dc60026000868152602001908152602001600020546119d3600487815481106119c0576119c06151f3565b9060005260206000209060030201613ecd565b8591908561400c565b90505b9392505050565b60008181526002602052604081205460048054919291611a119190859081106119c0576119c06151f3565b9050915091565b606083828114611a6a5760405162461bcd60e51b815260206004820152601860248201527f455243313135353a204c656e677468206d69736d6174636800000000000000006044820152606401610ccc565b8067ffffffffffffffff811115611a8357611a8361533e565b604051908082528060200260200182016040528015611aac578160200160208202803683370190505b50915060005b81811015611b5e5760016000888884818110611ad057611ad06151f3565b9050602002016020810190611ae5919061500f565b6001600160a01b03166001600160a01b031681526020019081526020016000206000868684818110611b1957611b196151f3565b90506020020135815260200190815260200160002054838281518110611b4157611b416151f3565b602090810291909101015280611b56816154e6565b915050611ab2565b5050949350505050565b60607f00000000000000000000000000000000000000000000000000000000000000006001600160a01b03166384b1017d60048481548110611bac57611bac6151f3565b9060005260206000209060030201600760008681526020019081526020016000206001016040518363ffffffff1660e01b8152600401610b0c92919061531e565b60008060048381548110611c0357611c036151f3565b600091825260209091206003909102015460ff166004811115611c2857611c2861502c565b1480611c6b5750600260048381548110611c4457611c446151f3565b600091825260209091206003909102015460ff166004811115611c6957611c6961502c565b145b15611c9a57506001600160a01b0382166000908152600160209081526040808320848452909152902054610b60565b6119df6002600084815260200190815260200160002054611cc7600485815481106119c0576119c06151f3565b6001600160a01b038616600090815260016020908152604080832088845290915281205492919061400c565b60008481526008602052604090205484906001600160a01b03163314611d5b5760405162461bcd60e51b815260206004820152601c60248201527f4e54463a2063616c6c6572206973206e6f7420746865206f776e6572000000006044820152606401610ccc565b8215611e49576001600160a01b038416151580611d755750815b611dc15760405162461bcd60e51b815260206004820152601160248201527f4e54463a207a65726f20616464726573730000000000000000000000000000006044820152606401610ccc565b6000858152600860205260408082205490516001600160a01b038088169392169188917f16b85f49bf01212961345d3016c9a531894accf62eb7680f2045d79185cc0ec09190a4600085815260086020908152604080832080546001600160a01b0389166001600160a01b031991821617909155600990925290912080549091169055610ce3565b600085815260096020526040902080546001600160a01b0386166001600160a01b03199091161790555050505050565b600080808a6004811115611e8f57611e8f61502c565b1415611eb757611eae611ea56003308b8b61313d565b87878787612a46565b91509150611ec6565b611eae611ea58b8b8b8b61313d565b9850989650505050505050565b600080600060048681548110611eeb57611eeb6151f3565b6000918252602090912060039091020190506001815460ff166004811115611f1557611f1561502c565b148015611f54575080547f00000000000000000000000000000000000000000000000000000000000000006001600160a01b0390811661010090920416145b611fa05760405162461bcd60e51b815260206004820152601b60248201527f5969656c64426f783a206e6f7420777261707065644e617469766500000000006044820152606401610ccc565b600086815260026020526040812054611fc690611fbc84613ecd565b879190600061407c565b9050611fd38688836140c7565b7f00000000000000000000000000000000000000000000000000000000000000006001600160a01b031663d0e30db0866040518263ffffffff1660e01b81526004016000604051808303818588803b15801561202e57600080fd5b505af1158015612042573d6000803e3d6000fd5b5050505060018301546001600160a01b0316159050612097576001820154612097906001600160a01b037f000000000000000000000000000000000000000000000000000000000000000081169116876141b6565b60018201546001600160a01b03161561210b5760018201546040516357d48e6360e11b8152600481018790526001600160a01b039091169063afa91cc690602401600060405180830381600087803b1580156120f257600080fd5b505af1158015612106573d6000803e3d6000fd5b505050505b9396939550929350505050565b600080836001600160a01b038116331480159061215757506001600160a01b03811660009081526020818152604080832033845290915290205460ff16155b156121ee57336000908152600560205260409020546001600160a01b031680158015906121a757506001600160a01b038083166000908152602081815260408083209385168352929052205460ff165b6121ec5760405162461bcd60e51b8152602060048201526016602482015275165a595b19109bde0e88139bdd08185c1c1c9bdd995960521b6044820152606401610ccc565b505b600060048781548110612203576122036151f3565b6000918252602090912060039091020190506002815460ff16600481111561222d5761222d61502c565b1461227a5760405162461bcd60e51b815260206004820152601460248201527f5969656c64426f783a206e6f74204552433732310000000000000000000000006044820152606401610ccc565b612286858860016140c7565b60018101546000906001600160a01b0316156122af5760018201546001600160a01b03166122b1565b305b82546002840154604051632142170760e11b81526001600160a01b038b811660048301528085166024830152604482019290925292935061010090910416906342842e0e90606401600060405180830381600087803b15801561231357600080fd5b505af1158015612327573d6000803e3d6000fd5b5050505060018201546001600160a01b03161561239f576001828101546040516357d48e6360e11b815260048101929092526001600160a01b03169063afa91cc690602401600060405180830381600087803b15801561238657600080fd5b505af115801561239a573d6000803e3d6000fd5b505050505b5060019788975095505050505050565b6040517fd505accf0000000000000000000000000000000000000000000000000000000081526001600160a01b0388811660048301528781166024830152604482018790526064820186905260ff8516608483015260a4820184905260c4820183905289169063d505accf9060e401600060405180830381600087803b15801561243857600080fd5b505af115801561244c573d6000803e3d6000fd5b505050505050505050505050565b60008381526008602052604090205483906001600160a01b031633146124c25760405162461bcd60e51b815260206004820152601c60248201527f4e54463a2063616c6c6572206973206e6f7420746865206f776e6572000000006044820152606401610ccc565b6124cd8385846140c7565b50505050565b600080856001600160a01b038116331480159061251257506001600160a01b03811660009081526020818152604080832033845290915290205460ff16155b156125a957336000908152600560205260409020546001600160a01b0316801580159061256257506001600160a01b038083166000908152602081815260408083209385168352929052205460ff165b6125a75760405162461bcd60e51b8152602060048201526016602482015275165a595b19109bde0e88139bdd08185c1c1c9bdd995960521b6044820152606401610ccc565b505b6000600489815481106125be576125be6151f3565b6000918252602082206003909102019150815460ff1660048111156125e5576125e561502c565b14156126335760405162461bcd60e51b815260206004820152601f60248201527f5969656c64426f783a2063616e2774207769746864726177204e6174697665006044820152606401610ccc565b600061263e82613ecd565b9050856126695760008a81526002602052604090205461266290889083600161407c565b9550612689565b60008a81526002602052604081205461268691889190849061400c565b96505b612694898b886142e3565b60018201546001600160a01b03166128bc576001825460ff1660048111156126be576126be61502c565b14156127c65781547f00000000000000000000000000000000000000000000000000000000000000006001600160a01b039081166101009092041614156127ab576040517f2e1a7d4d000000000000000000000000000000000000000000000000000000008152600481018890527f00000000000000000000000000000000000000000000000000000000000000006001600160a01b031690632e1a7d4d90602401600060405180830381600087803b15801561277a57600080fd5b505af115801561278e573d6000803e3d6000fd5b506127a6925050506001600160a01b038916886143c9565b61293e565b81546127a69061010090046001600160a01b031689896141b6565b6002825460ff1660048111156127de576127de61502c565b141561285f5781546002830154604051632142170760e11b81523060048201526001600160a01b038b81166024830152604482019290925261010090920416906342842e0e906064015b600060405180830381600087803b15801561284257600080fd5b505af1158015612856573d6000803e3d6000fd5b5050505061293e565b81546002830154604051637921219560e11b81523060048201526001600160a01b038b811660248301526044820192909252606481018a905260a06084820152600060a4820152610100909204169063f242432a9060c401612828565b60018201546040517ff3fef3a30000000000000000000000000000000000000000000000000000000081526001600160a01b038a81166004830152602482018a90529091169063f3fef3a390604401600060405180830381600087803b15801561292557600080fd5b505af1158015612939573d6000803e3d6000fd5b505050505b5094989397509295505050505050565b60008060048581548110612964576129646151f3565b600091825260209091206003909102015460ff1660048111156129895761298961502c565b14806129cc57506002600485815481106129a5576129a56151f3565b600091825260209091206003909102015460ff1660048111156129ca576129ca61502c565b145b156129d85750816119df565b6119dc6002600086815260200190815260200160002054612a05600487815481106119c0576119c06151f3565b8591908561407c565b60066020528160005260406000208181548110612a2a57600080fd5b6000918252602090912001546001600160a01b03169150829050565b600080856001600160a01b0381163314801590612a8557506001600160a01b03811660009081526020818152604080832033845290915290205460ff16155b15612b1c57336000908152600560205260409020546001600160a01b03168015801590612ad557506001600160a01b038083166000908152602081815260408083209385168352929052205460ff165b612b1a5760405162461bcd60e51b8152602060048201526016602482015275165a595b19109bde0e88139bdd08185c1c1c9bdd995960521b6044820152606401610ccc565b505b600060048981548110612b3157612b316151f3565b6000918252602082206003909102019150815460ff166004811115612b5857612b5861502c565b1415612ba65760405162461bcd60e51b815260206004820152601e60248201527f5969656c64426f783a2063616e2774206465706f736974204e617469766500006044820152606401610ccc565b6002815460ff166004811115612bbe57612bbe61502c565b1415612c0c5760405162461bcd60e51b815260206004820152601860248201527f5969656c64426f783a20757365204465706f7369744e465400000000000000006044820152606401610ccc565b6000612c1782613ecd565b905085612c425760008a815260026020526040812054612c3b91899190849061407c565b9550612c62565b60008a815260026020526040902054612c5f90879083600161400c565b96505b612c6d888b886140c7565b60018201546000906001600160a01b031615612c965760018301546001600160a01b0316612c98565b305b90506001835460ff166004811115612cb257612cb261502c565b1415612cd9578254612cd49061010090046001600160a01b03168b838b61446c565b612d8d565b825461010090046001600160a01b0316301415612d0057612cd48a8285600201548b6135cf565b82546002840154604051637921219560e11b81526001600160a01b038d8116600483015284811660248301526044820192909252606481018b905260a06084820152600060a4820152610100909204169063f242432a9060c401600060405180830381600087803b158015612d7457600080fd5b505af1158015612d88573d6000803e3d6000fd5b505050505b60018301546001600160a01b031615612e015760018301546040516357d48e6360e11b8152600481018a90526001600160a01b039091169063afa91cc690602401600060405180830381600087803b158015612de857600080fd5b505af1158015612dfc573d6000803e3d6000fd5b505050505b509599949850939650505050505050565b816001600160a01b0381163314801590612e4e57506001600160a01b03811660009081526020818152604080832033845290915290205460ff16155b15612ee557336000908152600560205260409020546001600160a01b03168015801590612e9e57506001600160a01b038083166000908152602081815260408083209385168352929052205460ff165b612ee35760405162461bcd60e51b8152602060048201526016602482015275165a595b19109bde0e88139bdd08185c1c1c9bdd995960521b6044820152606401610ccc565b505b600060048581548110612efa57612efa6151f3565b600091825260209091206003909102015460ff166004811115612f1f57612f1f61502c565b14612f6c5760405162461bcd60e51b815260206004820152600f60248201527f4e54463a204e6f74206e617469766500000000000000000000000000000000006044820152606401610ccc565b6124cd3385846142e3565b6001600160a01b038216612fcd5760405162461bcd60e51b815260206004820152601a60248201527f5969656c64426f783a206f70657261746f72206e6f74207365740000000000006044820152606401610ccc565b336000908152600560205260409020546001600160a01b0316156130335760405162461bcd60e51b815260206004820152601760248201527f5969656c64426f783a207573657220697320636c6f6e650000000000000000006044820152606401610ccc565b6001600160a01b03821630141561308c5760405162461bcd60e51b815260206004820181905260248201527f5969656c64426f783a2063616e277420617070726f7665207969656c64426f786044820152606401610ccc565b336000818152602081815260408083206001600160a01b03871680855290835292819020805460ff191686151590811790915590519081529192917f17307eab39ab6107e8899845ad3d59bd9653f200f220920489ca2b5937696c31910160405180910390a35050565b60008061313161312a60017f000000000000000000000000000000000000000000000000000000000000000088600061313d565b8585611ed3565b91509150935093915050565b600060018560048111156131535761315361502c565b14806131705750600285600481111561316e5761316e61502c565b145b8061318c5750600385600481111561318a5761318a61502c565b145b6131d85760405162461bcd60e51b815260206004820152601f60248201527f41737365744d616e616765723a2063616e6e6f7420616464204e6174697665006044820152606401610ccc565b6131e48585858561372f565b95945050505050565b6000818152600960205260409020546001600160a01b03163381146132545760405162461bcd60e51b815260206004820152601c60248201527f4e54463a2063616c6c657220213d2070656e64696e67206f776e6572000000006044820152606401610ccc565b6000828152600860205260408082205490516001600160a01b038085169392169185917f16b85f49bf01212961345d3016c9a531894accf62eb7680f2045d79185cc0ec09190a4600091825260086020908152604080842080546001600160a01b039094166001600160a01b0319948516179055600990915290912080549091169055565b600481815481106132e957600080fd5b600091825260209091206003909102018054600182015460029092015460ff821693506101009091046001600160a01b0390811692169084565b60005b828110156124cd5760008030868685818110613344576133446151f3565b90506020028101906133569190615685565b604051613364929190615483565b600060405180830381855af49150503d806000811461339f576040519150601f19603f3d011682016040523d82523d6000602084013e6133a4565b606091505b5091509150811580156133b45750835b156133c2576133c2816145a1565b505080806133cf906154e6565b915050613326565b856001600160a01b038116331480159061341357506001600160a01b03811660009081526020818152604080832033845290915290205460ff16155b156134aa57336000908152600560205260409020546001600160a01b0316801580159061346357506001600160a01b038083166000908152602081815260408083209385168352929052205460ff165b6134a85760405162461bcd60e51b8152602060048201526016602482015275165a595b19109bde0e88139bdd08185c1c1c9bdd995960521b6044820152606401610ccc565b505b6134b8878787878787613d55565b50505050505050565b6134ca86613c7e565b6134d6868686866135cf565b6001600160a01b0385163b156135c75760405163f23a6e6160e01b808252906001600160a01b0387169063f23a6e619061351e9033908b908a908a908a908a906004016156cc565b602060405180830381600087803b15801561353857600080fd5b505af115801561354c573d6000803e3d6000fd5b505050506040513d601f19601f82011682018060405250810190613570919061562d565b6001600160e01b031916146135c75760405162461bcd60e51b815260206004820152601260248201527f57726f6e672072657475726e2076616c756500000000000000000000000000006044820152606401610ccc565b505050505050565b6001600160a01b0383166136145760405162461bcd60e51b815260206004820152600c60248201526b4e6f2030206164647265737360a01b6044820152606401610ccc565b6001600160a01b038416600090815260016020908152604080832085845290915281208054839290613647908490615519565b90915550506001600160a01b03831660009081526001602090815260408083208584529091528120805483929061367f908490615501565b909155505060408051838152602081018390526001600160a01b03808616929087169133917fc3d58168c5ae7397731d063d5bbf3d657854427343f4c083240f7aacaa2d0f62910160405180910390a450505050565b600063ffffffff82111561372b5760405162461bcd60e51b815260206004820152601b60248201527f426f72696e674d6174683a2075696e743332204f766572666c6f7700000000006044820152606401610ccc565b5090565b6000600360008660048111156137475761374761502c565b60048111156137585761375861502c565b8152602080820192909252604090810160009081206001600160a01b03808916835290845282822090871682528352818120858252909252902054905080613c76578115806137b9575060018560048111156137b6576137b661502c565b14155b6138055760405162461bcd60e51b815260206004820152601e60248201527f5969656c64426f783a204e6f20746f6b656e496420666f7220455243323000006044820152606401610ccc565b6001600160a01b03831615806139b35750826001600160a01b03166330fa738c6040518163ffffffff1660e01b815260040160206040518083038186803b15801561384f57600080fd5b505afa158015613863573d6000803e3d6000fd5b505050506040513d601f19601f820116820180604052508101906138879190615711565b60048111156138985761389861502c565b8560048111156138aa576138aa61502c565b1480156139385750826001600160a01b031663f6b4dfb46040518163ffffffff1660e01b815260040160206040518083038186803b1580156138eb57600080fd5b505afa1580156138ff573d6000803e3d6000fd5b505050506040513d601f19601f82011682018060405250810190613923919061572e565b6001600160a01b0316846001600160a01b0316145b80156139b35750826001600160a01b03166317d70f7c6040518163ffffffff1660e01b815260040160206040518083038186803b15801561397857600080fd5b505afa15801561398c573d6000803e3d6000fd5b505050506040513d601f19601f820116820180604052508101906139b0919061574b565b82145b6139ff5760405162461bcd60e51b815260206004820152601b60248201527f5969656c64426f783a205374726174656779206d69736d6174636800000000006044820152606401610ccc565b6000856004811115613a1357613a1361502c565b148015613a2757506001600160a01b038416155b80613a3b57506001600160a01b0384163b15155b613a875760405162461bcd60e51b815260206004820152601560248201527f5969656c64426f783a204e6f74206120746f6b656e00000000000000000000006044820152606401610ccc565b600480549050905060046040518060800160405280876004811115613aae57613aae61502c565b81526001600160a01b038088166020808401919091529087166040830152606090910185905282546001818101855560009485529190932082516003909402018054929390929091839160ff191690836004811115613b0f57613b0f61502c565b0217905550602082015181547fffffffffffffffffffffff0000000000000000000000000000000000000000ff166101006001600160a01b039283160217825560408301516001830180546001600160a01b031916919092161790556060909101516002909101558060036000876004811115613b8e57613b8e61502c565b6004811115613b9f57613b9f61502c565b8152602080820192909252604090810160009081206001600160a01b0389811683529084528282209088168252835281812086825283528181209390935580518281529182019290925282917f6bb7ff708619ba0610cba295a58592e0451dee2622938c8755667688daf3529b910160405180910390a281846001600160a01b0316866004811115613c3357613c3361502c565b604080516001600160a01b0388168152602081018690527f30605d4cd099421ed12ca1ba642a1ea2659f679b5cdd0ccd032586640eeaff43910160405180910390a45b949350505050565b806001600160a01b0381163314801590613cba57506001600160a01b03811660009081526020818152604080832033845290915290205460ff16155b15613d5157336000908152600560205260409020546001600160a01b03168015801590613d0a57506001600160a01b038083166000908152602081815260408083209385168352929052205460ff165b613d4f5760405162461bcd60e51b8152602060048201526016602482015275165a595b19109bde0e88139bdd08185c1c1c9bdd995960521b6044820152606401610ccc565b505b5050565b6001600160a01b038516613d9a5760405162461bcd60e51b815260206004820152600c60248201526b4e6f2030206164647265737360a01b6044820152606401610ccc565b60005b83811015613e69576000858583818110613db957613db96151f3565b9050602002013590506000848484818110613dd657613dd66151f3565b6001600160a01b038c16600090815260016020908152604080832088845282528220805493909102949094013594508493925090613e15908490615519565b90915550506001600160a01b038816600090815260016020908152604080832085845290915281208054839290613e4d908490615501565b9250508190555050508080613e61906154e6565b915050613d9d565b50846001600160a01b0316866001600160a01b0316336001600160a01b03167f4a39dc06d4c0dbc64b70af90fd698a233a518aa5d07e595d983b8c0526c8f7fb87878787604051613ebd9493929190615764565b60405180910390a4505050505050565b60018101546000906001600160a01b0316613fbc576001825460ff166004811115613efa57613efa61502c565b1415613f1a578154610b609061010090046001600160a01b031630614612565b815460028301546040517efdd58e00000000000000000000000000000000000000000000000000000000815230600482015260248101919091526101009091046001600160a01b03169062fdd58e9060440160206040518083038186803b158015613f8457600080fd5b505afa158015613f98573d6000803e3d6000fd5b505050506040513d601f19601f82011682018060405250810190610b60919061574b565b8160010160009054906101000a90046001600160a01b03166001600160a01b031663ce845d1d6040518163ffffffff1660e01b815260040160206040518083038186803b158015613f8457600080fd5b600082614018816154e6565b935061402a90506305f5e10085615501565b935083614037848761578b565b61404191906157aa565b905081801561406357508483614057868461578b565b61406191906157aa565b105b15613c765780614072816154e6565b9695505050505050565b600082614088816154e6565b935061409a90506305f5e10085615501565b9350826140a7858761578b565b6140b191906157aa565b905081801561406357508484614057858461578b565b6001600160a01b03831661410c5760405162461bcd60e51b815260206004820152600c60248201526b4e6f2030206164647265737360a01b6044820152606401610ccc565b6001600160a01b03831660009081526001602090815260408083208584529091528120805483929061413f908490615501565b909155505060008281526002602052604081208054839290614162908490615501565b909155505060408051838152602081018390526001600160a01b0385169160009133917fc3d58168c5ae7397731d063d5bbf3d657854427343f4c083240f7aacaa2d0f6291015b60405180910390a4505050565b604080516001600160a01b038481166024830152604480830185905283518084039091018152606490920183526020820180516001600160e01b03167fa9059cbb00000000000000000000000000000000000000000000000000000000179052915160009283929087169161422b91906157cc565b6000604051808303816000865af19150503d8060008114614268576040519150601f19603f3d011682016040523d82523d6000602084013e61426d565b606091505b509150915081801561429757508051158061429757508080602001905181019061429791906157e8565b610ce35760405162461bcd60e51b815260206004820152601c60248201527f426f72696e6745524332303a205472616e73666572206661696c6564000000006044820152606401610ccc565b6001600160a01b0383166143285760405162461bcd60e51b815260206004820152600c60248201526b4e6f2030206164647265737360a01b6044820152606401610ccc565b6001600160a01b03831660009081526001602090815260408083208584529091528120805483929061435b908490615519565b90915550506000828152600260205260408120805483929061437e908490615519565b909155505060408051838152602081018390526000916001600160a01b0386169133917fc3d58168c5ae7397731d063d5bbf3d657854427343f4c083240f7aacaa2d0f6291016141a9565b6000826001600160a01b03168260405160006040518083038185875af1925050503d8060008114614416576040519150601f19603f3d011682016040523d82523d6000602084013e61441b565b606091505b5050905080613d4f5760405162461bcd60e51b815260206004820152601e60248201527f426f72696e67416464726573733a207472616e73666572206661696c656400006044820152606401610ccc565b604080516001600160a01b0385811660248301528481166044830152606480830185905283518084039091018152608490920183526020820180516001600160e01b03167f23b872dd0000000000000000000000000000000000000000000000000000000017905291516000928392908816916144e991906157cc565b6000604051808303816000865af19150503d8060008114614526576040519150601f19603f3d011682016040523d82523d6000602084013e61452b565b606091505b509150915081801561455557508051158061455557508080602001905181019061455591906157e8565b6135c75760405162461bcd60e51b815260206004820181905260248201527f426f72696e6745524332303a205472616e7366657246726f6d206661696c65646044820152606401610ccc565b6044815110156145df57806040517fd9354485000000000000000000000000000000000000000000000000000000008152600401610ccc919061483a565b600481019050808060200190518101906145f99190615354565b60405162461bcd60e51b8152600401610ccc919061483a565b604080516001600160a01b0383811660248084019190915283518084039091018152604490920183526020820180516001600160e01b03167f70a08231000000000000000000000000000000000000000000000000000000001790529151600092839283929187169161468591906157cc565b600060405180830381855afa9150503d80600081146146c0576040519150601f19603f3d011682016040523d82523d6000602084013e6146c5565b606091505b50915091508180156146d957506020815110155b6147255760405162461bcd60e51b815260206004820152601d60248201527f426f72696e6745524332303a2042616c616e63654f66206661696c65640000006044820152606401610ccc565b808060200190518101906131e4919061574b565b82805461474590615242565b90600052602060002090601f01602090048101928261476757600085556147ad565b82601f1061478057805160ff19168380011785556147ad565b828001600101855582156147ad579182015b828111156147ad578251825591602001919060010190614792565b5061372b9291505b8082111561372b57600081556001016147b5565b6000602082840312156147db57600080fd5b5035919050565b60005b838110156147fd5781810151838201526020016147e5565b838111156124cd5750506000910152565b600081518084526148268160208601602086016147e2565b601f01601f19169290920160200192915050565b6020815260006119df602083018461480e565b6001600160a01b038116811461486257600080fd5b50565b6000806040838503121561487857600080fd5b82356148838161484d565b946020939093013593505050565b6001600160e01b03198116811461486257600080fd5b6000602082840312156148b957600080fd5b81356119df81614891565b600080600080608085870312156148da57600080fd5b84356148e58161484d565b935060208501356148f58161484d565b93969395505050506040820135916060013590565b60808152600061491d608083018761480e565b828103602084015261492f818761480e565b905060ff85166040840152828103606084015261494c818561480e565b979650505050505050565b60008083601f84011261496957600080fd5b50813567ffffffffffffffff81111561498157600080fd5b60208301915083602082850101111561499957600080fd5b9250929050565b801515811461486257600080fd5b600080600080606085870312156149c457600080fd5b84356149cf8161484d565b9350602085013567ffffffffffffffff8111156149eb57600080fd5b6149f787828801614957565b9094509250506040850135614a0b816149a0565b939692955090935050565b60008083601f840112614a2857600080fd5b50813567ffffffffffffffff811115614a4057600080fd5b6020830191508360208260051b850101111561499957600080fd5b60008060008060008060808789031215614a7457600080fd5b8635614a7f8161484d565b9550602087013567ffffffffffffffff80821115614a9c57600080fd5b614aa88a838b01614a16565b9097509550604089013594506060890135915080821115614ac857600080fd5b50614ad589828a01614a16565b979a9699509497509295939492505050565b60ff8116811461486257600080fd5b60008060008060008060006080888a031215614b1157600080fd5b873567ffffffffffffffff80821115614b2957600080fd5b614b358b838c01614957565b909950975060208a0135915080821115614b4e57600080fd5b614b5a8b838c01614957565b909750955060408a01359150614b6f82614ae7565b90935060608901359080821115614b8557600080fd5b50614b928a828b01614957565b989b979a50959850939692959293505050565b6005811061486257600080fd5b60008060008060808587031215614bc857600080fd5b8435614bd381614ba5565b93506020850135614be38161484d565b92506040850135614bf38161484d565b9396929550929360600135925050565b60008060008060008060008060a0898b031215614c1f57600080fd5b8835614c2a8161484d565b97506020890135614c3a8161484d565b9650604089013567ffffffffffffffff80821115614c5757600080fd5b614c638c838d01614a16565b909850965060608b0135915080821115614c7c57600080fd5b614c888c838d01614a16565b909650945060808b0135915080821115614ca157600080fd5b50614cae8b828c01614957565b999c989b5096995094979396929594505050565b600080600060608486031215614cd757600080fd5b83359250602084013591506040840135614cf0816149a0565b809150509250925092565b60008060008060408587031215614d1157600080fd5b843567ffffffffffffffff80821115614d2957600080fd5b614d3588838901614a16565b90965094506020870135915080821115614d4e57600080fd5b50614d5b87828801614a16565b95989497509550505050565b6020808252825182820181905260009190848201906040850190845b81811015614d9f57835183529284019291840191600101614d83565b50909695505050505050565b60008060008060808587031215614dc157600080fd5b843593506020850135614dd38161484d565b92506040850135614de3816149a0565b91506060850135614a0b816149a0565b600080600080600080600080610100898b031215614e1057600080fd5b8835614e1b81614ba5565b97506020890135614e2b8161484d565b96506040890135614e3b8161484d565b9550606089013594506080890135614e528161484d565b935060a0890135614e628161484d565b979a969950949793969295929450505060c08201359160e0013590565b600080600060608486031215614e9457600080fd5b833592506020840135614ea68161484d565b929592945050506040919091013590565b600080600060608486031215614ecc57600080fd5b833592506020840135614ede8161484d565b91506040840135614cf08161484d565b600080600080600080600080610100898b031215614f0b57600080fd5b8835614f168161484d565b97506020890135614f268161484d565b96506040890135614f368161484d565b9550606089013594506080890135935060a0890135614e6281614ae7565b600080600080600060a08688031215614f6c57600080fd5b853594506020860135614f7e8161484d565b93506040860135614f8e8161484d565b94979396509394606081013594506080013592915050565b60008060408385031215614fb957600080fd5b8235614fc48161484d565b91506020830135614fd4816149a0565b809150509250929050565b600080600060608486031215614ff457600080fd5b8335614fff8161484d565b92506020840135614ea68161484d565b60006020828403121561502157600080fd5b81356119df8161484d565b634e487b7160e01b600052602160045260246000fd5b6005811061506057634e487b7160e01b600052602160045260246000fd5b9052565b608081016150728287615042565b6001600160a01b039485166020830152929093166040840152606090920191909152919050565b6000806000604084860312156150ae57600080fd5b833567ffffffffffffffff8111156150c557600080fd5b6150d186828701614a16565b9094509250506020840135614cf0816149a0565b600080600080600080608087890312156150fe57600080fd5b86356151098161484d565b955060208701356151198161484d565b9450604087013567ffffffffffffffff8082111561513657600080fd5b6151428a838b01614a16565b90965094506060890135915080821115614ac857600080fd5b6000806040838503121561516e57600080fd5b82356151798161484d565b91506020830135614fd48161484d565b60008060008060008060a087890312156151a257600080fd5b86356151ad8161484d565b955060208701356151bd8161484d565b94506040870135935060608701359250608087013567ffffffffffffffff8111156151e757600080fd5b614ad589828a01614957565b634e487b7160e01b600052603260045260246000fd5b80546152188360ff8316615042565b60081c6001600160a01b039081166020840152600182015416604083015260020154606090910152565b600181811c9082168061525657607f821691505b6020821081141561527757634e487b7160e01b600052602260045260246000fd5b50919050565b8054600090600181811c908083168061529757607f831692505b60208084108214156152b957634e487b7160e01b600052602260045260246000fd5b8388528180156152d057600181146152e457615312565b60ff19861689830152604089019650615312565b876000528160002060005b8681101561530a5781548b82018501529085019083016152ef565b8a0183019750505b50505050505092915050565b6153288184615209565b60a0608082015260006119dc60a083018461527d565b634e487b7160e01b600052604160045260246000fd5b60006020828403121561536657600080fd5b815167ffffffffffffffff8082111561537e57600080fd5b818401915084601f83011261539257600080fd5b8151818111156153a4576153a461533e565b604051601f8201601f19908116603f011681019083821181831017156153cc576153cc61533e565b816040528281528760208487010111156153e557600080fd5b61494c8360208301602088016147e2565b6154008186615209565b60e06080820152608060e0820152600061541e61016083018661527d565b60df198084830301610100850152615439826001890161527d565b915060ff600288015416610120850152808483030161014085015250615462816003880161527d565b9150508360a08301526001600160a01b03831660c083015295945050505050565b8183823760009101908152919050565b81835281816020850137506000828201602090810191909152601f909101601f19169091010190565b6020815260006119dc602083018486615493565b634e487b7160e01b600052601160045260246000fd5b60006000198214156154fa576154fa6154d0565b5060010190565b60008219821115615514576155146154d0565b500190565b60008282101561552b5761552b6154d0565b500390565b60808152600061554460808301888a615493565b8281036020840152615557818789615493565b91505060ff8416604083015263ffffffff83166060830152979650505050505050565b81835260007f07ffffffffffffffffffffffffffffffffffffffffffffffffffffffffffffff8311156155ac57600080fd5b8260051b8083602087013760009401602001938452509192915050565b60006001600160a01b03808b168352808a1660208401525060a060408301526155f660a08301888a61557a565b828103606084015261560981878961557a565b9050828103608084015261561e818587615493565b9b9a5050505050505050505050565b60006020828403121561563f57600080fd5b81516119df81614891565b60a081016156588285615209565b60ff831660808301529392505050565b60006020828403121561567a57600080fd5b81516119df81614ae7565b6000808335601e1984360301811261569c57600080fd5b83018035915067ffffffffffffffff8211156156b757600080fd5b60200191503681900382131561499957600080fd5b60006001600160a01b03808916835280881660208401525085604083015284606083015260a0608083015261570560a083018486615493565b98975050505050505050565b60006020828403121561572357600080fd5b81516119df81614ba5565b60006020828403121561574057600080fd5b81516119df8161484d565b60006020828403121561575d57600080fd5b5051919050565b60408152600061577860408301868861557a565b828103602084015261494c81858761557a565b60008160001904831182151516156157a5576157a56154d0565b500290565b6000826157c757634e487b7160e01b600052601260045260246000fd5b500490565b600082516157de8184602087016147e2565b9190910192915050565b6000602082840312156157fa57600080fd5b81516119df816149a056fea26469706673582212206af790f09177ff2de1e14c0f6409c6eb7379026c15dc2b17d7ce3b29c693b84864736f6c63430008090033",
  "devdoc": {
    "author": "BoringCrypto, Keno",
    "kind": "dev",
    "methods": {
      "amountOf(address,uint256)": {
        "details": "Helper function represent the balance in `token` amount for a `user` for an `asset`.",
        "params": {
          "assetId": "The id of the asset.",
          "user": "The `user` to get the amount for."
        }
      },
      "batch(bytes[],bool)": {
        "params": {
          "calls": "An array of inputs for each call.",
          "revertOnFail": "If True then reverts after a failed call and stops doing further calls."
        }
      },
      "burn(uint256,address,uint256)": {
        "params": {
          "amount": "The amount of tokens to burn.",
          "tokenId": "The token to be burned."
        }
      },
      "claimOwnership(uint256)": {
        "params": {
          "tokenId": "The `tokenId` of the token that ownership is claimed for."
        }
      },
      "clonesOfCount(address)": {
        "params": {
          "masterContract": "The address of the master contract."
        },
        "returns": {
          "cloneCount": "total number of clones for the masterContract."
        }
      },
      "createToken(string,string,uint8,string)": {
        "params": {
          "decimals": "The number of decimals of the token (this is just for display purposes). Should be set to 18 in normal cases.",
          "name": "The name of the token.",
          "symbol": "The symbol of the token."
        }
      },
      "deploy(address,bytes,bool)": {
        "params": {
          "data": "Additional abi encoded calldata that is passed to the new clone via `IMasterContract.init`.",
          "masterContract": "The address of the contract to clone.",
          "useCreate2": "Creates the clone by using the CREATE2 opcode, in this case `data` will be used as salt."
        },
        "returns": {
          "cloneAddress": "Address of the created clone contract."
        }
      },
      "depositAsset(uint256,address,address,uint256,uint256)": {
        "params": {
          "amount": "Token amount in native representation to deposit.",
          "assetId": "The id of the asset.",
          "from": "which account to pull the tokens.",
          "share": "Token amount represented in shares to deposit. Takes precedence over `amount`.",
          "to": "which account to push the tokens."
        },
        "returns": {
          "amountOut": "The amount deposited.",
          "shareOut": "The deposited amount repesented in shares."
        }
      },
      "depositNFTAsset(uint256,address,address)": {
        "params": {
          "assetId": "The id of the asset.",
          "from": "which account to pull the tokens.",
          "to": "which account to push the tokens."
        },
        "returns": {
          "amountOut": "The amount deposited.",
          "shareOut": "The deposited amount repesented in shares."
        }
      },
      "mint(uint256,address,uint256)": {
        "params": {
          "amount": "The amount of tokens to mint.",
          "to": "The account to transfer the minted tokens to.",
          "tokenId": "The token to be minted."
        }
      },
      "toAmount(uint256,uint256,bool)": {
        "details": "Helper function represent shares back into the `token` amount.",
        "params": {
          "assetId": "The id of the asset.",
          "roundUp": "If the result should be rounded up.",
          "share": "The amount of shares."
        },
        "returns": {
          "amount": "The share amount back into native representation."
        }
      },
      "toShare(uint256,uint256,bool)": {
        "details": "Helper function to represent an `amount` of `token` in shares.",
        "params": {
          "amount": "The `token` amount.",
          "assetId": "The id of the asset.",
          "roundUp": "If the result `share` should be rounded up."
        },
        "returns": {
          "share": "The token amount represented in shares."
        }
      },
      "transfer(address,address,uint256,uint256)": {
        "params": {
          "assetId": "The id of the asset.",
          "from": "which user to pull the tokens.",
          "share": "The amount of `token` in shares.",
          "to": "which user to push the tokens."
        }
      },
      "transferMultiple(address,address[],uint256,uint256[])": {
        "params": {
          "assetId": "The id of the asset.",
          "from": "which user to pull the tokens.",
          "shares": "The amount of `token` in shares for each receiver in `tos`.",
          "tos": "The receivers of the tokens."
        }
      },
      "transferOwnership(uint256,address,bool,bool)": {
        "params": {
          "direct": "True if `newOwner` should be set immediately. False if `newOwner` needs to use `claimOwnership`.",
          "newOwner": "Address of the new owner.",
          "renounce": "Allows the `newOwner` to be `address(0)` if `direct` and `renounce` is True. Has no effect otherwise.",
          "tokenId": "The `tokenId` of the token that ownership whose ownership will be transferred/renounced."
        }
      },
      "withdraw(uint256,address,address,uint256,uint256)": {
        "params": {
          "amount": "of tokens. Either one of `amount` or `share` needs to be supplied.",
          "assetId": "The id of the asset.",
          "from": "which user to pull the tokens.",
          "share": "Like above, but `share` takes precedence over `amount`.",
          "to": "which user to push the tokens."
        }
      }
    },
    "title": "YieldBox",
    "version": 1
  },
  "userdoc": {
    "kind": "user",
    "methods": {
      "batch(bytes[],bool)": {
        "notice": "Allows batched call to self (this contract)."
      },
      "burn(uint256,address,uint256)": {
        "notice": "Burns tokens. Only the holder of tokens can burn them."
      },
      "claimOwnership(uint256)": {
        "notice": "Needs to be called by `pendingOwner` to claim ownership."
      },
      "clonesOf(address,uint256)": {
        "notice": "Mapping from masterContract to an array of all clones On mainnet events can be used to get this list, but events aren't always easy to retrieve and barely work on sidechains. While this adds gas, it makes enumerating all clones much easier."
      },
      "clonesOfCount(address)": {
        "notice": "Returns the count of clones that exists for a specific masterContract"
      },
      "createToken(string,string,uint8,string)": {
        "notice": "Create a new native token. This will be an ERC1155 token. If later it's needed as an ERC20 token it can be wrapped into an ERC20 token. Native support for ERC1155 tokens is growing though."
      },
      "deploy(address,bytes,bool)": {
        "notice": "Deploys a given master Contract as a clone. Any ETH transferred with this call is forwarded to the new clone. Emits `LogDeploy`."
      },
      "depositAsset(uint256,address,address,uint256,uint256)": {
        "notice": "Deposit an amount of `token` represented in either `amount` or `share`."
      },
      "depositNFTAsset(uint256,address,address)": {
        "notice": "Deposit an NFT asset"
      },
      "masterContractOf(address)": {
        "notice": "Mapping from clone contracts to their masterContract."
      },
      "mint(uint256,address,uint256)": {
        "notice": "The `owner` can mint tokens. If a fixed supply is needed, the `owner` should mint the totalSupply and renounce ownership."
      },
      "permitToken(address,address,address,uint256,uint256,uint8,bytes32,bytes32)": {
        "notice": "Call wrapper that performs `ERC20.permit` on `token`. Lookup `IERC20.permit`."
      },
      "transfer(address,address,uint256,uint256)": {
        "notice": "Transfer shares from a user account to another one."
      },
      "transferMultiple(address,address[],uint256,uint256[])": {
        "notice": "Transfer shares from a user account to multiple other ones."
      },
      "transferOwnership(uint256,address,bool,bool)": {
        "notice": "Transfers ownership to `newOwner`. Either directly or claimable by the new pending owner. Can only be invoked by the current `owner`."
      },
      "withdraw(uint256,address,address,uint256,uint256)": {
        "notice": "Withdraws an amount of `token` from a user account."
      }
    },
    "notice": "The YieldBox is a vault for tokens. The stored tokens can assigned to strategies. Yield from this will go to the token depositors. Any funds transfered directly onto the YieldBox will be lost, use the deposit function instead.",
    "version": 1
  },
  "storageLayout": {
    "storage": [
      {
        "astId": 16083,
        "contract": "yieldbox/contracts/YieldBox.sol:YieldBox",
        "label": "isApprovedForAll",
        "offset": 0,
        "slot": "0",
        "type": "t_mapping(t_address,t_mapping(t_address,t_bool))"
      },
      {
        "astId": 16090,
        "contract": "yieldbox/contracts/YieldBox.sol:YieldBox",
        "label": "balanceOf",
        "offset": 0,
        "slot": "1",
        "type": "t_mapping(t_address,t_mapping(t_uint256,t_uint256))"
      },
      {
        "astId": 16094,
        "contract": "yieldbox/contracts/YieldBox.sol:YieldBox",
        "label": "totalSupply",
        "offset": 0,
        "slot": "2",
        "type": "t_mapping(t_uint256,t_uint256)"
      },
      {
        "astId": 15739,
        "contract": "yieldbox/contracts/YieldBox.sol:YieldBox",
        "label": "ids",
        "offset": 0,
        "slot": "3",
        "type": "t_mapping(t_enum(TokenType)18903,t_mapping(t_address,t_mapping(t_contract(IStrategy)18979,t_mapping(t_uint256,t_uint256))))"
      },
      {
        "astId": 15743,
        "contract": "yieldbox/contracts/YieldBox.sol:YieldBox",
        "label": "assets",
        "offset": 0,
        "slot": "4",
        "type": "t_array(t_struct(Asset)15708_storage)dyn_storage"
      },
      {
        "astId": 135,
        "contract": "yieldbox/contracts/YieldBox.sol:YieldBox",
        "label": "masterContractOf",
        "offset": 0,
        "slot": "5",
        "type": "t_mapping(t_address,t_address)"
      },
      {
        "astId": 141,
        "contract": "yieldbox/contracts/YieldBox.sol:YieldBox",
        "label": "clonesOf",
        "offset": 0,
        "slot": "6",
        "type": "t_mapping(t_address,t_array(t_address)dyn_storage)"
      },
      {
        "astId": 16640,
        "contract": "yieldbox/contracts/YieldBox.sol:YieldBox",
        "label": "nativeTokens",
        "offset": 0,
        "slot": "7",
        "type": "t_mapping(t_uint256,t_struct(NativeToken)16627_storage)"
      },
      {
        "astId": 16644,
        "contract": "yieldbox/contracts/YieldBox.sol:YieldBox",
        "label": "owner",
        "offset": 0,
        "slot": "8",
        "type": "t_mapping(t_uint256,t_address)"
      },
      {
        "astId": 16648,
        "contract": "yieldbox/contracts/YieldBox.sol:YieldBox",
        "label": "pendingOwner",
        "offset": 0,
        "slot": "9",
        "type": "t_mapping(t_uint256,t_address)"
      }
    ],
    "types": {
      "t_address": {
        "encoding": "inplace",
        "label": "address",
        "numberOfBytes": "20"
      },
      "t_array(t_address)dyn_storage": {
        "base": "t_address",
        "encoding": "dynamic_array",
        "label": "address[]",
        "numberOfBytes": "32"
      },
      "t_array(t_struct(Asset)15708_storage)dyn_storage": {
        "base": "t_struct(Asset)15708_storage",
        "encoding": "dynamic_array",
        "label": "struct Asset[]",
        "numberOfBytes": "32"
      },
      "t_bool": {
        "encoding": "inplace",
        "label": "bool",
        "numberOfBytes": "1"
      },
      "t_contract(IStrategy)18979": {
        "encoding": "inplace",
        "label": "contract IStrategy",
        "numberOfBytes": "20"
      },
      "t_enum(TokenType)18903": {
        "encoding": "inplace",
        "label": "enum TokenType",
        "numberOfBytes": "1"
      },
      "t_mapping(t_address,t_address)": {
        "encoding": "mapping",
        "key": "t_address",
        "label": "mapping(address => address)",
        "numberOfBytes": "32",
        "value": "t_address"
      },
      "t_mapping(t_address,t_array(t_address)dyn_storage)": {
        "encoding": "mapping",
        "key": "t_address",
        "label": "mapping(address => address[])",
        "numberOfBytes": "32",
        "value": "t_array(t_address)dyn_storage"
      },
      "t_mapping(t_address,t_bool)": {
        "encoding": "mapping",
        "key": "t_address",
        "label": "mapping(address => bool)",
        "numberOfBytes": "32",
        "value": "t_bool"
      },
      "t_mapping(t_address,t_mapping(t_address,t_bool))": {
        "encoding": "mapping",
        "key": "t_address",
        "label": "mapping(address => mapping(address => bool))",
        "numberOfBytes": "32",
        "value": "t_mapping(t_address,t_bool)"
      },
      "t_mapping(t_address,t_mapping(t_contract(IStrategy)18979,t_mapping(t_uint256,t_uint256)))": {
        "encoding": "mapping",
        "key": "t_address",
        "label": "mapping(address => mapping(contract IStrategy => mapping(uint256 => uint256)))",
        "numberOfBytes": "32",
        "value": "t_mapping(t_contract(IStrategy)18979,t_mapping(t_uint256,t_uint256))"
      },
      "t_mapping(t_address,t_mapping(t_uint256,t_uint256))": {
        "encoding": "mapping",
        "key": "t_address",
        "label": "mapping(address => mapping(uint256 => uint256))",
        "numberOfBytes": "32",
        "value": "t_mapping(t_uint256,t_uint256)"
      },
      "t_mapping(t_contract(IStrategy)18979,t_mapping(t_uint256,t_uint256))": {
        "encoding": "mapping",
        "key": "t_contract(IStrategy)18979",
        "label": "mapping(contract IStrategy => mapping(uint256 => uint256))",
        "numberOfBytes": "32",
        "value": "t_mapping(t_uint256,t_uint256)"
      },
      "t_mapping(t_enum(TokenType)18903,t_mapping(t_address,t_mapping(t_contract(IStrategy)18979,t_mapping(t_uint256,t_uint256))))": {
        "encoding": "mapping",
        "key": "t_enum(TokenType)18903",
        "label": "mapping(enum TokenType => mapping(address => mapping(contract IStrategy => mapping(uint256 => uint256))))",
        "numberOfBytes": "32",
        "value": "t_mapping(t_address,t_mapping(t_contract(IStrategy)18979,t_mapping(t_uint256,t_uint256)))"
      },
      "t_mapping(t_uint256,t_address)": {
        "encoding": "mapping",
        "key": "t_uint256",
        "label": "mapping(uint256 => address)",
        "numberOfBytes": "32",
        "value": "t_address"
      },
      "t_mapping(t_uint256,t_struct(NativeToken)16627_storage)": {
        "encoding": "mapping",
        "key": "t_uint256",
        "label": "mapping(uint256 => struct NativeToken)",
        "numberOfBytes": "32",
        "value": "t_struct(NativeToken)16627_storage"
      },
      "t_mapping(t_uint256,t_uint256)": {
        "encoding": "mapping",
        "key": "t_uint256",
        "label": "mapping(uint256 => uint256)",
        "numberOfBytes": "32",
        "value": "t_uint256"
      },
      "t_string_storage": {
        "encoding": "bytes",
        "label": "string",
        "numberOfBytes": "32"
      },
      "t_struct(Asset)15708_storage": {
        "encoding": "inplace",
        "label": "struct Asset",
        "members": [
          {
            "astId": 15700,
            "contract": "yieldbox/contracts/YieldBox.sol:YieldBox",
            "label": "tokenType",
            "offset": 0,
            "slot": "0",
            "type": "t_enum(TokenType)18903"
          },
          {
            "astId": 15702,
            "contract": "yieldbox/contracts/YieldBox.sol:YieldBox",
            "label": "contractAddress",
            "offset": 1,
            "slot": "0",
            "type": "t_address"
          },
          {
            "astId": 15705,
            "contract": "yieldbox/contracts/YieldBox.sol:YieldBox",
            "label": "strategy",
            "offset": 0,
            "slot": "1",
            "type": "t_contract(IStrategy)18979"
          },
          {
            "astId": 15707,
            "contract": "yieldbox/contracts/YieldBox.sol:YieldBox",
            "label": "tokenId",
            "offset": 0,
            "slot": "2",
            "type": "t_uint256"
          }
        ],
        "numberOfBytes": "96"
      },
      "t_struct(NativeToken)16627_storage": {
        "encoding": "inplace",
        "label": "struct NativeToken",
        "members": [
          {
            "astId": 16620,
            "contract": "yieldbox/contracts/YieldBox.sol:YieldBox",
            "label": "name",
            "offset": 0,
            "slot": "0",
            "type": "t_string_storage"
          },
          {
            "astId": 16622,
            "contract": "yieldbox/contracts/YieldBox.sol:YieldBox",
            "label": "symbol",
            "offset": 0,
            "slot": "1",
            "type": "t_string_storage"
          },
          {
            "astId": 16624,
            "contract": "yieldbox/contracts/YieldBox.sol:YieldBox",
            "label": "decimals",
            "offset": 0,
            "slot": "2",
            "type": "t_uint8"
          },
          {
            "astId": 16626,
            "contract": "yieldbox/contracts/YieldBox.sol:YieldBox",
            "label": "uri",
            "offset": 0,
            "slot": "3",
            "type": "t_string_storage"
          }
        ],
        "numberOfBytes": "128"
      },
      "t_uint256": {
        "encoding": "inplace",
        "label": "uint256",
        "numberOfBytes": "32"
      },
      "t_uint8": {
        "encoding": "inplace",
        "label": "uint8",
        "numberOfBytes": "1"
      }
    }
  }
}